{
  "_format": "hh-sol-artifact-1",
  "contractName": "MockNFT",
  "sourceName": "contracts/Mock/MockNFT.sol",
  "abi": [
    {
      "inputs": [],
      "stateMutability": "nonpayable",
      "type": "constructor"
    },
    {
      "inputs": [],
      "name": "ERC721EnumerableForbiddenBatchMint",
      "type": "error"
    },
    {
      "inputs": [
        {
          "internalType": "address",
          "name": "sender",
          "type": "address"
        },
        {
          "internalType": "uint256",
          "name": "tokenId",
          "type": "uint256"
        },
        {
          "internalType": "address",
          "name": "owner",
          "type": "address"
        }
      ],
      "name": "ERC721IncorrectOwner",
      "type": "error"
    },
    {
      "inputs": [
        {
          "internalType": "address",
          "name": "operator",
          "type": "address"
        },
        {
          "internalType": "uint256",
          "name": "tokenId",
          "type": "uint256"
        }
      ],
      "name": "ERC721InsufficientApproval",
      "type": "error"
    },
    {
      "inputs": [
        {
          "internalType": "address",
          "name": "approver",
          "type": "address"
        }
      ],
      "name": "ERC721InvalidApprover",
      "type": "error"
    },
    {
      "inputs": [
        {
          "internalType": "address",
          "name": "operator",
          "type": "address"
        }
      ],
      "name": "ERC721InvalidOperator",
      "type": "error"
    },
    {
      "inputs": [
        {
          "internalType": "address",
          "name": "owner",
          "type": "address"
        }
      ],
      "name": "ERC721InvalidOwner",
      "type": "error"
    },
    {
      "inputs": [
        {
          "internalType": "address",
          "name": "receiver",
          "type": "address"
        }
      ],
      "name": "ERC721InvalidReceiver",
      "type": "error"
    },
    {
      "inputs": [
        {
          "internalType": "address",
          "name": "sender",
          "type": "address"
        }
      ],
      "name": "ERC721InvalidSender",
      "type": "error"
    },
    {
      "inputs": [
        {
          "internalType": "uint256",
          "name": "tokenId",
          "type": "uint256"
        }
      ],
      "name": "ERC721NonexistentToken",
      "type": "error"
    },
    {
      "inputs": [
        {
          "internalType": "address",
          "name": "owner",
          "type": "address"
        },
        {
          "internalType": "uint256",
          "name": "index",
          "type": "uint256"
        }
      ],
      "name": "ERC721OutOfBoundsIndex",
      "type": "error"
    },
    {
      "anonymous": false,
      "inputs": [
        {
          "indexed": true,
          "internalType": "address",
          "name": "owner",
          "type": "address"
        },
        {
          "indexed": true,
          "internalType": "address",
          "name": "approved",
          "type": "address"
        },
        {
          "indexed": true,
          "internalType": "uint256",
          "name": "tokenId",
          "type": "uint256"
        }
      ],
      "name": "Approval",
      "type": "event"
    },
    {
      "anonymous": false,
      "inputs": [
        {
          "indexed": true,
          "internalType": "address",
          "name": "owner",
          "type": "address"
        },
        {
          "indexed": true,
          "internalType": "address",
          "name": "operator",
          "type": "address"
        },
        {
          "indexed": false,
          "internalType": "bool",
          "name": "approved",
          "type": "bool"
        }
      ],
      "name": "ApprovalForAll",
      "type": "event"
    },
    {
      "anonymous": false,
      "inputs": [
        {
          "indexed": true,
          "internalType": "address",
          "name": "from",
          "type": "address"
        },
        {
          "indexed": true,
          "internalType": "address",
          "name": "to",
          "type": "address"
        },
        {
          "indexed": true,
          "internalType": "uint256",
          "name": "tokenId",
          "type": "uint256"
        }
      ],
      "name": "Transfer",
      "type": "event"
    },
    {
      "inputs": [
        {
          "internalType": "address",
          "name": "to",
          "type": "address"
        },
        {
          "internalType": "uint256",
          "name": "tokenId",
          "type": "uint256"
        }
      ],
      "name": "approve",
      "outputs": [],
      "stateMutability": "nonpayable",
      "type": "function"
    },
    {
      "inputs": [
        {
          "internalType": "address",
          "name": "owner",
          "type": "address"
        }
      ],
      "name": "balanceOf",
      "outputs": [
        {
          "internalType": "uint256",
          "name": "",
          "type": "uint256"
        }
      ],
      "stateMutability": "view",
      "type": "function"
    },
    {
      "inputs": [
        {
          "internalType": "uint256",
          "name": "tokenId",
          "type": "uint256"
        }
      ],
      "name": "getApproved",
      "outputs": [
        {
          "internalType": "address",
          "name": "",
          "type": "address"
        }
      ],
      "stateMutability": "view",
      "type": "function"
    },
    {
      "inputs": [
        {
          "internalType": "address",
          "name": "owner",
          "type": "address"
        },
        {
          "internalType": "address",
          "name": "operator",
          "type": "address"
        }
      ],
      "name": "isApprovedForAll",
      "outputs": [
        {
          "internalType": "bool",
          "name": "",
          "type": "bool"
        }
      ],
      "stateMutability": "view",
      "type": "function"
    },
    {
      "inputs": [
        {
          "internalType": "address",
          "name": "to",
          "type": "address"
        }
      ],
      "name": "mint",
      "outputs": [],
      "stateMutability": "nonpayable",
      "type": "function"
    },
    {
      "inputs": [],
      "name": "name",
      "outputs": [
        {
          "internalType": "string",
          "name": "",
          "type": "string"
        }
      ],
      "stateMutability": "view",
      "type": "function"
    },
    {
      "inputs": [
        {
          "internalType": "uint256",
          "name": "tokenId",
          "type": "uint256"
        }
      ],
      "name": "ownerOf",
      "outputs": [
        {
          "internalType": "address",
          "name": "",
          "type": "address"
        }
      ],
      "stateMutability": "view",
      "type": "function"
    },
    {
      "inputs": [
        {
          "internalType": "address",
          "name": "from",
          "type": "address"
        },
        {
          "internalType": "address",
          "name": "to",
          "type": "address"
        },
        {
          "internalType": "uint256",
          "name": "tokenId",
          "type": "uint256"
        }
      ],
      "name": "safeTransferFrom",
      "outputs": [],
      "stateMutability": "nonpayable",
      "type": "function"
    },
    {
      "inputs": [
        {
          "internalType": "address",
          "name": "from",
          "type": "address"
        },
        {
          "internalType": "address",
          "name": "to",
          "type": "address"
        },
        {
          "internalType": "uint256",
          "name": "tokenId",
          "type": "uint256"
        },
        {
          "internalType": "bytes",
          "name": "data",
          "type": "bytes"
        }
      ],
      "name": "safeTransferFrom",
      "outputs": [],
      "stateMutability": "nonpayable",
      "type": "function"
    },
    {
      "inputs": [
        {
          "internalType": "address",
          "name": "operator",
          "type": "address"
        },
        {
          "internalType": "bool",
          "name": "approved",
          "type": "bool"
        }
      ],
      "name": "setApprovalForAll",
      "outputs": [],
      "stateMutability": "nonpayable",
      "type": "function"
    },
    {
      "inputs": [
        {
          "internalType": "bytes4",
          "name": "interfaceId",
          "type": "bytes4"
        }
      ],
      "name": "supportsInterface",
      "outputs": [
        {
          "internalType": "bool",
          "name": "",
          "type": "bool"
        }
      ],
      "stateMutability": "view",
      "type": "function"
    },
    {
      "inputs": [],
      "name": "symbol",
      "outputs": [
        {
          "internalType": "string",
          "name": "",
          "type": "string"
        }
      ],
      "stateMutability": "view",
      "type": "function"
    },
    {
      "inputs": [
        {
          "internalType": "uint256",
          "name": "index",
          "type": "uint256"
        }
      ],
      "name": "tokenByIndex",
      "outputs": [
        {
          "internalType": "uint256",
          "name": "",
          "type": "uint256"
        }
      ],
      "stateMutability": "view",
      "type": "function"
    },
    {
      "inputs": [
        {
          "internalType": "address",
          "name": "owner",
          "type": "address"
        },
        {
          "internalType": "uint256",
          "name": "index",
          "type": "uint256"
        }
      ],
      "name": "tokenOfOwnerByIndex",
      "outputs": [
        {
          "internalType": "uint256",
          "name": "",
          "type": "uint256"
        }
      ],
      "stateMutability": "view",
      "type": "function"
    },
    {
      "inputs": [
        {
          "internalType": "uint256",
          "name": "tokenId",
          "type": "uint256"
        }
      ],
      "name": "tokenURI",
      "outputs": [
        {
          "internalType": "string",
          "name": "",
          "type": "string"
        }
      ],
      "stateMutability": "view",
      "type": "function"
    },
    {
      "inputs": [],
      "name": "totalSupply",
      "outputs": [
        {
          "internalType": "uint256",
          "name": "",
          "type": "uint256"
        }
      ],
      "stateMutability": "view",
      "type": "function"
    },
    {
      "inputs": [
        {
          "internalType": "address",
          "name": "from",
          "type": "address"
        },
        {
          "internalType": "address",
          "name": "to",
          "type": "address"
        },
        {
          "internalType": "uint256",
          "name": "tokenId",
          "type": "uint256"
        }
      ],
      "name": "transferFrom",
      "outputs": [],
      "stateMutability": "nonpayable",
      "type": "function"
    }
  ],
  "bytecode": "0x6080346200030b576001600160401b039060409080820183811182821017620002f55782526007815260209266135bd8dad3919560ca1b84830152825183810181811083821117620002f557845260048152631353919560e21b85820152825190828211620002f55760008054926001958685811c95168015620002ea575b89861014620002d6578190601f9586811162000283575b5089908683116001146200021f57849262000213575b5050600019600383901b1c191690861b1781555b8151938411620001ff5784548581811c91168015620001f4575b88821014620001e05783811162000198575b5086928411600114620001325783949596509262000126575b5050600019600383901b1c191690821b1790555b516111829081620003118239f35b01519050388062000104565b9190601f1984169685845280842093905b88821062000180575050838596971062000166575b505050811b01905562000118565b015160001960f88460031b161c1916905538808062000158565b80878596829496860151815501950193019062000143565b8582528782208480870160051c8201928a8810620001d6575b0160051c019086905b828110620001ca575050620000eb565b838155018690620001ba565b92508192620001b1565b634e487b7160e01b82526022600452602482fd5b90607f1690620000d9565b634e487b7160e01b81526041600452602490fd5b015190503880620000ab565b8480528a85208994509190601f198416865b8d8282106200026c575050841162000252575b505050811b018155620000bf565b015160001960f88460031b161c1916905538808062000244565b8385015186558c9790950194938401930162000231565b9091508380528984208680850160051c8201928c8610620002cc575b918a91869594930160051c01915b828110620002bd57505062000095565b8681558594508a9101620002ad565b925081926200029f565b634e487b7160e01b83526022600452602483fd5b94607f16946200007e565b634e487b7160e01b600052604160045260246000fd5b600080fdfe608060408181526004918236101561001657600080fd5b600092833560e01c91826301ffc9a714610af15750816306fdde0314610a26578163081812fc146109ea578163095ea7b31461090d57816318160ddd146108ee57816323b872dd146108d65781632f745c591461085257816342842e0e146108235781634f6ccce7146107ce5781636352211e1461079d5781636a6278421461040357816370a08231146103d657816395d89b41146102bd578163a22cb4651461021b578163b88d4fde14610182578163c87b56dd14610130575063e985e9c5146100e057600080fd5b3461012c578060031936011261012c5760ff816020936100fe610bb6565b610106610bd1565b6001600160a01b0391821683526005875283832091168252855220549151911615158152f35b5080fd5b83833461012c57602036600319011261012c5761015061017e9335610f80565b5081815161015d81610c1c565b5280519161016a83610c1c565b825251918291602083526020830190610b76565b0390f35b919050346102175760803660031901126102175761019e610bb6565b6101a6610bd1565b60443591856064359567ffffffffffffffff871161012c573660238801121561012c57860135956101e26101d988610c70565b96519687610c4e565b868652366024888301011161012c578661021497602460209301838901378601015261020f838383610cc5565b610fbb565b80f35b8280fd5b91905034610217578060031936011261021757610236610bb6565b90602435918215158093036102b9576001600160a01b03169283156102a45750338452600560205280842083855260205280842060ff1981541660ff8416179055519081527f17307eab39ab6107e8899845ad3d59bd9653f200f220920489ca2b5937696c3160203392a380f35b836024925191630b61174360e31b8352820152fd5b8480fd5b8284346103d357806003193601126103d3578151918160019283549384811c918186169586156103c9575b60209687851081146103b6578899509688969785829a52918260001461038f575050600114610334575b50505061017e9291610325910385610c4e565b51928284938452830190610b76565b91908693508083527fb10e2d527612073b26eecdfd717e6a320cf44b4afac2b0732d9fcbe2b7fa0cf65b828410610377575050508201018161032561017e610312565b8054848a01860152889550879490930192810161035e565b60ff19168782015293151560051b86019093019350849250610325915061017e9050610312565b634e487b7160e01b835260228a52602483fd5b92607f16926102e8565b80fd5b50503461012c57602036600319011261012c576020906103fc6103f7610bb6565b610c8c565b9051908152f35b83833461012c576020908160031936011261021757610420610bb6565b90600a54815161042f81610c1c565b8581526001600160a01b0384811694908515610786577fddf252ad1be2c89b69c2b068fc378daa952ba7f163c4a11628f55a4df523b3ef868886828c8a96838252600285528782205416958691600283159687159a8b610753575b86845260038252832080546001019055868352528c812080546001600160a01b0319168517905580a4156106d55750600854858a526009895280878b2055600160401b8110156106c25790610503866104ea8460018c96016008556110ff565b90919082549060031b91821b91600019901b1916179055565b03610676575b61065f573b610540575b5050505050600a54600019811461052d57600101600a5580f35b506011602492634e487b7160e01b835252fd5b8461057d918495969897945180938192630a85bd0160e11b96878452338c8501528860248501526044840152608060648401526084830190610b76565b038186895af183918161061b575b506105e65750503d156105de573d6105a281610c70565b906105af84519283610c4e565b81528091863d92013e5b805194856105d857505051633250574960e11b81529182015260249150fd5b85925001fd5b5060606105b9565b94955090936001600160e01b031916036106065750508280808080610513565b51633250574960e11b81529283015250602490fd5b9091508781813d8311610658575b6106338183610c4e565b8101031261065457516001600160e01b03198116810361065457908861058b565b8380fd5b503d610629565b83516339e3563760e11b8152808901889052602490fd5b61067f82610c8c565b60001981019081116106af5786895260068852858920818a52885284868a20558489526007885285892055610509565b634e487b7160e01b895260118a52602489fd5b634e487b7160e01b8a5260418b5260248afd5b90808214610503576106e681610c8c565b868b5260078a52878b205481810361071b575b50868b528a88812055818b5260068a52878b20908b5289528987812055610503565b828c526006808c52898d20838e528c52898d2054848e52908c52898d20828e528c52898d208190558c5260078b52888c20558c6106f9565b600088815260046020526040902080546001600160a01b031916905585845260038252808420805460001901905561048a565b8451633250574960e11b8152808a01899052602490fd5b8284346103d35760203660031901126103d357506107bd60209235610f80565b90516001600160a01b039091168152f35b90503461021757602036600319011261021757803592600854841015610808576020836107fa866110ff565b91905490519160031b1c8152f35b6044939192519263295f44f760e21b84528301526024820152fd5b50503461012c576102149061083736610be7565b9192519261084484610c1c565b85845261020f838383610cc5565b8284346103d357816003193601126103d35761086c610bb6565b926024359061087a85610c8c565b8210156108aa57506001600160a01b03909316815260066020908152828220938252928352819020549051908152f35b925163295f44f760e21b81526001600160a01b0390941692840192835260208301525081906040010390fd5b83346103d3576102146108e836610be7565b91610cc5565b50503461012c578160031936011261012c576020906008549051908152f35b91905034610217578060031936011261021757610928610bb6565b9160243561093581610f80565b331515806109d7575b806109ae575b610998576001600160a01b039485169482918691167f8c5be1e5ebec7d5bd14f71427d1e84f3dd0314c0f7b2291e5b200ac8c7c3b9258880a48452602052822080546001600160a01b031916909117905580f35b835163a9fbf51f60e01b81523381850152602490fd5b506001600160a01b03811686526005602090815284872033885290528386205460ff1615610944565b506001600160a01b03811633141561093e565b90503461021757602036600319011261021757918260209335610a0c81610f80565b50825283528190205490516001600160a01b039091168152f35b8284346103d357806003193601126103d35781519181825492600184811c91818616958615610ae7575b60209687851081146103b6578899509688969785829a52918260001461038f575050600114610a8c5750505061017e9291610325910385610c4e565b91908693508280527f290decd9548b62a8d60345a988386fc84ba6bc95484008f6362f93160ef3e5635b828410610acf575050508201018161032561017e610312565b8054848a018601528895508794909301928101610ab6565b92607f1692610a50565b849134610217576020366003190112610217573563ffffffff60e01b8116809103610217576020925063780e9d6360e01b8114908115610b33575b5015158152f35b6380ac58cd60e01b811491508115610b65575b8115610b54575b5083610b2c565b6301ffc9a760e01b14905083610b4d565b635b5e139f60e01b81149150610b46565b919082519283825260005b848110610ba2575050826000602080949584010152601f8019910116010190565b602081830181015184830182015201610b81565b600435906001600160a01b0382168203610bcc57565b600080fd5b602435906001600160a01b0382168203610bcc57565b6060906003190112610bcc576001600160a01b03906004358281168103610bcc57916024359081168103610bcc579060443590565b6020810190811067ffffffffffffffff821117610c3857604052565b634e487b7160e01b600052604160045260246000fd5b90601f8019910116810190811067ffffffffffffffff821117610c3857604052565b67ffffffffffffffff8111610c3857601f01601f191660200190565b6001600160a01b03168015610cac57600052600360205260406000205490565b6040516322718ad960e21b815260006004820152602490fd5b6001600160a01b0382811693918415610f6757600094838652602095600287526040968488832054169633151580610ed9575b5087158015610ea6575b84845260038352898420805460010190558784526002835289842080546001600160a01b0319168617905587858a7fddf252ad1be2c89b69c2b068fc378daa952ba7f163c4a11628f55a4df523b3ef8780a415610e2a5760085487845260098352808a852055600160401b811015610e1657876104ea826001610d8894016008556110ff565b838803610dc4575b505050501692838303610da35750505050565b6064945051926364283d7b60e01b8452600484015260248301526044820152fd5b610dcd90610c8c565b600019810193908411610e025782916007918a9452600681528383208584528152878484205587835252205538808080610d90565b634e487b7160e01b83526011600452602483fd5b634e487b7160e01b84526041600452602484fd5b878414610d8857610e3a88610c8c565b8784526007835289842054818103610e6f575b50878452838a8120558884526006835289842090845282528289812055610d88565b898552600684528a852082865284528a8520548a8652600685528b86208287528552808c8720558552600784528a85205538610e4d565b600088815260046020526040902080546001600160a01b0319169055888452600383528984208054600019019055610d02565b80610f26575b15610eea5738610cf8565b888789610f07576024915190637e27328960e01b82526004820152fd5b905163177e802f60e01b81523360048201526024810191909152604490fd5b503388148015610f4b575b80610edf57508683526004825233868a8520541614610edf565b5087835260058252888320338452825260ff8984205416610f31565b604051633250574960e11b815260006004820152602490fd5b6000818152600260205260409020546001600160a01b0316908115610fa3575090565b60249060405190637e27328960e01b82526004820152fd5b813b610fc8575b50505050565b604051630a85bd0160e11b8082523360048301526001600160a01b03928316602483015260448201949094526080606482015260209592909116939092908390611016906084830190610b76565b039285816000958187895af18491816110bf575b5061108a575050503d600014611082573d61104481610c70565b906110526040519283610c4e565b81528091843d92013e5b8051928361107d57604051633250574960e11b815260048101849052602490fd5b019050fd5b50606061105c565b919450915063ffffffff60e01b16036110a7575038808080610fc2565b60249060405190633250574960e11b82526004820152fd5b9091508681813d83116110f8575b6110d78183610c4e565b810103126102b957516001600160e01b0319811681036102b957903861102a565b503d6110cd565b6008548110156111365760086000527ff3f7a9fe364faab93b216da50a3214154f22a0a2b415b23a84c8169e8b636ee30190600090565b634e487b7160e01b600052603260045260246000fdfea26469706673582212205663f62aa72763b9dbd01d8a5fa2ed4373d3810c80c6617fea38d86aca0642b064736f6c63430008140033",
  "linkReferences": {},
  "deployedLinkReferences": {}
}