{"contracts/protocol/NonUpgradable/ProtocolModule.sol":{"ProtocolModule":{"abi":[{"inputs":[{"internalType":"address","name":"_distributorWalletFactory","type":"address"},{"internalType":"address","name":"_whitelistingManager","type":"address"},{"internalType":"address","name":"_erc20whitelist","type":"address"},{"internalType":"address","name":"_metadataModule","type":"address"},{"internalType":"address","name":"_legalContractMetadata","type":"address"}],"stateMutability":"nonpayable","type":"constructor"},{"inputs":[],"name":"EnforcedPause","type":"error"},{"inputs":[],"name":"ExpectedPause","type":"error"},{"inputs":[{"internalType":"address","name":"owner","type":"address"}],"name":"OwnableInvalidOwner","type":"error"},{"inputs":[{"internalType":"address","name":"account","type":"address"}],"name":"OwnableUnauthorizedAccount","type":"error"},{"inputs":[],"name":"ReentrancyGuardReentrantCall","type":"error"},{"anonymous":false,"inputs":[{"indexed":false,"internalType":"uint256","name":"newFee","type":"uint256"}],"name":"DistributorCreationFeeUpdated","type":"event"},{"anonymous":false,"inputs":[{"indexed":false,"internalType":"address","name":"newFactory","type":"address"}],"name":"DistributorWalletFactoryUpdated","type":"event"},{"anonymous":false,"inputs":[{"indexed":false,"internalType":"address","name":"newWhitelist","type":"address"}],"name":"ERC20WhitelistUpdated","type":"event"},{"anonymous":false,"inputs":[{"indexed":true,"internalType":"address","name":"wrappedSong","type":"address"},{"indexed":false,"internalType":"string","name":"registryType","type":"string"},{"indexed":false,"internalType":"string","name":"value","type":"string"}],"name":"IdentityRegistryUpdated","type":"event"},{"anonymous":false,"inputs":[{"indexed":false,"internalType":"address","name":"newContract","type":"address"}],"name":"LegalContractMetadataUpdated","type":"event"},{"anonymous":false,"inputs":[{"indexed":false,"internalType":"uint256","name":"newDuration","type":"uint256"}],"name":"MaxSaleDurationUpdated","type":"event"},{"anonymous":false,"inputs":[{"indexed":false,"internalType":"address","name":"newModule","type":"address"}],"name":"MetadataModuleUpdated","type":"event"},{"anonymous":false,"inputs":[{"indexed":false,"internalType":"address","name":"newRenderer","type":"address"}],"name":"MetadataRendererUpdated","type":"event"},{"anonymous":false,"inputs":[{"indexed":true,"internalType":"address","name":"wrappedSong","type":"address"},{"indexed":true,"internalType":"uint256","name":"tokenId","type":"uint256"},{"indexed":false,"internalType":"string","name":"newMetadata","type":"string"}],"name":"MetadataUpdateRequested","type":"event"},{"anonymous":false,"inputs":[{"indexed":true,"internalType":"address","name":"wrappedSong","type":"address"},{"indexed":true,"internalType":"uint256","name":"tokenId","type":"uint256"},{"indexed":false,"internalType":"string","name":"newMetadata","type":"string"}],"name":"MetadataUpdated","type":"event"},{"anonymous":false,"inputs":[{"indexed":true,"internalType":"address","name":"owner","type":"address"},{"indexed":true,"internalType":"address","name":"wrappedSong","type":"address"}],"name":"OwnerWrappedSongAdded","type":"event"},{"anonymous":false,"inputs":[{"indexed":true,"internalType":"address","name":"previousOwner","type":"address"},{"indexed":true,"internalType":"address","name":"newOwner","type":"address"}],"name":"OwnershipTransferred","type":"event"},{"anonymous":false,"inputs":[{"indexed":false,"internalType":"address","name":"account","type":"address"}],"name":"Paused","type":"event"},{"anonymous":false,"inputs":[{"indexed":false,"internalType":"bool","name":"isPaused","type":"bool"}],"name":"Paused","type":"event"},{"anonymous":false,"inputs":[{"indexed":false,"internalType":"bool","name":"newPayInStablecoin","type":"bool"}],"name":"PayInStablecoinUpdated","type":"event"},{"anonymous":false,"inputs":[{"indexed":false,"internalType":"uint256","name":"newFee","type":"uint256"}],"name":"ReleaseFeeUpdated","type":"event"},{"anonymous":false,"inputs":[{"indexed":false,"internalType":"bool","name":"enabled","type":"bool"}],"name":"ReleasesEnabledChanged","type":"event"},{"anonymous":false,"inputs":[{"indexed":false,"internalType":"uint256","name":"newDays","type":"uint256"}],"name":"ReviewPeriodDaysUpdated","type":"event"},{"anonymous":false,"inputs":[{"indexed":true,"internalType":"address","name":"smartAccount","type":"address"},{"indexed":true,"internalType":"address","name":"wsToken","type":"address"}],"name":"SmartAccountToWSTokenMapped","type":"event"},{"anonymous":false,"inputs":[{"indexed":false,"internalType":"uint256","name":"newCreationFee","type":"uint256"},{"indexed":false,"internalType":"uint256","name":"newReleaseFee","type":"uint256"}],"name":"StableFeesUpdated","type":"event"},{"anonymous":false,"inputs":[{"indexed":false,"internalType":"address","name":"account","type":"address"}],"name":"Unpaused","type":"event"},{"anonymous":false,"inputs":[{"indexed":false,"internalType":"uint256","name":"newFee","type":"uint256"}],"name":"UpdateMetadataFeeUpdated","type":"event"},{"anonymous":false,"inputs":[{"indexed":false,"internalType":"address","name":"newManager","type":"address"}],"name":"WhitelistingManagerUpdated","type":"event"},{"anonymous":false,"inputs":[{"indexed":false,"internalType":"uint256","name":"newPercentage","type":"uint256"}],"name":"WithdrawalFeePercentageUpdated","type":"event"},{"anonymous":false,"inputs":[{"indexed":true,"internalType":"address","name":"wrappedSong","type":"address"},{"indexed":false,"internalType":"bool","name":"isAuthentic","type":"bool"}],"name":"WrappedSongAuthenticitySet","type":"event"},{"anonymous":false,"inputs":[{"indexed":false,"internalType":"uint256","name":"newFee","type":"uint256"}],"name":"WrappedSongCreationFeeUpdated","type":"event"},{"inputs":[{"internalType":"address","name":"","type":"address"}],"name":"authorizedContracts","outputs":[{"internalType":"bool","name":"","type":"bool"}],"stateMutability":"view","type":"function"},{"inputs":[],"name":"baseURI","outputs":[{"internalType":"string","name":"","type":"string"}],"stateMutability":"view","type":"function"},{"inputs":[],"name":"distributorWalletFactory","outputs":[{"internalType":"contract IDistributorWalletFactory","name":"","type":"address"}],"stateMutability":"view","type":"function"},{"inputs":[],"name":"erc20whitelist","outputs":[{"internalType":"contract IERC20Whitelist","name":"","type":"address"}],"stateMutability":"view","type":"function"},{"inputs":[],"name":"getBaseURI","outputs":[{"internalType":"string","name":"","type":"string"}],"stateMutability":"view","type":"function"},{"inputs":[],"name":"getLegalContractMetadata","outputs":[{"internalType":"address","name":"","type":"address"}],"stateMutability":"view","type":"function"},{"inputs":[],"name":"getMetadataModule","outputs":[{"internalType":"address","name":"","type":"address"}],"stateMutability":"view","type":"function"},{"inputs":[{"internalType":"address","name":"owner","type":"address"}],"name":"getOwnerWrappedSongs","outputs":[{"internalType":"address[]","name":"","type":"address[]"}],"stateMutability":"view","type":"function"},{"inputs":[],"name":"getRegistryModule","outputs":[{"internalType":"address","name":"","type":"address"}],"stateMutability":"view","type":"function"},{"inputs":[{"internalType":"address","name":"_contractAddress","type":"address"}],"name":"isAuthorizedContract","outputs":[{"internalType":"bool","name":"","type":"bool"}],"stateMutability":"view","type":"function"},{"inputs":[{"internalType":"address","name":"token","type":"address"}],"name":"isTokenWhitelisted","outputs":[{"internalType":"bool","name":"","type":"bool"}],"stateMutability":"view","type":"function"},{"inputs":[{"internalType":"address","name":"creator","type":"address"}],"name":"isValidToCreateWrappedSong","outputs":[{"internalType":"bool","name":"","type":"bool"}],"stateMutability":"view","type":"function"},{"inputs":[{"internalType":"address","name":"wsTokenManagement","type":"address"}],"name":"isWSTokenFromProtocol","outputs":[{"internalType":"bool","name":"","type":"bool"}],"stateMutability":"view","type":"function"},{"inputs":[],"name":"legalContractMetadata","outputs":[{"internalType":"contract ILegalContractMetadata","name":"","type":"address"}],"stateMutability":"view","type":"function"},{"inputs":[],"name":"maxSaleDuration","outputs":[{"internalType":"uint256","name":"","type":"uint256"}],"stateMutability":"view","type":"function"},{"inputs":[],"name":"metadataModule","outputs":[{"internalType":"contract IMetadataModule","name":"","type":"address"}],"stateMutability":"view","type":"function"},{"inputs":[],"name":"metadataRenderer","outputs":[{"internalType":"contract IMetadataRenderer","name":"","type":"address"}],"stateMutability":"view","type":"function"},{"inputs":[],"name":"owner","outputs":[{"internalType":"address","name":"","type":"address"}],"stateMutability":"view","type":"function"},{"inputs":[{"internalType":"address","name":"","type":"address"},{"internalType":"uint256","name":"","type":"uint256"}],"name":"ownerWrappedSongs","outputs":[{"internalType":"address","name":"","type":"address"}],"stateMutability":"view","type":"function"},{"inputs":[],"name":"pause","outputs":[],"stateMutability":"nonpayable","type":"function"},{"inputs":[],"name":"paused","outputs":[{"internalType":"bool","name":"","type":"bool"}],"stateMutability":"view","type":"function"},{"inputs":[],"name":"registryModule","outputs":[{"internalType":"contract IRegistryModule","name":"","type":"address"}],"stateMutability":"view","type":"function"},{"inputs":[{"internalType":"address","name":"token","type":"address"}],"name":"removeTokenFromWhitelist","outputs":[],"stateMutability":"nonpayable","type":"function"},{"inputs":[{"components":[{"internalType":"string","name":"name","type":"string"},{"internalType":"string","name":"description","type":"string"},{"internalType":"string","name":"image","type":"string"},{"internalType":"string","name":"externalUrl","type":"string"},{"internalType":"string","name":"animationUrl","type":"string"},{"internalType":"string","name":"attributesIpfsHash","type":"string"}],"internalType":"struct IMetadataModule.Metadata","name":"metadata","type":"tuple"},{"internalType":"uint256","name":"tokenId","type":"uint256"},{"internalType":"address","name":"wrappedSong","type":"address"}],"name":"renderTokenURI","outputs":[{"internalType":"string","name":"","type":"string"}],"stateMutability":"view","type":"function"},{"inputs":[],"name":"renounceOwnership","outputs":[],"stateMutability":"nonpayable","type":"function"},{"inputs":[{"internalType":"address","name":"_contractAddress","type":"address"},{"internalType":"bool","name":"_isAuthorized","type":"bool"}],"name":"setAuthorizedContract","outputs":[],"stateMutability":"nonpayable","type":"function"},{"inputs":[{"internalType":"string","name":"_baseURI","type":"string"}],"name":"setBaseURI","outputs":[],"stateMutability":"nonpayable","type":"function"},{"inputs":[{"internalType":"address","name":"_newFactory","type":"address"}],"name":"setDistributorWalletFactory","outputs":[],"stateMutability":"nonpayable","type":"function"},{"inputs":[{"internalType":"address","name":"_erc20whitelist","type":"address"}],"name":"setERC20Whitelist","outputs":[],"stateMutability":"nonpayable","type":"function"},{"inputs":[{"internalType":"address","name":"_legalContractMetadata","type":"address"}],"name":"setLegalContractMetadata","outputs":[],"stateMutability":"nonpayable","type":"function"},{"inputs":[{"internalType":"uint256","name":"_duration","type":"uint256"}],"name":"setMaxSaleDuration","outputs":[],"stateMutability":"nonpayable","type":"function"},{"inputs":[{"internalType":"address","name":"_metadataModule","type":"address"}],"name":"setMetadataModule","outputs":[],"stateMutability":"nonpayable","type":"function"},{"inputs":[{"internalType":"address","name":"_renderer","type":"address"}],"name":"setMetadataRenderer","outputs":[],"stateMutability":"nonpayable","type":"function"},{"inputs":[{"internalType":"address","name":"owner","type":"address"},{"internalType":"address","name":"wrappedSong","type":"address"}],"name":"setOwnerWrappedSong","outputs":[],"stateMutability":"nonpayable","type":"function"},{"inputs":[{"internalType":"address","name":"_registryModule","type":"address"}],"name":"setRegistryModule","outputs":[],"stateMutability":"nonpayable","type":"function"},{"inputs":[{"internalType":"address","name":"smartAccount","type":"address"},{"internalType":"address","name":"wsToken","type":"address"}],"name":"setSmartAccountToWSToken","outputs":[],"stateMutability":"nonpayable","type":"function"},{"inputs":[{"internalType":"address","name":"wsTokenManagement","type":"address"}],"name":"setWSTokenFromProtocol","outputs":[],"stateMutability":"nonpayable","type":"function"},{"inputs":[{"internalType":"address","name":"_whitelistingManager","type":"address"}],"name":"setWhitelistingManager","outputs":[],"stateMutability":"nonpayable","type":"function"},{"inputs":[{"internalType":"address","name":"_wrappedSongFactory","type":"address"}],"name":"setWrappedSongFactory","outputs":[],"stateMutability":"nonpayable","type":"function"},{"inputs":[{"internalType":"address","name":"","type":"address"}],"name":"smartAccountToWSToken","outputs":[{"internalType":"address","name":"","type":"address"}],"stateMutability":"view","type":"function"},{"inputs":[{"internalType":"address","name":"newOwner","type":"address"}],"name":"transferOwnership","outputs":[],"stateMutability":"nonpayable","type":"function"},{"inputs":[],"name":"unpause","outputs":[],"stateMutability":"nonpayable","type":"function"},{"inputs":[{"internalType":"address","name":"token","type":"address"}],"name":"whitelistToken","outputs":[],"stateMutability":"nonpayable","type":"function"},{"inputs":[],"name":"whitelistingManager","outputs":[{"internalType":"contract IWhitelistingManager","name":"","type":"address"}],"stateMutability":"view","type":"function"},{"inputs":[],"name":"wrappedSongFactory","outputs":[{"internalType":"contract IWrappedSongFactory","name":"","type":"address"}],"stateMutability":"view","type":"function"},{"inputs":[],"name":"wrappedSongFactoryAddress","outputs":[{"internalType":"address","name":"","type":"address"}],"stateMutability":"view","type":"function"},{"stateMutability":"payable","type":"receive"}],"evm":{"bytecode":{"linkReferences":{},"object":"6080346200014f57601f62001a6f38819003918201601f19168301916001600160401b03831184841017620001545780849260a0946040528339810103126200014f576200004d816200016a565b6200005b602083016200016a565b62000069604084016200016a565b906200008660806200007e606087016200016a565b95016200016a565b9033156200013657600054946040519560018060a01b03948580948193338382167f8be0079c531659141344cd1fd0a4f28419497f9722a3daafe3b4186f6b6457e0600080a360ff60a01b1933169060018060a81b031916176000556001805562278d00600e558160018060a01b03199916896005541617600555168760065416176006551685600754161760075516836008541617600855169060095416176009556118ef9081620001808239f35b604051631e4fbdf760e01b815260006004820152602490fd5b600080fd5b634e487b7160e01b600052604160045260246000fd5b51906001600160a01b03821682036200014f5756fe60406080815260048036101561001f575b5050361561001d57600080fd5b005b600091823560e01c806208ac8314611478578063088b955414610f1957806309da4e511461144f5780630b1b745e146114145780630c5d8da1146113eb5780631c8370cb146108e35780632fb92c5a146113645780632fda23b714611045578063306275be14610fb8578063358d96ab14610f425780633684d10014610f1957806337d7d54214610e6f5780633cd7bc95146106bf5780633f4ba83a14610e015780634da6840a14610da8578063533761fe14610d1157806355f804b314610b855780635c975abb14610b605780635fd6102014610ad2578381636247f6f214610a305750806366d0ead3146106815780636c0360eb146109875780636cf563a4146109f257806370319970146109c9578063714c539814610987578063715018a61461092a578063723ff2a21461090b57806377191a6e1461061057806381b539b8146108e35780638456cb59146108845780638da5cb5b1461085c578063a4198fa2146107e6578063a951583b14610770578063ac581b3a14610747578063b5af090f146106e8578063ce1a52d2146106bf578063d5b9221b14610681578063d9ce7b9514610639578063dbd15d5314610610578063e48293691461059a578063ec691a5914610524578063f140b55f1461048b578063f2fa739214610431578063f2fde38b146103a5578063fd4fe8a8146102f15763ff4884f8146102275750610010565b346102ed57806003193601126102ed5761023f61154f565b9161024861156a565b906102516117af565b80546001600160a01b0394859161026b908316331461184b565b169283865260026020528520805491680100000000000000008310156102da57508161029d9160018794018155611677565b949092169382549060031b9185831b921b19161790557f4cda7c30666ce0c5304ba2d323cdee5f647baac385d8e0cb2f706641c95043af8380a380f35b634e487b7160e01b875260419052602486fd5b8280fd5b50346102ed5760203660031901126102ed5761030b61154f565b610313611783565b6001600160a01b03169182156103635750600d80546001600160a01b03191683179055519081527f60a886c8dc324af9c6d6a1bf7369ffe7557ef345eb5717bceffb59beac879a0a90602090a180f35b6020606492519162461bcd60e51b8352820152601860248201527f496e76616c69642072656e6465726572206164647265737300000000000000006044820152fd5b5090346102ed5760203660031901126102ed576103c061154f565b906103c9611783565b6001600160a01b0391821692831561041b575050600054826001600160601b0360a01b821617600055167f8be0079c531659141344cd1fd0a4f28419497f9722a3daafe3b4186f6b6457e0600080a380f35b51631e4fbdf760e01b8152908101849052602490fd5b83823461048757806003193601126104875761044b61154f565b906024359182151580930361048357610462611783565b60018060a01b03168352600b60205282209060ff8019835416911617905580f35b8380fd5b5080fd5b50346102ed5760203660031901126102ed5760206104a761154f565b600654835163f140b55f60e01b81526001600160a01b039283169581019590955284916024918391165afa91821561051a57602093926104eb575b50519015158152f35b61050c919250833d8111610513575b61050481836115aa565b8101906118a1565b90386104e2565b503d6104fa565b81513d85823e3d90fd5b8382346104875760203660031901126104875760207fa01edaa3cd8a419b7bb45b34f35e84da238af9490eca1b318cb579f3179e29e49161056361154f565b61056b611783565b6001600160a01b03169061058082151561180d565b600980546001600160a01b0319168317905551908152a180f35b8382346104875760203660031901126104875760207fcede453a12a109bc98cf30c47be25a27dcd045508461cc9e9669a0185b648b89916105d961154f565b6105e1611783565b6001600160a01b0316906105f682151561180d565b600780546001600160a01b0319168317905551908152a180f35b83823461048757816003193601126104875760095490516001600160a01b039091168152602090f35b5090346102ed5760203660031901126102ed5761065461154f565b61066960018060a01b0380935416331461184b565b168252600c6020528120805460ff1916600117905580f35b8382346104875760203660031901126104875760209160ff9082906001600160a01b036106ac61154f565b168152600b855220541690519015158152f35b838234610487578160031936011261048757600a5490516001600160a01b039091168152602090f35b50346102ed5760203660031901126102ed57602061070461154f565b600754835163b5af090f60e01b81526001600160a01b039283169581019590955284916024918391165afa91821561051a57602093926104eb5750519015158152f35b83823461048757816003193601126104875760065490516001600160a01b039091168152602090f35b8382346104875760203660031901126104875760207f39a2470dcb92def89f4d008f638ab6d63ac78547bf3d6ccfebf542711a0503c7916107af61154f565b6107b7611783565b6001600160a01b0316906107cc82151561180d565b600680546001600160a01b0319168317905551908152a180f35b8382346104875760203660031901126104875760207f12e10e0acd0f94fc9b2d033a01586c1255f1d396a6a2ce1c02cc9fca057744589161082561154f565b61082d611783565b6001600160a01b03169061084282151561180d565b600880546001600160a01b0319168317905551908152a180f35b838234610487578160031936011261048757905490516001600160a01b039091168152602090f35b83823461048757816003193601126104875760207f62e78cea01bee320cd4e420270b5ea74000d11b0c9f74754ebdbfc544b05a258916108c2611783565b6108ca6117af565b835460ff60a01b1916600160a01b17845551338152a180f35b5090346102ed57826003193601126102ed575490516001600160a01b03909116815260209150f35b838234610487578160031936011261048757602090600e549051908152f35b8334610984578060031936011261098457610943611783565b600080546001600160a01b0319811682556001600160a01b03167f8be0079c531659141344cd1fd0a4f28419497f9722a3daafe3b4186f6b6457e08280a380f35b80fd5b83823461048757816003193601126104875780516109c5916109b3826109ac816116df565b03836115aa565b51918291602083526020830190611652565b0390f35b838234610487578160031936011261048757600d5490516001600160a01b039091168152602090f35b8382346104875760203660031901126104875760209160ff9082906001600160a01b03610a1d61154f565b168152600c855220541690519015158152f35b80848434610ace576020366003190112610ace57610a4c61154f565b83546001600160a01b0390811633148015610ac1575b610a6b906117d0565b8060075416803b15610abd5785928360249286519788958694633123fb7960e11b865216908401525af1908115610ab45750610aa45750f35b610aad90611580565b6109845780f35b513d84823e3d90fd5b8580fd5b5060075481163314610a62565b5050fd5b5090346102ed5760203660031901126102ed57610aed61154f565b610af5611783565b6001600160a01b0316918215610b1d5750506001600160601b0360a01b600a541617600a5580f35b906020606492519162461bcd60e51b8352820152601e60248201527f496e76616c69642072656769737472794d6f64756c65206164647265737300006044820152fd5b83823461048757816003193601126104875760ff6020925460a01c1690519015158152f35b828434610984576020806003193601126104875767ffffffffffffffff90833582811161048357610bb990369086016115e8565b93610bc2611783565b8451928311610cfe5750610bd7600f546116a5565b601f8111610c9c575b5080601f8311600114610c1b57508293829392610c10575b50508160011b916000199060031b1c191617600f5580f35b015190508380610bf8565b600f8452601f198316947f8d1108e10bcb7c27dddfc02ed9d693a074039d026cf4ea4240b40f7d581ac802929185905b878210610c84575050836001959610610c6b575b505050811b01600f5580f35b015160001960f88460031b161c19169055838080610c5f565b80600185968294968601518155019501930190610c4b565b600f84527f8d1108e10bcb7c27dddfc02ed9d693a074039d026cf4ea4240b40f7d581ac802601f840160051c810191838510610cf4575b601f0160051c01905b818110610ce95750610be0565b848155600101610cdc565b9091508190610cd3565b634e487b7160e01b845260419052602483fd5b50346102ed5760203660031901126102ed57813591610d2e611783565b8215610d665750816020917f7be9264fd4bacf6ffdd1cbfbe4fb3751923b2540828adf64102e4f5b096a7fe593600e5551908152a180f35b6020606492519162461bcd60e51b8352820152601f60248201527f4475726174696f6e206d7573742062652067726561746572207468616e2030006044820152fd5b838234610487578060031936011261048757610dc261154f565b6001600160a01b0390811683526002602052818320805460243594908510156109845750602093610df291611677565b92905490519260031b1c168152f35b5090346102ed57826003193601126102ed57610e1b611783565b82549060ff8260a01c1615610e61575060ff60a01b19168255513381527f5db9ee0a495bf2e6ff9c91a7834c1ba4fdd244a5e8aa4e537bd38aeae4b073aa90602090a180f35b8251638dfc202b60e01b8152fd5b838234610487576020806003193601126102ed576001600160a01b039283610e9561154f565b1681526002825282812091835190818185549182815201908195855282852090855b818110610f035750505082610ecd9103836115aa565b8451948186019282875251809352850193925b828110610eed5785850386f35b8351871685529381019392810192600101610ee0565b82548a1684529284019260019283019201610eb7565b83823461048757816003193601126104875760085490516001600160a01b039091168152602090f35b8382346104875760203660031901126104875760207f820c11a553e3f58735f11b502c4c13b5bdaad97e61b6fe3bafe7eaf4e09e94de91610f8161154f565b610f89611783565b6001600160a01b031690610f9e82151561180d565b600580546001600160a01b0319168317905551908152a180f35b50346102ed5760203660031901126102ed5782610fd361154f565b81546001600160a01b039190821633148015611038575b610ff3906117d0565b816007541690813b156104835783602492865197889586946318313adf60e11b865216908401525af1908115610ab4575061102c575080f35b61103590611580565b80f35b5060075482163314610fea565b5091903461048757600319926060368501126102ed57813567ffffffffffffffff938482116109845760c08683360301126109845782519360c0850185811087821117611351578452828101358681116102ed576110a8908236918601016115e8565b855260248301358681116102ed576110c5908236918601016115e8565b92602095868101948552604482013588811161134d576110ea908436918501016115e8565b928682019384526064830135898111610abd5761110c908236918601016115e8565b956060830196875260848401358a81116113495761112f908336918701016115e8565b936080840194855260a48101358b8111611345576111519136910184016115e8565b60a084019081526001600160a01b039b6044358d811693919290849003611341578d6008541633036112fe5788999a9b9c9d600d5416968c519b8c998a98899863350f69b160e11b8a52890160a090525160a4890160c0905261016489016111b891611652565b945160a31995868a82030160c48b01526111d191611652565b905190858982030160e48a01526111e791611652565b90519084888203016101048901526111fe91611652565b905190838782030161012488015261121591611652565b9051918582030161014486015261122b91611652565b916024356024850152604484015282820301606483015261124b906116df565b30608483015203915afa9485156112f2578195611279575b5050506109c59051928284938452830190611652565b90919294503d8083853e61128d81856115aa565b83019284818503126102ed5780519182116102ed570182601f82011215610487578051916112ba836115cc565b936112c7875195866115aa565b838552858484010111610984575082916112e99185806109c59601910161162f565b92903880611263565b508251903d90823e3d90fd5b8a5162461bcd60e51b81528086018d9052601f60248201527f4f6e6c79206d65746164617461206d6f64756c652063616e2072656e646572006044820152606490fd5b8880fd5b8780fd5b8680fd5b8480fd5b634e487b7160e01b835260418252602483fd5b50346102ed5760203660031901126102ed5761137e61154f565b611386611783565b6001600160a01b03169081156113a9575081546001600160a01b03191617905580f35b5162461bcd60e51b8152602081840152601760248201527f496e76616c696420666163746f727920616464726573730000000000000000006044820152606490fd5b83823461048757816003193601126104875760055490516001600160a01b039091168152602090f35b838234610487576020366003190112610487576020916001600160a01b039082908261143e61154f565b168152600385522054169051908152f35b83823461048757816003193601126104875760075490516001600160a01b039091168152602090f35b50346102ed57806003193601126102ed5761149161154f565b9161149a61156a565b926114a36117af565b81546001600160a01b03929083163303611501575081169182855260036020528420921691826001600160601b0360a01b8254161790557f48e8ef3819015e9b1e8d36ddbbbc8cefc90dba7f69b711bdca0c9a10b63b037f8380a380f35b608490602085519162461bcd60e51b8352820152602260248201527f4f6e6c7920666163746f72792063616e2073657420746f6b656e206d617070696044820152616e6760f01b6064820152fd5b600435906001600160a01b038216820361156557565b600080fd5b602435906001600160a01b038216820361156557565b67ffffffffffffffff811161159457604052565b634e487b7160e01b600052604160045260246000fd5b90601f8019910116810190811067ffffffffffffffff82111761159457604052565b67ffffffffffffffff811161159457601f01601f191660200190565b81601f82011215611565578035906115ff826115cc565b9261160d60405194856115aa565b8284526020838301011161156557816000926020809301838601378301015290565b60005b8381106116425750506000910152565b8181015183820152602001611632565b9060209161166b8151809281855285808601910161162f565b601f01601f1916010190565b805482101561168f5760005260206000200190600090565b634e487b7160e01b600052603260045260246000fd5b90600182811c921680156116d5575b60208310146116bf57565b634e487b7160e01b600052602260045260246000fd5b91607f16916116b4565b600f54600092916116ef826116a5565b80825291600190818116908115611766575060011461170d57505050565b91929350600f6000527f8d1108e10bcb7c27dddfc02ed9d693a074039d026cf4ea4240b40f7d581ac802916000925b84841061174e57505060209250010190565b8054602085850181019190915290930192810161173c565b915050602093945060ff929192191683830152151560051b010190565b6000546001600160a01b0316330361179757565b60405163118cdaa760e01b8152336004820152602490fd5b60ff60005460a01c166117be57565b60405163d93c066560e01b8152600490fd5b156117d757565b60405162461bcd60e51b815260206004820152600e60248201526d139bdd08185d5d1a1bdc9a5e995960921b6044820152606490fd5b1561181457565b60405162461bcd60e51b815260206004820152600f60248201526e496e76616c6964206164647265737360881b6044820152606490fd5b1561185257565b60405162461bcd60e51b815260206004820152602160248201527f4f6e6c7920666163746f72792063616e20616464207772617070656420736f6e6044820152606760f81b6064820152608490fd5b9081602091031261156557518015158103611565579056fea2646970667358221220bd1cf1486a657b72d0db7f4af2d5a7c73cc7c807044fe806b80967f1fb23556164736f6c63430008140033","opcodes":"PUSH1 0x80 CALLVALUE PUSH3 0x14F JUMPI PUSH1 0x1F PUSH3 0x1A6F CODESIZE DUP2 SWAP1 SUB SWAP2 DUP3 ADD PUSH1 0x1F NOT AND DUP4 ADD SWAP2 PUSH1 0x1 PUSH1 0x1 PUSH1 0x40 SHL SUB DUP4 GT DUP5 DUP5 LT OR PUSH3 0x154 JUMPI DUP1 DUP5 SWAP3 PUSH1 0xA0 SWAP5 PUSH1 0x40 MSTORE DUP4 CODECOPY DUP2 ADD SUB SLT PUSH3 0x14F JUMPI PUSH3 0x4D DUP2 PUSH3 0x16A JUMP JUMPDEST PUSH3 0x5B PUSH1 0x20 DUP4 ADD PUSH3 0x16A JUMP JUMPDEST PUSH3 0x69 PUSH1 0x40 DUP5 ADD PUSH3 0x16A JUMP JUMPDEST SWAP1 PUSH3 0x86 PUSH1 0x80 PUSH3 0x7E PUSH1 0x60 DUP8 ADD PUSH3 0x16A JUMP JUMPDEST SWAP6 ADD PUSH3 0x16A JUMP JUMPDEST SWAP1 CALLER ISZERO PUSH3 0x136 JUMPI PUSH1 0x0 SLOAD SWAP5 PUSH1 0x40 MLOAD SWAP6 PUSH1 0x1 DUP1 PUSH1 0xA0 SHL SUB SWAP5 DUP6 DUP1 SWAP5 DUP2 SWAP4 CALLER DUP4 DUP3 AND PUSH32 0x8BE0079C531659141344CD1FD0A4F28419497F9722A3DAAFE3B4186F6B6457E0 PUSH1 0x0 DUP1 LOG3 PUSH1 0xFF PUSH1 0xA0 SHL NOT CALLER AND SWAP1 PUSH1 0x1 DUP1 PUSH1 0xA8 SHL SUB NOT AND OR PUSH1 0x0 SSTORE PUSH1 0x1 DUP1 SSTORE PUSH3 0x278D00 PUSH1 0xE SSTORE DUP2 PUSH1 0x1 DUP1 PUSH1 0xA0 SHL SUB NOT SWAP10 AND DUP10 PUSH1 0x5 SLOAD AND OR PUSH1 0x5 SSTORE AND DUP8 PUSH1 0x6 SLOAD AND OR PUSH1 0x6 SSTORE AND DUP6 PUSH1 0x7 SLOAD AND OR PUSH1 0x7 SSTORE AND DUP4 PUSH1 0x8 SLOAD AND OR PUSH1 0x8 SSTORE AND SWAP1 PUSH1 0x9 SLOAD AND OR PUSH1 0x9 SSTORE PUSH2 0x18EF SWAP1 DUP2 PUSH3 0x180 DUP3 CODECOPY RETURN JUMPDEST PUSH1 0x40 MLOAD PUSH4 0x1E4FBDF7 PUSH1 0xE0 SHL DUP2 MSTORE PUSH1 0x0 PUSH1 0x4 DUP3 ADD MSTORE PUSH1 0x24 SWAP1 REVERT JUMPDEST PUSH1 0x0 DUP1 REVERT JUMPDEST PUSH4 0x4E487B71 PUSH1 0xE0 SHL PUSH1 0x0 MSTORE PUSH1 0x41 PUSH1 0x4 MSTORE PUSH1 0x24 PUSH1 0x0 REVERT JUMPDEST MLOAD SWAP1 PUSH1 0x1 PUSH1 0x1 PUSH1 0xA0 SHL SUB DUP3 AND DUP3 SUB PUSH3 0x14F JUMPI JUMP INVALID PUSH1 0x40 PUSH1 0x80 DUP2 MSTORE PUSH1 0x4 DUP1 CALLDATASIZE LT ISZERO PUSH2 0x1F JUMPI JUMPDEST POP POP CALLDATASIZE ISZERO PUSH2 0x1D JUMPI PUSH1 0x0 DUP1 REVERT JUMPDEST STOP JUMPDEST PUSH1 0x0 SWAP2 DUP3 CALLDATALOAD PUSH1 0xE0 SHR DUP1 PUSH3 0x8AC83 EQ PUSH2 0x1478 JUMPI DUP1 PUSH4 0x88B9554 EQ PUSH2 0xF19 JUMPI DUP1 PUSH4 0x9DA4E51 EQ PUSH2 0x144F JUMPI DUP1 PUSH4 0xB1B745E EQ PUSH2 0x1414 JUMPI DUP1 PUSH4 0xC5D8DA1 EQ PUSH2 0x13EB JUMPI DUP1 PUSH4 0x1C8370CB EQ PUSH2 0x8E3 JUMPI DUP1 PUSH4 0x2FB92C5A EQ PUSH2 0x1364 JUMPI DUP1 PUSH4 0x2FDA23B7 EQ PUSH2 0x1045 JUMPI DUP1 PUSH4 0x306275BE EQ PUSH2 0xFB8 JUMPI DUP1 PUSH4 0x358D96AB EQ PUSH2 0xF42 JUMPI DUP1 PUSH4 0x3684D100 EQ PUSH2 0xF19 JUMPI DUP1 PUSH4 0x37D7D542 EQ PUSH2 0xE6F JUMPI DUP1 PUSH4 0x3CD7BC95 EQ PUSH2 0x6BF JUMPI DUP1 PUSH4 0x3F4BA83A EQ PUSH2 0xE01 JUMPI DUP1 PUSH4 0x4DA6840A EQ PUSH2 0xDA8 JUMPI DUP1 PUSH4 0x533761FE EQ PUSH2 0xD11 JUMPI DUP1 PUSH4 0x55F804B3 EQ PUSH2 0xB85 JUMPI DUP1 PUSH4 0x5C975ABB EQ PUSH2 0xB60 JUMPI DUP1 PUSH4 0x5FD61020 EQ PUSH2 0xAD2 JUMPI DUP4 DUP2 PUSH4 0x6247F6F2 EQ PUSH2 0xA30 JUMPI POP DUP1 PUSH4 0x66D0EAD3 EQ PUSH2 0x681 JUMPI DUP1 PUSH4 0x6C0360EB EQ PUSH2 0x987 JUMPI DUP1 PUSH4 0x6CF563A4 EQ PUSH2 0x9F2 JUMPI DUP1 PUSH4 0x70319970 EQ PUSH2 0x9C9 JUMPI DUP1 PUSH4 0x714C5398 EQ PUSH2 0x987 JUMPI DUP1 PUSH4 0x715018A6 EQ PUSH2 0x92A JUMPI DUP1 PUSH4 0x723FF2A2 EQ PUSH2 0x90B JUMPI DUP1 PUSH4 0x77191A6E EQ PUSH2 0x610 JUMPI DUP1 PUSH4 0x81B539B8 EQ PUSH2 0x8E3 JUMPI DUP1 PUSH4 0x8456CB59 EQ PUSH2 0x884 JUMPI DUP1 PUSH4 0x8DA5CB5B EQ PUSH2 0x85C JUMPI DUP1 PUSH4 0xA4198FA2 EQ PUSH2 0x7E6 JUMPI DUP1 PUSH4 0xA951583B EQ PUSH2 0x770 JUMPI DUP1 PUSH4 0xAC581B3A EQ PUSH2 0x747 JUMPI DUP1 PUSH4 0xB5AF090F EQ PUSH2 0x6E8 JUMPI DUP1 PUSH4 0xCE1A52D2 EQ PUSH2 0x6BF JUMPI DUP1 PUSH4 0xD5B9221B EQ PUSH2 0x681 JUMPI DUP1 PUSH4 0xD9CE7B95 EQ PUSH2 0x639 JUMPI DUP1 PUSH4 0xDBD15D53 EQ PUSH2 0x610 JUMPI DUP1 PUSH4 0xE4829369 EQ PUSH2 0x59A JUMPI DUP1 PUSH4 0xEC691A59 EQ PUSH2 0x524 JUMPI DUP1 PUSH4 0xF140B55F EQ PUSH2 0x48B JUMPI DUP1 PUSH4 0xF2FA7392 EQ PUSH2 0x431 JUMPI DUP1 PUSH4 0xF2FDE38B EQ PUSH2 0x3A5 JUMPI DUP1 PUSH4 0xFD4FE8A8 EQ PUSH2 0x2F1 JUMPI PUSH4 0xFF4884F8 EQ PUSH2 0x227 JUMPI POP PUSH2 0x10 JUMP JUMPDEST CALLVALUE PUSH2 0x2ED JUMPI DUP1 PUSH1 0x3 NOT CALLDATASIZE ADD SLT PUSH2 0x2ED JUMPI PUSH2 0x23F PUSH2 0x154F JUMP JUMPDEST SWAP2 PUSH2 0x248 PUSH2 0x156A JUMP JUMPDEST SWAP1 PUSH2 0x251 PUSH2 0x17AF JUMP JUMPDEST DUP1 SLOAD PUSH1 0x1 PUSH1 0x1 PUSH1 0xA0 SHL SUB SWAP5 DUP6 SWAP2 PUSH2 0x26B SWAP1 DUP4 AND CALLER EQ PUSH2 0x184B JUMP JUMPDEST AND SWAP3 DUP4 DUP7 MSTORE PUSH1 0x2 PUSH1 0x20 MSTORE DUP6 KECCAK256 DUP1 SLOAD SWAP2 PUSH9 0x10000000000000000 DUP4 LT ISZERO PUSH2 0x2DA JUMPI POP DUP2 PUSH2 0x29D SWAP2 PUSH1 0x1 DUP8 SWAP5 ADD DUP2 SSTORE PUSH2 0x1677 JUMP JUMPDEST SWAP5 SWAP1 SWAP3 AND SWAP4 DUP3 SLOAD SWAP1 PUSH1 0x3 SHL SWAP2 DUP6 DUP4 SHL SWAP3 SHL NOT AND OR SWAP1 SSTORE PUSH32 0x4CDA7C30666CE0C5304BA2D323CDEE5F647BAAC385D8E0CB2F706641C95043AF DUP4 DUP1 LOG3 DUP1 RETURN JUMPDEST PUSH4 0x4E487B71 PUSH1 0xE0 SHL DUP8 MSTORE PUSH1 0x41 SWAP1 MSTORE PUSH1 0x24 DUP7 REVERT JUMPDEST DUP3 DUP1 REVERT JUMPDEST POP CALLVALUE PUSH2 0x2ED JUMPI PUSH1 0x20 CALLDATASIZE PUSH1 0x3 NOT ADD SLT PUSH2 0x2ED JUMPI PUSH2 0x30B PUSH2 0x154F JUMP JUMPDEST PUSH2 0x313 PUSH2 0x1783 JUMP JUMPDEST PUSH1 0x1 PUSH1 0x1 PUSH1 0xA0 SHL SUB AND SWAP2 DUP3 ISZERO PUSH2 0x363 JUMPI POP PUSH1 0xD DUP1 SLOAD PUSH1 0x1 PUSH1 0x1 PUSH1 0xA0 SHL SUB NOT AND DUP4 OR SWAP1 SSTORE MLOAD SWAP1 DUP2 MSTORE PUSH32 0x60A886C8DC324AF9C6D6A1BF7369FFE7557EF345EB5717BCEFFB59BEAC879A0A SWAP1 PUSH1 0x20 SWAP1 LOG1 DUP1 RETURN JUMPDEST PUSH1 0x20 PUSH1 0x64 SWAP3 MLOAD SWAP2 PUSH3 0x461BCD PUSH1 0xE5 SHL DUP4 MSTORE DUP3 ADD MSTORE PUSH1 0x18 PUSH1 0x24 DUP3 ADD MSTORE PUSH32 0x496E76616C69642072656E646572657220616464726573730000000000000000 PUSH1 0x44 DUP3 ADD MSTORE REVERT JUMPDEST POP SWAP1 CALLVALUE PUSH2 0x2ED JUMPI PUSH1 0x20 CALLDATASIZE PUSH1 0x3 NOT ADD SLT PUSH2 0x2ED JUMPI PUSH2 0x3C0 PUSH2 0x154F JUMP JUMPDEST SWAP1 PUSH2 0x3C9 PUSH2 0x1783 JUMP JUMPDEST PUSH1 0x1 PUSH1 0x1 PUSH1 0xA0 SHL SUB SWAP2 DUP3 AND SWAP3 DUP4 ISZERO PUSH2 0x41B JUMPI POP POP PUSH1 0x0 SLOAD DUP3 PUSH1 0x1 PUSH1 0x1 PUSH1 0x60 SHL SUB PUSH1 0xA0 SHL DUP3 AND OR PUSH1 0x0 SSTORE AND PUSH32 0x8BE0079C531659141344CD1FD0A4F28419497F9722A3DAAFE3B4186F6B6457E0 PUSH1 0x0 DUP1 LOG3 DUP1 RETURN JUMPDEST MLOAD PUSH4 0x1E4FBDF7 PUSH1 0xE0 SHL DUP2 MSTORE SWAP1 DUP2 ADD DUP5 SWAP1 MSTORE PUSH1 0x24 SWAP1 REVERT JUMPDEST DUP4 DUP3 CALLVALUE PUSH2 0x487 JUMPI DUP1 PUSH1 0x3 NOT CALLDATASIZE ADD SLT PUSH2 0x487 JUMPI PUSH2 0x44B PUSH2 0x154F JUMP JUMPDEST SWAP1 PUSH1 0x24 CALLDATALOAD SWAP2 DUP3 ISZERO ISZERO DUP1 SWAP4 SUB PUSH2 0x483 JUMPI PUSH2 0x462 PUSH2 0x1783 JUMP JUMPDEST PUSH1 0x1 DUP1 PUSH1 0xA0 SHL SUB AND DUP4 MSTORE PUSH1 0xB PUSH1 0x20 MSTORE DUP3 KECCAK256 SWAP1 PUSH1 0xFF DUP1 NOT DUP4 SLOAD AND SWAP2 AND OR SWAP1 SSTORE DUP1 RETURN JUMPDEST DUP4 DUP1 REVERT JUMPDEST POP DUP1 REVERT JUMPDEST POP CALLVALUE PUSH2 0x2ED JUMPI PUSH1 0x20 CALLDATASIZE PUSH1 0x3 NOT ADD SLT PUSH2 0x2ED JUMPI PUSH1 0x20 PUSH2 0x4A7 PUSH2 0x154F JUMP JUMPDEST PUSH1 0x6 SLOAD DUP4 MLOAD PUSH4 0xF140B55F PUSH1 0xE0 SHL DUP2 MSTORE PUSH1 0x1 PUSH1 0x1 PUSH1 0xA0 SHL SUB SWAP3 DUP4 AND SWAP6 DUP2 ADD SWAP6 SWAP1 SWAP6 MSTORE DUP5 SWAP2 PUSH1 0x24 SWAP2 DUP4 SWAP2 AND GAS STATICCALL SWAP2 DUP3 ISZERO PUSH2 0x51A JUMPI PUSH1 0x20 SWAP4 SWAP3 PUSH2 0x4EB JUMPI JUMPDEST POP MLOAD SWAP1 ISZERO ISZERO DUP2 MSTORE RETURN JUMPDEST PUSH2 0x50C SWAP2 SWAP3 POP DUP4 RETURNDATASIZE DUP2 GT PUSH2 0x513 JUMPI JUMPDEST PUSH2 0x504 DUP2 DUP4 PUSH2 0x15AA JUMP JUMPDEST DUP2 ADD SWAP1 PUSH2 0x18A1 JUMP JUMPDEST SWAP1 CODESIZE PUSH2 0x4E2 JUMP JUMPDEST POP RETURNDATASIZE PUSH2 0x4FA JUMP JUMPDEST DUP2 MLOAD RETURNDATASIZE DUP6 DUP3 RETURNDATACOPY RETURNDATASIZE SWAP1 REVERT JUMPDEST DUP4 DUP3 CALLVALUE PUSH2 0x487 JUMPI PUSH1 0x20 CALLDATASIZE PUSH1 0x3 NOT ADD SLT PUSH2 0x487 JUMPI PUSH1 0x20 PUSH32 0xA01EDAA3CD8A419B7BB45B34F35E84DA238AF9490ECA1B318CB579F3179E29E4 SWAP2 PUSH2 0x563 PUSH2 0x154F JUMP JUMPDEST PUSH2 0x56B PUSH2 0x1783 JUMP JUMPDEST PUSH1 0x1 PUSH1 0x1 PUSH1 0xA0 SHL SUB AND SWAP1 PUSH2 0x580 DUP3 ISZERO ISZERO PUSH2 0x180D JUMP JUMPDEST PUSH1 0x9 DUP1 SLOAD PUSH1 0x1 PUSH1 0x1 PUSH1 0xA0 SHL SUB NOT AND DUP4 OR SWAP1 SSTORE MLOAD SWAP1 DUP2 MSTORE LOG1 DUP1 RETURN JUMPDEST DUP4 DUP3 CALLVALUE PUSH2 0x487 JUMPI PUSH1 0x20 CALLDATASIZE PUSH1 0x3 NOT ADD SLT PUSH2 0x487 JUMPI PUSH1 0x20 PUSH32 0xCEDE453A12A109BC98CF30C47BE25A27DCD045508461CC9E9669A0185B648B89 SWAP2 PUSH2 0x5D9 PUSH2 0x154F JUMP JUMPDEST PUSH2 0x5E1 PUSH2 0x1783 JUMP JUMPDEST PUSH1 0x1 PUSH1 0x1 PUSH1 0xA0 SHL SUB AND SWAP1 PUSH2 0x5F6 DUP3 ISZERO ISZERO PUSH2 0x180D JUMP JUMPDEST PUSH1 0x7 DUP1 SLOAD PUSH1 0x1 PUSH1 0x1 PUSH1 0xA0 SHL SUB NOT AND DUP4 OR SWAP1 SSTORE MLOAD SWAP1 DUP2 MSTORE LOG1 DUP1 RETURN JUMPDEST DUP4 DUP3 CALLVALUE PUSH2 0x487 JUMPI DUP2 PUSH1 0x3 NOT CALLDATASIZE ADD SLT PUSH2 0x487 JUMPI PUSH1 0x9 SLOAD SWAP1 MLOAD PUSH1 0x1 PUSH1 0x1 PUSH1 0xA0 SHL SUB SWAP1 SWAP2 AND DUP2 MSTORE PUSH1 0x20 SWAP1 RETURN JUMPDEST POP SWAP1 CALLVALUE PUSH2 0x2ED JUMPI PUSH1 0x20 CALLDATASIZE PUSH1 0x3 NOT ADD SLT PUSH2 0x2ED JUMPI PUSH2 0x654 PUSH2 0x154F JUMP JUMPDEST PUSH2 0x669 PUSH1 0x1 DUP1 PUSH1 0xA0 SHL SUB DUP1 SWAP4 SLOAD AND CALLER EQ PUSH2 0x184B JUMP JUMPDEST AND DUP3 MSTORE PUSH1 0xC PUSH1 0x20 MSTORE DUP2 KECCAK256 DUP1 SLOAD PUSH1 0xFF NOT AND PUSH1 0x1 OR SWAP1 SSTORE DUP1 RETURN JUMPDEST DUP4 DUP3 CALLVALUE PUSH2 0x487 JUMPI PUSH1 0x20 CALLDATASIZE PUSH1 0x3 NOT ADD SLT PUSH2 0x487 JUMPI PUSH1 0x20 SWAP2 PUSH1 0xFF SWAP1 DUP3 SWAP1 PUSH1 0x1 PUSH1 0x1 PUSH1 0xA0 SHL SUB PUSH2 0x6AC PUSH2 0x154F JUMP JUMPDEST AND DUP2 MSTORE PUSH1 0xB DUP6 MSTORE KECCAK256 SLOAD AND SWAP1 MLOAD SWAP1 ISZERO ISZERO DUP2 MSTORE RETURN JUMPDEST DUP4 DUP3 CALLVALUE PUSH2 0x487 JUMPI DUP2 PUSH1 0x3 NOT CALLDATASIZE ADD SLT PUSH2 0x487 JUMPI PUSH1 0xA SLOAD SWAP1 MLOAD PUSH1 0x1 PUSH1 0x1 PUSH1 0xA0 SHL SUB SWAP1 SWAP2 AND DUP2 MSTORE PUSH1 0x20 SWAP1 RETURN JUMPDEST POP CALLVALUE PUSH2 0x2ED JUMPI PUSH1 0x20 CALLDATASIZE PUSH1 0x3 NOT ADD SLT PUSH2 0x2ED JUMPI PUSH1 0x20 PUSH2 0x704 PUSH2 0x154F JUMP JUMPDEST PUSH1 0x7 SLOAD DUP4 MLOAD PUSH4 0xB5AF090F PUSH1 0xE0 SHL DUP2 MSTORE PUSH1 0x1 PUSH1 0x1 PUSH1 0xA0 SHL SUB SWAP3 DUP4 AND SWAP6 DUP2 ADD SWAP6 SWAP1 SWAP6 MSTORE DUP5 SWAP2 PUSH1 0x24 SWAP2 DUP4 SWAP2 AND GAS STATICCALL SWAP2 DUP3 ISZERO PUSH2 0x51A JUMPI PUSH1 0x20 SWAP4 SWAP3 PUSH2 0x4EB JUMPI POP MLOAD SWAP1 ISZERO ISZERO DUP2 MSTORE RETURN JUMPDEST DUP4 DUP3 CALLVALUE PUSH2 0x487 JUMPI DUP2 PUSH1 0x3 NOT CALLDATASIZE ADD SLT PUSH2 0x487 JUMPI PUSH1 0x6 SLOAD SWAP1 MLOAD PUSH1 0x1 PUSH1 0x1 PUSH1 0xA0 SHL SUB SWAP1 SWAP2 AND DUP2 MSTORE PUSH1 0x20 SWAP1 RETURN JUMPDEST DUP4 DUP3 CALLVALUE PUSH2 0x487 JUMPI PUSH1 0x20 CALLDATASIZE PUSH1 0x3 NOT ADD SLT PUSH2 0x487 JUMPI PUSH1 0x20 PUSH32 0x39A2470DCB92DEF89F4D008F638AB6D63AC78547BF3D6CCFEBF542711A0503C7 SWAP2 PUSH2 0x7AF PUSH2 0x154F JUMP JUMPDEST PUSH2 0x7B7 PUSH2 0x1783 JUMP JUMPDEST PUSH1 0x1 PUSH1 0x1 PUSH1 0xA0 SHL SUB AND SWAP1 PUSH2 0x7CC DUP3 ISZERO ISZERO PUSH2 0x180D JUMP JUMPDEST PUSH1 0x6 DUP1 SLOAD PUSH1 0x1 PUSH1 0x1 PUSH1 0xA0 SHL SUB NOT AND DUP4 OR SWAP1 SSTORE MLOAD SWAP1 DUP2 MSTORE LOG1 DUP1 RETURN JUMPDEST DUP4 DUP3 CALLVALUE PUSH2 0x487 JUMPI PUSH1 0x20 CALLDATASIZE PUSH1 0x3 NOT ADD SLT PUSH2 0x487 JUMPI PUSH1 0x20 PUSH32 0x12E10E0ACD0F94FC9B2D033A01586C1255F1D396A6A2CE1C02CC9FCA05774458 SWAP2 PUSH2 0x825 PUSH2 0x154F JUMP JUMPDEST PUSH2 0x82D PUSH2 0x1783 JUMP JUMPDEST PUSH1 0x1 PUSH1 0x1 PUSH1 0xA0 SHL SUB AND SWAP1 PUSH2 0x842 DUP3 ISZERO ISZERO PUSH2 0x180D JUMP JUMPDEST PUSH1 0x8 DUP1 SLOAD PUSH1 0x1 PUSH1 0x1 PUSH1 0xA0 SHL SUB NOT AND DUP4 OR SWAP1 SSTORE MLOAD SWAP1 DUP2 MSTORE LOG1 DUP1 RETURN JUMPDEST DUP4 DUP3 CALLVALUE PUSH2 0x487 JUMPI DUP2 PUSH1 0x3 NOT CALLDATASIZE ADD SLT PUSH2 0x487 JUMPI SWAP1 SLOAD SWAP1 MLOAD PUSH1 0x1 PUSH1 0x1 PUSH1 0xA0 SHL SUB SWAP1 SWAP2 AND DUP2 MSTORE PUSH1 0x20 SWAP1 RETURN JUMPDEST DUP4 DUP3 CALLVALUE PUSH2 0x487 JUMPI DUP2 PUSH1 0x3 NOT CALLDATASIZE ADD SLT PUSH2 0x487 JUMPI PUSH1 0x20 PUSH32 0x62E78CEA01BEE320CD4E420270B5EA74000D11B0C9F74754EBDBFC544B05A258 SWAP2 PUSH2 0x8C2 PUSH2 0x1783 JUMP JUMPDEST PUSH2 0x8CA PUSH2 0x17AF JUMP JUMPDEST DUP4 SLOAD PUSH1 0xFF PUSH1 0xA0 SHL NOT AND PUSH1 0x1 PUSH1 0xA0 SHL OR DUP5 SSTORE MLOAD CALLER DUP2 MSTORE LOG1 DUP1 RETURN JUMPDEST POP SWAP1 CALLVALUE PUSH2 0x2ED JUMPI DUP3 PUSH1 0x3 NOT CALLDATASIZE ADD SLT PUSH2 0x2ED JUMPI SLOAD SWAP1 MLOAD PUSH1 0x1 PUSH1 0x1 PUSH1 0xA0 SHL SUB SWAP1 SWAP2 AND DUP2 MSTORE PUSH1 0x20 SWAP2 POP RETURN JUMPDEST DUP4 DUP3 CALLVALUE PUSH2 0x487 JUMPI DUP2 PUSH1 0x3 NOT CALLDATASIZE ADD SLT PUSH2 0x487 JUMPI PUSH1 0x20 SWAP1 PUSH1 0xE SLOAD SWAP1 MLOAD SWAP1 DUP2 MSTORE RETURN JUMPDEST DUP4 CALLVALUE PUSH2 0x984 JUMPI DUP1 PUSH1 0x3 NOT CALLDATASIZE ADD SLT PUSH2 0x984 JUMPI PUSH2 0x943 PUSH2 0x1783 JUMP JUMPDEST PUSH1 0x0 DUP1 SLOAD PUSH1 0x1 PUSH1 0x1 PUSH1 0xA0 SHL SUB NOT DUP2 AND DUP3 SSTORE PUSH1 0x1 PUSH1 0x1 PUSH1 0xA0 SHL SUB AND PUSH32 0x8BE0079C531659141344CD1FD0A4F28419497F9722A3DAAFE3B4186F6B6457E0 DUP3 DUP1 LOG3 DUP1 RETURN JUMPDEST DUP1 REVERT JUMPDEST DUP4 DUP3 CALLVALUE PUSH2 0x487 JUMPI DUP2 PUSH1 0x3 NOT CALLDATASIZE ADD SLT PUSH2 0x487 JUMPI DUP1 MLOAD PUSH2 0x9C5 SWAP2 PUSH2 0x9B3 DUP3 PUSH2 0x9AC DUP2 PUSH2 0x16DF JUMP JUMPDEST SUB DUP4 PUSH2 0x15AA JUMP JUMPDEST MLOAD SWAP2 DUP3 SWAP2 PUSH1 0x20 DUP4 MSTORE PUSH1 0x20 DUP4 ADD SWAP1 PUSH2 0x1652 JUMP JUMPDEST SUB SWAP1 RETURN JUMPDEST DUP4 DUP3 CALLVALUE PUSH2 0x487 JUMPI DUP2 PUSH1 0x3 NOT CALLDATASIZE ADD SLT PUSH2 0x487 JUMPI PUSH1 0xD SLOAD SWAP1 MLOAD PUSH1 0x1 PUSH1 0x1 PUSH1 0xA0 SHL SUB SWAP1 SWAP2 AND DUP2 MSTORE PUSH1 0x20 SWAP1 RETURN JUMPDEST DUP4 DUP3 CALLVALUE PUSH2 0x487 JUMPI PUSH1 0x20 CALLDATASIZE PUSH1 0x3 NOT ADD SLT PUSH2 0x487 JUMPI PUSH1 0x20 SWAP2 PUSH1 0xFF SWAP1 DUP3 SWAP1 PUSH1 0x1 PUSH1 0x1 PUSH1 0xA0 SHL SUB PUSH2 0xA1D PUSH2 0x154F JUMP JUMPDEST AND DUP2 MSTORE PUSH1 0xC DUP6 MSTORE KECCAK256 SLOAD AND SWAP1 MLOAD SWAP1 ISZERO ISZERO DUP2 MSTORE RETURN JUMPDEST DUP1 DUP5 DUP5 CALLVALUE PUSH2 0xACE JUMPI PUSH1 0x20 CALLDATASIZE PUSH1 0x3 NOT ADD SLT PUSH2 0xACE JUMPI PUSH2 0xA4C PUSH2 0x154F JUMP JUMPDEST DUP4 SLOAD PUSH1 0x1 PUSH1 0x1 PUSH1 0xA0 SHL SUB SWAP1 DUP2 AND CALLER EQ DUP1 ISZERO PUSH2 0xAC1 JUMPI JUMPDEST PUSH2 0xA6B SWAP1 PUSH2 0x17D0 JUMP JUMPDEST DUP1 PUSH1 0x7 SLOAD AND DUP1 EXTCODESIZE ISZERO PUSH2 0xABD JUMPI DUP6 SWAP3 DUP4 PUSH1 0x24 SWAP3 DUP7 MLOAD SWAP8 DUP9 SWAP6 DUP7 SWAP5 PUSH4 0x3123FB79 PUSH1 0xE1 SHL DUP7 MSTORE AND SWAP1 DUP5 ADD MSTORE GAS CALL SWAP1 DUP2 ISZERO PUSH2 0xAB4 JUMPI POP PUSH2 0xAA4 JUMPI POP RETURN JUMPDEST PUSH2 0xAAD SWAP1 PUSH2 0x1580 JUMP JUMPDEST PUSH2 0x984 JUMPI DUP1 RETURN JUMPDEST MLOAD RETURNDATASIZE DUP5 DUP3 RETURNDATACOPY RETURNDATASIZE SWAP1 REVERT JUMPDEST DUP6 DUP1 REVERT JUMPDEST POP PUSH1 0x7 SLOAD DUP2 AND CALLER EQ PUSH2 0xA62 JUMP JUMPDEST POP POP REVERT JUMPDEST POP SWAP1 CALLVALUE PUSH2 0x2ED JUMPI PUSH1 0x20 CALLDATASIZE PUSH1 0x3 NOT ADD SLT PUSH2 0x2ED JUMPI PUSH2 0xAED PUSH2 0x154F JUMP JUMPDEST PUSH2 0xAF5 PUSH2 0x1783 JUMP JUMPDEST PUSH1 0x1 PUSH1 0x1 PUSH1 0xA0 SHL SUB AND SWAP2 DUP3 ISZERO PUSH2 0xB1D JUMPI POP POP PUSH1 0x1 PUSH1 0x1 PUSH1 0x60 SHL SUB PUSH1 0xA0 SHL PUSH1 0xA SLOAD AND OR PUSH1 0xA SSTORE DUP1 RETURN JUMPDEST SWAP1 PUSH1 0x20 PUSH1 0x64 SWAP3 MLOAD SWAP2 PUSH3 0x461BCD PUSH1 0xE5 SHL DUP4 MSTORE DUP3 ADD MSTORE PUSH1 0x1E PUSH1 0x24 DUP3 ADD MSTORE PUSH32 0x496E76616C69642072656769737472794D6F64756C6520616464726573730000 PUSH1 0x44 DUP3 ADD MSTORE REVERT JUMPDEST DUP4 DUP3 CALLVALUE PUSH2 0x487 JUMPI DUP2 PUSH1 0x3 NOT CALLDATASIZE ADD SLT PUSH2 0x487 JUMPI PUSH1 0xFF PUSH1 0x20 SWAP3 SLOAD PUSH1 0xA0 SHR AND SWAP1 MLOAD SWAP1 ISZERO ISZERO DUP2 MSTORE RETURN JUMPDEST DUP3 DUP5 CALLVALUE PUSH2 0x984 JUMPI PUSH1 0x20 DUP1 PUSH1 0x3 NOT CALLDATASIZE ADD SLT PUSH2 0x487 JUMPI PUSH8 0xFFFFFFFFFFFFFFFF SWAP1 DUP4 CALLDATALOAD DUP3 DUP2 GT PUSH2 0x483 JUMPI PUSH2 0xBB9 SWAP1 CALLDATASIZE SWAP1 DUP7 ADD PUSH2 0x15E8 JUMP JUMPDEST SWAP4 PUSH2 0xBC2 PUSH2 0x1783 JUMP JUMPDEST DUP5 MLOAD SWAP3 DUP4 GT PUSH2 0xCFE JUMPI POP PUSH2 0xBD7 PUSH1 0xF SLOAD PUSH2 0x16A5 JUMP JUMPDEST PUSH1 0x1F DUP2 GT PUSH2 0xC9C JUMPI JUMPDEST POP DUP1 PUSH1 0x1F DUP4 GT PUSH1 0x1 EQ PUSH2 0xC1B JUMPI POP DUP3 SWAP4 DUP3 SWAP4 SWAP3 PUSH2 0xC10 JUMPI JUMPDEST POP POP DUP2 PUSH1 0x1 SHL SWAP2 PUSH1 0x0 NOT SWAP1 PUSH1 0x3 SHL SHR NOT AND OR PUSH1 0xF SSTORE DUP1 RETURN JUMPDEST ADD MLOAD SWAP1 POP DUP4 DUP1 PUSH2 0xBF8 JUMP JUMPDEST PUSH1 0xF DUP5 MSTORE PUSH1 0x1F NOT DUP4 AND SWAP5 PUSH32 0x8D1108E10BCB7C27DDDFC02ED9D693A074039D026CF4EA4240B40F7D581AC802 SWAP3 SWAP2 DUP6 SWAP1 JUMPDEST DUP8 DUP3 LT PUSH2 0xC84 JUMPI POP POP DUP4 PUSH1 0x1 SWAP6 SWAP7 LT PUSH2 0xC6B JUMPI JUMPDEST POP POP POP DUP2 SHL ADD PUSH1 0xF SSTORE DUP1 RETURN JUMPDEST ADD MLOAD PUSH1 0x0 NOT PUSH1 0xF8 DUP5 PUSH1 0x3 SHL AND SHR NOT AND SWAP1 SSTORE DUP4 DUP1 DUP1 PUSH2 0xC5F JUMP JUMPDEST DUP1 PUSH1 0x1 DUP6 SWAP7 DUP3 SWAP5 SWAP7 DUP7 ADD MLOAD DUP2 SSTORE ADD SWAP6 ADD SWAP4 ADD SWAP1 PUSH2 0xC4B JUMP JUMPDEST PUSH1 0xF DUP5 MSTORE PUSH32 0x8D1108E10BCB7C27DDDFC02ED9D693A074039D026CF4EA4240B40F7D581AC802 PUSH1 0x1F DUP5 ADD PUSH1 0x5 SHR DUP2 ADD SWAP2 DUP4 DUP6 LT PUSH2 0xCF4 JUMPI JUMPDEST PUSH1 0x1F ADD PUSH1 0x5 SHR ADD SWAP1 JUMPDEST DUP2 DUP2 LT PUSH2 0xCE9 JUMPI POP PUSH2 0xBE0 JUMP JUMPDEST DUP5 DUP2 SSTORE PUSH1 0x1 ADD PUSH2 0xCDC JUMP JUMPDEST SWAP1 SWAP2 POP DUP2 SWAP1 PUSH2 0xCD3 JUMP JUMPDEST PUSH4 0x4E487B71 PUSH1 0xE0 SHL DUP5 MSTORE PUSH1 0x41 SWAP1 MSTORE PUSH1 0x24 DUP4 REVERT JUMPDEST POP CALLVALUE PUSH2 0x2ED JUMPI PUSH1 0x20 CALLDATASIZE PUSH1 0x3 NOT ADD SLT PUSH2 0x2ED JUMPI DUP2 CALLDATALOAD SWAP2 PUSH2 0xD2E PUSH2 0x1783 JUMP JUMPDEST DUP3 ISZERO PUSH2 0xD66 JUMPI POP DUP2 PUSH1 0x20 SWAP2 PUSH32 0x7BE9264FD4BACF6FFDD1CBFBE4FB3751923B2540828ADF64102E4F5B096A7FE5 SWAP4 PUSH1 0xE SSTORE MLOAD SWAP1 DUP2 MSTORE LOG1 DUP1 RETURN JUMPDEST PUSH1 0x20 PUSH1 0x64 SWAP3 MLOAD SWAP2 PUSH3 0x461BCD PUSH1 0xE5 SHL DUP4 MSTORE DUP3 ADD MSTORE PUSH1 0x1F PUSH1 0x24 DUP3 ADD MSTORE PUSH32 0x4475726174696F6E206D7573742062652067726561746572207468616E203000 PUSH1 0x44 DUP3 ADD MSTORE REVERT JUMPDEST DUP4 DUP3 CALLVALUE PUSH2 0x487 JUMPI DUP1 PUSH1 0x3 NOT CALLDATASIZE ADD SLT PUSH2 0x487 JUMPI PUSH2 0xDC2 PUSH2 0x154F JUMP JUMPDEST PUSH1 0x1 PUSH1 0x1 PUSH1 0xA0 SHL SUB SWAP1 DUP2 AND DUP4 MSTORE PUSH1 0x2 PUSH1 0x20 MSTORE DUP2 DUP4 KECCAK256 DUP1 SLOAD PUSH1 0x24 CALLDATALOAD SWAP5 SWAP1 DUP6 LT ISZERO PUSH2 0x984 JUMPI POP PUSH1 0x20 SWAP4 PUSH2 0xDF2 SWAP2 PUSH2 0x1677 JUMP JUMPDEST SWAP3 SWAP1 SLOAD SWAP1 MLOAD SWAP3 PUSH1 0x3 SHL SHR AND DUP2 MSTORE RETURN JUMPDEST POP SWAP1 CALLVALUE PUSH2 0x2ED JUMPI DUP3 PUSH1 0x3 NOT CALLDATASIZE ADD SLT PUSH2 0x2ED JUMPI PUSH2 0xE1B PUSH2 0x1783 JUMP JUMPDEST DUP3 SLOAD SWAP1 PUSH1 0xFF DUP3 PUSH1 0xA0 SHR AND ISZERO PUSH2 0xE61 JUMPI POP PUSH1 0xFF PUSH1 0xA0 SHL NOT AND DUP3 SSTORE MLOAD CALLER DUP2 MSTORE PUSH32 0x5DB9EE0A495BF2E6FF9C91A7834C1BA4FDD244A5E8AA4E537BD38AEAE4B073AA SWAP1 PUSH1 0x20 SWAP1 LOG1 DUP1 RETURN JUMPDEST DUP3 MLOAD PUSH4 0x8DFC202B PUSH1 0xE0 SHL DUP2 MSTORE REVERT JUMPDEST DUP4 DUP3 CALLVALUE PUSH2 0x487 JUMPI PUSH1 0x20 DUP1 PUSH1 0x3 NOT CALLDATASIZE ADD SLT PUSH2 0x2ED JUMPI PUSH1 0x1 PUSH1 0x1 PUSH1 0xA0 SHL SUB SWAP3 DUP4 PUSH2 0xE95 PUSH2 0x154F JUMP JUMPDEST AND DUP2 MSTORE PUSH1 0x2 DUP3 MSTORE DUP3 DUP2 KECCAK256 SWAP2 DUP4 MLOAD SWAP1 DUP2 DUP2 DUP6 SLOAD SWAP2 DUP3 DUP2 MSTORE ADD SWAP1 DUP2 SWAP6 DUP6 MSTORE DUP3 DUP6 KECCAK256 SWAP1 DUP6 JUMPDEST DUP2 DUP2 LT PUSH2 0xF03 JUMPI POP POP POP DUP3 PUSH2 0xECD SWAP2 SUB DUP4 PUSH2 0x15AA JUMP JUMPDEST DUP5 MLOAD SWAP5 DUP2 DUP7 ADD SWAP3 DUP3 DUP8 MSTORE MLOAD DUP1 SWAP4 MSTORE DUP6 ADD SWAP4 SWAP3 JUMPDEST DUP3 DUP2 LT PUSH2 0xEED JUMPI DUP6 DUP6 SUB DUP7 RETURN JUMPDEST DUP4 MLOAD DUP8 AND DUP6 MSTORE SWAP4 DUP2 ADD SWAP4 SWAP3 DUP2 ADD SWAP3 PUSH1 0x1 ADD PUSH2 0xEE0 JUMP JUMPDEST DUP3 SLOAD DUP11 AND DUP5 MSTORE SWAP3 DUP5 ADD SWAP3 PUSH1 0x1 SWAP3 DUP4 ADD SWAP3 ADD PUSH2 0xEB7 JUMP JUMPDEST DUP4 DUP3 CALLVALUE PUSH2 0x487 JUMPI DUP2 PUSH1 0x3 NOT CALLDATASIZE ADD SLT PUSH2 0x487 JUMPI PUSH1 0x8 SLOAD SWAP1 MLOAD PUSH1 0x1 PUSH1 0x1 PUSH1 0xA0 SHL SUB SWAP1 SWAP2 AND DUP2 MSTORE PUSH1 0x20 SWAP1 RETURN JUMPDEST DUP4 DUP3 CALLVALUE PUSH2 0x487 JUMPI PUSH1 0x20 CALLDATASIZE PUSH1 0x3 NOT ADD SLT PUSH2 0x487 JUMPI PUSH1 0x20 PUSH32 0x820C11A553E3F58735F11B502C4C13B5BDAAD97E61B6FE3BAFE7EAF4E09E94DE SWAP2 PUSH2 0xF81 PUSH2 0x154F JUMP JUMPDEST PUSH2 0xF89 PUSH2 0x1783 JUMP JUMPDEST PUSH1 0x1 PUSH1 0x1 PUSH1 0xA0 SHL SUB AND SWAP1 PUSH2 0xF9E DUP3 ISZERO ISZERO PUSH2 0x180D JUMP JUMPDEST PUSH1 0x5 DUP1 SLOAD PUSH1 0x1 PUSH1 0x1 PUSH1 0xA0 SHL SUB NOT AND DUP4 OR SWAP1 SSTORE MLOAD SWAP1 DUP2 MSTORE LOG1 DUP1 RETURN JUMPDEST POP CALLVALUE PUSH2 0x2ED JUMPI PUSH1 0x20 CALLDATASIZE PUSH1 0x3 NOT ADD SLT PUSH2 0x2ED JUMPI DUP3 PUSH2 0xFD3 PUSH2 0x154F JUMP JUMPDEST DUP2 SLOAD PUSH1 0x1 PUSH1 0x1 PUSH1 0xA0 SHL SUB SWAP2 SWAP1 DUP3 AND CALLER EQ DUP1 ISZERO PUSH2 0x1038 JUMPI JUMPDEST PUSH2 0xFF3 SWAP1 PUSH2 0x17D0 JUMP JUMPDEST DUP2 PUSH1 0x7 SLOAD AND SWAP1 DUP2 EXTCODESIZE ISZERO PUSH2 0x483 JUMPI DUP4 PUSH1 0x24 SWAP3 DUP7 MLOAD SWAP8 DUP9 SWAP6 DUP7 SWAP5 PUSH4 0x18313ADF PUSH1 0xE1 SHL DUP7 MSTORE AND SWAP1 DUP5 ADD MSTORE GAS CALL SWAP1 DUP2 ISZERO PUSH2 0xAB4 JUMPI POP PUSH2 0x102C JUMPI POP DUP1 RETURN JUMPDEST PUSH2 0x1035 SWAP1 PUSH2 0x1580 JUMP JUMPDEST DUP1 RETURN JUMPDEST POP PUSH1 0x7 SLOAD DUP3 AND CALLER EQ PUSH2 0xFEA JUMP JUMPDEST POP SWAP2 SWAP1 CALLVALUE PUSH2 0x487 JUMPI PUSH1 0x3 NOT SWAP3 PUSH1 0x60 CALLDATASIZE DUP6 ADD SLT PUSH2 0x2ED JUMPI DUP2 CALLDATALOAD PUSH8 0xFFFFFFFFFFFFFFFF SWAP4 DUP5 DUP3 GT PUSH2 0x984 JUMPI PUSH1 0xC0 DUP7 DUP4 CALLDATASIZE SUB ADD SLT PUSH2 0x984 JUMPI DUP3 MLOAD SWAP4 PUSH1 0xC0 DUP6 ADD DUP6 DUP2 LT DUP8 DUP3 GT OR PUSH2 0x1351 JUMPI DUP5 MSTORE DUP3 DUP2 ADD CALLDATALOAD DUP7 DUP2 GT PUSH2 0x2ED JUMPI PUSH2 0x10A8 SWAP1 DUP3 CALLDATASIZE SWAP2 DUP7 ADD ADD PUSH2 0x15E8 JUMP JUMPDEST DUP6 MSTORE PUSH1 0x24 DUP4 ADD CALLDATALOAD DUP7 DUP2 GT PUSH2 0x2ED JUMPI PUSH2 0x10C5 SWAP1 DUP3 CALLDATASIZE SWAP2 DUP7 ADD ADD PUSH2 0x15E8 JUMP JUMPDEST SWAP3 PUSH1 0x20 SWAP6 DUP7 DUP2 ADD SWAP5 DUP6 MSTORE PUSH1 0x44 DUP3 ADD CALLDATALOAD DUP9 DUP2 GT PUSH2 0x134D JUMPI PUSH2 0x10EA SWAP1 DUP5 CALLDATASIZE SWAP2 DUP6 ADD ADD PUSH2 0x15E8 JUMP JUMPDEST SWAP3 DUP7 DUP3 ADD SWAP4 DUP5 MSTORE PUSH1 0x64 DUP4 ADD CALLDATALOAD DUP10 DUP2 GT PUSH2 0xABD JUMPI PUSH2 0x110C SWAP1 DUP3 CALLDATASIZE SWAP2 DUP7 ADD ADD PUSH2 0x15E8 JUMP JUMPDEST SWAP6 PUSH1 0x60 DUP4 ADD SWAP7 DUP8 MSTORE PUSH1 0x84 DUP5 ADD CALLDATALOAD DUP11 DUP2 GT PUSH2 0x1349 JUMPI PUSH2 0x112F SWAP1 DUP4 CALLDATASIZE SWAP2 DUP8 ADD ADD PUSH2 0x15E8 JUMP JUMPDEST SWAP4 PUSH1 0x80 DUP5 ADD SWAP5 DUP6 MSTORE PUSH1 0xA4 DUP2 ADD CALLDATALOAD DUP12 DUP2 GT PUSH2 0x1345 JUMPI PUSH2 0x1151 SWAP2 CALLDATASIZE SWAP2 ADD DUP5 ADD PUSH2 0x15E8 JUMP JUMPDEST PUSH1 0xA0 DUP5 ADD SWAP1 DUP2 MSTORE PUSH1 0x1 PUSH1 0x1 PUSH1 0xA0 SHL SUB SWAP12 PUSH1 0x44 CALLDATALOAD DUP14 DUP2 AND SWAP4 SWAP2 SWAP3 SWAP1 DUP5 SWAP1 SUB PUSH2 0x1341 JUMPI DUP14 PUSH1 0x8 SLOAD AND CALLER SUB PUSH2 0x12FE JUMPI DUP9 SWAP10 SWAP11 SWAP12 SWAP13 SWAP14 PUSH1 0xD SLOAD AND SWAP7 DUP13 MLOAD SWAP12 DUP13 SWAP10 DUP11 SWAP9 DUP10 SWAP9 PUSH4 0x350F69B1 PUSH1 0xE1 SHL DUP11 MSTORE DUP10 ADD PUSH1 0xA0 SWAP1 MSTORE MLOAD PUSH1 0xA4 DUP10 ADD PUSH1 0xC0 SWAP1 MSTORE PUSH2 0x164 DUP10 ADD PUSH2 0x11B8 SWAP2 PUSH2 0x1652 JUMP JUMPDEST SWAP5 MLOAD PUSH1 0xA3 NOT SWAP6 DUP7 DUP11 DUP3 SUB ADD PUSH1 0xC4 DUP12 ADD MSTORE PUSH2 0x11D1 SWAP2 PUSH2 0x1652 JUMP JUMPDEST SWAP1 MLOAD SWAP1 DUP6 DUP10 DUP3 SUB ADD PUSH1 0xE4 DUP11 ADD MSTORE PUSH2 0x11E7 SWAP2 PUSH2 0x1652 JUMP JUMPDEST SWAP1 MLOAD SWAP1 DUP5 DUP9 DUP3 SUB ADD PUSH2 0x104 DUP10 ADD MSTORE PUSH2 0x11FE SWAP2 PUSH2 0x1652 JUMP JUMPDEST SWAP1 MLOAD SWAP1 DUP4 DUP8 DUP3 SUB ADD PUSH2 0x124 DUP9 ADD MSTORE PUSH2 0x1215 SWAP2 PUSH2 0x1652 JUMP JUMPDEST SWAP1 MLOAD SWAP2 DUP6 DUP3 SUB ADD PUSH2 0x144 DUP7 ADD MSTORE PUSH2 0x122B SWAP2 PUSH2 0x1652 JUMP JUMPDEST SWAP2 PUSH1 0x24 CALLDATALOAD PUSH1 0x24 DUP6 ADD MSTORE PUSH1 0x44 DUP5 ADD MSTORE DUP3 DUP3 SUB ADD PUSH1 0x64 DUP4 ADD MSTORE PUSH2 0x124B SWAP1 PUSH2 0x16DF JUMP JUMPDEST ADDRESS PUSH1 0x84 DUP4 ADD MSTORE SUB SWAP2 GAS STATICCALL SWAP5 DUP6 ISZERO PUSH2 0x12F2 JUMPI DUP2 SWAP6 PUSH2 0x1279 JUMPI JUMPDEST POP POP POP PUSH2 0x9C5 SWAP1 MLOAD SWAP3 DUP3 DUP5 SWAP4 DUP5 MSTORE DUP4 ADD SWAP1 PUSH2 0x1652 JUMP JUMPDEST SWAP1 SWAP2 SWAP3 SWAP5 POP RETURNDATASIZE DUP1 DUP4 DUP6 RETURNDATACOPY PUSH2 0x128D DUP2 DUP6 PUSH2 0x15AA JUMP JUMPDEST DUP4 ADD SWAP3 DUP5 DUP2 DUP6 SUB SLT PUSH2 0x2ED JUMPI DUP1 MLOAD SWAP2 DUP3 GT PUSH2 0x2ED JUMPI ADD DUP3 PUSH1 0x1F DUP3 ADD SLT ISZERO PUSH2 0x487 JUMPI DUP1 MLOAD SWAP2 PUSH2 0x12BA DUP4 PUSH2 0x15CC JUMP JUMPDEST SWAP4 PUSH2 0x12C7 DUP8 MLOAD SWAP6 DUP7 PUSH2 0x15AA JUMP JUMPDEST DUP4 DUP6 MSTORE DUP6 DUP5 DUP5 ADD ADD GT PUSH2 0x984 JUMPI POP DUP3 SWAP2 PUSH2 0x12E9 SWAP2 DUP6 DUP1 PUSH2 0x9C5 SWAP7 ADD SWAP2 ADD PUSH2 0x162F JUMP JUMPDEST SWAP3 SWAP1 CODESIZE DUP1 PUSH2 0x1263 JUMP JUMPDEST POP DUP3 MLOAD SWAP1 RETURNDATASIZE SWAP1 DUP3 RETURNDATACOPY RETURNDATASIZE SWAP1 REVERT JUMPDEST DUP11 MLOAD PUSH3 0x461BCD PUSH1 0xE5 SHL DUP2 MSTORE DUP1 DUP7 ADD DUP14 SWAP1 MSTORE PUSH1 0x1F PUSH1 0x24 DUP3 ADD MSTORE PUSH32 0x4F6E6C79206D65746164617461206D6F64756C652063616E2072656E64657200 PUSH1 0x44 DUP3 ADD MSTORE PUSH1 0x64 SWAP1 REVERT JUMPDEST DUP9 DUP1 REVERT JUMPDEST DUP8 DUP1 REVERT JUMPDEST DUP7 DUP1 REVERT JUMPDEST DUP5 DUP1 REVERT JUMPDEST PUSH4 0x4E487B71 PUSH1 0xE0 SHL DUP4 MSTORE PUSH1 0x41 DUP3 MSTORE PUSH1 0x24 DUP4 REVERT JUMPDEST POP CALLVALUE PUSH2 0x2ED JUMPI PUSH1 0x20 CALLDATASIZE PUSH1 0x3 NOT ADD SLT PUSH2 0x2ED JUMPI PUSH2 0x137E PUSH2 0x154F JUMP JUMPDEST PUSH2 0x1386 PUSH2 0x1783 JUMP JUMPDEST PUSH1 0x1 PUSH1 0x1 PUSH1 0xA0 SHL SUB AND SWAP1 DUP2 ISZERO PUSH2 0x13A9 JUMPI POP DUP2 SLOAD PUSH1 0x1 PUSH1 0x1 PUSH1 0xA0 SHL SUB NOT AND OR SWAP1 SSTORE DUP1 RETURN JUMPDEST MLOAD PUSH3 0x461BCD PUSH1 0xE5 SHL DUP2 MSTORE PUSH1 0x20 DUP2 DUP5 ADD MSTORE PUSH1 0x17 PUSH1 0x24 DUP3 ADD MSTORE PUSH32 0x496E76616C696420666163746F72792061646472657373000000000000000000 PUSH1 0x44 DUP3 ADD MSTORE PUSH1 0x64 SWAP1 REVERT JUMPDEST DUP4 DUP3 CALLVALUE PUSH2 0x487 JUMPI DUP2 PUSH1 0x3 NOT CALLDATASIZE ADD SLT PUSH2 0x487 JUMPI PUSH1 0x5 SLOAD SWAP1 MLOAD PUSH1 0x1 PUSH1 0x1 PUSH1 0xA0 SHL SUB SWAP1 SWAP2 AND DUP2 MSTORE PUSH1 0x20 SWAP1 RETURN JUMPDEST DUP4 DUP3 CALLVALUE PUSH2 0x487 JUMPI PUSH1 0x20 CALLDATASIZE PUSH1 0x3 NOT ADD SLT PUSH2 0x487 JUMPI PUSH1 0x20 SWAP2 PUSH1 0x1 PUSH1 0x1 PUSH1 0xA0 SHL SUB SWAP1 DUP3 SWAP1 DUP3 PUSH2 0x143E PUSH2 0x154F JUMP JUMPDEST AND DUP2 MSTORE PUSH1 0x3 DUP6 MSTORE KECCAK256 SLOAD AND SWAP1 MLOAD SWAP1 DUP2 MSTORE RETURN JUMPDEST DUP4 DUP3 CALLVALUE PUSH2 0x487 JUMPI DUP2 PUSH1 0x3 NOT CALLDATASIZE ADD SLT PUSH2 0x487 JUMPI PUSH1 0x7 SLOAD SWAP1 MLOAD PUSH1 0x1 PUSH1 0x1 PUSH1 0xA0 SHL SUB SWAP1 SWAP2 AND DUP2 MSTORE PUSH1 0x20 SWAP1 RETURN JUMPDEST POP CALLVALUE PUSH2 0x2ED JUMPI DUP1 PUSH1 0x3 NOT CALLDATASIZE ADD SLT PUSH2 0x2ED JUMPI PUSH2 0x1491 PUSH2 0x154F JUMP JUMPDEST SWAP2 PUSH2 0x149A PUSH2 0x156A JUMP JUMPDEST SWAP3 PUSH2 0x14A3 PUSH2 0x17AF JUMP JUMPDEST DUP2 SLOAD PUSH1 0x1 PUSH1 0x1 PUSH1 0xA0 SHL SUB SWAP3 SWAP1 DUP4 AND CALLER SUB PUSH2 0x1501 JUMPI POP DUP2 AND SWAP2 DUP3 DUP6 MSTORE PUSH1 0x3 PUSH1 0x20 MSTORE DUP5 KECCAK256 SWAP3 AND SWAP2 DUP3 PUSH1 0x1 PUSH1 0x1 PUSH1 0x60 SHL SUB PUSH1 0xA0 SHL DUP3 SLOAD AND OR SWAP1 SSTORE PUSH32 0x48E8EF3819015E9B1E8D36DDBBBC8CEFC90DBA7F69B711BDCA0C9A10B63B037F DUP4 DUP1 LOG3 DUP1 RETURN JUMPDEST PUSH1 0x84 SWAP1 PUSH1 0x20 DUP6 MLOAD SWAP2 PUSH3 0x461BCD PUSH1 0xE5 SHL DUP4 MSTORE DUP3 ADD MSTORE PUSH1 0x22 PUSH1 0x24 DUP3 ADD MSTORE PUSH32 0x4F6E6C7920666163746F72792063616E2073657420746F6B656E206D61707069 PUSH1 0x44 DUP3 ADD MSTORE PUSH2 0x6E67 PUSH1 0xF0 SHL PUSH1 0x64 DUP3 ADD MSTORE REVERT JUMPDEST PUSH1 0x4 CALLDATALOAD SWAP1 PUSH1 0x1 PUSH1 0x1 PUSH1 0xA0 SHL SUB DUP3 AND DUP3 SUB PUSH2 0x1565 JUMPI JUMP JUMPDEST PUSH1 0x0 DUP1 REVERT JUMPDEST PUSH1 0x24 CALLDATALOAD SWAP1 PUSH1 0x1 PUSH1 0x1 PUSH1 0xA0 SHL SUB DUP3 AND DUP3 SUB PUSH2 0x1565 JUMPI JUMP JUMPDEST PUSH8 0xFFFFFFFFFFFFFFFF DUP2 GT PUSH2 0x1594 JUMPI PUSH1 0x40 MSTORE JUMP JUMPDEST PUSH4 0x4E487B71 PUSH1 0xE0 SHL PUSH1 0x0 MSTORE PUSH1 0x41 PUSH1 0x4 MSTORE PUSH1 0x24 PUSH1 0x0 REVERT JUMPDEST SWAP1 PUSH1 0x1F DUP1 NOT SWAP2 ADD AND DUP2 ADD SWAP1 DUP2 LT PUSH8 0xFFFFFFFFFFFFFFFF DUP3 GT OR PUSH2 0x1594 JUMPI PUSH1 0x40 MSTORE JUMP JUMPDEST PUSH8 0xFFFFFFFFFFFFFFFF DUP2 GT PUSH2 0x1594 JUMPI PUSH1 0x1F ADD PUSH1 0x1F NOT AND PUSH1 0x20 ADD SWAP1 JUMP JUMPDEST DUP2 PUSH1 0x1F DUP3 ADD SLT ISZERO PUSH2 0x1565 JUMPI DUP1 CALLDATALOAD SWAP1 PUSH2 0x15FF DUP3 PUSH2 0x15CC JUMP JUMPDEST SWAP3 PUSH2 0x160D PUSH1 0x40 MLOAD SWAP5 DUP6 PUSH2 0x15AA JUMP JUMPDEST DUP3 DUP5 MSTORE PUSH1 0x20 DUP4 DUP4 ADD ADD GT PUSH2 0x1565 JUMPI DUP2 PUSH1 0x0 SWAP3 PUSH1 0x20 DUP1 SWAP4 ADD DUP4 DUP7 ADD CALLDATACOPY DUP4 ADD ADD MSTORE SWAP1 JUMP JUMPDEST PUSH1 0x0 JUMPDEST DUP4 DUP2 LT PUSH2 0x1642 JUMPI POP POP PUSH1 0x0 SWAP2 ADD MSTORE JUMP JUMPDEST DUP2 DUP2 ADD MLOAD DUP4 DUP3 ADD MSTORE PUSH1 0x20 ADD PUSH2 0x1632 JUMP JUMPDEST SWAP1 PUSH1 0x20 SWAP2 PUSH2 0x166B DUP2 MLOAD DUP1 SWAP3 DUP2 DUP6 MSTORE DUP6 DUP1 DUP7 ADD SWAP2 ADD PUSH2 0x162F JUMP JUMPDEST PUSH1 0x1F ADD PUSH1 0x1F NOT AND ADD ADD SWAP1 JUMP JUMPDEST DUP1 SLOAD DUP3 LT ISZERO PUSH2 0x168F JUMPI PUSH1 0x0 MSTORE PUSH1 0x20 PUSH1 0x0 KECCAK256 ADD SWAP1 PUSH1 0x0 SWAP1 JUMP JUMPDEST PUSH4 0x4E487B71 PUSH1 0xE0 SHL PUSH1 0x0 MSTORE PUSH1 0x32 PUSH1 0x4 MSTORE PUSH1 0x24 PUSH1 0x0 REVERT JUMPDEST SWAP1 PUSH1 0x1 DUP3 DUP2 SHR SWAP3 AND DUP1 ISZERO PUSH2 0x16D5 JUMPI JUMPDEST PUSH1 0x20 DUP4 LT EQ PUSH2 0x16BF JUMPI JUMP JUMPDEST PUSH4 0x4E487B71 PUSH1 0xE0 SHL PUSH1 0x0 MSTORE PUSH1 0x22 PUSH1 0x4 MSTORE PUSH1 0x24 PUSH1 0x0 REVERT JUMPDEST SWAP2 PUSH1 0x7F AND SWAP2 PUSH2 0x16B4 JUMP JUMPDEST PUSH1 0xF SLOAD PUSH1 0x0 SWAP3 SWAP2 PUSH2 0x16EF DUP3 PUSH2 0x16A5 JUMP JUMPDEST DUP1 DUP3 MSTORE SWAP2 PUSH1 0x1 SWAP1 DUP2 DUP2 AND SWAP1 DUP2 ISZERO PUSH2 0x1766 JUMPI POP PUSH1 0x1 EQ PUSH2 0x170D JUMPI POP POP POP JUMP JUMPDEST SWAP2 SWAP3 SWAP4 POP PUSH1 0xF PUSH1 0x0 MSTORE PUSH32 0x8D1108E10BCB7C27DDDFC02ED9D693A074039D026CF4EA4240B40F7D581AC802 SWAP2 PUSH1 0x0 SWAP3 JUMPDEST DUP5 DUP5 LT PUSH2 0x174E JUMPI POP POP PUSH1 0x20 SWAP3 POP ADD ADD SWAP1 JUMP JUMPDEST DUP1 SLOAD PUSH1 0x20 DUP6 DUP6 ADD DUP2 ADD SWAP2 SWAP1 SWAP2 MSTORE SWAP1 SWAP4 ADD SWAP3 DUP2 ADD PUSH2 0x173C JUMP JUMPDEST SWAP2 POP POP PUSH1 0x20 SWAP4 SWAP5 POP PUSH1 0xFF SWAP3 SWAP2 SWAP3 NOT AND DUP4 DUP4 ADD MSTORE ISZERO ISZERO PUSH1 0x5 SHL ADD ADD SWAP1 JUMP JUMPDEST PUSH1 0x0 SLOAD PUSH1 0x1 PUSH1 0x1 PUSH1 0xA0 SHL SUB AND CALLER SUB PUSH2 0x1797 JUMPI JUMP JUMPDEST PUSH1 0x40 MLOAD PUSH4 0x118CDAA7 PUSH1 0xE0 SHL DUP2 MSTORE CALLER PUSH1 0x4 DUP3 ADD MSTORE PUSH1 0x24 SWAP1 REVERT JUMPDEST PUSH1 0xFF PUSH1 0x0 SLOAD PUSH1 0xA0 SHR AND PUSH2 0x17BE JUMPI JUMP JUMPDEST PUSH1 0x40 MLOAD PUSH4 0xD93C0665 PUSH1 0xE0 SHL DUP2 MSTORE PUSH1 0x4 SWAP1 REVERT JUMPDEST ISZERO PUSH2 0x17D7 JUMPI JUMP JUMPDEST PUSH1 0x40 MLOAD PUSH3 0x461BCD PUSH1 0xE5 SHL DUP2 MSTORE PUSH1 0x20 PUSH1 0x4 DUP3 ADD MSTORE PUSH1 0xE PUSH1 0x24 DUP3 ADD MSTORE PUSH14 0x139BDD08185D5D1A1BDC9A5E9959 PUSH1 0x92 SHL PUSH1 0x44 DUP3 ADD MSTORE PUSH1 0x64 SWAP1 REVERT JUMPDEST ISZERO PUSH2 0x1814 JUMPI JUMP JUMPDEST PUSH1 0x40 MLOAD PUSH3 0x461BCD PUSH1 0xE5 SHL DUP2 MSTORE PUSH1 0x20 PUSH1 0x4 DUP3 ADD MSTORE PUSH1 0xF PUSH1 0x24 DUP3 ADD MSTORE PUSH15 0x496E76616C69642061646472657373 PUSH1 0x88 SHL PUSH1 0x44 DUP3 ADD MSTORE PUSH1 0x64 SWAP1 REVERT JUMPDEST ISZERO PUSH2 0x1852 JUMPI JUMP JUMPDEST PUSH1 0x40 MLOAD PUSH3 0x461BCD PUSH1 0xE5 SHL DUP2 MSTORE PUSH1 0x20 PUSH1 0x4 DUP3 ADD MSTORE PUSH1 0x21 PUSH1 0x24 DUP3 ADD MSTORE PUSH32 0x4F6E6C7920666163746F72792063616E20616464207772617070656420736F6E PUSH1 0x44 DUP3 ADD MSTORE PUSH1 0x67 PUSH1 0xF8 SHL PUSH1 0x64 DUP3 ADD MSTORE PUSH1 0x84 SWAP1 REVERT JUMPDEST SWAP1 DUP2 PUSH1 0x20 SWAP2 SUB SLT PUSH2 0x1565 JUMPI MLOAD DUP1 ISZERO ISZERO DUP2 SUB PUSH2 0x1565 JUMPI SWAP1 JUMP INVALID LOG2 PUSH5 0x6970667358 0x22 SLT KECCAK256 0xBD SHR CALL BASEFEE PUSH11 0x657B72D0DB7F4AF2D5A7C7 EXTCODECOPY 0xC7 0xC8 SMOD DIV 0x4F 0xE8 MOD 0xB8 MULMOD PUSH8 0xF1FB23556164736F PUSH13 0x63430008140033000000000000 "},"methodIdentifiers":{"authorizedContracts(address)":"d5b9221b","baseURI()":"6c0360eb","distributorWalletFactory()":"0c5d8da1","erc20whitelist()":"09da4e51","getBaseURI()":"714c5398","getLegalContractMetadata()":"77191a6e","getMetadataModule()":"088b9554","getOwnerWrappedSongs(address)":"37d7d542","getRegistryModule()":"ce1a52d2","isAuthorizedContract(address)":"66d0ead3","isTokenWhitelisted(address)":"b5af090f","isValidToCreateWrappedSong(address)":"f140b55f","isWSTokenFromProtocol(address)":"6cf563a4","legalContractMetadata()":"dbd15d53","maxSaleDuration()":"723ff2a2","metadataModule()":"3684d100","metadataRenderer()":"70319970","owner()":"8da5cb5b","ownerWrappedSongs(address,uint256)":"4da6840a","pause()":"8456cb59","paused()":"5c975abb","registryModule()":"3cd7bc95","removeTokenFromWhitelist(address)":"306275be","renderTokenURI((string,string,string,string,string,string),uint256,address)":"2fda23b7","renounceOwnership()":"715018a6","setAuthorizedContract(address,bool)":"f2fa7392","setBaseURI(string)":"55f804b3","setDistributorWalletFactory(address)":"358d96ab","setERC20Whitelist(address)":"e4829369","setLegalContractMetadata(address)":"ec691a59","setMaxSaleDuration(uint256)":"533761fe","setMetadataModule(address)":"a4198fa2","setMetadataRenderer(address)":"fd4fe8a8","setOwnerWrappedSong(address,address)":"ff4884f8","setRegistryModule(address)":"5fd61020","setSmartAccountToWSToken(address,address)":"0008ac83","setWSTokenFromProtocol(address)":"d9ce7b95","setWhitelistingManager(address)":"a951583b","setWrappedSongFactory(address)":"2fb92c5a","smartAccountToWSToken(address)":"0b1b745e","transferOwnership(address)":"f2fde38b","unpause()":"3f4ba83a","whitelistToken(address)":"6247f6f2","whitelistingManager()":"ac581b3a","wrappedSongFactory()":"1c8370cb","wrappedSongFactoryAddress()":"81b539b8"}},"storageLayout":{"storage":[{"astId":8,"contract":"contracts/protocol/NonUpgradable/ProtocolModule.sol:ProtocolModule","label":"_owner","offset":0,"slot":"0","type":"t_address"},{"astId":966,"contract":"contracts/protocol/NonUpgradable/ProtocolModule.sol:ProtocolModule","label":"_paused","offset":20,"slot":"0","type":"t_bool"},{"astId":1085,"contract":"contracts/protocol/NonUpgradable/ProtocolModule.sol:ProtocolModule","label":"_status","offset":0,"slot":"1","type":"t_uint256"},{"astId":2435,"contract":"contracts/protocol/NonUpgradable/ProtocolModule.sol:ProtocolModule","label":"ownerWrappedSongs","offset":0,"slot":"2","type":"t_mapping(t_address,t_array(t_address)dyn_storage)"},{"astId":2439,"contract":"contracts/protocol/NonUpgradable/ProtocolModule.sol:ProtocolModule","label":"smartAccountToWSToken","offset":0,"slot":"3","type":"t_mapping(t_address,t_address)"},{"astId":2442,"contract":"contracts/protocol/NonUpgradable/ProtocolModule.sol:ProtocolModule","label":"wrappedSongFactory","offset":0,"slot":"4","type":"t_contract(IWrappedSongFactory)2176"},{"astId":2445,"contract":"contracts/protocol/NonUpgradable/ProtocolModule.sol:ProtocolModule","label":"distributorWalletFactory","offset":0,"slot":"5","type":"t_contract(IDistributorWalletFactory)1194"},{"astId":2448,"contract":"contracts/protocol/NonUpgradable/ProtocolModule.sol:ProtocolModule","label":"whitelistingManager","offset":0,"slot":"6","type":"t_contract(IWhitelistingManager)2136"},{"astId":2451,"contract":"contracts/protocol/NonUpgradable/ProtocolModule.sol:ProtocolModule","label":"erc20whitelist","offset":0,"slot":"7","type":"t_contract(IERC20Whitelist)1257"},{"astId":2454,"contract":"contracts/protocol/NonUpgradable/ProtocolModule.sol:ProtocolModule","label":"metadataModule","offset":0,"slot":"8","type":"t_contract(IMetadataModule)1551"},{"astId":2457,"contract":"contracts/protocol/NonUpgradable/ProtocolModule.sol:ProtocolModule","label":"legalContractMetadata","offset":0,"slot":"9","type":"t_contract(ILegalContractMetadata)1454"},{"astId":2460,"contract":"contracts/protocol/NonUpgradable/ProtocolModule.sol:ProtocolModule","label":"registryModule","offset":0,"slot":"10","type":"t_contract(IRegistryModule)1895"},{"astId":2464,"contract":"contracts/protocol/NonUpgradable/ProtocolModule.sol:ProtocolModule","label":"authorizedContracts","offset":0,"slot":"11","type":"t_mapping(t_address,t_bool)"},{"astId":2468,"contract":"contracts/protocol/NonUpgradable/ProtocolModule.sol:ProtocolModule","label":"protocolWSTokens","offset":0,"slot":"12","type":"t_mapping(t_address,t_bool)"},{"astId":2471,"contract":"contracts/protocol/NonUpgradable/ProtocolModule.sol:ProtocolModule","label":"metadataRenderer","offset":0,"slot":"13","type":"t_contract(IMetadataRenderer)1573"},{"astId":2533,"contract":"contracts/protocol/NonUpgradable/ProtocolModule.sol:ProtocolModule","label":"maxSaleDuration","offset":0,"slot":"14","type":"t_uint256"},{"astId":2535,"contract":"contracts/protocol/NonUpgradable/ProtocolModule.sol:ProtocolModule","label":"baseURI","offset":0,"slot":"15","type":"t_string_storage"}],"types":{"t_address":{"encoding":"inplace","label":"address","numberOfBytes":"20"},"t_array(t_address)dyn_storage":{"base":"t_address","encoding":"dynamic_array","label":"address[]","numberOfBytes":"32"},"t_bool":{"encoding":"inplace","label":"bool","numberOfBytes":"1"},"t_contract(IDistributorWalletFactory)1194":{"encoding":"inplace","label":"contract IDistributorWalletFactory","numberOfBytes":"20"},"t_contract(IERC20Whitelist)1257":{"encoding":"inplace","label":"contract IERC20Whitelist","numberOfBytes":"20"},"t_contract(ILegalContractMetadata)1454":{"encoding":"inplace","label":"contract ILegalContractMetadata","numberOfBytes":"20"},"t_contract(IMetadataModule)1551":{"encoding":"inplace","label":"contract IMetadataModule","numberOfBytes":"20"},"t_contract(IMetadataRenderer)1573":{"encoding":"inplace","label":"contract IMetadataRenderer","numberOfBytes":"20"},"t_contract(IRegistryModule)1895":{"encoding":"inplace","label":"contract IRegistryModule","numberOfBytes":"20"},"t_contract(IWhitelistingManager)2136":{"encoding":"inplace","label":"contract IWhitelistingManager","numberOfBytes":"20"},"t_contract(IWrappedSongFactory)2176":{"encoding":"inplace","label":"contract IWrappedSongFactory","numberOfBytes":"20"},"t_mapping(t_address,t_address)":{"encoding":"mapping","key":"t_address","label":"mapping(address => address)","numberOfBytes":"32","value":"t_address"},"t_mapping(t_address,t_array(t_address)dyn_storage)":{"encoding":"mapping","key":"t_address","label":"mapping(address => address[])","numberOfBytes":"32","value":"t_array(t_address)dyn_storage"},"t_mapping(t_address,t_bool)":{"encoding":"mapping","key":"t_address","label":"mapping(address => bool)","numberOfBytes":"32","value":"t_bool"},"t_string_storage":{"encoding":"bytes","label":"string","numberOfBytes":"32"},"t_uint256":{"encoding":"inplace","label":"uint256","numberOfBytes":"32"}}}}}}