{"contracts/protocol/NonUpgradable/WSTokenManagement.sol":{"WSTokenManagement":{"abi":[{"inputs":[],"stateMutability":"nonpayable","type":"constructor"},{"inputs":[{"internalType":"address","name":"sender","type":"address"},{"internalType":"uint256","name":"balance","type":"uint256"},{"internalType":"uint256","name":"needed","type":"uint256"},{"internalType":"uint256","name":"tokenId","type":"uint256"}],"name":"ERC1155InsufficientBalance","type":"error"},{"inputs":[{"internalType":"address","name":"approver","type":"address"}],"name":"ERC1155InvalidApprover","type":"error"},{"inputs":[{"internalType":"uint256","name":"idsLength","type":"uint256"},{"internalType":"uint256","name":"valuesLength","type":"uint256"}],"name":"ERC1155InvalidArrayLength","type":"error"},{"inputs":[{"internalType":"address","name":"operator","type":"address"}],"name":"ERC1155InvalidOperator","type":"error"},{"inputs":[{"internalType":"address","name":"receiver","type":"address"}],"name":"ERC1155InvalidReceiver","type":"error"},{"inputs":[{"internalType":"address","name":"sender","type":"address"}],"name":"ERC1155InvalidSender","type":"error"},{"inputs":[{"internalType":"address","name":"operator","type":"address"},{"internalType":"address","name":"owner","type":"address"}],"name":"ERC1155MissingApprovalForAll","type":"error"},{"inputs":[],"name":"InvalidInitialization","type":"error"},{"inputs":[],"name":"NotInitializing","type":"error"},{"inputs":[{"internalType":"address","name":"owner","type":"address"}],"name":"OwnableInvalidOwner","type":"error"},{"inputs":[{"internalType":"address","name":"account","type":"address"}],"name":"OwnableUnauthorizedAccount","type":"error"},{"inputs":[],"name":"ReentrancyGuardReentrantCall","type":"error"},{"anonymous":false,"inputs":[{"indexed":true,"internalType":"address","name":"account","type":"address"},{"indexed":true,"internalType":"address","name":"operator","type":"address"},{"indexed":false,"internalType":"bool","name":"approved","type":"bool"}],"name":"ApprovalForAll","type":"event"},{"anonymous":false,"inputs":[{"indexed":true,"internalType":"uint256","name":"amount","type":"uint256"},{"indexed":true,"internalType":"address","name":"recipient","type":"address"}],"name":"BuyoutTokenCreated","type":"event"},{"anonymous":false,"inputs":[{"indexed":false,"internalType":"uint64","name":"version","type":"uint64"}],"name":"Initialized","type":"event"},{"anonymous":false,"inputs":[{"indexed":true,"internalType":"uint256","name":"tokenId","type":"uint256"},{"indexed":true,"internalType":"address","name":"recipient","type":"address"},{"indexed":false,"internalType":"string","name":"contractURI","type":"string"}],"name":"LegalContractCreated","type":"event"},{"anonymous":false,"inputs":[{"indexed":true,"internalType":"address","name":"previousOwner","type":"address"},{"indexed":true,"internalType":"address","name":"newOwner","type":"address"}],"name":"OwnershipTransferred","type":"event"},{"anonymous":false,"inputs":[{"indexed":true,"internalType":"uint256","name":"sharesAmount","type":"uint256"},{"indexed":true,"internalType":"address","name":"minter","type":"address"}],"name":"SongSharesCreated","type":"event"},{"anonymous":false,"inputs":[{"indexed":true,"internalType":"address","name":"operator","type":"address"},{"indexed":true,"internalType":"address","name":"from","type":"address"},{"indexed":true,"internalType":"address","name":"to","type":"address"},{"indexed":false,"internalType":"uint256[]","name":"ids","type":"uint256[]"},{"indexed":false,"internalType":"uint256[]","name":"values","type":"uint256[]"}],"name":"TransferBatch","type":"event"},{"anonymous":false,"inputs":[{"indexed":true,"internalType":"address","name":"operator","type":"address"},{"indexed":true,"internalType":"address","name":"from","type":"address"},{"indexed":true,"internalType":"address","name":"to","type":"address"},{"indexed":false,"internalType":"uint256","name":"id","type":"uint256"},{"indexed":false,"internalType":"uint256","name":"value","type":"uint256"}],"name":"TransferSingle","type":"event"},{"anonymous":false,"inputs":[{"indexed":false,"internalType":"string","name":"value","type":"string"},{"indexed":true,"internalType":"uint256","name":"id","type":"uint256"}],"name":"URI","type":"event"},{"anonymous":false,"inputs":[{"indexed":true,"internalType":"address","name":"smartAccount","type":"address"},{"indexed":true,"internalType":"address","name":"minter","type":"address"}],"name":"WSTokensCreated","type":"event"},{"inputs":[],"name":"BUYOUT_TOKEN_ID","outputs":[{"internalType":"uint256","name":"","type":"uint256"}],"stateMutability":"pure","type":"function"},{"inputs":[],"name":"LEGAL_CONTRACT_START_ID","outputs":[{"internalType":"uint256","name":"","type":"uint256"}],"stateMutability":"pure","type":"function"},{"inputs":[],"name":"SONG_CONCEPT_ID","outputs":[{"internalType":"uint256","name":"","type":"uint256"}],"stateMutability":"pure","type":"function"},{"inputs":[],"name":"SONG_SHARES_ID","outputs":[{"internalType":"uint256","name":"","type":"uint256"}],"stateMutability":"pure","type":"function"},{"inputs":[{"internalType":"address","name":"account","type":"address"},{"internalType":"uint256","name":"id","type":"uint256"}],"name":"balanceOf","outputs":[{"internalType":"uint256","name":"","type":"uint256"}],"stateMutability":"view","type":"function"},{"inputs":[{"internalType":"address","name":"account","type":"address"},{"internalType":"uint256","name":"id","type":"uint256"},{"internalType":"uint256","name":"timestamp","type":"uint256"}],"name":"balanceOfAt","outputs":[{"internalType":"uint256","name":"","type":"uint256"}],"stateMutability":"view","type":"function"},{"inputs":[{"internalType":"address[]","name":"accounts","type":"address[]"},{"internalType":"uint256[]","name":"ids","type":"uint256[]"}],"name":"balanceOfBatch","outputs":[{"internalType":"uint256[]","name":"","type":"uint256[]"}],"stateMutability":"view","type":"function"},{"inputs":[],"name":"contractURI","outputs":[{"internalType":"string","name":"","type":"string"}],"stateMutability":"view","type":"function"},{"inputs":[{"internalType":"uint256","name":"amount","type":"uint256"},{"internalType":"address","name":"recipient","type":"address"}],"name":"createBuyoutToken","outputs":[],"stateMutability":"nonpayable","type":"function"},{"inputs":[{"internalType":"string","name":"legalContractURI","type":"string"}],"name":"createLegalContract","outputs":[{"internalType":"uint256","name":"tokenId","type":"uint256"}],"stateMutability":"nonpayable","type":"function"},{"inputs":[{"internalType":"uint256","name":"sharesAmount","type":"uint256"}],"name":"createSongShares","outputs":[],"stateMutability":"nonpayable","type":"function"},{"inputs":[],"name":"currentLegalContractId","outputs":[{"internalType":"uint256","name":"","type":"uint256"}],"stateMutability":"view","type":"function"},{"inputs":[{"internalType":"uint256","name":"id","type":"uint256"}],"name":"exists","outputs":[{"internalType":"bool","name":"","type":"bool"}],"stateMutability":"view","type":"function"},{"inputs":[{"internalType":"address","name":"_smartAccount","type":"address"},{"internalType":"address","name":"_minterAddress","type":"address"},{"internalType":"address","name":"_protocolModuleAddress","type":"address"}],"name":"initialize","outputs":[],"stateMutability":"nonpayable","type":"function"},{"inputs":[{"internalType":"address","name":"account","type":"address"},{"internalType":"address","name":"operator","type":"address"}],"name":"isApprovedForAll","outputs":[{"internalType":"bool","name":"","type":"bool"}],"stateMutability":"view","type":"function"},{"inputs":[],"name":"legalContractMetadata","outputs":[{"internalType":"address","name":"","type":"address"}],"stateMutability":"view","type":"function"},{"inputs":[],"name":"metadataModule","outputs":[{"internalType":"address","name":"","type":"address"}],"stateMutability":"view","type":"function"},{"inputs":[{"internalType":"address","name":"newMetadataAddress","type":"address"},{"internalType":"address","name":"newWrappedSongAddress","type":"address"}],"name":"migrateWrappedSong","outputs":[],"stateMutability":"nonpayable","type":"function"},{"inputs":[],"name":"name","outputs":[{"internalType":"string","name":"","type":"string"}],"stateMutability":"view","type":"function"},{"inputs":[],"name":"owner","outputs":[{"internalType":"address","name":"","type":"address"}],"stateMutability":"view","type":"function"},{"inputs":[],"name":"protocolModule","outputs":[{"internalType":"address","name":"","type":"address"}],"stateMutability":"view","type":"function"},{"inputs":[],"name":"renounceOwnership","outputs":[],"stateMutability":"nonpayable","type":"function"},{"inputs":[{"internalType":"address","name":"from","type":"address"},{"internalType":"address","name":"to","type":"address"},{"internalType":"uint256[]","name":"ids","type":"uint256[]"},{"internalType":"uint256[]","name":"values","type":"uint256[]"},{"internalType":"bytes","name":"data","type":"bytes"}],"name":"safeBatchTransferFrom","outputs":[],"stateMutability":"nonpayable","type":"function"},{"inputs":[{"internalType":"address","name":"from","type":"address"},{"internalType":"address","name":"to","type":"address"},{"internalType":"uint256","name":"id","type":"uint256"},{"internalType":"uint256","name":"value","type":"uint256"},{"internalType":"bytes","name":"data","type":"bytes"}],"name":"safeTransferFrom","outputs":[],"stateMutability":"nonpayable","type":"function"},{"inputs":[{"internalType":"address","name":"operator","type":"address"},{"internalType":"bool","name":"approved","type":"bool"}],"name":"setApprovalForAll","outputs":[],"stateMutability":"nonpayable","type":"function"},{"inputs":[{"internalType":"bytes4","name":"interfaceId","type":"bytes4"}],"name":"supportsInterface","outputs":[{"internalType":"bool","name":"","type":"bool"}],"stateMutability":"view","type":"function"},{"inputs":[],"name":"symbol","outputs":[{"internalType":"string","name":"","type":"string"}],"stateMutability":"view","type":"function"},{"inputs":[],"name":"totalShares","outputs":[{"internalType":"uint256","name":"","type":"uint256"}],"stateMutability":"view","type":"function"},{"inputs":[],"name":"totalSupply","outputs":[{"internalType":"uint256","name":"","type":"uint256"}],"stateMutability":"view","type":"function"},{"inputs":[{"internalType":"uint256","name":"id","type":"uint256"}],"name":"totalSupply","outputs":[{"internalType":"uint256","name":"","type":"uint256"}],"stateMutability":"view","type":"function"},{"inputs":[{"internalType":"address","name":"newOwner","type":"address"}],"name":"transferOwnership","outputs":[],"stateMutability":"nonpayable","type":"function"},{"inputs":[{"internalType":"string","name":"newSymbol","type":"string"}],"name":"updateSymbol","outputs":[],"stateMutability":"nonpayable","type":"function"},{"inputs":[{"internalType":"uint256","name":"tokenId","type":"uint256"}],"name":"uri","outputs":[{"internalType":"string","name":"","type":"string"}],"stateMutability":"view","type":"function"}],"evm":{"bytecode":{"linkReferences":{},"object":"608034620001e95760208101906001600160401b039081831181841017620001d357604092835260008091526002546001908181811c91168015620001c8575b6020821014620001b457601f811162000166575b508160025533156200014e5760058054336001600160a01b0319821681179092558551936001600160a01b03909116907f8be0079c531659141344cd1fd0a4f28419497f9722a3daafe3b4186f6b6457e09080a36006556003600b557ff0c57e16840df040f15088dc2f81fe391c3923bec73e23a9662efc9c229c6a009182549160ff83861c166200013f57508080831603620000fa575b8351612f069081620001ef8239f35b6001600160401b0319909116811790915581519081527fc7f505b2f371ae2175ee4913f4499e1f2633a7b5936321eed1cdaeb6115181d290602090a1388080620000eb565b63f92ee8a960e01b8152600490fd5b8351631e4fbdf760e01b815260048101839052602490fd5b60028352601f0160051c7f405787fa12a823e0f2b7631cc41b3ba8828b3321ca811111fa75cd3aa3bb5ace9081019082905b828110620001a857505062000053565b84815501829062000198565b634e487b7160e01b83526022600452602483fd5b90607f16906200003f565b634e487b7160e01b600052604160045260246000fd5b600080fdfe6080604052600436101561001257600080fd5b60003560e01c8062fdd58e1461022657806301ffc9a71461022157806306fdde031461021c5780630c8a2f3a146102175780630e89341c1461021257806312cf3bc11461020d57806318160ddd146102085780632eb2c2d6146102035780633684d100146101fe5780633704934e146101f957806339fa62df146101f45780633a98ef39146101ef57806344e5b243146101ea5780634e1273f4146101e55780634f558e79146101e0578063537f5312146101db5780635c42e667146101d6578063626da068146101d1578063715018a6146101cc5780638da5cb5b146101c757806395d89b41146101c25780639d3bc4bd146101bd578063a22cb465146101b8578063bcb7130d146101b3578063bd85b039146101ae578063c0c53b8b146101a9578063d44e1355146101a4578063d70a0abc1461019f578063dbd15d531461019a578063e8a3d48514610195578063e985e9c514610190578063f242432a1461018b5763f2fde38b1461018657600080fd5b61154f565b61142a565b6113e0565b6112e6565b6112bd565b61127a565b611237565b6110ee565b6110c4565b610f44565b610e84565b610d4b565b610cb6565b610c8d565b610c2f565b610bf8565b610bcf565b610a9e565b610a2f565b610974565b610913565b6108f5565b610802565b6107e6565b6107bd565b610690565b610552565b610536565b610503565b6104e7565b610402565b6102a4565b610241565b6001600160a01b0381160361023c57565b600080fd5b3461023c57604036600319011261023c5760206102896004356102638161022b565b6024356000526000835260406000209060018060a01b0316600052602052604060002090565b54604051908152f35b6001600160e01b031981160361023c57565b3461023c57602036600319011261023c5760206004356102c381610292565b63ffffffff60e01b16636cdb3d1360e11b8114908115610301575b81156102f0575b506040519015158152f35b6301ffc9a760e01b149050386102e5565b6303a24d0760e21b811491506102de565b600091031261023c57565b90600182811c9216801561034d575b602083101461033757565b634e487b7160e01b600052602260045260246000fd5b91607f169161032c565b634e487b7160e01b600052604160045260246000fd5b6001600160401b03811161038057604052565b610357565b90601f801991011681019081106001600160401b0382111761038057604052565b60005b8381106103b95750506000910152565b81810151838201526020016103a9565b906020916103e2815180928185528580860191016103a6565b601f01601f1916010190565b9060206103ff9281815201906103c9565b90565b3461023c576000806003193601126104e4576040519080600f546104258161031d565b808552916001918083169081156104ba575060011461045f575b61045b8561044f81870382610385565b604051918291826103ee565b0390f35b9250600f83527f8d1108e10bcb7c27dddfc02ed9d693a074039d026cf4ea4240b40f7d581ac8025b8284106104a257505050810160200161044f8261045b61043f565b80546020858701810191909152909301928101610487565b86955061045b9693506020925061044f94915060ff191682840152151560051b820101929361043f565b80fd5b3461023c57600036600319011261023c57602060405160018152f35b3461023c57602036600319011261023c5761045b6105226004356124e5565b6040519182916020835260208301906103c9565b3461023c57600036600319011261023c57602060405160028152f35b3461023c57600036600319011261023c576020600454604051908152f35b60405190604082018281106001600160401b0382111761038057604052565b6040519060c082018281106001600160401b0382111761038057604052565b6001600160401b0381116103805760051b60200190565b81601f8201121561023c578035916105dc836105ae565b926105ea6040519485610385565b808452602092838086019260051b82010192831161023c578301905b828210610614575050505090565b81358152908301908301610606565b6001600160401b03811161038057601f01601f191660200190565b92919261064a82610623565b916106586040519384610385565b82948184528183011161023c578281602093846000960137010152565b9080601f8301121561023c578160206103ff9335910161063e565b3461023c5760a036600319011261023c57600480356106ae8161022b565b6024356106ba8161022b565b6001600160401b039060443582811161023c576106da90369086016105c5565b9060643583811161023c576106f290369087016105c5565b9260843590811161023c5761070a9036908701610675565b936001600160a01b03808216903382141580610799575b61076c57831615610754571561073d5761073b95506118a1565b005b604051626a0d4560e21b8152600081880152602490fd5b604051632bfa23e760e11b8152600081890152602490fd5b6040805163711bec9160e11b815233818b019081526001600160a01b038616602082015290918291010390fd5b50600082815260016020908152604080832033845290915290205460ff1615610721565b3461023c57600036600319011261023c57600c546040516001600160a01b039091168152602090f35b3461023c57600036600319011261023c57602060405160038152f35b3461023c57602036600319011261023c5760043561081e6115a5565b60009060018252600960205261083b60ff6040842054161561268e565b6001825260036020526108526040832054156126da565b61085d81151561271f565b60085461087c906001600160a01b031682610876611aca565b91612382565b61088581600a55565b600160005260096020526108c17f92e85d02570a8092d09a6e3a57665bc3815a2699a4074001bf1ccabf660f5a365b805460ff19166001179055565b6008546001600160a01b0316907fc53a9715662d7ec2ce49f727e6848218feaa7e34a038a690b7ba30eddd57f8678380a380f35b3461023c57600036600319011261023c576020600a54604051908152f35b3461023c57600036600319011261023c57602060405160008152f35b90815180825260208080930193019160005b82811061094f575050505090565b835185529381019392810192600101610941565b9060206103ff92818152019061092f565b3461023c57604036600319011261023c576004356001600160401b0380821161023c573660238301121561023c5781600401356109b0816105ae565b926109be6040519485610385565b81845260209160248386019160051b8301019136831161023c57602401905b828210610a16578560243586811161023c5761045b91610a04610a0a9236906004016105c5565b9061169c565b60405191829182610963565b8380918335610a248161022b565b8152019101906109dd565b3461023c57602036600319011261023c576020610a59600435600052600360205260406000205490565b1515604051908152f35b602060031982011261023c57600435906001600160401b03821161023c578060238301121561023c578160246103ff9360040135910161063e565b3461023c57610aac36610a63565b610ab46115a5565b805115610b915780516001600160401b03811161038057610adf81610ada60105461031d565b611ecc565b602080601f8311600114610b1c57508192600092610b11575b5050600019600383901b1c191660019190911b17601055005b015190503880610af8565b90601f19831693610b3d6010600052600080516020612e9183398151915290565b926000905b868210610b795750508360019510610b60575b505050811b01601055005b015160001960f88460031b161c19169055388080610b55565b80600185968294968601518155019501930190610b42565b60405162461bcd60e51b815260206004820152601660248201527553796d626f6c2063616e6e6f7420626520656d70747960501b6044820152606490fd5b3461023c57600036600319011261023c57600d546040516001600160a01b039091168152602090f35b3461023c57606036600319011261023c576020610c27600435610c1a8161022b565b60443590602435906128a8565b604051908152f35b3461023c576000806003193601126104e457610c496115a5565b600580546001600160a01b0319811690915581906001600160a01b03167f8be0079c531659141344cd1fd0a4f28419497f9722a3daafe3b4186f6b6457e08280a380f35b3461023c57600036600319011261023c576005546040516001600160a01b039091168152602090f35b3461023c576000806003193601126104e4576040519080601054610cd98161031d565b808552916001918083169081156104ba5750600114610d025761045b8561044f81870382610385565b925060108352600080516020612e918339815191525b828410610d3357505050810160200161044f8261045b61043f565b80546020858701810191909152909301928101610d18565b3461023c57604036600319011261023c57600435602435610d6b8161022b565b610d736115a5565b600091600283526009602052610d9060ff6040852054161561268e565b8015610e4e576001600160a01b03821691610df490610db0841515612763565b60026000526003602052610de57fc3a24b0501bd2c13a7e57f2db4369ec4c223447539fc0724a9d55ac4a06ebd4d54156127a3565b82610dee611aca565b916123c2565b60026000526009602052610e277f6cde3cea4b3a3fb2488b2808bae7556f4a405e50f65e1794383bc026131b13c36108b4565b7f96d71a0c03c06cdc81229ab0993b00dca24c87dc95e0dc13ded5a1ec0c4252618380a380f35b60405162461bcd60e51b815260206004820152600e60248201526d125b9d985b1a5908185b5bdd5b9d60921b6044820152606490fd5b3461023c57604036600319011261023c57600435610ea18161022b565b602435908115159081830361023c576001600160a01b038116928315610f2c57610eed610efe9233600052600160205260406000209060018060a01b0316600052602052604060002090565b9060ff801983541691151516179055565b6040519081527f17307eab39ab6107e8899845ad3d59bd9653f200f220920489ca2b5937696c3160203392a3005b60405162ced3e160e81b815260006004820152602490fd5b3461023c57610f5236610a63565b610f5a6115a5565b610f66815115156127ef565b600b54610f7a610f7582611659565b600b55565b610fa7610fa2610f9e610f97846000526009602052604060002090565b5460ff1690565b1590565b61268e565b600554610fc6906001600160a01b031682610fc0611aca565b91612400565b600e54610fe990610fdd906001600160a01b031681565b6001600160a01b031690565b6005546001600160a01b03169290803b1561023c578160009184836110259760405198899586948593636620ca3d60e11b855260048501612829565b03925af19283156110bf5761045b936110a6575b506110516108b4836000526009602052604060002090565b6005546040516001600160a01b039091169183917fc8106359c4b5a0021ebb0e829775b183e6642e6efa542778545141f4cf91ddf891819061109390826103ee565b0390a36040519081529081906020820190565b806110b36110b99261036d565b80610312565b38611039565b611abe565b3461023c57602036600319011261023c576020610c27600435600052600360205260406000205490565b3461023c57606036600319011261023c5760043561110b8161022b565b602435906111188261022b565b6044356111248161022b565b600080516020612eb183398151915254926001600160401b0360ff8560401c161594168015908161122f575b6001149081611225575b15908161121c575b5061120a57600080516020612eb1833981519152805467ffffffffffffffff1916600117905561119692846111e557612157565b61119c57005b600080516020612eb1833981519152805460ff60401b19169055604051600181527fc7f505b2f371ae2175ee4913f4499e1f2633a7b5936321eed1cdaeb6115181d290602090a1005b600080516020612eb1833981519152805460ff60401b1916600160401b179055612157565b60405163f92ee8a960e01b8152600490fd5b90501538611162565b303b15915061115a565b859150611150565b3461023c57600036600319011261023c576020600b54604051908152f35b604090600319011261023c5760043561126d8161022b565b906024356103ff8161022b565b3461023c5761129b61128b36611255565b6112969291926115a5565b6115d1565b600c80546001600160a01b0319166001600160a01b0392909216919091179055005b3461023c57600036600319011261023c57600e546040516001600160a01b039091168152602090f35b3461023c576000806003193601126104e457600c5461130f90610fdd906001600160a01b031681565b6040516301a4e6dd60e51b8152306004820152908290829060249082905afa9081156110bf5761137791839182916113be575b50600d5461135a90610fdd906001600160a01b031681565b604051808095819463f8589a0f60e01b83523090600484016125e2565b03915afa9081156110bf578261045b939261139b575b5050604051918291826103ee565b6113b792503d8091833e6113af8183610385565b8101906124c0565b388061138d565b6113da91503d8084833e6113d28183610385565b810190611df1565b38611342565b3461023c57602060ff61141e6113f536611255565b6001600160a01b0391821660009081526001865260408082209290931681526020919091522090565b54166040519015158152f35b3461023c5760a036600319011261023c576004356114478161022b565b6024356114538161022b565b6084356001600160401b03811161023c57611472903690600401610675565b906001600160a01b0383811690338214158061152b575b611504578216156114eb57156114d35761073b926114cb6064356044359160405192600184526020840152604083019160018352606084015260808301604052565b9290916118a1565b604051626a0d4560e21b815260006004820152602490fd5b604051632bfa23e760e11b815260006004820152602490fd5b60405163711bec9160e11b81523360048201526001600160a01b0386166024820152604490fd5b50600082815260016020908152604080832033845290915290205460ff1615611489565b3461023c57602036600319011261023c5760043561156c8161022b565b6115746115a5565b6001600160a01b0381161561158c5761073b906115d1565b604051631e4fbdf760e01b815260006004820152602490fd5b6005546001600160a01b031633036115b957565b60405163118cdaa760e01b8152336004820152602490fd5b600580546001600160a01b039283166001600160a01b0319821681179092559091167f8be0079c531659141344cd1fd0a4f28419497f9722a3daafe3b4186f6b6457e0600080a3565b6000918252602082815260408084206001600160a01b03909316845291905290205490565b5490565b634e487b7160e01b600052601160045260246000fd5b60001981146116685760010190565b611643565b634e487b7160e01b600052603260045260246000fd5b80518210156116975760209160051b010190565b61166d565b919091805183518082036117255750508051906116b8826105ae565b916116c66040519384610385565b8083526116d5601f19916105ae565b0190602091368385013760005b815181101561171d57806117086117189260051b85808287010151918a0101519061161a565b6117128287611683565b52611659565b6116e2565b509193505050565b604051635b05999160e01b815260048101919091526024810191909152604490fd5b909192611755848484612a19565b60005b83518110156118515761177f906001806117728388611683565b5114611784575b50611659565b611758565b6001600160a01b0385161580159060009061184b57506117ae6117a78489611683565b518761161a565b905b6117bb575b50611779565b6001600160a01b03861660009081526011602052604090206117f0906117e1858a611683565b51600052602052604060002090565b91818354918215928315611828575b505050156117b55761182191611813610570565b9142835260208301526129cf565b38806117b5565b61183e919293506118389061284d565b85612871565b50015414158138806117ff565b906117b0565b50909290916001600160a01b03841661186b575b50505050565b80516001036118925790602080611889959301519101519133611b1d565b38808080611865565b61189c9333611d2e565b611889565b91949092936118b285878686612afd565b60005b86518110156119f2576118db906001806118cf838b611683565b51146118e05750611659565b6118b5565b6001600160a01b0386811615801591906000906119ec575061190c611905858d611683565b518961161a565b905b8916151590848c6000846000146119e357506119349161192d91611683565b518b61161a565b925b61196c575b506119465750611779565b6001600160a01b03881660009081526011602052604090206117f0906117e1858d611683565b6119968c6117e1876119908d60018060a01b03166000526011602052604060002090565b92611683565b908154818682159283156119c6575b5050506119b3575b5061193b565b6119bf91611813610570565b38806119ad565b6119d6919293506118389061284d565b50015414158186386119a5565b91505092611936565b9061190e565b5090949390926001600160a01b038116611a0e575b5050505050565b8451600103611a3457602080611a2a9601519201519233611c17565b3880808080611a07565b611a4094919233611d63565b611a2a565b9081602091031261023c57516103ff81610292565b909260a0926103ff9594600180861b03168352600060208401526040830152606082015281608082015201906103c9565b91926103ff95949160a094600180871b0380921685521660208401526040830152606082015281608082015201906103c9565b6040513d6000823e3d90fd5b60405190602082018281106001600160401b038211176103805760405260008252565b3d15611b18573d90611afe82610623565b91611b0c6040519384610385565b82523d6000602084013e565b606090565b9293919093843b611b2f575050505050565b602091611b52604051948593849363f23a6e6160e01b9889865260048601611a5a565b038160006001600160a01b0388165af160009181611be7575b50611baa5782611b79611aed565b8051919082611ba357604051632bfa23e760e11b81526001600160a01b0383166004820152602490fd5b9050602001fd5b6001600160e01b03191603611bc457503880808080611a07565b604051632bfa23e760e11b81526001600160a01b03919091166004820152602490fd5b611c0991925060203d8111611c10575b611c018183610385565b810190611a45565b9038611b6b565b503d611bf7565b939290949194853b611c2c575b505050505050565b611c4f602093604051958694859463f23a6e6160e01b998a875260048701611a8b565b038160006001600160a01b0388165af160009181611c91575b50611c765782611b79611aed565b6001600160e01b03191603611bc45750388080808080611c24565b611caa91925060203d8111611c1057611c018183610385565b9038611c68565b92611ce06103ff9593611cee9360018060a01b031686526000602087015260a0604087015260a086019061092f565b90848203606086015261092f565b9160808184039101526103c9565b93906103ff9593611ce091611cee9460018060a01b03809216885216602087015260a0604087015260a086019061092f565b9293919093843b611d40575050505050565b602091611b52604051948593849363bc197c8160e01b9889865260048601611cb1565b939290949194853b611d7757505050505050565b611c4f602093604051958694859463bc197c8160e01b998a875260048701611cfc565b9081602091031261023c57516103ff8161022b565b81601f8201121561023c578051611dc581610623565b92611dd36040519485610385565b8184526020828401011161023c576103ff91602080850191016103a6565b9060208282031261023c5781516001600160401b039283821161023c57019060c08282031261023c57611e2261058f565b92825181811161023c5782611e38918501611daf565b8452602083015181811161023c5782611e52918501611daf565b6020850152604083015181811161023c5782611e6f918501611daf565b6040850152606083015181811161023c5782611e8c918501611daf565b6060850152608083015181811161023c5782611ea9918501611daf565b608085015260a083015190811161023c57611ec49201611daf565b60a082015290565b601f8111611ed8575050565b60009060108252600080516020612e91833981519152906020601f850160051c83019410611f21575b601f0160051c01915b828110611f1657505050565b818155600101611f0a565b9092508290611f01565b601f8111611f37575050565b600090600f82527f8d1108e10bcb7c27dddfc02ed9d693a074039d026cf4ea4240b40f7d581ac802906020601f850160051c83019410611f92575b601f0160051c01915b828110611f8757505050565b818155600101611f7b565b9092508290611f72565b9081516001600160401b03811161038057611fc181611fbc600f5461031d565b611f2b565b602080601f8311600114611ffd5750819293600092611ff2575b50508160011b916000199060031b1c191617600f55565b015190503880611fdb565b90601f19831694612030600f6000527f8d1108e10bcb7c27dddfc02ed9d693a074039d026cf4ea4240b40f7d581ac80290565b926000905b87821061206d575050836001959610612054575b505050811b01600f55565b015160001960f88460031b161c19169055388080612049565b80600185968294968601518155019501930190612035565b9081516001600160401b038111610380576120a581610ada60105461031d565b602080601f83116001146120e157508192936000926120d6575b50508160011b916000199060031b1c191617601055565b0151905038806120bf565b90601f198316946121026010600052600080516020612e9183398151915290565b926000905b87821061213f575050836001959610612126575b505050811b01601055565b015160001960f88460031b161c1916905538808061211b565b80600185968294968601518155019501930190612107565b9190612162836115d1565b600880546001600160a01b0319166001600160a01b0383161790556121876000600755565b600d80546001600160a01b0319166001600160a01b038416179055604051630222e55560e21b81526001600160a01b03926020919084168282600481845afa9081156110bf576122008492600494600091612365575b5060018060a01b03166bffffffffffffffffffffffff60a01b600c541617600c55565b604051633b8c8d3760e11b815292839182905afa9081156110bf5761224b92600092612338575b505060018060a01b03166bffffffffffffffffffffffff60a01b600e541617600e55565b600c5461226290610fdd906001600160a01b031681565b6040516301a4e6dd60e51b81526001600160a01b03851660048201529190600090839060249082905afa9182156110bf5783926122b29160009161231f575b506122ac8151611f9c565b51612085565b6122c36122bd611aca565b8561243f565b6000805260096020526122f57fec8156718a8372b1db44bb411437d0870f3e3790d4a08526d024ce1b0b668f6b6108b4565b1691167f341d6e731c47328fba4d0999e91ed7c4a5706e8791a0fd054e201a971df02dfe600080a3565b612332913d8091833e6113d28183610385565b386122a1565b6123579250803d1061235e575b61234f8183610385565b810190611d9a565b3880612227565b503d612345565b61237c9150843d861161235e5761234f8183610385565b386121dd565b91906001600160a01b038316156114eb576123c092604051906001825260016020830152604082019260018452606083015260808201604052611747565b565b91906001600160a01b038316156114eb576123c092604051906001825260026020830152604082019260018452606083015260808201604052611747565b9091906001600160a01b038116156114eb576123c092604051906001825260208201526040810191600183526001606083015260808201604052611747565b906001600160a01b038216156114eb576123c09160405160018152600060208201526040810191600183526001606083015260808201604052611747565b1561248457565b60405162461bcd60e51b8152602060048201526014602482015273151bdad95b88191bd95cc81b9bdd08195e1a5cdd60621b6044820152606490fd5b9060208282031261023c5781516001600160401b03811161023c576103ff9201611daf565b6125046124ff610f97836000526009602052604060002090565b61247d565b600381101561258c57600c546125639160009161252b90610fdd906001600160a01b031681565b6005546040516305b1feb160e11b81526001600160a01b03909116600482015260248101929092529092839190829081906044820190565b03915afa9081156110bf57600091612579575090565b6103ff913d8091833e6113af8183610385565b600e54612563916000916125aa90610fdd906001600160a01b031681565b600554604051637ab269dd60e01b81526001600160a01b03909116600482015260248101929092529092839190829081906044820190565b9291602061267b6123c093604087528660a061266961265561264261262e612617875160c060408901526101008801906103c9565b89880151603f1997606089828503019101526103c9565b60408701518d8203870160808f01526103c9565b60608601518c82038601858e01526103c9565b6080850151848c83030160c08d01526103c9565b920151908883030160e08901526103c9565b6001600160a01b03909216940193909352565b1561269557565b60405162461bcd60e51b815260206004820152601860248201527f546f6b656e20494420616c7265616479206372656174656400000000000000006044820152606490fd5b156126e157565b60405162461bcd60e51b815260206004820152601660248201527514da185c995cc8185b1c9958591e4818dc99585d195960521b6044820152606490fd5b1561272657565b60405162461bcd60e51b8152602060048201526015602482015274125b9d985b1a59081cda185c995cc8185b5bdd5b9d605a1b6044820152606490fd5b1561276a57565b60405162461bcd60e51b8152602060048201526011602482015270125b9d985b1a59081c9958da5c1a595b9d607a1b6044820152606490fd5b156127aa57565b60405162461bcd60e51b815260206004820152601c60248201527f4275796f757420746f6b656e20616c72656164792063726561746564000000006044820152606490fd5b156127f657565b60405162461bcd60e51b815260206004820152600b60248201526a496e76616c69642055524960a81b6044820152606490fd5b6103ff939260609260018060a01b03168252602082015281604082015201906103c9565b60001981019190821161166857565b80541561169757600052602060002090600090565b80548210156116975760005260206000209060011b0190600090565b906001820180921161166857565b9190820180921161166857565b6001600160a01b03811660009081526011602052604090206128d39083600052602052604060002090565b91825491821561298b5750506128e89061284d565b916128f38383612871565b505481101561297e576129058261285c565b5054811061297657600092905b83821161292d57505060019161292791612871565b50015490565b909261294a61294461293f838761289b565b61288d565b60011c90565b90826129568386612871565b5054116129665750925b90612912565b93506129719061284d565b612960565b505050600090565b5060019161292791612871565b90939092506000915042116129c957506129b261163f926000526000602052604060002090565b9060018060a01b0316600052602052604060002090565b91505090565b8054600160401b811015610380576129ec91600182018155612871565b919091612a03576020816001925184550151910155565b634e487b7160e01b600052600060045260246000fd5b9192612a26848385612bc4565b600090815b8351831015612a8357612a77612a7d91612a458589611683565b5190612a65612a548789611683565b516000526003602052604060002090565b612a7083825461289b565b905561289b565b92611659565b91612a2b565b612a9b91949250612a969060045461289b565b600455565b6001600160a01b031615612aae57509050565b6000805b8251821015612aeb57612ae590612ac98387611683565b5190612ad8612a548587611683565b8281540390550191611659565b90612ab2565b9150506123c091925060045403600455565b90939293612b0d85848385612ce4565b6001600160a01b0391821615612b4a575b1615612b2957509050565b6000805b8251821015612aeb57612b4490612ac98387611683565b90612b2d565b92600091825b8451841015612b8557612b79612b7f91612b6a868a611683565b5190612a65612a54888a611683565b93611659565b92612b50565b612b9a919350612a969095929560045461289b565b612b1e565b9091612bb66103ff9360408452604084019061092f565b91602081840391015261092f565b919091825182519081810361172557505060005b8351811015612c4457600581901b8481016020908101519185010151612c12929184906001600160a01b038216612c17575b505050611659565b612bd8565b612c3a916129b2612c32926000526000602052604060002090565b91825461289b565b9055388381612c0a565b50916001815114600014612ca5576020908101519181015160408051938452918301526001600160a01b039092169160009133917fc3d58168c5ae7397731d063d5bbf3d657854427343f4c083240f7aacaa2d0f629190819081015b0390a4565b7f4a39dc06d4c0dbc64b70af90fd698a233a518aa5d07e595d983b8c0526c8f7fb612ca06000939460405191829160018060a01b031696339583612b9f565b939291805183519081810361172557505060005b8151811015612deb57600581901b82810160209081015191860101516001600160a01b0392918590898516612d64575b612d3a948216612d3f57505050611659565b612cf8565b612d5a916129b2612c32926000526000602052604060002090565b9055388481612c0a565b9192939050612d81896129b2846000526000602052604060002090565b54838110612db45791869184612d3a96959403612dac8c6129b2856000526000602052604060002090565b559450612d28565b6040516303dee4c560e01b81526001600160a01b038b16600482015260248101919091526044810184905260648101839052608490fd5b508051939493919291600103612e4d576020908101519181015160408051938452918301526001600160a01b03928316939092169133917fc3d58168c5ae7397731d063d5bbf3d657854427343f4c083240f7aacaa2d0f629181908101612ca0565b6040516001600160a01b03938416949093169233927f4a39dc06d4c0dbc64b70af90fd698a233a518aa5d07e595d983b8c0526c8f7fb928291612ca09183612b9f56fe1b6847dc741a1b0cd08d278845f9d819d87b734759afb55fe2de5cb82a9ae672f0c57e16840df040f15088dc2f81fe391c3923bec73e23a9662efc9c229c6a00a2646970667358221220c5cb7932a843777ff05a783e3db51a13e5f10e823a45577c44acc13b2b2ae61564736f6c63430008140033","opcodes":"PUSH1 0x80 CALLVALUE PUSH3 0x1E9 JUMPI PUSH1 0x20 DUP2 ADD SWAP1 PUSH1 0x1 PUSH1 0x1 PUSH1 0x40 SHL SUB SWAP1 DUP2 DUP4 GT DUP2 DUP5 LT OR PUSH3 0x1D3 JUMPI PUSH1 0x40 SWAP3 DUP4 MSTORE PUSH1 0x0 DUP1 SWAP2 MSTORE PUSH1 0x2 SLOAD PUSH1 0x1 SWAP1 DUP2 DUP2 DUP2 SHR SWAP2 AND DUP1 ISZERO PUSH3 0x1C8 JUMPI JUMPDEST PUSH1 0x20 DUP3 LT EQ PUSH3 0x1B4 JUMPI PUSH1 0x1F DUP2 GT PUSH3 0x166 JUMPI JUMPDEST POP DUP2 PUSH1 0x2 SSTORE CALLER ISZERO PUSH3 0x14E JUMPI PUSH1 0x5 DUP1 SLOAD CALLER PUSH1 0x1 PUSH1 0x1 PUSH1 0xA0 SHL SUB NOT DUP3 AND DUP2 OR SWAP1 SWAP3 SSTORE DUP6 MLOAD SWAP4 PUSH1 0x1 PUSH1 0x1 PUSH1 0xA0 SHL SUB SWAP1 SWAP2 AND SWAP1 PUSH32 0x8BE0079C531659141344CD1FD0A4F28419497F9722A3DAAFE3B4186F6B6457E0 SWAP1 DUP1 LOG3 PUSH1 0x6 SSTORE PUSH1 0x3 PUSH1 0xB SSTORE PUSH32 0xF0C57E16840DF040F15088DC2F81FE391C3923BEC73E23A9662EFC9C229C6A00 SWAP2 DUP3 SLOAD SWAP2 PUSH1 0xFF DUP4 DUP7 SHR AND PUSH3 0x13F JUMPI POP DUP1 DUP1 DUP4 AND SUB PUSH3 0xFA JUMPI JUMPDEST DUP4 MLOAD PUSH2 0x2F06 SWAP1 DUP2 PUSH3 0x1EF DUP3 CODECOPY RETURN JUMPDEST PUSH1 0x1 PUSH1 0x1 PUSH1 0x40 SHL SUB NOT SWAP1 SWAP2 AND DUP2 OR SWAP1 SWAP2 SSTORE DUP2 MLOAD SWAP1 DUP2 MSTORE PUSH32 0xC7F505B2F371AE2175EE4913F4499E1F2633A7B5936321EED1CDAEB6115181D2 SWAP1 PUSH1 0x20 SWAP1 LOG1 CODESIZE DUP1 DUP1 PUSH3 0xEB JUMP JUMPDEST PUSH4 0xF92EE8A9 PUSH1 0xE0 SHL DUP2 MSTORE PUSH1 0x4 SWAP1 REVERT JUMPDEST DUP4 MLOAD PUSH4 0x1E4FBDF7 PUSH1 0xE0 SHL DUP2 MSTORE PUSH1 0x4 DUP2 ADD DUP4 SWAP1 MSTORE PUSH1 0x24 SWAP1 REVERT JUMPDEST PUSH1 0x2 DUP4 MSTORE PUSH1 0x1F ADD PUSH1 0x5 SHR PUSH32 0x405787FA12A823E0F2B7631CC41B3BA8828B3321CA811111FA75CD3AA3BB5ACE SWAP1 DUP2 ADD SWAP1 DUP3 SWAP1 JUMPDEST DUP3 DUP2 LT PUSH3 0x1A8 JUMPI POP POP PUSH3 0x53 JUMP JUMPDEST DUP5 DUP2 SSTORE ADD DUP3 SWAP1 PUSH3 0x198 JUMP JUMPDEST PUSH4 0x4E487B71 PUSH1 0xE0 SHL DUP4 MSTORE PUSH1 0x22 PUSH1 0x4 MSTORE PUSH1 0x24 DUP4 REVERT JUMPDEST SWAP1 PUSH1 0x7F AND SWAP1 PUSH3 0x3F JUMP JUMPDEST PUSH4 0x4E487B71 PUSH1 0xE0 SHL PUSH1 0x0 MSTORE PUSH1 0x41 PUSH1 0x4 MSTORE PUSH1 0x24 PUSH1 0x0 REVERT JUMPDEST PUSH1 0x0 DUP1 REVERT INVALID PUSH1 0x80 PUSH1 0x40 MSTORE PUSH1 0x4 CALLDATASIZE LT ISZERO PUSH2 0x12 JUMPI PUSH1 0x0 DUP1 REVERT JUMPDEST PUSH1 0x0 CALLDATALOAD PUSH1 0xE0 SHR DUP1 PUSH3 0xFDD58E EQ PUSH2 0x226 JUMPI DUP1 PUSH4 0x1FFC9A7 EQ PUSH2 0x221 JUMPI DUP1 PUSH4 0x6FDDE03 EQ PUSH2 0x21C JUMPI DUP1 PUSH4 0xC8A2F3A EQ PUSH2 0x217 JUMPI DUP1 PUSH4 0xE89341C EQ PUSH2 0x212 JUMPI DUP1 PUSH4 0x12CF3BC1 EQ PUSH2 0x20D JUMPI DUP1 PUSH4 0x18160DDD EQ PUSH2 0x208 JUMPI DUP1 PUSH4 0x2EB2C2D6 EQ PUSH2 0x203 JUMPI DUP1 PUSH4 0x3684D100 EQ PUSH2 0x1FE JUMPI DUP1 PUSH4 0x3704934E EQ PUSH2 0x1F9 JUMPI DUP1 PUSH4 0x39FA62DF EQ PUSH2 0x1F4 JUMPI DUP1 PUSH4 0x3A98EF39 EQ PUSH2 0x1EF JUMPI DUP1 PUSH4 0x44E5B243 EQ PUSH2 0x1EA JUMPI DUP1 PUSH4 0x4E1273F4 EQ PUSH2 0x1E5 JUMPI DUP1 PUSH4 0x4F558E79 EQ PUSH2 0x1E0 JUMPI DUP1 PUSH4 0x537F5312 EQ PUSH2 0x1DB JUMPI DUP1 PUSH4 0x5C42E667 EQ PUSH2 0x1D6 JUMPI DUP1 PUSH4 0x626DA068 EQ PUSH2 0x1D1 JUMPI DUP1 PUSH4 0x715018A6 EQ PUSH2 0x1CC JUMPI DUP1 PUSH4 0x8DA5CB5B EQ PUSH2 0x1C7 JUMPI DUP1 PUSH4 0x95D89B41 EQ PUSH2 0x1C2 JUMPI DUP1 PUSH4 0x9D3BC4BD EQ PUSH2 0x1BD JUMPI DUP1 PUSH4 0xA22CB465 EQ PUSH2 0x1B8 JUMPI DUP1 PUSH4 0xBCB7130D EQ PUSH2 0x1B3 JUMPI DUP1 PUSH4 0xBD85B039 EQ PUSH2 0x1AE JUMPI DUP1 PUSH4 0xC0C53B8B EQ PUSH2 0x1A9 JUMPI DUP1 PUSH4 0xD44E1355 EQ PUSH2 0x1A4 JUMPI DUP1 PUSH4 0xD70A0ABC EQ PUSH2 0x19F JUMPI DUP1 PUSH4 0xDBD15D53 EQ PUSH2 0x19A JUMPI DUP1 PUSH4 0xE8A3D485 EQ PUSH2 0x195 JUMPI DUP1 PUSH4 0xE985E9C5 EQ PUSH2 0x190 JUMPI DUP1 PUSH4 0xF242432A EQ PUSH2 0x18B JUMPI PUSH4 0xF2FDE38B EQ PUSH2 0x186 JUMPI PUSH1 0x0 DUP1 REVERT JUMPDEST PUSH2 0x154F JUMP JUMPDEST PUSH2 0x142A JUMP JUMPDEST PUSH2 0x13E0 JUMP JUMPDEST PUSH2 0x12E6 JUMP JUMPDEST PUSH2 0x12BD JUMP JUMPDEST PUSH2 0x127A JUMP JUMPDEST PUSH2 0x1237 JUMP JUMPDEST PUSH2 0x10EE JUMP JUMPDEST PUSH2 0x10C4 JUMP JUMPDEST PUSH2 0xF44 JUMP JUMPDEST PUSH2 0xE84 JUMP JUMPDEST PUSH2 0xD4B JUMP JUMPDEST PUSH2 0xCB6 JUMP JUMPDEST PUSH2 0xC8D JUMP JUMPDEST PUSH2 0xC2F JUMP JUMPDEST PUSH2 0xBF8 JUMP JUMPDEST PUSH2 0xBCF JUMP JUMPDEST PUSH2 0xA9E JUMP JUMPDEST PUSH2 0xA2F JUMP JUMPDEST PUSH2 0x974 JUMP JUMPDEST PUSH2 0x913 JUMP JUMPDEST PUSH2 0x8F5 JUMP JUMPDEST PUSH2 0x802 JUMP JUMPDEST PUSH2 0x7E6 JUMP JUMPDEST PUSH2 0x7BD JUMP JUMPDEST PUSH2 0x690 JUMP JUMPDEST PUSH2 0x552 JUMP JUMPDEST PUSH2 0x536 JUMP JUMPDEST PUSH2 0x503 JUMP JUMPDEST PUSH2 0x4E7 JUMP JUMPDEST PUSH2 0x402 JUMP JUMPDEST PUSH2 0x2A4 JUMP JUMPDEST PUSH2 0x241 JUMP JUMPDEST PUSH1 0x1 PUSH1 0x1 PUSH1 0xA0 SHL SUB DUP2 AND SUB PUSH2 0x23C JUMPI JUMP JUMPDEST PUSH1 0x0 DUP1 REVERT JUMPDEST CALLVALUE PUSH2 0x23C JUMPI PUSH1 0x40 CALLDATASIZE PUSH1 0x3 NOT ADD SLT PUSH2 0x23C JUMPI PUSH1 0x20 PUSH2 0x289 PUSH1 0x4 CALLDATALOAD PUSH2 0x263 DUP2 PUSH2 0x22B JUMP JUMPDEST PUSH1 0x24 CALLDATALOAD PUSH1 0x0 MSTORE PUSH1 0x0 DUP4 MSTORE PUSH1 0x40 PUSH1 0x0 KECCAK256 SWAP1 PUSH1 0x1 DUP1 PUSH1 0xA0 SHL SUB AND PUSH1 0x0 MSTORE PUSH1 0x20 MSTORE PUSH1 0x40 PUSH1 0x0 KECCAK256 SWAP1 JUMP JUMPDEST SLOAD PUSH1 0x40 MLOAD SWAP1 DUP2 MSTORE RETURN JUMPDEST PUSH1 0x1 PUSH1 0x1 PUSH1 0xE0 SHL SUB NOT DUP2 AND SUB PUSH2 0x23C JUMPI JUMP JUMPDEST CALLVALUE PUSH2 0x23C JUMPI PUSH1 0x20 CALLDATASIZE PUSH1 0x3 NOT ADD SLT PUSH2 0x23C JUMPI PUSH1 0x20 PUSH1 0x4 CALLDATALOAD PUSH2 0x2C3 DUP2 PUSH2 0x292 JUMP JUMPDEST PUSH4 0xFFFFFFFF PUSH1 0xE0 SHL AND PUSH4 0x6CDB3D13 PUSH1 0xE1 SHL DUP2 EQ SWAP1 DUP2 ISZERO PUSH2 0x301 JUMPI JUMPDEST DUP2 ISZERO PUSH2 0x2F0 JUMPI JUMPDEST POP PUSH1 0x40 MLOAD SWAP1 ISZERO ISZERO DUP2 MSTORE RETURN JUMPDEST PUSH4 0x1FFC9A7 PUSH1 0xE0 SHL EQ SWAP1 POP CODESIZE PUSH2 0x2E5 JUMP JUMPDEST PUSH4 0x3A24D07 PUSH1 0xE2 SHL DUP2 EQ SWAP2 POP PUSH2 0x2DE JUMP JUMPDEST PUSH1 0x0 SWAP2 SUB SLT PUSH2 0x23C JUMPI JUMP JUMPDEST SWAP1 PUSH1 0x1 DUP3 DUP2 SHR SWAP3 AND DUP1 ISZERO PUSH2 0x34D JUMPI JUMPDEST PUSH1 0x20 DUP4 LT EQ PUSH2 0x337 JUMPI JUMP JUMPDEST PUSH4 0x4E487B71 PUSH1 0xE0 SHL PUSH1 0x0 MSTORE PUSH1 0x22 PUSH1 0x4 MSTORE PUSH1 0x24 PUSH1 0x0 REVERT JUMPDEST SWAP2 PUSH1 0x7F AND SWAP2 PUSH2 0x32C JUMP JUMPDEST PUSH4 0x4E487B71 PUSH1 0xE0 SHL PUSH1 0x0 MSTORE PUSH1 0x41 PUSH1 0x4 MSTORE PUSH1 0x24 PUSH1 0x0 REVERT JUMPDEST PUSH1 0x1 PUSH1 0x1 PUSH1 0x40 SHL SUB DUP2 GT PUSH2 0x380 JUMPI PUSH1 0x40 MSTORE JUMP JUMPDEST PUSH2 0x357 JUMP JUMPDEST SWAP1 PUSH1 0x1F DUP1 NOT SWAP2 ADD AND DUP2 ADD SWAP1 DUP2 LT PUSH1 0x1 PUSH1 0x1 PUSH1 0x40 SHL SUB DUP3 GT OR PUSH2 0x380 JUMPI PUSH1 0x40 MSTORE JUMP JUMPDEST PUSH1 0x0 JUMPDEST DUP4 DUP2 LT PUSH2 0x3B9 JUMPI POP POP PUSH1 0x0 SWAP2 ADD MSTORE JUMP JUMPDEST DUP2 DUP2 ADD MLOAD DUP4 DUP3 ADD MSTORE PUSH1 0x20 ADD PUSH2 0x3A9 JUMP JUMPDEST SWAP1 PUSH1 0x20 SWAP2 PUSH2 0x3E2 DUP2 MLOAD DUP1 SWAP3 DUP2 DUP6 MSTORE DUP6 DUP1 DUP7 ADD SWAP2 ADD PUSH2 0x3A6 JUMP JUMPDEST PUSH1 0x1F ADD PUSH1 0x1F NOT AND ADD ADD SWAP1 JUMP JUMPDEST SWAP1 PUSH1 0x20 PUSH2 0x3FF SWAP3 DUP2 DUP2 MSTORE ADD SWAP1 PUSH2 0x3C9 JUMP JUMPDEST SWAP1 JUMP JUMPDEST CALLVALUE PUSH2 0x23C JUMPI PUSH1 0x0 DUP1 PUSH1 0x3 NOT CALLDATASIZE ADD SLT PUSH2 0x4E4 JUMPI PUSH1 0x40 MLOAD SWAP1 DUP1 PUSH1 0xF SLOAD PUSH2 0x425 DUP2 PUSH2 0x31D JUMP JUMPDEST DUP1 DUP6 MSTORE SWAP2 PUSH1 0x1 SWAP2 DUP1 DUP4 AND SWAP1 DUP2 ISZERO PUSH2 0x4BA JUMPI POP PUSH1 0x1 EQ PUSH2 0x45F JUMPI JUMPDEST PUSH2 0x45B DUP6 PUSH2 0x44F DUP2 DUP8 SUB DUP3 PUSH2 0x385 JUMP JUMPDEST PUSH1 0x40 MLOAD SWAP2 DUP3 SWAP2 DUP3 PUSH2 0x3EE JUMP JUMPDEST SUB SWAP1 RETURN JUMPDEST SWAP3 POP PUSH1 0xF DUP4 MSTORE PUSH32 0x8D1108E10BCB7C27DDDFC02ED9D693A074039D026CF4EA4240B40F7D581AC802 JUMPDEST DUP3 DUP5 LT PUSH2 0x4A2 JUMPI POP POP POP DUP2 ADD PUSH1 0x20 ADD PUSH2 0x44F DUP3 PUSH2 0x45B PUSH2 0x43F JUMP JUMPDEST DUP1 SLOAD PUSH1 0x20 DUP6 DUP8 ADD DUP2 ADD SWAP2 SWAP1 SWAP2 MSTORE SWAP1 SWAP4 ADD SWAP3 DUP2 ADD PUSH2 0x487 JUMP JUMPDEST DUP7 SWAP6 POP PUSH2 0x45B SWAP7 SWAP4 POP PUSH1 0x20 SWAP3 POP PUSH2 0x44F SWAP5 SWAP2 POP PUSH1 0xFF NOT AND DUP3 DUP5 ADD MSTORE ISZERO ISZERO PUSH1 0x5 SHL DUP3 ADD ADD SWAP3 SWAP4 PUSH2 0x43F JUMP JUMPDEST DUP1 REVERT JUMPDEST CALLVALUE PUSH2 0x23C JUMPI PUSH1 0x0 CALLDATASIZE PUSH1 0x3 NOT ADD SLT PUSH2 0x23C JUMPI PUSH1 0x20 PUSH1 0x40 MLOAD PUSH1 0x1 DUP2 MSTORE RETURN JUMPDEST CALLVALUE PUSH2 0x23C JUMPI PUSH1 0x20 CALLDATASIZE PUSH1 0x3 NOT ADD SLT PUSH2 0x23C JUMPI PUSH2 0x45B PUSH2 0x522 PUSH1 0x4 CALLDATALOAD PUSH2 0x24E5 JUMP JUMPDEST PUSH1 0x40 MLOAD SWAP2 DUP3 SWAP2 PUSH1 0x20 DUP4 MSTORE PUSH1 0x20 DUP4 ADD SWAP1 PUSH2 0x3C9 JUMP JUMPDEST CALLVALUE PUSH2 0x23C JUMPI PUSH1 0x0 CALLDATASIZE PUSH1 0x3 NOT ADD SLT PUSH2 0x23C JUMPI PUSH1 0x20 PUSH1 0x40 MLOAD PUSH1 0x2 DUP2 MSTORE RETURN JUMPDEST CALLVALUE PUSH2 0x23C JUMPI PUSH1 0x0 CALLDATASIZE PUSH1 0x3 NOT ADD SLT PUSH2 0x23C JUMPI PUSH1 0x20 PUSH1 0x4 SLOAD PUSH1 0x40 MLOAD SWAP1 DUP2 MSTORE RETURN JUMPDEST PUSH1 0x40 MLOAD SWAP1 PUSH1 0x40 DUP3 ADD DUP3 DUP2 LT PUSH1 0x1 PUSH1 0x1 PUSH1 0x40 SHL SUB DUP3 GT OR PUSH2 0x380 JUMPI PUSH1 0x40 MSTORE JUMP JUMPDEST PUSH1 0x40 MLOAD SWAP1 PUSH1 0xC0 DUP3 ADD DUP3 DUP2 LT PUSH1 0x1 PUSH1 0x1 PUSH1 0x40 SHL SUB DUP3 GT OR PUSH2 0x380 JUMPI PUSH1 0x40 MSTORE JUMP JUMPDEST PUSH1 0x1 PUSH1 0x1 PUSH1 0x40 SHL SUB DUP2 GT PUSH2 0x380 JUMPI PUSH1 0x5 SHL PUSH1 0x20 ADD SWAP1 JUMP JUMPDEST DUP2 PUSH1 0x1F DUP3 ADD SLT ISZERO PUSH2 0x23C JUMPI DUP1 CALLDATALOAD SWAP2 PUSH2 0x5DC DUP4 PUSH2 0x5AE JUMP JUMPDEST SWAP3 PUSH2 0x5EA PUSH1 0x40 MLOAD SWAP5 DUP6 PUSH2 0x385 JUMP JUMPDEST DUP1 DUP5 MSTORE PUSH1 0x20 SWAP3 DUP4 DUP1 DUP7 ADD SWAP3 PUSH1 0x5 SHL DUP3 ADD ADD SWAP3 DUP4 GT PUSH2 0x23C JUMPI DUP4 ADD SWAP1 JUMPDEST DUP3 DUP3 LT PUSH2 0x614 JUMPI POP POP POP POP SWAP1 JUMP JUMPDEST DUP2 CALLDATALOAD DUP2 MSTORE SWAP1 DUP4 ADD SWAP1 DUP4 ADD PUSH2 0x606 JUMP JUMPDEST PUSH1 0x1 PUSH1 0x1 PUSH1 0x40 SHL SUB DUP2 GT PUSH2 0x380 JUMPI PUSH1 0x1F ADD PUSH1 0x1F NOT AND PUSH1 0x20 ADD SWAP1 JUMP JUMPDEST SWAP3 SWAP2 SWAP3 PUSH2 0x64A DUP3 PUSH2 0x623 JUMP JUMPDEST SWAP2 PUSH2 0x658 PUSH1 0x40 MLOAD SWAP4 DUP5 PUSH2 0x385 JUMP JUMPDEST DUP3 SWAP5 DUP2 DUP5 MSTORE DUP2 DUP4 ADD GT PUSH2 0x23C JUMPI DUP3 DUP2 PUSH1 0x20 SWAP4 DUP5 PUSH1 0x0 SWAP7 ADD CALLDATACOPY ADD ADD MSTORE JUMP JUMPDEST SWAP1 DUP1 PUSH1 0x1F DUP4 ADD SLT ISZERO PUSH2 0x23C JUMPI DUP2 PUSH1 0x20 PUSH2 0x3FF SWAP4 CALLDATALOAD SWAP2 ADD PUSH2 0x63E JUMP JUMPDEST CALLVALUE PUSH2 0x23C JUMPI PUSH1 0xA0 CALLDATASIZE PUSH1 0x3 NOT ADD SLT PUSH2 0x23C JUMPI PUSH1 0x4 DUP1 CALLDATALOAD PUSH2 0x6AE DUP2 PUSH2 0x22B JUMP JUMPDEST PUSH1 0x24 CALLDATALOAD PUSH2 0x6BA DUP2 PUSH2 0x22B JUMP JUMPDEST PUSH1 0x1 PUSH1 0x1 PUSH1 0x40 SHL SUB SWAP1 PUSH1 0x44 CALLDATALOAD DUP3 DUP2 GT PUSH2 0x23C JUMPI PUSH2 0x6DA SWAP1 CALLDATASIZE SWAP1 DUP7 ADD PUSH2 0x5C5 JUMP JUMPDEST SWAP1 PUSH1 0x64 CALLDATALOAD DUP4 DUP2 GT PUSH2 0x23C JUMPI PUSH2 0x6F2 SWAP1 CALLDATASIZE SWAP1 DUP8 ADD PUSH2 0x5C5 JUMP JUMPDEST SWAP3 PUSH1 0x84 CALLDATALOAD SWAP1 DUP2 GT PUSH2 0x23C JUMPI PUSH2 0x70A SWAP1 CALLDATASIZE SWAP1 DUP8 ADD PUSH2 0x675 JUMP JUMPDEST SWAP4 PUSH1 0x1 PUSH1 0x1 PUSH1 0xA0 SHL SUB DUP1 DUP3 AND SWAP1 CALLER DUP3 EQ ISZERO DUP1 PUSH2 0x799 JUMPI JUMPDEST PUSH2 0x76C JUMPI DUP4 AND ISZERO PUSH2 0x754 JUMPI ISZERO PUSH2 0x73D JUMPI PUSH2 0x73B SWAP6 POP PUSH2 0x18A1 JUMP JUMPDEST STOP JUMPDEST PUSH1 0x40 MLOAD PUSH3 0x6A0D45 PUSH1 0xE2 SHL DUP2 MSTORE PUSH1 0x0 DUP2 DUP9 ADD MSTORE PUSH1 0x24 SWAP1 REVERT JUMPDEST PUSH1 0x40 MLOAD PUSH4 0x2BFA23E7 PUSH1 0xE1 SHL DUP2 MSTORE PUSH1 0x0 DUP2 DUP10 ADD MSTORE PUSH1 0x24 SWAP1 REVERT JUMPDEST PUSH1 0x40 DUP1 MLOAD PUSH4 0x711BEC91 PUSH1 0xE1 SHL DUP2 MSTORE CALLER DUP2 DUP12 ADD SWAP1 DUP2 MSTORE PUSH1 0x1 PUSH1 0x1 PUSH1 0xA0 SHL SUB DUP7 AND PUSH1 0x20 DUP3 ADD MSTORE SWAP1 SWAP2 DUP3 SWAP2 ADD SUB SWAP1 REVERT JUMPDEST POP PUSH1 0x0 DUP3 DUP2 MSTORE PUSH1 0x1 PUSH1 0x20 SWAP1 DUP2 MSTORE PUSH1 0x40 DUP1 DUP4 KECCAK256 CALLER DUP5 MSTORE SWAP1 SWAP2 MSTORE SWAP1 KECCAK256 SLOAD PUSH1 0xFF AND ISZERO PUSH2 0x721 JUMP JUMPDEST CALLVALUE PUSH2 0x23C JUMPI PUSH1 0x0 CALLDATASIZE PUSH1 0x3 NOT ADD SLT PUSH2 0x23C JUMPI PUSH1 0xC SLOAD PUSH1 0x40 MLOAD PUSH1 0x1 PUSH1 0x1 PUSH1 0xA0 SHL SUB SWAP1 SWAP2 AND DUP2 MSTORE PUSH1 0x20 SWAP1 RETURN JUMPDEST CALLVALUE PUSH2 0x23C JUMPI PUSH1 0x0 CALLDATASIZE PUSH1 0x3 NOT ADD SLT PUSH2 0x23C JUMPI PUSH1 0x20 PUSH1 0x40 MLOAD PUSH1 0x3 DUP2 MSTORE RETURN JUMPDEST CALLVALUE PUSH2 0x23C JUMPI PUSH1 0x20 CALLDATASIZE PUSH1 0x3 NOT ADD SLT PUSH2 0x23C JUMPI PUSH1 0x4 CALLDATALOAD PUSH2 0x81E PUSH2 0x15A5 JUMP JUMPDEST PUSH1 0x0 SWAP1 PUSH1 0x1 DUP3 MSTORE PUSH1 0x9 PUSH1 0x20 MSTORE PUSH2 0x83B PUSH1 0xFF PUSH1 0x40 DUP5 KECCAK256 SLOAD AND ISZERO PUSH2 0x268E JUMP JUMPDEST PUSH1 0x1 DUP3 MSTORE PUSH1 0x3 PUSH1 0x20 MSTORE PUSH2 0x852 PUSH1 0x40 DUP4 KECCAK256 SLOAD ISZERO PUSH2 0x26DA JUMP JUMPDEST PUSH2 0x85D DUP2 ISZERO ISZERO PUSH2 0x271F JUMP JUMPDEST PUSH1 0x8 SLOAD PUSH2 0x87C SWAP1 PUSH1 0x1 PUSH1 0x1 PUSH1 0xA0 SHL SUB AND DUP3 PUSH2 0x876 PUSH2 0x1ACA JUMP JUMPDEST SWAP2 PUSH2 0x2382 JUMP JUMPDEST PUSH2 0x885 DUP2 PUSH1 0xA SSTORE JUMP JUMPDEST PUSH1 0x1 PUSH1 0x0 MSTORE PUSH1 0x9 PUSH1 0x20 MSTORE PUSH2 0x8C1 PUSH32 0x92E85D02570A8092D09A6E3A57665BC3815A2699A4074001BF1CCABF660F5A36 JUMPDEST DUP1 SLOAD PUSH1 0xFF NOT AND PUSH1 0x1 OR SWAP1 SSTORE JUMP JUMPDEST PUSH1 0x8 SLOAD PUSH1 0x1 PUSH1 0x1 PUSH1 0xA0 SHL SUB AND SWAP1 PUSH32 0xC53A9715662D7EC2CE49F727E6848218FEAA7E34A038A690B7BA30EDDD57F867 DUP4 DUP1 LOG3 DUP1 RETURN JUMPDEST CALLVALUE PUSH2 0x23C JUMPI PUSH1 0x0 CALLDATASIZE PUSH1 0x3 NOT ADD SLT PUSH2 0x23C JUMPI PUSH1 0x20 PUSH1 0xA SLOAD PUSH1 0x40 MLOAD SWAP1 DUP2 MSTORE RETURN JUMPDEST CALLVALUE PUSH2 0x23C JUMPI PUSH1 0x0 CALLDATASIZE PUSH1 0x3 NOT ADD SLT PUSH2 0x23C JUMPI PUSH1 0x20 PUSH1 0x40 MLOAD PUSH1 0x0 DUP2 MSTORE RETURN JUMPDEST SWAP1 DUP2 MLOAD DUP1 DUP3 MSTORE PUSH1 0x20 DUP1 DUP1 SWAP4 ADD SWAP4 ADD SWAP2 PUSH1 0x0 JUMPDEST DUP3 DUP2 LT PUSH2 0x94F JUMPI POP POP POP POP SWAP1 JUMP JUMPDEST DUP4 MLOAD DUP6 MSTORE SWAP4 DUP2 ADD SWAP4 SWAP3 DUP2 ADD SWAP3 PUSH1 0x1 ADD PUSH2 0x941 JUMP JUMPDEST SWAP1 PUSH1 0x20 PUSH2 0x3FF SWAP3 DUP2 DUP2 MSTORE ADD SWAP1 PUSH2 0x92F JUMP JUMPDEST CALLVALUE PUSH2 0x23C JUMPI PUSH1 0x40 CALLDATASIZE PUSH1 0x3 NOT ADD SLT PUSH2 0x23C JUMPI PUSH1 0x4 CALLDATALOAD PUSH1 0x1 PUSH1 0x1 PUSH1 0x40 SHL SUB DUP1 DUP3 GT PUSH2 0x23C JUMPI CALLDATASIZE PUSH1 0x23 DUP4 ADD SLT ISZERO PUSH2 0x23C JUMPI DUP2 PUSH1 0x4 ADD CALLDATALOAD PUSH2 0x9B0 DUP2 PUSH2 0x5AE JUMP JUMPDEST SWAP3 PUSH2 0x9BE PUSH1 0x40 MLOAD SWAP5 DUP6 PUSH2 0x385 JUMP JUMPDEST DUP2 DUP5 MSTORE PUSH1 0x20 SWAP2 PUSH1 0x24 DUP4 DUP7 ADD SWAP2 PUSH1 0x5 SHL DUP4 ADD ADD SWAP2 CALLDATASIZE DUP4 GT PUSH2 0x23C JUMPI PUSH1 0x24 ADD SWAP1 JUMPDEST DUP3 DUP3 LT PUSH2 0xA16 JUMPI DUP6 PUSH1 0x24 CALLDATALOAD DUP7 DUP2 GT PUSH2 0x23C JUMPI PUSH2 0x45B SWAP2 PUSH2 0xA04 PUSH2 0xA0A SWAP3 CALLDATASIZE SWAP1 PUSH1 0x4 ADD PUSH2 0x5C5 JUMP JUMPDEST SWAP1 PUSH2 0x169C JUMP JUMPDEST PUSH1 0x40 MLOAD SWAP2 DUP3 SWAP2 DUP3 PUSH2 0x963 JUMP JUMPDEST DUP4 DUP1 SWAP2 DUP4 CALLDATALOAD PUSH2 0xA24 DUP2 PUSH2 0x22B JUMP JUMPDEST DUP2 MSTORE ADD SWAP2 ADD SWAP1 PUSH2 0x9DD JUMP JUMPDEST CALLVALUE PUSH2 0x23C JUMPI PUSH1 0x20 CALLDATASIZE PUSH1 0x3 NOT ADD SLT PUSH2 0x23C JUMPI PUSH1 0x20 PUSH2 0xA59 PUSH1 0x4 CALLDATALOAD PUSH1 0x0 MSTORE PUSH1 0x3 PUSH1 0x20 MSTORE PUSH1 0x40 PUSH1 0x0 KECCAK256 SLOAD SWAP1 JUMP JUMPDEST ISZERO ISZERO PUSH1 0x40 MLOAD SWAP1 DUP2 MSTORE RETURN JUMPDEST PUSH1 0x20 PUSH1 0x3 NOT DUP3 ADD SLT PUSH2 0x23C JUMPI PUSH1 0x4 CALLDATALOAD SWAP1 PUSH1 0x1 PUSH1 0x1 PUSH1 0x40 SHL SUB DUP3 GT PUSH2 0x23C JUMPI DUP1 PUSH1 0x23 DUP4 ADD SLT ISZERO PUSH2 0x23C JUMPI DUP2 PUSH1 0x24 PUSH2 0x3FF SWAP4 PUSH1 0x4 ADD CALLDATALOAD SWAP2 ADD PUSH2 0x63E JUMP JUMPDEST CALLVALUE PUSH2 0x23C JUMPI PUSH2 0xAAC CALLDATASIZE PUSH2 0xA63 JUMP JUMPDEST PUSH2 0xAB4 PUSH2 0x15A5 JUMP JUMPDEST DUP1 MLOAD ISZERO PUSH2 0xB91 JUMPI DUP1 MLOAD PUSH1 0x1 PUSH1 0x1 PUSH1 0x40 SHL SUB DUP2 GT PUSH2 0x380 JUMPI PUSH2 0xADF DUP2 PUSH2 0xADA PUSH1 0x10 SLOAD PUSH2 0x31D JUMP JUMPDEST PUSH2 0x1ECC JUMP JUMPDEST PUSH1 0x20 DUP1 PUSH1 0x1F DUP4 GT PUSH1 0x1 EQ PUSH2 0xB1C JUMPI POP DUP2 SWAP3 PUSH1 0x0 SWAP3 PUSH2 0xB11 JUMPI JUMPDEST POP POP PUSH1 0x0 NOT PUSH1 0x3 DUP4 SWAP1 SHL SHR NOT AND PUSH1 0x1 SWAP2 SWAP1 SWAP2 SHL OR PUSH1 0x10 SSTORE STOP JUMPDEST ADD MLOAD SWAP1 POP CODESIZE DUP1 PUSH2 0xAF8 JUMP JUMPDEST SWAP1 PUSH1 0x1F NOT DUP4 AND SWAP4 PUSH2 0xB3D PUSH1 0x10 PUSH1 0x0 MSTORE PUSH1 0x0 DUP1 MLOAD PUSH1 0x20 PUSH2 0x2E91 DUP4 CODECOPY DUP2 MLOAD SWAP2 MSTORE SWAP1 JUMP JUMPDEST SWAP3 PUSH1 0x0 SWAP1 JUMPDEST DUP7 DUP3 LT PUSH2 0xB79 JUMPI POP POP DUP4 PUSH1 0x1 SWAP6 LT PUSH2 0xB60 JUMPI JUMPDEST POP POP POP DUP2 SHL ADD PUSH1 0x10 SSTORE STOP JUMPDEST ADD MLOAD PUSH1 0x0 NOT PUSH1 0xF8 DUP5 PUSH1 0x3 SHL AND SHR NOT AND SWAP1 SSTORE CODESIZE DUP1 DUP1 PUSH2 0xB55 JUMP JUMPDEST DUP1 PUSH1 0x1 DUP6 SWAP7 DUP3 SWAP5 SWAP7 DUP7 ADD MLOAD DUP2 SSTORE ADD SWAP6 ADD SWAP4 ADD SWAP1 PUSH2 0xB42 JUMP JUMPDEST PUSH1 0x40 MLOAD PUSH3 0x461BCD PUSH1 0xE5 SHL DUP2 MSTORE PUSH1 0x20 PUSH1 0x4 DUP3 ADD MSTORE PUSH1 0x16 PUSH1 0x24 DUP3 ADD MSTORE PUSH22 0x53796D626F6C2063616E6E6F7420626520656D707479 PUSH1 0x50 SHL PUSH1 0x44 DUP3 ADD MSTORE PUSH1 0x64 SWAP1 REVERT JUMPDEST CALLVALUE PUSH2 0x23C JUMPI PUSH1 0x0 CALLDATASIZE PUSH1 0x3 NOT ADD SLT PUSH2 0x23C JUMPI PUSH1 0xD SLOAD PUSH1 0x40 MLOAD PUSH1 0x1 PUSH1 0x1 PUSH1 0xA0 SHL SUB SWAP1 SWAP2 AND DUP2 MSTORE PUSH1 0x20 SWAP1 RETURN JUMPDEST CALLVALUE PUSH2 0x23C JUMPI PUSH1 0x60 CALLDATASIZE PUSH1 0x3 NOT ADD SLT PUSH2 0x23C JUMPI PUSH1 0x20 PUSH2 0xC27 PUSH1 0x4 CALLDATALOAD PUSH2 0xC1A DUP2 PUSH2 0x22B JUMP JUMPDEST PUSH1 0x44 CALLDATALOAD SWAP1 PUSH1 0x24 CALLDATALOAD SWAP1 PUSH2 0x28A8 JUMP JUMPDEST PUSH1 0x40 MLOAD SWAP1 DUP2 MSTORE RETURN JUMPDEST CALLVALUE PUSH2 0x23C JUMPI PUSH1 0x0 DUP1 PUSH1 0x3 NOT CALLDATASIZE ADD SLT PUSH2 0x4E4 JUMPI PUSH2 0xC49 PUSH2 0x15A5 JUMP JUMPDEST PUSH1 0x5 DUP1 SLOAD PUSH1 0x1 PUSH1 0x1 PUSH1 0xA0 SHL SUB NOT DUP2 AND SWAP1 SWAP2 SSTORE DUP2 SWAP1 PUSH1 0x1 PUSH1 0x1 PUSH1 0xA0 SHL SUB AND PUSH32 0x8BE0079C531659141344CD1FD0A4F28419497F9722A3DAAFE3B4186F6B6457E0 DUP3 DUP1 LOG3 DUP1 RETURN JUMPDEST CALLVALUE PUSH2 0x23C JUMPI PUSH1 0x0 CALLDATASIZE PUSH1 0x3 NOT ADD SLT PUSH2 0x23C JUMPI PUSH1 0x5 SLOAD PUSH1 0x40 MLOAD PUSH1 0x1 PUSH1 0x1 PUSH1 0xA0 SHL SUB SWAP1 SWAP2 AND DUP2 MSTORE PUSH1 0x20 SWAP1 RETURN JUMPDEST CALLVALUE PUSH2 0x23C JUMPI PUSH1 0x0 DUP1 PUSH1 0x3 NOT CALLDATASIZE ADD SLT PUSH2 0x4E4 JUMPI PUSH1 0x40 MLOAD SWAP1 DUP1 PUSH1 0x10 SLOAD PUSH2 0xCD9 DUP2 PUSH2 0x31D JUMP JUMPDEST DUP1 DUP6 MSTORE SWAP2 PUSH1 0x1 SWAP2 DUP1 DUP4 AND SWAP1 DUP2 ISZERO PUSH2 0x4BA JUMPI POP PUSH1 0x1 EQ PUSH2 0xD02 JUMPI PUSH2 0x45B DUP6 PUSH2 0x44F DUP2 DUP8 SUB DUP3 PUSH2 0x385 JUMP JUMPDEST SWAP3 POP PUSH1 0x10 DUP4 MSTORE PUSH1 0x0 DUP1 MLOAD PUSH1 0x20 PUSH2 0x2E91 DUP4 CODECOPY DUP2 MLOAD SWAP2 MSTORE JUMPDEST DUP3 DUP5 LT PUSH2 0xD33 JUMPI POP POP POP DUP2 ADD PUSH1 0x20 ADD PUSH2 0x44F DUP3 PUSH2 0x45B PUSH2 0x43F JUMP JUMPDEST DUP1 SLOAD PUSH1 0x20 DUP6 DUP8 ADD DUP2 ADD SWAP2 SWAP1 SWAP2 MSTORE SWAP1 SWAP4 ADD SWAP3 DUP2 ADD PUSH2 0xD18 JUMP JUMPDEST CALLVALUE PUSH2 0x23C JUMPI PUSH1 0x40 CALLDATASIZE PUSH1 0x3 NOT ADD SLT PUSH2 0x23C JUMPI PUSH1 0x4 CALLDATALOAD PUSH1 0x24 CALLDATALOAD PUSH2 0xD6B DUP2 PUSH2 0x22B JUMP JUMPDEST PUSH2 0xD73 PUSH2 0x15A5 JUMP JUMPDEST PUSH1 0x0 SWAP2 PUSH1 0x2 DUP4 MSTORE PUSH1 0x9 PUSH1 0x20 MSTORE PUSH2 0xD90 PUSH1 0xFF PUSH1 0x40 DUP6 KECCAK256 SLOAD AND ISZERO PUSH2 0x268E JUMP JUMPDEST DUP1 ISZERO PUSH2 0xE4E JUMPI PUSH1 0x1 PUSH1 0x1 PUSH1 0xA0 SHL SUB DUP3 AND SWAP2 PUSH2 0xDF4 SWAP1 PUSH2 0xDB0 DUP5 ISZERO ISZERO PUSH2 0x2763 JUMP JUMPDEST PUSH1 0x2 PUSH1 0x0 MSTORE PUSH1 0x3 PUSH1 0x20 MSTORE PUSH2 0xDE5 PUSH32 0xC3A24B0501BD2C13A7E57F2DB4369EC4C223447539FC0724A9D55AC4A06EBD4D SLOAD ISZERO PUSH2 0x27A3 JUMP JUMPDEST DUP3 PUSH2 0xDEE PUSH2 0x1ACA JUMP JUMPDEST SWAP2 PUSH2 0x23C2 JUMP JUMPDEST PUSH1 0x2 PUSH1 0x0 MSTORE PUSH1 0x9 PUSH1 0x20 MSTORE PUSH2 0xE27 PUSH32 0x6CDE3CEA4B3A3FB2488B2808BAE7556F4A405E50F65E1794383BC026131B13C3 PUSH2 0x8B4 JUMP JUMPDEST PUSH32 0x96D71A0C03C06CDC81229AB0993B00DCA24C87DC95E0DC13DED5A1EC0C425261 DUP4 DUP1 LOG3 DUP1 RETURN JUMPDEST PUSH1 0x40 MLOAD PUSH3 0x461BCD PUSH1 0xE5 SHL DUP2 MSTORE PUSH1 0x20 PUSH1 0x4 DUP3 ADD MSTORE PUSH1 0xE PUSH1 0x24 DUP3 ADD MSTORE PUSH14 0x125B9D985B1A5908185B5BDD5B9D PUSH1 0x92 SHL PUSH1 0x44 DUP3 ADD MSTORE PUSH1 0x64 SWAP1 REVERT JUMPDEST CALLVALUE PUSH2 0x23C JUMPI PUSH1 0x40 CALLDATASIZE PUSH1 0x3 NOT ADD SLT PUSH2 0x23C JUMPI PUSH1 0x4 CALLDATALOAD PUSH2 0xEA1 DUP2 PUSH2 0x22B JUMP JUMPDEST PUSH1 0x24 CALLDATALOAD SWAP1 DUP2 ISZERO ISZERO SWAP1 DUP2 DUP4 SUB PUSH2 0x23C JUMPI PUSH1 0x1 PUSH1 0x1 PUSH1 0xA0 SHL SUB DUP2 AND SWAP3 DUP4 ISZERO PUSH2 0xF2C JUMPI PUSH2 0xEED PUSH2 0xEFE SWAP3 CALLER PUSH1 0x0 MSTORE PUSH1 0x1 PUSH1 0x20 MSTORE PUSH1 0x40 PUSH1 0x0 KECCAK256 SWAP1 PUSH1 0x1 DUP1 PUSH1 0xA0 SHL SUB AND PUSH1 0x0 MSTORE PUSH1 0x20 MSTORE PUSH1 0x40 PUSH1 0x0 KECCAK256 SWAP1 JUMP JUMPDEST SWAP1 PUSH1 0xFF DUP1 NOT DUP4 SLOAD AND SWAP2 ISZERO ISZERO AND OR SWAP1 SSTORE JUMP JUMPDEST PUSH1 0x40 MLOAD SWAP1 DUP2 MSTORE PUSH32 0x17307EAB39AB6107E8899845AD3D59BD9653F200F220920489CA2B5937696C31 PUSH1 0x20 CALLER SWAP3 LOG3 STOP JUMPDEST PUSH1 0x40 MLOAD PUSH3 0xCED3E1 PUSH1 0xE8 SHL DUP2 MSTORE PUSH1 0x0 PUSH1 0x4 DUP3 ADD MSTORE PUSH1 0x24 SWAP1 REVERT JUMPDEST CALLVALUE PUSH2 0x23C JUMPI PUSH2 0xF52 CALLDATASIZE PUSH2 0xA63 JUMP JUMPDEST PUSH2 0xF5A PUSH2 0x15A5 JUMP JUMPDEST PUSH2 0xF66 DUP2 MLOAD ISZERO ISZERO PUSH2 0x27EF JUMP JUMPDEST PUSH1 0xB SLOAD PUSH2 0xF7A PUSH2 0xF75 DUP3 PUSH2 0x1659 JUMP JUMPDEST PUSH1 0xB SSTORE JUMP JUMPDEST PUSH2 0xFA7 PUSH2 0xFA2 PUSH2 0xF9E PUSH2 0xF97 DUP5 PUSH1 0x0 MSTORE PUSH1 0x9 PUSH1 0x20 MSTORE PUSH1 0x40 PUSH1 0x0 KECCAK256 SWAP1 JUMP JUMPDEST SLOAD PUSH1 0xFF AND SWAP1 JUMP JUMPDEST ISZERO SWAP1 JUMP JUMPDEST PUSH2 0x268E JUMP JUMPDEST PUSH1 0x5 SLOAD PUSH2 0xFC6 SWAP1 PUSH1 0x1 PUSH1 0x1 PUSH1 0xA0 SHL SUB AND DUP3 PUSH2 0xFC0 PUSH2 0x1ACA JUMP JUMPDEST SWAP2 PUSH2 0x2400 JUMP JUMPDEST PUSH1 0xE SLOAD PUSH2 0xFE9 SWAP1 PUSH2 0xFDD SWAP1 PUSH1 0x1 PUSH1 0x1 PUSH1 0xA0 SHL SUB AND DUP2 JUMP JUMPDEST PUSH1 0x1 PUSH1 0x1 PUSH1 0xA0 SHL SUB AND SWAP1 JUMP JUMPDEST PUSH1 0x5 SLOAD PUSH1 0x1 PUSH1 0x1 PUSH1 0xA0 SHL SUB AND SWAP3 SWAP1 DUP1 EXTCODESIZE ISZERO PUSH2 0x23C JUMPI DUP2 PUSH1 0x0 SWAP2 DUP5 DUP4 PUSH2 0x1025 SWAP8 PUSH1 0x40 MLOAD SWAP9 DUP10 SWAP6 DUP7 SWAP5 DUP6 SWAP4 PUSH4 0x6620CA3D PUSH1 0xE1 SHL DUP6 MSTORE PUSH1 0x4 DUP6 ADD PUSH2 0x2829 JUMP JUMPDEST SUB SWAP3 GAS CALL SWAP3 DUP4 ISZERO PUSH2 0x10BF JUMPI PUSH2 0x45B SWAP4 PUSH2 0x10A6 JUMPI JUMPDEST POP PUSH2 0x1051 PUSH2 0x8B4 DUP4 PUSH1 0x0 MSTORE PUSH1 0x9 PUSH1 0x20 MSTORE PUSH1 0x40 PUSH1 0x0 KECCAK256 SWAP1 JUMP JUMPDEST PUSH1 0x5 SLOAD PUSH1 0x40 MLOAD PUSH1 0x1 PUSH1 0x1 PUSH1 0xA0 SHL SUB SWAP1 SWAP2 AND SWAP2 DUP4 SWAP2 PUSH32 0xC8106359C4B5A0021EBB0E829775B183E6642E6EFA542778545141F4CF91DDF8 SWAP2 DUP2 SWAP1 PUSH2 0x1093 SWAP1 DUP3 PUSH2 0x3EE JUMP JUMPDEST SUB SWAP1 LOG3 PUSH1 0x40 MLOAD SWAP1 DUP2 MSTORE SWAP1 DUP2 SWAP1 PUSH1 0x20 DUP3 ADD SWAP1 JUMP JUMPDEST DUP1 PUSH2 0x10B3 PUSH2 0x10B9 SWAP3 PUSH2 0x36D JUMP JUMPDEST DUP1 PUSH2 0x312 JUMP JUMPDEST CODESIZE PUSH2 0x1039 JUMP JUMPDEST PUSH2 0x1ABE JUMP JUMPDEST CALLVALUE PUSH2 0x23C JUMPI PUSH1 0x20 CALLDATASIZE PUSH1 0x3 NOT ADD SLT PUSH2 0x23C JUMPI PUSH1 0x20 PUSH2 0xC27 PUSH1 0x4 CALLDATALOAD PUSH1 0x0 MSTORE PUSH1 0x3 PUSH1 0x20 MSTORE PUSH1 0x40 PUSH1 0x0 KECCAK256 SLOAD SWAP1 JUMP JUMPDEST CALLVALUE PUSH2 0x23C JUMPI PUSH1 0x60 CALLDATASIZE PUSH1 0x3 NOT ADD SLT PUSH2 0x23C JUMPI PUSH1 0x4 CALLDATALOAD PUSH2 0x110B DUP2 PUSH2 0x22B JUMP JUMPDEST PUSH1 0x24 CALLDATALOAD SWAP1 PUSH2 0x1118 DUP3 PUSH2 0x22B JUMP JUMPDEST PUSH1 0x44 CALLDATALOAD PUSH2 0x1124 DUP2 PUSH2 0x22B JUMP JUMPDEST PUSH1 0x0 DUP1 MLOAD PUSH1 0x20 PUSH2 0x2EB1 DUP4 CODECOPY DUP2 MLOAD SWAP2 MSTORE SLOAD SWAP3 PUSH1 0x1 PUSH1 0x1 PUSH1 0x40 SHL SUB PUSH1 0xFF DUP6 PUSH1 0x40 SHR AND ISZERO SWAP5 AND DUP1 ISZERO SWAP1 DUP2 PUSH2 0x122F JUMPI JUMPDEST PUSH1 0x1 EQ SWAP1 DUP2 PUSH2 0x1225 JUMPI JUMPDEST ISZERO SWAP1 DUP2 PUSH2 0x121C JUMPI JUMPDEST POP PUSH2 0x120A JUMPI PUSH1 0x0 DUP1 MLOAD PUSH1 0x20 PUSH2 0x2EB1 DUP4 CODECOPY DUP2 MLOAD SWAP2 MSTORE DUP1 SLOAD PUSH8 0xFFFFFFFFFFFFFFFF NOT AND PUSH1 0x1 OR SWAP1 SSTORE PUSH2 0x1196 SWAP3 DUP5 PUSH2 0x11E5 JUMPI PUSH2 0x2157 JUMP JUMPDEST PUSH2 0x119C JUMPI STOP JUMPDEST PUSH1 0x0 DUP1 MLOAD PUSH1 0x20 PUSH2 0x2EB1 DUP4 CODECOPY DUP2 MLOAD SWAP2 MSTORE DUP1 SLOAD PUSH1 0xFF PUSH1 0x40 SHL NOT AND SWAP1 SSTORE PUSH1 0x40 MLOAD PUSH1 0x1 DUP2 MSTORE PUSH32 0xC7F505B2F371AE2175EE4913F4499E1F2633A7B5936321EED1CDAEB6115181D2 SWAP1 PUSH1 0x20 SWAP1 LOG1 STOP JUMPDEST PUSH1 0x0 DUP1 MLOAD PUSH1 0x20 PUSH2 0x2EB1 DUP4 CODECOPY DUP2 MLOAD SWAP2 MSTORE DUP1 SLOAD PUSH1 0xFF PUSH1 0x40 SHL NOT AND PUSH1 0x1 PUSH1 0x40 SHL OR SWAP1 SSTORE PUSH2 0x2157 JUMP JUMPDEST PUSH1 0x40 MLOAD PUSH4 0xF92EE8A9 PUSH1 0xE0 SHL DUP2 MSTORE PUSH1 0x4 SWAP1 REVERT JUMPDEST SWAP1 POP ISZERO CODESIZE PUSH2 0x1162 JUMP JUMPDEST ADDRESS EXTCODESIZE ISZERO SWAP2 POP PUSH2 0x115A JUMP JUMPDEST DUP6 SWAP2 POP PUSH2 0x1150 JUMP JUMPDEST CALLVALUE PUSH2 0x23C JUMPI PUSH1 0x0 CALLDATASIZE PUSH1 0x3 NOT ADD SLT PUSH2 0x23C JUMPI PUSH1 0x20 PUSH1 0xB SLOAD PUSH1 0x40 MLOAD SWAP1 DUP2 MSTORE RETURN JUMPDEST PUSH1 0x40 SWAP1 PUSH1 0x3 NOT ADD SLT PUSH2 0x23C JUMPI PUSH1 0x4 CALLDATALOAD PUSH2 0x126D DUP2 PUSH2 0x22B JUMP JUMPDEST SWAP1 PUSH1 0x24 CALLDATALOAD PUSH2 0x3FF DUP2 PUSH2 0x22B JUMP JUMPDEST CALLVALUE PUSH2 0x23C JUMPI PUSH2 0x129B PUSH2 0x128B CALLDATASIZE PUSH2 0x1255 JUMP JUMPDEST PUSH2 0x1296 SWAP3 SWAP2 SWAP3 PUSH2 0x15A5 JUMP JUMPDEST PUSH2 0x15D1 JUMP JUMPDEST PUSH1 0xC DUP1 SLOAD PUSH1 0x1 PUSH1 0x1 PUSH1 0xA0 SHL SUB NOT AND PUSH1 0x1 PUSH1 0x1 PUSH1 0xA0 SHL SUB SWAP3 SWAP1 SWAP3 AND SWAP2 SWAP1 SWAP2 OR SWAP1 SSTORE STOP JUMPDEST CALLVALUE PUSH2 0x23C JUMPI PUSH1 0x0 CALLDATASIZE PUSH1 0x3 NOT ADD SLT PUSH2 0x23C JUMPI PUSH1 0xE SLOAD PUSH1 0x40 MLOAD PUSH1 0x1 PUSH1 0x1 PUSH1 0xA0 SHL SUB SWAP1 SWAP2 AND DUP2 MSTORE PUSH1 0x20 SWAP1 RETURN JUMPDEST CALLVALUE PUSH2 0x23C JUMPI PUSH1 0x0 DUP1 PUSH1 0x3 NOT CALLDATASIZE ADD SLT PUSH2 0x4E4 JUMPI PUSH1 0xC SLOAD PUSH2 0x130F SWAP1 PUSH2 0xFDD SWAP1 PUSH1 0x1 PUSH1 0x1 PUSH1 0xA0 SHL SUB AND DUP2 JUMP JUMPDEST PUSH1 0x40 MLOAD PUSH4 0x1A4E6DD PUSH1 0xE5 SHL DUP2 MSTORE ADDRESS PUSH1 0x4 DUP3 ADD MSTORE SWAP1 DUP3 SWAP1 DUP3 SWAP1 PUSH1 0x24 SWAP1 DUP3 SWAP1 GAS STATICCALL SWAP1 DUP2 ISZERO PUSH2 0x10BF JUMPI PUSH2 0x1377 SWAP2 DUP4 SWAP2 DUP3 SWAP2 PUSH2 0x13BE JUMPI JUMPDEST POP PUSH1 0xD SLOAD PUSH2 0x135A SWAP1 PUSH2 0xFDD SWAP1 PUSH1 0x1 PUSH1 0x1 PUSH1 0xA0 SHL SUB AND DUP2 JUMP JUMPDEST PUSH1 0x40 MLOAD DUP1 DUP1 SWAP6 DUP2 SWAP5 PUSH4 0xF8589A0F PUSH1 0xE0 SHL DUP4 MSTORE ADDRESS SWAP1 PUSH1 0x4 DUP5 ADD PUSH2 0x25E2 JUMP JUMPDEST SUB SWAP2 GAS STATICCALL SWAP1 DUP2 ISZERO PUSH2 0x10BF JUMPI DUP3 PUSH2 0x45B SWAP4 SWAP3 PUSH2 0x139B JUMPI JUMPDEST POP POP PUSH1 0x40 MLOAD SWAP2 DUP3 SWAP2 DUP3 PUSH2 0x3EE JUMP JUMPDEST PUSH2 0x13B7 SWAP3 POP RETURNDATASIZE DUP1 SWAP2 DUP4 RETURNDATACOPY PUSH2 0x13AF DUP2 DUP4 PUSH2 0x385 JUMP JUMPDEST DUP2 ADD SWAP1 PUSH2 0x24C0 JUMP JUMPDEST CODESIZE DUP1 PUSH2 0x138D JUMP JUMPDEST PUSH2 0x13DA SWAP2 POP RETURNDATASIZE DUP1 DUP5 DUP4 RETURNDATACOPY PUSH2 0x13D2 DUP2 DUP4 PUSH2 0x385 JUMP JUMPDEST DUP2 ADD SWAP1 PUSH2 0x1DF1 JUMP JUMPDEST CODESIZE PUSH2 0x1342 JUMP JUMPDEST CALLVALUE PUSH2 0x23C JUMPI PUSH1 0x20 PUSH1 0xFF PUSH2 0x141E PUSH2 0x13F5 CALLDATASIZE PUSH2 0x1255 JUMP JUMPDEST PUSH1 0x1 PUSH1 0x1 PUSH1 0xA0 SHL SUB SWAP2 DUP3 AND PUSH1 0x0 SWAP1 DUP2 MSTORE PUSH1 0x1 DUP7 MSTORE PUSH1 0x40 DUP1 DUP3 KECCAK256 SWAP3 SWAP1 SWAP4 AND DUP2 MSTORE PUSH1 0x20 SWAP2 SWAP1 SWAP2 MSTORE KECCAK256 SWAP1 JUMP JUMPDEST SLOAD AND PUSH1 0x40 MLOAD SWAP1 ISZERO ISZERO DUP2 MSTORE RETURN JUMPDEST CALLVALUE PUSH2 0x23C JUMPI PUSH1 0xA0 CALLDATASIZE PUSH1 0x3 NOT ADD SLT PUSH2 0x23C JUMPI PUSH1 0x4 CALLDATALOAD PUSH2 0x1447 DUP2 PUSH2 0x22B JUMP JUMPDEST PUSH1 0x24 CALLDATALOAD PUSH2 0x1453 DUP2 PUSH2 0x22B JUMP JUMPDEST PUSH1 0x84 CALLDATALOAD PUSH1 0x1 PUSH1 0x1 PUSH1 0x40 SHL SUB DUP2 GT PUSH2 0x23C JUMPI PUSH2 0x1472 SWAP1 CALLDATASIZE SWAP1 PUSH1 0x4 ADD PUSH2 0x675 JUMP JUMPDEST SWAP1 PUSH1 0x1 PUSH1 0x1 PUSH1 0xA0 SHL SUB DUP4 DUP2 AND SWAP1 CALLER DUP3 EQ ISZERO DUP1 PUSH2 0x152B JUMPI JUMPDEST PUSH2 0x1504 JUMPI DUP3 AND ISZERO PUSH2 0x14EB JUMPI ISZERO PUSH2 0x14D3 JUMPI PUSH2 0x73B SWAP3 PUSH2 0x14CB PUSH1 0x64 CALLDATALOAD PUSH1 0x44 CALLDATALOAD SWAP2 PUSH1 0x40 MLOAD SWAP3 PUSH1 0x1 DUP5 MSTORE PUSH1 0x20 DUP5 ADD MSTORE PUSH1 0x40 DUP4 ADD SWAP2 PUSH1 0x1 DUP4 MSTORE PUSH1 0x60 DUP5 ADD MSTORE PUSH1 0x80 DUP4 ADD PUSH1 0x40 MSTORE JUMP JUMPDEST SWAP3 SWAP1 SWAP2 PUSH2 0x18A1 JUMP JUMPDEST PUSH1 0x40 MLOAD PUSH3 0x6A0D45 PUSH1 0xE2 SHL DUP2 MSTORE PUSH1 0x0 PUSH1 0x4 DUP3 ADD MSTORE PUSH1 0x24 SWAP1 REVERT JUMPDEST PUSH1 0x40 MLOAD PUSH4 0x2BFA23E7 PUSH1 0xE1 SHL DUP2 MSTORE PUSH1 0x0 PUSH1 0x4 DUP3 ADD MSTORE PUSH1 0x24 SWAP1 REVERT JUMPDEST PUSH1 0x40 MLOAD PUSH4 0x711BEC91 PUSH1 0xE1 SHL DUP2 MSTORE CALLER PUSH1 0x4 DUP3 ADD MSTORE PUSH1 0x1 PUSH1 0x1 PUSH1 0xA0 SHL SUB DUP7 AND PUSH1 0x24 DUP3 ADD MSTORE PUSH1 0x44 SWAP1 REVERT JUMPDEST POP PUSH1 0x0 DUP3 DUP2 MSTORE PUSH1 0x1 PUSH1 0x20 SWAP1 DUP2 MSTORE PUSH1 0x40 DUP1 DUP4 KECCAK256 CALLER DUP5 MSTORE SWAP1 SWAP2 MSTORE SWAP1 KECCAK256 SLOAD PUSH1 0xFF AND ISZERO PUSH2 0x1489 JUMP JUMPDEST CALLVALUE PUSH2 0x23C JUMPI PUSH1 0x20 CALLDATASIZE PUSH1 0x3 NOT ADD SLT PUSH2 0x23C JUMPI PUSH1 0x4 CALLDATALOAD PUSH2 0x156C DUP2 PUSH2 0x22B JUMP JUMPDEST PUSH2 0x1574 PUSH2 0x15A5 JUMP JUMPDEST PUSH1 0x1 PUSH1 0x1 PUSH1 0xA0 SHL SUB DUP2 AND ISZERO PUSH2 0x158C JUMPI PUSH2 0x73B SWAP1 PUSH2 0x15D1 JUMP JUMPDEST PUSH1 0x40 MLOAD PUSH4 0x1E4FBDF7 PUSH1 0xE0 SHL DUP2 MSTORE PUSH1 0x0 PUSH1 0x4 DUP3 ADD MSTORE PUSH1 0x24 SWAP1 REVERT JUMPDEST PUSH1 0x5 SLOAD PUSH1 0x1 PUSH1 0x1 PUSH1 0xA0 SHL SUB AND CALLER SUB PUSH2 0x15B9 JUMPI JUMP JUMPDEST PUSH1 0x40 MLOAD PUSH4 0x118CDAA7 PUSH1 0xE0 SHL DUP2 MSTORE CALLER PUSH1 0x4 DUP3 ADD MSTORE PUSH1 0x24 SWAP1 REVERT JUMPDEST PUSH1 0x5 DUP1 SLOAD PUSH1 0x1 PUSH1 0x1 PUSH1 0xA0 SHL SUB SWAP3 DUP4 AND PUSH1 0x1 PUSH1 0x1 PUSH1 0xA0 SHL SUB NOT DUP3 AND DUP2 OR SWAP1 SWAP3 SSTORE SWAP1 SWAP2 AND PUSH32 0x8BE0079C531659141344CD1FD0A4F28419497F9722A3DAAFE3B4186F6B6457E0 PUSH1 0x0 DUP1 LOG3 JUMP JUMPDEST PUSH1 0x0 SWAP2 DUP3 MSTORE PUSH1 0x20 DUP3 DUP2 MSTORE PUSH1 0x40 DUP1 DUP5 KECCAK256 PUSH1 0x1 PUSH1 0x1 PUSH1 0xA0 SHL SUB SWAP1 SWAP4 AND DUP5 MSTORE SWAP2 SWAP1 MSTORE SWAP1 KECCAK256 SLOAD SWAP1 JUMP JUMPDEST SLOAD SWAP1 JUMP JUMPDEST PUSH4 0x4E487B71 PUSH1 0xE0 SHL PUSH1 0x0 MSTORE PUSH1 0x11 PUSH1 0x4 MSTORE PUSH1 0x24 PUSH1 0x0 REVERT JUMPDEST PUSH1 0x0 NOT DUP2 EQ PUSH2 0x1668 JUMPI PUSH1 0x1 ADD SWAP1 JUMP JUMPDEST PUSH2 0x1643 JUMP JUMPDEST PUSH4 0x4E487B71 PUSH1 0xE0 SHL PUSH1 0x0 MSTORE PUSH1 0x32 PUSH1 0x4 MSTORE PUSH1 0x24 PUSH1 0x0 REVERT JUMPDEST DUP1 MLOAD DUP3 LT ISZERO PUSH2 0x1697 JUMPI PUSH1 0x20 SWAP2 PUSH1 0x5 SHL ADD ADD SWAP1 JUMP JUMPDEST PUSH2 0x166D JUMP JUMPDEST SWAP2 SWAP1 SWAP2 DUP1 MLOAD DUP4 MLOAD DUP1 DUP3 SUB PUSH2 0x1725 JUMPI POP POP DUP1 MLOAD SWAP1 PUSH2 0x16B8 DUP3 PUSH2 0x5AE JUMP JUMPDEST SWAP2 PUSH2 0x16C6 PUSH1 0x40 MLOAD SWAP4 DUP5 PUSH2 0x385 JUMP JUMPDEST DUP1 DUP4 MSTORE PUSH2 0x16D5 PUSH1 0x1F NOT SWAP2 PUSH2 0x5AE JUMP JUMPDEST ADD SWAP1 PUSH1 0x20 SWAP2 CALLDATASIZE DUP4 DUP6 ADD CALLDATACOPY PUSH1 0x0 JUMPDEST DUP2 MLOAD DUP2 LT ISZERO PUSH2 0x171D JUMPI DUP1 PUSH2 0x1708 PUSH2 0x1718 SWAP3 PUSH1 0x5 SHL DUP6 DUP1 DUP3 DUP8 ADD ADD MLOAD SWAP2 DUP11 ADD ADD MLOAD SWAP1 PUSH2 0x161A JUMP JUMPDEST PUSH2 0x1712 DUP3 DUP8 PUSH2 0x1683 JUMP JUMPDEST MSTORE PUSH2 0x1659 JUMP JUMPDEST PUSH2 0x16E2 JUMP JUMPDEST POP SWAP2 SWAP4 POP POP POP JUMP JUMPDEST PUSH1 0x40 MLOAD PUSH4 0x5B059991 PUSH1 0xE0 SHL DUP2 MSTORE PUSH1 0x4 DUP2 ADD SWAP2 SWAP1 SWAP2 MSTORE PUSH1 0x24 DUP2 ADD SWAP2 SWAP1 SWAP2 MSTORE PUSH1 0x44 SWAP1 REVERT JUMPDEST SWAP1 SWAP2 SWAP3 PUSH2 0x1755 DUP5 DUP5 DUP5 PUSH2 0x2A19 JUMP JUMPDEST PUSH1 0x0 JUMPDEST DUP4 MLOAD DUP2 LT ISZERO PUSH2 0x1851 JUMPI PUSH2 0x177F SWAP1 PUSH1 0x1 DUP1 PUSH2 0x1772 DUP4 DUP9 PUSH2 0x1683 JUMP JUMPDEST MLOAD EQ PUSH2 0x1784 JUMPI JUMPDEST POP PUSH2 0x1659 JUMP JUMPDEST PUSH2 0x1758 JUMP JUMPDEST PUSH1 0x1 PUSH1 0x1 PUSH1 0xA0 SHL SUB DUP6 AND ISZERO DUP1 ISZERO SWAP1 PUSH1 0x0 SWAP1 PUSH2 0x184B JUMPI POP PUSH2 0x17AE PUSH2 0x17A7 DUP5 DUP10 PUSH2 0x1683 JUMP JUMPDEST MLOAD DUP8 PUSH2 0x161A JUMP JUMPDEST SWAP1 JUMPDEST PUSH2 0x17BB JUMPI JUMPDEST POP PUSH2 0x1779 JUMP JUMPDEST PUSH1 0x1 PUSH1 0x1 PUSH1 0xA0 SHL SUB DUP7 AND PUSH1 0x0 SWAP1 DUP2 MSTORE PUSH1 0x11 PUSH1 0x20 MSTORE PUSH1 0x40 SWAP1 KECCAK256 PUSH2 0x17F0 SWAP1 PUSH2 0x17E1 DUP6 DUP11 PUSH2 0x1683 JUMP JUMPDEST MLOAD PUSH1 0x0 MSTORE PUSH1 0x20 MSTORE PUSH1 0x40 PUSH1 0x0 KECCAK256 SWAP1 JUMP JUMPDEST SWAP2 DUP2 DUP4 SLOAD SWAP2 DUP3 ISZERO SWAP3 DUP4 ISZERO PUSH2 0x1828 JUMPI JUMPDEST POP POP POP ISZERO PUSH2 0x17B5 JUMPI PUSH2 0x1821 SWAP2 PUSH2 0x1813 PUSH2 0x570 JUMP JUMPDEST SWAP2 TIMESTAMP DUP4 MSTORE PUSH1 0x20 DUP4 ADD MSTORE PUSH2 0x29CF JUMP JUMPDEST CODESIZE DUP1 PUSH2 0x17B5 JUMP JUMPDEST PUSH2 0x183E SWAP2 SWAP3 SWAP4 POP PUSH2 0x1838 SWAP1 PUSH2 0x284D JUMP JUMPDEST DUP6 PUSH2 0x2871 JUMP JUMPDEST POP ADD SLOAD EQ ISZERO DUP2 CODESIZE DUP1 PUSH2 0x17FF JUMP JUMPDEST SWAP1 PUSH2 0x17B0 JUMP JUMPDEST POP SWAP1 SWAP3 SWAP1 SWAP2 PUSH1 0x1 PUSH1 0x1 PUSH1 0xA0 SHL SUB DUP5 AND PUSH2 0x186B JUMPI JUMPDEST POP POP POP POP JUMP JUMPDEST DUP1 MLOAD PUSH1 0x1 SUB PUSH2 0x1892 JUMPI SWAP1 PUSH1 0x20 DUP1 PUSH2 0x1889 SWAP6 SWAP4 ADD MLOAD SWAP2 ADD MLOAD SWAP2 CALLER PUSH2 0x1B1D JUMP JUMPDEST CODESIZE DUP1 DUP1 DUP1 PUSH2 0x1865 JUMP JUMPDEST PUSH2 0x189C SWAP4 CALLER PUSH2 0x1D2E JUMP JUMPDEST PUSH2 0x1889 JUMP JUMPDEST SWAP2 SWAP5 SWAP1 SWAP3 SWAP4 PUSH2 0x18B2 DUP6 DUP8 DUP7 DUP7 PUSH2 0x2AFD JUMP JUMPDEST PUSH1 0x0 JUMPDEST DUP7 MLOAD DUP2 LT ISZERO PUSH2 0x19F2 JUMPI PUSH2 0x18DB SWAP1 PUSH1 0x1 DUP1 PUSH2 0x18CF DUP4 DUP12 PUSH2 0x1683 JUMP JUMPDEST MLOAD EQ PUSH2 0x18E0 JUMPI POP PUSH2 0x1659 JUMP JUMPDEST PUSH2 0x18B5 JUMP JUMPDEST PUSH1 0x1 PUSH1 0x1 PUSH1 0xA0 SHL SUB DUP7 DUP2 AND ISZERO DUP1 ISZERO SWAP2 SWAP1 PUSH1 0x0 SWAP1 PUSH2 0x19EC JUMPI POP PUSH2 0x190C PUSH2 0x1905 DUP6 DUP14 PUSH2 0x1683 JUMP JUMPDEST MLOAD DUP10 PUSH2 0x161A JUMP JUMPDEST SWAP1 JUMPDEST DUP10 AND ISZERO ISZERO SWAP1 DUP5 DUP13 PUSH1 0x0 DUP5 PUSH1 0x0 EQ PUSH2 0x19E3 JUMPI POP PUSH2 0x1934 SWAP2 PUSH2 0x192D SWAP2 PUSH2 0x1683 JUMP JUMPDEST MLOAD DUP12 PUSH2 0x161A JUMP JUMPDEST SWAP3 JUMPDEST PUSH2 0x196C JUMPI JUMPDEST POP PUSH2 0x1946 JUMPI POP PUSH2 0x1779 JUMP JUMPDEST PUSH1 0x1 PUSH1 0x1 PUSH1 0xA0 SHL SUB DUP9 AND PUSH1 0x0 SWAP1 DUP2 MSTORE PUSH1 0x11 PUSH1 0x20 MSTORE PUSH1 0x40 SWAP1 KECCAK256 PUSH2 0x17F0 SWAP1 PUSH2 0x17E1 DUP6 DUP14 PUSH2 0x1683 JUMP JUMPDEST PUSH2 0x1996 DUP13 PUSH2 0x17E1 DUP8 PUSH2 0x1990 DUP14 PUSH1 0x1 DUP1 PUSH1 0xA0 SHL SUB AND PUSH1 0x0 MSTORE PUSH1 0x11 PUSH1 0x20 MSTORE PUSH1 0x40 PUSH1 0x0 KECCAK256 SWAP1 JUMP JUMPDEST SWAP3 PUSH2 0x1683 JUMP JUMPDEST SWAP1 DUP2 SLOAD DUP2 DUP7 DUP3 ISZERO SWAP3 DUP4 ISZERO PUSH2 0x19C6 JUMPI JUMPDEST POP POP POP PUSH2 0x19B3 JUMPI JUMPDEST POP PUSH2 0x193B JUMP JUMPDEST PUSH2 0x19BF SWAP2 PUSH2 0x1813 PUSH2 0x570 JUMP JUMPDEST CODESIZE DUP1 PUSH2 0x19AD JUMP JUMPDEST PUSH2 0x19D6 SWAP2 SWAP3 SWAP4 POP PUSH2 0x1838 SWAP1 PUSH2 0x284D JUMP JUMPDEST POP ADD SLOAD EQ ISZERO DUP2 DUP7 CODESIZE PUSH2 0x19A5 JUMP JUMPDEST SWAP2 POP POP SWAP3 PUSH2 0x1936 JUMP JUMPDEST SWAP1 PUSH2 0x190E JUMP JUMPDEST POP SWAP1 SWAP5 SWAP4 SWAP1 SWAP3 PUSH1 0x1 PUSH1 0x1 PUSH1 0xA0 SHL SUB DUP2 AND PUSH2 0x1A0E JUMPI JUMPDEST POP POP POP POP POP JUMP JUMPDEST DUP5 MLOAD PUSH1 0x1 SUB PUSH2 0x1A34 JUMPI PUSH1 0x20 DUP1 PUSH2 0x1A2A SWAP7 ADD MLOAD SWAP3 ADD MLOAD SWAP3 CALLER PUSH2 0x1C17 JUMP JUMPDEST CODESIZE DUP1 DUP1 DUP1 DUP1 PUSH2 0x1A07 JUMP JUMPDEST PUSH2 0x1A40 SWAP5 SWAP2 SWAP3 CALLER PUSH2 0x1D63 JUMP JUMPDEST PUSH2 0x1A2A JUMP JUMPDEST SWAP1 DUP2 PUSH1 0x20 SWAP2 SUB SLT PUSH2 0x23C JUMPI MLOAD PUSH2 0x3FF DUP2 PUSH2 0x292 JUMP JUMPDEST SWAP1 SWAP3 PUSH1 0xA0 SWAP3 PUSH2 0x3FF SWAP6 SWAP5 PUSH1 0x1 DUP1 DUP7 SHL SUB AND DUP4 MSTORE PUSH1 0x0 PUSH1 0x20 DUP5 ADD MSTORE PUSH1 0x40 DUP4 ADD MSTORE PUSH1 0x60 DUP3 ADD MSTORE DUP2 PUSH1 0x80 DUP3 ADD MSTORE ADD SWAP1 PUSH2 0x3C9 JUMP JUMPDEST SWAP2 SWAP3 PUSH2 0x3FF SWAP6 SWAP5 SWAP2 PUSH1 0xA0 SWAP5 PUSH1 0x1 DUP1 DUP8 SHL SUB DUP1 SWAP3 AND DUP6 MSTORE AND PUSH1 0x20 DUP5 ADD MSTORE PUSH1 0x40 DUP4 ADD MSTORE PUSH1 0x60 DUP3 ADD MSTORE DUP2 PUSH1 0x80 DUP3 ADD MSTORE ADD SWAP1 PUSH2 0x3C9 JUMP JUMPDEST PUSH1 0x40 MLOAD RETURNDATASIZE PUSH1 0x0 DUP3 RETURNDATACOPY RETURNDATASIZE SWAP1 REVERT JUMPDEST PUSH1 0x40 MLOAD SWAP1 PUSH1 0x20 DUP3 ADD DUP3 DUP2 LT PUSH1 0x1 PUSH1 0x1 PUSH1 0x40 SHL SUB DUP3 GT OR PUSH2 0x380 JUMPI PUSH1 0x40 MSTORE PUSH1 0x0 DUP3 MSTORE JUMP JUMPDEST RETURNDATASIZE ISZERO PUSH2 0x1B18 JUMPI RETURNDATASIZE SWAP1 PUSH2 0x1AFE DUP3 PUSH2 0x623 JUMP JUMPDEST SWAP2 PUSH2 0x1B0C PUSH1 0x40 MLOAD SWAP4 DUP5 PUSH2 0x385 JUMP JUMPDEST DUP3 MSTORE RETURNDATASIZE PUSH1 0x0 PUSH1 0x20 DUP5 ADD RETURNDATACOPY JUMP JUMPDEST PUSH1 0x60 SWAP1 JUMP JUMPDEST SWAP3 SWAP4 SWAP2 SWAP1 SWAP4 DUP5 EXTCODESIZE PUSH2 0x1B2F JUMPI POP POP POP POP POP JUMP JUMPDEST PUSH1 0x20 SWAP2 PUSH2 0x1B52 PUSH1 0x40 MLOAD SWAP5 DUP6 SWAP4 DUP5 SWAP4 PUSH4 0xF23A6E61 PUSH1 0xE0 SHL SWAP9 DUP10 DUP7 MSTORE PUSH1 0x4 DUP7 ADD PUSH2 0x1A5A JUMP JUMPDEST SUB DUP2 PUSH1 0x0 PUSH1 0x1 PUSH1 0x1 PUSH1 0xA0 SHL SUB DUP9 AND GAS CALL PUSH1 0x0 SWAP2 DUP2 PUSH2 0x1BE7 JUMPI JUMPDEST POP PUSH2 0x1BAA JUMPI DUP3 PUSH2 0x1B79 PUSH2 0x1AED JUMP JUMPDEST DUP1 MLOAD SWAP2 SWAP1 DUP3 PUSH2 0x1BA3 JUMPI PUSH1 0x40 MLOAD PUSH4 0x2BFA23E7 PUSH1 0xE1 SHL DUP2 MSTORE PUSH1 0x1 PUSH1 0x1 PUSH1 0xA0 SHL SUB DUP4 AND PUSH1 0x4 DUP3 ADD MSTORE PUSH1 0x24 SWAP1 REVERT JUMPDEST SWAP1 POP PUSH1 0x20 ADD REVERT JUMPDEST PUSH1 0x1 PUSH1 0x1 PUSH1 0xE0 SHL SUB NOT AND SUB PUSH2 0x1BC4 JUMPI POP CODESIZE DUP1 DUP1 DUP1 DUP1 PUSH2 0x1A07 JUMP JUMPDEST PUSH1 0x40 MLOAD PUSH4 0x2BFA23E7 PUSH1 0xE1 SHL DUP2 MSTORE PUSH1 0x1 PUSH1 0x1 PUSH1 0xA0 SHL SUB SWAP2 SWAP1 SWAP2 AND PUSH1 0x4 DUP3 ADD MSTORE PUSH1 0x24 SWAP1 REVERT JUMPDEST PUSH2 0x1C09 SWAP2 SWAP3 POP PUSH1 0x20 RETURNDATASIZE DUP2 GT PUSH2 0x1C10 JUMPI JUMPDEST PUSH2 0x1C01 DUP2 DUP4 PUSH2 0x385 JUMP JUMPDEST DUP2 ADD SWAP1 PUSH2 0x1A45 JUMP JUMPDEST SWAP1 CODESIZE PUSH2 0x1B6B JUMP JUMPDEST POP RETURNDATASIZE PUSH2 0x1BF7 JUMP JUMPDEST SWAP4 SWAP3 SWAP1 SWAP5 SWAP2 SWAP5 DUP6 EXTCODESIZE PUSH2 0x1C2C JUMPI JUMPDEST POP POP POP POP POP POP JUMP JUMPDEST PUSH2 0x1C4F PUSH1 0x20 SWAP4 PUSH1 0x40 MLOAD SWAP6 DUP7 SWAP5 DUP6 SWAP5 PUSH4 0xF23A6E61 PUSH1 0xE0 SHL SWAP10 DUP11 DUP8 MSTORE PUSH1 0x4 DUP8 ADD PUSH2 0x1A8B JUMP JUMPDEST SUB DUP2 PUSH1 0x0 PUSH1 0x1 PUSH1 0x1 PUSH1 0xA0 SHL SUB DUP9 AND GAS CALL PUSH1 0x0 SWAP2 DUP2 PUSH2 0x1C91 JUMPI JUMPDEST POP PUSH2 0x1C76 JUMPI DUP3 PUSH2 0x1B79 PUSH2 0x1AED JUMP JUMPDEST PUSH1 0x1 PUSH1 0x1 PUSH1 0xE0 SHL SUB NOT AND SUB PUSH2 0x1BC4 JUMPI POP CODESIZE DUP1 DUP1 DUP1 DUP1 DUP1 PUSH2 0x1C24 JUMP JUMPDEST PUSH2 0x1CAA SWAP2 SWAP3 POP PUSH1 0x20 RETURNDATASIZE DUP2 GT PUSH2 0x1C10 JUMPI PUSH2 0x1C01 DUP2 DUP4 PUSH2 0x385 JUMP JUMPDEST SWAP1 CODESIZE PUSH2 0x1C68 JUMP JUMPDEST SWAP3 PUSH2 0x1CE0 PUSH2 0x3FF SWAP6 SWAP4 PUSH2 0x1CEE SWAP4 PUSH1 0x1 DUP1 PUSH1 0xA0 SHL SUB AND DUP7 MSTORE PUSH1 0x0 PUSH1 0x20 DUP8 ADD MSTORE PUSH1 0xA0 PUSH1 0x40 DUP8 ADD MSTORE PUSH1 0xA0 DUP7 ADD SWAP1 PUSH2 0x92F JUMP JUMPDEST SWAP1 DUP5 DUP3 SUB PUSH1 0x60 DUP7 ADD MSTORE PUSH2 0x92F JUMP JUMPDEST SWAP2 PUSH1 0x80 DUP2 DUP5 SUB SWAP2 ADD MSTORE PUSH2 0x3C9 JUMP JUMPDEST SWAP4 SWAP1 PUSH2 0x3FF SWAP6 SWAP4 PUSH2 0x1CE0 SWAP2 PUSH2 0x1CEE SWAP5 PUSH1 0x1 DUP1 PUSH1 0xA0 SHL SUB DUP1 SWAP3 AND DUP9 MSTORE AND PUSH1 0x20 DUP8 ADD MSTORE PUSH1 0xA0 PUSH1 0x40 DUP8 ADD MSTORE PUSH1 0xA0 DUP7 ADD SWAP1 PUSH2 0x92F JUMP JUMPDEST SWAP3 SWAP4 SWAP2 SWAP1 SWAP4 DUP5 EXTCODESIZE PUSH2 0x1D40 JUMPI POP POP POP POP POP JUMP JUMPDEST PUSH1 0x20 SWAP2 PUSH2 0x1B52 PUSH1 0x40 MLOAD SWAP5 DUP6 SWAP4 DUP5 SWAP4 PUSH4 0xBC197C81 PUSH1 0xE0 SHL SWAP9 DUP10 DUP7 MSTORE PUSH1 0x4 DUP7 ADD PUSH2 0x1CB1 JUMP JUMPDEST SWAP4 SWAP3 SWAP1 SWAP5 SWAP2 SWAP5 DUP6 EXTCODESIZE PUSH2 0x1D77 JUMPI POP POP POP POP POP POP JUMP JUMPDEST PUSH2 0x1C4F PUSH1 0x20 SWAP4 PUSH1 0x40 MLOAD SWAP6 DUP7 SWAP5 DUP6 SWAP5 PUSH4 0xBC197C81 PUSH1 0xE0 SHL SWAP10 DUP11 DUP8 MSTORE PUSH1 0x4 DUP8 ADD PUSH2 0x1CFC JUMP JUMPDEST SWAP1 DUP2 PUSH1 0x20 SWAP2 SUB SLT PUSH2 0x23C JUMPI MLOAD PUSH2 0x3FF DUP2 PUSH2 0x22B JUMP JUMPDEST DUP2 PUSH1 0x1F DUP3 ADD SLT ISZERO PUSH2 0x23C JUMPI DUP1 MLOAD PUSH2 0x1DC5 DUP2 PUSH2 0x623 JUMP JUMPDEST SWAP3 PUSH2 0x1DD3 PUSH1 0x40 MLOAD SWAP5 DUP6 PUSH2 0x385 JUMP JUMPDEST DUP2 DUP5 MSTORE PUSH1 0x20 DUP3 DUP5 ADD ADD GT PUSH2 0x23C JUMPI PUSH2 0x3FF SWAP2 PUSH1 0x20 DUP1 DUP6 ADD SWAP2 ADD PUSH2 0x3A6 JUMP JUMPDEST SWAP1 PUSH1 0x20 DUP3 DUP3 SUB SLT PUSH2 0x23C JUMPI DUP2 MLOAD PUSH1 0x1 PUSH1 0x1 PUSH1 0x40 SHL SUB SWAP3 DUP4 DUP3 GT PUSH2 0x23C JUMPI ADD SWAP1 PUSH1 0xC0 DUP3 DUP3 SUB SLT PUSH2 0x23C JUMPI PUSH2 0x1E22 PUSH2 0x58F JUMP JUMPDEST SWAP3 DUP3 MLOAD DUP2 DUP2 GT PUSH2 0x23C JUMPI DUP3 PUSH2 0x1E38 SWAP2 DUP6 ADD PUSH2 0x1DAF JUMP JUMPDEST DUP5 MSTORE PUSH1 0x20 DUP4 ADD MLOAD DUP2 DUP2 GT PUSH2 0x23C JUMPI DUP3 PUSH2 0x1E52 SWAP2 DUP6 ADD PUSH2 0x1DAF JUMP JUMPDEST PUSH1 0x20 DUP6 ADD MSTORE PUSH1 0x40 DUP4 ADD MLOAD DUP2 DUP2 GT PUSH2 0x23C JUMPI DUP3 PUSH2 0x1E6F SWAP2 DUP6 ADD PUSH2 0x1DAF JUMP JUMPDEST PUSH1 0x40 DUP6 ADD MSTORE PUSH1 0x60 DUP4 ADD MLOAD DUP2 DUP2 GT PUSH2 0x23C JUMPI DUP3 PUSH2 0x1E8C SWAP2 DUP6 ADD PUSH2 0x1DAF JUMP JUMPDEST PUSH1 0x60 DUP6 ADD MSTORE PUSH1 0x80 DUP4 ADD MLOAD DUP2 DUP2 GT PUSH2 0x23C JUMPI DUP3 PUSH2 0x1EA9 SWAP2 DUP6 ADD PUSH2 0x1DAF JUMP JUMPDEST PUSH1 0x80 DUP6 ADD MSTORE PUSH1 0xA0 DUP4 ADD MLOAD SWAP1 DUP2 GT PUSH2 0x23C JUMPI PUSH2 0x1EC4 SWAP3 ADD PUSH2 0x1DAF JUMP JUMPDEST PUSH1 0xA0 DUP3 ADD MSTORE SWAP1 JUMP JUMPDEST PUSH1 0x1F DUP2 GT PUSH2 0x1ED8 JUMPI POP POP JUMP JUMPDEST PUSH1 0x0 SWAP1 PUSH1 0x10 DUP3 MSTORE PUSH1 0x0 DUP1 MLOAD PUSH1 0x20 PUSH2 0x2E91 DUP4 CODECOPY DUP2 MLOAD SWAP2 MSTORE SWAP1 PUSH1 0x20 PUSH1 0x1F DUP6 ADD PUSH1 0x5 SHR DUP4 ADD SWAP5 LT PUSH2 0x1F21 JUMPI JUMPDEST PUSH1 0x1F ADD PUSH1 0x5 SHR ADD SWAP2 JUMPDEST DUP3 DUP2 LT PUSH2 0x1F16 JUMPI POP POP POP JUMP JUMPDEST DUP2 DUP2 SSTORE PUSH1 0x1 ADD PUSH2 0x1F0A JUMP JUMPDEST SWAP1 SWAP3 POP DUP3 SWAP1 PUSH2 0x1F01 JUMP JUMPDEST PUSH1 0x1F DUP2 GT PUSH2 0x1F37 JUMPI POP POP JUMP JUMPDEST PUSH1 0x0 SWAP1 PUSH1 0xF DUP3 MSTORE PUSH32 0x8D1108E10BCB7C27DDDFC02ED9D693A074039D026CF4EA4240B40F7D581AC802 SWAP1 PUSH1 0x20 PUSH1 0x1F DUP6 ADD PUSH1 0x5 SHR DUP4 ADD SWAP5 LT PUSH2 0x1F92 JUMPI JUMPDEST PUSH1 0x1F ADD PUSH1 0x5 SHR ADD SWAP2 JUMPDEST DUP3 DUP2 LT PUSH2 0x1F87 JUMPI POP POP POP JUMP JUMPDEST DUP2 DUP2 SSTORE PUSH1 0x1 ADD PUSH2 0x1F7B JUMP JUMPDEST SWAP1 SWAP3 POP DUP3 SWAP1 PUSH2 0x1F72 JUMP JUMPDEST SWAP1 DUP2 MLOAD PUSH1 0x1 PUSH1 0x1 PUSH1 0x40 SHL SUB DUP2 GT PUSH2 0x380 JUMPI PUSH2 0x1FC1 DUP2 PUSH2 0x1FBC PUSH1 0xF SLOAD PUSH2 0x31D JUMP JUMPDEST PUSH2 0x1F2B JUMP JUMPDEST PUSH1 0x20 DUP1 PUSH1 0x1F DUP4 GT PUSH1 0x1 EQ PUSH2 0x1FFD JUMPI POP DUP2 SWAP3 SWAP4 PUSH1 0x0 SWAP3 PUSH2 0x1FF2 JUMPI JUMPDEST POP POP DUP2 PUSH1 0x1 SHL SWAP2 PUSH1 0x0 NOT SWAP1 PUSH1 0x3 SHL SHR NOT AND OR PUSH1 0xF SSTORE JUMP JUMPDEST ADD MLOAD SWAP1 POP CODESIZE DUP1 PUSH2 0x1FDB JUMP JUMPDEST SWAP1 PUSH1 0x1F NOT DUP4 AND SWAP5 PUSH2 0x2030 PUSH1 0xF PUSH1 0x0 MSTORE PUSH32 0x8D1108E10BCB7C27DDDFC02ED9D693A074039D026CF4EA4240B40F7D581AC802 SWAP1 JUMP JUMPDEST SWAP3 PUSH1 0x0 SWAP1 JUMPDEST DUP8 DUP3 LT PUSH2 0x206D JUMPI POP POP DUP4 PUSH1 0x1 SWAP6 SWAP7 LT PUSH2 0x2054 JUMPI JUMPDEST POP POP POP DUP2 SHL ADD PUSH1 0xF SSTORE JUMP JUMPDEST ADD MLOAD PUSH1 0x0 NOT PUSH1 0xF8 DUP5 PUSH1 0x3 SHL AND SHR NOT AND SWAP1 SSTORE CODESIZE DUP1 DUP1 PUSH2 0x2049 JUMP JUMPDEST DUP1 PUSH1 0x1 DUP6 SWAP7 DUP3 SWAP5 SWAP7 DUP7 ADD MLOAD DUP2 SSTORE ADD SWAP6 ADD SWAP4 ADD SWAP1 PUSH2 0x2035 JUMP JUMPDEST SWAP1 DUP2 MLOAD PUSH1 0x1 PUSH1 0x1 PUSH1 0x40 SHL SUB DUP2 GT PUSH2 0x380 JUMPI PUSH2 0x20A5 DUP2 PUSH2 0xADA PUSH1 0x10 SLOAD PUSH2 0x31D JUMP JUMPDEST PUSH1 0x20 DUP1 PUSH1 0x1F DUP4 GT PUSH1 0x1 EQ PUSH2 0x20E1 JUMPI POP DUP2 SWAP3 SWAP4 PUSH1 0x0 SWAP3 PUSH2 0x20D6 JUMPI JUMPDEST POP POP DUP2 PUSH1 0x1 SHL SWAP2 PUSH1 0x0 NOT SWAP1 PUSH1 0x3 SHL SHR NOT AND OR PUSH1 0x10 SSTORE JUMP JUMPDEST ADD MLOAD SWAP1 POP CODESIZE DUP1 PUSH2 0x20BF JUMP JUMPDEST SWAP1 PUSH1 0x1F NOT DUP4 AND SWAP5 PUSH2 0x2102 PUSH1 0x10 PUSH1 0x0 MSTORE PUSH1 0x0 DUP1 MLOAD PUSH1 0x20 PUSH2 0x2E91 DUP4 CODECOPY DUP2 MLOAD SWAP2 MSTORE SWAP1 JUMP JUMPDEST SWAP3 PUSH1 0x0 SWAP1 JUMPDEST DUP8 DUP3 LT PUSH2 0x213F JUMPI POP POP DUP4 PUSH1 0x1 SWAP6 SWAP7 LT PUSH2 0x2126 JUMPI JUMPDEST POP POP POP DUP2 SHL ADD PUSH1 0x10 SSTORE JUMP JUMPDEST ADD MLOAD PUSH1 0x0 NOT PUSH1 0xF8 DUP5 PUSH1 0x3 SHL AND SHR NOT AND SWAP1 SSTORE CODESIZE DUP1 DUP1 PUSH2 0x211B JUMP JUMPDEST DUP1 PUSH1 0x1 DUP6 SWAP7 DUP3 SWAP5 SWAP7 DUP7 ADD MLOAD DUP2 SSTORE ADD SWAP6 ADD SWAP4 ADD SWAP1 PUSH2 0x2107 JUMP JUMPDEST SWAP2 SWAP1 PUSH2 0x2162 DUP4 PUSH2 0x15D1 JUMP JUMPDEST PUSH1 0x8 DUP1 SLOAD PUSH1 0x1 PUSH1 0x1 PUSH1 0xA0 SHL SUB NOT AND PUSH1 0x1 PUSH1 0x1 PUSH1 0xA0 SHL SUB DUP4 AND OR SWAP1 SSTORE PUSH2 0x2187 PUSH1 0x0 PUSH1 0x7 SSTORE JUMP JUMPDEST PUSH1 0xD DUP1 SLOAD PUSH1 0x1 PUSH1 0x1 PUSH1 0xA0 SHL SUB NOT AND PUSH1 0x1 PUSH1 0x1 PUSH1 0xA0 SHL SUB DUP5 AND OR SWAP1 SSTORE PUSH1 0x40 MLOAD PUSH4 0x222E555 PUSH1 0xE2 SHL DUP2 MSTORE PUSH1 0x1 PUSH1 0x1 PUSH1 0xA0 SHL SUB SWAP3 PUSH1 0x20 SWAP2 SWAP1 DUP5 AND DUP3 DUP3 PUSH1 0x4 DUP2 DUP5 GAS STATICCALL SWAP1 DUP2 ISZERO PUSH2 0x10BF JUMPI PUSH2 0x2200 DUP5 SWAP3 PUSH1 0x4 SWAP5 PUSH1 0x0 SWAP2 PUSH2 0x2365 JUMPI JUMPDEST POP PUSH1 0x1 DUP1 PUSH1 0xA0 SHL SUB AND PUSH12 0xFFFFFFFFFFFFFFFFFFFFFFFF PUSH1 0xA0 SHL PUSH1 0xC SLOAD AND OR PUSH1 0xC SSTORE JUMP JUMPDEST PUSH1 0x40 MLOAD PUSH4 0x3B8C8D37 PUSH1 0xE1 SHL DUP2 MSTORE SWAP3 DUP4 SWAP2 DUP3 SWAP1 GAS STATICCALL SWAP1 DUP2 ISZERO PUSH2 0x10BF JUMPI PUSH2 0x224B SWAP3 PUSH1 0x0 SWAP3 PUSH2 0x2338 JUMPI JUMPDEST POP POP PUSH1 0x1 DUP1 PUSH1 0xA0 SHL SUB AND PUSH12 0xFFFFFFFFFFFFFFFFFFFFFFFF PUSH1 0xA0 SHL PUSH1 0xE SLOAD AND OR PUSH1 0xE SSTORE JUMP JUMPDEST PUSH1 0xC SLOAD PUSH2 0x2262 SWAP1 PUSH2 0xFDD SWAP1 PUSH1 0x1 PUSH1 0x1 PUSH1 0xA0 SHL SUB AND DUP2 JUMP JUMPDEST PUSH1 0x40 MLOAD PUSH4 0x1A4E6DD PUSH1 0xE5 SHL DUP2 MSTORE PUSH1 0x1 PUSH1 0x1 PUSH1 0xA0 SHL SUB DUP6 AND PUSH1 0x4 DUP3 ADD MSTORE SWAP2 SWAP1 PUSH1 0x0 SWAP1 DUP4 SWAP1 PUSH1 0x24 SWAP1 DUP3 SWAP1 GAS STATICCALL SWAP2 DUP3 ISZERO PUSH2 0x10BF JUMPI DUP4 SWAP3 PUSH2 0x22B2 SWAP2 PUSH1 0x0 SWAP2 PUSH2 0x231F JUMPI JUMPDEST POP PUSH2 0x22AC DUP2 MLOAD PUSH2 0x1F9C JUMP JUMPDEST MLOAD PUSH2 0x2085 JUMP JUMPDEST PUSH2 0x22C3 PUSH2 0x22BD PUSH2 0x1ACA JUMP JUMPDEST DUP6 PUSH2 0x243F JUMP JUMPDEST PUSH1 0x0 DUP1 MSTORE PUSH1 0x9 PUSH1 0x20 MSTORE PUSH2 0x22F5 PUSH32 0xEC8156718A8372B1DB44BB411437D0870F3E3790D4A08526D024CE1B0B668F6B PUSH2 0x8B4 JUMP JUMPDEST AND SWAP2 AND PUSH32 0x341D6E731C47328FBA4D0999E91ED7C4A5706E8791A0FD054E201A971DF02DFE PUSH1 0x0 DUP1 LOG3 JUMP JUMPDEST PUSH2 0x2332 SWAP2 RETURNDATASIZE DUP1 SWAP2 DUP4 RETURNDATACOPY PUSH2 0x13D2 DUP2 DUP4 PUSH2 0x385 JUMP JUMPDEST CODESIZE PUSH2 0x22A1 JUMP JUMPDEST PUSH2 0x2357 SWAP3 POP DUP1 RETURNDATASIZE LT PUSH2 0x235E JUMPI JUMPDEST PUSH2 0x234F DUP2 DUP4 PUSH2 0x385 JUMP JUMPDEST DUP2 ADD SWAP1 PUSH2 0x1D9A JUMP JUMPDEST CODESIZE DUP1 PUSH2 0x2227 JUMP JUMPDEST POP RETURNDATASIZE PUSH2 0x2345 JUMP JUMPDEST PUSH2 0x237C SWAP2 POP DUP5 RETURNDATASIZE DUP7 GT PUSH2 0x235E JUMPI PUSH2 0x234F DUP2 DUP4 PUSH2 0x385 JUMP JUMPDEST CODESIZE PUSH2 0x21DD JUMP JUMPDEST SWAP2 SWAP1 PUSH1 0x1 PUSH1 0x1 PUSH1 0xA0 SHL SUB DUP4 AND ISZERO PUSH2 0x14EB JUMPI PUSH2 0x23C0 SWAP3 PUSH1 0x40 MLOAD SWAP1 PUSH1 0x1 DUP3 MSTORE PUSH1 0x1 PUSH1 0x20 DUP4 ADD MSTORE PUSH1 0x40 DUP3 ADD SWAP3 PUSH1 0x1 DUP5 MSTORE PUSH1 0x60 DUP4 ADD MSTORE PUSH1 0x80 DUP3 ADD PUSH1 0x40 MSTORE PUSH2 0x1747 JUMP JUMPDEST JUMP JUMPDEST SWAP2 SWAP1 PUSH1 0x1 PUSH1 0x1 PUSH1 0xA0 SHL SUB DUP4 AND ISZERO PUSH2 0x14EB JUMPI PUSH2 0x23C0 SWAP3 PUSH1 0x40 MLOAD SWAP1 PUSH1 0x1 DUP3 MSTORE PUSH1 0x2 PUSH1 0x20 DUP4 ADD MSTORE PUSH1 0x40 DUP3 ADD SWAP3 PUSH1 0x1 DUP5 MSTORE PUSH1 0x60 DUP4 ADD MSTORE PUSH1 0x80 DUP3 ADD PUSH1 0x40 MSTORE PUSH2 0x1747 JUMP JUMPDEST SWAP1 SWAP2 SWAP1 PUSH1 0x1 PUSH1 0x1 PUSH1 0xA0 SHL SUB DUP2 AND ISZERO PUSH2 0x14EB JUMPI PUSH2 0x23C0 SWAP3 PUSH1 0x40 MLOAD SWAP1 PUSH1 0x1 DUP3 MSTORE PUSH1 0x20 DUP3 ADD MSTORE PUSH1 0x40 DUP2 ADD SWAP2 PUSH1 0x1 DUP4 MSTORE PUSH1 0x1 PUSH1 0x60 DUP4 ADD MSTORE PUSH1 0x80 DUP3 ADD PUSH1 0x40 MSTORE PUSH2 0x1747 JUMP JUMPDEST SWAP1 PUSH1 0x1 PUSH1 0x1 PUSH1 0xA0 SHL SUB DUP3 AND ISZERO PUSH2 0x14EB JUMPI PUSH2 0x23C0 SWAP2 PUSH1 0x40 MLOAD PUSH1 0x1 DUP2 MSTORE PUSH1 0x0 PUSH1 0x20 DUP3 ADD MSTORE PUSH1 0x40 DUP2 ADD SWAP2 PUSH1 0x1 DUP4 MSTORE PUSH1 0x1 PUSH1 0x60 DUP4 ADD MSTORE PUSH1 0x80 DUP3 ADD PUSH1 0x40 MSTORE PUSH2 0x1747 JUMP JUMPDEST ISZERO PUSH2 0x2484 JUMPI JUMP JUMPDEST PUSH1 0x40 MLOAD PUSH3 0x461BCD PUSH1 0xE5 SHL DUP2 MSTORE PUSH1 0x20 PUSH1 0x4 DUP3 ADD MSTORE PUSH1 0x14 PUSH1 0x24 DUP3 ADD MSTORE PUSH20 0x151BDAD95B88191BD95CC81B9BDD08195E1A5CDD PUSH1 0x62 SHL PUSH1 0x44 DUP3 ADD MSTORE PUSH1 0x64 SWAP1 REVERT JUMPDEST SWAP1 PUSH1 0x20 DUP3 DUP3 SUB SLT PUSH2 0x23C JUMPI DUP2 MLOAD PUSH1 0x1 PUSH1 0x1 PUSH1 0x40 SHL SUB DUP2 GT PUSH2 0x23C JUMPI PUSH2 0x3FF SWAP3 ADD PUSH2 0x1DAF JUMP JUMPDEST PUSH2 0x2504 PUSH2 0x24FF PUSH2 0xF97 DUP4 PUSH1 0x0 MSTORE PUSH1 0x9 PUSH1 0x20 MSTORE PUSH1 0x40 PUSH1 0x0 KECCAK256 SWAP1 JUMP JUMPDEST PUSH2 0x247D JUMP JUMPDEST PUSH1 0x3 DUP2 LT ISZERO PUSH2 0x258C JUMPI PUSH1 0xC SLOAD PUSH2 0x2563 SWAP2 PUSH1 0x0 SWAP2 PUSH2 0x252B SWAP1 PUSH2 0xFDD SWAP1 PUSH1 0x1 PUSH1 0x1 PUSH1 0xA0 SHL SUB AND DUP2 JUMP JUMPDEST PUSH1 0x5 SLOAD PUSH1 0x40 MLOAD PUSH4 0x5B1FEB1 PUSH1 0xE1 SHL DUP2 MSTORE PUSH1 0x1 PUSH1 0x1 PUSH1 0xA0 SHL SUB SWAP1 SWAP2 AND PUSH1 0x4 DUP3 ADD MSTORE PUSH1 0x24 DUP2 ADD SWAP3 SWAP1 SWAP3 MSTORE SWAP1 SWAP3 DUP4 SWAP2 SWAP1 DUP3 SWAP1 DUP2 SWAP1 PUSH1 0x44 DUP3 ADD SWAP1 JUMP JUMPDEST SUB SWAP2 GAS STATICCALL SWAP1 DUP2 ISZERO PUSH2 0x10BF JUMPI PUSH1 0x0 SWAP2 PUSH2 0x2579 JUMPI POP SWAP1 JUMP JUMPDEST PUSH2 0x3FF SWAP2 RETURNDATASIZE DUP1 SWAP2 DUP4 RETURNDATACOPY PUSH2 0x13AF DUP2 DUP4 PUSH2 0x385 JUMP JUMPDEST PUSH1 0xE SLOAD PUSH2 0x2563 SWAP2 PUSH1 0x0 SWAP2 PUSH2 0x25AA SWAP1 PUSH2 0xFDD SWAP1 PUSH1 0x1 PUSH1 0x1 PUSH1 0xA0 SHL SUB AND DUP2 JUMP JUMPDEST PUSH1 0x5 SLOAD PUSH1 0x40 MLOAD PUSH4 0x7AB269DD PUSH1 0xE0 SHL DUP2 MSTORE PUSH1 0x1 PUSH1 0x1 PUSH1 0xA0 SHL SUB SWAP1 SWAP2 AND PUSH1 0x4 DUP3 ADD MSTORE PUSH1 0x24 DUP2 ADD SWAP3 SWAP1 SWAP3 MSTORE SWAP1 SWAP3 DUP4 SWAP2 SWAP1 DUP3 SWAP1 DUP2 SWAP1 PUSH1 0x44 DUP3 ADD SWAP1 JUMP JUMPDEST SWAP3 SWAP2 PUSH1 0x20 PUSH2 0x267B PUSH2 0x23C0 SWAP4 PUSH1 0x40 DUP8 MSTORE DUP7 PUSH1 0xA0 PUSH2 0x2669 PUSH2 0x2655 PUSH2 0x2642 PUSH2 0x262E PUSH2 0x2617 DUP8 MLOAD PUSH1 0xC0 PUSH1 0x40 DUP10 ADD MSTORE PUSH2 0x100 DUP9 ADD SWAP1 PUSH2 0x3C9 JUMP JUMPDEST DUP10 DUP9 ADD MLOAD PUSH1 0x3F NOT SWAP8 PUSH1 0x60 DUP10 DUP3 DUP6 SUB ADD SWAP2 ADD MSTORE PUSH2 0x3C9 JUMP JUMPDEST PUSH1 0x40 DUP8 ADD MLOAD DUP14 DUP3 SUB DUP8 ADD PUSH1 0x80 DUP16 ADD MSTORE PUSH2 0x3C9 JUMP JUMPDEST PUSH1 0x60 DUP7 ADD MLOAD DUP13 DUP3 SUB DUP7 ADD DUP6 DUP15 ADD MSTORE PUSH2 0x3C9 JUMP JUMPDEST PUSH1 0x80 DUP6 ADD MLOAD DUP5 DUP13 DUP4 SUB ADD PUSH1 0xC0 DUP14 ADD MSTORE PUSH2 0x3C9 JUMP JUMPDEST SWAP3 ADD MLOAD SWAP1 DUP9 DUP4 SUB ADD PUSH1 0xE0 DUP10 ADD MSTORE PUSH2 0x3C9 JUMP JUMPDEST PUSH1 0x1 PUSH1 0x1 PUSH1 0xA0 SHL SUB SWAP1 SWAP3 AND SWAP5 ADD SWAP4 SWAP1 SWAP4 MSTORE JUMP JUMPDEST ISZERO PUSH2 0x2695 JUMPI JUMP JUMPDEST PUSH1 0x40 MLOAD PUSH3 0x461BCD PUSH1 0xE5 SHL DUP2 MSTORE PUSH1 0x20 PUSH1 0x4 DUP3 ADD MSTORE PUSH1 0x18 PUSH1 0x24 DUP3 ADD MSTORE PUSH32 0x546F6B656E20494420616C726561647920637265617465640000000000000000 PUSH1 0x44 DUP3 ADD MSTORE PUSH1 0x64 SWAP1 REVERT JUMPDEST ISZERO PUSH2 0x26E1 JUMPI JUMP JUMPDEST PUSH1 0x40 MLOAD PUSH3 0x461BCD PUSH1 0xE5 SHL DUP2 MSTORE PUSH1 0x20 PUSH1 0x4 DUP3 ADD MSTORE PUSH1 0x16 PUSH1 0x24 DUP3 ADD MSTORE PUSH22 0x14DA185C995CC8185B1C9958591E4818DC99585D1959 PUSH1 0x52 SHL PUSH1 0x44 DUP3 ADD MSTORE PUSH1 0x64 SWAP1 REVERT JUMPDEST ISZERO PUSH2 0x2726 JUMPI JUMP JUMPDEST PUSH1 0x40 MLOAD PUSH3 0x461BCD PUSH1 0xE5 SHL DUP2 MSTORE PUSH1 0x20 PUSH1 0x4 DUP3 ADD MSTORE PUSH1 0x15 PUSH1 0x24 DUP3 ADD MSTORE PUSH21 0x125B9D985B1A59081CDA185C995CC8185B5BDD5B9D PUSH1 0x5A SHL PUSH1 0x44 DUP3 ADD MSTORE PUSH1 0x64 SWAP1 REVERT JUMPDEST ISZERO PUSH2 0x276A JUMPI JUMP JUMPDEST PUSH1 0x40 MLOAD PUSH3 0x461BCD PUSH1 0xE5 SHL DUP2 MSTORE PUSH1 0x20 PUSH1 0x4 DUP3 ADD MSTORE PUSH1 0x11 PUSH1 0x24 DUP3 ADD MSTORE PUSH17 0x125B9D985B1A59081C9958DA5C1A595B9D PUSH1 0x7A SHL PUSH1 0x44 DUP3 ADD MSTORE PUSH1 0x64 SWAP1 REVERT JUMPDEST ISZERO PUSH2 0x27AA JUMPI JUMP JUMPDEST PUSH1 0x40 MLOAD PUSH3 0x461BCD PUSH1 0xE5 SHL DUP2 MSTORE PUSH1 0x20 PUSH1 0x4 DUP3 ADD MSTORE PUSH1 0x1C PUSH1 0x24 DUP3 ADD MSTORE PUSH32 0x4275796F757420746F6B656E20616C7265616479206372656174656400000000 PUSH1 0x44 DUP3 ADD MSTORE PUSH1 0x64 SWAP1 REVERT JUMPDEST ISZERO PUSH2 0x27F6 JUMPI JUMP JUMPDEST PUSH1 0x40 MLOAD PUSH3 0x461BCD PUSH1 0xE5 SHL DUP2 MSTORE PUSH1 0x20 PUSH1 0x4 DUP3 ADD MSTORE PUSH1 0xB PUSH1 0x24 DUP3 ADD MSTORE PUSH11 0x496E76616C696420555249 PUSH1 0xA8 SHL PUSH1 0x44 DUP3 ADD MSTORE PUSH1 0x64 SWAP1 REVERT JUMPDEST PUSH2 0x3FF SWAP4 SWAP3 PUSH1 0x60 SWAP3 PUSH1 0x1 DUP1 PUSH1 0xA0 SHL SUB AND DUP3 MSTORE PUSH1 0x20 DUP3 ADD MSTORE DUP2 PUSH1 0x40 DUP3 ADD MSTORE ADD SWAP1 PUSH2 0x3C9 JUMP JUMPDEST PUSH1 0x0 NOT DUP2 ADD SWAP2 SWAP1 DUP3 GT PUSH2 0x1668 JUMPI JUMP JUMPDEST DUP1 SLOAD ISZERO PUSH2 0x1697 JUMPI PUSH1 0x0 MSTORE PUSH1 0x20 PUSH1 0x0 KECCAK256 SWAP1 PUSH1 0x0 SWAP1 JUMP JUMPDEST DUP1 SLOAD DUP3 LT ISZERO PUSH2 0x1697 JUMPI PUSH1 0x0 MSTORE PUSH1 0x20 PUSH1 0x0 KECCAK256 SWAP1 PUSH1 0x1 SHL ADD SWAP1 PUSH1 0x0 SWAP1 JUMP JUMPDEST SWAP1 PUSH1 0x1 DUP3 ADD DUP1 SWAP3 GT PUSH2 0x1668 JUMPI JUMP JUMPDEST SWAP2 SWAP1 DUP3 ADD DUP1 SWAP3 GT PUSH2 0x1668 JUMPI JUMP JUMPDEST PUSH1 0x1 PUSH1 0x1 PUSH1 0xA0 SHL SUB DUP2 AND PUSH1 0x0 SWAP1 DUP2 MSTORE PUSH1 0x11 PUSH1 0x20 MSTORE PUSH1 0x40 SWAP1 KECCAK256 PUSH2 0x28D3 SWAP1 DUP4 PUSH1 0x0 MSTORE PUSH1 0x20 MSTORE PUSH1 0x40 PUSH1 0x0 KECCAK256 SWAP1 JUMP JUMPDEST SWAP2 DUP3 SLOAD SWAP2 DUP3 ISZERO PUSH2 0x298B JUMPI POP POP PUSH2 0x28E8 SWAP1 PUSH2 0x284D JUMP JUMPDEST SWAP2 PUSH2 0x28F3 DUP4 DUP4 PUSH2 0x2871 JUMP JUMPDEST POP SLOAD DUP2 LT ISZERO PUSH2 0x297E JUMPI PUSH2 0x2905 DUP3 PUSH2 0x285C JUMP JUMPDEST POP SLOAD DUP2 LT PUSH2 0x2976 JUMPI PUSH1 0x0 SWAP3 SWAP1 JUMPDEST DUP4 DUP3 GT PUSH2 0x292D JUMPI POP POP PUSH1 0x1 SWAP2 PUSH2 0x2927 SWAP2 PUSH2 0x2871 JUMP JUMPDEST POP ADD SLOAD SWAP1 JUMP JUMPDEST SWAP1 SWAP3 PUSH2 0x294A PUSH2 0x2944 PUSH2 0x293F DUP4 DUP8 PUSH2 0x289B JUMP JUMPDEST PUSH2 0x288D JUMP JUMPDEST PUSH1 0x1 SHR SWAP1 JUMP JUMPDEST SWAP1 DUP3 PUSH2 0x2956 DUP4 DUP7 PUSH2 0x2871 JUMP JUMPDEST POP SLOAD GT PUSH2 0x2966 JUMPI POP SWAP3 JUMPDEST SWAP1 PUSH2 0x2912 JUMP JUMPDEST SWAP4 POP PUSH2 0x2971 SWAP1 PUSH2 0x284D JUMP JUMPDEST PUSH2 0x2960 JUMP JUMPDEST POP POP POP PUSH1 0x0 SWAP1 JUMP JUMPDEST POP PUSH1 0x1 SWAP2 PUSH2 0x2927 SWAP2 PUSH2 0x2871 JUMP JUMPDEST SWAP1 SWAP4 SWAP1 SWAP3 POP PUSH1 0x0 SWAP2 POP TIMESTAMP GT PUSH2 0x29C9 JUMPI POP PUSH2 0x29B2 PUSH2 0x163F SWAP3 PUSH1 0x0 MSTORE PUSH1 0x0 PUSH1 0x20 MSTORE PUSH1 0x40 PUSH1 0x0 KECCAK256 SWAP1 JUMP JUMPDEST SWAP1 PUSH1 0x1 DUP1 PUSH1 0xA0 SHL SUB AND PUSH1 0x0 MSTORE PUSH1 0x20 MSTORE PUSH1 0x40 PUSH1 0x0 KECCAK256 SWAP1 JUMP JUMPDEST SWAP2 POP POP SWAP1 JUMP JUMPDEST DUP1 SLOAD PUSH1 0x1 PUSH1 0x40 SHL DUP2 LT ISZERO PUSH2 0x380 JUMPI PUSH2 0x29EC SWAP2 PUSH1 0x1 DUP3 ADD DUP2 SSTORE PUSH2 0x2871 JUMP JUMPDEST SWAP2 SWAP1 SWAP2 PUSH2 0x2A03 JUMPI PUSH1 0x20 DUP2 PUSH1 0x1 SWAP3 MLOAD DUP5 SSTORE ADD MLOAD SWAP2 ADD SSTORE JUMP JUMPDEST PUSH4 0x4E487B71 PUSH1 0xE0 SHL PUSH1 0x0 MSTORE PUSH1 0x0 PUSH1 0x4 MSTORE PUSH1 0x24 PUSH1 0x0 REVERT JUMPDEST SWAP2 SWAP3 PUSH2 0x2A26 DUP5 DUP4 DUP6 PUSH2 0x2BC4 JUMP JUMPDEST PUSH1 0x0 SWAP1 DUP2 JUMPDEST DUP4 MLOAD DUP4 LT ISZERO PUSH2 0x2A83 JUMPI PUSH2 0x2A77 PUSH2 0x2A7D SWAP2 PUSH2 0x2A45 DUP6 DUP10 PUSH2 0x1683 JUMP JUMPDEST MLOAD SWAP1 PUSH2 0x2A65 PUSH2 0x2A54 DUP8 DUP10 PUSH2 0x1683 JUMP JUMPDEST MLOAD PUSH1 0x0 MSTORE PUSH1 0x3 PUSH1 0x20 MSTORE PUSH1 0x40 PUSH1 0x0 KECCAK256 SWAP1 JUMP JUMPDEST PUSH2 0x2A70 DUP4 DUP3 SLOAD PUSH2 0x289B JUMP JUMPDEST SWAP1 SSTORE PUSH2 0x289B JUMP JUMPDEST SWAP3 PUSH2 0x1659 JUMP JUMPDEST SWAP2 PUSH2 0x2A2B JUMP JUMPDEST PUSH2 0x2A9B SWAP2 SWAP5 SWAP3 POP PUSH2 0x2A96 SWAP1 PUSH1 0x4 SLOAD PUSH2 0x289B JUMP JUMPDEST PUSH1 0x4 SSTORE JUMP JUMPDEST PUSH1 0x1 PUSH1 0x1 PUSH1 0xA0 SHL SUB AND ISZERO PUSH2 0x2AAE JUMPI POP SWAP1 POP JUMP JUMPDEST PUSH1 0x0 DUP1 JUMPDEST DUP3 MLOAD DUP3 LT ISZERO PUSH2 0x2AEB JUMPI PUSH2 0x2AE5 SWAP1 PUSH2 0x2AC9 DUP4 DUP8 PUSH2 0x1683 JUMP JUMPDEST MLOAD SWAP1 PUSH2 0x2AD8 PUSH2 0x2A54 DUP6 DUP8 PUSH2 0x1683 JUMP JUMPDEST DUP3 DUP2 SLOAD SUB SWAP1 SSTORE ADD SWAP2 PUSH2 0x1659 JUMP JUMPDEST SWAP1 PUSH2 0x2AB2 JUMP JUMPDEST SWAP2 POP POP PUSH2 0x23C0 SWAP2 SWAP3 POP PUSH1 0x4 SLOAD SUB PUSH1 0x4 SSTORE JUMP JUMPDEST SWAP1 SWAP4 SWAP3 SWAP4 PUSH2 0x2B0D DUP6 DUP5 DUP4 DUP6 PUSH2 0x2CE4 JUMP JUMPDEST PUSH1 0x1 PUSH1 0x1 PUSH1 0xA0 SHL SUB SWAP2 DUP3 AND ISZERO PUSH2 0x2B4A JUMPI JUMPDEST AND ISZERO PUSH2 0x2B29 JUMPI POP SWAP1 POP JUMP JUMPDEST PUSH1 0x0 DUP1 JUMPDEST DUP3 MLOAD DUP3 LT ISZERO PUSH2 0x2AEB JUMPI PUSH2 0x2B44 SWAP1 PUSH2 0x2AC9 DUP4 DUP8 PUSH2 0x1683 JUMP JUMPDEST SWAP1 PUSH2 0x2B2D JUMP JUMPDEST SWAP3 PUSH1 0x0 SWAP2 DUP3 JUMPDEST DUP5 MLOAD DUP5 LT ISZERO PUSH2 0x2B85 JUMPI PUSH2 0x2B79 PUSH2 0x2B7F SWAP2 PUSH2 0x2B6A DUP7 DUP11 PUSH2 0x1683 JUMP JUMPDEST MLOAD SWAP1 PUSH2 0x2A65 PUSH2 0x2A54 DUP9 DUP11 PUSH2 0x1683 JUMP JUMPDEST SWAP4 PUSH2 0x1659 JUMP JUMPDEST SWAP3 PUSH2 0x2B50 JUMP JUMPDEST PUSH2 0x2B9A SWAP2 SWAP4 POP PUSH2 0x2A96 SWAP1 SWAP6 SWAP3 SWAP6 PUSH1 0x4 SLOAD PUSH2 0x289B JUMP JUMPDEST PUSH2 0x2B1E JUMP JUMPDEST SWAP1 SWAP2 PUSH2 0x2BB6 PUSH2 0x3FF SWAP4 PUSH1 0x40 DUP5 MSTORE PUSH1 0x40 DUP5 ADD SWAP1 PUSH2 0x92F JUMP JUMPDEST SWAP2 PUSH1 0x20 DUP2 DUP5 SUB SWAP2 ADD MSTORE PUSH2 0x92F JUMP JUMPDEST SWAP2 SWAP1 SWAP2 DUP3 MLOAD DUP3 MLOAD SWAP1 DUP2 DUP2 SUB PUSH2 0x1725 JUMPI POP POP PUSH1 0x0 JUMPDEST DUP4 MLOAD DUP2 LT ISZERO PUSH2 0x2C44 JUMPI PUSH1 0x5 DUP2 SWAP1 SHL DUP5 DUP2 ADD PUSH1 0x20 SWAP1 DUP2 ADD MLOAD SWAP2 DUP6 ADD ADD MLOAD PUSH2 0x2C12 SWAP3 SWAP2 DUP5 SWAP1 PUSH1 0x1 PUSH1 0x1 PUSH1 0xA0 SHL SUB DUP3 AND PUSH2 0x2C17 JUMPI JUMPDEST POP POP POP PUSH2 0x1659 JUMP JUMPDEST PUSH2 0x2BD8 JUMP JUMPDEST PUSH2 0x2C3A SWAP2 PUSH2 0x29B2 PUSH2 0x2C32 SWAP3 PUSH1 0x0 MSTORE PUSH1 0x0 PUSH1 0x20 MSTORE PUSH1 0x40 PUSH1 0x0 KECCAK256 SWAP1 JUMP JUMPDEST SWAP2 DUP3 SLOAD PUSH2 0x289B JUMP JUMPDEST SWAP1 SSTORE CODESIZE DUP4 DUP2 PUSH2 0x2C0A JUMP JUMPDEST POP SWAP2 PUSH1 0x1 DUP2 MLOAD EQ PUSH1 0x0 EQ PUSH2 0x2CA5 JUMPI PUSH1 0x20 SWAP1 DUP2 ADD MLOAD SWAP2 DUP2 ADD MLOAD PUSH1 0x40 DUP1 MLOAD SWAP4 DUP5 MSTORE SWAP2 DUP4 ADD MSTORE PUSH1 0x1 PUSH1 0x1 PUSH1 0xA0 SHL SUB SWAP1 SWAP3 AND SWAP2 PUSH1 0x0 SWAP2 CALLER SWAP2 PUSH32 0xC3D58168C5AE7397731D063D5BBF3D657854427343F4C083240F7AACAA2D0F62 SWAP2 SWAP1 DUP2 SWAP1 DUP2 ADD JUMPDEST SUB SWAP1 LOG4 JUMP JUMPDEST PUSH32 0x4A39DC06D4C0DBC64B70AF90FD698A233A518AA5D07E595D983B8C0526C8F7FB PUSH2 0x2CA0 PUSH1 0x0 SWAP4 SWAP5 PUSH1 0x40 MLOAD SWAP2 DUP3 SWAP2 PUSH1 0x1 DUP1 PUSH1 0xA0 SHL SUB AND SWAP7 CALLER SWAP6 DUP4 PUSH2 0x2B9F JUMP JUMPDEST SWAP4 SWAP3 SWAP2 DUP1 MLOAD DUP4 MLOAD SWAP1 DUP2 DUP2 SUB PUSH2 0x1725 JUMPI POP POP PUSH1 0x0 JUMPDEST DUP2 MLOAD DUP2 LT ISZERO PUSH2 0x2DEB JUMPI PUSH1 0x5 DUP2 SWAP1 SHL DUP3 DUP2 ADD PUSH1 0x20 SWAP1 DUP2 ADD MLOAD SWAP2 DUP7 ADD ADD MLOAD PUSH1 0x1 PUSH1 0x1 PUSH1 0xA0 SHL SUB SWAP3 SWAP2 DUP6 SWAP1 DUP10 DUP6 AND PUSH2 0x2D64 JUMPI JUMPDEST PUSH2 0x2D3A SWAP5 DUP3 AND PUSH2 0x2D3F JUMPI POP POP POP PUSH2 0x1659 JUMP JUMPDEST PUSH2 0x2CF8 JUMP JUMPDEST PUSH2 0x2D5A SWAP2 PUSH2 0x29B2 PUSH2 0x2C32 SWAP3 PUSH1 0x0 MSTORE PUSH1 0x0 PUSH1 0x20 MSTORE PUSH1 0x40 PUSH1 0x0 KECCAK256 SWAP1 JUMP JUMPDEST SWAP1 SSTORE CODESIZE DUP5 DUP2 PUSH2 0x2C0A JUMP JUMPDEST SWAP2 SWAP3 SWAP4 SWAP1 POP PUSH2 0x2D81 DUP10 PUSH2 0x29B2 DUP5 PUSH1 0x0 MSTORE PUSH1 0x0 PUSH1 0x20 MSTORE PUSH1 0x40 PUSH1 0x0 KECCAK256 SWAP1 JUMP JUMPDEST SLOAD DUP4 DUP2 LT PUSH2 0x2DB4 JUMPI SWAP2 DUP7 SWAP2 DUP5 PUSH2 0x2D3A SWAP7 SWAP6 SWAP5 SUB PUSH2 0x2DAC DUP13 PUSH2 0x29B2 DUP6 PUSH1 0x0 MSTORE PUSH1 0x0 PUSH1 0x20 MSTORE PUSH1 0x40 PUSH1 0x0 KECCAK256 SWAP1 JUMP JUMPDEST SSTORE SWAP5 POP PUSH2 0x2D28 JUMP JUMPDEST PUSH1 0x40 MLOAD PUSH4 0x3DEE4C5 PUSH1 0xE0 SHL DUP2 MSTORE PUSH1 0x1 PUSH1 0x1 PUSH1 0xA0 SHL SUB DUP12 AND PUSH1 0x4 DUP3 ADD MSTORE PUSH1 0x24 DUP2 ADD SWAP2 SWAP1 SWAP2 MSTORE PUSH1 0x44 DUP2 ADD DUP5 SWAP1 MSTORE PUSH1 0x64 DUP2 ADD DUP4 SWAP1 MSTORE PUSH1 0x84 SWAP1 REVERT JUMPDEST POP DUP1 MLOAD SWAP4 SWAP5 SWAP4 SWAP2 SWAP3 SWAP2 PUSH1 0x1 SUB PUSH2 0x2E4D JUMPI PUSH1 0x20 SWAP1 DUP2 ADD MLOAD SWAP2 DUP2 ADD MLOAD PUSH1 0x40 DUP1 MLOAD SWAP4 DUP5 MSTORE SWAP2 DUP4 ADD MSTORE PUSH1 0x1 PUSH1 0x1 PUSH1 0xA0 SHL SUB SWAP3 DUP4 AND SWAP4 SWAP1 SWAP3 AND SWAP2 CALLER SWAP2 PUSH32 0xC3D58168C5AE7397731D063D5BBF3D657854427343F4C083240F7AACAA2D0F62 SWAP2 DUP2 SWAP1 DUP2 ADD PUSH2 0x2CA0 JUMP JUMPDEST PUSH1 0x40 MLOAD PUSH1 0x1 PUSH1 0x1 PUSH1 0xA0 SHL SUB SWAP4 DUP5 AND SWAP5 SWAP1 SWAP4 AND SWAP3 CALLER SWAP3 PUSH32 0x4A39DC06D4C0DBC64B70AF90FD698A233A518AA5D07E595D983B8C0526C8F7FB SWAP3 DUP3 SWAP2 PUSH2 0x2CA0 SWAP2 DUP4 PUSH2 0x2B9F JUMP INVALID SHL PUSH9 0x47DC741A1B0CD08D27 DUP9 GASLIMIT 0xF9 0xD8 NOT 0xD8 PUSH28 0x734759AFB55FE2DE5CB82A9AE672F0C57E16840DF040F15088DC2F81 INVALID CODECOPY SHR CODECOPY 0x23 0xBE 0xC7 RETURNDATACOPY 0x23 0xA9 PUSH7 0x2EFC9C229C6A00 LOG2 PUSH5 0x6970667358 0x22 SLT KECCAK256 0xC5 0xCB PUSH26 0x32A843777FF05A783E3DB51A13E5F10E823A45577C44ACC13B2B 0x2A 0xE6 ISZERO PUSH5 0x736F6C6343 STOP ADDMOD EQ STOP CALLER "},"methodIdentifiers":{"BUYOUT_TOKEN_ID()":"12cf3bc1","LEGAL_CONTRACT_START_ID()":"3704934e","SONG_CONCEPT_ID()":"44e5b243","SONG_SHARES_ID()":"0c8a2f3a","balanceOf(address,uint256)":"00fdd58e","balanceOfAt(address,uint256,uint256)":"626da068","balanceOfBatch(address[],uint256[])":"4e1273f4","contractURI()":"e8a3d485","createBuyoutToken(uint256,address)":"9d3bc4bd","createLegalContract(string)":"bcb7130d","createSongShares(uint256)":"39fa62df","currentLegalContractId()":"d44e1355","exists(uint256)":"4f558e79","initialize(address,address,address)":"c0c53b8b","isApprovedForAll(address,address)":"e985e9c5","legalContractMetadata()":"dbd15d53","metadataModule()":"3684d100","migrateWrappedSong(address,address)":"d70a0abc","name()":"06fdde03","owner()":"8da5cb5b","protocolModule()":"5c42e667","renounceOwnership()":"715018a6","safeBatchTransferFrom(address,address,uint256[],uint256[],bytes)":"2eb2c2d6","safeTransferFrom(address,address,uint256,uint256,bytes)":"f242432a","setApprovalForAll(address,bool)":"a22cb465","supportsInterface(bytes4)":"01ffc9a7","symbol()":"95d89b41","totalShares()":"3a98ef39","totalSupply()":"18160ddd","totalSupply(uint256)":"bd85b039","transferOwnership(address)":"f2fde38b","updateSymbol(string)":"537f5312","uri(uint256)":"0e89341c"}},"storageLayout":{"storage":[{"astId":580,"contract":"contracts/protocol/NonUpgradable/WSTokenManagement.sol:WSTokenManagement","label":"_balances","offset":0,"slot":"0","type":"t_mapping(t_uint256,t_mapping(t_address,t_uint256))"},{"astId":586,"contract":"contracts/protocol/NonUpgradable/WSTokenManagement.sol:WSTokenManagement","label":"_operatorApprovals","offset":0,"slot":"1","type":"t_mapping(t_address,t_mapping(t_address,t_bool))"},{"astId":588,"contract":"contracts/protocol/NonUpgradable/WSTokenManagement.sol:WSTokenManagement","label":"_uri","offset":0,"slot":"2","type":"t_string_storage"},{"astId":1765,"contract":"contracts/protocol/NonUpgradable/WSTokenManagement.sol:WSTokenManagement","label":"_totalSupply","offset":0,"slot":"3","type":"t_mapping(t_uint256,t_uint256)"},{"astId":1767,"contract":"contracts/protocol/NonUpgradable/WSTokenManagement.sol:WSTokenManagement","label":"_totalSupplyAll","offset":0,"slot":"4","type":"t_uint256"},{"astId":8,"contract":"contracts/protocol/NonUpgradable/WSTokenManagement.sol:WSTokenManagement","label":"_owner","offset":0,"slot":"5","type":"t_address"},{"astId":2213,"contract":"contracts/protocol/NonUpgradable/WSTokenManagement.sol:WSTokenManagement","label":"_status","offset":0,"slot":"6","type":"t_uint256"},{"astId":5104,"contract":"contracts/protocol/NonUpgradable/WSTokenManagement.sol:WSTokenManagement","label":"_currentTokenId","offset":0,"slot":"7","type":"t_uint256"},{"astId":5106,"contract":"contracts/protocol/NonUpgradable/WSTokenManagement.sol:WSTokenManagement","label":"_minter","offset":0,"slot":"8","type":"t_address"},{"astId":5110,"contract":"contracts/protocol/NonUpgradable/WSTokenManagement.sol:WSTokenManagement","label":"_tokenCreated","offset":0,"slot":"9","type":"t_mapping(t_uint256,t_bool)"},{"astId":5124,"contract":"contracts/protocol/NonUpgradable/WSTokenManagement.sol:WSTokenManagement","label":"totalShares","offset":0,"slot":"10","type":"t_uint256"},{"astId":5127,"contract":"contracts/protocol/NonUpgradable/WSTokenManagement.sol:WSTokenManagement","label":"currentLegalContractId","offset":0,"slot":"11","type":"t_uint256"},{"astId":5130,"contract":"contracts/protocol/NonUpgradable/WSTokenManagement.sol:WSTokenManagement","label":"metadataModule","offset":0,"slot":"12","type":"t_address"},{"astId":5133,"contract":"contracts/protocol/NonUpgradable/WSTokenManagement.sol:WSTokenManagement","label":"protocolModule","offset":0,"slot":"13","type":"t_address"},{"astId":5136,"contract":"contracts/protocol/NonUpgradable/WSTokenManagement.sol:WSTokenManagement","label":"legalContractMetadata","offset":0,"slot":"14","type":"t_address"},{"astId":5138,"contract":"contracts/protocol/NonUpgradable/WSTokenManagement.sol:WSTokenManagement","label":"name","offset":0,"slot":"15","type":"t_string_storage"},{"astId":5140,"contract":"contracts/protocol/NonUpgradable/WSTokenManagement.sol:WSTokenManagement","label":"symbol","offset":0,"slot":"16","type":"t_string_storage"},{"astId":5179,"contract":"contracts/protocol/NonUpgradable/WSTokenManagement.sol:WSTokenManagement","label":"_balanceCheckpoints","offset":0,"slot":"17","type":"t_mapping(t_address,t_mapping(t_uint256,t_array(t_struct(Checkpoint)5171_storage)dyn_storage))"}],"types":{"t_address":{"encoding":"inplace","label":"address","numberOfBytes":"20"},"t_array(t_struct(Checkpoint)5171_storage)dyn_storage":{"base":"t_struct(Checkpoint)5171_storage","encoding":"dynamic_array","label":"struct WSTokenManagement.Checkpoint[]","numberOfBytes":"32"},"t_bool":{"encoding":"inplace","label":"bool","numberOfBytes":"1"},"t_mapping(t_address,t_bool)":{"encoding":"mapping","key":"t_address","label":"mapping(address => bool)","numberOfBytes":"32","value":"t_bool"},"t_mapping(t_address,t_mapping(t_address,t_bool))":{"encoding":"mapping","key":"t_address","label":"mapping(address => mapping(address => bool))","numberOfBytes":"32","value":"t_mapping(t_address,t_bool)"},"t_mapping(t_address,t_mapping(t_uint256,t_array(t_struct(Checkpoint)5171_storage)dyn_storage))":{"encoding":"mapping","key":"t_address","label":"mapping(address => mapping(uint256 => struct WSTokenManagement.Checkpoint[]))","numberOfBytes":"32","value":"t_mapping(t_uint256,t_array(t_struct(Checkpoint)5171_storage)dyn_storage)"},"t_mapping(t_address,t_uint256)":{"encoding":"mapping","key":"t_address","label":"mapping(address => uint256)","numberOfBytes":"32","value":"t_uint256"},"t_mapping(t_uint256,t_array(t_struct(Checkpoint)5171_storage)dyn_storage)":{"encoding":"mapping","key":"t_uint256","label":"mapping(uint256 => struct WSTokenManagement.Checkpoint[])","numberOfBytes":"32","value":"t_array(t_struct(Checkpoint)5171_storage)dyn_storage"},"t_mapping(t_uint256,t_bool)":{"encoding":"mapping","key":"t_uint256","label":"mapping(uint256 => bool)","numberOfBytes":"32","value":"t_bool"},"t_mapping(t_uint256,t_mapping(t_address,t_uint256))":{"encoding":"mapping","key":"t_uint256","label":"mapping(uint256 => mapping(address => uint256))","numberOfBytes":"32","value":"t_mapping(t_address,t_uint256)"},"t_mapping(t_uint256,t_uint256)":{"encoding":"mapping","key":"t_uint256","label":"mapping(uint256 => uint256)","numberOfBytes":"32","value":"t_uint256"},"t_string_storage":{"encoding":"bytes","label":"string","numberOfBytes":"32"},"t_struct(Checkpoint)5171_storage":{"encoding":"inplace","label":"struct WSTokenManagement.Checkpoint","members":[{"astId":5168,"contract":"contracts/protocol/NonUpgradable/WSTokenManagement.sol:WSTokenManagement","label":"timestamp","offset":0,"slot":"0","type":"t_uint256"},{"astId":5170,"contract":"contracts/protocol/NonUpgradable/WSTokenManagement.sol:WSTokenManagement","label":"value","offset":0,"slot":"1","type":"t_uint256"}],"numberOfBytes":"64"},"t_uint256":{"encoding":"inplace","label":"uint256","numberOfBytes":"32"}}}}}}