{"contracts/protocol/NonUpgradable/MetadataRenderer.sol":{"MetadataRenderer":{"abi":[{"inputs":[{"components":[{"internalType":"string","name":"name","type":"string"},{"internalType":"string","name":"description","type":"string"},{"internalType":"string","name":"image","type":"string"},{"internalType":"string","name":"externalUrl","type":"string"},{"internalType":"string","name":"animationUrl","type":"string"},{"internalType":"string","name":"attributesIpfsHash","type":"string"}],"internalType":"struct IMetadataModule.Metadata","name":"metadata","type":"tuple"},{"internalType":"address","name":"wrappedSongAddress","type":"address"},{"internalType":"string","name":"baseURI","type":"string"},{"internalType":"contract IProtocolModule","name":"protocolModule","type":"address"}],"name":"composeContractURI","outputs":[{"internalType":"string","name":"","type":"string"}],"stateMutability":"view","type":"function"},{"inputs":[{"components":[{"internalType":"string","name":"name","type":"string"},{"internalType":"string","name":"description","type":"string"},{"internalType":"string","name":"image","type":"string"},{"internalType":"string","name":"externalUrl","type":"string"},{"internalType":"string","name":"animationUrl","type":"string"},{"internalType":"string","name":"attributesIpfsHash","type":"string"}],"internalType":"struct IMetadataModule.Metadata","name":"metadata","type":"tuple"},{"internalType":"uint256","name":"tokenId","type":"uint256"},{"internalType":"address","name":"wrappedSongAddress","type":"address"},{"internalType":"string","name":"baseURI","type":"string"},{"internalType":"contract IProtocolModule","name":"protocolModule","type":"address"}],"name":"composeTokenURI","outputs":[{"internalType":"string","name":"","type":"string"}],"stateMutability":"view","type":"function"}],"evm":{"bytecode":{"linkReferences":{},"object":"608080604052346100165761165b908161001c8239f35b600080fdfe6080604052600436101561001257600080fd5b60003560e01c80636a1ed3621461026c5763b7e3c1061461003257600080fd5b346102675760803660031901126102675767ffffffffffffffff60043581811161026757610064903690600401611145565b906001600160a01b03906024358281160361026757604435908111610267576100919036906004016110fe565b906064359081160361026757610257603d61010961020d6101b0610208605e87610263996100c46102479a51151561126c565b6040810151906040519788926020998a91826100e9818401988981519384920161121d565b82016100fd8251809386808501910161121d565b010380855201836110c0565b80519260608983015192015192604051978895607b60f81b8c88015268113730b6b2911d101160b91b602188015261014b8c8251928391602a8b01910161121d565b86019361088b60f21b9485602a8201526f113232b9b1b934b83a34b7b7111d101160811b602c8201526101888d8351938491603c8501910161121d565b019184603c840152691134b6b0b3b2911d101160b11b603e840152518093604884019061121d565b01906048820152711132bc3a32b93730b62fb634b735911d101160711b604a8201526101e5825180938a605c8501910161121d565b01601160f91b605c820152607d60f81b605d82015203603e8101845201826110c0565b61132c565b60405194827f646174613a6170706c69636174696f6e2f6a736f6e3b6261736536342c00000087948501528251928391868601910161121d565b810103601d8101845201826110c0565b60405191829182611240565b0390f35b600080fd5b346102675760a03660031901126102675767ffffffffffffffff6004358181116102675761029e903690600401611145565b60443591602435906001600160a01b038416840361026757606435908111610267576102ce9036906004016110fe565b90608435906001600160a01b0382168203610267576102ef8351151561126c565b60608081928015600014610d9157505050506040519161030e83611056565b6003835260209262714bc960e91b84820152936040810151610360856040518093865161034081858501868b0161121d565b82016103548251809386808501910161121d565b010380845201826110c0565b93810151955b60405163670d296960e11b8152936020856004816001600160a01b0385165afa948515610bc757600495602091600091610d74575b50604051633ead5d1160e01b815296879182906001600160a01b03165afa948515610bc7576024956000918291610d55575b50604051635421432b60e11b81526001600160a01b0385811660048301529097889290918391165afa948515610bc757600095610d38575b5060405163670d296960e11b8152906020826004816001600160a01b0385165afa918215610bc757600492602091600091610d1b575b50604051633ead5d1160e01b815293849182906001600160a01b03165afa918215610bc7576024926000918291610cfc575b50604051630437e6a160e21b81526001600160a01b0386811660048301529094859290918391165afa918215610bc757600092610cdf575b5060405163670d296960e11b8152956020876004816001600160a01b0386165afa968715610bc757600497602091600091610cc2575b50604051633ead5d1160e01b815298899182906001600160a01b03165afa968715610bc7576024976000918291610ca3575b5060405163cc7e544560e01b81526001600160a01b03878116600483015290998a9290918391165afa968715610bc757600097610c86575b5060405163670d296960e11b8152936020856004816001600160a01b0387165afa948515610bc757600495602091600091610c69575b50604051633ead5d1160e01b815296879182906001600160a01b03165afa948515610bc7576024956000918291610c4a575b5060405163164158ff60e01b81526001600160a01b0384811660048301529097889290918391165afa928315610bc757600495600094610c22575b5060405163670d296960e11b81529560209187919082906001600160a01b03165afa948515610bc757600495602091600091610c05575b50604051633ead5d1160e01b815296879182906001600160a01b03165afa948515610bc757600095610bd3575b5060405163a449357560e01b81526001600160a01b0391821660048201529460209186916024918391165afa938415610bc757600094610b74575b50936102639961092098946107da605d6102089a9660859a968a610ab19f9b511515600014610b5d57915b805115610b4657985b805115610b2f57905b805115610b1857905b604051998a9371227265676973747279436f646573223a207b60701b6020860152681124a9a921911d101160b91b6032860152610714815180926020603b8901910161121d565b61088b60f21b858201603b81019190915267112aa821911d101160c11b603d82015282519261074d91849160459091019060200161121d565b84010161088b60f21b6045820152681124a9aba1911d101160b91b604782015261078182518093602060508501910161121d565b0161088b60f21b6050820152681124a9a1a1911d101160b91b60528201526107b3825180936020605b8501910161121d565b601160f91b605b8383010152607d60f81b605c83830101520103603d8101885201866110c0565b15610af4576040516107eb81611056565b60048152637472756560e01b6020820152945b61086860416040518098702261757468656e746963697479223a207b60781b60208301526e01134b9a0baba3432b73a34b1911d1608d1b603183015261084e81518092602060408601910161121d565b8101607d60f81b60408201520360218101895201876110c0565b8251916060840151926108f5602060a06080880151976108ba83604051809b8d61089a8151809286808701910161121d565b82016108ae8251809386808501910161121d565b0103808c52018a6110c0565b01519760405198816108d58b9351809286808701910161121d565b82016108e98251809386808501910161121d565b010380895201876110c0565b602a6040519c8d809b693d913730b6b2911d101160b11b60208301526020815194859301910161121d565b8901600160fd1b602a820152610940825180936020602b8501910161121d565b0161088b60f21b602b8201526f113232b9b1b934b83a34b7b7111d101160811b602d820152610979825180936020603d8501910161121d565b0161088b60f21b603d820152691134b6b0b3b2911d101160b11b603f8201526109ac82518093602060498501910161121d565b0161088b60f21b6049820152701132bc3a32b93730b62fbab936111d101160791b604b8201526109e6825180936020605c8501910161121d565b0161088b60f21b605c820152711130b734b6b0ba34b7b72fbab936111d101160711b605e820152610a2182518093602060708501910161121d565b0161088b60f21b60708201526e1130ba3a3934b13aba32b9911d101160891b6072820152610a5982518093602060818501910161121d565b0161088b60f21b6081820152610a7982518093602060838501910161121d565b01600b60fa1b6083820152610a9882518093602060848501910161121d565b01607d60f81b60848201520360658101845201826110c0565b610257603d60405180937f646174613a6170706c69636174696f6e2f6a736f6e3b6261736536342c0000006020830152610247815180926020868601910161121d565b604051610b0081611056565b600581526466616c736560d81b6020820152946107fe565b50604051610b2581611088565b60008152906106cd565b50604051610b3c81611088565b60008152906106c4565b50604051610b5381611088565b60008152986106bb565b50604051610b6a81611088565b60008152916106b2565b909894969295919793506020813d602011610bbf575b81610b97602093836110c0565b8101031261026757519586151587036102675793979296919590949092909190610263610687565b3d9150610b8a565b6040513d6000823e3d90fd5b6020919550610bf790823d8411610bfe575b610bef81836110c0565b8101906112ab565b949061064c565b503d610be5565b610c1c9150823d8411610bfe57610bef81836110c0565b8d61061f565b6020919450610c43903d806000833e610c3b81836110c0565b8101906112ca565b93906105e8565b610c63915060203d602011610bfe57610bef81836110c0565b8d6105ad565b610c809150823d8411610bfe57610bef81836110c0565b8d61057b565b610c9c9197503d806000833e610c3b81836110c0565b958a610545565b610cbc915060203d602011610bfe57610bef81836110c0565b8c61050d565b610cd99150823d8411610bfe57610bef81836110c0565b8c6104db565b610cf59192503d806000833e610c3b81836110c0565b90896104a5565b610d15915060203d602011610bfe57610bef81836110c0565b8b61046d565b610d329150823d8411610bfe57610bef81836110c0565b8b61043b565b610d4e9195503d806000833e610c3b81836110c0565b9388610405565b610d6e915060203d602011610bfe57610bef81836110c0565b8a6103cd565b610d8b9150823d8411610bfe57610bef81836110c0565b8a61039b565b60018103610e8d575050505060405191610daa83611056565b6002835260209261c2a760f01b8482015293610e6c610e8660756040840151610de48860405180938951610340818c86808701910161121d565b96610dee8a6114de565b60405194827f546865736520536f6e6753686172657320726570726573656e7420796f75722087948501527f6f776e657273686970207374616b6520696e2074686520726f79616c74792065604085015273030b93734b733b99037b3103a34329029b7b733960651b6060850152825192839160748601910161121d565b8101601760f91b60748201520360558101845201826110c0565b955b610366565b60028103610f7b575050505060405191610ea683611056565b6003835260209262e29fb360e81b8482015293610f61610e86606d6040840151610ee18860405180938951610340818c86808701910161121d565b96610eeb8a6114de565b60405194827f5468697320746f6b656e206772616e747320796f752061636365737320746f2087948501527f646f776e6c6f6164206120686967682d7175616c6974792076657273696f6e2060408501526b037b3103a34329039b7b733960a51b60608501528251928391606c8601910161121d565b8101601760f91b606c82015203604d8101845201826110c0565b600390979195939796929610610e885795509350915060405191610f9e83611056565b60048352602092633c27e4e160e21b848201529361103c610e8660556040840151610fda8860405180938951610340818c86808701910161121d565b96610fe48a6114de565b60405194827f546869732069732061204c6567616c20436f6e747261637420546f6b656e2066879485015273037b9103a3432902bb930b83832b21029b7b733960651b6040850152825192839160548601910161121d565b8101601760f91b60548201520360358101845201826110c0565b6040810190811067ffffffffffffffff82111761107257604052565b634e487b7160e01b600052604160045260246000fd5b6020810190811067ffffffffffffffff82111761107257604052565b6060810190811067ffffffffffffffff82111761107257604052565b90601f8019910116810190811067ffffffffffffffff82111761107257604052565b67ffffffffffffffff811161107257601f01601f191660200190565b81601f8201121561026757803590611115826110e2565b9261112360405194856110c0565b8284526020838301011161026757816000926020809301838601378301015290565b91909160c081840312610267576040519067ffffffffffffffff9060c0830182811184821017611072576040528294813583811161026757816111899184016110fe565b8452602082013583811161026757816111a39184016110fe565b6020850152604082013583811161026757816111c09184016110fe565b6040850152606082013583811161026757816111dd9184016110fe565b6060850152608082013583811161026757816111fa9184016110fe565b608085015260a08201359283116102675760a09261121892016110fe565b910152565b60005b8381106112305750506000910152565b8181015183820152602001611220565b60409160208252611260815180928160208601526020868601910161121d565b601f01601f1916010190565b1561127357565b60405162461bcd60e51b815260206004820152601060248201526f10985cd948155492481b9bdd081cd95d60821b6044820152606490fd5b9081602091031261026757516001600160a01b03811681036102675790565b6020818303126102675780519067ffffffffffffffff8211610267570181601f820112156102675780516112fd816110e2565b9261130b60405194856110c0565b8184526020828401011161026757611329916020808501910161121d565b90565b8051156114a35760405190611340826110a4565b604082527f4142434445464748494a4b4c4d4e4f505152535455565758595a61626364656660208301527f6768696a6b6c6d6e6f707172737475767778797a303132333435363738392b2f6040830152805160029182820180921161148d5760039182900480841b94906001600160fe1b0381160361148d57926113dc6113c6866110e2565b956113d460405197886110c0565b8087526110e2565b6020860190601f190136823793829183518401906020820192835194600085525b83811061143c5750505050525106806001146114295760021461141e575090565b603d90600019015390565b50603d9081600019820153600119015390565b87600491999293949901918251600190603f9082828260121c16880101518453828282600c1c16880101518385015382828260061c16880101518885015316850101518982015301979291906113fd565b634e487b7160e01b600052601160045260246000fd5b506040516114b081611088565b6000815290565b9081518110156114c8570160200190565b634e487b7160e01b600052603260045260246000fd5b604051906001600160a01b03166114f482611056565b6010825260206f181899199a1a9b1b9c1cb0b131b232b360811b818401526040519261151f846110a4565b602a845281840160403682378451156114c857603090538351926001938410156114c8576078602186015360005b6014811061155d57505050505090565b600c810180821161148d57848110156114c85782901a60046001600160f81b0319600f8161158f85851c8316896114b7565b511693858a1b9460029087870482148815171561161057868201809211611610576115c46115cc9493928e9260001a926114b7565b5316876114b7565b51169060039283018093116115fb57506115ea9060001a91886114b7565b53600019811461148d57840161154d565b601190634e487b7160e01b6000525260246000fd5b601186634e487b7160e01b6000525260246000fdfea264697066735822122050002b2dd4c72dba2a76b65b1f3c34feda7da130be792dc1903d3ddc6b81ccfd64736f6c63430008140033","opcodes":"PUSH1 0x80 DUP1 PUSH1 0x40 MSTORE CALLVALUE PUSH2 0x16 JUMPI PUSH2 0x165B SWAP1 DUP2 PUSH2 0x1C DUP3 CODECOPY RETURN JUMPDEST PUSH1 0x0 DUP1 REVERT INVALID PUSH1 0x80 PUSH1 0x40 MSTORE PUSH1 0x4 CALLDATASIZE LT ISZERO PUSH2 0x12 JUMPI PUSH1 0x0 DUP1 REVERT JUMPDEST PUSH1 0x0 CALLDATALOAD PUSH1 0xE0 SHR DUP1 PUSH4 0x6A1ED362 EQ PUSH2 0x26C JUMPI PUSH4 0xB7E3C106 EQ PUSH2 0x32 JUMPI PUSH1 0x0 DUP1 REVERT JUMPDEST CALLVALUE PUSH2 0x267 JUMPI PUSH1 0x80 CALLDATASIZE PUSH1 0x3 NOT ADD SLT PUSH2 0x267 JUMPI PUSH8 0xFFFFFFFFFFFFFFFF PUSH1 0x4 CALLDATALOAD DUP2 DUP2 GT PUSH2 0x267 JUMPI PUSH2 0x64 SWAP1 CALLDATASIZE SWAP1 PUSH1 0x4 ADD PUSH2 0x1145 JUMP JUMPDEST SWAP1 PUSH1 0x1 PUSH1 0x1 PUSH1 0xA0 SHL SUB SWAP1 PUSH1 0x24 CALLDATALOAD DUP3 DUP2 AND SUB PUSH2 0x267 JUMPI PUSH1 0x44 CALLDATALOAD SWAP1 DUP2 GT PUSH2 0x267 JUMPI PUSH2 0x91 SWAP1 CALLDATASIZE SWAP1 PUSH1 0x4 ADD PUSH2 0x10FE JUMP JUMPDEST SWAP1 PUSH1 0x64 CALLDATALOAD SWAP1 DUP2 AND SUB PUSH2 0x267 JUMPI PUSH2 0x257 PUSH1 0x3D PUSH2 0x109 PUSH2 0x20D PUSH2 0x1B0 PUSH2 0x208 PUSH1 0x5E DUP8 PUSH2 0x263 SWAP10 PUSH2 0xC4 PUSH2 0x247 SWAP11 MLOAD ISZERO ISZERO PUSH2 0x126C JUMP JUMPDEST PUSH1 0x40 DUP2 ADD MLOAD SWAP1 PUSH1 0x40 MLOAD SWAP8 DUP9 SWAP3 PUSH1 0x20 SWAP10 DUP11 SWAP2 DUP3 PUSH2 0xE9 DUP2 DUP5 ADD SWAP9 DUP10 DUP2 MLOAD SWAP4 DUP5 SWAP3 ADD PUSH2 0x121D JUMP JUMPDEST DUP3 ADD PUSH2 0xFD DUP3 MLOAD DUP1 SWAP4 DUP7 DUP1 DUP6 ADD SWAP2 ADD PUSH2 0x121D JUMP JUMPDEST ADD SUB DUP1 DUP6 MSTORE ADD DUP4 PUSH2 0x10C0 JUMP JUMPDEST DUP1 MLOAD SWAP3 PUSH1 0x60 DUP10 DUP4 ADD MLOAD SWAP3 ADD MLOAD SWAP3 PUSH1 0x40 MLOAD SWAP8 DUP9 SWAP6 PUSH1 0x7B PUSH1 0xF8 SHL DUP13 DUP9 ADD MSTORE PUSH9 0x113730B6B2911D1011 PUSH1 0xB9 SHL PUSH1 0x21 DUP9 ADD MSTORE PUSH2 0x14B DUP13 DUP3 MLOAD SWAP3 DUP4 SWAP2 PUSH1 0x2A DUP12 ADD SWAP2 ADD PUSH2 0x121D JUMP JUMPDEST DUP7 ADD SWAP4 PUSH2 0x88B PUSH1 0xF2 SHL SWAP5 DUP6 PUSH1 0x2A DUP3 ADD MSTORE PUSH16 0x113232B9B1B934B83A34B7B7111D1011 PUSH1 0x81 SHL PUSH1 0x2C DUP3 ADD MSTORE PUSH2 0x188 DUP14 DUP4 MLOAD SWAP4 DUP5 SWAP2 PUSH1 0x3C DUP6 ADD SWAP2 ADD PUSH2 0x121D JUMP JUMPDEST ADD SWAP2 DUP5 PUSH1 0x3C DUP5 ADD MSTORE PUSH10 0x1134B6B0B3B2911D1011 PUSH1 0xB1 SHL PUSH1 0x3E DUP5 ADD MSTORE MLOAD DUP1 SWAP4 PUSH1 0x48 DUP5 ADD SWAP1 PUSH2 0x121D JUMP JUMPDEST ADD SWAP1 PUSH1 0x48 DUP3 ADD MSTORE PUSH18 0x1132BC3A32B93730B62FB634B735911D1011 PUSH1 0x71 SHL PUSH1 0x4A DUP3 ADD MSTORE PUSH2 0x1E5 DUP3 MLOAD DUP1 SWAP4 DUP11 PUSH1 0x5C DUP6 ADD SWAP2 ADD PUSH2 0x121D JUMP JUMPDEST ADD PUSH1 0x11 PUSH1 0xF9 SHL PUSH1 0x5C DUP3 ADD MSTORE PUSH1 0x7D PUSH1 0xF8 SHL PUSH1 0x5D DUP3 ADD MSTORE SUB PUSH1 0x3E DUP2 ADD DUP5 MSTORE ADD DUP3 PUSH2 0x10C0 JUMP JUMPDEST PUSH2 0x132C JUMP JUMPDEST PUSH1 0x40 MLOAD SWAP5 DUP3 PUSH32 0x646174613A6170706C69636174696F6E2F6A736F6E3B6261736536342C000000 DUP8 SWAP5 DUP6 ADD MSTORE DUP3 MLOAD SWAP3 DUP4 SWAP2 DUP7 DUP7 ADD SWAP2 ADD PUSH2 0x121D JUMP JUMPDEST DUP2 ADD SUB PUSH1 0x1D DUP2 ADD DUP5 MSTORE ADD DUP3 PUSH2 0x10C0 JUMP JUMPDEST PUSH1 0x40 MLOAD SWAP2 DUP3 SWAP2 DUP3 PUSH2 0x1240 JUMP JUMPDEST SUB SWAP1 RETURN JUMPDEST PUSH1 0x0 DUP1 REVERT JUMPDEST CALLVALUE PUSH2 0x267 JUMPI PUSH1 0xA0 CALLDATASIZE PUSH1 0x3 NOT ADD SLT PUSH2 0x267 JUMPI PUSH8 0xFFFFFFFFFFFFFFFF PUSH1 0x4 CALLDATALOAD DUP2 DUP2 GT PUSH2 0x267 JUMPI PUSH2 0x29E SWAP1 CALLDATASIZE SWAP1 PUSH1 0x4 ADD PUSH2 0x1145 JUMP JUMPDEST PUSH1 0x44 CALLDATALOAD SWAP2 PUSH1 0x24 CALLDATALOAD SWAP1 PUSH1 0x1 PUSH1 0x1 PUSH1 0xA0 SHL SUB DUP5 AND DUP5 SUB PUSH2 0x267 JUMPI PUSH1 0x64 CALLDATALOAD SWAP1 DUP2 GT PUSH2 0x267 JUMPI PUSH2 0x2CE SWAP1 CALLDATASIZE SWAP1 PUSH1 0x4 ADD PUSH2 0x10FE JUMP JUMPDEST SWAP1 PUSH1 0x84 CALLDATALOAD SWAP1 PUSH1 0x1 PUSH1 0x1 PUSH1 0xA0 SHL SUB DUP3 AND DUP3 SUB PUSH2 0x267 JUMPI PUSH2 0x2EF DUP4 MLOAD ISZERO ISZERO PUSH2 0x126C JUMP JUMPDEST PUSH1 0x60 DUP1 DUP2 SWAP3 DUP1 ISZERO PUSH1 0x0 EQ PUSH2 0xD91 JUMPI POP POP POP POP PUSH1 0x40 MLOAD SWAP2 PUSH2 0x30E DUP4 PUSH2 0x1056 JUMP JUMPDEST PUSH1 0x3 DUP4 MSTORE PUSH1 0x20 SWAP3 PUSH3 0x714BC9 PUSH1 0xE9 SHL DUP5 DUP3 ADD MSTORE SWAP4 PUSH1 0x40 DUP2 ADD MLOAD PUSH2 0x360 DUP6 PUSH1 0x40 MLOAD DUP1 SWAP4 DUP7 MLOAD PUSH2 0x340 DUP2 DUP6 DUP6 ADD DUP7 DUP12 ADD PUSH2 0x121D JUMP JUMPDEST DUP3 ADD PUSH2 0x354 DUP3 MLOAD DUP1 SWAP4 DUP7 DUP1 DUP6 ADD SWAP2 ADD PUSH2 0x121D JUMP JUMPDEST ADD SUB DUP1 DUP5 MSTORE ADD DUP3 PUSH2 0x10C0 JUMP JUMPDEST SWAP4 DUP2 ADD MLOAD SWAP6 JUMPDEST PUSH1 0x40 MLOAD PUSH4 0x670D2969 PUSH1 0xE1 SHL DUP2 MSTORE SWAP4 PUSH1 0x20 DUP6 PUSH1 0x4 DUP2 PUSH1 0x1 PUSH1 0x1 PUSH1 0xA0 SHL SUB DUP6 AND GAS STATICCALL SWAP5 DUP6 ISZERO PUSH2 0xBC7 JUMPI PUSH1 0x4 SWAP6 PUSH1 0x20 SWAP2 PUSH1 0x0 SWAP2 PUSH2 0xD74 JUMPI JUMPDEST POP PUSH1 0x40 MLOAD PUSH4 0x3EAD5D11 PUSH1 0xE0 SHL DUP2 MSTORE SWAP7 DUP8 SWAP2 DUP3 SWAP1 PUSH1 0x1 PUSH1 0x1 PUSH1 0xA0 SHL SUB AND GAS STATICCALL SWAP5 DUP6 ISZERO PUSH2 0xBC7 JUMPI PUSH1 0x24 SWAP6 PUSH1 0x0 SWAP2 DUP3 SWAP2 PUSH2 0xD55 JUMPI JUMPDEST POP PUSH1 0x40 MLOAD PUSH4 0x5421432B PUSH1 0xE1 SHL DUP2 MSTORE PUSH1 0x1 PUSH1 0x1 PUSH1 0xA0 SHL SUB DUP6 DUP2 AND PUSH1 0x4 DUP4 ADD MSTORE SWAP1 SWAP8 DUP9 SWAP3 SWAP1 SWAP2 DUP4 SWAP2 AND GAS STATICCALL SWAP5 DUP6 ISZERO PUSH2 0xBC7 JUMPI PUSH1 0x0 SWAP6 PUSH2 0xD38 JUMPI JUMPDEST POP PUSH1 0x40 MLOAD PUSH4 0x670D2969 PUSH1 0xE1 SHL DUP2 MSTORE SWAP1 PUSH1 0x20 DUP3 PUSH1 0x4 DUP2 PUSH1 0x1 PUSH1 0x1 PUSH1 0xA0 SHL SUB DUP6 AND GAS STATICCALL SWAP2 DUP3 ISZERO PUSH2 0xBC7 JUMPI PUSH1 0x4 SWAP3 PUSH1 0x20 SWAP2 PUSH1 0x0 SWAP2 PUSH2 0xD1B JUMPI JUMPDEST POP PUSH1 0x40 MLOAD PUSH4 0x3EAD5D11 PUSH1 0xE0 SHL DUP2 MSTORE SWAP4 DUP5 SWAP2 DUP3 SWAP1 PUSH1 0x1 PUSH1 0x1 PUSH1 0xA0 SHL SUB AND GAS STATICCALL SWAP2 DUP3 ISZERO PUSH2 0xBC7 JUMPI PUSH1 0x24 SWAP3 PUSH1 0x0 SWAP2 DUP3 SWAP2 PUSH2 0xCFC JUMPI JUMPDEST POP PUSH1 0x40 MLOAD PUSH4 0x437E6A1 PUSH1 0xE2 SHL DUP2 MSTORE PUSH1 0x1 PUSH1 0x1 PUSH1 0xA0 SHL SUB DUP7 DUP2 AND PUSH1 0x4 DUP4 ADD MSTORE SWAP1 SWAP5 DUP6 SWAP3 SWAP1 SWAP2 DUP4 SWAP2 AND GAS STATICCALL SWAP2 DUP3 ISZERO PUSH2 0xBC7 JUMPI PUSH1 0x0 SWAP3 PUSH2 0xCDF JUMPI JUMPDEST POP PUSH1 0x40 MLOAD PUSH4 0x670D2969 PUSH1 0xE1 SHL DUP2 MSTORE SWAP6 PUSH1 0x20 DUP8 PUSH1 0x4 DUP2 PUSH1 0x1 PUSH1 0x1 PUSH1 0xA0 SHL SUB DUP7 AND GAS STATICCALL SWAP7 DUP8 ISZERO PUSH2 0xBC7 JUMPI PUSH1 0x4 SWAP8 PUSH1 0x20 SWAP2 PUSH1 0x0 SWAP2 PUSH2 0xCC2 JUMPI JUMPDEST POP PUSH1 0x40 MLOAD PUSH4 0x3EAD5D11 PUSH1 0xE0 SHL DUP2 MSTORE SWAP9 DUP10 SWAP2 DUP3 SWAP1 PUSH1 0x1 PUSH1 0x1 PUSH1 0xA0 SHL SUB AND GAS STATICCALL SWAP7 DUP8 ISZERO PUSH2 0xBC7 JUMPI PUSH1 0x24 SWAP8 PUSH1 0x0 SWAP2 DUP3 SWAP2 PUSH2 0xCA3 JUMPI JUMPDEST POP PUSH1 0x40 MLOAD PUSH4 0xCC7E5445 PUSH1 0xE0 SHL DUP2 MSTORE PUSH1 0x1 PUSH1 0x1 PUSH1 0xA0 SHL SUB DUP8 DUP2 AND PUSH1 0x4 DUP4 ADD MSTORE SWAP1 SWAP10 DUP11 SWAP3 SWAP1 SWAP2 DUP4 SWAP2 AND GAS STATICCALL SWAP7 DUP8 ISZERO PUSH2 0xBC7 JUMPI PUSH1 0x0 SWAP8 PUSH2 0xC86 JUMPI JUMPDEST POP PUSH1 0x40 MLOAD PUSH4 0x670D2969 PUSH1 0xE1 SHL DUP2 MSTORE SWAP4 PUSH1 0x20 DUP6 PUSH1 0x4 DUP2 PUSH1 0x1 PUSH1 0x1 PUSH1 0xA0 SHL SUB DUP8 AND GAS STATICCALL SWAP5 DUP6 ISZERO PUSH2 0xBC7 JUMPI PUSH1 0x4 SWAP6 PUSH1 0x20 SWAP2 PUSH1 0x0 SWAP2 PUSH2 0xC69 JUMPI JUMPDEST POP PUSH1 0x40 MLOAD PUSH4 0x3EAD5D11 PUSH1 0xE0 SHL DUP2 MSTORE SWAP7 DUP8 SWAP2 DUP3 SWAP1 PUSH1 0x1 PUSH1 0x1 PUSH1 0xA0 SHL SUB AND GAS STATICCALL SWAP5 DUP6 ISZERO PUSH2 0xBC7 JUMPI PUSH1 0x24 SWAP6 PUSH1 0x0 SWAP2 DUP3 SWAP2 PUSH2 0xC4A JUMPI JUMPDEST POP PUSH1 0x40 MLOAD PUSH4 0x164158FF PUSH1 0xE0 SHL DUP2 MSTORE PUSH1 0x1 PUSH1 0x1 PUSH1 0xA0 SHL SUB DUP5 DUP2 AND PUSH1 0x4 DUP4 ADD MSTORE SWAP1 SWAP8 DUP9 SWAP3 SWAP1 SWAP2 DUP4 SWAP2 AND GAS STATICCALL SWAP3 DUP4 ISZERO PUSH2 0xBC7 JUMPI PUSH1 0x4 SWAP6 PUSH1 0x0 SWAP5 PUSH2 0xC22 JUMPI JUMPDEST POP PUSH1 0x40 MLOAD PUSH4 0x670D2969 PUSH1 0xE1 SHL DUP2 MSTORE SWAP6 PUSH1 0x20 SWAP2 DUP8 SWAP2 SWAP1 DUP3 SWAP1 PUSH1 0x1 PUSH1 0x1 PUSH1 0xA0 SHL SUB AND GAS STATICCALL SWAP5 DUP6 ISZERO PUSH2 0xBC7 JUMPI PUSH1 0x4 SWAP6 PUSH1 0x20 SWAP2 PUSH1 0x0 SWAP2 PUSH2 0xC05 JUMPI JUMPDEST POP PUSH1 0x40 MLOAD PUSH4 0x3EAD5D11 PUSH1 0xE0 SHL DUP2 MSTORE SWAP7 DUP8 SWAP2 DUP3 SWAP1 PUSH1 0x1 PUSH1 0x1 PUSH1 0xA0 SHL SUB AND GAS STATICCALL SWAP5 DUP6 ISZERO PUSH2 0xBC7 JUMPI PUSH1 0x0 SWAP6 PUSH2 0xBD3 JUMPI JUMPDEST POP PUSH1 0x40 MLOAD PUSH4 0xA4493575 PUSH1 0xE0 SHL DUP2 MSTORE PUSH1 0x1 PUSH1 0x1 PUSH1 0xA0 SHL SUB SWAP2 DUP3 AND PUSH1 0x4 DUP3 ADD MSTORE SWAP5 PUSH1 0x20 SWAP2 DUP7 SWAP2 PUSH1 0x24 SWAP2 DUP4 SWAP2 AND GAS STATICCALL SWAP4 DUP5 ISZERO PUSH2 0xBC7 JUMPI PUSH1 0x0 SWAP5 PUSH2 0xB74 JUMPI JUMPDEST POP SWAP4 PUSH2 0x263 SWAP10 PUSH2 0x920 SWAP9 SWAP5 PUSH2 0x7DA PUSH1 0x5D PUSH2 0x208 SWAP11 SWAP7 PUSH1 0x85 SWAP11 SWAP7 DUP11 PUSH2 0xAB1 SWAP16 SWAP12 MLOAD ISZERO ISZERO PUSH1 0x0 EQ PUSH2 0xB5D JUMPI SWAP2 JUMPDEST DUP1 MLOAD ISZERO PUSH2 0xB46 JUMPI SWAP9 JUMPDEST DUP1 MLOAD ISZERO PUSH2 0xB2F JUMPI SWAP1 JUMPDEST DUP1 MLOAD ISZERO PUSH2 0xB18 JUMPI SWAP1 JUMPDEST PUSH1 0x40 MLOAD SWAP10 DUP11 SWAP4 PUSH18 0x227265676973747279436F646573223A207B PUSH1 0x70 SHL PUSH1 0x20 DUP7 ADD MSTORE PUSH9 0x1124A9A921911D1011 PUSH1 0xB9 SHL PUSH1 0x32 DUP7 ADD MSTORE PUSH2 0x714 DUP2 MLOAD DUP1 SWAP3 PUSH1 0x20 PUSH1 0x3B DUP10 ADD SWAP2 ADD PUSH2 0x121D JUMP JUMPDEST PUSH2 0x88B PUSH1 0xF2 SHL DUP6 DUP3 ADD PUSH1 0x3B DUP2 ADD SWAP2 SWAP1 SWAP2 MSTORE PUSH8 0x112AA821911D1011 PUSH1 0xC1 SHL PUSH1 0x3D DUP3 ADD MSTORE DUP3 MLOAD SWAP3 PUSH2 0x74D SWAP2 DUP5 SWAP2 PUSH1 0x45 SWAP1 SWAP2 ADD SWAP1 PUSH1 0x20 ADD PUSH2 0x121D JUMP JUMPDEST DUP5 ADD ADD PUSH2 0x88B PUSH1 0xF2 SHL PUSH1 0x45 DUP3 ADD MSTORE PUSH9 0x1124A9ABA1911D1011 PUSH1 0xB9 SHL PUSH1 0x47 DUP3 ADD MSTORE PUSH2 0x781 DUP3 MLOAD DUP1 SWAP4 PUSH1 0x20 PUSH1 0x50 DUP6 ADD SWAP2 ADD PUSH2 0x121D JUMP JUMPDEST ADD PUSH2 0x88B PUSH1 0xF2 SHL PUSH1 0x50 DUP3 ADD MSTORE PUSH9 0x1124A9A1A1911D1011 PUSH1 0xB9 SHL PUSH1 0x52 DUP3 ADD MSTORE PUSH2 0x7B3 DUP3 MLOAD DUP1 SWAP4 PUSH1 0x20 PUSH1 0x5B DUP6 ADD SWAP2 ADD PUSH2 0x121D JUMP JUMPDEST PUSH1 0x11 PUSH1 0xF9 SHL PUSH1 0x5B DUP4 DUP4 ADD ADD MSTORE PUSH1 0x7D PUSH1 0xF8 SHL PUSH1 0x5C DUP4 DUP4 ADD ADD MSTORE ADD SUB PUSH1 0x3D DUP2 ADD DUP9 MSTORE ADD DUP7 PUSH2 0x10C0 JUMP JUMPDEST ISZERO PUSH2 0xAF4 JUMPI PUSH1 0x40 MLOAD PUSH2 0x7EB DUP2 PUSH2 0x1056 JUMP JUMPDEST PUSH1 0x4 DUP2 MSTORE PUSH4 0x74727565 PUSH1 0xE0 SHL PUSH1 0x20 DUP3 ADD MSTORE SWAP5 JUMPDEST PUSH2 0x868 PUSH1 0x41 PUSH1 0x40 MLOAD DUP1 SWAP9 PUSH17 0x2261757468656E746963697479223A207B PUSH1 0x78 SHL PUSH1 0x20 DUP4 ADD MSTORE PUSH15 0x1134B9A0BABA3432B73A34B1911D1 PUSH1 0x8D SHL PUSH1 0x31 DUP4 ADD MSTORE PUSH2 0x84E DUP2 MLOAD DUP1 SWAP3 PUSH1 0x20 PUSH1 0x40 DUP7 ADD SWAP2 ADD PUSH2 0x121D JUMP JUMPDEST DUP2 ADD PUSH1 0x7D PUSH1 0xF8 SHL PUSH1 0x40 DUP3 ADD MSTORE SUB PUSH1 0x21 DUP2 ADD DUP10 MSTORE ADD DUP8 PUSH2 0x10C0 JUMP JUMPDEST DUP3 MLOAD SWAP2 PUSH1 0x60 DUP5 ADD MLOAD SWAP3 PUSH2 0x8F5 PUSH1 0x20 PUSH1 0xA0 PUSH1 0x80 DUP9 ADD MLOAD SWAP8 PUSH2 0x8BA DUP4 PUSH1 0x40 MLOAD DUP1 SWAP12 DUP14 PUSH2 0x89A DUP2 MLOAD DUP1 SWAP3 DUP7 DUP1 DUP8 ADD SWAP2 ADD PUSH2 0x121D JUMP JUMPDEST DUP3 ADD PUSH2 0x8AE DUP3 MLOAD DUP1 SWAP4 DUP7 DUP1 DUP6 ADD SWAP2 ADD PUSH2 0x121D JUMP JUMPDEST ADD SUB DUP1 DUP13 MSTORE ADD DUP11 PUSH2 0x10C0 JUMP JUMPDEST ADD MLOAD SWAP8 PUSH1 0x40 MLOAD SWAP9 DUP2 PUSH2 0x8D5 DUP12 SWAP4 MLOAD DUP1 SWAP3 DUP7 DUP1 DUP8 ADD SWAP2 ADD PUSH2 0x121D JUMP JUMPDEST DUP3 ADD PUSH2 0x8E9 DUP3 MLOAD DUP1 SWAP4 DUP7 DUP1 DUP6 ADD SWAP2 ADD PUSH2 0x121D JUMP JUMPDEST ADD SUB DUP1 DUP10 MSTORE ADD DUP8 PUSH2 0x10C0 JUMP JUMPDEST PUSH1 0x2A PUSH1 0x40 MLOAD SWAP13 DUP14 DUP1 SWAP12 PUSH10 0x3D913730B6B2911D1011 PUSH1 0xB1 SHL PUSH1 0x20 DUP4 ADD MSTORE PUSH1 0x20 DUP2 MLOAD SWAP5 DUP6 SWAP4 ADD SWAP2 ADD PUSH2 0x121D JUMP JUMPDEST DUP10 ADD PUSH1 0x1 PUSH1 0xFD SHL PUSH1 0x2A DUP3 ADD MSTORE PUSH2 0x940 DUP3 MLOAD DUP1 SWAP4 PUSH1 0x20 PUSH1 0x2B DUP6 ADD SWAP2 ADD PUSH2 0x121D JUMP JUMPDEST ADD PUSH2 0x88B PUSH1 0xF2 SHL PUSH1 0x2B DUP3 ADD MSTORE PUSH16 0x113232B9B1B934B83A34B7B7111D1011 PUSH1 0x81 SHL PUSH1 0x2D DUP3 ADD MSTORE PUSH2 0x979 DUP3 MLOAD DUP1 SWAP4 PUSH1 0x20 PUSH1 0x3D DUP6 ADD SWAP2 ADD PUSH2 0x121D JUMP JUMPDEST ADD PUSH2 0x88B PUSH1 0xF2 SHL PUSH1 0x3D DUP3 ADD MSTORE PUSH10 0x1134B6B0B3B2911D1011 PUSH1 0xB1 SHL PUSH1 0x3F DUP3 ADD MSTORE PUSH2 0x9AC DUP3 MLOAD DUP1 SWAP4 PUSH1 0x20 PUSH1 0x49 DUP6 ADD SWAP2 ADD PUSH2 0x121D JUMP JUMPDEST ADD PUSH2 0x88B PUSH1 0xF2 SHL PUSH1 0x49 DUP3 ADD MSTORE PUSH17 0x1132BC3A32B93730B62FBAB936111D1011 PUSH1 0x79 SHL PUSH1 0x4B DUP3 ADD MSTORE PUSH2 0x9E6 DUP3 MLOAD DUP1 SWAP4 PUSH1 0x20 PUSH1 0x5C DUP6 ADD SWAP2 ADD PUSH2 0x121D JUMP JUMPDEST ADD PUSH2 0x88B PUSH1 0xF2 SHL PUSH1 0x5C DUP3 ADD MSTORE PUSH18 0x1130B734B6B0BA34B7B72FBAB936111D1011 PUSH1 0x71 SHL PUSH1 0x5E DUP3 ADD MSTORE PUSH2 0xA21 DUP3 MLOAD DUP1 SWAP4 PUSH1 0x20 PUSH1 0x70 DUP6 ADD SWAP2 ADD PUSH2 0x121D JUMP JUMPDEST ADD PUSH2 0x88B PUSH1 0xF2 SHL PUSH1 0x70 DUP3 ADD MSTORE PUSH15 0x1130BA3A3934B13ABA32B9911D1011 PUSH1 0x89 SHL PUSH1 0x72 DUP3 ADD MSTORE PUSH2 0xA59 DUP3 MLOAD DUP1 SWAP4 PUSH1 0x20 PUSH1 0x81 DUP6 ADD SWAP2 ADD PUSH2 0x121D JUMP JUMPDEST ADD PUSH2 0x88B PUSH1 0xF2 SHL PUSH1 0x81 DUP3 ADD MSTORE PUSH2 0xA79 DUP3 MLOAD DUP1 SWAP4 PUSH1 0x20 PUSH1 0x83 DUP6 ADD SWAP2 ADD PUSH2 0x121D JUMP JUMPDEST ADD PUSH1 0xB PUSH1 0xFA SHL PUSH1 0x83 DUP3 ADD MSTORE PUSH2 0xA98 DUP3 MLOAD DUP1 SWAP4 PUSH1 0x20 PUSH1 0x84 DUP6 ADD SWAP2 ADD PUSH2 0x121D JUMP JUMPDEST ADD PUSH1 0x7D PUSH1 0xF8 SHL PUSH1 0x84 DUP3 ADD MSTORE SUB PUSH1 0x65 DUP2 ADD DUP5 MSTORE ADD DUP3 PUSH2 0x10C0 JUMP JUMPDEST PUSH2 0x257 PUSH1 0x3D PUSH1 0x40 MLOAD DUP1 SWAP4 PUSH32 0x646174613A6170706C69636174696F6E2F6A736F6E3B6261736536342C000000 PUSH1 0x20 DUP4 ADD MSTORE PUSH2 0x247 DUP2 MLOAD DUP1 SWAP3 PUSH1 0x20 DUP7 DUP7 ADD SWAP2 ADD PUSH2 0x121D JUMP JUMPDEST PUSH1 0x40 MLOAD PUSH2 0xB00 DUP2 PUSH2 0x1056 JUMP JUMPDEST PUSH1 0x5 DUP2 MSTORE PUSH5 0x66616C7365 PUSH1 0xD8 SHL PUSH1 0x20 DUP3 ADD MSTORE SWAP5 PUSH2 0x7FE JUMP JUMPDEST POP PUSH1 0x40 MLOAD PUSH2 0xB25 DUP2 PUSH2 0x1088 JUMP JUMPDEST PUSH1 0x0 DUP2 MSTORE SWAP1 PUSH2 0x6CD JUMP JUMPDEST POP PUSH1 0x40 MLOAD PUSH2 0xB3C DUP2 PUSH2 0x1088 JUMP JUMPDEST PUSH1 0x0 DUP2 MSTORE SWAP1 PUSH2 0x6C4 JUMP JUMPDEST POP PUSH1 0x40 MLOAD PUSH2 0xB53 DUP2 PUSH2 0x1088 JUMP JUMPDEST PUSH1 0x0 DUP2 MSTORE SWAP9 PUSH2 0x6BB JUMP JUMPDEST POP PUSH1 0x40 MLOAD PUSH2 0xB6A DUP2 PUSH2 0x1088 JUMP JUMPDEST PUSH1 0x0 DUP2 MSTORE SWAP2 PUSH2 0x6B2 JUMP JUMPDEST SWAP1 SWAP9 SWAP5 SWAP7 SWAP3 SWAP6 SWAP2 SWAP8 SWAP4 POP PUSH1 0x20 DUP2 RETURNDATASIZE PUSH1 0x20 GT PUSH2 0xBBF JUMPI JUMPDEST DUP2 PUSH2 0xB97 PUSH1 0x20 SWAP4 DUP4 PUSH2 0x10C0 JUMP JUMPDEST DUP2 ADD SUB SLT PUSH2 0x267 JUMPI MLOAD SWAP6 DUP7 ISZERO ISZERO DUP8 SUB PUSH2 0x267 JUMPI SWAP4 SWAP8 SWAP3 SWAP7 SWAP2 SWAP6 SWAP1 SWAP5 SWAP1 SWAP3 SWAP1 SWAP2 SWAP1 PUSH2 0x263 PUSH2 0x687 JUMP JUMPDEST RETURNDATASIZE SWAP2 POP PUSH2 0xB8A JUMP JUMPDEST PUSH1 0x40 MLOAD RETURNDATASIZE PUSH1 0x0 DUP3 RETURNDATACOPY RETURNDATASIZE SWAP1 REVERT JUMPDEST PUSH1 0x20 SWAP2 SWAP6 POP PUSH2 0xBF7 SWAP1 DUP3 RETURNDATASIZE DUP5 GT PUSH2 0xBFE JUMPI JUMPDEST PUSH2 0xBEF DUP2 DUP4 PUSH2 0x10C0 JUMP JUMPDEST DUP2 ADD SWAP1 PUSH2 0x12AB JUMP JUMPDEST SWAP5 SWAP1 PUSH2 0x64C JUMP JUMPDEST POP RETURNDATASIZE PUSH2 0xBE5 JUMP JUMPDEST PUSH2 0xC1C SWAP2 POP DUP3 RETURNDATASIZE DUP5 GT PUSH2 0xBFE JUMPI PUSH2 0xBEF DUP2 DUP4 PUSH2 0x10C0 JUMP JUMPDEST DUP14 PUSH2 0x61F JUMP JUMPDEST PUSH1 0x20 SWAP2 SWAP5 POP PUSH2 0xC43 SWAP1 RETURNDATASIZE DUP1 PUSH1 0x0 DUP4 RETURNDATACOPY PUSH2 0xC3B DUP2 DUP4 PUSH2 0x10C0 JUMP JUMPDEST DUP2 ADD SWAP1 PUSH2 0x12CA JUMP JUMPDEST SWAP4 SWAP1 PUSH2 0x5E8 JUMP JUMPDEST PUSH2 0xC63 SWAP2 POP PUSH1 0x20 RETURNDATASIZE PUSH1 0x20 GT PUSH2 0xBFE JUMPI PUSH2 0xBEF DUP2 DUP4 PUSH2 0x10C0 JUMP JUMPDEST DUP14 PUSH2 0x5AD JUMP JUMPDEST PUSH2 0xC80 SWAP2 POP DUP3 RETURNDATASIZE DUP5 GT PUSH2 0xBFE JUMPI PUSH2 0xBEF DUP2 DUP4 PUSH2 0x10C0 JUMP JUMPDEST DUP14 PUSH2 0x57B JUMP JUMPDEST PUSH2 0xC9C SWAP2 SWAP8 POP RETURNDATASIZE DUP1 PUSH1 0x0 DUP4 RETURNDATACOPY PUSH2 0xC3B DUP2 DUP4 PUSH2 0x10C0 JUMP JUMPDEST SWAP6 DUP11 PUSH2 0x545 JUMP JUMPDEST PUSH2 0xCBC SWAP2 POP PUSH1 0x20 RETURNDATASIZE PUSH1 0x20 GT PUSH2 0xBFE JUMPI PUSH2 0xBEF DUP2 DUP4 PUSH2 0x10C0 JUMP JUMPDEST DUP13 PUSH2 0x50D JUMP JUMPDEST PUSH2 0xCD9 SWAP2 POP DUP3 RETURNDATASIZE DUP5 GT PUSH2 0xBFE JUMPI PUSH2 0xBEF DUP2 DUP4 PUSH2 0x10C0 JUMP JUMPDEST DUP13 PUSH2 0x4DB JUMP JUMPDEST PUSH2 0xCF5 SWAP2 SWAP3 POP RETURNDATASIZE DUP1 PUSH1 0x0 DUP4 RETURNDATACOPY PUSH2 0xC3B DUP2 DUP4 PUSH2 0x10C0 JUMP JUMPDEST SWAP1 DUP10 PUSH2 0x4A5 JUMP JUMPDEST PUSH2 0xD15 SWAP2 POP PUSH1 0x20 RETURNDATASIZE PUSH1 0x20 GT PUSH2 0xBFE JUMPI PUSH2 0xBEF DUP2 DUP4 PUSH2 0x10C0 JUMP JUMPDEST DUP12 PUSH2 0x46D JUMP JUMPDEST PUSH2 0xD32 SWAP2 POP DUP3 RETURNDATASIZE DUP5 GT PUSH2 0xBFE JUMPI PUSH2 0xBEF DUP2 DUP4 PUSH2 0x10C0 JUMP JUMPDEST DUP12 PUSH2 0x43B JUMP JUMPDEST PUSH2 0xD4E SWAP2 SWAP6 POP RETURNDATASIZE DUP1 PUSH1 0x0 DUP4 RETURNDATACOPY PUSH2 0xC3B DUP2 DUP4 PUSH2 0x10C0 JUMP JUMPDEST SWAP4 DUP9 PUSH2 0x405 JUMP JUMPDEST PUSH2 0xD6E SWAP2 POP PUSH1 0x20 RETURNDATASIZE PUSH1 0x20 GT PUSH2 0xBFE JUMPI PUSH2 0xBEF DUP2 DUP4 PUSH2 0x10C0 JUMP JUMPDEST DUP11 PUSH2 0x3CD JUMP JUMPDEST PUSH2 0xD8B SWAP2 POP DUP3 RETURNDATASIZE DUP5 GT PUSH2 0xBFE JUMPI PUSH2 0xBEF DUP2 DUP4 PUSH2 0x10C0 JUMP JUMPDEST DUP11 PUSH2 0x39B JUMP JUMPDEST PUSH1 0x1 DUP2 SUB PUSH2 0xE8D JUMPI POP POP POP POP PUSH1 0x40 MLOAD SWAP2 PUSH2 0xDAA DUP4 PUSH2 0x1056 JUMP JUMPDEST PUSH1 0x2 DUP4 MSTORE PUSH1 0x20 SWAP3 PUSH2 0xC2A7 PUSH1 0xF0 SHL DUP5 DUP3 ADD MSTORE SWAP4 PUSH2 0xE6C PUSH2 0xE86 PUSH1 0x75 PUSH1 0x40 DUP5 ADD MLOAD PUSH2 0xDE4 DUP9 PUSH1 0x40 MLOAD DUP1 SWAP4 DUP10 MLOAD PUSH2 0x340 DUP2 DUP13 DUP7 DUP1 DUP8 ADD SWAP2 ADD PUSH2 0x121D JUMP JUMPDEST SWAP7 PUSH2 0xDEE DUP11 PUSH2 0x14DE JUMP JUMPDEST PUSH1 0x40 MLOAD SWAP5 DUP3 PUSH32 0x546865736520536F6E6753686172657320726570726573656E7420796F757220 DUP8 SWAP5 DUP6 ADD MSTORE PUSH32 0x6F776E657273686970207374616B6520696E2074686520726F79616C74792065 PUSH1 0x40 DUP6 ADD MSTORE PUSH20 0x30B93734B733B99037B3103A34329029B7B7339 PUSH1 0x65 SHL PUSH1 0x60 DUP6 ADD MSTORE DUP3 MLOAD SWAP3 DUP4 SWAP2 PUSH1 0x74 DUP7 ADD SWAP2 ADD PUSH2 0x121D JUMP JUMPDEST DUP2 ADD PUSH1 0x17 PUSH1 0xF9 SHL PUSH1 0x74 DUP3 ADD MSTORE SUB PUSH1 0x55 DUP2 ADD DUP5 MSTORE ADD DUP3 PUSH2 0x10C0 JUMP JUMPDEST SWAP6 JUMPDEST PUSH2 0x366 JUMP JUMPDEST PUSH1 0x2 DUP2 SUB PUSH2 0xF7B JUMPI POP POP POP POP PUSH1 0x40 MLOAD SWAP2 PUSH2 0xEA6 DUP4 PUSH2 0x1056 JUMP JUMPDEST PUSH1 0x3 DUP4 MSTORE PUSH1 0x20 SWAP3 PUSH3 0xE29FB3 PUSH1 0xE8 SHL DUP5 DUP3 ADD MSTORE SWAP4 PUSH2 0xF61 PUSH2 0xE86 PUSH1 0x6D PUSH1 0x40 DUP5 ADD MLOAD PUSH2 0xEE1 DUP9 PUSH1 0x40 MLOAD DUP1 SWAP4 DUP10 MLOAD PUSH2 0x340 DUP2 DUP13 DUP7 DUP1 DUP8 ADD SWAP2 ADD PUSH2 0x121D JUMP JUMPDEST SWAP7 PUSH2 0xEEB DUP11 PUSH2 0x14DE JUMP JUMPDEST PUSH1 0x40 MLOAD SWAP5 DUP3 PUSH32 0x5468697320746F6B656E206772616E747320796F752061636365737320746F20 DUP8 SWAP5 DUP6 ADD MSTORE PUSH32 0x646F776E6C6F6164206120686967682D7175616C6974792076657273696F6E20 PUSH1 0x40 DUP6 ADD MSTORE PUSH12 0x37B3103A34329039B7B7339 PUSH1 0xA5 SHL PUSH1 0x60 DUP6 ADD MSTORE DUP3 MLOAD SWAP3 DUP4 SWAP2 PUSH1 0x6C DUP7 ADD SWAP2 ADD PUSH2 0x121D JUMP JUMPDEST DUP2 ADD PUSH1 0x17 PUSH1 0xF9 SHL PUSH1 0x6C DUP3 ADD MSTORE SUB PUSH1 0x4D DUP2 ADD DUP5 MSTORE ADD DUP3 PUSH2 0x10C0 JUMP JUMPDEST PUSH1 0x3 SWAP1 SWAP8 SWAP2 SWAP6 SWAP4 SWAP8 SWAP7 SWAP3 SWAP7 LT PUSH2 0xE88 JUMPI SWAP6 POP SWAP4 POP SWAP2 POP PUSH1 0x40 MLOAD SWAP2 PUSH2 0xF9E DUP4 PUSH2 0x1056 JUMP JUMPDEST PUSH1 0x4 DUP4 MSTORE PUSH1 0x20 SWAP3 PUSH4 0x3C27E4E1 PUSH1 0xE2 SHL DUP5 DUP3 ADD MSTORE SWAP4 PUSH2 0x103C PUSH2 0xE86 PUSH1 0x55 PUSH1 0x40 DUP5 ADD MLOAD PUSH2 0xFDA DUP9 PUSH1 0x40 MLOAD DUP1 SWAP4 DUP10 MLOAD PUSH2 0x340 DUP2 DUP13 DUP7 DUP1 DUP8 ADD SWAP2 ADD PUSH2 0x121D JUMP JUMPDEST SWAP7 PUSH2 0xFE4 DUP11 PUSH2 0x14DE JUMP JUMPDEST PUSH1 0x40 MLOAD SWAP5 DUP3 PUSH32 0x546869732069732061204C6567616C20436F6E747261637420546F6B656E2066 DUP8 SWAP5 DUP6 ADD MSTORE PUSH20 0x37B9103A3432902BB930B83832B21029B7B7339 PUSH1 0x65 SHL PUSH1 0x40 DUP6 ADD MSTORE DUP3 MLOAD SWAP3 DUP4 SWAP2 PUSH1 0x54 DUP7 ADD SWAP2 ADD PUSH2 0x121D JUMP JUMPDEST DUP2 ADD PUSH1 0x17 PUSH1 0xF9 SHL PUSH1 0x54 DUP3 ADD MSTORE SUB PUSH1 0x35 DUP2 ADD DUP5 MSTORE ADD DUP3 PUSH2 0x10C0 JUMP JUMPDEST PUSH1 0x40 DUP2 ADD SWAP1 DUP2 LT PUSH8 0xFFFFFFFFFFFFFFFF DUP3 GT OR PUSH2 0x1072 JUMPI PUSH1 0x40 MSTORE JUMP JUMPDEST PUSH4 0x4E487B71 PUSH1 0xE0 SHL PUSH1 0x0 MSTORE PUSH1 0x41 PUSH1 0x4 MSTORE PUSH1 0x24 PUSH1 0x0 REVERT JUMPDEST PUSH1 0x20 DUP2 ADD SWAP1 DUP2 LT PUSH8 0xFFFFFFFFFFFFFFFF DUP3 GT OR PUSH2 0x1072 JUMPI PUSH1 0x40 MSTORE JUMP JUMPDEST PUSH1 0x60 DUP2 ADD SWAP1 DUP2 LT PUSH8 0xFFFFFFFFFFFFFFFF DUP3 GT OR PUSH2 0x1072 JUMPI PUSH1 0x40 MSTORE JUMP JUMPDEST SWAP1 PUSH1 0x1F DUP1 NOT SWAP2 ADD AND DUP2 ADD SWAP1 DUP2 LT PUSH8 0xFFFFFFFFFFFFFFFF DUP3 GT OR PUSH2 0x1072 JUMPI PUSH1 0x40 MSTORE JUMP JUMPDEST PUSH8 0xFFFFFFFFFFFFFFFF DUP2 GT PUSH2 0x1072 JUMPI PUSH1 0x1F ADD PUSH1 0x1F NOT AND PUSH1 0x20 ADD SWAP1 JUMP JUMPDEST DUP2 PUSH1 0x1F DUP3 ADD SLT ISZERO PUSH2 0x267 JUMPI DUP1 CALLDATALOAD SWAP1 PUSH2 0x1115 DUP3 PUSH2 0x10E2 JUMP JUMPDEST SWAP3 PUSH2 0x1123 PUSH1 0x40 MLOAD SWAP5 DUP6 PUSH2 0x10C0 JUMP JUMPDEST DUP3 DUP5 MSTORE PUSH1 0x20 DUP4 DUP4 ADD ADD GT PUSH2 0x267 JUMPI DUP2 PUSH1 0x0 SWAP3 PUSH1 0x20 DUP1 SWAP4 ADD DUP4 DUP7 ADD CALLDATACOPY DUP4 ADD ADD MSTORE SWAP1 JUMP JUMPDEST SWAP2 SWAP1 SWAP2 PUSH1 0xC0 DUP2 DUP5 SUB SLT PUSH2 0x267 JUMPI PUSH1 0x40 MLOAD SWAP1 PUSH8 0xFFFFFFFFFFFFFFFF SWAP1 PUSH1 0xC0 DUP4 ADD DUP3 DUP2 GT DUP5 DUP3 LT OR PUSH2 0x1072 JUMPI PUSH1 0x40 MSTORE DUP3 SWAP5 DUP2 CALLDATALOAD DUP4 DUP2 GT PUSH2 0x267 JUMPI DUP2 PUSH2 0x1189 SWAP2 DUP5 ADD PUSH2 0x10FE JUMP JUMPDEST DUP5 MSTORE PUSH1 0x20 DUP3 ADD CALLDATALOAD DUP4 DUP2 GT PUSH2 0x267 JUMPI DUP2 PUSH2 0x11A3 SWAP2 DUP5 ADD PUSH2 0x10FE JUMP JUMPDEST PUSH1 0x20 DUP6 ADD MSTORE PUSH1 0x40 DUP3 ADD CALLDATALOAD DUP4 DUP2 GT PUSH2 0x267 JUMPI DUP2 PUSH2 0x11C0 SWAP2 DUP5 ADD PUSH2 0x10FE JUMP JUMPDEST PUSH1 0x40 DUP6 ADD MSTORE PUSH1 0x60 DUP3 ADD CALLDATALOAD DUP4 DUP2 GT PUSH2 0x267 JUMPI DUP2 PUSH2 0x11DD SWAP2 DUP5 ADD PUSH2 0x10FE JUMP JUMPDEST PUSH1 0x60 DUP6 ADD MSTORE PUSH1 0x80 DUP3 ADD CALLDATALOAD DUP4 DUP2 GT PUSH2 0x267 JUMPI DUP2 PUSH2 0x11FA SWAP2 DUP5 ADD PUSH2 0x10FE JUMP JUMPDEST PUSH1 0x80 DUP6 ADD MSTORE PUSH1 0xA0 DUP3 ADD CALLDATALOAD SWAP3 DUP4 GT PUSH2 0x267 JUMPI PUSH1 0xA0 SWAP3 PUSH2 0x1218 SWAP3 ADD PUSH2 0x10FE JUMP JUMPDEST SWAP2 ADD MSTORE JUMP JUMPDEST PUSH1 0x0 JUMPDEST DUP4 DUP2 LT PUSH2 0x1230 JUMPI POP POP PUSH1 0x0 SWAP2 ADD MSTORE JUMP JUMPDEST DUP2 DUP2 ADD MLOAD DUP4 DUP3 ADD MSTORE PUSH1 0x20 ADD PUSH2 0x1220 JUMP JUMPDEST PUSH1 0x40 SWAP2 PUSH1 0x20 DUP3 MSTORE PUSH2 0x1260 DUP2 MLOAD DUP1 SWAP3 DUP2 PUSH1 0x20 DUP7 ADD MSTORE PUSH1 0x20 DUP7 DUP7 ADD SWAP2 ADD PUSH2 0x121D JUMP JUMPDEST PUSH1 0x1F ADD PUSH1 0x1F NOT AND ADD ADD SWAP1 JUMP JUMPDEST ISZERO PUSH2 0x1273 JUMPI JUMP JUMPDEST PUSH1 0x40 MLOAD PUSH3 0x461BCD PUSH1 0xE5 SHL DUP2 MSTORE PUSH1 0x20 PUSH1 0x4 DUP3 ADD MSTORE PUSH1 0x10 PUSH1 0x24 DUP3 ADD MSTORE PUSH16 0x10985CD948155492481B9BDD081CD95D PUSH1 0x82 SHL PUSH1 0x44 DUP3 ADD MSTORE PUSH1 0x64 SWAP1 REVERT JUMPDEST SWAP1 DUP2 PUSH1 0x20 SWAP2 SUB SLT PUSH2 0x267 JUMPI MLOAD PUSH1 0x1 PUSH1 0x1 PUSH1 0xA0 SHL SUB DUP2 AND DUP2 SUB PUSH2 0x267 JUMPI SWAP1 JUMP JUMPDEST PUSH1 0x20 DUP2 DUP4 SUB SLT PUSH2 0x267 JUMPI DUP1 MLOAD SWAP1 PUSH8 0xFFFFFFFFFFFFFFFF DUP3 GT PUSH2 0x267 JUMPI ADD DUP2 PUSH1 0x1F DUP3 ADD SLT ISZERO PUSH2 0x267 JUMPI DUP1 MLOAD PUSH2 0x12FD DUP2 PUSH2 0x10E2 JUMP JUMPDEST SWAP3 PUSH2 0x130B PUSH1 0x40 MLOAD SWAP5 DUP6 PUSH2 0x10C0 JUMP JUMPDEST DUP2 DUP5 MSTORE PUSH1 0x20 DUP3 DUP5 ADD ADD GT PUSH2 0x267 JUMPI PUSH2 0x1329 SWAP2 PUSH1 0x20 DUP1 DUP6 ADD SWAP2 ADD PUSH2 0x121D JUMP JUMPDEST SWAP1 JUMP JUMPDEST DUP1 MLOAD ISZERO PUSH2 0x14A3 JUMPI PUSH1 0x40 MLOAD SWAP1 PUSH2 0x1340 DUP3 PUSH2 0x10A4 JUMP JUMPDEST PUSH1 0x40 DUP3 MSTORE PUSH32 0x4142434445464748494A4B4C4D4E4F505152535455565758595A616263646566 PUSH1 0x20 DUP4 ADD MSTORE PUSH32 0x6768696A6B6C6D6E6F707172737475767778797A303132333435363738392B2F PUSH1 0x40 DUP4 ADD MSTORE DUP1 MLOAD PUSH1 0x2 SWAP2 DUP3 DUP3 ADD DUP1 SWAP3 GT PUSH2 0x148D JUMPI PUSH1 0x3 SWAP2 DUP3 SWAP1 DIV DUP1 DUP5 SHL SWAP5 SWAP1 PUSH1 0x1 PUSH1 0x1 PUSH1 0xFE SHL SUB DUP2 AND SUB PUSH2 0x148D JUMPI SWAP3 PUSH2 0x13DC PUSH2 0x13C6 DUP7 PUSH2 0x10E2 JUMP JUMPDEST SWAP6 PUSH2 0x13D4 PUSH1 0x40 MLOAD SWAP8 DUP9 PUSH2 0x10C0 JUMP JUMPDEST DUP1 DUP8 MSTORE PUSH2 0x10E2 JUMP JUMPDEST PUSH1 0x20 DUP7 ADD SWAP1 PUSH1 0x1F NOT ADD CALLDATASIZE DUP3 CALLDATACOPY SWAP4 DUP3 SWAP2 DUP4 MLOAD DUP5 ADD SWAP1 PUSH1 0x20 DUP3 ADD SWAP3 DUP4 MLOAD SWAP5 PUSH1 0x0 DUP6 MSTORE JUMPDEST DUP4 DUP2 LT PUSH2 0x143C JUMPI POP POP POP POP MSTORE MLOAD MOD DUP1 PUSH1 0x1 EQ PUSH2 0x1429 JUMPI PUSH1 0x2 EQ PUSH2 0x141E JUMPI POP SWAP1 JUMP JUMPDEST PUSH1 0x3D SWAP1 PUSH1 0x0 NOT ADD MSTORE8 SWAP1 JUMP JUMPDEST POP PUSH1 0x3D SWAP1 DUP2 PUSH1 0x0 NOT DUP3 ADD MSTORE8 PUSH1 0x1 NOT ADD MSTORE8 SWAP1 JUMP JUMPDEST DUP8 PUSH1 0x4 SWAP2 SWAP10 SWAP3 SWAP4 SWAP5 SWAP10 ADD SWAP2 DUP3 MLOAD PUSH1 0x1 SWAP1 PUSH1 0x3F SWAP1 DUP3 DUP3 DUP3 PUSH1 0x12 SHR AND DUP9 ADD ADD MLOAD DUP5 MSTORE8 DUP3 DUP3 DUP3 PUSH1 0xC SHR AND DUP9 ADD ADD MLOAD DUP4 DUP6 ADD MSTORE8 DUP3 DUP3 DUP3 PUSH1 0x6 SHR AND DUP9 ADD ADD MLOAD DUP9 DUP6 ADD MSTORE8 AND DUP6 ADD ADD MLOAD DUP10 DUP3 ADD MSTORE8 ADD SWAP8 SWAP3 SWAP2 SWAP1 PUSH2 0x13FD JUMP JUMPDEST PUSH4 0x4E487B71 PUSH1 0xE0 SHL PUSH1 0x0 MSTORE PUSH1 0x11 PUSH1 0x4 MSTORE PUSH1 0x24 PUSH1 0x0 REVERT JUMPDEST POP PUSH1 0x40 MLOAD PUSH2 0x14B0 DUP2 PUSH2 0x1088 JUMP JUMPDEST PUSH1 0x0 DUP2 MSTORE SWAP1 JUMP JUMPDEST SWAP1 DUP2 MLOAD DUP2 LT ISZERO PUSH2 0x14C8 JUMPI ADD PUSH1 0x20 ADD SWAP1 JUMP JUMPDEST PUSH4 0x4E487B71 PUSH1 0xE0 SHL PUSH1 0x0 MSTORE PUSH1 0x32 PUSH1 0x4 MSTORE PUSH1 0x24 PUSH1 0x0 REVERT JUMPDEST PUSH1 0x40 MLOAD SWAP1 PUSH1 0x1 PUSH1 0x1 PUSH1 0xA0 SHL SUB AND PUSH2 0x14F4 DUP3 PUSH2 0x1056 JUMP JUMPDEST PUSH1 0x10 DUP3 MSTORE PUSH1 0x20 PUSH16 0x181899199A1A9B1B9C1CB0B131B232B3 PUSH1 0x81 SHL DUP2 DUP5 ADD MSTORE PUSH1 0x40 MLOAD SWAP3 PUSH2 0x151F DUP5 PUSH2 0x10A4 JUMP JUMPDEST PUSH1 0x2A DUP5 MSTORE DUP2 DUP5 ADD PUSH1 0x40 CALLDATASIZE DUP3 CALLDATACOPY DUP5 MLOAD ISZERO PUSH2 0x14C8 JUMPI PUSH1 0x30 SWAP1 MSTORE8 DUP4 MLOAD SWAP3 PUSH1 0x1 SWAP4 DUP5 LT ISZERO PUSH2 0x14C8 JUMPI PUSH1 0x78 PUSH1 0x21 DUP7 ADD MSTORE8 PUSH1 0x0 JUMPDEST PUSH1 0x14 DUP2 LT PUSH2 0x155D JUMPI POP POP POP POP POP SWAP1 JUMP JUMPDEST PUSH1 0xC DUP2 ADD DUP1 DUP3 GT PUSH2 0x148D JUMPI DUP5 DUP2 LT ISZERO PUSH2 0x14C8 JUMPI DUP3 SWAP1 BYTE PUSH1 0x4 PUSH1 0x1 PUSH1 0x1 PUSH1 0xF8 SHL SUB NOT PUSH1 0xF DUP2 PUSH2 0x158F DUP6 DUP6 SHR DUP4 AND DUP10 PUSH2 0x14B7 JUMP JUMPDEST MLOAD AND SWAP4 DUP6 DUP11 SHL SWAP5 PUSH1 0x2 SWAP1 DUP8 DUP8 DIV DUP3 EQ DUP9 ISZERO OR ISZERO PUSH2 0x1610 JUMPI DUP7 DUP3 ADD DUP1 SWAP3 GT PUSH2 0x1610 JUMPI PUSH2 0x15C4 PUSH2 0x15CC SWAP5 SWAP4 SWAP3 DUP15 SWAP3 PUSH1 0x0 BYTE SWAP3 PUSH2 0x14B7 JUMP JUMPDEST MSTORE8 AND DUP8 PUSH2 0x14B7 JUMP JUMPDEST MLOAD AND SWAP1 PUSH1 0x3 SWAP3 DUP4 ADD DUP1 SWAP4 GT PUSH2 0x15FB JUMPI POP PUSH2 0x15EA SWAP1 PUSH1 0x0 BYTE SWAP2 DUP9 PUSH2 0x14B7 JUMP JUMPDEST MSTORE8 PUSH1 0x0 NOT DUP2 EQ PUSH2 0x148D JUMPI DUP5 ADD PUSH2 0x154D JUMP JUMPDEST PUSH1 0x11 SWAP1 PUSH4 0x4E487B71 PUSH1 0xE0 SHL PUSH1 0x0 MSTORE MSTORE PUSH1 0x24 PUSH1 0x0 REVERT JUMPDEST PUSH1 0x11 DUP7 PUSH4 0x4E487B71 PUSH1 0xE0 SHL PUSH1 0x0 MSTORE MSTORE PUSH1 0x24 PUSH1 0x0 REVERT INVALID LOG2 PUSH5 0x6970667358 0x22 SLT KECCAK256 POP STOP 0x2B 0x2D 0xD4 0xC7 0x2D 0xBA 0x2A PUSH23 0xB65B1F3C34FEDA7DA130BE792DC1903D3DDC6B81CCFD64 PUSH20 0x6F6C634300081400330000000000000000000000 "},"methodIdentifiers":{"composeContractURI((string,string,string,string,string,string),address,string,address)":"b7e3c106","composeTokenURI((string,string,string,string,string,string),uint256,address,string,address)":"6a1ed362"}},"storageLayout":{"storage":[],"types":null}}}}