{"contracts/protocol/NonUpgradable/MetadataModule.sol":{"MetadataModule":{"abi":[{"inputs":[{"internalType":"address","name":"_initialOwner","type":"address"}],"stateMutability":"nonpayable","type":"constructor"},{"inputs":[{"internalType":"address","name":"target","type":"address"}],"name":"AddressEmptyCode","type":"error"},{"inputs":[{"internalType":"address","name":"account","type":"address"}],"name":"AddressInsufficientBalance","type":"error"},{"inputs":[],"name":"FailedInnerCall","type":"error"},{"inputs":[{"internalType":"address","name":"owner","type":"address"}],"name":"OwnableInvalidOwner","type":"error"},{"inputs":[{"internalType":"address","name":"account","type":"address"}],"name":"OwnableUnauthorizedAccount","type":"error"},{"inputs":[],"name":"ReentrancyGuardReentrantCall","type":"error"},{"inputs":[{"internalType":"address","name":"token","type":"address"}],"name":"SafeERC20FailedOperation","type":"error"},{"anonymous":false,"inputs":[{"indexed":true,"internalType":"address","name":"token","type":"address"},{"indexed":true,"internalType":"address","name":"recipient","type":"address"},{"indexed":false,"internalType":"uint256","name":"amount","type":"uint256"}],"name":"FeesWithdrawn","type":"event"},{"anonymous":false,"inputs":[{"indexed":true,"internalType":"address","name":"wrappedSong","type":"address"},{"components":[{"internalType":"string","name":"name","type":"string"},{"internalType":"string","name":"description","type":"string"},{"internalType":"string","name":"image","type":"string"},{"internalType":"string","name":"externalUrl","type":"string"},{"internalType":"string","name":"animationUrl","type":"string"},{"internalType":"string","name":"attributesIpfsHash","type":"string"}],"indexed":false,"internalType":"struct IMetadataModule.Metadata","name":"newMetadata","type":"tuple"}],"name":"MetadataCreated","type":"event"},{"anonymous":false,"inputs":[{"indexed":true,"internalType":"address","name":"wrappedSong","type":"address"}],"name":"MetadataRemoved","type":"event"},{"anonymous":false,"inputs":[{"indexed":true,"internalType":"address","name":"wrappedSong","type":"address"}],"name":"MetadataUpdateRejected","type":"event"},{"anonymous":false,"inputs":[{"indexed":true,"internalType":"address","name":"wrappedSong","type":"address"},{"components":[{"internalType":"string","name":"name","type":"string"},{"internalType":"string","name":"description","type":"string"},{"internalType":"string","name":"image","type":"string"},{"internalType":"string","name":"externalUrl","type":"string"},{"internalType":"string","name":"animationUrl","type":"string"},{"internalType":"string","name":"attributesIpfsHash","type":"string"}],"indexed":false,"internalType":"struct IMetadataModule.Metadata","name":"newMetadata","type":"tuple"}],"name":"MetadataUpdateRequested","type":"event"},{"anonymous":false,"inputs":[{"indexed":true,"internalType":"address","name":"wrappedSong","type":"address"},{"components":[{"internalType":"string","name":"name","type":"string"},{"internalType":"string","name":"description","type":"string"},{"internalType":"string","name":"image","type":"string"},{"internalType":"string","name":"externalUrl","type":"string"},{"internalType":"string","name":"animationUrl","type":"string"},{"internalType":"string","name":"attributesIpfsHash","type":"string"}],"indexed":false,"internalType":"struct IMetadataModule.Metadata","name":"newMetadata","type":"tuple"}],"name":"MetadataUpdated","type":"event"},{"anonymous":false,"inputs":[{"indexed":true,"internalType":"address","name":"previousOwner","type":"address"},{"indexed":true,"internalType":"address","name":"newOwner","type":"address"}],"name":"OwnershipTransferred","type":"event"},{"anonymous":false,"inputs":[{"indexed":true,"internalType":"address","name":"wrappedSong","type":"address"},{"indexed":true,"internalType":"address","name":"token","type":"address"},{"indexed":false,"internalType":"uint256","name":"amount","type":"uint256"}],"name":"UpdateFeeCollected","type":"event"},{"inputs":[{"internalType":"address","name":"wrappedSong","type":"address"}],"name":"confirmUpdateMetadata","outputs":[],"stateMutability":"payable","type":"function"},{"inputs":[{"internalType":"address","name":"wrappedSong","type":"address"},{"components":[{"internalType":"string","name":"name","type":"string"},{"internalType":"string","name":"description","type":"string"},{"internalType":"string","name":"image","type":"string"},{"internalType":"string","name":"externalUrl","type":"string"},{"internalType":"string","name":"animationUrl","type":"string"},{"internalType":"string","name":"attributesIpfsHash","type":"string"}],"internalType":"struct IMetadataModule.Metadata","name":"newMetadata","type":"tuple"}],"name":"createMetadata","outputs":[{"components":[{"internalType":"string","name":"name","type":"string"},{"internalType":"string","name":"description","type":"string"},{"internalType":"string","name":"image","type":"string"},{"internalType":"string","name":"externalUrl","type":"string"},{"internalType":"string","name":"animationUrl","type":"string"},{"internalType":"string","name":"attributesIpfsHash","type":"string"}],"internalType":"struct IMetadataModule.Metadata","name":"","type":"tuple"}],"stateMutability":"nonpayable","type":"function"},{"inputs":[{"internalType":"address","name":"wrappedSong","type":"address"}],"name":"getPendingMetadataUpdate","outputs":[{"components":[{"internalType":"string","name":"name","type":"string"},{"internalType":"string","name":"description","type":"string"},{"internalType":"string","name":"image","type":"string"},{"internalType":"string","name":"externalUrl","type":"string"},{"internalType":"string","name":"animationUrl","type":"string"},{"internalType":"string","name":"attributesIpfsHash","type":"string"}],"internalType":"struct IMetadataModule.Metadata","name":"","type":"tuple"}],"stateMutability":"view","type":"function"},{"inputs":[{"internalType":"address","name":"wrappedSong","type":"address"},{"internalType":"uint256","name":"tokenId","type":"uint256"}],"name":"getTokenURI","outputs":[{"internalType":"string","name":"","type":"string"}],"stateMutability":"view","type":"function"},{"inputs":[{"internalType":"address","name":"wrappedSong","type":"address"}],"name":"getWrappedSongMetadata","outputs":[{"components":[{"internalType":"string","name":"name","type":"string"},{"internalType":"string","name":"description","type":"string"},{"internalType":"string","name":"image","type":"string"},{"internalType":"string","name":"externalUrl","type":"string"},{"internalType":"string","name":"animationUrl","type":"string"},{"internalType":"string","name":"attributesIpfsHash","type":"string"}],"internalType":"struct IMetadataModule.Metadata","name":"","type":"tuple"}],"stateMutability":"view","type":"function"},{"inputs":[{"internalType":"address","name":"wrappedSong","type":"address"}],"name":"isMetadataUpdateConfirmed","outputs":[{"internalType":"bool","name":"","type":"bool"}],"stateMutability":"view","type":"function"},{"inputs":[],"name":"owner","outputs":[{"internalType":"address","name":"","type":"address"}],"stateMutability":"view","type":"function"},{"inputs":[],"name":"protocolModule","outputs":[{"internalType":"contract IProtocolModule","name":"","type":"address"}],"stateMutability":"view","type":"function"},{"inputs":[{"internalType":"address","name":"wrappedSong","type":"address"}],"name":"rejectUpdateMetadata","outputs":[],"stateMutability":"nonpayable","type":"function"},{"inputs":[{"internalType":"address","name":"wrappedSong","type":"address"}],"name":"removeMetadata","outputs":[],"stateMutability":"nonpayable","type":"function"},{"inputs":[],"name":"renounceOwnership","outputs":[],"stateMutability":"nonpayable","type":"function"},{"inputs":[{"internalType":"address","name":"wrappedSong","type":"address"},{"components":[{"internalType":"string","name":"name","type":"string"},{"internalType":"string","name":"description","type":"string"},{"internalType":"string","name":"image","type":"string"},{"internalType":"string","name":"externalUrl","type":"string"},{"internalType":"string","name":"animationUrl","type":"string"},{"internalType":"string","name":"attributesIpfsHash","type":"string"}],"internalType":"struct IMetadataModule.Metadata","name":"newMetadata","type":"tuple"}],"name":"requestUpdateMetadata","outputs":[],"stateMutability":"nonpayable","type":"function"},{"inputs":[{"internalType":"address","name":"_protocolModule","type":"address"}],"name":"setProtocolModule","outputs":[],"stateMutability":"nonpayable","type":"function"},{"inputs":[{"internalType":"address","name":"newOwner","type":"address"}],"name":"transferOwnership","outputs":[],"stateMutability":"nonpayable","type":"function"},{"inputs":[{"internalType":"address","name":"wrappedSong","type":"address"},{"components":[{"internalType":"string","name":"name","type":"string"},{"internalType":"string","name":"description","type":"string"},{"internalType":"string","name":"image","type":"string"},{"internalType":"string","name":"externalUrl","type":"string"},{"internalType":"string","name":"animationUrl","type":"string"},{"internalType":"string","name":"attributesIpfsHash","type":"string"}],"internalType":"struct IMetadataModule.Metadata","name":"newMetadata","type":"tuple"}],"name":"updateMetadata","outputs":[],"stateMutability":"payable","type":"function"},{"inputs":[{"internalType":"address","name":"token","type":"address"},{"internalType":"address","name":"recipient","type":"address"}],"name":"withdrawAccumulatedFees","outputs":[],"stateMutability":"nonpayable","type":"function"},{"stateMutability":"payable","type":"receive"}],"evm":{"bytecode":{"linkReferences":{},"object":"608034620000c657601f6200322338819003918201601f19168301916001600160401b03831184841017620000cb57808492602094604052833981010312620000c657516001600160a01b039081811690819003620000c6578015620000ad57600080546001600160a01b03198116831782556040519316907f8be0079c531659141344cd1fd0a4f28419497f9722a3daafe3b4186f6b6457e09080a3600180556131419081620000e28239f35b604051631e4fbdf760e01b815260006004820152602490fd5b600080fd5b634e487b7160e01b600052604160045260246000fdfe60e08060405260049081361015610020575b5050361561001e57600080fd5b005b600060c05260c0513560e01c9081630b63fd621461278057508063187de53b14612411578063349cdba0146123bb578063376c1f07146121ff5780634b700629146116665780635c42e6671461163c5780635dc447ed14610e995780636613680d14610767578063715018a6146107085780638da5cb5b146106dd5780639205fafe146104ac578063a859dcde14610408578063a9edb0f5146102b9578063da67603e146101be578063dac73c991461017d5763f2fde38b146100e35780610011565b34610177576020366003190112610177576100fc612989565b610104612c27565b6001600160a01b0390811691821561015d575060c05154826001600160601b0360a01b82161760c05155167f8be0079c531659141344cd1fd0a4f28419497f9722a3daafe3b4186f6b6457e060c05160c051a360c05180f35b60249060405190631e4fbdf760e01b825260c05190820152fd5b60c05180fd5b34610177576020366003190112610177576001600160a01b0361019e612989565b1660c051526008602052602060ff604060c0512054166040519015158152f35b5034610177576020366003190112610177576102b5906101dc612989565b6101e4612c53565b5060018060a01b031660c051526007602052600561029c604060c051206102256102876040519561021487612a6d565b60405161022c816102258188612f70565b0382612a9e565b8752604051610242816102258160018901612f70565b602088015260405161025b816102258160028901612f70565b6040880152604051610274816102258160038901612f70565b6060880152604051928380928601612f70565b60808501526102256040518094819301612f70565b60a08201526040519182916020835260208301906129ec565b0390f35b503461017757602080600319360112610177576001600160a01b036102dc612989565b16913383036103b8578260c05152600682526102fd604060c0512054612ca3565b1561037657506008908260c051526006815261031d604060c05120612f2b565b8260c0515260078152610334604060c05120612f2b565b8260c0515252604060c0512060ff1981541690557f850e5df914b57ac32b9b4cfb02944f8e955f9991d54ae5ccac3936a7b205cace60c05160c051a260c05180f35b6064916040519162461bcd60e51b8352820152601760248201527f4d6574616461746120646f6573206e6f742065786973740000000000000000006044820152fd5b6084916040519162461bcd60e51b8352820152602560248201527f4f6e6c79207772617070656420736f6e672063616e2072656d6f7665206d6574604482015264616461746160d81b6064820152fd5b503461017757602036600319011261017757610422612989565b61042a612c27565b6001600160a01b03169081156104685750600280546001600160a01b0319169190911790556005805460ff60a01b1916600160a01b17905560c05180f35b60649060206040519162461bcd60e51b8352820152601f60248201527f496e76616c69642070726f746f636f6c206d6f64756c652061646472657373006044820152fd5b503461017757602080600319360112610177576104c7612989565b60025460405163670d296960e11b81529193916001600160a01b0391849082908590829086165afa908115610679578291859160c051916106c0575b5084604051809481936365bb98b560e01b8352165afa801561067957828591819360c051916106a3575b501695866001600160601b0360a01b6003541617600355602460405180948193633aa690e760e01b8352169889888301525afa908115610679578291859160c05191610686575b508460405180948193638da5cb5b60e01b8352165afa9081156106795760c0519161064c575b501633036105ff57506008908260c05152600781526105bd604060c05120612f2b565b8260c0515252604060c0512060ff1981541690557f44983a324fa169af1e5f7fc334fe51324c21a0f94c8407867926cb4266b0cb5460c05160c051a260c05180f35b6084916040519162461bcd60e51b8352820152602260248201527f4f6e6c79206469737472696275746f722063616e2072656a6563742075706461604482015261746560f01b6064820152fd5b61066c9150843d8611610672575b6106648183612a9e565b810190612c84565b3861059a565b503d61065a565b6040513d60c051823e3d90fd5b61069d9150823d8411610672576106648183612a9e565b38610574565b6106ba9150833d8511610672576106648183612a9e565b3861052d565b6106d79150823d8411610672576106648183612a9e565b38610503565b346101775760c0513660031901126101775760c051546040516001600160a01b039091168152602090f35b346101775760c05136600319011261017757610722612c27565b60c05180546001600160a01b0319811682556001600160a01b03167f8be0079c531659141344cd1fd0a4f28419497f9722a3daafe3b4186f6b6457e08280a360c05180f35b50346101775761077636612b21565b9061077f612c53565b5060025460405163058dba2f60e11b81526001600160a01b038381168287015294916020908290602490829089165afa801561067957859160c05191610e7a575b501615610e365783821660c0515260066020526107e2604060c0512054612ca3565b610df2576107ef83612d3b565b15610dbb5783821660c051526006602052604060c051209083518051906001600160401b038211610da45781906108308261082a8754612ca3565b87612cf4565b6020906001601f841114610d3b5760c05192610d30575b50508160011b916000199060031b1c19161782555b6001820160208501518051906001600160401b038211610ba757819061088c826108868654612ca3565b86612cf4565b6020906001601f841114610cc75760c05192610cbc575b50508160011b916000199060031b1c19161790555b6002820160408501518051906001600160401b038211610ba75781906108e2826108868654612ca3565b6020906001601f841114610c535760c05192610c48575b50508160011b916000199060031b1c19161790555b60039182810160608601518051906001600160401b038211610c3157819061093a826108868654612ca3565b6020906001601f841114610bc95760c05192610bbe575b50508160011b9160001990871b1c19161790555b60808501518051906001600160401b038211610ba7576109938261098b86860154612ca3565b868601612cf4565b6020906001601f841114610b34579180916005949360c05192610b29575b50508160011b9160001990871b1c191617838201555b019160a08501518051926001600160401b038411610b1257506109ee836108868654612ca3565b6020906001601f851114610a7d57927f6e59fb1f315f2f4b281014e9d51ca1387542c6af4109446eaaabadd34b5d5eb3949281926102b5999560c05193610a72575b50508260011b92600019911b1c19161790555b6040519260208452169180610a5b60208201866129ec565b0390a26040519182916020835260208301906129ec565b015191503880610a30565b9190601f198416928560c05152602060c051209360c0515b818110610afa57509285927f6e59fb1f315f2f4b281014e9d51ca1387542c6af4109446eaaabadd34b5d5eb39795926102b59b9760019610610ae0575b50505050811b019055610a43565b01519060f884600019921b161c1916905538808080610ad2565b92946020600181928886015181550196019301610a95565b604190634e487b7160e01b60c0515252602460c051fd5b0151905038806109b1565b9084840160c05152602060c051209160c0515b601f1985168110610b8f575091839160019360059695601f19811610610b77575b505050811b01838201556109c7565b015160001983891b60f8161c19169055388080610b68565b91926020600181928685015181550194019201610b47565b604184634e487b7160e01b60c0515252602460c051fd5b015190503880610951565b60c0805186905251602081209350601f198516905b818110610c195750908460019594939210610c01575b505050811b019055610965565b015160001983891b60f8161c19169055388080610bf4565b92936020600181928786015181550195019301610bde565b604185634e487b7160e01b60c0515252602460c051fd5b0151905038806108f9565b60c0805186905251602081209350601f198516905b818110610ca45750908460019594939210610c8b575b505050811b01905561090e565b015160001960f88460031b161c19169055388080610c7e565b92936020600181928786015181550195019301610c68565b0151905038806108a3565b60c0805186905251602081209350601f198516905b818110610d185750908460019594939210610cff575b505050811b0190556108b8565b015160001960f88460031b161c19169055388080610cf2565b92936020600181928786015181550195019301610cdc565b015190503880610847565b60c0805187905251602081209350601f198516905b818110610d8c5750908460019594939210610d73575b505050811b01825561085c565b015160001960f88460031b161c19169055388080610d66565b92936020600181928786015181550195019301610d50565b604183634e487b7160e01b60c0515252602460c051fd5b60649060206040519162461bcd60e51b8352820152601060248201526f496e76616c6964206d6574616461746160801b6044820152fd5b60649060206040519162461bcd60e51b8352820152601760248201527f4d6574616461746120616c7265616479206578697374730000000000000000006044820152fd5b60649060206040519162461bcd60e51b8352820152601960248201527f41646472657373206e6f7420612070726f746f636f6c205753000000000000006044820152fd5b610e93915060203d602011610672576106648183612a9e565b386107c0565b50610ea336612b21565b604051638da5cb5b60e01b81526001600160a01b039283169260209182818781885afa9081156106795760c0519161161f575b50811633148015611612575b156115bc57848282600254166040519283809263670d296960e11b82525afa908115610679578291849160c0519161159f575b5087604051809581936365bb98b560e01b8352165afa801561067957839260c05191611582575b5016600390806001600160601b0360a01b835416178255604051928380926306f8718960e31b8252888a83015260249586915afa9081156106795760c05191611555575b506114fc57610f96610f9185612d3b565b612d80565b8460c0515260068352604060c05120908451968751926001600160401b03938481116114e657610fd081610fca8454612ca3565b84612cf4565b601f998190889060018d84111461147f5760c05192611474575b50508160011b9160001990861b1c19161781555b60016080526080518101868801518051908682116112fc578190611026826108868654612ca3565b899060018e8411146114095760c051926113fe575b5050816080511b9160001990871b1c19161790555b6002810160408801518051908682116112fc578190611073826108868654612ca3565b899060018e8411146113935760c05192611388575b5050816080511b9160001990871b1c19161790555b82810160608801518051908682116112fc5781906110bf826108868654612ca3565b899060018e84111461131d5760c05192611312575b5050816080511b9160001990871b1c19161790555b81810160808801518051908682116112fc5761110f826111098554612ca3565b85612cf4565b889060018d84111461128a57918091600595949360c0519261127f575b5050816080511b9160001990881b1c19161790555b019360a087015191825194851161126a575050611162836108868654612ca3565b60c05150849783116001146111dc57907f4288f171f419b66095d6e026090ed813669ea5a62cfe4416a47e75549e4788669697839260c051936111d1575b5050826080511b92600019911b1c19161790555b6111c86040519282849384528301906129ec565b0390a260c05180f35b0151915038806111a0565b90601f198316978460c051528560c051209260c0515b8a81106112525750847f4288f171f419b66095d6e026090ed813669ea5a62cfe4416a47e75549e478866999a10611238575b50505050608051906080511b0190556111b4565b01519060f884600019921b161c1916905538808080611224565b919387809186840151815560805101950192016111f2565b604190634e487b7160e01b60c051525260c051fd5b01519050388061112c565b90601f198316918460c051528a60c051209260c0515b8c8282106112e557505090846005979695949392106112cd575b505050608051906080511b019055611141565b015160001983891b60f8161c191690553880806112ba565b8495819295850151815560805101950193016112a0565b87604186634e487b7160e01b60c051525260c051fd5b0151905038806110d4565b60c08051869052518b812093508490601f198216905b8d82821061136e57505010611356575b505050608051906080511b0190556110e9565b015160001983881b60f8161c19169055388080611343565b848601518755608051909601959485019487935001611333565b015190503880611088565b60c08051869052518b812093508490601f198216905b8d8282106113e4575050106113cc575b505050608051906080511b01905561109d565b015160001983881b60f8161c191690553880806113b9565b8486015187556080519096019594850194879350016113a9565b01519050388061103b565b60c08051869052518b812093508490601f198216905b8d82821061145a57505010611442575b505050608051906080511b019055611050565b015160001983881b60f8161c1916905538808061142f565b84860151875560805190960195948501948793500161141f565b015190503880610fea565b60c08051869052518a81209350601f198516905b8b8282106114d05750509084600195949392106114b8575b505050811b018155610ffe565b015160001983881b60f8161c191690553880806114ab565b6001859682939686015181550195019301611493565b85604184634e487b7160e01b60c051525260c051fd5b60405162461bcd60e51b8152808701849052602d818401527f43616e6e6f7420757064617465206d65746164617461206469726563746c792060448201526c61667465722072656c6561736560981b6064820152608490fd5b6115759150843d861161157b575b61156d8183612a9e565b810190612df2565b38610f80565b503d611563565b6115999150833d8511610672576106648183612a9e565b38610f3c565b6115b69150823d8411610672576106648183612a9e565b38610f15565b60405162461bcd60e51b8152808601839052602960248201527f4f6e6c79207772617070656420736f6e67206f7220697473206f776e65722063604482015268616e2075706461746560b81b6064820152608490fd5b5080600254163314610ee2565b6116369150833d8511610672576106648183612a9e565b38610ed6565b346101775760c051366003190112610177576002546040516001600160a01b039091168152602090f35b50346101775761167536612b21565b60025460405163670d296960e11b8082526001600160a01b039283169460209392909190848189818a5afa908115610679578491869160c051916121e2575b5089604051809481936365bb98b560e01b8352165afa801561067957849160c051916121c5575b5016926001600160601b0360a01b816003948683875416178655611701610f918a612d3b565b1697604051638da5cb5b60e01b815287818c818d5afa9081156106795760c051916121a8575b508333911603612151576040516306f8718960e31b8152808b018a905260249688908290899082905afa9081156106795760c05191612134575b50156120dd5760405184815287818c81855afa908115610679578491899160c051916120c0575b508c60405180948193636d4726d960e01b8352165afa801561067957849160c05191612086575b50169384838c5416178b55604051946374816e3760e01b865288868d81845afa9586156106795760c05196612057575b5060405163d579e3f360e01b815289818e81855afa928315610679578a9160c05194612038575b508d6040518096819382525afa9283156106795785938a9160c0519161201b575b508d604051809681936309da4e5160e01b8352165afa91821561067957858a938e9560c05191611fdb575b5016809560055416176005558615159081600014611fce5715611f4257506040516337a0a9e960e11b815292839182905afa801561067957879160c05191611f13575b50868b6040519485938492637c70c0a360e01b84528301525afa9081156106795760c05191611ef6575b5016908115611ea7576040516323b872dd60e01b8682015233858201523060448201526064808201839052815260a081016001600160401b03811182821017611e935760405261190f9083613036565b8160c0515260098552604060c05120805490828201809211611e7f57556040519081527f785bfd9070b1fa5b19bfa2ac4637328df950f5e0adafe5873360de4e23b6d8a0853392a35b8460c0515260078352604060c05120908451968751926001600160401b03938481116114e65761198c81610fca8454612ca3565b601f998190889060018d841114611e185760c05192611e0d575b50508160011b9160001990861b1c19161781555b600160a05260a0518101868801518051908682116112fc5781906119e2826108868654612ca3565b899060018e841114611da25760c05192611d97575b50508160a0511b9160001990871b1c19161790555b6002810160408801518051908682116112fc578190611a2f826108868654612ca3565b899060018e841114611d2c5760c05192611d21575b50508160a0511b9160001990871b1c19161790555b82810160608801518051908682116112fc578190611a7b826108868654612ca3565b899060018e841114611cb65760c05192611cab575b50508160a0511b9160001990871b1c19161790555b81810160808801518051908682116112fc57611ac5826111098554612ca3565b889060018d841114611c3957918091600595949360c05192611c2e575b50508160a0511b9160001990881b1c19161790555b019360a087015191825194851161126a575050611b18836108868654612ca3565b60c0515084978311600114611ba057907fcfa38ad22e928cede6a19793c7da9bad051ddd68eaabfc0a35500e381a60cb399697839260c05193611b95575b50508260a0511b92600019911b1c19161790555b8360c0515260088152604060c0512060ff1981541690556111c86040519282849384528301906129ec565b015191503880611b56565b90601f198316978460c051528560c051209260c0515b8a8110611c165750847fcfa38ad22e928cede6a19793c7da9bad051ddd68eaabfc0a35500e381a60cb39999a10611bfc575b5050505060a0519060a0511b019055611b6a565b01519060f884600019921b161c1916905538808080611be8565b919387809186840151815560a0510195019201611bb6565b015190503880611ae2565b90601f198316918460c051528a60c051209260c0515b8c828210611c945750509084600597969594939210611c7c575b50505060a0519060a0511b019055611af7565b015160001983891b60f8161c19169055388080611c69565b8495819295850151815560a0510195019301611c4f565b015190503880611a90565b60c08051869052518b812093508490601f198216905b8d828210611d0757505010611cef575b50505060a0519060a0511b019055611aa5565b015160001983881b60f8161c19169055388080611cdc565b84860151875560a051909601959485019487935001611ccc565b015190503880611a44565b60c08051869052518b812093508490601f198216905b8d828210611d7d57505010611d65575b50505060a0519060a0511b019055611a59565b015160001983881b60f8161c19169055388080611d52565b84860151875560a051909601959485019487935001611d42565b0151905038806119f7565b60c08051869052518b812093508490601f198216905b8d828210611df357505010611ddb575b50505060a0519060a0511b019055611a0c565b015160001983881b60f8161c19169055388080611dc8565b84860151875560a051909601959485019487935001611db8565b0151905038806119a6565b60c08051869052518a81209350601f198516905b8b828210611e69575050908460019594939210611e51575b505050811b0181556119ba565b015160001983881b60f8161c19169055388080611e44565b6001859682939686015181550195019301611e2c565b8560118b634e487b7160e01b600052526000fd5b8560418b634e487b7160e01b600052526000fd5b60405162461bcd60e51b81528089018690526023818601527f4e6f2077686974656c697374656420737461626c65636f696e20617661696c61604482015262626c6560e81b6064820152608490fd5b611f0d9150863d8811610672576106648183612a9e565b386118bf565b82819392503d8311611f3b575b611f2a8183612a9e565b810103126101775786905138611895565b503d611f20565b95505050505050611f8b5760c05180526009835260405160008082529033907f785bfd9070b1fa5b19bfa2ac4637328df950f5e0adafe5873360de4e23b6d8a0908690a3611958565b60405162461bcd60e51b81528087018490526018818401527f496e636f7272656374204554482066656520616d6f756e7400000000000000006044820152606490fd5b5050505050505050611958565b9394929550505081813d8311612014575b611ff68183612a9e565b810103126101775751908482168203610177578b92858a9338611852565b503d611fec565b6120329150823d8411610672576106648183612a9e565b38611827565b612050919450823d841161157b5761156d8183612a9e565b9238611806565b9095508881813d831161207f575b61206f8183612a9e565b81010312610177575194386117df565b503d612065565b809250898092503d83116120b9575b61209f8183612a9e565b8101031261017757518381168103610177578390386117af565b503d612095565b6120d79150823d8411610672576106648183612a9e565b38611788565b60405162461bcd60e51b8152808b01889052602b818801527f536f6e67206e6f742072656c65617365642c20757064617465206d657461646160448201526a7461206469726563746c7960a81b6064820152608490fd5b61214b9150883d8a1161157b5761156d8183612a9e565b38611761565b60405162461bcd60e51b8152808b01889052602a60248201527f4f6e6c79207772617070656420736f6e67206f776e65722063616e20726571756044820152696573742075706461746560b01b6064820152608490fd5b6121bf9150883d8a11610672576106648183612a9e565b38611727565b6121dc9150863d8811610672576106648183612a9e565b386116db565b6121f99150823d8411610672576106648183612a9e565b386116b4565b503461017757604036600319011261017757612219612989565b6001600160a01b0360243581811693929084900361017757612239612c27565b6002600154146123aa57600260015516908160c0515260209060098252604060c05120549081156123705760c0805185905260098452516040812055836123025760c05180808085895af161228c613006565b50156122c85750907f5e110f8bc8a20b65dcc87f224bdf1cc039346e267118bae2739847f07321ffa8915b604051908152a36001805560c05180f35b60405162461bcd60e51b81529081018390526013602482015272115512081d1c985b9cd9995c8819985a5b1959606a1b6044820152606490fd5b6040519063a9059cbb60e01b848301528560248301528260448301526044825260808201908282106001600160401b03831117610b1257507f5e110f8bc8a20b65dcc87f224bdf1cc039346e267118bae2739847f07321ffa893929161236b9160405285613036565b6122b7565b60405162461bcd60e51b815290810183905260136024820152724e6f206665657320746f20776974686472617760681b6044820152606490fd5b604051633ee5aeb560e01b81528390fd5b5034610177576020366003190112610177576102b5906123d9612989565b6123e1612c53565b5060018060a01b031660c051526006602052600561029c604060c051206102256102876040519561021487612a6d565b5060208060031936011261017757612427612989565b60025460405163670d296960e11b81529193916001600160a01b0391849082908590829086165afa908115610679578291859160c05191612763575b5084604051809481936365bb98b560e01b8352165afa801561067957828591819360c05191612746575b501695866001600160601b0360a01b6003541617600355602460405180948193633aa690e760e01b8352169889888301525afa908115610679578291859160c05191612729575b508460405180948193638da5cb5b60e01b8352165afa9081156106795760c0519161270c575b501633036126be578260c051526008825260ff604060c05120541661267c577f4288f171f419b66095d6e026090ed813669ea5a62cfe4416a47e75549e478866916111c860c0928584515260078352604084512060068452604085512081810361261e575b505085845152600783526125766040855120612f2b565b85845152600883526040845120600160ff19825416179055600683526005604085512060405195858796875286015261260e6125b560e0870183612f70565b936125fc6125e96125d6601f1997888b82030160408c015260018701612f70565b878a82030160608b015260028601612f70565b868982030160808a015260038501612f70565b90858883030160a08901528301612f70565b928584030160c086015201612f70565b6005808361262f6126759585612e0a565b61263f6001820160018601612e0a565b61264f6002820160028601612e0a565b61265f6003820160038601612e0a565b61266d868201878601612e0a565b019101612e0a565b388061255f565b6064916040519162461bcd60e51b8352820152601a60248201527f4e6f2070656e64696e67206d65746164617461207570646174650000000000006044820152fd5b6084916040519162461bcd60e51b8352820152602360248201527f4f6e6c79206469737472696275746f722063616e20636f6e6669726d2075706460448201526261746560e81b6064820152fd5b6127239150843d8611610672576106648183612a9e565b386124fa565b6127409150823d8411610672576106648183612a9e565b386124d4565b61275d9150833d8511610672576106648183612a9e565b3861248d565b61277a9150823d8411610672576106648183612a9e565b38612463565b9050346101775760403660031901126101775761279b612989565b916024359060018060a01b03809416928360c05152602093600685526005612850604060c051206127cb85612a6d565b6040516127dc816102258185612f70565b85526040516127f2816102258160018601612f70565b8886015260405161280a816102258160028601612f70565b6040860152604051612823816102258160038601612f70565b606086015260405161283b81610225818a8601612f70565b60808601526102256040518094819301612f70565b60a08301526003841015612939576128866060966002541692604051978895632fda23b760e01b875286015260648501906129ec565b9360248401526044830152818060c0519403915afa9182156106795760c051926128c0575b506102b56040519282849384528301906129c7565b9091503d8060c051833e6128d48183612a9e565b8101908281830312610177578051906001600160401b038211610177570181601f8201121561017757805161290881612abf565b926129166040519485612a9e565b81845284828401011161017757612932918480850191016129a4565b90386128ab565b60405162461bcd60e51b81528084018690526024808201527f496e76616c696420746f6b656e20494420666f72206d65746164617461206d6f60448201526364756c6560e01b6064820152608490fd5b600435906001600160a01b038216820361299f57565b600080fd5b60005b8381106129b75750506000910152565b81810151838201526020016129a7565b906020916129e0815180928185528580860191016129a4565b601f01601f1916010190565b612a6a9160a0612a59612a47612a35612a23612a11875160c0885260c08801906129c7565b602088015187820360208901526129c7565b604087015186820360408801526129c7565b606086015185820360608701526129c7565b608085015184820360808601526129c7565b9201519060a08184039101526129c7565b90565b60c081019081106001600160401b03821117612a8857604052565b634e487b7160e01b600052604160045260246000fd5b90601f801991011681019081106001600160401b03821117612a8857604052565b6001600160401b038111612a8857601f01601f191660200190565b81601f8201121561299f57803590612af182612abf565b92612aff6040519485612a9e565b8284526020838301011161299f57816000926020809301838601378301015290565b9060031960408184011261299f57600480356001600160a01b038116810361299f5793602435916001600160401b039384841161299f5760c090848403011261299f5760405193612b7185612a6d565b8382013581811161299f578383612b8a92870101612ada565b8552602484013581811161299f578383612ba692870101612ada565b6020860152604484013581811161299f578383612bc592870101612ada565b6040860152606484013581811161299f578383612be492870101612ada565b6060860152608484013581811161299f578383612c0392870101612ada565b608086015260a484013590811161299f57612c1f930101612ada565b60a082015290565b6000546001600160a01b03163303612c3b57565b60405163118cdaa760e01b8152336004820152602490fd5b60405190612c6082612a6d565b8160a060609182815282602082015282604082015282808201528260808201520152565b9081602091031261299f57516001600160a01b038116810361299f5790565b90600182811c92168015612cd3575b6020831014612cbd57565b634e487b7160e01b600052602260045260246000fd5b91607f1691612cb2565b818110612ce8575050565b60008155600101612cdd565b9190601f8111612d0357505050565b612d2f926000526020600020906020601f840160051c83019310612d31575b601f0160051c0190612cdd565b565b9091508190612d22565b80515115159081612d71575b81612d62575b81612d56575090565b60a09150015151151590565b60808101515115159150612d4d565b60408101515115159150612d47565b15612d8757565b60405162461bcd60e51b815260206004820152603760248201527f496e76616c6964206d657461646174613a20416c6c207265717569726564206660448201527f69656c6473206d757374206265206e6f6e2d656d7074790000000000000000006064820152608490fd5b9081602091031261299f5751801515810361299f5790565b90808214612ede57612e1c8154612ca3565b906001600160401b038211612a88578190612e3b826108868654612ca3565b600090601f8311600114612e7257600092612e67575b50508160011b916000199060031b1c1916179055565b015490503880612e51565b81526020808220858352818320935090601f1985169083905b828210612ec5575050908460019594939210612eac575b505050811b019055565b015460001960f88460031b161c19169055388080612ea2565b8495819295850154815560018091019601940190612e8b565b5050565b612eec8154612ca3565b9081612ef6575050565b81601f60009311600114612f08575055565b908083918252612f27601f60208420940160051c840160018501612cdd565b5555565b6005612d2f91612f3a81612ee2565b612f4660018201612ee2565b612f5260028201612ee2565b612f5e60038201612ee2565b612f6a60048201612ee2565b01612ee2565b9060009291805491612f8183612ca3565b918282526001938481169081600014612fe35750600114612fa3575b50505050565b90919394506000526020928360002092846000945b838610612fcf575050505001019038808080612f9d565b805485870183015294019385908201612fb8565b9294505050602093945060ff191683830152151560051b01019038808080612f9d565b3d15613031573d9061301782612abf565b916130256040519384612a9e565b82523d6000602084013e565b606090565b60008061305f9260018060a01b03169360208151910182865af1613058613006565b90836130a8565b805190811515918261308d575b50506130755750565b60249060405190635274afe760e01b82526004820152fd5b6130a09250602080918301019101612df2565b15388061306c565b906130cf57508051156130bd57805190602001fd5b604051630a12f52160e11b8152600490fd5b81511580613102575b6130e0575090565b604051639996b31560e01b81526001600160a01b039091166004820152602490fd5b50803b156130d856fea26469706673582212209000a6b019db6c9623490abea8d48c9f9a3e00cfdbfacc8132a0c0e3634f63d064736f6c63430008140033","opcodes":"PUSH1 0x80 CALLVALUE PUSH3 0xC6 JUMPI PUSH1 0x1F PUSH3 0x3223 CODESIZE DUP2 SWAP1 SUB SWAP2 DUP3 ADD PUSH1 0x1F NOT AND DUP4 ADD SWAP2 PUSH1 0x1 PUSH1 0x1 PUSH1 0x40 SHL SUB DUP4 GT DUP5 DUP5 LT OR PUSH3 0xCB JUMPI DUP1 DUP5 SWAP3 PUSH1 0x20 SWAP5 PUSH1 0x40 MSTORE DUP4 CODECOPY DUP2 ADD SUB SLT PUSH3 0xC6 JUMPI MLOAD PUSH1 0x1 PUSH1 0x1 PUSH1 0xA0 SHL SUB SWAP1 DUP2 DUP2 AND SWAP1 DUP2 SWAP1 SUB PUSH3 0xC6 JUMPI DUP1 ISZERO PUSH3 0xAD JUMPI PUSH1 0x0 DUP1 SLOAD PUSH1 0x1 PUSH1 0x1 PUSH1 0xA0 SHL SUB NOT DUP2 AND DUP4 OR DUP3 SSTORE PUSH1 0x40 MLOAD SWAP4 AND SWAP1 PUSH32 0x8BE0079C531659141344CD1FD0A4F28419497F9722A3DAAFE3B4186F6B6457E0 SWAP1 DUP1 LOG3 PUSH1 0x1 DUP1 SSTORE PUSH2 0x3141 SWAP1 DUP2 PUSH3 0xE2 DUP3 CODECOPY RETURN JUMPDEST PUSH1 0x40 MLOAD PUSH4 0x1E4FBDF7 PUSH1 0xE0 SHL DUP2 MSTORE PUSH1 0x0 PUSH1 0x4 DUP3 ADD MSTORE PUSH1 0x24 SWAP1 REVERT JUMPDEST PUSH1 0x0 DUP1 REVERT JUMPDEST PUSH4 0x4E487B71 PUSH1 0xE0 SHL PUSH1 0x0 MSTORE PUSH1 0x41 PUSH1 0x4 MSTORE PUSH1 0x24 PUSH1 0x0 REVERT INVALID PUSH1 0xE0 DUP1 PUSH1 0x40 MSTORE PUSH1 0x4 SWAP1 DUP2 CALLDATASIZE LT ISZERO PUSH2 0x20 JUMPI JUMPDEST POP POP CALLDATASIZE ISZERO PUSH2 0x1E JUMPI PUSH1 0x0 DUP1 REVERT JUMPDEST STOP JUMPDEST PUSH1 0x0 PUSH1 0xC0 MSTORE PUSH1 0xC0 MLOAD CALLDATALOAD PUSH1 0xE0 SHR SWAP1 DUP2 PUSH4 0xB63FD62 EQ PUSH2 0x2780 JUMPI POP DUP1 PUSH4 0x187DE53B EQ PUSH2 0x2411 JUMPI DUP1 PUSH4 0x349CDBA0 EQ PUSH2 0x23BB JUMPI DUP1 PUSH4 0x376C1F07 EQ PUSH2 0x21FF JUMPI DUP1 PUSH4 0x4B700629 EQ PUSH2 0x1666 JUMPI DUP1 PUSH4 0x5C42E667 EQ PUSH2 0x163C JUMPI DUP1 PUSH4 0x5DC447ED EQ PUSH2 0xE99 JUMPI DUP1 PUSH4 0x6613680D EQ PUSH2 0x767 JUMPI DUP1 PUSH4 0x715018A6 EQ PUSH2 0x708 JUMPI DUP1 PUSH4 0x8DA5CB5B EQ PUSH2 0x6DD JUMPI DUP1 PUSH4 0x9205FAFE EQ PUSH2 0x4AC JUMPI DUP1 PUSH4 0xA859DCDE EQ PUSH2 0x408 JUMPI DUP1 PUSH4 0xA9EDB0F5 EQ PUSH2 0x2B9 JUMPI DUP1 PUSH4 0xDA67603E EQ PUSH2 0x1BE JUMPI DUP1 PUSH4 0xDAC73C99 EQ PUSH2 0x17D JUMPI PUSH4 0xF2FDE38B EQ PUSH2 0xE3 JUMPI DUP1 PUSH2 0x11 JUMP JUMPDEST CALLVALUE PUSH2 0x177 JUMPI PUSH1 0x20 CALLDATASIZE PUSH1 0x3 NOT ADD SLT PUSH2 0x177 JUMPI PUSH2 0xFC PUSH2 0x2989 JUMP JUMPDEST PUSH2 0x104 PUSH2 0x2C27 JUMP JUMPDEST PUSH1 0x1 PUSH1 0x1 PUSH1 0xA0 SHL SUB SWAP1 DUP2 AND SWAP2 DUP3 ISZERO PUSH2 0x15D JUMPI POP PUSH1 0xC0 MLOAD SLOAD DUP3 PUSH1 0x1 PUSH1 0x1 PUSH1 0x60 SHL SUB PUSH1 0xA0 SHL DUP3 AND OR PUSH1 0xC0 MLOAD SSTORE AND PUSH32 0x8BE0079C531659141344CD1FD0A4F28419497F9722A3DAAFE3B4186F6B6457E0 PUSH1 0xC0 MLOAD PUSH1 0xC0 MLOAD LOG3 PUSH1 0xC0 MLOAD DUP1 RETURN JUMPDEST PUSH1 0x24 SWAP1 PUSH1 0x40 MLOAD SWAP1 PUSH4 0x1E4FBDF7 PUSH1 0xE0 SHL DUP3 MSTORE PUSH1 0xC0 MLOAD SWAP1 DUP3 ADD MSTORE REVERT JUMPDEST PUSH1 0xC0 MLOAD DUP1 REVERT JUMPDEST CALLVALUE PUSH2 0x177 JUMPI PUSH1 0x20 CALLDATASIZE PUSH1 0x3 NOT ADD SLT PUSH2 0x177 JUMPI PUSH1 0x1 PUSH1 0x1 PUSH1 0xA0 SHL SUB PUSH2 0x19E PUSH2 0x2989 JUMP JUMPDEST AND PUSH1 0xC0 MLOAD MSTORE PUSH1 0x8 PUSH1 0x20 MSTORE PUSH1 0x20 PUSH1 0xFF PUSH1 0x40 PUSH1 0xC0 MLOAD KECCAK256 SLOAD AND PUSH1 0x40 MLOAD SWAP1 ISZERO ISZERO DUP2 MSTORE RETURN JUMPDEST POP CALLVALUE PUSH2 0x177 JUMPI PUSH1 0x20 CALLDATASIZE PUSH1 0x3 NOT ADD SLT PUSH2 0x177 JUMPI PUSH2 0x2B5 SWAP1 PUSH2 0x1DC PUSH2 0x2989 JUMP JUMPDEST PUSH2 0x1E4 PUSH2 0x2C53 JUMP JUMPDEST POP PUSH1 0x1 DUP1 PUSH1 0xA0 SHL SUB AND PUSH1 0xC0 MLOAD MSTORE PUSH1 0x7 PUSH1 0x20 MSTORE PUSH1 0x5 PUSH2 0x29C PUSH1 0x40 PUSH1 0xC0 MLOAD KECCAK256 PUSH2 0x225 PUSH2 0x287 PUSH1 0x40 MLOAD SWAP6 PUSH2 0x214 DUP8 PUSH2 0x2A6D JUMP JUMPDEST PUSH1 0x40 MLOAD PUSH2 0x22C DUP2 PUSH2 0x225 DUP2 DUP9 PUSH2 0x2F70 JUMP JUMPDEST SUB DUP3 PUSH2 0x2A9E JUMP JUMPDEST DUP8 MSTORE PUSH1 0x40 MLOAD PUSH2 0x242 DUP2 PUSH2 0x225 DUP2 PUSH1 0x1 DUP10 ADD PUSH2 0x2F70 JUMP JUMPDEST PUSH1 0x20 DUP9 ADD MSTORE PUSH1 0x40 MLOAD PUSH2 0x25B DUP2 PUSH2 0x225 DUP2 PUSH1 0x2 DUP10 ADD PUSH2 0x2F70 JUMP JUMPDEST PUSH1 0x40 DUP9 ADD MSTORE PUSH1 0x40 MLOAD PUSH2 0x274 DUP2 PUSH2 0x225 DUP2 PUSH1 0x3 DUP10 ADD PUSH2 0x2F70 JUMP JUMPDEST PUSH1 0x60 DUP9 ADD MSTORE PUSH1 0x40 MLOAD SWAP3 DUP4 DUP1 SWAP3 DUP7 ADD PUSH2 0x2F70 JUMP JUMPDEST PUSH1 0x80 DUP6 ADD MSTORE PUSH2 0x225 PUSH1 0x40 MLOAD DUP1 SWAP5 DUP2 SWAP4 ADD PUSH2 0x2F70 JUMP JUMPDEST PUSH1 0xA0 DUP3 ADD MSTORE PUSH1 0x40 MLOAD SWAP2 DUP3 SWAP2 PUSH1 0x20 DUP4 MSTORE PUSH1 0x20 DUP4 ADD SWAP1 PUSH2 0x29EC JUMP JUMPDEST SUB SWAP1 RETURN JUMPDEST POP CALLVALUE PUSH2 0x177 JUMPI PUSH1 0x20 DUP1 PUSH1 0x3 NOT CALLDATASIZE ADD SLT PUSH2 0x177 JUMPI PUSH1 0x1 PUSH1 0x1 PUSH1 0xA0 SHL SUB PUSH2 0x2DC PUSH2 0x2989 JUMP JUMPDEST AND SWAP2 CALLER DUP4 SUB PUSH2 0x3B8 JUMPI DUP3 PUSH1 0xC0 MLOAD MSTORE PUSH1 0x6 DUP3 MSTORE PUSH2 0x2FD PUSH1 0x40 PUSH1 0xC0 MLOAD KECCAK256 SLOAD PUSH2 0x2CA3 JUMP JUMPDEST ISZERO PUSH2 0x376 JUMPI POP PUSH1 0x8 SWAP1 DUP3 PUSH1 0xC0 MLOAD MSTORE PUSH1 0x6 DUP2 MSTORE PUSH2 0x31D PUSH1 0x40 PUSH1 0xC0 MLOAD KECCAK256 PUSH2 0x2F2B JUMP JUMPDEST DUP3 PUSH1 0xC0 MLOAD MSTORE PUSH1 0x7 DUP2 MSTORE PUSH2 0x334 PUSH1 0x40 PUSH1 0xC0 MLOAD KECCAK256 PUSH2 0x2F2B JUMP JUMPDEST DUP3 PUSH1 0xC0 MLOAD MSTORE MSTORE PUSH1 0x40 PUSH1 0xC0 MLOAD KECCAK256 PUSH1 0xFF NOT DUP2 SLOAD AND SWAP1 SSTORE PUSH32 0x850E5DF914B57AC32B9B4CFB02944F8E955F9991D54AE5CCAC3936A7B205CACE PUSH1 0xC0 MLOAD PUSH1 0xC0 MLOAD LOG2 PUSH1 0xC0 MLOAD DUP1 RETURN JUMPDEST PUSH1 0x64 SWAP2 PUSH1 0x40 MLOAD SWAP2 PUSH3 0x461BCD PUSH1 0xE5 SHL DUP4 MSTORE DUP3 ADD MSTORE PUSH1 0x17 PUSH1 0x24 DUP3 ADD MSTORE PUSH32 0x4D6574616461746120646F6573206E6F74206578697374000000000000000000 PUSH1 0x44 DUP3 ADD MSTORE REVERT JUMPDEST PUSH1 0x84 SWAP2 PUSH1 0x40 MLOAD SWAP2 PUSH3 0x461BCD PUSH1 0xE5 SHL DUP4 MSTORE DUP3 ADD MSTORE PUSH1 0x25 PUSH1 0x24 DUP3 ADD MSTORE PUSH32 0x4F6E6C79207772617070656420736F6E672063616E2072656D6F7665206D6574 PUSH1 0x44 DUP3 ADD MSTORE PUSH5 0x6164617461 PUSH1 0xD8 SHL PUSH1 0x64 DUP3 ADD MSTORE REVERT JUMPDEST POP CALLVALUE PUSH2 0x177 JUMPI PUSH1 0x20 CALLDATASIZE PUSH1 0x3 NOT ADD SLT PUSH2 0x177 JUMPI PUSH2 0x422 PUSH2 0x2989 JUMP JUMPDEST PUSH2 0x42A PUSH2 0x2C27 JUMP JUMPDEST PUSH1 0x1 PUSH1 0x1 PUSH1 0xA0 SHL SUB AND SWAP1 DUP2 ISZERO PUSH2 0x468 JUMPI POP PUSH1 0x2 DUP1 SLOAD PUSH1 0x1 PUSH1 0x1 PUSH1 0xA0 SHL SUB NOT AND SWAP2 SWAP1 SWAP2 OR SWAP1 SSTORE PUSH1 0x5 DUP1 SLOAD PUSH1 0xFF PUSH1 0xA0 SHL NOT AND PUSH1 0x1 PUSH1 0xA0 SHL OR SWAP1 SSTORE PUSH1 0xC0 MLOAD DUP1 RETURN JUMPDEST PUSH1 0x64 SWAP1 PUSH1 0x20 PUSH1 0x40 MLOAD SWAP2 PUSH3 0x461BCD PUSH1 0xE5 SHL DUP4 MSTORE DUP3 ADD MSTORE PUSH1 0x1F PUSH1 0x24 DUP3 ADD MSTORE PUSH32 0x496E76616C69642070726F746F636F6C206D6F64756C65206164647265737300 PUSH1 0x44 DUP3 ADD MSTORE REVERT JUMPDEST POP CALLVALUE PUSH2 0x177 JUMPI PUSH1 0x20 DUP1 PUSH1 0x3 NOT CALLDATASIZE ADD SLT PUSH2 0x177 JUMPI PUSH2 0x4C7 PUSH2 0x2989 JUMP JUMPDEST PUSH1 0x2 SLOAD PUSH1 0x40 MLOAD PUSH4 0x670D2969 PUSH1 0xE1 SHL DUP2 MSTORE SWAP2 SWAP4 SWAP2 PUSH1 0x1 PUSH1 0x1 PUSH1 0xA0 SHL SUB SWAP2 DUP5 SWAP1 DUP3 SWAP1 DUP6 SWAP1 DUP3 SWAP1 DUP7 AND GAS STATICCALL SWAP1 DUP2 ISZERO PUSH2 0x679 JUMPI DUP3 SWAP2 DUP6 SWAP2 PUSH1 0xC0 MLOAD SWAP2 PUSH2 0x6C0 JUMPI JUMPDEST POP DUP5 PUSH1 0x40 MLOAD DUP1 SWAP5 DUP2 SWAP4 PUSH4 0x65BB98B5 PUSH1 0xE0 SHL DUP4 MSTORE AND GAS STATICCALL DUP1 ISZERO PUSH2 0x679 JUMPI DUP3 DUP6 SWAP2 DUP2 SWAP4 PUSH1 0xC0 MLOAD SWAP2 PUSH2 0x6A3 JUMPI JUMPDEST POP AND SWAP6 DUP7 PUSH1 0x1 PUSH1 0x1 PUSH1 0x60 SHL SUB PUSH1 0xA0 SHL PUSH1 0x3 SLOAD AND OR PUSH1 0x3 SSTORE PUSH1 0x24 PUSH1 0x40 MLOAD DUP1 SWAP5 DUP2 SWAP4 PUSH4 0x3AA690E7 PUSH1 0xE0 SHL DUP4 MSTORE AND SWAP9 DUP10 DUP9 DUP4 ADD MSTORE GAS STATICCALL SWAP1 DUP2 ISZERO PUSH2 0x679 JUMPI DUP3 SWAP2 DUP6 SWAP2 PUSH1 0xC0 MLOAD SWAP2 PUSH2 0x686 JUMPI JUMPDEST POP DUP5 PUSH1 0x40 MLOAD DUP1 SWAP5 DUP2 SWAP4 PUSH4 0x8DA5CB5B PUSH1 0xE0 SHL DUP4 MSTORE AND GAS STATICCALL SWAP1 DUP2 ISZERO PUSH2 0x679 JUMPI PUSH1 0xC0 MLOAD SWAP2 PUSH2 0x64C JUMPI JUMPDEST POP AND CALLER SUB PUSH2 0x5FF JUMPI POP PUSH1 0x8 SWAP1 DUP3 PUSH1 0xC0 MLOAD MSTORE PUSH1 0x7 DUP2 MSTORE PUSH2 0x5BD PUSH1 0x40 PUSH1 0xC0 MLOAD KECCAK256 PUSH2 0x2F2B JUMP JUMPDEST DUP3 PUSH1 0xC0 MLOAD MSTORE MSTORE PUSH1 0x40 PUSH1 0xC0 MLOAD KECCAK256 PUSH1 0xFF NOT DUP2 SLOAD AND SWAP1 SSTORE PUSH32 0x44983A324FA169AF1E5F7FC334FE51324C21A0F94C8407867926CB4266B0CB54 PUSH1 0xC0 MLOAD PUSH1 0xC0 MLOAD LOG2 PUSH1 0xC0 MLOAD DUP1 RETURN JUMPDEST PUSH1 0x84 SWAP2 PUSH1 0x40 MLOAD SWAP2 PUSH3 0x461BCD PUSH1 0xE5 SHL DUP4 MSTORE DUP3 ADD MSTORE PUSH1 0x22 PUSH1 0x24 DUP3 ADD MSTORE PUSH32 0x4F6E6C79206469737472696275746F722063616E2072656A6563742075706461 PUSH1 0x44 DUP3 ADD MSTORE PUSH2 0x7465 PUSH1 0xF0 SHL PUSH1 0x64 DUP3 ADD MSTORE REVERT JUMPDEST PUSH2 0x66C SWAP2 POP DUP5 RETURNDATASIZE DUP7 GT PUSH2 0x672 JUMPI JUMPDEST PUSH2 0x664 DUP2 DUP4 PUSH2 0x2A9E JUMP JUMPDEST DUP2 ADD SWAP1 PUSH2 0x2C84 JUMP JUMPDEST CODESIZE PUSH2 0x59A JUMP JUMPDEST POP RETURNDATASIZE PUSH2 0x65A JUMP JUMPDEST PUSH1 0x40 MLOAD RETURNDATASIZE PUSH1 0xC0 MLOAD DUP3 RETURNDATACOPY RETURNDATASIZE SWAP1 REVERT JUMPDEST PUSH2 0x69D SWAP2 POP DUP3 RETURNDATASIZE DUP5 GT PUSH2 0x672 JUMPI PUSH2 0x664 DUP2 DUP4 PUSH2 0x2A9E JUMP JUMPDEST CODESIZE PUSH2 0x574 JUMP JUMPDEST PUSH2 0x6BA SWAP2 POP DUP4 RETURNDATASIZE DUP6 GT PUSH2 0x672 JUMPI PUSH2 0x664 DUP2 DUP4 PUSH2 0x2A9E JUMP JUMPDEST CODESIZE PUSH2 0x52D JUMP JUMPDEST PUSH2 0x6D7 SWAP2 POP DUP3 RETURNDATASIZE DUP5 GT PUSH2 0x672 JUMPI PUSH2 0x664 DUP2 DUP4 PUSH2 0x2A9E JUMP JUMPDEST CODESIZE PUSH2 0x503 JUMP JUMPDEST CALLVALUE PUSH2 0x177 JUMPI PUSH1 0xC0 MLOAD CALLDATASIZE PUSH1 0x3 NOT ADD SLT PUSH2 0x177 JUMPI PUSH1 0xC0 MLOAD SLOAD PUSH1 0x40 MLOAD PUSH1 0x1 PUSH1 0x1 PUSH1 0xA0 SHL SUB SWAP1 SWAP2 AND DUP2 MSTORE PUSH1 0x20 SWAP1 RETURN JUMPDEST CALLVALUE PUSH2 0x177 JUMPI PUSH1 0xC0 MLOAD CALLDATASIZE PUSH1 0x3 NOT ADD SLT PUSH2 0x177 JUMPI PUSH2 0x722 PUSH2 0x2C27 JUMP JUMPDEST PUSH1 0xC0 MLOAD DUP1 SLOAD PUSH1 0x1 PUSH1 0x1 PUSH1 0xA0 SHL SUB NOT DUP2 AND DUP3 SSTORE PUSH1 0x1 PUSH1 0x1 PUSH1 0xA0 SHL SUB AND PUSH32 0x8BE0079C531659141344CD1FD0A4F28419497F9722A3DAAFE3B4186F6B6457E0 DUP3 DUP1 LOG3 PUSH1 0xC0 MLOAD DUP1 RETURN JUMPDEST POP CALLVALUE PUSH2 0x177 JUMPI PUSH2 0x776 CALLDATASIZE PUSH2 0x2B21 JUMP JUMPDEST SWAP1 PUSH2 0x77F PUSH2 0x2C53 JUMP JUMPDEST POP PUSH1 0x2 SLOAD PUSH1 0x40 MLOAD PUSH4 0x58DBA2F PUSH1 0xE1 SHL DUP2 MSTORE PUSH1 0x1 PUSH1 0x1 PUSH1 0xA0 SHL SUB DUP4 DUP2 AND DUP3 DUP8 ADD MSTORE SWAP5 SWAP2 PUSH1 0x20 SWAP1 DUP3 SWAP1 PUSH1 0x24 SWAP1 DUP3 SWAP1 DUP10 AND GAS STATICCALL DUP1 ISZERO PUSH2 0x679 JUMPI DUP6 SWAP2 PUSH1 0xC0 MLOAD SWAP2 PUSH2 0xE7A JUMPI JUMPDEST POP AND ISZERO PUSH2 0xE36 JUMPI DUP4 DUP3 AND PUSH1 0xC0 MLOAD MSTORE PUSH1 0x6 PUSH1 0x20 MSTORE PUSH2 0x7E2 PUSH1 0x40 PUSH1 0xC0 MLOAD KECCAK256 SLOAD PUSH2 0x2CA3 JUMP JUMPDEST PUSH2 0xDF2 JUMPI PUSH2 0x7EF DUP4 PUSH2 0x2D3B JUMP JUMPDEST ISZERO PUSH2 0xDBB JUMPI DUP4 DUP3 AND PUSH1 0xC0 MLOAD MSTORE PUSH1 0x6 PUSH1 0x20 MSTORE PUSH1 0x40 PUSH1 0xC0 MLOAD KECCAK256 SWAP1 DUP4 MLOAD DUP1 MLOAD SWAP1 PUSH1 0x1 PUSH1 0x1 PUSH1 0x40 SHL SUB DUP3 GT PUSH2 0xDA4 JUMPI DUP2 SWAP1 PUSH2 0x830 DUP3 PUSH2 0x82A DUP8 SLOAD PUSH2 0x2CA3 JUMP JUMPDEST DUP8 PUSH2 0x2CF4 JUMP JUMPDEST PUSH1 0x20 SWAP1 PUSH1 0x1 PUSH1 0x1F DUP5 GT EQ PUSH2 0xD3B JUMPI PUSH1 0xC0 MLOAD SWAP3 PUSH2 0xD30 JUMPI JUMPDEST POP POP DUP2 PUSH1 0x1 SHL SWAP2 PUSH1 0x0 NOT SWAP1 PUSH1 0x3 SHL SHR NOT AND OR DUP3 SSTORE JUMPDEST PUSH1 0x1 DUP3 ADD PUSH1 0x20 DUP6 ADD MLOAD DUP1 MLOAD SWAP1 PUSH1 0x1 PUSH1 0x1 PUSH1 0x40 SHL SUB DUP3 GT PUSH2 0xBA7 JUMPI DUP2 SWAP1 PUSH2 0x88C DUP3 PUSH2 0x886 DUP7 SLOAD PUSH2 0x2CA3 JUMP JUMPDEST DUP7 PUSH2 0x2CF4 JUMP JUMPDEST PUSH1 0x20 SWAP1 PUSH1 0x1 PUSH1 0x1F DUP5 GT EQ PUSH2 0xCC7 JUMPI PUSH1 0xC0 MLOAD SWAP3 PUSH2 0xCBC JUMPI JUMPDEST POP POP DUP2 PUSH1 0x1 SHL SWAP2 PUSH1 0x0 NOT SWAP1 PUSH1 0x3 SHL SHR NOT AND OR SWAP1 SSTORE JUMPDEST PUSH1 0x2 DUP3 ADD PUSH1 0x40 DUP6 ADD MLOAD DUP1 MLOAD SWAP1 PUSH1 0x1 PUSH1 0x1 PUSH1 0x40 SHL SUB DUP3 GT PUSH2 0xBA7 JUMPI DUP2 SWAP1 PUSH2 0x8E2 DUP3 PUSH2 0x886 DUP7 SLOAD PUSH2 0x2CA3 JUMP JUMPDEST PUSH1 0x20 SWAP1 PUSH1 0x1 PUSH1 0x1F DUP5 GT EQ PUSH2 0xC53 JUMPI PUSH1 0xC0 MLOAD SWAP3 PUSH2 0xC48 JUMPI JUMPDEST POP POP DUP2 PUSH1 0x1 SHL SWAP2 PUSH1 0x0 NOT SWAP1 PUSH1 0x3 SHL SHR NOT AND OR SWAP1 SSTORE JUMPDEST PUSH1 0x3 SWAP2 DUP3 DUP2 ADD PUSH1 0x60 DUP7 ADD MLOAD DUP1 MLOAD SWAP1 PUSH1 0x1 PUSH1 0x1 PUSH1 0x40 SHL SUB DUP3 GT PUSH2 0xC31 JUMPI DUP2 SWAP1 PUSH2 0x93A DUP3 PUSH2 0x886 DUP7 SLOAD PUSH2 0x2CA3 JUMP JUMPDEST PUSH1 0x20 SWAP1 PUSH1 0x1 PUSH1 0x1F DUP5 GT EQ PUSH2 0xBC9 JUMPI PUSH1 0xC0 MLOAD SWAP3 PUSH2 0xBBE JUMPI JUMPDEST POP POP DUP2 PUSH1 0x1 SHL SWAP2 PUSH1 0x0 NOT SWAP1 DUP8 SHL SHR NOT AND OR SWAP1 SSTORE JUMPDEST PUSH1 0x80 DUP6 ADD MLOAD DUP1 MLOAD SWAP1 PUSH1 0x1 PUSH1 0x1 PUSH1 0x40 SHL SUB DUP3 GT PUSH2 0xBA7 JUMPI PUSH2 0x993 DUP3 PUSH2 0x98B DUP7 DUP7 ADD SLOAD PUSH2 0x2CA3 JUMP JUMPDEST DUP7 DUP7 ADD PUSH2 0x2CF4 JUMP JUMPDEST PUSH1 0x20 SWAP1 PUSH1 0x1 PUSH1 0x1F DUP5 GT EQ PUSH2 0xB34 JUMPI SWAP2 DUP1 SWAP2 PUSH1 0x5 SWAP5 SWAP4 PUSH1 0xC0 MLOAD SWAP3 PUSH2 0xB29 JUMPI JUMPDEST POP POP DUP2 PUSH1 0x1 SHL SWAP2 PUSH1 0x0 NOT SWAP1 DUP8 SHL SHR NOT AND OR DUP4 DUP3 ADD SSTORE JUMPDEST ADD SWAP2 PUSH1 0xA0 DUP6 ADD MLOAD DUP1 MLOAD SWAP3 PUSH1 0x1 PUSH1 0x1 PUSH1 0x40 SHL SUB DUP5 GT PUSH2 0xB12 JUMPI POP PUSH2 0x9EE DUP4 PUSH2 0x886 DUP7 SLOAD PUSH2 0x2CA3 JUMP JUMPDEST PUSH1 0x20 SWAP1 PUSH1 0x1 PUSH1 0x1F DUP6 GT EQ PUSH2 0xA7D JUMPI SWAP3 PUSH32 0x6E59FB1F315F2F4B281014E9D51CA1387542C6AF4109446EAAABADD34B5D5EB3 SWAP5 SWAP3 DUP2 SWAP3 PUSH2 0x2B5 SWAP10 SWAP6 PUSH1 0xC0 MLOAD SWAP4 PUSH2 0xA72 JUMPI JUMPDEST POP POP DUP3 PUSH1 0x1 SHL SWAP3 PUSH1 0x0 NOT SWAP2 SHL SHR NOT AND OR SWAP1 SSTORE JUMPDEST PUSH1 0x40 MLOAD SWAP3 PUSH1 0x20 DUP5 MSTORE AND SWAP2 DUP1 PUSH2 0xA5B PUSH1 0x20 DUP3 ADD DUP7 PUSH2 0x29EC JUMP JUMPDEST SUB SWAP1 LOG2 PUSH1 0x40 MLOAD SWAP2 DUP3 SWAP2 PUSH1 0x20 DUP4 MSTORE PUSH1 0x20 DUP4 ADD SWAP1 PUSH2 0x29EC JUMP JUMPDEST ADD MLOAD SWAP2 POP CODESIZE DUP1 PUSH2 0xA30 JUMP JUMPDEST SWAP2 SWAP1 PUSH1 0x1F NOT DUP5 AND SWAP3 DUP6 PUSH1 0xC0 MLOAD MSTORE PUSH1 0x20 PUSH1 0xC0 MLOAD KECCAK256 SWAP4 PUSH1 0xC0 MLOAD JUMPDEST DUP2 DUP2 LT PUSH2 0xAFA JUMPI POP SWAP3 DUP6 SWAP3 PUSH32 0x6E59FB1F315F2F4B281014E9D51CA1387542C6AF4109446EAAABADD34B5D5EB3 SWAP8 SWAP6 SWAP3 PUSH2 0x2B5 SWAP12 SWAP8 PUSH1 0x1 SWAP7 LT PUSH2 0xAE0 JUMPI JUMPDEST POP POP POP POP DUP2 SHL ADD SWAP1 SSTORE PUSH2 0xA43 JUMP JUMPDEST ADD MLOAD SWAP1 PUSH1 0xF8 DUP5 PUSH1 0x0 NOT SWAP3 SHL AND SHR NOT AND SWAP1 SSTORE CODESIZE DUP1 DUP1 DUP1 PUSH2 0xAD2 JUMP JUMPDEST SWAP3 SWAP5 PUSH1 0x20 PUSH1 0x1 DUP2 SWAP3 DUP9 DUP7 ADD MLOAD DUP2 SSTORE ADD SWAP7 ADD SWAP4 ADD PUSH2 0xA95 JUMP JUMPDEST PUSH1 0x41 SWAP1 PUSH4 0x4E487B71 PUSH1 0xE0 SHL PUSH1 0xC0 MLOAD MSTORE MSTORE PUSH1 0x24 PUSH1 0xC0 MLOAD REVERT JUMPDEST ADD MLOAD SWAP1 POP CODESIZE DUP1 PUSH2 0x9B1 JUMP JUMPDEST SWAP1 DUP5 DUP5 ADD PUSH1 0xC0 MLOAD MSTORE PUSH1 0x20 PUSH1 0xC0 MLOAD KECCAK256 SWAP2 PUSH1 0xC0 MLOAD JUMPDEST PUSH1 0x1F NOT DUP6 AND DUP2 LT PUSH2 0xB8F JUMPI POP SWAP2 DUP4 SWAP2 PUSH1 0x1 SWAP4 PUSH1 0x5 SWAP7 SWAP6 PUSH1 0x1F NOT DUP2 AND LT PUSH2 0xB77 JUMPI JUMPDEST POP POP POP DUP2 SHL ADD DUP4 DUP3 ADD SSTORE PUSH2 0x9C7 JUMP JUMPDEST ADD MLOAD PUSH1 0x0 NOT DUP4 DUP10 SHL PUSH1 0xF8 AND SHR NOT AND SWAP1 SSTORE CODESIZE DUP1 DUP1 PUSH2 0xB68 JUMP JUMPDEST SWAP2 SWAP3 PUSH1 0x20 PUSH1 0x1 DUP2 SWAP3 DUP7 DUP6 ADD MLOAD DUP2 SSTORE ADD SWAP5 ADD SWAP3 ADD PUSH2 0xB47 JUMP JUMPDEST PUSH1 0x41 DUP5 PUSH4 0x4E487B71 PUSH1 0xE0 SHL PUSH1 0xC0 MLOAD MSTORE MSTORE PUSH1 0x24 PUSH1 0xC0 MLOAD REVERT JUMPDEST ADD MLOAD SWAP1 POP CODESIZE DUP1 PUSH2 0x951 JUMP JUMPDEST PUSH1 0xC0 DUP1 MLOAD DUP7 SWAP1 MSTORE MLOAD PUSH1 0x20 DUP2 KECCAK256 SWAP4 POP PUSH1 0x1F NOT DUP6 AND SWAP1 JUMPDEST DUP2 DUP2 LT PUSH2 0xC19 JUMPI POP SWAP1 DUP5 PUSH1 0x1 SWAP6 SWAP5 SWAP4 SWAP3 LT PUSH2 0xC01 JUMPI JUMPDEST POP POP POP DUP2 SHL ADD SWAP1 SSTORE PUSH2 0x965 JUMP JUMPDEST ADD MLOAD PUSH1 0x0 NOT DUP4 DUP10 SHL PUSH1 0xF8 AND SHR NOT AND SWAP1 SSTORE CODESIZE DUP1 DUP1 PUSH2 0xBF4 JUMP JUMPDEST SWAP3 SWAP4 PUSH1 0x20 PUSH1 0x1 DUP2 SWAP3 DUP8 DUP7 ADD MLOAD DUP2 SSTORE ADD SWAP6 ADD SWAP4 ADD PUSH2 0xBDE JUMP JUMPDEST PUSH1 0x41 DUP6 PUSH4 0x4E487B71 PUSH1 0xE0 SHL PUSH1 0xC0 MLOAD MSTORE MSTORE PUSH1 0x24 PUSH1 0xC0 MLOAD REVERT JUMPDEST ADD MLOAD SWAP1 POP CODESIZE DUP1 PUSH2 0x8F9 JUMP JUMPDEST PUSH1 0xC0 DUP1 MLOAD DUP7 SWAP1 MSTORE MLOAD PUSH1 0x20 DUP2 KECCAK256 SWAP4 POP PUSH1 0x1F NOT DUP6 AND SWAP1 JUMPDEST DUP2 DUP2 LT PUSH2 0xCA4 JUMPI POP SWAP1 DUP5 PUSH1 0x1 SWAP6 SWAP5 SWAP4 SWAP3 LT PUSH2 0xC8B JUMPI JUMPDEST POP POP POP DUP2 SHL ADD SWAP1 SSTORE PUSH2 0x90E JUMP JUMPDEST ADD MLOAD PUSH1 0x0 NOT PUSH1 0xF8 DUP5 PUSH1 0x3 SHL AND SHR NOT AND SWAP1 SSTORE CODESIZE DUP1 DUP1 PUSH2 0xC7E JUMP JUMPDEST SWAP3 SWAP4 PUSH1 0x20 PUSH1 0x1 DUP2 SWAP3 DUP8 DUP7 ADD MLOAD DUP2 SSTORE ADD SWAP6 ADD SWAP4 ADD PUSH2 0xC68 JUMP JUMPDEST ADD MLOAD SWAP1 POP CODESIZE DUP1 PUSH2 0x8A3 JUMP JUMPDEST PUSH1 0xC0 DUP1 MLOAD DUP7 SWAP1 MSTORE MLOAD PUSH1 0x20 DUP2 KECCAK256 SWAP4 POP PUSH1 0x1F NOT DUP6 AND SWAP1 JUMPDEST DUP2 DUP2 LT PUSH2 0xD18 JUMPI POP SWAP1 DUP5 PUSH1 0x1 SWAP6 SWAP5 SWAP4 SWAP3 LT PUSH2 0xCFF JUMPI JUMPDEST POP POP POP DUP2 SHL ADD SWAP1 SSTORE PUSH2 0x8B8 JUMP JUMPDEST ADD MLOAD PUSH1 0x0 NOT PUSH1 0xF8 DUP5 PUSH1 0x3 SHL AND SHR NOT AND SWAP1 SSTORE CODESIZE DUP1 DUP1 PUSH2 0xCF2 JUMP JUMPDEST SWAP3 SWAP4 PUSH1 0x20 PUSH1 0x1 DUP2 SWAP3 DUP8 DUP7 ADD MLOAD DUP2 SSTORE ADD SWAP6 ADD SWAP4 ADD PUSH2 0xCDC JUMP JUMPDEST ADD MLOAD SWAP1 POP CODESIZE DUP1 PUSH2 0x847 JUMP JUMPDEST PUSH1 0xC0 DUP1 MLOAD DUP8 SWAP1 MSTORE MLOAD PUSH1 0x20 DUP2 KECCAK256 SWAP4 POP PUSH1 0x1F NOT DUP6 AND SWAP1 JUMPDEST DUP2 DUP2 LT PUSH2 0xD8C JUMPI POP SWAP1 DUP5 PUSH1 0x1 SWAP6 SWAP5 SWAP4 SWAP3 LT PUSH2 0xD73 JUMPI JUMPDEST POP POP POP DUP2 SHL ADD DUP3 SSTORE PUSH2 0x85C JUMP JUMPDEST ADD MLOAD PUSH1 0x0 NOT PUSH1 0xF8 DUP5 PUSH1 0x3 SHL AND SHR NOT AND SWAP1 SSTORE CODESIZE DUP1 DUP1 PUSH2 0xD66 JUMP JUMPDEST SWAP3 SWAP4 PUSH1 0x20 PUSH1 0x1 DUP2 SWAP3 DUP8 DUP7 ADD MLOAD DUP2 SSTORE ADD SWAP6 ADD SWAP4 ADD PUSH2 0xD50 JUMP JUMPDEST PUSH1 0x41 DUP4 PUSH4 0x4E487B71 PUSH1 0xE0 SHL PUSH1 0xC0 MLOAD MSTORE MSTORE PUSH1 0x24 PUSH1 0xC0 MLOAD REVERT JUMPDEST PUSH1 0x64 SWAP1 PUSH1 0x20 PUSH1 0x40 MLOAD SWAP2 PUSH3 0x461BCD PUSH1 0xE5 SHL DUP4 MSTORE DUP3 ADD MSTORE PUSH1 0x10 PUSH1 0x24 DUP3 ADD MSTORE PUSH16 0x496E76616C6964206D65746164617461 PUSH1 0x80 SHL PUSH1 0x44 DUP3 ADD MSTORE REVERT JUMPDEST PUSH1 0x64 SWAP1 PUSH1 0x20 PUSH1 0x40 MLOAD SWAP2 PUSH3 0x461BCD PUSH1 0xE5 SHL DUP4 MSTORE DUP3 ADD MSTORE PUSH1 0x17 PUSH1 0x24 DUP3 ADD MSTORE PUSH32 0x4D6574616461746120616C726561647920657869737473000000000000000000 PUSH1 0x44 DUP3 ADD MSTORE REVERT JUMPDEST PUSH1 0x64 SWAP1 PUSH1 0x20 PUSH1 0x40 MLOAD SWAP2 PUSH3 0x461BCD PUSH1 0xE5 SHL DUP4 MSTORE DUP3 ADD MSTORE PUSH1 0x19 PUSH1 0x24 DUP3 ADD MSTORE PUSH32 0x41646472657373206E6F7420612070726F746F636F6C20575300000000000000 PUSH1 0x44 DUP3 ADD MSTORE REVERT JUMPDEST PUSH2 0xE93 SWAP2 POP PUSH1 0x20 RETURNDATASIZE PUSH1 0x20 GT PUSH2 0x672 JUMPI PUSH2 0x664 DUP2 DUP4 PUSH2 0x2A9E JUMP JUMPDEST CODESIZE PUSH2 0x7C0 JUMP JUMPDEST POP PUSH2 0xEA3 CALLDATASIZE PUSH2 0x2B21 JUMP JUMPDEST PUSH1 0x40 MLOAD PUSH4 0x8DA5CB5B PUSH1 0xE0 SHL DUP2 MSTORE PUSH1 0x1 PUSH1 0x1 PUSH1 0xA0 SHL SUB SWAP3 DUP4 AND SWAP3 PUSH1 0x20 SWAP2 DUP3 DUP2 DUP8 DUP2 DUP9 GAS STATICCALL SWAP1 DUP2 ISZERO PUSH2 0x679 JUMPI PUSH1 0xC0 MLOAD SWAP2 PUSH2 0x161F JUMPI JUMPDEST POP DUP2 AND CALLER EQ DUP1 ISZERO PUSH2 0x1612 JUMPI JUMPDEST ISZERO PUSH2 0x15BC JUMPI DUP5 DUP3 DUP3 PUSH1 0x2 SLOAD AND PUSH1 0x40 MLOAD SWAP3 DUP4 DUP1 SWAP3 PUSH4 0x670D2969 PUSH1 0xE1 SHL DUP3 MSTORE GAS STATICCALL SWAP1 DUP2 ISZERO PUSH2 0x679 JUMPI DUP3 SWAP2 DUP5 SWAP2 PUSH1 0xC0 MLOAD SWAP2 PUSH2 0x159F JUMPI JUMPDEST POP DUP8 PUSH1 0x40 MLOAD DUP1 SWAP6 DUP2 SWAP4 PUSH4 0x65BB98B5 PUSH1 0xE0 SHL DUP4 MSTORE AND GAS STATICCALL DUP1 ISZERO PUSH2 0x679 JUMPI DUP4 SWAP3 PUSH1 0xC0 MLOAD SWAP2 PUSH2 0x1582 JUMPI JUMPDEST POP AND PUSH1 0x3 SWAP1 DUP1 PUSH1 0x1 PUSH1 0x1 PUSH1 0x60 SHL SUB PUSH1 0xA0 SHL DUP4 SLOAD AND OR DUP3 SSTORE PUSH1 0x40 MLOAD SWAP3 DUP4 DUP1 SWAP3 PUSH4 0x6F87189 PUSH1 0xE3 SHL DUP3 MSTORE DUP9 DUP11 DUP4 ADD MSTORE PUSH1 0x24 SWAP6 DUP7 SWAP2 GAS STATICCALL SWAP1 DUP2 ISZERO PUSH2 0x679 JUMPI PUSH1 0xC0 MLOAD SWAP2 PUSH2 0x1555 JUMPI JUMPDEST POP PUSH2 0x14FC JUMPI PUSH2 0xF96 PUSH2 0xF91 DUP6 PUSH2 0x2D3B JUMP JUMPDEST PUSH2 0x2D80 JUMP JUMPDEST DUP5 PUSH1 0xC0 MLOAD MSTORE PUSH1 0x6 DUP4 MSTORE PUSH1 0x40 PUSH1 0xC0 MLOAD KECCAK256 SWAP1 DUP5 MLOAD SWAP7 DUP8 MLOAD SWAP3 PUSH1 0x1 PUSH1 0x1 PUSH1 0x40 SHL SUB SWAP4 DUP5 DUP2 GT PUSH2 0x14E6 JUMPI PUSH2 0xFD0 DUP2 PUSH2 0xFCA DUP5 SLOAD PUSH2 0x2CA3 JUMP JUMPDEST DUP5 PUSH2 0x2CF4 JUMP JUMPDEST PUSH1 0x1F SWAP10 DUP2 SWAP1 DUP9 SWAP1 PUSH1 0x1 DUP14 DUP5 GT EQ PUSH2 0x147F JUMPI PUSH1 0xC0 MLOAD SWAP3 PUSH2 0x1474 JUMPI JUMPDEST POP POP DUP2 PUSH1 0x1 SHL SWAP2 PUSH1 0x0 NOT SWAP1 DUP7 SHL SHR NOT AND OR DUP2 SSTORE JUMPDEST PUSH1 0x1 PUSH1 0x80 MSTORE PUSH1 0x80 MLOAD DUP2 ADD DUP7 DUP9 ADD MLOAD DUP1 MLOAD SWAP1 DUP7 DUP3 GT PUSH2 0x12FC JUMPI DUP2 SWAP1 PUSH2 0x1026 DUP3 PUSH2 0x886 DUP7 SLOAD PUSH2 0x2CA3 JUMP JUMPDEST DUP10 SWAP1 PUSH1 0x1 DUP15 DUP5 GT EQ PUSH2 0x1409 JUMPI PUSH1 0xC0 MLOAD SWAP3 PUSH2 0x13FE JUMPI JUMPDEST POP POP DUP2 PUSH1 0x80 MLOAD SHL SWAP2 PUSH1 0x0 NOT SWAP1 DUP8 SHL SHR NOT AND OR SWAP1 SSTORE JUMPDEST PUSH1 0x2 DUP2 ADD PUSH1 0x40 DUP9 ADD MLOAD DUP1 MLOAD SWAP1 DUP7 DUP3 GT PUSH2 0x12FC JUMPI DUP2 SWAP1 PUSH2 0x1073 DUP3 PUSH2 0x886 DUP7 SLOAD PUSH2 0x2CA3 JUMP JUMPDEST DUP10 SWAP1 PUSH1 0x1 DUP15 DUP5 GT EQ PUSH2 0x1393 JUMPI PUSH1 0xC0 MLOAD SWAP3 PUSH2 0x1388 JUMPI JUMPDEST POP POP DUP2 PUSH1 0x80 MLOAD SHL SWAP2 PUSH1 0x0 NOT SWAP1 DUP8 SHL SHR NOT AND OR SWAP1 SSTORE JUMPDEST DUP3 DUP2 ADD PUSH1 0x60 DUP9 ADD MLOAD DUP1 MLOAD SWAP1 DUP7 DUP3 GT PUSH2 0x12FC JUMPI DUP2 SWAP1 PUSH2 0x10BF DUP3 PUSH2 0x886 DUP7 SLOAD PUSH2 0x2CA3 JUMP JUMPDEST DUP10 SWAP1 PUSH1 0x1 DUP15 DUP5 GT EQ PUSH2 0x131D JUMPI PUSH1 0xC0 MLOAD SWAP3 PUSH2 0x1312 JUMPI JUMPDEST POP POP DUP2 PUSH1 0x80 MLOAD SHL SWAP2 PUSH1 0x0 NOT SWAP1 DUP8 SHL SHR NOT AND OR SWAP1 SSTORE JUMPDEST DUP2 DUP2 ADD PUSH1 0x80 DUP9 ADD MLOAD DUP1 MLOAD SWAP1 DUP7 DUP3 GT PUSH2 0x12FC JUMPI PUSH2 0x110F DUP3 PUSH2 0x1109 DUP6 SLOAD PUSH2 0x2CA3 JUMP JUMPDEST DUP6 PUSH2 0x2CF4 JUMP JUMPDEST DUP9 SWAP1 PUSH1 0x1 DUP14 DUP5 GT EQ PUSH2 0x128A JUMPI SWAP2 DUP1 SWAP2 PUSH1 0x5 SWAP6 SWAP5 SWAP4 PUSH1 0xC0 MLOAD SWAP3 PUSH2 0x127F JUMPI JUMPDEST POP POP DUP2 PUSH1 0x80 MLOAD SHL SWAP2 PUSH1 0x0 NOT SWAP1 DUP9 SHL SHR NOT AND OR SWAP1 SSTORE JUMPDEST ADD SWAP4 PUSH1 0xA0 DUP8 ADD MLOAD SWAP2 DUP3 MLOAD SWAP5 DUP6 GT PUSH2 0x126A JUMPI POP POP PUSH2 0x1162 DUP4 PUSH2 0x886 DUP7 SLOAD PUSH2 0x2CA3 JUMP JUMPDEST PUSH1 0xC0 MLOAD POP DUP5 SWAP8 DUP4 GT PUSH1 0x1 EQ PUSH2 0x11DC JUMPI SWAP1 PUSH32 0x4288F171F419B66095D6E026090ED813669EA5A62CFE4416A47E75549E478866 SWAP7 SWAP8 DUP4 SWAP3 PUSH1 0xC0 MLOAD SWAP4 PUSH2 0x11D1 JUMPI JUMPDEST POP POP DUP3 PUSH1 0x80 MLOAD SHL SWAP3 PUSH1 0x0 NOT SWAP2 SHL SHR NOT AND OR SWAP1 SSTORE JUMPDEST PUSH2 0x11C8 PUSH1 0x40 MLOAD SWAP3 DUP3 DUP5 SWAP4 DUP5 MSTORE DUP4 ADD SWAP1 PUSH2 0x29EC JUMP JUMPDEST SUB SWAP1 LOG2 PUSH1 0xC0 MLOAD DUP1 RETURN JUMPDEST ADD MLOAD SWAP2 POP CODESIZE DUP1 PUSH2 0x11A0 JUMP JUMPDEST SWAP1 PUSH1 0x1F NOT DUP4 AND SWAP8 DUP5 PUSH1 0xC0 MLOAD MSTORE DUP6 PUSH1 0xC0 MLOAD KECCAK256 SWAP3 PUSH1 0xC0 MLOAD JUMPDEST DUP11 DUP2 LT PUSH2 0x1252 JUMPI POP DUP5 PUSH32 0x4288F171F419B66095D6E026090ED813669EA5A62CFE4416A47E75549E478866 SWAP10 SWAP11 LT PUSH2 0x1238 JUMPI JUMPDEST POP POP POP POP PUSH1 0x80 MLOAD SWAP1 PUSH1 0x80 MLOAD SHL ADD SWAP1 SSTORE PUSH2 0x11B4 JUMP JUMPDEST ADD MLOAD SWAP1 PUSH1 0xF8 DUP5 PUSH1 0x0 NOT SWAP3 SHL AND SHR NOT AND SWAP1 SSTORE CODESIZE DUP1 DUP1 DUP1 PUSH2 0x1224 JUMP JUMPDEST SWAP2 SWAP4 DUP8 DUP1 SWAP2 DUP7 DUP5 ADD MLOAD DUP2 SSTORE PUSH1 0x80 MLOAD ADD SWAP6 ADD SWAP3 ADD PUSH2 0x11F2 JUMP JUMPDEST PUSH1 0x41 SWAP1 PUSH4 0x4E487B71 PUSH1 0xE0 SHL PUSH1 0xC0 MLOAD MSTORE MSTORE PUSH1 0xC0 MLOAD REVERT JUMPDEST ADD MLOAD SWAP1 POP CODESIZE DUP1 PUSH2 0x112C JUMP JUMPDEST SWAP1 PUSH1 0x1F NOT DUP4 AND SWAP2 DUP5 PUSH1 0xC0 MLOAD MSTORE DUP11 PUSH1 0xC0 MLOAD KECCAK256 SWAP3 PUSH1 0xC0 MLOAD JUMPDEST DUP13 DUP3 DUP3 LT PUSH2 0x12E5 JUMPI POP POP SWAP1 DUP5 PUSH1 0x5 SWAP8 SWAP7 SWAP6 SWAP5 SWAP4 SWAP3 LT PUSH2 0x12CD JUMPI JUMPDEST POP POP POP PUSH1 0x80 MLOAD SWAP1 PUSH1 0x80 MLOAD SHL ADD SWAP1 SSTORE PUSH2 0x1141 JUMP JUMPDEST ADD MLOAD PUSH1 0x0 NOT DUP4 DUP10 SHL PUSH1 0xF8 AND SHR NOT AND SWAP1 SSTORE CODESIZE DUP1 DUP1 PUSH2 0x12BA JUMP JUMPDEST DUP5 SWAP6 DUP2 SWAP3 SWAP6 DUP6 ADD MLOAD DUP2 SSTORE PUSH1 0x80 MLOAD ADD SWAP6 ADD SWAP4 ADD PUSH2 0x12A0 JUMP JUMPDEST DUP8 PUSH1 0x41 DUP7 PUSH4 0x4E487B71 PUSH1 0xE0 SHL PUSH1 0xC0 MLOAD MSTORE MSTORE PUSH1 0xC0 MLOAD REVERT JUMPDEST ADD MLOAD SWAP1 POP CODESIZE DUP1 PUSH2 0x10D4 JUMP JUMPDEST PUSH1 0xC0 DUP1 MLOAD DUP7 SWAP1 MSTORE MLOAD DUP12 DUP2 KECCAK256 SWAP4 POP DUP5 SWAP1 PUSH1 0x1F NOT DUP3 AND SWAP1 JUMPDEST DUP14 DUP3 DUP3 LT PUSH2 0x136E JUMPI POP POP LT PUSH2 0x1356 JUMPI JUMPDEST POP POP POP PUSH1 0x80 MLOAD SWAP1 PUSH1 0x80 MLOAD SHL ADD SWAP1 SSTORE PUSH2 0x10E9 JUMP JUMPDEST ADD MLOAD PUSH1 0x0 NOT DUP4 DUP9 SHL PUSH1 0xF8 AND SHR NOT AND SWAP1 SSTORE CODESIZE DUP1 DUP1 PUSH2 0x1343 JUMP JUMPDEST DUP5 DUP7 ADD MLOAD DUP8 SSTORE PUSH1 0x80 MLOAD SWAP1 SWAP7 ADD SWAP6 SWAP5 DUP6 ADD SWAP5 DUP8 SWAP4 POP ADD PUSH2 0x1333 JUMP JUMPDEST ADD MLOAD SWAP1 POP CODESIZE DUP1 PUSH2 0x1088 JUMP JUMPDEST PUSH1 0xC0 DUP1 MLOAD DUP7 SWAP1 MSTORE MLOAD DUP12 DUP2 KECCAK256 SWAP4 POP DUP5 SWAP1 PUSH1 0x1F NOT DUP3 AND SWAP1 JUMPDEST DUP14 DUP3 DUP3 LT PUSH2 0x13E4 JUMPI POP POP LT PUSH2 0x13CC JUMPI JUMPDEST POP POP POP PUSH1 0x80 MLOAD SWAP1 PUSH1 0x80 MLOAD SHL ADD SWAP1 SSTORE PUSH2 0x109D JUMP JUMPDEST ADD MLOAD PUSH1 0x0 NOT DUP4 DUP9 SHL PUSH1 0xF8 AND SHR NOT AND SWAP1 SSTORE CODESIZE DUP1 DUP1 PUSH2 0x13B9 JUMP JUMPDEST DUP5 DUP7 ADD MLOAD DUP8 SSTORE PUSH1 0x80 MLOAD SWAP1 SWAP7 ADD SWAP6 SWAP5 DUP6 ADD SWAP5 DUP8 SWAP4 POP ADD PUSH2 0x13A9 JUMP JUMPDEST ADD MLOAD SWAP1 POP CODESIZE DUP1 PUSH2 0x103B JUMP JUMPDEST PUSH1 0xC0 DUP1 MLOAD DUP7 SWAP1 MSTORE MLOAD DUP12 DUP2 KECCAK256 SWAP4 POP DUP5 SWAP1 PUSH1 0x1F NOT DUP3 AND SWAP1 JUMPDEST DUP14 DUP3 DUP3 LT PUSH2 0x145A JUMPI POP POP LT PUSH2 0x1442 JUMPI JUMPDEST POP POP POP PUSH1 0x80 MLOAD SWAP1 PUSH1 0x80 MLOAD SHL ADD SWAP1 SSTORE PUSH2 0x1050 JUMP JUMPDEST ADD MLOAD PUSH1 0x0 NOT DUP4 DUP9 SHL PUSH1 0xF8 AND SHR NOT AND SWAP1 SSTORE CODESIZE DUP1 DUP1 PUSH2 0x142F JUMP JUMPDEST DUP5 DUP7 ADD MLOAD DUP8 SSTORE PUSH1 0x80 MLOAD SWAP1 SWAP7 ADD SWAP6 SWAP5 DUP6 ADD SWAP5 DUP8 SWAP4 POP ADD PUSH2 0x141F JUMP JUMPDEST ADD MLOAD SWAP1 POP CODESIZE DUP1 PUSH2 0xFEA JUMP JUMPDEST PUSH1 0xC0 DUP1 MLOAD DUP7 SWAP1 MSTORE MLOAD DUP11 DUP2 KECCAK256 SWAP4 POP PUSH1 0x1F NOT DUP6 AND SWAP1 JUMPDEST DUP12 DUP3 DUP3 LT PUSH2 0x14D0 JUMPI POP POP SWAP1 DUP5 PUSH1 0x1 SWAP6 SWAP5 SWAP4 SWAP3 LT PUSH2 0x14B8 JUMPI JUMPDEST POP POP POP DUP2 SHL ADD DUP2 SSTORE PUSH2 0xFFE JUMP JUMPDEST ADD MLOAD PUSH1 0x0 NOT DUP4 DUP9 SHL PUSH1 0xF8 AND SHR NOT AND SWAP1 SSTORE CODESIZE DUP1 DUP1 PUSH2 0x14AB JUMP JUMPDEST PUSH1 0x1 DUP6 SWAP7 DUP3 SWAP4 SWAP7 DUP7 ADD MLOAD DUP2 SSTORE ADD SWAP6 ADD SWAP4 ADD PUSH2 0x1493 JUMP JUMPDEST DUP6 PUSH1 0x41 DUP5 PUSH4 0x4E487B71 PUSH1 0xE0 SHL PUSH1 0xC0 MLOAD MSTORE MSTORE PUSH1 0xC0 MLOAD REVERT JUMPDEST PUSH1 0x40 MLOAD PUSH3 0x461BCD PUSH1 0xE5 SHL DUP2 MSTORE DUP1 DUP8 ADD DUP5 SWAP1 MSTORE PUSH1 0x2D DUP2 DUP5 ADD MSTORE PUSH32 0x43616E6E6F7420757064617465206D65746164617461206469726563746C7920 PUSH1 0x44 DUP3 ADD MSTORE PUSH13 0x61667465722072656C65617365 PUSH1 0x98 SHL PUSH1 0x64 DUP3 ADD MSTORE PUSH1 0x84 SWAP1 REVERT JUMPDEST PUSH2 0x1575 SWAP2 POP DUP5 RETURNDATASIZE DUP7 GT PUSH2 0x157B JUMPI JUMPDEST PUSH2 0x156D DUP2 DUP4 PUSH2 0x2A9E JUMP JUMPDEST DUP2 ADD SWAP1 PUSH2 0x2DF2 JUMP JUMPDEST CODESIZE PUSH2 0xF80 JUMP JUMPDEST POP RETURNDATASIZE PUSH2 0x1563 JUMP JUMPDEST PUSH2 0x1599 SWAP2 POP DUP4 RETURNDATASIZE DUP6 GT PUSH2 0x672 JUMPI PUSH2 0x664 DUP2 DUP4 PUSH2 0x2A9E JUMP JUMPDEST CODESIZE PUSH2 0xF3C JUMP JUMPDEST PUSH2 0x15B6 SWAP2 POP DUP3 RETURNDATASIZE DUP5 GT PUSH2 0x672 JUMPI PUSH2 0x664 DUP2 DUP4 PUSH2 0x2A9E JUMP JUMPDEST CODESIZE PUSH2 0xF15 JUMP JUMPDEST PUSH1 0x40 MLOAD PUSH3 0x461BCD PUSH1 0xE5 SHL DUP2 MSTORE DUP1 DUP7 ADD DUP4 SWAP1 MSTORE PUSH1 0x29 PUSH1 0x24 DUP3 ADD MSTORE PUSH32 0x4F6E6C79207772617070656420736F6E67206F7220697473206F776E65722063 PUSH1 0x44 DUP3 ADD MSTORE PUSH9 0x616E20757064617465 PUSH1 0xB8 SHL PUSH1 0x64 DUP3 ADD MSTORE PUSH1 0x84 SWAP1 REVERT JUMPDEST POP DUP1 PUSH1 0x2 SLOAD AND CALLER EQ PUSH2 0xEE2 JUMP JUMPDEST PUSH2 0x1636 SWAP2 POP DUP4 RETURNDATASIZE DUP6 GT PUSH2 0x672 JUMPI PUSH2 0x664 DUP2 DUP4 PUSH2 0x2A9E JUMP JUMPDEST CODESIZE PUSH2 0xED6 JUMP JUMPDEST CALLVALUE PUSH2 0x177 JUMPI PUSH1 0xC0 MLOAD CALLDATASIZE PUSH1 0x3 NOT ADD SLT PUSH2 0x177 JUMPI PUSH1 0x2 SLOAD PUSH1 0x40 MLOAD PUSH1 0x1 PUSH1 0x1 PUSH1 0xA0 SHL SUB SWAP1 SWAP2 AND DUP2 MSTORE PUSH1 0x20 SWAP1 RETURN JUMPDEST POP CALLVALUE PUSH2 0x177 JUMPI PUSH2 0x1675 CALLDATASIZE PUSH2 0x2B21 JUMP JUMPDEST PUSH1 0x2 SLOAD PUSH1 0x40 MLOAD PUSH4 0x670D2969 PUSH1 0xE1 SHL DUP1 DUP3 MSTORE PUSH1 0x1 PUSH1 0x1 PUSH1 0xA0 SHL SUB SWAP3 DUP4 AND SWAP5 PUSH1 0x20 SWAP4 SWAP3 SWAP1 SWAP2 SWAP1 DUP5 DUP2 DUP10 DUP2 DUP11 GAS STATICCALL SWAP1 DUP2 ISZERO PUSH2 0x679 JUMPI DUP5 SWAP2 DUP7 SWAP2 PUSH1 0xC0 MLOAD SWAP2 PUSH2 0x21E2 JUMPI JUMPDEST POP DUP10 PUSH1 0x40 MLOAD DUP1 SWAP5 DUP2 SWAP4 PUSH4 0x65BB98B5 PUSH1 0xE0 SHL DUP4 MSTORE AND GAS STATICCALL DUP1 ISZERO PUSH2 0x679 JUMPI DUP5 SWAP2 PUSH1 0xC0 MLOAD SWAP2 PUSH2 0x21C5 JUMPI JUMPDEST POP AND SWAP3 PUSH1 0x1 PUSH1 0x1 PUSH1 0x60 SHL SUB PUSH1 0xA0 SHL DUP2 PUSH1 0x3 SWAP5 DUP7 DUP4 DUP8 SLOAD AND OR DUP7 SSTORE PUSH2 0x1701 PUSH2 0xF91 DUP11 PUSH2 0x2D3B JUMP JUMPDEST AND SWAP8 PUSH1 0x40 MLOAD PUSH4 0x8DA5CB5B PUSH1 0xE0 SHL DUP2 MSTORE DUP8 DUP2 DUP13 DUP2 DUP14 GAS STATICCALL SWAP1 DUP2 ISZERO PUSH2 0x679 JUMPI PUSH1 0xC0 MLOAD SWAP2 PUSH2 0x21A8 JUMPI JUMPDEST POP DUP4 CALLER SWAP2 AND SUB PUSH2 0x2151 JUMPI PUSH1 0x40 MLOAD PUSH4 0x6F87189 PUSH1 0xE3 SHL DUP2 MSTORE DUP1 DUP12 ADD DUP11 SWAP1 MSTORE PUSH1 0x24 SWAP7 DUP9 SWAP1 DUP3 SWAP1 DUP10 SWAP1 DUP3 SWAP1 GAS STATICCALL SWAP1 DUP2 ISZERO PUSH2 0x679 JUMPI PUSH1 0xC0 MLOAD SWAP2 PUSH2 0x2134 JUMPI JUMPDEST POP ISZERO PUSH2 0x20DD JUMPI PUSH1 0x40 MLOAD DUP5 DUP2 MSTORE DUP8 DUP2 DUP13 DUP2 DUP6 GAS STATICCALL SWAP1 DUP2 ISZERO PUSH2 0x679 JUMPI DUP5 SWAP2 DUP10 SWAP2 PUSH1 0xC0 MLOAD SWAP2 PUSH2 0x20C0 JUMPI JUMPDEST POP DUP13 PUSH1 0x40 MLOAD DUP1 SWAP5 DUP2 SWAP4 PUSH4 0x6D4726D9 PUSH1 0xE0 SHL DUP4 MSTORE AND GAS STATICCALL DUP1 ISZERO PUSH2 0x679 JUMPI DUP5 SWAP2 PUSH1 0xC0 MLOAD SWAP2 PUSH2 0x2086 JUMPI JUMPDEST POP AND SWAP4 DUP5 DUP4 DUP13 SLOAD AND OR DUP12 SSTORE PUSH1 0x40 MLOAD SWAP5 PUSH4 0x74816E37 PUSH1 0xE0 SHL DUP7 MSTORE DUP9 DUP7 DUP14 DUP2 DUP5 GAS STATICCALL SWAP6 DUP7 ISZERO PUSH2 0x679 JUMPI PUSH1 0xC0 MLOAD SWAP7 PUSH2 0x2057 JUMPI JUMPDEST POP PUSH1 0x40 MLOAD PUSH4 0xD579E3F3 PUSH1 0xE0 SHL DUP2 MSTORE DUP10 DUP2 DUP15 DUP2 DUP6 GAS STATICCALL SWAP3 DUP4 ISZERO PUSH2 0x679 JUMPI DUP11 SWAP2 PUSH1 0xC0 MLOAD SWAP5 PUSH2 0x2038 JUMPI JUMPDEST POP DUP14 PUSH1 0x40 MLOAD DUP1 SWAP7 DUP2 SWAP4 DUP3 MSTORE GAS STATICCALL SWAP3 DUP4 ISZERO PUSH2 0x679 JUMPI DUP6 SWAP4 DUP11 SWAP2 PUSH1 0xC0 MLOAD SWAP2 PUSH2 0x201B JUMPI JUMPDEST POP DUP14 PUSH1 0x40 MLOAD DUP1 SWAP7 DUP2 SWAP4 PUSH4 0x9DA4E51 PUSH1 0xE0 SHL DUP4 MSTORE AND GAS STATICCALL SWAP2 DUP3 ISZERO PUSH2 0x679 JUMPI DUP6 DUP11 SWAP4 DUP15 SWAP6 PUSH1 0xC0 MLOAD SWAP2 PUSH2 0x1FDB JUMPI JUMPDEST POP AND DUP1 SWAP6 PUSH1 0x5 SLOAD AND OR PUSH1 0x5 SSTORE DUP7 ISZERO ISZERO SWAP1 DUP2 PUSH1 0x0 EQ PUSH2 0x1FCE JUMPI ISZERO PUSH2 0x1F42 JUMPI POP PUSH1 0x40 MLOAD PUSH4 0x37A0A9E9 PUSH1 0xE1 SHL DUP2 MSTORE SWAP3 DUP4 SWAP2 DUP3 SWAP1 GAS STATICCALL DUP1 ISZERO PUSH2 0x679 JUMPI DUP8 SWAP2 PUSH1 0xC0 MLOAD SWAP2 PUSH2 0x1F13 JUMPI JUMPDEST POP DUP7 DUP12 PUSH1 0x40 MLOAD SWAP5 DUP6 SWAP4 DUP5 SWAP3 PUSH4 0x7C70C0A3 PUSH1 0xE0 SHL DUP5 MSTORE DUP4 ADD MSTORE GAS STATICCALL SWAP1 DUP2 ISZERO PUSH2 0x679 JUMPI PUSH1 0xC0 MLOAD SWAP2 PUSH2 0x1EF6 JUMPI JUMPDEST POP AND SWAP1 DUP2 ISZERO PUSH2 0x1EA7 JUMPI PUSH1 0x40 MLOAD PUSH4 0x23B872DD PUSH1 0xE0 SHL DUP7 DUP3 ADD MSTORE CALLER DUP6 DUP3 ADD MSTORE ADDRESS PUSH1 0x44 DUP3 ADD MSTORE PUSH1 0x64 DUP1 DUP3 ADD DUP4 SWAP1 MSTORE DUP2 MSTORE PUSH1 0xA0 DUP2 ADD PUSH1 0x1 PUSH1 0x1 PUSH1 0x40 SHL SUB DUP2 GT DUP3 DUP3 LT OR PUSH2 0x1E93 JUMPI PUSH1 0x40 MSTORE PUSH2 0x190F SWAP1 DUP4 PUSH2 0x3036 JUMP JUMPDEST DUP2 PUSH1 0xC0 MLOAD MSTORE PUSH1 0x9 DUP6 MSTORE PUSH1 0x40 PUSH1 0xC0 MLOAD KECCAK256 DUP1 SLOAD SWAP1 DUP3 DUP3 ADD DUP1 SWAP3 GT PUSH2 0x1E7F JUMPI SSTORE PUSH1 0x40 MLOAD SWAP1 DUP2 MSTORE PUSH32 0x785BFD9070B1FA5B19BFA2AC4637328DF950F5E0ADAFE5873360DE4E23B6D8A0 DUP6 CALLER SWAP3 LOG3 JUMPDEST DUP5 PUSH1 0xC0 MLOAD MSTORE PUSH1 0x7 DUP4 MSTORE PUSH1 0x40 PUSH1 0xC0 MLOAD KECCAK256 SWAP1 DUP5 MLOAD SWAP7 DUP8 MLOAD SWAP3 PUSH1 0x1 PUSH1 0x1 PUSH1 0x40 SHL SUB SWAP4 DUP5 DUP2 GT PUSH2 0x14E6 JUMPI PUSH2 0x198C DUP2 PUSH2 0xFCA DUP5 SLOAD PUSH2 0x2CA3 JUMP JUMPDEST PUSH1 0x1F SWAP10 DUP2 SWAP1 DUP9 SWAP1 PUSH1 0x1 DUP14 DUP5 GT EQ PUSH2 0x1E18 JUMPI PUSH1 0xC0 MLOAD SWAP3 PUSH2 0x1E0D JUMPI JUMPDEST POP POP DUP2 PUSH1 0x1 SHL SWAP2 PUSH1 0x0 NOT SWAP1 DUP7 SHL SHR NOT AND OR DUP2 SSTORE JUMPDEST PUSH1 0x1 PUSH1 0xA0 MSTORE PUSH1 0xA0 MLOAD DUP2 ADD DUP7 DUP9 ADD MLOAD DUP1 MLOAD SWAP1 DUP7 DUP3 GT PUSH2 0x12FC JUMPI DUP2 SWAP1 PUSH2 0x19E2 DUP3 PUSH2 0x886 DUP7 SLOAD PUSH2 0x2CA3 JUMP JUMPDEST DUP10 SWAP1 PUSH1 0x1 DUP15 DUP5 GT EQ PUSH2 0x1DA2 JUMPI PUSH1 0xC0 MLOAD SWAP3 PUSH2 0x1D97 JUMPI JUMPDEST POP POP DUP2 PUSH1 0xA0 MLOAD SHL SWAP2 PUSH1 0x0 NOT SWAP1 DUP8 SHL SHR NOT AND OR SWAP1 SSTORE JUMPDEST PUSH1 0x2 DUP2 ADD PUSH1 0x40 DUP9 ADD MLOAD DUP1 MLOAD SWAP1 DUP7 DUP3 GT PUSH2 0x12FC JUMPI DUP2 SWAP1 PUSH2 0x1A2F DUP3 PUSH2 0x886 DUP7 SLOAD PUSH2 0x2CA3 JUMP JUMPDEST DUP10 SWAP1 PUSH1 0x1 DUP15 DUP5 GT EQ PUSH2 0x1D2C JUMPI PUSH1 0xC0 MLOAD SWAP3 PUSH2 0x1D21 JUMPI JUMPDEST POP POP DUP2 PUSH1 0xA0 MLOAD SHL SWAP2 PUSH1 0x0 NOT SWAP1 DUP8 SHL SHR NOT AND OR SWAP1 SSTORE JUMPDEST DUP3 DUP2 ADD PUSH1 0x60 DUP9 ADD MLOAD DUP1 MLOAD SWAP1 DUP7 DUP3 GT PUSH2 0x12FC JUMPI DUP2 SWAP1 PUSH2 0x1A7B DUP3 PUSH2 0x886 DUP7 SLOAD PUSH2 0x2CA3 JUMP JUMPDEST DUP10 SWAP1 PUSH1 0x1 DUP15 DUP5 GT EQ PUSH2 0x1CB6 JUMPI PUSH1 0xC0 MLOAD SWAP3 PUSH2 0x1CAB JUMPI JUMPDEST POP POP DUP2 PUSH1 0xA0 MLOAD SHL SWAP2 PUSH1 0x0 NOT SWAP1 DUP8 SHL SHR NOT AND OR SWAP1 SSTORE JUMPDEST DUP2 DUP2 ADD PUSH1 0x80 DUP9 ADD MLOAD DUP1 MLOAD SWAP1 DUP7 DUP3 GT PUSH2 0x12FC JUMPI PUSH2 0x1AC5 DUP3 PUSH2 0x1109 DUP6 SLOAD PUSH2 0x2CA3 JUMP JUMPDEST DUP9 SWAP1 PUSH1 0x1 DUP14 DUP5 GT EQ PUSH2 0x1C39 JUMPI SWAP2 DUP1 SWAP2 PUSH1 0x5 SWAP6 SWAP5 SWAP4 PUSH1 0xC0 MLOAD SWAP3 PUSH2 0x1C2E JUMPI JUMPDEST POP POP DUP2 PUSH1 0xA0 MLOAD SHL SWAP2 PUSH1 0x0 NOT SWAP1 DUP9 SHL SHR NOT AND OR SWAP1 SSTORE JUMPDEST ADD SWAP4 PUSH1 0xA0 DUP8 ADD MLOAD SWAP2 DUP3 MLOAD SWAP5 DUP6 GT PUSH2 0x126A JUMPI POP POP PUSH2 0x1B18 DUP4 PUSH2 0x886 DUP7 SLOAD PUSH2 0x2CA3 JUMP JUMPDEST PUSH1 0xC0 MLOAD POP DUP5 SWAP8 DUP4 GT PUSH1 0x1 EQ PUSH2 0x1BA0 JUMPI SWAP1 PUSH32 0xCFA38AD22E928CEDE6A19793C7DA9BAD051DDD68EAABFC0A35500E381A60CB39 SWAP7 SWAP8 DUP4 SWAP3 PUSH1 0xC0 MLOAD SWAP4 PUSH2 0x1B95 JUMPI JUMPDEST POP POP DUP3 PUSH1 0xA0 MLOAD SHL SWAP3 PUSH1 0x0 NOT SWAP2 SHL SHR NOT AND OR SWAP1 SSTORE JUMPDEST DUP4 PUSH1 0xC0 MLOAD MSTORE PUSH1 0x8 DUP2 MSTORE PUSH1 0x40 PUSH1 0xC0 MLOAD KECCAK256 PUSH1 0xFF NOT DUP2 SLOAD AND SWAP1 SSTORE PUSH2 0x11C8 PUSH1 0x40 MLOAD SWAP3 DUP3 DUP5 SWAP4 DUP5 MSTORE DUP4 ADD SWAP1 PUSH2 0x29EC JUMP JUMPDEST ADD MLOAD SWAP2 POP CODESIZE DUP1 PUSH2 0x1B56 JUMP JUMPDEST SWAP1 PUSH1 0x1F NOT DUP4 AND SWAP8 DUP5 PUSH1 0xC0 MLOAD MSTORE DUP6 PUSH1 0xC0 MLOAD KECCAK256 SWAP3 PUSH1 0xC0 MLOAD JUMPDEST DUP11 DUP2 LT PUSH2 0x1C16 JUMPI POP DUP5 PUSH32 0xCFA38AD22E928CEDE6A19793C7DA9BAD051DDD68EAABFC0A35500E381A60CB39 SWAP10 SWAP11 LT PUSH2 0x1BFC JUMPI JUMPDEST POP POP POP POP PUSH1 0xA0 MLOAD SWAP1 PUSH1 0xA0 MLOAD SHL ADD SWAP1 SSTORE PUSH2 0x1B6A JUMP JUMPDEST ADD MLOAD SWAP1 PUSH1 0xF8 DUP5 PUSH1 0x0 NOT SWAP3 SHL AND SHR NOT AND SWAP1 SSTORE CODESIZE DUP1 DUP1 DUP1 PUSH2 0x1BE8 JUMP JUMPDEST SWAP2 SWAP4 DUP8 DUP1 SWAP2 DUP7 DUP5 ADD MLOAD DUP2 SSTORE PUSH1 0xA0 MLOAD ADD SWAP6 ADD SWAP3 ADD PUSH2 0x1BB6 JUMP JUMPDEST ADD MLOAD SWAP1 POP CODESIZE DUP1 PUSH2 0x1AE2 JUMP JUMPDEST SWAP1 PUSH1 0x1F NOT DUP4 AND SWAP2 DUP5 PUSH1 0xC0 MLOAD MSTORE DUP11 PUSH1 0xC0 MLOAD KECCAK256 SWAP3 PUSH1 0xC0 MLOAD JUMPDEST DUP13 DUP3 DUP3 LT PUSH2 0x1C94 JUMPI POP POP SWAP1 DUP5 PUSH1 0x5 SWAP8 SWAP7 SWAP6 SWAP5 SWAP4 SWAP3 LT PUSH2 0x1C7C JUMPI JUMPDEST POP POP POP PUSH1 0xA0 MLOAD SWAP1 PUSH1 0xA0 MLOAD SHL ADD SWAP1 SSTORE PUSH2 0x1AF7 JUMP JUMPDEST ADD MLOAD PUSH1 0x0 NOT DUP4 DUP10 SHL PUSH1 0xF8 AND SHR NOT AND SWAP1 SSTORE CODESIZE DUP1 DUP1 PUSH2 0x1C69 JUMP JUMPDEST DUP5 SWAP6 DUP2 SWAP3 SWAP6 DUP6 ADD MLOAD DUP2 SSTORE PUSH1 0xA0 MLOAD ADD SWAP6 ADD SWAP4 ADD PUSH2 0x1C4F JUMP JUMPDEST ADD MLOAD SWAP1 POP CODESIZE DUP1 PUSH2 0x1A90 JUMP JUMPDEST PUSH1 0xC0 DUP1 MLOAD DUP7 SWAP1 MSTORE MLOAD DUP12 DUP2 KECCAK256 SWAP4 POP DUP5 SWAP1 PUSH1 0x1F NOT DUP3 AND SWAP1 JUMPDEST DUP14 DUP3 DUP3 LT PUSH2 0x1D07 JUMPI POP POP LT PUSH2 0x1CEF JUMPI JUMPDEST POP POP POP PUSH1 0xA0 MLOAD SWAP1 PUSH1 0xA0 MLOAD SHL ADD SWAP1 SSTORE PUSH2 0x1AA5 JUMP JUMPDEST ADD MLOAD PUSH1 0x0 NOT DUP4 DUP9 SHL PUSH1 0xF8 AND SHR NOT AND SWAP1 SSTORE CODESIZE DUP1 DUP1 PUSH2 0x1CDC JUMP JUMPDEST DUP5 DUP7 ADD MLOAD DUP8 SSTORE PUSH1 0xA0 MLOAD SWAP1 SWAP7 ADD SWAP6 SWAP5 DUP6 ADD SWAP5 DUP8 SWAP4 POP ADD PUSH2 0x1CCC JUMP JUMPDEST ADD MLOAD SWAP1 POP CODESIZE DUP1 PUSH2 0x1A44 JUMP JUMPDEST PUSH1 0xC0 DUP1 MLOAD DUP7 SWAP1 MSTORE MLOAD DUP12 DUP2 KECCAK256 SWAP4 POP DUP5 SWAP1 PUSH1 0x1F NOT DUP3 AND SWAP1 JUMPDEST DUP14 DUP3 DUP3 LT PUSH2 0x1D7D JUMPI POP POP LT PUSH2 0x1D65 JUMPI JUMPDEST POP POP POP PUSH1 0xA0 MLOAD SWAP1 PUSH1 0xA0 MLOAD SHL ADD SWAP1 SSTORE PUSH2 0x1A59 JUMP JUMPDEST ADD MLOAD PUSH1 0x0 NOT DUP4 DUP9 SHL PUSH1 0xF8 AND SHR NOT AND SWAP1 SSTORE CODESIZE DUP1 DUP1 PUSH2 0x1D52 JUMP JUMPDEST DUP5 DUP7 ADD MLOAD DUP8 SSTORE PUSH1 0xA0 MLOAD SWAP1 SWAP7 ADD SWAP6 SWAP5 DUP6 ADD SWAP5 DUP8 SWAP4 POP ADD PUSH2 0x1D42 JUMP JUMPDEST ADD MLOAD SWAP1 POP CODESIZE DUP1 PUSH2 0x19F7 JUMP JUMPDEST PUSH1 0xC0 DUP1 MLOAD DUP7 SWAP1 MSTORE MLOAD DUP12 DUP2 KECCAK256 SWAP4 POP DUP5 SWAP1 PUSH1 0x1F NOT DUP3 AND SWAP1 JUMPDEST DUP14 DUP3 DUP3 LT PUSH2 0x1DF3 JUMPI POP POP LT PUSH2 0x1DDB JUMPI JUMPDEST POP POP POP PUSH1 0xA0 MLOAD SWAP1 PUSH1 0xA0 MLOAD SHL ADD SWAP1 SSTORE PUSH2 0x1A0C JUMP JUMPDEST ADD MLOAD PUSH1 0x0 NOT DUP4 DUP9 SHL PUSH1 0xF8 AND SHR NOT AND SWAP1 SSTORE CODESIZE DUP1 DUP1 PUSH2 0x1DC8 JUMP JUMPDEST DUP5 DUP7 ADD MLOAD DUP8 SSTORE PUSH1 0xA0 MLOAD SWAP1 SWAP7 ADD SWAP6 SWAP5 DUP6 ADD SWAP5 DUP8 SWAP4 POP ADD PUSH2 0x1DB8 JUMP JUMPDEST ADD MLOAD SWAP1 POP CODESIZE DUP1 PUSH2 0x19A6 JUMP JUMPDEST PUSH1 0xC0 DUP1 MLOAD DUP7 SWAP1 MSTORE MLOAD DUP11 DUP2 KECCAK256 SWAP4 POP PUSH1 0x1F NOT DUP6 AND SWAP1 JUMPDEST DUP12 DUP3 DUP3 LT PUSH2 0x1E69 JUMPI POP POP SWAP1 DUP5 PUSH1 0x1 SWAP6 SWAP5 SWAP4 SWAP3 LT PUSH2 0x1E51 JUMPI JUMPDEST POP POP POP DUP2 SHL ADD DUP2 SSTORE PUSH2 0x19BA JUMP JUMPDEST ADD MLOAD PUSH1 0x0 NOT DUP4 DUP9 SHL PUSH1 0xF8 AND SHR NOT AND SWAP1 SSTORE CODESIZE DUP1 DUP1 PUSH2 0x1E44 JUMP JUMPDEST PUSH1 0x1 DUP6 SWAP7 DUP3 SWAP4 SWAP7 DUP7 ADD MLOAD DUP2 SSTORE ADD SWAP6 ADD SWAP4 ADD PUSH2 0x1E2C JUMP JUMPDEST DUP6 PUSH1 0x11 DUP12 PUSH4 0x4E487B71 PUSH1 0xE0 SHL PUSH1 0x0 MSTORE MSTORE PUSH1 0x0 REVERT JUMPDEST DUP6 PUSH1 0x41 DUP12 PUSH4 0x4E487B71 PUSH1 0xE0 SHL PUSH1 0x0 MSTORE MSTORE PUSH1 0x0 REVERT JUMPDEST PUSH1 0x40 MLOAD PUSH3 0x461BCD PUSH1 0xE5 SHL DUP2 MSTORE DUP1 DUP10 ADD DUP7 SWAP1 MSTORE PUSH1 0x23 DUP2 DUP7 ADD MSTORE PUSH32 0x4E6F2077686974656C697374656420737461626C65636F696E20617661696C61 PUSH1 0x44 DUP3 ADD MSTORE PUSH3 0x626C65 PUSH1 0xE8 SHL PUSH1 0x64 DUP3 ADD MSTORE PUSH1 0x84 SWAP1 REVERT JUMPDEST PUSH2 0x1F0D SWAP2 POP DUP7 RETURNDATASIZE DUP9 GT PUSH2 0x672 JUMPI PUSH2 0x664 DUP2 DUP4 PUSH2 0x2A9E JUMP JUMPDEST CODESIZE PUSH2 0x18BF JUMP JUMPDEST DUP3 DUP2 SWAP4 SWAP3 POP RETURNDATASIZE DUP4 GT PUSH2 0x1F3B JUMPI JUMPDEST PUSH2 0x1F2A DUP2 DUP4 PUSH2 0x2A9E JUMP JUMPDEST DUP2 ADD SUB SLT PUSH2 0x177 JUMPI DUP7 SWAP1 MLOAD CODESIZE PUSH2 0x1895 JUMP JUMPDEST POP RETURNDATASIZE PUSH2 0x1F20 JUMP JUMPDEST SWAP6 POP POP POP POP POP POP PUSH2 0x1F8B JUMPI PUSH1 0xC0 MLOAD DUP1 MSTORE PUSH1 0x9 DUP4 MSTORE PUSH1 0x40 MLOAD PUSH1 0x0 DUP1 DUP3 MSTORE SWAP1 CALLER SWAP1 PUSH32 0x785BFD9070B1FA5B19BFA2AC4637328DF950F5E0ADAFE5873360DE4E23B6D8A0 SWAP1 DUP7 SWAP1 LOG3 PUSH2 0x1958 JUMP JUMPDEST PUSH1 0x40 MLOAD PUSH3 0x461BCD PUSH1 0xE5 SHL DUP2 MSTORE DUP1 DUP8 ADD DUP5 SWAP1 MSTORE PUSH1 0x18 DUP2 DUP5 ADD MSTORE PUSH32 0x496E636F7272656374204554482066656520616D6F756E740000000000000000 PUSH1 0x44 DUP3 ADD MSTORE PUSH1 0x64 SWAP1 REVERT JUMPDEST POP POP POP POP POP POP POP POP PUSH2 0x1958 JUMP JUMPDEST SWAP4 SWAP5 SWAP3 SWAP6 POP POP POP DUP2 DUP2 RETURNDATASIZE DUP4 GT PUSH2 0x2014 JUMPI JUMPDEST PUSH2 0x1FF6 DUP2 DUP4 PUSH2 0x2A9E JUMP JUMPDEST DUP2 ADD SUB SLT PUSH2 0x177 JUMPI MLOAD SWAP1 DUP5 DUP3 AND DUP3 SUB PUSH2 0x177 JUMPI DUP12 SWAP3 DUP6 DUP11 SWAP4 CODESIZE PUSH2 0x1852 JUMP JUMPDEST POP RETURNDATASIZE PUSH2 0x1FEC JUMP JUMPDEST PUSH2 0x2032 SWAP2 POP DUP3 RETURNDATASIZE DUP5 GT PUSH2 0x672 JUMPI PUSH2 0x664 DUP2 DUP4 PUSH2 0x2A9E JUMP JUMPDEST CODESIZE PUSH2 0x1827 JUMP JUMPDEST PUSH2 0x2050 SWAP2 SWAP5 POP DUP3 RETURNDATASIZE DUP5 GT PUSH2 0x157B JUMPI PUSH2 0x156D DUP2 DUP4 PUSH2 0x2A9E JUMP JUMPDEST SWAP3 CODESIZE PUSH2 0x1806 JUMP JUMPDEST SWAP1 SWAP6 POP DUP9 DUP2 DUP2 RETURNDATASIZE DUP4 GT PUSH2 0x207F JUMPI JUMPDEST PUSH2 0x206F DUP2 DUP4 PUSH2 0x2A9E JUMP JUMPDEST DUP2 ADD SUB SLT PUSH2 0x177 JUMPI MLOAD SWAP5 CODESIZE PUSH2 0x17DF JUMP JUMPDEST POP RETURNDATASIZE PUSH2 0x2065 JUMP JUMPDEST DUP1 SWAP3 POP DUP10 DUP1 SWAP3 POP RETURNDATASIZE DUP4 GT PUSH2 0x20B9 JUMPI JUMPDEST PUSH2 0x209F DUP2 DUP4 PUSH2 0x2A9E JUMP JUMPDEST DUP2 ADD SUB SLT PUSH2 0x177 JUMPI MLOAD DUP4 DUP2 AND DUP2 SUB PUSH2 0x177 JUMPI DUP4 SWAP1 CODESIZE PUSH2 0x17AF JUMP JUMPDEST POP RETURNDATASIZE PUSH2 0x2095 JUMP JUMPDEST PUSH2 0x20D7 SWAP2 POP DUP3 RETURNDATASIZE DUP5 GT PUSH2 0x672 JUMPI PUSH2 0x664 DUP2 DUP4 PUSH2 0x2A9E JUMP JUMPDEST CODESIZE PUSH2 0x1788 JUMP JUMPDEST PUSH1 0x40 MLOAD PUSH3 0x461BCD PUSH1 0xE5 SHL DUP2 MSTORE DUP1 DUP12 ADD DUP9 SWAP1 MSTORE PUSH1 0x2B DUP2 DUP9 ADD MSTORE PUSH32 0x536F6E67206E6F742072656C65617365642C20757064617465206D6574616461 PUSH1 0x44 DUP3 ADD MSTORE PUSH11 0x7461206469726563746C79 PUSH1 0xA8 SHL PUSH1 0x64 DUP3 ADD MSTORE PUSH1 0x84 SWAP1 REVERT JUMPDEST PUSH2 0x214B SWAP2 POP DUP9 RETURNDATASIZE DUP11 GT PUSH2 0x157B JUMPI PUSH2 0x156D DUP2 DUP4 PUSH2 0x2A9E JUMP JUMPDEST CODESIZE PUSH2 0x1761 JUMP JUMPDEST PUSH1 0x40 MLOAD PUSH3 0x461BCD PUSH1 0xE5 SHL DUP2 MSTORE DUP1 DUP12 ADD DUP9 SWAP1 MSTORE PUSH1 0x2A PUSH1 0x24 DUP3 ADD MSTORE PUSH32 0x4F6E6C79207772617070656420736F6E67206F776E65722063616E2072657175 PUSH1 0x44 DUP3 ADD MSTORE PUSH10 0x65737420757064617465 PUSH1 0xB0 SHL PUSH1 0x64 DUP3 ADD MSTORE PUSH1 0x84 SWAP1 REVERT JUMPDEST PUSH2 0x21BF SWAP2 POP DUP9 RETURNDATASIZE DUP11 GT PUSH2 0x672 JUMPI PUSH2 0x664 DUP2 DUP4 PUSH2 0x2A9E JUMP JUMPDEST CODESIZE PUSH2 0x1727 JUMP JUMPDEST PUSH2 0x21DC SWAP2 POP DUP7 RETURNDATASIZE DUP9 GT PUSH2 0x672 JUMPI PUSH2 0x664 DUP2 DUP4 PUSH2 0x2A9E JUMP JUMPDEST CODESIZE PUSH2 0x16DB JUMP JUMPDEST PUSH2 0x21F9 SWAP2 POP DUP3 RETURNDATASIZE DUP5 GT PUSH2 0x672 JUMPI PUSH2 0x664 DUP2 DUP4 PUSH2 0x2A9E JUMP JUMPDEST CODESIZE PUSH2 0x16B4 JUMP JUMPDEST POP CALLVALUE PUSH2 0x177 JUMPI PUSH1 0x40 CALLDATASIZE PUSH1 0x3 NOT ADD SLT PUSH2 0x177 JUMPI PUSH2 0x2219 PUSH2 0x2989 JUMP JUMPDEST PUSH1 0x1 PUSH1 0x1 PUSH1 0xA0 SHL SUB PUSH1 0x24 CALLDATALOAD DUP2 DUP2 AND SWAP4 SWAP3 SWAP1 DUP5 SWAP1 SUB PUSH2 0x177 JUMPI PUSH2 0x2239 PUSH2 0x2C27 JUMP JUMPDEST PUSH1 0x2 PUSH1 0x1 SLOAD EQ PUSH2 0x23AA JUMPI PUSH1 0x2 PUSH1 0x1 SSTORE AND SWAP1 DUP2 PUSH1 0xC0 MLOAD MSTORE PUSH1 0x20 SWAP1 PUSH1 0x9 DUP3 MSTORE PUSH1 0x40 PUSH1 0xC0 MLOAD KECCAK256 SLOAD SWAP1 DUP2 ISZERO PUSH2 0x2370 JUMPI PUSH1 0xC0 DUP1 MLOAD DUP6 SWAP1 MSTORE PUSH1 0x9 DUP5 MSTORE MLOAD PUSH1 0x40 DUP2 KECCAK256 SSTORE DUP4 PUSH2 0x2302 JUMPI PUSH1 0xC0 MLOAD DUP1 DUP1 DUP1 DUP6 DUP10 GAS CALL PUSH2 0x228C PUSH2 0x3006 JUMP JUMPDEST POP ISZERO PUSH2 0x22C8 JUMPI POP SWAP1 PUSH32 0x5E110F8BC8A20B65DCC87F224BDF1CC039346E267118BAE2739847F07321FFA8 SWAP2 JUMPDEST PUSH1 0x40 MLOAD SWAP1 DUP2 MSTORE LOG3 PUSH1 0x1 DUP1 SSTORE PUSH1 0xC0 MLOAD DUP1 RETURN JUMPDEST PUSH1 0x40 MLOAD PUSH3 0x461BCD PUSH1 0xE5 SHL DUP2 MSTORE SWAP1 DUP2 ADD DUP4 SWAP1 MSTORE PUSH1 0x13 PUSH1 0x24 DUP3 ADD MSTORE PUSH19 0x115512081D1C985B9CD9995C8819985A5B1959 PUSH1 0x6A SHL PUSH1 0x44 DUP3 ADD MSTORE PUSH1 0x64 SWAP1 REVERT JUMPDEST PUSH1 0x40 MLOAD SWAP1 PUSH4 0xA9059CBB PUSH1 0xE0 SHL DUP5 DUP4 ADD MSTORE DUP6 PUSH1 0x24 DUP4 ADD MSTORE DUP3 PUSH1 0x44 DUP4 ADD MSTORE PUSH1 0x44 DUP3 MSTORE PUSH1 0x80 DUP3 ADD SWAP1 DUP3 DUP3 LT PUSH1 0x1 PUSH1 0x1 PUSH1 0x40 SHL SUB DUP4 GT OR PUSH2 0xB12 JUMPI POP PUSH32 0x5E110F8BC8A20B65DCC87F224BDF1CC039346E267118BAE2739847F07321FFA8 SWAP4 SWAP3 SWAP2 PUSH2 0x236B SWAP2 PUSH1 0x40 MSTORE DUP6 PUSH2 0x3036 JUMP JUMPDEST PUSH2 0x22B7 JUMP JUMPDEST PUSH1 0x40 MLOAD PUSH3 0x461BCD PUSH1 0xE5 SHL DUP2 MSTORE SWAP1 DUP2 ADD DUP4 SWAP1 MSTORE PUSH1 0x13 PUSH1 0x24 DUP3 ADD MSTORE PUSH19 0x4E6F206665657320746F207769746864726177 PUSH1 0x68 SHL PUSH1 0x44 DUP3 ADD MSTORE PUSH1 0x64 SWAP1 REVERT JUMPDEST PUSH1 0x40 MLOAD PUSH4 0x3EE5AEB5 PUSH1 0xE0 SHL DUP2 MSTORE DUP4 SWAP1 REVERT JUMPDEST POP CALLVALUE PUSH2 0x177 JUMPI PUSH1 0x20 CALLDATASIZE PUSH1 0x3 NOT ADD SLT PUSH2 0x177 JUMPI PUSH2 0x2B5 SWAP1 PUSH2 0x23D9 PUSH2 0x2989 JUMP JUMPDEST PUSH2 0x23E1 PUSH2 0x2C53 JUMP JUMPDEST POP PUSH1 0x1 DUP1 PUSH1 0xA0 SHL SUB AND PUSH1 0xC0 MLOAD MSTORE PUSH1 0x6 PUSH1 0x20 MSTORE PUSH1 0x5 PUSH2 0x29C PUSH1 0x40 PUSH1 0xC0 MLOAD KECCAK256 PUSH2 0x225 PUSH2 0x287 PUSH1 0x40 MLOAD SWAP6 PUSH2 0x214 DUP8 PUSH2 0x2A6D JUMP JUMPDEST POP PUSH1 0x20 DUP1 PUSH1 0x3 NOT CALLDATASIZE ADD SLT PUSH2 0x177 JUMPI PUSH2 0x2427 PUSH2 0x2989 JUMP JUMPDEST PUSH1 0x2 SLOAD PUSH1 0x40 MLOAD PUSH4 0x670D2969 PUSH1 0xE1 SHL DUP2 MSTORE SWAP2 SWAP4 SWAP2 PUSH1 0x1 PUSH1 0x1 PUSH1 0xA0 SHL SUB SWAP2 DUP5 SWAP1 DUP3 SWAP1 DUP6 SWAP1 DUP3 SWAP1 DUP7 AND GAS STATICCALL SWAP1 DUP2 ISZERO PUSH2 0x679 JUMPI DUP3 SWAP2 DUP6 SWAP2 PUSH1 0xC0 MLOAD SWAP2 PUSH2 0x2763 JUMPI JUMPDEST POP DUP5 PUSH1 0x40 MLOAD DUP1 SWAP5 DUP2 SWAP4 PUSH4 0x65BB98B5 PUSH1 0xE0 SHL DUP4 MSTORE AND GAS STATICCALL DUP1 ISZERO PUSH2 0x679 JUMPI DUP3 DUP6 SWAP2 DUP2 SWAP4 PUSH1 0xC0 MLOAD SWAP2 PUSH2 0x2746 JUMPI JUMPDEST POP AND SWAP6 DUP7 PUSH1 0x1 PUSH1 0x1 PUSH1 0x60 SHL SUB PUSH1 0xA0 SHL PUSH1 0x3 SLOAD AND OR PUSH1 0x3 SSTORE PUSH1 0x24 PUSH1 0x40 MLOAD DUP1 SWAP5 DUP2 SWAP4 PUSH4 0x3AA690E7 PUSH1 0xE0 SHL DUP4 MSTORE AND SWAP9 DUP10 DUP9 DUP4 ADD MSTORE GAS STATICCALL SWAP1 DUP2 ISZERO PUSH2 0x679 JUMPI DUP3 SWAP2 DUP6 SWAP2 PUSH1 0xC0 MLOAD SWAP2 PUSH2 0x2729 JUMPI JUMPDEST POP DUP5 PUSH1 0x40 MLOAD DUP1 SWAP5 DUP2 SWAP4 PUSH4 0x8DA5CB5B PUSH1 0xE0 SHL DUP4 MSTORE AND GAS STATICCALL SWAP1 DUP2 ISZERO PUSH2 0x679 JUMPI PUSH1 0xC0 MLOAD SWAP2 PUSH2 0x270C JUMPI JUMPDEST POP AND CALLER SUB PUSH2 0x26BE JUMPI DUP3 PUSH1 0xC0 MLOAD MSTORE PUSH1 0x8 DUP3 MSTORE PUSH1 0xFF PUSH1 0x40 PUSH1 0xC0 MLOAD KECCAK256 SLOAD AND PUSH2 0x267C JUMPI PUSH32 0x4288F171F419B66095D6E026090ED813669EA5A62CFE4416A47E75549E478866 SWAP2 PUSH2 0x11C8 PUSH1 0xC0 SWAP3 DUP6 DUP5 MLOAD MSTORE PUSH1 0x7 DUP4 MSTORE PUSH1 0x40 DUP5 MLOAD KECCAK256 PUSH1 0x6 DUP5 MSTORE PUSH1 0x40 DUP6 MLOAD KECCAK256 DUP2 DUP2 SUB PUSH2 0x261E JUMPI JUMPDEST POP POP DUP6 DUP5 MLOAD MSTORE PUSH1 0x7 DUP4 MSTORE PUSH2 0x2576 PUSH1 0x40 DUP6 MLOAD KECCAK256 PUSH2 0x2F2B JUMP JUMPDEST DUP6 DUP5 MLOAD MSTORE PUSH1 0x8 DUP4 MSTORE PUSH1 0x40 DUP5 MLOAD KECCAK256 PUSH1 0x1 PUSH1 0xFF NOT DUP3 SLOAD AND OR SWAP1 SSTORE PUSH1 0x6 DUP4 MSTORE PUSH1 0x5 PUSH1 0x40 DUP6 MLOAD KECCAK256 PUSH1 0x40 MLOAD SWAP6 DUP6 DUP8 SWAP7 DUP8 MSTORE DUP7 ADD MSTORE PUSH2 0x260E PUSH2 0x25B5 PUSH1 0xE0 DUP8 ADD DUP4 PUSH2 0x2F70 JUMP JUMPDEST SWAP4 PUSH2 0x25FC PUSH2 0x25E9 PUSH2 0x25D6 PUSH1 0x1F NOT SWAP8 DUP9 DUP12 DUP3 SUB ADD PUSH1 0x40 DUP13 ADD MSTORE PUSH1 0x1 DUP8 ADD PUSH2 0x2F70 JUMP JUMPDEST DUP8 DUP11 DUP3 SUB ADD PUSH1 0x60 DUP12 ADD MSTORE PUSH1 0x2 DUP7 ADD PUSH2 0x2F70 JUMP JUMPDEST DUP7 DUP10 DUP3 SUB ADD PUSH1 0x80 DUP11 ADD MSTORE PUSH1 0x3 DUP6 ADD PUSH2 0x2F70 JUMP JUMPDEST SWAP1 DUP6 DUP9 DUP4 SUB ADD PUSH1 0xA0 DUP10 ADD MSTORE DUP4 ADD PUSH2 0x2F70 JUMP JUMPDEST SWAP3 DUP6 DUP5 SUB ADD PUSH1 0xC0 DUP7 ADD MSTORE ADD PUSH2 0x2F70 JUMP JUMPDEST PUSH1 0x5 DUP1 DUP4 PUSH2 0x262F PUSH2 0x2675 SWAP6 DUP6 PUSH2 0x2E0A JUMP JUMPDEST PUSH2 0x263F PUSH1 0x1 DUP3 ADD PUSH1 0x1 DUP7 ADD PUSH2 0x2E0A JUMP JUMPDEST PUSH2 0x264F PUSH1 0x2 DUP3 ADD PUSH1 0x2 DUP7 ADD PUSH2 0x2E0A JUMP JUMPDEST PUSH2 0x265F PUSH1 0x3 DUP3 ADD PUSH1 0x3 DUP7 ADD PUSH2 0x2E0A JUMP JUMPDEST PUSH2 0x266D DUP7 DUP3 ADD DUP8 DUP7 ADD PUSH2 0x2E0A JUMP JUMPDEST ADD SWAP2 ADD PUSH2 0x2E0A JUMP JUMPDEST CODESIZE DUP1 PUSH2 0x255F JUMP JUMPDEST PUSH1 0x64 SWAP2 PUSH1 0x40 MLOAD SWAP2 PUSH3 0x461BCD PUSH1 0xE5 SHL DUP4 MSTORE DUP3 ADD MSTORE PUSH1 0x1A PUSH1 0x24 DUP3 ADD MSTORE PUSH32 0x4E6F2070656E64696E67206D6574616461746120757064617465000000000000 PUSH1 0x44 DUP3 ADD MSTORE REVERT JUMPDEST PUSH1 0x84 SWAP2 PUSH1 0x40 MLOAD SWAP2 PUSH3 0x461BCD PUSH1 0xE5 SHL DUP4 MSTORE DUP3 ADD MSTORE PUSH1 0x23 PUSH1 0x24 DUP3 ADD MSTORE PUSH32 0x4F6E6C79206469737472696275746F722063616E20636F6E6669726D20757064 PUSH1 0x44 DUP3 ADD MSTORE PUSH3 0x617465 PUSH1 0xE8 SHL PUSH1 0x64 DUP3 ADD MSTORE REVERT JUMPDEST PUSH2 0x2723 SWAP2 POP DUP5 RETURNDATASIZE DUP7 GT PUSH2 0x672 JUMPI PUSH2 0x664 DUP2 DUP4 PUSH2 0x2A9E JUMP JUMPDEST CODESIZE PUSH2 0x24FA JUMP JUMPDEST PUSH2 0x2740 SWAP2 POP DUP3 RETURNDATASIZE DUP5 GT PUSH2 0x672 JUMPI PUSH2 0x664 DUP2 DUP4 PUSH2 0x2A9E JUMP JUMPDEST CODESIZE PUSH2 0x24D4 JUMP JUMPDEST PUSH2 0x275D SWAP2 POP DUP4 RETURNDATASIZE DUP6 GT PUSH2 0x672 JUMPI PUSH2 0x664 DUP2 DUP4 PUSH2 0x2A9E JUMP JUMPDEST CODESIZE PUSH2 0x248D JUMP JUMPDEST PUSH2 0x277A SWAP2 POP DUP3 RETURNDATASIZE DUP5 GT PUSH2 0x672 JUMPI PUSH2 0x664 DUP2 DUP4 PUSH2 0x2A9E JUMP JUMPDEST CODESIZE PUSH2 0x2463 JUMP JUMPDEST SWAP1 POP CALLVALUE PUSH2 0x177 JUMPI PUSH1 0x40 CALLDATASIZE PUSH1 0x3 NOT ADD SLT PUSH2 0x177 JUMPI PUSH2 0x279B PUSH2 0x2989 JUMP JUMPDEST SWAP2 PUSH1 0x24 CALLDATALOAD SWAP1 PUSH1 0x1 DUP1 PUSH1 0xA0 SHL SUB DUP1 SWAP5 AND SWAP3 DUP4 PUSH1 0xC0 MLOAD MSTORE PUSH1 0x20 SWAP4 PUSH1 0x6 DUP6 MSTORE PUSH1 0x5 PUSH2 0x2850 PUSH1 0x40 PUSH1 0xC0 MLOAD KECCAK256 PUSH2 0x27CB DUP6 PUSH2 0x2A6D JUMP JUMPDEST PUSH1 0x40 MLOAD PUSH2 0x27DC DUP2 PUSH2 0x225 DUP2 DUP6 PUSH2 0x2F70 JUMP JUMPDEST DUP6 MSTORE PUSH1 0x40 MLOAD PUSH2 0x27F2 DUP2 PUSH2 0x225 DUP2 PUSH1 0x1 DUP7 ADD PUSH2 0x2F70 JUMP JUMPDEST DUP9 DUP7 ADD MSTORE PUSH1 0x40 MLOAD PUSH2 0x280A DUP2 PUSH2 0x225 DUP2 PUSH1 0x2 DUP7 ADD PUSH2 0x2F70 JUMP JUMPDEST PUSH1 0x40 DUP7 ADD MSTORE PUSH1 0x40 MLOAD PUSH2 0x2823 DUP2 PUSH2 0x225 DUP2 PUSH1 0x3 DUP7 ADD PUSH2 0x2F70 JUMP JUMPDEST PUSH1 0x60 DUP7 ADD MSTORE PUSH1 0x40 MLOAD PUSH2 0x283B DUP2 PUSH2 0x225 DUP2 DUP11 DUP7 ADD PUSH2 0x2F70 JUMP JUMPDEST PUSH1 0x80 DUP7 ADD MSTORE PUSH2 0x225 PUSH1 0x40 MLOAD DUP1 SWAP5 DUP2 SWAP4 ADD PUSH2 0x2F70 JUMP JUMPDEST PUSH1 0xA0 DUP4 ADD MSTORE PUSH1 0x3 DUP5 LT ISZERO PUSH2 0x2939 JUMPI PUSH2 0x2886 PUSH1 0x60 SWAP7 PUSH1 0x2 SLOAD AND SWAP3 PUSH1 0x40 MLOAD SWAP8 DUP9 SWAP6 PUSH4 0x2FDA23B7 PUSH1 0xE0 SHL DUP8 MSTORE DUP7 ADD MSTORE PUSH1 0x64 DUP6 ADD SWAP1 PUSH2 0x29EC JUMP JUMPDEST SWAP4 PUSH1 0x24 DUP5 ADD MSTORE PUSH1 0x44 DUP4 ADD MSTORE DUP2 DUP1 PUSH1 0xC0 MLOAD SWAP5 SUB SWAP2 GAS STATICCALL SWAP2 DUP3 ISZERO PUSH2 0x679 JUMPI PUSH1 0xC0 MLOAD SWAP3 PUSH2 0x28C0 JUMPI JUMPDEST POP PUSH2 0x2B5 PUSH1 0x40 MLOAD SWAP3 DUP3 DUP5 SWAP4 DUP5 MSTORE DUP4 ADD SWAP1 PUSH2 0x29C7 JUMP JUMPDEST SWAP1 SWAP2 POP RETURNDATASIZE DUP1 PUSH1 0xC0 MLOAD DUP4 RETURNDATACOPY PUSH2 0x28D4 DUP2 DUP4 PUSH2 0x2A9E JUMP JUMPDEST DUP2 ADD SWAP1 DUP3 DUP2 DUP4 SUB SLT PUSH2 0x177 JUMPI DUP1 MLOAD SWAP1 PUSH1 0x1 PUSH1 0x1 PUSH1 0x40 SHL SUB DUP3 GT PUSH2 0x177 JUMPI ADD DUP2 PUSH1 0x1F DUP3 ADD SLT ISZERO PUSH2 0x177 JUMPI DUP1 MLOAD PUSH2 0x2908 DUP2 PUSH2 0x2ABF JUMP JUMPDEST SWAP3 PUSH2 0x2916 PUSH1 0x40 MLOAD SWAP5 DUP6 PUSH2 0x2A9E JUMP JUMPDEST DUP2 DUP5 MSTORE DUP5 DUP3 DUP5 ADD ADD GT PUSH2 0x177 JUMPI PUSH2 0x2932 SWAP2 DUP5 DUP1 DUP6 ADD SWAP2 ADD PUSH2 0x29A4 JUMP JUMPDEST SWAP1 CODESIZE PUSH2 0x28AB JUMP JUMPDEST PUSH1 0x40 MLOAD PUSH3 0x461BCD PUSH1 0xE5 SHL DUP2 MSTORE DUP1 DUP5 ADD DUP7 SWAP1 MSTORE PUSH1 0x24 DUP1 DUP3 ADD MSTORE PUSH32 0x496E76616C696420746F6B656E20494420666F72206D65746164617461206D6F PUSH1 0x44 DUP3 ADD MSTORE PUSH4 0x64756C65 PUSH1 0xE0 SHL PUSH1 0x64 DUP3 ADD MSTORE PUSH1 0x84 SWAP1 REVERT JUMPDEST PUSH1 0x4 CALLDATALOAD SWAP1 PUSH1 0x1 PUSH1 0x1 PUSH1 0xA0 SHL SUB DUP3 AND DUP3 SUB PUSH2 0x299F JUMPI JUMP JUMPDEST PUSH1 0x0 DUP1 REVERT JUMPDEST PUSH1 0x0 JUMPDEST DUP4 DUP2 LT PUSH2 0x29B7 JUMPI POP POP PUSH1 0x0 SWAP2 ADD MSTORE JUMP JUMPDEST DUP2 DUP2 ADD MLOAD DUP4 DUP3 ADD MSTORE PUSH1 0x20 ADD PUSH2 0x29A7 JUMP JUMPDEST SWAP1 PUSH1 0x20 SWAP2 PUSH2 0x29E0 DUP2 MLOAD DUP1 SWAP3 DUP2 DUP6 MSTORE DUP6 DUP1 DUP7 ADD SWAP2 ADD PUSH2 0x29A4 JUMP JUMPDEST PUSH1 0x1F ADD PUSH1 0x1F NOT AND ADD ADD SWAP1 JUMP JUMPDEST PUSH2 0x2A6A SWAP2 PUSH1 0xA0 PUSH2 0x2A59 PUSH2 0x2A47 PUSH2 0x2A35 PUSH2 0x2A23 PUSH2 0x2A11 DUP8 MLOAD PUSH1 0xC0 DUP9 MSTORE PUSH1 0xC0 DUP9 ADD SWAP1 PUSH2 0x29C7 JUMP JUMPDEST PUSH1 0x20 DUP9 ADD MLOAD DUP8 DUP3 SUB PUSH1 0x20 DUP10 ADD MSTORE PUSH2 0x29C7 JUMP JUMPDEST PUSH1 0x40 DUP8 ADD MLOAD DUP7 DUP3 SUB PUSH1 0x40 DUP9 ADD MSTORE PUSH2 0x29C7 JUMP JUMPDEST PUSH1 0x60 DUP7 ADD MLOAD DUP6 DUP3 SUB PUSH1 0x60 DUP8 ADD MSTORE PUSH2 0x29C7 JUMP JUMPDEST PUSH1 0x80 DUP6 ADD MLOAD DUP5 DUP3 SUB PUSH1 0x80 DUP7 ADD MSTORE PUSH2 0x29C7 JUMP JUMPDEST SWAP3 ADD MLOAD SWAP1 PUSH1 0xA0 DUP2 DUP5 SUB SWAP2 ADD MSTORE PUSH2 0x29C7 JUMP JUMPDEST SWAP1 JUMP JUMPDEST PUSH1 0xC0 DUP2 ADD SWAP1 DUP2 LT PUSH1 0x1 PUSH1 0x1 PUSH1 0x40 SHL SUB DUP3 GT OR PUSH2 0x2A88 JUMPI PUSH1 0x40 MSTORE JUMP JUMPDEST PUSH4 0x4E487B71 PUSH1 0xE0 SHL PUSH1 0x0 MSTORE PUSH1 0x41 PUSH1 0x4 MSTORE PUSH1 0x24 PUSH1 0x0 REVERT JUMPDEST SWAP1 PUSH1 0x1F DUP1 NOT SWAP2 ADD AND DUP2 ADD SWAP1 DUP2 LT PUSH1 0x1 PUSH1 0x1 PUSH1 0x40 SHL SUB DUP3 GT OR PUSH2 0x2A88 JUMPI PUSH1 0x40 MSTORE JUMP JUMPDEST PUSH1 0x1 PUSH1 0x1 PUSH1 0x40 SHL SUB DUP2 GT PUSH2 0x2A88 JUMPI PUSH1 0x1F ADD PUSH1 0x1F NOT AND PUSH1 0x20 ADD SWAP1 JUMP JUMPDEST DUP2 PUSH1 0x1F DUP3 ADD SLT ISZERO PUSH2 0x299F JUMPI DUP1 CALLDATALOAD SWAP1 PUSH2 0x2AF1 DUP3 PUSH2 0x2ABF JUMP JUMPDEST SWAP3 PUSH2 0x2AFF PUSH1 0x40 MLOAD SWAP5 DUP6 PUSH2 0x2A9E JUMP JUMPDEST DUP3 DUP5 MSTORE PUSH1 0x20 DUP4 DUP4 ADD ADD GT PUSH2 0x299F JUMPI DUP2 PUSH1 0x0 SWAP3 PUSH1 0x20 DUP1 SWAP4 ADD DUP4 DUP7 ADD CALLDATACOPY DUP4 ADD ADD MSTORE SWAP1 JUMP JUMPDEST SWAP1 PUSH1 0x3 NOT PUSH1 0x40 DUP2 DUP5 ADD SLT PUSH2 0x299F JUMPI PUSH1 0x4 DUP1 CALLDATALOAD PUSH1 0x1 PUSH1 0x1 PUSH1 0xA0 SHL SUB DUP2 AND DUP2 SUB PUSH2 0x299F JUMPI SWAP4 PUSH1 0x24 CALLDATALOAD SWAP2 PUSH1 0x1 PUSH1 0x1 PUSH1 0x40 SHL SUB SWAP4 DUP5 DUP5 GT PUSH2 0x299F JUMPI PUSH1 0xC0 SWAP1 DUP5 DUP5 SUB ADD SLT PUSH2 0x299F JUMPI PUSH1 0x40 MLOAD SWAP4 PUSH2 0x2B71 DUP6 PUSH2 0x2A6D JUMP JUMPDEST DUP4 DUP3 ADD CALLDATALOAD DUP2 DUP2 GT PUSH2 0x299F JUMPI DUP4 DUP4 PUSH2 0x2B8A SWAP3 DUP8 ADD ADD PUSH2 0x2ADA JUMP JUMPDEST DUP6 MSTORE PUSH1 0x24 DUP5 ADD CALLDATALOAD DUP2 DUP2 GT PUSH2 0x299F JUMPI DUP4 DUP4 PUSH2 0x2BA6 SWAP3 DUP8 ADD ADD PUSH2 0x2ADA JUMP JUMPDEST PUSH1 0x20 DUP7 ADD MSTORE PUSH1 0x44 DUP5 ADD CALLDATALOAD DUP2 DUP2 GT PUSH2 0x299F JUMPI DUP4 DUP4 PUSH2 0x2BC5 SWAP3 DUP8 ADD ADD PUSH2 0x2ADA JUMP JUMPDEST PUSH1 0x40 DUP7 ADD MSTORE PUSH1 0x64 DUP5 ADD CALLDATALOAD DUP2 DUP2 GT PUSH2 0x299F JUMPI DUP4 DUP4 PUSH2 0x2BE4 SWAP3 DUP8 ADD ADD PUSH2 0x2ADA JUMP JUMPDEST PUSH1 0x60 DUP7 ADD MSTORE PUSH1 0x84 DUP5 ADD CALLDATALOAD DUP2 DUP2 GT PUSH2 0x299F JUMPI DUP4 DUP4 PUSH2 0x2C03 SWAP3 DUP8 ADD ADD PUSH2 0x2ADA JUMP JUMPDEST PUSH1 0x80 DUP7 ADD MSTORE PUSH1 0xA4 DUP5 ADD CALLDATALOAD SWAP1 DUP2 GT PUSH2 0x299F JUMPI PUSH2 0x2C1F SWAP4 ADD ADD PUSH2 0x2ADA JUMP JUMPDEST PUSH1 0xA0 DUP3 ADD MSTORE SWAP1 JUMP JUMPDEST PUSH1 0x0 SLOAD PUSH1 0x1 PUSH1 0x1 PUSH1 0xA0 SHL SUB AND CALLER SUB PUSH2 0x2C3B JUMPI JUMP JUMPDEST PUSH1 0x40 MLOAD PUSH4 0x118CDAA7 PUSH1 0xE0 SHL DUP2 MSTORE CALLER PUSH1 0x4 DUP3 ADD MSTORE PUSH1 0x24 SWAP1 REVERT JUMPDEST PUSH1 0x40 MLOAD SWAP1 PUSH2 0x2C60 DUP3 PUSH2 0x2A6D JUMP JUMPDEST DUP2 PUSH1 0xA0 PUSH1 0x60 SWAP2 DUP3 DUP2 MSTORE DUP3 PUSH1 0x20 DUP3 ADD MSTORE DUP3 PUSH1 0x40 DUP3 ADD MSTORE DUP3 DUP1 DUP3 ADD MSTORE DUP3 PUSH1 0x80 DUP3 ADD MSTORE ADD MSTORE JUMP JUMPDEST SWAP1 DUP2 PUSH1 0x20 SWAP2 SUB SLT PUSH2 0x299F JUMPI MLOAD PUSH1 0x1 PUSH1 0x1 PUSH1 0xA0 SHL SUB DUP2 AND DUP2 SUB PUSH2 0x299F JUMPI SWAP1 JUMP JUMPDEST SWAP1 PUSH1 0x1 DUP3 DUP2 SHR SWAP3 AND DUP1 ISZERO PUSH2 0x2CD3 JUMPI JUMPDEST PUSH1 0x20 DUP4 LT EQ PUSH2 0x2CBD JUMPI JUMP JUMPDEST PUSH4 0x4E487B71 PUSH1 0xE0 SHL PUSH1 0x0 MSTORE PUSH1 0x22 PUSH1 0x4 MSTORE PUSH1 0x24 PUSH1 0x0 REVERT JUMPDEST SWAP2 PUSH1 0x7F AND SWAP2 PUSH2 0x2CB2 JUMP JUMPDEST DUP2 DUP2 LT PUSH2 0x2CE8 JUMPI POP POP JUMP JUMPDEST PUSH1 0x0 DUP2 SSTORE PUSH1 0x1 ADD PUSH2 0x2CDD JUMP JUMPDEST SWAP2 SWAP1 PUSH1 0x1F DUP2 GT PUSH2 0x2D03 JUMPI POP POP POP JUMP JUMPDEST PUSH2 0x2D2F SWAP3 PUSH1 0x0 MSTORE PUSH1 0x20 PUSH1 0x0 KECCAK256 SWAP1 PUSH1 0x20 PUSH1 0x1F DUP5 ADD PUSH1 0x5 SHR DUP4 ADD SWAP4 LT PUSH2 0x2D31 JUMPI JUMPDEST PUSH1 0x1F ADD PUSH1 0x5 SHR ADD SWAP1 PUSH2 0x2CDD JUMP JUMPDEST JUMP JUMPDEST SWAP1 SWAP2 POP DUP2 SWAP1 PUSH2 0x2D22 JUMP JUMPDEST DUP1 MLOAD MLOAD ISZERO ISZERO SWAP1 DUP2 PUSH2 0x2D71 JUMPI JUMPDEST DUP2 PUSH2 0x2D62 JUMPI JUMPDEST DUP2 PUSH2 0x2D56 JUMPI POP SWAP1 JUMP JUMPDEST PUSH1 0xA0 SWAP2 POP ADD MLOAD MLOAD ISZERO ISZERO SWAP1 JUMP JUMPDEST PUSH1 0x80 DUP2 ADD MLOAD MLOAD ISZERO ISZERO SWAP2 POP PUSH2 0x2D4D JUMP JUMPDEST PUSH1 0x40 DUP2 ADD MLOAD MLOAD ISZERO ISZERO SWAP2 POP PUSH2 0x2D47 JUMP JUMPDEST ISZERO PUSH2 0x2D87 JUMPI JUMP JUMPDEST PUSH1 0x40 MLOAD PUSH3 0x461BCD PUSH1 0xE5 SHL DUP2 MSTORE PUSH1 0x20 PUSH1 0x4 DUP3 ADD MSTORE PUSH1 0x37 PUSH1 0x24 DUP3 ADD MSTORE PUSH32 0x496E76616C6964206D657461646174613A20416C6C2072657175697265642066 PUSH1 0x44 DUP3 ADD MSTORE PUSH32 0x69656C6473206D757374206265206E6F6E2D656D707479000000000000000000 PUSH1 0x64 DUP3 ADD MSTORE PUSH1 0x84 SWAP1 REVERT JUMPDEST SWAP1 DUP2 PUSH1 0x20 SWAP2 SUB SLT PUSH2 0x299F JUMPI MLOAD DUP1 ISZERO ISZERO DUP2 SUB PUSH2 0x299F JUMPI SWAP1 JUMP JUMPDEST SWAP1 DUP1 DUP3 EQ PUSH2 0x2EDE JUMPI PUSH2 0x2E1C DUP2 SLOAD PUSH2 0x2CA3 JUMP JUMPDEST SWAP1 PUSH1 0x1 PUSH1 0x1 PUSH1 0x40 SHL SUB DUP3 GT PUSH2 0x2A88 JUMPI DUP2 SWAP1 PUSH2 0x2E3B DUP3 PUSH2 0x886 DUP7 SLOAD PUSH2 0x2CA3 JUMP JUMPDEST PUSH1 0x0 SWAP1 PUSH1 0x1F DUP4 GT PUSH1 0x1 EQ PUSH2 0x2E72 JUMPI PUSH1 0x0 SWAP3 PUSH2 0x2E67 JUMPI JUMPDEST POP POP DUP2 PUSH1 0x1 SHL SWAP2 PUSH1 0x0 NOT SWAP1 PUSH1 0x3 SHL SHR NOT AND OR SWAP1 SSTORE JUMP JUMPDEST ADD SLOAD SWAP1 POP CODESIZE DUP1 PUSH2 0x2E51 JUMP JUMPDEST DUP2 MSTORE PUSH1 0x20 DUP1 DUP3 KECCAK256 DUP6 DUP4 MSTORE DUP2 DUP4 KECCAK256 SWAP4 POP SWAP1 PUSH1 0x1F NOT DUP6 AND SWAP1 DUP4 SWAP1 JUMPDEST DUP3 DUP3 LT PUSH2 0x2EC5 JUMPI POP POP SWAP1 DUP5 PUSH1 0x1 SWAP6 SWAP5 SWAP4 SWAP3 LT PUSH2 0x2EAC JUMPI JUMPDEST POP POP POP DUP2 SHL ADD SWAP1 SSTORE JUMP JUMPDEST ADD SLOAD PUSH1 0x0 NOT PUSH1 0xF8 DUP5 PUSH1 0x3 SHL AND SHR NOT AND SWAP1 SSTORE CODESIZE DUP1 DUP1 PUSH2 0x2EA2 JUMP JUMPDEST DUP5 SWAP6 DUP2 SWAP3 SWAP6 DUP6 ADD SLOAD DUP2 SSTORE PUSH1 0x1 DUP1 SWAP2 ADD SWAP7 ADD SWAP5 ADD SWAP1 PUSH2 0x2E8B JUMP JUMPDEST POP POP JUMP JUMPDEST PUSH2 0x2EEC DUP2 SLOAD PUSH2 0x2CA3 JUMP JUMPDEST SWAP1 DUP2 PUSH2 0x2EF6 JUMPI POP POP JUMP JUMPDEST DUP2 PUSH1 0x1F PUSH1 0x0 SWAP4 GT PUSH1 0x1 EQ PUSH2 0x2F08 JUMPI POP SSTORE JUMP JUMPDEST SWAP1 DUP1 DUP4 SWAP2 DUP3 MSTORE PUSH2 0x2F27 PUSH1 0x1F PUSH1 0x20 DUP5 KECCAK256 SWAP5 ADD PUSH1 0x5 SHR DUP5 ADD PUSH1 0x1 DUP6 ADD PUSH2 0x2CDD JUMP JUMPDEST SSTORE SSTORE JUMP JUMPDEST PUSH1 0x5 PUSH2 0x2D2F SWAP2 PUSH2 0x2F3A DUP2 PUSH2 0x2EE2 JUMP JUMPDEST PUSH2 0x2F46 PUSH1 0x1 DUP3 ADD PUSH2 0x2EE2 JUMP JUMPDEST PUSH2 0x2F52 PUSH1 0x2 DUP3 ADD PUSH2 0x2EE2 JUMP JUMPDEST PUSH2 0x2F5E PUSH1 0x3 DUP3 ADD PUSH2 0x2EE2 JUMP JUMPDEST PUSH2 0x2F6A PUSH1 0x4 DUP3 ADD PUSH2 0x2EE2 JUMP JUMPDEST ADD PUSH2 0x2EE2 JUMP JUMPDEST SWAP1 PUSH1 0x0 SWAP3 SWAP2 DUP1 SLOAD SWAP2 PUSH2 0x2F81 DUP4 PUSH2 0x2CA3 JUMP JUMPDEST SWAP2 DUP3 DUP3 MSTORE PUSH1 0x1 SWAP4 DUP5 DUP2 AND SWAP1 DUP2 PUSH1 0x0 EQ PUSH2 0x2FE3 JUMPI POP PUSH1 0x1 EQ PUSH2 0x2FA3 JUMPI JUMPDEST POP POP POP POP JUMP JUMPDEST SWAP1 SWAP2 SWAP4 SWAP5 POP PUSH1 0x0 MSTORE PUSH1 0x20 SWAP3 DUP4 PUSH1 0x0 KECCAK256 SWAP3 DUP5 PUSH1 0x0 SWAP5 JUMPDEST DUP4 DUP7 LT PUSH2 0x2FCF JUMPI POP POP POP POP ADD ADD SWAP1 CODESIZE DUP1 DUP1 DUP1 PUSH2 0x2F9D JUMP JUMPDEST DUP1 SLOAD DUP6 DUP8 ADD DUP4 ADD MSTORE SWAP5 ADD SWAP4 DUP6 SWAP1 DUP3 ADD PUSH2 0x2FB8 JUMP JUMPDEST SWAP3 SWAP5 POP POP POP PUSH1 0x20 SWAP4 SWAP5 POP PUSH1 0xFF NOT AND DUP4 DUP4 ADD MSTORE ISZERO ISZERO PUSH1 0x5 SHL ADD ADD SWAP1 CODESIZE DUP1 DUP1 DUP1 PUSH2 0x2F9D JUMP JUMPDEST RETURNDATASIZE ISZERO PUSH2 0x3031 JUMPI RETURNDATASIZE SWAP1 PUSH2 0x3017 DUP3 PUSH2 0x2ABF JUMP JUMPDEST SWAP2 PUSH2 0x3025 PUSH1 0x40 MLOAD SWAP4 DUP5 PUSH2 0x2A9E JUMP JUMPDEST DUP3 MSTORE RETURNDATASIZE PUSH1 0x0 PUSH1 0x20 DUP5 ADD RETURNDATACOPY JUMP JUMPDEST PUSH1 0x60 SWAP1 JUMP JUMPDEST PUSH1 0x0 DUP1 PUSH2 0x305F SWAP3 PUSH1 0x1 DUP1 PUSH1 0xA0 SHL SUB AND SWAP4 PUSH1 0x20 DUP2 MLOAD SWAP2 ADD DUP3 DUP7 GAS CALL PUSH2 0x3058 PUSH2 0x3006 JUMP JUMPDEST SWAP1 DUP4 PUSH2 0x30A8 JUMP JUMPDEST DUP1 MLOAD SWAP1 DUP2 ISZERO ISZERO SWAP2 DUP3 PUSH2 0x308D JUMPI JUMPDEST POP POP PUSH2 0x3075 JUMPI POP JUMP JUMPDEST PUSH1 0x24 SWAP1 PUSH1 0x40 MLOAD SWAP1 PUSH4 0x5274AFE7 PUSH1 0xE0 SHL DUP3 MSTORE PUSH1 0x4 DUP3 ADD MSTORE REVERT JUMPDEST PUSH2 0x30A0 SWAP3 POP PUSH1 0x20 DUP1 SWAP2 DUP4 ADD ADD SWAP2 ADD PUSH2 0x2DF2 JUMP JUMPDEST ISZERO CODESIZE DUP1 PUSH2 0x306C JUMP JUMPDEST SWAP1 PUSH2 0x30CF JUMPI POP DUP1 MLOAD ISZERO PUSH2 0x30BD JUMPI DUP1 MLOAD SWAP1 PUSH1 0x20 ADD REVERT JUMPDEST PUSH1 0x40 MLOAD PUSH4 0xA12F521 PUSH1 0xE1 SHL DUP2 MSTORE PUSH1 0x4 SWAP1 REVERT JUMPDEST DUP2 MLOAD ISZERO DUP1 PUSH2 0x3102 JUMPI JUMPDEST PUSH2 0x30E0 JUMPI POP SWAP1 JUMP JUMPDEST PUSH1 0x40 MLOAD PUSH4 0x9996B315 PUSH1 0xE0 SHL DUP2 MSTORE PUSH1 0x1 PUSH1 0x1 PUSH1 0xA0 SHL SUB SWAP1 SWAP2 AND PUSH1 0x4 DUP3 ADD MSTORE PUSH1 0x24 SWAP1 REVERT JUMPDEST POP DUP1 EXTCODESIZE ISZERO PUSH2 0x30D8 JUMP INVALID LOG2 PUSH5 0x6970667358 0x22 SLT KECCAK256 SWAP1 STOP 0xA6 0xB0 NOT 0xDB PUSH13 0x9623490ABEA8D48C9F9A3E00CF 0xDB STATICCALL 0xCC DUP2 ORIGIN LOG0 0xC0 0xE3 PUSH4 0x4F63D064 PUSH20 0x6F6C634300081400330000000000000000000000 "},"methodIdentifiers":{"confirmUpdateMetadata(address)":"187de53b","createMetadata(address,(string,string,string,string,string,string))":"6613680d","getPendingMetadataUpdate(address)":"da67603e","getTokenURI(address,uint256)":"0b63fd62","getWrappedSongMetadata(address)":"349cdba0","isMetadataUpdateConfirmed(address)":"dac73c99","owner()":"8da5cb5b","protocolModule()":"5c42e667","rejectUpdateMetadata(address)":"9205fafe","removeMetadata(address)":"a9edb0f5","renounceOwnership()":"715018a6","requestUpdateMetadata(address,(string,string,string,string,string,string))":"4b700629","setProtocolModule(address)":"a859dcde","transferOwnership(address)":"f2fde38b","updateMetadata(address,(string,string,string,string,string,string))":"5dc447ed","withdrawAccumulatedFees(address,address)":"376c1f07"}},"storageLayout":{"storage":[{"astId":8,"contract":"contracts/protocol/NonUpgradable/MetadataModule.sol:MetadataModule","label":"_owner","offset":0,"slot":"0","type":"t_address"},{"astId":1015,"contract":"contracts/protocol/NonUpgradable/MetadataModule.sol:MetadataModule","label":"_status","offset":0,"slot":"1","type":"t_uint256"},{"astId":2365,"contract":"contracts/protocol/NonUpgradable/MetadataModule.sol:MetadataModule","label":"protocolModule","offset":0,"slot":"2","type":"t_contract(IProtocolModule)1804"},{"astId":2368,"contract":"contracts/protocol/NonUpgradable/MetadataModule.sol:MetadataModule","label":"releaseModule","offset":0,"slot":"3","type":"t_contract(IReleaseModule)1995"},{"astId":2371,"contract":"contracts/protocol/NonUpgradable/MetadataModule.sol:MetadataModule","label":"feesModule","offset":0,"slot":"4","type":"t_contract(IFeesModule)1368"},{"astId":2374,"contract":"contracts/protocol/NonUpgradable/MetadataModule.sol:MetadataModule","label":"erc20whitelist","offset":0,"slot":"5","type":"t_contract(IERC20Whitelist)1272"},{"astId":2376,"contract":"contracts/protocol/NonUpgradable/MetadataModule.sol:MetadataModule","label":"isProtocolSet","offset":20,"slot":"5","type":"t_bool"},{"astId":2381,"contract":"contracts/protocol/NonUpgradable/MetadataModule.sol:MetadataModule","label":"wrappedSongMetadata","offset":0,"slot":"6","type":"t_mapping(t_address,t_struct(Metadata)1484_storage)"},{"astId":2386,"contract":"contracts/protocol/NonUpgradable/MetadataModule.sol:MetadataModule","label":"pendingMetadataUpdates","offset":0,"slot":"7","type":"t_mapping(t_address,t_struct(Metadata)1484_storage)"},{"astId":2390,"contract":"contracts/protocol/NonUpgradable/MetadataModule.sol:MetadataModule","label":"metadataUpdateConfirmed","offset":0,"slot":"8","type":"t_mapping(t_address,t_bool)"},{"astId":2394,"contract":"contracts/protocol/NonUpgradable/MetadataModule.sol:MetadataModule","label":"accumulatedFees","offset":0,"slot":"9","type":"t_mapping(t_address,t_uint256)"}],"types":{"t_address":{"encoding":"inplace","label":"address","numberOfBytes":"20"},"t_bool":{"encoding":"inplace","label":"bool","numberOfBytes":"1"},"t_contract(IERC20Whitelist)1272":{"encoding":"inplace","label":"contract IERC20Whitelist","numberOfBytes":"20"},"t_contract(IFeesModule)1368":{"encoding":"inplace","label":"contract IFeesModule","numberOfBytes":"20"},"t_contract(IProtocolModule)1804":{"encoding":"inplace","label":"contract IProtocolModule","numberOfBytes":"20"},"t_contract(IReleaseModule)1995":{"encoding":"inplace","label":"contract IReleaseModule","numberOfBytes":"20"},"t_mapping(t_address,t_bool)":{"encoding":"mapping","key":"t_address","label":"mapping(address => bool)","numberOfBytes":"32","value":"t_bool"},"t_mapping(t_address,t_struct(Metadata)1484_storage)":{"encoding":"mapping","key":"t_address","label":"mapping(address => struct IMetadataModule.Metadata)","numberOfBytes":"32","value":"t_struct(Metadata)1484_storage"},"t_mapping(t_address,t_uint256)":{"encoding":"mapping","key":"t_address","label":"mapping(address => uint256)","numberOfBytes":"32","value":"t_uint256"},"t_string_storage":{"encoding":"bytes","label":"string","numberOfBytes":"32"},"t_struct(Metadata)1484_storage":{"encoding":"inplace","label":"struct IMetadataModule.Metadata","members":[{"astId":1473,"contract":"contracts/protocol/NonUpgradable/MetadataModule.sol:MetadataModule","label":"name","offset":0,"slot":"0","type":"t_string_storage"},{"astId":1475,"contract":"contracts/protocol/NonUpgradable/MetadataModule.sol:MetadataModule","label":"description","offset":0,"slot":"1","type":"t_string_storage"},{"astId":1477,"contract":"contracts/protocol/NonUpgradable/MetadataModule.sol:MetadataModule","label":"image","offset":0,"slot":"2","type":"t_string_storage"},{"astId":1479,"contract":"contracts/protocol/NonUpgradable/MetadataModule.sol:MetadataModule","label":"externalUrl","offset":0,"slot":"3","type":"t_string_storage"},{"astId":1481,"contract":"contracts/protocol/NonUpgradable/MetadataModule.sol:MetadataModule","label":"animationUrl","offset":0,"slot":"4","type":"t_string_storage"},{"astId":1483,"contract":"contracts/protocol/NonUpgradable/MetadataModule.sol:MetadataModule","label":"attributesIpfsHash","offset":0,"slot":"5","type":"t_string_storage"}],"numberOfBytes":"192"},"t_uint256":{"encoding":"inplace","label":"uint256","numberOfBytes":"32"}}}}}}