{"contracts/protocol/NonUpgradable/ProtocolModule.sol":{"ProtocolModule":{"abi":[{"inputs":[{"internalType":"address","name":"_distributorWalletFactory","type":"address"},{"internalType":"address","name":"_whitelistingManager","type":"address"},{"internalType":"address","name":"_erc20whitelist","type":"address"},{"internalType":"address","name":"_metadataModule","type":"address"},{"internalType":"address","name":"_legalContractMetadata","type":"address"}],"stateMutability":"nonpayable","type":"constructor"},{"inputs":[{"internalType":"address","name":"target","type":"address"}],"name":"AddressEmptyCode","type":"error"},{"inputs":[{"internalType":"address","name":"account","type":"address"}],"name":"AddressInsufficientBalance","type":"error"},{"inputs":[],"name":"EnforcedPause","type":"error"},{"inputs":[],"name":"ExpectedPause","type":"error"},{"inputs":[],"name":"FailedInnerCall","type":"error"},{"inputs":[{"internalType":"address","name":"owner","type":"address"}],"name":"OwnableInvalidOwner","type":"error"},{"inputs":[{"internalType":"address","name":"account","type":"address"}],"name":"OwnableUnauthorizedAccount","type":"error"},{"inputs":[],"name":"ReentrancyGuardReentrantCall","type":"error"},{"inputs":[{"internalType":"address","name":"token","type":"address"}],"name":"SafeERC20FailedOperation","type":"error"},{"anonymous":false,"inputs":[{"indexed":true,"internalType":"address","name":"wrappedSong","type":"address"},{"indexed":true,"internalType":"address","name":"distributor","type":"address"}],"name":"DistributorAcceptedReview","type":"event"},{"anonymous":false,"inputs":[{"indexed":false,"internalType":"uint256","name":"newFee","type":"uint256"}],"name":"DistributorCreationFeeUpdated","type":"event"},{"anonymous":false,"inputs":[{"indexed":false,"internalType":"address","name":"newFactory","type":"address"}],"name":"DistributorWalletFactoryUpdated","type":"event"},{"anonymous":false,"inputs":[{"indexed":false,"internalType":"address","name":"newWhitelist","type":"address"}],"name":"ERC20WhitelistUpdated","type":"event"},{"anonymous":false,"inputs":[{"indexed":true,"internalType":"address","name":"token","type":"address"},{"indexed":true,"internalType":"address","name":"recipient","type":"address"},{"indexed":false,"internalType":"uint256","name":"amount","type":"uint256"}],"name":"FeesWithdrawn","type":"event"},{"anonymous":false,"inputs":[{"indexed":true,"internalType":"address","name":"wrappedSong","type":"address"},{"indexed":false,"internalType":"string","name":"registryType","type":"string"},{"indexed":false,"internalType":"string","name":"value","type":"string"}],"name":"IdentityRegistryUpdated","type":"event"},{"anonymous":false,"inputs":[{"indexed":false,"internalType":"address","name":"newContract","type":"address"}],"name":"LegalContractMetadataUpdated","type":"event"},{"anonymous":false,"inputs":[{"indexed":false,"internalType":"uint256","name":"newDuration","type":"uint256"}],"name":"MaxSaleDurationUpdated","type":"event"},{"anonymous":false,"inputs":[{"indexed":false,"internalType":"address","name":"newModule","type":"address"}],"name":"MetadataModuleUpdated","type":"event"},{"anonymous":false,"inputs":[{"indexed":false,"internalType":"address","name":"newRenderer","type":"address"}],"name":"MetadataRendererUpdated","type":"event"},{"anonymous":false,"inputs":[{"indexed":true,"internalType":"address","name":"wrappedSong","type":"address"},{"indexed":true,"internalType":"uint256","name":"tokenId","type":"uint256"},{"indexed":false,"internalType":"string","name":"newMetadata","type":"string"}],"name":"MetadataUpdateRequested","type":"event"},{"anonymous":false,"inputs":[{"indexed":true,"internalType":"address","name":"wrappedSong","type":"address"},{"indexed":true,"internalType":"uint256","name":"tokenId","type":"uint256"},{"indexed":false,"internalType":"string","name":"newMetadata","type":"string"}],"name":"MetadataUpdated","type":"event"},{"anonymous":false,"inputs":[{"indexed":true,"internalType":"address","name":"owner","type":"address"},{"indexed":true,"internalType":"address","name":"wrappedSong","type":"address"}],"name":"OwnerWrappedSongAdded","type":"event"},{"anonymous":false,"inputs":[{"indexed":true,"internalType":"address","name":"previousOwner","type":"address"},{"indexed":true,"internalType":"address","name":"newOwner","type":"address"}],"name":"OwnershipTransferred","type":"event"},{"anonymous":false,"inputs":[{"indexed":false,"internalType":"address","name":"account","type":"address"}],"name":"Paused","type":"event"},{"anonymous":false,"inputs":[{"indexed":false,"internalType":"bool","name":"isPaused","type":"bool"}],"name":"Paused","type":"event"},{"anonymous":false,"inputs":[{"indexed":false,"internalType":"bool","name":"newPayInStablecoin","type":"bool"}],"name":"PayInStablecoinUpdated","type":"event"},{"anonymous":false,"inputs":[{"indexed":true,"internalType":"address","name":"wrappedSong","type":"address"},{"indexed":true,"internalType":"address","name":"token","type":"address"},{"indexed":false,"internalType":"uint256","name":"amount","type":"uint256"}],"name":"ReleaseFeeCollected","type":"event"},{"anonymous":false,"inputs":[{"indexed":false,"internalType":"uint256","name":"newFee","type":"uint256"}],"name":"ReleaseFeeUpdated","type":"event"},{"anonymous":false,"inputs":[{"indexed":false,"internalType":"bool","name":"enabled","type":"bool"}],"name":"ReleasesEnabledChanged","type":"event"},{"anonymous":false,"inputs":[{"indexed":false,"internalType":"uint256","name":"newDays","type":"uint256"}],"name":"ReviewPeriodDaysUpdated","type":"event"},{"anonymous":false,"inputs":[{"indexed":true,"internalType":"address","name":"wrappedSong","type":"address"},{"indexed":true,"internalType":"address","name":"distributor","type":"address"}],"name":"ReviewPeriodExpired","type":"event"},{"anonymous":false,"inputs":[{"indexed":true,"internalType":"address","name":"smartAccount","type":"address"},{"indexed":true,"internalType":"address","name":"wsToken","type":"address"}],"name":"SmartAccountToWSTokenMapped","type":"event"},{"anonymous":false,"inputs":[{"indexed":false,"internalType":"uint256","name":"newCreationFee","type":"uint256"},{"indexed":false,"internalType":"uint256","name":"newReleaseFee","type":"uint256"}],"name":"StableFeesUpdated","type":"event"},{"anonymous":false,"inputs":[{"indexed":false,"internalType":"uint256","name":"newFee","type":"uint256"}],"name":"StartSaleFeeUpdated","type":"event"},{"anonymous":false,"inputs":[{"indexed":false,"internalType":"address","name":"account","type":"address"}],"name":"Unpaused","type":"event"},{"anonymous":false,"inputs":[{"indexed":false,"internalType":"uint256","name":"newFee","type":"uint256"}],"name":"UpdateMetadataFeeUpdated","type":"event"},{"anonymous":false,"inputs":[{"indexed":false,"internalType":"address","name":"newManager","type":"address"}],"name":"WhitelistingManagerUpdated","type":"event"},{"anonymous":false,"inputs":[{"indexed":false,"internalType":"uint256","name":"newPercentage","type":"uint256"}],"name":"WithdrawalFeePercentageUpdated","type":"event"},{"anonymous":false,"inputs":[{"indexed":true,"internalType":"address","name":"wrappedSong","type":"address"},{"indexed":false,"internalType":"bool","name":"isAuthentic","type":"bool"}],"name":"WrappedSongAuthenticitySet","type":"event"},{"anonymous":false,"inputs":[{"indexed":false,"internalType":"uint256","name":"newFee","type":"uint256"}],"name":"WrappedSongCreationFeeUpdated","type":"event"},{"anonymous":false,"inputs":[{"indexed":true,"internalType":"address","name":"wrappedSong","type":"address"},{"indexed":true,"internalType":"address","name":"distributor","type":"address"}],"name":"WrappedSongReleaseRejected","type":"event"},{"anonymous":false,"inputs":[{"indexed":true,"internalType":"address","name":"wrappedSong","type":"address"},{"indexed":true,"internalType":"address","name":"distributor","type":"address"},{"indexed":true,"internalType":"address","name":"creator","type":"address"}],"name":"WrappedSongReleaseRequested","type":"event"},{"anonymous":false,"inputs":[{"indexed":true,"internalType":"address","name":"wrappedSong","type":"address"},{"indexed":true,"internalType":"address","name":"distributor","type":"address"}],"name":"WrappedSongReleased","type":"event"},{"inputs":[],"name":"MAX_WITHDRAWAL_FEE","outputs":[{"internalType":"uint256","name":"","type":"uint256"}],"stateMutability":"view","type":"function"},{"inputs":[{"internalType":"address","name":"wrappedSong","type":"address"}],"name":"acceptWrappedSongForReview","outputs":[],"stateMutability":"nonpayable","type":"function"},{"inputs":[{"internalType":"address","name":"","type":"address"}],"name":"accumulatedFees","outputs":[{"internalType":"uint256","name":"","type":"uint256"}],"stateMutability":"view","type":"function"},{"inputs":[{"internalType":"address","name":"wrappedSong","type":"address"},{"internalType":"string","name":"iscc","type":"string"}],"name":"addISCC","outputs":[],"stateMutability":"nonpayable","type":"function"},{"inputs":[{"internalType":"address","name":"wrappedSong","type":"address"},{"internalType":"string","name":"isrc","type":"string"}],"name":"addISRC","outputs":[],"stateMutability":"nonpayable","type":"function"},{"inputs":[{"internalType":"address","name":"wrappedSong","type":"address"},{"internalType":"string","name":"iswc","type":"string"}],"name":"addISWC","outputs":[],"stateMutability":"nonpayable","type":"function"},{"inputs":[{"internalType":"address","name":"wrappedSong","type":"address"},{"internalType":"string","name":"upc","type":"string"}],"name":"addUPC","outputs":[],"stateMutability":"nonpayable","type":"function"},{"inputs":[{"internalType":"address","name":"","type":"address"}],"name":"authorizedContracts","outputs":[{"internalType":"bool","name":"","type":"bool"}],"stateMutability":"view","type":"function"},{"inputs":[],"name":"baseURI","outputs":[{"internalType":"string","name":"","type":"string"}],"stateMutability":"view","type":"function"},{"inputs":[{"internalType":"address","name":"wrappedSong","type":"address"}],"name":"confirmWrappedSongRelease","outputs":[],"stateMutability":"nonpayable","type":"function"},{"inputs":[],"name":"currentStablecoinIndex","outputs":[{"internalType":"uint256","name":"","type":"uint256"}],"stateMutability":"view","type":"function"},{"inputs":[],"name":"distributorCreationFee","outputs":[{"internalType":"uint256","name":"","type":"uint256"}],"stateMutability":"view","type":"function"},{"inputs":[],"name":"distributorWalletFactory","outputs":[{"internalType":"contract IDistributorWalletFactory","name":"","type":"address"}],"stateMutability":"view","type":"function"},{"inputs":[],"name":"erc20whitelist","outputs":[{"internalType":"contract IERC20Whitelist","name":"","type":"address"}],"stateMutability":"view","type":"function"},{"inputs":[],"name":"getBaseURI","outputs":[{"internalType":"string","name":"","type":"string"}],"stateMutability":"view","type":"function"},{"inputs":[],"name":"getLegalContractMetadata","outputs":[{"internalType":"address","name":"","type":"address"}],"stateMutability":"view","type":"function"},{"inputs":[],"name":"getMetadataModule","outputs":[{"internalType":"address","name":"","type":"address"}],"stateMutability":"view","type":"function"},{"inputs":[{"internalType":"address","name":"owner","type":"address"}],"name":"getOwnerWrappedSongs","outputs":[{"internalType":"address[]","name":"","type":"address[]"}],"stateMutability":"view","type":"function"},{"inputs":[{"internalType":"address","name":"wrappedSong","type":"address"}],"name":"getPendingDistributorRequests","outputs":[{"internalType":"address","name":"","type":"address"}],"stateMutability":"view","type":"function"},{"inputs":[],"name":"getStartSaleFee","outputs":[{"internalType":"uint256","name":"","type":"uint256"}],"stateMutability":"view","type":"function"},{"inputs":[],"name":"getWithdrawalFeePercentage","outputs":[{"internalType":"uint256","name":"","type":"uint256"}],"stateMutability":"view","type":"function"},{"inputs":[{"internalType":"address","name":"wrappedSong","type":"address"}],"name":"getWrappedSongDistributor","outputs":[{"internalType":"address","name":"","type":"address"}],"stateMutability":"view","type":"function"},{"inputs":[{"internalType":"address","name":"wrappedSong","type":"address"}],"name":"handleExpiredReviewPeriod","outputs":[],"stateMutability":"nonpayable","type":"function"},{"inputs":[{"internalType":"address","name":"wrappedSong","type":"address"}],"name":"isAuthentic","outputs":[{"internalType":"bool","name":"","type":"bool"}],"stateMutability":"view","type":"function"},{"inputs":[{"internalType":"address","name":"_contractAddress","type":"address"}],"name":"isAuthorizedContract","outputs":[{"internalType":"bool","name":"","type":"bool"}],"stateMutability":"view","type":"function"},{"inputs":[{"internalType":"address","name":"wrappedSong","type":"address"}],"name":"isReleased","outputs":[{"internalType":"bool","name":"","type":"bool"}],"stateMutability":"view","type":"function"},{"inputs":[{"internalType":"address","name":"token","type":"address"}],"name":"isTokenWhitelisted","outputs":[{"internalType":"bool","name":"","type":"bool"}],"stateMutability":"view","type":"function"},{"inputs":[{"internalType":"address","name":"creator","type":"address"}],"name":"isValidToCreateWrappedSong","outputs":[{"internalType":"bool","name":"","type":"bool"}],"stateMutability":"view","type":"function"},{"inputs":[{"internalType":"address","name":"wsTokenManagement","type":"address"}],"name":"isWSTokenFromProtocol","outputs":[{"internalType":"bool","name":"","type":"bool"}],"stateMutability":"view","type":"function"},{"inputs":[{"internalType":"address","name":"","type":"address"}],"name":"isccRegistry","outputs":[{"internalType":"string","name":"","type":"string"}],"stateMutability":"view","type":"function"},{"inputs":[{"internalType":"address","name":"","type":"address"}],"name":"isrcRegistry","outputs":[{"internalType":"string","name":"","type":"string"}],"stateMutability":"view","type":"function"},{"inputs":[{"internalType":"address","name":"","type":"address"}],"name":"iswcRegistry","outputs":[{"internalType":"string","name":"","type":"string"}],"stateMutability":"view","type":"function"},{"inputs":[],"name":"legalContractMetadata","outputs":[{"internalType":"contract ILegalContractMetadata","name":"","type":"address"}],"stateMutability":"view","type":"function"},{"inputs":[],"name":"maxSaleDuration","outputs":[{"internalType":"uint256","name":"","type":"uint256"}],"stateMutability":"view","type":"function"},{"inputs":[],"name":"metadataModule","outputs":[{"internalType":"contract IMetadataModule","name":"","type":"address"}],"stateMutability":"view","type":"function"},{"inputs":[],"name":"metadataRenderer","outputs":[{"internalType":"contract IMetadataRenderer","name":"","type":"address"}],"stateMutability":"view","type":"function"},{"inputs":[],"name":"owner","outputs":[{"internalType":"address","name":"","type":"address"}],"stateMutability":"view","type":"function"},{"inputs":[{"internalType":"address","name":"","type":"address"},{"internalType":"uint256","name":"","type":"uint256"}],"name":"ownerWrappedSongs","outputs":[{"internalType":"address","name":"","type":"address"}],"stateMutability":"view","type":"function"},{"inputs":[],"name":"pause","outputs":[],"stateMutability":"nonpayable","type":"function"},{"inputs":[],"name":"paused","outputs":[{"internalType":"bool","name":"","type":"bool"}],"stateMutability":"view","type":"function"},{"inputs":[],"name":"payInStablecoin","outputs":[{"internalType":"bool","name":"","type":"bool"}],"stateMutability":"view","type":"function"},{"inputs":[{"internalType":"address","name":"","type":"address"}],"name":"pendingDistributorRequests","outputs":[{"internalType":"address","name":"","type":"address"}],"stateMutability":"view","type":"function"},{"inputs":[{"internalType":"address","name":"wrappedSong","type":"address"}],"name":"rejectWrappedSongRelease","outputs":[],"stateMutability":"nonpayable","type":"function"},{"inputs":[],"name":"releaseFee","outputs":[{"internalType":"uint256","name":"","type":"uint256"}],"stateMutability":"view","type":"function"},{"inputs":[],"name":"releasesEnabled","outputs":[{"internalType":"bool","name":"","type":"bool"}],"stateMutability":"view","type":"function"},{"inputs":[{"internalType":"address","name":"token","type":"address"}],"name":"removeTokenFromWhitelist","outputs":[],"stateMutability":"nonpayable","type":"function"},{"inputs":[{"internalType":"address","name":"wrappedSong","type":"address"}],"name":"removeWrappedSongReleaseRequest","outputs":[],"stateMutability":"nonpayable","type":"function"},{"inputs":[{"components":[{"internalType":"string","name":"name","type":"string"},{"internalType":"string","name":"description","type":"string"},{"internalType":"string","name":"image","type":"string"},{"internalType":"string","name":"externalUrl","type":"string"},{"internalType":"string","name":"animationUrl","type":"string"},{"internalType":"string","name":"attributesIpfsHash","type":"string"}],"internalType":"struct IMetadataModule.Metadata","name":"metadata","type":"tuple"},{"internalType":"uint256","name":"tokenId","type":"uint256"},{"internalType":"address","name":"wrappedSong","type":"address"}],"name":"renderTokenURI","outputs":[{"internalType":"string","name":"","type":"string"}],"stateMutability":"view","type":"function"},{"inputs":[],"name":"renounceOwnership","outputs":[],"stateMutability":"nonpayable","type":"function"},{"inputs":[{"internalType":"address","name":"wrappedSong","type":"address"},{"internalType":"address","name":"distributor","type":"address"}],"name":"requestWrappedSongRelease","outputs":[],"stateMutability":"payable","type":"function"},{"inputs":[{"internalType":"address","name":"wrappedSong","type":"address"},{"internalType":"address","name":"distributor","type":"address"},{"components":[{"internalType":"string","name":"name","type":"string"},{"internalType":"string","name":"description","type":"string"},{"internalType":"string","name":"image","type":"string"},{"internalType":"string","name":"externalUrl","type":"string"},{"internalType":"string","name":"animationUrl","type":"string"},{"internalType":"string","name":"attributesIpfsHash","type":"string"}],"internalType":"struct IMetadataModule.Metadata","name":"newMetadata","type":"tuple"}],"name":"requestWrappedSongReleaseWithMetadata","outputs":[],"stateMutability":"payable","type":"function"},{"inputs":[],"name":"reviewPeriodDays","outputs":[{"internalType":"uint256","name":"","type":"uint256"}],"stateMutability":"view","type":"function"},{"inputs":[{"internalType":"address","name":"","type":"address"}],"name":"reviewPeriods","outputs":[{"internalType":"uint256","name":"startTime","type":"uint256"},{"internalType":"uint256","name":"endTime","type":"uint256"},{"internalType":"address","name":"distributor","type":"address"}],"stateMutability":"view","type":"function"},{"inputs":[{"internalType":"address","name":"_contractAddress","type":"address"},{"internalType":"bool","name":"_isAuthorized","type":"bool"}],"name":"setAuthorizedContract","outputs":[],"stateMutability":"nonpayable","type":"function"},{"inputs":[{"internalType":"string","name":"_baseURI","type":"string"}],"name":"setBaseURI","outputs":[],"stateMutability":"nonpayable","type":"function"},{"inputs":[{"internalType":"uint256","name":"_index","type":"uint256"}],"name":"setCurrentStablecoinIndex","outputs":[],"stateMutability":"nonpayable","type":"function"},{"inputs":[{"internalType":"uint256","name":"_fee","type":"uint256"}],"name":"setDistributorCreationFee","outputs":[],"stateMutability":"nonpayable","type":"function"},{"inputs":[{"internalType":"address","name":"_newFactory","type":"address"}],"name":"setDistributorWalletFactory","outputs":[],"stateMutability":"nonpayable","type":"function"},{"inputs":[{"internalType":"address","name":"_erc20whitelist","type":"address"}],"name":"setERC20Whitelist","outputs":[],"stateMutability":"nonpayable","type":"function"},{"inputs":[{"internalType":"address","name":"_legalContractMetadata","type":"address"}],"name":"setLegalContractMetadata","outputs":[],"stateMutability":"nonpayable","type":"function"},{"inputs":[{"internalType":"uint256","name":"_duration","type":"uint256"}],"name":"setMaxSaleDuration","outputs":[],"stateMutability":"nonpayable","type":"function"},{"inputs":[{"internalType":"address","name":"_metadataModule","type":"address"}],"name":"setMetadataModule","outputs":[],"stateMutability":"nonpayable","type":"function"},{"inputs":[{"internalType":"address","name":"_renderer","type":"address"}],"name":"setMetadataRenderer","outputs":[],"stateMutability":"nonpayable","type":"function"},{"inputs":[{"internalType":"address","name":"owner","type":"address"},{"internalType":"address","name":"wrappedSong","type":"address"}],"name":"setOwnerWrappedSong","outputs":[],"stateMutability":"nonpayable","type":"function"},{"inputs":[{"internalType":"bool","name":"_payInStablecoin","type":"bool"}],"name":"setPayInStablecoin","outputs":[],"stateMutability":"nonpayable","type":"function"},{"inputs":[{"internalType":"uint256","name":"_fee","type":"uint256"}],"name":"setReleaseFee","outputs":[],"stateMutability":"nonpayable","type":"function"},{"inputs":[{"internalType":"bool","name":"_enabled","type":"bool"}],"name":"setReleasesEnabled","outputs":[],"stateMutability":"nonpayable","type":"function"},{"inputs":[{"internalType":"uint256","name":"_days","type":"uint256"}],"name":"setReviewPeriodDays","outputs":[],"stateMutability":"nonpayable","type":"function"},{"inputs":[{"internalType":"address","name":"smartAccount","type":"address"},{"internalType":"address","name":"wsToken","type":"address"}],"name":"setSmartAccountToWSToken","outputs":[],"stateMutability":"nonpayable","type":"function"},{"inputs":[{"internalType":"uint256","name":"newFee","type":"uint256"}],"name":"setStartSaleFee","outputs":[],"stateMutability":"nonpayable","type":"function"},{"inputs":[{"internalType":"uint256","name":"_fee","type":"uint256"}],"name":"setUpdateMetadataFee","outputs":[],"stateMutability":"nonpayable","type":"function"},{"inputs":[{"internalType":"address","name":"wsTokenManagement","type":"address"}],"name":"setWSTokenFromProtocol","outputs":[],"stateMutability":"nonpayable","type":"function"},{"inputs":[{"internalType":"address","name":"_whitelistingManager","type":"address"}],"name":"setWhitelistingManager","outputs":[],"stateMutability":"nonpayable","type":"function"},{"inputs":[{"internalType":"uint256","name":"_feePercentage","type":"uint256"}],"name":"setWithdrawalFeePercentage","outputs":[],"stateMutability":"nonpayable","type":"function"},{"inputs":[{"internalType":"address","name":"wrappedSong","type":"address"},{"internalType":"bool","name":"_isAuthentic","type":"bool"}],"name":"setWrappedSongAuthenticity","outputs":[],"stateMutability":"nonpayable","type":"function"},{"inputs":[{"internalType":"uint256","name":"_fee","type":"uint256"}],"name":"setWrappedSongCreationFee","outputs":[],"stateMutability":"nonpayable","type":"function"},{"inputs":[{"internalType":"address","name":"_wrappedSongFactory","type":"address"}],"name":"setWrappedSongFactory","outputs":[],"stateMutability":"nonpayable","type":"function"},{"inputs":[{"internalType":"address","name":"","type":"address"}],"name":"smartAccountToWSToken","outputs":[{"internalType":"address","name":"","type":"address"}],"stateMutability":"view","type":"function"},{"inputs":[{"internalType":"address","name":"newOwner","type":"address"}],"name":"transferOwnership","outputs":[],"stateMutability":"nonpayable","type":"function"},{"inputs":[],"name":"unpause","outputs":[],"stateMutability":"nonpayable","type":"function"},{"inputs":[{"internalType":"address","name":"","type":"address"}],"name":"upcRegistry","outputs":[{"internalType":"string","name":"","type":"string"}],"stateMutability":"view","type":"function"},{"inputs":[],"name":"updateMetadataFee","outputs":[{"internalType":"uint256","name":"","type":"uint256"}],"stateMutability":"view","type":"function"},{"inputs":[{"internalType":"address","name":"token","type":"address"}],"name":"whitelistToken","outputs":[],"stateMutability":"nonpayable","type":"function"},{"inputs":[],"name":"whitelistingManager","outputs":[{"internalType":"contract IWhitelistingManager","name":"","type":"address"}],"stateMutability":"view","type":"function"},{"inputs":[{"internalType":"address","name":"token","type":"address"},{"internalType":"address","name":"recipient","type":"address"}],"name":"withdrawAccumulatedFees","outputs":[],"stateMutability":"nonpayable","type":"function"},{"inputs":[],"name":"withdrawalFeePercentage","outputs":[{"internalType":"uint256","name":"","type":"uint256"}],"stateMutability":"view","type":"function"},{"inputs":[{"internalType":"address","name":"","type":"address"}],"name":"wrappedSongAuthenticity","outputs":[{"internalType":"bool","name":"","type":"bool"}],"stateMutability":"view","type":"function"},{"inputs":[],"name":"wrappedSongCreationFee","outputs":[{"internalType":"uint256","name":"","type":"uint256"}],"stateMutability":"view","type":"function"},{"inputs":[],"name":"wrappedSongFactory","outputs":[{"internalType":"contract IWrappedSongFactory","name":"","type":"address"}],"stateMutability":"view","type":"function"},{"inputs":[],"name":"wrappedSongFactoryAddress","outputs":[{"internalType":"address","name":"","type":"address"}],"stateMutability":"view","type":"function"},{"inputs":[{"internalType":"address","name":"","type":"address"}],"name":"wrappedSongToDistributor","outputs":[{"internalType":"address","name":"","type":"address"}],"stateMutability":"view","type":"function"},{"stateMutability":"payable","type":"receive"}],"evm":{"bytecode":{"linkReferences":{},"object":"6080346200016157601f62003d5338819003918201601f19168301916001600160401b03831184841017620001665780849260a09460405283398101031262000161576200004d816200017c565b6200005b602083016200017c565b62000069604084016200017c565b906200008660806200007e606087016200017c565b95016200017c565b9033156200014857600054946040519560018060a01b03948580948193338382167f8be0079c531659141344cd1fd0a4f28419497f9722a3daafe3b4186f6b6457e0600080a360ff60a01b1933169060018060a81b03191617600055600180556007601e5562278d00601f55600160ff1960215416176021558160018060a01b0319991689600b541617600b551687600c541617600c551685600d541617600d551683600e541617600e551690600f541617600f55613bc19081620001928239f35b604051631e4fbdf760e01b815260006004820152602490fd5b600080fd5b634e487b7160e01b600052604160045260246000fd5b51906001600160a01b0382168203620001615756fe60406080815260048036101561001f575b5050361561001d57600080fd5b005b600091823560e01c806208ac8314612cc257806306fd88ed14611201578063088b95541461250757806309da4e5114612c995780630b1b745e14612c5e5780630bb7503114612c3f5780630c5d8da114612c1657806316eddecb14612bf2578063175b818c14612bce5780631a3b00e214612baf5780631c8370cb1461168e5780631e944d5414612b745780631f47106914612b5257806321dd882b14612b175780632490a90114612af85780632b03295f1461293e5780632cd6c9a6146122225780632fb92c5a146128b05780632fda23b71461267e578063306275be146125f45780633224d848146125a6578063358d96ab146125305780633684d10014612507578063376c1f071461234457806337c38c481461230757806337d7d5421461225d5780633aa690e7146122225780633f4ba83a146121b4578063438c9d95146121955780634905427414612176578063496d51af14611f995780634b08ec5014611df45780634bb43e5c14611db95780634da6840a14611d605780634fa71b0614611b83578063533761fe14611aec57806355f804b31461198e5780635c975abb146119695780635fb0ea9014611908578381636247f6f2146118735750806366d0ead314610cfe5780636b09d20214610e8d5780636c0360eb146117ee5780636cf563a414611835578063703199701461180c578063714c5398146117ee578063715018a6146117945780637159aa6214611746578063723ff2a21461172757806377191a6e14610c6957806377f04004146116d957806378922c8f14610e6e57806379988efd146116b757806381b539b81461168e5780638437de381461162d5780638456cb59146115ce5780638bfa25da146115805780638da5cb5b146115585780639860da00146115065780639f58bfaa146114a5578063a4144de6146112b5578063a4198fa21461123f578063a449357514611201578063a951583b1461118b578063ac581b3a14611162578063b0c70e2714611083578063b5af090f14611024578063be94e31914610f32578063c4bec00614610f14578063c67ca8e714610ec8578063c7be5e2a14610e8d578063c8f5f4e814610e6e578063ccad87f014610d85578063cd36bc9a14610d3c578063d5b9221b14610cfe578063d9ce7b9514610cb1578063d9fa987914610c92578063dbd15d5314610c69578063dfef968114610a82578063e482936914610a0c578063e72cfcb8146109b9578063eb6ed3301461099c578063ec691a5914610926578063f140b55f1461089d578063f2fa73921461084b578063f2fde38b146107bf578063f5260369146106ba578063fcf666641461067e578063fd4fe8a8146105ca578063ff4884f8146105025763ffc5a46f146104165750610010565b60603660031901126104ed578261042b612d9a565b92610434612db5565b926044356001600160401b0381116104fe576104539036908401613060565b9161046260ff6021541661324f565b61046c858761374e565b6104758661338b565b600e546001600160a01b0391908216803b156104fa57859283896104ba875198899687958694635dc447ed60e01b86521690840152886024840152604483019061329b565b03925af19081156104f157506104d9575b50506104d6916139c8565b80f35b6104e290612e05565b6104ed5782386104cb565b8280fd5b513d84823e3d90fd5b8580fd5b8380fd5b50346104ed57806003193601126104ed5761051b612d9a565b91610524612db5565b9061052d6131f1565b600a546001600160a01b039485916105489083163314613af5565b169283865260086020528520805491680100000000000000008310156105b757508161057a9160018794018155613179565b949092169382549060031b9185831b921b19161790557f4cda7c30666ce0c5304ba2d323cdee5f647baac385d8e0cb2f706641c95043af8380a380f35b634e487b7160e01b875260419052602486fd5b50346104ed5760203660031901126104ed576105e4612d9a565b6105ec6131c5565b6001600160a01b031691821561063c5750601a80546001600160a01b03191683179055519081527f60a886c8dc324af9c6d6a1bf7369ffe7557ef345eb5717bceffb59beac879a0a90602090a180f35b6020606492519162461bcd60e51b8352820152601860248201527f496e76616c69642072656e6465726572206164647265737300000000000000006044820152fd5b8382346106b65760203660031901126106b65760209181906001600160a01b036106a6612d9a565b168152601d845220549051908152f35b5080fd5b50346104ed576020806003193601126104fe576001600160a01b039281846106e0612d9a565b1694858752601582526106f98186892054163314613a6b565b600b541691602485518094819363d42fe23160e01b835233908301525afa9081156107b557600292610738600095936018938991610788575b50613a1f565b8587526015815282872080546001600160a01b031916905552842082815560018101839055015533907fc507cac5427f24391d3862582c450f4840191f3fb50ae93ea8eb3e5d0a27241a8380a380f35b6107a89150833d85116107ae575b6107a08183612e49565b810190613661565b38610732565b503d610796565b83513d87823e3d90fd5b5090346104ed5760203660031901126104ed576107da612d9a565b906107e36131c5565b6001600160a01b03918216928315610835575050600054826001600160601b0360a01b821617600055167f8be0079c531659141344cd1fd0a4f28419497f9722a3daafe3b4186f6b6457e0600080a380f35b51631e4fbdf760e01b8152908101849052602490fd5b8382346106b657806003193601126106b6576104d690610869612d9a565b906108726131b6565b9161087b6131c5565b60018060a01b03168452601760205283209060ff801983541691151516179055565b50346104ed5760203660031901126104ed5760206108b9612d9a565b600c54835163f140b55f60e01b81526001600160a01b039283169581019590955284916024918391165afa91821561091c57602093926108fd575b50519015158152f35b610915919250833d81116107ae576107a08183612e49565b90386108f4565b81513d85823e3d90fd5b8382346106b65760203660031901126106b65760207fa01edaa3cd8a419b7bb45b34f35e84da238af9490eca1b318cb579f3179e29e491610965612d9a565b61096d6131c5565b6001600160a01b031690610982821515613ab7565b600f80546001600160a01b0319168317905551908152a180f35b8382346106b657816003193601126106b657602090516103e88152f35b8382346106b65760203660031901126106b6576060916001600160a01b0391908190836109e4612d9a565b1681526018602052209081549260026001840154930154169181519384526020840152820152f35b8382346106b65760203660031901126106b65760207fcede453a12a109bc98cf30c47be25a27dcd045508461cc9e9669a0185b648b8991610a4b612d9a565b610a536131c5565b6001600160a01b031690610a68821515613ab7565b600d80546001600160a01b0319168317905551908152a180f35b509190346106b657610a9336613137565b610a9e9491946131f1565b60018060a01b03809516928385526020956014875283862054163303610c265783855260118652828520908251906001600160401b0382116105b75750610ae58254612dcb565b601f8111610be3575b5086601f8211600114610b69578697610b5893836003979694608094600080516020613b6c8339815191529a9b91610b5e575b508160011b91600019908a1b1c19161790555b84519585879687528601526255504360e81b60608601528401526080830190612fd9565b0390a280f35b905085015138610b21565b82875287872090601f198316885b818110610bcc575093600184608094600080516020613b6c8339815191529a9b9c9460039a9997610b589910610bb4575b5050811b019055610b34565b870151600019838c1b60f8161c191690553880610ba8565b91928a60018192868a015181550194019201610b77565b828752878720601f830160051c810191898410610c1c575b601f0160051c01905b818110610c115750610aee565b878155600101610c04565b9091508190610bfb565b825162461bcd60e51b8152908101869052601c60248201527f4f6e6c79206469737472696275746f722063616e2073657420555043000000006044820152606490fd5b8382346106b657816003193601126106b657600f5490516001600160a01b039091168152602090f35b8382346106b657816003193601126106b657602090601b549051908152f35b8382346106b65760203660031901126106b657610ccc612d9a565b600a546001600160a01b039190610ce69083163314613af5565b16825260196020528120805460ff1916600117905580f35b8382346106b65760203660031901126106b65760209160ff9082906001600160a01b03610d29612d9a565b1681526017855220541690519015158152f35b8382600319360112610d82576104d6610d53612d9a565b610d5b612db5565b90610d6a60ff6021541661324f565b610d74828261374e565b610d7d8161338b565b6139c8565b80fd5b5090346104ed5760203660031901126104ed576001600160a01b039081610daa612d9a565b1692838552601860205280852091815192610dc484612e2e565b80548452828560026001840154938460208901520154169401938452421115610e2c575060026000918587526018602052862082815582600182015501555116907ffbea9ba5ee98f3c8b5c04ea0c944ead3100801a041d88f0c7e90d404ddac1c6a8380a380f35b6020606492519162461bcd60e51b8352820152601d60248201527f52657669657720706572696f6420686173206e6f7420657870697265640000006044820152fd5b8382346106b657816003193601126106b657602090601c549051908152f35b8382346106b65760203660031901126106b6576020916001600160a01b0390829082610eb7612d9a565b168152601585522054169051908152f35b50346104ed5760203660031901126104ed57816020917f27ee93bf85897822eaa83c84de291bb575ef9d2bea9a01ddfc8326190940700493358092610f0b6131c5565b5551908152a180f35b5090346104ed57826003193601126104ed5760209250549051908152f35b5090346104ed57816003193601126104ed57610f4c612d9a565b91610f556131b6565b91610f5e6131f1565b6001600160a01b039384168086526014602052828620549094163303610fcd57507fb54df1287f3d7012d0c033203342de84104f09a34d968f171bff51825d6cf5449160209184865260168352610fc3828288209060ff801983541691151516179055565b519015158152a280f35b6020608492519162461bcd60e51b8352820152602c60248201527f4f6e6c79206469737472696275746f722063616e207365742061757468656e7460448201526b69636974792073746174757360a01b6064820152fd5b50346104ed5760203660031901126104ed576020611040612d9a565b600d54835163b5af090f60e01b81526001600160a01b039283169581019590955284916024918391165afa91821561091c57602093926108fd5750519015158152f35b50346104ed576020806003193601126104fe576001600160a01b039281846110a9612d9a565b1694858752601582526110c28186892054163314613a6b565b600b541691602485518094819363d42fe23160e01b835233908301525afa9081156107b5576002926111006000959360189389916107885750613a1f565b858752601481528287206001600160601b0360a01b90338282541617905560158252838820908154169055528420828155826001820155015533907f1ec2d15be1d4041a85003ee3860453fb0818606e3ccda6f18c41e692a25d5eea8380a380f35b8382346106b657816003193601126106b657600c5490516001600160a01b039091168152602090f35b8382346106b65760203660031901126106b65760207f39a2470dcb92def89f4d008f638ab6d63ac78547bf3d6ccfebf542711a0503c7916111ca612d9a565b6111d26131c5565b6001600160a01b0316906111e7821515613ab7565b600c80546001600160a01b0319168317905551908152a180f35b8382346106b65760203660031901126106b65760209160ff9082906001600160a01b0361122c612d9a565b1681526016855220541690519015158152f35b8382346106b65760203660031901126106b65760207f12e10e0acd0f94fc9b2d033a01586c1255f1d396a6a2ce1c02cc9fca057744589161127e612d9a565b6112866131c5565b6001600160a01b03169061129b821515613ab7565b600e80546001600160a01b0319168317905551908152a180f35b5090346104ed576112c536613137565b6112d09391936131f1565b6001600160a01b03938416808652601460209081528387205491959091163303611463578486526012815282862082516001600160401b038111611450576113188254612dcb565b601f811161140d575b5082601f82116001146113955792600080516020613b6c8339815191529695949282608093610b58968c9161138a575b508160011b916000199060031b1c19161790555b8451958587968752860152634953574360e01b60608601528401526080830190612fd9565b905085015138611351565b82895283892090601f1983168a5b8181106113f6575083610b589693600080516020613b6c8339815191529a99989693608096600194106113dd575b5050811b019055611365565b87015160001960f88460031b161c1916905538806113d1565b91928660018192868b0151815501940192016113a3565b828952838920601f830160051c810191858410611446575b601f0160051c01905b81811061143b5750611321565b89815560010161142e565b9091508190611425565b634e487b7160e01b885260418652602488fd5b8360649184519162461bcd60e51b8352820152601d60248201527f4f6e6c79206469737472696275746f722063616e2073657420495357430000006044820152fd5b8382346106b65760203660031901126106b65760207fc42d410f496ad2dfdbe03a4e5c1c714a8091596f6191b9b64a90d67d5f008990916114e46131a7565b6114ec6131c5565b15159060ff196006541660ff83161760065551908152a180f35b8382346106b65760203660031901126106b657611554916115419082906001600160a01b03611533612d9a565b168152601360205220612f13565b9051918291602083526020830190612fd9565b0390f35b8382346106b657816003193601126106b657905490516001600160a01b039091168152602090f35b5090346104ed5760203660031901126104ed577fd4d82b8c259d09036a9ed2baf6867c5e54dccab39d04fd233b20827303df5f129160209135906115c26131c5565b8160035551908152a180f35b8382346106b657816003193601126106b65760207f62e78cea01bee320cd4e420270b5ea74000d11b0c9f74754ebdbfc544b05a2589161160c6131c5565b6116146131f1565b835460ff60a01b1916600160a01b17845551338152a180f35b8382346106b65760203660031901126106b65760207fb5bb594c95eb864915724f4025ebea72bd6b2c96ee4243baceea4d04365efb689161166c6131a7565b6116746131c5565b15159060ff196021541660ff83161760215551908152a180f35b8382346106b657816003193601126106b657600a5490516001600160a01b039091168152602090f35b5050346106b65760203660031901126106b6576116d26131c5565b3560075580f35b5090346104ed5760203660031901126104ed577f295f11816c8a8a66cf041fb88e0e1fa756cb9017dffa76c760980a5d52a26cf291602091359061171b6131c5565b8160055551908152a180f35b8382346106b657816003193601126106b657602090601f549051908152f35b5090346104ed5760203660031901126104ed577f1848f86a1772cf74c666a7db07dd66df4942583c365ea0f63bf434245a56f3559160209135906117886131c5565b81601b5551908152a180f35b8334610d825780600319360112610d82576117ad6131c5565b600080546001600160a01b0319811682556001600160a01b03167f8be0079c531659141344cd1fd0a4f28419497f9722a3daafe3b4186f6b6457e08280a380f35b8382346106b657816003193601126106b65761155490611541612e6a565b8382346106b657816003193601126106b657601a5490516001600160a01b039091168152602090f35b8382346106b65760203660031901126106b65760209160ff9082906001600160a01b03611860612d9a565b1681526019855220541690519015158152f35b808484346119045760203660031901126119045761188f612d9a565b83546001600160a01b03908116331480156118f7575b6118ae90613212565b80600d5416803b156104fa5785928360249286519788958694633123fb7960e11b865216908401525af19081156104f157506118e75750f35b6118f090612e05565b610d825780f35b50600d54811633146118a5565b5050fd5b5090346104ed5760203660031901126104ed578035916119266131c5565b6103e88311611937575050601c5580f35b906020606492519162461bcd60e51b8352820152600c60248201526b08ccaca40e8dede40d0d2ced60a31b6044820152fd5b8382346106b657816003193601126106b65760ff6020925460a01c1690519015158152f35b828434610d82576020806003193601126106b6576001600160401b0383358181116104fe576119c09036908601613019565b936119c96131c5565b8451918211611ad957506119dd8254612dcb565b601f8111611a8a575b5081601f8211600114611a2057839482939492611a15575b50508160011b916000199060031b1c191617905580f35b0151905084806119fe565b828452600080516020613b4c83398151915290601f198316855b818110611a7357509583600195969710611a5a575b505050811b01905580f35b015160001960f88460031b161c19169055848080611a4f565b91928560018192868b015181550194019201611a3a565b828452600080516020613b4c833981519152601f830160051c810191848410611acf575b601f0160051c01905b818110611ac457506119e6565b848155600101611ab7565b9091508190611aae565b634e487b7160e01b845260419052602483fd5b50346104ed5760203660031901126104ed57813591611b096131c5565b8215611b415750816020917f7be9264fd4bacf6ffdd1cbfbe4fb3751923b2540828adf64102e4f5b096a7fe593601f5551908152a180f35b6020606492519162461bcd60e51b8352820152601f60248201527f4475726174696f6e206d7573742062652067726561746572207468616e2030006044820152fd5b5090346104ed57611b9336613137565b611b9e9391936131f1565b6001600160a01b03938416808652601460209081528387205491959091163303611d1e578486526013815282862082516001600160401b03811161145057611be68254612dcb565b601f8111611cdb575b5082601f8211600114611c635792600080516020613b6c8339815191529695949282608093610b58968c91611c58575b508160011b916000199060031b1c19161790555b8451958587968752860152634953434360e01b60608601528401526080830190612fd9565b905085015138611c1f565b82895283892090601f1983168a5b818110611cc4575083610b589693600080516020613b6c8339815191529a9998969360809660019410611cab575b5050811b019055611c33565b87015160001960f88460031b161c191690553880611c9f565b91928660018192868b015181550194019201611c71565b828952838920601f830160051c810191858410611d14575b601f0160051c01905b818110611d095750611bef565b898155600101611cfc565b9091508190611cf3565b8360649184519162461bcd60e51b8352820152601d60248201527f4f6e6c79206469737472696275746f722063616e2073657420495343430000006044820152fd5b8382346106b657806003193601126106b657611d7a612d9a565b6001600160a01b039081168352600860205281832080546024359490851015610d825750602093611daa91613179565b92905490519260031b1c168152f35b8382346106b65760203660031901126106b657611554916115419082906001600160a01b03611de6612d9a565b168152601260205220612f13565b5090346104ed57602090816003193601126104fe576001600160a01b0380611e1a612d9a565b1693848652601584528181872054163303611f405760248483600b541683519283809263d42fe23160e01b825233898301525afa908115611f365790611e66918891611f1f5750613a1f565b84865260158452808620926001600160601b0360a01b93848154169055601e54906201518091828102928184041490151715611f0c575090611eaa60029242613319565b815191611eb683612e2e565b428352868301918252601881840197338952898b5252882091518255516001820155019251169082541617905533907f0410af91d3fc953f1f383fde268b1cf5278d116a88123c657df6685f443359418380a380f35b634e487b7160e01b885260119052602487fd5b6107a89150863d88116107ae576107a08183612e49565b82513d89823e3d90fd5b6084939150519162461bcd60e51b8352820152602e60248201527f4f6e6c792070656e64696e67206469737472696275746f722063616e2061636360448201526d65707420666f722072657669657760901b6064820152fd5b5090346104ed57611fa936613137565b611fb49391936131f1565b6001600160a01b03938416808652601460209081528387205491959091163303612134578486526010815282862082516001600160401b03811161145057611ffc8254612dcb565b601f81116120f1575b5082601f82116001146120795792600080516020613b6c8339815191529695949282608093610b58968c9161206e575b508160011b916000199060031b1c19161790555b8451958587968752860152634953524360e01b60608601528401526080830190612fd9565b905085015138612035565b82895283892090601f1983168a5b8181106120da575083610b589693600080516020613b6c8339815191529a99989693608096600194106120c1575b5050811b019055612049565b87015160001960f88460031b161c1916905538806120b5565b91928660018192868b015181550194019201612087565b828952838920601f830160051c81019185841061212a575b601f0160051c01905b81811061211f5750612005565b898155600101612112565b9091508190612109565b8360649184519162461bcd60e51b8352820152601d60248201527f4f6e6c79206469737472696275746f722063616e2073657420495352430000006044820152fd5b8382346106b657816003193601126106b6576020906007549051908152f35b8382346106b657816003193601126106b6576020906002549051908152f35b5090346104ed57826003193601126104ed576121ce6131c5565b82549060ff8260a01c1615612214575060ff60a01b19168255513381527f5db9ee0a495bf2e6ff9c91a7834c1ba4fdd244a5e8aa4e537bd38aeae4b073aa90602090a180f35b8251638dfc202b60e01b8152fd5b8382346106b65760203660031901126106b6576020916001600160a01b039082908261224c612d9a565b168152601485522054169051908152f35b8382346106b6576020806003193601126104ed576001600160a01b039283612283612d9a565b1681526008825282812091835190818185549182815201908195855282852090855b8181106122f157505050826122bb910383612e49565b8451948186019282875251809352850193925b8281106122db5785850386f35b83518716855293810193928101926001016122ce565b82548a16845292840192600192830192016122a5565b8382346106b65760203660031901126106b6576020916001600160a01b0390829082612331612d9a565b1681526014855220541615159051908152f35b509190346106b657826003193601126106b65761235f612d9a565b612367612db5565b61236f6131c5565b6002600154146124f757600260015560018060a01b0380921691828552602091601d8352868620549485156124be57848752601d8452868881205584156000146124395786808080898787165af16123c561333c565b501561240057507f5e110f8bc8a20b65dcc87f224bdf1cc039346e267118bae2739847f07321ffa8939495965b519586521693a36001805580f35b875162461bcd60e51b81529081018490526013602482015272115512081d1c985b9cd9995c8819985a5b1959606a1b6044820152606490fd5b875163a9059cbb60e01b85820152828416602482015260448082018890528152979060808901906001600160401b0382118a8310176124a957507f5e110f8bc8a20b65dcc87f224bdf1cc039346e267118bae2739847f07321ffa8959697986124a491835287613679565b6123f2565b604190634e487b7160e01b6000525260246000fd5b875162461bcd60e51b815290810184905260136024820152724e6f206665657320746f20776974686472617760681b6044820152606490fd5b8451633ee5aeb560e01b81528390fd5b8382346106b657816003193601126106b657600e5490516001600160a01b039091168152602090f35b8382346106b65760203660031901126106b65760207f820c11a553e3f58735f11b502c4c13b5bdaad97e61b6fe3bafe7eaf4e09e94de9161256f612d9a565b6125776131c5565b6001600160a01b03169061258c821515613ab7565b600b80546001600160a01b0319168317905551908152a180f35b5090346104ed5760203660031901126104ed577fd2f394433244b5e41aa3a9cc6fae806b7ec98210c12b000cf879e113115c93299160209135906125e86131c5565b8160025551908152a180f35b50346104ed5760203660031901126104ed578261260f612d9a565b81546001600160a01b039190821633148015612671575b61262f90613212565b81600d541690813b156104fe5783602492865197889586946318313adf60e11b865216908401525af19081156104f15750612668575080f35b6104d690612e05565b50600d5482163314612626565b508290346106b65760031991606036840112610d82576001600160401b039380358581116104ed576126b39036908301613060565b6044356001600160a01b0381811696918790036128ac5780600e54163303612869579184939161270160a09694601a541692885197889563350f69b160e11b875286015260a485019061329b565b97602435602485015260448401528288030160648301528260209788549061272882612dcb565b91828252600190868c838316928360001461284957505050600114612801575b50505082809130608483015203915afa9485156127f557819561277c575b5050506115549051928284938452830190612fd9565b90919294503d8083853e6127908185612e49565b83019284818503126104ed5780519182116104ed570182601f820112156106b6578051916127bd83612ffe565b936127ca87519586612e49565b838552858484010111610d82575082916127ec91858061155496019101612fb6565b92908480612766565b508251903d90823e3d90fd5b8a87528a9350869290600080516020613b4c8339815191525b82851061282e57505050010182808b612748565b80548486018701528998508a97508c9590940193810161281a565b9196509392508594915060ff191683830152151560051b0101918b612748565b855162461bcd60e51b8152602081860152601f60248201527f4f6e6c79206d65746164617461206d6f64756c652063616e2072656e646572006044820152606490fd5b8480fd5b5090346104ed5760203660031901126104ed576128cb612d9a565b6128d36131c5565b6001600160a01b03169182156128fb5750506001600160601b0360a01b600a541617600a5580f35b906020606492519162461bcd60e51b8352820152601760248201527f496e76616c696420666163746f727920616464726573730000000000000000006044820152fd5b5090346104ed576020806003193601126104fe576001600160a01b039182612964612d9a565b16908451638da5cb5b60e01b815283818381865afa8015612aee5785918891612ac1575b50163303612a63578186526015835283858720541615612a20578290602485600b541695848952601584528789205416918751968793849263d42fe23160e01b84528301525afa928315612a16576015936129e99187916129ff5750613a1f565b845252812080546001600160a01b031916905580f35b6107a89150843d86116107ae576107a08183612e49565b84513d87823e3d90fd5b845162461bcd60e51b8152908101839052601a60248201527f4e6f2070656e64696e672072656c6561736520726571756573740000000000006044820152606490fd5b845162461bcd60e51b8152908101839052603260248201527f4f6e6c79207772617070656420736f6e67206f776e65722063616e2072656d6f6044820152711d99481c995b19585cd9481c995c5d595cdd60721b6064820152608490fd5b612ae19150853d8711612ae7575b612ad98183612e49565b81019061336c565b38612988565b503d612acf565b86513d89823e3d90fd5b8382346106b657816003193601126106b6576020906003549051908152f35b8382346106b65760203660031901126106b657611554916115419082906001600160a01b03612b44612d9a565b168152601060205220612f13565b5050346106b65760203660031901126106b657612b6d6131c5565b35601e5580f35b8382346106b65760203660031901126106b657611554916115419082906001600160a01b03612ba1612d9a565b168152601160205220612f13565b8382346106b657816003193601126106b657602090601e549051908152f35b8382346106b657816003193601126106b65760209060ff6021541690519015158152f35b8382346106b657816003193601126106b65760209060ff6006541690519015158152f35b8382346106b657816003193601126106b657600b5490516001600160a01b039091168152602090f35b8382346106b657816003193601126106b6576020906005549051908152f35b8382346106b65760203660031901126106b6576020916001600160a01b0390829082612c88612d9a565b168152600985522054169051908152f35b8382346106b657816003193601126106b657600d5490516001600160a01b039091168152602090f35b50346104ed57806003193601126104ed57612cdb612d9a565b91612ce4612db5565b92612ced6131f1565b600a546001600160a01b03929083163303612d4c575081169182855260096020528420921691826001600160601b0360a01b8254161790557f48e8ef3819015e9b1e8d36ddbbbc8cefc90dba7f69b711bdca0c9a10b63b037f8380a380f35b608490602085519162461bcd60e51b8352820152602260248201527f4f6e6c7920666163746f72792063616e2073657420746f6b656e206d617070696044820152616e6760f01b6064820152fd5b600435906001600160a01b0382168203612db057565b600080fd5b602435906001600160a01b0382168203612db057565b90600182811c92168015612dfb575b6020831014612de557565b634e487b7160e01b600052602260045260246000fd5b91607f1691612dda565b6001600160401b038111612e1857604052565b634e487b7160e01b600052604160045260246000fd5b606081019081106001600160401b03821117612e1857604052565b90601f801991011681019081106001600160401b03821117612e1857604052565b604051906000826020918254612e7f81612dcb565b80845290600190818116908115612ef35750600114612ea9575b5050612ea792500383612e49565b565b6000858152600080516020613b4c83398151915295935091905b818310612edb575050612ea793508201013880612e99565b85548884018501529485019487945091830191612ec3565b915050612ea794925060ff191682840152151560051b8201013880612e99565b9060405191826000825492612f2784612dcb565b908184526001948581169081600014612f935750600114612f50575050612ea792500383612e49565b9093915060005260209081600020936000915b818310612f7b575050612ea793508201013880612e99565b85548884018501529485019487945091830191612f63565b915050612ea794506020925060ff191682840152151560051b8201013880612e99565b60005b838110612fc95750506000910152565b8181015183820152602001612fb9565b90602091612ff281518092818552858086019101612fb6565b601f01601f1916010190565b6001600160401b038111612e1857601f01601f191660200190565b81601f82011215612db05780359061303082612ffe565b9261303e6040519485612e49565b82845260208383010111612db057816000926020809301838601378301015290565b91909160c081840312612db057604051906001600160401b039060c0830182811184821017612e185760405282948135838111612db057816130a3918401613019565b84526020820135838111612db057816130bd918401613019565b60208501526040820135838111612db057816130da918401613019565b60408501526060820135838111612db057816130f7918401613019565b60608501526080820135838111612db05781613114918401613019565b608085015260a0820135928311612db05760a0926131329201613019565b910152565b906040600319830112612db0576004356001600160a01b0381168103612db05791602435906001600160401b038211612db05761317691600401613019565b90565b80548210156131915760005260206000200190600090565b634e487b7160e01b600052603260045260246000fd5b600435908115158203612db057565b602435908115158203612db057565b6000546001600160a01b031633036131d957565b60405163118cdaa760e01b8152336004820152602490fd5b60ff60005460a01c1661320057565b60405163d93c066560e01b8152600490fd5b1561321957565b60405162461bcd60e51b815260206004820152600e60248201526d139bdd08185d5d1a1bdc9a5e995960921b6044820152606490fd5b1561325657565b60405162461bcd60e51b815260206004820152601f60248201527f52656c6561736573206172652063757272656e746c792064697361626c6564006044820152606490fd5b6131769160a06133086132f66132e46132d26132c0875160c0885260c0880190612fd9565b60208801518782036020890152612fd9565b60408701518682036040880152612fd9565b60608601518582036060870152612fd9565b60808501518482036080860152612fd9565b9201519060a0818403910152612fd9565b9190820180921161332657565b634e487b7160e01b600052601160045260246000fd5b3d15613367573d9061334d82612ffe565b9161335b6040519384612e49565b82523d6000602084013e565b606090565b90816020910312612db057516001600160a01b0381168103612db05790565b60035480156136205760065460ff16156135015750600d5460075460408051637c70c0a360e01b815260048101929092526001600160a01b03939092909160209182908290602490829089165afa9081156134f6579085916000916134d9575b501693841561348957600354928451936323b872dd60e01b8486015233602486015230604486015260648501526064845260a084018481106001600160401b03821117612e18577f29aebcd0c90b02b955331c453efc06d743e10d2655ab14c0fa2aaec13706f2149461346091875287613679565b60035486600052601d845261347a86600020918254613319565b905560035494519485521692a3565b835162461bcd60e51b815260048101839052602360248201527f4e6f2077686974656c697374656420737461626c65636f696e20617661696c61604482015262626c6560e81b6064820152608490fd5b6134f09150833d8511612ae757612ad98183612e49565b386133eb565b84513d6000823e3d90fd5b34106135db57600090818052601d60205260408220613521348254613319565b9055600354803411613569575b506040513481526001600160a01b03909116907f29aebcd0c90b02b955331c453efc06d743e10d2655ab14c0fa2aaec13706f21490602090a3565b34033481116135c7578280808093335af161358261333c565b501561358e573861352e565b60405162461bcd60e51b8152602060048201526011602482015270115512081c99599d5b990819985a5b1959607a1b6044820152606490fd5b634e487b7160e01b83526011600452602483fd5b60405162461bcd60e51b815260206004820152601860248201527f496e636f7272656374204554482066656520616d6f756e7400000000000000006044820152606490fd5b50503461362957565b60405162461bcd60e51b815260206004820152601060248201526f119959481b9bdd081c995c5d5a5c995960821b6044820152606490fd5b90816020910312612db057518015158103612db05790565b6000806136a29260018060a01b03169360208151910182865af161369b61333c565b90836136eb565b80519081151591826136d0575b50506136b85750565b60249060405190635274afe760e01b82526004820152fd5b6136e39250602080918301019101613661565b1538806136af565b90613712575080511561370057805190602001fd5b604051630a12f52160e11b8152600490fd5b81511580613745575b613723575090565b604051639996b31560e01b81526001600160a01b039091166004820152602490fd5b50803b1561371b565b60408051638da5cb5b60e01b81526004936020936001600160a01b0392908316919085818881865afa9081156139bd579084916000916139a0575b50163303613949578281169081156138fb573b156138aa578483600b541691602486518094819363d42fe23160e01b83528b8301525afa9081156134f65760009161388d575b501561382c57600052601483528160002054166137eb57505050565b5162461bcd60e51b815291820152601d60248201527f5772617070656420736f6e6720616c72656164792072656c6561736564000000604482015260649150fd5b50505162461bcd60e51b815291820152603560248201527f496e76616c6964206469737472696275746f722077616c6c65743a206e6f74206044820152747265676973746572656420696e20666163746f727960581b606482015260849150fd5b6138a49150853d87116107ae576107a08183612e49565b386137cf565b835162461bcd60e51b8152808701869052602560248201527f4469737472696275746f722077616c6c6574206d757374206265206120636f6e6044820152641d1c9858dd60da1b6064820152608490fd5b845162461bcd60e51b8152808801879052602260248201527f496e76616c6964206469737472696275746f722077616c6c6574206164647265604482015261737360f01b6064820152608490fd5b835162461bcd60e51b8152808701869052602b60248201527f4f6e6c79207772617070656420736f6e67206f776e65722063616e207265717560448201526a6573742072656c6561736560a81b6064820152608490fd5b6139b79150873d8911612ae757612ad98183612e49565b38613789565b85513d6000823e3d90fd5b6001600160a01b03908116600081815260156020526040812080546001600160a01b0319169390941692831790935533927fef84744274082261c3a861cf791747fa0ff5d32d6b7dad92e9f777118fc002899080a4565b15613a2657565b60405162461bcd60e51b815260206004820152601a60248201527f4469737472696275746f7220646f6573206e6f742065786973740000000000006044820152606490fd5b15613a7257565b60405162461bcd60e51b815260206004820152601b60248201527f4e6f74207468652070656e64696e67206469737472696275746f7200000000006044820152606490fd5b15613abe57565b60405162461bcd60e51b815260206004820152600f60248201526e496e76616c6964206164647265737360881b6044820152606490fd5b15613afc57565b60405162461bcd60e51b815260206004820152602160248201527f4f6e6c7920666163746f72792063616e20616464207772617070656420736f6e6044820152606760f81b6064820152608490fdfec97bfaf2f8ee708c303a06d134f5ecd8389ae0432af62dc132a24118292866bba7277ea7d4dbb8f0cc254f34cf3e4ac197629ee7789dfa02f6b28a887228909ba2646970667358221220a3303f36ea5a158d12cbe86697658f5e27ba0afff3951f0a37302c49f80ec24c64736f6c63430008140033","opcodes":"PUSH1 0x80 CALLVALUE PUSH3 0x161 JUMPI PUSH1 0x1F PUSH3 0x3D53 CODESIZE DUP2 SWAP1 SUB SWAP2 DUP3 ADD PUSH1 0x1F NOT AND DUP4 ADD SWAP2 PUSH1 0x1 PUSH1 0x1 PUSH1 0x40 SHL SUB DUP4 GT DUP5 DUP5 LT OR PUSH3 0x166 JUMPI DUP1 DUP5 SWAP3 PUSH1 0xA0 SWAP5 PUSH1 0x40 MSTORE DUP4 CODECOPY DUP2 ADD SUB SLT PUSH3 0x161 JUMPI PUSH3 0x4D DUP2 PUSH3 0x17C JUMP JUMPDEST PUSH3 0x5B PUSH1 0x20 DUP4 ADD PUSH3 0x17C JUMP JUMPDEST PUSH3 0x69 PUSH1 0x40 DUP5 ADD PUSH3 0x17C JUMP JUMPDEST SWAP1 PUSH3 0x86 PUSH1 0x80 PUSH3 0x7E PUSH1 0x60 DUP8 ADD PUSH3 0x17C JUMP JUMPDEST SWAP6 ADD PUSH3 0x17C JUMP JUMPDEST SWAP1 CALLER ISZERO PUSH3 0x148 JUMPI PUSH1 0x0 SLOAD SWAP5 PUSH1 0x40 MLOAD SWAP6 PUSH1 0x1 DUP1 PUSH1 0xA0 SHL SUB SWAP5 DUP6 DUP1 SWAP5 DUP2 SWAP4 CALLER DUP4 DUP3 AND PUSH32 0x8BE0079C531659141344CD1FD0A4F28419497F9722A3DAAFE3B4186F6B6457E0 PUSH1 0x0 DUP1 LOG3 PUSH1 0xFF PUSH1 0xA0 SHL NOT CALLER AND SWAP1 PUSH1 0x1 DUP1 PUSH1 0xA8 SHL SUB NOT AND OR PUSH1 0x0 SSTORE PUSH1 0x1 DUP1 SSTORE PUSH1 0x7 PUSH1 0x1E SSTORE PUSH3 0x278D00 PUSH1 0x1F SSTORE PUSH1 0x1 PUSH1 0xFF NOT PUSH1 0x21 SLOAD AND OR PUSH1 0x21 SSTORE DUP2 PUSH1 0x1 DUP1 PUSH1 0xA0 SHL SUB NOT SWAP10 AND DUP10 PUSH1 0xB SLOAD AND OR PUSH1 0xB SSTORE AND DUP8 PUSH1 0xC SLOAD AND OR PUSH1 0xC SSTORE AND DUP6 PUSH1 0xD SLOAD AND OR PUSH1 0xD SSTORE AND DUP4 PUSH1 0xE SLOAD AND OR PUSH1 0xE SSTORE AND SWAP1 PUSH1 0xF SLOAD AND OR PUSH1 0xF SSTORE PUSH2 0x3BC1 SWAP1 DUP2 PUSH3 0x192 DUP3 CODECOPY RETURN JUMPDEST PUSH1 0x40 MLOAD PUSH4 0x1E4FBDF7 PUSH1 0xE0 SHL DUP2 MSTORE PUSH1 0x0 PUSH1 0x4 DUP3 ADD MSTORE PUSH1 0x24 SWAP1 REVERT JUMPDEST PUSH1 0x0 DUP1 REVERT JUMPDEST PUSH4 0x4E487B71 PUSH1 0xE0 SHL PUSH1 0x0 MSTORE PUSH1 0x41 PUSH1 0x4 MSTORE PUSH1 0x24 PUSH1 0x0 REVERT JUMPDEST MLOAD SWAP1 PUSH1 0x1 PUSH1 0x1 PUSH1 0xA0 SHL SUB DUP3 AND DUP3 SUB PUSH3 0x161 JUMPI JUMP INVALID PUSH1 0x40 PUSH1 0x80 DUP2 MSTORE PUSH1 0x4 DUP1 CALLDATASIZE LT ISZERO PUSH2 0x1F JUMPI JUMPDEST POP POP CALLDATASIZE ISZERO PUSH2 0x1D JUMPI PUSH1 0x0 DUP1 REVERT JUMPDEST STOP JUMPDEST PUSH1 0x0 SWAP2 DUP3 CALLDATALOAD PUSH1 0xE0 SHR DUP1 PUSH3 0x8AC83 EQ PUSH2 0x2CC2 JUMPI DUP1 PUSH4 0x6FD88ED EQ PUSH2 0x1201 JUMPI DUP1 PUSH4 0x88B9554 EQ PUSH2 0x2507 JUMPI DUP1 PUSH4 0x9DA4E51 EQ PUSH2 0x2C99 JUMPI DUP1 PUSH4 0xB1B745E EQ PUSH2 0x2C5E JUMPI DUP1 PUSH4 0xBB75031 EQ PUSH2 0x2C3F JUMPI DUP1 PUSH4 0xC5D8DA1 EQ PUSH2 0x2C16 JUMPI DUP1 PUSH4 0x16EDDECB EQ PUSH2 0x2BF2 JUMPI DUP1 PUSH4 0x175B818C EQ PUSH2 0x2BCE JUMPI DUP1 PUSH4 0x1A3B00E2 EQ PUSH2 0x2BAF JUMPI DUP1 PUSH4 0x1C8370CB EQ PUSH2 0x168E JUMPI DUP1 PUSH4 0x1E944D54 EQ PUSH2 0x2B74 JUMPI DUP1 PUSH4 0x1F471069 EQ PUSH2 0x2B52 JUMPI DUP1 PUSH4 0x21DD882B EQ PUSH2 0x2B17 JUMPI DUP1 PUSH4 0x2490A901 EQ PUSH2 0x2AF8 JUMPI DUP1 PUSH4 0x2B03295F EQ PUSH2 0x293E JUMPI DUP1 PUSH4 0x2CD6C9A6 EQ PUSH2 0x2222 JUMPI DUP1 PUSH4 0x2FB92C5A EQ PUSH2 0x28B0 JUMPI DUP1 PUSH4 0x2FDA23B7 EQ PUSH2 0x267E JUMPI DUP1 PUSH4 0x306275BE EQ PUSH2 0x25F4 JUMPI DUP1 PUSH4 0x3224D848 EQ PUSH2 0x25A6 JUMPI DUP1 PUSH4 0x358D96AB EQ PUSH2 0x2530 JUMPI DUP1 PUSH4 0x3684D100 EQ PUSH2 0x2507 JUMPI DUP1 PUSH4 0x376C1F07 EQ PUSH2 0x2344 JUMPI DUP1 PUSH4 0x37C38C48 EQ PUSH2 0x2307 JUMPI DUP1 PUSH4 0x37D7D542 EQ PUSH2 0x225D JUMPI DUP1 PUSH4 0x3AA690E7 EQ PUSH2 0x2222 JUMPI DUP1 PUSH4 0x3F4BA83A EQ PUSH2 0x21B4 JUMPI DUP1 PUSH4 0x438C9D95 EQ PUSH2 0x2195 JUMPI DUP1 PUSH4 0x49054274 EQ PUSH2 0x2176 JUMPI DUP1 PUSH4 0x496D51AF EQ PUSH2 0x1F99 JUMPI DUP1 PUSH4 0x4B08EC50 EQ PUSH2 0x1DF4 JUMPI DUP1 PUSH4 0x4BB43E5C EQ PUSH2 0x1DB9 JUMPI DUP1 PUSH4 0x4DA6840A EQ PUSH2 0x1D60 JUMPI DUP1 PUSH4 0x4FA71B06 EQ PUSH2 0x1B83 JUMPI DUP1 PUSH4 0x533761FE EQ PUSH2 0x1AEC JUMPI DUP1 PUSH4 0x55F804B3 EQ PUSH2 0x198E JUMPI DUP1 PUSH4 0x5C975ABB EQ PUSH2 0x1969 JUMPI DUP1 PUSH4 0x5FB0EA90 EQ PUSH2 0x1908 JUMPI DUP4 DUP2 PUSH4 0x6247F6F2 EQ PUSH2 0x1873 JUMPI POP DUP1 PUSH4 0x66D0EAD3 EQ PUSH2 0xCFE JUMPI DUP1 PUSH4 0x6B09D202 EQ PUSH2 0xE8D JUMPI DUP1 PUSH4 0x6C0360EB EQ PUSH2 0x17EE JUMPI DUP1 PUSH4 0x6CF563A4 EQ PUSH2 0x1835 JUMPI DUP1 PUSH4 0x70319970 EQ PUSH2 0x180C JUMPI DUP1 PUSH4 0x714C5398 EQ PUSH2 0x17EE JUMPI DUP1 PUSH4 0x715018A6 EQ PUSH2 0x1794 JUMPI DUP1 PUSH4 0x7159AA62 EQ PUSH2 0x1746 JUMPI DUP1 PUSH4 0x723FF2A2 EQ PUSH2 0x1727 JUMPI DUP1 PUSH4 0x77191A6E EQ PUSH2 0xC69 JUMPI DUP1 PUSH4 0x77F04004 EQ PUSH2 0x16D9 JUMPI DUP1 PUSH4 0x78922C8F EQ PUSH2 0xE6E JUMPI DUP1 PUSH4 0x79988EFD EQ PUSH2 0x16B7 JUMPI DUP1 PUSH4 0x81B539B8 EQ PUSH2 0x168E JUMPI DUP1 PUSH4 0x8437DE38 EQ PUSH2 0x162D JUMPI DUP1 PUSH4 0x8456CB59 EQ PUSH2 0x15CE JUMPI DUP1 PUSH4 0x8BFA25DA EQ PUSH2 0x1580 JUMPI DUP1 PUSH4 0x8DA5CB5B EQ PUSH2 0x1558 JUMPI DUP1 PUSH4 0x9860DA00 EQ PUSH2 0x1506 JUMPI DUP1 PUSH4 0x9F58BFAA EQ PUSH2 0x14A5 JUMPI DUP1 PUSH4 0xA4144DE6 EQ PUSH2 0x12B5 JUMPI DUP1 PUSH4 0xA4198FA2 EQ PUSH2 0x123F JUMPI DUP1 PUSH4 0xA4493575 EQ PUSH2 0x1201 JUMPI DUP1 PUSH4 0xA951583B EQ PUSH2 0x118B JUMPI DUP1 PUSH4 0xAC581B3A EQ PUSH2 0x1162 JUMPI DUP1 PUSH4 0xB0C70E27 EQ PUSH2 0x1083 JUMPI DUP1 PUSH4 0xB5AF090F EQ PUSH2 0x1024 JUMPI DUP1 PUSH4 0xBE94E319 EQ PUSH2 0xF32 JUMPI DUP1 PUSH4 0xC4BEC006 EQ PUSH2 0xF14 JUMPI DUP1 PUSH4 0xC67CA8E7 EQ PUSH2 0xEC8 JUMPI DUP1 PUSH4 0xC7BE5E2A EQ PUSH2 0xE8D JUMPI DUP1 PUSH4 0xC8F5F4E8 EQ PUSH2 0xE6E JUMPI DUP1 PUSH4 0xCCAD87F0 EQ PUSH2 0xD85 JUMPI DUP1 PUSH4 0xCD36BC9A EQ PUSH2 0xD3C JUMPI DUP1 PUSH4 0xD5B9221B EQ PUSH2 0xCFE JUMPI DUP1 PUSH4 0xD9CE7B95 EQ PUSH2 0xCB1 JUMPI DUP1 PUSH4 0xD9FA9879 EQ PUSH2 0xC92 JUMPI DUP1 PUSH4 0xDBD15D53 EQ PUSH2 0xC69 JUMPI DUP1 PUSH4 0xDFEF9681 EQ PUSH2 0xA82 JUMPI DUP1 PUSH4 0xE4829369 EQ PUSH2 0xA0C JUMPI DUP1 PUSH4 0xE72CFCB8 EQ PUSH2 0x9B9 JUMPI DUP1 PUSH4 0xEB6ED330 EQ PUSH2 0x99C JUMPI DUP1 PUSH4 0xEC691A59 EQ PUSH2 0x926 JUMPI DUP1 PUSH4 0xF140B55F EQ PUSH2 0x89D JUMPI DUP1 PUSH4 0xF2FA7392 EQ PUSH2 0x84B JUMPI DUP1 PUSH4 0xF2FDE38B EQ PUSH2 0x7BF JUMPI DUP1 PUSH4 0xF5260369 EQ PUSH2 0x6BA JUMPI DUP1 PUSH4 0xFCF66664 EQ PUSH2 0x67E JUMPI DUP1 PUSH4 0xFD4FE8A8 EQ PUSH2 0x5CA JUMPI DUP1 PUSH4 0xFF4884F8 EQ PUSH2 0x502 JUMPI PUSH4 0xFFC5A46F EQ PUSH2 0x416 JUMPI POP PUSH2 0x10 JUMP JUMPDEST PUSH1 0x60 CALLDATASIZE PUSH1 0x3 NOT ADD SLT PUSH2 0x4ED JUMPI DUP3 PUSH2 0x42B PUSH2 0x2D9A JUMP JUMPDEST SWAP3 PUSH2 0x434 PUSH2 0x2DB5 JUMP JUMPDEST SWAP3 PUSH1 0x44 CALLDATALOAD PUSH1 0x1 PUSH1 0x1 PUSH1 0x40 SHL SUB DUP2 GT PUSH2 0x4FE JUMPI PUSH2 0x453 SWAP1 CALLDATASIZE SWAP1 DUP5 ADD PUSH2 0x3060 JUMP JUMPDEST SWAP2 PUSH2 0x462 PUSH1 0xFF PUSH1 0x21 SLOAD AND PUSH2 0x324F JUMP JUMPDEST PUSH2 0x46C DUP6 DUP8 PUSH2 0x374E JUMP JUMPDEST PUSH2 0x475 DUP7 PUSH2 0x338B JUMP JUMPDEST PUSH1 0xE SLOAD PUSH1 0x1 PUSH1 0x1 PUSH1 0xA0 SHL SUB SWAP2 SWAP1 DUP3 AND DUP1 EXTCODESIZE ISZERO PUSH2 0x4FA JUMPI DUP6 SWAP3 DUP4 DUP10 PUSH2 0x4BA DUP8 MLOAD SWAP9 DUP10 SWAP7 DUP8 SWAP6 DUP7 SWAP5 PUSH4 0x5DC447ED PUSH1 0xE0 SHL DUP7 MSTORE AND SWAP1 DUP5 ADD MSTORE DUP9 PUSH1 0x24 DUP5 ADD MSTORE PUSH1 0x44 DUP4 ADD SWAP1 PUSH2 0x329B JUMP JUMPDEST SUB SWAP3 GAS CALL SWAP1 DUP2 ISZERO PUSH2 0x4F1 JUMPI POP PUSH2 0x4D9 JUMPI JUMPDEST POP POP PUSH2 0x4D6 SWAP2 PUSH2 0x39C8 JUMP JUMPDEST DUP1 RETURN JUMPDEST PUSH2 0x4E2 SWAP1 PUSH2 0x2E05 JUMP JUMPDEST PUSH2 0x4ED JUMPI DUP3 CODESIZE PUSH2 0x4CB JUMP JUMPDEST DUP3 DUP1 REVERT JUMPDEST MLOAD RETURNDATASIZE DUP5 DUP3 RETURNDATACOPY RETURNDATASIZE SWAP1 REVERT JUMPDEST DUP6 DUP1 REVERT JUMPDEST DUP4 DUP1 REVERT JUMPDEST POP CALLVALUE PUSH2 0x4ED JUMPI DUP1 PUSH1 0x3 NOT CALLDATASIZE ADD SLT PUSH2 0x4ED JUMPI PUSH2 0x51B PUSH2 0x2D9A JUMP JUMPDEST SWAP2 PUSH2 0x524 PUSH2 0x2DB5 JUMP JUMPDEST SWAP1 PUSH2 0x52D PUSH2 0x31F1 JUMP JUMPDEST PUSH1 0xA SLOAD PUSH1 0x1 PUSH1 0x1 PUSH1 0xA0 SHL SUB SWAP5 DUP6 SWAP2 PUSH2 0x548 SWAP1 DUP4 AND CALLER EQ PUSH2 0x3AF5 JUMP JUMPDEST AND SWAP3 DUP4 DUP7 MSTORE PUSH1 0x8 PUSH1 0x20 MSTORE DUP6 KECCAK256 DUP1 SLOAD SWAP2 PUSH9 0x10000000000000000 DUP4 LT ISZERO PUSH2 0x5B7 JUMPI POP DUP2 PUSH2 0x57A SWAP2 PUSH1 0x1 DUP8 SWAP5 ADD DUP2 SSTORE PUSH2 0x3179 JUMP JUMPDEST SWAP5 SWAP1 SWAP3 AND SWAP4 DUP3 SLOAD SWAP1 PUSH1 0x3 SHL SWAP2 DUP6 DUP4 SHL SWAP3 SHL NOT AND OR SWAP1 SSTORE PUSH32 0x4CDA7C30666CE0C5304BA2D323CDEE5F647BAAC385D8E0CB2F706641C95043AF DUP4 DUP1 LOG3 DUP1 RETURN JUMPDEST PUSH4 0x4E487B71 PUSH1 0xE0 SHL DUP8 MSTORE PUSH1 0x41 SWAP1 MSTORE PUSH1 0x24 DUP7 REVERT JUMPDEST POP CALLVALUE PUSH2 0x4ED JUMPI PUSH1 0x20 CALLDATASIZE PUSH1 0x3 NOT ADD SLT PUSH2 0x4ED JUMPI PUSH2 0x5E4 PUSH2 0x2D9A JUMP JUMPDEST PUSH2 0x5EC PUSH2 0x31C5 JUMP JUMPDEST PUSH1 0x1 PUSH1 0x1 PUSH1 0xA0 SHL SUB AND SWAP2 DUP3 ISZERO PUSH2 0x63C JUMPI POP PUSH1 0x1A DUP1 SLOAD PUSH1 0x1 PUSH1 0x1 PUSH1 0xA0 SHL SUB NOT AND DUP4 OR SWAP1 SSTORE MLOAD SWAP1 DUP2 MSTORE PUSH32 0x60A886C8DC324AF9C6D6A1BF7369FFE7557EF345EB5717BCEFFB59BEAC879A0A SWAP1 PUSH1 0x20 SWAP1 LOG1 DUP1 RETURN JUMPDEST PUSH1 0x20 PUSH1 0x64 SWAP3 MLOAD SWAP2 PUSH3 0x461BCD PUSH1 0xE5 SHL DUP4 MSTORE DUP3 ADD MSTORE PUSH1 0x18 PUSH1 0x24 DUP3 ADD MSTORE PUSH32 0x496E76616C69642072656E646572657220616464726573730000000000000000 PUSH1 0x44 DUP3 ADD MSTORE REVERT JUMPDEST DUP4 DUP3 CALLVALUE PUSH2 0x6B6 JUMPI PUSH1 0x20 CALLDATASIZE PUSH1 0x3 NOT ADD SLT PUSH2 0x6B6 JUMPI PUSH1 0x20 SWAP2 DUP2 SWAP1 PUSH1 0x1 PUSH1 0x1 PUSH1 0xA0 SHL SUB PUSH2 0x6A6 PUSH2 0x2D9A JUMP JUMPDEST AND DUP2 MSTORE PUSH1 0x1D DUP5 MSTORE KECCAK256 SLOAD SWAP1 MLOAD SWAP1 DUP2 MSTORE RETURN JUMPDEST POP DUP1 REVERT JUMPDEST POP CALLVALUE PUSH2 0x4ED JUMPI PUSH1 0x20 DUP1 PUSH1 0x3 NOT CALLDATASIZE ADD SLT PUSH2 0x4FE JUMPI PUSH1 0x1 PUSH1 0x1 PUSH1 0xA0 SHL SUB SWAP3 DUP2 DUP5 PUSH2 0x6E0 PUSH2 0x2D9A JUMP JUMPDEST AND SWAP5 DUP6 DUP8 MSTORE PUSH1 0x15 DUP3 MSTORE PUSH2 0x6F9 DUP2 DUP7 DUP10 KECCAK256 SLOAD AND CALLER EQ PUSH2 0x3A6B JUMP JUMPDEST PUSH1 0xB SLOAD AND SWAP2 PUSH1 0x24 DUP6 MLOAD DUP1 SWAP5 DUP2 SWAP4 PUSH4 0xD42FE231 PUSH1 0xE0 SHL DUP4 MSTORE CALLER SWAP1 DUP4 ADD MSTORE GAS STATICCALL SWAP1 DUP2 ISZERO PUSH2 0x7B5 JUMPI PUSH1 0x2 SWAP3 PUSH2 0x738 PUSH1 0x0 SWAP6 SWAP4 PUSH1 0x18 SWAP4 DUP10 SWAP2 PUSH2 0x788 JUMPI JUMPDEST POP PUSH2 0x3A1F JUMP JUMPDEST DUP6 DUP8 MSTORE PUSH1 0x15 DUP2 MSTORE DUP3 DUP8 KECCAK256 DUP1 SLOAD PUSH1 0x1 PUSH1 0x1 PUSH1 0xA0 SHL SUB NOT AND SWAP1 SSTORE MSTORE DUP5 KECCAK256 DUP3 DUP2 SSTORE PUSH1 0x1 DUP2 ADD DUP4 SWAP1 SSTORE ADD SSTORE CALLER SWAP1 PUSH32 0xC507CAC5427F24391D3862582C450F4840191F3FB50AE93EA8EB3E5D0A27241A DUP4 DUP1 LOG3 DUP1 RETURN JUMPDEST PUSH2 0x7A8 SWAP2 POP DUP4 RETURNDATASIZE DUP6 GT PUSH2 0x7AE JUMPI JUMPDEST PUSH2 0x7A0 DUP2 DUP4 PUSH2 0x2E49 JUMP JUMPDEST DUP2 ADD SWAP1 PUSH2 0x3661 JUMP JUMPDEST CODESIZE PUSH2 0x732 JUMP JUMPDEST POP RETURNDATASIZE PUSH2 0x796 JUMP JUMPDEST DUP4 MLOAD RETURNDATASIZE DUP8 DUP3 RETURNDATACOPY RETURNDATASIZE SWAP1 REVERT JUMPDEST POP SWAP1 CALLVALUE PUSH2 0x4ED JUMPI PUSH1 0x20 CALLDATASIZE PUSH1 0x3 NOT ADD SLT PUSH2 0x4ED JUMPI PUSH2 0x7DA PUSH2 0x2D9A JUMP JUMPDEST SWAP1 PUSH2 0x7E3 PUSH2 0x31C5 JUMP JUMPDEST PUSH1 0x1 PUSH1 0x1 PUSH1 0xA0 SHL SUB SWAP2 DUP3 AND SWAP3 DUP4 ISZERO PUSH2 0x835 JUMPI POP POP PUSH1 0x0 SLOAD DUP3 PUSH1 0x1 PUSH1 0x1 PUSH1 0x60 SHL SUB PUSH1 0xA0 SHL DUP3 AND OR PUSH1 0x0 SSTORE AND PUSH32 0x8BE0079C531659141344CD1FD0A4F28419497F9722A3DAAFE3B4186F6B6457E0 PUSH1 0x0 DUP1 LOG3 DUP1 RETURN JUMPDEST MLOAD PUSH4 0x1E4FBDF7 PUSH1 0xE0 SHL DUP2 MSTORE SWAP1 DUP2 ADD DUP5 SWAP1 MSTORE PUSH1 0x24 SWAP1 REVERT JUMPDEST DUP4 DUP3 CALLVALUE PUSH2 0x6B6 JUMPI DUP1 PUSH1 0x3 NOT CALLDATASIZE ADD SLT PUSH2 0x6B6 JUMPI PUSH2 0x4D6 SWAP1 PUSH2 0x869 PUSH2 0x2D9A JUMP JUMPDEST SWAP1 PUSH2 0x872 PUSH2 0x31B6 JUMP JUMPDEST SWAP2 PUSH2 0x87B PUSH2 0x31C5 JUMP JUMPDEST PUSH1 0x1 DUP1 PUSH1 0xA0 SHL SUB AND DUP5 MSTORE PUSH1 0x17 PUSH1 0x20 MSTORE DUP4 KECCAK256 SWAP1 PUSH1 0xFF DUP1 NOT DUP4 SLOAD AND SWAP2 ISZERO ISZERO AND OR SWAP1 SSTORE JUMP JUMPDEST POP CALLVALUE PUSH2 0x4ED JUMPI PUSH1 0x20 CALLDATASIZE PUSH1 0x3 NOT ADD SLT PUSH2 0x4ED JUMPI PUSH1 0x20 PUSH2 0x8B9 PUSH2 0x2D9A JUMP JUMPDEST PUSH1 0xC SLOAD DUP4 MLOAD PUSH4 0xF140B55F PUSH1 0xE0 SHL DUP2 MSTORE PUSH1 0x1 PUSH1 0x1 PUSH1 0xA0 SHL SUB SWAP3 DUP4 AND SWAP6 DUP2 ADD SWAP6 SWAP1 SWAP6 MSTORE DUP5 SWAP2 PUSH1 0x24 SWAP2 DUP4 SWAP2 AND GAS STATICCALL SWAP2 DUP3 ISZERO PUSH2 0x91C JUMPI PUSH1 0x20 SWAP4 SWAP3 PUSH2 0x8FD JUMPI JUMPDEST POP MLOAD SWAP1 ISZERO ISZERO DUP2 MSTORE RETURN JUMPDEST PUSH2 0x915 SWAP2 SWAP3 POP DUP4 RETURNDATASIZE DUP2 GT PUSH2 0x7AE JUMPI PUSH2 0x7A0 DUP2 DUP4 PUSH2 0x2E49 JUMP JUMPDEST SWAP1 CODESIZE PUSH2 0x8F4 JUMP JUMPDEST DUP2 MLOAD RETURNDATASIZE DUP6 DUP3 RETURNDATACOPY RETURNDATASIZE SWAP1 REVERT JUMPDEST DUP4 DUP3 CALLVALUE PUSH2 0x6B6 JUMPI PUSH1 0x20 CALLDATASIZE PUSH1 0x3 NOT ADD SLT PUSH2 0x6B6 JUMPI PUSH1 0x20 PUSH32 0xA01EDAA3CD8A419B7BB45B34F35E84DA238AF9490ECA1B318CB579F3179E29E4 SWAP2 PUSH2 0x965 PUSH2 0x2D9A JUMP JUMPDEST PUSH2 0x96D PUSH2 0x31C5 JUMP JUMPDEST PUSH1 0x1 PUSH1 0x1 PUSH1 0xA0 SHL SUB AND SWAP1 PUSH2 0x982 DUP3 ISZERO ISZERO PUSH2 0x3AB7 JUMP JUMPDEST PUSH1 0xF DUP1 SLOAD PUSH1 0x1 PUSH1 0x1 PUSH1 0xA0 SHL SUB NOT AND DUP4 OR SWAP1 SSTORE MLOAD SWAP1 DUP2 MSTORE LOG1 DUP1 RETURN JUMPDEST DUP4 DUP3 CALLVALUE PUSH2 0x6B6 JUMPI DUP2 PUSH1 0x3 NOT CALLDATASIZE ADD SLT PUSH2 0x6B6 JUMPI PUSH1 0x20 SWAP1 MLOAD PUSH2 0x3E8 DUP2 MSTORE RETURN JUMPDEST DUP4 DUP3 CALLVALUE PUSH2 0x6B6 JUMPI PUSH1 0x20 CALLDATASIZE PUSH1 0x3 NOT ADD SLT PUSH2 0x6B6 JUMPI PUSH1 0x60 SWAP2 PUSH1 0x1 PUSH1 0x1 PUSH1 0xA0 SHL SUB SWAP2 SWAP1 DUP2 SWAP1 DUP4 PUSH2 0x9E4 PUSH2 0x2D9A JUMP JUMPDEST AND DUP2 MSTORE PUSH1 0x18 PUSH1 0x20 MSTORE KECCAK256 SWAP1 DUP2 SLOAD SWAP3 PUSH1 0x2 PUSH1 0x1 DUP5 ADD SLOAD SWAP4 ADD SLOAD AND SWAP2 DUP2 MLOAD SWAP4 DUP5 MSTORE PUSH1 0x20 DUP5 ADD MSTORE DUP3 ADD MSTORE RETURN JUMPDEST DUP4 DUP3 CALLVALUE PUSH2 0x6B6 JUMPI PUSH1 0x20 CALLDATASIZE PUSH1 0x3 NOT ADD SLT PUSH2 0x6B6 JUMPI PUSH1 0x20 PUSH32 0xCEDE453A12A109BC98CF30C47BE25A27DCD045508461CC9E9669A0185B648B89 SWAP2 PUSH2 0xA4B PUSH2 0x2D9A JUMP JUMPDEST PUSH2 0xA53 PUSH2 0x31C5 JUMP JUMPDEST PUSH1 0x1 PUSH1 0x1 PUSH1 0xA0 SHL SUB AND SWAP1 PUSH2 0xA68 DUP3 ISZERO ISZERO PUSH2 0x3AB7 JUMP JUMPDEST PUSH1 0xD DUP1 SLOAD PUSH1 0x1 PUSH1 0x1 PUSH1 0xA0 SHL SUB NOT AND DUP4 OR SWAP1 SSTORE MLOAD SWAP1 DUP2 MSTORE LOG1 DUP1 RETURN JUMPDEST POP SWAP2 SWAP1 CALLVALUE PUSH2 0x6B6 JUMPI PUSH2 0xA93 CALLDATASIZE PUSH2 0x3137 JUMP JUMPDEST PUSH2 0xA9E SWAP5 SWAP2 SWAP5 PUSH2 0x31F1 JUMP JUMPDEST PUSH1 0x1 DUP1 PUSH1 0xA0 SHL SUB DUP1 SWAP6 AND SWAP3 DUP4 DUP6 MSTORE PUSH1 0x20 SWAP6 PUSH1 0x14 DUP8 MSTORE DUP4 DUP7 KECCAK256 SLOAD AND CALLER SUB PUSH2 0xC26 JUMPI DUP4 DUP6 MSTORE PUSH1 0x11 DUP7 MSTORE DUP3 DUP6 KECCAK256 SWAP1 DUP3 MLOAD SWAP1 PUSH1 0x1 PUSH1 0x1 PUSH1 0x40 SHL SUB DUP3 GT PUSH2 0x5B7 JUMPI POP PUSH2 0xAE5 DUP3 SLOAD PUSH2 0x2DCB JUMP JUMPDEST PUSH1 0x1F DUP2 GT PUSH2 0xBE3 JUMPI JUMPDEST POP DUP7 PUSH1 0x1F DUP3 GT PUSH1 0x1 EQ PUSH2 0xB69 JUMPI DUP7 SWAP8 PUSH2 0xB58 SWAP4 DUP4 PUSH1 0x3 SWAP8 SWAP7 SWAP5 PUSH1 0x80 SWAP5 PUSH1 0x0 DUP1 MLOAD PUSH1 0x20 PUSH2 0x3B6C DUP4 CODECOPY DUP2 MLOAD SWAP2 MSTORE SWAP11 SWAP12 SWAP2 PUSH2 0xB5E JUMPI JUMPDEST POP DUP2 PUSH1 0x1 SHL SWAP2 PUSH1 0x0 NOT SWAP1 DUP11 SHL SHR NOT AND OR SWAP1 SSTORE JUMPDEST DUP5 MLOAD SWAP6 DUP6 DUP8 SWAP7 DUP8 MSTORE DUP7 ADD MSTORE PUSH3 0x555043 PUSH1 0xE8 SHL PUSH1 0x60 DUP7 ADD MSTORE DUP5 ADD MSTORE PUSH1 0x80 DUP4 ADD SWAP1 PUSH2 0x2FD9 JUMP JUMPDEST SUB SWAP1 LOG2 DUP1 RETURN JUMPDEST SWAP1 POP DUP6 ADD MLOAD CODESIZE PUSH2 0xB21 JUMP JUMPDEST DUP3 DUP8 MSTORE DUP8 DUP8 KECCAK256 SWAP1 PUSH1 0x1F NOT DUP4 AND DUP9 JUMPDEST DUP2 DUP2 LT PUSH2 0xBCC JUMPI POP SWAP4 PUSH1 0x1 DUP5 PUSH1 0x80 SWAP5 PUSH1 0x0 DUP1 MLOAD PUSH1 0x20 PUSH2 0x3B6C DUP4 CODECOPY DUP2 MLOAD SWAP2 MSTORE SWAP11 SWAP12 SWAP13 SWAP5 PUSH1 0x3 SWAP11 SWAP10 SWAP8 PUSH2 0xB58 SWAP10 LT PUSH2 0xBB4 JUMPI JUMPDEST POP POP DUP2 SHL ADD SWAP1 SSTORE PUSH2 0xB34 JUMP JUMPDEST DUP8 ADD MLOAD PUSH1 0x0 NOT DUP4 DUP13 SHL PUSH1 0xF8 AND SHR NOT AND SWAP1 SSTORE CODESIZE DUP1 PUSH2 0xBA8 JUMP JUMPDEST SWAP2 SWAP3 DUP11 PUSH1 0x1 DUP2 SWAP3 DUP7 DUP11 ADD MLOAD DUP2 SSTORE ADD SWAP5 ADD SWAP3 ADD PUSH2 0xB77 JUMP JUMPDEST DUP3 DUP8 MSTORE DUP8 DUP8 KECCAK256 PUSH1 0x1F DUP4 ADD PUSH1 0x5 SHR DUP2 ADD SWAP2 DUP10 DUP5 LT PUSH2 0xC1C JUMPI JUMPDEST PUSH1 0x1F ADD PUSH1 0x5 SHR ADD SWAP1 JUMPDEST DUP2 DUP2 LT PUSH2 0xC11 JUMPI POP PUSH2 0xAEE JUMP JUMPDEST DUP8 DUP2 SSTORE PUSH1 0x1 ADD PUSH2 0xC04 JUMP JUMPDEST SWAP1 SWAP2 POP DUP2 SWAP1 PUSH2 0xBFB JUMP JUMPDEST DUP3 MLOAD PUSH3 0x461BCD PUSH1 0xE5 SHL DUP2 MSTORE SWAP1 DUP2 ADD DUP7 SWAP1 MSTORE PUSH1 0x1C PUSH1 0x24 DUP3 ADD MSTORE PUSH32 0x4F6E6C79206469737472696275746F722063616E207365742055504300000000 PUSH1 0x44 DUP3 ADD MSTORE PUSH1 0x64 SWAP1 REVERT JUMPDEST DUP4 DUP3 CALLVALUE PUSH2 0x6B6 JUMPI DUP2 PUSH1 0x3 NOT CALLDATASIZE ADD SLT PUSH2 0x6B6 JUMPI PUSH1 0xF SLOAD SWAP1 MLOAD PUSH1 0x1 PUSH1 0x1 PUSH1 0xA0 SHL SUB SWAP1 SWAP2 AND DUP2 MSTORE PUSH1 0x20 SWAP1 RETURN JUMPDEST DUP4 DUP3 CALLVALUE PUSH2 0x6B6 JUMPI DUP2 PUSH1 0x3 NOT CALLDATASIZE ADD SLT PUSH2 0x6B6 JUMPI PUSH1 0x20 SWAP1 PUSH1 0x1B SLOAD SWAP1 MLOAD SWAP1 DUP2 MSTORE RETURN JUMPDEST DUP4 DUP3 CALLVALUE PUSH2 0x6B6 JUMPI PUSH1 0x20 CALLDATASIZE PUSH1 0x3 NOT ADD SLT PUSH2 0x6B6 JUMPI PUSH2 0xCCC PUSH2 0x2D9A JUMP JUMPDEST PUSH1 0xA SLOAD PUSH1 0x1 PUSH1 0x1 PUSH1 0xA0 SHL SUB SWAP2 SWAP1 PUSH2 0xCE6 SWAP1 DUP4 AND CALLER EQ PUSH2 0x3AF5 JUMP JUMPDEST AND DUP3 MSTORE PUSH1 0x19 PUSH1 0x20 MSTORE DUP2 KECCAK256 DUP1 SLOAD PUSH1 0xFF NOT AND PUSH1 0x1 OR SWAP1 SSTORE DUP1 RETURN JUMPDEST DUP4 DUP3 CALLVALUE PUSH2 0x6B6 JUMPI PUSH1 0x20 CALLDATASIZE PUSH1 0x3 NOT ADD SLT PUSH2 0x6B6 JUMPI PUSH1 0x20 SWAP2 PUSH1 0xFF SWAP1 DUP3 SWAP1 PUSH1 0x1 PUSH1 0x1 PUSH1 0xA0 SHL SUB PUSH2 0xD29 PUSH2 0x2D9A JUMP JUMPDEST AND DUP2 MSTORE PUSH1 0x17 DUP6 MSTORE KECCAK256 SLOAD AND SWAP1 MLOAD SWAP1 ISZERO ISZERO DUP2 MSTORE RETURN JUMPDEST DUP4 DUP3 PUSH1 0x3 NOT CALLDATASIZE ADD SLT PUSH2 0xD82 JUMPI PUSH2 0x4D6 PUSH2 0xD53 PUSH2 0x2D9A JUMP JUMPDEST PUSH2 0xD5B PUSH2 0x2DB5 JUMP JUMPDEST SWAP1 PUSH2 0xD6A PUSH1 0xFF PUSH1 0x21 SLOAD AND PUSH2 0x324F JUMP JUMPDEST PUSH2 0xD74 DUP3 DUP3 PUSH2 0x374E JUMP JUMPDEST PUSH2 0xD7D DUP2 PUSH2 0x338B JUMP JUMPDEST PUSH2 0x39C8 JUMP JUMPDEST DUP1 REVERT JUMPDEST POP SWAP1 CALLVALUE PUSH2 0x4ED JUMPI PUSH1 0x20 CALLDATASIZE PUSH1 0x3 NOT ADD SLT PUSH2 0x4ED JUMPI PUSH1 0x1 PUSH1 0x1 PUSH1 0xA0 SHL SUB SWAP1 DUP2 PUSH2 0xDAA PUSH2 0x2D9A JUMP JUMPDEST AND SWAP3 DUP4 DUP6 MSTORE PUSH1 0x18 PUSH1 0x20 MSTORE DUP1 DUP6 KECCAK256 SWAP2 DUP2 MLOAD SWAP3 PUSH2 0xDC4 DUP5 PUSH2 0x2E2E JUMP JUMPDEST DUP1 SLOAD DUP5 MSTORE DUP3 DUP6 PUSH1 0x2 PUSH1 0x1 DUP5 ADD SLOAD SWAP4 DUP5 PUSH1 0x20 DUP10 ADD MSTORE ADD SLOAD AND SWAP5 ADD SWAP4 DUP5 MSTORE TIMESTAMP GT ISZERO PUSH2 0xE2C JUMPI POP PUSH1 0x2 PUSH1 0x0 SWAP2 DUP6 DUP8 MSTORE PUSH1 0x18 PUSH1 0x20 MSTORE DUP7 KECCAK256 DUP3 DUP2 SSTORE DUP3 PUSH1 0x1 DUP3 ADD SSTORE ADD SSTORE MLOAD AND SWAP1 PUSH32 0xFBEA9BA5EE98F3C8B5C04EA0C944EAD3100801A041D88F0C7E90D404DDAC1C6A DUP4 DUP1 LOG3 DUP1 RETURN JUMPDEST PUSH1 0x20 PUSH1 0x64 SWAP3 MLOAD SWAP2 PUSH3 0x461BCD PUSH1 0xE5 SHL DUP4 MSTORE DUP3 ADD MSTORE PUSH1 0x1D PUSH1 0x24 DUP3 ADD MSTORE PUSH32 0x52657669657720706572696F6420686173206E6F742065787069726564000000 PUSH1 0x44 DUP3 ADD MSTORE REVERT JUMPDEST DUP4 DUP3 CALLVALUE PUSH2 0x6B6 JUMPI DUP2 PUSH1 0x3 NOT CALLDATASIZE ADD SLT PUSH2 0x6B6 JUMPI PUSH1 0x20 SWAP1 PUSH1 0x1C SLOAD SWAP1 MLOAD SWAP1 DUP2 MSTORE RETURN JUMPDEST DUP4 DUP3 CALLVALUE PUSH2 0x6B6 JUMPI PUSH1 0x20 CALLDATASIZE PUSH1 0x3 NOT ADD SLT PUSH2 0x6B6 JUMPI PUSH1 0x20 SWAP2 PUSH1 0x1 PUSH1 0x1 PUSH1 0xA0 SHL SUB SWAP1 DUP3 SWAP1 DUP3 PUSH2 0xEB7 PUSH2 0x2D9A JUMP JUMPDEST AND DUP2 MSTORE PUSH1 0x15 DUP6 MSTORE KECCAK256 SLOAD AND SWAP1 MLOAD SWAP1 DUP2 MSTORE RETURN JUMPDEST POP CALLVALUE PUSH2 0x4ED JUMPI PUSH1 0x20 CALLDATASIZE PUSH1 0x3 NOT ADD SLT PUSH2 0x4ED JUMPI DUP2 PUSH1 0x20 SWAP2 PUSH32 0x27EE93BF85897822EAA83C84DE291BB575EF9D2BEA9A01DDFC83261909407004 SWAP4 CALLDATALOAD DUP1 SWAP3 PUSH2 0xF0B PUSH2 0x31C5 JUMP JUMPDEST SSTORE MLOAD SWAP1 DUP2 MSTORE LOG1 DUP1 RETURN JUMPDEST POP SWAP1 CALLVALUE PUSH2 0x4ED JUMPI DUP3 PUSH1 0x3 NOT CALLDATASIZE ADD SLT PUSH2 0x4ED JUMPI PUSH1 0x20 SWAP3 POP SLOAD SWAP1 MLOAD SWAP1 DUP2 MSTORE RETURN JUMPDEST POP SWAP1 CALLVALUE PUSH2 0x4ED JUMPI DUP2 PUSH1 0x3 NOT CALLDATASIZE ADD SLT PUSH2 0x4ED JUMPI PUSH2 0xF4C PUSH2 0x2D9A JUMP JUMPDEST SWAP2 PUSH2 0xF55 PUSH2 0x31B6 JUMP JUMPDEST SWAP2 PUSH2 0xF5E PUSH2 0x31F1 JUMP JUMPDEST PUSH1 0x1 PUSH1 0x1 PUSH1 0xA0 SHL SUB SWAP4 DUP5 AND DUP1 DUP7 MSTORE PUSH1 0x14 PUSH1 0x20 MSTORE DUP3 DUP7 KECCAK256 SLOAD SWAP1 SWAP5 AND CALLER SUB PUSH2 0xFCD JUMPI POP PUSH32 0xB54DF1287F3D7012D0C033203342DE84104F09A34D968F171BFF51825D6CF544 SWAP2 PUSH1 0x20 SWAP2 DUP5 DUP7 MSTORE PUSH1 0x16 DUP4 MSTORE PUSH2 0xFC3 DUP3 DUP3 DUP9 KECCAK256 SWAP1 PUSH1 0xFF DUP1 NOT DUP4 SLOAD AND SWAP2 ISZERO ISZERO AND OR SWAP1 SSTORE JUMP JUMPDEST MLOAD SWAP1 ISZERO ISZERO DUP2 MSTORE LOG2 DUP1 RETURN JUMPDEST PUSH1 0x20 PUSH1 0x84 SWAP3 MLOAD SWAP2 PUSH3 0x461BCD PUSH1 0xE5 SHL DUP4 MSTORE DUP3 ADD MSTORE PUSH1 0x2C PUSH1 0x24 DUP3 ADD MSTORE PUSH32 0x4F6E6C79206469737472696275746F722063616E207365742061757468656E74 PUSH1 0x44 DUP3 ADD MSTORE PUSH12 0x696369747920737461747573 PUSH1 0xA0 SHL PUSH1 0x64 DUP3 ADD MSTORE REVERT JUMPDEST POP CALLVALUE PUSH2 0x4ED JUMPI PUSH1 0x20 CALLDATASIZE PUSH1 0x3 NOT ADD SLT PUSH2 0x4ED JUMPI PUSH1 0x20 PUSH2 0x1040 PUSH2 0x2D9A JUMP JUMPDEST PUSH1 0xD SLOAD DUP4 MLOAD PUSH4 0xB5AF090F PUSH1 0xE0 SHL DUP2 MSTORE PUSH1 0x1 PUSH1 0x1 PUSH1 0xA0 SHL SUB SWAP3 DUP4 AND SWAP6 DUP2 ADD SWAP6 SWAP1 SWAP6 MSTORE DUP5 SWAP2 PUSH1 0x24 SWAP2 DUP4 SWAP2 AND GAS STATICCALL SWAP2 DUP3 ISZERO PUSH2 0x91C JUMPI PUSH1 0x20 SWAP4 SWAP3 PUSH2 0x8FD JUMPI POP MLOAD SWAP1 ISZERO ISZERO DUP2 MSTORE RETURN JUMPDEST POP CALLVALUE PUSH2 0x4ED JUMPI PUSH1 0x20 DUP1 PUSH1 0x3 NOT CALLDATASIZE ADD SLT PUSH2 0x4FE JUMPI PUSH1 0x1 PUSH1 0x1 PUSH1 0xA0 SHL SUB SWAP3 DUP2 DUP5 PUSH2 0x10A9 PUSH2 0x2D9A JUMP JUMPDEST AND SWAP5 DUP6 DUP8 MSTORE PUSH1 0x15 DUP3 MSTORE PUSH2 0x10C2 DUP2 DUP7 DUP10 KECCAK256 SLOAD AND CALLER EQ PUSH2 0x3A6B JUMP JUMPDEST PUSH1 0xB SLOAD AND SWAP2 PUSH1 0x24 DUP6 MLOAD DUP1 SWAP5 DUP2 SWAP4 PUSH4 0xD42FE231 PUSH1 0xE0 SHL DUP4 MSTORE CALLER SWAP1 DUP4 ADD MSTORE GAS STATICCALL SWAP1 DUP2 ISZERO PUSH2 0x7B5 JUMPI PUSH1 0x2 SWAP3 PUSH2 0x1100 PUSH1 0x0 SWAP6 SWAP4 PUSH1 0x18 SWAP4 DUP10 SWAP2 PUSH2 0x788 JUMPI POP PUSH2 0x3A1F JUMP JUMPDEST DUP6 DUP8 MSTORE PUSH1 0x14 DUP2 MSTORE DUP3 DUP8 KECCAK256 PUSH1 0x1 PUSH1 0x1 PUSH1 0x60 SHL SUB PUSH1 0xA0 SHL SWAP1 CALLER DUP3 DUP3 SLOAD AND OR SWAP1 SSTORE PUSH1 0x15 DUP3 MSTORE DUP4 DUP9 KECCAK256 SWAP1 DUP2 SLOAD AND SWAP1 SSTORE MSTORE DUP5 KECCAK256 DUP3 DUP2 SSTORE DUP3 PUSH1 0x1 DUP3 ADD SSTORE ADD SSTORE CALLER SWAP1 PUSH32 0x1EC2D15BE1D4041A85003EE3860453FB0818606E3CCDA6F18C41E692A25D5EEA DUP4 DUP1 LOG3 DUP1 RETURN JUMPDEST DUP4 DUP3 CALLVALUE PUSH2 0x6B6 JUMPI DUP2 PUSH1 0x3 NOT CALLDATASIZE ADD SLT PUSH2 0x6B6 JUMPI PUSH1 0xC SLOAD SWAP1 MLOAD PUSH1 0x1 PUSH1 0x1 PUSH1 0xA0 SHL SUB SWAP1 SWAP2 AND DUP2 MSTORE PUSH1 0x20 SWAP1 RETURN JUMPDEST DUP4 DUP3 CALLVALUE PUSH2 0x6B6 JUMPI PUSH1 0x20 CALLDATASIZE PUSH1 0x3 NOT ADD SLT PUSH2 0x6B6 JUMPI PUSH1 0x20 PUSH32 0x39A2470DCB92DEF89F4D008F638AB6D63AC78547BF3D6CCFEBF542711A0503C7 SWAP2 PUSH2 0x11CA PUSH2 0x2D9A JUMP JUMPDEST PUSH2 0x11D2 PUSH2 0x31C5 JUMP JUMPDEST PUSH1 0x1 PUSH1 0x1 PUSH1 0xA0 SHL SUB AND SWAP1 PUSH2 0x11E7 DUP3 ISZERO ISZERO PUSH2 0x3AB7 JUMP JUMPDEST PUSH1 0xC DUP1 SLOAD PUSH1 0x1 PUSH1 0x1 PUSH1 0xA0 SHL SUB NOT AND DUP4 OR SWAP1 SSTORE MLOAD SWAP1 DUP2 MSTORE LOG1 DUP1 RETURN JUMPDEST DUP4 DUP3 CALLVALUE PUSH2 0x6B6 JUMPI PUSH1 0x20 CALLDATASIZE PUSH1 0x3 NOT ADD SLT PUSH2 0x6B6 JUMPI PUSH1 0x20 SWAP2 PUSH1 0xFF SWAP1 DUP3 SWAP1 PUSH1 0x1 PUSH1 0x1 PUSH1 0xA0 SHL SUB PUSH2 0x122C PUSH2 0x2D9A JUMP JUMPDEST AND DUP2 MSTORE PUSH1 0x16 DUP6 MSTORE KECCAK256 SLOAD AND SWAP1 MLOAD SWAP1 ISZERO ISZERO DUP2 MSTORE RETURN JUMPDEST DUP4 DUP3 CALLVALUE PUSH2 0x6B6 JUMPI PUSH1 0x20 CALLDATASIZE PUSH1 0x3 NOT ADD SLT PUSH2 0x6B6 JUMPI PUSH1 0x20 PUSH32 0x12E10E0ACD0F94FC9B2D033A01586C1255F1D396A6A2CE1C02CC9FCA05774458 SWAP2 PUSH2 0x127E PUSH2 0x2D9A JUMP JUMPDEST PUSH2 0x1286 PUSH2 0x31C5 JUMP JUMPDEST PUSH1 0x1 PUSH1 0x1 PUSH1 0xA0 SHL SUB AND SWAP1 PUSH2 0x129B DUP3 ISZERO ISZERO PUSH2 0x3AB7 JUMP JUMPDEST PUSH1 0xE DUP1 SLOAD PUSH1 0x1 PUSH1 0x1 PUSH1 0xA0 SHL SUB NOT AND DUP4 OR SWAP1 SSTORE MLOAD SWAP1 DUP2 MSTORE LOG1 DUP1 RETURN JUMPDEST POP SWAP1 CALLVALUE PUSH2 0x4ED JUMPI PUSH2 0x12C5 CALLDATASIZE PUSH2 0x3137 JUMP JUMPDEST PUSH2 0x12D0 SWAP4 SWAP2 SWAP4 PUSH2 0x31F1 JUMP JUMPDEST PUSH1 0x1 PUSH1 0x1 PUSH1 0xA0 SHL SUB SWAP4 DUP5 AND DUP1 DUP7 MSTORE PUSH1 0x14 PUSH1 0x20 SWAP1 DUP2 MSTORE DUP4 DUP8 KECCAK256 SLOAD SWAP2 SWAP6 SWAP1 SWAP2 AND CALLER SUB PUSH2 0x1463 JUMPI DUP5 DUP7 MSTORE PUSH1 0x12 DUP2 MSTORE DUP3 DUP7 KECCAK256 DUP3 MLOAD PUSH1 0x1 PUSH1 0x1 PUSH1 0x40 SHL SUB DUP2 GT PUSH2 0x1450 JUMPI PUSH2 0x1318 DUP3 SLOAD PUSH2 0x2DCB JUMP JUMPDEST PUSH1 0x1F DUP2 GT PUSH2 0x140D JUMPI JUMPDEST POP DUP3 PUSH1 0x1F DUP3 GT PUSH1 0x1 EQ PUSH2 0x1395 JUMPI SWAP3 PUSH1 0x0 DUP1 MLOAD PUSH1 0x20 PUSH2 0x3B6C DUP4 CODECOPY DUP2 MLOAD SWAP2 MSTORE SWAP7 SWAP6 SWAP5 SWAP3 DUP3 PUSH1 0x80 SWAP4 PUSH2 0xB58 SWAP7 DUP13 SWAP2 PUSH2 0x138A JUMPI JUMPDEST POP DUP2 PUSH1 0x1 SHL SWAP2 PUSH1 0x0 NOT SWAP1 PUSH1 0x3 SHL SHR NOT AND OR SWAP1 SSTORE JUMPDEST DUP5 MLOAD SWAP6 DUP6 DUP8 SWAP7 DUP8 MSTORE DUP7 ADD MSTORE PUSH4 0x49535743 PUSH1 0xE0 SHL PUSH1 0x60 DUP7 ADD MSTORE DUP5 ADD MSTORE PUSH1 0x80 DUP4 ADD SWAP1 PUSH2 0x2FD9 JUMP JUMPDEST SWAP1 POP DUP6 ADD MLOAD CODESIZE PUSH2 0x1351 JUMP JUMPDEST DUP3 DUP10 MSTORE DUP4 DUP10 KECCAK256 SWAP1 PUSH1 0x1F NOT DUP4 AND DUP11 JUMPDEST DUP2 DUP2 LT PUSH2 0x13F6 JUMPI POP DUP4 PUSH2 0xB58 SWAP7 SWAP4 PUSH1 0x0 DUP1 MLOAD PUSH1 0x20 PUSH2 0x3B6C DUP4 CODECOPY DUP2 MLOAD SWAP2 MSTORE SWAP11 SWAP10 SWAP9 SWAP7 SWAP4 PUSH1 0x80 SWAP7 PUSH1 0x1 SWAP5 LT PUSH2 0x13DD JUMPI JUMPDEST POP POP DUP2 SHL ADD SWAP1 SSTORE PUSH2 0x1365 JUMP JUMPDEST DUP8 ADD MLOAD PUSH1 0x0 NOT PUSH1 0xF8 DUP5 PUSH1 0x3 SHL AND SHR NOT AND SWAP1 SSTORE CODESIZE DUP1 PUSH2 0x13D1 JUMP JUMPDEST SWAP2 SWAP3 DUP7 PUSH1 0x1 DUP2 SWAP3 DUP7 DUP12 ADD MLOAD DUP2 SSTORE ADD SWAP5 ADD SWAP3 ADD PUSH2 0x13A3 JUMP JUMPDEST DUP3 DUP10 MSTORE DUP4 DUP10 KECCAK256 PUSH1 0x1F DUP4 ADD PUSH1 0x5 SHR DUP2 ADD SWAP2 DUP6 DUP5 LT PUSH2 0x1446 JUMPI JUMPDEST PUSH1 0x1F ADD PUSH1 0x5 SHR ADD SWAP1 JUMPDEST DUP2 DUP2 LT PUSH2 0x143B JUMPI POP PUSH2 0x1321 JUMP JUMPDEST DUP10 DUP2 SSTORE PUSH1 0x1 ADD PUSH2 0x142E JUMP JUMPDEST SWAP1 SWAP2 POP DUP2 SWAP1 PUSH2 0x1425 JUMP JUMPDEST PUSH4 0x4E487B71 PUSH1 0xE0 SHL DUP9 MSTORE PUSH1 0x41 DUP7 MSTORE PUSH1 0x24 DUP9 REVERT JUMPDEST DUP4 PUSH1 0x64 SWAP2 DUP5 MLOAD SWAP2 PUSH3 0x461BCD PUSH1 0xE5 SHL DUP4 MSTORE DUP3 ADD MSTORE PUSH1 0x1D PUSH1 0x24 DUP3 ADD MSTORE PUSH32 0x4F6E6C79206469737472696275746F722063616E207365742049535743000000 PUSH1 0x44 DUP3 ADD MSTORE REVERT JUMPDEST DUP4 DUP3 CALLVALUE PUSH2 0x6B6 JUMPI PUSH1 0x20 CALLDATASIZE PUSH1 0x3 NOT ADD SLT PUSH2 0x6B6 JUMPI PUSH1 0x20 PUSH32 0xC42D410F496AD2DFDBE03A4E5C1C714A8091596F6191B9B64A90D67D5F008990 SWAP2 PUSH2 0x14E4 PUSH2 0x31A7 JUMP JUMPDEST PUSH2 0x14EC PUSH2 0x31C5 JUMP JUMPDEST ISZERO ISZERO SWAP1 PUSH1 0xFF NOT PUSH1 0x6 SLOAD AND PUSH1 0xFF DUP4 AND OR PUSH1 0x6 SSTORE MLOAD SWAP1 DUP2 MSTORE LOG1 DUP1 RETURN JUMPDEST DUP4 DUP3 CALLVALUE PUSH2 0x6B6 JUMPI PUSH1 0x20 CALLDATASIZE PUSH1 0x3 NOT ADD SLT PUSH2 0x6B6 JUMPI PUSH2 0x1554 SWAP2 PUSH2 0x1541 SWAP1 DUP3 SWAP1 PUSH1 0x1 PUSH1 0x1 PUSH1 0xA0 SHL SUB PUSH2 0x1533 PUSH2 0x2D9A JUMP JUMPDEST AND DUP2 MSTORE PUSH1 0x13 PUSH1 0x20 MSTORE KECCAK256 PUSH2 0x2F13 JUMP JUMPDEST SWAP1 MLOAD SWAP2 DUP3 SWAP2 PUSH1 0x20 DUP4 MSTORE PUSH1 0x20 DUP4 ADD SWAP1 PUSH2 0x2FD9 JUMP JUMPDEST SUB SWAP1 RETURN JUMPDEST DUP4 DUP3 CALLVALUE PUSH2 0x6B6 JUMPI DUP2 PUSH1 0x3 NOT CALLDATASIZE ADD SLT PUSH2 0x6B6 JUMPI SWAP1 SLOAD SWAP1 MLOAD PUSH1 0x1 PUSH1 0x1 PUSH1 0xA0 SHL SUB SWAP1 SWAP2 AND DUP2 MSTORE PUSH1 0x20 SWAP1 RETURN JUMPDEST POP SWAP1 CALLVALUE PUSH2 0x4ED JUMPI PUSH1 0x20 CALLDATASIZE PUSH1 0x3 NOT ADD SLT PUSH2 0x4ED JUMPI PUSH32 0xD4D82B8C259D09036A9ED2BAF6867C5E54DCCAB39D04FD233B20827303DF5F12 SWAP2 PUSH1 0x20 SWAP2 CALLDATALOAD SWAP1 PUSH2 0x15C2 PUSH2 0x31C5 JUMP JUMPDEST DUP2 PUSH1 0x3 SSTORE MLOAD SWAP1 DUP2 MSTORE LOG1 DUP1 RETURN JUMPDEST DUP4 DUP3 CALLVALUE PUSH2 0x6B6 JUMPI DUP2 PUSH1 0x3 NOT CALLDATASIZE ADD SLT PUSH2 0x6B6 JUMPI PUSH1 0x20 PUSH32 0x62E78CEA01BEE320CD4E420270B5EA74000D11B0C9F74754EBDBFC544B05A258 SWAP2 PUSH2 0x160C PUSH2 0x31C5 JUMP JUMPDEST PUSH2 0x1614 PUSH2 0x31F1 JUMP JUMPDEST DUP4 SLOAD PUSH1 0xFF PUSH1 0xA0 SHL NOT AND PUSH1 0x1 PUSH1 0xA0 SHL OR DUP5 SSTORE MLOAD CALLER DUP2 MSTORE LOG1 DUP1 RETURN JUMPDEST DUP4 DUP3 CALLVALUE PUSH2 0x6B6 JUMPI PUSH1 0x20 CALLDATASIZE PUSH1 0x3 NOT ADD SLT PUSH2 0x6B6 JUMPI PUSH1 0x20 PUSH32 0xB5BB594C95EB864915724F4025EBEA72BD6B2C96EE4243BACEEA4D04365EFB68 SWAP2 PUSH2 0x166C PUSH2 0x31A7 JUMP JUMPDEST PUSH2 0x1674 PUSH2 0x31C5 JUMP JUMPDEST ISZERO ISZERO SWAP1 PUSH1 0xFF NOT PUSH1 0x21 SLOAD AND PUSH1 0xFF DUP4 AND OR PUSH1 0x21 SSTORE MLOAD SWAP1 DUP2 MSTORE LOG1 DUP1 RETURN JUMPDEST DUP4 DUP3 CALLVALUE PUSH2 0x6B6 JUMPI DUP2 PUSH1 0x3 NOT CALLDATASIZE ADD SLT PUSH2 0x6B6 JUMPI PUSH1 0xA SLOAD SWAP1 MLOAD PUSH1 0x1 PUSH1 0x1 PUSH1 0xA0 SHL SUB SWAP1 SWAP2 AND DUP2 MSTORE PUSH1 0x20 SWAP1 RETURN JUMPDEST POP POP CALLVALUE PUSH2 0x6B6 JUMPI PUSH1 0x20 CALLDATASIZE PUSH1 0x3 NOT ADD SLT PUSH2 0x6B6 JUMPI PUSH2 0x16D2 PUSH2 0x31C5 JUMP JUMPDEST CALLDATALOAD PUSH1 0x7 SSTORE DUP1 RETURN JUMPDEST POP SWAP1 CALLVALUE PUSH2 0x4ED JUMPI PUSH1 0x20 CALLDATASIZE PUSH1 0x3 NOT ADD SLT PUSH2 0x4ED JUMPI PUSH32 0x295F11816C8A8A66CF041FB88E0E1FA756CB9017DFFA76C760980A5D52A26CF2 SWAP2 PUSH1 0x20 SWAP2 CALLDATALOAD SWAP1 PUSH2 0x171B PUSH2 0x31C5 JUMP JUMPDEST DUP2 PUSH1 0x5 SSTORE MLOAD SWAP1 DUP2 MSTORE LOG1 DUP1 RETURN JUMPDEST DUP4 DUP3 CALLVALUE PUSH2 0x6B6 JUMPI DUP2 PUSH1 0x3 NOT CALLDATASIZE ADD SLT PUSH2 0x6B6 JUMPI PUSH1 0x20 SWAP1 PUSH1 0x1F SLOAD SWAP1 MLOAD SWAP1 DUP2 MSTORE RETURN JUMPDEST POP SWAP1 CALLVALUE PUSH2 0x4ED JUMPI PUSH1 0x20 CALLDATASIZE PUSH1 0x3 NOT ADD SLT PUSH2 0x4ED JUMPI PUSH32 0x1848F86A1772CF74C666A7DB07DD66DF4942583C365EA0F63BF434245A56F355 SWAP2 PUSH1 0x20 SWAP2 CALLDATALOAD SWAP1 PUSH2 0x1788 PUSH2 0x31C5 JUMP JUMPDEST DUP2 PUSH1 0x1B SSTORE MLOAD SWAP1 DUP2 MSTORE LOG1 DUP1 RETURN JUMPDEST DUP4 CALLVALUE PUSH2 0xD82 JUMPI DUP1 PUSH1 0x3 NOT CALLDATASIZE ADD SLT PUSH2 0xD82 JUMPI PUSH2 0x17AD PUSH2 0x31C5 JUMP JUMPDEST PUSH1 0x0 DUP1 SLOAD PUSH1 0x1 PUSH1 0x1 PUSH1 0xA0 SHL SUB NOT DUP2 AND DUP3 SSTORE PUSH1 0x1 PUSH1 0x1 PUSH1 0xA0 SHL SUB AND PUSH32 0x8BE0079C531659141344CD1FD0A4F28419497F9722A3DAAFE3B4186F6B6457E0 DUP3 DUP1 LOG3 DUP1 RETURN JUMPDEST DUP4 DUP3 CALLVALUE PUSH2 0x6B6 JUMPI DUP2 PUSH1 0x3 NOT CALLDATASIZE ADD SLT PUSH2 0x6B6 JUMPI PUSH2 0x1554 SWAP1 PUSH2 0x1541 PUSH2 0x2E6A JUMP JUMPDEST DUP4 DUP3 CALLVALUE PUSH2 0x6B6 JUMPI DUP2 PUSH1 0x3 NOT CALLDATASIZE ADD SLT PUSH2 0x6B6 JUMPI PUSH1 0x1A SLOAD SWAP1 MLOAD PUSH1 0x1 PUSH1 0x1 PUSH1 0xA0 SHL SUB SWAP1 SWAP2 AND DUP2 MSTORE PUSH1 0x20 SWAP1 RETURN JUMPDEST DUP4 DUP3 CALLVALUE PUSH2 0x6B6 JUMPI PUSH1 0x20 CALLDATASIZE PUSH1 0x3 NOT ADD SLT PUSH2 0x6B6 JUMPI PUSH1 0x20 SWAP2 PUSH1 0xFF SWAP1 DUP3 SWAP1 PUSH1 0x1 PUSH1 0x1 PUSH1 0xA0 SHL SUB PUSH2 0x1860 PUSH2 0x2D9A JUMP JUMPDEST AND DUP2 MSTORE PUSH1 0x19 DUP6 MSTORE KECCAK256 SLOAD AND SWAP1 MLOAD SWAP1 ISZERO ISZERO DUP2 MSTORE RETURN JUMPDEST DUP1 DUP5 DUP5 CALLVALUE PUSH2 0x1904 JUMPI PUSH1 0x20 CALLDATASIZE PUSH1 0x3 NOT ADD SLT PUSH2 0x1904 JUMPI PUSH2 0x188F PUSH2 0x2D9A JUMP JUMPDEST DUP4 SLOAD PUSH1 0x1 PUSH1 0x1 PUSH1 0xA0 SHL SUB SWAP1 DUP2 AND CALLER EQ DUP1 ISZERO PUSH2 0x18F7 JUMPI JUMPDEST PUSH2 0x18AE SWAP1 PUSH2 0x3212 JUMP JUMPDEST DUP1 PUSH1 0xD SLOAD AND DUP1 EXTCODESIZE ISZERO PUSH2 0x4FA JUMPI DUP6 SWAP3 DUP4 PUSH1 0x24 SWAP3 DUP7 MLOAD SWAP8 DUP9 SWAP6 DUP7 SWAP5 PUSH4 0x3123FB79 PUSH1 0xE1 SHL DUP7 MSTORE AND SWAP1 DUP5 ADD MSTORE GAS CALL SWAP1 DUP2 ISZERO PUSH2 0x4F1 JUMPI POP PUSH2 0x18E7 JUMPI POP RETURN JUMPDEST PUSH2 0x18F0 SWAP1 PUSH2 0x2E05 JUMP JUMPDEST PUSH2 0xD82 JUMPI DUP1 RETURN JUMPDEST POP PUSH1 0xD SLOAD DUP2 AND CALLER EQ PUSH2 0x18A5 JUMP JUMPDEST POP POP REVERT JUMPDEST POP SWAP1 CALLVALUE PUSH2 0x4ED JUMPI PUSH1 0x20 CALLDATASIZE PUSH1 0x3 NOT ADD SLT PUSH2 0x4ED JUMPI DUP1 CALLDATALOAD SWAP2 PUSH2 0x1926 PUSH2 0x31C5 JUMP JUMPDEST PUSH2 0x3E8 DUP4 GT PUSH2 0x1937 JUMPI POP POP PUSH1 0x1C SSTORE DUP1 RETURN JUMPDEST SWAP1 PUSH1 0x20 PUSH1 0x64 SWAP3 MLOAD SWAP2 PUSH3 0x461BCD PUSH1 0xE5 SHL DUP4 MSTORE DUP3 ADD MSTORE PUSH1 0xC PUSH1 0x24 DUP3 ADD MSTORE PUSH12 0x8CCACA40E8DEDE40D0D2CED PUSH1 0xA3 SHL PUSH1 0x44 DUP3 ADD MSTORE REVERT JUMPDEST DUP4 DUP3 CALLVALUE PUSH2 0x6B6 JUMPI DUP2 PUSH1 0x3 NOT CALLDATASIZE ADD SLT PUSH2 0x6B6 JUMPI PUSH1 0xFF PUSH1 0x20 SWAP3 SLOAD PUSH1 0xA0 SHR AND SWAP1 MLOAD SWAP1 ISZERO ISZERO DUP2 MSTORE RETURN JUMPDEST DUP3 DUP5 CALLVALUE PUSH2 0xD82 JUMPI PUSH1 0x20 DUP1 PUSH1 0x3 NOT CALLDATASIZE ADD SLT PUSH2 0x6B6 JUMPI PUSH1 0x1 PUSH1 0x1 PUSH1 0x40 SHL SUB DUP4 CALLDATALOAD DUP2 DUP2 GT PUSH2 0x4FE JUMPI PUSH2 0x19C0 SWAP1 CALLDATASIZE SWAP1 DUP7 ADD PUSH2 0x3019 JUMP JUMPDEST SWAP4 PUSH2 0x19C9 PUSH2 0x31C5 JUMP JUMPDEST DUP5 MLOAD SWAP2 DUP3 GT PUSH2 0x1AD9 JUMPI POP PUSH2 0x19DD DUP3 SLOAD PUSH2 0x2DCB JUMP JUMPDEST PUSH1 0x1F DUP2 GT PUSH2 0x1A8A JUMPI JUMPDEST POP DUP2 PUSH1 0x1F DUP3 GT PUSH1 0x1 EQ PUSH2 0x1A20 JUMPI DUP4 SWAP5 DUP3 SWAP4 SWAP5 SWAP3 PUSH2 0x1A15 JUMPI JUMPDEST POP POP DUP2 PUSH1 0x1 SHL SWAP2 PUSH1 0x0 NOT SWAP1 PUSH1 0x3 SHL SHR NOT AND OR SWAP1 SSTORE DUP1 RETURN JUMPDEST ADD MLOAD SWAP1 POP DUP5 DUP1 PUSH2 0x19FE JUMP JUMPDEST DUP3 DUP5 MSTORE PUSH1 0x0 DUP1 MLOAD PUSH1 0x20 PUSH2 0x3B4C DUP4 CODECOPY DUP2 MLOAD SWAP2 MSTORE SWAP1 PUSH1 0x1F NOT DUP4 AND DUP6 JUMPDEST DUP2 DUP2 LT PUSH2 0x1A73 JUMPI POP SWAP6 DUP4 PUSH1 0x1 SWAP6 SWAP7 SWAP8 LT PUSH2 0x1A5A JUMPI JUMPDEST POP POP POP DUP2 SHL ADD SWAP1 SSTORE DUP1 RETURN JUMPDEST ADD MLOAD PUSH1 0x0 NOT PUSH1 0xF8 DUP5 PUSH1 0x3 SHL AND SHR NOT AND SWAP1 SSTORE DUP5 DUP1 DUP1 PUSH2 0x1A4F JUMP JUMPDEST SWAP2 SWAP3 DUP6 PUSH1 0x1 DUP2 SWAP3 DUP7 DUP12 ADD MLOAD DUP2 SSTORE ADD SWAP5 ADD SWAP3 ADD PUSH2 0x1A3A JUMP JUMPDEST DUP3 DUP5 MSTORE PUSH1 0x0 DUP1 MLOAD PUSH1 0x20 PUSH2 0x3B4C DUP4 CODECOPY DUP2 MLOAD SWAP2 MSTORE PUSH1 0x1F DUP4 ADD PUSH1 0x5 SHR DUP2 ADD SWAP2 DUP5 DUP5 LT PUSH2 0x1ACF JUMPI JUMPDEST PUSH1 0x1F ADD PUSH1 0x5 SHR ADD SWAP1 JUMPDEST DUP2 DUP2 LT PUSH2 0x1AC4 JUMPI POP PUSH2 0x19E6 JUMP JUMPDEST DUP5 DUP2 SSTORE PUSH1 0x1 ADD PUSH2 0x1AB7 JUMP JUMPDEST SWAP1 SWAP2 POP DUP2 SWAP1 PUSH2 0x1AAE JUMP JUMPDEST PUSH4 0x4E487B71 PUSH1 0xE0 SHL DUP5 MSTORE PUSH1 0x41 SWAP1 MSTORE PUSH1 0x24 DUP4 REVERT JUMPDEST POP CALLVALUE PUSH2 0x4ED JUMPI PUSH1 0x20 CALLDATASIZE PUSH1 0x3 NOT ADD SLT PUSH2 0x4ED JUMPI DUP2 CALLDATALOAD SWAP2 PUSH2 0x1B09 PUSH2 0x31C5 JUMP JUMPDEST DUP3 ISZERO PUSH2 0x1B41 JUMPI POP DUP2 PUSH1 0x20 SWAP2 PUSH32 0x7BE9264FD4BACF6FFDD1CBFBE4FB3751923B2540828ADF64102E4F5B096A7FE5 SWAP4 PUSH1 0x1F SSTORE MLOAD SWAP1 DUP2 MSTORE LOG1 DUP1 RETURN JUMPDEST PUSH1 0x20 PUSH1 0x64 SWAP3 MLOAD SWAP2 PUSH3 0x461BCD PUSH1 0xE5 SHL DUP4 MSTORE DUP3 ADD MSTORE PUSH1 0x1F PUSH1 0x24 DUP3 ADD MSTORE PUSH32 0x4475726174696F6E206D7573742062652067726561746572207468616E203000 PUSH1 0x44 DUP3 ADD MSTORE REVERT JUMPDEST POP SWAP1 CALLVALUE PUSH2 0x4ED JUMPI PUSH2 0x1B93 CALLDATASIZE PUSH2 0x3137 JUMP JUMPDEST PUSH2 0x1B9E SWAP4 SWAP2 SWAP4 PUSH2 0x31F1 JUMP JUMPDEST PUSH1 0x1 PUSH1 0x1 PUSH1 0xA0 SHL SUB SWAP4 DUP5 AND DUP1 DUP7 MSTORE PUSH1 0x14 PUSH1 0x20 SWAP1 DUP2 MSTORE DUP4 DUP8 KECCAK256 SLOAD SWAP2 SWAP6 SWAP1 SWAP2 AND CALLER SUB PUSH2 0x1D1E JUMPI DUP5 DUP7 MSTORE PUSH1 0x13 DUP2 MSTORE DUP3 DUP7 KECCAK256 DUP3 MLOAD PUSH1 0x1 PUSH1 0x1 PUSH1 0x40 SHL SUB DUP2 GT PUSH2 0x1450 JUMPI PUSH2 0x1BE6 DUP3 SLOAD PUSH2 0x2DCB JUMP JUMPDEST PUSH1 0x1F DUP2 GT PUSH2 0x1CDB JUMPI JUMPDEST POP DUP3 PUSH1 0x1F DUP3 GT PUSH1 0x1 EQ PUSH2 0x1C63 JUMPI SWAP3 PUSH1 0x0 DUP1 MLOAD PUSH1 0x20 PUSH2 0x3B6C DUP4 CODECOPY DUP2 MLOAD SWAP2 MSTORE SWAP7 SWAP6 SWAP5 SWAP3 DUP3 PUSH1 0x80 SWAP4 PUSH2 0xB58 SWAP7 DUP13 SWAP2 PUSH2 0x1C58 JUMPI JUMPDEST POP DUP2 PUSH1 0x1 SHL SWAP2 PUSH1 0x0 NOT SWAP1 PUSH1 0x3 SHL SHR NOT AND OR SWAP1 SSTORE JUMPDEST DUP5 MLOAD SWAP6 DUP6 DUP8 SWAP7 DUP8 MSTORE DUP7 ADD MSTORE PUSH4 0x49534343 PUSH1 0xE0 SHL PUSH1 0x60 DUP7 ADD MSTORE DUP5 ADD MSTORE PUSH1 0x80 DUP4 ADD SWAP1 PUSH2 0x2FD9 JUMP JUMPDEST SWAP1 POP DUP6 ADD MLOAD CODESIZE PUSH2 0x1C1F JUMP JUMPDEST DUP3 DUP10 MSTORE DUP4 DUP10 KECCAK256 SWAP1 PUSH1 0x1F NOT DUP4 AND DUP11 JUMPDEST DUP2 DUP2 LT PUSH2 0x1CC4 JUMPI POP DUP4 PUSH2 0xB58 SWAP7 SWAP4 PUSH1 0x0 DUP1 MLOAD PUSH1 0x20 PUSH2 0x3B6C DUP4 CODECOPY DUP2 MLOAD SWAP2 MSTORE SWAP11 SWAP10 SWAP9 SWAP7 SWAP4 PUSH1 0x80 SWAP7 PUSH1 0x1 SWAP5 LT PUSH2 0x1CAB JUMPI JUMPDEST POP POP DUP2 SHL ADD SWAP1 SSTORE PUSH2 0x1C33 JUMP JUMPDEST DUP8 ADD MLOAD PUSH1 0x0 NOT PUSH1 0xF8 DUP5 PUSH1 0x3 SHL AND SHR NOT AND SWAP1 SSTORE CODESIZE DUP1 PUSH2 0x1C9F JUMP JUMPDEST SWAP2 SWAP3 DUP7 PUSH1 0x1 DUP2 SWAP3 DUP7 DUP12 ADD MLOAD DUP2 SSTORE ADD SWAP5 ADD SWAP3 ADD PUSH2 0x1C71 JUMP JUMPDEST DUP3 DUP10 MSTORE DUP4 DUP10 KECCAK256 PUSH1 0x1F DUP4 ADD PUSH1 0x5 SHR DUP2 ADD SWAP2 DUP6 DUP5 LT PUSH2 0x1D14 JUMPI JUMPDEST PUSH1 0x1F ADD PUSH1 0x5 SHR ADD SWAP1 JUMPDEST DUP2 DUP2 LT PUSH2 0x1D09 JUMPI POP PUSH2 0x1BEF JUMP JUMPDEST DUP10 DUP2 SSTORE PUSH1 0x1 ADD PUSH2 0x1CFC JUMP JUMPDEST SWAP1 SWAP2 POP DUP2 SWAP1 PUSH2 0x1CF3 JUMP JUMPDEST DUP4 PUSH1 0x64 SWAP2 DUP5 MLOAD SWAP2 PUSH3 0x461BCD PUSH1 0xE5 SHL DUP4 MSTORE DUP3 ADD MSTORE PUSH1 0x1D PUSH1 0x24 DUP3 ADD MSTORE PUSH32 0x4F6E6C79206469737472696275746F722063616E207365742049534343000000 PUSH1 0x44 DUP3 ADD MSTORE REVERT JUMPDEST DUP4 DUP3 CALLVALUE PUSH2 0x6B6 JUMPI DUP1 PUSH1 0x3 NOT CALLDATASIZE ADD SLT PUSH2 0x6B6 JUMPI PUSH2 0x1D7A PUSH2 0x2D9A JUMP JUMPDEST PUSH1 0x1 PUSH1 0x1 PUSH1 0xA0 SHL SUB SWAP1 DUP2 AND DUP4 MSTORE PUSH1 0x8 PUSH1 0x20 MSTORE DUP2 DUP4 KECCAK256 DUP1 SLOAD PUSH1 0x24 CALLDATALOAD SWAP5 SWAP1 DUP6 LT ISZERO PUSH2 0xD82 JUMPI POP PUSH1 0x20 SWAP4 PUSH2 0x1DAA SWAP2 PUSH2 0x3179 JUMP JUMPDEST SWAP3 SWAP1 SLOAD SWAP1 MLOAD SWAP3 PUSH1 0x3 SHL SHR AND DUP2 MSTORE RETURN JUMPDEST DUP4 DUP3 CALLVALUE PUSH2 0x6B6 JUMPI PUSH1 0x20 CALLDATASIZE PUSH1 0x3 NOT ADD SLT PUSH2 0x6B6 JUMPI PUSH2 0x1554 SWAP2 PUSH2 0x1541 SWAP1 DUP3 SWAP1 PUSH1 0x1 PUSH1 0x1 PUSH1 0xA0 SHL SUB PUSH2 0x1DE6 PUSH2 0x2D9A JUMP JUMPDEST AND DUP2 MSTORE PUSH1 0x12 PUSH1 0x20 MSTORE KECCAK256 PUSH2 0x2F13 JUMP JUMPDEST POP SWAP1 CALLVALUE PUSH2 0x4ED JUMPI PUSH1 0x20 SWAP1 DUP2 PUSH1 0x3 NOT CALLDATASIZE ADD SLT PUSH2 0x4FE JUMPI PUSH1 0x1 PUSH1 0x1 PUSH1 0xA0 SHL SUB DUP1 PUSH2 0x1E1A PUSH2 0x2D9A JUMP JUMPDEST AND SWAP4 DUP5 DUP7 MSTORE PUSH1 0x15 DUP5 MSTORE DUP2 DUP2 DUP8 KECCAK256 SLOAD AND CALLER SUB PUSH2 0x1F40 JUMPI PUSH1 0x24 DUP5 DUP4 PUSH1 0xB SLOAD AND DUP4 MLOAD SWAP3 DUP4 DUP1 SWAP3 PUSH4 0xD42FE231 PUSH1 0xE0 SHL DUP3 MSTORE CALLER DUP10 DUP4 ADD MSTORE GAS STATICCALL SWAP1 DUP2 ISZERO PUSH2 0x1F36 JUMPI SWAP1 PUSH2 0x1E66 SWAP2 DUP9 SWAP2 PUSH2 0x1F1F JUMPI POP PUSH2 0x3A1F JUMP JUMPDEST DUP5 DUP7 MSTORE PUSH1 0x15 DUP5 MSTORE DUP1 DUP7 KECCAK256 SWAP3 PUSH1 0x1 PUSH1 0x1 PUSH1 0x60 SHL SUB PUSH1 0xA0 SHL SWAP4 DUP5 DUP2 SLOAD AND SWAP1 SSTORE PUSH1 0x1E SLOAD SWAP1 PUSH3 0x15180 SWAP2 DUP3 DUP2 MUL SWAP3 DUP2 DUP5 DIV EQ SWAP1 ISZERO OR ISZERO PUSH2 0x1F0C JUMPI POP SWAP1 PUSH2 0x1EAA PUSH1 0x2 SWAP3 TIMESTAMP PUSH2 0x3319 JUMP JUMPDEST DUP2 MLOAD SWAP2 PUSH2 0x1EB6 DUP4 PUSH2 0x2E2E JUMP JUMPDEST TIMESTAMP DUP4 MSTORE DUP7 DUP4 ADD SWAP2 DUP3 MSTORE PUSH1 0x18 DUP2 DUP5 ADD SWAP8 CALLER DUP10 MSTORE DUP10 DUP12 MSTORE MSTORE DUP9 KECCAK256 SWAP2 MLOAD DUP3 SSTORE MLOAD PUSH1 0x1 DUP3 ADD SSTORE ADD SWAP3 MLOAD AND SWAP1 DUP3 SLOAD AND OR SWAP1 SSTORE CALLER SWAP1 PUSH32 0x410AF91D3FC953F1F383FDE268B1CF5278D116A88123C657DF6685F44335941 DUP4 DUP1 LOG3 DUP1 RETURN JUMPDEST PUSH4 0x4E487B71 PUSH1 0xE0 SHL DUP9 MSTORE PUSH1 0x11 SWAP1 MSTORE PUSH1 0x24 DUP8 REVERT JUMPDEST PUSH2 0x7A8 SWAP2 POP DUP7 RETURNDATASIZE DUP9 GT PUSH2 0x7AE JUMPI PUSH2 0x7A0 DUP2 DUP4 PUSH2 0x2E49 JUMP JUMPDEST DUP3 MLOAD RETURNDATASIZE DUP10 DUP3 RETURNDATACOPY RETURNDATASIZE SWAP1 REVERT JUMPDEST PUSH1 0x84 SWAP4 SWAP2 POP MLOAD SWAP2 PUSH3 0x461BCD PUSH1 0xE5 SHL DUP4 MSTORE DUP3 ADD MSTORE PUSH1 0x2E PUSH1 0x24 DUP3 ADD MSTORE PUSH32 0x4F6E6C792070656E64696E67206469737472696275746F722063616E20616363 PUSH1 0x44 DUP3 ADD MSTORE PUSH14 0x65707420666F7220726576696577 PUSH1 0x90 SHL PUSH1 0x64 DUP3 ADD MSTORE REVERT JUMPDEST POP SWAP1 CALLVALUE PUSH2 0x4ED JUMPI PUSH2 0x1FA9 CALLDATASIZE PUSH2 0x3137 JUMP JUMPDEST PUSH2 0x1FB4 SWAP4 SWAP2 SWAP4 PUSH2 0x31F1 JUMP JUMPDEST PUSH1 0x1 PUSH1 0x1 PUSH1 0xA0 SHL SUB SWAP4 DUP5 AND DUP1 DUP7 MSTORE PUSH1 0x14 PUSH1 0x20 SWAP1 DUP2 MSTORE DUP4 DUP8 KECCAK256 SLOAD SWAP2 SWAP6 SWAP1 SWAP2 AND CALLER SUB PUSH2 0x2134 JUMPI DUP5 DUP7 MSTORE PUSH1 0x10 DUP2 MSTORE DUP3 DUP7 KECCAK256 DUP3 MLOAD PUSH1 0x1 PUSH1 0x1 PUSH1 0x40 SHL SUB DUP2 GT PUSH2 0x1450 JUMPI PUSH2 0x1FFC DUP3 SLOAD PUSH2 0x2DCB JUMP JUMPDEST PUSH1 0x1F DUP2 GT PUSH2 0x20F1 JUMPI JUMPDEST POP DUP3 PUSH1 0x1F DUP3 GT PUSH1 0x1 EQ PUSH2 0x2079 JUMPI SWAP3 PUSH1 0x0 DUP1 MLOAD PUSH1 0x20 PUSH2 0x3B6C DUP4 CODECOPY DUP2 MLOAD SWAP2 MSTORE SWAP7 SWAP6 SWAP5 SWAP3 DUP3 PUSH1 0x80 SWAP4 PUSH2 0xB58 SWAP7 DUP13 SWAP2 PUSH2 0x206E JUMPI JUMPDEST POP DUP2 PUSH1 0x1 SHL SWAP2 PUSH1 0x0 NOT SWAP1 PUSH1 0x3 SHL SHR NOT AND OR SWAP1 SSTORE JUMPDEST DUP5 MLOAD SWAP6 DUP6 DUP8 SWAP7 DUP8 MSTORE DUP7 ADD MSTORE PUSH4 0x49535243 PUSH1 0xE0 SHL PUSH1 0x60 DUP7 ADD MSTORE DUP5 ADD MSTORE PUSH1 0x80 DUP4 ADD SWAP1 PUSH2 0x2FD9 JUMP JUMPDEST SWAP1 POP DUP6 ADD MLOAD CODESIZE PUSH2 0x2035 JUMP JUMPDEST DUP3 DUP10 MSTORE DUP4 DUP10 KECCAK256 SWAP1 PUSH1 0x1F NOT DUP4 AND DUP11 JUMPDEST DUP2 DUP2 LT PUSH2 0x20DA JUMPI POP DUP4 PUSH2 0xB58 SWAP7 SWAP4 PUSH1 0x0 DUP1 MLOAD PUSH1 0x20 PUSH2 0x3B6C DUP4 CODECOPY DUP2 MLOAD SWAP2 MSTORE SWAP11 SWAP10 SWAP9 SWAP7 SWAP4 PUSH1 0x80 SWAP7 PUSH1 0x1 SWAP5 LT PUSH2 0x20C1 JUMPI JUMPDEST POP POP DUP2 SHL ADD SWAP1 SSTORE PUSH2 0x2049 JUMP JUMPDEST DUP8 ADD MLOAD PUSH1 0x0 NOT PUSH1 0xF8 DUP5 PUSH1 0x3 SHL AND SHR NOT AND SWAP1 SSTORE CODESIZE DUP1 PUSH2 0x20B5 JUMP JUMPDEST SWAP2 SWAP3 DUP7 PUSH1 0x1 DUP2 SWAP3 DUP7 DUP12 ADD MLOAD DUP2 SSTORE ADD SWAP5 ADD SWAP3 ADD PUSH2 0x2087 JUMP JUMPDEST DUP3 DUP10 MSTORE DUP4 DUP10 KECCAK256 PUSH1 0x1F DUP4 ADD PUSH1 0x5 SHR DUP2 ADD SWAP2 DUP6 DUP5 LT PUSH2 0x212A JUMPI JUMPDEST PUSH1 0x1F ADD PUSH1 0x5 SHR ADD SWAP1 JUMPDEST DUP2 DUP2 LT PUSH2 0x211F JUMPI POP PUSH2 0x2005 JUMP JUMPDEST DUP10 DUP2 SSTORE PUSH1 0x1 ADD PUSH2 0x2112 JUMP JUMPDEST SWAP1 SWAP2 POP DUP2 SWAP1 PUSH2 0x2109 JUMP JUMPDEST DUP4 PUSH1 0x64 SWAP2 DUP5 MLOAD SWAP2 PUSH3 0x461BCD PUSH1 0xE5 SHL DUP4 MSTORE DUP3 ADD MSTORE PUSH1 0x1D PUSH1 0x24 DUP3 ADD MSTORE PUSH32 0x4F6E6C79206469737472696275746F722063616E207365742049535243000000 PUSH1 0x44 DUP3 ADD MSTORE REVERT JUMPDEST DUP4 DUP3 CALLVALUE PUSH2 0x6B6 JUMPI DUP2 PUSH1 0x3 NOT CALLDATASIZE ADD SLT PUSH2 0x6B6 JUMPI PUSH1 0x20 SWAP1 PUSH1 0x7 SLOAD SWAP1 MLOAD SWAP1 DUP2 MSTORE RETURN JUMPDEST DUP4 DUP3 CALLVALUE PUSH2 0x6B6 JUMPI DUP2 PUSH1 0x3 NOT CALLDATASIZE ADD SLT PUSH2 0x6B6 JUMPI PUSH1 0x20 SWAP1 PUSH1 0x2 SLOAD SWAP1 MLOAD SWAP1 DUP2 MSTORE RETURN JUMPDEST POP SWAP1 CALLVALUE PUSH2 0x4ED JUMPI DUP3 PUSH1 0x3 NOT CALLDATASIZE ADD SLT PUSH2 0x4ED JUMPI PUSH2 0x21CE PUSH2 0x31C5 JUMP JUMPDEST DUP3 SLOAD SWAP1 PUSH1 0xFF DUP3 PUSH1 0xA0 SHR AND ISZERO PUSH2 0x2214 JUMPI POP PUSH1 0xFF PUSH1 0xA0 SHL NOT AND DUP3 SSTORE MLOAD CALLER DUP2 MSTORE PUSH32 0x5DB9EE0A495BF2E6FF9C91A7834C1BA4FDD244A5E8AA4E537BD38AEAE4B073AA SWAP1 PUSH1 0x20 SWAP1 LOG1 DUP1 RETURN JUMPDEST DUP3 MLOAD PUSH4 0x8DFC202B PUSH1 0xE0 SHL DUP2 MSTORE REVERT JUMPDEST DUP4 DUP3 CALLVALUE PUSH2 0x6B6 JUMPI PUSH1 0x20 CALLDATASIZE PUSH1 0x3 NOT ADD SLT PUSH2 0x6B6 JUMPI PUSH1 0x20 SWAP2 PUSH1 0x1 PUSH1 0x1 PUSH1 0xA0 SHL SUB SWAP1 DUP3 SWAP1 DUP3 PUSH2 0x224C PUSH2 0x2D9A JUMP JUMPDEST AND DUP2 MSTORE PUSH1 0x14 DUP6 MSTORE KECCAK256 SLOAD AND SWAP1 MLOAD SWAP1 DUP2 MSTORE RETURN JUMPDEST DUP4 DUP3 CALLVALUE PUSH2 0x6B6 JUMPI PUSH1 0x20 DUP1 PUSH1 0x3 NOT CALLDATASIZE ADD SLT PUSH2 0x4ED JUMPI PUSH1 0x1 PUSH1 0x1 PUSH1 0xA0 SHL SUB SWAP3 DUP4 PUSH2 0x2283 PUSH2 0x2D9A JUMP JUMPDEST AND DUP2 MSTORE PUSH1 0x8 DUP3 MSTORE DUP3 DUP2 KECCAK256 SWAP2 DUP4 MLOAD SWAP1 DUP2 DUP2 DUP6 SLOAD SWAP2 DUP3 DUP2 MSTORE ADD SWAP1 DUP2 SWAP6 DUP6 MSTORE DUP3 DUP6 KECCAK256 SWAP1 DUP6 JUMPDEST DUP2 DUP2 LT PUSH2 0x22F1 JUMPI POP POP POP DUP3 PUSH2 0x22BB SWAP2 SUB DUP4 PUSH2 0x2E49 JUMP JUMPDEST DUP5 MLOAD SWAP5 DUP2 DUP7 ADD SWAP3 DUP3 DUP8 MSTORE MLOAD DUP1 SWAP4 MSTORE DUP6 ADD SWAP4 SWAP3 JUMPDEST DUP3 DUP2 LT PUSH2 0x22DB JUMPI DUP6 DUP6 SUB DUP7 RETURN JUMPDEST DUP4 MLOAD DUP8 AND DUP6 MSTORE SWAP4 DUP2 ADD SWAP4 SWAP3 DUP2 ADD SWAP3 PUSH1 0x1 ADD PUSH2 0x22CE JUMP JUMPDEST DUP3 SLOAD DUP11 AND DUP5 MSTORE SWAP3 DUP5 ADD SWAP3 PUSH1 0x1 SWAP3 DUP4 ADD SWAP3 ADD PUSH2 0x22A5 JUMP JUMPDEST DUP4 DUP3 CALLVALUE PUSH2 0x6B6 JUMPI PUSH1 0x20 CALLDATASIZE PUSH1 0x3 NOT ADD SLT PUSH2 0x6B6 JUMPI PUSH1 0x20 SWAP2 PUSH1 0x1 PUSH1 0x1 PUSH1 0xA0 SHL SUB SWAP1 DUP3 SWAP1 DUP3 PUSH2 0x2331 PUSH2 0x2D9A JUMP JUMPDEST AND DUP2 MSTORE PUSH1 0x14 DUP6 MSTORE KECCAK256 SLOAD AND ISZERO ISZERO SWAP1 MLOAD SWAP1 DUP2 MSTORE RETURN JUMPDEST POP SWAP2 SWAP1 CALLVALUE PUSH2 0x6B6 JUMPI DUP3 PUSH1 0x3 NOT CALLDATASIZE ADD SLT PUSH2 0x6B6 JUMPI PUSH2 0x235F PUSH2 0x2D9A JUMP JUMPDEST PUSH2 0x2367 PUSH2 0x2DB5 JUMP JUMPDEST PUSH2 0x236F PUSH2 0x31C5 JUMP JUMPDEST PUSH1 0x2 PUSH1 0x1 SLOAD EQ PUSH2 0x24F7 JUMPI PUSH1 0x2 PUSH1 0x1 SSTORE PUSH1 0x1 DUP1 PUSH1 0xA0 SHL SUB DUP1 SWAP3 AND SWAP2 DUP3 DUP6 MSTORE PUSH1 0x20 SWAP2 PUSH1 0x1D DUP4 MSTORE DUP7 DUP7 KECCAK256 SLOAD SWAP5 DUP6 ISZERO PUSH2 0x24BE JUMPI DUP5 DUP8 MSTORE PUSH1 0x1D DUP5 MSTORE DUP7 DUP9 DUP2 KECCAK256 SSTORE DUP5 ISZERO PUSH1 0x0 EQ PUSH2 0x2439 JUMPI DUP7 DUP1 DUP1 DUP1 DUP10 DUP8 DUP8 AND GAS CALL PUSH2 0x23C5 PUSH2 0x333C JUMP JUMPDEST POP ISZERO PUSH2 0x2400 JUMPI POP PUSH32 0x5E110F8BC8A20B65DCC87F224BDF1CC039346E267118BAE2739847F07321FFA8 SWAP4 SWAP5 SWAP6 SWAP7 JUMPDEST MLOAD SWAP6 DUP7 MSTORE AND SWAP4 LOG3 PUSH1 0x1 DUP1 SSTORE DUP1 RETURN JUMPDEST DUP8 MLOAD PUSH3 0x461BCD PUSH1 0xE5 SHL DUP2 MSTORE SWAP1 DUP2 ADD DUP5 SWAP1 MSTORE PUSH1 0x13 PUSH1 0x24 DUP3 ADD MSTORE PUSH19 0x115512081D1C985B9CD9995C8819985A5B1959 PUSH1 0x6A SHL PUSH1 0x44 DUP3 ADD MSTORE PUSH1 0x64 SWAP1 REVERT JUMPDEST DUP8 MLOAD PUSH4 0xA9059CBB PUSH1 0xE0 SHL DUP6 DUP3 ADD MSTORE DUP3 DUP5 AND PUSH1 0x24 DUP3 ADD MSTORE PUSH1 0x44 DUP1 DUP3 ADD DUP9 SWAP1 MSTORE DUP2 MSTORE SWAP8 SWAP1 PUSH1 0x80 DUP10 ADD SWAP1 PUSH1 0x1 PUSH1 0x1 PUSH1 0x40 SHL SUB DUP3 GT DUP11 DUP4 LT OR PUSH2 0x24A9 JUMPI POP PUSH32 0x5E110F8BC8A20B65DCC87F224BDF1CC039346E267118BAE2739847F07321FFA8 SWAP6 SWAP7 SWAP8 SWAP9 PUSH2 0x24A4 SWAP2 DUP4 MSTORE DUP8 PUSH2 0x3679 JUMP JUMPDEST PUSH2 0x23F2 JUMP JUMPDEST PUSH1 0x41 SWAP1 PUSH4 0x4E487B71 PUSH1 0xE0 SHL PUSH1 0x0 MSTORE MSTORE PUSH1 0x24 PUSH1 0x0 REVERT JUMPDEST DUP8 MLOAD PUSH3 0x461BCD PUSH1 0xE5 SHL DUP2 MSTORE SWAP1 DUP2 ADD DUP5 SWAP1 MSTORE PUSH1 0x13 PUSH1 0x24 DUP3 ADD MSTORE PUSH19 0x4E6F206665657320746F207769746864726177 PUSH1 0x68 SHL PUSH1 0x44 DUP3 ADD MSTORE PUSH1 0x64 SWAP1 REVERT JUMPDEST DUP5 MLOAD PUSH4 0x3EE5AEB5 PUSH1 0xE0 SHL DUP2 MSTORE DUP4 SWAP1 REVERT JUMPDEST DUP4 DUP3 CALLVALUE PUSH2 0x6B6 JUMPI DUP2 PUSH1 0x3 NOT CALLDATASIZE ADD SLT PUSH2 0x6B6 JUMPI PUSH1 0xE SLOAD SWAP1 MLOAD PUSH1 0x1 PUSH1 0x1 PUSH1 0xA0 SHL SUB SWAP1 SWAP2 AND DUP2 MSTORE PUSH1 0x20 SWAP1 RETURN JUMPDEST DUP4 DUP3 CALLVALUE PUSH2 0x6B6 JUMPI PUSH1 0x20 CALLDATASIZE PUSH1 0x3 NOT ADD SLT PUSH2 0x6B6 JUMPI PUSH1 0x20 PUSH32 0x820C11A553E3F58735F11B502C4C13B5BDAAD97E61B6FE3BAFE7EAF4E09E94DE SWAP2 PUSH2 0x256F PUSH2 0x2D9A JUMP JUMPDEST PUSH2 0x2577 PUSH2 0x31C5 JUMP JUMPDEST PUSH1 0x1 PUSH1 0x1 PUSH1 0xA0 SHL SUB AND SWAP1 PUSH2 0x258C DUP3 ISZERO ISZERO PUSH2 0x3AB7 JUMP JUMPDEST PUSH1 0xB DUP1 SLOAD PUSH1 0x1 PUSH1 0x1 PUSH1 0xA0 SHL SUB NOT AND DUP4 OR SWAP1 SSTORE MLOAD SWAP1 DUP2 MSTORE LOG1 DUP1 RETURN JUMPDEST POP SWAP1 CALLVALUE PUSH2 0x4ED JUMPI PUSH1 0x20 CALLDATASIZE PUSH1 0x3 NOT ADD SLT PUSH2 0x4ED JUMPI PUSH32 0xD2F394433244B5E41AA3A9CC6FAE806B7EC98210C12B000CF879E113115C9329 SWAP2 PUSH1 0x20 SWAP2 CALLDATALOAD SWAP1 PUSH2 0x25E8 PUSH2 0x31C5 JUMP JUMPDEST DUP2 PUSH1 0x2 SSTORE MLOAD SWAP1 DUP2 MSTORE LOG1 DUP1 RETURN JUMPDEST POP CALLVALUE PUSH2 0x4ED JUMPI PUSH1 0x20 CALLDATASIZE PUSH1 0x3 NOT ADD SLT PUSH2 0x4ED JUMPI DUP3 PUSH2 0x260F PUSH2 0x2D9A JUMP JUMPDEST DUP2 SLOAD PUSH1 0x1 PUSH1 0x1 PUSH1 0xA0 SHL SUB SWAP2 SWAP1 DUP3 AND CALLER EQ DUP1 ISZERO PUSH2 0x2671 JUMPI JUMPDEST PUSH2 0x262F SWAP1 PUSH2 0x3212 JUMP JUMPDEST DUP2 PUSH1 0xD SLOAD AND SWAP1 DUP2 EXTCODESIZE ISZERO PUSH2 0x4FE JUMPI DUP4 PUSH1 0x24 SWAP3 DUP7 MLOAD SWAP8 DUP9 SWAP6 DUP7 SWAP5 PUSH4 0x18313ADF PUSH1 0xE1 SHL DUP7 MSTORE AND SWAP1 DUP5 ADD MSTORE GAS CALL SWAP1 DUP2 ISZERO PUSH2 0x4F1 JUMPI POP PUSH2 0x2668 JUMPI POP DUP1 RETURN JUMPDEST PUSH2 0x4D6 SWAP1 PUSH2 0x2E05 JUMP JUMPDEST POP PUSH1 0xD SLOAD DUP3 AND CALLER EQ PUSH2 0x2626 JUMP JUMPDEST POP DUP3 SWAP1 CALLVALUE PUSH2 0x6B6 JUMPI PUSH1 0x3 NOT SWAP2 PUSH1 0x60 CALLDATASIZE DUP5 ADD SLT PUSH2 0xD82 JUMPI PUSH1 0x1 PUSH1 0x1 PUSH1 0x40 SHL SUB SWAP4 DUP1 CALLDATALOAD DUP6 DUP2 GT PUSH2 0x4ED JUMPI PUSH2 0x26B3 SWAP1 CALLDATASIZE SWAP1 DUP4 ADD PUSH2 0x3060 JUMP JUMPDEST PUSH1 0x44 CALLDATALOAD PUSH1 0x1 PUSH1 0x1 PUSH1 0xA0 SHL SUB DUP2 DUP2 AND SWAP7 SWAP2 DUP8 SWAP1 SUB PUSH2 0x28AC JUMPI DUP1 PUSH1 0xE SLOAD AND CALLER SUB PUSH2 0x2869 JUMPI SWAP2 DUP5 SWAP4 SWAP2 PUSH2 0x2701 PUSH1 0xA0 SWAP7 SWAP5 PUSH1 0x1A SLOAD AND SWAP3 DUP9 MLOAD SWAP8 DUP9 SWAP6 PUSH4 0x350F69B1 PUSH1 0xE1 SHL DUP8 MSTORE DUP7 ADD MSTORE PUSH1 0xA4 DUP6 ADD SWAP1 PUSH2 0x329B JUMP JUMPDEST SWAP8 PUSH1 0x24 CALLDATALOAD PUSH1 0x24 DUP6 ADD MSTORE PUSH1 0x44 DUP5 ADD MSTORE DUP3 DUP9 SUB ADD PUSH1 0x64 DUP4 ADD MSTORE DUP3 PUSH1 0x20 SWAP8 DUP9 SLOAD SWAP1 PUSH2 0x2728 DUP3 PUSH2 0x2DCB JUMP JUMPDEST SWAP2 DUP3 DUP3 MSTORE PUSH1 0x1 SWAP1 DUP7 DUP13 DUP4 DUP4 AND SWAP3 DUP4 PUSH1 0x0 EQ PUSH2 0x2849 JUMPI POP POP POP PUSH1 0x1 EQ PUSH2 0x2801 JUMPI JUMPDEST POP POP POP DUP3 DUP1 SWAP2 ADDRESS PUSH1 0x84 DUP4 ADD MSTORE SUB SWAP2 GAS STATICCALL SWAP5 DUP6 ISZERO PUSH2 0x27F5 JUMPI DUP2 SWAP6 PUSH2 0x277C JUMPI JUMPDEST POP POP POP PUSH2 0x1554 SWAP1 MLOAD SWAP3 DUP3 DUP5 SWAP4 DUP5 MSTORE DUP4 ADD SWAP1 PUSH2 0x2FD9 JUMP JUMPDEST SWAP1 SWAP2 SWAP3 SWAP5 POP RETURNDATASIZE DUP1 DUP4 DUP6 RETURNDATACOPY PUSH2 0x2790 DUP2 DUP6 PUSH2 0x2E49 JUMP JUMPDEST DUP4 ADD SWAP3 DUP5 DUP2 DUP6 SUB SLT PUSH2 0x4ED JUMPI DUP1 MLOAD SWAP2 DUP3 GT PUSH2 0x4ED JUMPI ADD DUP3 PUSH1 0x1F DUP3 ADD SLT ISZERO PUSH2 0x6B6 JUMPI DUP1 MLOAD SWAP2 PUSH2 0x27BD DUP4 PUSH2 0x2FFE JUMP JUMPDEST SWAP4 PUSH2 0x27CA DUP8 MLOAD SWAP6 DUP7 PUSH2 0x2E49 JUMP JUMPDEST DUP4 DUP6 MSTORE DUP6 DUP5 DUP5 ADD ADD GT PUSH2 0xD82 JUMPI POP DUP3 SWAP2 PUSH2 0x27EC SWAP2 DUP6 DUP1 PUSH2 0x1554 SWAP7 ADD SWAP2 ADD PUSH2 0x2FB6 JUMP JUMPDEST SWAP3 SWAP1 DUP5 DUP1 PUSH2 0x2766 JUMP JUMPDEST POP DUP3 MLOAD SWAP1 RETURNDATASIZE SWAP1 DUP3 RETURNDATACOPY RETURNDATASIZE SWAP1 REVERT JUMPDEST DUP11 DUP8 MSTORE DUP11 SWAP4 POP DUP7 SWAP3 SWAP1 PUSH1 0x0 DUP1 MLOAD PUSH1 0x20 PUSH2 0x3B4C DUP4 CODECOPY DUP2 MLOAD SWAP2 MSTORE JUMPDEST DUP3 DUP6 LT PUSH2 0x282E JUMPI POP POP POP ADD ADD DUP3 DUP1 DUP12 PUSH2 0x2748 JUMP JUMPDEST DUP1 SLOAD DUP5 DUP7 ADD DUP8 ADD MSTORE DUP10 SWAP9 POP DUP11 SWAP8 POP DUP13 SWAP6 SWAP1 SWAP5 ADD SWAP4 DUP2 ADD PUSH2 0x281A JUMP JUMPDEST SWAP2 SWAP7 POP SWAP4 SWAP3 POP DUP6 SWAP5 SWAP2 POP PUSH1 0xFF NOT AND DUP4 DUP4 ADD MSTORE ISZERO ISZERO PUSH1 0x5 SHL ADD ADD SWAP2 DUP12 PUSH2 0x2748 JUMP JUMPDEST DUP6 MLOAD PUSH3 0x461BCD PUSH1 0xE5 SHL DUP2 MSTORE PUSH1 0x20 DUP2 DUP7 ADD MSTORE PUSH1 0x1F PUSH1 0x24 DUP3 ADD MSTORE PUSH32 0x4F6E6C79206D65746164617461206D6F64756C652063616E2072656E64657200 PUSH1 0x44 DUP3 ADD MSTORE PUSH1 0x64 SWAP1 REVERT JUMPDEST DUP5 DUP1 REVERT JUMPDEST POP SWAP1 CALLVALUE PUSH2 0x4ED JUMPI PUSH1 0x20 CALLDATASIZE PUSH1 0x3 NOT ADD SLT PUSH2 0x4ED JUMPI PUSH2 0x28CB PUSH2 0x2D9A JUMP JUMPDEST PUSH2 0x28D3 PUSH2 0x31C5 JUMP JUMPDEST PUSH1 0x1 PUSH1 0x1 PUSH1 0xA0 SHL SUB AND SWAP2 DUP3 ISZERO PUSH2 0x28FB JUMPI POP POP PUSH1 0x1 PUSH1 0x1 PUSH1 0x60 SHL SUB PUSH1 0xA0 SHL PUSH1 0xA SLOAD AND OR PUSH1 0xA SSTORE DUP1 RETURN JUMPDEST SWAP1 PUSH1 0x20 PUSH1 0x64 SWAP3 MLOAD SWAP2 PUSH3 0x461BCD PUSH1 0xE5 SHL DUP4 MSTORE DUP3 ADD MSTORE PUSH1 0x17 PUSH1 0x24 DUP3 ADD MSTORE PUSH32 0x496E76616C696420666163746F72792061646472657373000000000000000000 PUSH1 0x44 DUP3 ADD MSTORE REVERT JUMPDEST POP SWAP1 CALLVALUE PUSH2 0x4ED JUMPI PUSH1 0x20 DUP1 PUSH1 0x3 NOT CALLDATASIZE ADD SLT PUSH2 0x4FE JUMPI PUSH1 0x1 PUSH1 0x1 PUSH1 0xA0 SHL SUB SWAP2 DUP3 PUSH2 0x2964 PUSH2 0x2D9A JUMP JUMPDEST AND SWAP1 DUP5 MLOAD PUSH4 0x8DA5CB5B PUSH1 0xE0 SHL DUP2 MSTORE DUP4 DUP2 DUP4 DUP2 DUP7 GAS STATICCALL DUP1 ISZERO PUSH2 0x2AEE JUMPI DUP6 SWAP2 DUP9 SWAP2 PUSH2 0x2AC1 JUMPI JUMPDEST POP AND CALLER SUB PUSH2 0x2A63 JUMPI DUP2 DUP7 MSTORE PUSH1 0x15 DUP4 MSTORE DUP4 DUP6 DUP8 KECCAK256 SLOAD AND ISZERO PUSH2 0x2A20 JUMPI DUP3 SWAP1 PUSH1 0x24 DUP6 PUSH1 0xB SLOAD AND SWAP6 DUP5 DUP10 MSTORE PUSH1 0x15 DUP5 MSTORE DUP8 DUP10 KECCAK256 SLOAD AND SWAP2 DUP8 MLOAD SWAP7 DUP8 SWAP4 DUP5 SWAP3 PUSH4 0xD42FE231 PUSH1 0xE0 SHL DUP5 MSTORE DUP4 ADD MSTORE GAS STATICCALL SWAP3 DUP4 ISZERO PUSH2 0x2A16 JUMPI PUSH1 0x15 SWAP4 PUSH2 0x29E9 SWAP2 DUP8 SWAP2 PUSH2 0x29FF JUMPI POP PUSH2 0x3A1F JUMP JUMPDEST DUP5 MSTORE MSTORE DUP2 KECCAK256 DUP1 SLOAD PUSH1 0x1 PUSH1 0x1 PUSH1 0xA0 SHL SUB NOT AND SWAP1 SSTORE DUP1 RETURN JUMPDEST PUSH2 0x7A8 SWAP2 POP DUP5 RETURNDATASIZE DUP7 GT PUSH2 0x7AE JUMPI PUSH2 0x7A0 DUP2 DUP4 PUSH2 0x2E49 JUMP JUMPDEST DUP5 MLOAD RETURNDATASIZE DUP8 DUP3 RETURNDATACOPY RETURNDATASIZE SWAP1 REVERT JUMPDEST DUP5 MLOAD PUSH3 0x461BCD PUSH1 0xE5 SHL DUP2 MSTORE SWAP1 DUP2 ADD DUP4 SWAP1 MSTORE PUSH1 0x1A PUSH1 0x24 DUP3 ADD MSTORE PUSH32 0x4E6F2070656E64696E672072656C656173652072657175657374000000000000 PUSH1 0x44 DUP3 ADD MSTORE PUSH1 0x64 SWAP1 REVERT JUMPDEST DUP5 MLOAD PUSH3 0x461BCD PUSH1 0xE5 SHL DUP2 MSTORE SWAP1 DUP2 ADD DUP4 SWAP1 MSTORE PUSH1 0x32 PUSH1 0x24 DUP3 ADD MSTORE PUSH32 0x4F6E6C79207772617070656420736F6E67206F776E65722063616E2072656D6F PUSH1 0x44 DUP3 ADD MSTORE PUSH18 0x1D99481C995B19585CD9481C995C5D595CDD PUSH1 0x72 SHL PUSH1 0x64 DUP3 ADD MSTORE PUSH1 0x84 SWAP1 REVERT JUMPDEST PUSH2 0x2AE1 SWAP2 POP DUP6 RETURNDATASIZE DUP8 GT PUSH2 0x2AE7 JUMPI JUMPDEST PUSH2 0x2AD9 DUP2 DUP4 PUSH2 0x2E49 JUMP JUMPDEST DUP2 ADD SWAP1 PUSH2 0x336C JUMP JUMPDEST CODESIZE PUSH2 0x2988 JUMP JUMPDEST POP RETURNDATASIZE PUSH2 0x2ACF JUMP JUMPDEST DUP7 MLOAD RETURNDATASIZE DUP10 DUP3 RETURNDATACOPY RETURNDATASIZE SWAP1 REVERT JUMPDEST DUP4 DUP3 CALLVALUE PUSH2 0x6B6 JUMPI DUP2 PUSH1 0x3 NOT CALLDATASIZE ADD SLT PUSH2 0x6B6 JUMPI PUSH1 0x20 SWAP1 PUSH1 0x3 SLOAD SWAP1 MLOAD SWAP1 DUP2 MSTORE RETURN JUMPDEST DUP4 DUP3 CALLVALUE PUSH2 0x6B6 JUMPI PUSH1 0x20 CALLDATASIZE PUSH1 0x3 NOT ADD SLT PUSH2 0x6B6 JUMPI PUSH2 0x1554 SWAP2 PUSH2 0x1541 SWAP1 DUP3 SWAP1 PUSH1 0x1 PUSH1 0x1 PUSH1 0xA0 SHL SUB PUSH2 0x2B44 PUSH2 0x2D9A JUMP JUMPDEST AND DUP2 MSTORE PUSH1 0x10 PUSH1 0x20 MSTORE KECCAK256 PUSH2 0x2F13 JUMP JUMPDEST POP POP CALLVALUE PUSH2 0x6B6 JUMPI PUSH1 0x20 CALLDATASIZE PUSH1 0x3 NOT ADD SLT PUSH2 0x6B6 JUMPI PUSH2 0x2B6D PUSH2 0x31C5 JUMP JUMPDEST CALLDATALOAD PUSH1 0x1E SSTORE DUP1 RETURN JUMPDEST DUP4 DUP3 CALLVALUE PUSH2 0x6B6 JUMPI PUSH1 0x20 CALLDATASIZE PUSH1 0x3 NOT ADD SLT PUSH2 0x6B6 JUMPI PUSH2 0x1554 SWAP2 PUSH2 0x1541 SWAP1 DUP3 SWAP1 PUSH1 0x1 PUSH1 0x1 PUSH1 0xA0 SHL SUB PUSH2 0x2BA1 PUSH2 0x2D9A JUMP JUMPDEST AND DUP2 MSTORE PUSH1 0x11 PUSH1 0x20 MSTORE KECCAK256 PUSH2 0x2F13 JUMP JUMPDEST DUP4 DUP3 CALLVALUE PUSH2 0x6B6 JUMPI DUP2 PUSH1 0x3 NOT CALLDATASIZE ADD SLT PUSH2 0x6B6 JUMPI PUSH1 0x20 SWAP1 PUSH1 0x1E SLOAD SWAP1 MLOAD SWAP1 DUP2 MSTORE RETURN JUMPDEST DUP4 DUP3 CALLVALUE PUSH2 0x6B6 JUMPI DUP2 PUSH1 0x3 NOT CALLDATASIZE ADD SLT PUSH2 0x6B6 JUMPI PUSH1 0x20 SWAP1 PUSH1 0xFF PUSH1 0x21 SLOAD AND SWAP1 MLOAD SWAP1 ISZERO ISZERO DUP2 MSTORE RETURN JUMPDEST DUP4 DUP3 CALLVALUE PUSH2 0x6B6 JUMPI DUP2 PUSH1 0x3 NOT CALLDATASIZE ADD SLT PUSH2 0x6B6 JUMPI PUSH1 0x20 SWAP1 PUSH1 0xFF PUSH1 0x6 SLOAD AND SWAP1 MLOAD SWAP1 ISZERO ISZERO DUP2 MSTORE RETURN JUMPDEST DUP4 DUP3 CALLVALUE PUSH2 0x6B6 JUMPI DUP2 PUSH1 0x3 NOT CALLDATASIZE ADD SLT PUSH2 0x6B6 JUMPI PUSH1 0xB SLOAD SWAP1 MLOAD PUSH1 0x1 PUSH1 0x1 PUSH1 0xA0 SHL SUB SWAP1 SWAP2 AND DUP2 MSTORE PUSH1 0x20 SWAP1 RETURN JUMPDEST DUP4 DUP3 CALLVALUE PUSH2 0x6B6 JUMPI DUP2 PUSH1 0x3 NOT CALLDATASIZE ADD SLT PUSH2 0x6B6 JUMPI PUSH1 0x20 SWAP1 PUSH1 0x5 SLOAD SWAP1 MLOAD SWAP1 DUP2 MSTORE RETURN JUMPDEST DUP4 DUP3 CALLVALUE PUSH2 0x6B6 JUMPI PUSH1 0x20 CALLDATASIZE PUSH1 0x3 NOT ADD SLT PUSH2 0x6B6 JUMPI PUSH1 0x20 SWAP2 PUSH1 0x1 PUSH1 0x1 PUSH1 0xA0 SHL SUB SWAP1 DUP3 SWAP1 DUP3 PUSH2 0x2C88 PUSH2 0x2D9A JUMP JUMPDEST AND DUP2 MSTORE PUSH1 0x9 DUP6 MSTORE KECCAK256 SLOAD AND SWAP1 MLOAD SWAP1 DUP2 MSTORE RETURN JUMPDEST DUP4 DUP3 CALLVALUE PUSH2 0x6B6 JUMPI DUP2 PUSH1 0x3 NOT CALLDATASIZE ADD SLT PUSH2 0x6B6 JUMPI PUSH1 0xD SLOAD SWAP1 MLOAD PUSH1 0x1 PUSH1 0x1 PUSH1 0xA0 SHL SUB SWAP1 SWAP2 AND DUP2 MSTORE PUSH1 0x20 SWAP1 RETURN JUMPDEST POP CALLVALUE PUSH2 0x4ED JUMPI DUP1 PUSH1 0x3 NOT CALLDATASIZE ADD SLT PUSH2 0x4ED JUMPI PUSH2 0x2CDB PUSH2 0x2D9A JUMP JUMPDEST SWAP2 PUSH2 0x2CE4 PUSH2 0x2DB5 JUMP JUMPDEST SWAP3 PUSH2 0x2CED PUSH2 0x31F1 JUMP JUMPDEST PUSH1 0xA SLOAD PUSH1 0x1 PUSH1 0x1 PUSH1 0xA0 SHL SUB SWAP3 SWAP1 DUP4 AND CALLER SUB PUSH2 0x2D4C JUMPI POP DUP2 AND SWAP2 DUP3 DUP6 MSTORE PUSH1 0x9 PUSH1 0x20 MSTORE DUP5 KECCAK256 SWAP3 AND SWAP2 DUP3 PUSH1 0x1 PUSH1 0x1 PUSH1 0x60 SHL SUB PUSH1 0xA0 SHL DUP3 SLOAD AND OR SWAP1 SSTORE PUSH32 0x48E8EF3819015E9B1E8D36DDBBBC8CEFC90DBA7F69B711BDCA0C9A10B63B037F DUP4 DUP1 LOG3 DUP1 RETURN JUMPDEST PUSH1 0x84 SWAP1 PUSH1 0x20 DUP6 MLOAD SWAP2 PUSH3 0x461BCD PUSH1 0xE5 SHL DUP4 MSTORE DUP3 ADD MSTORE PUSH1 0x22 PUSH1 0x24 DUP3 ADD MSTORE PUSH32 0x4F6E6C7920666163746F72792063616E2073657420746F6B656E206D61707069 PUSH1 0x44 DUP3 ADD MSTORE PUSH2 0x6E67 PUSH1 0xF0 SHL PUSH1 0x64 DUP3 ADD MSTORE REVERT JUMPDEST PUSH1 0x4 CALLDATALOAD SWAP1 PUSH1 0x1 PUSH1 0x1 PUSH1 0xA0 SHL SUB DUP3 AND DUP3 SUB PUSH2 0x2DB0 JUMPI JUMP JUMPDEST PUSH1 0x0 DUP1 REVERT JUMPDEST PUSH1 0x24 CALLDATALOAD SWAP1 PUSH1 0x1 PUSH1 0x1 PUSH1 0xA0 SHL SUB DUP3 AND DUP3 SUB PUSH2 0x2DB0 JUMPI JUMP JUMPDEST SWAP1 PUSH1 0x1 DUP3 DUP2 SHR SWAP3 AND DUP1 ISZERO PUSH2 0x2DFB JUMPI JUMPDEST PUSH1 0x20 DUP4 LT EQ PUSH2 0x2DE5 JUMPI JUMP JUMPDEST PUSH4 0x4E487B71 PUSH1 0xE0 SHL PUSH1 0x0 MSTORE PUSH1 0x22 PUSH1 0x4 MSTORE PUSH1 0x24 PUSH1 0x0 REVERT JUMPDEST SWAP2 PUSH1 0x7F AND SWAP2 PUSH2 0x2DDA JUMP JUMPDEST PUSH1 0x1 PUSH1 0x1 PUSH1 0x40 SHL SUB DUP2 GT PUSH2 0x2E18 JUMPI PUSH1 0x40 MSTORE JUMP JUMPDEST PUSH4 0x4E487B71 PUSH1 0xE0 SHL PUSH1 0x0 MSTORE PUSH1 0x41 PUSH1 0x4 MSTORE PUSH1 0x24 PUSH1 0x0 REVERT JUMPDEST PUSH1 0x60 DUP2 ADD SWAP1 DUP2 LT PUSH1 0x1 PUSH1 0x1 PUSH1 0x40 SHL SUB DUP3 GT OR PUSH2 0x2E18 JUMPI PUSH1 0x40 MSTORE JUMP JUMPDEST SWAP1 PUSH1 0x1F DUP1 NOT SWAP2 ADD AND DUP2 ADD SWAP1 DUP2 LT PUSH1 0x1 PUSH1 0x1 PUSH1 0x40 SHL SUB DUP3 GT OR PUSH2 0x2E18 JUMPI PUSH1 0x40 MSTORE JUMP JUMPDEST PUSH1 0x40 MLOAD SWAP1 PUSH1 0x0 DUP3 PUSH1 0x20 SWAP2 DUP3 SLOAD PUSH2 0x2E7F DUP2 PUSH2 0x2DCB JUMP JUMPDEST DUP1 DUP5 MSTORE SWAP1 PUSH1 0x1 SWAP1 DUP2 DUP2 AND SWAP1 DUP2 ISZERO PUSH2 0x2EF3 JUMPI POP PUSH1 0x1 EQ PUSH2 0x2EA9 JUMPI JUMPDEST POP POP PUSH2 0x2EA7 SWAP3 POP SUB DUP4 PUSH2 0x2E49 JUMP JUMPDEST JUMP JUMPDEST PUSH1 0x0 DUP6 DUP2 MSTORE PUSH1 0x0 DUP1 MLOAD PUSH1 0x20 PUSH2 0x3B4C DUP4 CODECOPY DUP2 MLOAD SWAP2 MSTORE SWAP6 SWAP4 POP SWAP2 SWAP1 JUMPDEST DUP2 DUP4 LT PUSH2 0x2EDB JUMPI POP POP PUSH2 0x2EA7 SWAP4 POP DUP3 ADD ADD CODESIZE DUP1 PUSH2 0x2E99 JUMP JUMPDEST DUP6 SLOAD DUP9 DUP5 ADD DUP6 ADD MSTORE SWAP5 DUP6 ADD SWAP5 DUP8 SWAP5 POP SWAP2 DUP4 ADD SWAP2 PUSH2 0x2EC3 JUMP JUMPDEST SWAP2 POP POP PUSH2 0x2EA7 SWAP5 SWAP3 POP PUSH1 0xFF NOT AND DUP3 DUP5 ADD MSTORE ISZERO ISZERO PUSH1 0x5 SHL DUP3 ADD ADD CODESIZE DUP1 PUSH2 0x2E99 JUMP JUMPDEST SWAP1 PUSH1 0x40 MLOAD SWAP2 DUP3 PUSH1 0x0 DUP3 SLOAD SWAP3 PUSH2 0x2F27 DUP5 PUSH2 0x2DCB JUMP JUMPDEST SWAP1 DUP2 DUP5 MSTORE PUSH1 0x1 SWAP5 DUP6 DUP2 AND SWAP1 DUP2 PUSH1 0x0 EQ PUSH2 0x2F93 JUMPI POP PUSH1 0x1 EQ PUSH2 0x2F50 JUMPI POP POP PUSH2 0x2EA7 SWAP3 POP SUB DUP4 PUSH2 0x2E49 JUMP JUMPDEST SWAP1 SWAP4 SWAP2 POP PUSH1 0x0 MSTORE PUSH1 0x20 SWAP1 DUP2 PUSH1 0x0 KECCAK256 SWAP4 PUSH1 0x0 SWAP2 JUMPDEST DUP2 DUP4 LT PUSH2 0x2F7B JUMPI POP POP PUSH2 0x2EA7 SWAP4 POP DUP3 ADD ADD CODESIZE DUP1 PUSH2 0x2E99 JUMP JUMPDEST DUP6 SLOAD DUP9 DUP5 ADD DUP6 ADD MSTORE SWAP5 DUP6 ADD SWAP5 DUP8 SWAP5 POP SWAP2 DUP4 ADD SWAP2 PUSH2 0x2F63 JUMP JUMPDEST SWAP2 POP POP PUSH2 0x2EA7 SWAP5 POP PUSH1 0x20 SWAP3 POP PUSH1 0xFF NOT AND DUP3 DUP5 ADD MSTORE ISZERO ISZERO PUSH1 0x5 SHL DUP3 ADD ADD CODESIZE DUP1 PUSH2 0x2E99 JUMP JUMPDEST PUSH1 0x0 JUMPDEST DUP4 DUP2 LT PUSH2 0x2FC9 JUMPI POP POP PUSH1 0x0 SWAP2 ADD MSTORE JUMP JUMPDEST DUP2 DUP2 ADD MLOAD DUP4 DUP3 ADD MSTORE PUSH1 0x20 ADD PUSH2 0x2FB9 JUMP JUMPDEST SWAP1 PUSH1 0x20 SWAP2 PUSH2 0x2FF2 DUP2 MLOAD DUP1 SWAP3 DUP2 DUP6 MSTORE DUP6 DUP1 DUP7 ADD SWAP2 ADD PUSH2 0x2FB6 JUMP JUMPDEST PUSH1 0x1F ADD PUSH1 0x1F NOT AND ADD ADD SWAP1 JUMP JUMPDEST PUSH1 0x1 PUSH1 0x1 PUSH1 0x40 SHL SUB DUP2 GT PUSH2 0x2E18 JUMPI PUSH1 0x1F ADD PUSH1 0x1F NOT AND PUSH1 0x20 ADD SWAP1 JUMP JUMPDEST DUP2 PUSH1 0x1F DUP3 ADD SLT ISZERO PUSH2 0x2DB0 JUMPI DUP1 CALLDATALOAD SWAP1 PUSH2 0x3030 DUP3 PUSH2 0x2FFE JUMP JUMPDEST SWAP3 PUSH2 0x303E PUSH1 0x40 MLOAD SWAP5 DUP6 PUSH2 0x2E49 JUMP JUMPDEST DUP3 DUP5 MSTORE PUSH1 0x20 DUP4 DUP4 ADD ADD GT PUSH2 0x2DB0 JUMPI DUP2 PUSH1 0x0 SWAP3 PUSH1 0x20 DUP1 SWAP4 ADD DUP4 DUP7 ADD CALLDATACOPY DUP4 ADD ADD MSTORE SWAP1 JUMP JUMPDEST SWAP2 SWAP1 SWAP2 PUSH1 0xC0 DUP2 DUP5 SUB SLT PUSH2 0x2DB0 JUMPI PUSH1 0x40 MLOAD SWAP1 PUSH1 0x1 PUSH1 0x1 PUSH1 0x40 SHL SUB SWAP1 PUSH1 0xC0 DUP4 ADD DUP3 DUP2 GT DUP5 DUP3 LT OR PUSH2 0x2E18 JUMPI PUSH1 0x40 MSTORE DUP3 SWAP5 DUP2 CALLDATALOAD DUP4 DUP2 GT PUSH2 0x2DB0 JUMPI DUP2 PUSH2 0x30A3 SWAP2 DUP5 ADD PUSH2 0x3019 JUMP JUMPDEST DUP5 MSTORE PUSH1 0x20 DUP3 ADD CALLDATALOAD DUP4 DUP2 GT PUSH2 0x2DB0 JUMPI DUP2 PUSH2 0x30BD SWAP2 DUP5 ADD PUSH2 0x3019 JUMP JUMPDEST PUSH1 0x20 DUP6 ADD MSTORE PUSH1 0x40 DUP3 ADD CALLDATALOAD DUP4 DUP2 GT PUSH2 0x2DB0 JUMPI DUP2 PUSH2 0x30DA SWAP2 DUP5 ADD PUSH2 0x3019 JUMP JUMPDEST PUSH1 0x40 DUP6 ADD MSTORE PUSH1 0x60 DUP3 ADD CALLDATALOAD DUP4 DUP2 GT PUSH2 0x2DB0 JUMPI DUP2 PUSH2 0x30F7 SWAP2 DUP5 ADD PUSH2 0x3019 JUMP JUMPDEST PUSH1 0x60 DUP6 ADD MSTORE PUSH1 0x80 DUP3 ADD CALLDATALOAD DUP4 DUP2 GT PUSH2 0x2DB0 JUMPI DUP2 PUSH2 0x3114 SWAP2 DUP5 ADD PUSH2 0x3019 JUMP JUMPDEST PUSH1 0x80 DUP6 ADD MSTORE PUSH1 0xA0 DUP3 ADD CALLDATALOAD SWAP3 DUP4 GT PUSH2 0x2DB0 JUMPI PUSH1 0xA0 SWAP3 PUSH2 0x3132 SWAP3 ADD PUSH2 0x3019 JUMP JUMPDEST SWAP2 ADD MSTORE JUMP JUMPDEST SWAP1 PUSH1 0x40 PUSH1 0x3 NOT DUP4 ADD SLT PUSH2 0x2DB0 JUMPI PUSH1 0x4 CALLDATALOAD PUSH1 0x1 PUSH1 0x1 PUSH1 0xA0 SHL SUB DUP2 AND DUP2 SUB PUSH2 0x2DB0 JUMPI SWAP2 PUSH1 0x24 CALLDATALOAD SWAP1 PUSH1 0x1 PUSH1 0x1 PUSH1 0x40 SHL SUB DUP3 GT PUSH2 0x2DB0 JUMPI PUSH2 0x3176 SWAP2 PUSH1 0x4 ADD PUSH2 0x3019 JUMP JUMPDEST SWAP1 JUMP JUMPDEST DUP1 SLOAD DUP3 LT ISZERO PUSH2 0x3191 JUMPI PUSH1 0x0 MSTORE PUSH1 0x20 PUSH1 0x0 KECCAK256 ADD SWAP1 PUSH1 0x0 SWAP1 JUMP JUMPDEST PUSH4 0x4E487B71 PUSH1 0xE0 SHL PUSH1 0x0 MSTORE PUSH1 0x32 PUSH1 0x4 MSTORE PUSH1 0x24 PUSH1 0x0 REVERT JUMPDEST PUSH1 0x4 CALLDATALOAD SWAP1 DUP2 ISZERO ISZERO DUP3 SUB PUSH2 0x2DB0 JUMPI JUMP JUMPDEST PUSH1 0x24 CALLDATALOAD SWAP1 DUP2 ISZERO ISZERO DUP3 SUB PUSH2 0x2DB0 JUMPI JUMP JUMPDEST PUSH1 0x0 SLOAD PUSH1 0x1 PUSH1 0x1 PUSH1 0xA0 SHL SUB AND CALLER SUB PUSH2 0x31D9 JUMPI JUMP JUMPDEST PUSH1 0x40 MLOAD PUSH4 0x118CDAA7 PUSH1 0xE0 SHL DUP2 MSTORE CALLER PUSH1 0x4 DUP3 ADD MSTORE PUSH1 0x24 SWAP1 REVERT JUMPDEST PUSH1 0xFF PUSH1 0x0 SLOAD PUSH1 0xA0 SHR AND PUSH2 0x3200 JUMPI JUMP JUMPDEST PUSH1 0x40 MLOAD PUSH4 0xD93C0665 PUSH1 0xE0 SHL DUP2 MSTORE PUSH1 0x4 SWAP1 REVERT JUMPDEST ISZERO PUSH2 0x3219 JUMPI JUMP JUMPDEST PUSH1 0x40 MLOAD PUSH3 0x461BCD PUSH1 0xE5 SHL DUP2 MSTORE PUSH1 0x20 PUSH1 0x4 DUP3 ADD MSTORE PUSH1 0xE PUSH1 0x24 DUP3 ADD MSTORE PUSH14 0x139BDD08185D5D1A1BDC9A5E9959 PUSH1 0x92 SHL PUSH1 0x44 DUP3 ADD MSTORE PUSH1 0x64 SWAP1 REVERT JUMPDEST ISZERO PUSH2 0x3256 JUMPI JUMP JUMPDEST PUSH1 0x40 MLOAD PUSH3 0x461BCD PUSH1 0xE5 SHL DUP2 MSTORE PUSH1 0x20 PUSH1 0x4 DUP3 ADD MSTORE PUSH1 0x1F PUSH1 0x24 DUP3 ADD MSTORE PUSH32 0x52656C6561736573206172652063757272656E746C792064697361626C656400 PUSH1 0x44 DUP3 ADD MSTORE PUSH1 0x64 SWAP1 REVERT JUMPDEST PUSH2 0x3176 SWAP2 PUSH1 0xA0 PUSH2 0x3308 PUSH2 0x32F6 PUSH2 0x32E4 PUSH2 0x32D2 PUSH2 0x32C0 DUP8 MLOAD PUSH1 0xC0 DUP9 MSTORE PUSH1 0xC0 DUP9 ADD SWAP1 PUSH2 0x2FD9 JUMP JUMPDEST PUSH1 0x20 DUP9 ADD MLOAD DUP8 DUP3 SUB PUSH1 0x20 DUP10 ADD MSTORE PUSH2 0x2FD9 JUMP JUMPDEST PUSH1 0x40 DUP8 ADD MLOAD DUP7 DUP3 SUB PUSH1 0x40 DUP9 ADD MSTORE PUSH2 0x2FD9 JUMP JUMPDEST PUSH1 0x60 DUP7 ADD MLOAD DUP6 DUP3 SUB PUSH1 0x60 DUP8 ADD MSTORE PUSH2 0x2FD9 JUMP JUMPDEST PUSH1 0x80 DUP6 ADD MLOAD DUP5 DUP3 SUB PUSH1 0x80 DUP7 ADD MSTORE PUSH2 0x2FD9 JUMP JUMPDEST SWAP3 ADD MLOAD SWAP1 PUSH1 0xA0 DUP2 DUP5 SUB SWAP2 ADD MSTORE PUSH2 0x2FD9 JUMP JUMPDEST SWAP2 SWAP1 DUP3 ADD DUP1 SWAP3 GT PUSH2 0x3326 JUMPI JUMP JUMPDEST PUSH4 0x4E487B71 PUSH1 0xE0 SHL PUSH1 0x0 MSTORE PUSH1 0x11 PUSH1 0x4 MSTORE PUSH1 0x24 PUSH1 0x0 REVERT JUMPDEST RETURNDATASIZE ISZERO PUSH2 0x3367 JUMPI RETURNDATASIZE SWAP1 PUSH2 0x334D DUP3 PUSH2 0x2FFE JUMP JUMPDEST SWAP2 PUSH2 0x335B PUSH1 0x40 MLOAD SWAP4 DUP5 PUSH2 0x2E49 JUMP JUMPDEST DUP3 MSTORE RETURNDATASIZE PUSH1 0x0 PUSH1 0x20 DUP5 ADD RETURNDATACOPY JUMP JUMPDEST PUSH1 0x60 SWAP1 JUMP JUMPDEST SWAP1 DUP2 PUSH1 0x20 SWAP2 SUB SLT PUSH2 0x2DB0 JUMPI MLOAD PUSH1 0x1 PUSH1 0x1 PUSH1 0xA0 SHL SUB DUP2 AND DUP2 SUB PUSH2 0x2DB0 JUMPI SWAP1 JUMP JUMPDEST PUSH1 0x3 SLOAD DUP1 ISZERO PUSH2 0x3620 JUMPI PUSH1 0x6 SLOAD PUSH1 0xFF AND ISZERO PUSH2 0x3501 JUMPI POP PUSH1 0xD SLOAD PUSH1 0x7 SLOAD PUSH1 0x40 DUP1 MLOAD PUSH4 0x7C70C0A3 PUSH1 0xE0 SHL DUP2 MSTORE PUSH1 0x4 DUP2 ADD SWAP3 SWAP1 SWAP3 MSTORE PUSH1 0x1 PUSH1 0x1 PUSH1 0xA0 SHL SUB SWAP4 SWAP1 SWAP3 SWAP1 SWAP2 PUSH1 0x20 SWAP2 DUP3 SWAP1 DUP3 SWAP1 PUSH1 0x24 SWAP1 DUP3 SWAP1 DUP10 AND GAS STATICCALL SWAP1 DUP2 ISZERO PUSH2 0x34F6 JUMPI SWAP1 DUP6 SWAP2 PUSH1 0x0 SWAP2 PUSH2 0x34D9 JUMPI JUMPDEST POP AND SWAP4 DUP5 ISZERO PUSH2 0x3489 JUMPI PUSH1 0x3 SLOAD SWAP3 DUP5 MLOAD SWAP4 PUSH4 0x23B872DD PUSH1 0xE0 SHL DUP5 DUP7 ADD MSTORE CALLER PUSH1 0x24 DUP7 ADD MSTORE ADDRESS PUSH1 0x44 DUP7 ADD MSTORE PUSH1 0x64 DUP6 ADD MSTORE PUSH1 0x64 DUP5 MSTORE PUSH1 0xA0 DUP5 ADD DUP5 DUP2 LT PUSH1 0x1 PUSH1 0x1 PUSH1 0x40 SHL SUB DUP3 GT OR PUSH2 0x2E18 JUMPI PUSH32 0x29AEBCD0C90B02B955331C453EFC06D743E10D2655AB14C0FA2AAEC13706F214 SWAP5 PUSH2 0x3460 SWAP2 DUP8 MSTORE DUP8 PUSH2 0x3679 JUMP JUMPDEST PUSH1 0x3 SLOAD DUP7 PUSH1 0x0 MSTORE PUSH1 0x1D DUP5 MSTORE PUSH2 0x347A DUP7 PUSH1 0x0 KECCAK256 SWAP2 DUP3 SLOAD PUSH2 0x3319 JUMP JUMPDEST SWAP1 SSTORE PUSH1 0x3 SLOAD SWAP5 MLOAD SWAP5 DUP6 MSTORE AND SWAP3 LOG3 JUMP JUMPDEST DUP4 MLOAD PUSH3 0x461BCD PUSH1 0xE5 SHL DUP2 MSTORE PUSH1 0x4 DUP2 ADD DUP4 SWAP1 MSTORE PUSH1 0x23 PUSH1 0x24 DUP3 ADD MSTORE PUSH32 0x4E6F2077686974656C697374656420737461626C65636F696E20617661696C61 PUSH1 0x44 DUP3 ADD MSTORE PUSH3 0x626C65 PUSH1 0xE8 SHL PUSH1 0x64 DUP3 ADD MSTORE PUSH1 0x84 SWAP1 REVERT JUMPDEST PUSH2 0x34F0 SWAP2 POP DUP4 RETURNDATASIZE DUP6 GT PUSH2 0x2AE7 JUMPI PUSH2 0x2AD9 DUP2 DUP4 PUSH2 0x2E49 JUMP JUMPDEST CODESIZE PUSH2 0x33EB JUMP JUMPDEST DUP5 MLOAD RETURNDATASIZE PUSH1 0x0 DUP3 RETURNDATACOPY RETURNDATASIZE SWAP1 REVERT JUMPDEST CALLVALUE LT PUSH2 0x35DB JUMPI PUSH1 0x0 SWAP1 DUP2 DUP1 MSTORE PUSH1 0x1D PUSH1 0x20 MSTORE PUSH1 0x40 DUP3 KECCAK256 PUSH2 0x3521 CALLVALUE DUP3 SLOAD PUSH2 0x3319 JUMP JUMPDEST SWAP1 SSTORE PUSH1 0x3 SLOAD DUP1 CALLVALUE GT PUSH2 0x3569 JUMPI JUMPDEST POP PUSH1 0x40 MLOAD CALLVALUE DUP2 MSTORE PUSH1 0x1 PUSH1 0x1 PUSH1 0xA0 SHL SUB SWAP1 SWAP2 AND SWAP1 PUSH32 0x29AEBCD0C90B02B955331C453EFC06D743E10D2655AB14C0FA2AAEC13706F214 SWAP1 PUSH1 0x20 SWAP1 LOG3 JUMP JUMPDEST CALLVALUE SUB CALLVALUE DUP2 GT PUSH2 0x35C7 JUMPI DUP3 DUP1 DUP1 DUP1 SWAP4 CALLER GAS CALL PUSH2 0x3582 PUSH2 0x333C JUMP JUMPDEST POP ISZERO PUSH2 0x358E JUMPI CODESIZE PUSH2 0x352E JUMP JUMPDEST PUSH1 0x40 MLOAD PUSH3 0x461BCD PUSH1 0xE5 SHL DUP2 MSTORE PUSH1 0x20 PUSH1 0x4 DUP3 ADD MSTORE PUSH1 0x11 PUSH1 0x24 DUP3 ADD MSTORE PUSH17 0x115512081C99599D5B990819985A5B1959 PUSH1 0x7A SHL PUSH1 0x44 DUP3 ADD MSTORE PUSH1 0x64 SWAP1 REVERT JUMPDEST PUSH4 0x4E487B71 PUSH1 0xE0 SHL DUP4 MSTORE PUSH1 0x11 PUSH1 0x4 MSTORE PUSH1 0x24 DUP4 REVERT JUMPDEST PUSH1 0x40 MLOAD PUSH3 0x461BCD PUSH1 0xE5 SHL DUP2 MSTORE PUSH1 0x20 PUSH1 0x4 DUP3 ADD MSTORE PUSH1 0x18 PUSH1 0x24 DUP3 ADD MSTORE PUSH32 0x496E636F7272656374204554482066656520616D6F756E740000000000000000 PUSH1 0x44 DUP3 ADD MSTORE PUSH1 0x64 SWAP1 REVERT JUMPDEST POP POP CALLVALUE PUSH2 0x3629 JUMPI JUMP JUMPDEST PUSH1 0x40 MLOAD PUSH3 0x461BCD PUSH1 0xE5 SHL DUP2 MSTORE PUSH1 0x20 PUSH1 0x4 DUP3 ADD MSTORE PUSH1 0x10 PUSH1 0x24 DUP3 ADD MSTORE PUSH16 0x119959481B9BDD081C995C5D5A5C9959 PUSH1 0x82 SHL PUSH1 0x44 DUP3 ADD MSTORE PUSH1 0x64 SWAP1 REVERT JUMPDEST SWAP1 DUP2 PUSH1 0x20 SWAP2 SUB SLT PUSH2 0x2DB0 JUMPI MLOAD DUP1 ISZERO ISZERO DUP2 SUB PUSH2 0x2DB0 JUMPI SWAP1 JUMP JUMPDEST PUSH1 0x0 DUP1 PUSH2 0x36A2 SWAP3 PUSH1 0x1 DUP1 PUSH1 0xA0 SHL SUB AND SWAP4 PUSH1 0x20 DUP2 MLOAD SWAP2 ADD DUP3 DUP7 GAS CALL PUSH2 0x369B PUSH2 0x333C JUMP JUMPDEST SWAP1 DUP4 PUSH2 0x36EB JUMP JUMPDEST DUP1 MLOAD SWAP1 DUP2 ISZERO ISZERO SWAP2 DUP3 PUSH2 0x36D0 JUMPI JUMPDEST POP POP PUSH2 0x36B8 JUMPI POP JUMP JUMPDEST PUSH1 0x24 SWAP1 PUSH1 0x40 MLOAD SWAP1 PUSH4 0x5274AFE7 PUSH1 0xE0 SHL DUP3 MSTORE PUSH1 0x4 DUP3 ADD MSTORE REVERT JUMPDEST PUSH2 0x36E3 SWAP3 POP PUSH1 0x20 DUP1 SWAP2 DUP4 ADD ADD SWAP2 ADD PUSH2 0x3661 JUMP JUMPDEST ISZERO CODESIZE DUP1 PUSH2 0x36AF JUMP JUMPDEST SWAP1 PUSH2 0x3712 JUMPI POP DUP1 MLOAD ISZERO PUSH2 0x3700 JUMPI DUP1 MLOAD SWAP1 PUSH1 0x20 ADD REVERT JUMPDEST PUSH1 0x40 MLOAD PUSH4 0xA12F521 PUSH1 0xE1 SHL DUP2 MSTORE PUSH1 0x4 SWAP1 REVERT JUMPDEST DUP2 MLOAD ISZERO DUP1 PUSH2 0x3745 JUMPI JUMPDEST PUSH2 0x3723 JUMPI POP SWAP1 JUMP JUMPDEST PUSH1 0x40 MLOAD PUSH4 0x9996B315 PUSH1 0xE0 SHL DUP2 MSTORE PUSH1 0x1 PUSH1 0x1 PUSH1 0xA0 SHL SUB SWAP1 SWAP2 AND PUSH1 0x4 DUP3 ADD MSTORE PUSH1 0x24 SWAP1 REVERT JUMPDEST POP DUP1 EXTCODESIZE ISZERO PUSH2 0x371B JUMP JUMPDEST PUSH1 0x40 DUP1 MLOAD PUSH4 0x8DA5CB5B PUSH1 0xE0 SHL DUP2 MSTORE PUSH1 0x4 SWAP4 PUSH1 0x20 SWAP4 PUSH1 0x1 PUSH1 0x1 PUSH1 0xA0 SHL SUB SWAP3 SWAP1 DUP4 AND SWAP2 SWAP1 DUP6 DUP2 DUP9 DUP2 DUP7 GAS STATICCALL SWAP1 DUP2 ISZERO PUSH2 0x39BD JUMPI SWAP1 DUP5 SWAP2 PUSH1 0x0 SWAP2 PUSH2 0x39A0 JUMPI JUMPDEST POP AND CALLER SUB PUSH2 0x3949 JUMPI DUP3 DUP2 AND SWAP1 DUP2 ISZERO PUSH2 0x38FB JUMPI EXTCODESIZE ISZERO PUSH2 0x38AA JUMPI DUP5 DUP4 PUSH1 0xB SLOAD AND SWAP2 PUSH1 0x24 DUP7 MLOAD DUP1 SWAP5 DUP2 SWAP4 PUSH4 0xD42FE231 PUSH1 0xE0 SHL DUP4 MSTORE DUP12 DUP4 ADD MSTORE GAS STATICCALL SWAP1 DUP2 ISZERO PUSH2 0x34F6 JUMPI PUSH1 0x0 SWAP2 PUSH2 0x388D JUMPI JUMPDEST POP ISZERO PUSH2 0x382C JUMPI PUSH1 0x0 MSTORE PUSH1 0x14 DUP4 MSTORE DUP2 PUSH1 0x0 KECCAK256 SLOAD AND PUSH2 0x37EB JUMPI POP POP POP JUMP JUMPDEST MLOAD PUSH3 0x461BCD PUSH1 0xE5 SHL DUP2 MSTORE SWAP2 DUP3 ADD MSTORE PUSH1 0x1D PUSH1 0x24 DUP3 ADD MSTORE PUSH32 0x5772617070656420736F6E6720616C72656164792072656C6561736564000000 PUSH1 0x44 DUP3 ADD MSTORE PUSH1 0x64 SWAP2 POP REVERT JUMPDEST POP POP MLOAD PUSH3 0x461BCD PUSH1 0xE5 SHL DUP2 MSTORE SWAP2 DUP3 ADD MSTORE PUSH1 0x35 PUSH1 0x24 DUP3 ADD MSTORE PUSH32 0x496E76616C6964206469737472696275746F722077616C6C65743A206E6F7420 PUSH1 0x44 DUP3 ADD MSTORE PUSH21 0x7265676973746572656420696E20666163746F7279 PUSH1 0x58 SHL PUSH1 0x64 DUP3 ADD MSTORE PUSH1 0x84 SWAP2 POP REVERT JUMPDEST PUSH2 0x38A4 SWAP2 POP DUP6 RETURNDATASIZE DUP8 GT PUSH2 0x7AE JUMPI PUSH2 0x7A0 DUP2 DUP4 PUSH2 0x2E49 JUMP JUMPDEST CODESIZE PUSH2 0x37CF JUMP JUMPDEST DUP4 MLOAD PUSH3 0x461BCD PUSH1 0xE5 SHL DUP2 MSTORE DUP1 DUP8 ADD DUP7 SWAP1 MSTORE PUSH1 0x25 PUSH1 0x24 DUP3 ADD MSTORE PUSH32 0x4469737472696275746F722077616C6C6574206D757374206265206120636F6E PUSH1 0x44 DUP3 ADD MSTORE PUSH5 0x1D1C9858DD PUSH1 0xDA SHL PUSH1 0x64 DUP3 ADD MSTORE PUSH1 0x84 SWAP1 REVERT JUMPDEST DUP5 MLOAD PUSH3 0x461BCD PUSH1 0xE5 SHL DUP2 MSTORE DUP1 DUP9 ADD DUP8 SWAP1 MSTORE PUSH1 0x22 PUSH1 0x24 DUP3 ADD MSTORE PUSH32 0x496E76616C6964206469737472696275746F722077616C6C6574206164647265 PUSH1 0x44 DUP3 ADD MSTORE PUSH2 0x7373 PUSH1 0xF0 SHL PUSH1 0x64 DUP3 ADD MSTORE PUSH1 0x84 SWAP1 REVERT JUMPDEST DUP4 MLOAD PUSH3 0x461BCD PUSH1 0xE5 SHL DUP2 MSTORE DUP1 DUP8 ADD DUP7 SWAP1 MSTORE PUSH1 0x2B PUSH1 0x24 DUP3 ADD MSTORE PUSH32 0x4F6E6C79207772617070656420736F6E67206F776E65722063616E2072657175 PUSH1 0x44 DUP3 ADD MSTORE PUSH11 0x6573742072656C65617365 PUSH1 0xA8 SHL PUSH1 0x64 DUP3 ADD MSTORE PUSH1 0x84 SWAP1 REVERT JUMPDEST PUSH2 0x39B7 SWAP2 POP DUP8 RETURNDATASIZE DUP10 GT PUSH2 0x2AE7 JUMPI PUSH2 0x2AD9 DUP2 DUP4 PUSH2 0x2E49 JUMP JUMPDEST CODESIZE PUSH2 0x3789 JUMP JUMPDEST DUP6 MLOAD RETURNDATASIZE PUSH1 0x0 DUP3 RETURNDATACOPY RETURNDATASIZE SWAP1 REVERT JUMPDEST PUSH1 0x1 PUSH1 0x1 PUSH1 0xA0 SHL SUB SWAP1 DUP2 AND PUSH1 0x0 DUP2 DUP2 MSTORE PUSH1 0x15 PUSH1 0x20 MSTORE PUSH1 0x40 DUP2 KECCAK256 DUP1 SLOAD PUSH1 0x1 PUSH1 0x1 PUSH1 0xA0 SHL SUB NOT AND SWAP4 SWAP1 SWAP5 AND SWAP3 DUP4 OR SWAP1 SWAP4 SSTORE CALLER SWAP3 PUSH32 0xEF84744274082261C3A861CF791747FA0FF5D32D6B7DAD92E9F777118FC00289 SWAP1 DUP1 LOG4 JUMP JUMPDEST ISZERO PUSH2 0x3A26 JUMPI JUMP JUMPDEST PUSH1 0x40 MLOAD PUSH3 0x461BCD PUSH1 0xE5 SHL DUP2 MSTORE PUSH1 0x20 PUSH1 0x4 DUP3 ADD MSTORE PUSH1 0x1A PUSH1 0x24 DUP3 ADD MSTORE PUSH32 0x4469737472696275746F7220646F6573206E6F74206578697374000000000000 PUSH1 0x44 DUP3 ADD MSTORE PUSH1 0x64 SWAP1 REVERT JUMPDEST ISZERO PUSH2 0x3A72 JUMPI JUMP JUMPDEST PUSH1 0x40 MLOAD PUSH3 0x461BCD PUSH1 0xE5 SHL DUP2 MSTORE PUSH1 0x20 PUSH1 0x4 DUP3 ADD MSTORE PUSH1 0x1B PUSH1 0x24 DUP3 ADD MSTORE PUSH32 0x4E6F74207468652070656E64696E67206469737472696275746F720000000000 PUSH1 0x44 DUP3 ADD MSTORE PUSH1 0x64 SWAP1 REVERT JUMPDEST ISZERO PUSH2 0x3ABE JUMPI JUMP JUMPDEST PUSH1 0x40 MLOAD PUSH3 0x461BCD PUSH1 0xE5 SHL DUP2 MSTORE PUSH1 0x20 PUSH1 0x4 DUP3 ADD MSTORE PUSH1 0xF PUSH1 0x24 DUP3 ADD MSTORE PUSH15 0x496E76616C69642061646472657373 PUSH1 0x88 SHL PUSH1 0x44 DUP3 ADD MSTORE PUSH1 0x64 SWAP1 REVERT JUMPDEST ISZERO PUSH2 0x3AFC JUMPI JUMP JUMPDEST PUSH1 0x40 MLOAD PUSH3 0x461BCD PUSH1 0xE5 SHL DUP2 MSTORE PUSH1 0x20 PUSH1 0x4 DUP3 ADD MSTORE PUSH1 0x21 PUSH1 0x24 DUP3 ADD MSTORE PUSH32 0x4F6E6C7920666163746F72792063616E20616464207772617070656420736F6E PUSH1 0x44 DUP3 ADD MSTORE PUSH1 0x67 PUSH1 0xF8 SHL PUSH1 0x64 DUP3 ADD MSTORE PUSH1 0x84 SWAP1 REVERT INVALID 0xC9 PUSH28 0xFAF2F8EE708C303A06D134F5ECD8389AE0432AF62DC132A241182928 PUSH7 0xBBA7277EA7D4DB 0xB8 CREATE 0xCC 0x25 0x4F CALLVALUE 0xCF RETURNDATACOPY 0x4A 0xC1 SWAP8 PUSH3 0x9EE778 SWAP14 STATICCALL MUL 0xF6 0xB2 DUP11 DUP9 PUSH19 0x28909BA2646970667358221220A3303F36EA5A ISZERO DUP14 SLT 0xCB 0xE8 PUSH7 0x97658F5E27BA0A SELFDESTRUCT RETURN SWAP6 0x1F EXP CALLDATACOPY ADDRESS 0x2C 0x49 0xF8 0xE 0xC2 0x4C PUSH5 0x736F6C6343 STOP ADDMOD EQ STOP CALLER "},"methodIdentifiers":{"MAX_WITHDRAWAL_FEE()":"eb6ed330","acceptWrappedSongForReview(address)":"4b08ec50","accumulatedFees(address)":"fcf66664","addISCC(address,string)":"4fa71b06","addISRC(address,string)":"496d51af","addISWC(address,string)":"a4144de6","addUPC(address,string)":"dfef9681","authorizedContracts(address)":"d5b9221b","baseURI()":"6c0360eb","confirmWrappedSongRelease(address)":"b0c70e27","currentStablecoinIndex()":"49054274","distributorCreationFee()":"c4bec006","distributorWalletFactory()":"0c5d8da1","erc20whitelist()":"09da4e51","getBaseURI()":"714c5398","getLegalContractMetadata()":"77191a6e","getMetadataModule()":"088b9554","getOwnerWrappedSongs(address)":"37d7d542","getPendingDistributorRequests(address)":"c7be5e2a","getStartSaleFee()":"d9fa9879","getWithdrawalFeePercentage()":"c8f5f4e8","getWrappedSongDistributor(address)":"3aa690e7","handleExpiredReviewPeriod(address)":"ccad87f0","isAuthentic(address)":"a4493575","isAuthorizedContract(address)":"66d0ead3","isReleased(address)":"37c38c48","isTokenWhitelisted(address)":"b5af090f","isValidToCreateWrappedSong(address)":"f140b55f","isWSTokenFromProtocol(address)":"6cf563a4","isccRegistry(address)":"9860da00","isrcRegistry(address)":"21dd882b","iswcRegistry(address)":"4bb43e5c","legalContractMetadata()":"dbd15d53","maxSaleDuration()":"723ff2a2","metadataModule()":"3684d100","metadataRenderer()":"70319970","owner()":"8da5cb5b","ownerWrappedSongs(address,uint256)":"4da6840a","pause()":"8456cb59","paused()":"5c975abb","payInStablecoin()":"16eddecb","pendingDistributorRequests(address)":"6b09d202","rejectWrappedSongRelease(address)":"f5260369","releaseFee()":"2490a901","releasesEnabled()":"175b818c","removeTokenFromWhitelist(address)":"306275be","removeWrappedSongReleaseRequest(address)":"2b03295f","renderTokenURI((string,string,string,string,string,string),uint256,address)":"2fda23b7","renounceOwnership()":"715018a6","requestWrappedSongRelease(address,address)":"cd36bc9a","requestWrappedSongReleaseWithMetadata(address,address,(string,string,string,string,string,string))":"ffc5a46f","reviewPeriodDays()":"1a3b00e2","reviewPeriods(address)":"e72cfcb8","setAuthorizedContract(address,bool)":"f2fa7392","setBaseURI(string)":"55f804b3","setCurrentStablecoinIndex(uint256)":"79988efd","setDistributorCreationFee(uint256)":"c67ca8e7","setDistributorWalletFactory(address)":"358d96ab","setERC20Whitelist(address)":"e4829369","setLegalContractMetadata(address)":"ec691a59","setMaxSaleDuration(uint256)":"533761fe","setMetadataModule(address)":"a4198fa2","setMetadataRenderer(address)":"fd4fe8a8","setOwnerWrappedSong(address,address)":"ff4884f8","setPayInStablecoin(bool)":"9f58bfaa","setReleaseFee(uint256)":"8bfa25da","setReleasesEnabled(bool)":"8437de38","setReviewPeriodDays(uint256)":"1f471069","setSmartAccountToWSToken(address,address)":"0008ac83","setStartSaleFee(uint256)":"7159aa62","setUpdateMetadataFee(uint256)":"77f04004","setWSTokenFromProtocol(address)":"d9ce7b95","setWhitelistingManager(address)":"a951583b","setWithdrawalFeePercentage(uint256)":"5fb0ea90","setWrappedSongAuthenticity(address,bool)":"be94e319","setWrappedSongCreationFee(uint256)":"3224d848","setWrappedSongFactory(address)":"2fb92c5a","smartAccountToWSToken(address)":"0b1b745e","transferOwnership(address)":"f2fde38b","unpause()":"3f4ba83a","upcRegistry(address)":"1e944d54","updateMetadataFee()":"0bb75031","whitelistToken(address)":"6247f6f2","whitelistingManager()":"ac581b3a","withdrawAccumulatedFees(address,address)":"376c1f07","withdrawalFeePercentage()":"78922c8f","wrappedSongAuthenticity(address)":"06fd88ed","wrappedSongCreationFee()":"438c9d95","wrappedSongFactory()":"1c8370cb","wrappedSongFactoryAddress()":"81b539b8","wrappedSongToDistributor(address)":"2cd6c9a6"}},"storageLayout":{"storage":[{"astId":8,"contract":"contracts/protocol/NonUpgradable/ProtocolModule.sol:ProtocolModule","label":"_owner","offset":0,"slot":"0","type":"t_address"},{"astId":966,"contract":"contracts/protocol/NonUpgradable/ProtocolModule.sol:ProtocolModule","label":"_paused","offset":20,"slot":"0","type":"t_bool"},{"astId":1085,"contract":"contracts/protocol/NonUpgradable/ProtocolModule.sol:ProtocolModule","label":"_status","offset":0,"slot":"1","type":"t_uint256"},{"astId":2321,"contract":"contracts/protocol/NonUpgradable/ProtocolModule.sol:ProtocolModule","label":"wrappedSongCreationFee","offset":0,"slot":"2","type":"t_uint256"},{"astId":2323,"contract":"contracts/protocol/NonUpgradable/ProtocolModule.sol:ProtocolModule","label":"releaseFee","offset":0,"slot":"3","type":"t_uint256"},{"astId":2325,"contract":"contracts/protocol/NonUpgradable/ProtocolModule.sol:ProtocolModule","label":"distributorCreationFee","offset":0,"slot":"4","type":"t_uint256"},{"astId":2327,"contract":"contracts/protocol/NonUpgradable/ProtocolModule.sol:ProtocolModule","label":"updateMetadataFee","offset":0,"slot":"5","type":"t_uint256"},{"astId":2329,"contract":"contracts/protocol/NonUpgradable/ProtocolModule.sol:ProtocolModule","label":"payInStablecoin","offset":0,"slot":"6","type":"t_bool"},{"astId":2331,"contract":"contracts/protocol/NonUpgradable/ProtocolModule.sol:ProtocolModule","label":"currentStablecoinIndex","offset":0,"slot":"7","type":"t_uint256"},{"astId":2336,"contract":"contracts/protocol/NonUpgradable/ProtocolModule.sol:ProtocolModule","label":"ownerWrappedSongs","offset":0,"slot":"8","type":"t_mapping(t_address,t_array(t_address)dyn_storage)"},{"astId":2340,"contract":"contracts/protocol/NonUpgradable/ProtocolModule.sol:ProtocolModule","label":"smartAccountToWSToken","offset":0,"slot":"9","type":"t_mapping(t_address,t_address)"},{"astId":2343,"contract":"contracts/protocol/NonUpgradable/ProtocolModule.sol:ProtocolModule","label":"wrappedSongFactory","offset":0,"slot":"10","type":"t_contract(IWrappedSongFactory)2065"},{"astId":2346,"contract":"contracts/protocol/NonUpgradable/ProtocolModule.sol:ProtocolModule","label":"distributorWalletFactory","offset":0,"slot":"11","type":"t_contract(IDistributorWalletFactory)1194"},{"astId":2349,"contract":"contracts/protocol/NonUpgradable/ProtocolModule.sol:ProtocolModule","label":"whitelistingManager","offset":0,"slot":"12","type":"t_contract(IWhitelistingManager)2027"},{"astId":2352,"contract":"contracts/protocol/NonUpgradable/ProtocolModule.sol:ProtocolModule","label":"erc20whitelist","offset":0,"slot":"13","type":"t_contract(IERC20Whitelist)1257"},{"astId":2355,"contract":"contracts/protocol/NonUpgradable/ProtocolModule.sol:ProtocolModule","label":"metadataModule","offset":0,"slot":"14","type":"t_contract(IMetadataModule)1382"},{"astId":2358,"contract":"contracts/protocol/NonUpgradable/ProtocolModule.sol:ProtocolModule","label":"legalContractMetadata","offset":0,"slot":"15","type":"t_contract(ILegalContractMetadata)1285"},{"astId":2362,"contract":"contracts/protocol/NonUpgradable/ProtocolModule.sol:ProtocolModule","label":"isrcRegistry","offset":0,"slot":"16","type":"t_mapping(t_address,t_string_storage)"},{"astId":2366,"contract":"contracts/protocol/NonUpgradable/ProtocolModule.sol:ProtocolModule","label":"upcRegistry","offset":0,"slot":"17","type":"t_mapping(t_address,t_string_storage)"},{"astId":2370,"contract":"contracts/protocol/NonUpgradable/ProtocolModule.sol:ProtocolModule","label":"iswcRegistry","offset":0,"slot":"18","type":"t_mapping(t_address,t_string_storage)"},{"astId":2374,"contract":"contracts/protocol/NonUpgradable/ProtocolModule.sol:ProtocolModule","label":"isccRegistry","offset":0,"slot":"19","type":"t_mapping(t_address,t_string_storage)"},{"astId":2378,"contract":"contracts/protocol/NonUpgradable/ProtocolModule.sol:ProtocolModule","label":"wrappedSongToDistributor","offset":0,"slot":"20","type":"t_mapping(t_address,t_address)"},{"astId":2382,"contract":"contracts/protocol/NonUpgradable/ProtocolModule.sol:ProtocolModule","label":"pendingDistributorRequests","offset":0,"slot":"21","type":"t_mapping(t_address,t_address)"},{"astId":2386,"contract":"contracts/protocol/NonUpgradable/ProtocolModule.sol:ProtocolModule","label":"wrappedSongAuthenticity","offset":0,"slot":"22","type":"t_mapping(t_address,t_bool)"},{"astId":2390,"contract":"contracts/protocol/NonUpgradable/ProtocolModule.sol:ProtocolModule","label":"authorizedContracts","offset":0,"slot":"23","type":"t_mapping(t_address,t_bool)"},{"astId":2402,"contract":"contracts/protocol/NonUpgradable/ProtocolModule.sol:ProtocolModule","label":"reviewPeriods","offset":0,"slot":"24","type":"t_mapping(t_address,t_struct(ReviewPeriod)2397_storage)"},{"astId":2406,"contract":"contracts/protocol/NonUpgradable/ProtocolModule.sol:ProtocolModule","label":"protocolWSTokens","offset":0,"slot":"25","type":"t_mapping(t_address,t_bool)"},{"astId":2409,"contract":"contracts/protocol/NonUpgradable/ProtocolModule.sol:ProtocolModule","label":"metadataRenderer","offset":0,"slot":"26","type":"t_contract(IMetadataRenderer)1404"},{"astId":2411,"contract":"contracts/protocol/NonUpgradable/ProtocolModule.sol:ProtocolModule","label":"_startSaleFee","offset":0,"slot":"27","type":"t_uint256"},{"astId":2413,"contract":"contracts/protocol/NonUpgradable/ProtocolModule.sol:ProtocolModule","label":"withdrawalFeePercentage","offset":0,"slot":"28","type":"t_uint256"},{"astId":2420,"contract":"contracts/protocol/NonUpgradable/ProtocolModule.sol:ProtocolModule","label":"accumulatedFees","offset":0,"slot":"29","type":"t_mapping(t_address,t_uint256)"},{"astId":2444,"contract":"contracts/protocol/NonUpgradable/ProtocolModule.sol:ProtocolModule","label":"reviewPeriodDays","offset":0,"slot":"30","type":"t_uint256"},{"astId":2517,"contract":"contracts/protocol/NonUpgradable/ProtocolModule.sol:ProtocolModule","label":"maxSaleDuration","offset":0,"slot":"31","type":"t_uint256"},{"astId":2519,"contract":"contracts/protocol/NonUpgradable/ProtocolModule.sol:ProtocolModule","label":"baseURI","offset":0,"slot":"32","type":"t_string_storage"},{"astId":2522,"contract":"contracts/protocol/NonUpgradable/ProtocolModule.sol:ProtocolModule","label":"releasesEnabled","offset":0,"slot":"33","type":"t_bool"}],"types":{"t_address":{"encoding":"inplace","label":"address","numberOfBytes":"20"},"t_array(t_address)dyn_storage":{"base":"t_address","encoding":"dynamic_array","label":"address[]","numberOfBytes":"32"},"t_bool":{"encoding":"inplace","label":"bool","numberOfBytes":"1"},"t_contract(IDistributorWalletFactory)1194":{"encoding":"inplace","label":"contract IDistributorWalletFactory","numberOfBytes":"20"},"t_contract(IERC20Whitelist)1257":{"encoding":"inplace","label":"contract IERC20Whitelist","numberOfBytes":"20"},"t_contract(ILegalContractMetadata)1285":{"encoding":"inplace","label":"contract ILegalContractMetadata","numberOfBytes":"20"},"t_contract(IMetadataModule)1382":{"encoding":"inplace","label":"contract IMetadataModule","numberOfBytes":"20"},"t_contract(IMetadataRenderer)1404":{"encoding":"inplace","label":"contract IMetadataRenderer","numberOfBytes":"20"},"t_contract(IWhitelistingManager)2027":{"encoding":"inplace","label":"contract IWhitelistingManager","numberOfBytes":"20"},"t_contract(IWrappedSongFactory)2065":{"encoding":"inplace","label":"contract IWrappedSongFactory","numberOfBytes":"20"},"t_mapping(t_address,t_address)":{"encoding":"mapping","key":"t_address","label":"mapping(address => address)","numberOfBytes":"32","value":"t_address"},"t_mapping(t_address,t_array(t_address)dyn_storage)":{"encoding":"mapping","key":"t_address","label":"mapping(address => address[])","numberOfBytes":"32","value":"t_array(t_address)dyn_storage"},"t_mapping(t_address,t_bool)":{"encoding":"mapping","key":"t_address","label":"mapping(address => bool)","numberOfBytes":"32","value":"t_bool"},"t_mapping(t_address,t_string_storage)":{"encoding":"mapping","key":"t_address","label":"mapping(address => string)","numberOfBytes":"32","value":"t_string_storage"},"t_mapping(t_address,t_struct(ReviewPeriod)2397_storage)":{"encoding":"mapping","key":"t_address","label":"mapping(address => struct ProtocolModule.ReviewPeriod)","numberOfBytes":"32","value":"t_struct(ReviewPeriod)2397_storage"},"t_mapping(t_address,t_uint256)":{"encoding":"mapping","key":"t_address","label":"mapping(address => uint256)","numberOfBytes":"32","value":"t_uint256"},"t_string_storage":{"encoding":"bytes","label":"string","numberOfBytes":"32"},"t_struct(ReviewPeriod)2397_storage":{"encoding":"inplace","label":"struct ProtocolModule.ReviewPeriod","members":[{"astId":2392,"contract":"contracts/protocol/NonUpgradable/ProtocolModule.sol:ProtocolModule","label":"startTime","offset":0,"slot":"0","type":"t_uint256"},{"astId":2394,"contract":"contracts/protocol/NonUpgradable/ProtocolModule.sol:ProtocolModule","label":"endTime","offset":0,"slot":"1","type":"t_uint256"},{"astId":2396,"contract":"contracts/protocol/NonUpgradable/ProtocolModule.sol:ProtocolModule","label":"distributor","offset":0,"slot":"2","type":"t_address"}],"numberOfBytes":"96"},"t_uint256":{"encoding":"inplace","label":"uint256","numberOfBytes":"32"}}}}}}