{"contracts/mocks/WrappedSongFactoryV2.sol":{"WrappedSongFactoryV2":{"abi":[{"inputs":[{"internalType":"address","name":"_protocolModule","type":"address"},{"internalType":"address","name":"_wrappedSongTemplate","type":"address"},{"internalType":"address","name":"_wsTokenTemplate","type":"address"}],"stateMutability":"nonpayable","type":"constructor"},{"inputs":[{"internalType":"address","name":"target","type":"address"}],"name":"AddressEmptyCode","type":"error"},{"inputs":[{"internalType":"address","name":"account","type":"address"}],"name":"AddressInsufficientBalance","type":"error"},{"inputs":[],"name":"ERC1167FailedCreateClone","type":"error"},{"inputs":[],"name":"FailedInnerCall","type":"error"},{"inputs":[{"internalType":"address","name":"token","type":"address"}],"name":"SafeERC20FailedOperation","type":"error"},{"inputs":[{"internalType":"uint256","name":"value","type":"uint256"},{"internalType":"uint256","name":"length","type":"uint256"}],"name":"StringsInsufficientHexLength","type":"error"},{"anonymous":false,"inputs":[{"indexed":true,"internalType":"address","name":"wrappedSong","type":"address"},{"indexed":true,"internalType":"address","name":"token","type":"address"},{"indexed":false,"internalType":"uint256","name":"amount","type":"uint256"}],"name":"CreationFeeCollected","type":"event"},{"anonymous":false,"inputs":[{"indexed":true,"internalType":"address","name":"token","type":"address"},{"indexed":true,"internalType":"address","name":"recipient","type":"address"},{"indexed":false,"internalType":"uint256","name":"amount","type":"uint256"}],"name":"FeesWithdrawn","type":"event"},{"anonymous":false,"inputs":[{"indexed":false,"internalType":"string","name":"reason","type":"string"}],"name":"MigrationError","type":"event"},{"anonymous":false,"inputs":[{"indexed":false,"internalType":"string","name":"step","type":"string"},{"indexed":true,"internalType":"address","name":"wrappedSong","type":"address"}],"name":"MigrationStep","type":"event"},{"anonymous":false,"inputs":[{"indexed":true,"internalType":"address","name":"owner","type":"address"},{"indexed":true,"internalType":"address","name":"wrappedSongSmartAccount","type":"address"},{"indexed":false,"internalType":"address","name":"stablecoin","type":"address"},{"indexed":false,"internalType":"address","name":"wsTokenManagement","type":"address"},{"indexed":false,"internalType":"uint256","name":"sharesAmount","type":"uint256"},{"components":[{"internalType":"string","name":"name","type":"string"},{"internalType":"string","name":"description","type":"string"},{"internalType":"string","name":"image","type":"string"},{"internalType":"string","name":"externalUrl","type":"string"},{"internalType":"string","name":"animationUrl","type":"string"},{"internalType":"string","name":"attributesIpfsHash","type":"string"}],"indexed":false,"internalType":"struct IMetadataModule.Metadata","name":"metadata","type":"tuple"}],"name":"WrappedSongCreated","type":"event"},{"anonymous":false,"inputs":[{"indexed":true,"internalType":"address","name":"oldWrappedSong","type":"address"},{"indexed":true,"internalType":"address","name":"newWrappedSong","type":"address"},{"indexed":true,"internalType":"address","name":"owner","type":"address"},{"indexed":false,"internalType":"address","name":"stablecoin","type":"address"},{"indexed":false,"internalType":"address","name":"wsTokenManagement","type":"address"}],"name":"WrappedSongMigrated","type":"event"},{"inputs":[{"internalType":"address","name":"","type":"address"}],"name":"accumulatedFees","outputs":[{"internalType":"uint256","name":"","type":"uint256"}],"stateMutability":"view","type":"function"},{"inputs":[{"internalType":"address","name":"_stablecoin","type":"address"},{"components":[{"internalType":"string","name":"name","type":"string"},{"internalType":"string","name":"description","type":"string"},{"internalType":"string","name":"image","type":"string"},{"internalType":"string","name":"externalUrl","type":"string"},{"internalType":"string","name":"animationUrl","type":"string"},{"internalType":"string","name":"attributesIpfsHash","type":"string"}],"internalType":"struct IMetadataModule.Metadata","name":"songMetadata","type":"tuple"},{"internalType":"uint256","name":"sharesAmount","type":"uint256"}],"name":"createWrappedSong","outputs":[{"internalType":"address","name":"","type":"address"}],"stateMutability":"payable","type":"function"},{"inputs":[],"name":"metadataModule","outputs":[{"internalType":"contract IMetadataModule","name":"","type":"address"}],"stateMutability":"view","type":"function"},{"inputs":[{"internalType":"address","name":"oldWrappedSong_","type":"address"},{"internalType":"address","name":"oldMetadataModule_","type":"address"}],"name":"migrateWrappedSong","outputs":[{"internalType":"address","name":"","type":"address"}],"stateMutability":"payable","type":"function"},{"inputs":[],"name":"protocolModule","outputs":[{"internalType":"contract IProtocolModule","name":"","type":"address"}],"stateMutability":"view","type":"function"},{"inputs":[{"internalType":"address","name":"token","type":"address"},{"internalType":"address","name":"recipient","type":"address"}],"name":"withdrawAccumulatedFees","outputs":[],"stateMutability":"nonpayable","type":"function"},{"inputs":[],"name":"wrappedSongTemplate","outputs":[{"internalType":"address","name":"","type":"address"}],"stateMutability":"view","type":"function"},{"inputs":[],"name":"wsTokenTemplate","outputs":[{"internalType":"address","name":"","type":"address"}],"stateMutability":"view","type":"function"},{"stateMutability":"payable","type":"receive"}],"evm":{"bytecode":{"linkReferences":{},"object":"610100604090808252346200028c5760608162002991803803809162000026828562000291565b8339810103126200028c576200003c81620002cb565b906020916200005a8462000052858501620002cb565b9301620002cb565b926001600160a01b039182168015620002485782841615620002045782851615620001c057908082600493608052875193848092630222e55560e21b82525afa908115620001b55760009162000176575b5090501660a05260c05260e052516126b09081620002e1823960805181818161012e01528181610ec401528181610f4701528181610fae01528181610ff901528181611129015281816111d2015281816112120152818161125c01528181611298015281816112f60152818161132f015281816113900152818161162801528181611c3d0152611cf6015260a05181818161087b015281816114760152611f1f015260c05181818161043e015281816110cf0152611c82015260e0518181816111750152611bf80152f35b82813d8311620001ad575b6200018d818362000291565b81010312620001aa5750620001a290620002cb565b8038620000ab565b80fd5b503d62000181565b86513d6000823e3d90fd5b855162461bcd60e51b815260048101839052601860248201527f496e76616c6964205753546f6b656e2074656d706c61746500000000000000006044820152606490fd5b855162461bcd60e51b815260048101839052601d60248201527f496e76616c6964207772617070656420736f6e672074656d706c6174650000006044820152606490fd5b855162461bcd60e51b815260048101839052601760248201527f496e76616c69642070726f746f636f6c206d6f64756c650000000000000000006044820152606490fd5b600080fd5b601f909101601f19168101906001600160401b03821190821017620002b557604052565b634e487b7160e01b600052604160045260246000fd5b51906001600160a01b03821682036200028c5756fe608080604052600436101561001d575b50361561001b57600080fd5b005b600090813560e01c9081633684d10014611f0b57508063376c1f0714611cb15780633e22876b14611c6c5780635c42e66714611c275780635e63149f14611be2578063b9408f5c14610d7c578063d70a0abc146100b85763fcf666640361000f57346100b55760203660031901126100b5576020906040906001600160a01b036100a5611f4e565b1681528083522054604051908152f35b80fd5b5060403660031901126100b5576100cd611f4e565b6100d5611f69565b604051926100e284611fc3565b60178452610117836020957f5374617274696e67206d6967726174696f6e20666f723a0000000000000000008782015261262a565b604051635c975abb60e01b81526001600160a01b037f00000000000000000000000000000000000000000000000000000000000000008116949093918681600481895afa908115610d7157859291610177918691610d54575b5015612094565b6101aa60405161018681611fc3565b6013815272141c9bdd1bd8dbdb081b9bdd081c185d5cd959606a1b89820152612594565b169160405193638da5cb5b60e01b948581528781600481885afa908115610af3579061027e918491610d37575b50610207816040516101e881611fc3565b600e81526d21bab93932b73a1037bbb732b91d60911b8c82015261262a565b61028d603f61021533612490565b61021e84612490565b8c6040519687937f496e76616c6964206f776e65722e2045787065637465643a20000000000000008386015261025d81518092856039890191016120d5565b8401916501023b7ba1d160d51b6039840152835193849187850191016120d5565b0103601f810185520183611ff9565b8233911603610d1157506102c96040516102a681611fc3565b601281527113dddb995c9cda1a5c081d995c9a599a595960721b89820152612594565b604051630b19e31960e21b81528781600481885afa908115610af3578391610ce4575b50610ca75761032e60405161030081611fc3565b601881527f4d6967726174696f6e2073746174757320636865636b6564000000000000000089820152612594565b6040516374e5ec1160e11b81528781600481885afa908115610af3579082918491610c69575b50169461038d8660405161036781611fc3565b601581527429ba30b13632b1b7b4b7103932ba3934b2bb32b21d60591b8b82015261262a565b60405193636fad7e9560e11b9283865289866004818a5afa958615610b16578596610c4a575b506103f2866040516103c481611fc3565b601a81527f5753546f6b656e2061646472657373207265747269657665643a0000000000008d82015261262a565b808616918215610c055761043960405161040b81611fc3565b601881527f5753546f6b656e206164647265737320766572696669656400000000000000008d820152612594565b6104627f00000000000000000000000000000000000000000000000000000000000000006122e1565b926104a2848d7f4e6577207772617070656420736f6e6720636c6f6e65643a00000000000000006040519161049683611fc3565b6018835282015261262a565b8284169a8b3b15610bba5760405163c0c53b8b60e01b81526001600160a01b03808d1660048301523360248301528216604482015288818e8183816064810103925af18015610bd257908991610bf1575b50506105338d7f4e6577207772617070656420736f6e6720696e697469616c697a6564000000006040519161052783611fc3565b601c8352820152612594565b803b15610bba5760405163d9ce7b9560e01b815260048101839052888160248183865af18015610bd257908991610bdd575b50506105a58d7f5753546f6b656e2073657420696e2070726f746f636f6c0000000000000000006040519161059983611fc3565b60178352820152612594565b803b15610bba576040516208ac8360e01b81526001600160a01b0386811660048301528a166024820152888160448183865af18015610bd257908991610bbe575b50506106388d7f536d617274206163636f756e7420746f205753546f6b656e2072656c6174696f6040519161061a83611fde565b60298352820152681b9cda1a5c081cd95d60ba1b6040820152612594565b803b15610bba5760405160016216ef6160e31b031981523360048201526001600160a01b03861660248201529088908290604490829084905af18015610baf57908891610b9b575b50506106b88c7413dddb995c881cd95d081a5b881c1c9bdd1bd8dbdb605a1b604051916106ac83611fc3565b60158352820152612594565b8a3b15610b975760405163716f6e8760e01b815260048101919091528681602481838f5af18015610b8c579187918493610b70575b506107258d7515d4d51bdad95b881b585b9859d95b595b9d081cd95d60521b6040519161071983611fc3565b60168352820152612594565b6024604051809481936301a4e6dd60e51b83528d6004840152165afa908115610b475786908192610b52575b506108b791926107828d7513db19081b595d1859185d18481c995d1c9a595d995960521b6040519161071983611fc3565b6107b88d8551907127b6321036b2ba30b230ba30903730b6b29d60711b604051916107ac83611fc3565b601283528201526125e3565b6107f28d6040860151907227b6321036b2ba30b230ba309034b6b0b3b29d60691b604051916107e683611fc3565b601383528201526125e3565b6108368d6080860151907f4f6c64206d6574616461746120616e696d6174696f6e55726c3a0000000000006040519161082a83611fc3565b601a83528201526125e3565b6108798d60a0860151907f4f6c64206d65746164617461206174747269627574657349706673486173683a6040519161086e83611fc3565b8083528201526125e3565b7f0000000000000000000000000000000000000000000000000000000000000000169260405180938192636613680d60e01b835287600484016122bf565b038183865af18015610b4757610b25575b506108fd6040516108d881611fc3565b601481527313995dc81b595d1859185d184818dc99585d195960621b8c820152612594565b863b15610b21576040516335c282af60e21b81526001600160a01b03918216600482015290821660248201528481604481838b5af18015610b1657908591610afe575b505061099d9061097760405161095581611fc3565b601181527013db19081cdbdb99c81b5a59dc985d1959607a1b8c820152612594565b60405161098381611fc3565b60098152682732bb9039b7b7339d60b91b8b82015261262a565b60405190815287816004818a5afa908115610af357906109eb918491610ad6575b506040516109cb81611fc3565b600f81526e2732bb9039b7b7339037bbb732b91d60891b8a82015261262a565b6040519081528681600481895afa918215610aca5792610a6e7fc42cdc1cea8afc407ec500712a997b1d17d698ae57762e29810084b83a295a5493610a929389979691610a9d575b50604051610a4081611fc3565b601b81527f4e657720736f6e67205753546f6b656e4d616e6167656d656e743a00000000008b82015261262a565b604080516001600160a01b0397881681529690911660208701523395918291820190565b0390a4604051908152f35b610abd91508a3d8c11610ac3575b610ab58183611ff9565b810190612349565b38610a33565b503d610aab565b604051903d90823e3d90fd5b610aed9150893d8b11610ac357610ab58183611ff9565b386109be565b6040513d85823e3d90fd5b610b0790611fb0565b610b12578338610940565b8380fd5b6040513d87823e3d90fd5b8480fd5b610b40903d8088833e610b388183611ff9565b81019061213d565b50386108c8565b6040513d88823e3d90fd5b6108b79250610b6a903d8084833e610b388183611ff9565b91610751565b610b7b919350611fb0565b610b8857858291386106ed565b8580fd5b6040513d89823e3d90fd5b8680fd5b610ba490611fb0565b610b97578638610680565b6040513d8a823e3d90fd5b8780fd5b610bc790611fb0565b610bba5787386105e6565b6040513d8b823e3d90fd5b610be690611fb0565b610bba578738610565565b610bfa90611fb0565b610bba5787386104f3565b60405162461bcd60e51b8152600481018c9052601760248201527f496e76616c6964205753546f6b656e20616464726573730000000000000000006044820152606490fd5b610c629196508a3d8c11610ac357610ab58183611ff9565b94386103b3565b809250898092503d8311610ca0575b610c828183611ff9565b81010312610c9c57518181168103610c9c57819038610354565b8280fd5b503d610c78565b60405162461bcd60e51b815260048101889052601560248201527414dbdb99c8185b1c9958591e481b5a59dc985d1959605a1b6044820152606490fd5b610d049150883d8a11610d0a575b610cfc8183611ff9565b81019061207c565b386102ec565b503d610cf2565b87610d3360405192839262461bcd60e51b84526004840152602483019061221c565b0390fd5b610d4e9150893d8b11610ac357610ab58183611ff9565b386101d7565b610d6b9150893d8b11610d0a57610cfc8183611ff9565b38610170565b6040513d86823e3d90fd5b5060031960603682011261159c57610d92611f4e565b602435916001600160401b038311610b125760c0908336030112610c9c5760405191610dbd83611f7f565b80600401356001600160401b038111610b2157610de09060043691840101612035565b835260248101356001600160401b038111610b2157610e059060043691840101612035565b602084015260448101356001600160401b038111610b2157610e2d9060043691840101612035565b604084015260648101356001600160401b038111610b2157610e559060043691840101612035565b606084015260848101356001600160401b038111610b2157610e7d9060043691840101612035565b906080840191825260a4810135906001600160401b038211610b88576004610ea89236920101612035565b60a08401908152604051635c975abb60e01b81526020816004817f00000000000000000000000000000000000000000000000000000000000000006001600160a01b03165afa8015610b4757610f05918791611bc9575015612094565b83515115159182611bba575b82611bae575b5081611ba2575b5015611b6a5760443515611b155760405163f140b55f60e01b81523360048201526020816024817f00000000000000000000000000000000000000000000000000000000000000006001600160a01b03165afa908115610d71578491611af6575b5015611ab25760405163b5af090f60e01b81526001600160a01b038281166004830152602090829060249082907f0000000000000000000000000000000000000000000000000000000000000000165afa908115610d71578491611a93575b5015611a4e5760405163670d296960e11b81526020816004817f00000000000000000000000000000000000000000000000000000000000000006001600160a01b03165afa908115610d71576004916020918691611a31575b50604051636d4726d960e01b815292839182906001600160a01b03165afa908115610d715784916119ef575b5060405163a454912960e01b8152906020826004816001600160a01b0385165afa918215610b165785926119bb575b5060405163d579e3f360e01b81526020816004816001600160a01b0386165afa908115610b4757869161199c575b50826115db575b5050506110f37f00000000000000000000000000000000000000000000000000000000000000006122e1565b916001600160a01b0383163b15610b125760405163c0c53b8b60e01b81526001600160a01b0383811660048301523260248301527f0000000000000000000000000000000000000000000000000000000000000000166044820152848180606481010381836001600160a01b0389165af18015610b16576115c8575b506111997f00000000000000000000000000000000000000000000000000000000000000006122e1565b6001600160a01b038116908590823b1561159c5760405163c0c53b8b60e01b81526001600160a01b0387811660048301523360248301527f0000000000000000000000000000000000000000000000000000000000000000166044820152828160648183885af1908115610af35783916115b4575b50507f00000000000000000000000000000000000000000000000000000000000000006001600160a01b03163b1561159c5760405163d9ce7b9560e01b8152600481018490528281602481837f00000000000000000000000000000000000000000000000000000000000000006001600160a01b03165af1908115610af35783916115a0575b50507f00000000000000000000000000000000000000000000000000000000000000006001600160a01b03163b1561159c576040516208ac8360e01b81526001600160a01b0380881660048301529091166024820152818180604481010381837f00000000000000000000000000000000000000000000000000000000000000006001600160a01b03165af1801561155557611588575b50507f00000000000000000000000000000000000000000000000000000000000000006001600160a01b03163b15610b215760405160016216ef6160e31b031981523360048201526001600160a01b03851660248201528590818180604481010381837f00000000000000000000000000000000000000000000000000000000000000006001600160a01b03165af1801561155557611574575b50506001600160a01b0384163b15610b215760405163716f6e8760e01b81526004810182905285908181602481836001600160a01b038b165af1801561155557611560575b50506001600160a01b0384163b15610b21576040516339fa62df60e01b8152604435600482015285908181602481836001600160a01b038b165af1801561155557611541575b50604051636613680d60e01b815292839081906114719088600484016122bf565b0381837f00000000000000000000000000000000000000000000000000000000000000006001600160a01b03165af1918215610b16578560209693611524575b50506040519260018060a01b03168352848301526044356040830152608060608301527f938ece1ab5d508d56896411e3f1b2c96359f780ecbfe90c9a4031cd170aa4a4a60018060a01b038416928061150f33946080830190612241565b0390a36040516001600160a01b039091168152f35b6115399293503d8091833e610b388183611ff9565b9038806114b1565b61154b8291611fb0565b6100b55738611450565b6040513d84823e3d90fd5b61156990611fb0565b610b2157843861140a565b61157d90611fb0565b610b215784386113c5565b61159190611fb0565b610b2157843861132b565b5080fd5b6115a990611fb0565b61159c578138611294565b6115bd90611fb0565b61159c57813861120e565b6115d490949194611fb0565b923861116f565b1561188b576040516337a0a9e960e11b815290602090829060049082906001600160a01b03165afa908115610b16578591611859575b5060405163670d296960e11b8152906020826004817f00000000000000000000000000000000000000000000000000000000000000006001600160a01b03165afa918215610b4757600492602091889161183c575b506040516309da4e5160e01b815293849182906001600160a01b03165afa918215610b475786926117f7575b50604051637c70c0a360e01b8152600481019190915290602090829060249082906001600160a01b03165afa908115610b165785916117d8575b506001600160a01b0316908115611787576040516323b872dd60e01b60208201523360248201523060448201526064808201839052815260a081016001600160401b0381118282101761177357869261174c7fdd872ca9502e175165673833ac2a0e1395edb4b5c72f2915685598490c375e9993602093604052866123bb565b84845283825260408420611761828254612368565b9055604051908152a35b3880806110c7565b634e487b7160e01b87526041600452602487fd5b60405162461bcd60e51b815260206004820152602360248201527f4e6f2077686974656c697374656420737461626c65636f696e20617661696c61604482015262626c6560e81b6064820152608490fd5b6117f1915060203d602011610ac357610ab58183611ff9565b386116cc565b9091506020813d602011611834575b8161181360209383611ff9565b81010312610b8857516001600160a01b0381168103610b8857906020611692565b3d9150611806565b6118539150823d8411610ac357610ab58183611ff9565b38611666565b90506020813d602011611883575b8161187460209383611ff9565b81010312610b21575138611611565b3d9150611867565b508034106119575783805283602052604084206118a9348254612368565b90558034116118e5575b5082807fdd872ca9502e175165673833ac2a0e1395edb4b5c72f2915685598490c375e996020604051348152a361176b565b3403348111611943578380808093335af16118fe61238b565b501561190a57386118b3565b60405162461bcd60e51b8152602060048201526011602482015270115512081c99599d5b990819985a5b1959607a1b6044820152606490fd5b634e487b7160e01b84526011600452602484fd5b60405162461bcd60e51b815260206004820152601860248201527f496e636f7272656374204554482066656520616d6f756e7400000000000000006044820152606490fd5b6119b5915060203d602011610d0a57610cfc8183611ff9565b386110c0565b9091506020813d6020116119e7575b816119d760209383611ff9565b81010312610b2157519038611092565b3d91506119ca565b90506020813d602011611a29575b81611a0a60209383611ff9565b81010312610b1257516001600160a01b0381168103610b125738611063565b3d91506119fd565b611a489150823d8411610ac357610ab58183611ff9565b38611037565b60405162461bcd60e51b815260206004820152601d60248201527f537461626c65636f696e206973206e6f742077686974656c69737465640000006044820152606490fd5b611aac915060203d602011610d0a57610cfc8183611ff9565b38610fde565b606460405162461bcd60e51b815260206004820152602060248201527f4e6f742076616c696420746f20637265617465205772617070656420536f6e676044820152fd5b611b0f915060203d602011610d0a57610cfc8183611ff9565b38610f7f565b60405162461bcd60e51b815260206004820152602760248201527f53686172657320616d6f756e74206d7573742062652067726561746572207468604482015266616e207a65726f60c81b6064820152608490fd5b60405162461bcd60e51b815260206004820152601060248201526f496e76616c6964206d6574616461746160801b6044820152606490fd5b90505151151538610f1e565b51511515915038610f17565b60408501515115159250610f11565b610d6b915060203d602011610d0a57610cfc8183611ff9565b50346100b557806003193601126100b5576040517f00000000000000000000000000000000000000000000000000000000000000006001600160a01b03168152602090f35b50346100b557806003193601126100b5576040517f00000000000000000000000000000000000000000000000000000000000000006001600160a01b03168152602090f35b50346100b557806003193601126100b5576040517f00000000000000000000000000000000000000000000000000000000000000006001600160a01b03168152602090f35b50346100b55760403660031901126100b557611ccb611f4e565b611cd3611f69565b604051638da5cb5b60e01b815290916001600160a01b03916020919082816004817f000000000000000000000000000000000000000000000000000000000000000088165afa8015610b475784918791611eee575b50163303611e9b578216918285528482526040852054938415611e60578386528583528560408120558315600014611dde5785808080888686165af1611d6c61238b565b5015611da357907f5e110f8bc8a20b65dcc87f224bdf1cc039346e267118bae2739847f07321ffa892915b6040519586521693a380f35b60405162461bcd60e51b8152600481018490526013602482015272115512081d1c985b9cd9995c8819985a5b1959606a1b6044820152606490fd5b60405163a9059cbb60e01b84820152818316602482015260448082018790528152608081016001600160401b03811182821017611e4c577f5e110f8bc8a20b65dcc87f224bdf1cc039346e267118bae2739847f07321ffa894939291611e4791604052866123bb565b611d97565b634e487b7160e01b88526041600452602488fd5b60405162461bcd60e51b81526004810184905260136024820152724e6f206665657320746f20776974686472617760681b6044820152606490fd5b60405162461bcd60e51b815260048101839052602560248201527f4f6e6c792070726f746f636f6c206f776e65722063616e207769746864726177604482015264206665657360d81b6064820152608490fd5b611f059150843d8611610ac357610ab58183611ff9565b38611d28565b90503461159c578160031936011261159c577f00000000000000000000000000000000000000000000000000000000000000006001600160a01b03168152602090f35b600435906001600160a01b0382168203611f6457565b600080fd5b602435906001600160a01b0382168203611f6457565b60c081019081106001600160401b03821117611f9a57604052565b634e487b7160e01b600052604160045260246000fd5b6001600160401b038111611f9a57604052565b604081019081106001600160401b03821117611f9a57604052565b606081019081106001600160401b03821117611f9a57604052565b90601f801991011681019081106001600160401b03821117611f9a57604052565b6001600160401b038111611f9a57601f01601f191660200190565b81601f82011215611f645780359061204c8261201a565b9261205a6040519485611ff9565b82845260208383010111611f6457816000926020809301838601378301015290565b90816020910312611f6457518015158103611f645790565b1561209b57565b60405162461bcd60e51b8152602060048201526012602482015271141c9bdd1bd8dbdb081a5cc81c185d5cd95960721b6044820152606490fd5b60005b8381106120e85750506000910152565b81810151838201526020016120d8565b81601f82011215611f6457805161210e8161201a565b9261211c6040519485611ff9565b81845260208284010111611f645761213a91602080850191016120d5565b90565b90602082820312611f645781516001600160401b0392838211611f6457019060c082820312611f64576040519261217384611f7f565b8251818111611f6457826121889185016120f8565b84526020830151818111611f6457826121a29185016120f8565b60208501526040830151818111611f6457826121bf9185016120f8565b60408501526060830151818111611f6457826121dc9185016120f8565b60608501526080830151818111611f6457826121f99185016120f8565b608085015260a0830151908111611f645761221492016120f8565b60a082015290565b90602091612235815180928185528580860191016120d5565b601f01601f1916010190565b61213a9160a06122ae61229c61228a612278612266875160c0885260c088019061221c565b6020880151878203602089015261221c565b6040870151868203604088015261221c565b6060860151858203606087015261221c565b6080850151848203608086015261221c565b9201519060a081840391015261221c565b6001600160a01b03909116815260406020820181905261213a92910190612241565b6e5af43d82803e903d91602b57fd5bf390763d602d80600a3d3981f3363d3d373d3d3d363d7300000062ffffff8260881c161760005260781b17602052603760096000f0906001600160a01b0382161561233757565b6040516330be1a3d60e21b8152600490fd5b90816020910312611f6457516001600160a01b0381168103611f645790565b9190820180921161237557565b634e487b7160e01b600052601160045260246000fd5b3d156123b6573d9061239c8261201a565b916123aa6040519384611ff9565b82523d6000602084013e565b606090565b6000806123e49260018060a01b03169360208151910182865af16123dd61238b565b908361242d565b8051908115159182612412575b50506123fa5750565b60249060405190635274afe760e01b82526004820152fd5b612425925060208091830101910161207c565b1538806123f1565b90612454575080511561244257805190602001fd5b604051630a12f52160e11b8152600490fd5b81511580612487575b612465575090565b604051639996b31560e01b81526001600160a01b039091166004820152602490fd5b50803b1561245d565b604051906001600160a01b0316806124a783611fde565b602a83526020808401604036823784511561257e576030905383519060019182101561257e5790607860218601536029915b81831161250a575050506124eb575090565b6044906040519063e22e27eb60e01b8252600482015260146024820152fd5b909192600f81166010811015612569578651851015612569576f181899199a1a9b1b9c1cb0b131b232b360811b901a86850183015360041c928015612554576000190191906124d9565b60246000634e487b7160e01b81526011600452fd5b60246000634e487b7160e01b81526032600452fd5b634e487b7160e01b600052603260045260246000fd5b600080916040516125d0816125c2602082019463104c13eb60e21b865260206024840152604483019061221c565b03601f198101835282611ff9565b51906a636f6e736f6c652e6c6f675afa50565b600091906125c26125d084936040519283916126186020840196634b5c427760e01b885260406024860152606485019061221c565b8381036023190160448501529061221c565b6000919082916125d0604051809261265b602083019563319af33360e01b875260406024850152606484019061221c565b6001600160a01b0391909116604483015203601f198101835282611ff956fea264697066735822122047455c76b4ee9814473a9ce97930b51321286c312f432602bab815699f2587a164736f6c63430008140033","opcodes":"PUSH2 0x100 PUSH1 0x40 SWAP1 DUP1 DUP3 MSTORE CALLVALUE PUSH3 0x28C JUMPI PUSH1 0x60 DUP2 PUSH3 0x2991 DUP1 CODESIZE SUB DUP1 SWAP2 PUSH3 0x26 DUP3 DUP6 PUSH3 0x291 JUMP JUMPDEST DUP4 CODECOPY DUP2 ADD SUB SLT PUSH3 0x28C JUMPI PUSH3 0x3C DUP2 PUSH3 0x2CB JUMP JUMPDEST SWAP1 PUSH1 0x20 SWAP2 PUSH3 0x5A DUP5 PUSH3 0x52 DUP6 DUP6 ADD PUSH3 0x2CB JUMP JUMPDEST SWAP4 ADD PUSH3 0x2CB JUMP JUMPDEST SWAP3 PUSH1 0x1 PUSH1 0x1 PUSH1 0xA0 SHL SUB SWAP2 DUP3 AND DUP1 ISZERO PUSH3 0x248 JUMPI DUP3 DUP5 AND ISZERO PUSH3 0x204 JUMPI DUP3 DUP6 AND ISZERO PUSH3 0x1C0 JUMPI SWAP1 DUP1 DUP3 PUSH1 0x4 SWAP4 PUSH1 0x80 MSTORE DUP8 MLOAD SWAP4 DUP5 DUP1 SWAP3 PUSH4 0x222E555 PUSH1 0xE2 SHL DUP3 MSTORE GAS STATICCALL SWAP1 DUP2 ISZERO PUSH3 0x1B5 JUMPI PUSH1 0x0 SWAP2 PUSH3 0x176 JUMPI JUMPDEST POP SWAP1 POP AND PUSH1 0xA0 MSTORE PUSH1 0xC0 MSTORE PUSH1 0xE0 MSTORE MLOAD PUSH2 0x26B0 SWAP1 DUP2 PUSH3 0x2E1 DUP3 CODECOPY PUSH1 0x80 MLOAD DUP2 DUP2 DUP2 PUSH2 0x12E ADD MSTORE DUP2 DUP2 PUSH2 0xEC4 ADD MSTORE DUP2 DUP2 PUSH2 0xF47 ADD MSTORE DUP2 DUP2 PUSH2 0xFAE ADD MSTORE DUP2 DUP2 PUSH2 0xFF9 ADD MSTORE DUP2 DUP2 PUSH2 0x1129 ADD MSTORE DUP2 DUP2 PUSH2 0x11D2 ADD MSTORE DUP2 DUP2 PUSH2 0x1212 ADD MSTORE DUP2 DUP2 PUSH2 0x125C ADD MSTORE DUP2 DUP2 PUSH2 0x1298 ADD MSTORE DUP2 DUP2 PUSH2 0x12F6 ADD MSTORE DUP2 DUP2 PUSH2 0x132F ADD MSTORE DUP2 DUP2 PUSH2 0x1390 ADD MSTORE DUP2 DUP2 PUSH2 0x1628 ADD MSTORE DUP2 DUP2 PUSH2 0x1C3D ADD MSTORE PUSH2 0x1CF6 ADD MSTORE PUSH1 0xA0 MLOAD DUP2 DUP2 DUP2 PUSH2 0x87B ADD MSTORE DUP2 DUP2 PUSH2 0x1476 ADD MSTORE PUSH2 0x1F1F ADD MSTORE PUSH1 0xC0 MLOAD DUP2 DUP2 DUP2 PUSH2 0x43E ADD MSTORE DUP2 DUP2 PUSH2 0x10CF ADD MSTORE PUSH2 0x1C82 ADD MSTORE PUSH1 0xE0 MLOAD DUP2 DUP2 DUP2 PUSH2 0x1175 ADD MSTORE PUSH2 0x1BF8 ADD MSTORE RETURN JUMPDEST DUP3 DUP2 RETURNDATASIZE DUP4 GT PUSH3 0x1AD JUMPI JUMPDEST PUSH3 0x18D DUP2 DUP4 PUSH3 0x291 JUMP JUMPDEST DUP2 ADD SUB SLT PUSH3 0x1AA JUMPI POP PUSH3 0x1A2 SWAP1 PUSH3 0x2CB JUMP JUMPDEST DUP1 CODESIZE PUSH3 0xAB JUMP JUMPDEST DUP1 REVERT JUMPDEST POP RETURNDATASIZE PUSH3 0x181 JUMP JUMPDEST DUP7 MLOAD RETURNDATASIZE PUSH1 0x0 DUP3 RETURNDATACOPY RETURNDATASIZE SWAP1 REVERT JUMPDEST DUP6 MLOAD PUSH3 0x461BCD PUSH1 0xE5 SHL DUP2 MSTORE PUSH1 0x4 DUP2 ADD DUP4 SWAP1 MSTORE PUSH1 0x18 PUSH1 0x24 DUP3 ADD MSTORE PUSH32 0x496E76616C6964205753546F6B656E2074656D706C6174650000000000000000 PUSH1 0x44 DUP3 ADD MSTORE PUSH1 0x64 SWAP1 REVERT JUMPDEST DUP6 MLOAD PUSH3 0x461BCD PUSH1 0xE5 SHL DUP2 MSTORE PUSH1 0x4 DUP2 ADD DUP4 SWAP1 MSTORE PUSH1 0x1D PUSH1 0x24 DUP3 ADD MSTORE PUSH32 0x496E76616C6964207772617070656420736F6E672074656D706C617465000000 PUSH1 0x44 DUP3 ADD MSTORE PUSH1 0x64 SWAP1 REVERT JUMPDEST DUP6 MLOAD PUSH3 0x461BCD PUSH1 0xE5 SHL DUP2 MSTORE PUSH1 0x4 DUP2 ADD DUP4 SWAP1 MSTORE PUSH1 0x17 PUSH1 0x24 DUP3 ADD MSTORE PUSH32 0x496E76616C69642070726F746F636F6C206D6F64756C65000000000000000000 PUSH1 0x44 DUP3 ADD MSTORE PUSH1 0x64 SWAP1 REVERT JUMPDEST PUSH1 0x0 DUP1 REVERT JUMPDEST PUSH1 0x1F SWAP1 SWAP2 ADD PUSH1 0x1F NOT AND DUP2 ADD SWAP1 PUSH1 0x1 PUSH1 0x1 PUSH1 0x40 SHL SUB DUP3 GT SWAP1 DUP3 LT OR PUSH3 0x2B5 JUMPI PUSH1 0x40 MSTORE JUMP JUMPDEST PUSH4 0x4E487B71 PUSH1 0xE0 SHL PUSH1 0x0 MSTORE PUSH1 0x41 PUSH1 0x4 MSTORE PUSH1 0x24 PUSH1 0x0 REVERT JUMPDEST MLOAD SWAP1 PUSH1 0x1 PUSH1 0x1 PUSH1 0xA0 SHL SUB DUP3 AND DUP3 SUB PUSH3 0x28C JUMPI JUMP INVALID PUSH1 0x80 DUP1 PUSH1 0x40 MSTORE PUSH1 0x4 CALLDATASIZE LT ISZERO PUSH2 0x1D JUMPI JUMPDEST POP CALLDATASIZE ISZERO PUSH2 0x1B JUMPI PUSH1 0x0 DUP1 REVERT JUMPDEST STOP JUMPDEST PUSH1 0x0 SWAP1 DUP2 CALLDATALOAD PUSH1 0xE0 SHR SWAP1 DUP2 PUSH4 0x3684D100 EQ PUSH2 0x1F0B JUMPI POP DUP1 PUSH4 0x376C1F07 EQ PUSH2 0x1CB1 JUMPI DUP1 PUSH4 0x3E22876B EQ PUSH2 0x1C6C JUMPI DUP1 PUSH4 0x5C42E667 EQ PUSH2 0x1C27 JUMPI DUP1 PUSH4 0x5E63149F EQ PUSH2 0x1BE2 JUMPI DUP1 PUSH4 0xB9408F5C EQ PUSH2 0xD7C JUMPI DUP1 PUSH4 0xD70A0ABC EQ PUSH2 0xB8 JUMPI PUSH4 0xFCF66664 SUB PUSH2 0xF JUMPI CALLVALUE PUSH2 0xB5 JUMPI PUSH1 0x20 CALLDATASIZE PUSH1 0x3 NOT ADD SLT PUSH2 0xB5 JUMPI PUSH1 0x20 SWAP1 PUSH1 0x40 SWAP1 PUSH1 0x1 PUSH1 0x1 PUSH1 0xA0 SHL SUB PUSH2 0xA5 PUSH2 0x1F4E JUMP JUMPDEST AND DUP2 MSTORE DUP1 DUP4 MSTORE KECCAK256 SLOAD PUSH1 0x40 MLOAD SWAP1 DUP2 MSTORE RETURN JUMPDEST DUP1 REVERT JUMPDEST POP PUSH1 0x40 CALLDATASIZE PUSH1 0x3 NOT ADD SLT PUSH2 0xB5 JUMPI PUSH2 0xCD PUSH2 0x1F4E JUMP JUMPDEST PUSH2 0xD5 PUSH2 0x1F69 JUMP JUMPDEST PUSH1 0x40 MLOAD SWAP3 PUSH2 0xE2 DUP5 PUSH2 0x1FC3 JUMP JUMPDEST PUSH1 0x17 DUP5 MSTORE PUSH2 0x117 DUP4 PUSH1 0x20 SWAP6 PUSH32 0x5374617274696E67206D6967726174696F6E20666F723A000000000000000000 DUP8 DUP3 ADD MSTORE PUSH2 0x262A JUMP JUMPDEST PUSH1 0x40 MLOAD PUSH4 0x5C975ABB PUSH1 0xE0 SHL DUP2 MSTORE PUSH1 0x1 PUSH1 0x1 PUSH1 0xA0 SHL SUB PUSH32 0x0 DUP2 AND SWAP5 SWAP1 SWAP4 SWAP2 DUP7 DUP2 PUSH1 0x4 DUP2 DUP10 GAS STATICCALL SWAP1 DUP2 ISZERO PUSH2 0xD71 JUMPI DUP6 SWAP3 SWAP2 PUSH2 0x177 SWAP2 DUP7 SWAP2 PUSH2 0xD54 JUMPI JUMPDEST POP ISZERO PUSH2 0x2094 JUMP JUMPDEST PUSH2 0x1AA PUSH1 0x40 MLOAD PUSH2 0x186 DUP2 PUSH2 0x1FC3 JUMP JUMPDEST PUSH1 0x13 DUP2 MSTORE PUSH19 0x141C9BDD1BD8DBDB081B9BDD081C185D5CD959 PUSH1 0x6A SHL DUP10 DUP3 ADD MSTORE PUSH2 0x2594 JUMP JUMPDEST AND SWAP2 PUSH1 0x40 MLOAD SWAP4 PUSH4 0x8DA5CB5B PUSH1 0xE0 SHL SWAP5 DUP6 DUP2 MSTORE DUP8 DUP2 PUSH1 0x4 DUP2 DUP9 GAS STATICCALL SWAP1 DUP2 ISZERO PUSH2 0xAF3 JUMPI SWAP1 PUSH2 0x27E SWAP2 DUP5 SWAP2 PUSH2 0xD37 JUMPI JUMPDEST POP PUSH2 0x207 DUP2 PUSH1 0x40 MLOAD PUSH2 0x1E8 DUP2 PUSH2 0x1FC3 JUMP JUMPDEST PUSH1 0xE DUP2 MSTORE PUSH14 0x21BAB93932B73A1037BBB732B91D PUSH1 0x91 SHL DUP13 DUP3 ADD MSTORE PUSH2 0x262A JUMP JUMPDEST PUSH2 0x28D PUSH1 0x3F PUSH2 0x215 CALLER PUSH2 0x2490 JUMP JUMPDEST PUSH2 0x21E DUP5 PUSH2 0x2490 JUMP JUMPDEST DUP13 PUSH1 0x40 MLOAD SWAP7 DUP8 SWAP4 PUSH32 0x496E76616C6964206F776E65722E2045787065637465643A2000000000000000 DUP4 DUP7 ADD MSTORE PUSH2 0x25D DUP2 MLOAD DUP1 SWAP3 DUP6 PUSH1 0x39 DUP10 ADD SWAP2 ADD PUSH2 0x20D5 JUMP JUMPDEST DUP5 ADD SWAP2 PUSH6 0x1023B7BA1D1 PUSH1 0xD5 SHL PUSH1 0x39 DUP5 ADD MSTORE DUP4 MLOAD SWAP4 DUP5 SWAP2 DUP8 DUP6 ADD SWAP2 ADD PUSH2 0x20D5 JUMP JUMPDEST ADD SUB PUSH1 0x1F DUP2 ADD DUP6 MSTORE ADD DUP4 PUSH2 0x1FF9 JUMP JUMPDEST DUP3 CALLER SWAP2 AND SUB PUSH2 0xD11 JUMPI POP PUSH2 0x2C9 PUSH1 0x40 MLOAD PUSH2 0x2A6 DUP2 PUSH2 0x1FC3 JUMP JUMPDEST PUSH1 0x12 DUP2 MSTORE PUSH18 0x13DDDB995C9CDA1A5C081D995C9A599A5959 PUSH1 0x72 SHL DUP10 DUP3 ADD MSTORE PUSH2 0x2594 JUMP JUMPDEST PUSH1 0x40 MLOAD PUSH4 0xB19E319 PUSH1 0xE2 SHL DUP2 MSTORE DUP8 DUP2 PUSH1 0x4 DUP2 DUP9 GAS STATICCALL SWAP1 DUP2 ISZERO PUSH2 0xAF3 JUMPI DUP4 SWAP2 PUSH2 0xCE4 JUMPI JUMPDEST POP PUSH2 0xCA7 JUMPI PUSH2 0x32E PUSH1 0x40 MLOAD PUSH2 0x300 DUP2 PUSH2 0x1FC3 JUMP JUMPDEST PUSH1 0x18 DUP2 MSTORE PUSH32 0x4D6967726174696F6E2073746174757320636865636B65640000000000000000 DUP10 DUP3 ADD MSTORE PUSH2 0x2594 JUMP JUMPDEST PUSH1 0x40 MLOAD PUSH4 0x74E5EC11 PUSH1 0xE1 SHL DUP2 MSTORE DUP8 DUP2 PUSH1 0x4 DUP2 DUP9 GAS STATICCALL SWAP1 DUP2 ISZERO PUSH2 0xAF3 JUMPI SWAP1 DUP3 SWAP2 DUP5 SWAP2 PUSH2 0xC69 JUMPI JUMPDEST POP AND SWAP5 PUSH2 0x38D DUP7 PUSH1 0x40 MLOAD PUSH2 0x367 DUP2 PUSH2 0x1FC3 JUMP JUMPDEST PUSH1 0x15 DUP2 MSTORE PUSH21 0x29BA30B13632B1B7B4B7103932BA3934B2BB32B21D PUSH1 0x59 SHL DUP12 DUP3 ADD MSTORE PUSH2 0x262A JUMP JUMPDEST PUSH1 0x40 MLOAD SWAP4 PUSH4 0x6FAD7E95 PUSH1 0xE1 SHL SWAP3 DUP4 DUP7 MSTORE DUP10 DUP7 PUSH1 0x4 DUP2 DUP11 GAS STATICCALL SWAP6 DUP7 ISZERO PUSH2 0xB16 JUMPI DUP6 SWAP7 PUSH2 0xC4A JUMPI JUMPDEST POP PUSH2 0x3F2 DUP7 PUSH1 0x40 MLOAD PUSH2 0x3C4 DUP2 PUSH2 0x1FC3 JUMP JUMPDEST PUSH1 0x1A DUP2 MSTORE PUSH32 0x5753546F6B656E2061646472657373207265747269657665643A000000000000 DUP14 DUP3 ADD MSTORE PUSH2 0x262A JUMP JUMPDEST DUP1 DUP7 AND SWAP2 DUP3 ISZERO PUSH2 0xC05 JUMPI PUSH2 0x439 PUSH1 0x40 MLOAD PUSH2 0x40B DUP2 PUSH2 0x1FC3 JUMP JUMPDEST PUSH1 0x18 DUP2 MSTORE PUSH32 0x5753546F6B656E20616464726573732076657269666965640000000000000000 DUP14 DUP3 ADD MSTORE PUSH2 0x2594 JUMP JUMPDEST PUSH2 0x462 PUSH32 0x0 PUSH2 0x22E1 JUMP JUMPDEST SWAP3 PUSH2 0x4A2 DUP5 DUP14 PUSH32 0x4E6577207772617070656420736F6E6720636C6F6E65643A0000000000000000 PUSH1 0x40 MLOAD SWAP2 PUSH2 0x496 DUP4 PUSH2 0x1FC3 JUMP JUMPDEST PUSH1 0x18 DUP4 MSTORE DUP3 ADD MSTORE PUSH2 0x262A JUMP JUMPDEST DUP3 DUP5 AND SWAP11 DUP12 EXTCODESIZE ISZERO PUSH2 0xBBA JUMPI PUSH1 0x40 MLOAD PUSH4 0xC0C53B8B PUSH1 0xE0 SHL DUP2 MSTORE PUSH1 0x1 PUSH1 0x1 PUSH1 0xA0 SHL SUB DUP1 DUP14 AND PUSH1 0x4 DUP4 ADD MSTORE CALLER PUSH1 0x24 DUP4 ADD MSTORE DUP3 AND PUSH1 0x44 DUP3 ADD MSTORE DUP9 DUP2 DUP15 DUP2 DUP4 DUP2 PUSH1 0x64 DUP2 ADD SUB SWAP3 GAS CALL DUP1 ISZERO PUSH2 0xBD2 JUMPI SWAP1 DUP10 SWAP2 PUSH2 0xBF1 JUMPI JUMPDEST POP POP PUSH2 0x533 DUP14 PUSH32 0x4E6577207772617070656420736F6E6720696E697469616C697A656400000000 PUSH1 0x40 MLOAD SWAP2 PUSH2 0x527 DUP4 PUSH2 0x1FC3 JUMP JUMPDEST PUSH1 0x1C DUP4 MSTORE DUP3 ADD MSTORE PUSH2 0x2594 JUMP JUMPDEST DUP1 EXTCODESIZE ISZERO PUSH2 0xBBA JUMPI PUSH1 0x40 MLOAD PUSH4 0xD9CE7B95 PUSH1 0xE0 SHL DUP2 MSTORE PUSH1 0x4 DUP2 ADD DUP4 SWAP1 MSTORE DUP9 DUP2 PUSH1 0x24 DUP2 DUP4 DUP7 GAS CALL DUP1 ISZERO PUSH2 0xBD2 JUMPI SWAP1 DUP10 SWAP2 PUSH2 0xBDD JUMPI JUMPDEST POP POP PUSH2 0x5A5 DUP14 PUSH32 0x5753546F6B656E2073657420696E2070726F746F636F6C000000000000000000 PUSH1 0x40 MLOAD SWAP2 PUSH2 0x599 DUP4 PUSH2 0x1FC3 JUMP JUMPDEST PUSH1 0x17 DUP4 MSTORE DUP3 ADD MSTORE PUSH2 0x2594 JUMP JUMPDEST DUP1 EXTCODESIZE ISZERO PUSH2 0xBBA JUMPI PUSH1 0x40 MLOAD PUSH3 0x8AC83 PUSH1 0xE0 SHL DUP2 MSTORE PUSH1 0x1 PUSH1 0x1 PUSH1 0xA0 SHL SUB DUP7 DUP2 AND PUSH1 0x4 DUP4 ADD MSTORE DUP11 AND PUSH1 0x24 DUP3 ADD MSTORE DUP9 DUP2 PUSH1 0x44 DUP2 DUP4 DUP7 GAS CALL DUP1 ISZERO PUSH2 0xBD2 JUMPI SWAP1 DUP10 SWAP2 PUSH2 0xBBE JUMPI JUMPDEST POP POP PUSH2 0x638 DUP14 PUSH32 0x536D617274206163636F756E7420746F205753546F6B656E2072656C6174696F PUSH1 0x40 MLOAD SWAP2 PUSH2 0x61A DUP4 PUSH2 0x1FDE JUMP JUMPDEST PUSH1 0x29 DUP4 MSTORE DUP3 ADD MSTORE PUSH9 0x1B9CDA1A5C081CD95D PUSH1 0xBA SHL PUSH1 0x40 DUP3 ADD MSTORE PUSH2 0x2594 JUMP JUMPDEST DUP1 EXTCODESIZE ISZERO PUSH2 0xBBA JUMPI PUSH1 0x40 MLOAD PUSH1 0x1 PUSH3 0x16EF61 PUSH1 0xE3 SHL SUB NOT DUP2 MSTORE CALLER PUSH1 0x4 DUP3 ADD MSTORE PUSH1 0x1 PUSH1 0x1 PUSH1 0xA0 SHL SUB DUP7 AND PUSH1 0x24 DUP3 ADD MSTORE SWAP1 DUP9 SWAP1 DUP3 SWAP1 PUSH1 0x44 SWAP1 DUP3 SWAP1 DUP5 SWAP1 GAS CALL DUP1 ISZERO PUSH2 0xBAF JUMPI SWAP1 DUP9 SWAP2 PUSH2 0xB9B JUMPI JUMPDEST POP POP PUSH2 0x6B8 DUP13 PUSH21 0x13DDDB995C881CD95D081A5B881C1C9BDD1BD8DBDB PUSH1 0x5A SHL PUSH1 0x40 MLOAD SWAP2 PUSH2 0x6AC DUP4 PUSH2 0x1FC3 JUMP JUMPDEST PUSH1 0x15 DUP4 MSTORE DUP3 ADD MSTORE PUSH2 0x2594 JUMP JUMPDEST DUP11 EXTCODESIZE ISZERO PUSH2 0xB97 JUMPI PUSH1 0x40 MLOAD PUSH4 0x716F6E87 PUSH1 0xE0 SHL DUP2 MSTORE PUSH1 0x4 DUP2 ADD SWAP2 SWAP1 SWAP2 MSTORE DUP7 DUP2 PUSH1 0x24 DUP2 DUP4 DUP16 GAS CALL DUP1 ISZERO PUSH2 0xB8C JUMPI SWAP2 DUP8 SWAP2 DUP5 SWAP4 PUSH2 0xB70 JUMPI JUMPDEST POP PUSH2 0x725 DUP14 PUSH22 0x15D4D51BDAD95B881B585B9859D95B595B9D081CD95D PUSH1 0x52 SHL PUSH1 0x40 MLOAD SWAP2 PUSH2 0x719 DUP4 PUSH2 0x1FC3 JUMP JUMPDEST PUSH1 0x16 DUP4 MSTORE DUP3 ADD MSTORE PUSH2 0x2594 JUMP JUMPDEST PUSH1 0x24 PUSH1 0x40 MLOAD DUP1 SWAP5 DUP2 SWAP4 PUSH4 0x1A4E6DD PUSH1 0xE5 SHL DUP4 MSTORE DUP14 PUSH1 0x4 DUP5 ADD MSTORE AND GAS STATICCALL SWAP1 DUP2 ISZERO PUSH2 0xB47 JUMPI DUP7 SWAP1 DUP2 SWAP3 PUSH2 0xB52 JUMPI JUMPDEST POP PUSH2 0x8B7 SWAP2 SWAP3 PUSH2 0x782 DUP14 PUSH22 0x13DB19081B595D1859185D18481C995D1C9A595D9959 PUSH1 0x52 SHL PUSH1 0x40 MLOAD SWAP2 PUSH2 0x719 DUP4 PUSH2 0x1FC3 JUMP JUMPDEST PUSH2 0x7B8 DUP14 DUP6 MLOAD SWAP1 PUSH18 0x27B6321036B2BA30B230BA30903730B6B29D PUSH1 0x71 SHL PUSH1 0x40 MLOAD SWAP2 PUSH2 0x7AC DUP4 PUSH2 0x1FC3 JUMP JUMPDEST PUSH1 0x12 DUP4 MSTORE DUP3 ADD MSTORE PUSH2 0x25E3 JUMP JUMPDEST PUSH2 0x7F2 DUP14 PUSH1 0x40 DUP7 ADD MLOAD SWAP1 PUSH19 0x27B6321036B2BA30B230BA309034B6B0B3B29D PUSH1 0x69 SHL PUSH1 0x40 MLOAD SWAP2 PUSH2 0x7E6 DUP4 PUSH2 0x1FC3 JUMP JUMPDEST PUSH1 0x13 DUP4 MSTORE DUP3 ADD MSTORE PUSH2 0x25E3 JUMP JUMPDEST PUSH2 0x836 DUP14 PUSH1 0x80 DUP7 ADD MLOAD SWAP1 PUSH32 0x4F6C64206D6574616461746120616E696D6174696F6E55726C3A000000000000 PUSH1 0x40 MLOAD SWAP2 PUSH2 0x82A DUP4 PUSH2 0x1FC3 JUMP JUMPDEST PUSH1 0x1A DUP4 MSTORE DUP3 ADD MSTORE PUSH2 0x25E3 JUMP JUMPDEST PUSH2 0x879 DUP14 PUSH1 0xA0 DUP7 ADD MLOAD SWAP1 PUSH32 0x4F6C64206D65746164617461206174747269627574657349706673486173683A PUSH1 0x40 MLOAD SWAP2 PUSH2 0x86E DUP4 PUSH2 0x1FC3 JUMP JUMPDEST DUP1 DUP4 MSTORE DUP3 ADD MSTORE PUSH2 0x25E3 JUMP JUMPDEST PUSH32 0x0 AND SWAP3 PUSH1 0x40 MLOAD DUP1 SWAP4 DUP2 SWAP3 PUSH4 0x6613680D PUSH1 0xE0 SHL DUP4 MSTORE DUP8 PUSH1 0x4 DUP5 ADD PUSH2 0x22BF JUMP JUMPDEST SUB DUP2 DUP4 DUP7 GAS CALL DUP1 ISZERO PUSH2 0xB47 JUMPI PUSH2 0xB25 JUMPI JUMPDEST POP PUSH2 0x8FD PUSH1 0x40 MLOAD PUSH2 0x8D8 DUP2 PUSH2 0x1FC3 JUMP JUMPDEST PUSH1 0x14 DUP2 MSTORE PUSH20 0x13995DC81B595D1859185D184818DC99585D1959 PUSH1 0x62 SHL DUP13 DUP3 ADD MSTORE PUSH2 0x2594 JUMP JUMPDEST DUP7 EXTCODESIZE ISZERO PUSH2 0xB21 JUMPI PUSH1 0x40 MLOAD PUSH4 0x35C282AF PUSH1 0xE2 SHL DUP2 MSTORE PUSH1 0x1 PUSH1 0x1 PUSH1 0xA0 SHL SUB SWAP2 DUP3 AND PUSH1 0x4 DUP3 ADD MSTORE SWAP1 DUP3 AND PUSH1 0x24 DUP3 ADD MSTORE DUP5 DUP2 PUSH1 0x44 DUP2 DUP4 DUP12 GAS CALL DUP1 ISZERO PUSH2 0xB16 JUMPI SWAP1 DUP6 SWAP2 PUSH2 0xAFE JUMPI JUMPDEST POP POP PUSH2 0x99D SWAP1 PUSH2 0x977 PUSH1 0x40 MLOAD PUSH2 0x955 DUP2 PUSH2 0x1FC3 JUMP JUMPDEST PUSH1 0x11 DUP2 MSTORE PUSH17 0x13DB19081CDBDB99C81B5A59DC985D1959 PUSH1 0x7A SHL DUP13 DUP3 ADD MSTORE PUSH2 0x2594 JUMP JUMPDEST PUSH1 0x40 MLOAD PUSH2 0x983 DUP2 PUSH2 0x1FC3 JUMP JUMPDEST PUSH1 0x9 DUP2 MSTORE PUSH9 0x2732BB9039B7B7339D PUSH1 0xB9 SHL DUP12 DUP3 ADD MSTORE PUSH2 0x262A JUMP JUMPDEST PUSH1 0x40 MLOAD SWAP1 DUP2 MSTORE DUP8 DUP2 PUSH1 0x4 DUP2 DUP11 GAS STATICCALL SWAP1 DUP2 ISZERO PUSH2 0xAF3 JUMPI SWAP1 PUSH2 0x9EB SWAP2 DUP5 SWAP2 PUSH2 0xAD6 JUMPI JUMPDEST POP PUSH1 0x40 MLOAD PUSH2 0x9CB DUP2 PUSH2 0x1FC3 JUMP JUMPDEST PUSH1 0xF DUP2 MSTORE PUSH15 0x2732BB9039B7B7339037BBB732B91D PUSH1 0x89 SHL DUP11 DUP3 ADD MSTORE PUSH2 0x262A JUMP JUMPDEST PUSH1 0x40 MLOAD SWAP1 DUP2 MSTORE DUP7 DUP2 PUSH1 0x4 DUP2 DUP10 GAS STATICCALL SWAP2 DUP3 ISZERO PUSH2 0xACA JUMPI SWAP3 PUSH2 0xA6E PUSH32 0xC42CDC1CEA8AFC407EC500712A997B1D17D698AE57762E29810084B83A295A54 SWAP4 PUSH2 0xA92 SWAP4 DUP10 SWAP8 SWAP7 SWAP2 PUSH2 0xA9D JUMPI JUMPDEST POP PUSH1 0x40 MLOAD PUSH2 0xA40 DUP2 PUSH2 0x1FC3 JUMP JUMPDEST PUSH1 0x1B DUP2 MSTORE PUSH32 0x4E657720736F6E67205753546F6B656E4D616E6167656D656E743A0000000000 DUP12 DUP3 ADD MSTORE PUSH2 0x262A JUMP JUMPDEST PUSH1 0x40 DUP1 MLOAD PUSH1 0x1 PUSH1 0x1 PUSH1 0xA0 SHL SUB SWAP8 DUP9 AND DUP2 MSTORE SWAP7 SWAP1 SWAP2 AND PUSH1 0x20 DUP8 ADD MSTORE CALLER SWAP6 SWAP2 DUP3 SWAP2 DUP3 ADD SWAP1 JUMP JUMPDEST SUB SWAP1 LOG4 PUSH1 0x40 MLOAD SWAP1 DUP2 MSTORE RETURN JUMPDEST PUSH2 0xABD SWAP2 POP DUP11 RETURNDATASIZE DUP13 GT PUSH2 0xAC3 JUMPI JUMPDEST PUSH2 0xAB5 DUP2 DUP4 PUSH2 0x1FF9 JUMP JUMPDEST DUP2 ADD SWAP1 PUSH2 0x2349 JUMP JUMPDEST CODESIZE PUSH2 0xA33 JUMP JUMPDEST POP RETURNDATASIZE PUSH2 0xAAB JUMP JUMPDEST PUSH1 0x40 MLOAD SWAP1 RETURNDATASIZE SWAP1 DUP3 RETURNDATACOPY RETURNDATASIZE SWAP1 REVERT JUMPDEST PUSH2 0xAED SWAP2 POP DUP10 RETURNDATASIZE DUP12 GT PUSH2 0xAC3 JUMPI PUSH2 0xAB5 DUP2 DUP4 PUSH2 0x1FF9 JUMP JUMPDEST CODESIZE PUSH2 0x9BE JUMP JUMPDEST PUSH1 0x40 MLOAD RETURNDATASIZE DUP6 DUP3 RETURNDATACOPY RETURNDATASIZE SWAP1 REVERT JUMPDEST PUSH2 0xB07 SWAP1 PUSH2 0x1FB0 JUMP JUMPDEST PUSH2 0xB12 JUMPI DUP4 CODESIZE PUSH2 0x940 JUMP JUMPDEST DUP4 DUP1 REVERT JUMPDEST PUSH1 0x40 MLOAD RETURNDATASIZE DUP8 DUP3 RETURNDATACOPY RETURNDATASIZE SWAP1 REVERT JUMPDEST DUP5 DUP1 REVERT JUMPDEST PUSH2 0xB40 SWAP1 RETURNDATASIZE DUP1 DUP9 DUP4 RETURNDATACOPY PUSH2 0xB38 DUP2 DUP4 PUSH2 0x1FF9 JUMP JUMPDEST DUP2 ADD SWAP1 PUSH2 0x213D JUMP JUMPDEST POP CODESIZE PUSH2 0x8C8 JUMP JUMPDEST PUSH1 0x40 MLOAD RETURNDATASIZE DUP9 DUP3 RETURNDATACOPY RETURNDATASIZE SWAP1 REVERT JUMPDEST PUSH2 0x8B7 SWAP3 POP PUSH2 0xB6A SWAP1 RETURNDATASIZE DUP1 DUP5 DUP4 RETURNDATACOPY PUSH2 0xB38 DUP2 DUP4 PUSH2 0x1FF9 JUMP JUMPDEST SWAP2 PUSH2 0x751 JUMP JUMPDEST PUSH2 0xB7B SWAP2 SWAP4 POP PUSH2 0x1FB0 JUMP JUMPDEST PUSH2 0xB88 JUMPI DUP6 DUP3 SWAP2 CODESIZE PUSH2 0x6ED JUMP JUMPDEST DUP6 DUP1 REVERT JUMPDEST PUSH1 0x40 MLOAD RETURNDATASIZE DUP10 DUP3 RETURNDATACOPY RETURNDATASIZE SWAP1 REVERT JUMPDEST DUP7 DUP1 REVERT JUMPDEST PUSH2 0xBA4 SWAP1 PUSH2 0x1FB0 JUMP JUMPDEST PUSH2 0xB97 JUMPI DUP7 CODESIZE PUSH2 0x680 JUMP JUMPDEST PUSH1 0x40 MLOAD RETURNDATASIZE DUP11 DUP3 RETURNDATACOPY RETURNDATASIZE SWAP1 REVERT JUMPDEST DUP8 DUP1 REVERT JUMPDEST PUSH2 0xBC7 SWAP1 PUSH2 0x1FB0 JUMP JUMPDEST PUSH2 0xBBA JUMPI DUP8 CODESIZE PUSH2 0x5E6 JUMP JUMPDEST PUSH1 0x40 MLOAD RETURNDATASIZE DUP12 DUP3 RETURNDATACOPY RETURNDATASIZE SWAP1 REVERT JUMPDEST PUSH2 0xBE6 SWAP1 PUSH2 0x1FB0 JUMP JUMPDEST PUSH2 0xBBA JUMPI DUP8 CODESIZE PUSH2 0x565 JUMP JUMPDEST PUSH2 0xBFA SWAP1 PUSH2 0x1FB0 JUMP JUMPDEST PUSH2 0xBBA JUMPI DUP8 CODESIZE PUSH2 0x4F3 JUMP JUMPDEST PUSH1 0x40 MLOAD PUSH3 0x461BCD PUSH1 0xE5 SHL DUP2 MSTORE PUSH1 0x4 DUP2 ADD DUP13 SWAP1 MSTORE PUSH1 0x17 PUSH1 0x24 DUP3 ADD MSTORE PUSH32 0x496E76616C6964205753546F6B656E2061646472657373000000000000000000 PUSH1 0x44 DUP3 ADD MSTORE PUSH1 0x64 SWAP1 REVERT JUMPDEST PUSH2 0xC62 SWAP2 SWAP7 POP DUP11 RETURNDATASIZE DUP13 GT PUSH2 0xAC3 JUMPI PUSH2 0xAB5 DUP2 DUP4 PUSH2 0x1FF9 JUMP JUMPDEST SWAP5 CODESIZE PUSH2 0x3B3 JUMP JUMPDEST DUP1 SWAP3 POP DUP10 DUP1 SWAP3 POP RETURNDATASIZE DUP4 GT PUSH2 0xCA0 JUMPI JUMPDEST PUSH2 0xC82 DUP2 DUP4 PUSH2 0x1FF9 JUMP JUMPDEST DUP2 ADD SUB SLT PUSH2 0xC9C JUMPI MLOAD DUP2 DUP2 AND DUP2 SUB PUSH2 0xC9C JUMPI DUP2 SWAP1 CODESIZE PUSH2 0x354 JUMP JUMPDEST DUP3 DUP1 REVERT JUMPDEST POP RETURNDATASIZE PUSH2 0xC78 JUMP JUMPDEST PUSH1 0x40 MLOAD PUSH3 0x461BCD PUSH1 0xE5 SHL DUP2 MSTORE PUSH1 0x4 DUP2 ADD DUP9 SWAP1 MSTORE PUSH1 0x15 PUSH1 0x24 DUP3 ADD MSTORE PUSH21 0x14DBDB99C8185B1C9958591E481B5A59DC985D1959 PUSH1 0x5A SHL PUSH1 0x44 DUP3 ADD MSTORE PUSH1 0x64 SWAP1 REVERT JUMPDEST PUSH2 0xD04 SWAP2 POP DUP9 RETURNDATASIZE DUP11 GT PUSH2 0xD0A JUMPI JUMPDEST PUSH2 0xCFC DUP2 DUP4 PUSH2 0x1FF9 JUMP JUMPDEST DUP2 ADD SWAP1 PUSH2 0x207C JUMP JUMPDEST CODESIZE PUSH2 0x2EC JUMP JUMPDEST POP RETURNDATASIZE PUSH2 0xCF2 JUMP JUMPDEST DUP8 PUSH2 0xD33 PUSH1 0x40 MLOAD SWAP3 DUP4 SWAP3 PUSH3 0x461BCD PUSH1 0xE5 SHL DUP5 MSTORE PUSH1 0x4 DUP5 ADD MSTORE PUSH1 0x24 DUP4 ADD SWAP1 PUSH2 0x221C JUMP JUMPDEST SUB SWAP1 REVERT JUMPDEST PUSH2 0xD4E SWAP2 POP DUP10 RETURNDATASIZE DUP12 GT PUSH2 0xAC3 JUMPI PUSH2 0xAB5 DUP2 DUP4 PUSH2 0x1FF9 JUMP JUMPDEST CODESIZE PUSH2 0x1D7 JUMP JUMPDEST PUSH2 0xD6B SWAP2 POP DUP10 RETURNDATASIZE DUP12 GT PUSH2 0xD0A JUMPI PUSH2 0xCFC DUP2 DUP4 PUSH2 0x1FF9 JUMP JUMPDEST CODESIZE PUSH2 0x170 JUMP JUMPDEST PUSH1 0x40 MLOAD RETURNDATASIZE DUP7 DUP3 RETURNDATACOPY RETURNDATASIZE SWAP1 REVERT JUMPDEST POP PUSH1 0x3 NOT PUSH1 0x60 CALLDATASIZE DUP3 ADD SLT PUSH2 0x159C JUMPI PUSH2 0xD92 PUSH2 0x1F4E JUMP JUMPDEST PUSH1 0x24 CALLDATALOAD SWAP2 PUSH1 0x1 PUSH1 0x1 PUSH1 0x40 SHL SUB DUP4 GT PUSH2 0xB12 JUMPI PUSH1 0xC0 SWAP1 DUP4 CALLDATASIZE SUB ADD SLT PUSH2 0xC9C JUMPI PUSH1 0x40 MLOAD SWAP2 PUSH2 0xDBD DUP4 PUSH2 0x1F7F JUMP JUMPDEST DUP1 PUSH1 0x4 ADD CALLDATALOAD PUSH1 0x1 PUSH1 0x1 PUSH1 0x40 SHL SUB DUP2 GT PUSH2 0xB21 JUMPI PUSH2 0xDE0 SWAP1 PUSH1 0x4 CALLDATASIZE SWAP2 DUP5 ADD ADD PUSH2 0x2035 JUMP JUMPDEST DUP4 MSTORE PUSH1 0x24 DUP2 ADD CALLDATALOAD PUSH1 0x1 PUSH1 0x1 PUSH1 0x40 SHL SUB DUP2 GT PUSH2 0xB21 JUMPI PUSH2 0xE05 SWAP1 PUSH1 0x4 CALLDATASIZE SWAP2 DUP5 ADD ADD PUSH2 0x2035 JUMP JUMPDEST PUSH1 0x20 DUP5 ADD MSTORE PUSH1 0x44 DUP2 ADD CALLDATALOAD PUSH1 0x1 PUSH1 0x1 PUSH1 0x40 SHL SUB DUP2 GT PUSH2 0xB21 JUMPI PUSH2 0xE2D SWAP1 PUSH1 0x4 CALLDATASIZE SWAP2 DUP5 ADD ADD PUSH2 0x2035 JUMP JUMPDEST PUSH1 0x40 DUP5 ADD MSTORE PUSH1 0x64 DUP2 ADD CALLDATALOAD PUSH1 0x1 PUSH1 0x1 PUSH1 0x40 SHL SUB DUP2 GT PUSH2 0xB21 JUMPI PUSH2 0xE55 SWAP1 PUSH1 0x4 CALLDATASIZE SWAP2 DUP5 ADD ADD PUSH2 0x2035 JUMP JUMPDEST PUSH1 0x60 DUP5 ADD MSTORE PUSH1 0x84 DUP2 ADD CALLDATALOAD PUSH1 0x1 PUSH1 0x1 PUSH1 0x40 SHL SUB DUP2 GT PUSH2 0xB21 JUMPI PUSH2 0xE7D SWAP1 PUSH1 0x4 CALLDATASIZE SWAP2 DUP5 ADD ADD PUSH2 0x2035 JUMP JUMPDEST SWAP1 PUSH1 0x80 DUP5 ADD SWAP2 DUP3 MSTORE PUSH1 0xA4 DUP2 ADD CALLDATALOAD SWAP1 PUSH1 0x1 PUSH1 0x1 PUSH1 0x40 SHL SUB DUP3 GT PUSH2 0xB88 JUMPI PUSH1 0x4 PUSH2 0xEA8 SWAP3 CALLDATASIZE SWAP3 ADD ADD PUSH2 0x2035 JUMP JUMPDEST PUSH1 0xA0 DUP5 ADD SWAP1 DUP2 MSTORE PUSH1 0x40 MLOAD PUSH4 0x5C975ABB PUSH1 0xE0 SHL DUP2 MSTORE PUSH1 0x20 DUP2 PUSH1 0x4 DUP2 PUSH32 0x0 PUSH1 0x1 PUSH1 0x1 PUSH1 0xA0 SHL SUB AND GAS STATICCALL DUP1 ISZERO PUSH2 0xB47 JUMPI PUSH2 0xF05 SWAP2 DUP8 SWAP2 PUSH2 0x1BC9 JUMPI POP ISZERO PUSH2 0x2094 JUMP JUMPDEST DUP4 MLOAD MLOAD ISZERO ISZERO SWAP2 DUP3 PUSH2 0x1BBA JUMPI JUMPDEST DUP3 PUSH2 0x1BAE JUMPI JUMPDEST POP DUP2 PUSH2 0x1BA2 JUMPI JUMPDEST POP ISZERO PUSH2 0x1B6A JUMPI PUSH1 0x44 CALLDATALOAD ISZERO PUSH2 0x1B15 JUMPI PUSH1 0x40 MLOAD PUSH4 0xF140B55F PUSH1 0xE0 SHL DUP2 MSTORE CALLER PUSH1 0x4 DUP3 ADD MSTORE PUSH1 0x20 DUP2 PUSH1 0x24 DUP2 PUSH32 0x0 PUSH1 0x1 PUSH1 0x1 PUSH1 0xA0 SHL SUB AND GAS STATICCALL SWAP1 DUP2 ISZERO PUSH2 0xD71 JUMPI DUP5 SWAP2 PUSH2 0x1AF6 JUMPI JUMPDEST POP ISZERO PUSH2 0x1AB2 JUMPI PUSH1 0x40 MLOAD PUSH4 0xB5AF090F PUSH1 0xE0 SHL DUP2 MSTORE PUSH1 0x1 PUSH1 0x1 PUSH1 0xA0 SHL SUB DUP3 DUP2 AND PUSH1 0x4 DUP4 ADD MSTORE PUSH1 0x20 SWAP1 DUP3 SWAP1 PUSH1 0x24 SWAP1 DUP3 SWAP1 PUSH32 0x0 AND GAS STATICCALL SWAP1 DUP2 ISZERO PUSH2 0xD71 JUMPI DUP5 SWAP2 PUSH2 0x1A93 JUMPI JUMPDEST POP ISZERO PUSH2 0x1A4E JUMPI PUSH1 0x40 MLOAD PUSH4 0x670D2969 PUSH1 0xE1 SHL DUP2 MSTORE PUSH1 0x20 DUP2 PUSH1 0x4 DUP2 PUSH32 0x0 PUSH1 0x1 PUSH1 0x1 PUSH1 0xA0 SHL SUB AND GAS STATICCALL SWAP1 DUP2 ISZERO PUSH2 0xD71 JUMPI PUSH1 0x4 SWAP2 PUSH1 0x20 SWAP2 DUP7 SWAP2 PUSH2 0x1A31 JUMPI JUMPDEST POP PUSH1 0x40 MLOAD PUSH4 0x6D4726D9 PUSH1 0xE0 SHL DUP2 MSTORE SWAP3 DUP4 SWAP2 DUP3 SWAP1 PUSH1 0x1 PUSH1 0x1 PUSH1 0xA0 SHL SUB AND GAS STATICCALL SWAP1 DUP2 ISZERO PUSH2 0xD71 JUMPI DUP5 SWAP2 PUSH2 0x19EF JUMPI JUMPDEST POP PUSH1 0x40 MLOAD PUSH4 0xA4549129 PUSH1 0xE0 SHL DUP2 MSTORE SWAP1 PUSH1 0x20 DUP3 PUSH1 0x4 DUP2 PUSH1 0x1 PUSH1 0x1 PUSH1 0xA0 SHL SUB DUP6 AND GAS STATICCALL SWAP2 DUP3 ISZERO PUSH2 0xB16 JUMPI DUP6 SWAP3 PUSH2 0x19BB JUMPI JUMPDEST POP PUSH1 0x40 MLOAD PUSH4 0xD579E3F3 PUSH1 0xE0 SHL DUP2 MSTORE PUSH1 0x20 DUP2 PUSH1 0x4 DUP2 PUSH1 0x1 PUSH1 0x1 PUSH1 0xA0 SHL SUB DUP7 AND GAS STATICCALL SWAP1 DUP2 ISZERO PUSH2 0xB47 JUMPI DUP7 SWAP2 PUSH2 0x199C JUMPI JUMPDEST POP DUP3 PUSH2 0x15DB JUMPI JUMPDEST POP POP POP PUSH2 0x10F3 PUSH32 0x0 PUSH2 0x22E1 JUMP JUMPDEST SWAP2 PUSH1 0x1 PUSH1 0x1 PUSH1 0xA0 SHL SUB DUP4 AND EXTCODESIZE ISZERO PUSH2 0xB12 JUMPI PUSH1 0x40 MLOAD PUSH4 0xC0C53B8B PUSH1 0xE0 SHL DUP2 MSTORE PUSH1 0x1 PUSH1 0x1 PUSH1 0xA0 SHL SUB DUP4 DUP2 AND PUSH1 0x4 DUP4 ADD MSTORE ORIGIN PUSH1 0x24 DUP4 ADD MSTORE PUSH32 0x0 AND PUSH1 0x44 DUP3 ADD MSTORE DUP5 DUP2 DUP1 PUSH1 0x64 DUP2 ADD SUB DUP2 DUP4 PUSH1 0x1 PUSH1 0x1 PUSH1 0xA0 SHL SUB DUP10 AND GAS CALL DUP1 ISZERO PUSH2 0xB16 JUMPI PUSH2 0x15C8 JUMPI JUMPDEST POP PUSH2 0x1199 PUSH32 0x0 PUSH2 0x22E1 JUMP JUMPDEST PUSH1 0x1 PUSH1 0x1 PUSH1 0xA0 SHL SUB DUP2 AND SWAP1 DUP6 SWAP1 DUP3 EXTCODESIZE ISZERO PUSH2 0x159C JUMPI PUSH1 0x40 MLOAD PUSH4 0xC0C53B8B PUSH1 0xE0 SHL DUP2 MSTORE PUSH1 0x1 PUSH1 0x1 PUSH1 0xA0 SHL SUB DUP8 DUP2 AND PUSH1 0x4 DUP4 ADD MSTORE CALLER PUSH1 0x24 DUP4 ADD MSTORE PUSH32 0x0 AND PUSH1 0x44 DUP3 ADD MSTORE DUP3 DUP2 PUSH1 0x64 DUP2 DUP4 DUP9 GAS CALL SWAP1 DUP2 ISZERO PUSH2 0xAF3 JUMPI DUP4 SWAP2 PUSH2 0x15B4 JUMPI JUMPDEST POP POP PUSH32 0x0 PUSH1 0x1 PUSH1 0x1 PUSH1 0xA0 SHL SUB AND EXTCODESIZE ISZERO PUSH2 0x159C JUMPI PUSH1 0x40 MLOAD PUSH4 0xD9CE7B95 PUSH1 0xE0 SHL DUP2 MSTORE PUSH1 0x4 DUP2 ADD DUP5 SWAP1 MSTORE DUP3 DUP2 PUSH1 0x24 DUP2 DUP4 PUSH32 0x0 PUSH1 0x1 PUSH1 0x1 PUSH1 0xA0 SHL SUB AND GAS CALL SWAP1 DUP2 ISZERO PUSH2 0xAF3 JUMPI DUP4 SWAP2 PUSH2 0x15A0 JUMPI JUMPDEST POP POP PUSH32 0x0 PUSH1 0x1 PUSH1 0x1 PUSH1 0xA0 SHL SUB AND EXTCODESIZE ISZERO PUSH2 0x159C JUMPI PUSH1 0x40 MLOAD PUSH3 0x8AC83 PUSH1 0xE0 SHL DUP2 MSTORE PUSH1 0x1 PUSH1 0x1 PUSH1 0xA0 SHL SUB DUP1 DUP9 AND PUSH1 0x4 DUP4 ADD MSTORE SWAP1 SWAP2 AND PUSH1 0x24 DUP3 ADD MSTORE DUP2 DUP2 DUP1 PUSH1 0x44 DUP2 ADD SUB DUP2 DUP4 PUSH32 0x0 PUSH1 0x1 PUSH1 0x1 PUSH1 0xA0 SHL SUB AND GAS CALL DUP1 ISZERO PUSH2 0x1555 JUMPI PUSH2 0x1588 JUMPI JUMPDEST POP POP PUSH32 0x0 PUSH1 0x1 PUSH1 0x1 PUSH1 0xA0 SHL SUB AND EXTCODESIZE ISZERO PUSH2 0xB21 JUMPI PUSH1 0x40 MLOAD PUSH1 0x1 PUSH3 0x16EF61 PUSH1 0xE3 SHL SUB NOT DUP2 MSTORE CALLER PUSH1 0x4 DUP3 ADD MSTORE PUSH1 0x1 PUSH1 0x1 PUSH1 0xA0 SHL SUB DUP6 AND PUSH1 0x24 DUP3 ADD MSTORE DUP6 SWAP1 DUP2 DUP2 DUP1 PUSH1 0x44 DUP2 ADD SUB DUP2 DUP4 PUSH32 0x0 PUSH1 0x1 PUSH1 0x1 PUSH1 0xA0 SHL SUB AND GAS CALL DUP1 ISZERO PUSH2 0x1555 JUMPI PUSH2 0x1574 JUMPI JUMPDEST POP POP PUSH1 0x1 PUSH1 0x1 PUSH1 0xA0 SHL SUB DUP5 AND EXTCODESIZE ISZERO PUSH2 0xB21 JUMPI PUSH1 0x40 MLOAD PUSH4 0x716F6E87 PUSH1 0xE0 SHL DUP2 MSTORE PUSH1 0x4 DUP2 ADD DUP3 SWAP1 MSTORE DUP6 SWAP1 DUP2 DUP2 PUSH1 0x24 DUP2 DUP4 PUSH1 0x1 PUSH1 0x1 PUSH1 0xA0 SHL SUB DUP12 AND GAS CALL DUP1 ISZERO PUSH2 0x1555 JUMPI PUSH2 0x1560 JUMPI JUMPDEST POP POP PUSH1 0x1 PUSH1 0x1 PUSH1 0xA0 SHL SUB DUP5 AND EXTCODESIZE ISZERO PUSH2 0xB21 JUMPI PUSH1 0x40 MLOAD PUSH4 0x39FA62DF PUSH1 0xE0 SHL DUP2 MSTORE PUSH1 0x44 CALLDATALOAD PUSH1 0x4 DUP3 ADD MSTORE DUP6 SWAP1 DUP2 DUP2 PUSH1 0x24 DUP2 DUP4 PUSH1 0x1 PUSH1 0x1 PUSH1 0xA0 SHL SUB DUP12 AND GAS CALL DUP1 ISZERO PUSH2 0x1555 JUMPI PUSH2 0x1541 JUMPI JUMPDEST POP PUSH1 0x40 MLOAD PUSH4 0x6613680D PUSH1 0xE0 SHL DUP2 MSTORE SWAP3 DUP4 SWAP1 DUP2 SWAP1 PUSH2 0x1471 SWAP1 DUP9 PUSH1 0x4 DUP5 ADD PUSH2 0x22BF JUMP JUMPDEST SUB DUP2 DUP4 PUSH32 0x0 PUSH1 0x1 PUSH1 0x1 PUSH1 0xA0 SHL SUB AND GAS CALL SWAP2 DUP3 ISZERO PUSH2 0xB16 JUMPI DUP6 PUSH1 0x20 SWAP7 SWAP4 PUSH2 0x1524 JUMPI JUMPDEST POP POP PUSH1 0x40 MLOAD SWAP3 PUSH1 0x1 DUP1 PUSH1 0xA0 SHL SUB AND DUP4 MSTORE DUP5 DUP4 ADD MSTORE PUSH1 0x44 CALLDATALOAD PUSH1 0x40 DUP4 ADD MSTORE PUSH1 0x80 PUSH1 0x60 DUP4 ADD MSTORE PUSH32 0x938ECE1AB5D508D56896411E3F1B2C96359F780ECBFE90C9A4031CD170AA4A4A PUSH1 0x1 DUP1 PUSH1 0xA0 SHL SUB DUP5 AND SWAP3 DUP1 PUSH2 0x150F CALLER SWAP5 PUSH1 0x80 DUP4 ADD SWAP1 PUSH2 0x2241 JUMP JUMPDEST SUB SWAP1 LOG3 PUSH1 0x40 MLOAD PUSH1 0x1 PUSH1 0x1 PUSH1 0xA0 SHL SUB SWAP1 SWAP2 AND DUP2 MSTORE RETURN JUMPDEST PUSH2 0x1539 SWAP3 SWAP4 POP RETURNDATASIZE DUP1 SWAP2 DUP4 RETURNDATACOPY PUSH2 0xB38 DUP2 DUP4 PUSH2 0x1FF9 JUMP JUMPDEST SWAP1 CODESIZE DUP1 PUSH2 0x14B1 JUMP JUMPDEST PUSH2 0x154B DUP3 SWAP2 PUSH2 0x1FB0 JUMP JUMPDEST PUSH2 0xB5 JUMPI CODESIZE PUSH2 0x1450 JUMP JUMPDEST PUSH1 0x40 MLOAD RETURNDATASIZE DUP5 DUP3 RETURNDATACOPY RETURNDATASIZE SWAP1 REVERT JUMPDEST PUSH2 0x1569 SWAP1 PUSH2 0x1FB0 JUMP JUMPDEST PUSH2 0xB21 JUMPI DUP5 CODESIZE PUSH2 0x140A JUMP JUMPDEST PUSH2 0x157D SWAP1 PUSH2 0x1FB0 JUMP JUMPDEST PUSH2 0xB21 JUMPI DUP5 CODESIZE PUSH2 0x13C5 JUMP JUMPDEST PUSH2 0x1591 SWAP1 PUSH2 0x1FB0 JUMP JUMPDEST PUSH2 0xB21 JUMPI DUP5 CODESIZE PUSH2 0x132B JUMP JUMPDEST POP DUP1 REVERT JUMPDEST PUSH2 0x15A9 SWAP1 PUSH2 0x1FB0 JUMP JUMPDEST PUSH2 0x159C JUMPI DUP2 CODESIZE PUSH2 0x1294 JUMP JUMPDEST PUSH2 0x15BD SWAP1 PUSH2 0x1FB0 JUMP JUMPDEST PUSH2 0x159C JUMPI DUP2 CODESIZE PUSH2 0x120E JUMP JUMPDEST PUSH2 0x15D4 SWAP1 SWAP5 SWAP2 SWAP5 PUSH2 0x1FB0 JUMP JUMPDEST SWAP3 CODESIZE PUSH2 0x116F JUMP JUMPDEST ISZERO PUSH2 0x188B JUMPI PUSH1 0x40 MLOAD PUSH4 0x37A0A9E9 PUSH1 0xE1 SHL DUP2 MSTORE SWAP1 PUSH1 0x20 SWAP1 DUP3 SWAP1 PUSH1 0x4 SWAP1 DUP3 SWAP1 PUSH1 0x1 PUSH1 0x1 PUSH1 0xA0 SHL SUB AND GAS STATICCALL SWAP1 DUP2 ISZERO PUSH2 0xB16 JUMPI DUP6 SWAP2 PUSH2 0x1859 JUMPI JUMPDEST POP PUSH1 0x40 MLOAD PUSH4 0x670D2969 PUSH1 0xE1 SHL DUP2 MSTORE SWAP1 PUSH1 0x20 DUP3 PUSH1 0x4 DUP2 PUSH32 0x0 PUSH1 0x1 PUSH1 0x1 PUSH1 0xA0 SHL SUB AND GAS STATICCALL SWAP2 DUP3 ISZERO PUSH2 0xB47 JUMPI PUSH1 0x4 SWAP3 PUSH1 0x20 SWAP2 DUP9 SWAP2 PUSH2 0x183C JUMPI JUMPDEST POP PUSH1 0x40 MLOAD PUSH4 0x9DA4E51 PUSH1 0xE0 SHL DUP2 MSTORE SWAP4 DUP5 SWAP2 DUP3 SWAP1 PUSH1 0x1 PUSH1 0x1 PUSH1 0xA0 SHL SUB AND GAS STATICCALL SWAP2 DUP3 ISZERO PUSH2 0xB47 JUMPI DUP7 SWAP3 PUSH2 0x17F7 JUMPI JUMPDEST POP PUSH1 0x40 MLOAD PUSH4 0x7C70C0A3 PUSH1 0xE0 SHL DUP2 MSTORE PUSH1 0x4 DUP2 ADD SWAP2 SWAP1 SWAP2 MSTORE SWAP1 PUSH1 0x20 SWAP1 DUP3 SWAP1 PUSH1 0x24 SWAP1 DUP3 SWAP1 PUSH1 0x1 PUSH1 0x1 PUSH1 0xA0 SHL SUB AND GAS STATICCALL SWAP1 DUP2 ISZERO PUSH2 0xB16 JUMPI DUP6 SWAP2 PUSH2 0x17D8 JUMPI JUMPDEST POP PUSH1 0x1 PUSH1 0x1 PUSH1 0xA0 SHL SUB AND SWAP1 DUP2 ISZERO PUSH2 0x1787 JUMPI PUSH1 0x40 MLOAD PUSH4 0x23B872DD PUSH1 0xE0 SHL PUSH1 0x20 DUP3 ADD MSTORE CALLER PUSH1 0x24 DUP3 ADD MSTORE ADDRESS PUSH1 0x44 DUP3 ADD MSTORE PUSH1 0x64 DUP1 DUP3 ADD DUP4 SWAP1 MSTORE DUP2 MSTORE PUSH1 0xA0 DUP2 ADD PUSH1 0x1 PUSH1 0x1 PUSH1 0x40 SHL SUB DUP2 GT DUP3 DUP3 LT OR PUSH2 0x1773 JUMPI DUP7 SWAP3 PUSH2 0x174C PUSH32 0xDD872CA9502E175165673833AC2A0E1395EDB4B5C72F2915685598490C375E99 SWAP4 PUSH1 0x20 SWAP4 PUSH1 0x40 MSTORE DUP7 PUSH2 0x23BB JUMP JUMPDEST DUP5 DUP5 MSTORE DUP4 DUP3 MSTORE PUSH1 0x40 DUP5 KECCAK256 PUSH2 0x1761 DUP3 DUP3 SLOAD PUSH2 0x2368 JUMP JUMPDEST SWAP1 SSTORE PUSH1 0x40 MLOAD SWAP1 DUP2 MSTORE LOG3 JUMPDEST CODESIZE DUP1 DUP1 PUSH2 0x10C7 JUMP JUMPDEST PUSH4 0x4E487B71 PUSH1 0xE0 SHL DUP8 MSTORE PUSH1 0x41 PUSH1 0x4 MSTORE PUSH1 0x24 DUP8 REVERT JUMPDEST PUSH1 0x40 MLOAD PUSH3 0x461BCD PUSH1 0xE5 SHL DUP2 MSTORE PUSH1 0x20 PUSH1 0x4 DUP3 ADD MSTORE PUSH1 0x23 PUSH1 0x24 DUP3 ADD MSTORE PUSH32 0x4E6F2077686974656C697374656420737461626C65636F696E20617661696C61 PUSH1 0x44 DUP3 ADD MSTORE PUSH3 0x626C65 PUSH1 0xE8 SHL PUSH1 0x64 DUP3 ADD MSTORE PUSH1 0x84 SWAP1 REVERT JUMPDEST PUSH2 0x17F1 SWAP2 POP PUSH1 0x20 RETURNDATASIZE PUSH1 0x20 GT PUSH2 0xAC3 JUMPI PUSH2 0xAB5 DUP2 DUP4 PUSH2 0x1FF9 JUMP JUMPDEST CODESIZE PUSH2 0x16CC JUMP JUMPDEST SWAP1 SWAP2 POP PUSH1 0x20 DUP2 RETURNDATASIZE PUSH1 0x20 GT PUSH2 0x1834 JUMPI JUMPDEST DUP2 PUSH2 0x1813 PUSH1 0x20 SWAP4 DUP4 PUSH2 0x1FF9 JUMP JUMPDEST DUP2 ADD SUB SLT PUSH2 0xB88 JUMPI MLOAD PUSH1 0x1 PUSH1 0x1 PUSH1 0xA0 SHL SUB DUP2 AND DUP2 SUB PUSH2 0xB88 JUMPI SWAP1 PUSH1 0x20 PUSH2 0x1692 JUMP JUMPDEST RETURNDATASIZE SWAP2 POP PUSH2 0x1806 JUMP JUMPDEST PUSH2 0x1853 SWAP2 POP DUP3 RETURNDATASIZE DUP5 GT PUSH2 0xAC3 JUMPI PUSH2 0xAB5 DUP2 DUP4 PUSH2 0x1FF9 JUMP JUMPDEST CODESIZE PUSH2 0x1666 JUMP JUMPDEST SWAP1 POP PUSH1 0x20 DUP2 RETURNDATASIZE PUSH1 0x20 GT PUSH2 0x1883 JUMPI JUMPDEST DUP2 PUSH2 0x1874 PUSH1 0x20 SWAP4 DUP4 PUSH2 0x1FF9 JUMP JUMPDEST DUP2 ADD SUB SLT PUSH2 0xB21 JUMPI MLOAD CODESIZE PUSH2 0x1611 JUMP JUMPDEST RETURNDATASIZE SWAP2 POP PUSH2 0x1867 JUMP JUMPDEST POP DUP1 CALLVALUE LT PUSH2 0x1957 JUMPI DUP4 DUP1 MSTORE DUP4 PUSH1 0x20 MSTORE PUSH1 0x40 DUP5 KECCAK256 PUSH2 0x18A9 CALLVALUE DUP3 SLOAD PUSH2 0x2368 JUMP JUMPDEST SWAP1 SSTORE DUP1 CALLVALUE GT PUSH2 0x18E5 JUMPI JUMPDEST POP DUP3 DUP1 PUSH32 0xDD872CA9502E175165673833AC2A0E1395EDB4B5C72F2915685598490C375E99 PUSH1 0x20 PUSH1 0x40 MLOAD CALLVALUE DUP2 MSTORE LOG3 PUSH2 0x176B JUMP JUMPDEST CALLVALUE SUB CALLVALUE DUP2 GT PUSH2 0x1943 JUMPI DUP4 DUP1 DUP1 DUP1 SWAP4 CALLER GAS CALL PUSH2 0x18FE PUSH2 0x238B JUMP JUMPDEST POP ISZERO PUSH2 0x190A JUMPI CODESIZE PUSH2 0x18B3 JUMP JUMPDEST PUSH1 0x40 MLOAD PUSH3 0x461BCD PUSH1 0xE5 SHL DUP2 MSTORE PUSH1 0x20 PUSH1 0x4 DUP3 ADD MSTORE PUSH1 0x11 PUSH1 0x24 DUP3 ADD MSTORE PUSH17 0x115512081C99599D5B990819985A5B1959 PUSH1 0x7A SHL PUSH1 0x44 DUP3 ADD MSTORE PUSH1 0x64 SWAP1 REVERT JUMPDEST PUSH4 0x4E487B71 PUSH1 0xE0 SHL DUP5 MSTORE PUSH1 0x11 PUSH1 0x4 MSTORE PUSH1 0x24 DUP5 REVERT JUMPDEST PUSH1 0x40 MLOAD PUSH3 0x461BCD PUSH1 0xE5 SHL DUP2 MSTORE PUSH1 0x20 PUSH1 0x4 DUP3 ADD MSTORE PUSH1 0x18 PUSH1 0x24 DUP3 ADD MSTORE PUSH32 0x496E636F7272656374204554482066656520616D6F756E740000000000000000 PUSH1 0x44 DUP3 ADD MSTORE PUSH1 0x64 SWAP1 REVERT JUMPDEST PUSH2 0x19B5 SWAP2 POP PUSH1 0x20 RETURNDATASIZE PUSH1 0x20 GT PUSH2 0xD0A JUMPI PUSH2 0xCFC DUP2 DUP4 PUSH2 0x1FF9 JUMP JUMPDEST CODESIZE PUSH2 0x10C0 JUMP JUMPDEST SWAP1 SWAP2 POP PUSH1 0x20 DUP2 RETURNDATASIZE PUSH1 0x20 GT PUSH2 0x19E7 JUMPI JUMPDEST DUP2 PUSH2 0x19D7 PUSH1 0x20 SWAP4 DUP4 PUSH2 0x1FF9 JUMP JUMPDEST DUP2 ADD SUB SLT PUSH2 0xB21 JUMPI MLOAD SWAP1 CODESIZE PUSH2 0x1092 JUMP JUMPDEST RETURNDATASIZE SWAP2 POP PUSH2 0x19CA JUMP JUMPDEST SWAP1 POP PUSH1 0x20 DUP2 RETURNDATASIZE PUSH1 0x20 GT PUSH2 0x1A29 JUMPI JUMPDEST DUP2 PUSH2 0x1A0A PUSH1 0x20 SWAP4 DUP4 PUSH2 0x1FF9 JUMP JUMPDEST DUP2 ADD SUB SLT PUSH2 0xB12 JUMPI MLOAD PUSH1 0x1 PUSH1 0x1 PUSH1 0xA0 SHL SUB DUP2 AND DUP2 SUB PUSH2 0xB12 JUMPI CODESIZE PUSH2 0x1063 JUMP JUMPDEST RETURNDATASIZE SWAP2 POP PUSH2 0x19FD JUMP JUMPDEST PUSH2 0x1A48 SWAP2 POP DUP3 RETURNDATASIZE DUP5 GT PUSH2 0xAC3 JUMPI PUSH2 0xAB5 DUP2 DUP4 PUSH2 0x1FF9 JUMP JUMPDEST CODESIZE PUSH2 0x1037 JUMP JUMPDEST PUSH1 0x40 MLOAD PUSH3 0x461BCD PUSH1 0xE5 SHL DUP2 MSTORE PUSH1 0x20 PUSH1 0x4 DUP3 ADD MSTORE PUSH1 0x1D PUSH1 0x24 DUP3 ADD MSTORE PUSH32 0x537461626C65636F696E206973206E6F742077686974656C6973746564000000 PUSH1 0x44 DUP3 ADD MSTORE PUSH1 0x64 SWAP1 REVERT JUMPDEST PUSH2 0x1AAC SWAP2 POP PUSH1 0x20 RETURNDATASIZE PUSH1 0x20 GT PUSH2 0xD0A JUMPI PUSH2 0xCFC DUP2 DUP4 PUSH2 0x1FF9 JUMP JUMPDEST CODESIZE PUSH2 0xFDE JUMP JUMPDEST PUSH1 0x64 PUSH1 0x40 MLOAD PUSH3 0x461BCD PUSH1 0xE5 SHL DUP2 MSTORE PUSH1 0x20 PUSH1 0x4 DUP3 ADD MSTORE PUSH1 0x20 PUSH1 0x24 DUP3 ADD MSTORE PUSH32 0x4E6F742076616C696420746F20637265617465205772617070656420536F6E67 PUSH1 0x44 DUP3 ADD MSTORE REVERT JUMPDEST PUSH2 0x1B0F SWAP2 POP PUSH1 0x20 RETURNDATASIZE PUSH1 0x20 GT PUSH2 0xD0A JUMPI PUSH2 0xCFC DUP2 DUP4 PUSH2 0x1FF9 JUMP JUMPDEST CODESIZE PUSH2 0xF7F JUMP JUMPDEST PUSH1 0x40 MLOAD PUSH3 0x461BCD PUSH1 0xE5 SHL DUP2 MSTORE PUSH1 0x20 PUSH1 0x4 DUP3 ADD MSTORE PUSH1 0x27 PUSH1 0x24 DUP3 ADD MSTORE PUSH32 0x53686172657320616D6F756E74206D7573742062652067726561746572207468 PUSH1 0x44 DUP3 ADD MSTORE PUSH7 0x616E207A65726F PUSH1 0xC8 SHL PUSH1 0x64 DUP3 ADD MSTORE PUSH1 0x84 SWAP1 REVERT JUMPDEST PUSH1 0x40 MLOAD PUSH3 0x461BCD PUSH1 0xE5 SHL DUP2 MSTORE PUSH1 0x20 PUSH1 0x4 DUP3 ADD MSTORE PUSH1 0x10 PUSH1 0x24 DUP3 ADD MSTORE PUSH16 0x496E76616C6964206D65746164617461 PUSH1 0x80 SHL PUSH1 0x44 DUP3 ADD MSTORE PUSH1 0x64 SWAP1 REVERT JUMPDEST SWAP1 POP MLOAD MLOAD ISZERO ISZERO CODESIZE PUSH2 0xF1E JUMP JUMPDEST MLOAD MLOAD ISZERO ISZERO SWAP2 POP CODESIZE PUSH2 0xF17 JUMP JUMPDEST PUSH1 0x40 DUP6 ADD MLOAD MLOAD ISZERO ISZERO SWAP3 POP PUSH2 0xF11 JUMP JUMPDEST PUSH2 0xD6B SWAP2 POP PUSH1 0x20 RETURNDATASIZE PUSH1 0x20 GT PUSH2 0xD0A JUMPI PUSH2 0xCFC DUP2 DUP4 PUSH2 0x1FF9 JUMP JUMPDEST POP CALLVALUE PUSH2 0xB5 JUMPI DUP1 PUSH1 0x3 NOT CALLDATASIZE ADD SLT PUSH2 0xB5 JUMPI PUSH1 0x40 MLOAD PUSH32 0x0 PUSH1 0x1 PUSH1 0x1 PUSH1 0xA0 SHL SUB AND DUP2 MSTORE PUSH1 0x20 SWAP1 RETURN JUMPDEST POP CALLVALUE PUSH2 0xB5 JUMPI DUP1 PUSH1 0x3 NOT CALLDATASIZE ADD SLT PUSH2 0xB5 JUMPI PUSH1 0x40 MLOAD PUSH32 0x0 PUSH1 0x1 PUSH1 0x1 PUSH1 0xA0 SHL SUB AND DUP2 MSTORE PUSH1 0x20 SWAP1 RETURN JUMPDEST POP CALLVALUE PUSH2 0xB5 JUMPI DUP1 PUSH1 0x3 NOT CALLDATASIZE ADD SLT PUSH2 0xB5 JUMPI PUSH1 0x40 MLOAD PUSH32 0x0 PUSH1 0x1 PUSH1 0x1 PUSH1 0xA0 SHL SUB AND DUP2 MSTORE PUSH1 0x20 SWAP1 RETURN JUMPDEST POP CALLVALUE PUSH2 0xB5 JUMPI PUSH1 0x40 CALLDATASIZE PUSH1 0x3 NOT ADD SLT PUSH2 0xB5 JUMPI PUSH2 0x1CCB PUSH2 0x1F4E JUMP JUMPDEST PUSH2 0x1CD3 PUSH2 0x1F69 JUMP JUMPDEST PUSH1 0x40 MLOAD PUSH4 0x8DA5CB5B PUSH1 0xE0 SHL DUP2 MSTORE SWAP1 SWAP2 PUSH1 0x1 PUSH1 0x1 PUSH1 0xA0 SHL SUB SWAP2 PUSH1 0x20 SWAP2 SWAP1 DUP3 DUP2 PUSH1 0x4 DUP2 PUSH32 0x0 DUP9 AND GAS STATICCALL DUP1 ISZERO PUSH2 0xB47 JUMPI DUP5 SWAP2 DUP8 SWAP2 PUSH2 0x1EEE JUMPI JUMPDEST POP AND CALLER SUB PUSH2 0x1E9B JUMPI DUP3 AND SWAP2 DUP3 DUP6 MSTORE DUP5 DUP3 MSTORE PUSH1 0x40 DUP6 KECCAK256 SLOAD SWAP4 DUP5 ISZERO PUSH2 0x1E60 JUMPI DUP4 DUP7 MSTORE DUP6 DUP4 MSTORE DUP6 PUSH1 0x40 DUP2 KECCAK256 SSTORE DUP4 ISZERO PUSH1 0x0 EQ PUSH2 0x1DDE JUMPI DUP6 DUP1 DUP1 DUP1 DUP9 DUP7 DUP7 AND GAS CALL PUSH2 0x1D6C PUSH2 0x238B JUMP JUMPDEST POP ISZERO PUSH2 0x1DA3 JUMPI SWAP1 PUSH32 0x5E110F8BC8A20B65DCC87F224BDF1CC039346E267118BAE2739847F07321FFA8 SWAP3 SWAP2 JUMPDEST PUSH1 0x40 MLOAD SWAP6 DUP7 MSTORE AND SWAP4 LOG3 DUP1 RETURN JUMPDEST PUSH1 0x40 MLOAD PUSH3 0x461BCD PUSH1 0xE5 SHL DUP2 MSTORE PUSH1 0x4 DUP2 ADD DUP5 SWAP1 MSTORE PUSH1 0x13 PUSH1 0x24 DUP3 ADD MSTORE PUSH19 0x115512081D1C985B9CD9995C8819985A5B1959 PUSH1 0x6A SHL PUSH1 0x44 DUP3 ADD MSTORE PUSH1 0x64 SWAP1 REVERT JUMPDEST PUSH1 0x40 MLOAD PUSH4 0xA9059CBB PUSH1 0xE0 SHL DUP5 DUP3 ADD MSTORE DUP2 DUP4 AND PUSH1 0x24 DUP3 ADD MSTORE PUSH1 0x44 DUP1 DUP3 ADD DUP8 SWAP1 MSTORE DUP2 MSTORE PUSH1 0x80 DUP2 ADD PUSH1 0x1 PUSH1 0x1 PUSH1 0x40 SHL SUB DUP2 GT DUP3 DUP3 LT OR PUSH2 0x1E4C JUMPI PUSH32 0x5E110F8BC8A20B65DCC87F224BDF1CC039346E267118BAE2739847F07321FFA8 SWAP5 SWAP4 SWAP3 SWAP2 PUSH2 0x1E47 SWAP2 PUSH1 0x40 MSTORE DUP7 PUSH2 0x23BB JUMP JUMPDEST PUSH2 0x1D97 JUMP JUMPDEST PUSH4 0x4E487B71 PUSH1 0xE0 SHL DUP9 MSTORE PUSH1 0x41 PUSH1 0x4 MSTORE PUSH1 0x24 DUP9 REVERT JUMPDEST PUSH1 0x40 MLOAD PUSH3 0x461BCD PUSH1 0xE5 SHL DUP2 MSTORE PUSH1 0x4 DUP2 ADD DUP5 SWAP1 MSTORE PUSH1 0x13 PUSH1 0x24 DUP3 ADD MSTORE PUSH19 0x4E6F206665657320746F207769746864726177 PUSH1 0x68 SHL PUSH1 0x44 DUP3 ADD MSTORE PUSH1 0x64 SWAP1 REVERT JUMPDEST PUSH1 0x40 MLOAD PUSH3 0x461BCD PUSH1 0xE5 SHL DUP2 MSTORE PUSH1 0x4 DUP2 ADD DUP4 SWAP1 MSTORE PUSH1 0x25 PUSH1 0x24 DUP3 ADD MSTORE PUSH32 0x4F6E6C792070726F746F636F6C206F776E65722063616E207769746864726177 PUSH1 0x44 DUP3 ADD MSTORE PUSH5 0x2066656573 PUSH1 0xD8 SHL PUSH1 0x64 DUP3 ADD MSTORE PUSH1 0x84 SWAP1 REVERT JUMPDEST PUSH2 0x1F05 SWAP2 POP DUP5 RETURNDATASIZE DUP7 GT PUSH2 0xAC3 JUMPI PUSH2 0xAB5 DUP2 DUP4 PUSH2 0x1FF9 JUMP JUMPDEST CODESIZE PUSH2 0x1D28 JUMP JUMPDEST SWAP1 POP CALLVALUE PUSH2 0x159C JUMPI DUP2 PUSH1 0x3 NOT CALLDATASIZE ADD SLT PUSH2 0x159C JUMPI PUSH32 0x0 PUSH1 0x1 PUSH1 0x1 PUSH1 0xA0 SHL SUB AND DUP2 MSTORE PUSH1 0x20 SWAP1 RETURN JUMPDEST PUSH1 0x4 CALLDATALOAD SWAP1 PUSH1 0x1 PUSH1 0x1 PUSH1 0xA0 SHL SUB DUP3 AND DUP3 SUB PUSH2 0x1F64 JUMPI JUMP JUMPDEST PUSH1 0x0 DUP1 REVERT JUMPDEST PUSH1 0x24 CALLDATALOAD SWAP1 PUSH1 0x1 PUSH1 0x1 PUSH1 0xA0 SHL SUB DUP3 AND DUP3 SUB PUSH2 0x1F64 JUMPI JUMP JUMPDEST PUSH1 0xC0 DUP2 ADD SWAP1 DUP2 LT PUSH1 0x1 PUSH1 0x1 PUSH1 0x40 SHL SUB DUP3 GT OR PUSH2 0x1F9A JUMPI PUSH1 0x40 MSTORE JUMP JUMPDEST PUSH4 0x4E487B71 PUSH1 0xE0 SHL PUSH1 0x0 MSTORE PUSH1 0x41 PUSH1 0x4 MSTORE PUSH1 0x24 PUSH1 0x0 REVERT JUMPDEST PUSH1 0x1 PUSH1 0x1 PUSH1 0x40 SHL SUB DUP2 GT PUSH2 0x1F9A JUMPI PUSH1 0x40 MSTORE JUMP JUMPDEST PUSH1 0x40 DUP2 ADD SWAP1 DUP2 LT PUSH1 0x1 PUSH1 0x1 PUSH1 0x40 SHL SUB DUP3 GT OR PUSH2 0x1F9A JUMPI PUSH1 0x40 MSTORE JUMP JUMPDEST PUSH1 0x60 DUP2 ADD SWAP1 DUP2 LT PUSH1 0x1 PUSH1 0x1 PUSH1 0x40 SHL SUB DUP3 GT OR PUSH2 0x1F9A JUMPI PUSH1 0x40 MSTORE JUMP JUMPDEST SWAP1 PUSH1 0x1F DUP1 NOT SWAP2 ADD AND DUP2 ADD SWAP1 DUP2 LT PUSH1 0x1 PUSH1 0x1 PUSH1 0x40 SHL SUB DUP3 GT OR PUSH2 0x1F9A JUMPI PUSH1 0x40 MSTORE JUMP JUMPDEST PUSH1 0x1 PUSH1 0x1 PUSH1 0x40 SHL SUB DUP2 GT PUSH2 0x1F9A JUMPI PUSH1 0x1F ADD PUSH1 0x1F NOT AND PUSH1 0x20 ADD SWAP1 JUMP JUMPDEST DUP2 PUSH1 0x1F DUP3 ADD SLT ISZERO PUSH2 0x1F64 JUMPI DUP1 CALLDATALOAD SWAP1 PUSH2 0x204C DUP3 PUSH2 0x201A JUMP JUMPDEST SWAP3 PUSH2 0x205A PUSH1 0x40 MLOAD SWAP5 DUP6 PUSH2 0x1FF9 JUMP JUMPDEST DUP3 DUP5 MSTORE PUSH1 0x20 DUP4 DUP4 ADD ADD GT PUSH2 0x1F64 JUMPI DUP2 PUSH1 0x0 SWAP3 PUSH1 0x20 DUP1 SWAP4 ADD DUP4 DUP7 ADD CALLDATACOPY DUP4 ADD ADD MSTORE SWAP1 JUMP JUMPDEST SWAP1 DUP2 PUSH1 0x20 SWAP2 SUB SLT PUSH2 0x1F64 JUMPI MLOAD DUP1 ISZERO ISZERO DUP2 SUB PUSH2 0x1F64 JUMPI SWAP1 JUMP JUMPDEST ISZERO PUSH2 0x209B JUMPI JUMP JUMPDEST PUSH1 0x40 MLOAD PUSH3 0x461BCD PUSH1 0xE5 SHL DUP2 MSTORE PUSH1 0x20 PUSH1 0x4 DUP3 ADD MSTORE PUSH1 0x12 PUSH1 0x24 DUP3 ADD MSTORE PUSH18 0x141C9BDD1BD8DBDB081A5CC81C185D5CD959 PUSH1 0x72 SHL PUSH1 0x44 DUP3 ADD MSTORE PUSH1 0x64 SWAP1 REVERT JUMPDEST PUSH1 0x0 JUMPDEST DUP4 DUP2 LT PUSH2 0x20E8 JUMPI POP POP PUSH1 0x0 SWAP2 ADD MSTORE JUMP JUMPDEST DUP2 DUP2 ADD MLOAD DUP4 DUP3 ADD MSTORE PUSH1 0x20 ADD PUSH2 0x20D8 JUMP JUMPDEST DUP2 PUSH1 0x1F DUP3 ADD SLT ISZERO PUSH2 0x1F64 JUMPI DUP1 MLOAD PUSH2 0x210E DUP2 PUSH2 0x201A JUMP JUMPDEST SWAP3 PUSH2 0x211C PUSH1 0x40 MLOAD SWAP5 DUP6 PUSH2 0x1FF9 JUMP JUMPDEST DUP2 DUP5 MSTORE PUSH1 0x20 DUP3 DUP5 ADD ADD GT PUSH2 0x1F64 JUMPI PUSH2 0x213A SWAP2 PUSH1 0x20 DUP1 DUP6 ADD SWAP2 ADD PUSH2 0x20D5 JUMP JUMPDEST SWAP1 JUMP JUMPDEST SWAP1 PUSH1 0x20 DUP3 DUP3 SUB SLT PUSH2 0x1F64 JUMPI DUP2 MLOAD PUSH1 0x1 PUSH1 0x1 PUSH1 0x40 SHL SUB SWAP3 DUP4 DUP3 GT PUSH2 0x1F64 JUMPI ADD SWAP1 PUSH1 0xC0 DUP3 DUP3 SUB SLT PUSH2 0x1F64 JUMPI PUSH1 0x40 MLOAD SWAP3 PUSH2 0x2173 DUP5 PUSH2 0x1F7F JUMP JUMPDEST DUP3 MLOAD DUP2 DUP2 GT PUSH2 0x1F64 JUMPI DUP3 PUSH2 0x2188 SWAP2 DUP6 ADD PUSH2 0x20F8 JUMP JUMPDEST DUP5 MSTORE PUSH1 0x20 DUP4 ADD MLOAD DUP2 DUP2 GT PUSH2 0x1F64 JUMPI DUP3 PUSH2 0x21A2 SWAP2 DUP6 ADD PUSH2 0x20F8 JUMP JUMPDEST PUSH1 0x20 DUP6 ADD MSTORE PUSH1 0x40 DUP4 ADD MLOAD DUP2 DUP2 GT PUSH2 0x1F64 JUMPI DUP3 PUSH2 0x21BF SWAP2 DUP6 ADD PUSH2 0x20F8 JUMP JUMPDEST PUSH1 0x40 DUP6 ADD MSTORE PUSH1 0x60 DUP4 ADD MLOAD DUP2 DUP2 GT PUSH2 0x1F64 JUMPI DUP3 PUSH2 0x21DC SWAP2 DUP6 ADD PUSH2 0x20F8 JUMP JUMPDEST PUSH1 0x60 DUP6 ADD MSTORE PUSH1 0x80 DUP4 ADD MLOAD DUP2 DUP2 GT PUSH2 0x1F64 JUMPI DUP3 PUSH2 0x21F9 SWAP2 DUP6 ADD PUSH2 0x20F8 JUMP JUMPDEST PUSH1 0x80 DUP6 ADD MSTORE PUSH1 0xA0 DUP4 ADD MLOAD SWAP1 DUP2 GT PUSH2 0x1F64 JUMPI PUSH2 0x2214 SWAP3 ADD PUSH2 0x20F8 JUMP JUMPDEST PUSH1 0xA0 DUP3 ADD MSTORE SWAP1 JUMP JUMPDEST SWAP1 PUSH1 0x20 SWAP2 PUSH2 0x2235 DUP2 MLOAD DUP1 SWAP3 DUP2 DUP6 MSTORE DUP6 DUP1 DUP7 ADD SWAP2 ADD PUSH2 0x20D5 JUMP JUMPDEST PUSH1 0x1F ADD PUSH1 0x1F NOT AND ADD ADD SWAP1 JUMP JUMPDEST PUSH2 0x213A SWAP2 PUSH1 0xA0 PUSH2 0x22AE PUSH2 0x229C PUSH2 0x228A PUSH2 0x2278 PUSH2 0x2266 DUP8 MLOAD PUSH1 0xC0 DUP9 MSTORE PUSH1 0xC0 DUP9 ADD SWAP1 PUSH2 0x221C JUMP JUMPDEST PUSH1 0x20 DUP9 ADD MLOAD DUP8 DUP3 SUB PUSH1 0x20 DUP10 ADD MSTORE PUSH2 0x221C JUMP JUMPDEST PUSH1 0x40 DUP8 ADD MLOAD DUP7 DUP3 SUB PUSH1 0x40 DUP9 ADD MSTORE PUSH2 0x221C JUMP JUMPDEST PUSH1 0x60 DUP7 ADD MLOAD DUP6 DUP3 SUB PUSH1 0x60 DUP8 ADD MSTORE PUSH2 0x221C JUMP JUMPDEST PUSH1 0x80 DUP6 ADD MLOAD DUP5 DUP3 SUB PUSH1 0x80 DUP7 ADD MSTORE PUSH2 0x221C JUMP JUMPDEST SWAP3 ADD MLOAD SWAP1 PUSH1 0xA0 DUP2 DUP5 SUB SWAP2 ADD MSTORE PUSH2 0x221C JUMP JUMPDEST PUSH1 0x1 PUSH1 0x1 PUSH1 0xA0 SHL SUB SWAP1 SWAP2 AND DUP2 MSTORE PUSH1 0x40 PUSH1 0x20 DUP3 ADD DUP2 SWAP1 MSTORE PUSH2 0x213A SWAP3 SWAP2 ADD SWAP1 PUSH2 0x2241 JUMP JUMPDEST PUSH15 0x5AF43D82803E903D91602B57FD5BF3 SWAP1 PUSH23 0x3D602D80600A3D3981F3363D3D373D3D3D363D73000000 PUSH3 0xFFFFFF DUP3 PUSH1 0x88 SHR AND OR PUSH1 0x0 MSTORE PUSH1 0x78 SHL OR PUSH1 0x20 MSTORE PUSH1 0x37 PUSH1 0x9 PUSH1 0x0 CREATE SWAP1 PUSH1 0x1 PUSH1 0x1 PUSH1 0xA0 SHL SUB DUP3 AND ISZERO PUSH2 0x2337 JUMPI JUMP JUMPDEST PUSH1 0x40 MLOAD PUSH4 0x30BE1A3D PUSH1 0xE2 SHL DUP2 MSTORE PUSH1 0x4 SWAP1 REVERT JUMPDEST SWAP1 DUP2 PUSH1 0x20 SWAP2 SUB SLT PUSH2 0x1F64 JUMPI MLOAD PUSH1 0x1 PUSH1 0x1 PUSH1 0xA0 SHL SUB DUP2 AND DUP2 SUB PUSH2 0x1F64 JUMPI SWAP1 JUMP JUMPDEST SWAP2 SWAP1 DUP3 ADD DUP1 SWAP3 GT PUSH2 0x2375 JUMPI JUMP JUMPDEST PUSH4 0x4E487B71 PUSH1 0xE0 SHL PUSH1 0x0 MSTORE PUSH1 0x11 PUSH1 0x4 MSTORE PUSH1 0x24 PUSH1 0x0 REVERT JUMPDEST RETURNDATASIZE ISZERO PUSH2 0x23B6 JUMPI RETURNDATASIZE SWAP1 PUSH2 0x239C DUP3 PUSH2 0x201A JUMP JUMPDEST SWAP2 PUSH2 0x23AA PUSH1 0x40 MLOAD SWAP4 DUP5 PUSH2 0x1FF9 JUMP JUMPDEST DUP3 MSTORE RETURNDATASIZE PUSH1 0x0 PUSH1 0x20 DUP5 ADD RETURNDATACOPY JUMP JUMPDEST PUSH1 0x60 SWAP1 JUMP JUMPDEST PUSH1 0x0 DUP1 PUSH2 0x23E4 SWAP3 PUSH1 0x1 DUP1 PUSH1 0xA0 SHL SUB AND SWAP4 PUSH1 0x20 DUP2 MLOAD SWAP2 ADD DUP3 DUP7 GAS CALL PUSH2 0x23DD PUSH2 0x238B JUMP JUMPDEST SWAP1 DUP4 PUSH2 0x242D JUMP JUMPDEST DUP1 MLOAD SWAP1 DUP2 ISZERO ISZERO SWAP2 DUP3 PUSH2 0x2412 JUMPI JUMPDEST POP POP PUSH2 0x23FA JUMPI POP JUMP JUMPDEST PUSH1 0x24 SWAP1 PUSH1 0x40 MLOAD SWAP1 PUSH4 0x5274AFE7 PUSH1 0xE0 SHL DUP3 MSTORE PUSH1 0x4 DUP3 ADD MSTORE REVERT JUMPDEST PUSH2 0x2425 SWAP3 POP PUSH1 0x20 DUP1 SWAP2 DUP4 ADD ADD SWAP2 ADD PUSH2 0x207C JUMP JUMPDEST ISZERO CODESIZE DUP1 PUSH2 0x23F1 JUMP JUMPDEST SWAP1 PUSH2 0x2454 JUMPI POP DUP1 MLOAD ISZERO PUSH2 0x2442 JUMPI DUP1 MLOAD SWAP1 PUSH1 0x20 ADD REVERT JUMPDEST PUSH1 0x40 MLOAD PUSH4 0xA12F521 PUSH1 0xE1 SHL DUP2 MSTORE PUSH1 0x4 SWAP1 REVERT JUMPDEST DUP2 MLOAD ISZERO DUP1 PUSH2 0x2487 JUMPI JUMPDEST PUSH2 0x2465 JUMPI POP SWAP1 JUMP JUMPDEST PUSH1 0x40 MLOAD PUSH4 0x9996B315 PUSH1 0xE0 SHL DUP2 MSTORE PUSH1 0x1 PUSH1 0x1 PUSH1 0xA0 SHL SUB SWAP1 SWAP2 AND PUSH1 0x4 DUP3 ADD MSTORE PUSH1 0x24 SWAP1 REVERT JUMPDEST POP DUP1 EXTCODESIZE ISZERO PUSH2 0x245D JUMP JUMPDEST PUSH1 0x40 MLOAD SWAP1 PUSH1 0x1 PUSH1 0x1 PUSH1 0xA0 SHL SUB AND DUP1 PUSH2 0x24A7 DUP4 PUSH2 0x1FDE JUMP JUMPDEST PUSH1 0x2A DUP4 MSTORE PUSH1 0x20 DUP1 DUP5 ADD PUSH1 0x40 CALLDATASIZE DUP3 CALLDATACOPY DUP5 MLOAD ISZERO PUSH2 0x257E JUMPI PUSH1 0x30 SWAP1 MSTORE8 DUP4 MLOAD SWAP1 PUSH1 0x1 SWAP2 DUP3 LT ISZERO PUSH2 0x257E JUMPI SWAP1 PUSH1 0x78 PUSH1 0x21 DUP7 ADD MSTORE8 PUSH1 0x29 SWAP2 JUMPDEST DUP2 DUP4 GT PUSH2 0x250A JUMPI POP POP POP PUSH2 0x24EB JUMPI POP SWAP1 JUMP JUMPDEST PUSH1 0x44 SWAP1 PUSH1 0x40 MLOAD SWAP1 PUSH4 0xE22E27EB PUSH1 0xE0 SHL DUP3 MSTORE PUSH1 0x4 DUP3 ADD MSTORE PUSH1 0x14 PUSH1 0x24 DUP3 ADD MSTORE REVERT JUMPDEST SWAP1 SWAP2 SWAP3 PUSH1 0xF DUP2 AND PUSH1 0x10 DUP2 LT ISZERO PUSH2 0x2569 JUMPI DUP7 MLOAD DUP6 LT ISZERO PUSH2 0x2569 JUMPI PUSH16 0x181899199A1A9B1B9C1CB0B131B232B3 PUSH1 0x81 SHL SWAP1 BYTE DUP7 DUP6 ADD DUP4 ADD MSTORE8 PUSH1 0x4 SHR SWAP3 DUP1 ISZERO PUSH2 0x2554 JUMPI PUSH1 0x0 NOT ADD SWAP2 SWAP1 PUSH2 0x24D9 JUMP JUMPDEST PUSH1 0x24 PUSH1 0x0 PUSH4 0x4E487B71 PUSH1 0xE0 SHL DUP2 MSTORE PUSH1 0x11 PUSH1 0x4 MSTORE REVERT JUMPDEST PUSH1 0x24 PUSH1 0x0 PUSH4 0x4E487B71 PUSH1 0xE0 SHL DUP2 MSTORE PUSH1 0x32 PUSH1 0x4 MSTORE REVERT JUMPDEST PUSH4 0x4E487B71 PUSH1 0xE0 SHL PUSH1 0x0 MSTORE PUSH1 0x32 PUSH1 0x4 MSTORE PUSH1 0x24 PUSH1 0x0 REVERT JUMPDEST PUSH1 0x0 DUP1 SWAP2 PUSH1 0x40 MLOAD PUSH2 0x25D0 DUP2 PUSH2 0x25C2 PUSH1 0x20 DUP3 ADD SWAP5 PUSH4 0x104C13EB PUSH1 0xE2 SHL DUP7 MSTORE PUSH1 0x20 PUSH1 0x24 DUP5 ADD MSTORE PUSH1 0x44 DUP4 ADD SWAP1 PUSH2 0x221C JUMP JUMPDEST SUB PUSH1 0x1F NOT DUP2 ADD DUP4 MSTORE DUP3 PUSH2 0x1FF9 JUMP JUMPDEST MLOAD SWAP1 PUSH11 0x636F6E736F6C652E6C6F67 GAS STATICCALL POP JUMP JUMPDEST PUSH1 0x0 SWAP2 SWAP1 PUSH2 0x25C2 PUSH2 0x25D0 DUP5 SWAP4 PUSH1 0x40 MLOAD SWAP3 DUP4 SWAP2 PUSH2 0x2618 PUSH1 0x20 DUP5 ADD SWAP7 PUSH4 0x4B5C4277 PUSH1 0xE0 SHL DUP9 MSTORE PUSH1 0x40 PUSH1 0x24 DUP7 ADD MSTORE PUSH1 0x64 DUP6 ADD SWAP1 PUSH2 0x221C JUMP JUMPDEST DUP4 DUP2 SUB PUSH1 0x23 NOT ADD PUSH1 0x44 DUP6 ADD MSTORE SWAP1 PUSH2 0x221C JUMP JUMPDEST PUSH1 0x0 SWAP2 SWAP1 DUP3 SWAP2 PUSH2 0x25D0 PUSH1 0x40 MLOAD DUP1 SWAP3 PUSH2 0x265B PUSH1 0x20 DUP4 ADD SWAP6 PUSH4 0x319AF333 PUSH1 0xE0 SHL DUP8 MSTORE PUSH1 0x40 PUSH1 0x24 DUP6 ADD MSTORE PUSH1 0x64 DUP5 ADD SWAP1 PUSH2 0x221C JUMP JUMPDEST PUSH1 0x1 PUSH1 0x1 PUSH1 0xA0 SHL SUB SWAP2 SWAP1 SWAP2 AND PUSH1 0x44 DUP4 ADD MSTORE SUB PUSH1 0x1F NOT DUP2 ADD DUP4 MSTORE DUP3 PUSH2 0x1FF9 JUMP INVALID LOG2 PUSH5 0x6970667358 0x22 SLT KECCAK256 SELFBALANCE GASLIMIT 0x5C PUSH23 0xB4EE9814473A9CE97930B51321286C312F432602BAB815 PUSH10 0x9F2587A164736F6C6343 STOP ADDMOD EQ STOP CALLER "},"methodIdentifiers":{"accumulatedFees(address)":"fcf66664","createWrappedSong(address,(string,string,string,string,string,string),uint256)":"b9408f5c","metadataModule()":"3684d100","migrateWrappedSong(address,address)":"d70a0abc","protocolModule()":"5c42e667","withdrawAccumulatedFees(address,address)":"376c1f07","wrappedSongTemplate()":"3e22876b","wsTokenTemplate()":"5e63149f"}},"storageLayout":{"storage":[{"astId":2323,"contract":"contracts/mocks/WrappedSongFactoryV2.sol:WrappedSongFactoryV2","label":"accumulatedFees","offset":0,"slot":"0","type":"t_mapping(t_address,t_uint256)"}],"types":{"t_address":{"encoding":"inplace","label":"address","numberOfBytes":"20"},"t_mapping(t_address,t_uint256)":{"encoding":"mapping","key":"t_address","label":"mapping(address => uint256)","numberOfBytes":"32","value":"t_uint256"},"t_uint256":{"encoding":"inplace","label":"uint256","numberOfBytes":"32"}}}}}}