{"contracts/mocks/WrappedSongFactoryV2.sol":{"WrappedSongFactoryV2":{"abi":[{"inputs":[{"internalType":"address","name":"_protocolModule","type":"address"},{"internalType":"address","name":"_wrappedSongTemplate","type":"address"},{"internalType":"address","name":"_wsTokenTemplate","type":"address"}],"stateMutability":"nonpayable","type":"constructor"},{"inputs":[{"internalType":"address","name":"target","type":"address"}],"name":"AddressEmptyCode","type":"error"},{"inputs":[{"internalType":"address","name":"account","type":"address"}],"name":"AddressInsufficientBalance","type":"error"},{"inputs":[],"name":"ERC1167FailedCreateClone","type":"error"},{"inputs":[],"name":"FailedInnerCall","type":"error"},{"inputs":[{"internalType":"address","name":"token","type":"address"}],"name":"SafeERC20FailedOperation","type":"error"},{"inputs":[{"internalType":"uint256","name":"value","type":"uint256"},{"internalType":"uint256","name":"length","type":"uint256"}],"name":"StringsInsufficientHexLength","type":"error"},{"anonymous":false,"inputs":[{"indexed":true,"internalType":"address","name":"wrappedSong","type":"address"},{"indexed":true,"internalType":"address","name":"token","type":"address"},{"indexed":false,"internalType":"uint256","name":"amount","type":"uint256"}],"name":"CreationFeeCollected","type":"event"},{"anonymous":false,"inputs":[{"indexed":true,"internalType":"address","name":"token","type":"address"},{"indexed":true,"internalType":"address","name":"recipient","type":"address"},{"indexed":false,"internalType":"uint256","name":"amount","type":"uint256"}],"name":"FeesWithdrawn","type":"event"},{"anonymous":false,"inputs":[{"indexed":false,"internalType":"string","name":"reason","type":"string"}],"name":"MigrationError","type":"event"},{"anonymous":false,"inputs":[{"indexed":false,"internalType":"string","name":"step","type":"string"},{"indexed":true,"internalType":"address","name":"wrappedSong","type":"address"}],"name":"MigrationStep","type":"event"},{"anonymous":false,"inputs":[{"indexed":true,"internalType":"address","name":"owner","type":"address"},{"indexed":true,"internalType":"address","name":"wrappedSongSmartAccount","type":"address"},{"indexed":false,"internalType":"address","name":"stablecoin","type":"address"},{"indexed":false,"internalType":"address","name":"wsTokenManagement","type":"address"},{"indexed":false,"internalType":"uint256","name":"sharesAmount","type":"uint256"},{"components":[{"internalType":"string","name":"name","type":"string"},{"internalType":"string","name":"description","type":"string"},{"internalType":"string","name":"image","type":"string"},{"internalType":"string","name":"externalUrl","type":"string"},{"internalType":"string","name":"animationUrl","type":"string"},{"internalType":"string","name":"attributesIpfsHash","type":"string"}],"indexed":false,"internalType":"struct IMetadataModule.Metadata","name":"metadata","type":"tuple"}],"name":"WrappedSongCreated","type":"event"},{"anonymous":false,"inputs":[{"indexed":true,"internalType":"address","name":"oldWrappedSong","type":"address"},{"indexed":true,"internalType":"address","name":"newWrappedSong","type":"address"},{"indexed":true,"internalType":"address","name":"owner","type":"address"},{"indexed":false,"internalType":"address","name":"stablecoin","type":"address"},{"indexed":false,"internalType":"address","name":"wsTokenManagement","type":"address"}],"name":"WrappedSongMigrated","type":"event"},{"inputs":[{"internalType":"address","name":"","type":"address"}],"name":"accumulatedFees","outputs":[{"internalType":"uint256","name":"","type":"uint256"}],"stateMutability":"view","type":"function"},{"inputs":[{"internalType":"address","name":"_stablecoin","type":"address"},{"components":[{"internalType":"string","name":"name","type":"string"},{"internalType":"string","name":"description","type":"string"},{"internalType":"string","name":"image","type":"string"},{"internalType":"string","name":"externalUrl","type":"string"},{"internalType":"string","name":"animationUrl","type":"string"},{"internalType":"string","name":"attributesIpfsHash","type":"string"}],"internalType":"struct IMetadataModule.Metadata","name":"songMetadata","type":"tuple"},{"internalType":"uint256","name":"sharesAmount","type":"uint256"}],"name":"createWrappedSong","outputs":[{"internalType":"address","name":"","type":"address"}],"stateMutability":"payable","type":"function"},{"inputs":[],"name":"metadataModule","outputs":[{"internalType":"contract IMetadataModule","name":"","type":"address"}],"stateMutability":"view","type":"function"},{"inputs":[{"internalType":"address","name":"oldWrappedSong_","type":"address"},{"internalType":"address","name":"oldMetadataModule_","type":"address"}],"name":"migrateWrappedSong","outputs":[{"internalType":"address","name":"","type":"address"}],"stateMutability":"payable","type":"function"},{"inputs":[],"name":"protocolModule","outputs":[{"internalType":"contract IProtocolModule","name":"","type":"address"}],"stateMutability":"view","type":"function"},{"inputs":[{"internalType":"address","name":"token","type":"address"},{"internalType":"address","name":"recipient","type":"address"}],"name":"withdrawAccumulatedFees","outputs":[],"stateMutability":"nonpayable","type":"function"},{"inputs":[],"name":"wrappedSongTemplate","outputs":[{"internalType":"address","name":"","type":"address"}],"stateMutability":"view","type":"function"},{"inputs":[],"name":"wsTokenTemplate","outputs":[{"internalType":"address","name":"","type":"address"}],"stateMutability":"view","type":"function"},{"stateMutability":"payable","type":"receive"}],"evm":{"bytecode":{"linkReferences":{},"object":"61010060409080825234620002cb5760608162002fb38038038091620000268285620002d0565b833981010312620002cb576200003c816200030a565b906020916200005a84620000528585016200030a565b93016200030a565b926001600160a01b039182168015620002875782841615620002435782851615620001ff57908082600493608052875193848092630222e55560e21b82525afa908115620001f457600091620001b5575b5090501660a05260c05260e05251612c93908162000320823960805181818161016e01528181610788015281816109f201528181610a4c01528181610b6201528181610bc001528181610cfc01528181610d5c0152818161154c015281816115cf0152818161163601528181611681015281816116cf0152818161176f0152818161181801528181611858015281816118a2015281816118de0152818161193c01528181611975015281816119d601528181611c4a01528181611c99015281816121e701526122a0015260a051818181610fc501528181611abc01526124c9015260c0518181816106a301528181611715015261222c015260e0518181816117bb01526121a20152f35b82813d8311620001ec575b620001cc8183620002d0565b81010312620001e95750620001e1906200030a565b8038620000ab565b80fd5b503d620001c0565b86513d6000823e3d90fd5b855162461bcd60e51b815260048101839052601860248201527f496e76616c6964205753546f6b656e2074656d706c61746500000000000000006044820152606490fd5b855162461bcd60e51b815260048101839052601d60248201527f496e76616c6964207772617070656420736f6e672074656d706c6174650000006044820152606490fd5b855162461bcd60e51b815260048101839052601760248201527f496e76616c69642070726f746f636f6c206d6f64756c650000000000000000006044820152606490fd5b600080fd5b601f909101601f19168101906001600160401b03821190821017620002f457604052565b634e487b7160e01b600052604160045260246000fd5b51906001600160a01b0382168203620002cb5756fe608080604052600436101561001d575b50361561001b57600080fd5b005b600090813560e01c9081633684d100146124b557508063376c1f071461225b5780633e22876b146122165780635c42e667146121d15780635e63149f1461218c578063b9408f5c14611404578063d70a0abc146100b85763fcf666640361000f57346100b55760203660031901126100b5576020906040906001600160a01b036100a56124f8565b1681528083522054604051908152f35b80fd5b5060403660031901126100b5576100cd6124f8565b6100d5612513565b610114826040516100e58161256d565b601781527f5374617274696e67206d6967726174696f6e20666f723a0000000000000000006020820152612bed565b60405160208152601260208201527129ba30b93a34b7339036b4b3b930ba34b7b760711b6040820152600080516020612c3e833981519152606060018060a01b03851692a2604051635c975abb60e01b81526020816004817f00000000000000000000000000000000000000000000000000000000000000006001600160a01b03165afa8015611397576101b09185916113e5575b501561263e565b6040516101bc8161256d565b601381526101e672141c9bdd1bd8dbdb081b9bdd081c185d5cd959606a1b91826020820152612bac565b6040519060208252601360208301526040820152600080516020612c3e833981519152606060018060a01b03851692a2604051638da5cb5b60e01b81526020816004816001600160a01b0387165afa9081156113975784916113c6575b50610274816040516102548161256d565b600e81526d21bab93932b73a1037bbb732b91d60911b6020820152612bed565b61027d33612aa8565b90610300603f61028c83612aa8565b936040519485917f496e76616c6964206f776e65722e2045787065637465643a200000000000000060208401526102cd81518092602060398701910161267f565b82016501023b7ba1d160d51b60398201526102f1825180936020878501910161267f565b0103601f8101855201836125a3565b336001600160a01b03909116036113a2575060405161031e8161256d565b601281526103477113dddb995c9cda1a5c081d995c9a599a595960721b91826020820152612bac565b6040519060208252601260208301526040820152600080516020612c3e833981519152606060018060a01b03851692a2604051630b19e31960e21b81526020816004816001600160a01b0387165afa908115611397578491611368575b5061132b57604051916103b68361256d565b6018928381526103ec7f4d6967726174696f6e2073746174757320636865636b6564000000000000000091826020820152612bac565b60405190602082528460208301526040820152600080516020612c3e833981519152606060018060a01b03841692a26040516374e5ec1160e11b81526020816004816001600160a01b0386165afa8591816112e7575b506104a9576064846040516104568161256d565b8181526104897f4661696c656420746f2067657420737461626c65636f696e000000000000000091826020820152612bac565b6040519162461bcd60e51b83526020600484015260248301526044820152fd5b60018060a01b03166104e8816040516104c18161256d565b601581527429ba30b13632b1b7b4b7103932ba3934b2bb32b21d60591b6020820152612bed565b60405160208152601460208201527314dd18589b1958dbda5b881c995d1c9a595d995960621b6040820152600080516020612c3e833981519152606060018060a01b03851692a2604051636fad7e9560e11b8152926020846004816001600160a01b0387165afa8694816112b6575b506105c057606460405161056a8161256d565b601d815261059e7f4661696c656420746f20676574205753546f6b656e206164647265737300000091826020820152612bac565b6040519062461bcd60e51b825260206004830152601d60248301526044820152fd5b6105ff846040516105d08161256d565b601a81527f5753546f6b656e2061646472657373207265747269657665643a0000000000006020820152612bed565b60405160208152601960208201527f5753546f6b656e206164647265737320726574726965766564000000000000006040820152600080516020612c3e833981519152606060018060a01b03861692a26001600160a01b038416156112715761069b60405161066d8161256d565b8681527f5753546f6b656e206164647265737320766572696669656400000000000000006020820152612bac565b6107036106c77f000000000000000000000000000000000000000000000000000000000000000061288b565b8096604051906106d68261256d565b81527f4e6577207772617070656420736f6e6720636c6f6e65643a00000000000000006020820152612bed565b60405160208152601760208201527f4e6577207772617070656420736f6e6720636c6f6e65640000000000000000006040820152600080516020612c3e833981519152606060018060a01b03881692a26001600160a01b0385163b156112195760405163c0c53b8b60e01b81526001600160a01b0383811660048301523360248301527f000000000000000000000000000000000000000000000000000000000000000016604482015286808280606481010381836001600160a01b038c165af1918261125d575b505061098057858060033d1161096f575b506308c379a01461085f575b60846040516107f681612588565b602481527f496e697469616c697a65206661696c6564207769746820756e6b6e6f776e20659081602082015261083963393937b960e11b91826040820152612bac565b6040519162461bcd60e51b83526020600484015260248084015260448301526064820152fd5b610867612a3a565b8061087257506107e8565b61096b906000806040516108858161256d565b601281527124b734ba34b0b634bd32903330b4b632b21d60711b60208201526040516108f1816108e36108d16020830195634b5c427760e01b87526040602485015260648401906127c6565b828103602319016044840152886127c6565b03601f1981018352826125a3565b51906a636f6e736f6c652e6c6f675afa5061094b6033604051809372024b734ba34b0b634bd32903330b4b632b21d1606d1b602083015261093b815180926020868601910161267f565b81010360138101845201826125a3565b60405162461bcd60e51b81526020600482015291829160248301906127c6565b0390fd5b9050600481803e5160e01c816107dc565b60405161098c8161256d565b601c81526109c07f4e6577207772617070656420736f6e6720696e697469616c697a65640000000091826020820152612bac565b6040519060208252601c60208301526040820152600080516020612c3e833981519152606060018060a01b03881692a27f00000000000000000000000000000000000000000000000000000000000000006001600160a01b03163b156112195760405163d9ce7b9560e01b81526001600160a01b038581166004830152879081908390602490829084907f0000000000000000000000000000000000000000000000000000000000000000165af19182611249575b5050610af0576084604051610a8981612588565b602181527f4661696c656420746f20736574205753546f6b656e20696e2070726f746f636f90816020820152610ac9601b60fa1b91826040820152612bac565b6040519162461bcd60e51b8352602060048401526021602484015260448301526064820152fd5b604051610afc8161256d565b60178152610b307f5753546f6b656e2073657420696e2070726f746f636f6c00000000000000000091826020820152612bac565b6040519060208252601760208301526040820152600080516020612c3e833981519152606060018060a01b03881692a27f00000000000000000000000000000000000000000000000000000000000000006001600160a01b03163b15611219576040516208ac8360e01b81526001600160a01b0380871660048301528516602482015286808280604481010381837f00000000000000000000000000000000000000000000000000000000000000006001600160a01b03165af19182611235575b5050610c71576084604051610c0581612588565b602681527f4661696c656420746f2073657420736d617274206163636f756e7420746f205790816020820152610c4a6529aa37b5b2b760d11b91826040820152612bac565b6040519162461bcd60e51b8352602060048401526026602484015260448301526064820152fd5b604051610c7d81612588565b602981527f536d617274206163636f756e7420746f205753546f6b656e2072656c6174696f90816020820152610cc5681b9cda1a5c081cd95d60ba1b91826040820152612bac565b60405191602083526029602084015260408301526060820152600080516020612c3e833981519152608060018060a01b03881692a27f00000000000000000000000000000000000000000000000000000000000000006001600160a01b03163b156112195760405160016216ef6160e31b031981523360048201526001600160a01b038616602482015286808280604481010381837f00000000000000000000000000000000000000000000000000000000000000006001600160a01b03165af1918261121d575b5050610df7576064604051610da18161256d565b601f8152610dd57f4661696c656420746f20736574206f776e657220696e2070726f746f636f6c0091826020820152612bac565b6040519062461bcd60e51b825260206004830152601f60248301526044820152fd5b604051610e038161256d565b60158152610e2f7413dddb995c881cd95d081a5b881c1c9bdd1bd8dbdb605a1b91826020820152612bac565b6040519060208252601560208301526040820152600080516020612c3e833981519152606060018060a01b03881692a26001600160a01b0385163b156112195760405163716f6e8760e01b81526001600160a01b03858116600483015287919082908290602490829084908c165af1801561120e576111fa575b50602491604051610eb98161256d565b60168152610ee67515d4d51bdad95b881b585b9859d95b595b9d081cd95d60521b91826020820152612bac565b6040519060208252601660208301526040820152600080516020612c3e833981519152606060018060a01b038a1692a26040516301a4e6dd60e51b81526001600160a01b0386811660048301529093849290918391165afa9081156111a85786916111e0575b50604051610f598161256d565b60168152610f867513db19081b595d1859185d18481c995d1c9a595d995960521b91826020820152612bac565b6040519060208252601660208301526040820152600080516020612c3e833981519152606060018060a01b03881692a2604051636613680d60e01b81527f00000000000000000000000000000000000000000000000000000000000000006001600160a01b031691879082908190611002908a60048401612869565b038183865af180156111d5576111b3575b506040516110208161256d565b6014815261104b7313995dc81b595d1859185d184818dc99585d195960621b91826020820152612bac565b6040519060208252601460208301526040820152600080516020612c3e833981519152606060018060a01b03881692a2856001600160a01b0384163b156100b5576040516335c282af60e21b81526001600160a01b03928316600482015291861660248301528180604481010381836001600160a01b0388165af180156111a857611190575b50602094506040516110e28161256d565b601181526111097013db19081cdbdb99c81b5a59dc985d1959607a1b918288820152612bac565b604051908682526011878301526040820152600080516020612c3e833981519152606060018060a01b03871692a2604080516001600160a01b0392831681529382166020850152339385831693909216917fc42cdc1cea8afc407ec500712a997b1d17d698ae57762e29810084b83a295a549190a46040516001600160a01b039091168152f35b61119a869161255a565b6111a457846110d1565b8480fd5b6040513d88823e3d90fd5b6111ce903d8089833e6111c681836125a3565b8101906126e7565b5038611013565b6040513d89823e3d90fd5b6111f491503d8088833e6111c681836125a3565b38610f4c565b611204829161255a565b6100b55738610ea9565b6040513d84823e3d90fd5b8580fd5b6112269061255a565b611231578638610d8d565b8680fd5b61123e9061255a565b611231578638610bf1565b6112529061255a565b611231578638610a75565b6112669061255a565b6112315786386107cb565b60405162461bcd60e51b815260206004820152601760248201527f496e76616c6964205753546f6b656e20616464726573730000000000000000006044820152606490fd5b6112d991955060203d6020116112e0575b6112d181836125a3565b810190612946565b9338610557565b503d6112c7565b9091506020813d602011611323575b81611303602093836125a3565b8101031261121957516001600160a01b0381168103611219579038610442565b3d91506112f6565b60405162461bcd60e51b815260206004820152601560248201527414dbdb99c8185b1c9958591e481b5a59dc985d1959605a1b6044820152606490fd5b61138a915060203d602011611390575b61138281836125a3565b810190612626565b386103a4565b503d611378565b6040513d86823e3d90fd5b60405162461bcd60e51b81526020600482015290819061096b9060248301906127c6565b6113df915060203d6020116112e0576112d181836125a3565b38610243565b6113fe915060203d6020116113905761138281836125a3565b386101a9565b50600319606036820112611be25761141a6124f8565b602435916001600160401b038311611c2c5760c0908336030112612188576040519161144583612529565b80600401356001600160401b0381116111a45761146890600436918401016125df565b835260248101356001600160401b0381116111a45761148d90600436918401016125df565b602084015260448101356001600160401b0381116111a4576114b590600436918401016125df565b604084015260648101356001600160401b0381116111a4576114dd90600436918401016125df565b606084015260848101356001600160401b0381116111a45761150590600436918401016125df565b906080840191825260a4810135906001600160401b03821161121957600461153092369201016125df565b60a08401908152604051635c975abb60e01b81526020816004817f00000000000000000000000000000000000000000000000000000000000000006001600160a01b03165afa80156111a85761158d9187916113e557501561263e565b83515115159182612179575b8261216d575b5081612161575b501561212957604435156120d45760405163f140b55f60e01b81523360048201526020816024817f00000000000000000000000000000000000000000000000000000000000000006001600160a01b03165afa9081156113975784916120b5575b50156120715760405163b5af090f60e01b81526001600160a01b038281166004830152602090829060249082907f0000000000000000000000000000000000000000000000000000000000000000165afa908115611397578491612052575b501561200d5760405163438c9d9560e01b81526020816004817f00000000000000000000000000000000000000000000000000000000000000006001600160a01b03165afa908115611397578491611fdb575b506040516316eddecb60e01b81526020816004817f00000000000000000000000000000000000000000000000000000000000000006001600160a01b03165afa908115611b87578591611fbc575b5081611c30575b50506117397f000000000000000000000000000000000000000000000000000000000000000061288b565b916001600160a01b0383163b15611c2c5760405163c0c53b8b60e01b81526001600160a01b0383811660048301523260248301527f0000000000000000000000000000000000000000000000000000000000000000166044820152848180606481010381836001600160a01b0389165af18015611b8757611c19575b506117df7f000000000000000000000000000000000000000000000000000000000000000061288b565b6001600160a01b038116908590823b15611be25760405163c0c53b8b60e01b81526001600160a01b0387811660048301523360248301527f0000000000000000000000000000000000000000000000000000000000000000166044820152828160648183885af1908115611bfa578391611c05575b50507f00000000000000000000000000000000000000000000000000000000000000006001600160a01b03163b15611be25760405163d9ce7b9560e01b8152600481018490528281602481837f00000000000000000000000000000000000000000000000000000000000000006001600160a01b03165af1908115611bfa578391611be6575b50507f00000000000000000000000000000000000000000000000000000000000000006001600160a01b03163b15611be2576040516208ac8360e01b81526001600160a01b0380881660048301529091166024820152818180604481010381837f00000000000000000000000000000000000000000000000000000000000000006001600160a01b03165af1801561120e57611bce575b50507f00000000000000000000000000000000000000000000000000000000000000006001600160a01b03163b156111a45760405160016216ef6160e31b031981523360048201526001600160a01b03851660248201528590818180604481010381837f00000000000000000000000000000000000000000000000000000000000000006001600160a01b03165af1801561120e57611bba575b50506001600160a01b0384163b156111a45760405163716f6e8760e01b81526004810182905285908181602481836001600160a01b038b165af1801561120e57611ba6575b50506001600160a01b0384163b156111a4576040516339fa62df60e01b8152604435600482015285908181602481836001600160a01b038b165af1801561120e57611b92575b50604051636613680d60e01b81529283908190611ab7908860048401612869565b0381837f00000000000000000000000000000000000000000000000000000000000000006001600160a01b03165af1918215611b87578560209693611b6a575b50506040519260018060a01b03168352848301526044356040830152608060608301527f938ece1ab5d508d56896411e3f1b2c96359f780ecbfe90c9a4031cd170aa4a4a60018060a01b0384169280611b55339460808301906127eb565b0390a36040516001600160a01b039091168152f35b611b7f9293503d8091833e6111c681836125a3565b903880611af7565b6040513d87823e3d90fd5b611b9c829161255a565b6100b55738611a96565b611baf9061255a565b6111a4578438611a50565b611bc39061255a565b6111a4578438611a0b565b611bd79061255a565b6111a4578438611971565b5080fd5b611bef9061255a565b611be25781386118da565b6040513d85823e3d90fd5b611c0e9061255a565b611be2578138611854565b611c259094919461255a565b92386117b5565b8380fd5b15611eac57604051631241509d60e21b81526020816004817f00000000000000000000000000000000000000000000000000000000000000006001600160a01b03165afa908115611b87578591611e7a575b506040516309da4e5160e01b8152906020826004817f00000000000000000000000000000000000000000000000000000000000000006001600160a01b03165afa9182156111a8578692611e35575b50604051637c70c0a360e01b8152600481019190915290602090829060249082906001600160a01b03165afa908115611b87578591611e16575b506001600160a01b0316908115611dc5576040516323b872dd60e01b60208201523360248201523060448201526064808201839052815260a081016001600160401b03811182821017611db1578692611d8b7fdd872ca9502e175165673833ac2a0e1395edb4b5c72f2915685598490c375e999360209360405286612965565b84845283825260408420611da08282546128f3565b9055604051908152a35b388061170e565b634e487b7160e01b87526041600452602487fd5b60405162461bcd60e51b815260206004820152602360248201527f4e6f2077686974656c697374656420737461626c65636f696e20617661696c61604482015262626c6560e81b6064820152608490fd5b611e2f915060203d6020116112e0576112d181836125a3565b38611d0b565b9091506020813d602011611e72575b81611e51602093836125a3565b8101031261121957516001600160a01b038116810361121957906020611cd1565b3d9150611e44565b90506020813d602011611ea4575b81611e95602093836125a3565b810103126111a4575138611c82565b3d9150611e88565b803410611f77578380528360205260408420611ec93482546128f3565b9055803411611f05575b5082807fdd872ca9502e175165673833ac2a0e1395edb4b5c72f2915685598490c375e996020604051348152a3611daa565b3403348111611f63578380808093335af1611f1e612916565b5015611f2a5738611ed3565b60405162461bcd60e51b8152602060048201526011602482015270115512081c99599d5b990819985a5b1959607a1b6044820152606490fd5b634e487b7160e01b84526011600452602484fd5b60405162461bcd60e51b815260206004820152601860248201527f496e636f7272656374204554482066656520616d6f756e7400000000000000006044820152606490fd5b611fd5915060203d6020116113905761138281836125a3565b38611707565b90506020813d602011612005575b81611ff6602093836125a3565b81010312611c2c5751386116b9565b3d9150611fe9565b60405162461bcd60e51b815260206004820152601d60248201527f537461626c65636f696e206973206e6f742077686974656c69737465640000006044820152606490fd5b61206b915060203d6020116113905761138281836125a3565b38611666565b606460405162461bcd60e51b815260206004820152602060248201527f4e6f742076616c696420746f20637265617465205772617070656420536f6e676044820152fd5b6120ce915060203d6020116113905761138281836125a3565b38611607565b60405162461bcd60e51b815260206004820152602760248201527f53686172657320616d6f756e74206d7573742062652067726561746572207468604482015266616e207a65726f60c81b6064820152608490fd5b60405162461bcd60e51b815260206004820152601060248201526f496e76616c6964206d6574616461746160801b6044820152606490fd5b905051511515386115a6565b5151151591503861159f565b60408501515115159250611599565b8280fd5b50346100b557806003193601126100b5576040517f00000000000000000000000000000000000000000000000000000000000000006001600160a01b03168152602090f35b50346100b557806003193601126100b5576040517f00000000000000000000000000000000000000000000000000000000000000006001600160a01b03168152602090f35b50346100b557806003193601126100b5576040517f00000000000000000000000000000000000000000000000000000000000000006001600160a01b03168152602090f35b50346100b55760403660031901126100b5576122756124f8565b61227d612513565b604051638da5cb5b60e01b815290916001600160a01b03916020919082816004817f000000000000000000000000000000000000000000000000000000000000000088165afa80156111a85784918791612498575b5016330361244557821691828552848252604085205493841561240a5783865285835285604081205583156000146123885785808080888686165af1612316612916565b501561234d57907f5e110f8bc8a20b65dcc87f224bdf1cc039346e267118bae2739847f07321ffa892915b6040519586521693a380f35b60405162461bcd60e51b8152600481018490526013602482015272115512081d1c985b9cd9995c8819985a5b1959606a1b6044820152606490fd5b60405163a9059cbb60e01b84820152818316602482015260448082018790528152608081016001600160401b038111828210176123f6577f5e110f8bc8a20b65dcc87f224bdf1cc039346e267118bae2739847f07321ffa8949392916123f19160405286612965565b612341565b634e487b7160e01b88526041600452602488fd5b60405162461bcd60e51b81526004810184905260136024820152724e6f206665657320746f20776974686472617760681b6044820152606490fd5b60405162461bcd60e51b815260048101839052602560248201527f4f6e6c792070726f746f636f6c206f776e65722063616e207769746864726177604482015264206665657360d81b6064820152608490fd5b6124af9150843d86116112e0576112d181836125a3565b386122d2565b905034611be25781600319360112611be2577f00000000000000000000000000000000000000000000000000000000000000006001600160a01b03168152602090f35b600435906001600160a01b038216820361250e57565b600080fd5b602435906001600160a01b038216820361250e57565b60c081019081106001600160401b0382111761254457604052565b634e487b7160e01b600052604160045260246000fd5b6001600160401b03811161254457604052565b604081019081106001600160401b0382111761254457604052565b606081019081106001600160401b0382111761254457604052565b90601f801991011681019081106001600160401b0382111761254457604052565b6001600160401b03811161254457601f01601f191660200190565b81601f8201121561250e578035906125f6826125c4565b9261260460405194856125a3565b8284526020838301011161250e57816000926020809301838601378301015290565b9081602091031261250e5751801515810361250e5790565b1561264557565b60405162461bcd60e51b8152602060048201526012602482015271141c9bdd1bd8dbdb081a5cc81c185d5cd95960721b6044820152606490fd5b60005b8381106126925750506000910152565b8181015183820152602001612682565b81601f8201121561250e5780516126b8816125c4565b926126c660405194856125a3565b8184526020828401011161250e576126e4916020808501910161267f565b90565b9060208282031261250e5781516001600160401b039283821161250e57019060c08282031261250e576040519261271d84612529565b825181811161250e57826127329185016126a2565b8452602083015181811161250e578261274c9185016126a2565b6020850152604083015181811161250e57826127699185016126a2565b6040850152606083015181811161250e57826127869185016126a2565b6060850152608083015181811161250e57826127a39185016126a2565b608085015260a083015190811161250e576127be92016126a2565b60a082015290565b906020916127df8151809281855285808601910161267f565b601f01601f1916010190565b6126e49160a0612858612846612834612822612810875160c0885260c08801906127c6565b602088015187820360208901526127c6565b604087015186820360408801526127c6565b606086015185820360608701526127c6565b608085015184820360808601526127c6565b9201519060a08184039101526127c6565b6001600160a01b0390911681526040602082018190526126e4929101906127eb565b6e5af43d82803e903d91602b57fd5bf390763d602d80600a3d3981f3363d3d373d3d3d363d7300000062ffffff8260881c161760005260781b17602052603760096000f0906001600160a01b038216156128e157565b6040516330be1a3d60e21b8152600490fd5b9190820180921161290057565b634e487b7160e01b600052601160045260246000fd5b3d15612941573d90612927826125c4565b9161293560405193846125a3565b82523d6000602084013e565b606090565b9081602091031261250e57516001600160a01b038116810361250e5790565b60008061298e9260018060a01b03169360208151910182865af1612987612916565b90836129d7565b80519081151591826129bc575b50506129a45750565b60249060405190635274afe760e01b82526004820152fd5b6129cf9250602080918301019101612626565b15388061299b565b906129fe57508051156129ec57805190602001fd5b604051630a12f52160e11b8152600490fd5b81511580612a31575b612a0f575090565b604051639996b31560e01b81526001600160a01b039091166004820152602490fd5b50803b15612a07565b600060443d106126e457604051600319913d83016004833e81516001600160401b03918282113d602484011117612a9757818401948551938411612a9f573d85010160208487010111612a9757506126e4929101602001906125a3565b949350505050565b50949350505050565b604051906001600160a01b031680612abf83612588565b602a835260208084016040368237845115612b965760309053835190600191821015612b965790607860218601536029915b818311612b2257505050612b03575090565b6044906040519063e22e27eb60e01b8252600482015260146024820152fd5b909192600f81166010811015612b81578651851015612b81576f181899199a1a9b1b9c1cb0b131b232b360811b901a86850183015360041c928015612b6c57600019019190612af1565b60246000634e487b7160e01b81526011600452fd5b60246000634e487b7160e01b81526032600452fd5b634e487b7160e01b600052603260045260246000fd5b60008091604051612bda816108e3602082019463104c13eb60e21b86526020602484015260448301906127c6565b51906a636f6e736f6c652e6c6f675afa50565b600091908291612bda6040518092612c1e602083019563319af33360e01b87526040602485015260648401906127c6565b6001600160a01b0391909116604483015203601f1981018352826125a356fec2d7666f146293188b27330a5abac44dbe4b769e360deba08ceef725f96d9ecba2646970667358221220fe41d57e36c386e130a79378c95d522c8fd8b900c4f076d4f9c58649441abcad64736f6c63430008140033","opcodes":"PUSH2 0x100 PUSH1 0x40 SWAP1 DUP1 DUP3 MSTORE CALLVALUE PUSH3 0x2CB JUMPI PUSH1 0x60 DUP2 PUSH3 0x2FB3 DUP1 CODESIZE SUB DUP1 SWAP2 PUSH3 0x26 DUP3 DUP6 PUSH3 0x2D0 JUMP JUMPDEST DUP4 CODECOPY DUP2 ADD SUB SLT PUSH3 0x2CB JUMPI PUSH3 0x3C DUP2 PUSH3 0x30A JUMP JUMPDEST SWAP1 PUSH1 0x20 SWAP2 PUSH3 0x5A DUP5 PUSH3 0x52 DUP6 DUP6 ADD PUSH3 0x30A JUMP JUMPDEST SWAP4 ADD PUSH3 0x30A JUMP JUMPDEST SWAP3 PUSH1 0x1 PUSH1 0x1 PUSH1 0xA0 SHL SUB SWAP2 DUP3 AND DUP1 ISZERO PUSH3 0x287 JUMPI DUP3 DUP5 AND ISZERO PUSH3 0x243 JUMPI DUP3 DUP6 AND ISZERO PUSH3 0x1FF JUMPI SWAP1 DUP1 DUP3 PUSH1 0x4 SWAP4 PUSH1 0x80 MSTORE DUP8 MLOAD SWAP4 DUP5 DUP1 SWAP3 PUSH4 0x222E555 PUSH1 0xE2 SHL DUP3 MSTORE GAS STATICCALL SWAP1 DUP2 ISZERO PUSH3 0x1F4 JUMPI PUSH1 0x0 SWAP2 PUSH3 0x1B5 JUMPI JUMPDEST POP SWAP1 POP AND PUSH1 0xA0 MSTORE PUSH1 0xC0 MSTORE PUSH1 0xE0 MSTORE MLOAD PUSH2 0x2C93 SWAP1 DUP2 PUSH3 0x320 DUP3 CODECOPY PUSH1 0x80 MLOAD DUP2 DUP2 DUP2 PUSH2 0x16E ADD MSTORE DUP2 DUP2 PUSH2 0x788 ADD MSTORE DUP2 DUP2 PUSH2 0x9F2 ADD MSTORE DUP2 DUP2 PUSH2 0xA4C ADD MSTORE DUP2 DUP2 PUSH2 0xB62 ADD MSTORE DUP2 DUP2 PUSH2 0xBC0 ADD MSTORE DUP2 DUP2 PUSH2 0xCFC ADD MSTORE DUP2 DUP2 PUSH2 0xD5C ADD MSTORE DUP2 DUP2 PUSH2 0x154C ADD MSTORE DUP2 DUP2 PUSH2 0x15CF ADD MSTORE DUP2 DUP2 PUSH2 0x1636 ADD MSTORE DUP2 DUP2 PUSH2 0x1681 ADD MSTORE DUP2 DUP2 PUSH2 0x16CF ADD MSTORE DUP2 DUP2 PUSH2 0x176F ADD MSTORE DUP2 DUP2 PUSH2 0x1818 ADD MSTORE DUP2 DUP2 PUSH2 0x1858 ADD MSTORE DUP2 DUP2 PUSH2 0x18A2 ADD MSTORE DUP2 DUP2 PUSH2 0x18DE ADD MSTORE DUP2 DUP2 PUSH2 0x193C ADD MSTORE DUP2 DUP2 PUSH2 0x1975 ADD MSTORE DUP2 DUP2 PUSH2 0x19D6 ADD MSTORE DUP2 DUP2 PUSH2 0x1C4A ADD MSTORE DUP2 DUP2 PUSH2 0x1C99 ADD MSTORE DUP2 DUP2 PUSH2 0x21E7 ADD MSTORE PUSH2 0x22A0 ADD MSTORE PUSH1 0xA0 MLOAD DUP2 DUP2 DUP2 PUSH2 0xFC5 ADD MSTORE DUP2 DUP2 PUSH2 0x1ABC ADD MSTORE PUSH2 0x24C9 ADD MSTORE PUSH1 0xC0 MLOAD DUP2 DUP2 DUP2 PUSH2 0x6A3 ADD MSTORE DUP2 DUP2 PUSH2 0x1715 ADD MSTORE PUSH2 0x222C ADD MSTORE PUSH1 0xE0 MLOAD DUP2 DUP2 DUP2 PUSH2 0x17BB ADD MSTORE PUSH2 0x21A2 ADD MSTORE RETURN JUMPDEST DUP3 DUP2 RETURNDATASIZE DUP4 GT PUSH3 0x1EC JUMPI JUMPDEST PUSH3 0x1CC DUP2 DUP4 PUSH3 0x2D0 JUMP JUMPDEST DUP2 ADD SUB SLT PUSH3 0x1E9 JUMPI POP PUSH3 0x1E1 SWAP1 PUSH3 0x30A JUMP JUMPDEST DUP1 CODESIZE PUSH3 0xAB JUMP JUMPDEST DUP1 REVERT JUMPDEST POP RETURNDATASIZE PUSH3 0x1C0 JUMP JUMPDEST DUP7 MLOAD RETURNDATASIZE PUSH1 0x0 DUP3 RETURNDATACOPY RETURNDATASIZE SWAP1 REVERT JUMPDEST DUP6 MLOAD PUSH3 0x461BCD PUSH1 0xE5 SHL DUP2 MSTORE PUSH1 0x4 DUP2 ADD DUP4 SWAP1 MSTORE PUSH1 0x18 PUSH1 0x24 DUP3 ADD MSTORE PUSH32 0x496E76616C6964205753546F6B656E2074656D706C6174650000000000000000 PUSH1 0x44 DUP3 ADD MSTORE PUSH1 0x64 SWAP1 REVERT JUMPDEST DUP6 MLOAD PUSH3 0x461BCD PUSH1 0xE5 SHL DUP2 MSTORE PUSH1 0x4 DUP2 ADD DUP4 SWAP1 MSTORE PUSH1 0x1D PUSH1 0x24 DUP3 ADD MSTORE PUSH32 0x496E76616C6964207772617070656420736F6E672074656D706C617465000000 PUSH1 0x44 DUP3 ADD MSTORE PUSH1 0x64 SWAP1 REVERT JUMPDEST DUP6 MLOAD PUSH3 0x461BCD PUSH1 0xE5 SHL DUP2 MSTORE PUSH1 0x4 DUP2 ADD DUP4 SWAP1 MSTORE PUSH1 0x17 PUSH1 0x24 DUP3 ADD MSTORE PUSH32 0x496E76616C69642070726F746F636F6C206D6F64756C65000000000000000000 PUSH1 0x44 DUP3 ADD MSTORE PUSH1 0x64 SWAP1 REVERT JUMPDEST PUSH1 0x0 DUP1 REVERT JUMPDEST PUSH1 0x1F SWAP1 SWAP2 ADD PUSH1 0x1F NOT AND DUP2 ADD SWAP1 PUSH1 0x1 PUSH1 0x1 PUSH1 0x40 SHL SUB DUP3 GT SWAP1 DUP3 LT OR PUSH3 0x2F4 JUMPI PUSH1 0x40 MSTORE JUMP JUMPDEST PUSH4 0x4E487B71 PUSH1 0xE0 SHL PUSH1 0x0 MSTORE PUSH1 0x41 PUSH1 0x4 MSTORE PUSH1 0x24 PUSH1 0x0 REVERT JUMPDEST MLOAD SWAP1 PUSH1 0x1 PUSH1 0x1 PUSH1 0xA0 SHL SUB DUP3 AND DUP3 SUB PUSH3 0x2CB JUMPI JUMP INVALID PUSH1 0x80 DUP1 PUSH1 0x40 MSTORE PUSH1 0x4 CALLDATASIZE LT ISZERO PUSH2 0x1D JUMPI JUMPDEST POP CALLDATASIZE ISZERO PUSH2 0x1B JUMPI PUSH1 0x0 DUP1 REVERT JUMPDEST STOP JUMPDEST PUSH1 0x0 SWAP1 DUP2 CALLDATALOAD PUSH1 0xE0 SHR SWAP1 DUP2 PUSH4 0x3684D100 EQ PUSH2 0x24B5 JUMPI POP DUP1 PUSH4 0x376C1F07 EQ PUSH2 0x225B JUMPI DUP1 PUSH4 0x3E22876B EQ PUSH2 0x2216 JUMPI DUP1 PUSH4 0x5C42E667 EQ PUSH2 0x21D1 JUMPI DUP1 PUSH4 0x5E63149F EQ PUSH2 0x218C JUMPI DUP1 PUSH4 0xB9408F5C EQ PUSH2 0x1404 JUMPI DUP1 PUSH4 0xD70A0ABC EQ PUSH2 0xB8 JUMPI PUSH4 0xFCF66664 SUB PUSH2 0xF JUMPI CALLVALUE PUSH2 0xB5 JUMPI PUSH1 0x20 CALLDATASIZE PUSH1 0x3 NOT ADD SLT PUSH2 0xB5 JUMPI PUSH1 0x20 SWAP1 PUSH1 0x40 SWAP1 PUSH1 0x1 PUSH1 0x1 PUSH1 0xA0 SHL SUB PUSH2 0xA5 PUSH2 0x24F8 JUMP JUMPDEST AND DUP2 MSTORE DUP1 DUP4 MSTORE KECCAK256 SLOAD PUSH1 0x40 MLOAD SWAP1 DUP2 MSTORE RETURN JUMPDEST DUP1 REVERT JUMPDEST POP PUSH1 0x40 CALLDATASIZE PUSH1 0x3 NOT ADD SLT PUSH2 0xB5 JUMPI PUSH2 0xCD PUSH2 0x24F8 JUMP JUMPDEST PUSH2 0xD5 PUSH2 0x2513 JUMP JUMPDEST PUSH2 0x114 DUP3 PUSH1 0x40 MLOAD PUSH2 0xE5 DUP2 PUSH2 0x256D JUMP JUMPDEST PUSH1 0x17 DUP2 MSTORE PUSH32 0x5374617274696E67206D6967726174696F6E20666F723A000000000000000000 PUSH1 0x20 DUP3 ADD MSTORE PUSH2 0x2BED JUMP JUMPDEST PUSH1 0x40 MLOAD PUSH1 0x20 DUP2 MSTORE PUSH1 0x12 PUSH1 0x20 DUP3 ADD MSTORE PUSH18 0x29BA30B93A34B7339036B4B3B930BA34B7B7 PUSH1 0x71 SHL PUSH1 0x40 DUP3 ADD MSTORE PUSH1 0x0 DUP1 MLOAD PUSH1 0x20 PUSH2 0x2C3E DUP4 CODECOPY DUP2 MLOAD SWAP2 MSTORE PUSH1 0x60 PUSH1 0x1 DUP1 PUSH1 0xA0 SHL SUB DUP6 AND SWAP3 LOG2 PUSH1 0x40 MLOAD PUSH4 0x5C975ABB PUSH1 0xE0 SHL DUP2 MSTORE PUSH1 0x20 DUP2 PUSH1 0x4 DUP2 PUSH32 0x0 PUSH1 0x1 PUSH1 0x1 PUSH1 0xA0 SHL SUB AND GAS STATICCALL DUP1 ISZERO PUSH2 0x1397 JUMPI PUSH2 0x1B0 SWAP2 DUP6 SWAP2 PUSH2 0x13E5 JUMPI JUMPDEST POP ISZERO PUSH2 0x263E JUMP JUMPDEST PUSH1 0x40 MLOAD PUSH2 0x1BC DUP2 PUSH2 0x256D JUMP JUMPDEST PUSH1 0x13 DUP2 MSTORE PUSH2 0x1E6 PUSH19 0x141C9BDD1BD8DBDB081B9BDD081C185D5CD959 PUSH1 0x6A SHL SWAP2 DUP3 PUSH1 0x20 DUP3 ADD MSTORE PUSH2 0x2BAC JUMP JUMPDEST PUSH1 0x40 MLOAD SWAP1 PUSH1 0x20 DUP3 MSTORE PUSH1 0x13 PUSH1 0x20 DUP4 ADD MSTORE PUSH1 0x40 DUP3 ADD MSTORE PUSH1 0x0 DUP1 MLOAD PUSH1 0x20 PUSH2 0x2C3E DUP4 CODECOPY DUP2 MLOAD SWAP2 MSTORE PUSH1 0x60 PUSH1 0x1 DUP1 PUSH1 0xA0 SHL SUB DUP6 AND SWAP3 LOG2 PUSH1 0x40 MLOAD PUSH4 0x8DA5CB5B PUSH1 0xE0 SHL DUP2 MSTORE PUSH1 0x20 DUP2 PUSH1 0x4 DUP2 PUSH1 0x1 PUSH1 0x1 PUSH1 0xA0 SHL SUB DUP8 AND GAS STATICCALL SWAP1 DUP2 ISZERO PUSH2 0x1397 JUMPI DUP5 SWAP2 PUSH2 0x13C6 JUMPI JUMPDEST POP PUSH2 0x274 DUP2 PUSH1 0x40 MLOAD PUSH2 0x254 DUP2 PUSH2 0x256D JUMP JUMPDEST PUSH1 0xE DUP2 MSTORE PUSH14 0x21BAB93932B73A1037BBB732B91D PUSH1 0x91 SHL PUSH1 0x20 DUP3 ADD MSTORE PUSH2 0x2BED JUMP JUMPDEST PUSH2 0x27D CALLER PUSH2 0x2AA8 JUMP JUMPDEST SWAP1 PUSH2 0x300 PUSH1 0x3F PUSH2 0x28C DUP4 PUSH2 0x2AA8 JUMP JUMPDEST SWAP4 PUSH1 0x40 MLOAD SWAP5 DUP6 SWAP2 PUSH32 0x496E76616C6964206F776E65722E2045787065637465643A2000000000000000 PUSH1 0x20 DUP5 ADD MSTORE PUSH2 0x2CD DUP2 MLOAD DUP1 SWAP3 PUSH1 0x20 PUSH1 0x39 DUP8 ADD SWAP2 ADD PUSH2 0x267F JUMP JUMPDEST DUP3 ADD PUSH6 0x1023B7BA1D1 PUSH1 0xD5 SHL PUSH1 0x39 DUP3 ADD MSTORE PUSH2 0x2F1 DUP3 MLOAD DUP1 SWAP4 PUSH1 0x20 DUP8 DUP6 ADD SWAP2 ADD PUSH2 0x267F JUMP JUMPDEST ADD SUB PUSH1 0x1F DUP2 ADD DUP6 MSTORE ADD DUP4 PUSH2 0x25A3 JUMP JUMPDEST CALLER PUSH1 0x1 PUSH1 0x1 PUSH1 0xA0 SHL SUB SWAP1 SWAP2 AND SUB PUSH2 0x13A2 JUMPI POP PUSH1 0x40 MLOAD PUSH2 0x31E DUP2 PUSH2 0x256D JUMP JUMPDEST PUSH1 0x12 DUP2 MSTORE PUSH2 0x347 PUSH18 0x13DDDB995C9CDA1A5C081D995C9A599A5959 PUSH1 0x72 SHL SWAP2 DUP3 PUSH1 0x20 DUP3 ADD MSTORE PUSH2 0x2BAC JUMP JUMPDEST PUSH1 0x40 MLOAD SWAP1 PUSH1 0x20 DUP3 MSTORE PUSH1 0x12 PUSH1 0x20 DUP4 ADD MSTORE PUSH1 0x40 DUP3 ADD MSTORE PUSH1 0x0 DUP1 MLOAD PUSH1 0x20 PUSH2 0x2C3E DUP4 CODECOPY DUP2 MLOAD SWAP2 MSTORE PUSH1 0x60 PUSH1 0x1 DUP1 PUSH1 0xA0 SHL SUB DUP6 AND SWAP3 LOG2 PUSH1 0x40 MLOAD PUSH4 0xB19E319 PUSH1 0xE2 SHL DUP2 MSTORE PUSH1 0x20 DUP2 PUSH1 0x4 DUP2 PUSH1 0x1 PUSH1 0x1 PUSH1 0xA0 SHL SUB DUP8 AND GAS STATICCALL SWAP1 DUP2 ISZERO PUSH2 0x1397 JUMPI DUP5 SWAP2 PUSH2 0x1368 JUMPI JUMPDEST POP PUSH2 0x132B JUMPI PUSH1 0x40 MLOAD SWAP2 PUSH2 0x3B6 DUP4 PUSH2 0x256D JUMP JUMPDEST PUSH1 0x18 SWAP3 DUP4 DUP2 MSTORE PUSH2 0x3EC PUSH32 0x4D6967726174696F6E2073746174757320636865636B65640000000000000000 SWAP2 DUP3 PUSH1 0x20 DUP3 ADD MSTORE PUSH2 0x2BAC JUMP JUMPDEST PUSH1 0x40 MLOAD SWAP1 PUSH1 0x20 DUP3 MSTORE DUP5 PUSH1 0x20 DUP4 ADD MSTORE PUSH1 0x40 DUP3 ADD MSTORE PUSH1 0x0 DUP1 MLOAD PUSH1 0x20 PUSH2 0x2C3E DUP4 CODECOPY DUP2 MLOAD SWAP2 MSTORE PUSH1 0x60 PUSH1 0x1 DUP1 PUSH1 0xA0 SHL SUB DUP5 AND SWAP3 LOG2 PUSH1 0x40 MLOAD PUSH4 0x74E5EC11 PUSH1 0xE1 SHL DUP2 MSTORE PUSH1 0x20 DUP2 PUSH1 0x4 DUP2 PUSH1 0x1 PUSH1 0x1 PUSH1 0xA0 SHL SUB DUP7 AND GAS STATICCALL DUP6 SWAP2 DUP2 PUSH2 0x12E7 JUMPI JUMPDEST POP PUSH2 0x4A9 JUMPI PUSH1 0x64 DUP5 PUSH1 0x40 MLOAD PUSH2 0x456 DUP2 PUSH2 0x256D JUMP JUMPDEST DUP2 DUP2 MSTORE PUSH2 0x489 PUSH32 0x4661696C656420746F2067657420737461626C65636F696E0000000000000000 SWAP2 DUP3 PUSH1 0x20 DUP3 ADD MSTORE PUSH2 0x2BAC JUMP JUMPDEST PUSH1 0x40 MLOAD SWAP2 PUSH3 0x461BCD PUSH1 0xE5 SHL DUP4 MSTORE PUSH1 0x20 PUSH1 0x4 DUP5 ADD MSTORE PUSH1 0x24 DUP4 ADD MSTORE PUSH1 0x44 DUP3 ADD MSTORE REVERT JUMPDEST PUSH1 0x1 DUP1 PUSH1 0xA0 SHL SUB AND PUSH2 0x4E8 DUP2 PUSH1 0x40 MLOAD PUSH2 0x4C1 DUP2 PUSH2 0x256D JUMP JUMPDEST PUSH1 0x15 DUP2 MSTORE PUSH21 0x29BA30B13632B1B7B4B7103932BA3934B2BB32B21D PUSH1 0x59 SHL PUSH1 0x20 DUP3 ADD MSTORE PUSH2 0x2BED JUMP JUMPDEST PUSH1 0x40 MLOAD PUSH1 0x20 DUP2 MSTORE PUSH1 0x14 PUSH1 0x20 DUP3 ADD MSTORE PUSH20 0x14DD18589B1958DBDA5B881C995D1C9A595D9959 PUSH1 0x62 SHL PUSH1 0x40 DUP3 ADD MSTORE PUSH1 0x0 DUP1 MLOAD PUSH1 0x20 PUSH2 0x2C3E DUP4 CODECOPY DUP2 MLOAD SWAP2 MSTORE PUSH1 0x60 PUSH1 0x1 DUP1 PUSH1 0xA0 SHL SUB DUP6 AND SWAP3 LOG2 PUSH1 0x40 MLOAD PUSH4 0x6FAD7E95 PUSH1 0xE1 SHL DUP2 MSTORE SWAP3 PUSH1 0x20 DUP5 PUSH1 0x4 DUP2 PUSH1 0x1 PUSH1 0x1 PUSH1 0xA0 SHL SUB DUP8 AND GAS STATICCALL DUP7 SWAP5 DUP2 PUSH2 0x12B6 JUMPI JUMPDEST POP PUSH2 0x5C0 JUMPI PUSH1 0x64 PUSH1 0x40 MLOAD PUSH2 0x56A DUP2 PUSH2 0x256D JUMP JUMPDEST PUSH1 0x1D DUP2 MSTORE PUSH2 0x59E PUSH32 0x4661696C656420746F20676574205753546F6B656E2061646472657373000000 SWAP2 DUP3 PUSH1 0x20 DUP3 ADD MSTORE PUSH2 0x2BAC JUMP JUMPDEST PUSH1 0x40 MLOAD SWAP1 PUSH3 0x461BCD PUSH1 0xE5 SHL DUP3 MSTORE PUSH1 0x20 PUSH1 0x4 DUP4 ADD MSTORE PUSH1 0x1D PUSH1 0x24 DUP4 ADD MSTORE PUSH1 0x44 DUP3 ADD MSTORE REVERT JUMPDEST PUSH2 0x5FF DUP5 PUSH1 0x40 MLOAD PUSH2 0x5D0 DUP2 PUSH2 0x256D JUMP JUMPDEST PUSH1 0x1A DUP2 MSTORE PUSH32 0x5753546F6B656E2061646472657373207265747269657665643A000000000000 PUSH1 0x20 DUP3 ADD MSTORE PUSH2 0x2BED JUMP JUMPDEST PUSH1 0x40 MLOAD PUSH1 0x20 DUP2 MSTORE PUSH1 0x19 PUSH1 0x20 DUP3 ADD MSTORE PUSH32 0x5753546F6B656E20616464726573732072657472696576656400000000000000 PUSH1 0x40 DUP3 ADD MSTORE PUSH1 0x0 DUP1 MLOAD PUSH1 0x20 PUSH2 0x2C3E DUP4 CODECOPY DUP2 MLOAD SWAP2 MSTORE PUSH1 0x60 PUSH1 0x1 DUP1 PUSH1 0xA0 SHL SUB DUP7 AND SWAP3 LOG2 PUSH1 0x1 PUSH1 0x1 PUSH1 0xA0 SHL SUB DUP5 AND ISZERO PUSH2 0x1271 JUMPI PUSH2 0x69B PUSH1 0x40 MLOAD PUSH2 0x66D DUP2 PUSH2 0x256D JUMP JUMPDEST DUP7 DUP2 MSTORE PUSH32 0x5753546F6B656E20616464726573732076657269666965640000000000000000 PUSH1 0x20 DUP3 ADD MSTORE PUSH2 0x2BAC JUMP JUMPDEST PUSH2 0x703 PUSH2 0x6C7 PUSH32 0x0 PUSH2 0x288B JUMP JUMPDEST DUP1 SWAP7 PUSH1 0x40 MLOAD SWAP1 PUSH2 0x6D6 DUP3 PUSH2 0x256D JUMP JUMPDEST DUP2 MSTORE PUSH32 0x4E6577207772617070656420736F6E6720636C6F6E65643A0000000000000000 PUSH1 0x20 DUP3 ADD MSTORE PUSH2 0x2BED JUMP JUMPDEST PUSH1 0x40 MLOAD PUSH1 0x20 DUP2 MSTORE PUSH1 0x17 PUSH1 0x20 DUP3 ADD MSTORE PUSH32 0x4E6577207772617070656420736F6E6720636C6F6E6564000000000000000000 PUSH1 0x40 DUP3 ADD MSTORE PUSH1 0x0 DUP1 MLOAD PUSH1 0x20 PUSH2 0x2C3E DUP4 CODECOPY DUP2 MLOAD SWAP2 MSTORE PUSH1 0x60 PUSH1 0x1 DUP1 PUSH1 0xA0 SHL SUB DUP9 AND SWAP3 LOG2 PUSH1 0x1 PUSH1 0x1 PUSH1 0xA0 SHL SUB DUP6 AND EXTCODESIZE ISZERO PUSH2 0x1219 JUMPI PUSH1 0x40 MLOAD PUSH4 0xC0C53B8B PUSH1 0xE0 SHL DUP2 MSTORE PUSH1 0x1 PUSH1 0x1 PUSH1 0xA0 SHL SUB DUP4 DUP2 AND PUSH1 0x4 DUP4 ADD MSTORE CALLER PUSH1 0x24 DUP4 ADD MSTORE PUSH32 0x0 AND PUSH1 0x44 DUP3 ADD MSTORE DUP7 DUP1 DUP3 DUP1 PUSH1 0x64 DUP2 ADD SUB DUP2 DUP4 PUSH1 0x1 PUSH1 0x1 PUSH1 0xA0 SHL SUB DUP13 AND GAS CALL SWAP2 DUP3 PUSH2 0x125D JUMPI JUMPDEST POP POP PUSH2 0x980 JUMPI DUP6 DUP1 PUSH1 0x3 RETURNDATASIZE GT PUSH2 0x96F JUMPI JUMPDEST POP PUSH4 0x8C379A0 EQ PUSH2 0x85F JUMPI JUMPDEST PUSH1 0x84 PUSH1 0x40 MLOAD PUSH2 0x7F6 DUP2 PUSH2 0x2588 JUMP JUMPDEST PUSH1 0x24 DUP2 MSTORE PUSH32 0x496E697469616C697A65206661696C6564207769746820756E6B6E6F776E2065 SWAP1 DUP2 PUSH1 0x20 DUP3 ADD MSTORE PUSH2 0x839 PUSH4 0x393937B9 PUSH1 0xE1 SHL SWAP2 DUP3 PUSH1 0x40 DUP3 ADD MSTORE PUSH2 0x2BAC JUMP JUMPDEST PUSH1 0x40 MLOAD SWAP2 PUSH3 0x461BCD PUSH1 0xE5 SHL DUP4 MSTORE PUSH1 0x20 PUSH1 0x4 DUP5 ADD MSTORE PUSH1 0x24 DUP1 DUP5 ADD MSTORE PUSH1 0x44 DUP4 ADD MSTORE PUSH1 0x64 DUP3 ADD MSTORE REVERT JUMPDEST PUSH2 0x867 PUSH2 0x2A3A JUMP JUMPDEST DUP1 PUSH2 0x872 JUMPI POP PUSH2 0x7E8 JUMP JUMPDEST PUSH2 0x96B SWAP1 PUSH1 0x0 DUP1 PUSH1 0x40 MLOAD PUSH2 0x885 DUP2 PUSH2 0x256D JUMP JUMPDEST PUSH1 0x12 DUP2 MSTORE PUSH18 0x24B734BA34B0B634BD32903330B4B632B21D PUSH1 0x71 SHL PUSH1 0x20 DUP3 ADD MSTORE PUSH1 0x40 MLOAD PUSH2 0x8F1 DUP2 PUSH2 0x8E3 PUSH2 0x8D1 PUSH1 0x20 DUP4 ADD SWAP6 PUSH4 0x4B5C4277 PUSH1 0xE0 SHL DUP8 MSTORE PUSH1 0x40 PUSH1 0x24 DUP6 ADD MSTORE PUSH1 0x64 DUP5 ADD SWAP1 PUSH2 0x27C6 JUMP JUMPDEST DUP3 DUP2 SUB PUSH1 0x23 NOT ADD PUSH1 0x44 DUP5 ADD MSTORE DUP9 PUSH2 0x27C6 JUMP JUMPDEST SUB PUSH1 0x1F NOT DUP2 ADD DUP4 MSTORE DUP3 PUSH2 0x25A3 JUMP JUMPDEST MLOAD SWAP1 PUSH11 0x636F6E736F6C652E6C6F67 GAS STATICCALL POP PUSH2 0x94B PUSH1 0x33 PUSH1 0x40 MLOAD DUP1 SWAP4 PUSH19 0x24B734BA34B0B634BD32903330B4B632B21D1 PUSH1 0x6D SHL PUSH1 0x20 DUP4 ADD MSTORE PUSH2 0x93B DUP2 MLOAD DUP1 SWAP3 PUSH1 0x20 DUP7 DUP7 ADD SWAP2 ADD PUSH2 0x267F JUMP JUMPDEST DUP2 ADD SUB PUSH1 0x13 DUP2 ADD DUP5 MSTORE ADD DUP3 PUSH2 0x25A3 JUMP JUMPDEST PUSH1 0x40 MLOAD PUSH3 0x461BCD PUSH1 0xE5 SHL DUP2 MSTORE PUSH1 0x20 PUSH1 0x4 DUP3 ADD MSTORE SWAP2 DUP3 SWAP2 PUSH1 0x24 DUP4 ADD SWAP1 PUSH2 0x27C6 JUMP JUMPDEST SUB SWAP1 REVERT JUMPDEST SWAP1 POP PUSH1 0x4 DUP2 DUP1 RETURNDATACOPY MLOAD PUSH1 0xE0 SHR DUP2 PUSH2 0x7DC JUMP JUMPDEST PUSH1 0x40 MLOAD PUSH2 0x98C DUP2 PUSH2 0x256D JUMP JUMPDEST PUSH1 0x1C DUP2 MSTORE PUSH2 0x9C0 PUSH32 0x4E6577207772617070656420736F6E6720696E697469616C697A656400000000 SWAP2 DUP3 PUSH1 0x20 DUP3 ADD MSTORE PUSH2 0x2BAC JUMP JUMPDEST PUSH1 0x40 MLOAD SWAP1 PUSH1 0x20 DUP3 MSTORE PUSH1 0x1C PUSH1 0x20 DUP4 ADD MSTORE PUSH1 0x40 DUP3 ADD MSTORE PUSH1 0x0 DUP1 MLOAD PUSH1 0x20 PUSH2 0x2C3E DUP4 CODECOPY DUP2 MLOAD SWAP2 MSTORE PUSH1 0x60 PUSH1 0x1 DUP1 PUSH1 0xA0 SHL SUB DUP9 AND SWAP3 LOG2 PUSH32 0x0 PUSH1 0x1 PUSH1 0x1 PUSH1 0xA0 SHL SUB AND EXTCODESIZE ISZERO PUSH2 0x1219 JUMPI PUSH1 0x40 MLOAD PUSH4 0xD9CE7B95 PUSH1 0xE0 SHL DUP2 MSTORE PUSH1 0x1 PUSH1 0x1 PUSH1 0xA0 SHL SUB DUP6 DUP2 AND PUSH1 0x4 DUP4 ADD MSTORE DUP8 SWAP1 DUP2 SWAP1 DUP4 SWAP1 PUSH1 0x24 SWAP1 DUP3 SWAP1 DUP5 SWAP1 PUSH32 0x0 AND GAS CALL SWAP2 DUP3 PUSH2 0x1249 JUMPI JUMPDEST POP POP PUSH2 0xAF0 JUMPI PUSH1 0x84 PUSH1 0x40 MLOAD PUSH2 0xA89 DUP2 PUSH2 0x2588 JUMP JUMPDEST PUSH1 0x21 DUP2 MSTORE PUSH32 0x4661696C656420746F20736574205753546F6B656E20696E2070726F746F636F SWAP1 DUP2 PUSH1 0x20 DUP3 ADD MSTORE PUSH2 0xAC9 PUSH1 0x1B PUSH1 0xFA SHL SWAP2 DUP3 PUSH1 0x40 DUP3 ADD MSTORE PUSH2 0x2BAC JUMP JUMPDEST PUSH1 0x40 MLOAD SWAP2 PUSH3 0x461BCD PUSH1 0xE5 SHL DUP4 MSTORE PUSH1 0x20 PUSH1 0x4 DUP5 ADD MSTORE PUSH1 0x21 PUSH1 0x24 DUP5 ADD MSTORE PUSH1 0x44 DUP4 ADD MSTORE PUSH1 0x64 DUP3 ADD MSTORE REVERT JUMPDEST PUSH1 0x40 MLOAD PUSH2 0xAFC DUP2 PUSH2 0x256D JUMP JUMPDEST PUSH1 0x17 DUP2 MSTORE PUSH2 0xB30 PUSH32 0x5753546F6B656E2073657420696E2070726F746F636F6C000000000000000000 SWAP2 DUP3 PUSH1 0x20 DUP3 ADD MSTORE PUSH2 0x2BAC JUMP JUMPDEST PUSH1 0x40 MLOAD SWAP1 PUSH1 0x20 DUP3 MSTORE PUSH1 0x17 PUSH1 0x20 DUP4 ADD MSTORE PUSH1 0x40 DUP3 ADD MSTORE PUSH1 0x0 DUP1 MLOAD PUSH1 0x20 PUSH2 0x2C3E DUP4 CODECOPY DUP2 MLOAD SWAP2 MSTORE PUSH1 0x60 PUSH1 0x1 DUP1 PUSH1 0xA0 SHL SUB DUP9 AND SWAP3 LOG2 PUSH32 0x0 PUSH1 0x1 PUSH1 0x1 PUSH1 0xA0 SHL SUB AND EXTCODESIZE ISZERO PUSH2 0x1219 JUMPI PUSH1 0x40 MLOAD PUSH3 0x8AC83 PUSH1 0xE0 SHL DUP2 MSTORE PUSH1 0x1 PUSH1 0x1 PUSH1 0xA0 SHL SUB DUP1 DUP8 AND PUSH1 0x4 DUP4 ADD MSTORE DUP6 AND PUSH1 0x24 DUP3 ADD MSTORE DUP7 DUP1 DUP3 DUP1 PUSH1 0x44 DUP2 ADD SUB DUP2 DUP4 PUSH32 0x0 PUSH1 0x1 PUSH1 0x1 PUSH1 0xA0 SHL SUB AND GAS CALL SWAP2 DUP3 PUSH2 0x1235 JUMPI JUMPDEST POP POP PUSH2 0xC71 JUMPI PUSH1 0x84 PUSH1 0x40 MLOAD PUSH2 0xC05 DUP2 PUSH2 0x2588 JUMP JUMPDEST PUSH1 0x26 DUP2 MSTORE PUSH32 0x4661696C656420746F2073657420736D617274206163636F756E7420746F2057 SWAP1 DUP2 PUSH1 0x20 DUP3 ADD MSTORE PUSH2 0xC4A PUSH6 0x29AA37B5B2B7 PUSH1 0xD1 SHL SWAP2 DUP3 PUSH1 0x40 DUP3 ADD MSTORE PUSH2 0x2BAC JUMP JUMPDEST PUSH1 0x40 MLOAD SWAP2 PUSH3 0x461BCD PUSH1 0xE5 SHL DUP4 MSTORE PUSH1 0x20 PUSH1 0x4 DUP5 ADD MSTORE PUSH1 0x26 PUSH1 0x24 DUP5 ADD MSTORE PUSH1 0x44 DUP4 ADD MSTORE PUSH1 0x64 DUP3 ADD MSTORE REVERT JUMPDEST PUSH1 0x40 MLOAD PUSH2 0xC7D DUP2 PUSH2 0x2588 JUMP JUMPDEST PUSH1 0x29 DUP2 MSTORE PUSH32 0x536D617274206163636F756E7420746F205753546F6B656E2072656C6174696F SWAP1 DUP2 PUSH1 0x20 DUP3 ADD MSTORE PUSH2 0xCC5 PUSH9 0x1B9CDA1A5C081CD95D PUSH1 0xBA SHL SWAP2 DUP3 PUSH1 0x40 DUP3 ADD MSTORE PUSH2 0x2BAC JUMP JUMPDEST PUSH1 0x40 MLOAD SWAP2 PUSH1 0x20 DUP4 MSTORE PUSH1 0x29 PUSH1 0x20 DUP5 ADD MSTORE PUSH1 0x40 DUP4 ADD MSTORE PUSH1 0x60 DUP3 ADD MSTORE PUSH1 0x0 DUP1 MLOAD PUSH1 0x20 PUSH2 0x2C3E DUP4 CODECOPY DUP2 MLOAD SWAP2 MSTORE PUSH1 0x80 PUSH1 0x1 DUP1 PUSH1 0xA0 SHL SUB DUP9 AND SWAP3 LOG2 PUSH32 0x0 PUSH1 0x1 PUSH1 0x1 PUSH1 0xA0 SHL SUB AND EXTCODESIZE ISZERO PUSH2 0x1219 JUMPI PUSH1 0x40 MLOAD PUSH1 0x1 PUSH3 0x16EF61 PUSH1 0xE3 SHL SUB NOT DUP2 MSTORE CALLER PUSH1 0x4 DUP3 ADD MSTORE PUSH1 0x1 PUSH1 0x1 PUSH1 0xA0 SHL SUB DUP7 AND PUSH1 0x24 DUP3 ADD MSTORE DUP7 DUP1 DUP3 DUP1 PUSH1 0x44 DUP2 ADD SUB DUP2 DUP4 PUSH32 0x0 PUSH1 0x1 PUSH1 0x1 PUSH1 0xA0 SHL SUB AND GAS CALL SWAP2 DUP3 PUSH2 0x121D JUMPI JUMPDEST POP POP PUSH2 0xDF7 JUMPI PUSH1 0x64 PUSH1 0x40 MLOAD PUSH2 0xDA1 DUP2 PUSH2 0x256D JUMP JUMPDEST PUSH1 0x1F DUP2 MSTORE PUSH2 0xDD5 PUSH32 0x4661696C656420746F20736574206F776E657220696E2070726F746F636F6C00 SWAP2 DUP3 PUSH1 0x20 DUP3 ADD MSTORE PUSH2 0x2BAC JUMP JUMPDEST PUSH1 0x40 MLOAD SWAP1 PUSH3 0x461BCD PUSH1 0xE5 SHL DUP3 MSTORE PUSH1 0x20 PUSH1 0x4 DUP4 ADD MSTORE PUSH1 0x1F PUSH1 0x24 DUP4 ADD MSTORE PUSH1 0x44 DUP3 ADD MSTORE REVERT JUMPDEST PUSH1 0x40 MLOAD PUSH2 0xE03 DUP2 PUSH2 0x256D JUMP JUMPDEST PUSH1 0x15 DUP2 MSTORE PUSH2 0xE2F PUSH21 0x13DDDB995C881CD95D081A5B881C1C9BDD1BD8DBDB PUSH1 0x5A SHL SWAP2 DUP3 PUSH1 0x20 DUP3 ADD MSTORE PUSH2 0x2BAC JUMP JUMPDEST PUSH1 0x40 MLOAD SWAP1 PUSH1 0x20 DUP3 MSTORE PUSH1 0x15 PUSH1 0x20 DUP4 ADD MSTORE PUSH1 0x40 DUP3 ADD MSTORE PUSH1 0x0 DUP1 MLOAD PUSH1 0x20 PUSH2 0x2C3E DUP4 CODECOPY DUP2 MLOAD SWAP2 MSTORE PUSH1 0x60 PUSH1 0x1 DUP1 PUSH1 0xA0 SHL SUB DUP9 AND SWAP3 LOG2 PUSH1 0x1 PUSH1 0x1 PUSH1 0xA0 SHL SUB DUP6 AND EXTCODESIZE ISZERO PUSH2 0x1219 JUMPI PUSH1 0x40 MLOAD PUSH4 0x716F6E87 PUSH1 0xE0 SHL DUP2 MSTORE PUSH1 0x1 PUSH1 0x1 PUSH1 0xA0 SHL SUB DUP6 DUP2 AND PUSH1 0x4 DUP4 ADD MSTORE DUP8 SWAP2 SWAP1 DUP3 SWAP1 DUP3 SWAP1 PUSH1 0x24 SWAP1 DUP3 SWAP1 DUP5 SWAP1 DUP13 AND GAS CALL DUP1 ISZERO PUSH2 0x120E JUMPI PUSH2 0x11FA JUMPI JUMPDEST POP PUSH1 0x24 SWAP2 PUSH1 0x40 MLOAD PUSH2 0xEB9 DUP2 PUSH2 0x256D JUMP JUMPDEST PUSH1 0x16 DUP2 MSTORE PUSH2 0xEE6 PUSH22 0x15D4D51BDAD95B881B585B9859D95B595B9D081CD95D PUSH1 0x52 SHL SWAP2 DUP3 PUSH1 0x20 DUP3 ADD MSTORE PUSH2 0x2BAC JUMP JUMPDEST PUSH1 0x40 MLOAD SWAP1 PUSH1 0x20 DUP3 MSTORE PUSH1 0x16 PUSH1 0x20 DUP4 ADD MSTORE PUSH1 0x40 DUP3 ADD MSTORE PUSH1 0x0 DUP1 MLOAD PUSH1 0x20 PUSH2 0x2C3E DUP4 CODECOPY DUP2 MLOAD SWAP2 MSTORE PUSH1 0x60 PUSH1 0x1 DUP1 PUSH1 0xA0 SHL SUB DUP11 AND SWAP3 LOG2 PUSH1 0x40 MLOAD PUSH4 0x1A4E6DD PUSH1 0xE5 SHL DUP2 MSTORE PUSH1 0x1 PUSH1 0x1 PUSH1 0xA0 SHL SUB DUP7 DUP2 AND PUSH1 0x4 DUP4 ADD MSTORE SWAP1 SWAP4 DUP5 SWAP3 SWAP1 SWAP2 DUP4 SWAP2 AND GAS STATICCALL SWAP1 DUP2 ISZERO PUSH2 0x11A8 JUMPI DUP7 SWAP2 PUSH2 0x11E0 JUMPI JUMPDEST POP PUSH1 0x40 MLOAD PUSH2 0xF59 DUP2 PUSH2 0x256D JUMP JUMPDEST PUSH1 0x16 DUP2 MSTORE PUSH2 0xF86 PUSH22 0x13DB19081B595D1859185D18481C995D1C9A595D9959 PUSH1 0x52 SHL SWAP2 DUP3 PUSH1 0x20 DUP3 ADD MSTORE PUSH2 0x2BAC JUMP JUMPDEST PUSH1 0x40 MLOAD SWAP1 PUSH1 0x20 DUP3 MSTORE PUSH1 0x16 PUSH1 0x20 DUP4 ADD MSTORE PUSH1 0x40 DUP3 ADD MSTORE PUSH1 0x0 DUP1 MLOAD PUSH1 0x20 PUSH2 0x2C3E DUP4 CODECOPY DUP2 MLOAD SWAP2 MSTORE PUSH1 0x60 PUSH1 0x1 DUP1 PUSH1 0xA0 SHL SUB DUP9 AND SWAP3 LOG2 PUSH1 0x40 MLOAD PUSH4 0x6613680D PUSH1 0xE0 SHL DUP2 MSTORE PUSH32 0x0 PUSH1 0x1 PUSH1 0x1 PUSH1 0xA0 SHL SUB AND SWAP2 DUP8 SWAP1 DUP3 SWAP1 DUP2 SWAP1 PUSH2 0x1002 SWAP1 DUP11 PUSH1 0x4 DUP5 ADD PUSH2 0x2869 JUMP JUMPDEST SUB DUP2 DUP4 DUP7 GAS CALL DUP1 ISZERO PUSH2 0x11D5 JUMPI PUSH2 0x11B3 JUMPI JUMPDEST POP PUSH1 0x40 MLOAD PUSH2 0x1020 DUP2 PUSH2 0x256D JUMP JUMPDEST PUSH1 0x14 DUP2 MSTORE PUSH2 0x104B PUSH20 0x13995DC81B595D1859185D184818DC99585D1959 PUSH1 0x62 SHL SWAP2 DUP3 PUSH1 0x20 DUP3 ADD MSTORE PUSH2 0x2BAC JUMP JUMPDEST PUSH1 0x40 MLOAD SWAP1 PUSH1 0x20 DUP3 MSTORE PUSH1 0x14 PUSH1 0x20 DUP4 ADD MSTORE PUSH1 0x40 DUP3 ADD MSTORE PUSH1 0x0 DUP1 MLOAD PUSH1 0x20 PUSH2 0x2C3E DUP4 CODECOPY DUP2 MLOAD SWAP2 MSTORE PUSH1 0x60 PUSH1 0x1 DUP1 PUSH1 0xA0 SHL SUB DUP9 AND SWAP3 LOG2 DUP6 PUSH1 0x1 PUSH1 0x1 PUSH1 0xA0 SHL SUB DUP5 AND EXTCODESIZE ISZERO PUSH2 0xB5 JUMPI PUSH1 0x40 MLOAD PUSH4 0x35C282AF PUSH1 0xE2 SHL DUP2 MSTORE PUSH1 0x1 PUSH1 0x1 PUSH1 0xA0 SHL SUB SWAP3 DUP4 AND PUSH1 0x4 DUP3 ADD MSTORE SWAP2 DUP7 AND PUSH1 0x24 DUP4 ADD MSTORE DUP2 DUP1 PUSH1 0x44 DUP2 ADD SUB DUP2 DUP4 PUSH1 0x1 PUSH1 0x1 PUSH1 0xA0 SHL SUB DUP9 AND GAS CALL DUP1 ISZERO PUSH2 0x11A8 JUMPI PUSH2 0x1190 JUMPI JUMPDEST POP PUSH1 0x20 SWAP5 POP PUSH1 0x40 MLOAD PUSH2 0x10E2 DUP2 PUSH2 0x256D JUMP JUMPDEST PUSH1 0x11 DUP2 MSTORE PUSH2 0x1109 PUSH17 0x13DB19081CDBDB99C81B5A59DC985D1959 PUSH1 0x7A SHL SWAP2 DUP3 DUP9 DUP3 ADD MSTORE PUSH2 0x2BAC JUMP JUMPDEST PUSH1 0x40 MLOAD SWAP1 DUP7 DUP3 MSTORE PUSH1 0x11 DUP8 DUP4 ADD MSTORE PUSH1 0x40 DUP3 ADD MSTORE PUSH1 0x0 DUP1 MLOAD PUSH1 0x20 PUSH2 0x2C3E DUP4 CODECOPY DUP2 MLOAD SWAP2 MSTORE PUSH1 0x60 PUSH1 0x1 DUP1 PUSH1 0xA0 SHL SUB DUP8 AND SWAP3 LOG2 PUSH1 0x40 DUP1 MLOAD PUSH1 0x1 PUSH1 0x1 PUSH1 0xA0 SHL SUB SWAP3 DUP4 AND DUP2 MSTORE SWAP4 DUP3 AND PUSH1 0x20 DUP6 ADD MSTORE CALLER SWAP4 DUP6 DUP4 AND SWAP4 SWAP1 SWAP3 AND SWAP2 PUSH32 0xC42CDC1CEA8AFC407EC500712A997B1D17D698AE57762E29810084B83A295A54 SWAP2 SWAP1 LOG4 PUSH1 0x40 MLOAD PUSH1 0x1 PUSH1 0x1 PUSH1 0xA0 SHL SUB SWAP1 SWAP2 AND DUP2 MSTORE RETURN JUMPDEST PUSH2 0x119A DUP7 SWAP2 PUSH2 0x255A JUMP JUMPDEST PUSH2 0x11A4 JUMPI DUP5 PUSH2 0x10D1 JUMP JUMPDEST DUP5 DUP1 REVERT JUMPDEST PUSH1 0x40 MLOAD RETURNDATASIZE DUP9 DUP3 RETURNDATACOPY RETURNDATASIZE SWAP1 REVERT JUMPDEST PUSH2 0x11CE SWAP1 RETURNDATASIZE DUP1 DUP10 DUP4 RETURNDATACOPY PUSH2 0x11C6 DUP2 DUP4 PUSH2 0x25A3 JUMP JUMPDEST DUP2 ADD SWAP1 PUSH2 0x26E7 JUMP JUMPDEST POP CODESIZE PUSH2 0x1013 JUMP JUMPDEST PUSH1 0x40 MLOAD RETURNDATASIZE DUP10 DUP3 RETURNDATACOPY RETURNDATASIZE SWAP1 REVERT JUMPDEST PUSH2 0x11F4 SWAP2 POP RETURNDATASIZE DUP1 DUP9 DUP4 RETURNDATACOPY PUSH2 0x11C6 DUP2 DUP4 PUSH2 0x25A3 JUMP JUMPDEST CODESIZE PUSH2 0xF4C JUMP JUMPDEST PUSH2 0x1204 DUP3 SWAP2 PUSH2 0x255A JUMP JUMPDEST PUSH2 0xB5 JUMPI CODESIZE PUSH2 0xEA9 JUMP JUMPDEST PUSH1 0x40 MLOAD RETURNDATASIZE DUP5 DUP3 RETURNDATACOPY RETURNDATASIZE SWAP1 REVERT JUMPDEST DUP6 DUP1 REVERT JUMPDEST PUSH2 0x1226 SWAP1 PUSH2 0x255A JUMP JUMPDEST PUSH2 0x1231 JUMPI DUP7 CODESIZE PUSH2 0xD8D JUMP JUMPDEST DUP7 DUP1 REVERT JUMPDEST PUSH2 0x123E SWAP1 PUSH2 0x255A JUMP JUMPDEST PUSH2 0x1231 JUMPI DUP7 CODESIZE PUSH2 0xBF1 JUMP JUMPDEST PUSH2 0x1252 SWAP1 PUSH2 0x255A JUMP JUMPDEST PUSH2 0x1231 JUMPI DUP7 CODESIZE PUSH2 0xA75 JUMP JUMPDEST PUSH2 0x1266 SWAP1 PUSH2 0x255A JUMP JUMPDEST PUSH2 0x1231 JUMPI DUP7 CODESIZE PUSH2 0x7CB JUMP JUMPDEST PUSH1 0x40 MLOAD PUSH3 0x461BCD PUSH1 0xE5 SHL DUP2 MSTORE PUSH1 0x20 PUSH1 0x4 DUP3 ADD MSTORE PUSH1 0x17 PUSH1 0x24 DUP3 ADD MSTORE PUSH32 0x496E76616C6964205753546F6B656E2061646472657373000000000000000000 PUSH1 0x44 DUP3 ADD MSTORE PUSH1 0x64 SWAP1 REVERT JUMPDEST PUSH2 0x12D9 SWAP2 SWAP6 POP PUSH1 0x20 RETURNDATASIZE PUSH1 0x20 GT PUSH2 0x12E0 JUMPI JUMPDEST PUSH2 0x12D1 DUP2 DUP4 PUSH2 0x25A3 JUMP JUMPDEST DUP2 ADD SWAP1 PUSH2 0x2946 JUMP JUMPDEST SWAP4 CODESIZE PUSH2 0x557 JUMP JUMPDEST POP RETURNDATASIZE PUSH2 0x12C7 JUMP JUMPDEST SWAP1 SWAP2 POP PUSH1 0x20 DUP2 RETURNDATASIZE PUSH1 0x20 GT PUSH2 0x1323 JUMPI JUMPDEST DUP2 PUSH2 0x1303 PUSH1 0x20 SWAP4 DUP4 PUSH2 0x25A3 JUMP JUMPDEST DUP2 ADD SUB SLT PUSH2 0x1219 JUMPI MLOAD PUSH1 0x1 PUSH1 0x1 PUSH1 0xA0 SHL SUB DUP2 AND DUP2 SUB PUSH2 0x1219 JUMPI SWAP1 CODESIZE PUSH2 0x442 JUMP JUMPDEST RETURNDATASIZE SWAP2 POP PUSH2 0x12F6 JUMP JUMPDEST PUSH1 0x40 MLOAD PUSH3 0x461BCD PUSH1 0xE5 SHL DUP2 MSTORE PUSH1 0x20 PUSH1 0x4 DUP3 ADD MSTORE PUSH1 0x15 PUSH1 0x24 DUP3 ADD MSTORE PUSH21 0x14DBDB99C8185B1C9958591E481B5A59DC985D1959 PUSH1 0x5A SHL PUSH1 0x44 DUP3 ADD MSTORE PUSH1 0x64 SWAP1 REVERT JUMPDEST PUSH2 0x138A SWAP2 POP PUSH1 0x20 RETURNDATASIZE PUSH1 0x20 GT PUSH2 0x1390 JUMPI JUMPDEST PUSH2 0x1382 DUP2 DUP4 PUSH2 0x25A3 JUMP JUMPDEST DUP2 ADD SWAP1 PUSH2 0x2626 JUMP JUMPDEST CODESIZE PUSH2 0x3A4 JUMP JUMPDEST POP RETURNDATASIZE PUSH2 0x1378 JUMP JUMPDEST PUSH1 0x40 MLOAD RETURNDATASIZE DUP7 DUP3 RETURNDATACOPY RETURNDATASIZE SWAP1 REVERT JUMPDEST PUSH1 0x40 MLOAD PUSH3 0x461BCD PUSH1 0xE5 SHL DUP2 MSTORE PUSH1 0x20 PUSH1 0x4 DUP3 ADD MSTORE SWAP1 DUP2 SWAP1 PUSH2 0x96B SWAP1 PUSH1 0x24 DUP4 ADD SWAP1 PUSH2 0x27C6 JUMP JUMPDEST PUSH2 0x13DF SWAP2 POP PUSH1 0x20 RETURNDATASIZE PUSH1 0x20 GT PUSH2 0x12E0 JUMPI PUSH2 0x12D1 DUP2 DUP4 PUSH2 0x25A3 JUMP JUMPDEST CODESIZE PUSH2 0x243 JUMP JUMPDEST PUSH2 0x13FE SWAP2 POP PUSH1 0x20 RETURNDATASIZE PUSH1 0x20 GT PUSH2 0x1390 JUMPI PUSH2 0x1382 DUP2 DUP4 PUSH2 0x25A3 JUMP JUMPDEST CODESIZE PUSH2 0x1A9 JUMP JUMPDEST POP PUSH1 0x3 NOT PUSH1 0x60 CALLDATASIZE DUP3 ADD SLT PUSH2 0x1BE2 JUMPI PUSH2 0x141A PUSH2 0x24F8 JUMP JUMPDEST PUSH1 0x24 CALLDATALOAD SWAP2 PUSH1 0x1 PUSH1 0x1 PUSH1 0x40 SHL SUB DUP4 GT PUSH2 0x1C2C JUMPI PUSH1 0xC0 SWAP1 DUP4 CALLDATASIZE SUB ADD SLT PUSH2 0x2188 JUMPI PUSH1 0x40 MLOAD SWAP2 PUSH2 0x1445 DUP4 PUSH2 0x2529 JUMP JUMPDEST DUP1 PUSH1 0x4 ADD CALLDATALOAD PUSH1 0x1 PUSH1 0x1 PUSH1 0x40 SHL SUB DUP2 GT PUSH2 0x11A4 JUMPI PUSH2 0x1468 SWAP1 PUSH1 0x4 CALLDATASIZE SWAP2 DUP5 ADD ADD PUSH2 0x25DF JUMP JUMPDEST DUP4 MSTORE PUSH1 0x24 DUP2 ADD CALLDATALOAD PUSH1 0x1 PUSH1 0x1 PUSH1 0x40 SHL SUB DUP2 GT PUSH2 0x11A4 JUMPI PUSH2 0x148D SWAP1 PUSH1 0x4 CALLDATASIZE SWAP2 DUP5 ADD ADD PUSH2 0x25DF JUMP JUMPDEST PUSH1 0x20 DUP5 ADD MSTORE PUSH1 0x44 DUP2 ADD CALLDATALOAD PUSH1 0x1 PUSH1 0x1 PUSH1 0x40 SHL SUB DUP2 GT PUSH2 0x11A4 JUMPI PUSH2 0x14B5 SWAP1 PUSH1 0x4 CALLDATASIZE SWAP2 DUP5 ADD ADD PUSH2 0x25DF JUMP JUMPDEST PUSH1 0x40 DUP5 ADD MSTORE PUSH1 0x64 DUP2 ADD CALLDATALOAD PUSH1 0x1 PUSH1 0x1 PUSH1 0x40 SHL SUB DUP2 GT PUSH2 0x11A4 JUMPI PUSH2 0x14DD SWAP1 PUSH1 0x4 CALLDATASIZE SWAP2 DUP5 ADD ADD PUSH2 0x25DF JUMP JUMPDEST PUSH1 0x60 DUP5 ADD MSTORE PUSH1 0x84 DUP2 ADD CALLDATALOAD PUSH1 0x1 PUSH1 0x1 PUSH1 0x40 SHL SUB DUP2 GT PUSH2 0x11A4 JUMPI PUSH2 0x1505 SWAP1 PUSH1 0x4 CALLDATASIZE SWAP2 DUP5 ADD ADD PUSH2 0x25DF JUMP JUMPDEST SWAP1 PUSH1 0x80 DUP5 ADD SWAP2 DUP3 MSTORE PUSH1 0xA4 DUP2 ADD CALLDATALOAD SWAP1 PUSH1 0x1 PUSH1 0x1 PUSH1 0x40 SHL SUB DUP3 GT PUSH2 0x1219 JUMPI PUSH1 0x4 PUSH2 0x1530 SWAP3 CALLDATASIZE SWAP3 ADD ADD PUSH2 0x25DF JUMP JUMPDEST PUSH1 0xA0 DUP5 ADD SWAP1 DUP2 MSTORE PUSH1 0x40 MLOAD PUSH4 0x5C975ABB PUSH1 0xE0 SHL DUP2 MSTORE PUSH1 0x20 DUP2 PUSH1 0x4 DUP2 PUSH32 0x0 PUSH1 0x1 PUSH1 0x1 PUSH1 0xA0 SHL SUB AND GAS STATICCALL DUP1 ISZERO PUSH2 0x11A8 JUMPI PUSH2 0x158D SWAP2 DUP8 SWAP2 PUSH2 0x13E5 JUMPI POP ISZERO PUSH2 0x263E JUMP JUMPDEST DUP4 MLOAD MLOAD ISZERO ISZERO SWAP2 DUP3 PUSH2 0x2179 JUMPI JUMPDEST DUP3 PUSH2 0x216D JUMPI JUMPDEST POP DUP2 PUSH2 0x2161 JUMPI JUMPDEST POP ISZERO PUSH2 0x2129 JUMPI PUSH1 0x44 CALLDATALOAD ISZERO PUSH2 0x20D4 JUMPI PUSH1 0x40 MLOAD PUSH4 0xF140B55F PUSH1 0xE0 SHL DUP2 MSTORE CALLER PUSH1 0x4 DUP3 ADD MSTORE PUSH1 0x20 DUP2 PUSH1 0x24 DUP2 PUSH32 0x0 PUSH1 0x1 PUSH1 0x1 PUSH1 0xA0 SHL SUB AND GAS STATICCALL SWAP1 DUP2 ISZERO PUSH2 0x1397 JUMPI DUP5 SWAP2 PUSH2 0x20B5 JUMPI JUMPDEST POP ISZERO PUSH2 0x2071 JUMPI PUSH1 0x40 MLOAD PUSH4 0xB5AF090F PUSH1 0xE0 SHL DUP2 MSTORE PUSH1 0x1 PUSH1 0x1 PUSH1 0xA0 SHL SUB DUP3 DUP2 AND PUSH1 0x4 DUP4 ADD MSTORE PUSH1 0x20 SWAP1 DUP3 SWAP1 PUSH1 0x24 SWAP1 DUP3 SWAP1 PUSH32 0x0 AND GAS STATICCALL SWAP1 DUP2 ISZERO PUSH2 0x1397 JUMPI DUP5 SWAP2 PUSH2 0x2052 JUMPI JUMPDEST POP ISZERO PUSH2 0x200D JUMPI PUSH1 0x40 MLOAD PUSH4 0x438C9D95 PUSH1 0xE0 SHL DUP2 MSTORE PUSH1 0x20 DUP2 PUSH1 0x4 DUP2 PUSH32 0x0 PUSH1 0x1 PUSH1 0x1 PUSH1 0xA0 SHL SUB AND GAS STATICCALL SWAP1 DUP2 ISZERO PUSH2 0x1397 JUMPI DUP5 SWAP2 PUSH2 0x1FDB JUMPI JUMPDEST POP PUSH1 0x40 MLOAD PUSH4 0x16EDDECB PUSH1 0xE0 SHL DUP2 MSTORE PUSH1 0x20 DUP2 PUSH1 0x4 DUP2 PUSH32 0x0 PUSH1 0x1 PUSH1 0x1 PUSH1 0xA0 SHL SUB AND GAS STATICCALL SWAP1 DUP2 ISZERO PUSH2 0x1B87 JUMPI DUP6 SWAP2 PUSH2 0x1FBC JUMPI JUMPDEST POP DUP2 PUSH2 0x1C30 JUMPI JUMPDEST POP POP PUSH2 0x1739 PUSH32 0x0 PUSH2 0x288B JUMP JUMPDEST SWAP2 PUSH1 0x1 PUSH1 0x1 PUSH1 0xA0 SHL SUB DUP4 AND EXTCODESIZE ISZERO PUSH2 0x1C2C JUMPI PUSH1 0x40 MLOAD PUSH4 0xC0C53B8B PUSH1 0xE0 SHL DUP2 MSTORE PUSH1 0x1 PUSH1 0x1 PUSH1 0xA0 SHL SUB DUP4 DUP2 AND PUSH1 0x4 DUP4 ADD MSTORE ORIGIN PUSH1 0x24 DUP4 ADD MSTORE PUSH32 0x0 AND PUSH1 0x44 DUP3 ADD MSTORE DUP5 DUP2 DUP1 PUSH1 0x64 DUP2 ADD SUB DUP2 DUP4 PUSH1 0x1 PUSH1 0x1 PUSH1 0xA0 SHL SUB DUP10 AND GAS CALL DUP1 ISZERO PUSH2 0x1B87 JUMPI PUSH2 0x1C19 JUMPI JUMPDEST POP PUSH2 0x17DF PUSH32 0x0 PUSH2 0x288B JUMP JUMPDEST PUSH1 0x1 PUSH1 0x1 PUSH1 0xA0 SHL SUB DUP2 AND SWAP1 DUP6 SWAP1 DUP3 EXTCODESIZE ISZERO PUSH2 0x1BE2 JUMPI PUSH1 0x40 MLOAD PUSH4 0xC0C53B8B PUSH1 0xE0 SHL DUP2 MSTORE PUSH1 0x1 PUSH1 0x1 PUSH1 0xA0 SHL SUB DUP8 DUP2 AND PUSH1 0x4 DUP4 ADD MSTORE CALLER PUSH1 0x24 DUP4 ADD MSTORE PUSH32 0x0 AND PUSH1 0x44 DUP3 ADD MSTORE DUP3 DUP2 PUSH1 0x64 DUP2 DUP4 DUP9 GAS CALL SWAP1 DUP2 ISZERO PUSH2 0x1BFA JUMPI DUP4 SWAP2 PUSH2 0x1C05 JUMPI JUMPDEST POP POP PUSH32 0x0 PUSH1 0x1 PUSH1 0x1 PUSH1 0xA0 SHL SUB AND EXTCODESIZE ISZERO PUSH2 0x1BE2 JUMPI PUSH1 0x40 MLOAD PUSH4 0xD9CE7B95 PUSH1 0xE0 SHL DUP2 MSTORE PUSH1 0x4 DUP2 ADD DUP5 SWAP1 MSTORE DUP3 DUP2 PUSH1 0x24 DUP2 DUP4 PUSH32 0x0 PUSH1 0x1 PUSH1 0x1 PUSH1 0xA0 SHL SUB AND GAS CALL SWAP1 DUP2 ISZERO PUSH2 0x1BFA JUMPI DUP4 SWAP2 PUSH2 0x1BE6 JUMPI JUMPDEST POP POP PUSH32 0x0 PUSH1 0x1 PUSH1 0x1 PUSH1 0xA0 SHL SUB AND EXTCODESIZE ISZERO PUSH2 0x1BE2 JUMPI PUSH1 0x40 MLOAD PUSH3 0x8AC83 PUSH1 0xE0 SHL DUP2 MSTORE PUSH1 0x1 PUSH1 0x1 PUSH1 0xA0 SHL SUB DUP1 DUP9 AND PUSH1 0x4 DUP4 ADD MSTORE SWAP1 SWAP2 AND PUSH1 0x24 DUP3 ADD MSTORE DUP2 DUP2 DUP1 PUSH1 0x44 DUP2 ADD SUB DUP2 DUP4 PUSH32 0x0 PUSH1 0x1 PUSH1 0x1 PUSH1 0xA0 SHL SUB AND GAS CALL DUP1 ISZERO PUSH2 0x120E JUMPI PUSH2 0x1BCE JUMPI JUMPDEST POP POP PUSH32 0x0 PUSH1 0x1 PUSH1 0x1 PUSH1 0xA0 SHL SUB AND EXTCODESIZE ISZERO PUSH2 0x11A4 JUMPI PUSH1 0x40 MLOAD PUSH1 0x1 PUSH3 0x16EF61 PUSH1 0xE3 SHL SUB NOT DUP2 MSTORE CALLER PUSH1 0x4 DUP3 ADD MSTORE PUSH1 0x1 PUSH1 0x1 PUSH1 0xA0 SHL SUB DUP6 AND PUSH1 0x24 DUP3 ADD MSTORE DUP6 SWAP1 DUP2 DUP2 DUP1 PUSH1 0x44 DUP2 ADD SUB DUP2 DUP4 PUSH32 0x0 PUSH1 0x1 PUSH1 0x1 PUSH1 0xA0 SHL SUB AND GAS CALL DUP1 ISZERO PUSH2 0x120E JUMPI PUSH2 0x1BBA JUMPI JUMPDEST POP POP PUSH1 0x1 PUSH1 0x1 PUSH1 0xA0 SHL SUB DUP5 AND EXTCODESIZE ISZERO PUSH2 0x11A4 JUMPI PUSH1 0x40 MLOAD PUSH4 0x716F6E87 PUSH1 0xE0 SHL DUP2 MSTORE PUSH1 0x4 DUP2 ADD DUP3 SWAP1 MSTORE DUP6 SWAP1 DUP2 DUP2 PUSH1 0x24 DUP2 DUP4 PUSH1 0x1 PUSH1 0x1 PUSH1 0xA0 SHL SUB DUP12 AND GAS CALL DUP1 ISZERO PUSH2 0x120E JUMPI PUSH2 0x1BA6 JUMPI JUMPDEST POP POP PUSH1 0x1 PUSH1 0x1 PUSH1 0xA0 SHL SUB DUP5 AND EXTCODESIZE ISZERO PUSH2 0x11A4 JUMPI PUSH1 0x40 MLOAD PUSH4 0x39FA62DF PUSH1 0xE0 SHL DUP2 MSTORE PUSH1 0x44 CALLDATALOAD PUSH1 0x4 DUP3 ADD MSTORE DUP6 SWAP1 DUP2 DUP2 PUSH1 0x24 DUP2 DUP4 PUSH1 0x1 PUSH1 0x1 PUSH1 0xA0 SHL SUB DUP12 AND GAS CALL DUP1 ISZERO PUSH2 0x120E JUMPI PUSH2 0x1B92 JUMPI JUMPDEST POP PUSH1 0x40 MLOAD PUSH4 0x6613680D PUSH1 0xE0 SHL DUP2 MSTORE SWAP3 DUP4 SWAP1 DUP2 SWAP1 PUSH2 0x1AB7 SWAP1 DUP9 PUSH1 0x4 DUP5 ADD PUSH2 0x2869 JUMP JUMPDEST SUB DUP2 DUP4 PUSH32 0x0 PUSH1 0x1 PUSH1 0x1 PUSH1 0xA0 SHL SUB AND GAS CALL SWAP2 DUP3 ISZERO PUSH2 0x1B87 JUMPI DUP6 PUSH1 0x20 SWAP7 SWAP4 PUSH2 0x1B6A JUMPI JUMPDEST POP POP PUSH1 0x40 MLOAD SWAP3 PUSH1 0x1 DUP1 PUSH1 0xA0 SHL SUB AND DUP4 MSTORE DUP5 DUP4 ADD MSTORE PUSH1 0x44 CALLDATALOAD PUSH1 0x40 DUP4 ADD MSTORE PUSH1 0x80 PUSH1 0x60 DUP4 ADD MSTORE PUSH32 0x938ECE1AB5D508D56896411E3F1B2C96359F780ECBFE90C9A4031CD170AA4A4A PUSH1 0x1 DUP1 PUSH1 0xA0 SHL SUB DUP5 AND SWAP3 DUP1 PUSH2 0x1B55 CALLER SWAP5 PUSH1 0x80 DUP4 ADD SWAP1 PUSH2 0x27EB JUMP JUMPDEST SUB SWAP1 LOG3 PUSH1 0x40 MLOAD PUSH1 0x1 PUSH1 0x1 PUSH1 0xA0 SHL SUB SWAP1 SWAP2 AND DUP2 MSTORE RETURN JUMPDEST PUSH2 0x1B7F SWAP3 SWAP4 POP RETURNDATASIZE DUP1 SWAP2 DUP4 RETURNDATACOPY PUSH2 0x11C6 DUP2 DUP4 PUSH2 0x25A3 JUMP JUMPDEST SWAP1 CODESIZE DUP1 PUSH2 0x1AF7 JUMP JUMPDEST PUSH1 0x40 MLOAD RETURNDATASIZE DUP8 DUP3 RETURNDATACOPY RETURNDATASIZE SWAP1 REVERT JUMPDEST PUSH2 0x1B9C DUP3 SWAP2 PUSH2 0x255A JUMP JUMPDEST PUSH2 0xB5 JUMPI CODESIZE PUSH2 0x1A96 JUMP JUMPDEST PUSH2 0x1BAF SWAP1 PUSH2 0x255A JUMP JUMPDEST PUSH2 0x11A4 JUMPI DUP5 CODESIZE PUSH2 0x1A50 JUMP JUMPDEST PUSH2 0x1BC3 SWAP1 PUSH2 0x255A JUMP JUMPDEST PUSH2 0x11A4 JUMPI DUP5 CODESIZE PUSH2 0x1A0B JUMP JUMPDEST PUSH2 0x1BD7 SWAP1 PUSH2 0x255A JUMP JUMPDEST PUSH2 0x11A4 JUMPI DUP5 CODESIZE PUSH2 0x1971 JUMP JUMPDEST POP DUP1 REVERT JUMPDEST PUSH2 0x1BEF SWAP1 PUSH2 0x255A JUMP JUMPDEST PUSH2 0x1BE2 JUMPI DUP2 CODESIZE PUSH2 0x18DA JUMP JUMPDEST PUSH1 0x40 MLOAD RETURNDATASIZE DUP6 DUP3 RETURNDATACOPY RETURNDATASIZE SWAP1 REVERT JUMPDEST PUSH2 0x1C0E SWAP1 PUSH2 0x255A JUMP JUMPDEST PUSH2 0x1BE2 JUMPI DUP2 CODESIZE PUSH2 0x1854 JUMP JUMPDEST PUSH2 0x1C25 SWAP1 SWAP5 SWAP2 SWAP5 PUSH2 0x255A JUMP JUMPDEST SWAP3 CODESIZE PUSH2 0x17B5 JUMP JUMPDEST DUP4 DUP1 REVERT JUMPDEST ISZERO PUSH2 0x1EAC JUMPI PUSH1 0x40 MLOAD PUSH4 0x1241509D PUSH1 0xE2 SHL DUP2 MSTORE PUSH1 0x20 DUP2 PUSH1 0x4 DUP2 PUSH32 0x0 PUSH1 0x1 PUSH1 0x1 PUSH1 0xA0 SHL SUB AND GAS STATICCALL SWAP1 DUP2 ISZERO PUSH2 0x1B87 JUMPI DUP6 SWAP2 PUSH2 0x1E7A JUMPI JUMPDEST POP PUSH1 0x40 MLOAD PUSH4 0x9DA4E51 PUSH1 0xE0 SHL DUP2 MSTORE SWAP1 PUSH1 0x20 DUP3 PUSH1 0x4 DUP2 PUSH32 0x0 PUSH1 0x1 PUSH1 0x1 PUSH1 0xA0 SHL SUB AND GAS STATICCALL SWAP2 DUP3 ISZERO PUSH2 0x11A8 JUMPI DUP7 SWAP3 PUSH2 0x1E35 JUMPI JUMPDEST POP PUSH1 0x40 MLOAD PUSH4 0x7C70C0A3 PUSH1 0xE0 SHL DUP2 MSTORE PUSH1 0x4 DUP2 ADD SWAP2 SWAP1 SWAP2 MSTORE SWAP1 PUSH1 0x20 SWAP1 DUP3 SWAP1 PUSH1 0x24 SWAP1 DUP3 SWAP1 PUSH1 0x1 PUSH1 0x1 PUSH1 0xA0 SHL SUB AND GAS STATICCALL SWAP1 DUP2 ISZERO PUSH2 0x1B87 JUMPI DUP6 SWAP2 PUSH2 0x1E16 JUMPI JUMPDEST POP PUSH1 0x1 PUSH1 0x1 PUSH1 0xA0 SHL SUB AND SWAP1 DUP2 ISZERO PUSH2 0x1DC5 JUMPI PUSH1 0x40 MLOAD PUSH4 0x23B872DD PUSH1 0xE0 SHL PUSH1 0x20 DUP3 ADD MSTORE CALLER PUSH1 0x24 DUP3 ADD MSTORE ADDRESS PUSH1 0x44 DUP3 ADD MSTORE PUSH1 0x64 DUP1 DUP3 ADD DUP4 SWAP1 MSTORE DUP2 MSTORE PUSH1 0xA0 DUP2 ADD PUSH1 0x1 PUSH1 0x1 PUSH1 0x40 SHL SUB DUP2 GT DUP3 DUP3 LT OR PUSH2 0x1DB1 JUMPI DUP7 SWAP3 PUSH2 0x1D8B PUSH32 0xDD872CA9502E175165673833AC2A0E1395EDB4B5C72F2915685598490C375E99 SWAP4 PUSH1 0x20 SWAP4 PUSH1 0x40 MSTORE DUP7 PUSH2 0x2965 JUMP JUMPDEST DUP5 DUP5 MSTORE DUP4 DUP3 MSTORE PUSH1 0x40 DUP5 KECCAK256 PUSH2 0x1DA0 DUP3 DUP3 SLOAD PUSH2 0x28F3 JUMP JUMPDEST SWAP1 SSTORE PUSH1 0x40 MLOAD SWAP1 DUP2 MSTORE LOG3 JUMPDEST CODESIZE DUP1 PUSH2 0x170E JUMP JUMPDEST PUSH4 0x4E487B71 PUSH1 0xE0 SHL DUP8 MSTORE PUSH1 0x41 PUSH1 0x4 MSTORE PUSH1 0x24 DUP8 REVERT JUMPDEST PUSH1 0x40 MLOAD PUSH3 0x461BCD PUSH1 0xE5 SHL DUP2 MSTORE PUSH1 0x20 PUSH1 0x4 DUP3 ADD MSTORE PUSH1 0x23 PUSH1 0x24 DUP3 ADD MSTORE PUSH32 0x4E6F2077686974656C697374656420737461626C65636F696E20617661696C61 PUSH1 0x44 DUP3 ADD MSTORE PUSH3 0x626C65 PUSH1 0xE8 SHL PUSH1 0x64 DUP3 ADD MSTORE PUSH1 0x84 SWAP1 REVERT JUMPDEST PUSH2 0x1E2F SWAP2 POP PUSH1 0x20 RETURNDATASIZE PUSH1 0x20 GT PUSH2 0x12E0 JUMPI PUSH2 0x12D1 DUP2 DUP4 PUSH2 0x25A3 JUMP JUMPDEST CODESIZE PUSH2 0x1D0B JUMP JUMPDEST SWAP1 SWAP2 POP PUSH1 0x20 DUP2 RETURNDATASIZE PUSH1 0x20 GT PUSH2 0x1E72 JUMPI JUMPDEST DUP2 PUSH2 0x1E51 PUSH1 0x20 SWAP4 DUP4 PUSH2 0x25A3 JUMP JUMPDEST DUP2 ADD SUB SLT PUSH2 0x1219 JUMPI MLOAD PUSH1 0x1 PUSH1 0x1 PUSH1 0xA0 SHL SUB DUP2 AND DUP2 SUB PUSH2 0x1219 JUMPI SWAP1 PUSH1 0x20 PUSH2 0x1CD1 JUMP JUMPDEST RETURNDATASIZE SWAP2 POP PUSH2 0x1E44 JUMP JUMPDEST SWAP1 POP PUSH1 0x20 DUP2 RETURNDATASIZE PUSH1 0x20 GT PUSH2 0x1EA4 JUMPI JUMPDEST DUP2 PUSH2 0x1E95 PUSH1 0x20 SWAP4 DUP4 PUSH2 0x25A3 JUMP JUMPDEST DUP2 ADD SUB SLT PUSH2 0x11A4 JUMPI MLOAD CODESIZE PUSH2 0x1C82 JUMP JUMPDEST RETURNDATASIZE SWAP2 POP PUSH2 0x1E88 JUMP JUMPDEST DUP1 CALLVALUE LT PUSH2 0x1F77 JUMPI DUP4 DUP1 MSTORE DUP4 PUSH1 0x20 MSTORE PUSH1 0x40 DUP5 KECCAK256 PUSH2 0x1EC9 CALLVALUE DUP3 SLOAD PUSH2 0x28F3 JUMP JUMPDEST SWAP1 SSTORE DUP1 CALLVALUE GT PUSH2 0x1F05 JUMPI JUMPDEST POP DUP3 DUP1 PUSH32 0xDD872CA9502E175165673833AC2A0E1395EDB4B5C72F2915685598490C375E99 PUSH1 0x20 PUSH1 0x40 MLOAD CALLVALUE DUP2 MSTORE LOG3 PUSH2 0x1DAA JUMP JUMPDEST CALLVALUE SUB CALLVALUE DUP2 GT PUSH2 0x1F63 JUMPI DUP4 DUP1 DUP1 DUP1 SWAP4 CALLER GAS CALL PUSH2 0x1F1E PUSH2 0x2916 JUMP JUMPDEST POP ISZERO PUSH2 0x1F2A JUMPI CODESIZE PUSH2 0x1ED3 JUMP JUMPDEST PUSH1 0x40 MLOAD PUSH3 0x461BCD PUSH1 0xE5 SHL DUP2 MSTORE PUSH1 0x20 PUSH1 0x4 DUP3 ADD MSTORE PUSH1 0x11 PUSH1 0x24 DUP3 ADD MSTORE PUSH17 0x115512081C99599D5B990819985A5B1959 PUSH1 0x7A SHL PUSH1 0x44 DUP3 ADD MSTORE PUSH1 0x64 SWAP1 REVERT JUMPDEST PUSH4 0x4E487B71 PUSH1 0xE0 SHL DUP5 MSTORE PUSH1 0x11 PUSH1 0x4 MSTORE PUSH1 0x24 DUP5 REVERT JUMPDEST PUSH1 0x40 MLOAD PUSH3 0x461BCD PUSH1 0xE5 SHL DUP2 MSTORE PUSH1 0x20 PUSH1 0x4 DUP3 ADD MSTORE PUSH1 0x18 PUSH1 0x24 DUP3 ADD MSTORE PUSH32 0x496E636F7272656374204554482066656520616D6F756E740000000000000000 PUSH1 0x44 DUP3 ADD MSTORE PUSH1 0x64 SWAP1 REVERT JUMPDEST PUSH2 0x1FD5 SWAP2 POP PUSH1 0x20 RETURNDATASIZE PUSH1 0x20 GT PUSH2 0x1390 JUMPI PUSH2 0x1382 DUP2 DUP4 PUSH2 0x25A3 JUMP JUMPDEST CODESIZE PUSH2 0x1707 JUMP JUMPDEST SWAP1 POP PUSH1 0x20 DUP2 RETURNDATASIZE PUSH1 0x20 GT PUSH2 0x2005 JUMPI JUMPDEST DUP2 PUSH2 0x1FF6 PUSH1 0x20 SWAP4 DUP4 PUSH2 0x25A3 JUMP JUMPDEST DUP2 ADD SUB SLT PUSH2 0x1C2C JUMPI MLOAD CODESIZE PUSH2 0x16B9 JUMP JUMPDEST RETURNDATASIZE SWAP2 POP PUSH2 0x1FE9 JUMP JUMPDEST PUSH1 0x40 MLOAD PUSH3 0x461BCD PUSH1 0xE5 SHL DUP2 MSTORE PUSH1 0x20 PUSH1 0x4 DUP3 ADD MSTORE PUSH1 0x1D PUSH1 0x24 DUP3 ADD MSTORE PUSH32 0x537461626C65636F696E206973206E6F742077686974656C6973746564000000 PUSH1 0x44 DUP3 ADD MSTORE PUSH1 0x64 SWAP1 REVERT JUMPDEST PUSH2 0x206B SWAP2 POP PUSH1 0x20 RETURNDATASIZE PUSH1 0x20 GT PUSH2 0x1390 JUMPI PUSH2 0x1382 DUP2 DUP4 PUSH2 0x25A3 JUMP JUMPDEST CODESIZE PUSH2 0x1666 JUMP JUMPDEST PUSH1 0x64 PUSH1 0x40 MLOAD PUSH3 0x461BCD PUSH1 0xE5 SHL DUP2 MSTORE PUSH1 0x20 PUSH1 0x4 DUP3 ADD MSTORE PUSH1 0x20 PUSH1 0x24 DUP3 ADD MSTORE PUSH32 0x4E6F742076616C696420746F20637265617465205772617070656420536F6E67 PUSH1 0x44 DUP3 ADD MSTORE REVERT JUMPDEST PUSH2 0x20CE SWAP2 POP PUSH1 0x20 RETURNDATASIZE PUSH1 0x20 GT PUSH2 0x1390 JUMPI PUSH2 0x1382 DUP2 DUP4 PUSH2 0x25A3 JUMP JUMPDEST CODESIZE PUSH2 0x1607 JUMP JUMPDEST PUSH1 0x40 MLOAD PUSH3 0x461BCD PUSH1 0xE5 SHL DUP2 MSTORE PUSH1 0x20 PUSH1 0x4 DUP3 ADD MSTORE PUSH1 0x27 PUSH1 0x24 DUP3 ADD MSTORE PUSH32 0x53686172657320616D6F756E74206D7573742062652067726561746572207468 PUSH1 0x44 DUP3 ADD MSTORE PUSH7 0x616E207A65726F PUSH1 0xC8 SHL PUSH1 0x64 DUP3 ADD MSTORE PUSH1 0x84 SWAP1 REVERT JUMPDEST PUSH1 0x40 MLOAD PUSH3 0x461BCD PUSH1 0xE5 SHL DUP2 MSTORE PUSH1 0x20 PUSH1 0x4 DUP3 ADD MSTORE PUSH1 0x10 PUSH1 0x24 DUP3 ADD MSTORE PUSH16 0x496E76616C6964206D65746164617461 PUSH1 0x80 SHL PUSH1 0x44 DUP3 ADD MSTORE PUSH1 0x64 SWAP1 REVERT JUMPDEST SWAP1 POP MLOAD MLOAD ISZERO ISZERO CODESIZE PUSH2 0x15A6 JUMP JUMPDEST MLOAD MLOAD ISZERO ISZERO SWAP2 POP CODESIZE PUSH2 0x159F JUMP JUMPDEST PUSH1 0x40 DUP6 ADD MLOAD MLOAD ISZERO ISZERO SWAP3 POP PUSH2 0x1599 JUMP JUMPDEST DUP3 DUP1 REVERT JUMPDEST POP CALLVALUE PUSH2 0xB5 JUMPI DUP1 PUSH1 0x3 NOT CALLDATASIZE ADD SLT PUSH2 0xB5 JUMPI PUSH1 0x40 MLOAD PUSH32 0x0 PUSH1 0x1 PUSH1 0x1 PUSH1 0xA0 SHL SUB AND DUP2 MSTORE PUSH1 0x20 SWAP1 RETURN JUMPDEST POP CALLVALUE PUSH2 0xB5 JUMPI DUP1 PUSH1 0x3 NOT CALLDATASIZE ADD SLT PUSH2 0xB5 JUMPI PUSH1 0x40 MLOAD PUSH32 0x0 PUSH1 0x1 PUSH1 0x1 PUSH1 0xA0 SHL SUB AND DUP2 MSTORE PUSH1 0x20 SWAP1 RETURN JUMPDEST POP CALLVALUE PUSH2 0xB5 JUMPI DUP1 PUSH1 0x3 NOT CALLDATASIZE ADD SLT PUSH2 0xB5 JUMPI PUSH1 0x40 MLOAD PUSH32 0x0 PUSH1 0x1 PUSH1 0x1 PUSH1 0xA0 SHL SUB AND DUP2 MSTORE PUSH1 0x20 SWAP1 RETURN JUMPDEST POP CALLVALUE PUSH2 0xB5 JUMPI PUSH1 0x40 CALLDATASIZE PUSH1 0x3 NOT ADD SLT PUSH2 0xB5 JUMPI PUSH2 0x2275 PUSH2 0x24F8 JUMP JUMPDEST PUSH2 0x227D PUSH2 0x2513 JUMP JUMPDEST PUSH1 0x40 MLOAD PUSH4 0x8DA5CB5B PUSH1 0xE0 SHL DUP2 MSTORE SWAP1 SWAP2 PUSH1 0x1 PUSH1 0x1 PUSH1 0xA0 SHL SUB SWAP2 PUSH1 0x20 SWAP2 SWAP1 DUP3 DUP2 PUSH1 0x4 DUP2 PUSH32 0x0 DUP9 AND GAS STATICCALL DUP1 ISZERO PUSH2 0x11A8 JUMPI DUP5 SWAP2 DUP8 SWAP2 PUSH2 0x2498 JUMPI JUMPDEST POP AND CALLER SUB PUSH2 0x2445 JUMPI DUP3 AND SWAP2 DUP3 DUP6 MSTORE DUP5 DUP3 MSTORE PUSH1 0x40 DUP6 KECCAK256 SLOAD SWAP4 DUP5 ISZERO PUSH2 0x240A JUMPI DUP4 DUP7 MSTORE DUP6 DUP4 MSTORE DUP6 PUSH1 0x40 DUP2 KECCAK256 SSTORE DUP4 ISZERO PUSH1 0x0 EQ PUSH2 0x2388 JUMPI DUP6 DUP1 DUP1 DUP1 DUP9 DUP7 DUP7 AND GAS CALL PUSH2 0x2316 PUSH2 0x2916 JUMP JUMPDEST POP ISZERO PUSH2 0x234D JUMPI SWAP1 PUSH32 0x5E110F8BC8A20B65DCC87F224BDF1CC039346E267118BAE2739847F07321FFA8 SWAP3 SWAP2 JUMPDEST PUSH1 0x40 MLOAD SWAP6 DUP7 MSTORE AND SWAP4 LOG3 DUP1 RETURN JUMPDEST PUSH1 0x40 MLOAD PUSH3 0x461BCD PUSH1 0xE5 SHL DUP2 MSTORE PUSH1 0x4 DUP2 ADD DUP5 SWAP1 MSTORE PUSH1 0x13 PUSH1 0x24 DUP3 ADD MSTORE PUSH19 0x115512081D1C985B9CD9995C8819985A5B1959 PUSH1 0x6A SHL PUSH1 0x44 DUP3 ADD MSTORE PUSH1 0x64 SWAP1 REVERT JUMPDEST PUSH1 0x40 MLOAD PUSH4 0xA9059CBB PUSH1 0xE0 SHL DUP5 DUP3 ADD MSTORE DUP2 DUP4 AND PUSH1 0x24 DUP3 ADD MSTORE PUSH1 0x44 DUP1 DUP3 ADD DUP8 SWAP1 MSTORE DUP2 MSTORE PUSH1 0x80 DUP2 ADD PUSH1 0x1 PUSH1 0x1 PUSH1 0x40 SHL SUB DUP2 GT DUP3 DUP3 LT OR PUSH2 0x23F6 JUMPI PUSH32 0x5E110F8BC8A20B65DCC87F224BDF1CC039346E267118BAE2739847F07321FFA8 SWAP5 SWAP4 SWAP3 SWAP2 PUSH2 0x23F1 SWAP2 PUSH1 0x40 MSTORE DUP7 PUSH2 0x2965 JUMP JUMPDEST PUSH2 0x2341 JUMP JUMPDEST PUSH4 0x4E487B71 PUSH1 0xE0 SHL DUP9 MSTORE PUSH1 0x41 PUSH1 0x4 MSTORE PUSH1 0x24 DUP9 REVERT JUMPDEST PUSH1 0x40 MLOAD PUSH3 0x461BCD PUSH1 0xE5 SHL DUP2 MSTORE PUSH1 0x4 DUP2 ADD DUP5 SWAP1 MSTORE PUSH1 0x13 PUSH1 0x24 DUP3 ADD MSTORE PUSH19 0x4E6F206665657320746F207769746864726177 PUSH1 0x68 SHL PUSH1 0x44 DUP3 ADD MSTORE PUSH1 0x64 SWAP1 REVERT JUMPDEST PUSH1 0x40 MLOAD PUSH3 0x461BCD PUSH1 0xE5 SHL DUP2 MSTORE PUSH1 0x4 DUP2 ADD DUP4 SWAP1 MSTORE PUSH1 0x25 PUSH1 0x24 DUP3 ADD MSTORE PUSH32 0x4F6E6C792070726F746F636F6C206F776E65722063616E207769746864726177 PUSH1 0x44 DUP3 ADD MSTORE PUSH5 0x2066656573 PUSH1 0xD8 SHL PUSH1 0x64 DUP3 ADD MSTORE PUSH1 0x84 SWAP1 REVERT JUMPDEST PUSH2 0x24AF SWAP2 POP DUP5 RETURNDATASIZE DUP7 GT PUSH2 0x12E0 JUMPI PUSH2 0x12D1 DUP2 DUP4 PUSH2 0x25A3 JUMP JUMPDEST CODESIZE PUSH2 0x22D2 JUMP JUMPDEST SWAP1 POP CALLVALUE PUSH2 0x1BE2 JUMPI DUP2 PUSH1 0x3 NOT CALLDATASIZE ADD SLT PUSH2 0x1BE2 JUMPI PUSH32 0x0 PUSH1 0x1 PUSH1 0x1 PUSH1 0xA0 SHL SUB AND DUP2 MSTORE PUSH1 0x20 SWAP1 RETURN JUMPDEST PUSH1 0x4 CALLDATALOAD SWAP1 PUSH1 0x1 PUSH1 0x1 PUSH1 0xA0 SHL SUB DUP3 AND DUP3 SUB PUSH2 0x250E JUMPI JUMP JUMPDEST PUSH1 0x0 DUP1 REVERT JUMPDEST PUSH1 0x24 CALLDATALOAD SWAP1 PUSH1 0x1 PUSH1 0x1 PUSH1 0xA0 SHL SUB DUP3 AND DUP3 SUB PUSH2 0x250E JUMPI JUMP JUMPDEST PUSH1 0xC0 DUP2 ADD SWAP1 DUP2 LT PUSH1 0x1 PUSH1 0x1 PUSH1 0x40 SHL SUB DUP3 GT OR PUSH2 0x2544 JUMPI PUSH1 0x40 MSTORE JUMP JUMPDEST PUSH4 0x4E487B71 PUSH1 0xE0 SHL PUSH1 0x0 MSTORE PUSH1 0x41 PUSH1 0x4 MSTORE PUSH1 0x24 PUSH1 0x0 REVERT JUMPDEST PUSH1 0x1 PUSH1 0x1 PUSH1 0x40 SHL SUB DUP2 GT PUSH2 0x2544 JUMPI PUSH1 0x40 MSTORE JUMP JUMPDEST PUSH1 0x40 DUP2 ADD SWAP1 DUP2 LT PUSH1 0x1 PUSH1 0x1 PUSH1 0x40 SHL SUB DUP3 GT OR PUSH2 0x2544 JUMPI PUSH1 0x40 MSTORE JUMP JUMPDEST PUSH1 0x60 DUP2 ADD SWAP1 DUP2 LT PUSH1 0x1 PUSH1 0x1 PUSH1 0x40 SHL SUB DUP3 GT OR PUSH2 0x2544 JUMPI PUSH1 0x40 MSTORE JUMP JUMPDEST SWAP1 PUSH1 0x1F DUP1 NOT SWAP2 ADD AND DUP2 ADD SWAP1 DUP2 LT PUSH1 0x1 PUSH1 0x1 PUSH1 0x40 SHL SUB DUP3 GT OR PUSH2 0x2544 JUMPI PUSH1 0x40 MSTORE JUMP JUMPDEST PUSH1 0x1 PUSH1 0x1 PUSH1 0x40 SHL SUB DUP2 GT PUSH2 0x2544 JUMPI PUSH1 0x1F ADD PUSH1 0x1F NOT AND PUSH1 0x20 ADD SWAP1 JUMP JUMPDEST DUP2 PUSH1 0x1F DUP3 ADD SLT ISZERO PUSH2 0x250E JUMPI DUP1 CALLDATALOAD SWAP1 PUSH2 0x25F6 DUP3 PUSH2 0x25C4 JUMP JUMPDEST SWAP3 PUSH2 0x2604 PUSH1 0x40 MLOAD SWAP5 DUP6 PUSH2 0x25A3 JUMP JUMPDEST DUP3 DUP5 MSTORE PUSH1 0x20 DUP4 DUP4 ADD ADD GT PUSH2 0x250E JUMPI DUP2 PUSH1 0x0 SWAP3 PUSH1 0x20 DUP1 SWAP4 ADD DUP4 DUP7 ADD CALLDATACOPY DUP4 ADD ADD MSTORE SWAP1 JUMP JUMPDEST SWAP1 DUP2 PUSH1 0x20 SWAP2 SUB SLT PUSH2 0x250E JUMPI MLOAD DUP1 ISZERO ISZERO DUP2 SUB PUSH2 0x250E JUMPI SWAP1 JUMP JUMPDEST ISZERO PUSH2 0x2645 JUMPI JUMP JUMPDEST PUSH1 0x40 MLOAD PUSH3 0x461BCD PUSH1 0xE5 SHL DUP2 MSTORE PUSH1 0x20 PUSH1 0x4 DUP3 ADD MSTORE PUSH1 0x12 PUSH1 0x24 DUP3 ADD MSTORE PUSH18 0x141C9BDD1BD8DBDB081A5CC81C185D5CD959 PUSH1 0x72 SHL PUSH1 0x44 DUP3 ADD MSTORE PUSH1 0x64 SWAP1 REVERT JUMPDEST PUSH1 0x0 JUMPDEST DUP4 DUP2 LT PUSH2 0x2692 JUMPI POP POP PUSH1 0x0 SWAP2 ADD MSTORE JUMP JUMPDEST DUP2 DUP2 ADD MLOAD DUP4 DUP3 ADD MSTORE PUSH1 0x20 ADD PUSH2 0x2682 JUMP JUMPDEST DUP2 PUSH1 0x1F DUP3 ADD SLT ISZERO PUSH2 0x250E JUMPI DUP1 MLOAD PUSH2 0x26B8 DUP2 PUSH2 0x25C4 JUMP JUMPDEST SWAP3 PUSH2 0x26C6 PUSH1 0x40 MLOAD SWAP5 DUP6 PUSH2 0x25A3 JUMP JUMPDEST DUP2 DUP5 MSTORE PUSH1 0x20 DUP3 DUP5 ADD ADD GT PUSH2 0x250E JUMPI PUSH2 0x26E4 SWAP2 PUSH1 0x20 DUP1 DUP6 ADD SWAP2 ADD PUSH2 0x267F JUMP JUMPDEST SWAP1 JUMP JUMPDEST SWAP1 PUSH1 0x20 DUP3 DUP3 SUB SLT PUSH2 0x250E JUMPI DUP2 MLOAD PUSH1 0x1 PUSH1 0x1 PUSH1 0x40 SHL SUB SWAP3 DUP4 DUP3 GT PUSH2 0x250E JUMPI ADD SWAP1 PUSH1 0xC0 DUP3 DUP3 SUB SLT PUSH2 0x250E JUMPI PUSH1 0x40 MLOAD SWAP3 PUSH2 0x271D DUP5 PUSH2 0x2529 JUMP JUMPDEST DUP3 MLOAD DUP2 DUP2 GT PUSH2 0x250E JUMPI DUP3 PUSH2 0x2732 SWAP2 DUP6 ADD PUSH2 0x26A2 JUMP JUMPDEST DUP5 MSTORE PUSH1 0x20 DUP4 ADD MLOAD DUP2 DUP2 GT PUSH2 0x250E JUMPI DUP3 PUSH2 0x274C SWAP2 DUP6 ADD PUSH2 0x26A2 JUMP JUMPDEST PUSH1 0x20 DUP6 ADD MSTORE PUSH1 0x40 DUP4 ADD MLOAD DUP2 DUP2 GT PUSH2 0x250E JUMPI DUP3 PUSH2 0x2769 SWAP2 DUP6 ADD PUSH2 0x26A2 JUMP JUMPDEST PUSH1 0x40 DUP6 ADD MSTORE PUSH1 0x60 DUP4 ADD MLOAD DUP2 DUP2 GT PUSH2 0x250E JUMPI DUP3 PUSH2 0x2786 SWAP2 DUP6 ADD PUSH2 0x26A2 JUMP JUMPDEST PUSH1 0x60 DUP6 ADD MSTORE PUSH1 0x80 DUP4 ADD MLOAD DUP2 DUP2 GT PUSH2 0x250E JUMPI DUP3 PUSH2 0x27A3 SWAP2 DUP6 ADD PUSH2 0x26A2 JUMP JUMPDEST PUSH1 0x80 DUP6 ADD MSTORE PUSH1 0xA0 DUP4 ADD MLOAD SWAP1 DUP2 GT PUSH2 0x250E JUMPI PUSH2 0x27BE SWAP3 ADD PUSH2 0x26A2 JUMP JUMPDEST PUSH1 0xA0 DUP3 ADD MSTORE SWAP1 JUMP JUMPDEST SWAP1 PUSH1 0x20 SWAP2 PUSH2 0x27DF DUP2 MLOAD DUP1 SWAP3 DUP2 DUP6 MSTORE DUP6 DUP1 DUP7 ADD SWAP2 ADD PUSH2 0x267F JUMP JUMPDEST PUSH1 0x1F ADD PUSH1 0x1F NOT AND ADD ADD SWAP1 JUMP JUMPDEST PUSH2 0x26E4 SWAP2 PUSH1 0xA0 PUSH2 0x2858 PUSH2 0x2846 PUSH2 0x2834 PUSH2 0x2822 PUSH2 0x2810 DUP8 MLOAD PUSH1 0xC0 DUP9 MSTORE PUSH1 0xC0 DUP9 ADD SWAP1 PUSH2 0x27C6 JUMP JUMPDEST PUSH1 0x20 DUP9 ADD MLOAD DUP8 DUP3 SUB PUSH1 0x20 DUP10 ADD MSTORE PUSH2 0x27C6 JUMP JUMPDEST PUSH1 0x40 DUP8 ADD MLOAD DUP7 DUP3 SUB PUSH1 0x40 DUP9 ADD MSTORE PUSH2 0x27C6 JUMP JUMPDEST PUSH1 0x60 DUP7 ADD MLOAD DUP6 DUP3 SUB PUSH1 0x60 DUP8 ADD MSTORE PUSH2 0x27C6 JUMP JUMPDEST PUSH1 0x80 DUP6 ADD MLOAD DUP5 DUP3 SUB PUSH1 0x80 DUP7 ADD MSTORE PUSH2 0x27C6 JUMP JUMPDEST SWAP3 ADD MLOAD SWAP1 PUSH1 0xA0 DUP2 DUP5 SUB SWAP2 ADD MSTORE PUSH2 0x27C6 JUMP JUMPDEST PUSH1 0x1 PUSH1 0x1 PUSH1 0xA0 SHL SUB SWAP1 SWAP2 AND DUP2 MSTORE PUSH1 0x40 PUSH1 0x20 DUP3 ADD DUP2 SWAP1 MSTORE PUSH2 0x26E4 SWAP3 SWAP2 ADD SWAP1 PUSH2 0x27EB JUMP JUMPDEST PUSH15 0x5AF43D82803E903D91602B57FD5BF3 SWAP1 PUSH23 0x3D602D80600A3D3981F3363D3D373D3D3D363D73000000 PUSH3 0xFFFFFF DUP3 PUSH1 0x88 SHR AND OR PUSH1 0x0 MSTORE PUSH1 0x78 SHL OR PUSH1 0x20 MSTORE PUSH1 0x37 PUSH1 0x9 PUSH1 0x0 CREATE SWAP1 PUSH1 0x1 PUSH1 0x1 PUSH1 0xA0 SHL SUB DUP3 AND ISZERO PUSH2 0x28E1 JUMPI JUMP JUMPDEST PUSH1 0x40 MLOAD PUSH4 0x30BE1A3D PUSH1 0xE2 SHL DUP2 MSTORE PUSH1 0x4 SWAP1 REVERT JUMPDEST SWAP2 SWAP1 DUP3 ADD DUP1 SWAP3 GT PUSH2 0x2900 JUMPI JUMP JUMPDEST PUSH4 0x4E487B71 PUSH1 0xE0 SHL PUSH1 0x0 MSTORE PUSH1 0x11 PUSH1 0x4 MSTORE PUSH1 0x24 PUSH1 0x0 REVERT JUMPDEST RETURNDATASIZE ISZERO PUSH2 0x2941 JUMPI RETURNDATASIZE SWAP1 PUSH2 0x2927 DUP3 PUSH2 0x25C4 JUMP JUMPDEST SWAP2 PUSH2 0x2935 PUSH1 0x40 MLOAD SWAP4 DUP5 PUSH2 0x25A3 JUMP JUMPDEST DUP3 MSTORE RETURNDATASIZE PUSH1 0x0 PUSH1 0x20 DUP5 ADD RETURNDATACOPY JUMP JUMPDEST PUSH1 0x60 SWAP1 JUMP JUMPDEST SWAP1 DUP2 PUSH1 0x20 SWAP2 SUB SLT PUSH2 0x250E JUMPI MLOAD PUSH1 0x1 PUSH1 0x1 PUSH1 0xA0 SHL SUB DUP2 AND DUP2 SUB PUSH2 0x250E JUMPI SWAP1 JUMP JUMPDEST PUSH1 0x0 DUP1 PUSH2 0x298E SWAP3 PUSH1 0x1 DUP1 PUSH1 0xA0 SHL SUB AND SWAP4 PUSH1 0x20 DUP2 MLOAD SWAP2 ADD DUP3 DUP7 GAS CALL PUSH2 0x2987 PUSH2 0x2916 JUMP JUMPDEST SWAP1 DUP4 PUSH2 0x29D7 JUMP JUMPDEST DUP1 MLOAD SWAP1 DUP2 ISZERO ISZERO SWAP2 DUP3 PUSH2 0x29BC JUMPI JUMPDEST POP POP PUSH2 0x29A4 JUMPI POP JUMP JUMPDEST PUSH1 0x24 SWAP1 PUSH1 0x40 MLOAD SWAP1 PUSH4 0x5274AFE7 PUSH1 0xE0 SHL DUP3 MSTORE PUSH1 0x4 DUP3 ADD MSTORE REVERT JUMPDEST PUSH2 0x29CF SWAP3 POP PUSH1 0x20 DUP1 SWAP2 DUP4 ADD ADD SWAP2 ADD PUSH2 0x2626 JUMP JUMPDEST ISZERO CODESIZE DUP1 PUSH2 0x299B JUMP JUMPDEST SWAP1 PUSH2 0x29FE JUMPI POP DUP1 MLOAD ISZERO PUSH2 0x29EC JUMPI DUP1 MLOAD SWAP1 PUSH1 0x20 ADD REVERT JUMPDEST PUSH1 0x40 MLOAD PUSH4 0xA12F521 PUSH1 0xE1 SHL DUP2 MSTORE PUSH1 0x4 SWAP1 REVERT JUMPDEST DUP2 MLOAD ISZERO DUP1 PUSH2 0x2A31 JUMPI JUMPDEST PUSH2 0x2A0F JUMPI POP SWAP1 JUMP JUMPDEST PUSH1 0x40 MLOAD PUSH4 0x9996B315 PUSH1 0xE0 SHL DUP2 MSTORE PUSH1 0x1 PUSH1 0x1 PUSH1 0xA0 SHL SUB SWAP1 SWAP2 AND PUSH1 0x4 DUP3 ADD MSTORE PUSH1 0x24 SWAP1 REVERT JUMPDEST POP DUP1 EXTCODESIZE ISZERO PUSH2 0x2A07 JUMP JUMPDEST PUSH1 0x0 PUSH1 0x44 RETURNDATASIZE LT PUSH2 0x26E4 JUMPI PUSH1 0x40 MLOAD PUSH1 0x3 NOT SWAP2 RETURNDATASIZE DUP4 ADD PUSH1 0x4 DUP4 RETURNDATACOPY DUP2 MLOAD PUSH1 0x1 PUSH1 0x1 PUSH1 0x40 SHL SUB SWAP2 DUP3 DUP3 GT RETURNDATASIZE PUSH1 0x24 DUP5 ADD GT OR PUSH2 0x2A97 JUMPI DUP2 DUP5 ADD SWAP5 DUP6 MLOAD SWAP4 DUP5 GT PUSH2 0x2A9F JUMPI RETURNDATASIZE DUP6 ADD ADD PUSH1 0x20 DUP5 DUP8 ADD ADD GT PUSH2 0x2A97 JUMPI POP PUSH2 0x26E4 SWAP3 SWAP2 ADD PUSH1 0x20 ADD SWAP1 PUSH2 0x25A3 JUMP JUMPDEST SWAP5 SWAP4 POP POP POP POP JUMP JUMPDEST POP SWAP5 SWAP4 POP POP POP POP JUMP JUMPDEST PUSH1 0x40 MLOAD SWAP1 PUSH1 0x1 PUSH1 0x1 PUSH1 0xA0 SHL SUB AND DUP1 PUSH2 0x2ABF DUP4 PUSH2 0x2588 JUMP JUMPDEST PUSH1 0x2A DUP4 MSTORE PUSH1 0x20 DUP1 DUP5 ADD PUSH1 0x40 CALLDATASIZE DUP3 CALLDATACOPY DUP5 MLOAD ISZERO PUSH2 0x2B96 JUMPI PUSH1 0x30 SWAP1 MSTORE8 DUP4 MLOAD SWAP1 PUSH1 0x1 SWAP2 DUP3 LT ISZERO PUSH2 0x2B96 JUMPI SWAP1 PUSH1 0x78 PUSH1 0x21 DUP7 ADD MSTORE8 PUSH1 0x29 SWAP2 JUMPDEST DUP2 DUP4 GT PUSH2 0x2B22 JUMPI POP POP POP PUSH2 0x2B03 JUMPI POP SWAP1 JUMP JUMPDEST PUSH1 0x44 SWAP1 PUSH1 0x40 MLOAD SWAP1 PUSH4 0xE22E27EB PUSH1 0xE0 SHL DUP3 MSTORE PUSH1 0x4 DUP3 ADD MSTORE PUSH1 0x14 PUSH1 0x24 DUP3 ADD MSTORE REVERT JUMPDEST SWAP1 SWAP2 SWAP3 PUSH1 0xF DUP2 AND PUSH1 0x10 DUP2 LT ISZERO PUSH2 0x2B81 JUMPI DUP7 MLOAD DUP6 LT ISZERO PUSH2 0x2B81 JUMPI PUSH16 0x181899199A1A9B1B9C1CB0B131B232B3 PUSH1 0x81 SHL SWAP1 BYTE DUP7 DUP6 ADD DUP4 ADD MSTORE8 PUSH1 0x4 SHR SWAP3 DUP1 ISZERO PUSH2 0x2B6C JUMPI PUSH1 0x0 NOT ADD SWAP2 SWAP1 PUSH2 0x2AF1 JUMP JUMPDEST PUSH1 0x24 PUSH1 0x0 PUSH4 0x4E487B71 PUSH1 0xE0 SHL DUP2 MSTORE PUSH1 0x11 PUSH1 0x4 MSTORE REVERT JUMPDEST PUSH1 0x24 PUSH1 0x0 PUSH4 0x4E487B71 PUSH1 0xE0 SHL DUP2 MSTORE PUSH1 0x32 PUSH1 0x4 MSTORE REVERT JUMPDEST PUSH4 0x4E487B71 PUSH1 0xE0 SHL PUSH1 0x0 MSTORE PUSH1 0x32 PUSH1 0x4 MSTORE PUSH1 0x24 PUSH1 0x0 REVERT JUMPDEST PUSH1 0x0 DUP1 SWAP2 PUSH1 0x40 MLOAD PUSH2 0x2BDA DUP2 PUSH2 0x8E3 PUSH1 0x20 DUP3 ADD SWAP5 PUSH4 0x104C13EB PUSH1 0xE2 SHL DUP7 MSTORE PUSH1 0x20 PUSH1 0x24 DUP5 ADD MSTORE PUSH1 0x44 DUP4 ADD SWAP1 PUSH2 0x27C6 JUMP JUMPDEST MLOAD SWAP1 PUSH11 0x636F6E736F6C652E6C6F67 GAS STATICCALL POP JUMP JUMPDEST PUSH1 0x0 SWAP2 SWAP1 DUP3 SWAP2 PUSH2 0x2BDA PUSH1 0x40 MLOAD DUP1 SWAP3 PUSH2 0x2C1E PUSH1 0x20 DUP4 ADD SWAP6 PUSH4 0x319AF333 PUSH1 0xE0 SHL DUP8 MSTORE PUSH1 0x40 PUSH1 0x24 DUP6 ADD MSTORE PUSH1 0x64 DUP5 ADD SWAP1 PUSH2 0x27C6 JUMP JUMPDEST PUSH1 0x1 PUSH1 0x1 PUSH1 0xA0 SHL SUB SWAP2 SWAP1 SWAP2 AND PUSH1 0x44 DUP4 ADD MSTORE SUB PUSH1 0x1F NOT DUP2 ADD DUP4 MSTORE DUP3 PUSH2 0x25A3 JUMP INVALID 0xC2 0xD7 PUSH7 0x6F146293188B27 CALLER EXP GAS 0xBA 0xC4 0x4D 0xBE 0x4B PUSH23 0x9E360DEBA08CEEF725F96D9ECBA2646970667358221220 INVALID COINBASE 0xD5 PUSH31 0x36C386E130A79378C95D522C8FD8B900C4F076D4F9C58649441ABCAD64736F PUSH13 0x63430008140033000000000000 "},"methodIdentifiers":{"accumulatedFees(address)":"fcf66664","createWrappedSong(address,(string,string,string,string,string,string),uint256)":"b9408f5c","metadataModule()":"3684d100","migrateWrappedSong(address,address)":"d70a0abc","protocolModule()":"5c42e667","withdrawAccumulatedFees(address,address)":"376c1f07","wrappedSongTemplate()":"3e22876b","wsTokenTemplate()":"5e63149f"}},"storageLayout":{"storage":[{"astId":2321,"contract":"contracts/mocks/WrappedSongFactoryV2.sol:WrappedSongFactoryV2","label":"accumulatedFees","offset":0,"slot":"0","type":"t_mapping(t_address,t_uint256)"}],"types":{"t_address":{"encoding":"inplace","label":"address","numberOfBytes":"20"},"t_mapping(t_address,t_uint256)":{"encoding":"mapping","key":"t_address","label":"mapping(address => uint256)","numberOfBytes":"32","value":"t_uint256"},"t_uint256":{"encoding":"inplace","label":"uint256","numberOfBytes":"32"}}}}}}