{"contracts/protocol/Modules/IdentityModule.sol":{"IdentityModule":{"abi":[{"inputs":[{"internalType":"contract ReleaseModule","name":"_releaseModule","type":"address"}],"stateMutability":"nonpayable","type":"constructor"},{"inputs":[{"internalType":"address","name":"owner","type":"address"}],"name":"OwnableInvalidOwner","type":"error"},{"inputs":[{"internalType":"address","name":"account","type":"address"}],"name":"OwnableUnauthorizedAccount","type":"error"},{"anonymous":false,"inputs":[{"indexed":true,"internalType":"address","name":"wrappedSong","type":"address"},{"indexed":false,"internalType":"string","name":"registryType","type":"string"},{"indexed":false,"internalType":"string","name":"value","type":"string"}],"name":"IdentityRegistryUpdated","type":"event"},{"anonymous":false,"inputs":[{"indexed":true,"internalType":"address","name":"previousOwner","type":"address"},{"indexed":true,"internalType":"address","name":"newOwner","type":"address"}],"name":"OwnershipTransferred","type":"event"},{"anonymous":false,"inputs":[{"indexed":true,"internalType":"address","name":"wrappedSong","type":"address"},{"indexed":false,"internalType":"bool","name":"isAuthentic","type":"bool"}],"name":"WrappedSongAuthenticitySet","type":"event"},{"inputs":[{"internalType":"address","name":"wrappedSong","type":"address"},{"internalType":"string","name":"iscc","type":"string"}],"name":"addISCC","outputs":[],"stateMutability":"nonpayable","type":"function"},{"inputs":[{"internalType":"address","name":"wrappedSong","type":"address"},{"internalType":"string","name":"isrc","type":"string"}],"name":"addISRC","outputs":[],"stateMutability":"nonpayable","type":"function"},{"inputs":[{"internalType":"address","name":"wrappedSong","type":"address"},{"internalType":"string","name":"iswc","type":"string"}],"name":"addISWC","outputs":[],"stateMutability":"nonpayable","type":"function"},{"inputs":[{"internalType":"address","name":"wrappedSong","type":"address"},{"internalType":"string","name":"upc","type":"string"}],"name":"addUPC","outputs":[],"stateMutability":"nonpayable","type":"function"},{"inputs":[{"internalType":"address","name":"wrappedSong","type":"address"}],"name":"getIsccCode","outputs":[{"internalType":"string","name":"","type":"string"}],"stateMutability":"view","type":"function"},{"inputs":[{"internalType":"address","name":"wrappedSong","type":"address"}],"name":"getIsrcCode","outputs":[{"internalType":"string","name":"","type":"string"}],"stateMutability":"view","type":"function"},{"inputs":[{"internalType":"address","name":"wrappedSong","type":"address"}],"name":"getIswcCode","outputs":[{"internalType":"string","name":"","type":"string"}],"stateMutability":"view","type":"function"},{"inputs":[{"internalType":"address","name":"wrappedSong","type":"address"}],"name":"getUpcCode","outputs":[{"internalType":"string","name":"","type":"string"}],"stateMutability":"view","type":"function"},{"inputs":[{"internalType":"address","name":"wrappedSong","type":"address"}],"name":"isAuthentic","outputs":[{"internalType":"bool","name":"","type":"bool"}],"stateMutability":"view","type":"function"},{"inputs":[{"internalType":"address","name":"","type":"address"}],"name":"isccRegistry","outputs":[{"internalType":"string","name":"","type":"string"}],"stateMutability":"view","type":"function"},{"inputs":[{"internalType":"address","name":"","type":"address"}],"name":"isrcRegistry","outputs":[{"internalType":"string","name":"","type":"string"}],"stateMutability":"view","type":"function"},{"inputs":[{"internalType":"address","name":"","type":"address"}],"name":"iswcRegistry","outputs":[{"internalType":"string","name":"","type":"string"}],"stateMutability":"view","type":"function"},{"inputs":[],"name":"owner","outputs":[{"internalType":"address","name":"","type":"address"}],"stateMutability":"view","type":"function"},{"inputs":[],"name":"releaseModule","outputs":[{"internalType":"contract ReleaseModule","name":"","type":"address"}],"stateMutability":"view","type":"function"},{"inputs":[],"name":"renounceOwnership","outputs":[],"stateMutability":"nonpayable","type":"function"},{"inputs":[{"internalType":"address","name":"wrappedSong","type":"address"},{"internalType":"bool","name":"_isAuthentic","type":"bool"}],"name":"setWrappedSongAuthenticity","outputs":[],"stateMutability":"nonpayable","type":"function"},{"inputs":[{"internalType":"address","name":"newOwner","type":"address"}],"name":"transferOwnership","outputs":[],"stateMutability":"nonpayable","type":"function"},{"inputs":[{"internalType":"address","name":"","type":"address"}],"name":"upcRegistry","outputs":[{"internalType":"string","name":"","type":"string"}],"stateMutability":"view","type":"function"},{"inputs":[{"internalType":"address","name":"","type":"address"}],"name":"wrappedSongAuthenticity","outputs":[{"internalType":"bool","name":"","type":"bool"}],"stateMutability":"view","type":"function"}],"evm":{"bytecode":{"linkReferences":{},"object":"6080346100c657601f6110f538819003918201601f19168301916001600160401b038311848410176100cb578084926020946040528339810103126100c657516001600160a01b0390818116908190036100c65733156100ad5760005460018060a01b0319903382821617600055604051933391167f8be0079c531659141344cd1fd0a4f28419497f9722a3daafe3b4186f6b6457e0600080a3600654161760065561101390816100e28239f35b604051631e4fbdf760e01b815260006004820152602490fd5b600080fd5b634e487b7160e01b600052604160045260246000fdfe6080604081815260048036101561001557600080fd5b600092833560e01c90816306fd88ed14610ce15750806310df9a8414610ca6578063164158ff146107b25780631e944d5414610ca657806321dd882b1461050a578063496d51af14610a925780634bb43e5c146103d95780634fa71b061461089957806365bb98b514610870578063715018a6146108135780638da5cb5b146107eb5780639860da00146107b2578063a4144de614610583578063a449357514610545578063a84286561461050a578063be94e3191461042b578063cc7e5445146103d9578063dfef96811461017d5763f2fde38b146100f457600080fd5b346101795760203660031901126101795761010d610d1c565b90610116610f15565b6001600160a01b0391821692831561016357505082546001600160a01b0319811683178455167f8be0079c531659141344cd1fd0a4f28419497f9722a3daafe3b4186f6b6457e08380a380f35b51631e4fbdf760e01b8152908101849052602490fd5b8280fd5b509190346103d55761018e36610e8f565b6006548351633aa690e760e01b81526001600160a01b03938416818801819052602097909594909288908390602490829085165afa9182156103cb57906101e09291889261039c575b50163314610f60565b81511561036357838552600286528285209082519067ffffffffffffffff8211610350575061020f8254610d77565b601f811161030d575b5086601f821160011461029357869761028293836003979694608094600080516020610fbe8339815191529a9b91610288575b508160011b91600019908a1b1c19161790555b84519585879687528601526255504360e81b60608601528401526080830190610d37565b0390a280f35b90508501513861024b565b82875287872090601f198316885b8181106102f6575093600184608094600080516020610fbe8339815191529a9b9c9460039a999761028299106102de575b5050811b01905561025e565b870151600019838c1b60f8161c1916905538806102d2565b91928a60018192868a0151815501940192016102a1565b828752878720601f830160051c810191898410610346575b601f0160051c01905b81811061033b5750610218565b87815560010161032e565b9091508190610325565b634e487b7160e01b875260419052602486fd5b825162461bcd60e51b815290810186905260136024820152725550432063616e6e6f7420626520656d70747960681b6044820152606490fd5b6103bd919250893d8b116103c4575b6103b58183610db1565b810190610f41565b90386101d7565b503d6103ab565b85513d89823e3d90fd5b5080fd5b5050346103d55760203660031901126103d557610427916104149082906001600160a01b03610406610d1c565b168152600360205220610de9565b9051918291602083526020830190610d37565b0390f35b509034610179578060031936011261017957610445610d1c565b9060243591821515809303610506576006548251633aa690e760e01b81526001600160a01b0392831695810186905291906020908390602490829085165afa9182156104fc577fb54df1287f3d7012d0c033203342de84104f09a34d968f171bff51825d6cf5449492602094926104c59289926104e45750163314610f60565b8486526005835280862060ff1981541660ff841617905551908152a280f35b6103bd919250863d81116103c4576103b58183610db1565b83513d88823e3d90fd5b8480fd5b5050346103d55760203660031901126103d557610427916104149082906001600160a01b03610537610d1c565b168152600160205220610de9565b5050346103d55760203660031901126103d55760209160ff9082906001600160a01b03610570610d1c565b1681526005855220541690519015158152f35b50346101795761059236610e8f565b6006548451633aa690e760e01b81526001600160a01b03938416858201819052959360209283908390602490829085165afa9182156107a857906105e0929189926107905750163314610f60565b8151156107575784865260038152828620825167ffffffffffffffff81116107445761060c8254610d77565b601f8111610701575b5082601f82116001146106895792600080516020610fbe8339815191529695949282608093610282968c9161067e575b508160011b916000199060031b1c19161790555b8451958587968752860152634953574360e01b60608601528401526080830190610d37565b905085015138610645565b82895283892090601f1983168a5b8181106106ea5750836102829693600080516020610fbe8339815191529a99989693608096600194106106d1575b5050811b019055610659565b87015160001960f88460031b161c1916905538806106c5565b91928660018192868b015181550194019201610697565b828952838920601f830160051c81019185841061073a575b601f0160051c01905b81811061072f5750610615565b898155600101610722565b9091508190610719565b634e487b7160e01b885260418652602488fd5b8360649184519162461bcd60e51b83528201526014602482015273495357432063616e6e6f7420626520656d70747960601b6044820152fd5b6103bd919250843d86116103c4576103b58183610db1565b85513d8a823e3d90fd5b50346101795760203660031901126101795761042792610414918391906001600160a01b036107df610d1c565b16825260205220610de9565b5050346103d557816003193601126103d557905490516001600160a01b039091168152602090f35b833461086d578060031936011261086d5761082c610f15565b80546001600160a01b03198116825581906001600160a01b03167f8be0079c531659141344cd1fd0a4f28419497f9722a3daafe3b4186f6b6457e08280a380f35b80fd5b5050346103d557816003193601126103d55760065490516001600160a01b039091168152602090f35b5034610179576108a836610e8f565b6006548451633aa690e760e01b81526001600160a01b03938416858201819052959360209283908390602490829085165afa9182156107a857906108f6929189926107905750163314610f60565b815115610a5957848652838152828620825167ffffffffffffffff8111610744576109218254610d77565b601f8111610a16575b5082601f821160011461099e5792600080516020610fbe8339815191529695949282608093610282968c91610993575b508160011b916000199060031b1c19161790555b8451958587968752860152634953434360e01b60608601528401526080830190610d37565b90508501513861095a565b82895283892090601f1983168a5b8181106109ff5750836102829693600080516020610fbe8339815191529a99989693608096600194106109e6575b5050811b01905561096e565b87015160001960f88460031b161c1916905538806109da565b91928660018192868b0151815501940192016109ac565b828952838920601f830160051c810191858410610a4f575b601f0160051c01905b818110610a44575061092a565b898155600101610a37565b9091508190610a2e565b8360649184519162461bcd60e51b83528201526014602482015273495343432063616e6e6f7420626520656d70747960601b6044820152fd5b503461017957610aa136610e8f565b6006548451633aa690e760e01b81526001600160a01b03938416858201819052959360209283908390602490829085165afa9182156107a85790610aef929189926107905750163314610f60565b815115610c6d5784865260018082528387209083519067ffffffffffffffff8211610c5a57610b1e8354610d77565b601f8111610c14575b508389601f8411600114610b9b579280806102829794600080516020610fbe8339815191529b9a99979460809793610b90575b501b916000199060031b1c19161790555b8451958587968752860152634953524360e01b60608601528401526080830190610d37565b880151925038610b5a565b50838a52848a2091929190601f1983168b5b818110610bff575092600080516020610fbe83398151915299989795926080959282610282999610610be6575b5050811b019055610b6b565b87015160001960f88460031b161c191690553880610bda565b88830151845592850192918701918701610bad565b838a52848a20601f840160051c810191868510610c50575b601f0160051c019082905b828110610c45575050610b27565b8b8155018290610c37565b9091508190610c2c565b634e487b7160e01b895260418752602489fd5b8360649184519162461bcd60e51b83528201526014602482015273495352432063616e6e6f7420626520656d70747960601b6044820152fd5b5050346103d55760203660031901126103d557610427916104149082906001600160a01b03610cd3610d1c565b168152600260205220610de9565b849084346101795760203660031901126101795760209260ff91906001600160a01b03610d0c610d1c565b1681526005855220541615158152f35b600435906001600160a01b0382168203610d3257565b600080fd5b919082519283825260005b848110610d63575050826000602080949584010152601f8019910116010190565b602081830181015184830182015201610d42565b90600182811c92168015610da7575b6020831014610d9157565b634e487b7160e01b600052602260045260246000fd5b91607f1691610d86565b90601f8019910116810190811067ffffffffffffffff821117610dd357604052565b634e487b7160e01b600052604160045260246000fd5b9060405191826000825492610dfd84610d77565b908184526001948581169081600014610e6c5750600114610e29575b5050610e2792500383610db1565b565b9093915060005260209081600020936000915b818310610e54575050610e2793508201013880610e19565b85548884018501529485019487945091830191610e3c565b915050610e2794506020925060ff191682840152151560051b8201013880610e19565b906040600319830112610d32576004356001600160a01b0381168103610d32579167ffffffffffffffff602435818111610d325782602382011215610d32578060040135918211610dd35760405192610ef2601f8401601f191660200185610db1565b82845260248383010111610d325781600092602460209301838601378301015290565b6000546001600160a01b03163303610f2957565b60405163118cdaa760e01b8152336004820152602490fd5b90816020910312610d3257516001600160a01b0381168103610d325790565b15610f6757565b60405162461bcd60e51b815260206004820152602860248201527f4f6e6c79206469737472696275746f722063616e20706572666f726d20746869604482015267399030b1ba34b7b760c11b6064820152608490fdfea7277ea7d4dbb8f0cc254f34cf3e4ac197629ee7789dfa02f6b28a887228909ba264697066735822122096c55af8c9b728044ae7b3a41a2cb8a235f202bb1c404ec4c8af834708a725f364736f6c63430008140033","opcodes":"PUSH1 0x80 CALLVALUE PUSH2 0xC6 JUMPI PUSH1 0x1F PUSH2 0x10F5 CODESIZE DUP2 SWAP1 SUB SWAP2 DUP3 ADD PUSH1 0x1F NOT AND DUP4 ADD SWAP2 PUSH1 0x1 PUSH1 0x1 PUSH1 0x40 SHL SUB DUP4 GT DUP5 DUP5 LT OR PUSH2 0xCB JUMPI DUP1 DUP5 SWAP3 PUSH1 0x20 SWAP5 PUSH1 0x40 MSTORE DUP4 CODECOPY DUP2 ADD SUB SLT PUSH2 0xC6 JUMPI MLOAD PUSH1 0x1 PUSH1 0x1 PUSH1 0xA0 SHL SUB SWAP1 DUP2 DUP2 AND SWAP1 DUP2 SWAP1 SUB PUSH2 0xC6 JUMPI CALLER ISZERO PUSH2 0xAD JUMPI PUSH1 0x0 SLOAD PUSH1 0x1 DUP1 PUSH1 0xA0 SHL SUB NOT SWAP1 CALLER DUP3 DUP3 AND OR PUSH1 0x0 SSTORE PUSH1 0x40 MLOAD SWAP4 CALLER SWAP2 AND PUSH32 0x8BE0079C531659141344CD1FD0A4F28419497F9722A3DAAFE3B4186F6B6457E0 PUSH1 0x0 DUP1 LOG3 PUSH1 0x6 SLOAD AND OR PUSH1 0x6 SSTORE PUSH2 0x1013 SWAP1 DUP2 PUSH2 0xE2 DUP3 CODECOPY RETURN JUMPDEST PUSH1 0x40 MLOAD PUSH4 0x1E4FBDF7 PUSH1 0xE0 SHL DUP2 MSTORE PUSH1 0x0 PUSH1 0x4 DUP3 ADD MSTORE PUSH1 0x24 SWAP1 REVERT JUMPDEST PUSH1 0x0 DUP1 REVERT JUMPDEST PUSH4 0x4E487B71 PUSH1 0xE0 SHL PUSH1 0x0 MSTORE PUSH1 0x41 PUSH1 0x4 MSTORE PUSH1 0x24 PUSH1 0x0 REVERT INVALID PUSH1 0x80 PUSH1 0x40 DUP2 DUP2 MSTORE PUSH1 0x4 DUP1 CALLDATASIZE LT ISZERO PUSH2 0x15 JUMPI PUSH1 0x0 DUP1 REVERT JUMPDEST PUSH1 0x0 SWAP3 DUP4 CALLDATALOAD PUSH1 0xE0 SHR SWAP1 DUP2 PUSH4 0x6FD88ED EQ PUSH2 0xCE1 JUMPI POP DUP1 PUSH4 0x10DF9A84 EQ PUSH2 0xCA6 JUMPI DUP1 PUSH4 0x164158FF EQ PUSH2 0x7B2 JUMPI DUP1 PUSH4 0x1E944D54 EQ PUSH2 0xCA6 JUMPI DUP1 PUSH4 0x21DD882B EQ PUSH2 0x50A JUMPI DUP1 PUSH4 0x496D51AF EQ PUSH2 0xA92 JUMPI DUP1 PUSH4 0x4BB43E5C EQ PUSH2 0x3D9 JUMPI DUP1 PUSH4 0x4FA71B06 EQ PUSH2 0x899 JUMPI DUP1 PUSH4 0x65BB98B5 EQ PUSH2 0x870 JUMPI DUP1 PUSH4 0x715018A6 EQ PUSH2 0x813 JUMPI DUP1 PUSH4 0x8DA5CB5B EQ PUSH2 0x7EB JUMPI DUP1 PUSH4 0x9860DA00 EQ PUSH2 0x7B2 JUMPI DUP1 PUSH4 0xA4144DE6 EQ PUSH2 0x583 JUMPI DUP1 PUSH4 0xA4493575 EQ PUSH2 0x545 JUMPI DUP1 PUSH4 0xA8428656 EQ PUSH2 0x50A JUMPI DUP1 PUSH4 0xBE94E319 EQ PUSH2 0x42B JUMPI DUP1 PUSH4 0xCC7E5445 EQ PUSH2 0x3D9 JUMPI DUP1 PUSH4 0xDFEF9681 EQ PUSH2 0x17D JUMPI PUSH4 0xF2FDE38B EQ PUSH2 0xF4 JUMPI PUSH1 0x0 DUP1 REVERT JUMPDEST CALLVALUE PUSH2 0x179 JUMPI PUSH1 0x20 CALLDATASIZE PUSH1 0x3 NOT ADD SLT PUSH2 0x179 JUMPI PUSH2 0x10D PUSH2 0xD1C JUMP JUMPDEST SWAP1 PUSH2 0x116 PUSH2 0xF15 JUMP JUMPDEST PUSH1 0x1 PUSH1 0x1 PUSH1 0xA0 SHL SUB SWAP2 DUP3 AND SWAP3 DUP4 ISZERO PUSH2 0x163 JUMPI POP POP DUP3 SLOAD PUSH1 0x1 PUSH1 0x1 PUSH1 0xA0 SHL SUB NOT DUP2 AND DUP4 OR DUP5 SSTORE AND PUSH32 0x8BE0079C531659141344CD1FD0A4F28419497F9722A3DAAFE3B4186F6B6457E0 DUP4 DUP1 LOG3 DUP1 RETURN JUMPDEST MLOAD PUSH4 0x1E4FBDF7 PUSH1 0xE0 SHL DUP2 MSTORE SWAP1 DUP2 ADD DUP5 SWAP1 MSTORE PUSH1 0x24 SWAP1 REVERT JUMPDEST DUP3 DUP1 REVERT JUMPDEST POP SWAP2 SWAP1 CALLVALUE PUSH2 0x3D5 JUMPI PUSH2 0x18E CALLDATASIZE PUSH2 0xE8F JUMP JUMPDEST PUSH1 0x6 SLOAD DUP4 MLOAD PUSH4 0x3AA690E7 PUSH1 0xE0 SHL DUP2 MSTORE PUSH1 0x1 PUSH1 0x1 PUSH1 0xA0 SHL SUB SWAP4 DUP5 AND DUP2 DUP9 ADD DUP2 SWAP1 MSTORE PUSH1 0x20 SWAP8 SWAP1 SWAP6 SWAP5 SWAP1 SWAP3 DUP9 SWAP1 DUP4 SWAP1 PUSH1 0x24 SWAP1 DUP3 SWAP1 DUP6 AND GAS STATICCALL SWAP2 DUP3 ISZERO PUSH2 0x3CB JUMPI SWAP1 PUSH2 0x1E0 SWAP3 SWAP2 DUP9 SWAP3 PUSH2 0x39C JUMPI JUMPDEST POP AND CALLER EQ PUSH2 0xF60 JUMP JUMPDEST DUP2 MLOAD ISZERO PUSH2 0x363 JUMPI DUP4 DUP6 MSTORE PUSH1 0x2 DUP7 MSTORE DUP3 DUP6 KECCAK256 SWAP1 DUP3 MLOAD SWAP1 PUSH8 0xFFFFFFFFFFFFFFFF DUP3 GT PUSH2 0x350 JUMPI POP PUSH2 0x20F DUP3 SLOAD PUSH2 0xD77 JUMP JUMPDEST PUSH1 0x1F DUP2 GT PUSH2 0x30D JUMPI JUMPDEST POP DUP7 PUSH1 0x1F DUP3 GT PUSH1 0x1 EQ PUSH2 0x293 JUMPI DUP7 SWAP8 PUSH2 0x282 SWAP4 DUP4 PUSH1 0x3 SWAP8 SWAP7 SWAP5 PUSH1 0x80 SWAP5 PUSH1 0x0 DUP1 MLOAD PUSH1 0x20 PUSH2 0xFBE DUP4 CODECOPY DUP2 MLOAD SWAP2 MSTORE SWAP11 SWAP12 SWAP2 PUSH2 0x288 JUMPI JUMPDEST POP DUP2 PUSH1 0x1 SHL SWAP2 PUSH1 0x0 NOT SWAP1 DUP11 SHL SHR NOT AND OR SWAP1 SSTORE JUMPDEST DUP5 MLOAD SWAP6 DUP6 DUP8 SWAP7 DUP8 MSTORE DUP7 ADD MSTORE PUSH3 0x555043 PUSH1 0xE8 SHL PUSH1 0x60 DUP7 ADD MSTORE DUP5 ADD MSTORE PUSH1 0x80 DUP4 ADD SWAP1 PUSH2 0xD37 JUMP JUMPDEST SUB SWAP1 LOG2 DUP1 RETURN JUMPDEST SWAP1 POP DUP6 ADD MLOAD CODESIZE PUSH2 0x24B JUMP JUMPDEST DUP3 DUP8 MSTORE DUP8 DUP8 KECCAK256 SWAP1 PUSH1 0x1F NOT DUP4 AND DUP9 JUMPDEST DUP2 DUP2 LT PUSH2 0x2F6 JUMPI POP SWAP4 PUSH1 0x1 DUP5 PUSH1 0x80 SWAP5 PUSH1 0x0 DUP1 MLOAD PUSH1 0x20 PUSH2 0xFBE DUP4 CODECOPY DUP2 MLOAD SWAP2 MSTORE SWAP11 SWAP12 SWAP13 SWAP5 PUSH1 0x3 SWAP11 SWAP10 SWAP8 PUSH2 0x282 SWAP10 LT PUSH2 0x2DE JUMPI JUMPDEST POP POP DUP2 SHL ADD SWAP1 SSTORE PUSH2 0x25E JUMP JUMPDEST DUP8 ADD MLOAD PUSH1 0x0 NOT DUP4 DUP13 SHL PUSH1 0xF8 AND SHR NOT AND SWAP1 SSTORE CODESIZE DUP1 PUSH2 0x2D2 JUMP JUMPDEST SWAP2 SWAP3 DUP11 PUSH1 0x1 DUP2 SWAP3 DUP7 DUP11 ADD MLOAD DUP2 SSTORE ADD SWAP5 ADD SWAP3 ADD PUSH2 0x2A1 JUMP JUMPDEST DUP3 DUP8 MSTORE DUP8 DUP8 KECCAK256 PUSH1 0x1F DUP4 ADD PUSH1 0x5 SHR DUP2 ADD SWAP2 DUP10 DUP5 LT PUSH2 0x346 JUMPI JUMPDEST PUSH1 0x1F ADD PUSH1 0x5 SHR ADD SWAP1 JUMPDEST DUP2 DUP2 LT PUSH2 0x33B JUMPI POP PUSH2 0x218 JUMP JUMPDEST DUP8 DUP2 SSTORE PUSH1 0x1 ADD PUSH2 0x32E JUMP JUMPDEST SWAP1 SWAP2 POP DUP2 SWAP1 PUSH2 0x325 JUMP JUMPDEST PUSH4 0x4E487B71 PUSH1 0xE0 SHL DUP8 MSTORE PUSH1 0x41 SWAP1 MSTORE PUSH1 0x24 DUP7 REVERT JUMPDEST DUP3 MLOAD PUSH3 0x461BCD PUSH1 0xE5 SHL DUP2 MSTORE SWAP1 DUP2 ADD DUP7 SWAP1 MSTORE PUSH1 0x13 PUSH1 0x24 DUP3 ADD MSTORE PUSH19 0x5550432063616E6E6F7420626520656D707479 PUSH1 0x68 SHL PUSH1 0x44 DUP3 ADD MSTORE PUSH1 0x64 SWAP1 REVERT JUMPDEST PUSH2 0x3BD SWAP2 SWAP3 POP DUP10 RETURNDATASIZE DUP12 GT PUSH2 0x3C4 JUMPI JUMPDEST PUSH2 0x3B5 DUP2 DUP4 PUSH2 0xDB1 JUMP JUMPDEST DUP2 ADD SWAP1 PUSH2 0xF41 JUMP JUMPDEST SWAP1 CODESIZE PUSH2 0x1D7 JUMP JUMPDEST POP RETURNDATASIZE PUSH2 0x3AB JUMP JUMPDEST DUP6 MLOAD RETURNDATASIZE DUP10 DUP3 RETURNDATACOPY RETURNDATASIZE SWAP1 REVERT JUMPDEST POP DUP1 REVERT JUMPDEST POP POP CALLVALUE PUSH2 0x3D5 JUMPI PUSH1 0x20 CALLDATASIZE PUSH1 0x3 NOT ADD SLT PUSH2 0x3D5 JUMPI PUSH2 0x427 SWAP2 PUSH2 0x414 SWAP1 DUP3 SWAP1 PUSH1 0x1 PUSH1 0x1 PUSH1 0xA0 SHL SUB PUSH2 0x406 PUSH2 0xD1C JUMP JUMPDEST AND DUP2 MSTORE PUSH1 0x3 PUSH1 0x20 MSTORE KECCAK256 PUSH2 0xDE9 JUMP JUMPDEST SWAP1 MLOAD SWAP2 DUP3 SWAP2 PUSH1 0x20 DUP4 MSTORE PUSH1 0x20 DUP4 ADD SWAP1 PUSH2 0xD37 JUMP JUMPDEST SUB SWAP1 RETURN JUMPDEST POP SWAP1 CALLVALUE PUSH2 0x179 JUMPI DUP1 PUSH1 0x3 NOT CALLDATASIZE ADD SLT PUSH2 0x179 JUMPI PUSH2 0x445 PUSH2 0xD1C JUMP JUMPDEST SWAP1 PUSH1 0x24 CALLDATALOAD SWAP2 DUP3 ISZERO ISZERO DUP1 SWAP4 SUB PUSH2 0x506 JUMPI PUSH1 0x6 SLOAD DUP3 MLOAD PUSH4 0x3AA690E7 PUSH1 0xE0 SHL DUP2 MSTORE PUSH1 0x1 PUSH1 0x1 PUSH1 0xA0 SHL SUB SWAP3 DUP4 AND SWAP6 DUP2 ADD DUP7 SWAP1 MSTORE SWAP2 SWAP1 PUSH1 0x20 SWAP1 DUP4 SWAP1 PUSH1 0x24 SWAP1 DUP3 SWAP1 DUP6 AND GAS STATICCALL SWAP2 DUP3 ISZERO PUSH2 0x4FC JUMPI PUSH32 0xB54DF1287F3D7012D0C033203342DE84104F09A34D968F171BFF51825D6CF544 SWAP5 SWAP3 PUSH1 0x20 SWAP5 SWAP3 PUSH2 0x4C5 SWAP3 DUP10 SWAP3 PUSH2 0x4E4 JUMPI POP AND CALLER EQ PUSH2 0xF60 JUMP JUMPDEST DUP5 DUP7 MSTORE PUSH1 0x5 DUP4 MSTORE DUP1 DUP7 KECCAK256 PUSH1 0xFF NOT DUP2 SLOAD AND PUSH1 0xFF DUP5 AND OR SWAP1 SSTORE MLOAD SWAP1 DUP2 MSTORE LOG2 DUP1 RETURN JUMPDEST PUSH2 0x3BD SWAP2 SWAP3 POP DUP7 RETURNDATASIZE DUP2 GT PUSH2 0x3C4 JUMPI PUSH2 0x3B5 DUP2 DUP4 PUSH2 0xDB1 JUMP JUMPDEST DUP4 MLOAD RETURNDATASIZE DUP9 DUP3 RETURNDATACOPY RETURNDATASIZE SWAP1 REVERT JUMPDEST DUP5 DUP1 REVERT JUMPDEST POP POP CALLVALUE PUSH2 0x3D5 JUMPI PUSH1 0x20 CALLDATASIZE PUSH1 0x3 NOT ADD SLT PUSH2 0x3D5 JUMPI PUSH2 0x427 SWAP2 PUSH2 0x414 SWAP1 DUP3 SWAP1 PUSH1 0x1 PUSH1 0x1 PUSH1 0xA0 SHL SUB PUSH2 0x537 PUSH2 0xD1C JUMP JUMPDEST AND DUP2 MSTORE PUSH1 0x1 PUSH1 0x20 MSTORE KECCAK256 PUSH2 0xDE9 JUMP JUMPDEST POP POP CALLVALUE PUSH2 0x3D5 JUMPI PUSH1 0x20 CALLDATASIZE PUSH1 0x3 NOT ADD SLT PUSH2 0x3D5 JUMPI PUSH1 0x20 SWAP2 PUSH1 0xFF SWAP1 DUP3 SWAP1 PUSH1 0x1 PUSH1 0x1 PUSH1 0xA0 SHL SUB PUSH2 0x570 PUSH2 0xD1C JUMP JUMPDEST AND DUP2 MSTORE PUSH1 0x5 DUP6 MSTORE KECCAK256 SLOAD AND SWAP1 MLOAD SWAP1 ISZERO ISZERO DUP2 MSTORE RETURN JUMPDEST POP CALLVALUE PUSH2 0x179 JUMPI PUSH2 0x592 CALLDATASIZE PUSH2 0xE8F JUMP JUMPDEST PUSH1 0x6 SLOAD DUP5 MLOAD PUSH4 0x3AA690E7 PUSH1 0xE0 SHL DUP2 MSTORE PUSH1 0x1 PUSH1 0x1 PUSH1 0xA0 SHL SUB SWAP4 DUP5 AND DUP6 DUP3 ADD DUP2 SWAP1 MSTORE SWAP6 SWAP4 PUSH1 0x20 SWAP3 DUP4 SWAP1 DUP4 SWAP1 PUSH1 0x24 SWAP1 DUP3 SWAP1 DUP6 AND GAS STATICCALL SWAP2 DUP3 ISZERO PUSH2 0x7A8 JUMPI SWAP1 PUSH2 0x5E0 SWAP3 SWAP2 DUP10 SWAP3 PUSH2 0x790 JUMPI POP AND CALLER EQ PUSH2 0xF60 JUMP JUMPDEST DUP2 MLOAD ISZERO PUSH2 0x757 JUMPI DUP5 DUP7 MSTORE PUSH1 0x3 DUP2 MSTORE DUP3 DUP7 KECCAK256 DUP3 MLOAD PUSH8 0xFFFFFFFFFFFFFFFF DUP2 GT PUSH2 0x744 JUMPI PUSH2 0x60C DUP3 SLOAD PUSH2 0xD77 JUMP JUMPDEST PUSH1 0x1F DUP2 GT PUSH2 0x701 JUMPI JUMPDEST POP DUP3 PUSH1 0x1F DUP3 GT PUSH1 0x1 EQ PUSH2 0x689 JUMPI SWAP3 PUSH1 0x0 DUP1 MLOAD PUSH1 0x20 PUSH2 0xFBE DUP4 CODECOPY DUP2 MLOAD SWAP2 MSTORE SWAP7 SWAP6 SWAP5 SWAP3 DUP3 PUSH1 0x80 SWAP4 PUSH2 0x282 SWAP7 DUP13 SWAP2 PUSH2 0x67E JUMPI JUMPDEST POP DUP2 PUSH1 0x1 SHL SWAP2 PUSH1 0x0 NOT SWAP1 PUSH1 0x3 SHL SHR NOT AND OR SWAP1 SSTORE JUMPDEST DUP5 MLOAD SWAP6 DUP6 DUP8 SWAP7 DUP8 MSTORE DUP7 ADD MSTORE PUSH4 0x49535743 PUSH1 0xE0 SHL PUSH1 0x60 DUP7 ADD MSTORE DUP5 ADD MSTORE PUSH1 0x80 DUP4 ADD SWAP1 PUSH2 0xD37 JUMP JUMPDEST SWAP1 POP DUP6 ADD MLOAD CODESIZE PUSH2 0x645 JUMP JUMPDEST DUP3 DUP10 MSTORE DUP4 DUP10 KECCAK256 SWAP1 PUSH1 0x1F NOT DUP4 AND DUP11 JUMPDEST DUP2 DUP2 LT PUSH2 0x6EA JUMPI POP DUP4 PUSH2 0x282 SWAP7 SWAP4 PUSH1 0x0 DUP1 MLOAD PUSH1 0x20 PUSH2 0xFBE DUP4 CODECOPY DUP2 MLOAD SWAP2 MSTORE SWAP11 SWAP10 SWAP9 SWAP7 SWAP4 PUSH1 0x80 SWAP7 PUSH1 0x1 SWAP5 LT PUSH2 0x6D1 JUMPI JUMPDEST POP POP DUP2 SHL ADD SWAP1 SSTORE PUSH2 0x659 JUMP JUMPDEST DUP8 ADD MLOAD PUSH1 0x0 NOT PUSH1 0xF8 DUP5 PUSH1 0x3 SHL AND SHR NOT AND SWAP1 SSTORE CODESIZE DUP1 PUSH2 0x6C5 JUMP JUMPDEST SWAP2 SWAP3 DUP7 PUSH1 0x1 DUP2 SWAP3 DUP7 DUP12 ADD MLOAD DUP2 SSTORE ADD SWAP5 ADD SWAP3 ADD PUSH2 0x697 JUMP JUMPDEST DUP3 DUP10 MSTORE DUP4 DUP10 KECCAK256 PUSH1 0x1F DUP4 ADD PUSH1 0x5 SHR DUP2 ADD SWAP2 DUP6 DUP5 LT PUSH2 0x73A JUMPI JUMPDEST PUSH1 0x1F ADD PUSH1 0x5 SHR ADD SWAP1 JUMPDEST DUP2 DUP2 LT PUSH2 0x72F JUMPI POP PUSH2 0x615 JUMP JUMPDEST DUP10 DUP2 SSTORE PUSH1 0x1 ADD PUSH2 0x722 JUMP JUMPDEST SWAP1 SWAP2 POP DUP2 SWAP1 PUSH2 0x719 JUMP JUMPDEST PUSH4 0x4E487B71 PUSH1 0xE0 SHL DUP9 MSTORE PUSH1 0x41 DUP7 MSTORE PUSH1 0x24 DUP9 REVERT JUMPDEST DUP4 PUSH1 0x64 SWAP2 DUP5 MLOAD SWAP2 PUSH3 0x461BCD PUSH1 0xE5 SHL DUP4 MSTORE DUP3 ADD MSTORE PUSH1 0x14 PUSH1 0x24 DUP3 ADD MSTORE PUSH20 0x495357432063616E6E6F7420626520656D707479 PUSH1 0x60 SHL PUSH1 0x44 DUP3 ADD MSTORE REVERT JUMPDEST PUSH2 0x3BD SWAP2 SWAP3 POP DUP5 RETURNDATASIZE DUP7 GT PUSH2 0x3C4 JUMPI PUSH2 0x3B5 DUP2 DUP4 PUSH2 0xDB1 JUMP JUMPDEST DUP6 MLOAD RETURNDATASIZE DUP11 DUP3 RETURNDATACOPY RETURNDATASIZE SWAP1 REVERT JUMPDEST POP CALLVALUE PUSH2 0x179 JUMPI PUSH1 0x20 CALLDATASIZE PUSH1 0x3 NOT ADD SLT PUSH2 0x179 JUMPI PUSH2 0x427 SWAP3 PUSH2 0x414 SWAP2 DUP4 SWAP2 SWAP1 PUSH1 0x1 PUSH1 0x1 PUSH1 0xA0 SHL SUB PUSH2 0x7DF PUSH2 0xD1C JUMP JUMPDEST AND DUP3 MSTORE PUSH1 0x20 MSTORE KECCAK256 PUSH2 0xDE9 JUMP JUMPDEST POP POP CALLVALUE PUSH2 0x3D5 JUMPI DUP2 PUSH1 0x3 NOT CALLDATASIZE ADD SLT PUSH2 0x3D5 JUMPI SWAP1 SLOAD SWAP1 MLOAD PUSH1 0x1 PUSH1 0x1 PUSH1 0xA0 SHL SUB SWAP1 SWAP2 AND DUP2 MSTORE PUSH1 0x20 SWAP1 RETURN JUMPDEST DUP4 CALLVALUE PUSH2 0x86D JUMPI DUP1 PUSH1 0x3 NOT CALLDATASIZE ADD SLT PUSH2 0x86D JUMPI PUSH2 0x82C PUSH2 0xF15 JUMP JUMPDEST DUP1 SLOAD PUSH1 0x1 PUSH1 0x1 PUSH1 0xA0 SHL SUB NOT DUP2 AND DUP3 SSTORE DUP2 SWAP1 PUSH1 0x1 PUSH1 0x1 PUSH1 0xA0 SHL SUB AND PUSH32 0x8BE0079C531659141344CD1FD0A4F28419497F9722A3DAAFE3B4186F6B6457E0 DUP3 DUP1 LOG3 DUP1 RETURN JUMPDEST DUP1 REVERT JUMPDEST POP POP CALLVALUE PUSH2 0x3D5 JUMPI DUP2 PUSH1 0x3 NOT CALLDATASIZE ADD SLT PUSH2 0x3D5 JUMPI PUSH1 0x6 SLOAD SWAP1 MLOAD PUSH1 0x1 PUSH1 0x1 PUSH1 0xA0 SHL SUB SWAP1 SWAP2 AND DUP2 MSTORE PUSH1 0x20 SWAP1 RETURN JUMPDEST POP CALLVALUE PUSH2 0x179 JUMPI PUSH2 0x8A8 CALLDATASIZE PUSH2 0xE8F JUMP JUMPDEST PUSH1 0x6 SLOAD DUP5 MLOAD PUSH4 0x3AA690E7 PUSH1 0xE0 SHL DUP2 MSTORE PUSH1 0x1 PUSH1 0x1 PUSH1 0xA0 SHL SUB SWAP4 DUP5 AND DUP6 DUP3 ADD DUP2 SWAP1 MSTORE SWAP6 SWAP4 PUSH1 0x20 SWAP3 DUP4 SWAP1 DUP4 SWAP1 PUSH1 0x24 SWAP1 DUP3 SWAP1 DUP6 AND GAS STATICCALL SWAP2 DUP3 ISZERO PUSH2 0x7A8 JUMPI SWAP1 PUSH2 0x8F6 SWAP3 SWAP2 DUP10 SWAP3 PUSH2 0x790 JUMPI POP AND CALLER EQ PUSH2 0xF60 JUMP JUMPDEST DUP2 MLOAD ISZERO PUSH2 0xA59 JUMPI DUP5 DUP7 MSTORE DUP4 DUP2 MSTORE DUP3 DUP7 KECCAK256 DUP3 MLOAD PUSH8 0xFFFFFFFFFFFFFFFF DUP2 GT PUSH2 0x744 JUMPI PUSH2 0x921 DUP3 SLOAD PUSH2 0xD77 JUMP JUMPDEST PUSH1 0x1F DUP2 GT PUSH2 0xA16 JUMPI JUMPDEST POP DUP3 PUSH1 0x1F DUP3 GT PUSH1 0x1 EQ PUSH2 0x99E JUMPI SWAP3 PUSH1 0x0 DUP1 MLOAD PUSH1 0x20 PUSH2 0xFBE DUP4 CODECOPY DUP2 MLOAD SWAP2 MSTORE SWAP7 SWAP6 SWAP5 SWAP3 DUP3 PUSH1 0x80 SWAP4 PUSH2 0x282 SWAP7 DUP13 SWAP2 PUSH2 0x993 JUMPI JUMPDEST POP DUP2 PUSH1 0x1 SHL SWAP2 PUSH1 0x0 NOT SWAP1 PUSH1 0x3 SHL SHR NOT AND OR SWAP1 SSTORE JUMPDEST DUP5 MLOAD SWAP6 DUP6 DUP8 SWAP7 DUP8 MSTORE DUP7 ADD MSTORE PUSH4 0x49534343 PUSH1 0xE0 SHL PUSH1 0x60 DUP7 ADD MSTORE DUP5 ADD MSTORE PUSH1 0x80 DUP4 ADD SWAP1 PUSH2 0xD37 JUMP JUMPDEST SWAP1 POP DUP6 ADD MLOAD CODESIZE PUSH2 0x95A JUMP JUMPDEST DUP3 DUP10 MSTORE DUP4 DUP10 KECCAK256 SWAP1 PUSH1 0x1F NOT DUP4 AND DUP11 JUMPDEST DUP2 DUP2 LT PUSH2 0x9FF JUMPI POP DUP4 PUSH2 0x282 SWAP7 SWAP4 PUSH1 0x0 DUP1 MLOAD PUSH1 0x20 PUSH2 0xFBE DUP4 CODECOPY DUP2 MLOAD SWAP2 MSTORE SWAP11 SWAP10 SWAP9 SWAP7 SWAP4 PUSH1 0x80 SWAP7 PUSH1 0x1 SWAP5 LT PUSH2 0x9E6 JUMPI JUMPDEST POP POP DUP2 SHL ADD SWAP1 SSTORE PUSH2 0x96E JUMP JUMPDEST DUP8 ADD MLOAD PUSH1 0x0 NOT PUSH1 0xF8 DUP5 PUSH1 0x3 SHL AND SHR NOT AND SWAP1 SSTORE CODESIZE DUP1 PUSH2 0x9DA JUMP JUMPDEST SWAP2 SWAP3 DUP7 PUSH1 0x1 DUP2 SWAP3 DUP7 DUP12 ADD MLOAD DUP2 SSTORE ADD SWAP5 ADD SWAP3 ADD PUSH2 0x9AC JUMP JUMPDEST DUP3 DUP10 MSTORE DUP4 DUP10 KECCAK256 PUSH1 0x1F DUP4 ADD PUSH1 0x5 SHR DUP2 ADD SWAP2 DUP6 DUP5 LT PUSH2 0xA4F JUMPI JUMPDEST PUSH1 0x1F ADD PUSH1 0x5 SHR ADD SWAP1 JUMPDEST DUP2 DUP2 LT PUSH2 0xA44 JUMPI POP PUSH2 0x92A JUMP JUMPDEST DUP10 DUP2 SSTORE PUSH1 0x1 ADD PUSH2 0xA37 JUMP JUMPDEST SWAP1 SWAP2 POP DUP2 SWAP1 PUSH2 0xA2E JUMP JUMPDEST DUP4 PUSH1 0x64 SWAP2 DUP5 MLOAD SWAP2 PUSH3 0x461BCD PUSH1 0xE5 SHL DUP4 MSTORE DUP3 ADD MSTORE PUSH1 0x14 PUSH1 0x24 DUP3 ADD MSTORE PUSH20 0x495343432063616E6E6F7420626520656D707479 PUSH1 0x60 SHL PUSH1 0x44 DUP3 ADD MSTORE REVERT JUMPDEST POP CALLVALUE PUSH2 0x179 JUMPI PUSH2 0xAA1 CALLDATASIZE PUSH2 0xE8F JUMP JUMPDEST PUSH1 0x6 SLOAD DUP5 MLOAD PUSH4 0x3AA690E7 PUSH1 0xE0 SHL DUP2 MSTORE PUSH1 0x1 PUSH1 0x1 PUSH1 0xA0 SHL SUB SWAP4 DUP5 AND DUP6 DUP3 ADD DUP2 SWAP1 MSTORE SWAP6 SWAP4 PUSH1 0x20 SWAP3 DUP4 SWAP1 DUP4 SWAP1 PUSH1 0x24 SWAP1 DUP3 SWAP1 DUP6 AND GAS STATICCALL SWAP2 DUP3 ISZERO PUSH2 0x7A8 JUMPI SWAP1 PUSH2 0xAEF SWAP3 SWAP2 DUP10 SWAP3 PUSH2 0x790 JUMPI POP AND CALLER EQ PUSH2 0xF60 JUMP JUMPDEST DUP2 MLOAD ISZERO PUSH2 0xC6D JUMPI DUP5 DUP7 MSTORE PUSH1 0x1 DUP1 DUP3 MSTORE DUP4 DUP8 KECCAK256 SWAP1 DUP4 MLOAD SWAP1 PUSH8 0xFFFFFFFFFFFFFFFF DUP3 GT PUSH2 0xC5A JUMPI PUSH2 0xB1E DUP4 SLOAD PUSH2 0xD77 JUMP JUMPDEST PUSH1 0x1F DUP2 GT PUSH2 0xC14 JUMPI JUMPDEST POP DUP4 DUP10 PUSH1 0x1F DUP5 GT PUSH1 0x1 EQ PUSH2 0xB9B JUMPI SWAP3 DUP1 DUP1 PUSH2 0x282 SWAP8 SWAP5 PUSH1 0x0 DUP1 MLOAD PUSH1 0x20 PUSH2 0xFBE DUP4 CODECOPY DUP2 MLOAD SWAP2 MSTORE SWAP12 SWAP11 SWAP10 SWAP8 SWAP5 PUSH1 0x80 SWAP8 SWAP4 PUSH2 0xB90 JUMPI JUMPDEST POP SHL SWAP2 PUSH1 0x0 NOT SWAP1 PUSH1 0x3 SHL SHR NOT AND OR SWAP1 SSTORE JUMPDEST DUP5 MLOAD SWAP6 DUP6 DUP8 SWAP7 DUP8 MSTORE DUP7 ADD MSTORE PUSH4 0x49535243 PUSH1 0xE0 SHL PUSH1 0x60 DUP7 ADD MSTORE DUP5 ADD MSTORE PUSH1 0x80 DUP4 ADD SWAP1 PUSH2 0xD37 JUMP JUMPDEST DUP9 ADD MLOAD SWAP3 POP CODESIZE PUSH2 0xB5A JUMP JUMPDEST POP DUP4 DUP11 MSTORE DUP5 DUP11 KECCAK256 SWAP2 SWAP3 SWAP2 SWAP1 PUSH1 0x1F NOT DUP4 AND DUP12 JUMPDEST DUP2 DUP2 LT PUSH2 0xBFF JUMPI POP SWAP3 PUSH1 0x0 DUP1 MLOAD PUSH1 0x20 PUSH2 0xFBE DUP4 CODECOPY DUP2 MLOAD SWAP2 MSTORE SWAP10 SWAP9 SWAP8 SWAP6 SWAP3 PUSH1 0x80 SWAP6 SWAP3 DUP3 PUSH2 0x282 SWAP10 SWAP7 LT PUSH2 0xBE6 JUMPI JUMPDEST POP POP DUP2 SHL ADD SWAP1 SSTORE PUSH2 0xB6B JUMP JUMPDEST DUP8 ADD MLOAD PUSH1 0x0 NOT PUSH1 0xF8 DUP5 PUSH1 0x3 SHL AND SHR NOT AND SWAP1 SSTORE CODESIZE DUP1 PUSH2 0xBDA JUMP JUMPDEST DUP9 DUP4 ADD MLOAD DUP5 SSTORE SWAP3 DUP6 ADD SWAP3 SWAP2 DUP8 ADD SWAP2 DUP8 ADD PUSH2 0xBAD JUMP JUMPDEST DUP4 DUP11 MSTORE DUP5 DUP11 KECCAK256 PUSH1 0x1F DUP5 ADD PUSH1 0x5 SHR DUP2 ADD SWAP2 DUP7 DUP6 LT PUSH2 0xC50 JUMPI JUMPDEST PUSH1 0x1F ADD PUSH1 0x5 SHR ADD SWAP1 DUP3 SWAP1 JUMPDEST DUP3 DUP2 LT PUSH2 0xC45 JUMPI POP POP PUSH2 0xB27 JUMP JUMPDEST DUP12 DUP2 SSTORE ADD DUP3 SWAP1 PUSH2 0xC37 JUMP JUMPDEST SWAP1 SWAP2 POP DUP2 SWAP1 PUSH2 0xC2C JUMP JUMPDEST PUSH4 0x4E487B71 PUSH1 0xE0 SHL DUP10 MSTORE PUSH1 0x41 DUP8 MSTORE PUSH1 0x24 DUP10 REVERT JUMPDEST DUP4 PUSH1 0x64 SWAP2 DUP5 MLOAD SWAP2 PUSH3 0x461BCD PUSH1 0xE5 SHL DUP4 MSTORE DUP3 ADD MSTORE PUSH1 0x14 PUSH1 0x24 DUP3 ADD MSTORE PUSH20 0x495352432063616E6E6F7420626520656D707479 PUSH1 0x60 SHL PUSH1 0x44 DUP3 ADD MSTORE REVERT JUMPDEST POP POP CALLVALUE PUSH2 0x3D5 JUMPI PUSH1 0x20 CALLDATASIZE PUSH1 0x3 NOT ADD SLT PUSH2 0x3D5 JUMPI PUSH2 0x427 SWAP2 PUSH2 0x414 SWAP1 DUP3 SWAP1 PUSH1 0x1 PUSH1 0x1 PUSH1 0xA0 SHL SUB PUSH2 0xCD3 PUSH2 0xD1C JUMP JUMPDEST AND DUP2 MSTORE PUSH1 0x2 PUSH1 0x20 MSTORE KECCAK256 PUSH2 0xDE9 JUMP JUMPDEST DUP5 SWAP1 DUP5 CALLVALUE PUSH2 0x179 JUMPI PUSH1 0x20 CALLDATASIZE PUSH1 0x3 NOT ADD SLT PUSH2 0x179 JUMPI PUSH1 0x20 SWAP3 PUSH1 0xFF SWAP2 SWAP1 PUSH1 0x1 PUSH1 0x1 PUSH1 0xA0 SHL SUB PUSH2 0xD0C PUSH2 0xD1C JUMP JUMPDEST AND DUP2 MSTORE PUSH1 0x5 DUP6 MSTORE KECCAK256 SLOAD AND ISZERO ISZERO DUP2 MSTORE RETURN JUMPDEST PUSH1 0x4 CALLDATALOAD SWAP1 PUSH1 0x1 PUSH1 0x1 PUSH1 0xA0 SHL SUB DUP3 AND DUP3 SUB PUSH2 0xD32 JUMPI JUMP JUMPDEST PUSH1 0x0 DUP1 REVERT JUMPDEST SWAP2 SWAP1 DUP3 MLOAD SWAP3 DUP4 DUP3 MSTORE PUSH1 0x0 JUMPDEST DUP5 DUP2 LT PUSH2 0xD63 JUMPI POP POP DUP3 PUSH1 0x0 PUSH1 0x20 DUP1 SWAP5 SWAP6 DUP5 ADD ADD MSTORE PUSH1 0x1F DUP1 NOT SWAP2 ADD AND ADD ADD SWAP1 JUMP JUMPDEST PUSH1 0x20 DUP2 DUP4 ADD DUP2 ADD MLOAD DUP5 DUP4 ADD DUP3 ADD MSTORE ADD PUSH2 0xD42 JUMP JUMPDEST SWAP1 PUSH1 0x1 DUP3 DUP2 SHR SWAP3 AND DUP1 ISZERO PUSH2 0xDA7 JUMPI JUMPDEST PUSH1 0x20 DUP4 LT EQ PUSH2 0xD91 JUMPI JUMP JUMPDEST PUSH4 0x4E487B71 PUSH1 0xE0 SHL PUSH1 0x0 MSTORE PUSH1 0x22 PUSH1 0x4 MSTORE PUSH1 0x24 PUSH1 0x0 REVERT JUMPDEST SWAP2 PUSH1 0x7F AND SWAP2 PUSH2 0xD86 JUMP JUMPDEST SWAP1 PUSH1 0x1F DUP1 NOT SWAP2 ADD AND DUP2 ADD SWAP1 DUP2 LT PUSH8 0xFFFFFFFFFFFFFFFF DUP3 GT OR PUSH2 0xDD3 JUMPI PUSH1 0x40 MSTORE JUMP JUMPDEST PUSH4 0x4E487B71 PUSH1 0xE0 SHL PUSH1 0x0 MSTORE PUSH1 0x41 PUSH1 0x4 MSTORE PUSH1 0x24 PUSH1 0x0 REVERT JUMPDEST SWAP1 PUSH1 0x40 MLOAD SWAP2 DUP3 PUSH1 0x0 DUP3 SLOAD SWAP3 PUSH2 0xDFD DUP5 PUSH2 0xD77 JUMP JUMPDEST SWAP1 DUP2 DUP5 MSTORE PUSH1 0x1 SWAP5 DUP6 DUP2 AND SWAP1 DUP2 PUSH1 0x0 EQ PUSH2 0xE6C JUMPI POP PUSH1 0x1 EQ PUSH2 0xE29 JUMPI JUMPDEST POP POP PUSH2 0xE27 SWAP3 POP SUB DUP4 PUSH2 0xDB1 JUMP JUMPDEST JUMP JUMPDEST SWAP1 SWAP4 SWAP2 POP PUSH1 0x0 MSTORE PUSH1 0x20 SWAP1 DUP2 PUSH1 0x0 KECCAK256 SWAP4 PUSH1 0x0 SWAP2 JUMPDEST DUP2 DUP4 LT PUSH2 0xE54 JUMPI POP POP PUSH2 0xE27 SWAP4 POP DUP3 ADD ADD CODESIZE DUP1 PUSH2 0xE19 JUMP JUMPDEST DUP6 SLOAD DUP9 DUP5 ADD DUP6 ADD MSTORE SWAP5 DUP6 ADD SWAP5 DUP8 SWAP5 POP SWAP2 DUP4 ADD SWAP2 PUSH2 0xE3C JUMP JUMPDEST SWAP2 POP POP PUSH2 0xE27 SWAP5 POP PUSH1 0x20 SWAP3 POP PUSH1 0xFF NOT AND DUP3 DUP5 ADD MSTORE ISZERO ISZERO PUSH1 0x5 SHL DUP3 ADD ADD CODESIZE DUP1 PUSH2 0xE19 JUMP JUMPDEST SWAP1 PUSH1 0x40 PUSH1 0x3 NOT DUP4 ADD SLT PUSH2 0xD32 JUMPI PUSH1 0x4 CALLDATALOAD PUSH1 0x1 PUSH1 0x1 PUSH1 0xA0 SHL SUB DUP2 AND DUP2 SUB PUSH2 0xD32 JUMPI SWAP2 PUSH8 0xFFFFFFFFFFFFFFFF PUSH1 0x24 CALLDATALOAD DUP2 DUP2 GT PUSH2 0xD32 JUMPI DUP3 PUSH1 0x23 DUP3 ADD SLT ISZERO PUSH2 0xD32 JUMPI DUP1 PUSH1 0x4 ADD CALLDATALOAD SWAP2 DUP3 GT PUSH2 0xDD3 JUMPI PUSH1 0x40 MLOAD SWAP3 PUSH2 0xEF2 PUSH1 0x1F DUP5 ADD PUSH1 0x1F NOT AND PUSH1 0x20 ADD DUP6 PUSH2 0xDB1 JUMP JUMPDEST DUP3 DUP5 MSTORE PUSH1 0x24 DUP4 DUP4 ADD ADD GT PUSH2 0xD32 JUMPI DUP2 PUSH1 0x0 SWAP3 PUSH1 0x24 PUSH1 0x20 SWAP4 ADD DUP4 DUP7 ADD CALLDATACOPY DUP4 ADD ADD MSTORE SWAP1 JUMP JUMPDEST PUSH1 0x0 SLOAD PUSH1 0x1 PUSH1 0x1 PUSH1 0xA0 SHL SUB AND CALLER SUB PUSH2 0xF29 JUMPI JUMP JUMPDEST PUSH1 0x40 MLOAD PUSH4 0x118CDAA7 PUSH1 0xE0 SHL DUP2 MSTORE CALLER PUSH1 0x4 DUP3 ADD MSTORE PUSH1 0x24 SWAP1 REVERT JUMPDEST SWAP1 DUP2 PUSH1 0x20 SWAP2 SUB SLT PUSH2 0xD32 JUMPI MLOAD PUSH1 0x1 PUSH1 0x1 PUSH1 0xA0 SHL SUB DUP2 AND DUP2 SUB PUSH2 0xD32 JUMPI SWAP1 JUMP JUMPDEST ISZERO PUSH2 0xF67 JUMPI JUMP JUMPDEST PUSH1 0x40 MLOAD PUSH3 0x461BCD PUSH1 0xE5 SHL DUP2 MSTORE PUSH1 0x20 PUSH1 0x4 DUP3 ADD MSTORE PUSH1 0x28 PUSH1 0x24 DUP3 ADD MSTORE PUSH32 0x4F6E6C79206469737472696275746F722063616E20706572666F726D20746869 PUSH1 0x44 DUP3 ADD MSTORE PUSH8 0x399030B1BA34B7B7 PUSH1 0xC1 SHL PUSH1 0x64 DUP3 ADD MSTORE PUSH1 0x84 SWAP1 REVERT INVALID 0xA7 0x27 PUSH31 0xA7D4DBB8F0CC254F34CF3E4AC197629EE7789DFA02F6B28A887228909BA264 PUSH10 0x7066735822122096C55A 0xF8 0xC9 0xB7 0x28 DIV 0x4A 0xE7 0xB3 LOG4 BYTE 0x2C 0xB8 LOG2 CALLDATALOAD CALLCODE MUL 0xBB SHR BLOCKHASH 0x4E 0xC4 0xC8 0xAF DUP4 SELFBALANCE ADDMOD 0xA7 0x25 RETURN PUSH5 0x736F6C6343 STOP ADDMOD EQ STOP CALLER "},"methodIdentifiers":{"addISCC(address,string)":"4fa71b06","addISRC(address,string)":"496d51af","addISWC(address,string)":"a4144de6","addUPC(address,string)":"dfef9681","getIsccCode(address)":"164158ff","getIsrcCode(address)":"a8428656","getIswcCode(address)":"cc7e5445","getUpcCode(address)":"10df9a84","isAuthentic(address)":"a4493575","isccRegistry(address)":"9860da00","isrcRegistry(address)":"21dd882b","iswcRegistry(address)":"4bb43e5c","owner()":"8da5cb5b","releaseModule()":"65bb98b5","renounceOwnership()":"715018a6","setWrappedSongAuthenticity(address,bool)":"be94e319","transferOwnership(address)":"f2fde38b","upcRegistry(address)":"1e944d54","wrappedSongAuthenticity(address)":"06fd88ed"}},"storageLayout":{"storage":[{"astId":8,"contract":"contracts/protocol/Modules/IdentityModule.sol:IdentityModule","label":"_owner","offset":0,"slot":"0","type":"t_address"},{"astId":3716,"contract":"contracts/protocol/Modules/IdentityModule.sol:IdentityModule","label":"isrcRegistry","offset":0,"slot":"1","type":"t_mapping(t_address,t_string_storage)"},{"astId":3720,"contract":"contracts/protocol/Modules/IdentityModule.sol:IdentityModule","label":"upcRegistry","offset":0,"slot":"2","type":"t_mapping(t_address,t_string_storage)"},{"astId":3724,"contract":"contracts/protocol/Modules/IdentityModule.sol:IdentityModule","label":"iswcRegistry","offset":0,"slot":"3","type":"t_mapping(t_address,t_string_storage)"},{"astId":3728,"contract":"contracts/protocol/Modules/IdentityModule.sol:IdentityModule","label":"isccRegistry","offset":0,"slot":"4","type":"t_mapping(t_address,t_string_storage)"},{"astId":3732,"contract":"contracts/protocol/Modules/IdentityModule.sol:IdentityModule","label":"wrappedSongAuthenticity","offset":0,"slot":"5","type":"t_mapping(t_address,t_bool)"},{"astId":3735,"contract":"contracts/protocol/Modules/IdentityModule.sol:IdentityModule","label":"releaseModule","offset":0,"slot":"6","type":"t_contract(ReleaseModule)4867"}],"types":{"t_address":{"encoding":"inplace","label":"address","numberOfBytes":"20"},"t_bool":{"encoding":"inplace","label":"bool","numberOfBytes":"1"},"t_contract(ReleaseModule)4867":{"encoding":"inplace","label":"contract ReleaseModule","numberOfBytes":"20"},"t_mapping(t_address,t_bool)":{"encoding":"mapping","key":"t_address","label":"mapping(address => bool)","numberOfBytes":"32","value":"t_bool"},"t_mapping(t_address,t_string_storage)":{"encoding":"mapping","key":"t_address","label":"mapping(address => string)","numberOfBytes":"32","value":"t_string_storage"},"t_string_storage":{"encoding":"bytes","label":"string","numberOfBytes":"32"}}}}}}