{"contracts/protocol/NonUpgradable/DistributorWalletFactory.sol":{"DistributorWalletFactory":{"abi":[{"inputs":[{"internalType":"address","name":"initialOwner","type":"address"}],"stateMutability":"nonpayable","type":"constructor"},{"inputs":[{"internalType":"address","name":"target","type":"address"}],"name":"AddressEmptyCode","type":"error"},{"inputs":[{"internalType":"address","name":"account","type":"address"}],"name":"AddressInsufficientBalance","type":"error"},{"inputs":[],"name":"FailedInnerCall","type":"error"},{"inputs":[{"internalType":"address","name":"owner","type":"address"}],"name":"OwnableInvalidOwner","type":"error"},{"inputs":[{"internalType":"address","name":"account","type":"address"}],"name":"OwnableUnauthorizedAccount","type":"error"},{"inputs":[{"internalType":"address","name":"token","type":"address"}],"name":"SafeERC20FailedOperation","type":"error"},{"anonymous":false,"inputs":[{"indexed":true,"internalType":"address","name":"wrappedSong","type":"address"},{"indexed":true,"internalType":"address","name":"token","type":"address"},{"indexed":false,"internalType":"uint256","name":"amount","type":"uint256"}],"name":"CreationFeeCollected","type":"event"},{"anonymous":false,"inputs":[{"indexed":true,"internalType":"address","name":"distributor","type":"address"},{"indexed":false,"internalType":"address","name":"wallet","type":"address"},{"indexed":false,"internalType":"address","name":"stablecoin","type":"address"}],"name":"DistributorWalletCreated","type":"event"},{"anonymous":false,"inputs":[{"indexed":true,"internalType":"address","name":"token","type":"address"},{"indexed":true,"internalType":"address","name":"recipient","type":"address"},{"indexed":false,"internalType":"uint256","name":"amount","type":"uint256"}],"name":"FeesWithdrawn","type":"event"},{"anonymous":false,"inputs":[{"indexed":true,"internalType":"address","name":"previousOwner","type":"address"},{"indexed":true,"internalType":"address","name":"newOwner","type":"address"}],"name":"OwnershipTransferred","type":"event"},{"anonymous":false,"inputs":[{"indexed":true,"internalType":"address","name":"wrappedSong","type":"address"},{"indexed":true,"internalType":"address","name":"distributor","type":"address"}],"name":"WrappedSongReleased","type":"event"},{"inputs":[{"internalType":"address","name":"","type":"address"}],"name":"accumulatedFees","outputs":[{"internalType":"uint256","name":"","type":"uint256"}],"stateMutability":"view","type":"function"},{"inputs":[{"internalType":"address","name":"wallet","type":"address"}],"name":"checkIsDistributorWallet","outputs":[{"internalType":"bool","name":"","type":"bool"}],"stateMutability":"view","type":"function"},{"inputs":[{"internalType":"address","name":"_stablecoin","type":"address"},{"internalType":"address","name":"_protocolModule","type":"address"},{"internalType":"address","name":"_owner","type":"address"}],"name":"createDistributorWallet","outputs":[{"internalType":"address","name":"","type":"address"}],"stateMutability":"payable","type":"function"},{"inputs":[{"internalType":"address","name":"","type":"address"},{"internalType":"uint256","name":"","type":"uint256"}],"name":"distributorWallets","outputs":[{"internalType":"address","name":"","type":"address"}],"stateMutability":"view","type":"function"},{"inputs":[{"internalType":"address","name":"ownerOfWallets","type":"address"}],"name":"getDistributorWallets","outputs":[{"internalType":"address[]","name":"","type":"address[]"}],"stateMutability":"view","type":"function"},{"inputs":[{"internalType":"address","name":"wrappedSong","type":"address"}],"name":"getWrappedSongDistributor","outputs":[{"internalType":"address","name":"","type":"address"}],"stateMutability":"view","type":"function"},{"inputs":[{"internalType":"address","name":"","type":"address"}],"name":"isDistributorWallet","outputs":[{"internalType":"bool","name":"","type":"bool"}],"stateMutability":"view","type":"function"},{"inputs":[],"name":"owner","outputs":[{"internalType":"address","name":"","type":"address"}],"stateMutability":"view","type":"function"},{"inputs":[],"name":"renounceOwnership","outputs":[],"stateMutability":"nonpayable","type":"function"},{"inputs":[{"internalType":"address","name":"newOwner","type":"address"}],"name":"transferOwnership","outputs":[],"stateMutability":"nonpayable","type":"function"},{"inputs":[{"internalType":"address","name":"token","type":"address"},{"internalType":"address","name":"recipient","type":"address"},{"internalType":"address","name":"_protocolModule","type":"address"}],"name":"withdrawAccumulatedFees","outputs":[],"stateMutability":"nonpayable","type":"function"},{"inputs":[{"internalType":"address","name":"","type":"address"}],"name":"wrappedSongToDistributor","outputs":[{"internalType":"address","name":"","type":"address"}],"stateMutability":"view","type":"function"}],"evm":{"bytecode":{"linkReferences":{},"object":"6080346100bb57601f61368b38819003918201601f19168301916001600160401b038311848410176100c0578084926020946040528339810103126100bb57516001600160a01b0390818116908190036100bb5780156100a257600080546001600160a01b03198116831782556040519316907f8be0079c531659141344cd1fd0a4f28419497f9722a3daafe3b4186f6b6457e09080a36135b490816100d78239f35b604051631e4fbdf760e01b815260006004820152602490fd5b600080fd5b634e487b7160e01b600052604160045260246000fdfe608060408181526004803610156200001657600080fd5b600092833560e01c9081632cd6c9a61462000bc0575080633aa690e71462000b81578063416679861462000b21578063715018a61462000ac35780638da5cb5b1462000a99578063a6be349614620007fa578063bb8f7724146200083c578063d42fe23114620007fa578063d677db97146200023c578063f2fde38b14620001af578063f4ae533814620000f05763fcf6666414620000b457600080fd5b34620000ec576020366003190112620000ec5760209282916001600160a01b03620000de62000bfc565b168252845220549051908152f35b8280fd5b505034620001ab5760209182600319360112620001a8576001600160a01b0390816200011b62000bfc565b16815260019182855283822094845191828288549182815201908198865283862090865b8181106200019257505050836200015891038462000ca2565b855195828701938388525180945286019693905b8382106200017a5786880387f35b8451811688529682019693820193908501906200016c565b825485168452928501929188019188016200013f565b80fd5b5080fd5b5034620000ec576020366003190112620000ec57620001cd62000bfc565b90620001d862000c75565b6001600160a01b039182169283156200022657505082546001600160a01b0319811683178455167f8be0079c531659141344cd1fd0a4f28419497f9722a3daafe3b4186f6b6457e08380a380f35b51631e4fbdf760e01b8152908101849052602490fd5b50906060366003190112620000ec576200025562000bfc565b916200026062000c18565b906200026b62000c2f565b946200027662000c75565b835163b5af090f60e01b81526001600160a01b03958616838201819052602097602497958616959194919289818a818a5afa908115620006ff578591620007d8575b501562000796578651635c975abb60e01b8152898184818a5afa908115620006ff57859162000774575b506200073d57865163670d296960e11b8152898184818a5afa908115620006ff5784918b91879162000709575b50848a5180948193636d4726d960e01b8352165afa908115620006ff579084918691620006ba575b508851630e902faf60e01b815291168a828581845afa918215620006745784918c9188946200067e575b508a5163d579e3f360e01b815292839182905afa9081156200067457869162000640575b508162000496575b505086519061271d968783019783891067ffffffffffffffff8a111762000484576060928492879262000e628539898b528d8b01521697888a82015203019084f080156200047a5782169685845260018952868420908154926801000000000000000084101562000469575050927fce2886f90250a27ef084706fa347b2e815c3b41623bb3ceb84b43cd3d9889f449492620004328389966001889601815562000c46565b819291549060031b918b831b921b19161790558781526003895220600160ff1982541617905581519086825287820152a251908152f35b634e487b7160e01b86526041905284fd5b86513d85823e3d90fd5b634e487b7160e01b8752604185528a87fd5b15620005325787516323b872dd60e01b8b820152338a8201523060448201526064808201839052815260a0810167ffffffffffffffff81118282101762000484578b88936200050b89947fdd872ca9502e175165673833ac2a0e1395edb4b5c72f2915685598490c375e99948e528662000d7e565b8484528682528b84206200052182825462000d16565b90558b51908152a35b38806200038d565b803410620005fe57848052828a528785206200055034825462000d16565b90558034116200058c575b5083807fdd872ca9502e175165673833ac2a0e1395edb4b5c72f2915685598490c375e998b8a51348152a36200052a565b3403348111620005ec578480808093335af1620005a862000d3a565b5015620005b657386200055b565b865162461bcd60e51b81528083018a90526011818a015270115512081c99599d5b990819985a5b1959607a1b6044820152606490fd5b634e487b7160e01b8552601183528885fd5b875162461bcd60e51b81528084018b90526018818b01527f496e636f7272656374204554482066656520616d6f756e7400000000000000006044820152606490fd5b6200066591508b3d8d116200066c575b6200065c818362000ca2565b81019062000cdb565b3862000385565b503d62000650565b89513d88823e3d90fd5b9250925081813d8311620006b2575b62000699818362000ca2565b81010312620006ae578a849151923862000361565b8580fd5b503d6200068d565b8092508b8092503d8311620006f7575b620006d6818362000ca2565b81010312620006f357518381168103620006f35783903862000337565b8480fd5b503d620006ca565b88513d87823e3d90fd5b6200072e9150823d841162000735575b62000725818362000ca2565b81019062000cf5565b386200030f565b503d62000719565b865162461bcd60e51b81528083018a90526012818a015271141c9bdd1bd8dbdb081a5cc81c185d5cd95960721b6044820152606490fd5b6200078f91508a3d8c116200066c576200065c818362000ca2565b38620002e2565b865162461bcd60e51b81528083018a9052601d818a01527f537461626c65636f696e206973206e6f742077686974656c69737465640000006044820152606490fd5b620007f391508a3d8c116200066c576200065c818362000ca2565b38620002b8565b505034620001ab576020366003190112620001ab5760209160ff9082906001600160a01b036200082962000bfc565b1681526003855220541690519015158152f35b50829034620001ab576060366003190112620001ab576200085c62000bfc565b6200086662000c18565b906200087162000c2f565b855191638da5cb5b60e01b83526020928381878160018060a01b038097165afa90811562000a8f57908391889162000a6d575b5016330362000a1c5781169283865284835286862054948515620009e357848752808452868881205584156000146200095c5786808080898787165af1620008eb62000d3a565b50156200092357507f5e110f8bc8a20b65dcc87f224bdf1cc039346e267118bae2739847f07321ffa8939495965b519586521693a380f35b875162461bcd60e51b81529081018490526013602482015272115512081d1c985b9cd9995c8819985a5b1959606a1b6044820152606490fd5b96805163a9059cbb60e01b858201528383166024820152866044820152604481526080810181811067ffffffffffffffff821117620009d0577f5e110f8bc8a20b65dcc87f224bdf1cc039346e267118bae2739847f07321ffa8969798995090620009ca9183528762000d7e565b62000919565b634e487b7160e01b895260418a52602489fd5b875162461bcd60e51b815290810184905260136024820152724e6f206665657320746f20776974686472617760681b6044820152606490fd5b865162461bcd60e51b8152808601849052602560248201527f4f6e6c792070726f746f636f6c206f776e65722063616e207769746864726177604482015264206665657360d81b6064820152608490fd5b62000a889150853d8711620007355762000725818362000ca2565b89620008a4565b88513d89823e3d90fd5b505034620001ab5781600319360112620001ab57905490516001600160a01b039091168152602090f35b8334620001a85780600319360112620001a85762000ae062000c75565b80546001600160a01b03198116825581906001600160a01b03167f8be0079c531659141344cd1fd0a4f28419497f9722a3daafe3b4186f6b6457e08280a380f35b505034620001ab5780600319360112620001ab5762000b3f62000bfc565b6001600160a01b039081168352600160205281832080546024359490851015620001a8575060209362000b729162000c46565b92905490519260031b1c168152f35b505034620001ab576020366003190112620001ab576020916001600160a01b039082908262000baf62000bfc565b168152600285522054169051908152f35b84908434620000ec576020366003190112620000ec576020926001600160a01b0391908262000bee62000bfc565b168152600285522054168152f35b600435906001600160a01b038216820362000c1357565b600080fd5b602435906001600160a01b038216820362000c1357565b604435906001600160a01b038216820362000c1357565b805482101562000c5f5760005260206000200190600090565b634e487b7160e01b600052603260045260246000fd5b6000546001600160a01b0316330362000c8a57565b60405163118cdaa760e01b8152336004820152602490fd5b90601f8019910116810190811067ffffffffffffffff82111762000cc557604052565b634e487b7160e01b600052604160045260246000fd5b9081602091031262000c135751801515810362000c135790565b9081602091031262000c1357516001600160a01b038116810362000c135790565b9190820180921162000d2457565b634e487b7160e01b600052601160045260246000fd5b3d1562000d79573d9067ffffffffffffffff821162000cc5576040519162000d6d601f8201601f19166020018462000ca2565b82523d6000602084013e565b606090565b60008062000dab9260018060a01b03169360208151910182865af162000da362000d3a565b908362000df9565b805190811515918262000ddb575b505062000dc35750565b60249060405190635274afe760e01b82526004820152fd5b62000df0925060208091830101910162000cdb565b15388062000db9565b9062000e22575080511562000e1057805190602001fd5b604051630a12f52160e11b8152600490fd5b8151158062000e57575b62000e35575090565b604051639996b31560e01b81526001600160a01b039091166004820152602490fd5b50803b1562000e2c56fe60c034620001de57601f6200271d38819003918201601f191683019291906001600160401b03841183851017620001e3578160609284926040968752833981010312620001de57816200005282620001f9565b916200006160208201620001f9565b6001600160a01b0392909183916200007a9101620001f9565b16928315620001c657600080546001600160a01b031981168617825586519585939290918416907f8be0079c531659141344cd1fd0a4f28419497f9722a3daafe3b4186f6b6457e09080a3169283156200018f5750169081156200014b5760805260a0525161250e90816200020f823960805181818161038b0152818161057801528181610ba201528181611331015281816118260152611c74015260a05181818161018c015281816104330152818161093501528181610d5901528181611a3101528181611aa30152611ec40152f35b825162461bcd60e51b815260206004820152601760248201527f496e76616c69642070726f746f636f6c206d6f64756c650000000000000000006044820152606490fd5b62461bcd60e51b815260206004820152601260248201527124b73b30b634b21039ba30b13632b1b7b4b760711b6044820152606490fd5b8451631e4fbdf760e01b815260006004820152602490fd5b600080fd5b634e487b7160e01b600052604160045260246000fd5b51906001600160a01b0382168203620001de5756fe608080604052600436101561001357600080fd5b600090813560e01c908163028a6b9e14611f505750806304adbc2214611e685780630a279e1514611e385780631188029f14611df457806316114acd14611c4457806316a91b2f14611bef57806349f3329b14611bad5780634b08ec5014611a605780635c42e66714611a1b5780636d3d6e6d146119f1578063715018a6146119975780637f41b4a8146116125780638da5cb5b146115eb578063921f45331461123b5780639d6ce7ca14610f7d578063b0c70e2714610d18578063b3104d8014610cdf578063b8b0a09a14610a32578063be94e319146108cb578063c0c71ce9146104ea578063d20098a2146104cc578063d65bd2fa146103d7578063e91e13a9146103ba578063e9cbd82214610375578063eacdc5ff14610357578063f2fde38b146102c75763f52603691461014a57600080fd5b346102c45760208060031936011261025c5781610165611fc5565b9161016e612071565b60405163670d296960e11b81526001600160a01b03919081816004817f000000000000000000000000000000000000000000000000000000000000000087165afa90811561029c578391839186916102a7575b506004604051809481936365bb98b560e01b8352165afa90811561029c578392859261026f575b50501692833b1561026b57829160248392604051948593849263f526036960e01b845216978860048401525af1801561026057610248575b50807f9b8b9fd151330b7d89319c88adc1ba5b0e63288a430bac1173b0af4570586b6391a280f35b610251906120c0565b61025c578138610220565b5080fd5b6040513d84823e3d90fd5b8280fd5b61028e9250803d10610295575b61028681836120ea565b810190612255565b38806101e8565b503d61027c565b6040513d86823e3d90fd5b6102be9150823d84116102955761028681836120ea565b386101c1565b80fd5b50346102c45760203660031901126102c4576102e1611fc5565b6102e9612071565b6001600160a01b0390811690811561033e57600054826bffffffffffffffffffffffff60a01b821617600055167f8be0079c531659141344cd1fd0a4f28419497f9722a3daafe3b4186f6b6457e0600080a380f35b604051631e4fbdf760e01b815260048101849052602490fd5b50346102c457806003193601126102c4576020600154604051908152f35b50346102c457806003193601126102c4576040517f00000000000000000000000000000000000000000000000000000000000000006001600160a01b03168152602090f35b50346102c457806003193601126102c45760206040516103e88152f35b50346102c45760203660031901126102c457806103f2611fc5565b6103fa612071565b60018060a01b0380911690818352600560205261041e60408420546006541161246c565b604051630222e55560e21b81526020816004817f000000000000000000000000000000000000000000000000000000000000000086165afa90811561029c5784916104ae575b501690813b156104aa578291602483926040519485938492634902fd7f60e11b845260048401525af180156102605761049a5750f35b6104a3906120c0565b6102c45780f35b5050fd5b6104c6915060203d81116102955761028681836120ea565b38610464565b50346102c457806003193601126102c4576020600654604051908152f35b50346102c45760403660031901126102c45760043567ffffffffffffffff811161025c5761051c903690600401612040565b90602490813560016105318154831115612219565b8415610887578594865b8181106106195787878781156105e2575060405163a9059cbb60e01b81523360048201526024810191909152602081604481856001600160a01b037f0000000000000000000000000000000000000000000000000000000000000000165af18015610260576105b19183916105b4575b50612124565b80f35b6105d5915060203d81116105db575b6105cd81836120ea565b81019061210c565b836105ab565b503d6105c3565b60649060106040519162461bcd60e51b8352602060048401528201526f4e6f7468696e6720746f20636c61696d60801b6044820152fd5b6106278183879a999a612430565b6001600160a01b03989035898116908190036108835785895260206004815260408a20336000528152604060002082600052815260ff6040600020541661083257899a878b526002825260408b2090604051636fad7e9560e11b81528381600481885afa9182156107cf578d8a928194610810575b5080876040925260058752205492169201549160405192630c4db40d60e31b8452336004850152898d85015260448401528383606481845afa9283156107cf578d936107da575b5090836004939260405194858092633a98ef3960e01b82525afa9283156107cf578d93610787575b5092604061074b6107448c979561073f6000805160206124b98339815191529661073a6107829d9c9a8c612195565b612162565b612175565b809661209d565b9d8681526004835220336000528152604060002083600052815260406000208960ff198254161790556040519384523393a4612421565b61053b565b84809e5081969450919796943d83116107c8575b6107a581836120ea565b810103126107c35792518c9b9495929491939192909190604061070b565b600080fd5b503d61079b565b6040513d8f823e3d90fd5b848092939e508194503d8311610809575b6107f581836120ea565b810103126107c35790518c9b9091836106e3565b503d6107eb565b604091945061082b90873d89116102955761028681836120ea565b939061069c565b60849060258a6040519262461bcd60e51b845260048401528201527f416c726561647920636c61696d656420666f722074686973207772617070656460448201526420736f6e6760d81b6064820152fd5b8880fd5b60405162461bcd60e51b8152602060048201526019818601527f456d707479207772617070656420736f6e6773206172726179000000000000006044820152606490fd5b50346102c45760403660031901126102c4576108e5611fc5565b6024358015158091036107c35782916108fc612071565b60018060a01b038091169081845260206005815261092160408620546006541161246c565b60405163670d296960e11b815281816004817f000000000000000000000000000000000000000000000000000000000000000087165afa908115610a0a57839183918891610a15575b50600460405180948193633ead5d1160e01b8352165afa918215610a0a5786926109cf575b50501691823b156109ca576044849283604051958694859363be94e31960e01b8552600485015260248401525af180156102605761049a5750f35b505050fd5b90809250813d8311610a03575b6109e681836120ea565b810103126109ff575181811681036109ff57388061098f565b8480fd5b503d6109dc565b6040513d88823e3d90fd5b610a2c9150823d84116102955761028681836120ea565b3861096a565b50346102c45760403660031901126102c457610a4c611fc5565b60243590818352602090600482526040842033600052825260406000209060018060a01b038091169182600052835260ff60406000205416610ca857610a96600154851115612219565b8385526002835260408086209051636fad7e9560e11b81528481600481875afa908115610c9d578791610c80575b5083875260058552600183604089205492169201549060405191630c4db40d60e31b83523360048401526001602484015260448301528582606481865afa918215610c455786908993610c50575b50604051633a98ef3960e01b81529293839060049082905afa918215610c45578892610c14575b50610b4b9261073a61073f9289612195565b84865260048085526040808820336000818152918852828220878352885290829020805460ff19166001179055905163a9059cbb60e01b8152918201526024810182905290939091819083908189816044810103927f0000000000000000000000000000000000000000000000000000000000000000165af1918215610a0a576000805160206124b983398151915292610beb918891610bf75750612124565b6040519384523393a480f35b610c0e9150833d85116105db576105cd81836120ea565b386105ab565b9091508581813d8311610c3e575b610c2c81836120ea565b810103126107c3575190610b4b610b39565b503d610c22565b6040513d8a823e3d90fd5b809350813d8311610c79575b610c6681836120ea565b810103126107c357856004925192610b12565b503d610c5c565b610c979150853d87116102955761028681836120ea565b38610ac4565b6040513d89823e3d90fd5b60405162461bcd60e51b815260048101849052600f60248201526e105b1c9958591e4818db185a5b5959608a1b6044820152606490fd5b50346102c45760203660031901126102c4576020906040906001600160a01b03610d07611fc5565b168152600583522054604051908152f35b50346102c45760208060031936011261025c57610d33611fc5565b90610d3c612071565b60405163670d296960e11b81526001600160a01b039082816004817f000000000000000000000000000000000000000000000000000000000000000086165afa908115610f5557829184918791610f60575b506004604051809481936365bb98b560e01b8352165afa8015610f555782918691610f38575b501681604051946363df2f1560e11b865216938460048201528381602481855afa908115610a0a578691610f1b575b508230911603610ed6578085913b1561025c5781809160246040518094819363b0c70e2760e01b83528a60048401525af1801561026057610ebe575b5050600654600160401b811015610eaa57806001610e409201600655611fdb565b819291549060031b9185831b921b1916179055600654906000198201918211610e96576005908385525260408320557fe1649799fd93d14e82ccab2710a96c6b05af2496c30f0c9401e159f568813efd8280a280f35b634e487b7160e01b84526011600452602484fd5b634e487b7160e01b85526041600452602485fd5b610ec7906120c0565b610ed2578338610e1f565b8380fd5b60405162461bcd60e51b815260048101849052601b60248201527f4e6f74207468652070656e64696e67206469737472696275746f7200000000006044820152606490fd5b610f329150843d86116102955761028681836120ea565b38610de3565b610f4f9150843d86116102955761028681836120ea565b38610db4565b6040513d87823e3d90fd5b610f779150823d84116102955761028681836120ea565b38610d8e565b50346102c45760603660031901126102c457610f97611fc5565b90610fa0611faf565b9160443567ffffffffffffffff811161026b57610fc1903690600401612040565b604051636fad7e9560e11b81529094909290916001600160a01b03906020856004818587165afa948515610a0a57869561121a575b508183168652600560205260408620549160405194633a98ef3960e01b8652602086600481858b165afa958615610c455788966111e6575b5061103d899799959395612440565b9861104b6040519a8b6120ea565b878a52601f1961105a89612440565b013660208c013788936001988954955b8181106110b1578c8c8c60405191602083016020845284518091526020604085019501915b81811061109c5784860385f35b8251865260209586019590920191830161108f565b8a6110c0829c9e9c848c612430565b358d8d8a831180156111b1575b61119e575060408183859352600260205220015460405192630c4db40d60e31b84528989166004850152602484015260448301526020826064818b8a165afa91821561119157918a8f928f93948f969593611151575b506111499561073f6111439461073a889561113d95612195565b92612458565b52612421565b9b999b61106a565b9550925050506020833d602011611189575b81611170602093836120ea565b810103126107c35791518b928d91908b90611149611123565b3d9150611163565b8e604051903d90823e3d90fd5b8493506111439192509361114994612458565b505080826040925260046020522088881660005260205260406000208886166000526020528d8d60ff604060002054166110cd565b9095506020813d602011611212575b81611202602093836120ea565b810103126107c35751943861102e565b3d91506111f5565b61123491955060203d6020116102955761028681836120ea565b9338610ff6565b50346102c45760403660031901126102c457611255611fc5565b60243567ffffffffffffffff811161026b57611275903690600401612040565b919082156115b157604051636fad7e9560e11b8152916020836004816001600160a01b0385165afa928315610f55578593611590575b5060018060a01b03811685526005602052604085205490604051633a98ef3960e01b815260208160048160018060a01b0389165afa908115610c9d57879161155e575b508695875b81811061138257888880611305575080f35b60405163a9059cbb60e01b81523360048201526024810191909152602081604481856001600160a01b037f0000000000000000000000000000000000000000000000000000000000000000165af18015610260576105b19183916113695750612124565b6105d5915060203d6020116105db576105cd81836120ea565b61138d818388612430565b359061139d600154831115612219565b818a52600460205260408a2033600052602052604060002060018060a01b03861660005260205260ff6040600020541661152157818a526002602052600160408b2001549160405192630c4db40d60e31b845233600485015260016024850152604484015260208360648160018060a01b038d165afa80156115165785908c906114e0575b6114ad9450828d52600460205260408d2033600052602052604060002060018060a01b0389166000526020526040600020600160ff1982541617905580156114b2576114809161073f6114799261073a8c87612195565b809b61209d565b6040519a8b529933906001600160a01b038816906000805160206124b983398151915290602090a4612421565b6112f3565b50506040518b815233906001600160a01b038816906000805160206124b983398151915290602090a4612421565b50506020833d60201161150e575b816114fb602093836120ea565b810103126107c357846114ad9351611422565b3d91506114ee565b6040513d8d823e3d90fd5b60405162461bcd60e51b8152602060048201526015602482015274115c1bd8da08185b1c9958591e4818db185a5b5959605a1b6044820152606490fd5b90506020813d602011611588575b81611579602093836120ea565b810103126107c35751386112ee565b3d915061156c565b6115aa91935060203d6020116102955761028681836120ea565b91386112ab565b60405162461bcd60e51b8152602060048201526012602482015271456d7074792065706f63687320617272617960701b6044820152606490fd5b50346102c457806003193601126102c457546040516001600160a01b039091168152602090f35b50346102c45760c03660031901126102c45760248035906004359067ffffffffffffffff906044358281116119935761164f903690600401612040565b919092606435916084359182151583036107c35760a4359081151582036107c357611678612071565b6103e8861161195d57600193845485810180911161194a578903611913576117f8575b878a526020966003885260408b208a8c52885260408b209187116117e557600160401b87116117e55781548783558088106117be575b50908a52868a2090848b5b8881106117ac575050505061171c575b505050907fab2993bd1558cf55c0837b08905edac8717b4326267b02c8268534311452619891604051908152a380f35b8187019081881161179a5750918580927fab2993bd1558cf55c0837b08905edac8717b4326267b02c82685343114526198969594828b5260028752600260408c2001555560405190815242848201527fb52be436c4d2a5bc18728d4f052344d91ed904f58693186df6726a84f7b3c9a860403092a3909138806116ec565b634e487b7160e01b8952601160045288fd5b898335930192818501550185906116dc565b85888a8e8681522092830192015b8281106117da5750506116d1565b8d81550186906117cc565b634e487b7160e01b8b526041600452838bfd5b84156118d8576040516323b872dd60e01b81523360048201523084820152604481018690526020816064818e7f00000000000000000000000000000000000000000000000000000000000000006001600160a01b03165af1801561151657611866918c916118c05750612124565b60405160608101818110838211176118ab5760405285815260028b602083014281526040808501928084528d815284602052209351845551878401555191015561169b565b84634e487b7160e01b60005260416004526000fd5b610c0e915060203d81116105db576105cd81836120ea565b60405162461bcd60e51b81526020600482015260148185015273125b9d985b1a59081d1bdd185b08185b5bdd5b9d60621b6044820152606490fd5b60405162461bcd60e51b8152602060048201526010818601526f125b9d985b1a5908195c1bd8da081a5960821b6044820152606490fd5b634e487b7160e01b8c526011600452848cfd5b60405162461bcd60e51b815260206004820152600f818501526e4368756e6b20746f6f206c6172676560881b6044820152606490fd5b8580fd5b50346102c457806003193601126102c4576119b0612071565b600080546001600160a01b0319811682556001600160a01b03167f8be0079c531659141344cd1fd0a4f28419497f9722a3daafe3b4186f6b6457e08280a380f35b50346102c45760403660031901126102c4576020611a13602435600435612195565b604051908152f35b50346102c457806003193601126102c4576040517f00000000000000000000000000000000000000000000000000000000000000006001600160a01b03168152602090f35b50346102c45760208060031936011261025c5781611a7c611fc5565b91611a85612071565b60405163670d296960e11b81526001600160a01b03919081816004817f000000000000000000000000000000000000000000000000000000000000000087165afa90811561029c57839183918691611b90575b506004604051809481936365bb98b560e01b8352165afa90811561029c5783928592611b73575b50501692833b1561026b5782916024839260405194859384926304b08ec560e41b845216978860048401525af1801561026057611b5f575b50807f96e9f71e351da2f355723015d74e0a4b6a13763fa188e610b27da4c5aca898c991a280f35b611b68906120c0565b61025c578138611b37565b611b899250803d106102955761028681836120ea565b3880611aff565b611ba79150823d84116102955761028681836120ea565b38611ad8565b50346102c45760203660031901126102c45760406060916004358152600260205220805490600260018201549101549060405192835260208301526040820152f35b50346102c45760603660031901126102c4576044359060043581526003602052604081206024358252602052604081209081548310156102c4576020611c358484612028565b90549060031b1c604051908152f35b50346102c45760208060031936011261025c57611c5f611fc5565b611c67612071565b6001600160a01b039081167f000000000000000000000000000000000000000000000000000000000000000082168114611daf576040516370a0823160e01b8152306004820152918383602481855afa928315610f55578593611d80575b508215611d4357845460405163a9059cbb60e01b815291166001600160a01b031660048201526024810192909252829082908186816044810103925af1908115611d38576105b1928492611d1b575b5050612124565b611d319250803d106105db576105cd81836120ea565b3880611d14565b6040513d85823e3d90fd5b60405162461bcd60e51b81526004810185905260156024820152742737903130b630b731b2903a37903932b1b7bb32b960591b6044820152606490fd5b9092508381813d8311611da8575b611d9881836120ea565b810103126107c357519138611cc5565b503d611d8e565b60405162461bcd60e51b815260048101849052601960248201527f43616e6e6f74207265636f76657220737461626c65636f696e000000000000006044820152606490fd5b50346102c45760203660031901126102c457600435906006548210156102c4576020611e1f83611fdb565b905460405160039290921b1c6001600160a01b03168152f35b50346102c45760603660031901126102c4576020611a13611e57611fc5565b611e5f611faf565b60443591612274565b50346102c45760203660031901126102c45780611e83611fc5565b611e8b612071565b60018060a01b03809116908183526005602052611eaf60408420546006541161246c565b604051630222e55560e21b81526020816004817f000000000000000000000000000000000000000000000000000000000000000086165afa90811561029c578491611f32575b5016803b156104aa5760248392604051948593849263187de53b60e01b845260048401525af1801561026057611f29575080f35b6105b1906120c0565b611f4a915060203d81116102955761028681836120ea565b38611ef5565b90503461025c57606036600319011261025c57611f6b611faf565b6044356001600160a01b0381811692918390036109ff579360ff92604092602096600435845260048852848420911683528652828220908252855220541615158152f35b602435906001600160a01b03821682036107c357565b600435906001600160a01b03821682036107c357565b6006548110156120125760066000527ff652222313e28459528d920b65115c16c04f3efc82aaedc97be59f3f377c0d3f0190600090565b634e487b7160e01b600052603260045260246000fd5b80548210156120125760005260206000200190600090565b9181601f840112156107c35782359167ffffffffffffffff83116107c3576020808501948460051b0101116107c357565b6000546001600160a01b0316330361208557565b60405163118cdaa760e01b8152336004820152602490fd5b919082018092116120aa57565b634e487b7160e01b600052601160045260246000fd5b67ffffffffffffffff81116120d457604052565b634e487b7160e01b600052604160045260246000fd5b90601f8019910116810190811067ffffffffffffffff8211176120d457604052565b908160209103126107c3575180151581036107c35790565b1561212b57565b60405162461bcd60e51b815260206004820152600f60248201526e151c985b9cd9995c8819985a5b1959608a1b6044820152606490fd5b818102929181159184041417156120aa57565b811561217f570490565b634e487b7160e01b600052601260045260246000fd5b906103e89182820492600092828452600260205260026040852001548510156121e1576121d79460409385526003602052838520908552602052069120612028565b90549060031b1c90565b60405162461bcd60e51b815260206004820152601060248201526f092dcecc2d8d2c840aea640d2dcc8caf60831b6044820152606490fd5b1561222057565b60405162461bcd60e51b815260206004820152600d60248201526c092dcecc2d8d2c840cae0dec6d609b1b6044820152606490fd5b908160209103126107c357516001600160a01b03811681036107c35790565b600092808452602093600485526040948582209460018060a01b0380911695868452825280878420951694858452825260ff87842054168015612416575b61240c578651636fad7e9560e11b8152948286600481845afa9586156124025784966123e3575b508352600582528683205494168383526002825260018784200154875196630c4db40d60e31b885260048801526001602488015260448701528186606481845afa9586156123d95783966123aa575b50908060049392885194858092633a98ef3960e01b82525afa96871561239f57508196612368575b5050509161073a61073f926123659594612195565b90565b909180939650813d8311612398575b61238181836120ea565b810103126102c45750519261073a82612365612350565b503d612377565b51913d9150823e3d90fd5b9095508181813d83116123d2575b6123c281836120ea565b8101031261026b57519481612328565b503d6123b8565b87513d85823e3d90fd5b6123fb919650833d85116102955761028681836120ea565b94386122d9565b88513d86823e3d90fd5b5050935050505090565b5060015484116122b2565b60001981146120aa5760010190565b91908110156120125760051b0190565b67ffffffffffffffff81116120d45760051b60200190565b80518210156120125760209160051b010190565b1561247357565b60405162461bcd60e51b815260206004820152601a60248201527f4e6f742061206d616e61676564207772617070656420736f6e670000000000006044820152606490fdfe07863fd81b035ca44d1af7b7b984f297c3cf2ef391a2f2e978a98670f200a4eba264697066735822122096b429927c138bd364e0906ef91285584ff8b090872c74647104fc046e7e1ff664736f6c63430008140033a264697066735822122059a28ed2ba20eb5c154aad2f25ef33651be8318af8e47c2d8eb860167b37264664736f6c63430008140033","opcodes":"PUSH1 0x80 CALLVALUE PUSH2 0xBB JUMPI PUSH1 0x1F PUSH2 0x368B CODESIZE DUP2 SWAP1 SUB SWAP2 DUP3 ADD PUSH1 0x1F NOT AND DUP4 ADD SWAP2 PUSH1 0x1 PUSH1 0x1 PUSH1 0x40 SHL SUB DUP4 GT DUP5 DUP5 LT OR PUSH2 0xC0 JUMPI DUP1 DUP5 SWAP3 PUSH1 0x20 SWAP5 PUSH1 0x40 MSTORE DUP4 CODECOPY DUP2 ADD SUB SLT PUSH2 0xBB JUMPI MLOAD PUSH1 0x1 PUSH1 0x1 PUSH1 0xA0 SHL SUB SWAP1 DUP2 DUP2 AND SWAP1 DUP2 SWAP1 SUB PUSH2 0xBB JUMPI DUP1 ISZERO PUSH2 0xA2 JUMPI PUSH1 0x0 DUP1 SLOAD PUSH1 0x1 PUSH1 0x1 PUSH1 0xA0 SHL SUB NOT DUP2 AND DUP4 OR DUP3 SSTORE PUSH1 0x40 MLOAD SWAP4 AND SWAP1 PUSH32 0x8BE0079C531659141344CD1FD0A4F28419497F9722A3DAAFE3B4186F6B6457E0 SWAP1 DUP1 LOG3 PUSH2 0x35B4 SWAP1 DUP2 PUSH2 0xD7 DUP3 CODECOPY RETURN JUMPDEST PUSH1 0x40 MLOAD PUSH4 0x1E4FBDF7 PUSH1 0xE0 SHL DUP2 MSTORE PUSH1 0x0 PUSH1 0x4 DUP3 ADD MSTORE PUSH1 0x24 SWAP1 REVERT JUMPDEST PUSH1 0x0 DUP1 REVERT JUMPDEST PUSH4 0x4E487B71 PUSH1 0xE0 SHL PUSH1 0x0 MSTORE PUSH1 0x41 PUSH1 0x4 MSTORE PUSH1 0x24 PUSH1 0x0 REVERT INVALID PUSH1 0x80 PUSH1 0x40 DUP2 DUP2 MSTORE PUSH1 0x4 DUP1 CALLDATASIZE LT ISZERO PUSH3 0x16 JUMPI PUSH1 0x0 DUP1 REVERT JUMPDEST PUSH1 0x0 SWAP3 DUP4 CALLDATALOAD PUSH1 0xE0 SHR SWAP1 DUP2 PUSH4 0x2CD6C9A6 EQ PUSH3 0xBC0 JUMPI POP DUP1 PUSH4 0x3AA690E7 EQ PUSH3 0xB81 JUMPI DUP1 PUSH4 0x41667986 EQ PUSH3 0xB21 JUMPI DUP1 PUSH4 0x715018A6 EQ PUSH3 0xAC3 JUMPI DUP1 PUSH4 0x8DA5CB5B EQ PUSH3 0xA99 JUMPI DUP1 PUSH4 0xA6BE3496 EQ PUSH3 0x7FA JUMPI DUP1 PUSH4 0xBB8F7724 EQ PUSH3 0x83C JUMPI DUP1 PUSH4 0xD42FE231 EQ PUSH3 0x7FA JUMPI DUP1 PUSH4 0xD677DB97 EQ PUSH3 0x23C JUMPI DUP1 PUSH4 0xF2FDE38B EQ PUSH3 0x1AF JUMPI DUP1 PUSH4 0xF4AE5338 EQ PUSH3 0xF0 JUMPI PUSH4 0xFCF66664 EQ PUSH3 0xB4 JUMPI PUSH1 0x0 DUP1 REVERT JUMPDEST CALLVALUE PUSH3 0xEC JUMPI PUSH1 0x20 CALLDATASIZE PUSH1 0x3 NOT ADD SLT PUSH3 0xEC JUMPI PUSH1 0x20 SWAP3 DUP3 SWAP2 PUSH1 0x1 PUSH1 0x1 PUSH1 0xA0 SHL SUB PUSH3 0xDE PUSH3 0xBFC JUMP JUMPDEST AND DUP3 MSTORE DUP5 MSTORE KECCAK256 SLOAD SWAP1 MLOAD SWAP1 DUP2 MSTORE RETURN JUMPDEST DUP3 DUP1 REVERT JUMPDEST POP POP CALLVALUE PUSH3 0x1AB JUMPI PUSH1 0x20 SWAP2 DUP3 PUSH1 0x3 NOT CALLDATASIZE ADD SLT PUSH3 0x1A8 JUMPI PUSH1 0x1 PUSH1 0x1 PUSH1 0xA0 SHL SUB SWAP1 DUP2 PUSH3 0x11B PUSH3 0xBFC JUMP JUMPDEST AND DUP2 MSTORE PUSH1 0x1 SWAP2 DUP3 DUP6 MSTORE DUP4 DUP3 KECCAK256 SWAP5 DUP5 MLOAD SWAP2 DUP3 DUP3 DUP9 SLOAD SWAP2 DUP3 DUP2 MSTORE ADD SWAP1 DUP2 SWAP9 DUP7 MSTORE DUP4 DUP7 KECCAK256 SWAP1 DUP7 JUMPDEST DUP2 DUP2 LT PUSH3 0x192 JUMPI POP POP POP DUP4 PUSH3 0x158 SWAP2 SUB DUP5 PUSH3 0xCA2 JUMP JUMPDEST DUP6 MLOAD SWAP6 DUP3 DUP8 ADD SWAP4 DUP4 DUP9 MSTORE MLOAD DUP1 SWAP5 MSTORE DUP7 ADD SWAP7 SWAP4 SWAP1 JUMPDEST DUP4 DUP3 LT PUSH3 0x17A JUMPI DUP7 DUP9 SUB DUP8 RETURN JUMPDEST DUP5 MLOAD DUP2 AND DUP9 MSTORE SWAP7 DUP3 ADD SWAP7 SWAP4 DUP3 ADD SWAP4 SWAP1 DUP6 ADD SWAP1 PUSH3 0x16C JUMP JUMPDEST DUP3 SLOAD DUP6 AND DUP5 MSTORE SWAP3 DUP6 ADD SWAP3 SWAP2 DUP9 ADD SWAP2 DUP9 ADD PUSH3 0x13F JUMP JUMPDEST DUP1 REVERT JUMPDEST POP DUP1 REVERT JUMPDEST POP CALLVALUE PUSH3 0xEC JUMPI PUSH1 0x20 CALLDATASIZE PUSH1 0x3 NOT ADD SLT PUSH3 0xEC JUMPI PUSH3 0x1CD PUSH3 0xBFC JUMP JUMPDEST SWAP1 PUSH3 0x1D8 PUSH3 0xC75 JUMP JUMPDEST PUSH1 0x1 PUSH1 0x1 PUSH1 0xA0 SHL SUB SWAP2 DUP3 AND SWAP3 DUP4 ISZERO PUSH3 0x226 JUMPI POP POP DUP3 SLOAD PUSH1 0x1 PUSH1 0x1 PUSH1 0xA0 SHL SUB NOT DUP2 AND DUP4 OR DUP5 SSTORE AND PUSH32 0x8BE0079C531659141344CD1FD0A4F28419497F9722A3DAAFE3B4186F6B6457E0 DUP4 DUP1 LOG3 DUP1 RETURN JUMPDEST MLOAD PUSH4 0x1E4FBDF7 PUSH1 0xE0 SHL DUP2 MSTORE SWAP1 DUP2 ADD DUP5 SWAP1 MSTORE PUSH1 0x24 SWAP1 REVERT JUMPDEST POP SWAP1 PUSH1 0x60 CALLDATASIZE PUSH1 0x3 NOT ADD SLT PUSH3 0xEC JUMPI PUSH3 0x255 PUSH3 0xBFC JUMP JUMPDEST SWAP2 PUSH3 0x260 PUSH3 0xC18 JUMP JUMPDEST SWAP1 PUSH3 0x26B PUSH3 0xC2F JUMP JUMPDEST SWAP5 PUSH3 0x276 PUSH3 0xC75 JUMP JUMPDEST DUP4 MLOAD PUSH4 0xB5AF090F PUSH1 0xE0 SHL DUP2 MSTORE PUSH1 0x1 PUSH1 0x1 PUSH1 0xA0 SHL SUB SWAP6 DUP7 AND DUP4 DUP3 ADD DUP2 SWAP1 MSTORE PUSH1 0x20 SWAP8 PUSH1 0x24 SWAP8 SWAP6 DUP7 AND SWAP6 SWAP2 SWAP5 SWAP2 SWAP3 DUP10 DUP2 DUP11 DUP2 DUP11 GAS STATICCALL SWAP1 DUP2 ISZERO PUSH3 0x6FF JUMPI DUP6 SWAP2 PUSH3 0x7D8 JUMPI JUMPDEST POP ISZERO PUSH3 0x796 JUMPI DUP7 MLOAD PUSH4 0x5C975ABB PUSH1 0xE0 SHL DUP2 MSTORE DUP10 DUP2 DUP5 DUP2 DUP11 GAS STATICCALL SWAP1 DUP2 ISZERO PUSH3 0x6FF JUMPI DUP6 SWAP2 PUSH3 0x774 JUMPI JUMPDEST POP PUSH3 0x73D JUMPI DUP7 MLOAD PUSH4 0x670D2969 PUSH1 0xE1 SHL DUP2 MSTORE DUP10 DUP2 DUP5 DUP2 DUP11 GAS STATICCALL SWAP1 DUP2 ISZERO PUSH3 0x6FF JUMPI DUP5 SWAP2 DUP12 SWAP2 DUP8 SWAP2 PUSH3 0x709 JUMPI JUMPDEST POP DUP5 DUP11 MLOAD DUP1 SWAP5 DUP2 SWAP4 PUSH4 0x6D4726D9 PUSH1 0xE0 SHL DUP4 MSTORE AND GAS STATICCALL SWAP1 DUP2 ISZERO PUSH3 0x6FF JUMPI SWAP1 DUP5 SWAP2 DUP7 SWAP2 PUSH3 0x6BA JUMPI JUMPDEST POP DUP9 MLOAD PUSH4 0xE902FAF PUSH1 0xE0 SHL DUP2 MSTORE SWAP2 AND DUP11 DUP3 DUP6 DUP2 DUP5 GAS STATICCALL SWAP2 DUP3 ISZERO PUSH3 0x674 JUMPI DUP5 SWAP2 DUP13 SWAP2 DUP9 SWAP5 PUSH3 0x67E JUMPI JUMPDEST POP DUP11 MLOAD PUSH4 0xD579E3F3 PUSH1 0xE0 SHL DUP2 MSTORE SWAP3 DUP4 SWAP2 DUP3 SWAP1 GAS STATICCALL SWAP1 DUP2 ISZERO PUSH3 0x674 JUMPI DUP7 SWAP2 PUSH3 0x640 JUMPI JUMPDEST POP DUP2 PUSH3 0x496 JUMPI JUMPDEST POP POP DUP7 MLOAD SWAP1 PUSH2 0x271D SWAP7 DUP8 DUP4 ADD SWAP8 DUP4 DUP10 LT PUSH8 0xFFFFFFFFFFFFFFFF DUP11 GT OR PUSH3 0x484 JUMPI PUSH1 0x60 SWAP3 DUP5 SWAP3 DUP8 SWAP3 PUSH3 0xE62 DUP6 CODECOPY DUP10 DUP12 MSTORE DUP14 DUP12 ADD MSTORE AND SWAP8 DUP9 DUP11 DUP3 ADD MSTORE SUB ADD SWAP1 DUP5 CREATE DUP1 ISZERO PUSH3 0x47A JUMPI DUP3 AND SWAP7 DUP6 DUP5 MSTORE PUSH1 0x1 DUP10 MSTORE DUP7 DUP5 KECCAK256 SWAP1 DUP2 SLOAD SWAP3 PUSH9 0x10000000000000000 DUP5 LT ISZERO PUSH3 0x469 JUMPI POP POP SWAP3 PUSH32 0xCE2886F90250A27EF084706FA347B2E815C3B41623BB3CEB84B43CD3D9889F44 SWAP5 SWAP3 PUSH3 0x432 DUP4 DUP10 SWAP7 PUSH1 0x1 DUP9 SWAP7 ADD DUP2 SSTORE PUSH3 0xC46 JUMP JUMPDEST DUP2 SWAP3 SWAP2 SLOAD SWAP1 PUSH1 0x3 SHL SWAP2 DUP12 DUP4 SHL SWAP3 SHL NOT AND OR SWAP1 SSTORE DUP8 DUP2 MSTORE PUSH1 0x3 DUP10 MSTORE KECCAK256 PUSH1 0x1 PUSH1 0xFF NOT DUP3 SLOAD AND OR SWAP1 SSTORE DUP2 MLOAD SWAP1 DUP7 DUP3 MSTORE DUP8 DUP3 ADD MSTORE LOG2 MLOAD SWAP1 DUP2 MSTORE RETURN JUMPDEST PUSH4 0x4E487B71 PUSH1 0xE0 SHL DUP7 MSTORE PUSH1 0x41 SWAP1 MSTORE DUP5 REVERT JUMPDEST DUP7 MLOAD RETURNDATASIZE DUP6 DUP3 RETURNDATACOPY RETURNDATASIZE SWAP1 REVERT JUMPDEST PUSH4 0x4E487B71 PUSH1 0xE0 SHL DUP8 MSTORE PUSH1 0x41 DUP6 MSTORE DUP11 DUP8 REVERT JUMPDEST ISZERO PUSH3 0x532 JUMPI DUP8 MLOAD PUSH4 0x23B872DD PUSH1 0xE0 SHL DUP12 DUP3 ADD MSTORE CALLER DUP11 DUP3 ADD MSTORE ADDRESS PUSH1 0x44 DUP3 ADD MSTORE PUSH1 0x64 DUP1 DUP3 ADD DUP4 SWAP1 MSTORE DUP2 MSTORE PUSH1 0xA0 DUP2 ADD PUSH8 0xFFFFFFFFFFFFFFFF DUP2 GT DUP3 DUP3 LT OR PUSH3 0x484 JUMPI DUP12 DUP9 SWAP4 PUSH3 0x50B DUP10 SWAP5 PUSH32 0xDD872CA9502E175165673833AC2A0E1395EDB4B5C72F2915685598490C375E99 SWAP5 DUP15 MSTORE DUP7 PUSH3 0xD7E JUMP JUMPDEST DUP5 DUP5 MSTORE DUP7 DUP3 MSTORE DUP12 DUP5 KECCAK256 PUSH3 0x521 DUP3 DUP3 SLOAD PUSH3 0xD16 JUMP JUMPDEST SWAP1 SSTORE DUP12 MLOAD SWAP1 DUP2 MSTORE LOG3 JUMPDEST CODESIZE DUP1 PUSH3 0x38D JUMP JUMPDEST DUP1 CALLVALUE LT PUSH3 0x5FE JUMPI DUP5 DUP1 MSTORE DUP3 DUP11 MSTORE DUP8 DUP6 KECCAK256 PUSH3 0x550 CALLVALUE DUP3 SLOAD PUSH3 0xD16 JUMP JUMPDEST SWAP1 SSTORE DUP1 CALLVALUE GT PUSH3 0x58C JUMPI JUMPDEST POP DUP4 DUP1 PUSH32 0xDD872CA9502E175165673833AC2A0E1395EDB4B5C72F2915685598490C375E99 DUP12 DUP11 MLOAD CALLVALUE DUP2 MSTORE LOG3 PUSH3 0x52A JUMP JUMPDEST CALLVALUE SUB CALLVALUE DUP2 GT PUSH3 0x5EC JUMPI DUP5 DUP1 DUP1 DUP1 SWAP4 CALLER GAS CALL PUSH3 0x5A8 PUSH3 0xD3A JUMP JUMPDEST POP ISZERO PUSH3 0x5B6 JUMPI CODESIZE PUSH3 0x55B JUMP JUMPDEST DUP7 MLOAD PUSH3 0x461BCD PUSH1 0xE5 SHL DUP2 MSTORE DUP1 DUP4 ADD DUP11 SWAP1 MSTORE PUSH1 0x11 DUP2 DUP11 ADD MSTORE PUSH17 0x115512081C99599D5B990819985A5B1959 PUSH1 0x7A SHL PUSH1 0x44 DUP3 ADD MSTORE PUSH1 0x64 SWAP1 REVERT JUMPDEST PUSH4 0x4E487B71 PUSH1 0xE0 SHL DUP6 MSTORE PUSH1 0x11 DUP4 MSTORE DUP9 DUP6 REVERT JUMPDEST DUP8 MLOAD PUSH3 0x461BCD PUSH1 0xE5 SHL DUP2 MSTORE DUP1 DUP5 ADD DUP12 SWAP1 MSTORE PUSH1 0x18 DUP2 DUP12 ADD MSTORE PUSH32 0x496E636F7272656374204554482066656520616D6F756E740000000000000000 PUSH1 0x44 DUP3 ADD MSTORE PUSH1 0x64 SWAP1 REVERT JUMPDEST PUSH3 0x665 SWAP2 POP DUP12 RETURNDATASIZE DUP14 GT PUSH3 0x66C JUMPI JUMPDEST PUSH3 0x65C DUP2 DUP4 PUSH3 0xCA2 JUMP JUMPDEST DUP2 ADD SWAP1 PUSH3 0xCDB JUMP JUMPDEST CODESIZE PUSH3 0x385 JUMP JUMPDEST POP RETURNDATASIZE PUSH3 0x650 JUMP JUMPDEST DUP10 MLOAD RETURNDATASIZE DUP9 DUP3 RETURNDATACOPY RETURNDATASIZE SWAP1 REVERT JUMPDEST SWAP3 POP SWAP3 POP DUP2 DUP2 RETURNDATASIZE DUP4 GT PUSH3 0x6B2 JUMPI JUMPDEST PUSH3 0x699 DUP2 DUP4 PUSH3 0xCA2 JUMP JUMPDEST DUP2 ADD SUB SLT PUSH3 0x6AE JUMPI DUP11 DUP5 SWAP2 MLOAD SWAP3 CODESIZE PUSH3 0x361 JUMP JUMPDEST DUP6 DUP1 REVERT JUMPDEST POP RETURNDATASIZE PUSH3 0x68D JUMP JUMPDEST DUP1 SWAP3 POP DUP12 DUP1 SWAP3 POP RETURNDATASIZE DUP4 GT PUSH3 0x6F7 JUMPI JUMPDEST PUSH3 0x6D6 DUP2 DUP4 PUSH3 0xCA2 JUMP JUMPDEST DUP2 ADD SUB SLT PUSH3 0x6F3 JUMPI MLOAD DUP4 DUP2 AND DUP2 SUB PUSH3 0x6F3 JUMPI DUP4 SWAP1 CODESIZE PUSH3 0x337 JUMP JUMPDEST DUP5 DUP1 REVERT JUMPDEST POP RETURNDATASIZE PUSH3 0x6CA JUMP JUMPDEST DUP9 MLOAD RETURNDATASIZE DUP8 DUP3 RETURNDATACOPY RETURNDATASIZE SWAP1 REVERT JUMPDEST PUSH3 0x72E SWAP2 POP DUP3 RETURNDATASIZE DUP5 GT PUSH3 0x735 JUMPI JUMPDEST PUSH3 0x725 DUP2 DUP4 PUSH3 0xCA2 JUMP JUMPDEST DUP2 ADD SWAP1 PUSH3 0xCF5 JUMP JUMPDEST CODESIZE PUSH3 0x30F JUMP JUMPDEST POP RETURNDATASIZE PUSH3 0x719 JUMP JUMPDEST DUP7 MLOAD PUSH3 0x461BCD PUSH1 0xE5 SHL DUP2 MSTORE DUP1 DUP4 ADD DUP11 SWAP1 MSTORE PUSH1 0x12 DUP2 DUP11 ADD MSTORE PUSH18 0x141C9BDD1BD8DBDB081A5CC81C185D5CD959 PUSH1 0x72 SHL PUSH1 0x44 DUP3 ADD MSTORE PUSH1 0x64 SWAP1 REVERT JUMPDEST PUSH3 0x78F SWAP2 POP DUP11 RETURNDATASIZE DUP13 GT PUSH3 0x66C JUMPI PUSH3 0x65C DUP2 DUP4 PUSH3 0xCA2 JUMP JUMPDEST CODESIZE PUSH3 0x2E2 JUMP JUMPDEST DUP7 MLOAD PUSH3 0x461BCD PUSH1 0xE5 SHL DUP2 MSTORE DUP1 DUP4 ADD DUP11 SWAP1 MSTORE PUSH1 0x1D DUP2 DUP11 ADD MSTORE PUSH32 0x537461626C65636F696E206973206E6F742077686974656C6973746564000000 PUSH1 0x44 DUP3 ADD MSTORE PUSH1 0x64 SWAP1 REVERT JUMPDEST PUSH3 0x7F3 SWAP2 POP DUP11 RETURNDATASIZE DUP13 GT PUSH3 0x66C JUMPI PUSH3 0x65C DUP2 DUP4 PUSH3 0xCA2 JUMP JUMPDEST CODESIZE PUSH3 0x2B8 JUMP JUMPDEST POP POP CALLVALUE PUSH3 0x1AB JUMPI PUSH1 0x20 CALLDATASIZE PUSH1 0x3 NOT ADD SLT PUSH3 0x1AB JUMPI PUSH1 0x20 SWAP2 PUSH1 0xFF SWAP1 DUP3 SWAP1 PUSH1 0x1 PUSH1 0x1 PUSH1 0xA0 SHL SUB PUSH3 0x829 PUSH3 0xBFC JUMP JUMPDEST AND DUP2 MSTORE PUSH1 0x3 DUP6 MSTORE KECCAK256 SLOAD AND SWAP1 MLOAD SWAP1 ISZERO ISZERO DUP2 MSTORE RETURN JUMPDEST POP DUP3 SWAP1 CALLVALUE PUSH3 0x1AB JUMPI PUSH1 0x60 CALLDATASIZE PUSH1 0x3 NOT ADD SLT PUSH3 0x1AB JUMPI PUSH3 0x85C PUSH3 0xBFC JUMP JUMPDEST PUSH3 0x866 PUSH3 0xC18 JUMP JUMPDEST SWAP1 PUSH3 0x871 PUSH3 0xC2F JUMP JUMPDEST DUP6 MLOAD SWAP2 PUSH4 0x8DA5CB5B PUSH1 0xE0 SHL DUP4 MSTORE PUSH1 0x20 SWAP3 DUP4 DUP2 DUP8 DUP2 PUSH1 0x1 DUP1 PUSH1 0xA0 SHL SUB DUP1 SWAP8 AND GAS STATICCALL SWAP1 DUP2 ISZERO PUSH3 0xA8F JUMPI SWAP1 DUP4 SWAP2 DUP9 SWAP2 PUSH3 0xA6D JUMPI JUMPDEST POP AND CALLER SUB PUSH3 0xA1C JUMPI DUP2 AND SWAP3 DUP4 DUP7 MSTORE DUP5 DUP4 MSTORE DUP7 DUP7 KECCAK256 SLOAD SWAP5 DUP6 ISZERO PUSH3 0x9E3 JUMPI DUP5 DUP8 MSTORE DUP1 DUP5 MSTORE DUP7 DUP9 DUP2 KECCAK256 SSTORE DUP5 ISZERO PUSH1 0x0 EQ PUSH3 0x95C JUMPI DUP7 DUP1 DUP1 DUP1 DUP10 DUP8 DUP8 AND GAS CALL PUSH3 0x8EB PUSH3 0xD3A JUMP JUMPDEST POP ISZERO PUSH3 0x923 JUMPI POP PUSH32 0x5E110F8BC8A20B65DCC87F224BDF1CC039346E267118BAE2739847F07321FFA8 SWAP4 SWAP5 SWAP6 SWAP7 JUMPDEST MLOAD SWAP6 DUP7 MSTORE AND SWAP4 LOG3 DUP1 RETURN JUMPDEST DUP8 MLOAD PUSH3 0x461BCD PUSH1 0xE5 SHL DUP2 MSTORE SWAP1 DUP2 ADD DUP5 SWAP1 MSTORE PUSH1 0x13 PUSH1 0x24 DUP3 ADD MSTORE PUSH19 0x115512081D1C985B9CD9995C8819985A5B1959 PUSH1 0x6A SHL PUSH1 0x44 DUP3 ADD MSTORE PUSH1 0x64 SWAP1 REVERT JUMPDEST SWAP7 DUP1 MLOAD PUSH4 0xA9059CBB PUSH1 0xE0 SHL DUP6 DUP3 ADD MSTORE DUP4 DUP4 AND PUSH1 0x24 DUP3 ADD MSTORE DUP7 PUSH1 0x44 DUP3 ADD MSTORE PUSH1 0x44 DUP2 MSTORE PUSH1 0x80 DUP2 ADD DUP2 DUP2 LT PUSH8 0xFFFFFFFFFFFFFFFF DUP3 GT OR PUSH3 0x9D0 JUMPI PUSH32 0x5E110F8BC8A20B65DCC87F224BDF1CC039346E267118BAE2739847F07321FFA8 SWAP7 SWAP8 SWAP9 SWAP10 POP SWAP1 PUSH3 0x9CA SWAP2 DUP4 MSTORE DUP8 PUSH3 0xD7E JUMP JUMPDEST PUSH3 0x919 JUMP JUMPDEST PUSH4 0x4E487B71 PUSH1 0xE0 SHL DUP10 MSTORE PUSH1 0x41 DUP11 MSTORE PUSH1 0x24 DUP10 REVERT JUMPDEST DUP8 MLOAD PUSH3 0x461BCD PUSH1 0xE5 SHL DUP2 MSTORE SWAP1 DUP2 ADD DUP5 SWAP1 MSTORE PUSH1 0x13 PUSH1 0x24 DUP3 ADD MSTORE PUSH19 0x4E6F206665657320746F207769746864726177 PUSH1 0x68 SHL PUSH1 0x44 DUP3 ADD MSTORE PUSH1 0x64 SWAP1 REVERT JUMPDEST DUP7 MLOAD PUSH3 0x461BCD PUSH1 0xE5 SHL DUP2 MSTORE DUP1 DUP7 ADD DUP5 SWAP1 MSTORE PUSH1 0x25 PUSH1 0x24 DUP3 ADD MSTORE PUSH32 0x4F6E6C792070726F746F636F6C206F776E65722063616E207769746864726177 PUSH1 0x44 DUP3 ADD MSTORE PUSH5 0x2066656573 PUSH1 0xD8 SHL PUSH1 0x64 DUP3 ADD MSTORE PUSH1 0x84 SWAP1 REVERT JUMPDEST PUSH3 0xA88 SWAP2 POP DUP6 RETURNDATASIZE DUP8 GT PUSH3 0x735 JUMPI PUSH3 0x725 DUP2 DUP4 PUSH3 0xCA2 JUMP JUMPDEST DUP10 PUSH3 0x8A4 JUMP JUMPDEST DUP9 MLOAD RETURNDATASIZE DUP10 DUP3 RETURNDATACOPY RETURNDATASIZE SWAP1 REVERT JUMPDEST POP POP CALLVALUE PUSH3 0x1AB JUMPI DUP2 PUSH1 0x3 NOT CALLDATASIZE ADD SLT PUSH3 0x1AB JUMPI SWAP1 SLOAD SWAP1 MLOAD PUSH1 0x1 PUSH1 0x1 PUSH1 0xA0 SHL SUB SWAP1 SWAP2 AND DUP2 MSTORE PUSH1 0x20 SWAP1 RETURN JUMPDEST DUP4 CALLVALUE PUSH3 0x1A8 JUMPI DUP1 PUSH1 0x3 NOT CALLDATASIZE ADD SLT PUSH3 0x1A8 JUMPI PUSH3 0xAE0 PUSH3 0xC75 JUMP JUMPDEST DUP1 SLOAD PUSH1 0x1 PUSH1 0x1 PUSH1 0xA0 SHL SUB NOT DUP2 AND DUP3 SSTORE DUP2 SWAP1 PUSH1 0x1 PUSH1 0x1 PUSH1 0xA0 SHL SUB AND PUSH32 0x8BE0079C531659141344CD1FD0A4F28419497F9722A3DAAFE3B4186F6B6457E0 DUP3 DUP1 LOG3 DUP1 RETURN JUMPDEST POP POP CALLVALUE PUSH3 0x1AB JUMPI DUP1 PUSH1 0x3 NOT CALLDATASIZE ADD SLT PUSH3 0x1AB JUMPI PUSH3 0xB3F PUSH3 0xBFC JUMP JUMPDEST PUSH1 0x1 PUSH1 0x1 PUSH1 0xA0 SHL SUB SWAP1 DUP2 AND DUP4 MSTORE PUSH1 0x1 PUSH1 0x20 MSTORE DUP2 DUP4 KECCAK256 DUP1 SLOAD PUSH1 0x24 CALLDATALOAD SWAP5 SWAP1 DUP6 LT ISZERO PUSH3 0x1A8 JUMPI POP PUSH1 0x20 SWAP4 PUSH3 0xB72 SWAP2 PUSH3 0xC46 JUMP JUMPDEST SWAP3 SWAP1 SLOAD SWAP1 MLOAD SWAP3 PUSH1 0x3 SHL SHR AND DUP2 MSTORE RETURN JUMPDEST POP POP CALLVALUE PUSH3 0x1AB JUMPI PUSH1 0x20 CALLDATASIZE PUSH1 0x3 NOT ADD SLT PUSH3 0x1AB JUMPI PUSH1 0x20 SWAP2 PUSH1 0x1 PUSH1 0x1 PUSH1 0xA0 SHL SUB SWAP1 DUP3 SWAP1 DUP3 PUSH3 0xBAF PUSH3 0xBFC JUMP JUMPDEST AND DUP2 MSTORE PUSH1 0x2 DUP6 MSTORE KECCAK256 SLOAD AND SWAP1 MLOAD SWAP1 DUP2 MSTORE RETURN JUMPDEST DUP5 SWAP1 DUP5 CALLVALUE PUSH3 0xEC JUMPI PUSH1 0x20 CALLDATASIZE PUSH1 0x3 NOT ADD SLT PUSH3 0xEC JUMPI PUSH1 0x20 SWAP3 PUSH1 0x1 PUSH1 0x1 PUSH1 0xA0 SHL SUB SWAP2 SWAP1 DUP3 PUSH3 0xBEE PUSH3 0xBFC JUMP JUMPDEST AND DUP2 MSTORE PUSH1 0x2 DUP6 MSTORE KECCAK256 SLOAD AND DUP2 MSTORE RETURN JUMPDEST PUSH1 0x4 CALLDATALOAD SWAP1 PUSH1 0x1 PUSH1 0x1 PUSH1 0xA0 SHL SUB DUP3 AND DUP3 SUB PUSH3 0xC13 JUMPI JUMP JUMPDEST PUSH1 0x0 DUP1 REVERT JUMPDEST PUSH1 0x24 CALLDATALOAD SWAP1 PUSH1 0x1 PUSH1 0x1 PUSH1 0xA0 SHL SUB DUP3 AND DUP3 SUB PUSH3 0xC13 JUMPI JUMP JUMPDEST PUSH1 0x44 CALLDATALOAD SWAP1 PUSH1 0x1 PUSH1 0x1 PUSH1 0xA0 SHL SUB DUP3 AND DUP3 SUB PUSH3 0xC13 JUMPI JUMP JUMPDEST DUP1 SLOAD DUP3 LT ISZERO PUSH3 0xC5F JUMPI PUSH1 0x0 MSTORE PUSH1 0x20 PUSH1 0x0 KECCAK256 ADD SWAP1 PUSH1 0x0 SWAP1 JUMP JUMPDEST PUSH4 0x4E487B71 PUSH1 0xE0 SHL PUSH1 0x0 MSTORE PUSH1 0x32 PUSH1 0x4 MSTORE PUSH1 0x24 PUSH1 0x0 REVERT JUMPDEST PUSH1 0x0 SLOAD PUSH1 0x1 PUSH1 0x1 PUSH1 0xA0 SHL SUB AND CALLER SUB PUSH3 0xC8A JUMPI JUMP JUMPDEST PUSH1 0x40 MLOAD PUSH4 0x118CDAA7 PUSH1 0xE0 SHL DUP2 MSTORE CALLER PUSH1 0x4 DUP3 ADD MSTORE PUSH1 0x24 SWAP1 REVERT JUMPDEST SWAP1 PUSH1 0x1F DUP1 NOT SWAP2 ADD AND DUP2 ADD SWAP1 DUP2 LT PUSH8 0xFFFFFFFFFFFFFFFF DUP3 GT OR PUSH3 0xCC5 JUMPI PUSH1 0x40 MSTORE JUMP JUMPDEST PUSH4 0x4E487B71 PUSH1 0xE0 SHL PUSH1 0x0 MSTORE PUSH1 0x41 PUSH1 0x4 MSTORE PUSH1 0x24 PUSH1 0x0 REVERT JUMPDEST SWAP1 DUP2 PUSH1 0x20 SWAP2 SUB SLT PUSH3 0xC13 JUMPI MLOAD DUP1 ISZERO ISZERO DUP2 SUB PUSH3 0xC13 JUMPI SWAP1 JUMP JUMPDEST SWAP1 DUP2 PUSH1 0x20 SWAP2 SUB SLT PUSH3 0xC13 JUMPI MLOAD PUSH1 0x1 PUSH1 0x1 PUSH1 0xA0 SHL SUB DUP2 AND DUP2 SUB PUSH3 0xC13 JUMPI SWAP1 JUMP JUMPDEST SWAP2 SWAP1 DUP3 ADD DUP1 SWAP3 GT PUSH3 0xD24 JUMPI JUMP JUMPDEST PUSH4 0x4E487B71 PUSH1 0xE0 SHL PUSH1 0x0 MSTORE PUSH1 0x11 PUSH1 0x4 MSTORE PUSH1 0x24 PUSH1 0x0 REVERT JUMPDEST RETURNDATASIZE ISZERO PUSH3 0xD79 JUMPI RETURNDATASIZE SWAP1 PUSH8 0xFFFFFFFFFFFFFFFF DUP3 GT PUSH3 0xCC5 JUMPI PUSH1 0x40 MLOAD SWAP2 PUSH3 0xD6D PUSH1 0x1F DUP3 ADD PUSH1 0x1F NOT AND PUSH1 0x20 ADD DUP5 PUSH3 0xCA2 JUMP JUMPDEST DUP3 MSTORE RETURNDATASIZE PUSH1 0x0 PUSH1 0x20 DUP5 ADD RETURNDATACOPY JUMP JUMPDEST PUSH1 0x60 SWAP1 JUMP JUMPDEST PUSH1 0x0 DUP1 PUSH3 0xDAB SWAP3 PUSH1 0x1 DUP1 PUSH1 0xA0 SHL SUB AND SWAP4 PUSH1 0x20 DUP2 MLOAD SWAP2 ADD DUP3 DUP7 GAS CALL PUSH3 0xDA3 PUSH3 0xD3A JUMP JUMPDEST SWAP1 DUP4 PUSH3 0xDF9 JUMP JUMPDEST DUP1 MLOAD SWAP1 DUP2 ISZERO ISZERO SWAP2 DUP3 PUSH3 0xDDB JUMPI JUMPDEST POP POP PUSH3 0xDC3 JUMPI POP JUMP JUMPDEST PUSH1 0x24 SWAP1 PUSH1 0x40 MLOAD SWAP1 PUSH4 0x5274AFE7 PUSH1 0xE0 SHL DUP3 MSTORE PUSH1 0x4 DUP3 ADD MSTORE REVERT JUMPDEST PUSH3 0xDF0 SWAP3 POP PUSH1 0x20 DUP1 SWAP2 DUP4 ADD ADD SWAP2 ADD PUSH3 0xCDB JUMP JUMPDEST ISZERO CODESIZE DUP1 PUSH3 0xDB9 JUMP JUMPDEST SWAP1 PUSH3 0xE22 JUMPI POP DUP1 MLOAD ISZERO PUSH3 0xE10 JUMPI DUP1 MLOAD SWAP1 PUSH1 0x20 ADD REVERT JUMPDEST PUSH1 0x40 MLOAD PUSH4 0xA12F521 PUSH1 0xE1 SHL DUP2 MSTORE PUSH1 0x4 SWAP1 REVERT JUMPDEST DUP2 MLOAD ISZERO DUP1 PUSH3 0xE57 JUMPI JUMPDEST PUSH3 0xE35 JUMPI POP SWAP1 JUMP JUMPDEST PUSH1 0x40 MLOAD PUSH4 0x9996B315 PUSH1 0xE0 SHL DUP2 MSTORE PUSH1 0x1 PUSH1 0x1 PUSH1 0xA0 SHL SUB SWAP1 SWAP2 AND PUSH1 0x4 DUP3 ADD MSTORE PUSH1 0x24 SWAP1 REVERT JUMPDEST POP DUP1 EXTCODESIZE ISZERO PUSH3 0xE2C JUMP INVALID PUSH1 0xC0 CALLVALUE PUSH3 0x1DE JUMPI PUSH1 0x1F PUSH3 0x271D CODESIZE DUP2 SWAP1 SUB SWAP2 DUP3 ADD PUSH1 0x1F NOT AND DUP4 ADD SWAP3 SWAP2 SWAP1 PUSH1 0x1 PUSH1 0x1 PUSH1 0x40 SHL SUB DUP5 GT DUP4 DUP6 LT OR PUSH3 0x1E3 JUMPI DUP2 PUSH1 0x60 SWAP3 DUP5 SWAP3 PUSH1 0x40 SWAP7 DUP8 MSTORE DUP4 CODECOPY DUP2 ADD SUB SLT PUSH3 0x1DE JUMPI DUP2 PUSH3 0x52 DUP3 PUSH3 0x1F9 JUMP JUMPDEST SWAP2 PUSH3 0x61 PUSH1 0x20 DUP3 ADD PUSH3 0x1F9 JUMP JUMPDEST PUSH1 0x1 PUSH1 0x1 PUSH1 0xA0 SHL SUB SWAP3 SWAP1 SWAP2 DUP4 SWAP2 PUSH3 0x7A SWAP2 ADD PUSH3 0x1F9 JUMP JUMPDEST AND SWAP3 DUP4 ISZERO PUSH3 0x1C6 JUMPI PUSH1 0x0 DUP1 SLOAD PUSH1 0x1 PUSH1 0x1 PUSH1 0xA0 SHL SUB NOT DUP2 AND DUP7 OR DUP3 SSTORE DUP7 MLOAD SWAP6 DUP6 SWAP4 SWAP3 SWAP1 SWAP2 DUP5 AND SWAP1 PUSH32 0x8BE0079C531659141344CD1FD0A4F28419497F9722A3DAAFE3B4186F6B6457E0 SWAP1 DUP1 LOG3 AND SWAP3 DUP4 ISZERO PUSH3 0x18F JUMPI POP AND SWAP1 DUP2 ISZERO PUSH3 0x14B JUMPI PUSH1 0x80 MSTORE PUSH1 0xA0 MSTORE MLOAD PUSH2 0x250E SWAP1 DUP2 PUSH3 0x20F DUP3 CODECOPY PUSH1 0x80 MLOAD DUP2 DUP2 DUP2 PUSH2 0x38B ADD MSTORE DUP2 DUP2 PUSH2 0x578 ADD MSTORE DUP2 DUP2 PUSH2 0xBA2 ADD MSTORE DUP2 DUP2 PUSH2 0x1331 ADD MSTORE DUP2 DUP2 PUSH2 0x1826 ADD MSTORE PUSH2 0x1C74 ADD MSTORE PUSH1 0xA0 MLOAD DUP2 DUP2 DUP2 PUSH2 0x18C ADD MSTORE DUP2 DUP2 PUSH2 0x433 ADD MSTORE DUP2 DUP2 PUSH2 0x935 ADD MSTORE DUP2 DUP2 PUSH2 0xD59 ADD MSTORE DUP2 DUP2 PUSH2 0x1A31 ADD MSTORE DUP2 DUP2 PUSH2 0x1AA3 ADD MSTORE PUSH2 0x1EC4 ADD MSTORE RETURN JUMPDEST DUP3 MLOAD PUSH3 0x461BCD PUSH1 0xE5 SHL DUP2 MSTORE PUSH1 0x20 PUSH1 0x4 DUP3 ADD MSTORE PUSH1 0x17 PUSH1 0x24 DUP3 ADD MSTORE PUSH32 0x496E76616C69642070726F746F636F6C206D6F64756C65000000000000000000 PUSH1 0x44 DUP3 ADD MSTORE PUSH1 0x64 SWAP1 REVERT JUMPDEST PUSH3 0x461BCD PUSH1 0xE5 SHL DUP2 MSTORE PUSH1 0x20 PUSH1 0x4 DUP3 ADD MSTORE PUSH1 0x12 PUSH1 0x24 DUP3 ADD MSTORE PUSH18 0x24B73B30B634B21039BA30B13632B1B7B4B7 PUSH1 0x71 SHL PUSH1 0x44 DUP3 ADD MSTORE PUSH1 0x64 SWAP1 REVERT JUMPDEST DUP5 MLOAD PUSH4 0x1E4FBDF7 PUSH1 0xE0 SHL DUP2 MSTORE PUSH1 0x0 PUSH1 0x4 DUP3 ADD MSTORE PUSH1 0x24 SWAP1 REVERT JUMPDEST PUSH1 0x0 DUP1 REVERT JUMPDEST PUSH4 0x4E487B71 PUSH1 0xE0 SHL PUSH1 0x0 MSTORE PUSH1 0x41 PUSH1 0x4 MSTORE PUSH1 0x24 PUSH1 0x0 REVERT JUMPDEST MLOAD SWAP1 PUSH1 0x1 PUSH1 0x1 PUSH1 0xA0 SHL SUB DUP3 AND DUP3 SUB PUSH3 0x1DE JUMPI JUMP INVALID PUSH1 0x80 DUP1 PUSH1 0x40 MSTORE PUSH1 0x4 CALLDATASIZE LT ISZERO PUSH2 0x13 JUMPI PUSH1 0x0 DUP1 REVERT JUMPDEST PUSH1 0x0 SWAP1 DUP2 CALLDATALOAD PUSH1 0xE0 SHR SWAP1 DUP2 PUSH4 0x28A6B9E EQ PUSH2 0x1F50 JUMPI POP DUP1 PUSH4 0x4ADBC22 EQ PUSH2 0x1E68 JUMPI DUP1 PUSH4 0xA279E15 EQ PUSH2 0x1E38 JUMPI DUP1 PUSH4 0x1188029F EQ PUSH2 0x1DF4 JUMPI DUP1 PUSH4 0x16114ACD EQ PUSH2 0x1C44 JUMPI DUP1 PUSH4 0x16A91B2F EQ PUSH2 0x1BEF JUMPI DUP1 PUSH4 0x49F3329B EQ PUSH2 0x1BAD JUMPI DUP1 PUSH4 0x4B08EC50 EQ PUSH2 0x1A60 JUMPI DUP1 PUSH4 0x5C42E667 EQ PUSH2 0x1A1B JUMPI DUP1 PUSH4 0x6D3D6E6D EQ PUSH2 0x19F1 JUMPI DUP1 PUSH4 0x715018A6 EQ PUSH2 0x1997 JUMPI DUP1 PUSH4 0x7F41B4A8 EQ PUSH2 0x1612 JUMPI DUP1 PUSH4 0x8DA5CB5B EQ PUSH2 0x15EB JUMPI DUP1 PUSH4 0x921F4533 EQ PUSH2 0x123B JUMPI DUP1 PUSH4 0x9D6CE7CA EQ PUSH2 0xF7D JUMPI DUP1 PUSH4 0xB0C70E27 EQ PUSH2 0xD18 JUMPI DUP1 PUSH4 0xB3104D80 EQ PUSH2 0xCDF JUMPI DUP1 PUSH4 0xB8B0A09A EQ PUSH2 0xA32 JUMPI DUP1 PUSH4 0xBE94E319 EQ PUSH2 0x8CB JUMPI DUP1 PUSH4 0xC0C71CE9 EQ PUSH2 0x4EA JUMPI DUP1 PUSH4 0xD20098A2 EQ PUSH2 0x4CC JUMPI DUP1 PUSH4 0xD65BD2FA EQ PUSH2 0x3D7 JUMPI DUP1 PUSH4 0xE91E13A9 EQ PUSH2 0x3BA JUMPI DUP1 PUSH4 0xE9CBD822 EQ PUSH2 0x375 JUMPI DUP1 PUSH4 0xEACDC5FF EQ PUSH2 0x357 JUMPI DUP1 PUSH4 0xF2FDE38B EQ PUSH2 0x2C7 JUMPI PUSH4 0xF5260369 EQ PUSH2 0x14A JUMPI PUSH1 0x0 DUP1 REVERT JUMPDEST CALLVALUE PUSH2 0x2C4 JUMPI PUSH1 0x20 DUP1 PUSH1 0x3 NOT CALLDATASIZE ADD SLT PUSH2 0x25C JUMPI DUP2 PUSH2 0x165 PUSH2 0x1FC5 JUMP JUMPDEST SWAP2 PUSH2 0x16E PUSH2 0x2071 JUMP JUMPDEST PUSH1 0x40 MLOAD PUSH4 0x670D2969 PUSH1 0xE1 SHL DUP2 MSTORE PUSH1 0x1 PUSH1 0x1 PUSH1 0xA0 SHL SUB SWAP2 SWAP1 DUP2 DUP2 PUSH1 0x4 DUP2 PUSH32 0x0 DUP8 AND GAS STATICCALL SWAP1 DUP2 ISZERO PUSH2 0x29C JUMPI DUP4 SWAP2 DUP4 SWAP2 DUP7 SWAP2 PUSH2 0x2A7 JUMPI JUMPDEST POP PUSH1 0x4 PUSH1 0x40 MLOAD DUP1 SWAP5 DUP2 SWAP4 PUSH4 0x65BB98B5 PUSH1 0xE0 SHL DUP4 MSTORE AND GAS STATICCALL SWAP1 DUP2 ISZERO PUSH2 0x29C JUMPI DUP4 SWAP3 DUP6 SWAP3 PUSH2 0x26F JUMPI JUMPDEST POP POP AND SWAP3 DUP4 EXTCODESIZE ISZERO PUSH2 0x26B JUMPI DUP3 SWAP2 PUSH1 0x24 DUP4 SWAP3 PUSH1 0x40 MLOAD SWAP5 DUP6 SWAP4 DUP5 SWAP3 PUSH4 0xF5260369 PUSH1 0xE0 SHL DUP5 MSTORE AND SWAP8 DUP9 PUSH1 0x4 DUP5 ADD MSTORE GAS CALL DUP1 ISZERO PUSH2 0x260 JUMPI PUSH2 0x248 JUMPI JUMPDEST POP DUP1 PUSH32 0x9B8B9FD151330B7D89319C88ADC1BA5B0E63288A430BAC1173B0AF4570586B63 SWAP2 LOG2 DUP1 RETURN JUMPDEST PUSH2 0x251 SWAP1 PUSH2 0x20C0 JUMP JUMPDEST PUSH2 0x25C JUMPI DUP2 CODESIZE PUSH2 0x220 JUMP JUMPDEST POP DUP1 REVERT JUMPDEST PUSH1 0x40 MLOAD RETURNDATASIZE DUP5 DUP3 RETURNDATACOPY RETURNDATASIZE SWAP1 REVERT JUMPDEST DUP3 DUP1 REVERT JUMPDEST PUSH2 0x28E SWAP3 POP DUP1 RETURNDATASIZE LT PUSH2 0x295 JUMPI JUMPDEST PUSH2 0x286 DUP2 DUP4 PUSH2 0x20EA JUMP JUMPDEST DUP2 ADD SWAP1 PUSH2 0x2255 JUMP JUMPDEST CODESIZE DUP1 PUSH2 0x1E8 JUMP JUMPDEST POP RETURNDATASIZE PUSH2 0x27C JUMP JUMPDEST PUSH1 0x40 MLOAD RETURNDATASIZE DUP7 DUP3 RETURNDATACOPY RETURNDATASIZE SWAP1 REVERT JUMPDEST PUSH2 0x2BE SWAP2 POP DUP3 RETURNDATASIZE DUP5 GT PUSH2 0x295 JUMPI PUSH2 0x286 DUP2 DUP4 PUSH2 0x20EA JUMP JUMPDEST CODESIZE PUSH2 0x1C1 JUMP JUMPDEST DUP1 REVERT JUMPDEST POP CALLVALUE PUSH2 0x2C4 JUMPI PUSH1 0x20 CALLDATASIZE PUSH1 0x3 NOT ADD SLT PUSH2 0x2C4 JUMPI PUSH2 0x2E1 PUSH2 0x1FC5 JUMP JUMPDEST PUSH2 0x2E9 PUSH2 0x2071 JUMP JUMPDEST PUSH1 0x1 PUSH1 0x1 PUSH1 0xA0 SHL SUB SWAP1 DUP2 AND SWAP1 DUP2 ISZERO PUSH2 0x33E JUMPI PUSH1 0x0 SLOAD DUP3 PUSH12 0xFFFFFFFFFFFFFFFFFFFFFFFF PUSH1 0xA0 SHL DUP3 AND OR PUSH1 0x0 SSTORE AND PUSH32 0x8BE0079C531659141344CD1FD0A4F28419497F9722A3DAAFE3B4186F6B6457E0 PUSH1 0x0 DUP1 LOG3 DUP1 RETURN JUMPDEST PUSH1 0x40 MLOAD PUSH4 0x1E4FBDF7 PUSH1 0xE0 SHL DUP2 MSTORE PUSH1 0x4 DUP2 ADD DUP5 SWAP1 MSTORE PUSH1 0x24 SWAP1 REVERT JUMPDEST POP CALLVALUE PUSH2 0x2C4 JUMPI DUP1 PUSH1 0x3 NOT CALLDATASIZE ADD SLT PUSH2 0x2C4 JUMPI PUSH1 0x20 PUSH1 0x1 SLOAD PUSH1 0x40 MLOAD SWAP1 DUP2 MSTORE RETURN JUMPDEST POP CALLVALUE PUSH2 0x2C4 JUMPI DUP1 PUSH1 0x3 NOT CALLDATASIZE ADD SLT PUSH2 0x2C4 JUMPI PUSH1 0x40 MLOAD PUSH32 0x0 PUSH1 0x1 PUSH1 0x1 PUSH1 0xA0 SHL SUB AND DUP2 MSTORE PUSH1 0x20 SWAP1 RETURN JUMPDEST POP CALLVALUE PUSH2 0x2C4 JUMPI DUP1 PUSH1 0x3 NOT CALLDATASIZE ADD SLT PUSH2 0x2C4 JUMPI PUSH1 0x20 PUSH1 0x40 MLOAD PUSH2 0x3E8 DUP2 MSTORE RETURN JUMPDEST POP CALLVALUE PUSH2 0x2C4 JUMPI PUSH1 0x20 CALLDATASIZE PUSH1 0x3 NOT ADD SLT PUSH2 0x2C4 JUMPI DUP1 PUSH2 0x3F2 PUSH2 0x1FC5 JUMP JUMPDEST PUSH2 0x3FA PUSH2 0x2071 JUMP JUMPDEST PUSH1 0x1 DUP1 PUSH1 0xA0 SHL SUB DUP1 SWAP2 AND SWAP1 DUP2 DUP4 MSTORE PUSH1 0x5 PUSH1 0x20 MSTORE PUSH2 0x41E PUSH1 0x40 DUP5 KECCAK256 SLOAD PUSH1 0x6 SLOAD GT PUSH2 0x246C JUMP JUMPDEST PUSH1 0x40 MLOAD PUSH4 0x222E555 PUSH1 0xE2 SHL DUP2 MSTORE PUSH1 0x20 DUP2 PUSH1 0x4 DUP2 PUSH32 0x0 DUP7 AND GAS STATICCALL SWAP1 DUP2 ISZERO PUSH2 0x29C JUMPI DUP5 SWAP2 PUSH2 0x4AE JUMPI JUMPDEST POP AND SWAP1 DUP2 EXTCODESIZE ISZERO PUSH2 0x4AA JUMPI DUP3 SWAP2 PUSH1 0x24 DUP4 SWAP3 PUSH1 0x40 MLOAD SWAP5 DUP6 SWAP4 DUP5 SWAP3 PUSH4 0x4902FD7F PUSH1 0xE1 SHL DUP5 MSTORE PUSH1 0x4 DUP5 ADD MSTORE GAS CALL DUP1 ISZERO PUSH2 0x260 JUMPI PUSH2 0x49A JUMPI POP RETURN JUMPDEST PUSH2 0x4A3 SWAP1 PUSH2 0x20C0 JUMP JUMPDEST PUSH2 0x2C4 JUMPI DUP1 RETURN JUMPDEST POP POP REVERT JUMPDEST PUSH2 0x4C6 SWAP2 POP PUSH1 0x20 RETURNDATASIZE DUP2 GT PUSH2 0x295 JUMPI PUSH2 0x286 DUP2 DUP4 PUSH2 0x20EA JUMP JUMPDEST CODESIZE PUSH2 0x464 JUMP JUMPDEST POP CALLVALUE PUSH2 0x2C4 JUMPI DUP1 PUSH1 0x3 NOT CALLDATASIZE ADD SLT PUSH2 0x2C4 JUMPI PUSH1 0x20 PUSH1 0x6 SLOAD PUSH1 0x40 MLOAD SWAP1 DUP2 MSTORE RETURN JUMPDEST POP CALLVALUE PUSH2 0x2C4 JUMPI PUSH1 0x40 CALLDATASIZE PUSH1 0x3 NOT ADD SLT PUSH2 0x2C4 JUMPI PUSH1 0x4 CALLDATALOAD PUSH8 0xFFFFFFFFFFFFFFFF DUP2 GT PUSH2 0x25C JUMPI PUSH2 0x51C SWAP1 CALLDATASIZE SWAP1 PUSH1 0x4 ADD PUSH2 0x2040 JUMP JUMPDEST SWAP1 PUSH1 0x24 SWAP1 DUP2 CALLDATALOAD PUSH1 0x1 PUSH2 0x531 DUP2 SLOAD DUP4 GT ISZERO PUSH2 0x2219 JUMP JUMPDEST DUP5 ISZERO PUSH2 0x887 JUMPI DUP6 SWAP5 DUP7 JUMPDEST DUP2 DUP2 LT PUSH2 0x619 JUMPI DUP8 DUP8 DUP8 DUP2 ISZERO PUSH2 0x5E2 JUMPI POP PUSH1 0x40 MLOAD PUSH4 0xA9059CBB PUSH1 0xE0 SHL DUP2 MSTORE CALLER PUSH1 0x4 DUP3 ADD MSTORE PUSH1 0x24 DUP2 ADD SWAP2 SWAP1 SWAP2 MSTORE PUSH1 0x20 DUP2 PUSH1 0x44 DUP2 DUP6 PUSH1 0x1 PUSH1 0x1 PUSH1 0xA0 SHL SUB PUSH32 0x0 AND GAS CALL DUP1 ISZERO PUSH2 0x260 JUMPI PUSH2 0x5B1 SWAP2 DUP4 SWAP2 PUSH2 0x5B4 JUMPI JUMPDEST POP PUSH2 0x2124 JUMP JUMPDEST DUP1 RETURN JUMPDEST PUSH2 0x5D5 SWAP2 POP PUSH1 0x20 RETURNDATASIZE DUP2 GT PUSH2 0x5DB JUMPI JUMPDEST PUSH2 0x5CD DUP2 DUP4 PUSH2 0x20EA JUMP JUMPDEST DUP2 ADD SWAP1 PUSH2 0x210C JUMP JUMPDEST DUP4 PUSH2 0x5AB JUMP JUMPDEST POP RETURNDATASIZE PUSH2 0x5C3 JUMP JUMPDEST PUSH1 0x64 SWAP1 PUSH1 0x10 PUSH1 0x40 MLOAD SWAP2 PUSH3 0x461BCD PUSH1 0xE5 SHL DUP4 MSTORE PUSH1 0x20 PUSH1 0x4 DUP5 ADD MSTORE DUP3 ADD MSTORE PUSH16 0x4E6F7468696E6720746F20636C61696D PUSH1 0x80 SHL PUSH1 0x44 DUP3 ADD MSTORE REVERT JUMPDEST PUSH2 0x627 DUP2 DUP4 DUP8 SWAP11 SWAP10 SWAP11 PUSH2 0x2430 JUMP JUMPDEST PUSH1 0x1 PUSH1 0x1 PUSH1 0xA0 SHL SUB SWAP9 SWAP1 CALLDATALOAD DUP10 DUP2 AND SWAP1 DUP2 SWAP1 SUB PUSH2 0x883 JUMPI DUP6 DUP10 MSTORE PUSH1 0x20 PUSH1 0x4 DUP2 MSTORE PUSH1 0x40 DUP11 KECCAK256 CALLER PUSH1 0x0 MSTORE DUP2 MSTORE PUSH1 0x40 PUSH1 0x0 KECCAK256 DUP3 PUSH1 0x0 MSTORE DUP2 MSTORE PUSH1 0xFF PUSH1 0x40 PUSH1 0x0 KECCAK256 SLOAD AND PUSH2 0x832 JUMPI DUP10 SWAP11 DUP8 DUP12 MSTORE PUSH1 0x2 DUP3 MSTORE PUSH1 0x40 DUP12 KECCAK256 SWAP1 PUSH1 0x40 MLOAD PUSH4 0x6FAD7E95 PUSH1 0xE1 SHL DUP2 MSTORE DUP4 DUP2 PUSH1 0x4 DUP2 DUP9 GAS STATICCALL SWAP2 DUP3 ISZERO PUSH2 0x7CF JUMPI DUP14 DUP11 SWAP3 DUP2 SWAP5 PUSH2 0x810 JUMPI JUMPDEST POP DUP1 DUP8 PUSH1 0x40 SWAP3 MSTORE PUSH1 0x5 DUP8 MSTORE KECCAK256 SLOAD SWAP3 AND SWAP3 ADD SLOAD SWAP2 PUSH1 0x40 MLOAD SWAP3 PUSH4 0xC4DB40D PUSH1 0xE3 SHL DUP5 MSTORE CALLER PUSH1 0x4 DUP6 ADD MSTORE DUP10 DUP14 DUP6 ADD MSTORE PUSH1 0x44 DUP5 ADD MSTORE DUP4 DUP4 PUSH1 0x64 DUP2 DUP5 GAS STATICCALL SWAP3 DUP4 ISZERO PUSH2 0x7CF JUMPI DUP14 SWAP4 PUSH2 0x7DA JUMPI JUMPDEST POP SWAP1 DUP4 PUSH1 0x4 SWAP4 SWAP3 PUSH1 0x40 MLOAD SWAP5 DUP6 DUP1 SWAP3 PUSH4 0x3A98EF39 PUSH1 0xE0 SHL DUP3 MSTORE GAS STATICCALL SWAP3 DUP4 ISZERO PUSH2 0x7CF JUMPI DUP14 SWAP4 PUSH2 0x787 JUMPI JUMPDEST POP SWAP3 PUSH1 0x40 PUSH2 0x74B PUSH2 0x744 DUP13 SWAP8 SWAP6 PUSH2 0x73F PUSH1 0x0 DUP1 MLOAD PUSH1 0x20 PUSH2 0x24B9 DUP4 CODECOPY DUP2 MLOAD SWAP2 MSTORE SWAP7 PUSH2 0x73A PUSH2 0x782 SWAP14 SWAP13 SWAP11 DUP13 PUSH2 0x2195 JUMP JUMPDEST PUSH2 0x2162 JUMP JUMPDEST PUSH2 0x2175 JUMP JUMPDEST DUP1 SWAP7 PUSH2 0x209D JUMP JUMPDEST SWAP14 DUP7 DUP2 MSTORE PUSH1 0x4 DUP4 MSTORE KECCAK256 CALLER PUSH1 0x0 MSTORE DUP2 MSTORE PUSH1 0x40 PUSH1 0x0 KECCAK256 DUP4 PUSH1 0x0 MSTORE DUP2 MSTORE PUSH1 0x40 PUSH1 0x0 KECCAK256 DUP10 PUSH1 0xFF NOT DUP3 SLOAD AND OR SWAP1 SSTORE PUSH1 0x40 MLOAD SWAP4 DUP5 MSTORE CALLER SWAP4 LOG4 PUSH2 0x2421 JUMP JUMPDEST PUSH2 0x53B JUMP JUMPDEST DUP5 DUP1 SWAP15 POP DUP2 SWAP7 SWAP5 POP SWAP2 SWAP8 SWAP7 SWAP5 RETURNDATASIZE DUP4 GT PUSH2 0x7C8 JUMPI JUMPDEST PUSH2 0x7A5 DUP2 DUP4 PUSH2 0x20EA JUMP JUMPDEST DUP2 ADD SUB SLT PUSH2 0x7C3 JUMPI SWAP3 MLOAD DUP13 SWAP12 SWAP5 SWAP6 SWAP3 SWAP5 SWAP2 SWAP4 SWAP2 SWAP3 SWAP1 SWAP2 SWAP1 PUSH1 0x40 PUSH2 0x70B JUMP JUMPDEST PUSH1 0x0 DUP1 REVERT JUMPDEST POP RETURNDATASIZE PUSH2 0x79B JUMP JUMPDEST PUSH1 0x40 MLOAD RETURNDATASIZE DUP16 DUP3 RETURNDATACOPY RETURNDATASIZE SWAP1 REVERT JUMPDEST DUP5 DUP1 SWAP3 SWAP4 SWAP15 POP DUP2 SWAP5 POP RETURNDATASIZE DUP4 GT PUSH2 0x809 JUMPI JUMPDEST PUSH2 0x7F5 DUP2 DUP4 PUSH2 0x20EA JUMP JUMPDEST DUP2 ADD SUB SLT PUSH2 0x7C3 JUMPI SWAP1 MLOAD DUP13 SWAP12 SWAP1 SWAP2 DUP4 PUSH2 0x6E3 JUMP JUMPDEST POP RETURNDATASIZE PUSH2 0x7EB JUMP JUMPDEST PUSH1 0x40 SWAP2 SWAP5 POP PUSH2 0x82B SWAP1 DUP8 RETURNDATASIZE DUP10 GT PUSH2 0x295 JUMPI PUSH2 0x286 DUP2 DUP4 PUSH2 0x20EA JUMP JUMPDEST SWAP4 SWAP1 PUSH2 0x69C JUMP JUMPDEST PUSH1 0x84 SWAP1 PUSH1 0x25 DUP11 PUSH1 0x40 MLOAD SWAP3 PUSH3 0x461BCD PUSH1 0xE5 SHL DUP5 MSTORE PUSH1 0x4 DUP5 ADD MSTORE DUP3 ADD MSTORE PUSH32 0x416C726561647920636C61696D656420666F7220746869732077726170706564 PUSH1 0x44 DUP3 ADD MSTORE PUSH5 0x20736F6E67 PUSH1 0xD8 SHL PUSH1 0x64 DUP3 ADD MSTORE REVERT JUMPDEST DUP9 DUP1 REVERT JUMPDEST PUSH1 0x40 MLOAD PUSH3 0x461BCD PUSH1 0xE5 SHL DUP2 MSTORE PUSH1 0x20 PUSH1 0x4 DUP3 ADD MSTORE PUSH1 0x19 DUP2 DUP7 ADD MSTORE PUSH32 0x456D707479207772617070656420736F6E677320617272617900000000000000 PUSH1 0x44 DUP3 ADD MSTORE PUSH1 0x64 SWAP1 REVERT JUMPDEST POP CALLVALUE PUSH2 0x2C4 JUMPI PUSH1 0x40 CALLDATASIZE PUSH1 0x3 NOT ADD SLT PUSH2 0x2C4 JUMPI PUSH2 0x8E5 PUSH2 0x1FC5 JUMP JUMPDEST PUSH1 0x24 CALLDATALOAD DUP1 ISZERO ISZERO DUP1 SWAP2 SUB PUSH2 0x7C3 JUMPI DUP3 SWAP2 PUSH2 0x8FC PUSH2 0x2071 JUMP JUMPDEST PUSH1 0x1 DUP1 PUSH1 0xA0 SHL SUB DUP1 SWAP2 AND SWAP1 DUP2 DUP5 MSTORE PUSH1 0x20 PUSH1 0x5 DUP2 MSTORE PUSH2 0x921 PUSH1 0x40 DUP7 KECCAK256 SLOAD PUSH1 0x6 SLOAD GT PUSH2 0x246C JUMP JUMPDEST PUSH1 0x40 MLOAD PUSH4 0x670D2969 PUSH1 0xE1 SHL DUP2 MSTORE DUP2 DUP2 PUSH1 0x4 DUP2 PUSH32 0x0 DUP8 AND GAS STATICCALL SWAP1 DUP2 ISZERO PUSH2 0xA0A JUMPI DUP4 SWAP2 DUP4 SWAP2 DUP9 SWAP2 PUSH2 0xA15 JUMPI JUMPDEST POP PUSH1 0x4 PUSH1 0x40 MLOAD DUP1 SWAP5 DUP2 SWAP4 PUSH4 0x3EAD5D11 PUSH1 0xE0 SHL DUP4 MSTORE AND GAS STATICCALL SWAP2 DUP3 ISZERO PUSH2 0xA0A JUMPI DUP7 SWAP3 PUSH2 0x9CF JUMPI JUMPDEST POP POP AND SWAP2 DUP3 EXTCODESIZE ISZERO PUSH2 0x9CA JUMPI PUSH1 0x44 DUP5 SWAP3 DUP4 PUSH1 0x40 MLOAD SWAP6 DUP7 SWAP5 DUP6 SWAP4 PUSH4 0xBE94E319 PUSH1 0xE0 SHL DUP6 MSTORE PUSH1 0x4 DUP6 ADD MSTORE PUSH1 0x24 DUP5 ADD MSTORE GAS CALL DUP1 ISZERO PUSH2 0x260 JUMPI PUSH2 0x49A JUMPI POP RETURN JUMPDEST POP POP POP REVERT JUMPDEST SWAP1 DUP1 SWAP3 POP DUP2 RETURNDATASIZE DUP4 GT PUSH2 0xA03 JUMPI JUMPDEST PUSH2 0x9E6 DUP2 DUP4 PUSH2 0x20EA JUMP JUMPDEST DUP2 ADD SUB SLT PUSH2 0x9FF JUMPI MLOAD DUP2 DUP2 AND DUP2 SUB PUSH2 0x9FF JUMPI CODESIZE DUP1 PUSH2 0x98F JUMP JUMPDEST DUP5 DUP1 REVERT JUMPDEST POP RETURNDATASIZE PUSH2 0x9DC JUMP JUMPDEST PUSH1 0x40 MLOAD RETURNDATASIZE DUP9 DUP3 RETURNDATACOPY RETURNDATASIZE SWAP1 REVERT JUMPDEST PUSH2 0xA2C SWAP2 POP DUP3 RETURNDATASIZE DUP5 GT PUSH2 0x295 JUMPI PUSH2 0x286 DUP2 DUP4 PUSH2 0x20EA JUMP JUMPDEST CODESIZE PUSH2 0x96A JUMP JUMPDEST POP CALLVALUE PUSH2 0x2C4 JUMPI PUSH1 0x40 CALLDATASIZE PUSH1 0x3 NOT ADD SLT PUSH2 0x2C4 JUMPI PUSH2 0xA4C PUSH2 0x1FC5 JUMP JUMPDEST PUSH1 0x24 CALLDATALOAD SWAP1 DUP2 DUP4 MSTORE PUSH1 0x20 SWAP1 PUSH1 0x4 DUP3 MSTORE PUSH1 0x40 DUP5 KECCAK256 CALLER PUSH1 0x0 MSTORE DUP3 MSTORE PUSH1 0x40 PUSH1 0x0 KECCAK256 SWAP1 PUSH1 0x1 DUP1 PUSH1 0xA0 SHL SUB DUP1 SWAP2 AND SWAP2 DUP3 PUSH1 0x0 MSTORE DUP4 MSTORE PUSH1 0xFF PUSH1 0x40 PUSH1 0x0 KECCAK256 SLOAD AND PUSH2 0xCA8 JUMPI PUSH2 0xA96 PUSH1 0x1 SLOAD DUP6 GT ISZERO PUSH2 0x2219 JUMP JUMPDEST DUP4 DUP6 MSTORE PUSH1 0x2 DUP4 MSTORE PUSH1 0x40 DUP1 DUP7 KECCAK256 SWAP1 MLOAD PUSH4 0x6FAD7E95 PUSH1 0xE1 SHL DUP2 MSTORE DUP5 DUP2 PUSH1 0x4 DUP2 DUP8 GAS STATICCALL SWAP1 DUP2 ISZERO PUSH2 0xC9D JUMPI DUP8 SWAP2 PUSH2 0xC80 JUMPI JUMPDEST POP DUP4 DUP8 MSTORE PUSH1 0x5 DUP6 MSTORE PUSH1 0x1 DUP4 PUSH1 0x40 DUP10 KECCAK256 SLOAD SWAP3 AND SWAP3 ADD SLOAD SWAP1 PUSH1 0x40 MLOAD SWAP2 PUSH4 0xC4DB40D PUSH1 0xE3 SHL DUP4 MSTORE CALLER PUSH1 0x4 DUP5 ADD MSTORE PUSH1 0x1 PUSH1 0x24 DUP5 ADD MSTORE PUSH1 0x44 DUP4 ADD MSTORE DUP6 DUP3 PUSH1 0x64 DUP2 DUP7 GAS STATICCALL SWAP2 DUP3 ISZERO PUSH2 0xC45 JUMPI DUP7 SWAP1 DUP10 SWAP4 PUSH2 0xC50 JUMPI JUMPDEST POP PUSH1 0x40 MLOAD PUSH4 0x3A98EF39 PUSH1 0xE0 SHL DUP2 MSTORE SWAP3 SWAP4 DUP4 SWAP1 PUSH1 0x4 SWAP1 DUP3 SWAP1 GAS STATICCALL SWAP2 DUP3 ISZERO PUSH2 0xC45 JUMPI DUP9 SWAP3 PUSH2 0xC14 JUMPI JUMPDEST POP PUSH2 0xB4B SWAP3 PUSH2 0x73A PUSH2 0x73F SWAP3 DUP10 PUSH2 0x2195 JUMP JUMPDEST DUP5 DUP7 MSTORE PUSH1 0x4 DUP1 DUP6 MSTORE PUSH1 0x40 DUP1 DUP9 KECCAK256 CALLER PUSH1 0x0 DUP2 DUP2 MSTORE SWAP2 DUP9 MSTORE DUP3 DUP3 KECCAK256 DUP8 DUP4 MSTORE DUP9 MSTORE SWAP1 DUP3 SWAP1 KECCAK256 DUP1 SLOAD PUSH1 0xFF NOT AND PUSH1 0x1 OR SWAP1 SSTORE SWAP1 MLOAD PUSH4 0xA9059CBB PUSH1 0xE0 SHL DUP2 MSTORE SWAP2 DUP3 ADD MSTORE PUSH1 0x24 DUP2 ADD DUP3 SWAP1 MSTORE SWAP1 SWAP4 SWAP1 SWAP2 DUP2 SWAP1 DUP4 SWAP1 DUP2 DUP10 DUP2 PUSH1 0x44 DUP2 ADD SUB SWAP3 PUSH32 0x0 AND GAS CALL SWAP2 DUP3 ISZERO PUSH2 0xA0A JUMPI PUSH1 0x0 DUP1 MLOAD PUSH1 0x20 PUSH2 0x24B9 DUP4 CODECOPY DUP2 MLOAD SWAP2 MSTORE SWAP3 PUSH2 0xBEB SWAP2 DUP9 SWAP2 PUSH2 0xBF7 JUMPI POP PUSH2 0x2124 JUMP JUMPDEST PUSH1 0x40 MLOAD SWAP4 DUP5 MSTORE CALLER SWAP4 LOG4 DUP1 RETURN JUMPDEST PUSH2 0xC0E SWAP2 POP DUP4 RETURNDATASIZE DUP6 GT PUSH2 0x5DB JUMPI PUSH2 0x5CD DUP2 DUP4 PUSH2 0x20EA JUMP JUMPDEST CODESIZE PUSH2 0x5AB JUMP JUMPDEST SWAP1 SWAP2 POP DUP6 DUP2 DUP2 RETURNDATASIZE DUP4 GT PUSH2 0xC3E JUMPI JUMPDEST PUSH2 0xC2C DUP2 DUP4 PUSH2 0x20EA JUMP JUMPDEST DUP2 ADD SUB SLT PUSH2 0x7C3 JUMPI MLOAD SWAP1 PUSH2 0xB4B PUSH2 0xB39 JUMP JUMPDEST POP RETURNDATASIZE PUSH2 0xC22 JUMP JUMPDEST PUSH1 0x40 MLOAD RETURNDATASIZE DUP11 DUP3 RETURNDATACOPY RETURNDATASIZE SWAP1 REVERT JUMPDEST DUP1 SWAP4 POP DUP2 RETURNDATASIZE DUP4 GT PUSH2 0xC79 JUMPI JUMPDEST PUSH2 0xC66 DUP2 DUP4 PUSH2 0x20EA JUMP JUMPDEST DUP2 ADD SUB SLT PUSH2 0x7C3 JUMPI DUP6 PUSH1 0x4 SWAP3 MLOAD SWAP3 PUSH2 0xB12 JUMP JUMPDEST POP RETURNDATASIZE PUSH2 0xC5C JUMP JUMPDEST PUSH2 0xC97 SWAP2 POP DUP6 RETURNDATASIZE DUP8 GT PUSH2 0x295 JUMPI PUSH2 0x286 DUP2 DUP4 PUSH2 0x20EA JUMP JUMPDEST CODESIZE PUSH2 0xAC4 JUMP JUMPDEST PUSH1 0x40 MLOAD RETURNDATASIZE DUP10 DUP3 RETURNDATACOPY RETURNDATASIZE SWAP1 REVERT JUMPDEST PUSH1 0x40 MLOAD PUSH3 0x461BCD PUSH1 0xE5 SHL DUP2 MSTORE PUSH1 0x4 DUP2 ADD DUP5 SWAP1 MSTORE PUSH1 0xF PUSH1 0x24 DUP3 ADD MSTORE PUSH15 0x105B1C9958591E4818DB185A5B5959 PUSH1 0x8A SHL PUSH1 0x44 DUP3 ADD MSTORE PUSH1 0x64 SWAP1 REVERT JUMPDEST POP CALLVALUE PUSH2 0x2C4 JUMPI PUSH1 0x20 CALLDATASIZE PUSH1 0x3 NOT ADD SLT PUSH2 0x2C4 JUMPI PUSH1 0x20 SWAP1 PUSH1 0x40 SWAP1 PUSH1 0x1 PUSH1 0x1 PUSH1 0xA0 SHL SUB PUSH2 0xD07 PUSH2 0x1FC5 JUMP JUMPDEST AND DUP2 MSTORE PUSH1 0x5 DUP4 MSTORE KECCAK256 SLOAD PUSH1 0x40 MLOAD SWAP1 DUP2 MSTORE RETURN JUMPDEST POP CALLVALUE PUSH2 0x2C4 JUMPI PUSH1 0x20 DUP1 PUSH1 0x3 NOT CALLDATASIZE ADD SLT PUSH2 0x25C JUMPI PUSH2 0xD33 PUSH2 0x1FC5 JUMP JUMPDEST SWAP1 PUSH2 0xD3C PUSH2 0x2071 JUMP JUMPDEST PUSH1 0x40 MLOAD PUSH4 0x670D2969 PUSH1 0xE1 SHL DUP2 MSTORE PUSH1 0x1 PUSH1 0x1 PUSH1 0xA0 SHL SUB SWAP1 DUP3 DUP2 PUSH1 0x4 DUP2 PUSH32 0x0 DUP7 AND GAS STATICCALL SWAP1 DUP2 ISZERO PUSH2 0xF55 JUMPI DUP3 SWAP2 DUP5 SWAP2 DUP8 SWAP2 PUSH2 0xF60 JUMPI JUMPDEST POP PUSH1 0x4 PUSH1 0x40 MLOAD DUP1 SWAP5 DUP2 SWAP4 PUSH4 0x65BB98B5 PUSH1 0xE0 SHL DUP4 MSTORE AND GAS STATICCALL DUP1 ISZERO PUSH2 0xF55 JUMPI DUP3 SWAP2 DUP7 SWAP2 PUSH2 0xF38 JUMPI JUMPDEST POP AND DUP2 PUSH1 0x40 MLOAD SWAP5 PUSH4 0x63DF2F15 PUSH1 0xE1 SHL DUP7 MSTORE AND SWAP4 DUP5 PUSH1 0x4 DUP3 ADD MSTORE DUP4 DUP2 PUSH1 0x24 DUP2 DUP6 GAS STATICCALL SWAP1 DUP2 ISZERO PUSH2 0xA0A JUMPI DUP7 SWAP2 PUSH2 0xF1B JUMPI JUMPDEST POP DUP3 ADDRESS SWAP2 AND SUB PUSH2 0xED6 JUMPI DUP1 DUP6 SWAP2 EXTCODESIZE ISZERO PUSH2 0x25C JUMPI DUP2 DUP1 SWAP2 PUSH1 0x24 PUSH1 0x40 MLOAD DUP1 SWAP5 DUP2 SWAP4 PUSH4 0xB0C70E27 PUSH1 0xE0 SHL DUP4 MSTORE DUP11 PUSH1 0x4 DUP5 ADD MSTORE GAS CALL DUP1 ISZERO PUSH2 0x260 JUMPI PUSH2 0xEBE JUMPI JUMPDEST POP POP PUSH1 0x6 SLOAD PUSH1 0x1 PUSH1 0x40 SHL DUP2 LT ISZERO PUSH2 0xEAA JUMPI DUP1 PUSH1 0x1 PUSH2 0xE40 SWAP3 ADD PUSH1 0x6 SSTORE PUSH2 0x1FDB JUMP JUMPDEST DUP2 SWAP3 SWAP2 SLOAD SWAP1 PUSH1 0x3 SHL SWAP2 DUP6 DUP4 SHL SWAP3 SHL NOT AND OR SWAP1 SSTORE PUSH1 0x6 SLOAD SWAP1 PUSH1 0x0 NOT DUP3 ADD SWAP2 DUP3 GT PUSH2 0xE96 JUMPI PUSH1 0x5 SWAP1 DUP4 DUP6 MSTORE MSTORE PUSH1 0x40 DUP4 KECCAK256 SSTORE PUSH32 0xE1649799FD93D14E82CCAB2710A96C6B05AF2496C30F0C9401E159F568813EFD DUP3 DUP1 LOG2 DUP1 RETURN JUMPDEST PUSH4 0x4E487B71 PUSH1 0xE0 SHL DUP5 MSTORE PUSH1 0x11 PUSH1 0x4 MSTORE PUSH1 0x24 DUP5 REVERT JUMPDEST PUSH4 0x4E487B71 PUSH1 0xE0 SHL DUP6 MSTORE PUSH1 0x41 PUSH1 0x4 MSTORE PUSH1 0x24 DUP6 REVERT JUMPDEST PUSH2 0xEC7 SWAP1 PUSH2 0x20C0 JUMP JUMPDEST PUSH2 0xED2 JUMPI DUP4 CODESIZE PUSH2 0xE1F JUMP JUMPDEST DUP4 DUP1 REVERT JUMPDEST PUSH1 0x40 MLOAD PUSH3 0x461BCD PUSH1 0xE5 SHL DUP2 MSTORE PUSH1 0x4 DUP2 ADD DUP5 SWAP1 MSTORE PUSH1 0x1B PUSH1 0x24 DUP3 ADD MSTORE PUSH32 0x4E6F74207468652070656E64696E67206469737472696275746F720000000000 PUSH1 0x44 DUP3 ADD MSTORE PUSH1 0x64 SWAP1 REVERT JUMPDEST PUSH2 0xF32 SWAP2 POP DUP5 RETURNDATASIZE DUP7 GT PUSH2 0x295 JUMPI PUSH2 0x286 DUP2 DUP4 PUSH2 0x20EA JUMP JUMPDEST CODESIZE PUSH2 0xDE3 JUMP JUMPDEST PUSH2 0xF4F SWAP2 POP DUP5 RETURNDATASIZE DUP7 GT PUSH2 0x295 JUMPI PUSH2 0x286 DUP2 DUP4 PUSH2 0x20EA JUMP JUMPDEST CODESIZE PUSH2 0xDB4 JUMP JUMPDEST PUSH1 0x40 MLOAD RETURNDATASIZE DUP8 DUP3 RETURNDATACOPY RETURNDATASIZE SWAP1 REVERT JUMPDEST PUSH2 0xF77 SWAP2 POP DUP3 RETURNDATASIZE DUP5 GT PUSH2 0x295 JUMPI PUSH2 0x286 DUP2 DUP4 PUSH2 0x20EA JUMP JUMPDEST CODESIZE PUSH2 0xD8E JUMP JUMPDEST POP CALLVALUE PUSH2 0x2C4 JUMPI PUSH1 0x60 CALLDATASIZE PUSH1 0x3 NOT ADD SLT PUSH2 0x2C4 JUMPI PUSH2 0xF97 PUSH2 0x1FC5 JUMP JUMPDEST SWAP1 PUSH2 0xFA0 PUSH2 0x1FAF JUMP JUMPDEST SWAP2 PUSH1 0x44 CALLDATALOAD PUSH8 0xFFFFFFFFFFFFFFFF DUP2 GT PUSH2 0x26B JUMPI PUSH2 0xFC1 SWAP1 CALLDATASIZE SWAP1 PUSH1 0x4 ADD PUSH2 0x2040 JUMP JUMPDEST PUSH1 0x40 MLOAD PUSH4 0x6FAD7E95 PUSH1 0xE1 SHL DUP2 MSTORE SWAP1 SWAP5 SWAP1 SWAP3 SWAP1 SWAP2 PUSH1 0x1 PUSH1 0x1 PUSH1 0xA0 SHL SUB SWAP1 PUSH1 0x20 DUP6 PUSH1 0x4 DUP2 DUP6 DUP8 AND GAS STATICCALL SWAP5 DUP6 ISZERO PUSH2 0xA0A JUMPI DUP7 SWAP6 PUSH2 0x121A JUMPI JUMPDEST POP DUP2 DUP4 AND DUP7 MSTORE PUSH1 0x5 PUSH1 0x20 MSTORE PUSH1 0x40 DUP7 KECCAK256 SLOAD SWAP2 PUSH1 0x40 MLOAD SWAP5 PUSH4 0x3A98EF39 PUSH1 0xE0 SHL DUP7 MSTORE PUSH1 0x20 DUP7 PUSH1 0x4 DUP2 DUP6 DUP12 AND GAS STATICCALL SWAP6 DUP7 ISZERO PUSH2 0xC45 JUMPI DUP9 SWAP7 PUSH2 0x11E6 JUMPI JUMPDEST POP PUSH2 0x103D DUP10 SWAP8 SWAP10 SWAP6 SWAP4 SWAP6 PUSH2 0x2440 JUMP JUMPDEST SWAP9 PUSH2 0x104B PUSH1 0x40 MLOAD SWAP11 DUP12 PUSH2 0x20EA JUMP JUMPDEST DUP8 DUP11 MSTORE PUSH1 0x1F NOT PUSH2 0x105A DUP10 PUSH2 0x2440 JUMP JUMPDEST ADD CALLDATASIZE PUSH1 0x20 DUP13 ADD CALLDATACOPY DUP9 SWAP4 PUSH1 0x1 SWAP9 DUP10 SLOAD SWAP6 JUMPDEST DUP2 DUP2 LT PUSH2 0x10B1 JUMPI DUP13 DUP13 DUP13 PUSH1 0x40 MLOAD SWAP2 PUSH1 0x20 DUP4 ADD PUSH1 0x20 DUP5 MSTORE DUP5 MLOAD DUP1 SWAP2 MSTORE PUSH1 0x20 PUSH1 0x40 DUP6 ADD SWAP6 ADD SWAP2 JUMPDEST DUP2 DUP2 LT PUSH2 0x109C JUMPI DUP5 DUP7 SUB DUP6 RETURN JUMPDEST DUP3 MLOAD DUP7 MSTORE PUSH1 0x20 SWAP6 DUP7 ADD SWAP6 SWAP1 SWAP3 ADD SWAP2 DUP4 ADD PUSH2 0x108F JUMP JUMPDEST DUP11 PUSH2 0x10C0 DUP3 SWAP13 SWAP15 SWAP13 DUP5 DUP13 PUSH2 0x2430 JUMP JUMPDEST CALLDATALOAD DUP14 DUP14 DUP11 DUP4 GT DUP1 ISZERO PUSH2 0x11B1 JUMPI JUMPDEST PUSH2 0x119E JUMPI POP PUSH1 0x40 DUP2 DUP4 DUP6 SWAP4 MSTORE PUSH1 0x2 PUSH1 0x20 MSTORE KECCAK256 ADD SLOAD PUSH1 0x40 MLOAD SWAP3 PUSH4 0xC4DB40D PUSH1 0xE3 SHL DUP5 MSTORE DUP10 DUP10 AND PUSH1 0x4 DUP6 ADD MSTORE PUSH1 0x24 DUP5 ADD MSTORE PUSH1 0x44 DUP4 ADD MSTORE PUSH1 0x20 DUP3 PUSH1 0x64 DUP2 DUP12 DUP11 AND GAS STATICCALL SWAP2 DUP3 ISZERO PUSH2 0x1191 JUMPI SWAP2 DUP11 DUP16 SWAP3 DUP16 SWAP4 SWAP5 DUP16 SWAP7 SWAP6 SWAP4 PUSH2 0x1151 JUMPI JUMPDEST POP PUSH2 0x1149 SWAP6 PUSH2 0x73F PUSH2 0x1143 SWAP5 PUSH2 0x73A DUP9 SWAP6 PUSH2 0x113D SWAP6 PUSH2 0x2195 JUMP JUMPDEST SWAP3 PUSH2 0x2458 JUMP JUMPDEST MSTORE PUSH2 0x2421 JUMP JUMPDEST SWAP12 SWAP10 SWAP12 PUSH2 0x106A JUMP JUMPDEST SWAP6 POP SWAP3 POP POP POP PUSH1 0x20 DUP4 RETURNDATASIZE PUSH1 0x20 GT PUSH2 0x1189 JUMPI JUMPDEST DUP2 PUSH2 0x1170 PUSH1 0x20 SWAP4 DUP4 PUSH2 0x20EA JUMP JUMPDEST DUP2 ADD SUB SLT PUSH2 0x7C3 JUMPI SWAP2 MLOAD DUP12 SWAP3 DUP14 SWAP2 SWAP1 DUP12 SWAP1 PUSH2 0x1149 PUSH2 0x1123 JUMP JUMPDEST RETURNDATASIZE SWAP2 POP PUSH2 0x1163 JUMP JUMPDEST DUP15 PUSH1 0x40 MLOAD SWAP1 RETURNDATASIZE SWAP1 DUP3 RETURNDATACOPY RETURNDATASIZE SWAP1 REVERT JUMPDEST DUP5 SWAP4 POP PUSH2 0x1143 SWAP2 SWAP3 POP SWAP4 PUSH2 0x1149 SWAP5 PUSH2 0x2458 JUMP JUMPDEST POP POP DUP1 DUP3 PUSH1 0x40 SWAP3 MSTORE PUSH1 0x4 PUSH1 0x20 MSTORE KECCAK256 DUP9 DUP9 AND PUSH1 0x0 MSTORE PUSH1 0x20 MSTORE PUSH1 0x40 PUSH1 0x0 KECCAK256 DUP9 DUP7 AND PUSH1 0x0 MSTORE PUSH1 0x20 MSTORE DUP14 DUP14 PUSH1 0xFF PUSH1 0x40 PUSH1 0x0 KECCAK256 SLOAD AND PUSH2 0x10CD JUMP JUMPDEST SWAP1 SWAP6 POP PUSH1 0x20 DUP2 RETURNDATASIZE PUSH1 0x20 GT PUSH2 0x1212 JUMPI JUMPDEST DUP2 PUSH2 0x1202 PUSH1 0x20 SWAP4 DUP4 PUSH2 0x20EA JUMP JUMPDEST DUP2 ADD SUB SLT PUSH2 0x7C3 JUMPI MLOAD SWAP5 CODESIZE PUSH2 0x102E JUMP JUMPDEST RETURNDATASIZE SWAP2 POP PUSH2 0x11F5 JUMP JUMPDEST PUSH2 0x1234 SWAP2 SWAP6 POP PUSH1 0x20 RETURNDATASIZE PUSH1 0x20 GT PUSH2 0x295 JUMPI PUSH2 0x286 DUP2 DUP4 PUSH2 0x20EA JUMP JUMPDEST SWAP4 CODESIZE PUSH2 0xFF6 JUMP JUMPDEST POP CALLVALUE PUSH2 0x2C4 JUMPI PUSH1 0x40 CALLDATASIZE PUSH1 0x3 NOT ADD SLT PUSH2 0x2C4 JUMPI PUSH2 0x1255 PUSH2 0x1FC5 JUMP JUMPDEST PUSH1 0x24 CALLDATALOAD PUSH8 0xFFFFFFFFFFFFFFFF DUP2 GT PUSH2 0x26B JUMPI PUSH2 0x1275 SWAP1 CALLDATASIZE SWAP1 PUSH1 0x4 ADD PUSH2 0x2040 JUMP JUMPDEST SWAP2 SWAP1 DUP3 ISZERO PUSH2 0x15B1 JUMPI PUSH1 0x40 MLOAD PUSH4 0x6FAD7E95 PUSH1 0xE1 SHL DUP2 MSTORE SWAP2 PUSH1 0x20 DUP4 PUSH1 0x4 DUP2 PUSH1 0x1 PUSH1 0x1 PUSH1 0xA0 SHL SUB DUP6 AND GAS STATICCALL SWAP3 DUP4 ISZERO PUSH2 0xF55 JUMPI DUP6 SWAP4 PUSH2 0x1590 JUMPI JUMPDEST POP PUSH1 0x1 DUP1 PUSH1 0xA0 SHL SUB DUP2 AND DUP6 MSTORE PUSH1 0x5 PUSH1 0x20 MSTORE PUSH1 0x40 DUP6 KECCAK256 SLOAD SWAP1 PUSH1 0x40 MLOAD PUSH4 0x3A98EF39 PUSH1 0xE0 SHL DUP2 MSTORE PUSH1 0x20 DUP2 PUSH1 0x4 DUP2 PUSH1 0x1 DUP1 PUSH1 0xA0 SHL SUB DUP10 AND GAS STATICCALL SWAP1 DUP2 ISZERO PUSH2 0xC9D JUMPI DUP8 SWAP2 PUSH2 0x155E JUMPI JUMPDEST POP DUP7 SWAP6 DUP8 JUMPDEST DUP2 DUP2 LT PUSH2 0x1382 JUMPI DUP9 DUP9 DUP1 PUSH2 0x1305 JUMPI POP DUP1 RETURN JUMPDEST PUSH1 0x40 MLOAD PUSH4 0xA9059CBB PUSH1 0xE0 SHL DUP2 MSTORE CALLER PUSH1 0x4 DUP3 ADD MSTORE PUSH1 0x24 DUP2 ADD SWAP2 SWAP1 SWAP2 MSTORE PUSH1 0x20 DUP2 PUSH1 0x44 DUP2 DUP6 PUSH1 0x1 PUSH1 0x1 PUSH1 0xA0 SHL SUB PUSH32 0x0 AND GAS CALL DUP1 ISZERO PUSH2 0x260 JUMPI PUSH2 0x5B1 SWAP2 DUP4 SWAP2 PUSH2 0x1369 JUMPI POP PUSH2 0x2124 JUMP JUMPDEST PUSH2 0x5D5 SWAP2 POP PUSH1 0x20 RETURNDATASIZE PUSH1 0x20 GT PUSH2 0x5DB JUMPI PUSH2 0x5CD DUP2 DUP4 PUSH2 0x20EA JUMP JUMPDEST PUSH2 0x138D DUP2 DUP4 DUP9 PUSH2 0x2430 JUMP JUMPDEST CALLDATALOAD SWAP1 PUSH2 0x139D PUSH1 0x1 SLOAD DUP4 GT ISZERO PUSH2 0x2219 JUMP JUMPDEST DUP2 DUP11 MSTORE PUSH1 0x4 PUSH1 0x20 MSTORE PUSH1 0x40 DUP11 KECCAK256 CALLER PUSH1 0x0 MSTORE PUSH1 0x20 MSTORE PUSH1 0x40 PUSH1 0x0 KECCAK256 PUSH1 0x1 DUP1 PUSH1 0xA0 SHL SUB DUP7 AND PUSH1 0x0 MSTORE PUSH1 0x20 MSTORE PUSH1 0xFF PUSH1 0x40 PUSH1 0x0 KECCAK256 SLOAD AND PUSH2 0x1521 JUMPI DUP2 DUP11 MSTORE PUSH1 0x2 PUSH1 0x20 MSTORE PUSH1 0x1 PUSH1 0x40 DUP12 KECCAK256 ADD SLOAD SWAP2 PUSH1 0x40 MLOAD SWAP3 PUSH4 0xC4DB40D PUSH1 0xE3 SHL DUP5 MSTORE CALLER PUSH1 0x4 DUP6 ADD MSTORE PUSH1 0x1 PUSH1 0x24 DUP6 ADD MSTORE PUSH1 0x44 DUP5 ADD MSTORE PUSH1 0x20 DUP4 PUSH1 0x64 DUP2 PUSH1 0x1 DUP1 PUSH1 0xA0 SHL SUB DUP14 AND GAS STATICCALL DUP1 ISZERO PUSH2 0x1516 JUMPI DUP6 SWAP1 DUP13 SWAP1 PUSH2 0x14E0 JUMPI JUMPDEST PUSH2 0x14AD SWAP5 POP DUP3 DUP14 MSTORE PUSH1 0x4 PUSH1 0x20 MSTORE PUSH1 0x40 DUP14 KECCAK256 CALLER PUSH1 0x0 MSTORE PUSH1 0x20 MSTORE PUSH1 0x40 PUSH1 0x0 KECCAK256 PUSH1 0x1 DUP1 PUSH1 0xA0 SHL SUB DUP10 AND PUSH1 0x0 MSTORE PUSH1 0x20 MSTORE PUSH1 0x40 PUSH1 0x0 KECCAK256 PUSH1 0x1 PUSH1 0xFF NOT DUP3 SLOAD AND OR SWAP1 SSTORE DUP1 ISZERO PUSH2 0x14B2 JUMPI PUSH2 0x1480 SWAP2 PUSH2 0x73F PUSH2 0x1479 SWAP3 PUSH2 0x73A DUP13 DUP8 PUSH2 0x2195 JUMP JUMPDEST DUP1 SWAP12 PUSH2 0x209D JUMP JUMPDEST PUSH1 0x40 MLOAD SWAP11 DUP12 MSTORE SWAP10 CALLER SWAP1 PUSH1 0x1 PUSH1 0x1 PUSH1 0xA0 SHL SUB DUP9 AND SWAP1 PUSH1 0x0 DUP1 MLOAD PUSH1 0x20 PUSH2 0x24B9 DUP4 CODECOPY DUP2 MLOAD SWAP2 MSTORE SWAP1 PUSH1 0x20 SWAP1 LOG4 PUSH2 0x2421 JUMP JUMPDEST PUSH2 0x12F3 JUMP JUMPDEST POP POP PUSH1 0x40 MLOAD DUP12 DUP2 MSTORE CALLER SWAP1 PUSH1 0x1 PUSH1 0x1 PUSH1 0xA0 SHL SUB DUP9 AND SWAP1 PUSH1 0x0 DUP1 MLOAD PUSH1 0x20 PUSH2 0x24B9 DUP4 CODECOPY DUP2 MLOAD SWAP2 MSTORE SWAP1 PUSH1 0x20 SWAP1 LOG4 PUSH2 0x2421 JUMP JUMPDEST POP POP PUSH1 0x20 DUP4 RETURNDATASIZE PUSH1 0x20 GT PUSH2 0x150E JUMPI JUMPDEST DUP2 PUSH2 0x14FB PUSH1 0x20 SWAP4 DUP4 PUSH2 0x20EA JUMP JUMPDEST DUP2 ADD SUB SLT PUSH2 0x7C3 JUMPI DUP5 PUSH2 0x14AD SWAP4 MLOAD PUSH2 0x1422 JUMP JUMPDEST RETURNDATASIZE SWAP2 POP PUSH2 0x14EE JUMP JUMPDEST PUSH1 0x40 MLOAD RETURNDATASIZE DUP14 DUP3 RETURNDATACOPY RETURNDATASIZE SWAP1 REVERT JUMPDEST PUSH1 0x40 MLOAD PUSH3 0x461BCD PUSH1 0xE5 SHL DUP2 MSTORE PUSH1 0x20 PUSH1 0x4 DUP3 ADD MSTORE PUSH1 0x15 PUSH1 0x24 DUP3 ADD MSTORE PUSH21 0x115C1BD8DA08185B1C9958591E4818DB185A5B5959 PUSH1 0x5A SHL PUSH1 0x44 DUP3 ADD MSTORE PUSH1 0x64 SWAP1 REVERT JUMPDEST SWAP1 POP PUSH1 0x20 DUP2 RETURNDATASIZE PUSH1 0x20 GT PUSH2 0x1588 JUMPI JUMPDEST DUP2 PUSH2 0x1579 PUSH1 0x20 SWAP4 DUP4 PUSH2 0x20EA JUMP JUMPDEST DUP2 ADD SUB SLT PUSH2 0x7C3 JUMPI MLOAD CODESIZE PUSH2 0x12EE JUMP JUMPDEST RETURNDATASIZE SWAP2 POP PUSH2 0x156C JUMP JUMPDEST PUSH2 0x15AA SWAP2 SWAP4 POP PUSH1 0x20 RETURNDATASIZE PUSH1 0x20 GT PUSH2 0x295 JUMPI PUSH2 0x286 DUP2 DUP4 PUSH2 0x20EA JUMP JUMPDEST SWAP2 CODESIZE PUSH2 0x12AB JUMP JUMPDEST PUSH1 0x40 MLOAD PUSH3 0x461BCD PUSH1 0xE5 SHL DUP2 MSTORE PUSH1 0x20 PUSH1 0x4 DUP3 ADD MSTORE PUSH1 0x12 PUSH1 0x24 DUP3 ADD MSTORE PUSH18 0x456D7074792065706F636873206172726179 PUSH1 0x70 SHL PUSH1 0x44 DUP3 ADD MSTORE PUSH1 0x64 SWAP1 REVERT JUMPDEST POP CALLVALUE PUSH2 0x2C4 JUMPI DUP1 PUSH1 0x3 NOT CALLDATASIZE ADD SLT PUSH2 0x2C4 JUMPI SLOAD PUSH1 0x40 MLOAD PUSH1 0x1 PUSH1 0x1 PUSH1 0xA0 SHL SUB SWAP1 SWAP2 AND DUP2 MSTORE PUSH1 0x20 SWAP1 RETURN JUMPDEST POP CALLVALUE PUSH2 0x2C4 JUMPI PUSH1 0xC0 CALLDATASIZE PUSH1 0x3 NOT ADD SLT PUSH2 0x2C4 JUMPI PUSH1 0x24 DUP1 CALLDATALOAD SWAP1 PUSH1 0x4 CALLDATALOAD SWAP1 PUSH8 0xFFFFFFFFFFFFFFFF SWAP1 PUSH1 0x44 CALLDATALOAD DUP3 DUP2 GT PUSH2 0x1993 JUMPI PUSH2 0x164F SWAP1 CALLDATASIZE SWAP1 PUSH1 0x4 ADD PUSH2 0x2040 JUMP JUMPDEST SWAP2 SWAP1 SWAP3 PUSH1 0x64 CALLDATALOAD SWAP2 PUSH1 0x84 CALLDATALOAD SWAP2 DUP3 ISZERO ISZERO DUP4 SUB PUSH2 0x7C3 JUMPI PUSH1 0xA4 CALLDATALOAD SWAP1 DUP2 ISZERO ISZERO DUP3 SUB PUSH2 0x7C3 JUMPI PUSH2 0x1678 PUSH2 0x2071 JUMP JUMPDEST PUSH2 0x3E8 DUP7 GT PUSH2 0x195D JUMPI PUSH1 0x1 SWAP4 DUP5 SLOAD DUP6 DUP2 ADD DUP1 SWAP2 GT PUSH2 0x194A JUMPI DUP10 SUB PUSH2 0x1913 JUMPI PUSH2 0x17F8 JUMPI JUMPDEST DUP8 DUP11 MSTORE PUSH1 0x20 SWAP7 PUSH1 0x3 DUP9 MSTORE PUSH1 0x40 DUP12 KECCAK256 DUP11 DUP13 MSTORE DUP9 MSTORE PUSH1 0x40 DUP12 KECCAK256 SWAP2 DUP8 GT PUSH2 0x17E5 JUMPI PUSH1 0x1 PUSH1 0x40 SHL DUP8 GT PUSH2 0x17E5 JUMPI DUP2 SLOAD DUP8 DUP4 SSTORE DUP1 DUP9 LT PUSH2 0x17BE JUMPI JUMPDEST POP SWAP1 DUP11 MSTORE DUP7 DUP11 KECCAK256 SWAP1 DUP5 DUP12 JUMPDEST DUP9 DUP2 LT PUSH2 0x17AC JUMPI POP POP POP POP PUSH2 0x171C JUMPI JUMPDEST POP POP POP SWAP1 PUSH32 0xAB2993BD1558CF55C0837B08905EDAC8717B4326267B02C82685343114526198 SWAP2 PUSH1 0x40 MLOAD SWAP1 DUP2 MSTORE LOG3 DUP1 RETURN JUMPDEST DUP2 DUP8 ADD SWAP1 DUP2 DUP9 GT PUSH2 0x179A JUMPI POP SWAP2 DUP6 DUP1 SWAP3 PUSH32 0xAB2993BD1558CF55C0837B08905EDAC8717B4326267B02C82685343114526198 SWAP7 SWAP6 SWAP5 DUP3 DUP12 MSTORE PUSH1 0x2 DUP8 MSTORE PUSH1 0x2 PUSH1 0x40 DUP13 KECCAK256 ADD SSTORE SSTORE PUSH1 0x40 MLOAD SWAP1 DUP2 MSTORE TIMESTAMP DUP5 DUP3 ADD MSTORE PUSH32 0xB52BE436C4D2A5BC18728D4F052344D91ED904F58693186DF6726A84F7B3C9A8 PUSH1 0x40 ADDRESS SWAP3 LOG3 SWAP1 SWAP2 CODESIZE DUP1 PUSH2 0x16EC JUMP JUMPDEST PUSH4 0x4E487B71 PUSH1 0xE0 SHL DUP10 MSTORE PUSH1 0x11 PUSH1 0x4 MSTORE DUP9 REVERT JUMPDEST DUP10 DUP4 CALLDATALOAD SWAP4 ADD SWAP3 DUP2 DUP6 ADD SSTORE ADD DUP6 SWAP1 PUSH2 0x16DC JUMP JUMPDEST DUP6 DUP9 DUP11 DUP15 DUP7 DUP2 MSTORE KECCAK256 SWAP3 DUP4 ADD SWAP3 ADD JUMPDEST DUP3 DUP2 LT PUSH2 0x17DA JUMPI POP POP PUSH2 0x16D1 JUMP JUMPDEST DUP14 DUP2 SSTORE ADD DUP7 SWAP1 PUSH2 0x17CC JUMP JUMPDEST PUSH4 0x4E487B71 PUSH1 0xE0 SHL DUP12 MSTORE PUSH1 0x41 PUSH1 0x4 MSTORE DUP4 DUP12 REVERT JUMPDEST DUP5 ISZERO PUSH2 0x18D8 JUMPI PUSH1 0x40 MLOAD PUSH4 0x23B872DD PUSH1 0xE0 SHL DUP2 MSTORE CALLER PUSH1 0x4 DUP3 ADD MSTORE ADDRESS DUP5 DUP3 ADD MSTORE PUSH1 0x44 DUP2 ADD DUP7 SWAP1 MSTORE PUSH1 0x20 DUP2 PUSH1 0x64 DUP2 DUP15 PUSH32 0x0 PUSH1 0x1 PUSH1 0x1 PUSH1 0xA0 SHL SUB AND GAS CALL DUP1 ISZERO PUSH2 0x1516 JUMPI PUSH2 0x1866 SWAP2 DUP13 SWAP2 PUSH2 0x18C0 JUMPI POP PUSH2 0x2124 JUMP JUMPDEST PUSH1 0x40 MLOAD PUSH1 0x60 DUP2 ADD DUP2 DUP2 LT DUP4 DUP3 GT OR PUSH2 0x18AB JUMPI PUSH1 0x40 MSTORE DUP6 DUP2 MSTORE PUSH1 0x2 DUP12 PUSH1 0x20 DUP4 ADD TIMESTAMP DUP2 MSTORE PUSH1 0x40 DUP1 DUP6 ADD SWAP3 DUP1 DUP5 MSTORE DUP14 DUP2 MSTORE DUP5 PUSH1 0x20 MSTORE KECCAK256 SWAP4 MLOAD DUP5 SSTORE MLOAD DUP8 DUP5 ADD SSTORE MLOAD SWAP2 ADD SSTORE PUSH2 0x169B JUMP JUMPDEST DUP5 PUSH4 0x4E487B71 PUSH1 0xE0 SHL PUSH1 0x0 MSTORE PUSH1 0x41 PUSH1 0x4 MSTORE PUSH1 0x0 REVERT JUMPDEST PUSH2 0xC0E SWAP2 POP PUSH1 0x20 RETURNDATASIZE DUP2 GT PUSH2 0x5DB JUMPI PUSH2 0x5CD DUP2 DUP4 PUSH2 0x20EA JUMP JUMPDEST PUSH1 0x40 MLOAD PUSH3 0x461BCD PUSH1 0xE5 SHL DUP2 MSTORE PUSH1 0x20 PUSH1 0x4 DUP3 ADD MSTORE PUSH1 0x14 DUP2 DUP6 ADD MSTORE PUSH20 0x125B9D985B1A59081D1BDD185B08185B5BDD5B9D PUSH1 0x62 SHL PUSH1 0x44 DUP3 ADD MSTORE PUSH1 0x64 SWAP1 REVERT JUMPDEST PUSH1 0x40 MLOAD PUSH3 0x461BCD PUSH1 0xE5 SHL DUP2 MSTORE PUSH1 0x20 PUSH1 0x4 DUP3 ADD MSTORE PUSH1 0x10 DUP2 DUP7 ADD MSTORE PUSH16 0x125B9D985B1A5908195C1BD8DA081A59 PUSH1 0x82 SHL PUSH1 0x44 DUP3 ADD MSTORE PUSH1 0x64 SWAP1 REVERT JUMPDEST PUSH4 0x4E487B71 PUSH1 0xE0 SHL DUP13 MSTORE PUSH1 0x11 PUSH1 0x4 MSTORE DUP5 DUP13 REVERT JUMPDEST PUSH1 0x40 MLOAD PUSH3 0x461BCD PUSH1 0xE5 SHL DUP2 MSTORE PUSH1 0x20 PUSH1 0x4 DUP3 ADD MSTORE PUSH1 0xF DUP2 DUP6 ADD MSTORE PUSH15 0x4368756E6B20746F6F206C61726765 PUSH1 0x88 SHL PUSH1 0x44 DUP3 ADD MSTORE PUSH1 0x64 SWAP1 REVERT JUMPDEST DUP6 DUP1 REVERT JUMPDEST POP CALLVALUE PUSH2 0x2C4 JUMPI DUP1 PUSH1 0x3 NOT CALLDATASIZE ADD SLT PUSH2 0x2C4 JUMPI PUSH2 0x19B0 PUSH2 0x2071 JUMP JUMPDEST PUSH1 0x0 DUP1 SLOAD PUSH1 0x1 PUSH1 0x1 PUSH1 0xA0 SHL SUB NOT DUP2 AND DUP3 SSTORE PUSH1 0x1 PUSH1 0x1 PUSH1 0xA0 SHL SUB AND PUSH32 0x8BE0079C531659141344CD1FD0A4F28419497F9722A3DAAFE3B4186F6B6457E0 DUP3 DUP1 LOG3 DUP1 RETURN JUMPDEST POP CALLVALUE PUSH2 0x2C4 JUMPI PUSH1 0x40 CALLDATASIZE PUSH1 0x3 NOT ADD SLT PUSH2 0x2C4 JUMPI PUSH1 0x20 PUSH2 0x1A13 PUSH1 0x24 CALLDATALOAD PUSH1 0x4 CALLDATALOAD PUSH2 0x2195 JUMP JUMPDEST PUSH1 0x40 MLOAD SWAP1 DUP2 MSTORE RETURN JUMPDEST POP CALLVALUE PUSH2 0x2C4 JUMPI DUP1 PUSH1 0x3 NOT CALLDATASIZE ADD SLT PUSH2 0x2C4 JUMPI PUSH1 0x40 MLOAD PUSH32 0x0 PUSH1 0x1 PUSH1 0x1 PUSH1 0xA0 SHL SUB AND DUP2 MSTORE PUSH1 0x20 SWAP1 RETURN JUMPDEST POP CALLVALUE PUSH2 0x2C4 JUMPI PUSH1 0x20 DUP1 PUSH1 0x3 NOT CALLDATASIZE ADD SLT PUSH2 0x25C JUMPI DUP2 PUSH2 0x1A7C PUSH2 0x1FC5 JUMP JUMPDEST SWAP2 PUSH2 0x1A85 PUSH2 0x2071 JUMP JUMPDEST PUSH1 0x40 MLOAD PUSH4 0x670D2969 PUSH1 0xE1 SHL DUP2 MSTORE PUSH1 0x1 PUSH1 0x1 PUSH1 0xA0 SHL SUB SWAP2 SWAP1 DUP2 DUP2 PUSH1 0x4 DUP2 PUSH32 0x0 DUP8 AND GAS STATICCALL SWAP1 DUP2 ISZERO PUSH2 0x29C JUMPI DUP4 SWAP2 DUP4 SWAP2 DUP7 SWAP2 PUSH2 0x1B90 JUMPI JUMPDEST POP PUSH1 0x4 PUSH1 0x40 MLOAD DUP1 SWAP5 DUP2 SWAP4 PUSH4 0x65BB98B5 PUSH1 0xE0 SHL DUP4 MSTORE AND GAS STATICCALL SWAP1 DUP2 ISZERO PUSH2 0x29C JUMPI DUP4 SWAP3 DUP6 SWAP3 PUSH2 0x1B73 JUMPI JUMPDEST POP POP AND SWAP3 DUP4 EXTCODESIZE ISZERO PUSH2 0x26B JUMPI DUP3 SWAP2 PUSH1 0x24 DUP4 SWAP3 PUSH1 0x40 MLOAD SWAP5 DUP6 SWAP4 DUP5 SWAP3 PUSH4 0x4B08EC5 PUSH1 0xE4 SHL DUP5 MSTORE AND SWAP8 DUP9 PUSH1 0x4 DUP5 ADD MSTORE GAS CALL DUP1 ISZERO PUSH2 0x260 JUMPI PUSH2 0x1B5F JUMPI JUMPDEST POP DUP1 PUSH32 0x96E9F71E351DA2F355723015D74E0A4B6A13763FA188E610B27DA4C5ACA898C9 SWAP2 LOG2 DUP1 RETURN JUMPDEST PUSH2 0x1B68 SWAP1 PUSH2 0x20C0 JUMP JUMPDEST PUSH2 0x25C JUMPI DUP2 CODESIZE PUSH2 0x1B37 JUMP JUMPDEST PUSH2 0x1B89 SWAP3 POP DUP1 RETURNDATASIZE LT PUSH2 0x295 JUMPI PUSH2 0x286 DUP2 DUP4 PUSH2 0x20EA JUMP JUMPDEST CODESIZE DUP1 PUSH2 0x1AFF JUMP JUMPDEST PUSH2 0x1BA7 SWAP2 POP DUP3 RETURNDATASIZE DUP5 GT PUSH2 0x295 JUMPI PUSH2 0x286 DUP2 DUP4 PUSH2 0x20EA JUMP JUMPDEST CODESIZE PUSH2 0x1AD8 JUMP JUMPDEST POP CALLVALUE PUSH2 0x2C4 JUMPI PUSH1 0x20 CALLDATASIZE PUSH1 0x3 NOT ADD SLT PUSH2 0x2C4 JUMPI PUSH1 0x40 PUSH1 0x60 SWAP2 PUSH1 0x4 CALLDATALOAD DUP2 MSTORE PUSH1 0x2 PUSH1 0x20 MSTORE KECCAK256 DUP1 SLOAD SWAP1 PUSH1 0x2 PUSH1 0x1 DUP3 ADD SLOAD SWAP2 ADD SLOAD SWAP1 PUSH1 0x40 MLOAD SWAP3 DUP4 MSTORE PUSH1 0x20 DUP4 ADD MSTORE PUSH1 0x40 DUP3 ADD MSTORE RETURN JUMPDEST POP CALLVALUE PUSH2 0x2C4 JUMPI PUSH1 0x60 CALLDATASIZE PUSH1 0x3 NOT ADD SLT PUSH2 0x2C4 JUMPI PUSH1 0x44 CALLDATALOAD SWAP1 PUSH1 0x4 CALLDATALOAD DUP2 MSTORE PUSH1 0x3 PUSH1 0x20 MSTORE PUSH1 0x40 DUP2 KECCAK256 PUSH1 0x24 CALLDATALOAD DUP3 MSTORE PUSH1 0x20 MSTORE PUSH1 0x40 DUP2 KECCAK256 SWAP1 DUP2 SLOAD DUP4 LT ISZERO PUSH2 0x2C4 JUMPI PUSH1 0x20 PUSH2 0x1C35 DUP5 DUP5 PUSH2 0x2028 JUMP JUMPDEST SWAP1 SLOAD SWAP1 PUSH1 0x3 SHL SHR PUSH1 0x40 MLOAD SWAP1 DUP2 MSTORE RETURN JUMPDEST POP CALLVALUE PUSH2 0x2C4 JUMPI PUSH1 0x20 DUP1 PUSH1 0x3 NOT CALLDATASIZE ADD SLT PUSH2 0x25C JUMPI PUSH2 0x1C5F PUSH2 0x1FC5 JUMP JUMPDEST PUSH2 0x1C67 PUSH2 0x2071 JUMP JUMPDEST PUSH1 0x1 PUSH1 0x1 PUSH1 0xA0 SHL SUB SWAP1 DUP2 AND PUSH32 0x0 DUP3 AND DUP2 EQ PUSH2 0x1DAF JUMPI PUSH1 0x40 MLOAD PUSH4 0x70A08231 PUSH1 0xE0 SHL DUP2 MSTORE ADDRESS PUSH1 0x4 DUP3 ADD MSTORE SWAP2 DUP4 DUP4 PUSH1 0x24 DUP2 DUP6 GAS STATICCALL SWAP3 DUP4 ISZERO PUSH2 0xF55 JUMPI DUP6 SWAP4 PUSH2 0x1D80 JUMPI JUMPDEST POP DUP3 ISZERO PUSH2 0x1D43 JUMPI DUP5 SLOAD PUSH1 0x40 MLOAD PUSH4 0xA9059CBB PUSH1 0xE0 SHL DUP2 MSTORE SWAP2 AND PUSH1 0x1 PUSH1 0x1 PUSH1 0xA0 SHL SUB AND PUSH1 0x4 DUP3 ADD MSTORE PUSH1 0x24 DUP2 ADD SWAP3 SWAP1 SWAP3 MSTORE DUP3 SWAP1 DUP3 SWAP1 DUP2 DUP7 DUP2 PUSH1 0x44 DUP2 ADD SUB SWAP3 GAS CALL SWAP1 DUP2 ISZERO PUSH2 0x1D38 JUMPI PUSH2 0x5B1 SWAP3 DUP5 SWAP3 PUSH2 0x1D1B JUMPI JUMPDEST POP POP PUSH2 0x2124 JUMP JUMPDEST PUSH2 0x1D31 SWAP3 POP DUP1 RETURNDATASIZE LT PUSH2 0x5DB JUMPI PUSH2 0x5CD DUP2 DUP4 PUSH2 0x20EA JUMP JUMPDEST CODESIZE DUP1 PUSH2 0x1D14 JUMP JUMPDEST PUSH1 0x40 MLOAD RETURNDATASIZE DUP6 DUP3 RETURNDATACOPY RETURNDATASIZE SWAP1 REVERT JUMPDEST PUSH1 0x40 MLOAD PUSH3 0x461BCD PUSH1 0xE5 SHL DUP2 MSTORE PUSH1 0x4 DUP2 ADD DUP6 SWAP1 MSTORE PUSH1 0x15 PUSH1 0x24 DUP3 ADD MSTORE PUSH21 0x2737903130B630B731B2903A37903932B1B7BB32B9 PUSH1 0x59 SHL PUSH1 0x44 DUP3 ADD MSTORE PUSH1 0x64 SWAP1 REVERT JUMPDEST SWAP1 SWAP3 POP DUP4 DUP2 DUP2 RETURNDATASIZE DUP4 GT PUSH2 0x1DA8 JUMPI JUMPDEST PUSH2 0x1D98 DUP2 DUP4 PUSH2 0x20EA JUMP JUMPDEST DUP2 ADD SUB SLT PUSH2 0x7C3 JUMPI MLOAD SWAP2 CODESIZE PUSH2 0x1CC5 JUMP JUMPDEST POP RETURNDATASIZE PUSH2 0x1D8E JUMP JUMPDEST PUSH1 0x40 MLOAD PUSH3 0x461BCD PUSH1 0xE5 SHL DUP2 MSTORE PUSH1 0x4 DUP2 ADD DUP5 SWAP1 MSTORE PUSH1 0x19 PUSH1 0x24 DUP3 ADD MSTORE PUSH32 0x43616E6E6F74207265636F76657220737461626C65636F696E00000000000000 PUSH1 0x44 DUP3 ADD MSTORE PUSH1 0x64 SWAP1 REVERT JUMPDEST POP CALLVALUE PUSH2 0x2C4 JUMPI PUSH1 0x20 CALLDATASIZE PUSH1 0x3 NOT ADD SLT PUSH2 0x2C4 JUMPI PUSH1 0x4 CALLDATALOAD SWAP1 PUSH1 0x6 SLOAD DUP3 LT ISZERO PUSH2 0x2C4 JUMPI PUSH1 0x20 PUSH2 0x1E1F DUP4 PUSH2 0x1FDB JUMP JUMPDEST SWAP1 SLOAD PUSH1 0x40 MLOAD PUSH1 0x3 SWAP3 SWAP1 SWAP3 SHL SHR PUSH1 0x1 PUSH1 0x1 PUSH1 0xA0 SHL SUB AND DUP2 MSTORE RETURN JUMPDEST POP CALLVALUE PUSH2 0x2C4 JUMPI PUSH1 0x60 CALLDATASIZE PUSH1 0x3 NOT ADD SLT PUSH2 0x2C4 JUMPI PUSH1 0x20 PUSH2 0x1A13 PUSH2 0x1E57 PUSH2 0x1FC5 JUMP JUMPDEST PUSH2 0x1E5F PUSH2 0x1FAF JUMP JUMPDEST PUSH1 0x44 CALLDATALOAD SWAP2 PUSH2 0x2274 JUMP JUMPDEST POP CALLVALUE PUSH2 0x2C4 JUMPI PUSH1 0x20 CALLDATASIZE PUSH1 0x3 NOT ADD SLT PUSH2 0x2C4 JUMPI DUP1 PUSH2 0x1E83 PUSH2 0x1FC5 JUMP JUMPDEST PUSH2 0x1E8B PUSH2 0x2071 JUMP JUMPDEST PUSH1 0x1 DUP1 PUSH1 0xA0 SHL SUB DUP1 SWAP2 AND SWAP1 DUP2 DUP4 MSTORE PUSH1 0x5 PUSH1 0x20 MSTORE PUSH2 0x1EAF PUSH1 0x40 DUP5 KECCAK256 SLOAD PUSH1 0x6 SLOAD GT PUSH2 0x246C JUMP JUMPDEST PUSH1 0x40 MLOAD PUSH4 0x222E555 PUSH1 0xE2 SHL DUP2 MSTORE PUSH1 0x20 DUP2 PUSH1 0x4 DUP2 PUSH32 0x0 DUP7 AND GAS STATICCALL SWAP1 DUP2 ISZERO PUSH2 0x29C JUMPI DUP5 SWAP2 PUSH2 0x1F32 JUMPI JUMPDEST POP AND DUP1 EXTCODESIZE ISZERO PUSH2 0x4AA JUMPI PUSH1 0x24 DUP4 SWAP3 PUSH1 0x40 MLOAD SWAP5 DUP6 SWAP4 DUP5 SWAP3 PUSH4 0x187DE53B PUSH1 0xE0 SHL DUP5 MSTORE PUSH1 0x4 DUP5 ADD MSTORE GAS CALL DUP1 ISZERO PUSH2 0x260 JUMPI PUSH2 0x1F29 JUMPI POP DUP1 RETURN JUMPDEST PUSH2 0x5B1 SWAP1 PUSH2 0x20C0 JUMP JUMPDEST PUSH2 0x1F4A SWAP2 POP PUSH1 0x20 RETURNDATASIZE DUP2 GT PUSH2 0x295 JUMPI PUSH2 0x286 DUP2 DUP4 PUSH2 0x20EA JUMP JUMPDEST CODESIZE PUSH2 0x1EF5 JUMP JUMPDEST SWAP1 POP CALLVALUE PUSH2 0x25C JUMPI PUSH1 0x60 CALLDATASIZE PUSH1 0x3 NOT ADD SLT PUSH2 0x25C JUMPI PUSH2 0x1F6B PUSH2 0x1FAF JUMP JUMPDEST PUSH1 0x44 CALLDATALOAD PUSH1 0x1 PUSH1 0x1 PUSH1 0xA0 SHL SUB DUP2 DUP2 AND SWAP3 SWAP2 DUP4 SWAP1 SUB PUSH2 0x9FF JUMPI SWAP4 PUSH1 0xFF SWAP3 PUSH1 0x40 SWAP3 PUSH1 0x20 SWAP7 PUSH1 0x4 CALLDATALOAD DUP5 MSTORE PUSH1 0x4 DUP9 MSTORE DUP5 DUP5 KECCAK256 SWAP2 AND DUP4 MSTORE DUP7 MSTORE DUP3 DUP3 KECCAK256 SWAP1 DUP3 MSTORE DUP6 MSTORE KECCAK256 SLOAD AND ISZERO ISZERO DUP2 MSTORE RETURN JUMPDEST PUSH1 0x24 CALLDATALOAD SWAP1 PUSH1 0x1 PUSH1 0x1 PUSH1 0xA0 SHL SUB DUP3 AND DUP3 SUB PUSH2 0x7C3 JUMPI JUMP JUMPDEST PUSH1 0x4 CALLDATALOAD SWAP1 PUSH1 0x1 PUSH1 0x1 PUSH1 0xA0 SHL SUB DUP3 AND DUP3 SUB PUSH2 0x7C3 JUMPI JUMP JUMPDEST PUSH1 0x6 SLOAD DUP2 LT ISZERO PUSH2 0x2012 JUMPI PUSH1 0x6 PUSH1 0x0 MSTORE PUSH32 0xF652222313E28459528D920B65115C16C04F3EFC82AAEDC97BE59F3F377C0D3F ADD SWAP1 PUSH1 0x0 SWAP1 JUMP JUMPDEST PUSH4 0x4E487B71 PUSH1 0xE0 SHL PUSH1 0x0 MSTORE PUSH1 0x32 PUSH1 0x4 MSTORE PUSH1 0x24 PUSH1 0x0 REVERT JUMPDEST DUP1 SLOAD DUP3 LT ISZERO PUSH2 0x2012 JUMPI PUSH1 0x0 MSTORE PUSH1 0x20 PUSH1 0x0 KECCAK256 ADD SWAP1 PUSH1 0x0 SWAP1 JUMP JUMPDEST SWAP2 DUP2 PUSH1 0x1F DUP5 ADD SLT ISZERO PUSH2 0x7C3 JUMPI DUP3 CALLDATALOAD SWAP2 PUSH8 0xFFFFFFFFFFFFFFFF DUP4 GT PUSH2 0x7C3 JUMPI PUSH1 0x20 DUP1 DUP6 ADD SWAP5 DUP5 PUSH1 0x5 SHL ADD ADD GT PUSH2 0x7C3 JUMPI JUMP JUMPDEST PUSH1 0x0 SLOAD PUSH1 0x1 PUSH1 0x1 PUSH1 0xA0 SHL SUB AND CALLER SUB PUSH2 0x2085 JUMPI JUMP JUMPDEST PUSH1 0x40 MLOAD PUSH4 0x118CDAA7 PUSH1 0xE0 SHL DUP2 MSTORE CALLER PUSH1 0x4 DUP3 ADD MSTORE PUSH1 0x24 SWAP1 REVERT JUMPDEST SWAP2 SWAP1 DUP3 ADD DUP1 SWAP3 GT PUSH2 0x20AA JUMPI JUMP JUMPDEST PUSH4 0x4E487B71 PUSH1 0xE0 SHL PUSH1 0x0 MSTORE PUSH1 0x11 PUSH1 0x4 MSTORE PUSH1 0x24 PUSH1 0x0 REVERT JUMPDEST PUSH8 0xFFFFFFFFFFFFFFFF DUP2 GT PUSH2 0x20D4 JUMPI PUSH1 0x40 MSTORE JUMP JUMPDEST PUSH4 0x4E487B71 PUSH1 0xE0 SHL PUSH1 0x0 MSTORE PUSH1 0x41 PUSH1 0x4 MSTORE PUSH1 0x24 PUSH1 0x0 REVERT JUMPDEST SWAP1 PUSH1 0x1F DUP1 NOT SWAP2 ADD AND DUP2 ADD SWAP1 DUP2 LT PUSH8 0xFFFFFFFFFFFFFFFF DUP3 GT OR PUSH2 0x20D4 JUMPI PUSH1 0x40 MSTORE JUMP JUMPDEST SWAP1 DUP2 PUSH1 0x20 SWAP2 SUB SLT PUSH2 0x7C3 JUMPI MLOAD DUP1 ISZERO ISZERO DUP2 SUB PUSH2 0x7C3 JUMPI SWAP1 JUMP JUMPDEST ISZERO PUSH2 0x212B JUMPI JUMP JUMPDEST PUSH1 0x40 MLOAD PUSH3 0x461BCD PUSH1 0xE5 SHL DUP2 MSTORE PUSH1 0x20 PUSH1 0x4 DUP3 ADD MSTORE PUSH1 0xF PUSH1 0x24 DUP3 ADD MSTORE PUSH15 0x151C985B9CD9995C8819985A5B1959 PUSH1 0x8A SHL PUSH1 0x44 DUP3 ADD MSTORE PUSH1 0x64 SWAP1 REVERT JUMPDEST DUP2 DUP2 MUL SWAP3 SWAP2 DUP2 ISZERO SWAP2 DUP5 DIV EQ OR ISZERO PUSH2 0x20AA JUMPI JUMP JUMPDEST DUP2 ISZERO PUSH2 0x217F JUMPI DIV SWAP1 JUMP JUMPDEST PUSH4 0x4E487B71 PUSH1 0xE0 SHL PUSH1 0x0 MSTORE PUSH1 0x12 PUSH1 0x4 MSTORE PUSH1 0x24 PUSH1 0x0 REVERT JUMPDEST SWAP1 PUSH2 0x3E8 SWAP2 DUP3 DUP3 DIV SWAP3 PUSH1 0x0 SWAP3 DUP3 DUP5 MSTORE PUSH1 0x2 PUSH1 0x20 MSTORE PUSH1 0x2 PUSH1 0x40 DUP6 KECCAK256 ADD SLOAD DUP6 LT ISZERO PUSH2 0x21E1 JUMPI PUSH2 0x21D7 SWAP5 PUSH1 0x40 SWAP4 DUP6 MSTORE PUSH1 0x3 PUSH1 0x20 MSTORE DUP4 DUP6 KECCAK256 SWAP1 DUP6 MSTORE PUSH1 0x20 MSTORE MOD SWAP2 KECCAK256 PUSH2 0x2028 JUMP JUMPDEST SWAP1 SLOAD SWAP1 PUSH1 0x3 SHL SHR SWAP1 JUMP JUMPDEST PUSH1 0x40 MLOAD PUSH3 0x461BCD PUSH1 0xE5 SHL DUP2 MSTORE PUSH1 0x20 PUSH1 0x4 DUP3 ADD MSTORE PUSH1 0x10 PUSH1 0x24 DUP3 ADD MSTORE PUSH16 0x92DCECC2D8D2C840AEA640D2DCC8CAF PUSH1 0x83 SHL PUSH1 0x44 DUP3 ADD MSTORE PUSH1 0x64 SWAP1 REVERT JUMPDEST ISZERO PUSH2 0x2220 JUMPI JUMP JUMPDEST PUSH1 0x40 MLOAD PUSH3 0x461BCD PUSH1 0xE5 SHL DUP2 MSTORE PUSH1 0x20 PUSH1 0x4 DUP3 ADD MSTORE PUSH1 0xD PUSH1 0x24 DUP3 ADD MSTORE PUSH13 0x92DCECC2D8D2C840CAE0DEC6D PUSH1 0x9B SHL PUSH1 0x44 DUP3 ADD MSTORE PUSH1 0x64 SWAP1 REVERT JUMPDEST SWAP1 DUP2 PUSH1 0x20 SWAP2 SUB SLT PUSH2 0x7C3 JUMPI MLOAD PUSH1 0x1 PUSH1 0x1 PUSH1 0xA0 SHL SUB DUP2 AND DUP2 SUB PUSH2 0x7C3 JUMPI SWAP1 JUMP JUMPDEST PUSH1 0x0 SWAP3 DUP1 DUP5 MSTORE PUSH1 0x20 SWAP4 PUSH1 0x4 DUP6 MSTORE PUSH1 0x40 SWAP5 DUP6 DUP3 KECCAK256 SWAP5 PUSH1 0x1 DUP1 PUSH1 0xA0 SHL SUB DUP1 SWAP2 AND SWAP6 DUP7 DUP5 MSTORE DUP3 MSTORE DUP1 DUP8 DUP5 KECCAK256 SWAP6 AND SWAP5 DUP6 DUP5 MSTORE DUP3 MSTORE PUSH1 0xFF DUP8 DUP5 KECCAK256 SLOAD AND DUP1 ISZERO PUSH2 0x2416 JUMPI JUMPDEST PUSH2 0x240C JUMPI DUP7 MLOAD PUSH4 0x6FAD7E95 PUSH1 0xE1 SHL DUP2 MSTORE SWAP5 DUP3 DUP7 PUSH1 0x4 DUP2 DUP5 GAS STATICCALL SWAP6 DUP7 ISZERO PUSH2 0x2402 JUMPI DUP5 SWAP7 PUSH2 0x23E3 JUMPI JUMPDEST POP DUP4 MSTORE PUSH1 0x5 DUP3 MSTORE DUP7 DUP4 KECCAK256 SLOAD SWAP5 AND DUP4 DUP4 MSTORE PUSH1 0x2 DUP3 MSTORE PUSH1 0x1 DUP8 DUP5 KECCAK256 ADD SLOAD DUP8 MLOAD SWAP7 PUSH4 0xC4DB40D PUSH1 0xE3 SHL DUP9 MSTORE PUSH1 0x4 DUP9 ADD MSTORE PUSH1 0x1 PUSH1 0x24 DUP9 ADD MSTORE PUSH1 0x44 DUP8 ADD MSTORE DUP2 DUP7 PUSH1 0x64 DUP2 DUP5 GAS STATICCALL SWAP6 DUP7 ISZERO PUSH2 0x23D9 JUMPI DUP4 SWAP7 PUSH2 0x23AA JUMPI JUMPDEST POP SWAP1 DUP1 PUSH1 0x4 SWAP4 SWAP3 DUP9 MLOAD SWAP5 DUP6 DUP1 SWAP3 PUSH4 0x3A98EF39 PUSH1 0xE0 SHL DUP3 MSTORE GAS STATICCALL SWAP7 DUP8 ISZERO PUSH2 0x239F JUMPI POP DUP2 SWAP7 PUSH2 0x2368 JUMPI JUMPDEST POP POP POP SWAP2 PUSH2 0x73A PUSH2 0x73F SWAP3 PUSH2 0x2365 SWAP6 SWAP5 PUSH2 0x2195 JUMP JUMPDEST SWAP1 JUMP JUMPDEST SWAP1 SWAP2 DUP1 SWAP4 SWAP7 POP DUP2 RETURNDATASIZE DUP4 GT PUSH2 0x2398 JUMPI JUMPDEST PUSH2 0x2381 DUP2 DUP4 PUSH2 0x20EA JUMP JUMPDEST DUP2 ADD SUB SLT PUSH2 0x2C4 JUMPI POP MLOAD SWAP3 PUSH2 0x73A DUP3 PUSH2 0x2365 PUSH2 0x2350 JUMP JUMPDEST POP RETURNDATASIZE PUSH2 0x2377 JUMP JUMPDEST MLOAD SWAP2 RETURNDATASIZE SWAP2 POP DUP3 RETURNDATACOPY RETURNDATASIZE SWAP1 REVERT JUMPDEST SWAP1 SWAP6 POP DUP2 DUP2 DUP2 RETURNDATASIZE DUP4 GT PUSH2 0x23D2 JUMPI JUMPDEST PUSH2 0x23C2 DUP2 DUP4 PUSH2 0x20EA JUMP JUMPDEST DUP2 ADD SUB SLT PUSH2 0x26B JUMPI MLOAD SWAP5 DUP2 PUSH2 0x2328 JUMP JUMPDEST POP RETURNDATASIZE PUSH2 0x23B8 JUMP JUMPDEST DUP8 MLOAD RETURNDATASIZE DUP6 DUP3 RETURNDATACOPY RETURNDATASIZE SWAP1 REVERT JUMPDEST PUSH2 0x23FB SWAP2 SWAP7 POP DUP4 RETURNDATASIZE DUP6 GT PUSH2 0x295 JUMPI PUSH2 0x286 DUP2 DUP4 PUSH2 0x20EA JUMP JUMPDEST SWAP5 CODESIZE PUSH2 0x22D9 JUMP JUMPDEST DUP9 MLOAD RETURNDATASIZE DUP7 DUP3 RETURNDATACOPY RETURNDATASIZE SWAP1 REVERT JUMPDEST POP POP SWAP4 POP POP POP POP SWAP1 JUMP JUMPDEST POP PUSH1 0x1 SLOAD DUP5 GT PUSH2 0x22B2 JUMP JUMPDEST PUSH1 0x0 NOT DUP2 EQ PUSH2 0x20AA JUMPI PUSH1 0x1 ADD SWAP1 JUMP JUMPDEST SWAP2 SWAP1 DUP2 LT ISZERO PUSH2 0x2012 JUMPI PUSH1 0x5 SHL ADD SWAP1 JUMP JUMPDEST PUSH8 0xFFFFFFFFFFFFFFFF DUP2 GT PUSH2 0x20D4 JUMPI PUSH1 0x5 SHL PUSH1 0x20 ADD SWAP1 JUMP JUMPDEST DUP1 MLOAD DUP3 LT ISZERO PUSH2 0x2012 JUMPI PUSH1 0x20 SWAP2 PUSH1 0x5 SHL ADD ADD SWAP1 JUMP JUMPDEST ISZERO PUSH2 0x2473 JUMPI JUMP JUMPDEST PUSH1 0x40 MLOAD PUSH3 0x461BCD PUSH1 0xE5 SHL DUP2 MSTORE PUSH1 0x20 PUSH1 0x4 DUP3 ADD MSTORE PUSH1 0x1A PUSH1 0x24 DUP3 ADD MSTORE PUSH32 0x4E6F742061206D616E61676564207772617070656420736F6E67000000000000 PUSH1 0x44 DUP3 ADD MSTORE PUSH1 0x64 SWAP1 REVERT INVALID SMOD DUP7 EXTCODEHASH 0xD8 SHL SUB 0x5C LOG4 0x4D BYTE 0xF7 0xB7 0xB9 DUP5 CALLCODE SWAP8 0xC3 0xCF 0x2E RETURN SWAP2 LOG2 CALLCODE 0xE9 PUSH25 0xA98670F200A4EBA264697066735822122096B429927C138BD3 PUSH5 0xE0906EF912 DUP6 PC 0x4F 0xF8 0xB0 SWAP1 DUP8 0x2C PUSH21 0x647104FC046E7E1FF664736F6C63430008140033A2 PUSH5 0x6970667358 0x22 SLT KECCAK256 MSIZE LOG2 DUP15 0xD2 0xBA KECCAK256 0xEB 0x5C ISZERO 0x4A 0xAD 0x2F 0x25 0xEF CALLER PUSH6 0x1BE8318AF8E4 PUSH29 0x2D8EB860167B37264664736F6C63430008140033000000000000000000 "},"methodIdentifiers":{"accumulatedFees(address)":"fcf66664","checkIsDistributorWallet(address)":"d42fe231","createDistributorWallet(address,address,address)":"d677db97","distributorWallets(address,uint256)":"41667986","getDistributorWallets(address)":"f4ae5338","getWrappedSongDistributor(address)":"3aa690e7","isDistributorWallet(address)":"a6be3496","owner()":"8da5cb5b","renounceOwnership()":"715018a6","transferOwnership(address)":"f2fde38b","withdrawAccumulatedFees(address,address,address)":"bb8f7724","wrappedSongToDistributor(address)":"2cd6c9a6"}},"storageLayout":{"storage":[{"astId":8,"contract":"contracts/protocol/NonUpgradable/DistributorWalletFactory.sol:DistributorWalletFactory","label":"_owner","offset":0,"slot":"0","type":"t_address"},{"astId":6117,"contract":"contracts/protocol/NonUpgradable/DistributorWalletFactory.sol:DistributorWalletFactory","label":"distributorWallets","offset":0,"slot":"1","type":"t_mapping(t_address,t_array(t_address)dyn_storage)"},{"astId":6121,"contract":"contracts/protocol/NonUpgradable/DistributorWalletFactory.sol:DistributorWalletFactory","label":"wrappedSongToDistributor","offset":0,"slot":"2","type":"t_mapping(t_address,t_address)"},{"astId":6125,"contract":"contracts/protocol/NonUpgradable/DistributorWalletFactory.sol:DistributorWalletFactory","label":"isDistributorWallet","offset":0,"slot":"3","type":"t_mapping(t_address,t_bool)"},{"astId":6129,"contract":"contracts/protocol/NonUpgradable/DistributorWalletFactory.sol:DistributorWalletFactory","label":"accumulatedFees","offset":0,"slot":"4","type":"t_mapping(t_address,t_uint256)"}],"types":{"t_address":{"encoding":"inplace","label":"address","numberOfBytes":"20"},"t_array(t_address)dyn_storage":{"base":"t_address","encoding":"dynamic_array","label":"address[]","numberOfBytes":"32"},"t_bool":{"encoding":"inplace","label":"bool","numberOfBytes":"1"},"t_mapping(t_address,t_address)":{"encoding":"mapping","key":"t_address","label":"mapping(address => address)","numberOfBytes":"32","value":"t_address"},"t_mapping(t_address,t_array(t_address)dyn_storage)":{"encoding":"mapping","key":"t_address","label":"mapping(address => address[])","numberOfBytes":"32","value":"t_array(t_address)dyn_storage"},"t_mapping(t_address,t_bool)":{"encoding":"mapping","key":"t_address","label":"mapping(address => bool)","numberOfBytes":"32","value":"t_bool"},"t_mapping(t_address,t_uint256)":{"encoding":"mapping","key":"t_address","label":"mapping(address => uint256)","numberOfBytes":"32","value":"t_uint256"},"t_uint256":{"encoding":"inplace","label":"uint256","numberOfBytes":"32"}}}}}}