{"contracts/protocol/NonUpgradable/WrappedSongSmartAccount.sol":{"WrappedSongSmartAccount":{"abi":[{"inputs":[],"stateMutability":"nonpayable","type":"constructor"},{"inputs":[],"name":"InvalidInitialization","type":"error"},{"inputs":[],"name":"NotInitializing","type":"error"},{"inputs":[{"internalType":"address","name":"owner","type":"address"}],"name":"OwnableInvalidOwner","type":"error"},{"inputs":[{"internalType":"address","name":"account","type":"address"}],"name":"OwnableUnauthorizedAccount","type":"error"},{"inputs":[],"name":"ReentrancyGuardReentrantCall","type":"error"},{"anonymous":false,"inputs":[{"indexed":true,"internalType":"address","name":"newWrappedSongAddress","type":"address"}],"name":"ContractMigrated","type":"event"},{"anonymous":false,"inputs":[{"indexed":true,"internalType":"uint256","name":"epochId","type":"uint256"},{"indexed":false,"internalType":"uint256","name":"amount","type":"uint256"},{"indexed":false,"internalType":"uint256","name":"earningsPerShare","type":"uint256"},{"indexed":false,"internalType":"bool","name":"isETH","type":"bool"}],"name":"EarningsEpochProcessed","type":"event"},{"anonymous":false,"inputs":[{"indexed":true,"internalType":"address","name":"user","type":"address"},{"indexed":false,"internalType":"uint256","name":"fromEpoch","type":"uint256"},{"indexed":false,"internalType":"uint256","name":"toEpoch","type":"uint256"},{"indexed":false,"internalType":"uint256","name":"amount","type":"uint256"},{"indexed":true,"internalType":"address","name":"token","type":"address"}],"name":"EpochEarningsClaimed","type":"event"},{"anonymous":false,"inputs":[{"indexed":false,"internalType":"uint64","name":"version","type":"uint64"}],"name":"Initialized","type":"event"},{"anonymous":false,"inputs":[{"indexed":true,"internalType":"address","name":"previousOwner","type":"address"},{"indexed":true,"internalType":"address","name":"newOwner","type":"address"}],"name":"OwnershipTransferred","type":"event"},{"inputs":[{"internalType":"uint256","name":"maxEpochs","type":"uint256"}],"name":"claimETHEarnings","outputs":[],"stateMutability":"nonpayable","type":"function"},{"inputs":[{"internalType":"uint256","name":"maxEpochs","type":"uint256"}],"name":"claimStablecoinEarnings","outputs":[],"stateMutability":"nonpayable","type":"function"},{"inputs":[{"internalType":"uint256","name":"amount","type":"uint256"},{"internalType":"address","name":"recipient","type":"address"}],"name":"createBuyoutToken","outputs":[],"stateMutability":"nonpayable","type":"function"},{"inputs":[],"name":"createETHDistributionEpoch","outputs":[],"stateMutability":"nonpayable","type":"function"},{"inputs":[{"internalType":"string","name":"contractURI","type":"string"}],"name":"createLegalContract","outputs":[{"internalType":"uint256","name":"","type":"uint256"}],"stateMutability":"nonpayable","type":"function"},{"inputs":[{"internalType":"uint256","name":"sharesAmount","type":"uint256"}],"name":"createSongShares","outputs":[],"stateMutability":"nonpayable","type":"function"},{"inputs":[],"name":"createStablecoinDistributionEpoch","outputs":[],"stateMutability":"nonpayable","type":"function"},{"inputs":[],"name":"ethBalance","outputs":[{"internalType":"uint256","name":"","type":"uint256"}],"stateMutability":"view","type":"function"},{"inputs":[{"internalType":"uint256","name":"index","type":"uint256"}],"name":"ethEarningsEpochs","outputs":[{"components":[{"internalType":"uint256","name":"epochId","type":"uint256"},{"internalType":"uint256","name":"amount","type":"uint256"},{"internalType":"uint256","name":"earningsPerShare","type":"uint256"},{"internalType":"uint256","name":"timestamp","type":"uint256"},{"internalType":"address","name":"sender","type":"address"}],"internalType":"struct IWrappedSongTypes.EarningsEpoch","name":"","type":"tuple"}],"stateMutability":"view","type":"function"},{"inputs":[{"internalType":"address","name":"account","type":"address"}],"name":"getPendingETHEarnings","outputs":[{"internalType":"uint256","name":"","type":"uint256"}],"stateMutability":"view","type":"function"},{"inputs":[],"name":"getPendingStablecoinDistribution","outputs":[{"internalType":"uint256","name":"","type":"uint256"}],"stateMutability":"view","type":"function"},{"inputs":[{"internalType":"address","name":"account","type":"address"}],"name":"getPendingStablecoinEarnings","outputs":[{"internalType":"uint256","name":"","type":"uint256"}],"stateMutability":"view","type":"function"},{"inputs":[{"internalType":"address","name":"account","type":"address"}],"name":"getUnclaimedETHEpochs","outputs":[{"internalType":"uint256[]","name":"epochIds","type":"uint256[]"},{"internalType":"uint256[]","name":"amounts","type":"uint256[]"},{"internalType":"uint256[]","name":"timestamps","type":"uint256[]"},{"internalType":"string[]","name":"sources","type":"string[]"}],"stateMutability":"view","type":"function"},{"inputs":[{"internalType":"address","name":"account","type":"address"}],"name":"getUnclaimedStablecoinEpochs","outputs":[{"internalType":"uint256[]","name":"epochIds","type":"uint256[]"},{"internalType":"uint256[]","name":"amounts","type":"uint256[]"},{"internalType":"uint256[]","name":"timestamps","type":"uint256[]"},{"internalType":"string[]","name":"sources","type":"string[]"}],"stateMutability":"view","type":"function"},{"inputs":[],"name":"getWSTokenManagementAddress","outputs":[{"internalType":"address","name":"","type":"address"}],"stateMutability":"view","type":"function"},{"inputs":[{"internalType":"address","name":"account","type":"address"},{"internalType":"address","name":"token","type":"address"}],"name":"hasMoreEpochsToClaim","outputs":[{"internalType":"bool","name":"hasMore","type":"bool"},{"internalType":"uint256","name":"nextEpoch","type":"uint256"},{"internalType":"uint256","name":"totalEpochs","type":"uint256"}],"stateMutability":"view","type":"function"},{"inputs":[{"internalType":"address","name":"_stablecoinAddress","type":"address"},{"internalType":"address","name":"_owner","type":"address"},{"internalType":"address","name":"_protocolModuleAddress","type":"address"}],"name":"initialize","outputs":[],"stateMutability":"nonpayable","type":"function"},{"inputs":[],"name":"metadataModule","outputs":[{"internalType":"contract IMetadataModule","name":"","type":"address"}],"stateMutability":"view","type":"function"},{"inputs":[{"internalType":"address","name":"newMetadataAddress","type":"address"},{"internalType":"address","name":"newWrappedSongAddress","type":"address"}],"name":"migrateWrappedSong","outputs":[],"stateMutability":"nonpayable","type":"function"},{"inputs":[],"name":"migrated","outputs":[{"internalType":"bool","name":"","type":"bool"}],"stateMutability":"view","type":"function"},{"inputs":[{"internalType":"address","name":"operator","type":"address"},{"internalType":"address","name":"from","type":"address"},{"internalType":"uint256[]","name":"ids","type":"uint256[]"},{"internalType":"uint256[]","name":"values","type":"uint256[]"},{"internalType":"bytes","name":"data","type":"bytes"}],"name":"onERC1155BatchReceived","outputs":[{"internalType":"bytes4","name":"","type":"bytes4"}],"stateMutability":"pure","type":"function"},{"inputs":[{"internalType":"address","name":"operator","type":"address"},{"internalType":"address","name":"from","type":"address"},{"internalType":"uint256","name":"id","type":"uint256"},{"internalType":"uint256","name":"value","type":"uint256"},{"internalType":"bytes","name":"data","type":"bytes"}],"name":"onERC1155Received","outputs":[{"internalType":"bytes4","name":"","type":"bytes4"}],"stateMutability":"pure","type":"function"},{"inputs":[],"name":"owner","outputs":[{"internalType":"address","name":"","type":"address"}],"stateMutability":"view","type":"function"},{"inputs":[],"name":"protocolModule","outputs":[{"internalType":"contract IProtocolModule","name":"","type":"address"}],"stateMutability":"view","type":"function"},{"inputs":[{"internalType":"address","name":"token","type":"address"},{"internalType":"uint256","name":"amount","type":"uint256"}],"name":"receiveERC20","outputs":[],"stateMutability":"nonpayable","type":"function"},{"inputs":[],"name":"releaseModule","outputs":[{"internalType":"contract IReleaseModule","name":"","type":"address"}],"stateMutability":"view","type":"function"},{"inputs":[],"name":"renounceOwnership","outputs":[],"stateMutability":"nonpayable","type":"function"},{"inputs":[{"internalType":"address","name":"_wsTokenManagement","type":"address"}],"name":"setWSTokenManagement","outputs":[],"stateMutability":"nonpayable","type":"function"},{"inputs":[],"name":"songSharesId","outputs":[{"internalType":"uint256","name":"","type":"uint256"}],"stateMutability":"view","type":"function"},{"inputs":[],"name":"stablecoin","outputs":[{"internalType":"contract IERC20","name":"","type":"address"}],"stateMutability":"view","type":"function"},{"inputs":[{"internalType":"uint256","name":"index","type":"uint256"}],"name":"stablecoinEarningsEpochs","outputs":[{"components":[{"internalType":"uint256","name":"epochId","type":"uint256"},{"internalType":"uint256","name":"amount","type":"uint256"},{"internalType":"uint256","name":"earningsPerShare","type":"uint256"},{"internalType":"uint256","name":"timestamp","type":"uint256"},{"internalType":"address","name":"sender","type":"address"}],"internalType":"struct IWrappedSongTypes.EarningsEpoch","name":"","type":"tuple"}],"stateMutability":"view","type":"function"},{"inputs":[{"internalType":"bytes4","name":"interfaceId","type":"bytes4"}],"name":"supportsInterface","outputs":[{"internalType":"bool","name":"","type":"bool"}],"stateMutability":"view","type":"function"},{"inputs":[{"internalType":"address","name":"newOwner","type":"address"}],"name":"transferOwnership","outputs":[],"stateMutability":"nonpayable","type":"function"},{"inputs":[{"internalType":"address","name":"user","type":"address"}],"name":"userEpochBalances","outputs":[{"components":[{"internalType":"uint256","name":"lastClaimedEpoch","type":"uint256"},{"internalType":"uint256","name":"lastClaimedETHEpoch","type":"uint256"}],"internalType":"struct IWrappedSongTypes.EpochBalance","name":"","type":"tuple"}],"stateMutability":"view","type":"function"},{"inputs":[],"name":"wrappedSongTokenId","outputs":[{"internalType":"uint256","name":"","type":"uint256"}],"stateMutability":"view","type":"function"},{"inputs":[],"name":"wsTokenManagement","outputs":[{"internalType":"contract IWSTokenManagement","name":"","type":"address"}],"stateMutability":"view","type":"function"},{"stateMutability":"payable","type":"receive"}],"evm":{"bytecode":{"linkReferences":{},"object":"6080806040523462000126573315620001105760008054336001600160a01b03198216811783556040519290916001600160a01b0316907f8be0079c531659141344cd1fd0a4f28419497f9722a3daafe3b4186f6b6457e09080a3600180557ff0c57e16840df040f15088dc2f81fe391c3923bec73e23a9662efc9c229c6a009081549060ff8260401c166200010157506001600160401b036002600160401b031982821601620000bb575b60405161309f90816200012c8239f35b6001600160401b031990911681179091556040519081527fc7f505b2f371ae2175ee4913f4499e1f2633a7b5936321eed1cdaeb6115181d290602090a1808080620000ab565b63f92ee8a960e01b8152600490fd5b631e4fbdf760e01b815260006004820152602490fd5b600080fdfe6080604081815260049182361015610031575b505050361561002057600080fd5b61002c3460095461256b565b600955005b600092833560e01c91826301ffc9a71461223c575081630a1c35a414611e825781632514a5fb14611c0b5781632c678c6414611be75781632cc6d17b14611ba55781633684d10014611b7c57816339fa62df14611a6957816343d0b50f14611a4a5781634c2b957a14611a1e5781634e6630b0146119ff57816351bcece2146119d85781635c42e667146119b05781635d152b361461199157816365bb98b5146119685781636ab415c1146119425781636d4645fd14611424578163715018a6146113ca578163716f6e871461134557816382d5195c146111265781638da5cb5b146110fe5781639a5cb99d146102f65781639d3bc4bd14610fcd578163a2440fd514610f1c578163aed4aab614610e29578163b40b5e8214610df0578163bc197c8114610d67578163bcb7130d14610b00578163c0c53b8b1461076f578163c45f497e14610707578163d70a0abc1461031f578163df5afd2a146102f6578163e9cbd822146102cd578163f23a6e6114610274578163f2fde38b1461021a57508063f3baa17f146101fc5763fcd9b139146101cd5780610012565b346101f85760203660031901126101f8576020906101f16101ec61228f565b612ebe565b9051908152f35b5080fd5b50346101f857816003193601126101f8576020906007549051908152f35b9050346102705760203660031901126102705761023561228f565b9161023e6124d9565b6001600160a01b0383161561025a578361025784612505565b80f35b51631e4fbdf760e01b8152908101839052602490fd5b8280fd5b8284346102ca5760a03660031901126102ca5761028f61228f565b506102986122a5565b50608435906001600160401b0382116102ca57506020926102bb913691016123f6565b50505163f23a6e6160e01b8152f35b80fd5b5050346101f857816003193601126101f85760035490516001600160a01b039091168152602090f35b5050346101f857816003193601126101f85760025490516001600160a01b039091168152602090f35b90503461027057816003193601126102705761033961228f565b916103426122a5565b600e5460ff81166106c4576001600160a01b03828116958615610681578116801561063e5781600254169081156105fb578287541693865180956366d0ead360e01b8252338a83015281602460209889935afa9081156105f1578b916105d4575b50156105995760ff1916600117600e55889493929190813b1561059557859160448392895194859384926335c282af60e21b84528d8401528d60248401525af180156105735790859161057d575b505060035485516370a0823160e01b8152308882015291168282602481845afa91821561057357859261053c575b50816104bd575b5050504780610459575b82867f63a3a6504840fce1914d082b35c1578e92684e2412633097b92acce038d2b1ee8280a280f35b8280929181925af16104696127ca565b501561047757838180610430565b6104b992505191829162461bcd60e51b83528201606090602081526013602082015272115512081d1c985b9cd9995c8819985a5b1959606a1b60408201520190565b0390fd5b855163a9059cbb60e01b81526001600160a01b0385168189019081526020810193909352918391839182908890829060400103925af1801561053257610504575b80610426565b8161052392903d1061052b575b61051b818361249d565b8101906125da565b5038806104fe565b503d610511565b85513d86823e3d90fd5b945090508184813d811161056c575b610555818361249d565b8101031261056757879351903861041f565b600080fd5b503d61054b565b86513d87823e3d90fd5b61058690612454565b6105915783386103f1565b8380fd5b8580fd5b865162461bcd60e51b8152808901869052601560248201527410d85b1b195c881b9bdd08185d5d1a1bdc9a5e9959605a1b6044820152606490fd5b6105eb9150863d881161052b5761051b818361249d565b386103a3565b88513d8d823e3d90fd5b855162461bcd60e51b8152602081890152601960248201527f5753546f6b656e4d616e6167656d656e74206e6f7420736574000000000000006044820152606490fd5b845162461bcd60e51b8152602081880152601860248201527f496e76616c6964206d65746164617461206164647265737300000000000000006044820152606490fd5b845162461bcd60e51b8152602081880181905260248201527f496e76616c6964206e6577207772617070656420736f6e6720616464726573736044820152606490fd5b825162461bcd60e51b8152602081860152601960248201527f436f6e747261637420616c7265616479206d69677261746564000000000000006044820152606490fd5b5050346101f85760203660031901126101f857809161072461228f565b816020845161073281612467565b828152015260018060a01b03168152600b60205220600181549101546020835161075b81612467565b838152019081528251918252516020820152f35b919050346102705760603660031901126102705761078b61228f565b906107946122a5565b6001600160a01b039360443585811694929190859003610567577ff0c57e16840df040f15088dc2f81fe391c3923bec73e23a9662efc9c229c6a009586549360ff85871c1615946001600160401b03811680159081610af8575b6001149081610aee575b159081610ae5575b50610ad55767ffffffffffffffff198116600117895585610ab6575b508615610a73578116928315610a3057818116156109f55782546001600160a01b0319808216891785558751623684d160e81b8152602099919591928c918b818581885afa9081156109eb579187859285948f96916109ae575b50168960055416176005558b51958693849263670d296960e11b845216175afa9182156105f15791899185938d9261097f575b5089516365bb98b560e01b81529586928391165afa8015610975578a90610937575b6108df935016836006541617600655612505565b60035416176003558460085560016007556108f8578380f35b7fc7f505b2f371ae2175ee4913f4499e1f2633a7b5936321eed1cdaeb6115181d29268ff00000000000000001981541690555160018152a13880808380f35b50918781813d831161096e575b61094e818361249d565b8101031261096a575191808316830361096a576108df926108cb565b8980fd5b503d610944565b87513d8c823e3d90fd5b6109a0919250833d85116109a7575b610998818361249d565b81019061254c565b90386108a9565b503d61098e565b935050509281813d83116109e4575b6109c7818361249d565b810103126101f8575186811681036101f8578b9287859238610876565b503d6109bd565b8b513d85823e3d90fd5b855162461bcd60e51b81526020818501526015602482015274496e76616c6964206f776e6572206164647265737360581b6044820152606490fd5b855162461bcd60e51b8152602081850152601a60248201527f496e76616c696420737461626c65636f696e20616464726573730000000000006044820152606490fd5b855162461bcd60e51b8152602081850152601f60248201527f496e76616c69642070726f746f636f6c206d6f64756c652061646472657373006044820152606490fd5b68ffffffffffffffffff1916680100000000000000011788553861081c565b865163f92ee8a960e01b81528490fd5b90501538610800565b303b1591506107f8565b8791506107ee565b8383346101f857602092836003193601126102705780356001600160401b0381116105915736602382011215610591578082013591610b3e836124be565b92610b4b8551948561249d565b80845260249236848383010111610d6357818792858a9301838801378501015284546001600160a01b0390811633148015610d0d575b15610cb4576002541690845163bd85b03960e01b815260038282015287818581865afa908115610caa578791610c7d575b50610c3057908686819493610bde88519788968795869463bcb7130d60e01b86528501528301906122ef565b03925af1928315610c255792610bf6575b5051908152f35b9091508281813d8311610c1e575b610c0e818361249d565b8101031261056757519083610bef565b503d610c04565b8251903d90823e3d90fd5b845162461bcd60e51b81529081018790526022818401527f4c6567616c20636f6e747261637420616c726561647920696e697469616c697a604482015261195960f21b6064820152608490fd5b90508781813d8311610ca3575b610c94818361249d565b81010312610567575188610bb2565b503d610c8a565b86513d89823e3d90fd5b50602f6084928786519362461bcd60e51b85528401528201527f43616c6c6572206973206e6f74206f776e6572206f722077726170706564207360448201526e37b733903234b9ba3934b13aba37b960891b6064820152fd5b5082878260065416875192838092633aa690e760e01b825230888301525afa908115610caa579082918891610d46575b50163314610b81565b610d5d9150893d8b116109a757610998818361249d565b89610d3d565b8680fd5b8284346102ca5760a03660031901126102ca57610d8261228f565b50610d8b6122a5565b506001600160401b03906044358281116101f857610dac90369086016123c6565b50506064358281116101f857610dc590369086016123c6565b50506084359182116102ca5750602092610de1913691016123f6565b50505163bc197c8160e01b8152f35b5050346101f85760203660031901126101f857610e2590610e17610e1261228f565b612b6d565b91949293519485948561232f565b0390f35b905034610270578160031936011261027057610e4361228f565b60243591610e5660ff600e54161561258e565b6003546001600160a01b0392831692168203610ee95784916064602092865194859384926323b872dd60e01b845233908401523060248401528760448401525af1928315610ee05750610ebc92610eb4918591610ec2575b506125f2565b600a5461256b565b600a5580f35b610eda915060203d811161052b5761051b818361249d565b38610eae565b513d85823e3d90fd5b606490602085519162461bcd60e51b8352820152600d60248201526c24b73b30b634b2103a37b5b2b760991b6044820152fd5b9190503461027057602036600319011261027057610e259250610f3d61303e565b50610f488235612717565b5080549260018201549160028101549060038101549260018060a01b039101541692845195610f7687612423565b8652602086015283850152606084015260808301525191829182919091608060a0820193805183526020810151602084015260408101516040840152606081015160608401528160018060a01b0391015116910152565b839150346101f857826003193601126101f857610fe86122a5565b92610ff16124d9565b60018060a01b0391826002541694825163bd85b03960e01b815260028382015260209081816024818b5afa9081156110f45787916110c7575b5061108657508585963b156105955785928360449286519788958694639d3bc4bd60e01b86528035908601521660248401525af190811561107d575061106d5750f35b61107690612454565b6102ca5780f35b513d84823e3d90fd5b809150606493519262461bcd60e51b845283015260248201527f4275796f757420746f6b656e20616c726561647920696e697469616c697a65646044820152fd5b90508181813d83116110ed575b6110de818361249d565b8101031261056757518861102a565b503d6110d4565b85513d89823e3d90fd5b5050346101f857816003193601126101f857905490516001600160a01b039091168152602090f35b9190503461027057826003193601126102705761114860ff600e54161561258e565b60095490811561130c5760018060a01b038060025416600754835191829163bd85b03960e01b83528783015281602460209485935afa9081156113025787916112d5575b50611198811515613000565b670de0b6b3a76400008502670de0b6b3a763ffff19868204016112c257906111bf916127aa565b91600c549084516111cf81612423565b82815283810187815286820186815260608301914283526080840195338752600160401b8110156112ad5780600161120a9201600c55612717565b94909461129957518455516001840155516002830155516003820155915191870180546001600160a01b03191691909216179055600c54600019810195908611611286575082519384528301526001908201527f77841c1ae75de1a1c173cb7ffd7f1dc25d09aca1e636b17a232b67072624bab890606090a280f35b634e487b7160e01b875260119052602486fd5b60008c634e487b7160e01b82525260246000fd5b60418c634e487b7160e01b6000525260246000fd5b634e487b7160e01b885260118752602488fd5b90508181813d83116112fb575b6112ec818361249d565b8101031261056757513861118c565b503d6112e2565b84513d89823e3d90fd5b5162461bcd60e51b815260208184015260146024820152734e6f2045544820746f206469737472696275746560601b6044820152606490fd5b919050346102705760203660031901126102705761136161228f565b600254926001600160a01b039283851661139157505016906bffffffffffffffffffffffff60a01b161760025580f35b906020606492519162461bcd60e51b8352820152601360248201527215d4d51bdad95b88185b1c9958591e481cd95d606a1b6044820152fd5b83346102ca57806003193601126102ca576113e36124d9565b600080546001600160a01b0319811682556001600160a01b03167f8be0079c531659141344cd1fd0a4f28419497f9722a3daafe3b4186f6b6457e08280a380f35b919050346102705760209182600319360112610591578035916114456127fa565b61145460ff600e54161561258e565b6002546007548251627eeac760e11b8152338582019081526020810183905291946001600160a01b0390931692918790829081906040010381865afa9081156118f8578891611915575b5015801590611875575b6114b19061263d565b338752600b86526001958684892001908782549788600c546114d482821161267b565b821561184f57906114e491612630565b8082101561184857505b9490505b8996888a5b61165f575b505050851561161d5760095486116115db5750611519838761256b565b905561152784600954612630565b6009558680808087335af161153a6127ca565b50156115995750917f33508fa3c05f271d76112f2a1c190707f316b34540511262f6d62bff50a02854916115916115738695899761256b565b91519283923396846040919493926060820195825260208201520152565b0390a3805580f35b6104b990835191829162461bcd60e51b83528201606090602081526013602082015272115512081d1c985b9cd9995c8819985a5b1959606a1b60408201520190565b8260649186519162461bcd60e51b8352820152601d60248201527f496e73756666696369656e7420636f6e74726163742062616c616e63650000006044820152fd5b8260649186519162461bcd60e51b8352820152601860248201527f4e6f20455448206561726e696e677320746f20636c61696d00000000000000006044820152fd5b611669878b61256b565b8110156118435761168261167c82612717565b50612752565b6060818101518a51630c4db40d60e31b815233818b019081526020810187905260408101929092528f929091889183918291010381895afa91821561183857908e9695949392611807575b50806116e7575b50506116df906126b7565b9091926114f7565b909a9192939450898b016117066116ff825184612797565b92836127aa565b9051036117c457670de0b6b3a76400008691049a01518a11611781578961172c9161256b565b98891061173e57908a929138806116d4565b875162461bcd60e51b8152808701859052601860248201527f546f74616c20756e636c61696d6564206f766572666c6f7700000000000000006044820152606490fd5b885162461bcd60e51b8152808801869052601a60248201527f53686172652063616c63756c6174696f6e206f766572666c6f770000000000006044820152606490fd5b895162461bcd60e51b8152808901879052601760248201527f4d756c7469706c69636174696f6e206f766572666c6f770000000000000000006044820152606490fd5b809650878092503d8311611831575b611820818361249d565b81010312610567578c9451386116cd565b503d611816565b8b51903d90823e3d90fd5b6114fc565b90506114ee565b6118599250612630565b80603210600014611870575060325b9490506114f2565b611868565b506000194201428111611902578351630c4db40d60e31b815233838201908152602081018790526040810192909252908790829081906060010381865afa80156118f85788906118c9575b151590506114a8565b508681813d83116118f1575b6118df818361249d565b81010312610567576114b190516118c0565b503d6118d5565b84513d8a823e3d90fd5b634e487b7160e01b885260118252602488fd5b90508681813d831161193b575b61192c818361249d565b8101031261056757513861149e565b503d611922565b5050346101f85760203660031901126101f8576020906101f161196361228f565b612d14565b5050346101f857816003193601126101f85760065490516001600160a01b039091168152602090f35b5050346101f857816003193601126101f857602090600a549051908152f35b9050346102705782600319360112610270575490516001600160a01b03909116815260209150f35b5050346101f85760203660031901126101f857610e2590610e176119fa61228f565b61292a565b5050346101f857816003193601126101f8576020906009549051908152f35b9190503461027057602036600319011261027057610e259250611a3f61303e565b50610f4882356126c6565b5050346101f857816003193601126101f8576020906008549051908152f35b8383346101f8576020928360031936011261027057600254825163bd85b03960e01b81526001838201526001600160a01b03909116908581602481855afa908115611b72578591611b41575b50611aff57839450803b15611afa5760248492845195869384926339fa62df60e01b84528035908401525af190811561107d5750611af1575080f35b61025790612454565b505050fd5b5083606492519162461bcd60e51b8352820152601a60248201527f53686172657320616c726561647920696e697469616c697a65640000000000006044820152fd5b90508581813d8311611b6b575b611b58818361249d565b81010312611b67575186611ab5565b8480fd5b503d611b4e565b84513d87823e3d90fd5b5050346101f857816003193601126101f85760055490516001600160a01b039091168152602090f35b5050346101f857806003193601126101f857606090611bd3611bc561228f565b611bcd6122a5565b9061281d565b919290815193151584526020840152820152f35b5050346101f857816003193601126101f85760209060ff600e541690519015158152f35b91905034610270578260031936011261027057611c2d60ff600e54161561258e565b600a54908115611e4057600254600754825163bd85b03960e01b8152858101919091526020936001600160a01b039260249290869082908590829088165afa908115611e36578891611e05575b50611c86811515613000565b670de0b6b3a76400008202670de0b6b3a763ffff1983820401611df35790611cad916127aa565b600d54909390918215611dee576000198301838111611ddc57906001611cd5611cdd936126c6565b50015461256b565b855190611ce982612423565b83825287820190815286820186815260608301914283526080840195338752600160401b811015611dca57806001611d249201600d556126c6565b949094611db957518455516001840155516002830155516003820155915191870180546001600160a01b03191691909216179055600d54600019810195908611611da857505091846060927f77841c1ae75de1a1c173cb7ffd7f1dc25d09aca1e636b17a232b67072624bab894600a54938251948552840152820152a280600a5580f35b634e487b7160e01b87526011905285fd5b634e487b7160e01b8d528c8c52878dfd5b634e487b7160e01b8d5260418c52878dfd5b634e487b7160e01b8a5260118952848afd5b611cdd565b634e487b7160e01b8952601188528389fd5b90508581813d8311611e2f575b611e1c818361249d565b81010312611e2b575138611c7a565b8780fd5b503d611e12565b85513d8a823e3d90fd5b5162461bcd60e51b8152602081840152601d60248201527f4e6f206e6577206561726e696e677320746f20646973747269627574650000006044820152606490fd5b9050346102705760208060031936011261059157813591611ea16127fa565b611eb060ff600e54161561258e565b6002546007548551627eeac760e11b8152338185019081526020810183905291936001600160a01b0393841693929091908690829081906040010381875afa9081156121f257899161220f575b501580159061216b575b611f109061263d565b338852600b8552868820805496600d5490611f2c89831161267b565b801561216057611f3d905b8961256b565b908082101561215957505b938995885b868110612068575b505050841561202557839055600354875163a9059cbb60e01b815233928101928352602083018690529291869184918290036040019082908c9086165af194851561201b577f33508fa3c05f271d76112f2a1c190707f316b34540511262f6d62bff50a0285495611ff493611fd2928b92611ffe575b50506125f2565b6003541695519283923396846040919493926060820195825260208201520152565b0390a36001805580f35b6120149250803d1061052b5761051b818361249d565b3880611fcb565b87513d8a823e3d90fd5b875162461bcd60e51b8152808301879052601f60248201527f4e6f20737461626c65636f696e206561726e696e677320746f20636c61696d006044820152606490fd5b620186a05a1061214b578b8b61208061167c846126c6565b6060818101518351630c4db40d60e31b815233818c01908152602081018990526040810192909252918e91839182910103818a5afa9384156121405793612109575b50826120da575b5050506120d5906126b7565b611f4d565b6120f9612100936120d5959c93670de0b6b3a764000093015190612797565b049061256b565b97908b386120c9565b8c809294508193503d8311612139575b612123818361249d565b81010312612135578c905191386120c2565b8d80fd5b503d612119565b8351903d90823e3d90fd5b929550505092388080611f55565b9050611f48565b50611f3d6032611f37565b5060001942014281116121fc578751630c4db40d60e31b815233838201908152602081018790526040810192909252908690829081906060010381875afa80156121f25789906121bf575b15159050611f07565b508581813d83116121eb575b6121d5818361249d565b810103126121e757611f1090516121b6565b8880fd5b503d6121cb565b88513d8b823e3d90fd5b634e487b7160e01b895260118252602489fd5b90508581813d8311612235575b612226818361249d565b810103126121e7575138611efd565b503d61221c565b849134610270576020366003190112610270573563ffffffff60e01b81168091036102705760209250630271189760e51b811490811561227e575b5015158152f35b6301ffc9a760e01b14905083612277565b600435906001600160a01b038216820361056757565b602435906001600160a01b038216820361056757565b90815180825260208080930193019160005b8281106122db575050505090565b8351855293810193928101926001016122cd565b919082519283825260005b84811061231b575050826000602080949584010152601f8019910116010190565b6020818301810151848301820152016122fa565b92612357612348612365936080875260808701906122bb565b602094868203868801526122bb565b9084820360408601526122bb565b9160608184039101528251908183528083019281808460051b8301019501936000915b8483106123985750505050505090565b90919293949584806123b6600193601f198682030187528a516122ef565b9801930193019194939290612388565b9181601f84011215610567578235916001600160401b038311610567576020808501948460051b01011161056757565b9181601f84011215610567578235916001600160401b038311610567576020838186019501011161056757565b60a081019081106001600160401b0382111761243e57604052565b634e487b7160e01b600052604160045260246000fd5b6001600160401b03811161243e57604052565b604081019081106001600160401b0382111761243e57604052565b602081019081106001600160401b0382111761243e57604052565b90601f801991011681019081106001600160401b0382111761243e57604052565b6001600160401b03811161243e57601f01601f191660200190565b6000546001600160a01b031633036124ed57565b60405163118cdaa760e01b8152336004820152602490fd5b600080546001600160a01b039283166001600160a01b03198216811783559216907f8be0079c531659141344cd1fd0a4f28419497f9722a3daafe3b4186f6b6457e09080a3565b9081602091031261056757516001600160a01b03811681036105675790565b9190820180921161257857565b634e487b7160e01b600052601160045260246000fd5b1561259557565b60405162461bcd60e51b815260206004820152601a60248201527f436f6e747261637420686173206265656e206d696772617465640000000000006044820152606490fd5b90816020910312610567575180151581036105675790565b156125f957565b60405162461bcd60e51b815260206004820152600f60248201526e151c985b9cd9995c8819985a5b1959608a1b6044820152606490fd5b9190820391821161257857565b1561264457565b60405162461bcd60e51b815260206004820152600f60248201526e139bc81cda185c995cc81bdddb9959608a1b6044820152606490fd5b1561268257565b60405162461bcd60e51b815260206004820152600d60248201526c4e6f206e65772065706f63687360981b6044820152606490fd5b60001981146125785760010190565b600d5481101561270157600590600d600052027fd7b6990105719101dabeb77144f2a3385c8033acd3af97e9423a695e81ad1eb50190600090565b634e487b7160e01b600052603260045260246000fd5b600c5481101561270157600590600c600052027fdf6966c971051c3d54ec59162606531493a51404a002842f56009d7e5cf4a8c70190600090565b9060405161275f81612423565b825481526001830154602082015260028301546040820152600383015460608201526004909201546001600160a01b03166080830152565b8181029291811591840414171561257857565b81156127b4570490565b634e487b7160e01b600052601260045260246000fd5b3d156127f5573d906127db826124be565b916127e9604051938461249d565b82523d6000602084013e565b606090565b60026001541461280b576002600155565b604051633ee5aeb560e01b8152600490fd5b6001600160a01b039081166000908152600b6020526040812091909216159290831561287c5760010154925b156128735782600c545b81811161286257505081929190565b61286d929350612630565b60019291565b82600d54612853565b5492612849565b6001600160401b03811161243e5760051b60200190565b906128a482612883565b6128b1604051918261249d565b82815280926128c2601f1991612883565b0190602036910137565b906128d682612883565b6128e3604051918261249d565b82815280926128f4601f1991612883565b019060005b82811061290557505050565b8060606020809385010152016128f9565b80518210156127015760209160051b010190565b600254600754604051627eeac760e11b81526001600160a01b0384811660048301526024820183905293949284169391929190602081604481885afa908115612ae057600091612b3b575b5015612aec578416600052600b602052600160406000200154600c546129a361299e8383612630565b61289a565b916129b161299e8284612630565b966129bf61299e8385612630565b966129d26129cd8486612630565b6128cc565b96835b8581106129e85750505050505093929190565b6129f461167c82612717565b8051612a09612a038885612630565b8a612916565b526060810151604051630c4db40d60e31b81526001600160a01b0387166004820152602481018590526044810191909152602081606481885afa8015612ae0578d91600091612aaa575b5091606091612a89670de0b6b3a7640000612a77612aa59796604086015190612797565b0491612a838b87612630565b90612916565b520151612a9f612a998884612630565b8d612916565b526126b7565b6129d5565b91506020823d602011612ad8575b81612ac56020938361249d565b810103126102ca5750518c906060612a53565b3d9150612ab8565b6040513d6000823e3d90fd5b509250505060405190612afe82612482565b6000825260405191612b0f83612482565b6000835260405191612b2083612482565b6000835260405191612b3183612482565b6000835293929190565b906020823d602011612b65575b81612b556020938361249d565b810103126102ca57505138612975565b3d9150612b48565b600254600754604051627eeac760e11b81526001600160a01b0384811660048301526024820183905293949284169391929190602081604481885afa908115612ae057600091612ce2575b5015612aec578416600052600b602052604060002054600d54612bde61299e8383612630565b91612bec61299e8284612630565b96612bfa61299e8385612630565b96612c086129cd8486612630565b96835b858110612c1e5750505050505093929190565b612c2a61167c826126c6565b8051612c39612a038885612630565b526060810151604051630c4db40d60e31b81526001600160a01b0387166004820152602481018590526044810191909152602081606481885afa8015612ae0578d91600091612cac575b5091606091612a89670de0b6b3a7640000612a77612ca79796604086015190612797565b612c0b565b91506020823d602011612cda575b81612cc76020938361249d565b810103126102ca5750518c906060612c83565b3d9150612cba565b906020823d602011612d0c575b81612cfc6020938361249d565b810103126102ca57505138612bb8565b3d9150612cef565b60025460075460408051627eeac760e11b81526001600160a01b0385811660048084019190915260248301859052939594811694602094909290919085816044818a5afa908115612eb357600091612e86575b5015612e7a5782919694939216600052600b8352600182600020015495600c5494600097965b868810612d9f57505050505050505090565b9091929394959697612df3612db661167c8b612717565b6060818101518951630c4db40d60e31b81526001600160a01b038a16898201908152602081018990526040810192909252938b9285928392910190565b0381875afa918215612e6f57908891600093612e3b575b506120f9612e2993612e2f9593670de0b6b3a764000093015190612797565b986126b7565b96959493929190612d8d565b9150918982813d8311612e68575b612e53818361249d565b810103126102ca5750519087906120f9612e0a565b503d612e49565b88513d6000823e3d90fd5b50505050505050600090565b908682813d8311612eac575b612e9c818361249d565b810103126102ca57505138612d67565b503d612e92565b85513d6000823e3d90fd5b60025460075460408051627eeac760e11b81526001600160a01b0385811660048084019190915260248301859052939594811694602094909290919085816044818a5afa908115612eb357600091612fd3575b5015612e7a5782919694939216600052600b8352816000205495600d5494600097965b868810612f4657505050505050505090565b9091929394959697612f5d612db661167c8b6126c6565b0381875afa918215612e6f57908891600093612f9f575b506120f9612e2993612f939593670de0b6b3a764000093015190612797565b96959493929190612f34565b9150918982813d8311612fcc575b612fb7818361249d565b810103126102ca5750519087906120f9612f74565b503d612fad565b908682813d8311612ff9575b612fe9818361249d565b810103126102ca57505138612f11565b503d612fdf565b1561300757565b60405162461bcd60e51b815260206004820152600f60248201526e139bc81cda185c995cc8195e1a5cdd608a1b6044820152606490fd5b6040519061304b82612423565b6000608083828152826020820152826040820152826060820152015256fea26469706673582212202606a6aefb10e014a4880f22fbd8533cbb1b97c693bf80c9c132620dbc80fc2864736f6c63430008140033","opcodes":"PUSH1 0x80 DUP1 PUSH1 0x40 MSTORE CALLVALUE PUSH3 0x126 JUMPI CALLER ISZERO PUSH3 0x110 JUMPI PUSH1 0x0 DUP1 SLOAD CALLER PUSH1 0x1 PUSH1 0x1 PUSH1 0xA0 SHL SUB NOT DUP3 AND DUP2 OR DUP4 SSTORE PUSH1 0x40 MLOAD SWAP3 SWAP1 SWAP2 PUSH1 0x1 PUSH1 0x1 PUSH1 0xA0 SHL SUB AND SWAP1 PUSH32 0x8BE0079C531659141344CD1FD0A4F28419497F9722A3DAAFE3B4186F6B6457E0 SWAP1 DUP1 LOG3 PUSH1 0x1 DUP1 SSTORE PUSH32 0xF0C57E16840DF040F15088DC2F81FE391C3923BEC73E23A9662EFC9C229C6A00 SWAP1 DUP2 SLOAD SWAP1 PUSH1 0xFF DUP3 PUSH1 0x40 SHR AND PUSH3 0x101 JUMPI POP PUSH1 0x1 PUSH1 0x1 PUSH1 0x40 SHL SUB PUSH1 0x2 PUSH1 0x1 PUSH1 0x40 SHL SUB NOT DUP3 DUP3 AND ADD PUSH3 0xBB JUMPI JUMPDEST PUSH1 0x40 MLOAD PUSH2 0x309F SWAP1 DUP2 PUSH3 0x12C DUP3 CODECOPY RETURN JUMPDEST PUSH1 0x1 PUSH1 0x1 PUSH1 0x40 SHL SUB NOT SWAP1 SWAP2 AND DUP2 OR SWAP1 SWAP2 SSTORE PUSH1 0x40 MLOAD SWAP1 DUP2 MSTORE PUSH32 0xC7F505B2F371AE2175EE4913F4499E1F2633A7B5936321EED1CDAEB6115181D2 SWAP1 PUSH1 0x20 SWAP1 LOG1 DUP1 DUP1 DUP1 PUSH3 0xAB JUMP JUMPDEST PUSH4 0xF92EE8A9 PUSH1 0xE0 SHL DUP2 MSTORE PUSH1 0x4 SWAP1 REVERT JUMPDEST PUSH4 0x1E4FBDF7 PUSH1 0xE0 SHL DUP2 MSTORE PUSH1 0x0 PUSH1 0x4 DUP3 ADD MSTORE PUSH1 0x24 SWAP1 REVERT JUMPDEST PUSH1 0x0 DUP1 REVERT INVALID PUSH1 0x80 PUSH1 0x40 DUP2 DUP2 MSTORE PUSH1 0x4 SWAP2 DUP3 CALLDATASIZE LT ISZERO PUSH2 0x31 JUMPI JUMPDEST POP POP POP CALLDATASIZE ISZERO PUSH2 0x20 JUMPI PUSH1 0x0 DUP1 REVERT JUMPDEST PUSH2 0x2C CALLVALUE PUSH1 0x9 SLOAD PUSH2 0x256B JUMP JUMPDEST PUSH1 0x9 SSTORE STOP JUMPDEST PUSH1 0x0 SWAP3 DUP4 CALLDATALOAD PUSH1 0xE0 SHR SWAP2 DUP3 PUSH4 0x1FFC9A7 EQ PUSH2 0x223C JUMPI POP DUP2 PUSH4 0xA1C35A4 EQ PUSH2 0x1E82 JUMPI DUP2 PUSH4 0x2514A5FB EQ PUSH2 0x1C0B JUMPI DUP2 PUSH4 0x2C678C64 EQ PUSH2 0x1BE7 JUMPI DUP2 PUSH4 0x2CC6D17B EQ PUSH2 0x1BA5 JUMPI DUP2 PUSH4 0x3684D100 EQ PUSH2 0x1B7C JUMPI DUP2 PUSH4 0x39FA62DF EQ PUSH2 0x1A69 JUMPI DUP2 PUSH4 0x43D0B50F EQ PUSH2 0x1A4A JUMPI DUP2 PUSH4 0x4C2B957A EQ PUSH2 0x1A1E JUMPI DUP2 PUSH4 0x4E6630B0 EQ PUSH2 0x19FF JUMPI DUP2 PUSH4 0x51BCECE2 EQ PUSH2 0x19D8 JUMPI DUP2 PUSH4 0x5C42E667 EQ PUSH2 0x19B0 JUMPI DUP2 PUSH4 0x5D152B36 EQ PUSH2 0x1991 JUMPI DUP2 PUSH4 0x65BB98B5 EQ PUSH2 0x1968 JUMPI DUP2 PUSH4 0x6AB415C1 EQ PUSH2 0x1942 JUMPI DUP2 PUSH4 0x6D4645FD EQ PUSH2 0x1424 JUMPI DUP2 PUSH4 0x715018A6 EQ PUSH2 0x13CA JUMPI DUP2 PUSH4 0x716F6E87 EQ PUSH2 0x1345 JUMPI DUP2 PUSH4 0x82D5195C EQ PUSH2 0x1126 JUMPI DUP2 PUSH4 0x8DA5CB5B EQ PUSH2 0x10FE JUMPI DUP2 PUSH4 0x9A5CB99D EQ PUSH2 0x2F6 JUMPI DUP2 PUSH4 0x9D3BC4BD EQ PUSH2 0xFCD JUMPI DUP2 PUSH4 0xA2440FD5 EQ PUSH2 0xF1C JUMPI DUP2 PUSH4 0xAED4AAB6 EQ PUSH2 0xE29 JUMPI DUP2 PUSH4 0xB40B5E82 EQ PUSH2 0xDF0 JUMPI DUP2 PUSH4 0xBC197C81 EQ PUSH2 0xD67 JUMPI DUP2 PUSH4 0xBCB7130D EQ PUSH2 0xB00 JUMPI DUP2 PUSH4 0xC0C53B8B EQ PUSH2 0x76F JUMPI DUP2 PUSH4 0xC45F497E EQ PUSH2 0x707 JUMPI DUP2 PUSH4 0xD70A0ABC EQ PUSH2 0x31F JUMPI DUP2 PUSH4 0xDF5AFD2A EQ PUSH2 0x2F6 JUMPI DUP2 PUSH4 0xE9CBD822 EQ PUSH2 0x2CD JUMPI DUP2 PUSH4 0xF23A6E61 EQ PUSH2 0x274 JUMPI DUP2 PUSH4 0xF2FDE38B EQ PUSH2 0x21A JUMPI POP DUP1 PUSH4 0xF3BAA17F EQ PUSH2 0x1FC JUMPI PUSH4 0xFCD9B139 EQ PUSH2 0x1CD JUMPI DUP1 PUSH2 0x12 JUMP JUMPDEST CALLVALUE PUSH2 0x1F8 JUMPI PUSH1 0x20 CALLDATASIZE PUSH1 0x3 NOT ADD SLT PUSH2 0x1F8 JUMPI PUSH1 0x20 SWAP1 PUSH2 0x1F1 PUSH2 0x1EC PUSH2 0x228F JUMP JUMPDEST PUSH2 0x2EBE JUMP JUMPDEST SWAP1 MLOAD SWAP1 DUP2 MSTORE RETURN JUMPDEST POP DUP1 REVERT JUMPDEST POP CALLVALUE PUSH2 0x1F8 JUMPI DUP2 PUSH1 0x3 NOT CALLDATASIZE ADD SLT PUSH2 0x1F8 JUMPI PUSH1 0x20 SWAP1 PUSH1 0x7 SLOAD SWAP1 MLOAD SWAP1 DUP2 MSTORE RETURN JUMPDEST SWAP1 POP CALLVALUE PUSH2 0x270 JUMPI PUSH1 0x20 CALLDATASIZE PUSH1 0x3 NOT ADD SLT PUSH2 0x270 JUMPI PUSH2 0x235 PUSH2 0x228F JUMP JUMPDEST SWAP2 PUSH2 0x23E PUSH2 0x24D9 JUMP JUMPDEST PUSH1 0x1 PUSH1 0x1 PUSH1 0xA0 SHL SUB DUP4 AND ISZERO PUSH2 0x25A JUMPI DUP4 PUSH2 0x257 DUP5 PUSH2 0x2505 JUMP JUMPDEST DUP1 RETURN JUMPDEST MLOAD PUSH4 0x1E4FBDF7 PUSH1 0xE0 SHL DUP2 MSTORE SWAP1 DUP2 ADD DUP4 SWAP1 MSTORE PUSH1 0x24 SWAP1 REVERT JUMPDEST DUP3 DUP1 REVERT JUMPDEST DUP3 DUP5 CALLVALUE PUSH2 0x2CA JUMPI PUSH1 0xA0 CALLDATASIZE PUSH1 0x3 NOT ADD SLT PUSH2 0x2CA JUMPI PUSH2 0x28F PUSH2 0x228F JUMP JUMPDEST POP PUSH2 0x298 PUSH2 0x22A5 JUMP JUMPDEST POP PUSH1 0x84 CALLDATALOAD SWAP1 PUSH1 0x1 PUSH1 0x1 PUSH1 0x40 SHL SUB DUP3 GT PUSH2 0x2CA JUMPI POP PUSH1 0x20 SWAP3 PUSH2 0x2BB SWAP2 CALLDATASIZE SWAP2 ADD PUSH2 0x23F6 JUMP JUMPDEST POP POP MLOAD PUSH4 0xF23A6E61 PUSH1 0xE0 SHL DUP2 MSTORE RETURN JUMPDEST DUP1 REVERT JUMPDEST POP POP CALLVALUE PUSH2 0x1F8 JUMPI DUP2 PUSH1 0x3 NOT CALLDATASIZE ADD SLT PUSH2 0x1F8 JUMPI PUSH1 0x3 SLOAD SWAP1 MLOAD PUSH1 0x1 PUSH1 0x1 PUSH1 0xA0 SHL SUB SWAP1 SWAP2 AND DUP2 MSTORE PUSH1 0x20 SWAP1 RETURN JUMPDEST POP POP CALLVALUE PUSH2 0x1F8 JUMPI DUP2 PUSH1 0x3 NOT CALLDATASIZE ADD SLT PUSH2 0x1F8 JUMPI PUSH1 0x2 SLOAD SWAP1 MLOAD PUSH1 0x1 PUSH1 0x1 PUSH1 0xA0 SHL SUB SWAP1 SWAP2 AND DUP2 MSTORE PUSH1 0x20 SWAP1 RETURN JUMPDEST SWAP1 POP CALLVALUE PUSH2 0x270 JUMPI DUP2 PUSH1 0x3 NOT CALLDATASIZE ADD SLT PUSH2 0x270 JUMPI PUSH2 0x339 PUSH2 0x228F JUMP JUMPDEST SWAP2 PUSH2 0x342 PUSH2 0x22A5 JUMP JUMPDEST PUSH1 0xE SLOAD PUSH1 0xFF DUP2 AND PUSH2 0x6C4 JUMPI PUSH1 0x1 PUSH1 0x1 PUSH1 0xA0 SHL SUB DUP3 DUP2 AND SWAP6 DUP7 ISZERO PUSH2 0x681 JUMPI DUP2 AND DUP1 ISZERO PUSH2 0x63E JUMPI DUP2 PUSH1 0x2 SLOAD AND SWAP1 DUP2 ISZERO PUSH2 0x5FB JUMPI DUP3 DUP8 SLOAD AND SWAP4 DUP7 MLOAD DUP1 SWAP6 PUSH4 0x66D0EAD3 PUSH1 0xE0 SHL DUP3 MSTORE CALLER DUP11 DUP4 ADD MSTORE DUP2 PUSH1 0x24 PUSH1 0x20 SWAP9 DUP10 SWAP4 GAS STATICCALL SWAP1 DUP2 ISZERO PUSH2 0x5F1 JUMPI DUP12 SWAP2 PUSH2 0x5D4 JUMPI JUMPDEST POP ISZERO PUSH2 0x599 JUMPI PUSH1 0xFF NOT AND PUSH1 0x1 OR PUSH1 0xE SSTORE DUP9 SWAP5 SWAP4 SWAP3 SWAP2 SWAP1 DUP2 EXTCODESIZE ISZERO PUSH2 0x595 JUMPI DUP6 SWAP2 PUSH1 0x44 DUP4 SWAP3 DUP10 MLOAD SWAP5 DUP6 SWAP4 DUP5 SWAP3 PUSH4 0x35C282AF PUSH1 0xE2 SHL DUP5 MSTORE DUP14 DUP5 ADD MSTORE DUP14 PUSH1 0x24 DUP5 ADD MSTORE GAS CALL DUP1 ISZERO PUSH2 0x573 JUMPI SWAP1 DUP6 SWAP2 PUSH2 0x57D JUMPI JUMPDEST POP POP PUSH1 0x3 SLOAD DUP6 MLOAD PUSH4 0x70A08231 PUSH1 0xE0 SHL DUP2 MSTORE ADDRESS DUP9 DUP3 ADD MSTORE SWAP2 AND DUP3 DUP3 PUSH1 0x24 DUP2 DUP5 GAS STATICCALL SWAP2 DUP3 ISZERO PUSH2 0x573 JUMPI DUP6 SWAP3 PUSH2 0x53C JUMPI JUMPDEST POP DUP2 PUSH2 0x4BD JUMPI JUMPDEST POP POP POP SELFBALANCE DUP1 PUSH2 0x459 JUMPI JUMPDEST DUP3 DUP7 PUSH32 0x63A3A6504840FCE1914D082B35C1578E92684E2412633097B92ACCE038D2B1EE DUP3 DUP1 LOG2 DUP1 RETURN JUMPDEST DUP3 DUP1 SWAP3 SWAP2 DUP2 SWAP3 GAS CALL PUSH2 0x469 PUSH2 0x27CA JUMP JUMPDEST POP ISZERO PUSH2 0x477 JUMPI DUP4 DUP2 DUP1 PUSH2 0x430 JUMP JUMPDEST PUSH2 0x4B9 SWAP3 POP MLOAD SWAP2 DUP3 SWAP2 PUSH3 0x461BCD PUSH1 0xE5 SHL DUP4 MSTORE DUP3 ADD PUSH1 0x60 SWAP1 PUSH1 0x20 DUP2 MSTORE PUSH1 0x13 PUSH1 0x20 DUP3 ADD MSTORE PUSH19 0x115512081D1C985B9CD9995C8819985A5B1959 PUSH1 0x6A SHL PUSH1 0x40 DUP3 ADD MSTORE ADD SWAP1 JUMP JUMPDEST SUB SWAP1 REVERT JUMPDEST DUP6 MLOAD PUSH4 0xA9059CBB PUSH1 0xE0 SHL DUP2 MSTORE PUSH1 0x1 PUSH1 0x1 PUSH1 0xA0 SHL SUB DUP6 AND DUP2 DUP10 ADD SWAP1 DUP2 MSTORE PUSH1 0x20 DUP2 ADD SWAP4 SWAP1 SWAP4 MSTORE SWAP2 DUP4 SWAP2 DUP4 SWAP2 DUP3 SWAP1 DUP9 SWAP1 DUP3 SWAP1 PUSH1 0x40 ADD SUB SWAP3 GAS CALL DUP1 ISZERO PUSH2 0x532 JUMPI PUSH2 0x504 JUMPI JUMPDEST DUP1 PUSH2 0x426 JUMP JUMPDEST DUP2 PUSH2 0x523 SWAP3 SWAP1 RETURNDATASIZE LT PUSH2 0x52B JUMPI JUMPDEST PUSH2 0x51B DUP2 DUP4 PUSH2 0x249D JUMP JUMPDEST DUP2 ADD SWAP1 PUSH2 0x25DA JUMP JUMPDEST POP CODESIZE DUP1 PUSH2 0x4FE JUMP JUMPDEST POP RETURNDATASIZE PUSH2 0x511 JUMP JUMPDEST DUP6 MLOAD RETURNDATASIZE DUP7 DUP3 RETURNDATACOPY RETURNDATASIZE SWAP1 REVERT JUMPDEST SWAP5 POP SWAP1 POP DUP2 DUP5 DUP2 RETURNDATASIZE DUP2 GT PUSH2 0x56C JUMPI JUMPDEST PUSH2 0x555 DUP2 DUP4 PUSH2 0x249D JUMP JUMPDEST DUP2 ADD SUB SLT PUSH2 0x567 JUMPI DUP8 SWAP4 MLOAD SWAP1 CODESIZE PUSH2 0x41F JUMP JUMPDEST PUSH1 0x0 DUP1 REVERT JUMPDEST POP RETURNDATASIZE PUSH2 0x54B JUMP JUMPDEST DUP7 MLOAD RETURNDATASIZE DUP8 DUP3 RETURNDATACOPY RETURNDATASIZE SWAP1 REVERT JUMPDEST PUSH2 0x586 SWAP1 PUSH2 0x2454 JUMP JUMPDEST PUSH2 0x591 JUMPI DUP4 CODESIZE PUSH2 0x3F1 JUMP JUMPDEST DUP4 DUP1 REVERT JUMPDEST DUP6 DUP1 REVERT JUMPDEST DUP7 MLOAD PUSH3 0x461BCD PUSH1 0xE5 SHL DUP2 MSTORE DUP1 DUP10 ADD DUP7 SWAP1 MSTORE PUSH1 0x15 PUSH1 0x24 DUP3 ADD MSTORE PUSH21 0x10D85B1B195C881B9BDD08185D5D1A1BDC9A5E9959 PUSH1 0x5A SHL PUSH1 0x44 DUP3 ADD MSTORE PUSH1 0x64 SWAP1 REVERT JUMPDEST PUSH2 0x5EB SWAP2 POP DUP7 RETURNDATASIZE DUP9 GT PUSH2 0x52B JUMPI PUSH2 0x51B DUP2 DUP4 PUSH2 0x249D JUMP JUMPDEST CODESIZE PUSH2 0x3A3 JUMP JUMPDEST DUP9 MLOAD RETURNDATASIZE DUP14 DUP3 RETURNDATACOPY RETURNDATASIZE SWAP1 REVERT JUMPDEST DUP6 MLOAD PUSH3 0x461BCD PUSH1 0xE5 SHL DUP2 MSTORE PUSH1 0x20 DUP2 DUP10 ADD MSTORE PUSH1 0x19 PUSH1 0x24 DUP3 ADD MSTORE PUSH32 0x5753546F6B656E4D616E6167656D656E74206E6F742073657400000000000000 PUSH1 0x44 DUP3 ADD MSTORE PUSH1 0x64 SWAP1 REVERT JUMPDEST DUP5 MLOAD PUSH3 0x461BCD PUSH1 0xE5 SHL DUP2 MSTORE PUSH1 0x20 DUP2 DUP9 ADD MSTORE PUSH1 0x18 PUSH1 0x24 DUP3 ADD MSTORE PUSH32 0x496E76616C6964206D6574616461746120616464726573730000000000000000 PUSH1 0x44 DUP3 ADD MSTORE PUSH1 0x64 SWAP1 REVERT JUMPDEST DUP5 MLOAD PUSH3 0x461BCD PUSH1 0xE5 SHL DUP2 MSTORE PUSH1 0x20 DUP2 DUP9 ADD DUP2 SWAP1 MSTORE PUSH1 0x24 DUP3 ADD MSTORE PUSH32 0x496E76616C6964206E6577207772617070656420736F6E672061646472657373 PUSH1 0x44 DUP3 ADD MSTORE PUSH1 0x64 SWAP1 REVERT JUMPDEST DUP3 MLOAD PUSH3 0x461BCD PUSH1 0xE5 SHL DUP2 MSTORE PUSH1 0x20 DUP2 DUP7 ADD MSTORE PUSH1 0x19 PUSH1 0x24 DUP3 ADD MSTORE PUSH32 0x436F6E747261637420616C7265616479206D6967726174656400000000000000 PUSH1 0x44 DUP3 ADD MSTORE PUSH1 0x64 SWAP1 REVERT JUMPDEST POP POP CALLVALUE PUSH2 0x1F8 JUMPI PUSH1 0x20 CALLDATASIZE PUSH1 0x3 NOT ADD SLT PUSH2 0x1F8 JUMPI DUP1 SWAP2 PUSH2 0x724 PUSH2 0x228F JUMP JUMPDEST DUP2 PUSH1 0x20 DUP5 MLOAD PUSH2 0x732 DUP2 PUSH2 0x2467 JUMP JUMPDEST DUP3 DUP2 MSTORE ADD MSTORE PUSH1 0x1 DUP1 PUSH1 0xA0 SHL SUB AND DUP2 MSTORE PUSH1 0xB PUSH1 0x20 MSTORE KECCAK256 PUSH1 0x1 DUP2 SLOAD SWAP2 ADD SLOAD PUSH1 0x20 DUP4 MLOAD PUSH2 0x75B DUP2 PUSH2 0x2467 JUMP JUMPDEST DUP4 DUP2 MSTORE ADD SWAP1 DUP2 MSTORE DUP3 MLOAD SWAP2 DUP3 MSTORE MLOAD PUSH1 0x20 DUP3 ADD MSTORE RETURN JUMPDEST SWAP2 SWAP1 POP CALLVALUE PUSH2 0x270 JUMPI PUSH1 0x60 CALLDATASIZE PUSH1 0x3 NOT ADD SLT PUSH2 0x270 JUMPI PUSH2 0x78B PUSH2 0x228F JUMP JUMPDEST SWAP1 PUSH2 0x794 PUSH2 0x22A5 JUMP JUMPDEST PUSH1 0x1 PUSH1 0x1 PUSH1 0xA0 SHL SUB SWAP4 PUSH1 0x44 CALLDATALOAD DUP6 DUP2 AND SWAP5 SWAP3 SWAP2 SWAP1 DUP6 SWAP1 SUB PUSH2 0x567 JUMPI PUSH32 0xF0C57E16840DF040F15088DC2F81FE391C3923BEC73E23A9662EFC9C229C6A00 SWAP6 DUP7 SLOAD SWAP4 PUSH1 0xFF DUP6 DUP8 SHR AND ISZERO SWAP5 PUSH1 0x1 PUSH1 0x1 PUSH1 0x40 SHL SUB DUP2 AND DUP1 ISZERO SWAP1 DUP2 PUSH2 0xAF8 JUMPI JUMPDEST PUSH1 0x1 EQ SWAP1 DUP2 PUSH2 0xAEE JUMPI JUMPDEST ISZERO SWAP1 DUP2 PUSH2 0xAE5 JUMPI JUMPDEST POP PUSH2 0xAD5 JUMPI PUSH8 0xFFFFFFFFFFFFFFFF NOT DUP2 AND PUSH1 0x1 OR DUP10 SSTORE DUP6 PUSH2 0xAB6 JUMPI JUMPDEST POP DUP7 ISZERO PUSH2 0xA73 JUMPI DUP2 AND SWAP3 DUP4 ISZERO PUSH2 0xA30 JUMPI DUP2 DUP2 AND ISZERO PUSH2 0x9F5 JUMPI DUP3 SLOAD PUSH1 0x1 PUSH1 0x1 PUSH1 0xA0 SHL SUB NOT DUP1 DUP3 AND DUP10 OR DUP6 SSTORE DUP8 MLOAD PUSH3 0x3684D1 PUSH1 0xE8 SHL DUP2 MSTORE PUSH1 0x20 SWAP10 SWAP2 SWAP6 SWAP2 SWAP3 DUP13 SWAP2 DUP12 DUP2 DUP6 DUP2 DUP9 GAS STATICCALL SWAP1 DUP2 ISZERO PUSH2 0x9EB JUMPI SWAP2 DUP8 DUP6 SWAP3 DUP6 SWAP5 DUP16 SWAP7 SWAP2 PUSH2 0x9AE JUMPI JUMPDEST POP AND DUP10 PUSH1 0x5 SLOAD AND OR PUSH1 0x5 SSTORE DUP12 MLOAD SWAP6 DUP7 SWAP4 DUP5 SWAP3 PUSH4 0x670D2969 PUSH1 0xE1 SHL DUP5 MSTORE AND OR GAS STATICCALL SWAP2 DUP3 ISZERO PUSH2 0x5F1 JUMPI SWAP2 DUP10 SWAP2 DUP6 SWAP4 DUP14 SWAP3 PUSH2 0x97F JUMPI JUMPDEST POP DUP10 MLOAD PUSH4 0x65BB98B5 PUSH1 0xE0 SHL DUP2 MSTORE SWAP6 DUP7 SWAP3 DUP4 SWAP2 AND GAS STATICCALL DUP1 ISZERO PUSH2 0x975 JUMPI DUP11 SWAP1 PUSH2 0x937 JUMPI JUMPDEST PUSH2 0x8DF SWAP4 POP AND DUP4 PUSH1 0x6 SLOAD AND OR PUSH1 0x6 SSTORE PUSH2 0x2505 JUMP JUMPDEST PUSH1 0x3 SLOAD AND OR PUSH1 0x3 SSTORE DUP5 PUSH1 0x8 SSTORE PUSH1 0x1 PUSH1 0x7 SSTORE PUSH2 0x8F8 JUMPI DUP4 DUP1 RETURN JUMPDEST PUSH32 0xC7F505B2F371AE2175EE4913F4499E1F2633A7B5936321EED1CDAEB6115181D2 SWAP3 PUSH9 0xFF0000000000000000 NOT DUP2 SLOAD AND SWAP1 SSTORE MLOAD PUSH1 0x1 DUP2 MSTORE LOG1 CODESIZE DUP1 DUP1 DUP4 DUP1 RETURN JUMPDEST POP SWAP2 DUP8 DUP2 DUP2 RETURNDATASIZE DUP4 GT PUSH2 0x96E JUMPI JUMPDEST PUSH2 0x94E DUP2 DUP4 PUSH2 0x249D JUMP JUMPDEST DUP2 ADD SUB SLT PUSH2 0x96A JUMPI MLOAD SWAP2 DUP1 DUP4 AND DUP4 SUB PUSH2 0x96A JUMPI PUSH2 0x8DF SWAP3 PUSH2 0x8CB JUMP JUMPDEST DUP10 DUP1 REVERT JUMPDEST POP RETURNDATASIZE PUSH2 0x944 JUMP JUMPDEST DUP8 MLOAD RETURNDATASIZE DUP13 DUP3 RETURNDATACOPY RETURNDATASIZE SWAP1 REVERT JUMPDEST PUSH2 0x9A0 SWAP2 SWAP3 POP DUP4 RETURNDATASIZE DUP6 GT PUSH2 0x9A7 JUMPI JUMPDEST PUSH2 0x998 DUP2 DUP4 PUSH2 0x249D JUMP JUMPDEST DUP2 ADD SWAP1 PUSH2 0x254C JUMP JUMPDEST SWAP1 CODESIZE PUSH2 0x8A9 JUMP JUMPDEST POP RETURNDATASIZE PUSH2 0x98E JUMP JUMPDEST SWAP4 POP POP POP SWAP3 DUP2 DUP2 RETURNDATASIZE DUP4 GT PUSH2 0x9E4 JUMPI JUMPDEST PUSH2 0x9C7 DUP2 DUP4 PUSH2 0x249D JUMP JUMPDEST DUP2 ADD SUB SLT PUSH2 0x1F8 JUMPI MLOAD DUP7 DUP2 AND DUP2 SUB PUSH2 0x1F8 JUMPI DUP12 SWAP3 DUP8 DUP6 SWAP3 CODESIZE PUSH2 0x876 JUMP JUMPDEST POP RETURNDATASIZE PUSH2 0x9BD JUMP JUMPDEST DUP12 MLOAD RETURNDATASIZE DUP6 DUP3 RETURNDATACOPY RETURNDATASIZE SWAP1 REVERT JUMPDEST DUP6 MLOAD PUSH3 0x461BCD PUSH1 0xE5 SHL DUP2 MSTORE PUSH1 0x20 DUP2 DUP6 ADD MSTORE PUSH1 0x15 PUSH1 0x24 DUP3 ADD MSTORE PUSH21 0x496E76616C6964206F776E65722061646472657373 PUSH1 0x58 SHL PUSH1 0x44 DUP3 ADD MSTORE PUSH1 0x64 SWAP1 REVERT JUMPDEST DUP6 MLOAD PUSH3 0x461BCD PUSH1 0xE5 SHL DUP2 MSTORE PUSH1 0x20 DUP2 DUP6 ADD MSTORE PUSH1 0x1A PUSH1 0x24 DUP3 ADD MSTORE PUSH32 0x496E76616C696420737461626C65636F696E2061646472657373000000000000 PUSH1 0x44 DUP3 ADD MSTORE PUSH1 0x64 SWAP1 REVERT JUMPDEST DUP6 MLOAD PUSH3 0x461BCD PUSH1 0xE5 SHL DUP2 MSTORE PUSH1 0x20 DUP2 DUP6 ADD MSTORE PUSH1 0x1F PUSH1 0x24 DUP3 ADD MSTORE PUSH32 0x496E76616C69642070726F746F636F6C206D6F64756C65206164647265737300 PUSH1 0x44 DUP3 ADD MSTORE PUSH1 0x64 SWAP1 REVERT JUMPDEST PUSH9 0xFFFFFFFFFFFFFFFFFF NOT AND PUSH9 0x10000000000000001 OR DUP9 SSTORE CODESIZE PUSH2 0x81C JUMP JUMPDEST DUP7 MLOAD PUSH4 0xF92EE8A9 PUSH1 0xE0 SHL DUP2 MSTORE DUP5 SWAP1 REVERT JUMPDEST SWAP1 POP ISZERO CODESIZE PUSH2 0x800 JUMP JUMPDEST ADDRESS EXTCODESIZE ISZERO SWAP2 POP PUSH2 0x7F8 JUMP JUMPDEST DUP8 SWAP2 POP PUSH2 0x7EE JUMP JUMPDEST DUP4 DUP4 CALLVALUE PUSH2 0x1F8 JUMPI PUSH1 0x20 SWAP3 DUP4 PUSH1 0x3 NOT CALLDATASIZE ADD SLT PUSH2 0x270 JUMPI DUP1 CALLDATALOAD PUSH1 0x1 PUSH1 0x1 PUSH1 0x40 SHL SUB DUP2 GT PUSH2 0x591 JUMPI CALLDATASIZE PUSH1 0x23 DUP3 ADD SLT ISZERO PUSH2 0x591 JUMPI DUP1 DUP3 ADD CALLDATALOAD SWAP2 PUSH2 0xB3E DUP4 PUSH2 0x24BE JUMP JUMPDEST SWAP3 PUSH2 0xB4B DUP6 MLOAD SWAP5 DUP6 PUSH2 0x249D JUMP JUMPDEST DUP1 DUP5 MSTORE PUSH1 0x24 SWAP3 CALLDATASIZE DUP5 DUP4 DUP4 ADD ADD GT PUSH2 0xD63 JUMPI DUP2 DUP8 SWAP3 DUP6 DUP11 SWAP4 ADD DUP4 DUP9 ADD CALLDATACOPY DUP6 ADD ADD MSTORE DUP5 SLOAD PUSH1 0x1 PUSH1 0x1 PUSH1 0xA0 SHL SUB SWAP1 DUP2 AND CALLER EQ DUP1 ISZERO PUSH2 0xD0D JUMPI JUMPDEST ISZERO PUSH2 0xCB4 JUMPI PUSH1 0x2 SLOAD AND SWAP1 DUP5 MLOAD PUSH4 0xBD85B039 PUSH1 0xE0 SHL DUP2 MSTORE PUSH1 0x3 DUP3 DUP3 ADD MSTORE DUP8 DUP2 DUP6 DUP2 DUP7 GAS STATICCALL SWAP1 DUP2 ISZERO PUSH2 0xCAA JUMPI DUP8 SWAP2 PUSH2 0xC7D JUMPI JUMPDEST POP PUSH2 0xC30 JUMPI SWAP1 DUP7 DUP7 DUP2 SWAP5 SWAP4 PUSH2 0xBDE DUP9 MLOAD SWAP8 DUP9 SWAP7 DUP8 SWAP6 DUP7 SWAP5 PUSH4 0xBCB7130D PUSH1 0xE0 SHL DUP7 MSTORE DUP6 ADD MSTORE DUP4 ADD SWAP1 PUSH2 0x22EF JUMP JUMPDEST SUB SWAP3 GAS CALL SWAP3 DUP4 ISZERO PUSH2 0xC25 JUMPI SWAP3 PUSH2 0xBF6 JUMPI JUMPDEST POP MLOAD SWAP1 DUP2 MSTORE RETURN JUMPDEST SWAP1 SWAP2 POP DUP3 DUP2 DUP2 RETURNDATASIZE DUP4 GT PUSH2 0xC1E JUMPI JUMPDEST PUSH2 0xC0E DUP2 DUP4 PUSH2 0x249D JUMP JUMPDEST DUP2 ADD SUB SLT PUSH2 0x567 JUMPI MLOAD SWAP1 DUP4 PUSH2 0xBEF JUMP JUMPDEST POP RETURNDATASIZE PUSH2 0xC04 JUMP JUMPDEST DUP3 MLOAD SWAP1 RETURNDATASIZE SWAP1 DUP3 RETURNDATACOPY RETURNDATASIZE SWAP1 REVERT JUMPDEST DUP5 MLOAD PUSH3 0x461BCD PUSH1 0xE5 SHL DUP2 MSTORE SWAP1 DUP2 ADD DUP8 SWAP1 MSTORE PUSH1 0x22 DUP2 DUP5 ADD MSTORE PUSH32 0x4C6567616C20636F6E747261637420616C726561647920696E697469616C697A PUSH1 0x44 DUP3 ADD MSTORE PUSH2 0x1959 PUSH1 0xF2 SHL PUSH1 0x64 DUP3 ADD MSTORE PUSH1 0x84 SWAP1 REVERT JUMPDEST SWAP1 POP DUP8 DUP2 DUP2 RETURNDATASIZE DUP4 GT PUSH2 0xCA3 JUMPI JUMPDEST PUSH2 0xC94 DUP2 DUP4 PUSH2 0x249D JUMP JUMPDEST DUP2 ADD SUB SLT PUSH2 0x567 JUMPI MLOAD DUP9 PUSH2 0xBB2 JUMP JUMPDEST POP RETURNDATASIZE PUSH2 0xC8A JUMP JUMPDEST DUP7 MLOAD RETURNDATASIZE DUP10 DUP3 RETURNDATACOPY RETURNDATASIZE SWAP1 REVERT JUMPDEST POP PUSH1 0x2F PUSH1 0x84 SWAP3 DUP8 DUP7 MLOAD SWAP4 PUSH3 0x461BCD PUSH1 0xE5 SHL DUP6 MSTORE DUP5 ADD MSTORE DUP3 ADD MSTORE PUSH32 0x43616C6C6572206973206E6F74206F776E6572206F7220777261707065642073 PUSH1 0x44 DUP3 ADD MSTORE PUSH15 0x37B733903234B9BA3934B13ABA37B9 PUSH1 0x89 SHL PUSH1 0x64 DUP3 ADD MSTORE REVERT JUMPDEST POP DUP3 DUP8 DUP3 PUSH1 0x6 SLOAD AND DUP8 MLOAD SWAP3 DUP4 DUP1 SWAP3 PUSH4 0x3AA690E7 PUSH1 0xE0 SHL DUP3 MSTORE ADDRESS DUP9 DUP4 ADD MSTORE GAS STATICCALL SWAP1 DUP2 ISZERO PUSH2 0xCAA JUMPI SWAP1 DUP3 SWAP2 DUP9 SWAP2 PUSH2 0xD46 JUMPI JUMPDEST POP AND CALLER EQ PUSH2 0xB81 JUMP JUMPDEST PUSH2 0xD5D SWAP2 POP DUP10 RETURNDATASIZE DUP12 GT PUSH2 0x9A7 JUMPI PUSH2 0x998 DUP2 DUP4 PUSH2 0x249D JUMP JUMPDEST DUP10 PUSH2 0xD3D JUMP JUMPDEST DUP7 DUP1 REVERT JUMPDEST DUP3 DUP5 CALLVALUE PUSH2 0x2CA JUMPI PUSH1 0xA0 CALLDATASIZE PUSH1 0x3 NOT ADD SLT PUSH2 0x2CA JUMPI PUSH2 0xD82 PUSH2 0x228F JUMP JUMPDEST POP PUSH2 0xD8B PUSH2 0x22A5 JUMP JUMPDEST POP PUSH1 0x1 PUSH1 0x1 PUSH1 0x40 SHL SUB SWAP1 PUSH1 0x44 CALLDATALOAD DUP3 DUP2 GT PUSH2 0x1F8 JUMPI PUSH2 0xDAC SWAP1 CALLDATASIZE SWAP1 DUP7 ADD PUSH2 0x23C6 JUMP JUMPDEST POP POP PUSH1 0x64 CALLDATALOAD DUP3 DUP2 GT PUSH2 0x1F8 JUMPI PUSH2 0xDC5 SWAP1 CALLDATASIZE SWAP1 DUP7 ADD PUSH2 0x23C6 JUMP JUMPDEST POP POP PUSH1 0x84 CALLDATALOAD SWAP2 DUP3 GT PUSH2 0x2CA JUMPI POP PUSH1 0x20 SWAP3 PUSH2 0xDE1 SWAP2 CALLDATASIZE SWAP2 ADD PUSH2 0x23F6 JUMP JUMPDEST POP POP MLOAD PUSH4 0xBC197C81 PUSH1 0xE0 SHL DUP2 MSTORE RETURN JUMPDEST POP POP CALLVALUE PUSH2 0x1F8 JUMPI PUSH1 0x20 CALLDATASIZE PUSH1 0x3 NOT ADD SLT PUSH2 0x1F8 JUMPI PUSH2 0xE25 SWAP1 PUSH2 0xE17 PUSH2 0xE12 PUSH2 0x228F JUMP JUMPDEST PUSH2 0x2B6D JUMP JUMPDEST SWAP2 SWAP5 SWAP3 SWAP4 MLOAD SWAP5 DUP6 SWAP5 DUP6 PUSH2 0x232F JUMP JUMPDEST SUB SWAP1 RETURN JUMPDEST SWAP1 POP CALLVALUE PUSH2 0x270 JUMPI DUP2 PUSH1 0x3 NOT CALLDATASIZE ADD SLT PUSH2 0x270 JUMPI PUSH2 0xE43 PUSH2 0x228F JUMP JUMPDEST PUSH1 0x24 CALLDATALOAD SWAP2 PUSH2 0xE56 PUSH1 0xFF PUSH1 0xE SLOAD AND ISZERO PUSH2 0x258E JUMP JUMPDEST PUSH1 0x3 SLOAD PUSH1 0x1 PUSH1 0x1 PUSH1 0xA0 SHL SUB SWAP3 DUP4 AND SWAP3 AND DUP3 SUB PUSH2 0xEE9 JUMPI DUP5 SWAP2 PUSH1 0x64 PUSH1 0x20 SWAP3 DUP7 MLOAD SWAP5 DUP6 SWAP4 DUP5 SWAP3 PUSH4 0x23B872DD PUSH1 0xE0 SHL DUP5 MSTORE CALLER SWAP1 DUP5 ADD MSTORE ADDRESS PUSH1 0x24 DUP5 ADD MSTORE DUP8 PUSH1 0x44 DUP5 ADD MSTORE GAS CALL SWAP3 DUP4 ISZERO PUSH2 0xEE0 JUMPI POP PUSH2 0xEBC SWAP3 PUSH2 0xEB4 SWAP2 DUP6 SWAP2 PUSH2 0xEC2 JUMPI JUMPDEST POP PUSH2 0x25F2 JUMP JUMPDEST PUSH1 0xA SLOAD PUSH2 0x256B JUMP JUMPDEST PUSH1 0xA SSTORE DUP1 RETURN JUMPDEST PUSH2 0xEDA SWAP2 POP PUSH1 0x20 RETURNDATASIZE DUP2 GT PUSH2 0x52B JUMPI PUSH2 0x51B DUP2 DUP4 PUSH2 0x249D JUMP JUMPDEST CODESIZE PUSH2 0xEAE JUMP JUMPDEST MLOAD RETURNDATASIZE DUP6 DUP3 RETURNDATACOPY RETURNDATASIZE SWAP1 REVERT JUMPDEST PUSH1 0x64 SWAP1 PUSH1 0x20 DUP6 MLOAD SWAP2 PUSH3 0x461BCD PUSH1 0xE5 SHL DUP4 MSTORE DUP3 ADD MSTORE PUSH1 0xD PUSH1 0x24 DUP3 ADD MSTORE PUSH13 0x24B73B30B634B2103A37B5B2B7 PUSH1 0x99 SHL PUSH1 0x44 DUP3 ADD MSTORE REVERT JUMPDEST SWAP2 SWAP1 POP CALLVALUE PUSH2 0x270 JUMPI PUSH1 0x20 CALLDATASIZE PUSH1 0x3 NOT ADD SLT PUSH2 0x270 JUMPI PUSH2 0xE25 SWAP3 POP PUSH2 0xF3D PUSH2 0x303E JUMP JUMPDEST POP PUSH2 0xF48 DUP3 CALLDATALOAD PUSH2 0x2717 JUMP JUMPDEST POP DUP1 SLOAD SWAP3 PUSH1 0x1 DUP3 ADD SLOAD SWAP2 PUSH1 0x2 DUP2 ADD SLOAD SWAP1 PUSH1 0x3 DUP2 ADD SLOAD SWAP3 PUSH1 0x1 DUP1 PUSH1 0xA0 SHL SUB SWAP2 ADD SLOAD AND SWAP3 DUP5 MLOAD SWAP6 PUSH2 0xF76 DUP8 PUSH2 0x2423 JUMP JUMPDEST DUP7 MSTORE PUSH1 0x20 DUP7 ADD MSTORE DUP4 DUP6 ADD MSTORE PUSH1 0x60 DUP5 ADD MSTORE PUSH1 0x80 DUP4 ADD MSTORE MLOAD SWAP2 DUP3 SWAP2 DUP3 SWAP2 SWAP1 SWAP2 PUSH1 0x80 PUSH1 0xA0 DUP3 ADD SWAP4 DUP1 MLOAD DUP4 MSTORE PUSH1 0x20 DUP2 ADD MLOAD PUSH1 0x20 DUP5 ADD MSTORE PUSH1 0x40 DUP2 ADD MLOAD PUSH1 0x40 DUP5 ADD MSTORE PUSH1 0x60 DUP2 ADD MLOAD PUSH1 0x60 DUP5 ADD MSTORE DUP2 PUSH1 0x1 DUP1 PUSH1 0xA0 SHL SUB SWAP2 ADD MLOAD AND SWAP2 ADD MSTORE JUMP JUMPDEST DUP4 SWAP2 POP CALLVALUE PUSH2 0x1F8 JUMPI DUP3 PUSH1 0x3 NOT CALLDATASIZE ADD SLT PUSH2 0x1F8 JUMPI PUSH2 0xFE8 PUSH2 0x22A5 JUMP JUMPDEST SWAP3 PUSH2 0xFF1 PUSH2 0x24D9 JUMP JUMPDEST PUSH1 0x1 DUP1 PUSH1 0xA0 SHL SUB SWAP2 DUP3 PUSH1 0x2 SLOAD AND SWAP5 DUP3 MLOAD PUSH4 0xBD85B039 PUSH1 0xE0 SHL DUP2 MSTORE PUSH1 0x2 DUP4 DUP3 ADD MSTORE PUSH1 0x20 SWAP1 DUP2 DUP2 PUSH1 0x24 DUP2 DUP12 GAS STATICCALL SWAP1 DUP2 ISZERO PUSH2 0x10F4 JUMPI DUP8 SWAP2 PUSH2 0x10C7 JUMPI JUMPDEST POP PUSH2 0x1086 JUMPI POP DUP6 DUP6 SWAP7 EXTCODESIZE ISZERO PUSH2 0x595 JUMPI DUP6 SWAP3 DUP4 PUSH1 0x44 SWAP3 DUP7 MLOAD SWAP8 DUP9 SWAP6 DUP7 SWAP5 PUSH4 0x9D3BC4BD PUSH1 0xE0 SHL DUP7 MSTORE DUP1 CALLDATALOAD SWAP1 DUP7 ADD MSTORE AND PUSH1 0x24 DUP5 ADD MSTORE GAS CALL SWAP1 DUP2 ISZERO PUSH2 0x107D JUMPI POP PUSH2 0x106D JUMPI POP RETURN JUMPDEST PUSH2 0x1076 SWAP1 PUSH2 0x2454 JUMP JUMPDEST PUSH2 0x2CA JUMPI DUP1 RETURN JUMPDEST MLOAD RETURNDATASIZE DUP5 DUP3 RETURNDATACOPY RETURNDATASIZE SWAP1 REVERT JUMPDEST DUP1 SWAP2 POP PUSH1 0x64 SWAP4 MLOAD SWAP3 PUSH3 0x461BCD PUSH1 0xE5 SHL DUP5 MSTORE DUP4 ADD MSTORE PUSH1 0x24 DUP3 ADD MSTORE PUSH32 0x4275796F757420746F6B656E20616C726561647920696E697469616C697A6564 PUSH1 0x44 DUP3 ADD MSTORE REVERT JUMPDEST SWAP1 POP DUP2 DUP2 DUP2 RETURNDATASIZE DUP4 GT PUSH2 0x10ED JUMPI JUMPDEST PUSH2 0x10DE DUP2 DUP4 PUSH2 0x249D JUMP JUMPDEST DUP2 ADD SUB SLT PUSH2 0x567 JUMPI MLOAD DUP9 PUSH2 0x102A JUMP JUMPDEST POP RETURNDATASIZE PUSH2 0x10D4 JUMP JUMPDEST DUP6 MLOAD RETURNDATASIZE DUP10 DUP3 RETURNDATACOPY RETURNDATASIZE SWAP1 REVERT JUMPDEST POP POP CALLVALUE PUSH2 0x1F8 JUMPI DUP2 PUSH1 0x3 NOT CALLDATASIZE ADD SLT PUSH2 0x1F8 JUMPI SWAP1 SLOAD SWAP1 MLOAD PUSH1 0x1 PUSH1 0x1 PUSH1 0xA0 SHL SUB SWAP1 SWAP2 AND DUP2 MSTORE PUSH1 0x20 SWAP1 RETURN JUMPDEST SWAP2 SWAP1 POP CALLVALUE PUSH2 0x270 JUMPI DUP3 PUSH1 0x3 NOT CALLDATASIZE ADD SLT PUSH2 0x270 JUMPI PUSH2 0x1148 PUSH1 0xFF PUSH1 0xE SLOAD AND ISZERO PUSH2 0x258E JUMP JUMPDEST PUSH1 0x9 SLOAD SWAP1 DUP2 ISZERO PUSH2 0x130C JUMPI PUSH1 0x1 DUP1 PUSH1 0xA0 SHL SUB DUP1 PUSH1 0x2 SLOAD AND PUSH1 0x7 SLOAD DUP4 MLOAD SWAP2 DUP3 SWAP2 PUSH4 0xBD85B039 PUSH1 0xE0 SHL DUP4 MSTORE DUP8 DUP4 ADD MSTORE DUP2 PUSH1 0x24 PUSH1 0x20 SWAP5 DUP6 SWAP4 GAS STATICCALL SWAP1 DUP2 ISZERO PUSH2 0x1302 JUMPI DUP8 SWAP2 PUSH2 0x12D5 JUMPI JUMPDEST POP PUSH2 0x1198 DUP2 ISZERO ISZERO PUSH2 0x3000 JUMP JUMPDEST PUSH8 0xDE0B6B3A7640000 DUP6 MUL PUSH8 0xDE0B6B3A763FFFF NOT DUP7 DUP3 DIV ADD PUSH2 0x12C2 JUMPI SWAP1 PUSH2 0x11BF SWAP2 PUSH2 0x27AA JUMP JUMPDEST SWAP2 PUSH1 0xC SLOAD SWAP1 DUP5 MLOAD PUSH2 0x11CF DUP2 PUSH2 0x2423 JUMP JUMPDEST DUP3 DUP2 MSTORE DUP4 DUP2 ADD DUP8 DUP2 MSTORE DUP7 DUP3 ADD DUP7 DUP2 MSTORE PUSH1 0x60 DUP4 ADD SWAP2 TIMESTAMP DUP4 MSTORE PUSH1 0x80 DUP5 ADD SWAP6 CALLER DUP8 MSTORE PUSH1 0x1 PUSH1 0x40 SHL DUP2 LT ISZERO PUSH2 0x12AD JUMPI DUP1 PUSH1 0x1 PUSH2 0x120A SWAP3 ADD PUSH1 0xC SSTORE PUSH2 0x2717 JUMP JUMPDEST SWAP5 SWAP1 SWAP5 PUSH2 0x1299 JUMPI MLOAD DUP5 SSTORE MLOAD PUSH1 0x1 DUP5 ADD SSTORE MLOAD PUSH1 0x2 DUP4 ADD SSTORE MLOAD PUSH1 0x3 DUP3 ADD SSTORE SWAP2 MLOAD SWAP2 DUP8 ADD DUP1 SLOAD PUSH1 0x1 PUSH1 0x1 PUSH1 0xA0 SHL SUB NOT AND SWAP2 SWAP1 SWAP3 AND OR SWAP1 SSTORE PUSH1 0xC SLOAD PUSH1 0x0 NOT DUP2 ADD SWAP6 SWAP1 DUP7 GT PUSH2 0x1286 JUMPI POP DUP3 MLOAD SWAP4 DUP5 MSTORE DUP4 ADD MSTORE PUSH1 0x1 SWAP1 DUP3 ADD MSTORE PUSH32 0x77841C1AE75DE1A1C173CB7FFD7F1DC25D09ACA1E636B17A232B67072624BAB8 SWAP1 PUSH1 0x60 SWAP1 LOG2 DUP1 RETURN JUMPDEST PUSH4 0x4E487B71 PUSH1 0xE0 SHL DUP8 MSTORE PUSH1 0x11 SWAP1 MSTORE PUSH1 0x24 DUP7 REVERT JUMPDEST PUSH1 0x0 DUP13 PUSH4 0x4E487B71 PUSH1 0xE0 SHL DUP3 MSTORE MSTORE PUSH1 0x24 PUSH1 0x0 REVERT JUMPDEST PUSH1 0x41 DUP13 PUSH4 0x4E487B71 PUSH1 0xE0 SHL PUSH1 0x0 MSTORE MSTORE PUSH1 0x24 PUSH1 0x0 REVERT JUMPDEST PUSH4 0x4E487B71 PUSH1 0xE0 SHL DUP9 MSTORE PUSH1 0x11 DUP8 MSTORE PUSH1 0x24 DUP9 REVERT JUMPDEST SWAP1 POP DUP2 DUP2 DUP2 RETURNDATASIZE DUP4 GT PUSH2 0x12FB JUMPI JUMPDEST PUSH2 0x12EC DUP2 DUP4 PUSH2 0x249D JUMP JUMPDEST DUP2 ADD SUB SLT PUSH2 0x567 JUMPI MLOAD CODESIZE PUSH2 0x118C JUMP JUMPDEST POP RETURNDATASIZE PUSH2 0x12E2 JUMP JUMPDEST DUP5 MLOAD RETURNDATASIZE DUP10 DUP3 RETURNDATACOPY RETURNDATASIZE SWAP1 REVERT JUMPDEST MLOAD PUSH3 0x461BCD PUSH1 0xE5 SHL DUP2 MSTORE PUSH1 0x20 DUP2 DUP5 ADD MSTORE PUSH1 0x14 PUSH1 0x24 DUP3 ADD MSTORE PUSH20 0x4E6F2045544820746F2064697374726962757465 PUSH1 0x60 SHL PUSH1 0x44 DUP3 ADD MSTORE PUSH1 0x64 SWAP1 REVERT JUMPDEST SWAP2 SWAP1 POP CALLVALUE PUSH2 0x270 JUMPI PUSH1 0x20 CALLDATASIZE PUSH1 0x3 NOT ADD SLT PUSH2 0x270 JUMPI PUSH2 0x1361 PUSH2 0x228F JUMP JUMPDEST PUSH1 0x2 SLOAD SWAP3 PUSH1 0x1 PUSH1 0x1 PUSH1 0xA0 SHL SUB SWAP3 DUP4 DUP6 AND PUSH2 0x1391 JUMPI POP POP AND SWAP1 PUSH12 0xFFFFFFFFFFFFFFFFFFFFFFFF PUSH1 0xA0 SHL AND OR PUSH1 0x2 SSTORE DUP1 RETURN JUMPDEST SWAP1 PUSH1 0x20 PUSH1 0x64 SWAP3 MLOAD SWAP2 PUSH3 0x461BCD PUSH1 0xE5 SHL DUP4 MSTORE DUP3 ADD MSTORE PUSH1 0x13 PUSH1 0x24 DUP3 ADD MSTORE PUSH19 0x15D4D51BDAD95B88185B1C9958591E481CD95D PUSH1 0x6A SHL PUSH1 0x44 DUP3 ADD MSTORE REVERT JUMPDEST DUP4 CALLVALUE PUSH2 0x2CA JUMPI DUP1 PUSH1 0x3 NOT CALLDATASIZE ADD SLT PUSH2 0x2CA JUMPI PUSH2 0x13E3 PUSH2 0x24D9 JUMP JUMPDEST PUSH1 0x0 DUP1 SLOAD PUSH1 0x1 PUSH1 0x1 PUSH1 0xA0 SHL SUB NOT DUP2 AND DUP3 SSTORE PUSH1 0x1 PUSH1 0x1 PUSH1 0xA0 SHL SUB AND PUSH32 0x8BE0079C531659141344CD1FD0A4F28419497F9722A3DAAFE3B4186F6B6457E0 DUP3 DUP1 LOG3 DUP1 RETURN JUMPDEST SWAP2 SWAP1 POP CALLVALUE PUSH2 0x270 JUMPI PUSH1 0x20 SWAP2 DUP3 PUSH1 0x3 NOT CALLDATASIZE ADD SLT PUSH2 0x591 JUMPI DUP1 CALLDATALOAD SWAP2 PUSH2 0x1445 PUSH2 0x27FA JUMP JUMPDEST PUSH2 0x1454 PUSH1 0xFF PUSH1 0xE SLOAD AND ISZERO PUSH2 0x258E JUMP JUMPDEST PUSH1 0x2 SLOAD PUSH1 0x7 SLOAD DUP3 MLOAD PUSH3 0x7EEAC7 PUSH1 0xE1 SHL DUP2 MSTORE CALLER DUP6 DUP3 ADD SWAP1 DUP2 MSTORE PUSH1 0x20 DUP2 ADD DUP4 SWAP1 MSTORE SWAP2 SWAP5 PUSH1 0x1 PUSH1 0x1 PUSH1 0xA0 SHL SUB SWAP1 SWAP4 AND SWAP3 SWAP2 DUP8 SWAP1 DUP3 SWAP1 DUP2 SWAP1 PUSH1 0x40 ADD SUB DUP2 DUP7 GAS STATICCALL SWAP1 DUP2 ISZERO PUSH2 0x18F8 JUMPI DUP9 SWAP2 PUSH2 0x1915 JUMPI JUMPDEST POP ISZERO DUP1 ISZERO SWAP1 PUSH2 0x1875 JUMPI JUMPDEST PUSH2 0x14B1 SWAP1 PUSH2 0x263D JUMP JUMPDEST CALLER DUP8 MSTORE PUSH1 0xB DUP7 MSTORE PUSH1 0x1 SWAP6 DUP7 DUP5 DUP10 KECCAK256 ADD SWAP1 DUP8 DUP3 SLOAD SWAP8 DUP9 PUSH1 0xC SLOAD PUSH2 0x14D4 DUP3 DUP3 GT PUSH2 0x267B JUMP JUMPDEST DUP3 ISZERO PUSH2 0x184F JUMPI SWAP1 PUSH2 0x14E4 SWAP2 PUSH2 0x2630 JUMP JUMPDEST DUP1 DUP3 LT ISZERO PUSH2 0x1848 JUMPI POP JUMPDEST SWAP5 SWAP1 POP JUMPDEST DUP10 SWAP7 DUP9 DUP11 JUMPDEST PUSH2 0x165F JUMPI JUMPDEST POP POP POP DUP6 ISZERO PUSH2 0x161D JUMPI PUSH1 0x9 SLOAD DUP7 GT PUSH2 0x15DB JUMPI POP PUSH2 0x1519 DUP4 DUP8 PUSH2 0x256B JUMP JUMPDEST SWAP1 SSTORE PUSH2 0x1527 DUP5 PUSH1 0x9 SLOAD PUSH2 0x2630 JUMP JUMPDEST PUSH1 0x9 SSTORE DUP7 DUP1 DUP1 DUP1 DUP8 CALLER GAS CALL PUSH2 0x153A PUSH2 0x27CA JUMP JUMPDEST POP ISZERO PUSH2 0x1599 JUMPI POP SWAP2 PUSH32 0x33508FA3C05F271D76112F2A1C190707F316B34540511262F6D62BFF50A02854 SWAP2 PUSH2 0x1591 PUSH2 0x1573 DUP7 SWAP6 DUP10 SWAP8 PUSH2 0x256B JUMP JUMPDEST SWAP2 MLOAD SWAP3 DUP4 SWAP3 CALLER SWAP7 DUP5 PUSH1 0x40 SWAP2 SWAP5 SWAP4 SWAP3 PUSH1 0x60 DUP3 ADD SWAP6 DUP3 MSTORE PUSH1 0x20 DUP3 ADD MSTORE ADD MSTORE JUMP JUMPDEST SUB SWAP1 LOG3 DUP1 SSTORE DUP1 RETURN JUMPDEST PUSH2 0x4B9 SWAP1 DUP4 MLOAD SWAP2 DUP3 SWAP2 PUSH3 0x461BCD PUSH1 0xE5 SHL DUP4 MSTORE DUP3 ADD PUSH1 0x60 SWAP1 PUSH1 0x20 DUP2 MSTORE PUSH1 0x13 PUSH1 0x20 DUP3 ADD MSTORE PUSH19 0x115512081D1C985B9CD9995C8819985A5B1959 PUSH1 0x6A SHL PUSH1 0x40 DUP3 ADD MSTORE ADD SWAP1 JUMP JUMPDEST DUP3 PUSH1 0x64 SWAP2 DUP7 MLOAD SWAP2 PUSH3 0x461BCD PUSH1 0xE5 SHL DUP4 MSTORE DUP3 ADD MSTORE PUSH1 0x1D PUSH1 0x24 DUP3 ADD MSTORE PUSH32 0x496E73756666696369656E7420636F6E74726163742062616C616E6365000000 PUSH1 0x44 DUP3 ADD MSTORE REVERT JUMPDEST DUP3 PUSH1 0x64 SWAP2 DUP7 MLOAD SWAP2 PUSH3 0x461BCD PUSH1 0xE5 SHL DUP4 MSTORE DUP3 ADD MSTORE PUSH1 0x18 PUSH1 0x24 DUP3 ADD MSTORE PUSH32 0x4E6F20455448206561726E696E677320746F20636C61696D0000000000000000 PUSH1 0x44 DUP3 ADD MSTORE REVERT JUMPDEST PUSH2 0x1669 DUP8 DUP12 PUSH2 0x256B JUMP JUMPDEST DUP2 LT ISZERO PUSH2 0x1843 JUMPI PUSH2 0x1682 PUSH2 0x167C DUP3 PUSH2 0x2717 JUMP JUMPDEST POP PUSH2 0x2752 JUMP JUMPDEST PUSH1 0x60 DUP2 DUP2 ADD MLOAD DUP11 MLOAD PUSH4 0xC4DB40D PUSH1 0xE3 SHL DUP2 MSTORE CALLER DUP2 DUP12 ADD SWAP1 DUP2 MSTORE PUSH1 0x20 DUP2 ADD DUP8 SWAP1 MSTORE PUSH1 0x40 DUP2 ADD SWAP3 SWAP1 SWAP3 MSTORE DUP16 SWAP3 SWAP1 SWAP2 DUP9 SWAP2 DUP4 SWAP2 DUP3 SWAP2 ADD SUB DUP2 DUP10 GAS STATICCALL SWAP2 DUP3 ISZERO PUSH2 0x1838 JUMPI SWAP1 DUP15 SWAP7 SWAP6 SWAP5 SWAP4 SWAP3 PUSH2 0x1807 JUMPI JUMPDEST POP DUP1 PUSH2 0x16E7 JUMPI JUMPDEST POP POP PUSH2 0x16DF SWAP1 PUSH2 0x26B7 JUMP JUMPDEST SWAP1 SWAP2 SWAP3 PUSH2 0x14F7 JUMP JUMPDEST SWAP1 SWAP11 SWAP2 SWAP3 SWAP4 SWAP5 POP DUP10 DUP12 ADD PUSH2 0x1706 PUSH2 0x16FF DUP3 MLOAD DUP5 PUSH2 0x2797 JUMP JUMPDEST SWAP3 DUP4 PUSH2 0x27AA JUMP JUMPDEST SWAP1 MLOAD SUB PUSH2 0x17C4 JUMPI PUSH8 0xDE0B6B3A7640000 DUP7 SWAP2 DIV SWAP11 ADD MLOAD DUP11 GT PUSH2 0x1781 JUMPI DUP10 PUSH2 0x172C SWAP2 PUSH2 0x256B JUMP JUMPDEST SWAP9 DUP10 LT PUSH2 0x173E JUMPI SWAP1 DUP11 SWAP3 SWAP2 CODESIZE DUP1 PUSH2 0x16D4 JUMP JUMPDEST DUP8 MLOAD PUSH3 0x461BCD PUSH1 0xE5 SHL DUP2 MSTORE DUP1 DUP8 ADD DUP6 SWAP1 MSTORE PUSH1 0x18 PUSH1 0x24 DUP3 ADD MSTORE PUSH32 0x546F74616C20756E636C61696D6564206F766572666C6F770000000000000000 PUSH1 0x44 DUP3 ADD MSTORE PUSH1 0x64 SWAP1 REVERT JUMPDEST DUP9 MLOAD PUSH3 0x461BCD PUSH1 0xE5 SHL DUP2 MSTORE DUP1 DUP9 ADD DUP7 SWAP1 MSTORE PUSH1 0x1A PUSH1 0x24 DUP3 ADD MSTORE PUSH32 0x53686172652063616C63756C6174696F6E206F766572666C6F77000000000000 PUSH1 0x44 DUP3 ADD MSTORE PUSH1 0x64 SWAP1 REVERT JUMPDEST DUP10 MLOAD PUSH3 0x461BCD PUSH1 0xE5 SHL DUP2 MSTORE DUP1 DUP10 ADD DUP8 SWAP1 MSTORE PUSH1 0x17 PUSH1 0x24 DUP3 ADD MSTORE PUSH32 0x4D756C7469706C69636174696F6E206F766572666C6F77000000000000000000 PUSH1 0x44 DUP3 ADD MSTORE PUSH1 0x64 SWAP1 REVERT JUMPDEST DUP1 SWAP7 POP DUP8 DUP1 SWAP3 POP RETURNDATASIZE DUP4 GT PUSH2 0x1831 JUMPI JUMPDEST PUSH2 0x1820 DUP2 DUP4 PUSH2 0x249D JUMP JUMPDEST DUP2 ADD SUB SLT PUSH2 0x567 JUMPI DUP13 SWAP5 MLOAD CODESIZE PUSH2 0x16CD JUMP JUMPDEST POP RETURNDATASIZE PUSH2 0x1816 JUMP JUMPDEST DUP12 MLOAD SWAP1 RETURNDATASIZE SWAP1 DUP3 RETURNDATACOPY RETURNDATASIZE SWAP1 REVERT JUMPDEST PUSH2 0x14FC JUMP JUMPDEST SWAP1 POP PUSH2 0x14EE JUMP JUMPDEST PUSH2 0x1859 SWAP3 POP PUSH2 0x2630 JUMP JUMPDEST DUP1 PUSH1 0x32 LT PUSH1 0x0 EQ PUSH2 0x1870 JUMPI POP PUSH1 0x32 JUMPDEST SWAP5 SWAP1 POP PUSH2 0x14F2 JUMP JUMPDEST PUSH2 0x1868 JUMP JUMPDEST POP PUSH1 0x0 NOT TIMESTAMP ADD TIMESTAMP DUP2 GT PUSH2 0x1902 JUMPI DUP4 MLOAD PUSH4 0xC4DB40D PUSH1 0xE3 SHL DUP2 MSTORE CALLER DUP4 DUP3 ADD SWAP1 DUP2 MSTORE PUSH1 0x20 DUP2 ADD DUP8 SWAP1 MSTORE PUSH1 0x40 DUP2 ADD SWAP3 SWAP1 SWAP3 MSTORE SWAP1 DUP8 SWAP1 DUP3 SWAP1 DUP2 SWAP1 PUSH1 0x60 ADD SUB DUP2 DUP7 GAS STATICCALL DUP1 ISZERO PUSH2 0x18F8 JUMPI DUP9 SWAP1 PUSH2 0x18C9 JUMPI JUMPDEST ISZERO ISZERO SWAP1 POP PUSH2 0x14A8 JUMP JUMPDEST POP DUP7 DUP2 DUP2 RETURNDATASIZE DUP4 GT PUSH2 0x18F1 JUMPI JUMPDEST PUSH2 0x18DF DUP2 DUP4 PUSH2 0x249D JUMP JUMPDEST DUP2 ADD SUB SLT PUSH2 0x567 JUMPI PUSH2 0x14B1 SWAP1 MLOAD PUSH2 0x18C0 JUMP JUMPDEST POP RETURNDATASIZE PUSH2 0x18D5 JUMP JUMPDEST DUP5 MLOAD RETURNDATASIZE DUP11 DUP3 RETURNDATACOPY RETURNDATASIZE SWAP1 REVERT JUMPDEST PUSH4 0x4E487B71 PUSH1 0xE0 SHL DUP9 MSTORE PUSH1 0x11 DUP3 MSTORE PUSH1 0x24 DUP9 REVERT JUMPDEST SWAP1 POP DUP7 DUP2 DUP2 RETURNDATASIZE DUP4 GT PUSH2 0x193B JUMPI JUMPDEST PUSH2 0x192C DUP2 DUP4 PUSH2 0x249D JUMP JUMPDEST DUP2 ADD SUB SLT PUSH2 0x567 JUMPI MLOAD CODESIZE PUSH2 0x149E JUMP JUMPDEST POP RETURNDATASIZE PUSH2 0x1922 JUMP JUMPDEST POP POP CALLVALUE PUSH2 0x1F8 JUMPI PUSH1 0x20 CALLDATASIZE PUSH1 0x3 NOT ADD SLT PUSH2 0x1F8 JUMPI PUSH1 0x20 SWAP1 PUSH2 0x1F1 PUSH2 0x1963 PUSH2 0x228F JUMP JUMPDEST PUSH2 0x2D14 JUMP JUMPDEST POP POP CALLVALUE PUSH2 0x1F8 JUMPI DUP2 PUSH1 0x3 NOT CALLDATASIZE ADD SLT PUSH2 0x1F8 JUMPI PUSH1 0x6 SLOAD SWAP1 MLOAD PUSH1 0x1 PUSH1 0x1 PUSH1 0xA0 SHL SUB SWAP1 SWAP2 AND DUP2 MSTORE PUSH1 0x20 SWAP1 RETURN JUMPDEST POP POP CALLVALUE PUSH2 0x1F8 JUMPI DUP2 PUSH1 0x3 NOT CALLDATASIZE ADD SLT PUSH2 0x1F8 JUMPI PUSH1 0x20 SWAP1 PUSH1 0xA SLOAD SWAP1 MLOAD SWAP1 DUP2 MSTORE RETURN JUMPDEST SWAP1 POP CALLVALUE PUSH2 0x270 JUMPI DUP3 PUSH1 0x3 NOT CALLDATASIZE ADD SLT PUSH2 0x270 JUMPI SLOAD SWAP1 MLOAD PUSH1 0x1 PUSH1 0x1 PUSH1 0xA0 SHL SUB SWAP1 SWAP2 AND DUP2 MSTORE PUSH1 0x20 SWAP2 POP RETURN JUMPDEST POP POP CALLVALUE PUSH2 0x1F8 JUMPI PUSH1 0x20 CALLDATASIZE PUSH1 0x3 NOT ADD SLT PUSH2 0x1F8 JUMPI PUSH2 0xE25 SWAP1 PUSH2 0xE17 PUSH2 0x19FA PUSH2 0x228F JUMP JUMPDEST PUSH2 0x292A JUMP JUMPDEST POP POP CALLVALUE PUSH2 0x1F8 JUMPI DUP2 PUSH1 0x3 NOT CALLDATASIZE ADD SLT PUSH2 0x1F8 JUMPI PUSH1 0x20 SWAP1 PUSH1 0x9 SLOAD SWAP1 MLOAD SWAP1 DUP2 MSTORE RETURN JUMPDEST SWAP2 SWAP1 POP CALLVALUE PUSH2 0x270 JUMPI PUSH1 0x20 CALLDATASIZE PUSH1 0x3 NOT ADD SLT PUSH2 0x270 JUMPI PUSH2 0xE25 SWAP3 POP PUSH2 0x1A3F PUSH2 0x303E JUMP JUMPDEST POP PUSH2 0xF48 DUP3 CALLDATALOAD PUSH2 0x26C6 JUMP JUMPDEST POP POP CALLVALUE PUSH2 0x1F8 JUMPI DUP2 PUSH1 0x3 NOT CALLDATASIZE ADD SLT PUSH2 0x1F8 JUMPI PUSH1 0x20 SWAP1 PUSH1 0x8 SLOAD SWAP1 MLOAD SWAP1 DUP2 MSTORE RETURN JUMPDEST DUP4 DUP4 CALLVALUE PUSH2 0x1F8 JUMPI PUSH1 0x20 SWAP3 DUP4 PUSH1 0x3 NOT CALLDATASIZE ADD SLT PUSH2 0x270 JUMPI PUSH1 0x2 SLOAD DUP3 MLOAD PUSH4 0xBD85B039 PUSH1 0xE0 SHL DUP2 MSTORE PUSH1 0x1 DUP4 DUP3 ADD MSTORE PUSH1 0x1 PUSH1 0x1 PUSH1 0xA0 SHL SUB SWAP1 SWAP2 AND SWAP1 DUP6 DUP2 PUSH1 0x24 DUP2 DUP6 GAS STATICCALL SWAP1 DUP2 ISZERO PUSH2 0x1B72 JUMPI DUP6 SWAP2 PUSH2 0x1B41 JUMPI JUMPDEST POP PUSH2 0x1AFF JUMPI DUP4 SWAP5 POP DUP1 EXTCODESIZE ISZERO PUSH2 0x1AFA JUMPI PUSH1 0x24 DUP5 SWAP3 DUP5 MLOAD SWAP6 DUP7 SWAP4 DUP5 SWAP3 PUSH4 0x39FA62DF PUSH1 0xE0 SHL DUP5 MSTORE DUP1 CALLDATALOAD SWAP1 DUP5 ADD MSTORE GAS CALL SWAP1 DUP2 ISZERO PUSH2 0x107D JUMPI POP PUSH2 0x1AF1 JUMPI POP DUP1 RETURN JUMPDEST PUSH2 0x257 SWAP1 PUSH2 0x2454 JUMP JUMPDEST POP POP POP REVERT JUMPDEST POP DUP4 PUSH1 0x64 SWAP3 MLOAD SWAP2 PUSH3 0x461BCD PUSH1 0xE5 SHL DUP4 MSTORE DUP3 ADD MSTORE PUSH1 0x1A PUSH1 0x24 DUP3 ADD MSTORE PUSH32 0x53686172657320616C726561647920696E697469616C697A6564000000000000 PUSH1 0x44 DUP3 ADD MSTORE REVERT JUMPDEST SWAP1 POP DUP6 DUP2 DUP2 RETURNDATASIZE DUP4 GT PUSH2 0x1B6B JUMPI JUMPDEST PUSH2 0x1B58 DUP2 DUP4 PUSH2 0x249D JUMP JUMPDEST DUP2 ADD SUB SLT PUSH2 0x1B67 JUMPI MLOAD DUP7 PUSH2 0x1AB5 JUMP JUMPDEST DUP5 DUP1 REVERT JUMPDEST POP RETURNDATASIZE PUSH2 0x1B4E JUMP JUMPDEST DUP5 MLOAD RETURNDATASIZE DUP8 DUP3 RETURNDATACOPY RETURNDATASIZE SWAP1 REVERT JUMPDEST POP POP CALLVALUE PUSH2 0x1F8 JUMPI DUP2 PUSH1 0x3 NOT CALLDATASIZE ADD SLT PUSH2 0x1F8 JUMPI PUSH1 0x5 SLOAD SWAP1 MLOAD PUSH1 0x1 PUSH1 0x1 PUSH1 0xA0 SHL SUB SWAP1 SWAP2 AND DUP2 MSTORE PUSH1 0x20 SWAP1 RETURN JUMPDEST POP POP CALLVALUE PUSH2 0x1F8 JUMPI DUP1 PUSH1 0x3 NOT CALLDATASIZE ADD SLT PUSH2 0x1F8 JUMPI PUSH1 0x60 SWAP1 PUSH2 0x1BD3 PUSH2 0x1BC5 PUSH2 0x228F JUMP JUMPDEST PUSH2 0x1BCD PUSH2 0x22A5 JUMP JUMPDEST SWAP1 PUSH2 0x281D JUMP JUMPDEST SWAP2 SWAP3 SWAP1 DUP2 MLOAD SWAP4 ISZERO ISZERO DUP5 MSTORE PUSH1 0x20 DUP5 ADD MSTORE DUP3 ADD MSTORE RETURN JUMPDEST POP POP CALLVALUE PUSH2 0x1F8 JUMPI DUP2 PUSH1 0x3 NOT CALLDATASIZE ADD SLT PUSH2 0x1F8 JUMPI PUSH1 0x20 SWAP1 PUSH1 0xFF PUSH1 0xE SLOAD AND SWAP1 MLOAD SWAP1 ISZERO ISZERO DUP2 MSTORE RETURN JUMPDEST SWAP2 SWAP1 POP CALLVALUE PUSH2 0x270 JUMPI DUP3 PUSH1 0x3 NOT CALLDATASIZE ADD SLT PUSH2 0x270 JUMPI PUSH2 0x1C2D PUSH1 0xFF PUSH1 0xE SLOAD AND ISZERO PUSH2 0x258E JUMP JUMPDEST PUSH1 0xA SLOAD SWAP1 DUP2 ISZERO PUSH2 0x1E40 JUMPI PUSH1 0x2 SLOAD PUSH1 0x7 SLOAD DUP3 MLOAD PUSH4 0xBD85B039 PUSH1 0xE0 SHL DUP2 MSTORE DUP6 DUP2 ADD SWAP2 SWAP1 SWAP2 MSTORE PUSH1 0x20 SWAP4 PUSH1 0x1 PUSH1 0x1 PUSH1 0xA0 SHL SUB SWAP3 PUSH1 0x24 SWAP3 SWAP1 DUP7 SWAP1 DUP3 SWAP1 DUP6 SWAP1 DUP3 SWAP1 DUP9 AND GAS STATICCALL SWAP1 DUP2 ISZERO PUSH2 0x1E36 JUMPI DUP9 SWAP2 PUSH2 0x1E05 JUMPI JUMPDEST POP PUSH2 0x1C86 DUP2 ISZERO ISZERO PUSH2 0x3000 JUMP JUMPDEST PUSH8 0xDE0B6B3A7640000 DUP3 MUL PUSH8 0xDE0B6B3A763FFFF NOT DUP4 DUP3 DIV ADD PUSH2 0x1DF3 JUMPI SWAP1 PUSH2 0x1CAD SWAP2 PUSH2 0x27AA JUMP JUMPDEST PUSH1 0xD SLOAD SWAP1 SWAP4 SWAP1 SWAP2 DUP3 ISZERO PUSH2 0x1DEE JUMPI PUSH1 0x0 NOT DUP4 ADD DUP4 DUP2 GT PUSH2 0x1DDC JUMPI SWAP1 PUSH1 0x1 PUSH2 0x1CD5 PUSH2 0x1CDD SWAP4 PUSH2 0x26C6 JUMP JUMPDEST POP ADD SLOAD PUSH2 0x256B JUMP JUMPDEST DUP6 MLOAD SWAP1 PUSH2 0x1CE9 DUP3 PUSH2 0x2423 JUMP JUMPDEST DUP4 DUP3 MSTORE DUP8 DUP3 ADD SWAP1 DUP2 MSTORE DUP7 DUP3 ADD DUP7 DUP2 MSTORE PUSH1 0x60 DUP4 ADD SWAP2 TIMESTAMP DUP4 MSTORE PUSH1 0x80 DUP5 ADD SWAP6 CALLER DUP8 MSTORE PUSH1 0x1 PUSH1 0x40 SHL DUP2 LT ISZERO PUSH2 0x1DCA JUMPI DUP1 PUSH1 0x1 PUSH2 0x1D24 SWAP3 ADD PUSH1 0xD SSTORE PUSH2 0x26C6 JUMP JUMPDEST SWAP5 SWAP1 SWAP5 PUSH2 0x1DB9 JUMPI MLOAD DUP5 SSTORE MLOAD PUSH1 0x1 DUP5 ADD SSTORE MLOAD PUSH1 0x2 DUP4 ADD SSTORE MLOAD PUSH1 0x3 DUP3 ADD SSTORE SWAP2 MLOAD SWAP2 DUP8 ADD DUP1 SLOAD PUSH1 0x1 PUSH1 0x1 PUSH1 0xA0 SHL SUB NOT AND SWAP2 SWAP1 SWAP3 AND OR SWAP1 SSTORE PUSH1 0xD SLOAD PUSH1 0x0 NOT DUP2 ADD SWAP6 SWAP1 DUP7 GT PUSH2 0x1DA8 JUMPI POP POP SWAP2 DUP5 PUSH1 0x60 SWAP3 PUSH32 0x77841C1AE75DE1A1C173CB7FFD7F1DC25D09ACA1E636B17A232B67072624BAB8 SWAP5 PUSH1 0xA SLOAD SWAP4 DUP3 MLOAD SWAP5 DUP6 MSTORE DUP5 ADD MSTORE DUP3 ADD MSTORE LOG2 DUP1 PUSH1 0xA SSTORE DUP1 RETURN JUMPDEST PUSH4 0x4E487B71 PUSH1 0xE0 SHL DUP8 MSTORE PUSH1 0x11 SWAP1 MSTORE DUP6 REVERT JUMPDEST PUSH4 0x4E487B71 PUSH1 0xE0 SHL DUP14 MSTORE DUP13 DUP13 MSTORE DUP8 DUP14 REVERT JUMPDEST PUSH4 0x4E487B71 PUSH1 0xE0 SHL DUP14 MSTORE PUSH1 0x41 DUP13 MSTORE DUP8 DUP14 REVERT JUMPDEST PUSH4 0x4E487B71 PUSH1 0xE0 SHL DUP11 MSTORE PUSH1 0x11 DUP10 MSTORE DUP5 DUP11 REVERT JUMPDEST PUSH2 0x1CDD JUMP JUMPDEST PUSH4 0x4E487B71 PUSH1 0xE0 SHL DUP10 MSTORE PUSH1 0x11 DUP9 MSTORE DUP4 DUP10 REVERT JUMPDEST SWAP1 POP DUP6 DUP2 DUP2 RETURNDATASIZE DUP4 GT PUSH2 0x1E2F JUMPI JUMPDEST PUSH2 0x1E1C DUP2 DUP4 PUSH2 0x249D JUMP JUMPDEST DUP2 ADD SUB SLT PUSH2 0x1E2B JUMPI MLOAD CODESIZE PUSH2 0x1C7A JUMP JUMPDEST DUP8 DUP1 REVERT JUMPDEST POP RETURNDATASIZE PUSH2 0x1E12 JUMP JUMPDEST DUP6 MLOAD RETURNDATASIZE DUP11 DUP3 RETURNDATACOPY RETURNDATASIZE SWAP1 REVERT JUMPDEST MLOAD PUSH3 0x461BCD PUSH1 0xE5 SHL DUP2 MSTORE PUSH1 0x20 DUP2 DUP5 ADD MSTORE PUSH1 0x1D PUSH1 0x24 DUP3 ADD MSTORE PUSH32 0x4E6F206E6577206561726E696E677320746F2064697374726962757465000000 PUSH1 0x44 DUP3 ADD MSTORE PUSH1 0x64 SWAP1 REVERT JUMPDEST SWAP1 POP CALLVALUE PUSH2 0x270 JUMPI PUSH1 0x20 DUP1 PUSH1 0x3 NOT CALLDATASIZE ADD SLT PUSH2 0x591 JUMPI DUP2 CALLDATALOAD SWAP2 PUSH2 0x1EA1 PUSH2 0x27FA JUMP JUMPDEST PUSH2 0x1EB0 PUSH1 0xFF PUSH1 0xE SLOAD AND ISZERO PUSH2 0x258E JUMP JUMPDEST PUSH1 0x2 SLOAD PUSH1 0x7 SLOAD DUP6 MLOAD PUSH3 0x7EEAC7 PUSH1 0xE1 SHL DUP2 MSTORE CALLER DUP2 DUP6 ADD SWAP1 DUP2 MSTORE PUSH1 0x20 DUP2 ADD DUP4 SWAP1 MSTORE SWAP2 SWAP4 PUSH1 0x1 PUSH1 0x1 PUSH1 0xA0 SHL SUB SWAP4 DUP5 AND SWAP4 SWAP3 SWAP1 SWAP2 SWAP1 DUP7 SWAP1 DUP3 SWAP1 DUP2 SWAP1 PUSH1 0x40 ADD SUB DUP2 DUP8 GAS STATICCALL SWAP1 DUP2 ISZERO PUSH2 0x21F2 JUMPI DUP10 SWAP2 PUSH2 0x220F JUMPI JUMPDEST POP ISZERO DUP1 ISZERO SWAP1 PUSH2 0x216B JUMPI JUMPDEST PUSH2 0x1F10 SWAP1 PUSH2 0x263D JUMP JUMPDEST CALLER DUP9 MSTORE PUSH1 0xB DUP6 MSTORE DUP7 DUP9 KECCAK256 DUP1 SLOAD SWAP7 PUSH1 0xD SLOAD SWAP1 PUSH2 0x1F2C DUP10 DUP4 GT PUSH2 0x267B JUMP JUMPDEST DUP1 ISZERO PUSH2 0x2160 JUMPI PUSH2 0x1F3D SWAP1 JUMPDEST DUP10 PUSH2 0x256B JUMP JUMPDEST SWAP1 DUP1 DUP3 LT ISZERO PUSH2 0x2159 JUMPI POP JUMPDEST SWAP4 DUP10 SWAP6 DUP9 JUMPDEST DUP7 DUP2 LT PUSH2 0x2068 JUMPI JUMPDEST POP POP POP DUP5 ISZERO PUSH2 0x2025 JUMPI DUP4 SWAP1 SSTORE PUSH1 0x3 SLOAD DUP8 MLOAD PUSH4 0xA9059CBB PUSH1 0xE0 SHL DUP2 MSTORE CALLER SWAP3 DUP2 ADD SWAP3 DUP4 MSTORE PUSH1 0x20 DUP4 ADD DUP7 SWAP1 MSTORE SWAP3 SWAP2 DUP7 SWAP2 DUP5 SWAP2 DUP3 SWAP1 SUB PUSH1 0x40 ADD SWAP1 DUP3 SWAP1 DUP13 SWAP1 DUP7 AND GAS CALL SWAP5 DUP6 ISZERO PUSH2 0x201B JUMPI PUSH32 0x33508FA3C05F271D76112F2A1C190707F316B34540511262F6D62BFF50A02854 SWAP6 PUSH2 0x1FF4 SWAP4 PUSH2 0x1FD2 SWAP3 DUP12 SWAP3 PUSH2 0x1FFE JUMPI JUMPDEST POP POP PUSH2 0x25F2 JUMP JUMPDEST PUSH1 0x3 SLOAD AND SWAP6 MLOAD SWAP3 DUP4 SWAP3 CALLER SWAP7 DUP5 PUSH1 0x40 SWAP2 SWAP5 SWAP4 SWAP3 PUSH1 0x60 DUP3 ADD SWAP6 DUP3 MSTORE PUSH1 0x20 DUP3 ADD MSTORE ADD MSTORE JUMP JUMPDEST SUB SWAP1 LOG3 PUSH1 0x1 DUP1 SSTORE DUP1 RETURN JUMPDEST PUSH2 0x2014 SWAP3 POP DUP1 RETURNDATASIZE LT PUSH2 0x52B JUMPI PUSH2 0x51B DUP2 DUP4 PUSH2 0x249D JUMP JUMPDEST CODESIZE DUP1 PUSH2 0x1FCB JUMP JUMPDEST DUP8 MLOAD RETURNDATASIZE DUP11 DUP3 RETURNDATACOPY RETURNDATASIZE SWAP1 REVERT JUMPDEST DUP8 MLOAD PUSH3 0x461BCD PUSH1 0xE5 SHL DUP2 MSTORE DUP1 DUP4 ADD DUP8 SWAP1 MSTORE PUSH1 0x1F PUSH1 0x24 DUP3 ADD MSTORE PUSH32 0x4E6F20737461626C65636F696E206561726E696E677320746F20636C61696D00 PUSH1 0x44 DUP3 ADD MSTORE PUSH1 0x64 SWAP1 REVERT JUMPDEST PUSH3 0x186A0 GAS LT PUSH2 0x214B JUMPI DUP12 DUP12 PUSH2 0x2080 PUSH2 0x167C DUP5 PUSH2 0x26C6 JUMP JUMPDEST PUSH1 0x60 DUP2 DUP2 ADD MLOAD DUP4 MLOAD PUSH4 0xC4DB40D PUSH1 0xE3 SHL DUP2 MSTORE CALLER DUP2 DUP13 ADD SWAP1 DUP2 MSTORE PUSH1 0x20 DUP2 ADD DUP10 SWAP1 MSTORE PUSH1 0x40 DUP2 ADD SWAP3 SWAP1 SWAP3 MSTORE SWAP2 DUP15 SWAP2 DUP4 SWAP2 DUP3 SWAP2 ADD SUB DUP2 DUP11 GAS STATICCALL SWAP4 DUP5 ISZERO PUSH2 0x2140 JUMPI SWAP4 PUSH2 0x2109 JUMPI JUMPDEST POP DUP3 PUSH2 0x20DA JUMPI JUMPDEST POP POP POP PUSH2 0x20D5 SWAP1 PUSH2 0x26B7 JUMP JUMPDEST PUSH2 0x1F4D JUMP JUMPDEST PUSH2 0x20F9 PUSH2 0x2100 SWAP4 PUSH2 0x20D5 SWAP6 SWAP13 SWAP4 PUSH8 0xDE0B6B3A7640000 SWAP4 ADD MLOAD SWAP1 PUSH2 0x2797 JUMP JUMPDEST DIV SWAP1 PUSH2 0x256B JUMP JUMPDEST SWAP8 SWAP1 DUP12 CODESIZE PUSH2 0x20C9 JUMP JUMPDEST DUP13 DUP1 SWAP3 SWAP5 POP DUP2 SWAP4 POP RETURNDATASIZE DUP4 GT PUSH2 0x2139 JUMPI JUMPDEST PUSH2 0x2123 DUP2 DUP4 PUSH2 0x249D JUMP JUMPDEST DUP2 ADD SUB SLT PUSH2 0x2135 JUMPI DUP13 SWAP1 MLOAD SWAP2 CODESIZE PUSH2 0x20C2 JUMP JUMPDEST DUP14 DUP1 REVERT JUMPDEST POP RETURNDATASIZE PUSH2 0x2119 JUMP JUMPDEST DUP4 MLOAD SWAP1 RETURNDATASIZE SWAP1 DUP3 RETURNDATACOPY RETURNDATASIZE SWAP1 REVERT JUMPDEST SWAP3 SWAP6 POP POP POP SWAP3 CODESIZE DUP1 DUP1 PUSH2 0x1F55 JUMP JUMPDEST SWAP1 POP PUSH2 0x1F48 JUMP JUMPDEST POP PUSH2 0x1F3D PUSH1 0x32 PUSH2 0x1F37 JUMP JUMPDEST POP PUSH1 0x0 NOT TIMESTAMP ADD TIMESTAMP DUP2 GT PUSH2 0x21FC JUMPI DUP8 MLOAD PUSH4 0xC4DB40D PUSH1 0xE3 SHL DUP2 MSTORE CALLER DUP4 DUP3 ADD SWAP1 DUP2 MSTORE PUSH1 0x20 DUP2 ADD DUP8 SWAP1 MSTORE PUSH1 0x40 DUP2 ADD SWAP3 SWAP1 SWAP3 MSTORE SWAP1 DUP7 SWAP1 DUP3 SWAP1 DUP2 SWAP1 PUSH1 0x60 ADD SUB DUP2 DUP8 GAS STATICCALL DUP1 ISZERO PUSH2 0x21F2 JUMPI DUP10 SWAP1 PUSH2 0x21BF JUMPI JUMPDEST ISZERO ISZERO SWAP1 POP PUSH2 0x1F07 JUMP JUMPDEST POP DUP6 DUP2 DUP2 RETURNDATASIZE DUP4 GT PUSH2 0x21EB JUMPI JUMPDEST PUSH2 0x21D5 DUP2 DUP4 PUSH2 0x249D JUMP JUMPDEST DUP2 ADD SUB SLT PUSH2 0x21E7 JUMPI PUSH2 0x1F10 SWAP1 MLOAD PUSH2 0x21B6 JUMP JUMPDEST DUP9 DUP1 REVERT JUMPDEST POP RETURNDATASIZE PUSH2 0x21CB JUMP JUMPDEST DUP9 MLOAD RETURNDATASIZE DUP12 DUP3 RETURNDATACOPY RETURNDATASIZE SWAP1 REVERT JUMPDEST PUSH4 0x4E487B71 PUSH1 0xE0 SHL DUP10 MSTORE PUSH1 0x11 DUP3 MSTORE PUSH1 0x24 DUP10 REVERT JUMPDEST SWAP1 POP DUP6 DUP2 DUP2 RETURNDATASIZE DUP4 GT PUSH2 0x2235 JUMPI JUMPDEST PUSH2 0x2226 DUP2 DUP4 PUSH2 0x249D JUMP JUMPDEST DUP2 ADD SUB SLT PUSH2 0x21E7 JUMPI MLOAD CODESIZE PUSH2 0x1EFD JUMP JUMPDEST POP RETURNDATASIZE PUSH2 0x221C JUMP JUMPDEST DUP5 SWAP2 CALLVALUE PUSH2 0x270 JUMPI PUSH1 0x20 CALLDATASIZE PUSH1 0x3 NOT ADD SLT PUSH2 0x270 JUMPI CALLDATALOAD PUSH4 0xFFFFFFFF PUSH1 0xE0 SHL DUP2 AND DUP1 SWAP2 SUB PUSH2 0x270 JUMPI PUSH1 0x20 SWAP3 POP PUSH4 0x2711897 PUSH1 0xE5 SHL DUP2 EQ SWAP1 DUP2 ISZERO PUSH2 0x227E JUMPI JUMPDEST POP ISZERO ISZERO DUP2 MSTORE RETURN JUMPDEST PUSH4 0x1FFC9A7 PUSH1 0xE0 SHL EQ SWAP1 POP DUP4 PUSH2 0x2277 JUMP JUMPDEST PUSH1 0x4 CALLDATALOAD SWAP1 PUSH1 0x1 PUSH1 0x1 PUSH1 0xA0 SHL SUB DUP3 AND DUP3 SUB PUSH2 0x567 JUMPI JUMP JUMPDEST PUSH1 0x24 CALLDATALOAD SWAP1 PUSH1 0x1 PUSH1 0x1 PUSH1 0xA0 SHL SUB DUP3 AND DUP3 SUB PUSH2 0x567 JUMPI JUMP JUMPDEST SWAP1 DUP2 MLOAD DUP1 DUP3 MSTORE PUSH1 0x20 DUP1 DUP1 SWAP4 ADD SWAP4 ADD SWAP2 PUSH1 0x0 JUMPDEST DUP3 DUP2 LT PUSH2 0x22DB JUMPI POP POP POP POP SWAP1 JUMP JUMPDEST DUP4 MLOAD DUP6 MSTORE SWAP4 DUP2 ADD SWAP4 SWAP3 DUP2 ADD SWAP3 PUSH1 0x1 ADD PUSH2 0x22CD JUMP JUMPDEST SWAP2 SWAP1 DUP3 MLOAD SWAP3 DUP4 DUP3 MSTORE PUSH1 0x0 JUMPDEST DUP5 DUP2 LT PUSH2 0x231B JUMPI POP POP DUP3 PUSH1 0x0 PUSH1 0x20 DUP1 SWAP5 SWAP6 DUP5 ADD ADD MSTORE PUSH1 0x1F DUP1 NOT SWAP2 ADD AND ADD ADD SWAP1 JUMP JUMPDEST PUSH1 0x20 DUP2 DUP4 ADD DUP2 ADD MLOAD DUP5 DUP4 ADD DUP3 ADD MSTORE ADD PUSH2 0x22FA JUMP JUMPDEST SWAP3 PUSH2 0x2357 PUSH2 0x2348 PUSH2 0x2365 SWAP4 PUSH1 0x80 DUP8 MSTORE PUSH1 0x80 DUP8 ADD SWAP1 PUSH2 0x22BB JUMP JUMPDEST PUSH1 0x20 SWAP5 DUP7 DUP3 SUB DUP7 DUP9 ADD MSTORE PUSH2 0x22BB JUMP JUMPDEST SWAP1 DUP5 DUP3 SUB PUSH1 0x40 DUP7 ADD MSTORE PUSH2 0x22BB JUMP JUMPDEST SWAP2 PUSH1 0x60 DUP2 DUP5 SUB SWAP2 ADD MSTORE DUP3 MLOAD SWAP1 DUP2 DUP4 MSTORE DUP1 DUP4 ADD SWAP3 DUP2 DUP1 DUP5 PUSH1 0x5 SHL DUP4 ADD ADD SWAP6 ADD SWAP4 PUSH1 0x0 SWAP2 JUMPDEST DUP5 DUP4 LT PUSH2 0x2398 JUMPI POP POP POP POP POP POP SWAP1 JUMP JUMPDEST SWAP1 SWAP2 SWAP3 SWAP4 SWAP5 SWAP6 DUP5 DUP1 PUSH2 0x23B6 PUSH1 0x1 SWAP4 PUSH1 0x1F NOT DUP7 DUP3 SUB ADD DUP8 MSTORE DUP11 MLOAD PUSH2 0x22EF JUMP JUMPDEST SWAP9 ADD SWAP4 ADD SWAP4 ADD SWAP2 SWAP5 SWAP4 SWAP3 SWAP1 PUSH2 0x2388 JUMP JUMPDEST SWAP2 DUP2 PUSH1 0x1F DUP5 ADD SLT ISZERO PUSH2 0x567 JUMPI DUP3 CALLDATALOAD SWAP2 PUSH1 0x1 PUSH1 0x1 PUSH1 0x40 SHL SUB DUP4 GT PUSH2 0x567 JUMPI PUSH1 0x20 DUP1 DUP6 ADD SWAP5 DUP5 PUSH1 0x5 SHL ADD ADD GT PUSH2 0x567 JUMPI JUMP JUMPDEST SWAP2 DUP2 PUSH1 0x1F DUP5 ADD SLT ISZERO PUSH2 0x567 JUMPI DUP3 CALLDATALOAD SWAP2 PUSH1 0x1 PUSH1 0x1 PUSH1 0x40 SHL SUB DUP4 GT PUSH2 0x567 JUMPI PUSH1 0x20 DUP4 DUP2 DUP7 ADD SWAP6 ADD ADD GT PUSH2 0x567 JUMPI JUMP JUMPDEST PUSH1 0xA0 DUP2 ADD SWAP1 DUP2 LT PUSH1 0x1 PUSH1 0x1 PUSH1 0x40 SHL SUB DUP3 GT OR PUSH2 0x243E JUMPI PUSH1 0x40 MSTORE JUMP JUMPDEST PUSH4 0x4E487B71 PUSH1 0xE0 SHL PUSH1 0x0 MSTORE PUSH1 0x41 PUSH1 0x4 MSTORE PUSH1 0x24 PUSH1 0x0 REVERT JUMPDEST PUSH1 0x1 PUSH1 0x1 PUSH1 0x40 SHL SUB DUP2 GT PUSH2 0x243E JUMPI PUSH1 0x40 MSTORE JUMP JUMPDEST PUSH1 0x40 DUP2 ADD SWAP1 DUP2 LT PUSH1 0x1 PUSH1 0x1 PUSH1 0x40 SHL SUB DUP3 GT OR PUSH2 0x243E JUMPI PUSH1 0x40 MSTORE JUMP JUMPDEST PUSH1 0x20 DUP2 ADD SWAP1 DUP2 LT PUSH1 0x1 PUSH1 0x1 PUSH1 0x40 SHL SUB DUP3 GT OR PUSH2 0x243E JUMPI PUSH1 0x40 MSTORE JUMP JUMPDEST SWAP1 PUSH1 0x1F DUP1 NOT SWAP2 ADD AND DUP2 ADD SWAP1 DUP2 LT PUSH1 0x1 PUSH1 0x1 PUSH1 0x40 SHL SUB DUP3 GT OR PUSH2 0x243E JUMPI PUSH1 0x40 MSTORE JUMP JUMPDEST PUSH1 0x1 PUSH1 0x1 PUSH1 0x40 SHL SUB DUP2 GT PUSH2 0x243E JUMPI PUSH1 0x1F ADD PUSH1 0x1F NOT AND PUSH1 0x20 ADD SWAP1 JUMP JUMPDEST PUSH1 0x0 SLOAD PUSH1 0x1 PUSH1 0x1 PUSH1 0xA0 SHL SUB AND CALLER SUB PUSH2 0x24ED JUMPI JUMP JUMPDEST PUSH1 0x40 MLOAD PUSH4 0x118CDAA7 PUSH1 0xE0 SHL DUP2 MSTORE CALLER PUSH1 0x4 DUP3 ADD MSTORE PUSH1 0x24 SWAP1 REVERT JUMPDEST PUSH1 0x0 DUP1 SLOAD PUSH1 0x1 PUSH1 0x1 PUSH1 0xA0 SHL SUB SWAP3 DUP4 AND PUSH1 0x1 PUSH1 0x1 PUSH1 0xA0 SHL SUB NOT DUP3 AND DUP2 OR DUP4 SSTORE SWAP3 AND SWAP1 PUSH32 0x8BE0079C531659141344CD1FD0A4F28419497F9722A3DAAFE3B4186F6B6457E0 SWAP1 DUP1 LOG3 JUMP JUMPDEST SWAP1 DUP2 PUSH1 0x20 SWAP2 SUB SLT PUSH2 0x567 JUMPI MLOAD PUSH1 0x1 PUSH1 0x1 PUSH1 0xA0 SHL SUB DUP2 AND DUP2 SUB PUSH2 0x567 JUMPI SWAP1 JUMP JUMPDEST SWAP2 SWAP1 DUP3 ADD DUP1 SWAP3 GT PUSH2 0x2578 JUMPI JUMP JUMPDEST PUSH4 0x4E487B71 PUSH1 0xE0 SHL PUSH1 0x0 MSTORE PUSH1 0x11 PUSH1 0x4 MSTORE PUSH1 0x24 PUSH1 0x0 REVERT JUMPDEST ISZERO PUSH2 0x2595 JUMPI JUMP JUMPDEST PUSH1 0x40 MLOAD PUSH3 0x461BCD PUSH1 0xE5 SHL DUP2 MSTORE PUSH1 0x20 PUSH1 0x4 DUP3 ADD MSTORE PUSH1 0x1A PUSH1 0x24 DUP3 ADD MSTORE PUSH32 0x436F6E747261637420686173206265656E206D69677261746564000000000000 PUSH1 0x44 DUP3 ADD MSTORE PUSH1 0x64 SWAP1 REVERT JUMPDEST SWAP1 DUP2 PUSH1 0x20 SWAP2 SUB SLT PUSH2 0x567 JUMPI MLOAD DUP1 ISZERO ISZERO DUP2 SUB PUSH2 0x567 JUMPI SWAP1 JUMP JUMPDEST ISZERO PUSH2 0x25F9 JUMPI JUMP JUMPDEST PUSH1 0x40 MLOAD PUSH3 0x461BCD PUSH1 0xE5 SHL DUP2 MSTORE PUSH1 0x20 PUSH1 0x4 DUP3 ADD MSTORE PUSH1 0xF PUSH1 0x24 DUP3 ADD MSTORE PUSH15 0x151C985B9CD9995C8819985A5B1959 PUSH1 0x8A SHL PUSH1 0x44 DUP3 ADD MSTORE PUSH1 0x64 SWAP1 REVERT JUMPDEST SWAP2 SWAP1 DUP3 SUB SWAP2 DUP3 GT PUSH2 0x2578 JUMPI JUMP JUMPDEST ISZERO PUSH2 0x2644 JUMPI JUMP JUMPDEST PUSH1 0x40 MLOAD PUSH3 0x461BCD PUSH1 0xE5 SHL DUP2 MSTORE PUSH1 0x20 PUSH1 0x4 DUP3 ADD MSTORE PUSH1 0xF PUSH1 0x24 DUP3 ADD MSTORE PUSH15 0x139BC81CDA185C995CC81BDDDB9959 PUSH1 0x8A SHL PUSH1 0x44 DUP3 ADD MSTORE PUSH1 0x64 SWAP1 REVERT JUMPDEST ISZERO PUSH2 0x2682 JUMPI JUMP JUMPDEST PUSH1 0x40 MLOAD PUSH3 0x461BCD PUSH1 0xE5 SHL DUP2 MSTORE PUSH1 0x20 PUSH1 0x4 DUP3 ADD MSTORE PUSH1 0xD PUSH1 0x24 DUP3 ADD MSTORE PUSH13 0x4E6F206E65772065706F636873 PUSH1 0x98 SHL PUSH1 0x44 DUP3 ADD MSTORE PUSH1 0x64 SWAP1 REVERT JUMPDEST PUSH1 0x0 NOT DUP2 EQ PUSH2 0x2578 JUMPI PUSH1 0x1 ADD SWAP1 JUMP JUMPDEST PUSH1 0xD SLOAD DUP2 LT ISZERO PUSH2 0x2701 JUMPI PUSH1 0x5 SWAP1 PUSH1 0xD PUSH1 0x0 MSTORE MUL PUSH32 0xD7B6990105719101DABEB77144F2A3385C8033ACD3AF97E9423A695E81AD1EB5 ADD SWAP1 PUSH1 0x0 SWAP1 JUMP JUMPDEST PUSH4 0x4E487B71 PUSH1 0xE0 SHL PUSH1 0x0 MSTORE PUSH1 0x32 PUSH1 0x4 MSTORE PUSH1 0x24 PUSH1 0x0 REVERT JUMPDEST PUSH1 0xC SLOAD DUP2 LT ISZERO PUSH2 0x2701 JUMPI PUSH1 0x5 SWAP1 PUSH1 0xC PUSH1 0x0 MSTORE MUL PUSH32 0xDF6966C971051C3D54EC59162606531493A51404A002842F56009D7E5CF4A8C7 ADD SWAP1 PUSH1 0x0 SWAP1 JUMP JUMPDEST SWAP1 PUSH1 0x40 MLOAD PUSH2 0x275F DUP2 PUSH2 0x2423 JUMP JUMPDEST DUP3 SLOAD DUP2 MSTORE PUSH1 0x1 DUP4 ADD SLOAD PUSH1 0x20 DUP3 ADD MSTORE PUSH1 0x2 DUP4 ADD SLOAD PUSH1 0x40 DUP3 ADD MSTORE PUSH1 0x3 DUP4 ADD SLOAD PUSH1 0x60 DUP3 ADD MSTORE PUSH1 0x4 SWAP1 SWAP3 ADD SLOAD PUSH1 0x1 PUSH1 0x1 PUSH1 0xA0 SHL SUB AND PUSH1 0x80 DUP4 ADD MSTORE JUMP JUMPDEST DUP2 DUP2 MUL SWAP3 SWAP2 DUP2 ISZERO SWAP2 DUP5 DIV EQ OR ISZERO PUSH2 0x2578 JUMPI JUMP JUMPDEST DUP2 ISZERO PUSH2 0x27B4 JUMPI DIV SWAP1 JUMP JUMPDEST PUSH4 0x4E487B71 PUSH1 0xE0 SHL PUSH1 0x0 MSTORE PUSH1 0x12 PUSH1 0x4 MSTORE PUSH1 0x24 PUSH1 0x0 REVERT JUMPDEST RETURNDATASIZE ISZERO PUSH2 0x27F5 JUMPI RETURNDATASIZE SWAP1 PUSH2 0x27DB DUP3 PUSH2 0x24BE JUMP JUMPDEST SWAP2 PUSH2 0x27E9 PUSH1 0x40 MLOAD SWAP4 DUP5 PUSH2 0x249D JUMP JUMPDEST DUP3 MSTORE RETURNDATASIZE PUSH1 0x0 PUSH1 0x20 DUP5 ADD RETURNDATACOPY JUMP JUMPDEST PUSH1 0x60 SWAP1 JUMP JUMPDEST PUSH1 0x2 PUSH1 0x1 SLOAD EQ PUSH2 0x280B JUMPI PUSH1 0x2 PUSH1 0x1 SSTORE JUMP JUMPDEST PUSH1 0x40 MLOAD PUSH4 0x3EE5AEB5 PUSH1 0xE0 SHL DUP2 MSTORE PUSH1 0x4 SWAP1 REVERT JUMPDEST PUSH1 0x1 PUSH1 0x1 PUSH1 0xA0 SHL SUB SWAP1 DUP2 AND PUSH1 0x0 SWAP1 DUP2 MSTORE PUSH1 0xB PUSH1 0x20 MSTORE PUSH1 0x40 DUP2 KECCAK256 SWAP2 SWAP1 SWAP3 AND ISZERO SWAP3 SWAP1 DUP4 ISZERO PUSH2 0x287C JUMPI PUSH1 0x1 ADD SLOAD SWAP3 JUMPDEST ISZERO PUSH2 0x2873 JUMPI DUP3 PUSH1 0xC SLOAD JUMPDEST DUP2 DUP2 GT PUSH2 0x2862 JUMPI POP POP DUP2 SWAP3 SWAP2 SWAP1 JUMP JUMPDEST PUSH2 0x286D SWAP3 SWAP4 POP PUSH2 0x2630 JUMP JUMPDEST PUSH1 0x1 SWAP3 SWAP2 JUMP JUMPDEST DUP3 PUSH1 0xD SLOAD PUSH2 0x2853 JUMP JUMPDEST SLOAD SWAP3 PUSH2 0x2849 JUMP JUMPDEST PUSH1 0x1 PUSH1 0x1 PUSH1 0x40 SHL SUB DUP2 GT PUSH2 0x243E JUMPI PUSH1 0x5 SHL PUSH1 0x20 ADD SWAP1 JUMP JUMPDEST SWAP1 PUSH2 0x28A4 DUP3 PUSH2 0x2883 JUMP JUMPDEST PUSH2 0x28B1 PUSH1 0x40 MLOAD SWAP2 DUP3 PUSH2 0x249D JUMP JUMPDEST DUP3 DUP2 MSTORE DUP1 SWAP3 PUSH2 0x28C2 PUSH1 0x1F NOT SWAP2 PUSH2 0x2883 JUMP JUMPDEST ADD SWAP1 PUSH1 0x20 CALLDATASIZE SWAP2 ADD CALLDATACOPY JUMP JUMPDEST SWAP1 PUSH2 0x28D6 DUP3 PUSH2 0x2883 JUMP JUMPDEST PUSH2 0x28E3 PUSH1 0x40 MLOAD SWAP2 DUP3 PUSH2 0x249D JUMP JUMPDEST DUP3 DUP2 MSTORE DUP1 SWAP3 PUSH2 0x28F4 PUSH1 0x1F NOT SWAP2 PUSH2 0x2883 JUMP JUMPDEST ADD SWAP1 PUSH1 0x0 JUMPDEST DUP3 DUP2 LT PUSH2 0x2905 JUMPI POP POP POP JUMP JUMPDEST DUP1 PUSH1 0x60 PUSH1 0x20 DUP1 SWAP4 DUP6 ADD ADD MSTORE ADD PUSH2 0x28F9 JUMP JUMPDEST DUP1 MLOAD DUP3 LT ISZERO PUSH2 0x2701 JUMPI PUSH1 0x20 SWAP2 PUSH1 0x5 SHL ADD ADD SWAP1 JUMP JUMPDEST PUSH1 0x2 SLOAD PUSH1 0x7 SLOAD PUSH1 0x40 MLOAD PUSH3 0x7EEAC7 PUSH1 0xE1 SHL DUP2 MSTORE PUSH1 0x1 PUSH1 0x1 PUSH1 0xA0 SHL SUB DUP5 DUP2 AND PUSH1 0x4 DUP4 ADD MSTORE PUSH1 0x24 DUP3 ADD DUP4 SWAP1 MSTORE SWAP4 SWAP5 SWAP3 DUP5 AND SWAP4 SWAP2 SWAP3 SWAP2 SWAP1 PUSH1 0x20 DUP2 PUSH1 0x44 DUP2 DUP9 GAS STATICCALL SWAP1 DUP2 ISZERO PUSH2 0x2AE0 JUMPI PUSH1 0x0 SWAP2 PUSH2 0x2B3B JUMPI JUMPDEST POP ISZERO PUSH2 0x2AEC JUMPI DUP5 AND PUSH1 0x0 MSTORE PUSH1 0xB PUSH1 0x20 MSTORE PUSH1 0x1 PUSH1 0x40 PUSH1 0x0 KECCAK256 ADD SLOAD PUSH1 0xC SLOAD PUSH2 0x29A3 PUSH2 0x299E DUP4 DUP4 PUSH2 0x2630 JUMP JUMPDEST PUSH2 0x289A JUMP JUMPDEST SWAP2 PUSH2 0x29B1 PUSH2 0x299E DUP3 DUP5 PUSH2 0x2630 JUMP JUMPDEST SWAP7 PUSH2 0x29BF PUSH2 0x299E DUP4 DUP6 PUSH2 0x2630 JUMP JUMPDEST SWAP7 PUSH2 0x29D2 PUSH2 0x29CD DUP5 DUP7 PUSH2 0x2630 JUMP JUMPDEST PUSH2 0x28CC JUMP JUMPDEST SWAP7 DUP4 JUMPDEST DUP6 DUP2 LT PUSH2 0x29E8 JUMPI POP POP POP POP POP POP SWAP4 SWAP3 SWAP2 SWAP1 JUMP JUMPDEST PUSH2 0x29F4 PUSH2 0x167C DUP3 PUSH2 0x2717 JUMP JUMPDEST DUP1 MLOAD PUSH2 0x2A09 PUSH2 0x2A03 DUP9 DUP6 PUSH2 0x2630 JUMP JUMPDEST DUP11 PUSH2 0x2916 JUMP JUMPDEST MSTORE PUSH1 0x60 DUP2 ADD MLOAD PUSH1 0x40 MLOAD PUSH4 0xC4DB40D PUSH1 0xE3 SHL DUP2 MSTORE PUSH1 0x1 PUSH1 0x1 PUSH1 0xA0 SHL SUB DUP8 AND PUSH1 0x4 DUP3 ADD MSTORE PUSH1 0x24 DUP2 ADD DUP6 SWAP1 MSTORE PUSH1 0x44 DUP2 ADD SWAP2 SWAP1 SWAP2 MSTORE PUSH1 0x20 DUP2 PUSH1 0x64 DUP2 DUP9 GAS STATICCALL DUP1 ISZERO PUSH2 0x2AE0 JUMPI DUP14 SWAP2 PUSH1 0x0 SWAP2 PUSH2 0x2AAA JUMPI JUMPDEST POP SWAP2 PUSH1 0x60 SWAP2 PUSH2 0x2A89 PUSH8 0xDE0B6B3A7640000 PUSH2 0x2A77 PUSH2 0x2AA5 SWAP8 SWAP7 PUSH1 0x40 DUP7 ADD MLOAD SWAP1 PUSH2 0x2797 JUMP JUMPDEST DIV SWAP2 PUSH2 0x2A83 DUP12 DUP8 PUSH2 0x2630 JUMP JUMPDEST SWAP1 PUSH2 0x2916 JUMP JUMPDEST MSTORE ADD MLOAD PUSH2 0x2A9F PUSH2 0x2A99 DUP9 DUP5 PUSH2 0x2630 JUMP JUMPDEST DUP14 PUSH2 0x2916 JUMP JUMPDEST MSTORE PUSH2 0x26B7 JUMP JUMPDEST PUSH2 0x29D5 JUMP JUMPDEST SWAP2 POP PUSH1 0x20 DUP3 RETURNDATASIZE PUSH1 0x20 GT PUSH2 0x2AD8 JUMPI JUMPDEST DUP2 PUSH2 0x2AC5 PUSH1 0x20 SWAP4 DUP4 PUSH2 0x249D JUMP JUMPDEST DUP2 ADD SUB SLT PUSH2 0x2CA JUMPI POP MLOAD DUP13 SWAP1 PUSH1 0x60 PUSH2 0x2A53 JUMP JUMPDEST RETURNDATASIZE SWAP2 POP PUSH2 0x2AB8 JUMP JUMPDEST PUSH1 0x40 MLOAD RETURNDATASIZE PUSH1 0x0 DUP3 RETURNDATACOPY RETURNDATASIZE SWAP1 REVERT JUMPDEST POP SWAP3 POP POP POP PUSH1 0x40 MLOAD SWAP1 PUSH2 0x2AFE DUP3 PUSH2 0x2482 JUMP JUMPDEST PUSH1 0x0 DUP3 MSTORE PUSH1 0x40 MLOAD SWAP2 PUSH2 0x2B0F DUP4 PUSH2 0x2482 JUMP JUMPDEST PUSH1 0x0 DUP4 MSTORE PUSH1 0x40 MLOAD SWAP2 PUSH2 0x2B20 DUP4 PUSH2 0x2482 JUMP JUMPDEST PUSH1 0x0 DUP4 MSTORE PUSH1 0x40 MLOAD SWAP2 PUSH2 0x2B31 DUP4 PUSH2 0x2482 JUMP JUMPDEST PUSH1 0x0 DUP4 MSTORE SWAP4 SWAP3 SWAP2 SWAP1 JUMP JUMPDEST SWAP1 PUSH1 0x20 DUP3 RETURNDATASIZE PUSH1 0x20 GT PUSH2 0x2B65 JUMPI JUMPDEST DUP2 PUSH2 0x2B55 PUSH1 0x20 SWAP4 DUP4 PUSH2 0x249D JUMP JUMPDEST DUP2 ADD SUB SLT PUSH2 0x2CA JUMPI POP MLOAD CODESIZE PUSH2 0x2975 JUMP JUMPDEST RETURNDATASIZE SWAP2 POP PUSH2 0x2B48 JUMP JUMPDEST PUSH1 0x2 SLOAD PUSH1 0x7 SLOAD PUSH1 0x40 MLOAD PUSH3 0x7EEAC7 PUSH1 0xE1 SHL DUP2 MSTORE PUSH1 0x1 PUSH1 0x1 PUSH1 0xA0 SHL SUB DUP5 DUP2 AND PUSH1 0x4 DUP4 ADD MSTORE PUSH1 0x24 DUP3 ADD DUP4 SWAP1 MSTORE SWAP4 SWAP5 SWAP3 DUP5 AND SWAP4 SWAP2 SWAP3 SWAP2 SWAP1 PUSH1 0x20 DUP2 PUSH1 0x44 DUP2 DUP9 GAS STATICCALL SWAP1 DUP2 ISZERO PUSH2 0x2AE0 JUMPI PUSH1 0x0 SWAP2 PUSH2 0x2CE2 JUMPI JUMPDEST POP ISZERO PUSH2 0x2AEC JUMPI DUP5 AND PUSH1 0x0 MSTORE PUSH1 0xB PUSH1 0x20 MSTORE PUSH1 0x40 PUSH1 0x0 KECCAK256 SLOAD PUSH1 0xD SLOAD PUSH2 0x2BDE PUSH2 0x299E DUP4 DUP4 PUSH2 0x2630 JUMP JUMPDEST SWAP2 PUSH2 0x2BEC PUSH2 0x299E DUP3 DUP5 PUSH2 0x2630 JUMP JUMPDEST SWAP7 PUSH2 0x2BFA PUSH2 0x299E DUP4 DUP6 PUSH2 0x2630 JUMP JUMPDEST SWAP7 PUSH2 0x2C08 PUSH2 0x29CD DUP5 DUP7 PUSH2 0x2630 JUMP JUMPDEST SWAP7 DUP4 JUMPDEST DUP6 DUP2 LT PUSH2 0x2C1E JUMPI POP POP POP POP POP POP SWAP4 SWAP3 SWAP2 SWAP1 JUMP JUMPDEST PUSH2 0x2C2A PUSH2 0x167C DUP3 PUSH2 0x26C6 JUMP JUMPDEST DUP1 MLOAD PUSH2 0x2C39 PUSH2 0x2A03 DUP9 DUP6 PUSH2 0x2630 JUMP JUMPDEST MSTORE PUSH1 0x60 DUP2 ADD MLOAD PUSH1 0x40 MLOAD PUSH4 0xC4DB40D PUSH1 0xE3 SHL DUP2 MSTORE PUSH1 0x1 PUSH1 0x1 PUSH1 0xA0 SHL SUB DUP8 AND PUSH1 0x4 DUP3 ADD MSTORE PUSH1 0x24 DUP2 ADD DUP6 SWAP1 MSTORE PUSH1 0x44 DUP2 ADD SWAP2 SWAP1 SWAP2 MSTORE PUSH1 0x20 DUP2 PUSH1 0x64 DUP2 DUP9 GAS STATICCALL DUP1 ISZERO PUSH2 0x2AE0 JUMPI DUP14 SWAP2 PUSH1 0x0 SWAP2 PUSH2 0x2CAC JUMPI JUMPDEST POP SWAP2 PUSH1 0x60 SWAP2 PUSH2 0x2A89 PUSH8 0xDE0B6B3A7640000 PUSH2 0x2A77 PUSH2 0x2CA7 SWAP8 SWAP7 PUSH1 0x40 DUP7 ADD MLOAD SWAP1 PUSH2 0x2797 JUMP JUMPDEST PUSH2 0x2C0B JUMP JUMPDEST SWAP2 POP PUSH1 0x20 DUP3 RETURNDATASIZE PUSH1 0x20 GT PUSH2 0x2CDA JUMPI JUMPDEST DUP2 PUSH2 0x2CC7 PUSH1 0x20 SWAP4 DUP4 PUSH2 0x249D JUMP JUMPDEST DUP2 ADD SUB SLT PUSH2 0x2CA JUMPI POP MLOAD DUP13 SWAP1 PUSH1 0x60 PUSH2 0x2C83 JUMP JUMPDEST RETURNDATASIZE SWAP2 POP PUSH2 0x2CBA JUMP JUMPDEST SWAP1 PUSH1 0x20 DUP3 RETURNDATASIZE PUSH1 0x20 GT PUSH2 0x2D0C JUMPI JUMPDEST DUP2 PUSH2 0x2CFC PUSH1 0x20 SWAP4 DUP4 PUSH2 0x249D JUMP JUMPDEST DUP2 ADD SUB SLT PUSH2 0x2CA JUMPI POP MLOAD CODESIZE PUSH2 0x2BB8 JUMP JUMPDEST RETURNDATASIZE SWAP2 POP PUSH2 0x2CEF JUMP JUMPDEST PUSH1 0x2 SLOAD PUSH1 0x7 SLOAD PUSH1 0x40 DUP1 MLOAD PUSH3 0x7EEAC7 PUSH1 0xE1 SHL DUP2 MSTORE PUSH1 0x1 PUSH1 0x1 PUSH1 0xA0 SHL SUB DUP6 DUP2 AND PUSH1 0x4 DUP1 DUP5 ADD SWAP2 SWAP1 SWAP2 MSTORE PUSH1 0x24 DUP4 ADD DUP6 SWAP1 MSTORE SWAP4 SWAP6 SWAP5 DUP2 AND SWAP5 PUSH1 0x20 SWAP5 SWAP1 SWAP3 SWAP1 SWAP2 SWAP1 DUP6 DUP2 PUSH1 0x44 DUP2 DUP11 GAS STATICCALL SWAP1 DUP2 ISZERO PUSH2 0x2EB3 JUMPI PUSH1 0x0 SWAP2 PUSH2 0x2E86 JUMPI JUMPDEST POP ISZERO PUSH2 0x2E7A JUMPI DUP3 SWAP2 SWAP7 SWAP5 SWAP4 SWAP3 AND PUSH1 0x0 MSTORE PUSH1 0xB DUP4 MSTORE PUSH1 0x1 DUP3 PUSH1 0x0 KECCAK256 ADD SLOAD SWAP6 PUSH1 0xC SLOAD SWAP5 PUSH1 0x0 SWAP8 SWAP7 JUMPDEST DUP7 DUP9 LT PUSH2 0x2D9F JUMPI POP POP POP POP POP POP POP POP SWAP1 JUMP JUMPDEST SWAP1 SWAP2 SWAP3 SWAP4 SWAP5 SWAP6 SWAP7 SWAP8 PUSH2 0x2DF3 PUSH2 0x2DB6 PUSH2 0x167C DUP12 PUSH2 0x2717 JUMP JUMPDEST PUSH1 0x60 DUP2 DUP2 ADD MLOAD DUP10 MLOAD PUSH4 0xC4DB40D PUSH1 0xE3 SHL DUP2 MSTORE PUSH1 0x1 PUSH1 0x1 PUSH1 0xA0 SHL SUB DUP11 AND DUP10 DUP3 ADD SWAP1 DUP2 MSTORE PUSH1 0x20 DUP2 ADD DUP10 SWAP1 MSTORE PUSH1 0x40 DUP2 ADD SWAP3 SWAP1 SWAP3 MSTORE SWAP4 DUP12 SWAP3 DUP6 SWAP3 DUP4 SWAP3 SWAP2 ADD SWAP1 JUMP JUMPDEST SUB DUP2 DUP8 GAS STATICCALL SWAP2 DUP3 ISZERO PUSH2 0x2E6F JUMPI SWAP1 DUP9 SWAP2 PUSH1 0x0 SWAP4 PUSH2 0x2E3B JUMPI JUMPDEST POP PUSH2 0x20F9 PUSH2 0x2E29 SWAP4 PUSH2 0x2E2F SWAP6 SWAP4 PUSH8 0xDE0B6B3A7640000 SWAP4 ADD MLOAD SWAP1 PUSH2 0x2797 JUMP JUMPDEST SWAP9 PUSH2 0x26B7 JUMP JUMPDEST SWAP7 SWAP6 SWAP5 SWAP4 SWAP3 SWAP2 SWAP1 PUSH2 0x2D8D JUMP JUMPDEST SWAP2 POP SWAP2 DUP10 DUP3 DUP2 RETURNDATASIZE DUP4 GT PUSH2 0x2E68 JUMPI JUMPDEST PUSH2 0x2E53 DUP2 DUP4 PUSH2 0x249D JUMP JUMPDEST DUP2 ADD SUB SLT PUSH2 0x2CA JUMPI POP MLOAD SWAP1 DUP8 SWAP1 PUSH2 0x20F9 PUSH2 0x2E0A JUMP JUMPDEST POP RETURNDATASIZE PUSH2 0x2E49 JUMP JUMPDEST DUP9 MLOAD RETURNDATASIZE PUSH1 0x0 DUP3 RETURNDATACOPY RETURNDATASIZE SWAP1 REVERT JUMPDEST POP POP POP POP POP POP POP PUSH1 0x0 SWAP1 JUMP JUMPDEST SWAP1 DUP7 DUP3 DUP2 RETURNDATASIZE DUP4 GT PUSH2 0x2EAC JUMPI JUMPDEST PUSH2 0x2E9C DUP2 DUP4 PUSH2 0x249D JUMP JUMPDEST DUP2 ADD SUB SLT PUSH2 0x2CA JUMPI POP MLOAD CODESIZE PUSH2 0x2D67 JUMP JUMPDEST POP RETURNDATASIZE PUSH2 0x2E92 JUMP JUMPDEST DUP6 MLOAD RETURNDATASIZE PUSH1 0x0 DUP3 RETURNDATACOPY RETURNDATASIZE SWAP1 REVERT JUMPDEST PUSH1 0x2 SLOAD PUSH1 0x7 SLOAD PUSH1 0x40 DUP1 MLOAD PUSH3 0x7EEAC7 PUSH1 0xE1 SHL DUP2 MSTORE PUSH1 0x1 PUSH1 0x1 PUSH1 0xA0 SHL SUB DUP6 DUP2 AND PUSH1 0x4 DUP1 DUP5 ADD SWAP2 SWAP1 SWAP2 MSTORE PUSH1 0x24 DUP4 ADD DUP6 SWAP1 MSTORE SWAP4 SWAP6 SWAP5 DUP2 AND SWAP5 PUSH1 0x20 SWAP5 SWAP1 SWAP3 SWAP1 SWAP2 SWAP1 DUP6 DUP2 PUSH1 0x44 DUP2 DUP11 GAS STATICCALL SWAP1 DUP2 ISZERO PUSH2 0x2EB3 JUMPI PUSH1 0x0 SWAP2 PUSH2 0x2FD3 JUMPI JUMPDEST POP ISZERO PUSH2 0x2E7A JUMPI DUP3 SWAP2 SWAP7 SWAP5 SWAP4 SWAP3 AND PUSH1 0x0 MSTORE PUSH1 0xB DUP4 MSTORE DUP2 PUSH1 0x0 KECCAK256 SLOAD SWAP6 PUSH1 0xD SLOAD SWAP5 PUSH1 0x0 SWAP8 SWAP7 JUMPDEST DUP7 DUP9 LT PUSH2 0x2F46 JUMPI POP POP POP POP POP POP POP POP SWAP1 JUMP JUMPDEST SWAP1 SWAP2 SWAP3 SWAP4 SWAP5 SWAP6 SWAP7 SWAP8 PUSH2 0x2F5D PUSH2 0x2DB6 PUSH2 0x167C DUP12 PUSH2 0x26C6 JUMP JUMPDEST SUB DUP2 DUP8 GAS STATICCALL SWAP2 DUP3 ISZERO PUSH2 0x2E6F JUMPI SWAP1 DUP9 SWAP2 PUSH1 0x0 SWAP4 PUSH2 0x2F9F JUMPI JUMPDEST POP PUSH2 0x20F9 PUSH2 0x2E29 SWAP4 PUSH2 0x2F93 SWAP6 SWAP4 PUSH8 0xDE0B6B3A7640000 SWAP4 ADD MLOAD SWAP1 PUSH2 0x2797 JUMP JUMPDEST SWAP7 SWAP6 SWAP5 SWAP4 SWAP3 SWAP2 SWAP1 PUSH2 0x2F34 JUMP JUMPDEST SWAP2 POP SWAP2 DUP10 DUP3 DUP2 RETURNDATASIZE DUP4 GT PUSH2 0x2FCC JUMPI JUMPDEST PUSH2 0x2FB7 DUP2 DUP4 PUSH2 0x249D JUMP JUMPDEST DUP2 ADD SUB SLT PUSH2 0x2CA JUMPI POP MLOAD SWAP1 DUP8 SWAP1 PUSH2 0x20F9 PUSH2 0x2F74 JUMP JUMPDEST POP RETURNDATASIZE PUSH2 0x2FAD JUMP JUMPDEST SWAP1 DUP7 DUP3 DUP2 RETURNDATASIZE DUP4 GT PUSH2 0x2FF9 JUMPI JUMPDEST PUSH2 0x2FE9 DUP2 DUP4 PUSH2 0x249D JUMP JUMPDEST DUP2 ADD SUB SLT PUSH2 0x2CA JUMPI POP MLOAD CODESIZE PUSH2 0x2F11 JUMP JUMPDEST POP RETURNDATASIZE PUSH2 0x2FDF JUMP JUMPDEST ISZERO PUSH2 0x3007 JUMPI JUMP JUMPDEST PUSH1 0x40 MLOAD PUSH3 0x461BCD PUSH1 0xE5 SHL DUP2 MSTORE PUSH1 0x20 PUSH1 0x4 DUP3 ADD MSTORE PUSH1 0xF PUSH1 0x24 DUP3 ADD MSTORE PUSH15 0x139BC81CDA185C995CC8195E1A5CDD PUSH1 0x8A SHL PUSH1 0x44 DUP3 ADD MSTORE PUSH1 0x64 SWAP1 REVERT JUMPDEST PUSH1 0x40 MLOAD SWAP1 PUSH2 0x304B DUP3 PUSH2 0x2423 JUMP JUMPDEST PUSH1 0x0 PUSH1 0x80 DUP4 DUP3 DUP2 MSTORE DUP3 PUSH1 0x20 DUP3 ADD MSTORE DUP3 PUSH1 0x40 DUP3 ADD MSTORE DUP3 PUSH1 0x60 DUP3 ADD MSTORE ADD MSTORE JUMP INVALID LOG2 PUSH5 0x6970667358 0x22 SLT KECCAK256 0x26 MOD 0xA6 0xAE 0xFB LT 0xE0 EQ LOG4 DUP9 0xF 0x22 0xFB 0xD8 MSTORE8 EXTCODECOPY 0xBB SHL SWAP8 0xC6 SWAP4 0xBF DUP1 0xC9 0xC1 ORIGIN PUSH3 0xDBC80 0xFC 0x28 PUSH5 0x736F6C6343 STOP ADDMOD EQ STOP CALLER "},"methodIdentifiers":{"claimETHEarnings(uint256)":"6d4645fd","claimStablecoinEarnings(uint256)":"0a1c35a4","createBuyoutToken(uint256,address)":"9d3bc4bd","createETHDistributionEpoch()":"82d5195c","createLegalContract(string)":"bcb7130d","createSongShares(uint256)":"39fa62df","createStablecoinDistributionEpoch()":"2514a5fb","ethBalance()":"4e6630b0","ethEarningsEpochs(uint256)":"a2440fd5","getPendingETHEarnings(address)":"6ab415c1","getPendingStablecoinDistribution()":"5d152b36","getPendingStablecoinEarnings(address)":"fcd9b139","getUnclaimedETHEpochs(address)":"51bcece2","getUnclaimedStablecoinEpochs(address)":"b40b5e82","getWSTokenManagementAddress()":"df5afd2a","hasMoreEpochsToClaim(address,address)":"2cc6d17b","initialize(address,address,address)":"c0c53b8b","metadataModule()":"3684d100","migrateWrappedSong(address,address)":"d70a0abc","migrated()":"2c678c64","onERC1155BatchReceived(address,address,uint256[],uint256[],bytes)":"bc197c81","onERC1155Received(address,address,uint256,uint256,bytes)":"f23a6e61","owner()":"8da5cb5b","protocolModule()":"5c42e667","receiveERC20(address,uint256)":"aed4aab6","releaseModule()":"65bb98b5","renounceOwnership()":"715018a6","setWSTokenManagement(address)":"716f6e87","songSharesId()":"f3baa17f","stablecoin()":"e9cbd822","stablecoinEarningsEpochs(uint256)":"4c2b957a","supportsInterface(bytes4)":"01ffc9a7","transferOwnership(address)":"f2fde38b","userEpochBalances(address)":"c45f497e","wrappedSongTokenId()":"43d0b50f","wsTokenManagement()":"9a5cb99d"}},"storageLayout":{"storage":[{"astId":8,"contract":"contracts/protocol/NonUpgradable/WrappedSongSmartAccount.sol:WrappedSongSmartAccount","label":"_owner","offset":0,"slot":"0","type":"t_address"},{"astId":1264,"contract":"contracts/protocol/NonUpgradable/WrappedSongSmartAccount.sol:WrappedSongSmartAccount","label":"_status","offset":0,"slot":"1","type":"t_uint256"},{"astId":6529,"contract":"contracts/protocol/NonUpgradable/WrappedSongSmartAccount.sol:WrappedSongSmartAccount","label":"wsTokenManagement","offset":0,"slot":"2","type":"t_contract(IWSTokenManagement)3477"},{"astId":6532,"contract":"contracts/protocol/NonUpgradable/WrappedSongSmartAccount.sol:WrappedSongSmartAccount","label":"stablecoin","offset":0,"slot":"3","type":"t_contract(IERC20)644"},{"astId":6535,"contract":"contracts/protocol/NonUpgradable/WrappedSongSmartAccount.sol:WrappedSongSmartAccount","label":"protocolModule","offset":0,"slot":"4","type":"t_contract(IProtocolModule)3170"},{"astId":6538,"contract":"contracts/protocol/NonUpgradable/WrappedSongSmartAccount.sol:WrappedSongSmartAccount","label":"metadataModule","offset":0,"slot":"5","type":"t_contract(IMetadataModule)2932"},{"astId":6541,"contract":"contracts/protocol/NonUpgradable/WrappedSongSmartAccount.sol:WrappedSongSmartAccount","label":"releaseModule","offset":0,"slot":"6","type":"t_contract(IReleaseModule)3361"},{"astId":6543,"contract":"contracts/protocol/NonUpgradable/WrappedSongSmartAccount.sol:WrappedSongSmartAccount","label":"songSharesId","offset":0,"slot":"7","type":"t_uint256"},{"astId":6545,"contract":"contracts/protocol/NonUpgradable/WrappedSongSmartAccount.sol:WrappedSongSmartAccount","label":"wrappedSongTokenId","offset":0,"slot":"8","type":"t_uint256"},{"astId":6547,"contract":"contracts/protocol/NonUpgradable/WrappedSongSmartAccount.sol:WrappedSongSmartAccount","label":"ethBalance","offset":0,"slot":"9","type":"t_uint256"},{"astId":6549,"contract":"contracts/protocol/NonUpgradable/WrappedSongSmartAccount.sol:WrappedSongSmartAccount","label":"_pendingStablecoinEarnings","offset":0,"slot":"10","type":"t_uint256"},{"astId":6559,"contract":"contracts/protocol/NonUpgradable/WrappedSongSmartAccount.sol:WrappedSongSmartAccount","label":"_userEpochBalances","offset":0,"slot":"11","type":"t_mapping(t_address,t_struct(EpochBalance)6554_storage)"},{"astId":6574,"contract":"contracts/protocol/NonUpgradable/WrappedSongSmartAccount.sol:WrappedSongSmartAccount","label":"_ethEarningsEpochs","offset":0,"slot":"12","type":"t_array(t_struct(EarningsEpoch)6570_storage)dyn_storage"},{"astId":6578,"contract":"contracts/protocol/NonUpgradable/WrappedSongSmartAccount.sol:WrappedSongSmartAccount","label":"_stablecoinEarningsEpochs","offset":0,"slot":"13","type":"t_array(t_struct(EarningsEpoch)6570_storage)dyn_storage"},{"astId":6586,"contract":"contracts/protocol/NonUpgradable/WrappedSongSmartAccount.sol:WrappedSongSmartAccount","label":"migrated","offset":0,"slot":"14","type":"t_bool"}],"types":{"t_address":{"encoding":"inplace","label":"address","numberOfBytes":"20"},"t_array(t_struct(EarningsEpoch)6570_storage)dyn_storage":{"base":"t_struct(EarningsEpoch)6570_storage","encoding":"dynamic_array","label":"struct WrappedSongSmartAccount.EarningsEpoch[]","numberOfBytes":"32"},"t_bool":{"encoding":"inplace","label":"bool","numberOfBytes":"1"},"t_contract(IERC20)644":{"encoding":"inplace","label":"contract IERC20","numberOfBytes":"20"},"t_contract(IMetadataModule)2932":{"encoding":"inplace","label":"contract IMetadataModule","numberOfBytes":"20"},"t_contract(IProtocolModule)3170":{"encoding":"inplace","label":"contract IProtocolModule","numberOfBytes":"20"},"t_contract(IReleaseModule)3361":{"encoding":"inplace","label":"contract IReleaseModule","numberOfBytes":"20"},"t_contract(IWSTokenManagement)3477":{"encoding":"inplace","label":"contract IWSTokenManagement","numberOfBytes":"20"},"t_mapping(t_address,t_struct(EpochBalance)6554_storage)":{"encoding":"mapping","key":"t_address","label":"mapping(address => struct WrappedSongSmartAccount.EpochBalance)","numberOfBytes":"32","value":"t_struct(EpochBalance)6554_storage"},"t_struct(EarningsEpoch)6570_storage":{"encoding":"inplace","label":"struct WrappedSongSmartAccount.EarningsEpoch","members":[{"astId":6561,"contract":"contracts/protocol/NonUpgradable/WrappedSongSmartAccount.sol:WrappedSongSmartAccount","label":"epochId","offset":0,"slot":"0","type":"t_uint256"},{"astId":6563,"contract":"contracts/protocol/NonUpgradable/WrappedSongSmartAccount.sol:WrappedSongSmartAccount","label":"amount","offset":0,"slot":"1","type":"t_uint256"},{"astId":6565,"contract":"contracts/protocol/NonUpgradable/WrappedSongSmartAccount.sol:WrappedSongSmartAccount","label":"earningsPerShare","offset":0,"slot":"2","type":"t_uint256"},{"astId":6567,"contract":"contracts/protocol/NonUpgradable/WrappedSongSmartAccount.sol:WrappedSongSmartAccount","label":"timestamp","offset":0,"slot":"3","type":"t_uint256"},{"astId":6569,"contract":"contracts/protocol/NonUpgradable/WrappedSongSmartAccount.sol:WrappedSongSmartAccount","label":"sender","offset":0,"slot":"4","type":"t_address"}],"numberOfBytes":"160"},"t_struct(EpochBalance)6554_storage":{"encoding":"inplace","label":"struct WrappedSongSmartAccount.EpochBalance","members":[{"astId":6551,"contract":"contracts/protocol/NonUpgradable/WrappedSongSmartAccount.sol:WrappedSongSmartAccount","label":"lastClaimedEpoch","offset":0,"slot":"0","type":"t_uint256"},{"astId":6553,"contract":"contracts/protocol/NonUpgradable/WrappedSongSmartAccount.sol:WrappedSongSmartAccount","label":"lastClaimedETHEpoch","offset":0,"slot":"1","type":"t_uint256"}],"numberOfBytes":"64"},"t_uint256":{"encoding":"inplace","label":"uint256","numberOfBytes":"32"}}}}}}