{"contracts/protocol/NonUpgradable/MetadataModule.sol":{"MetadataModule":{"abi":[{"inputs":[{"internalType":"address","name":"_initialOwner","type":"address"}],"stateMutability":"nonpayable","type":"constructor"},{"inputs":[{"internalType":"address","name":"target","type":"address"}],"name":"AddressEmptyCode","type":"error"},{"inputs":[{"internalType":"address","name":"account","type":"address"}],"name":"AddressInsufficientBalance","type":"error"},{"inputs":[],"name":"FailedInnerCall","type":"error"},{"inputs":[{"internalType":"address","name":"owner","type":"address"}],"name":"OwnableInvalidOwner","type":"error"},{"inputs":[{"internalType":"address","name":"account","type":"address"}],"name":"OwnableUnauthorizedAccount","type":"error"},{"inputs":[],"name":"ReentrancyGuardReentrantCall","type":"error"},{"inputs":[{"internalType":"address","name":"token","type":"address"}],"name":"SafeERC20FailedOperation","type":"error"},{"anonymous":false,"inputs":[{"indexed":true,"internalType":"address","name":"token","type":"address"},{"indexed":true,"internalType":"address","name":"recipient","type":"address"},{"indexed":false,"internalType":"uint256","name":"amount","type":"uint256"}],"name":"FeesWithdrawn","type":"event"},{"anonymous":false,"inputs":[{"indexed":true,"internalType":"address","name":"wrappedSong","type":"address"},{"components":[{"internalType":"string","name":"name","type":"string"},{"internalType":"string","name":"description","type":"string"},{"internalType":"string","name":"image","type":"string"},{"internalType":"string","name":"externalUrl","type":"string"},{"internalType":"string","name":"animationUrl","type":"string"},{"internalType":"string","name":"attributesIpfsHash","type":"string"}],"indexed":false,"internalType":"struct IMetadataModule.Metadata","name":"newMetadata","type":"tuple"}],"name":"MetadataCreated","type":"event"},{"anonymous":false,"inputs":[{"indexed":true,"internalType":"address","name":"wrappedSong","type":"address"}],"name":"MetadataRemoved","type":"event"},{"anonymous":false,"inputs":[{"indexed":true,"internalType":"address","name":"wrappedSong","type":"address"}],"name":"MetadataUpdateRejected","type":"event"},{"anonymous":false,"inputs":[{"indexed":true,"internalType":"address","name":"wrappedSong","type":"address"},{"components":[{"internalType":"string","name":"name","type":"string"},{"internalType":"string","name":"description","type":"string"},{"internalType":"string","name":"image","type":"string"},{"internalType":"string","name":"externalUrl","type":"string"},{"internalType":"string","name":"animationUrl","type":"string"},{"internalType":"string","name":"attributesIpfsHash","type":"string"}],"indexed":false,"internalType":"struct IMetadataModule.Metadata","name":"newMetadata","type":"tuple"}],"name":"MetadataUpdateRequested","type":"event"},{"anonymous":false,"inputs":[{"indexed":true,"internalType":"address","name":"wrappedSong","type":"address"},{"components":[{"internalType":"string","name":"name","type":"string"},{"internalType":"string","name":"description","type":"string"},{"internalType":"string","name":"image","type":"string"},{"internalType":"string","name":"externalUrl","type":"string"},{"internalType":"string","name":"animationUrl","type":"string"},{"internalType":"string","name":"attributesIpfsHash","type":"string"}],"indexed":false,"internalType":"struct IMetadataModule.Metadata","name":"newMetadata","type":"tuple"}],"name":"MetadataUpdated","type":"event"},{"anonymous":false,"inputs":[{"indexed":true,"internalType":"address","name":"previousOwner","type":"address"},{"indexed":true,"internalType":"address","name":"newOwner","type":"address"}],"name":"OwnershipTransferred","type":"event"},{"anonymous":false,"inputs":[{"indexed":true,"internalType":"address","name":"wrappedSong","type":"address"},{"indexed":true,"internalType":"address","name":"token","type":"address"},{"indexed":false,"internalType":"uint256","name":"amount","type":"uint256"}],"name":"UpdateFeeCollected","type":"event"},{"inputs":[{"internalType":"address","name":"wrappedSong","type":"address"}],"name":"confirmUpdateMetadata","outputs":[],"stateMutability":"payable","type":"function"},{"inputs":[{"internalType":"address","name":"wrappedSong","type":"address"},{"components":[{"internalType":"string","name":"name","type":"string"},{"internalType":"string","name":"description","type":"string"},{"internalType":"string","name":"image","type":"string"},{"internalType":"string","name":"externalUrl","type":"string"},{"internalType":"string","name":"animationUrl","type":"string"},{"internalType":"string","name":"attributesIpfsHash","type":"string"}],"internalType":"struct IMetadataModule.Metadata","name":"newMetadata","type":"tuple"}],"name":"createMetadata","outputs":[{"components":[{"internalType":"string","name":"name","type":"string"},{"internalType":"string","name":"description","type":"string"},{"internalType":"string","name":"image","type":"string"},{"internalType":"string","name":"externalUrl","type":"string"},{"internalType":"string","name":"animationUrl","type":"string"},{"internalType":"string","name":"attributesIpfsHash","type":"string"}],"internalType":"struct IMetadataModule.Metadata","name":"","type":"tuple"}],"stateMutability":"nonpayable","type":"function"},{"inputs":[{"internalType":"address","name":"wrappedSong","type":"address"}],"name":"getPendingMetadataUpdate","outputs":[{"components":[{"internalType":"string","name":"name","type":"string"},{"internalType":"string","name":"description","type":"string"},{"internalType":"string","name":"image","type":"string"},{"internalType":"string","name":"externalUrl","type":"string"},{"internalType":"string","name":"animationUrl","type":"string"},{"internalType":"string","name":"attributesIpfsHash","type":"string"}],"internalType":"struct IMetadataModule.Metadata","name":"","type":"tuple"}],"stateMutability":"view","type":"function"},{"inputs":[{"internalType":"address","name":"wrappedSong","type":"address"},{"internalType":"uint256","name":"tokenId","type":"uint256"}],"name":"getTokenURI","outputs":[{"internalType":"string","name":"","type":"string"}],"stateMutability":"view","type":"function"},{"inputs":[{"internalType":"address","name":"wrappedSong","type":"address"}],"name":"getWrappedSongMetadata","outputs":[{"components":[{"internalType":"string","name":"name","type":"string"},{"internalType":"string","name":"description","type":"string"},{"internalType":"string","name":"image","type":"string"},{"internalType":"string","name":"externalUrl","type":"string"},{"internalType":"string","name":"animationUrl","type":"string"},{"internalType":"string","name":"attributesIpfsHash","type":"string"}],"internalType":"struct IMetadataModule.Metadata","name":"","type":"tuple"}],"stateMutability":"view","type":"function"},{"inputs":[{"internalType":"address","name":"_protocolModule","type":"address"}],"name":"initialize","outputs":[],"stateMutability":"nonpayable","type":"function"},{"inputs":[{"internalType":"address","name":"wrappedSong","type":"address"}],"name":"isMetadataUpdateConfirmed","outputs":[{"internalType":"bool","name":"","type":"bool"}],"stateMutability":"view","type":"function"},{"inputs":[],"name":"owner","outputs":[{"internalType":"address","name":"","type":"address"}],"stateMutability":"view","type":"function"},{"inputs":[],"name":"protocolModule","outputs":[{"internalType":"contract IProtocolModule","name":"","type":"address"}],"stateMutability":"view","type":"function"},{"inputs":[{"internalType":"address","name":"wrappedSong","type":"address"}],"name":"rejectUpdateMetadata","outputs":[],"stateMutability":"nonpayable","type":"function"},{"inputs":[{"internalType":"address","name":"wrappedSong","type":"address"}],"name":"removeMetadata","outputs":[],"stateMutability":"nonpayable","type":"function"},{"inputs":[],"name":"renounceOwnership","outputs":[],"stateMutability":"nonpayable","type":"function"},{"inputs":[{"internalType":"address","name":"wrappedSong","type":"address"},{"components":[{"internalType":"string","name":"name","type":"string"},{"internalType":"string","name":"description","type":"string"},{"internalType":"string","name":"image","type":"string"},{"internalType":"string","name":"externalUrl","type":"string"},{"internalType":"string","name":"animationUrl","type":"string"},{"internalType":"string","name":"attributesIpfsHash","type":"string"}],"internalType":"struct IMetadataModule.Metadata","name":"newMetadata","type":"tuple"}],"name":"requestUpdateMetadata","outputs":[],"stateMutability":"nonpayable","type":"function"},{"inputs":[{"internalType":"address","name":"_protocolModule","type":"address"}],"name":"setProtocolModule","outputs":[],"stateMutability":"nonpayable","type":"function"},{"inputs":[{"internalType":"address","name":"newOwner","type":"address"}],"name":"transferOwnership","outputs":[],"stateMutability":"nonpayable","type":"function"},{"inputs":[{"internalType":"address","name":"wrappedSong","type":"address"},{"components":[{"internalType":"string","name":"name","type":"string"},{"internalType":"string","name":"description","type":"string"},{"internalType":"string","name":"image","type":"string"},{"internalType":"string","name":"externalUrl","type":"string"},{"internalType":"string","name":"animationUrl","type":"string"},{"internalType":"string","name":"attributesIpfsHash","type":"string"}],"internalType":"struct IMetadataModule.Metadata","name":"newMetadata","type":"tuple"}],"name":"updateMetadata","outputs":[],"stateMutability":"payable","type":"function"},{"inputs":[{"internalType":"address","name":"token","type":"address"},{"internalType":"address","name":"recipient","type":"address"}],"name":"withdrawAccumulatedFees","outputs":[],"stateMutability":"nonpayable","type":"function"},{"stateMutability":"payable","type":"receive"}],"evm":{"bytecode":{"linkReferences":{},"object":"608034620000c657601f6200314038819003918201601f19168301916001600160401b03831184841017620000cb57808492602094604052833981010312620000c657516001600160a01b039081811690819003620000c6578015620000ad57600080546001600160a01b03198116831782556040519316907f8be0079c531659141344cd1fd0a4f28419497f9722a3daafe3b4186f6b6457e09080a36001805561305e9081620000e28239f35b604051631e4fbdf760e01b815260006004820152602490fd5b600080fd5b634e487b7160e01b600052604160045260246000fdfe60e08060405260049081361015610020575b5050361561001e57600080fd5b005b600060c05260c0513560e01c9081630b63fd621461269d57508063187de53b146123d0578063349cdba01461237a578063376c1f07146121be5780634b700629146118245780635c42e667146117fa5780635dc447ed146110f55780636613680d146109c3578063715018a6146109645780638da5cb5b146109395780639205fafe146107c7578063a859dcde14610723578063a9edb0f5146105d4578063c4d66de8146102c9578063da67603e146101ce578063dac73c991461018d5763f2fde38b146100ee5780610011565b34610187576020366003190112610187576101076128a6565b61010f612b44565b6001600160a01b0390811691821561016d575060c05154826bffffffffffffffffffffffff60a01b82161760c05155167f8be0079c531659141344cd1fd0a4f28419497f9722a3daafe3b4186f6b6457e060c05160c051a360c05180f35b60249060405190631e4fbdf760e01b825260c05190820152fd5b60c05180fd5b34610187576020366003190112610187576001600160a01b036101ae6128a6565b1660c051526008602052602060ff604060c0512054166040519015158152f35b5034610187576020366003190112610187576102c5906101ec6128a6565b6101f4612b8f565b5060018060a01b031660c05152600760205260056102ac604060c05120610235610297604051956102248761298a565b60405161023c816102358188612e8d565b03826129bb565b8752604051610252816102358160018901612e8d565b602088015260405161026b816102358160028901612e8d565b6040880152604051610284816102358160038901612e8d565b6060880152604051928380928601612e8d565b60808501526102356040518094819301612e8d565b60a0820152604051918291602083526020830190612909565b0390f35b50346101875760209081600319360112610187576102e56128a6565b6005549160ff8360a01c1661059a576001600160a01b03918216801561055657600280546001600160a01b0319908116831790915560405163670d296960e11b8082529087818681875afa908115610469578691899160c05191610539575b5086604051809481936365bb98b560e01b8352165afa801561046957869160c051916104ff575b50168260035416176003556040519181835287838681875afa928315610469578693899160c051916104e2575b508660405180968193636d4726d960e01b8352165afa928315610469578893879160c051916104a5575b501690855416178455836040518094819382525afa8015610469578392869260c05192610476575b506040516309da4e5160e01b81529384928391165afa9384156104695760c05194610430575b50506001600160a81b0319909116911617600160a01b1760055560c05180f35b9080929450813d8311610462575b61044881836129bb565b810103126101875751828116810361018757913880610410565b503d61043e565b6040513d60c051823e3d90fd5b610497919250833d851161049e575b61048f81836129bb565b810190612b70565b90386103ea565b503d610485565b92948092508391503d83116104db575b6104bf81836129bb565b81010312610187575191858316830361018757858893386103c2565b503d6104b5565b6104f99150823d841161049e5761048f81836129bb565b38610398565b809250898092503d8311610532575b61051881836129bb565b81010312610187575185811681036101875785903861036b565b503d61050e565b6105509150823d841161049e5761048f81836129bb565b38610344565b60405162461bcd60e51b8152808301869052601760248201527f496e76616c69642070726f746f636f6c206d6f64756c650000000000000000006044820152606490fd5b60405162461bcd60e51b81529081018490526013602482015272105b1c9958591e481a5b9a5d1a585b1a5e9959606a1b6044820152606490fd5b503461018757602080600319360112610187576001600160a01b036105f76128a6565b16913383036106d3578260c0515260068252610618604060c0512054612bc0565b1561069157506008908260c0515260068152610638604060c05120612e48565b8260c051526007815261064f604060c05120612e48565b8260c0515252604060c0512060ff1981541690557f850e5df914b57ac32b9b4cfb02944f8e955f9991d54ae5ccac3936a7b205cace60c05160c051a260c05180f35b6064916040519162461bcd60e51b8352820152601760248201527f4d6574616461746120646f6573206e6f742065786973740000000000000000006044820152fd5b6084916040519162461bcd60e51b8352820152602560248201527f4f6e6c79207772617070656420736f6e672063616e2072656d6f7665206d6574604482015264616461746160d81b6064820152fd5b50346101875760203660031901126101875761073d6128a6565b610745612b44565b6001600160a01b03169081156107835750600280546001600160a01b0319169190911790556005805460ff60a01b1916600160a01b17905560c05180f35b60649060206040519162461bcd60e51b8352820152601f60248201527f496e76616c69642070726f746f636f6c206d6f64756c652061646472657373006044820152fd5b503461018757602080600319360112610187576107e26128a6565b600354604051633aa690e760e01b81526001600160a01b0392831681860181905294929184908290602490829086165afa908115610469578291859160c0519161091c575b508460405180948193638da5cb5b60e01b8352165afa9081156104695760c051916108ff575b501633036108b257506008908260c0515260078152610870604060c05120612e48565b8260c0515252604060c0512060ff1981541690557f44983a324fa169af1e5f7fc334fe51324c21a0f94c8407867926cb4266b0cb5460c05160c051a260c05180f35b6084916040519162461bcd60e51b8352820152602260248201527f4f6e6c79206469737472696275746f722063616e2072656a6563742075706461604482015261746560f01b6064820152fd5b6109169150843d861161049e5761048f81836129bb565b3861084d565b6109339150823d841161049e5761048f81836129bb565b38610827565b346101875760c0513660031901126101875760c051546040516001600160a01b039091168152602090f35b346101875760c0513660031901126101875761097e612b44565b60c05180546001600160a01b0319811682556001600160a01b03167f8be0079c531659141344cd1fd0a4f28419497f9722a3daafe3b4186f6b6457e08280a360c05180f35b5034610187576109d236612a3e565b906109db612b8f565b5060025460405163058dba2f60e11b81526001600160a01b038381168287015294916020908290602490829089165afa801561046957859160c051916110d6575b5016156110925783821660c051526006602052610a3e604060c0512054612bc0565b61104e57610a4b83612c58565b156110175783821660c051526006602052604060c051209083518051906001600160401b038211611000578190610a8c82610a868754612bc0565b87612c11565b6020906001601f841114610f975760c05192610f8c575b50508160011b916000199060031b1c19161782555b6001820160208501518051906001600160401b038211610e03578190610ae882610ae28654612bc0565b86612c11565b6020906001601f841114610f235760c05192610f18575b50508160011b916000199060031b1c19161790555b6002820160408501518051906001600160401b038211610e03578190610b3e82610ae28654612bc0565b6020906001601f841114610eaf5760c05192610ea4575b50508160011b916000199060031b1c19161790555b60039182810160608601518051906001600160401b038211610e8d578190610b9682610ae28654612bc0565b6020906001601f841114610e255760c05192610e1a575b50508160011b9160001990871b1c19161790555b60808501518051906001600160401b038211610e0357610bef82610be786860154612bc0565b868601612c11565b6020906001601f841114610d90579180916005949360c05192610d85575b50508160011b9160001990871b1c191617838201555b019160a08501518051926001600160401b038411610d6e5750610c4a83610ae28654612bc0565b6020906001601f851114610cd957927f6e59fb1f315f2f4b281014e9d51ca1387542c6af4109446eaaabadd34b5d5eb3949281926102c5999560c05193610cce575b50508260011b92600019911b1c19161790555b6040519260208452169180610cb76020820186612909565b0390a2604051918291602083526020830190612909565b015191503880610c8c565b9190601f198416928560c05152602060c051209360c0515b818110610d5657509285927f6e59fb1f315f2f4b281014e9d51ca1387542c6af4109446eaaabadd34b5d5eb39795926102c59b9760019610610d3c575b50505050811b019055610c9f565b01519060f884600019921b161c1916905538808080610d2e565b92946020600181928886015181550196019301610cf1565b604190634e487b7160e01b60c0515252602460c051fd5b015190503880610c0d565b9084840160c05152602060c051209160c0515b601f1985168110610deb575091839160019360059695601f19811610610dd3575b505050811b0183820155610c23565b015160001983891b60f8161c19169055388080610dc4565b91926020600181928685015181550194019201610da3565b604184634e487b7160e01b60c0515252602460c051fd5b015190503880610bad565b60c0805186905251602081209350601f198516905b818110610e755750908460019594939210610e5d575b505050811b019055610bc1565b015160001983891b60f8161c19169055388080610e50565b92936020600181928786015181550195019301610e3a565b604185634e487b7160e01b60c0515252602460c051fd5b015190503880610b55565b60c0805186905251602081209350601f198516905b818110610f005750908460019594939210610ee7575b505050811b019055610b6a565b015160001960f88460031b161c19169055388080610eda565b92936020600181928786015181550195019301610ec4565b015190503880610aff565b60c0805186905251602081209350601f198516905b818110610f745750908460019594939210610f5b575b505050811b019055610b14565b015160001960f88460031b161c19169055388080610f4e565b92936020600181928786015181550195019301610f38565b015190503880610aa3565b60c0805187905251602081209350601f198516905b818110610fe85750908460019594939210610fcf575b505050811b018255610ab8565b015160001960f88460031b161c19169055388080610fc2565b92936020600181928786015181550195019301610fac565b604183634e487b7160e01b60c0515252602460c051fd5b60649060206040519162461bcd60e51b8352820152601060248201526f496e76616c6964206d6574616461746160801b6044820152fd5b60649060206040519162461bcd60e51b8352820152601760248201527f4d6574616461746120616c7265616479206578697374730000000000000000006044820152fd5b60649060206040519162461bcd60e51b8352820152601960248201527f41646472657373206e6f7420612070726f746f636f6c205753000000000000006044820152fd5b6110ef915060203d60201161049e5761048f81836129bb565b38610a1c565b506110ff36612a3e565b604051638da5cb5b60e01b81526001600160a01b039283169260209182818781885afa9081156104695760c051916117dd575b508116331480156117d0575b1561177a578190600390815416604051928380926306f8718960e31b8252888a83015260249586915afa9081156104695760c0519161174d575b506116f45761118e61118985612c58565b612c9d565b8460c0515260068352604060c05120908451968751926001600160401b03938481116116de576111c8816111c28454612bc0565b84612c11565b601f998190889060018d8411146116775760c0519261166c575b50508160011b9160001990861b1c19161781555b600160a05260a0518101868801518051908682116114f457819061121e82610ae28654612bc0565b899060018e8411146116015760c051926115f6575b50508160a0511b9160001990871b1c19161790555b6002810160408801518051908682116114f457819061126b82610ae28654612bc0565b899060018e84111461158b5760c05192611580575b50508160a0511b9160001990871b1c19161790555b82810160608801518051908682116114f45781906112b782610ae28654612bc0565b899060018e8411146115155760c0519261150a575b50508160a0511b9160001990871b1c19161790555b81810160808801518051908682116114f457611307826113018554612bc0565b85612c11565b889060018d84111461148257918091600595949360c05192611477575b50508160a0511b9160001990881b1c19161790555b019360a087015191825194851161146257505061135a83610ae28654612bc0565b60c05150849783116001146113d457907f4288f171f419b66095d6e026090ed813669ea5a62cfe4416a47e75549e4788669697839260c051936113c9575b50508260a0511b92600019911b1c19161790555b6113c0604051928284938452830190612909565b0390a260c05180f35b015191503880611398565b90601f198316978460c051528560c051209260c0515b8a811061144a5750847f4288f171f419b66095d6e026090ed813669ea5a62cfe4416a47e75549e478866999a10611430575b5050505060a0519060a0511b0190556113ac565b01519060f884600019921b161c191690553880808061141c565b919387809186840151815560a05101950192016113ea565b604190634e487b7160e01b60c051525260c051fd5b015190503880611324565b90601f198316918460c051528a60c051209260c0515b8c8282106114dd57505090846005979695949392106114c5575b50505060a0519060a0511b019055611339565b015160001983891b60f8161c191690553880806114b2565b8495819295850151815560a0510195019301611498565b87604186634e487b7160e01b60c051525260c051fd5b0151905038806112cc565b60c08051869052518b812093508490601f198216905b8d8282106115665750501061154e575b50505060a0519060a0511b0190556112e1565b015160001983881b60f8161c1916905538808061153b565b84860151875560a05190960195948501948793500161152b565b015190503880611280565b60c08051869052518b812093508490601f198216905b8d8282106115dc575050106115c4575b50505060a0519060a0511b019055611295565b015160001983881b60f8161c191690553880806115b1565b84860151875560a0519096019594850194879350016115a1565b015190503880611233565b60c08051869052518b812093508490601f198216905b8d8282106116525750501061163a575b50505060a0519060a0511b019055611248565b015160001983881b60f8161c19169055388080611627565b84860151875560a051909601959485019487935001611617565b0151905038806111e2565b60c08051869052518a81209350601f198516905b8b8282106116c85750509084600195949392106116b0575b505050811b0181556111f6565b015160001983881b60f8161c191690553880806116a3565b600185968293968601518155019501930161168b565b85604184634e487b7160e01b60c051525260c051fd5b60405162461bcd60e51b8152808701849052602d818401527f43616e6e6f7420757064617465206d65746164617461206469726563746c792060448201526c61667465722072656c6561736560981b6064820152608490fd5b61176d9150843d8611611773575b61176581836129bb565b810190612d0f565b38611178565b503d61175b565b60405162461bcd60e51b8152808601839052602960248201527f4f6e6c79207772617070656420736f6e67206f7220697473206f776e65722063604482015268616e2075706461746560b81b6064820152608490fd5b508060025416331461113e565b6117f49150833d851161049e5761048f81836129bb565b38611132565b346101875760c051366003190112610187576002546040516001600160a01b039091168152602090f35b50346101875761183336612a3e565b61183f61118982612c58565b604051638da5cb5b60e01b81526001600160a01b039283169260209182818781885afa9081156104695760c051916121a1575b50813391160361214a57600380546040516306f8718960e31b815287810187905260249391859082908690829086165afa9081156104695760c0519161212d575b50156120d65786546040516374816e3760e01b81529190811685838a81845afa9283156104695760c051936120a7575b5060405163d579e3f360e01b815286818b81855afa918215610469578a92889260c0519161208a575b5085158015919061207e5715611ff357506040516337a0a9e960e11b815292839182905afa9081156104695760c05191611fc6575b5085826005541691868b6040519485938492637c70c0a360e01b84528301525afa9081156104695760c05191611fa9575b5016908115611f5a576040516323b872dd60e01b8682015233858201523060448201526064808201839052815260a081016001600160401b03811182821017611f46576040526119c29083612f53565b8160c0515260098552604060c05120805490828201809211611f3257556040519081527f785bfd9070b1fa5b19bfa2ac4637328df950f5e0adafe5873360de4e23b6d8a0853392a35b8460c0515260078352604060c05120908451968751926001600160401b03938481116116de57611a3f816111c28454612bc0565b601f998190889060018d841114611ecb5760c05192611ec0575b50508160011b9160001990861b1c19161781555b60016080526080518101868801518051908682116114f4578190611a9582610ae28654612bc0565b899060018e841114611e555760c05192611e4a575b5050816080511b9160001990871b1c19161790555b6002810160408801518051908682116114f4578190611ae282610ae28654612bc0565b899060018e841114611ddf5760c05192611dd4575b5050816080511b9160001990871b1c19161790555b82810160608801518051908682116114f4578190611b2e82610ae28654612bc0565b899060018e841114611d695760c05192611d5e575b5050816080511b9160001990871b1c19161790555b81810160808801518051908682116114f457611b78826113018554612bc0565b889060018d841114611cec57918091600595949360c05192611ce1575b5050816080511b9160001990881b1c19161790555b019360a0870151918251948511611462575050611bcb83610ae28654612bc0565b60c0515084978311600114611c5357907fcfa38ad22e928cede6a19793c7da9bad051ddd68eaabfc0a35500e381a60cb399697839260c05193611c48575b5050826080511b92600019911b1c19161790555b8360c0515260088152604060c0512060ff1981541690556113c0604051928284938452830190612909565b015191503880611c09565b90601f198316978460c051528560c051209260c0515b8a8110611cc95750847fcfa38ad22e928cede6a19793c7da9bad051ddd68eaabfc0a35500e381a60cb39999a10611caf575b50505050608051906080511b019055611c1d565b01519060f884600019921b161c1916905538808080611c9b565b91938780918684015181556080510195019201611c69565b015190503880611b95565b90601f198316918460c051528a60c051209260c0515b8c828210611d475750509084600597969594939210611d2f575b505050608051906080511b019055611baa565b015160001983891b60f8161c19169055388080611d1c565b849581929585015181556080510195019301611d02565b015190503880611b43565b60c08051869052518b812093508490601f198216905b8d828210611dba57505010611da2575b505050608051906080511b019055611b58565b015160001983881b60f8161c19169055388080611d8f565b848601518755608051909601959485019487935001611d7f565b015190503880611af7565b60c08051869052518b812093508490601f198216905b8d828210611e3057505010611e18575b505050608051906080511b019055611b0c565b015160001983881b60f8161c19169055388080611e05565b848601518755608051909601959485019487935001611df5565b015190503880611aaa565b60c08051869052518b812093508490601f198216905b8d828210611ea657505010611e8e575b505050608051906080511b019055611abf565b015160001983881b60f8161c19169055388080611e7b565b848601518755608051909601959485019487935001611e6b565b015190503880611a59565b60c08051869052518a81209350601f198516905b8b828210611f1c575050908460019594939210611f04575b505050811b018155611a6d565b015160001983881b60f8161c19169055388080611ef7565b6001859682939686015181550195019301611edf565b8560118b634e487b7160e01b600052526000fd5b8560418b634e487b7160e01b600052526000fd5b60405162461bcd60e51b81528089018690526023818601527f4e6f2077686974656c697374656420737461626c65636f696e20617661696c61604482015262626c6560e81b6064820152608490fd5b611fc09150863d881161049e5761048f81836129bb565b38611972565b90508581813d8311611fec575b611fdd81836129bb565b81010312610187575138611941565b503d611fd3565b94505050505061203b5760c05180526009835260405160008082529033907f785bfd9070b1fa5b19bfa2ac4637328df950f5e0adafe5873360de4e23b6d8a0908690a3611a0b565b60405162461bcd60e51b81528087018490526018818401527f496e636f7272656374204554482066656520616d6f756e7400000000000000006044820152606490fd5b50505050505050611a0b565b6120a19150833d85116117735761176581836129bb565b3861190c565b9092508581813d83116120cf575b6120bf81836129bb565b81010312610187575191386118e3565b503d6120b5565b60405162461bcd60e51b8152808801859052602b818501527f536f6e67206e6f742072656c65617365642c20757064617465206d657461646160448201526a7461206469726563746c7960a81b6064820152608490fd5b6121449150853d87116117735761176581836129bb565b386118b3565b60405162461bcd60e51b8152808601839052602a60248201527f4f6e6c79207772617070656420736f6e67206f776e65722063616e20726571756044820152696573742075706461746560b01b6064820152608490fd5b6121b89150833d851161049e5761048f81836129bb565b38611872565b5034610187576040366003190112610187576121d86128a6565b6001600160a01b03602435818116939290849003610187576121f8612b44565b60026001541461236957600260015516908160c0515260209060098252604060c051205490811561232f5760c0805185905260098452516040812055836122c15760c05180808085895af161224b612f23565b50156122875750907f5e110f8bc8a20b65dcc87f224bdf1cc039346e267118bae2739847f07321ffa8915b604051908152a36001805560c05180f35b60405162461bcd60e51b81529081018390526013602482015272115512081d1c985b9cd9995c8819985a5b1959606a1b6044820152606490fd5b6040519063a9059cbb60e01b848301528560248301528260448301526044825260808201908282106001600160401b03831117610d6e57507f5e110f8bc8a20b65dcc87f224bdf1cc039346e267118bae2739847f07321ffa893929161232a9160405285612f53565b612276565b60405162461bcd60e51b815290810183905260136024820152724e6f206665657320746f20776974686472617760681b6044820152606490fd5b604051633ee5aeb560e01b81528390fd5b5034610187576020366003190112610187576102c5906123986128a6565b6123a0612b8f565b5060018060a01b031660c05152600660205260056102ac604060c05120610235610297604051956102248761298a565b50602080600319360112610187576123e66128a6565b600354604051633aa690e760e01b81526001600160a01b0392831681860181905294929184908290602490829086165afa908115610469578291859160c05191612680575b508460405180948193638da5cb5b60e01b8352165afa9081156104695760c05191612663575b50163303612615578260c051526008825260ff604060c0512054166125d3577f4288f171f419b66095d6e026090ed813669ea5a62cfe4416a47e75549e478866916113c060c09285845152600783526040845120600684526040855120818103612575575b505085845152600783526124cd6040855120612e48565b85845152600883526040845120600160ff19825416179055600683526005604085512060405195858796875286015261256561250c60e0870183612e8d565b9361255361254061252d601f1997888b82030160408c015260018701612e8d565b878a82030160608b015260028601612e8d565b868982030160808a015260038501612e8d565b90858883030160a08901528301612e8d565b928584030160c086015201612e8d565b600580836125866125cc9585612d27565b6125966001820160018601612d27565b6125a66002820160028601612d27565b6125b66003820160038601612d27565b6125c4868201878601612d27565b019101612d27565b38806124b6565b6064916040519162461bcd60e51b8352820152601a60248201527f4e6f2070656e64696e67206d65746164617461207570646174650000000000006044820152fd5b6084916040519162461bcd60e51b8352820152602360248201527f4f6e6c79206469737472696275746f722063616e20636f6e6669726d2075706460448201526261746560e81b6064820152fd5b61267a9150843d861161049e5761048f81836129bb565b38612451565b6126979150823d841161049e5761048f81836129bb565b3861242b565b905034610187576040366003190112610187576126b86128a6565b916024359060018060a01b03809416928360c0515260209360068552600561276d604060c051206126e88561298a565b6040516126f9816102358185612e8d565b855260405161270f816102358160018601612e8d565b88860152604051612727816102358160028601612e8d565b6040860152604051612740816102358160038601612e8d565b606086015260405161275881610235818a8601612e8d565b60808601526102356040518094819301612e8d565b60a08301526003841015612856576127a36060966002541692604051978895632fda23b760e01b87528601526064850190612909565b9360248401526044830152818060c0519403915afa9182156104695760c051926127dd575b506102c56040519282849384528301906128e4565b9091503d8060c051833e6127f181836129bb565b8101908281830312610187578051906001600160401b038211610187570181601f82011215610187578051612825816129dc565b9261283360405194856129bb565b8184528482840101116101875761284f918480850191016128c1565b90386127c8565b60405162461bcd60e51b81528084018690526024808201527f496e76616c696420746f6b656e20494420666f72206d65746164617461206d6f60448201526364756c6560e01b6064820152608490fd5b600435906001600160a01b03821682036128bc57565b600080fd5b60005b8381106128d45750506000910152565b81810151838201526020016128c4565b906020916128fd815180928185528580860191016128c1565b601f01601f1916010190565b6129879160a061297661296461295261294061292e875160c0885260c08801906128e4565b602088015187820360208901526128e4565b604087015186820360408801526128e4565b606086015185820360608701526128e4565b608085015184820360808601526128e4565b9201519060a08184039101526128e4565b90565b60c081019081106001600160401b038211176129a557604052565b634e487b7160e01b600052604160045260246000fd5b90601f801991011681019081106001600160401b038211176129a557604052565b6001600160401b0381116129a557601f01601f191660200190565b81601f820112156128bc57803590612a0e826129dc565b92612a1c60405194856129bb565b828452602083830101116128bc57816000926020809301838601378301015290565b906003196040818401126128bc57600480356001600160a01b03811681036128bc5793602435916001600160401b03938484116128bc5760c09084840301126128bc5760405193612a8e8561298a565b838201358181116128bc578383612aa7928701016129f7565b855260248401358181116128bc578383612ac3928701016129f7565b602086015260448401358181116128bc578383612ae2928701016129f7565b604086015260648401358181116128bc578383612b01928701016129f7565b606086015260848401358181116128bc578383612b20928701016129f7565b608086015260a48401359081116128bc57612b3c9301016129f7565b60a082015290565b6000546001600160a01b03163303612b5857565b60405163118cdaa760e01b8152336004820152602490fd5b908160209103126128bc57516001600160a01b03811681036128bc5790565b60405190612b9c8261298a565b8160a060609182815282602082015282604082015282808201528260808201520152565b90600182811c92168015612bf0575b6020831014612bda57565b634e487b7160e01b600052602260045260246000fd5b91607f1691612bcf565b818110612c05575050565b60008155600101612bfa565b9190601f8111612c2057505050565b612c4c926000526020600020906020601f840160051c83019310612c4e575b601f0160051c0190612bfa565b565b9091508190612c3f565b80515115159081612c8e575b81612c7f575b81612c73575090565b60a09150015151151590565b60808101515115159150612c6a565b60408101515115159150612c64565b15612ca457565b60405162461bcd60e51b815260206004820152603760248201527f496e76616c6964206d657461646174613a20416c6c207265717569726564206660448201527f69656c6473206d757374206265206e6f6e2d656d7074790000000000000000006064820152608490fd5b908160209103126128bc575180151581036128bc5790565b90808214612dfb57612d398154612bc0565b906001600160401b0382116129a5578190612d5882610ae28654612bc0565b600090601f8311600114612d8f57600092612d84575b50508160011b916000199060031b1c1916179055565b015490503880612d6e565b81526020808220858352818320935090601f1985169083905b828210612de2575050908460019594939210612dc9575b505050811b019055565b015460001960f88460031b161c19169055388080612dbf565b8495819295850154815560018091019601940190612da8565b5050565b612e098154612bc0565b9081612e13575050565b81601f60009311600114612e25575055565b908083918252612e44601f60208420940160051c840160018501612bfa565b5555565b6005612c4c91612e5781612dff565b612e6360018201612dff565b612e6f60028201612dff565b612e7b60038201612dff565b612e8760048201612dff565b01612dff565b9060009291805491612e9e83612bc0565b918282526001938481169081600014612f005750600114612ec0575b50505050565b90919394506000526020928360002092846000945b838610612eec575050505001019038808080612eba565b805485870183015294019385908201612ed5565b9294505050602093945060ff191683830152151560051b01019038808080612eba565b3d15612f4e573d90612f34826129dc565b91612f4260405193846129bb565b82523d6000602084013e565b606090565b600080612f7c9260018060a01b03169360208151910182865af1612f75612f23565b9083612fc5565b8051908115159182612faa575b5050612f925750565b60249060405190635274afe760e01b82526004820152fd5b612fbd9250602080918301019101612d0f565b153880612f89565b90612fec5750805115612fda57805190602001fd5b604051630a12f52160e11b8152600490fd5b8151158061301f575b612ffd575090565b604051639996b31560e01b81526001600160a01b039091166004820152602490fd5b50803b15612ff556fea264697066735822122022b46a7d3e9174cc69d1f6ac16f7a2c4f6145be28aceb15b7bfa2d6f41b05f5564736f6c63430008140033","opcodes":"PUSH1 0x80 CALLVALUE PUSH3 0xC6 JUMPI PUSH1 0x1F PUSH3 0x3140 CODESIZE DUP2 SWAP1 SUB SWAP2 DUP3 ADD PUSH1 0x1F NOT AND DUP4 ADD SWAP2 PUSH1 0x1 PUSH1 0x1 PUSH1 0x40 SHL SUB DUP4 GT DUP5 DUP5 LT OR PUSH3 0xCB JUMPI DUP1 DUP5 SWAP3 PUSH1 0x20 SWAP5 PUSH1 0x40 MSTORE DUP4 CODECOPY DUP2 ADD SUB SLT PUSH3 0xC6 JUMPI MLOAD PUSH1 0x1 PUSH1 0x1 PUSH1 0xA0 SHL SUB SWAP1 DUP2 DUP2 AND SWAP1 DUP2 SWAP1 SUB PUSH3 0xC6 JUMPI DUP1 ISZERO PUSH3 0xAD JUMPI PUSH1 0x0 DUP1 SLOAD PUSH1 0x1 PUSH1 0x1 PUSH1 0xA0 SHL SUB NOT DUP2 AND DUP4 OR DUP3 SSTORE PUSH1 0x40 MLOAD SWAP4 AND SWAP1 PUSH32 0x8BE0079C531659141344CD1FD0A4F28419497F9722A3DAAFE3B4186F6B6457E0 SWAP1 DUP1 LOG3 PUSH1 0x1 DUP1 SSTORE PUSH2 0x305E SWAP1 DUP2 PUSH3 0xE2 DUP3 CODECOPY RETURN JUMPDEST PUSH1 0x40 MLOAD PUSH4 0x1E4FBDF7 PUSH1 0xE0 SHL DUP2 MSTORE PUSH1 0x0 PUSH1 0x4 DUP3 ADD MSTORE PUSH1 0x24 SWAP1 REVERT JUMPDEST PUSH1 0x0 DUP1 REVERT JUMPDEST PUSH4 0x4E487B71 PUSH1 0xE0 SHL PUSH1 0x0 MSTORE PUSH1 0x41 PUSH1 0x4 MSTORE PUSH1 0x24 PUSH1 0x0 REVERT INVALID PUSH1 0xE0 DUP1 PUSH1 0x40 MSTORE PUSH1 0x4 SWAP1 DUP2 CALLDATASIZE LT ISZERO PUSH2 0x20 JUMPI JUMPDEST POP POP CALLDATASIZE ISZERO PUSH2 0x1E JUMPI PUSH1 0x0 DUP1 REVERT JUMPDEST STOP JUMPDEST PUSH1 0x0 PUSH1 0xC0 MSTORE PUSH1 0xC0 MLOAD CALLDATALOAD PUSH1 0xE0 SHR SWAP1 DUP2 PUSH4 0xB63FD62 EQ PUSH2 0x269D JUMPI POP DUP1 PUSH4 0x187DE53B EQ PUSH2 0x23D0 JUMPI DUP1 PUSH4 0x349CDBA0 EQ PUSH2 0x237A JUMPI DUP1 PUSH4 0x376C1F07 EQ PUSH2 0x21BE JUMPI DUP1 PUSH4 0x4B700629 EQ PUSH2 0x1824 JUMPI DUP1 PUSH4 0x5C42E667 EQ PUSH2 0x17FA JUMPI DUP1 PUSH4 0x5DC447ED EQ PUSH2 0x10F5 JUMPI DUP1 PUSH4 0x6613680D EQ PUSH2 0x9C3 JUMPI DUP1 PUSH4 0x715018A6 EQ PUSH2 0x964 JUMPI DUP1 PUSH4 0x8DA5CB5B EQ PUSH2 0x939 JUMPI DUP1 PUSH4 0x9205FAFE EQ PUSH2 0x7C7 JUMPI DUP1 PUSH4 0xA859DCDE EQ PUSH2 0x723 JUMPI DUP1 PUSH4 0xA9EDB0F5 EQ PUSH2 0x5D4 JUMPI DUP1 PUSH4 0xC4D66DE8 EQ PUSH2 0x2C9 JUMPI DUP1 PUSH4 0xDA67603E EQ PUSH2 0x1CE JUMPI DUP1 PUSH4 0xDAC73C99 EQ PUSH2 0x18D JUMPI PUSH4 0xF2FDE38B EQ PUSH2 0xEE JUMPI DUP1 PUSH2 0x11 JUMP JUMPDEST CALLVALUE PUSH2 0x187 JUMPI PUSH1 0x20 CALLDATASIZE PUSH1 0x3 NOT ADD SLT PUSH2 0x187 JUMPI PUSH2 0x107 PUSH2 0x28A6 JUMP JUMPDEST PUSH2 0x10F PUSH2 0x2B44 JUMP JUMPDEST PUSH1 0x1 PUSH1 0x1 PUSH1 0xA0 SHL SUB SWAP1 DUP2 AND SWAP2 DUP3 ISZERO PUSH2 0x16D JUMPI POP PUSH1 0xC0 MLOAD SLOAD DUP3 PUSH12 0xFFFFFFFFFFFFFFFFFFFFFFFF PUSH1 0xA0 SHL DUP3 AND OR PUSH1 0xC0 MLOAD SSTORE AND PUSH32 0x8BE0079C531659141344CD1FD0A4F28419497F9722A3DAAFE3B4186F6B6457E0 PUSH1 0xC0 MLOAD PUSH1 0xC0 MLOAD LOG3 PUSH1 0xC0 MLOAD DUP1 RETURN JUMPDEST PUSH1 0x24 SWAP1 PUSH1 0x40 MLOAD SWAP1 PUSH4 0x1E4FBDF7 PUSH1 0xE0 SHL DUP3 MSTORE PUSH1 0xC0 MLOAD SWAP1 DUP3 ADD MSTORE REVERT JUMPDEST PUSH1 0xC0 MLOAD DUP1 REVERT JUMPDEST CALLVALUE PUSH2 0x187 JUMPI PUSH1 0x20 CALLDATASIZE PUSH1 0x3 NOT ADD SLT PUSH2 0x187 JUMPI PUSH1 0x1 PUSH1 0x1 PUSH1 0xA0 SHL SUB PUSH2 0x1AE PUSH2 0x28A6 JUMP JUMPDEST AND PUSH1 0xC0 MLOAD MSTORE PUSH1 0x8 PUSH1 0x20 MSTORE PUSH1 0x20 PUSH1 0xFF PUSH1 0x40 PUSH1 0xC0 MLOAD KECCAK256 SLOAD AND PUSH1 0x40 MLOAD SWAP1 ISZERO ISZERO DUP2 MSTORE RETURN JUMPDEST POP CALLVALUE PUSH2 0x187 JUMPI PUSH1 0x20 CALLDATASIZE PUSH1 0x3 NOT ADD SLT PUSH2 0x187 JUMPI PUSH2 0x2C5 SWAP1 PUSH2 0x1EC PUSH2 0x28A6 JUMP JUMPDEST PUSH2 0x1F4 PUSH2 0x2B8F JUMP JUMPDEST POP PUSH1 0x1 DUP1 PUSH1 0xA0 SHL SUB AND PUSH1 0xC0 MLOAD MSTORE PUSH1 0x7 PUSH1 0x20 MSTORE PUSH1 0x5 PUSH2 0x2AC PUSH1 0x40 PUSH1 0xC0 MLOAD KECCAK256 PUSH2 0x235 PUSH2 0x297 PUSH1 0x40 MLOAD SWAP6 PUSH2 0x224 DUP8 PUSH2 0x298A JUMP JUMPDEST PUSH1 0x40 MLOAD PUSH2 0x23C DUP2 PUSH2 0x235 DUP2 DUP9 PUSH2 0x2E8D JUMP JUMPDEST SUB DUP3 PUSH2 0x29BB JUMP JUMPDEST DUP8 MSTORE PUSH1 0x40 MLOAD PUSH2 0x252 DUP2 PUSH2 0x235 DUP2 PUSH1 0x1 DUP10 ADD PUSH2 0x2E8D JUMP JUMPDEST PUSH1 0x20 DUP9 ADD MSTORE PUSH1 0x40 MLOAD PUSH2 0x26B DUP2 PUSH2 0x235 DUP2 PUSH1 0x2 DUP10 ADD PUSH2 0x2E8D JUMP JUMPDEST PUSH1 0x40 DUP9 ADD MSTORE PUSH1 0x40 MLOAD PUSH2 0x284 DUP2 PUSH2 0x235 DUP2 PUSH1 0x3 DUP10 ADD PUSH2 0x2E8D JUMP JUMPDEST PUSH1 0x60 DUP9 ADD MSTORE PUSH1 0x40 MLOAD SWAP3 DUP4 DUP1 SWAP3 DUP7 ADD PUSH2 0x2E8D JUMP JUMPDEST PUSH1 0x80 DUP6 ADD MSTORE PUSH2 0x235 PUSH1 0x40 MLOAD DUP1 SWAP5 DUP2 SWAP4 ADD PUSH2 0x2E8D JUMP JUMPDEST PUSH1 0xA0 DUP3 ADD MSTORE PUSH1 0x40 MLOAD SWAP2 DUP3 SWAP2 PUSH1 0x20 DUP4 MSTORE PUSH1 0x20 DUP4 ADD SWAP1 PUSH2 0x2909 JUMP JUMPDEST SUB SWAP1 RETURN JUMPDEST POP CALLVALUE PUSH2 0x187 JUMPI PUSH1 0x20 SWAP1 DUP2 PUSH1 0x3 NOT CALLDATASIZE ADD SLT PUSH2 0x187 JUMPI PUSH2 0x2E5 PUSH2 0x28A6 JUMP JUMPDEST PUSH1 0x5 SLOAD SWAP2 PUSH1 0xFF DUP4 PUSH1 0xA0 SHR AND PUSH2 0x59A JUMPI PUSH1 0x1 PUSH1 0x1 PUSH1 0xA0 SHL SUB SWAP2 DUP3 AND DUP1 ISZERO PUSH2 0x556 JUMPI PUSH1 0x2 DUP1 SLOAD PUSH1 0x1 PUSH1 0x1 PUSH1 0xA0 SHL SUB NOT SWAP1 DUP2 AND DUP4 OR SWAP1 SWAP2 SSTORE PUSH1 0x40 MLOAD PUSH4 0x670D2969 PUSH1 0xE1 SHL DUP1 DUP3 MSTORE SWAP1 DUP8 DUP2 DUP7 DUP2 DUP8 GAS STATICCALL SWAP1 DUP2 ISZERO PUSH2 0x469 JUMPI DUP7 SWAP2 DUP10 SWAP2 PUSH1 0xC0 MLOAD SWAP2 PUSH2 0x539 JUMPI JUMPDEST POP DUP7 PUSH1 0x40 MLOAD DUP1 SWAP5 DUP2 SWAP4 PUSH4 0x65BB98B5 PUSH1 0xE0 SHL DUP4 MSTORE AND GAS STATICCALL DUP1 ISZERO PUSH2 0x469 JUMPI DUP7 SWAP2 PUSH1 0xC0 MLOAD SWAP2 PUSH2 0x4FF JUMPI JUMPDEST POP AND DUP3 PUSH1 0x3 SLOAD AND OR PUSH1 0x3 SSTORE PUSH1 0x40 MLOAD SWAP2 DUP2 DUP4 MSTORE DUP8 DUP4 DUP7 DUP2 DUP8 GAS STATICCALL SWAP3 DUP4 ISZERO PUSH2 0x469 JUMPI DUP7 SWAP4 DUP10 SWAP2 PUSH1 0xC0 MLOAD SWAP2 PUSH2 0x4E2 JUMPI JUMPDEST POP DUP7 PUSH1 0x40 MLOAD DUP1 SWAP7 DUP2 SWAP4 PUSH4 0x6D4726D9 PUSH1 0xE0 SHL DUP4 MSTORE AND GAS STATICCALL SWAP3 DUP4 ISZERO PUSH2 0x469 JUMPI DUP9 SWAP4 DUP8 SWAP2 PUSH1 0xC0 MLOAD SWAP2 PUSH2 0x4A5 JUMPI JUMPDEST POP AND SWAP1 DUP6 SLOAD AND OR DUP5 SSTORE DUP4 PUSH1 0x40 MLOAD DUP1 SWAP5 DUP2 SWAP4 DUP3 MSTORE GAS STATICCALL DUP1 ISZERO PUSH2 0x469 JUMPI DUP4 SWAP3 DUP7 SWAP3 PUSH1 0xC0 MLOAD SWAP3 PUSH2 0x476 JUMPI JUMPDEST POP PUSH1 0x40 MLOAD PUSH4 0x9DA4E51 PUSH1 0xE0 SHL DUP2 MSTORE SWAP4 DUP5 SWAP3 DUP4 SWAP2 AND GAS STATICCALL SWAP4 DUP5 ISZERO PUSH2 0x469 JUMPI PUSH1 0xC0 MLOAD SWAP5 PUSH2 0x430 JUMPI JUMPDEST POP POP PUSH1 0x1 PUSH1 0x1 PUSH1 0xA8 SHL SUB NOT SWAP1 SWAP2 AND SWAP2 AND OR PUSH1 0x1 PUSH1 0xA0 SHL OR PUSH1 0x5 SSTORE PUSH1 0xC0 MLOAD DUP1 RETURN JUMPDEST SWAP1 DUP1 SWAP3 SWAP5 POP DUP2 RETURNDATASIZE DUP4 GT PUSH2 0x462 JUMPI JUMPDEST PUSH2 0x448 DUP2 DUP4 PUSH2 0x29BB JUMP JUMPDEST DUP2 ADD SUB SLT PUSH2 0x187 JUMPI MLOAD DUP3 DUP2 AND DUP2 SUB PUSH2 0x187 JUMPI SWAP2 CODESIZE DUP1 PUSH2 0x410 JUMP JUMPDEST POP RETURNDATASIZE PUSH2 0x43E JUMP JUMPDEST PUSH1 0x40 MLOAD RETURNDATASIZE PUSH1 0xC0 MLOAD DUP3 RETURNDATACOPY RETURNDATASIZE SWAP1 REVERT JUMPDEST PUSH2 0x497 SWAP2 SWAP3 POP DUP4 RETURNDATASIZE DUP6 GT PUSH2 0x49E JUMPI JUMPDEST PUSH2 0x48F DUP2 DUP4 PUSH2 0x29BB JUMP JUMPDEST DUP2 ADD SWAP1 PUSH2 0x2B70 JUMP JUMPDEST SWAP1 CODESIZE PUSH2 0x3EA JUMP JUMPDEST POP RETURNDATASIZE PUSH2 0x485 JUMP JUMPDEST SWAP3 SWAP5 DUP1 SWAP3 POP DUP4 SWAP2 POP RETURNDATASIZE DUP4 GT PUSH2 0x4DB JUMPI JUMPDEST PUSH2 0x4BF DUP2 DUP4 PUSH2 0x29BB JUMP JUMPDEST DUP2 ADD SUB SLT PUSH2 0x187 JUMPI MLOAD SWAP2 DUP6 DUP4 AND DUP4 SUB PUSH2 0x187 JUMPI DUP6 DUP9 SWAP4 CODESIZE PUSH2 0x3C2 JUMP JUMPDEST POP RETURNDATASIZE PUSH2 0x4B5 JUMP JUMPDEST PUSH2 0x4F9 SWAP2 POP DUP3 RETURNDATASIZE DUP5 GT PUSH2 0x49E JUMPI PUSH2 0x48F DUP2 DUP4 PUSH2 0x29BB JUMP JUMPDEST CODESIZE PUSH2 0x398 JUMP JUMPDEST DUP1 SWAP3 POP DUP10 DUP1 SWAP3 POP RETURNDATASIZE DUP4 GT PUSH2 0x532 JUMPI JUMPDEST PUSH2 0x518 DUP2 DUP4 PUSH2 0x29BB JUMP JUMPDEST DUP2 ADD SUB SLT PUSH2 0x187 JUMPI MLOAD DUP6 DUP2 AND DUP2 SUB PUSH2 0x187 JUMPI DUP6 SWAP1 CODESIZE PUSH2 0x36B JUMP JUMPDEST POP RETURNDATASIZE PUSH2 0x50E JUMP JUMPDEST PUSH2 0x550 SWAP2 POP DUP3 RETURNDATASIZE DUP5 GT PUSH2 0x49E JUMPI PUSH2 0x48F DUP2 DUP4 PUSH2 0x29BB JUMP JUMPDEST CODESIZE PUSH2 0x344 JUMP JUMPDEST PUSH1 0x40 MLOAD PUSH3 0x461BCD PUSH1 0xE5 SHL DUP2 MSTORE DUP1 DUP4 ADD DUP7 SWAP1 MSTORE PUSH1 0x17 PUSH1 0x24 DUP3 ADD MSTORE PUSH32 0x496E76616C69642070726F746F636F6C206D6F64756C65000000000000000000 PUSH1 0x44 DUP3 ADD MSTORE PUSH1 0x64 SWAP1 REVERT JUMPDEST PUSH1 0x40 MLOAD PUSH3 0x461BCD PUSH1 0xE5 SHL DUP2 MSTORE SWAP1 DUP2 ADD DUP5 SWAP1 MSTORE PUSH1 0x13 PUSH1 0x24 DUP3 ADD MSTORE PUSH19 0x105B1C9958591E481A5B9A5D1A585B1A5E9959 PUSH1 0x6A SHL PUSH1 0x44 DUP3 ADD MSTORE PUSH1 0x64 SWAP1 REVERT JUMPDEST POP CALLVALUE PUSH2 0x187 JUMPI PUSH1 0x20 DUP1 PUSH1 0x3 NOT CALLDATASIZE ADD SLT PUSH2 0x187 JUMPI PUSH1 0x1 PUSH1 0x1 PUSH1 0xA0 SHL SUB PUSH2 0x5F7 PUSH2 0x28A6 JUMP JUMPDEST AND SWAP2 CALLER DUP4 SUB PUSH2 0x6D3 JUMPI DUP3 PUSH1 0xC0 MLOAD MSTORE PUSH1 0x6 DUP3 MSTORE PUSH2 0x618 PUSH1 0x40 PUSH1 0xC0 MLOAD KECCAK256 SLOAD PUSH2 0x2BC0 JUMP JUMPDEST ISZERO PUSH2 0x691 JUMPI POP PUSH1 0x8 SWAP1 DUP3 PUSH1 0xC0 MLOAD MSTORE PUSH1 0x6 DUP2 MSTORE PUSH2 0x638 PUSH1 0x40 PUSH1 0xC0 MLOAD KECCAK256 PUSH2 0x2E48 JUMP JUMPDEST DUP3 PUSH1 0xC0 MLOAD MSTORE PUSH1 0x7 DUP2 MSTORE PUSH2 0x64F PUSH1 0x40 PUSH1 0xC0 MLOAD KECCAK256 PUSH2 0x2E48 JUMP JUMPDEST DUP3 PUSH1 0xC0 MLOAD MSTORE MSTORE PUSH1 0x40 PUSH1 0xC0 MLOAD KECCAK256 PUSH1 0xFF NOT DUP2 SLOAD AND SWAP1 SSTORE PUSH32 0x850E5DF914B57AC32B9B4CFB02944F8E955F9991D54AE5CCAC3936A7B205CACE PUSH1 0xC0 MLOAD PUSH1 0xC0 MLOAD LOG2 PUSH1 0xC0 MLOAD DUP1 RETURN JUMPDEST PUSH1 0x64 SWAP2 PUSH1 0x40 MLOAD SWAP2 PUSH3 0x461BCD PUSH1 0xE5 SHL DUP4 MSTORE DUP3 ADD MSTORE PUSH1 0x17 PUSH1 0x24 DUP3 ADD MSTORE PUSH32 0x4D6574616461746120646F6573206E6F74206578697374000000000000000000 PUSH1 0x44 DUP3 ADD MSTORE REVERT JUMPDEST PUSH1 0x84 SWAP2 PUSH1 0x40 MLOAD SWAP2 PUSH3 0x461BCD PUSH1 0xE5 SHL DUP4 MSTORE DUP3 ADD MSTORE PUSH1 0x25 PUSH1 0x24 DUP3 ADD MSTORE PUSH32 0x4F6E6C79207772617070656420736F6E672063616E2072656D6F7665206D6574 PUSH1 0x44 DUP3 ADD MSTORE PUSH5 0x6164617461 PUSH1 0xD8 SHL PUSH1 0x64 DUP3 ADD MSTORE REVERT JUMPDEST POP CALLVALUE PUSH2 0x187 JUMPI PUSH1 0x20 CALLDATASIZE PUSH1 0x3 NOT ADD SLT PUSH2 0x187 JUMPI PUSH2 0x73D PUSH2 0x28A6 JUMP JUMPDEST PUSH2 0x745 PUSH2 0x2B44 JUMP JUMPDEST PUSH1 0x1 PUSH1 0x1 PUSH1 0xA0 SHL SUB AND SWAP1 DUP2 ISZERO PUSH2 0x783 JUMPI POP PUSH1 0x2 DUP1 SLOAD PUSH1 0x1 PUSH1 0x1 PUSH1 0xA0 SHL SUB NOT AND SWAP2 SWAP1 SWAP2 OR SWAP1 SSTORE PUSH1 0x5 DUP1 SLOAD PUSH1 0xFF PUSH1 0xA0 SHL NOT AND PUSH1 0x1 PUSH1 0xA0 SHL OR SWAP1 SSTORE PUSH1 0xC0 MLOAD DUP1 RETURN JUMPDEST PUSH1 0x64 SWAP1 PUSH1 0x20 PUSH1 0x40 MLOAD SWAP2 PUSH3 0x461BCD PUSH1 0xE5 SHL DUP4 MSTORE DUP3 ADD MSTORE PUSH1 0x1F PUSH1 0x24 DUP3 ADD MSTORE PUSH32 0x496E76616C69642070726F746F636F6C206D6F64756C65206164647265737300 PUSH1 0x44 DUP3 ADD MSTORE REVERT JUMPDEST POP CALLVALUE PUSH2 0x187 JUMPI PUSH1 0x20 DUP1 PUSH1 0x3 NOT CALLDATASIZE ADD SLT PUSH2 0x187 JUMPI PUSH2 0x7E2 PUSH2 0x28A6 JUMP JUMPDEST PUSH1 0x3 SLOAD PUSH1 0x40 MLOAD PUSH4 0x3AA690E7 PUSH1 0xE0 SHL DUP2 MSTORE PUSH1 0x1 PUSH1 0x1 PUSH1 0xA0 SHL SUB SWAP3 DUP4 AND DUP2 DUP7 ADD DUP2 SWAP1 MSTORE SWAP5 SWAP3 SWAP2 DUP5 SWAP1 DUP3 SWAP1 PUSH1 0x24 SWAP1 DUP3 SWAP1 DUP7 AND GAS STATICCALL SWAP1 DUP2 ISZERO PUSH2 0x469 JUMPI DUP3 SWAP2 DUP6 SWAP2 PUSH1 0xC0 MLOAD SWAP2 PUSH2 0x91C JUMPI JUMPDEST POP DUP5 PUSH1 0x40 MLOAD DUP1 SWAP5 DUP2 SWAP4 PUSH4 0x8DA5CB5B PUSH1 0xE0 SHL DUP4 MSTORE AND GAS STATICCALL SWAP1 DUP2 ISZERO PUSH2 0x469 JUMPI PUSH1 0xC0 MLOAD SWAP2 PUSH2 0x8FF JUMPI JUMPDEST POP AND CALLER SUB PUSH2 0x8B2 JUMPI POP PUSH1 0x8 SWAP1 DUP3 PUSH1 0xC0 MLOAD MSTORE PUSH1 0x7 DUP2 MSTORE PUSH2 0x870 PUSH1 0x40 PUSH1 0xC0 MLOAD KECCAK256 PUSH2 0x2E48 JUMP JUMPDEST DUP3 PUSH1 0xC0 MLOAD MSTORE MSTORE PUSH1 0x40 PUSH1 0xC0 MLOAD KECCAK256 PUSH1 0xFF NOT DUP2 SLOAD AND SWAP1 SSTORE PUSH32 0x44983A324FA169AF1E5F7FC334FE51324C21A0F94C8407867926CB4266B0CB54 PUSH1 0xC0 MLOAD PUSH1 0xC0 MLOAD LOG2 PUSH1 0xC0 MLOAD DUP1 RETURN JUMPDEST PUSH1 0x84 SWAP2 PUSH1 0x40 MLOAD SWAP2 PUSH3 0x461BCD PUSH1 0xE5 SHL DUP4 MSTORE DUP3 ADD MSTORE PUSH1 0x22 PUSH1 0x24 DUP3 ADD MSTORE PUSH32 0x4F6E6C79206469737472696275746F722063616E2072656A6563742075706461 PUSH1 0x44 DUP3 ADD MSTORE PUSH2 0x7465 PUSH1 0xF0 SHL PUSH1 0x64 DUP3 ADD MSTORE REVERT JUMPDEST PUSH2 0x916 SWAP2 POP DUP5 RETURNDATASIZE DUP7 GT PUSH2 0x49E JUMPI PUSH2 0x48F DUP2 DUP4 PUSH2 0x29BB JUMP JUMPDEST CODESIZE PUSH2 0x84D JUMP JUMPDEST PUSH2 0x933 SWAP2 POP DUP3 RETURNDATASIZE DUP5 GT PUSH2 0x49E JUMPI PUSH2 0x48F DUP2 DUP4 PUSH2 0x29BB JUMP JUMPDEST CODESIZE PUSH2 0x827 JUMP JUMPDEST CALLVALUE PUSH2 0x187 JUMPI PUSH1 0xC0 MLOAD CALLDATASIZE PUSH1 0x3 NOT ADD SLT PUSH2 0x187 JUMPI PUSH1 0xC0 MLOAD SLOAD PUSH1 0x40 MLOAD PUSH1 0x1 PUSH1 0x1 PUSH1 0xA0 SHL SUB SWAP1 SWAP2 AND DUP2 MSTORE PUSH1 0x20 SWAP1 RETURN JUMPDEST CALLVALUE PUSH2 0x187 JUMPI PUSH1 0xC0 MLOAD CALLDATASIZE PUSH1 0x3 NOT ADD SLT PUSH2 0x187 JUMPI PUSH2 0x97E PUSH2 0x2B44 JUMP JUMPDEST PUSH1 0xC0 MLOAD DUP1 SLOAD PUSH1 0x1 PUSH1 0x1 PUSH1 0xA0 SHL SUB NOT DUP2 AND DUP3 SSTORE PUSH1 0x1 PUSH1 0x1 PUSH1 0xA0 SHL SUB AND PUSH32 0x8BE0079C531659141344CD1FD0A4F28419497F9722A3DAAFE3B4186F6B6457E0 DUP3 DUP1 LOG3 PUSH1 0xC0 MLOAD DUP1 RETURN JUMPDEST POP CALLVALUE PUSH2 0x187 JUMPI PUSH2 0x9D2 CALLDATASIZE PUSH2 0x2A3E JUMP JUMPDEST SWAP1 PUSH2 0x9DB PUSH2 0x2B8F JUMP JUMPDEST POP PUSH1 0x2 SLOAD PUSH1 0x40 MLOAD PUSH4 0x58DBA2F PUSH1 0xE1 SHL DUP2 MSTORE PUSH1 0x1 PUSH1 0x1 PUSH1 0xA0 SHL SUB DUP4 DUP2 AND DUP3 DUP8 ADD MSTORE SWAP5 SWAP2 PUSH1 0x20 SWAP1 DUP3 SWAP1 PUSH1 0x24 SWAP1 DUP3 SWAP1 DUP10 AND GAS STATICCALL DUP1 ISZERO PUSH2 0x469 JUMPI DUP6 SWAP2 PUSH1 0xC0 MLOAD SWAP2 PUSH2 0x10D6 JUMPI JUMPDEST POP AND ISZERO PUSH2 0x1092 JUMPI DUP4 DUP3 AND PUSH1 0xC0 MLOAD MSTORE PUSH1 0x6 PUSH1 0x20 MSTORE PUSH2 0xA3E PUSH1 0x40 PUSH1 0xC0 MLOAD KECCAK256 SLOAD PUSH2 0x2BC0 JUMP JUMPDEST PUSH2 0x104E JUMPI PUSH2 0xA4B DUP4 PUSH2 0x2C58 JUMP JUMPDEST ISZERO PUSH2 0x1017 JUMPI DUP4 DUP3 AND PUSH1 0xC0 MLOAD MSTORE PUSH1 0x6 PUSH1 0x20 MSTORE PUSH1 0x40 PUSH1 0xC0 MLOAD KECCAK256 SWAP1 DUP4 MLOAD DUP1 MLOAD SWAP1 PUSH1 0x1 PUSH1 0x1 PUSH1 0x40 SHL SUB DUP3 GT PUSH2 0x1000 JUMPI DUP2 SWAP1 PUSH2 0xA8C DUP3 PUSH2 0xA86 DUP8 SLOAD PUSH2 0x2BC0 JUMP JUMPDEST DUP8 PUSH2 0x2C11 JUMP JUMPDEST PUSH1 0x20 SWAP1 PUSH1 0x1 PUSH1 0x1F DUP5 GT EQ PUSH2 0xF97 JUMPI PUSH1 0xC0 MLOAD SWAP3 PUSH2 0xF8C JUMPI JUMPDEST POP POP DUP2 PUSH1 0x1 SHL SWAP2 PUSH1 0x0 NOT SWAP1 PUSH1 0x3 SHL SHR NOT AND OR DUP3 SSTORE JUMPDEST PUSH1 0x1 DUP3 ADD PUSH1 0x20 DUP6 ADD MLOAD DUP1 MLOAD SWAP1 PUSH1 0x1 PUSH1 0x1 PUSH1 0x40 SHL SUB DUP3 GT PUSH2 0xE03 JUMPI DUP2 SWAP1 PUSH2 0xAE8 DUP3 PUSH2 0xAE2 DUP7 SLOAD PUSH2 0x2BC0 JUMP JUMPDEST DUP7 PUSH2 0x2C11 JUMP JUMPDEST PUSH1 0x20 SWAP1 PUSH1 0x1 PUSH1 0x1F DUP5 GT EQ PUSH2 0xF23 JUMPI PUSH1 0xC0 MLOAD SWAP3 PUSH2 0xF18 JUMPI JUMPDEST POP POP DUP2 PUSH1 0x1 SHL SWAP2 PUSH1 0x0 NOT SWAP1 PUSH1 0x3 SHL SHR NOT AND OR SWAP1 SSTORE JUMPDEST PUSH1 0x2 DUP3 ADD PUSH1 0x40 DUP6 ADD MLOAD DUP1 MLOAD SWAP1 PUSH1 0x1 PUSH1 0x1 PUSH1 0x40 SHL SUB DUP3 GT PUSH2 0xE03 JUMPI DUP2 SWAP1 PUSH2 0xB3E DUP3 PUSH2 0xAE2 DUP7 SLOAD PUSH2 0x2BC0 JUMP JUMPDEST PUSH1 0x20 SWAP1 PUSH1 0x1 PUSH1 0x1F DUP5 GT EQ PUSH2 0xEAF JUMPI PUSH1 0xC0 MLOAD SWAP3 PUSH2 0xEA4 JUMPI JUMPDEST POP POP DUP2 PUSH1 0x1 SHL SWAP2 PUSH1 0x0 NOT SWAP1 PUSH1 0x3 SHL SHR NOT AND OR SWAP1 SSTORE JUMPDEST PUSH1 0x3 SWAP2 DUP3 DUP2 ADD PUSH1 0x60 DUP7 ADD MLOAD DUP1 MLOAD SWAP1 PUSH1 0x1 PUSH1 0x1 PUSH1 0x40 SHL SUB DUP3 GT PUSH2 0xE8D JUMPI DUP2 SWAP1 PUSH2 0xB96 DUP3 PUSH2 0xAE2 DUP7 SLOAD PUSH2 0x2BC0 JUMP JUMPDEST PUSH1 0x20 SWAP1 PUSH1 0x1 PUSH1 0x1F DUP5 GT EQ PUSH2 0xE25 JUMPI PUSH1 0xC0 MLOAD SWAP3 PUSH2 0xE1A JUMPI JUMPDEST POP POP DUP2 PUSH1 0x1 SHL SWAP2 PUSH1 0x0 NOT SWAP1 DUP8 SHL SHR NOT AND OR SWAP1 SSTORE JUMPDEST PUSH1 0x80 DUP6 ADD MLOAD DUP1 MLOAD SWAP1 PUSH1 0x1 PUSH1 0x1 PUSH1 0x40 SHL SUB DUP3 GT PUSH2 0xE03 JUMPI PUSH2 0xBEF DUP3 PUSH2 0xBE7 DUP7 DUP7 ADD SLOAD PUSH2 0x2BC0 JUMP JUMPDEST DUP7 DUP7 ADD PUSH2 0x2C11 JUMP JUMPDEST PUSH1 0x20 SWAP1 PUSH1 0x1 PUSH1 0x1F DUP5 GT EQ PUSH2 0xD90 JUMPI SWAP2 DUP1 SWAP2 PUSH1 0x5 SWAP5 SWAP4 PUSH1 0xC0 MLOAD SWAP3 PUSH2 0xD85 JUMPI JUMPDEST POP POP DUP2 PUSH1 0x1 SHL SWAP2 PUSH1 0x0 NOT SWAP1 DUP8 SHL SHR NOT AND OR DUP4 DUP3 ADD SSTORE JUMPDEST ADD SWAP2 PUSH1 0xA0 DUP6 ADD MLOAD DUP1 MLOAD SWAP3 PUSH1 0x1 PUSH1 0x1 PUSH1 0x40 SHL SUB DUP5 GT PUSH2 0xD6E JUMPI POP PUSH2 0xC4A DUP4 PUSH2 0xAE2 DUP7 SLOAD PUSH2 0x2BC0 JUMP JUMPDEST PUSH1 0x20 SWAP1 PUSH1 0x1 PUSH1 0x1F DUP6 GT EQ PUSH2 0xCD9 JUMPI SWAP3 PUSH32 0x6E59FB1F315F2F4B281014E9D51CA1387542C6AF4109446EAAABADD34B5D5EB3 SWAP5 SWAP3 DUP2 SWAP3 PUSH2 0x2C5 SWAP10 SWAP6 PUSH1 0xC0 MLOAD SWAP4 PUSH2 0xCCE JUMPI JUMPDEST POP POP DUP3 PUSH1 0x1 SHL SWAP3 PUSH1 0x0 NOT SWAP2 SHL SHR NOT AND OR SWAP1 SSTORE JUMPDEST PUSH1 0x40 MLOAD SWAP3 PUSH1 0x20 DUP5 MSTORE AND SWAP2 DUP1 PUSH2 0xCB7 PUSH1 0x20 DUP3 ADD DUP7 PUSH2 0x2909 JUMP JUMPDEST SUB SWAP1 LOG2 PUSH1 0x40 MLOAD SWAP2 DUP3 SWAP2 PUSH1 0x20 DUP4 MSTORE PUSH1 0x20 DUP4 ADD SWAP1 PUSH2 0x2909 JUMP JUMPDEST ADD MLOAD SWAP2 POP CODESIZE DUP1 PUSH2 0xC8C JUMP JUMPDEST SWAP2 SWAP1 PUSH1 0x1F NOT DUP5 AND SWAP3 DUP6 PUSH1 0xC0 MLOAD MSTORE PUSH1 0x20 PUSH1 0xC0 MLOAD KECCAK256 SWAP4 PUSH1 0xC0 MLOAD JUMPDEST DUP2 DUP2 LT PUSH2 0xD56 JUMPI POP SWAP3 DUP6 SWAP3 PUSH32 0x6E59FB1F315F2F4B281014E9D51CA1387542C6AF4109446EAAABADD34B5D5EB3 SWAP8 SWAP6 SWAP3 PUSH2 0x2C5 SWAP12 SWAP8 PUSH1 0x1 SWAP7 LT PUSH2 0xD3C JUMPI JUMPDEST POP POP POP POP DUP2 SHL ADD SWAP1 SSTORE PUSH2 0xC9F JUMP JUMPDEST ADD MLOAD SWAP1 PUSH1 0xF8 DUP5 PUSH1 0x0 NOT SWAP3 SHL AND SHR NOT AND SWAP1 SSTORE CODESIZE DUP1 DUP1 DUP1 PUSH2 0xD2E JUMP JUMPDEST SWAP3 SWAP5 PUSH1 0x20 PUSH1 0x1 DUP2 SWAP3 DUP9 DUP7 ADD MLOAD DUP2 SSTORE ADD SWAP7 ADD SWAP4 ADD PUSH2 0xCF1 JUMP JUMPDEST PUSH1 0x41 SWAP1 PUSH4 0x4E487B71 PUSH1 0xE0 SHL PUSH1 0xC0 MLOAD MSTORE MSTORE PUSH1 0x24 PUSH1 0xC0 MLOAD REVERT JUMPDEST ADD MLOAD SWAP1 POP CODESIZE DUP1 PUSH2 0xC0D JUMP JUMPDEST SWAP1 DUP5 DUP5 ADD PUSH1 0xC0 MLOAD MSTORE PUSH1 0x20 PUSH1 0xC0 MLOAD KECCAK256 SWAP2 PUSH1 0xC0 MLOAD JUMPDEST PUSH1 0x1F NOT DUP6 AND DUP2 LT PUSH2 0xDEB JUMPI POP SWAP2 DUP4 SWAP2 PUSH1 0x1 SWAP4 PUSH1 0x5 SWAP7 SWAP6 PUSH1 0x1F NOT DUP2 AND LT PUSH2 0xDD3 JUMPI JUMPDEST POP POP POP DUP2 SHL ADD DUP4 DUP3 ADD SSTORE PUSH2 0xC23 JUMP JUMPDEST ADD MLOAD PUSH1 0x0 NOT DUP4 DUP10 SHL PUSH1 0xF8 AND SHR NOT AND SWAP1 SSTORE CODESIZE DUP1 DUP1 PUSH2 0xDC4 JUMP JUMPDEST SWAP2 SWAP3 PUSH1 0x20 PUSH1 0x1 DUP2 SWAP3 DUP7 DUP6 ADD MLOAD DUP2 SSTORE ADD SWAP5 ADD SWAP3 ADD PUSH2 0xDA3 JUMP JUMPDEST PUSH1 0x41 DUP5 PUSH4 0x4E487B71 PUSH1 0xE0 SHL PUSH1 0xC0 MLOAD MSTORE MSTORE PUSH1 0x24 PUSH1 0xC0 MLOAD REVERT JUMPDEST ADD MLOAD SWAP1 POP CODESIZE DUP1 PUSH2 0xBAD JUMP JUMPDEST PUSH1 0xC0 DUP1 MLOAD DUP7 SWAP1 MSTORE MLOAD PUSH1 0x20 DUP2 KECCAK256 SWAP4 POP PUSH1 0x1F NOT DUP6 AND SWAP1 JUMPDEST DUP2 DUP2 LT PUSH2 0xE75 JUMPI POP SWAP1 DUP5 PUSH1 0x1 SWAP6 SWAP5 SWAP4 SWAP3 LT PUSH2 0xE5D JUMPI JUMPDEST POP POP POP DUP2 SHL ADD SWAP1 SSTORE PUSH2 0xBC1 JUMP JUMPDEST ADD MLOAD PUSH1 0x0 NOT DUP4 DUP10 SHL PUSH1 0xF8 AND SHR NOT AND SWAP1 SSTORE CODESIZE DUP1 DUP1 PUSH2 0xE50 JUMP JUMPDEST SWAP3 SWAP4 PUSH1 0x20 PUSH1 0x1 DUP2 SWAP3 DUP8 DUP7 ADD MLOAD DUP2 SSTORE ADD SWAP6 ADD SWAP4 ADD PUSH2 0xE3A JUMP JUMPDEST PUSH1 0x41 DUP6 PUSH4 0x4E487B71 PUSH1 0xE0 SHL PUSH1 0xC0 MLOAD MSTORE MSTORE PUSH1 0x24 PUSH1 0xC0 MLOAD REVERT JUMPDEST ADD MLOAD SWAP1 POP CODESIZE DUP1 PUSH2 0xB55 JUMP JUMPDEST PUSH1 0xC0 DUP1 MLOAD DUP7 SWAP1 MSTORE MLOAD PUSH1 0x20 DUP2 KECCAK256 SWAP4 POP PUSH1 0x1F NOT DUP6 AND SWAP1 JUMPDEST DUP2 DUP2 LT PUSH2 0xF00 JUMPI POP SWAP1 DUP5 PUSH1 0x1 SWAP6 SWAP5 SWAP4 SWAP3 LT PUSH2 0xEE7 JUMPI JUMPDEST POP POP POP DUP2 SHL ADD SWAP1 SSTORE PUSH2 0xB6A JUMP JUMPDEST ADD MLOAD PUSH1 0x0 NOT PUSH1 0xF8 DUP5 PUSH1 0x3 SHL AND SHR NOT AND SWAP1 SSTORE CODESIZE DUP1 DUP1 PUSH2 0xEDA JUMP JUMPDEST SWAP3 SWAP4 PUSH1 0x20 PUSH1 0x1 DUP2 SWAP3 DUP8 DUP7 ADD MLOAD DUP2 SSTORE ADD SWAP6 ADD SWAP4 ADD PUSH2 0xEC4 JUMP JUMPDEST ADD MLOAD SWAP1 POP CODESIZE DUP1 PUSH2 0xAFF JUMP JUMPDEST PUSH1 0xC0 DUP1 MLOAD DUP7 SWAP1 MSTORE MLOAD PUSH1 0x20 DUP2 KECCAK256 SWAP4 POP PUSH1 0x1F NOT DUP6 AND SWAP1 JUMPDEST DUP2 DUP2 LT PUSH2 0xF74 JUMPI POP SWAP1 DUP5 PUSH1 0x1 SWAP6 SWAP5 SWAP4 SWAP3 LT PUSH2 0xF5B JUMPI JUMPDEST POP POP POP DUP2 SHL ADD SWAP1 SSTORE PUSH2 0xB14 JUMP JUMPDEST ADD MLOAD PUSH1 0x0 NOT PUSH1 0xF8 DUP5 PUSH1 0x3 SHL AND SHR NOT AND SWAP1 SSTORE CODESIZE DUP1 DUP1 PUSH2 0xF4E JUMP JUMPDEST SWAP3 SWAP4 PUSH1 0x20 PUSH1 0x1 DUP2 SWAP3 DUP8 DUP7 ADD MLOAD DUP2 SSTORE ADD SWAP6 ADD SWAP4 ADD PUSH2 0xF38 JUMP JUMPDEST ADD MLOAD SWAP1 POP CODESIZE DUP1 PUSH2 0xAA3 JUMP JUMPDEST PUSH1 0xC0 DUP1 MLOAD DUP8 SWAP1 MSTORE MLOAD PUSH1 0x20 DUP2 KECCAK256 SWAP4 POP PUSH1 0x1F NOT DUP6 AND SWAP1 JUMPDEST DUP2 DUP2 LT PUSH2 0xFE8 JUMPI POP SWAP1 DUP5 PUSH1 0x1 SWAP6 SWAP5 SWAP4 SWAP3 LT PUSH2 0xFCF JUMPI JUMPDEST POP POP POP DUP2 SHL ADD DUP3 SSTORE PUSH2 0xAB8 JUMP JUMPDEST ADD MLOAD PUSH1 0x0 NOT PUSH1 0xF8 DUP5 PUSH1 0x3 SHL AND SHR NOT AND SWAP1 SSTORE CODESIZE DUP1 DUP1 PUSH2 0xFC2 JUMP JUMPDEST SWAP3 SWAP4 PUSH1 0x20 PUSH1 0x1 DUP2 SWAP3 DUP8 DUP7 ADD MLOAD DUP2 SSTORE ADD SWAP6 ADD SWAP4 ADD PUSH2 0xFAC JUMP JUMPDEST PUSH1 0x41 DUP4 PUSH4 0x4E487B71 PUSH1 0xE0 SHL PUSH1 0xC0 MLOAD MSTORE MSTORE PUSH1 0x24 PUSH1 0xC0 MLOAD REVERT JUMPDEST PUSH1 0x64 SWAP1 PUSH1 0x20 PUSH1 0x40 MLOAD SWAP2 PUSH3 0x461BCD PUSH1 0xE5 SHL DUP4 MSTORE DUP3 ADD MSTORE PUSH1 0x10 PUSH1 0x24 DUP3 ADD MSTORE PUSH16 0x496E76616C6964206D65746164617461 PUSH1 0x80 SHL PUSH1 0x44 DUP3 ADD MSTORE REVERT JUMPDEST PUSH1 0x64 SWAP1 PUSH1 0x20 PUSH1 0x40 MLOAD SWAP2 PUSH3 0x461BCD PUSH1 0xE5 SHL DUP4 MSTORE DUP3 ADD MSTORE PUSH1 0x17 PUSH1 0x24 DUP3 ADD MSTORE PUSH32 0x4D6574616461746120616C726561647920657869737473000000000000000000 PUSH1 0x44 DUP3 ADD MSTORE REVERT JUMPDEST PUSH1 0x64 SWAP1 PUSH1 0x20 PUSH1 0x40 MLOAD SWAP2 PUSH3 0x461BCD PUSH1 0xE5 SHL DUP4 MSTORE DUP3 ADD MSTORE PUSH1 0x19 PUSH1 0x24 DUP3 ADD MSTORE PUSH32 0x41646472657373206E6F7420612070726F746F636F6C20575300000000000000 PUSH1 0x44 DUP3 ADD MSTORE REVERT JUMPDEST PUSH2 0x10EF SWAP2 POP PUSH1 0x20 RETURNDATASIZE PUSH1 0x20 GT PUSH2 0x49E JUMPI PUSH2 0x48F DUP2 DUP4 PUSH2 0x29BB JUMP JUMPDEST CODESIZE PUSH2 0xA1C JUMP JUMPDEST POP PUSH2 0x10FF CALLDATASIZE PUSH2 0x2A3E JUMP JUMPDEST PUSH1 0x40 MLOAD PUSH4 0x8DA5CB5B PUSH1 0xE0 SHL DUP2 MSTORE PUSH1 0x1 PUSH1 0x1 PUSH1 0xA0 SHL SUB SWAP3 DUP4 AND SWAP3 PUSH1 0x20 SWAP2 DUP3 DUP2 DUP8 DUP2 DUP9 GAS STATICCALL SWAP1 DUP2 ISZERO PUSH2 0x469 JUMPI PUSH1 0xC0 MLOAD SWAP2 PUSH2 0x17DD JUMPI JUMPDEST POP DUP2 AND CALLER EQ DUP1 ISZERO PUSH2 0x17D0 JUMPI JUMPDEST ISZERO PUSH2 0x177A JUMPI DUP2 SWAP1 PUSH1 0x3 SWAP1 DUP2 SLOAD AND PUSH1 0x40 MLOAD SWAP3 DUP4 DUP1 SWAP3 PUSH4 0x6F87189 PUSH1 0xE3 SHL DUP3 MSTORE DUP9 DUP11 DUP4 ADD MSTORE PUSH1 0x24 SWAP6 DUP7 SWAP2 GAS STATICCALL SWAP1 DUP2 ISZERO PUSH2 0x469 JUMPI PUSH1 0xC0 MLOAD SWAP2 PUSH2 0x174D JUMPI JUMPDEST POP PUSH2 0x16F4 JUMPI PUSH2 0x118E PUSH2 0x1189 DUP6 PUSH2 0x2C58 JUMP JUMPDEST PUSH2 0x2C9D JUMP JUMPDEST DUP5 PUSH1 0xC0 MLOAD MSTORE PUSH1 0x6 DUP4 MSTORE PUSH1 0x40 PUSH1 0xC0 MLOAD KECCAK256 SWAP1 DUP5 MLOAD SWAP7 DUP8 MLOAD SWAP3 PUSH1 0x1 PUSH1 0x1 PUSH1 0x40 SHL SUB SWAP4 DUP5 DUP2 GT PUSH2 0x16DE JUMPI PUSH2 0x11C8 DUP2 PUSH2 0x11C2 DUP5 SLOAD PUSH2 0x2BC0 JUMP JUMPDEST DUP5 PUSH2 0x2C11 JUMP JUMPDEST PUSH1 0x1F SWAP10 DUP2 SWAP1 DUP9 SWAP1 PUSH1 0x1 DUP14 DUP5 GT EQ PUSH2 0x1677 JUMPI PUSH1 0xC0 MLOAD SWAP3 PUSH2 0x166C JUMPI JUMPDEST POP POP DUP2 PUSH1 0x1 SHL SWAP2 PUSH1 0x0 NOT SWAP1 DUP7 SHL SHR NOT AND OR DUP2 SSTORE JUMPDEST PUSH1 0x1 PUSH1 0xA0 MSTORE PUSH1 0xA0 MLOAD DUP2 ADD DUP7 DUP9 ADD MLOAD DUP1 MLOAD SWAP1 DUP7 DUP3 GT PUSH2 0x14F4 JUMPI DUP2 SWAP1 PUSH2 0x121E DUP3 PUSH2 0xAE2 DUP7 SLOAD PUSH2 0x2BC0 JUMP JUMPDEST DUP10 SWAP1 PUSH1 0x1 DUP15 DUP5 GT EQ PUSH2 0x1601 JUMPI PUSH1 0xC0 MLOAD SWAP3 PUSH2 0x15F6 JUMPI JUMPDEST POP POP DUP2 PUSH1 0xA0 MLOAD SHL SWAP2 PUSH1 0x0 NOT SWAP1 DUP8 SHL SHR NOT AND OR SWAP1 SSTORE JUMPDEST PUSH1 0x2 DUP2 ADD PUSH1 0x40 DUP9 ADD MLOAD DUP1 MLOAD SWAP1 DUP7 DUP3 GT PUSH2 0x14F4 JUMPI DUP2 SWAP1 PUSH2 0x126B DUP3 PUSH2 0xAE2 DUP7 SLOAD PUSH2 0x2BC0 JUMP JUMPDEST DUP10 SWAP1 PUSH1 0x1 DUP15 DUP5 GT EQ PUSH2 0x158B JUMPI PUSH1 0xC0 MLOAD SWAP3 PUSH2 0x1580 JUMPI JUMPDEST POP POP DUP2 PUSH1 0xA0 MLOAD SHL SWAP2 PUSH1 0x0 NOT SWAP1 DUP8 SHL SHR NOT AND OR SWAP1 SSTORE JUMPDEST DUP3 DUP2 ADD PUSH1 0x60 DUP9 ADD MLOAD DUP1 MLOAD SWAP1 DUP7 DUP3 GT PUSH2 0x14F4 JUMPI DUP2 SWAP1 PUSH2 0x12B7 DUP3 PUSH2 0xAE2 DUP7 SLOAD PUSH2 0x2BC0 JUMP JUMPDEST DUP10 SWAP1 PUSH1 0x1 DUP15 DUP5 GT EQ PUSH2 0x1515 JUMPI PUSH1 0xC0 MLOAD SWAP3 PUSH2 0x150A JUMPI JUMPDEST POP POP DUP2 PUSH1 0xA0 MLOAD SHL SWAP2 PUSH1 0x0 NOT SWAP1 DUP8 SHL SHR NOT AND OR SWAP1 SSTORE JUMPDEST DUP2 DUP2 ADD PUSH1 0x80 DUP9 ADD MLOAD DUP1 MLOAD SWAP1 DUP7 DUP3 GT PUSH2 0x14F4 JUMPI PUSH2 0x1307 DUP3 PUSH2 0x1301 DUP6 SLOAD PUSH2 0x2BC0 JUMP JUMPDEST DUP6 PUSH2 0x2C11 JUMP JUMPDEST DUP9 SWAP1 PUSH1 0x1 DUP14 DUP5 GT EQ PUSH2 0x1482 JUMPI SWAP2 DUP1 SWAP2 PUSH1 0x5 SWAP6 SWAP5 SWAP4 PUSH1 0xC0 MLOAD SWAP3 PUSH2 0x1477 JUMPI JUMPDEST POP POP DUP2 PUSH1 0xA0 MLOAD SHL SWAP2 PUSH1 0x0 NOT SWAP1 DUP9 SHL SHR NOT AND OR SWAP1 SSTORE JUMPDEST ADD SWAP4 PUSH1 0xA0 DUP8 ADD MLOAD SWAP2 DUP3 MLOAD SWAP5 DUP6 GT PUSH2 0x1462 JUMPI POP POP PUSH2 0x135A DUP4 PUSH2 0xAE2 DUP7 SLOAD PUSH2 0x2BC0 JUMP JUMPDEST PUSH1 0xC0 MLOAD POP DUP5 SWAP8 DUP4 GT PUSH1 0x1 EQ PUSH2 0x13D4 JUMPI SWAP1 PUSH32 0x4288F171F419B66095D6E026090ED813669EA5A62CFE4416A47E75549E478866 SWAP7 SWAP8 DUP4 SWAP3 PUSH1 0xC0 MLOAD SWAP4 PUSH2 0x13C9 JUMPI JUMPDEST POP POP DUP3 PUSH1 0xA0 MLOAD SHL SWAP3 PUSH1 0x0 NOT SWAP2 SHL SHR NOT AND OR SWAP1 SSTORE JUMPDEST PUSH2 0x13C0 PUSH1 0x40 MLOAD SWAP3 DUP3 DUP5 SWAP4 DUP5 MSTORE DUP4 ADD SWAP1 PUSH2 0x2909 JUMP JUMPDEST SUB SWAP1 LOG2 PUSH1 0xC0 MLOAD DUP1 RETURN JUMPDEST ADD MLOAD SWAP2 POP CODESIZE DUP1 PUSH2 0x1398 JUMP JUMPDEST SWAP1 PUSH1 0x1F NOT DUP4 AND SWAP8 DUP5 PUSH1 0xC0 MLOAD MSTORE DUP6 PUSH1 0xC0 MLOAD KECCAK256 SWAP3 PUSH1 0xC0 MLOAD JUMPDEST DUP11 DUP2 LT PUSH2 0x144A JUMPI POP DUP5 PUSH32 0x4288F171F419B66095D6E026090ED813669EA5A62CFE4416A47E75549E478866 SWAP10 SWAP11 LT PUSH2 0x1430 JUMPI JUMPDEST POP POP POP POP PUSH1 0xA0 MLOAD SWAP1 PUSH1 0xA0 MLOAD SHL ADD SWAP1 SSTORE PUSH2 0x13AC JUMP JUMPDEST ADD MLOAD SWAP1 PUSH1 0xF8 DUP5 PUSH1 0x0 NOT SWAP3 SHL AND SHR NOT AND SWAP1 SSTORE CODESIZE DUP1 DUP1 DUP1 PUSH2 0x141C JUMP JUMPDEST SWAP2 SWAP4 DUP8 DUP1 SWAP2 DUP7 DUP5 ADD MLOAD DUP2 SSTORE PUSH1 0xA0 MLOAD ADD SWAP6 ADD SWAP3 ADD PUSH2 0x13EA JUMP JUMPDEST PUSH1 0x41 SWAP1 PUSH4 0x4E487B71 PUSH1 0xE0 SHL PUSH1 0xC0 MLOAD MSTORE MSTORE PUSH1 0xC0 MLOAD REVERT JUMPDEST ADD MLOAD SWAP1 POP CODESIZE DUP1 PUSH2 0x1324 JUMP JUMPDEST SWAP1 PUSH1 0x1F NOT DUP4 AND SWAP2 DUP5 PUSH1 0xC0 MLOAD MSTORE DUP11 PUSH1 0xC0 MLOAD KECCAK256 SWAP3 PUSH1 0xC0 MLOAD JUMPDEST DUP13 DUP3 DUP3 LT PUSH2 0x14DD JUMPI POP POP SWAP1 DUP5 PUSH1 0x5 SWAP8 SWAP7 SWAP6 SWAP5 SWAP4 SWAP3 LT PUSH2 0x14C5 JUMPI JUMPDEST POP POP POP PUSH1 0xA0 MLOAD SWAP1 PUSH1 0xA0 MLOAD SHL ADD SWAP1 SSTORE PUSH2 0x1339 JUMP JUMPDEST ADD MLOAD PUSH1 0x0 NOT DUP4 DUP10 SHL PUSH1 0xF8 AND SHR NOT AND SWAP1 SSTORE CODESIZE DUP1 DUP1 PUSH2 0x14B2 JUMP JUMPDEST DUP5 SWAP6 DUP2 SWAP3 SWAP6 DUP6 ADD MLOAD DUP2 SSTORE PUSH1 0xA0 MLOAD ADD SWAP6 ADD SWAP4 ADD PUSH2 0x1498 JUMP JUMPDEST DUP8 PUSH1 0x41 DUP7 PUSH4 0x4E487B71 PUSH1 0xE0 SHL PUSH1 0xC0 MLOAD MSTORE MSTORE PUSH1 0xC0 MLOAD REVERT JUMPDEST ADD MLOAD SWAP1 POP CODESIZE DUP1 PUSH2 0x12CC JUMP JUMPDEST PUSH1 0xC0 DUP1 MLOAD DUP7 SWAP1 MSTORE MLOAD DUP12 DUP2 KECCAK256 SWAP4 POP DUP5 SWAP1 PUSH1 0x1F NOT DUP3 AND SWAP1 JUMPDEST DUP14 DUP3 DUP3 LT PUSH2 0x1566 JUMPI POP POP LT PUSH2 0x154E JUMPI JUMPDEST POP POP POP PUSH1 0xA0 MLOAD SWAP1 PUSH1 0xA0 MLOAD SHL ADD SWAP1 SSTORE PUSH2 0x12E1 JUMP JUMPDEST ADD MLOAD PUSH1 0x0 NOT DUP4 DUP9 SHL PUSH1 0xF8 AND SHR NOT AND SWAP1 SSTORE CODESIZE DUP1 DUP1 PUSH2 0x153B JUMP JUMPDEST DUP5 DUP7 ADD MLOAD DUP8 SSTORE PUSH1 0xA0 MLOAD SWAP1 SWAP7 ADD SWAP6 SWAP5 DUP6 ADD SWAP5 DUP8 SWAP4 POP ADD PUSH2 0x152B JUMP JUMPDEST ADD MLOAD SWAP1 POP CODESIZE DUP1 PUSH2 0x1280 JUMP JUMPDEST PUSH1 0xC0 DUP1 MLOAD DUP7 SWAP1 MSTORE MLOAD DUP12 DUP2 KECCAK256 SWAP4 POP DUP5 SWAP1 PUSH1 0x1F NOT DUP3 AND SWAP1 JUMPDEST DUP14 DUP3 DUP3 LT PUSH2 0x15DC JUMPI POP POP LT PUSH2 0x15C4 JUMPI JUMPDEST POP POP POP PUSH1 0xA0 MLOAD SWAP1 PUSH1 0xA0 MLOAD SHL ADD SWAP1 SSTORE PUSH2 0x1295 JUMP JUMPDEST ADD MLOAD PUSH1 0x0 NOT DUP4 DUP9 SHL PUSH1 0xF8 AND SHR NOT AND SWAP1 SSTORE CODESIZE DUP1 DUP1 PUSH2 0x15B1 JUMP JUMPDEST DUP5 DUP7 ADD MLOAD DUP8 SSTORE PUSH1 0xA0 MLOAD SWAP1 SWAP7 ADD SWAP6 SWAP5 DUP6 ADD SWAP5 DUP8 SWAP4 POP ADD PUSH2 0x15A1 JUMP JUMPDEST ADD MLOAD SWAP1 POP CODESIZE DUP1 PUSH2 0x1233 JUMP JUMPDEST PUSH1 0xC0 DUP1 MLOAD DUP7 SWAP1 MSTORE MLOAD DUP12 DUP2 KECCAK256 SWAP4 POP DUP5 SWAP1 PUSH1 0x1F NOT DUP3 AND SWAP1 JUMPDEST DUP14 DUP3 DUP3 LT PUSH2 0x1652 JUMPI POP POP LT PUSH2 0x163A JUMPI JUMPDEST POP POP POP PUSH1 0xA0 MLOAD SWAP1 PUSH1 0xA0 MLOAD SHL ADD SWAP1 SSTORE PUSH2 0x1248 JUMP JUMPDEST ADD MLOAD PUSH1 0x0 NOT DUP4 DUP9 SHL PUSH1 0xF8 AND SHR NOT AND SWAP1 SSTORE CODESIZE DUP1 DUP1 PUSH2 0x1627 JUMP JUMPDEST DUP5 DUP7 ADD MLOAD DUP8 SSTORE PUSH1 0xA0 MLOAD SWAP1 SWAP7 ADD SWAP6 SWAP5 DUP6 ADD SWAP5 DUP8 SWAP4 POP ADD PUSH2 0x1617 JUMP JUMPDEST ADD MLOAD SWAP1 POP CODESIZE DUP1 PUSH2 0x11E2 JUMP JUMPDEST PUSH1 0xC0 DUP1 MLOAD DUP7 SWAP1 MSTORE MLOAD DUP11 DUP2 KECCAK256 SWAP4 POP PUSH1 0x1F NOT DUP6 AND SWAP1 JUMPDEST DUP12 DUP3 DUP3 LT PUSH2 0x16C8 JUMPI POP POP SWAP1 DUP5 PUSH1 0x1 SWAP6 SWAP5 SWAP4 SWAP3 LT PUSH2 0x16B0 JUMPI JUMPDEST POP POP POP DUP2 SHL ADD DUP2 SSTORE PUSH2 0x11F6 JUMP JUMPDEST ADD MLOAD PUSH1 0x0 NOT DUP4 DUP9 SHL PUSH1 0xF8 AND SHR NOT AND SWAP1 SSTORE CODESIZE DUP1 DUP1 PUSH2 0x16A3 JUMP JUMPDEST PUSH1 0x1 DUP6 SWAP7 DUP3 SWAP4 SWAP7 DUP7 ADD MLOAD DUP2 SSTORE ADD SWAP6 ADD SWAP4 ADD PUSH2 0x168B JUMP JUMPDEST DUP6 PUSH1 0x41 DUP5 PUSH4 0x4E487B71 PUSH1 0xE0 SHL PUSH1 0xC0 MLOAD MSTORE MSTORE PUSH1 0xC0 MLOAD REVERT JUMPDEST PUSH1 0x40 MLOAD PUSH3 0x461BCD PUSH1 0xE5 SHL DUP2 MSTORE DUP1 DUP8 ADD DUP5 SWAP1 MSTORE PUSH1 0x2D DUP2 DUP5 ADD MSTORE PUSH32 0x43616E6E6F7420757064617465206D65746164617461206469726563746C7920 PUSH1 0x44 DUP3 ADD MSTORE PUSH13 0x61667465722072656C65617365 PUSH1 0x98 SHL PUSH1 0x64 DUP3 ADD MSTORE PUSH1 0x84 SWAP1 REVERT JUMPDEST PUSH2 0x176D SWAP2 POP DUP5 RETURNDATASIZE DUP7 GT PUSH2 0x1773 JUMPI JUMPDEST PUSH2 0x1765 DUP2 DUP4 PUSH2 0x29BB JUMP JUMPDEST DUP2 ADD SWAP1 PUSH2 0x2D0F JUMP JUMPDEST CODESIZE PUSH2 0x1178 JUMP JUMPDEST POP RETURNDATASIZE PUSH2 0x175B JUMP JUMPDEST PUSH1 0x40 MLOAD PUSH3 0x461BCD PUSH1 0xE5 SHL DUP2 MSTORE DUP1 DUP7 ADD DUP4 SWAP1 MSTORE PUSH1 0x29 PUSH1 0x24 DUP3 ADD MSTORE PUSH32 0x4F6E6C79207772617070656420736F6E67206F7220697473206F776E65722063 PUSH1 0x44 DUP3 ADD MSTORE PUSH9 0x616E20757064617465 PUSH1 0xB8 SHL PUSH1 0x64 DUP3 ADD MSTORE PUSH1 0x84 SWAP1 REVERT JUMPDEST POP DUP1 PUSH1 0x2 SLOAD AND CALLER EQ PUSH2 0x113E JUMP JUMPDEST PUSH2 0x17F4 SWAP2 POP DUP4 RETURNDATASIZE DUP6 GT PUSH2 0x49E JUMPI PUSH2 0x48F DUP2 DUP4 PUSH2 0x29BB JUMP JUMPDEST CODESIZE PUSH2 0x1132 JUMP JUMPDEST CALLVALUE PUSH2 0x187 JUMPI PUSH1 0xC0 MLOAD CALLDATASIZE PUSH1 0x3 NOT ADD SLT PUSH2 0x187 JUMPI PUSH1 0x2 SLOAD PUSH1 0x40 MLOAD PUSH1 0x1 PUSH1 0x1 PUSH1 0xA0 SHL SUB SWAP1 SWAP2 AND DUP2 MSTORE PUSH1 0x20 SWAP1 RETURN JUMPDEST POP CALLVALUE PUSH2 0x187 JUMPI PUSH2 0x1833 CALLDATASIZE PUSH2 0x2A3E JUMP JUMPDEST PUSH2 0x183F PUSH2 0x1189 DUP3 PUSH2 0x2C58 JUMP JUMPDEST PUSH1 0x40 MLOAD PUSH4 0x8DA5CB5B PUSH1 0xE0 SHL DUP2 MSTORE PUSH1 0x1 PUSH1 0x1 PUSH1 0xA0 SHL SUB SWAP3 DUP4 AND SWAP3 PUSH1 0x20 SWAP2 DUP3 DUP2 DUP8 DUP2 DUP9 GAS STATICCALL SWAP1 DUP2 ISZERO PUSH2 0x469 JUMPI PUSH1 0xC0 MLOAD SWAP2 PUSH2 0x21A1 JUMPI JUMPDEST POP DUP2 CALLER SWAP2 AND SUB PUSH2 0x214A JUMPI PUSH1 0x3 DUP1 SLOAD PUSH1 0x40 MLOAD PUSH4 0x6F87189 PUSH1 0xE3 SHL DUP2 MSTORE DUP8 DUP2 ADD DUP8 SWAP1 MSTORE PUSH1 0x24 SWAP4 SWAP2 DUP6 SWAP1 DUP3 SWAP1 DUP7 SWAP1 DUP3 SWAP1 DUP7 AND GAS STATICCALL SWAP1 DUP2 ISZERO PUSH2 0x469 JUMPI PUSH1 0xC0 MLOAD SWAP2 PUSH2 0x212D JUMPI JUMPDEST POP ISZERO PUSH2 0x20D6 JUMPI DUP7 SLOAD PUSH1 0x40 MLOAD PUSH4 0x74816E37 PUSH1 0xE0 SHL DUP2 MSTORE SWAP2 SWAP1 DUP2 AND DUP6 DUP4 DUP11 DUP2 DUP5 GAS STATICCALL SWAP3 DUP4 ISZERO PUSH2 0x469 JUMPI PUSH1 0xC0 MLOAD SWAP4 PUSH2 0x20A7 JUMPI JUMPDEST POP PUSH1 0x40 MLOAD PUSH4 0xD579E3F3 PUSH1 0xE0 SHL DUP2 MSTORE DUP7 DUP2 DUP12 DUP2 DUP6 GAS STATICCALL SWAP2 DUP3 ISZERO PUSH2 0x469 JUMPI DUP11 SWAP3 DUP9 SWAP3 PUSH1 0xC0 MLOAD SWAP2 PUSH2 0x208A JUMPI JUMPDEST POP DUP6 ISZERO DUP1 ISZERO SWAP2 SWAP1 PUSH2 0x207E JUMPI ISZERO PUSH2 0x1FF3 JUMPI POP PUSH1 0x40 MLOAD PUSH4 0x37A0A9E9 PUSH1 0xE1 SHL DUP2 MSTORE SWAP3 DUP4 SWAP2 DUP3 SWAP1 GAS STATICCALL SWAP1 DUP2 ISZERO PUSH2 0x469 JUMPI PUSH1 0xC0 MLOAD SWAP2 PUSH2 0x1FC6 JUMPI JUMPDEST POP DUP6 DUP3 PUSH1 0x5 SLOAD AND SWAP2 DUP7 DUP12 PUSH1 0x40 MLOAD SWAP5 DUP6 SWAP4 DUP5 SWAP3 PUSH4 0x7C70C0A3 PUSH1 0xE0 SHL DUP5 MSTORE DUP4 ADD MSTORE GAS STATICCALL SWAP1 DUP2 ISZERO PUSH2 0x469 JUMPI PUSH1 0xC0 MLOAD SWAP2 PUSH2 0x1FA9 JUMPI JUMPDEST POP AND SWAP1 DUP2 ISZERO PUSH2 0x1F5A JUMPI PUSH1 0x40 MLOAD PUSH4 0x23B872DD PUSH1 0xE0 SHL DUP7 DUP3 ADD MSTORE CALLER DUP6 DUP3 ADD MSTORE ADDRESS PUSH1 0x44 DUP3 ADD MSTORE PUSH1 0x64 DUP1 DUP3 ADD DUP4 SWAP1 MSTORE DUP2 MSTORE PUSH1 0xA0 DUP2 ADD PUSH1 0x1 PUSH1 0x1 PUSH1 0x40 SHL SUB DUP2 GT DUP3 DUP3 LT OR PUSH2 0x1F46 JUMPI PUSH1 0x40 MSTORE PUSH2 0x19C2 SWAP1 DUP4 PUSH2 0x2F53 JUMP JUMPDEST DUP2 PUSH1 0xC0 MLOAD MSTORE PUSH1 0x9 DUP6 MSTORE PUSH1 0x40 PUSH1 0xC0 MLOAD KECCAK256 DUP1 SLOAD SWAP1 DUP3 DUP3 ADD DUP1 SWAP3 GT PUSH2 0x1F32 JUMPI SSTORE PUSH1 0x40 MLOAD SWAP1 DUP2 MSTORE PUSH32 0x785BFD9070B1FA5B19BFA2AC4637328DF950F5E0ADAFE5873360DE4E23B6D8A0 DUP6 CALLER SWAP3 LOG3 JUMPDEST DUP5 PUSH1 0xC0 MLOAD MSTORE PUSH1 0x7 DUP4 MSTORE PUSH1 0x40 PUSH1 0xC0 MLOAD KECCAK256 SWAP1 DUP5 MLOAD SWAP7 DUP8 MLOAD SWAP3 PUSH1 0x1 PUSH1 0x1 PUSH1 0x40 SHL SUB SWAP4 DUP5 DUP2 GT PUSH2 0x16DE JUMPI PUSH2 0x1A3F DUP2 PUSH2 0x11C2 DUP5 SLOAD PUSH2 0x2BC0 JUMP JUMPDEST PUSH1 0x1F SWAP10 DUP2 SWAP1 DUP9 SWAP1 PUSH1 0x1 DUP14 DUP5 GT EQ PUSH2 0x1ECB JUMPI PUSH1 0xC0 MLOAD SWAP3 PUSH2 0x1EC0 JUMPI JUMPDEST POP POP DUP2 PUSH1 0x1 SHL SWAP2 PUSH1 0x0 NOT SWAP1 DUP7 SHL SHR NOT AND OR DUP2 SSTORE JUMPDEST PUSH1 0x1 PUSH1 0x80 MSTORE PUSH1 0x80 MLOAD DUP2 ADD DUP7 DUP9 ADD MLOAD DUP1 MLOAD SWAP1 DUP7 DUP3 GT PUSH2 0x14F4 JUMPI DUP2 SWAP1 PUSH2 0x1A95 DUP3 PUSH2 0xAE2 DUP7 SLOAD PUSH2 0x2BC0 JUMP JUMPDEST DUP10 SWAP1 PUSH1 0x1 DUP15 DUP5 GT EQ PUSH2 0x1E55 JUMPI PUSH1 0xC0 MLOAD SWAP3 PUSH2 0x1E4A JUMPI JUMPDEST POP POP DUP2 PUSH1 0x80 MLOAD SHL SWAP2 PUSH1 0x0 NOT SWAP1 DUP8 SHL SHR NOT AND OR SWAP1 SSTORE JUMPDEST PUSH1 0x2 DUP2 ADD PUSH1 0x40 DUP9 ADD MLOAD DUP1 MLOAD SWAP1 DUP7 DUP3 GT PUSH2 0x14F4 JUMPI DUP2 SWAP1 PUSH2 0x1AE2 DUP3 PUSH2 0xAE2 DUP7 SLOAD PUSH2 0x2BC0 JUMP JUMPDEST DUP10 SWAP1 PUSH1 0x1 DUP15 DUP5 GT EQ PUSH2 0x1DDF JUMPI PUSH1 0xC0 MLOAD SWAP3 PUSH2 0x1DD4 JUMPI JUMPDEST POP POP DUP2 PUSH1 0x80 MLOAD SHL SWAP2 PUSH1 0x0 NOT SWAP1 DUP8 SHL SHR NOT AND OR SWAP1 SSTORE JUMPDEST DUP3 DUP2 ADD PUSH1 0x60 DUP9 ADD MLOAD DUP1 MLOAD SWAP1 DUP7 DUP3 GT PUSH2 0x14F4 JUMPI DUP2 SWAP1 PUSH2 0x1B2E DUP3 PUSH2 0xAE2 DUP7 SLOAD PUSH2 0x2BC0 JUMP JUMPDEST DUP10 SWAP1 PUSH1 0x1 DUP15 DUP5 GT EQ PUSH2 0x1D69 JUMPI PUSH1 0xC0 MLOAD SWAP3 PUSH2 0x1D5E JUMPI JUMPDEST POP POP DUP2 PUSH1 0x80 MLOAD SHL SWAP2 PUSH1 0x0 NOT SWAP1 DUP8 SHL SHR NOT AND OR SWAP1 SSTORE JUMPDEST DUP2 DUP2 ADD PUSH1 0x80 DUP9 ADD MLOAD DUP1 MLOAD SWAP1 DUP7 DUP3 GT PUSH2 0x14F4 JUMPI PUSH2 0x1B78 DUP3 PUSH2 0x1301 DUP6 SLOAD PUSH2 0x2BC0 JUMP JUMPDEST DUP9 SWAP1 PUSH1 0x1 DUP14 DUP5 GT EQ PUSH2 0x1CEC JUMPI SWAP2 DUP1 SWAP2 PUSH1 0x5 SWAP6 SWAP5 SWAP4 PUSH1 0xC0 MLOAD SWAP3 PUSH2 0x1CE1 JUMPI JUMPDEST POP POP DUP2 PUSH1 0x80 MLOAD SHL SWAP2 PUSH1 0x0 NOT SWAP1 DUP9 SHL SHR NOT AND OR SWAP1 SSTORE JUMPDEST ADD SWAP4 PUSH1 0xA0 DUP8 ADD MLOAD SWAP2 DUP3 MLOAD SWAP5 DUP6 GT PUSH2 0x1462 JUMPI POP POP PUSH2 0x1BCB DUP4 PUSH2 0xAE2 DUP7 SLOAD PUSH2 0x2BC0 JUMP JUMPDEST PUSH1 0xC0 MLOAD POP DUP5 SWAP8 DUP4 GT PUSH1 0x1 EQ PUSH2 0x1C53 JUMPI SWAP1 PUSH32 0xCFA38AD22E928CEDE6A19793C7DA9BAD051DDD68EAABFC0A35500E381A60CB39 SWAP7 SWAP8 DUP4 SWAP3 PUSH1 0xC0 MLOAD SWAP4 PUSH2 0x1C48 JUMPI JUMPDEST POP POP DUP3 PUSH1 0x80 MLOAD SHL SWAP3 PUSH1 0x0 NOT SWAP2 SHL SHR NOT AND OR SWAP1 SSTORE JUMPDEST DUP4 PUSH1 0xC0 MLOAD MSTORE PUSH1 0x8 DUP2 MSTORE PUSH1 0x40 PUSH1 0xC0 MLOAD KECCAK256 PUSH1 0xFF NOT DUP2 SLOAD AND SWAP1 SSTORE PUSH2 0x13C0 PUSH1 0x40 MLOAD SWAP3 DUP3 DUP5 SWAP4 DUP5 MSTORE DUP4 ADD SWAP1 PUSH2 0x2909 JUMP JUMPDEST ADD MLOAD SWAP2 POP CODESIZE DUP1 PUSH2 0x1C09 JUMP JUMPDEST SWAP1 PUSH1 0x1F NOT DUP4 AND SWAP8 DUP5 PUSH1 0xC0 MLOAD MSTORE DUP6 PUSH1 0xC0 MLOAD KECCAK256 SWAP3 PUSH1 0xC0 MLOAD JUMPDEST DUP11 DUP2 LT PUSH2 0x1CC9 JUMPI POP DUP5 PUSH32 0xCFA38AD22E928CEDE6A19793C7DA9BAD051DDD68EAABFC0A35500E381A60CB39 SWAP10 SWAP11 LT PUSH2 0x1CAF JUMPI JUMPDEST POP POP POP POP PUSH1 0x80 MLOAD SWAP1 PUSH1 0x80 MLOAD SHL ADD SWAP1 SSTORE PUSH2 0x1C1D JUMP JUMPDEST ADD MLOAD SWAP1 PUSH1 0xF8 DUP5 PUSH1 0x0 NOT SWAP3 SHL AND SHR NOT AND SWAP1 SSTORE CODESIZE DUP1 DUP1 DUP1 PUSH2 0x1C9B JUMP JUMPDEST SWAP2 SWAP4 DUP8 DUP1 SWAP2 DUP7 DUP5 ADD MLOAD DUP2 SSTORE PUSH1 0x80 MLOAD ADD SWAP6 ADD SWAP3 ADD PUSH2 0x1C69 JUMP JUMPDEST ADD MLOAD SWAP1 POP CODESIZE DUP1 PUSH2 0x1B95 JUMP JUMPDEST SWAP1 PUSH1 0x1F NOT DUP4 AND SWAP2 DUP5 PUSH1 0xC0 MLOAD MSTORE DUP11 PUSH1 0xC0 MLOAD KECCAK256 SWAP3 PUSH1 0xC0 MLOAD JUMPDEST DUP13 DUP3 DUP3 LT PUSH2 0x1D47 JUMPI POP POP SWAP1 DUP5 PUSH1 0x5 SWAP8 SWAP7 SWAP6 SWAP5 SWAP4 SWAP3 LT PUSH2 0x1D2F JUMPI JUMPDEST POP POP POP PUSH1 0x80 MLOAD SWAP1 PUSH1 0x80 MLOAD SHL ADD SWAP1 SSTORE PUSH2 0x1BAA JUMP JUMPDEST ADD MLOAD PUSH1 0x0 NOT DUP4 DUP10 SHL PUSH1 0xF8 AND SHR NOT AND SWAP1 SSTORE CODESIZE DUP1 DUP1 PUSH2 0x1D1C JUMP JUMPDEST DUP5 SWAP6 DUP2 SWAP3 SWAP6 DUP6 ADD MLOAD DUP2 SSTORE PUSH1 0x80 MLOAD ADD SWAP6 ADD SWAP4 ADD PUSH2 0x1D02 JUMP JUMPDEST ADD MLOAD SWAP1 POP CODESIZE DUP1 PUSH2 0x1B43 JUMP JUMPDEST PUSH1 0xC0 DUP1 MLOAD DUP7 SWAP1 MSTORE MLOAD DUP12 DUP2 KECCAK256 SWAP4 POP DUP5 SWAP1 PUSH1 0x1F NOT DUP3 AND SWAP1 JUMPDEST DUP14 DUP3 DUP3 LT PUSH2 0x1DBA JUMPI POP POP LT PUSH2 0x1DA2 JUMPI JUMPDEST POP POP POP PUSH1 0x80 MLOAD SWAP1 PUSH1 0x80 MLOAD SHL ADD SWAP1 SSTORE PUSH2 0x1B58 JUMP JUMPDEST ADD MLOAD PUSH1 0x0 NOT DUP4 DUP9 SHL PUSH1 0xF8 AND SHR NOT AND SWAP1 SSTORE CODESIZE DUP1 DUP1 PUSH2 0x1D8F JUMP JUMPDEST DUP5 DUP7 ADD MLOAD DUP8 SSTORE PUSH1 0x80 MLOAD SWAP1 SWAP7 ADD SWAP6 SWAP5 DUP6 ADD SWAP5 DUP8 SWAP4 POP ADD PUSH2 0x1D7F JUMP JUMPDEST ADD MLOAD SWAP1 POP CODESIZE DUP1 PUSH2 0x1AF7 JUMP JUMPDEST PUSH1 0xC0 DUP1 MLOAD DUP7 SWAP1 MSTORE MLOAD DUP12 DUP2 KECCAK256 SWAP4 POP DUP5 SWAP1 PUSH1 0x1F NOT DUP3 AND SWAP1 JUMPDEST DUP14 DUP3 DUP3 LT PUSH2 0x1E30 JUMPI POP POP LT PUSH2 0x1E18 JUMPI JUMPDEST POP POP POP PUSH1 0x80 MLOAD SWAP1 PUSH1 0x80 MLOAD SHL ADD SWAP1 SSTORE PUSH2 0x1B0C JUMP JUMPDEST ADD MLOAD PUSH1 0x0 NOT DUP4 DUP9 SHL PUSH1 0xF8 AND SHR NOT AND SWAP1 SSTORE CODESIZE DUP1 DUP1 PUSH2 0x1E05 JUMP JUMPDEST DUP5 DUP7 ADD MLOAD DUP8 SSTORE PUSH1 0x80 MLOAD SWAP1 SWAP7 ADD SWAP6 SWAP5 DUP6 ADD SWAP5 DUP8 SWAP4 POP ADD PUSH2 0x1DF5 JUMP JUMPDEST ADD MLOAD SWAP1 POP CODESIZE DUP1 PUSH2 0x1AAA JUMP JUMPDEST PUSH1 0xC0 DUP1 MLOAD DUP7 SWAP1 MSTORE MLOAD DUP12 DUP2 KECCAK256 SWAP4 POP DUP5 SWAP1 PUSH1 0x1F NOT DUP3 AND SWAP1 JUMPDEST DUP14 DUP3 DUP3 LT PUSH2 0x1EA6 JUMPI POP POP LT PUSH2 0x1E8E JUMPI JUMPDEST POP POP POP PUSH1 0x80 MLOAD SWAP1 PUSH1 0x80 MLOAD SHL ADD SWAP1 SSTORE PUSH2 0x1ABF JUMP JUMPDEST ADD MLOAD PUSH1 0x0 NOT DUP4 DUP9 SHL PUSH1 0xF8 AND SHR NOT AND SWAP1 SSTORE CODESIZE DUP1 DUP1 PUSH2 0x1E7B JUMP JUMPDEST DUP5 DUP7 ADD MLOAD DUP8 SSTORE PUSH1 0x80 MLOAD SWAP1 SWAP7 ADD SWAP6 SWAP5 DUP6 ADD SWAP5 DUP8 SWAP4 POP ADD PUSH2 0x1E6B JUMP JUMPDEST ADD MLOAD SWAP1 POP CODESIZE DUP1 PUSH2 0x1A59 JUMP JUMPDEST PUSH1 0xC0 DUP1 MLOAD DUP7 SWAP1 MSTORE MLOAD DUP11 DUP2 KECCAK256 SWAP4 POP PUSH1 0x1F NOT DUP6 AND SWAP1 JUMPDEST DUP12 DUP3 DUP3 LT PUSH2 0x1F1C JUMPI POP POP SWAP1 DUP5 PUSH1 0x1 SWAP6 SWAP5 SWAP4 SWAP3 LT PUSH2 0x1F04 JUMPI JUMPDEST POP POP POP DUP2 SHL ADD DUP2 SSTORE PUSH2 0x1A6D JUMP JUMPDEST ADD MLOAD PUSH1 0x0 NOT DUP4 DUP9 SHL PUSH1 0xF8 AND SHR NOT AND SWAP1 SSTORE CODESIZE DUP1 DUP1 PUSH2 0x1EF7 JUMP JUMPDEST PUSH1 0x1 DUP6 SWAP7 DUP3 SWAP4 SWAP7 DUP7 ADD MLOAD DUP2 SSTORE ADD SWAP6 ADD SWAP4 ADD PUSH2 0x1EDF JUMP JUMPDEST DUP6 PUSH1 0x11 DUP12 PUSH4 0x4E487B71 PUSH1 0xE0 SHL PUSH1 0x0 MSTORE MSTORE PUSH1 0x0 REVERT JUMPDEST DUP6 PUSH1 0x41 DUP12 PUSH4 0x4E487B71 PUSH1 0xE0 SHL PUSH1 0x0 MSTORE MSTORE PUSH1 0x0 REVERT JUMPDEST PUSH1 0x40 MLOAD PUSH3 0x461BCD PUSH1 0xE5 SHL DUP2 MSTORE DUP1 DUP10 ADD DUP7 SWAP1 MSTORE PUSH1 0x23 DUP2 DUP7 ADD MSTORE PUSH32 0x4E6F2077686974656C697374656420737461626C65636F696E20617661696C61 PUSH1 0x44 DUP3 ADD MSTORE PUSH3 0x626C65 PUSH1 0xE8 SHL PUSH1 0x64 DUP3 ADD MSTORE PUSH1 0x84 SWAP1 REVERT JUMPDEST PUSH2 0x1FC0 SWAP2 POP DUP7 RETURNDATASIZE DUP9 GT PUSH2 0x49E JUMPI PUSH2 0x48F DUP2 DUP4 PUSH2 0x29BB JUMP JUMPDEST CODESIZE PUSH2 0x1972 JUMP JUMPDEST SWAP1 POP DUP6 DUP2 DUP2 RETURNDATASIZE DUP4 GT PUSH2 0x1FEC JUMPI JUMPDEST PUSH2 0x1FDD DUP2 DUP4 PUSH2 0x29BB JUMP JUMPDEST DUP2 ADD SUB SLT PUSH2 0x187 JUMPI MLOAD CODESIZE PUSH2 0x1941 JUMP JUMPDEST POP RETURNDATASIZE PUSH2 0x1FD3 JUMP JUMPDEST SWAP5 POP POP POP POP POP PUSH2 0x203B JUMPI PUSH1 0xC0 MLOAD DUP1 MSTORE PUSH1 0x9 DUP4 MSTORE PUSH1 0x40 MLOAD PUSH1 0x0 DUP1 DUP3 MSTORE SWAP1 CALLER SWAP1 PUSH32 0x785BFD9070B1FA5B19BFA2AC4637328DF950F5E0ADAFE5873360DE4E23B6D8A0 SWAP1 DUP7 SWAP1 LOG3 PUSH2 0x1A0B JUMP JUMPDEST PUSH1 0x40 MLOAD PUSH3 0x461BCD PUSH1 0xE5 SHL DUP2 MSTORE DUP1 DUP8 ADD DUP5 SWAP1 MSTORE PUSH1 0x18 DUP2 DUP5 ADD MSTORE PUSH32 0x496E636F7272656374204554482066656520616D6F756E740000000000000000 PUSH1 0x44 DUP3 ADD MSTORE PUSH1 0x64 SWAP1 REVERT JUMPDEST POP POP POP POP POP POP POP PUSH2 0x1A0B JUMP JUMPDEST PUSH2 0x20A1 SWAP2 POP DUP4 RETURNDATASIZE DUP6 GT PUSH2 0x1773 JUMPI PUSH2 0x1765 DUP2 DUP4 PUSH2 0x29BB JUMP JUMPDEST CODESIZE PUSH2 0x190C JUMP JUMPDEST SWAP1 SWAP3 POP DUP6 DUP2 DUP2 RETURNDATASIZE DUP4 GT PUSH2 0x20CF JUMPI JUMPDEST PUSH2 0x20BF DUP2 DUP4 PUSH2 0x29BB JUMP JUMPDEST DUP2 ADD SUB SLT PUSH2 0x187 JUMPI MLOAD SWAP2 CODESIZE PUSH2 0x18E3 JUMP JUMPDEST POP RETURNDATASIZE PUSH2 0x20B5 JUMP JUMPDEST PUSH1 0x40 MLOAD PUSH3 0x461BCD PUSH1 0xE5 SHL DUP2 MSTORE DUP1 DUP9 ADD DUP6 SWAP1 MSTORE PUSH1 0x2B DUP2 DUP6 ADD MSTORE PUSH32 0x536F6E67206E6F742072656C65617365642C20757064617465206D6574616461 PUSH1 0x44 DUP3 ADD MSTORE PUSH11 0x7461206469726563746C79 PUSH1 0xA8 SHL PUSH1 0x64 DUP3 ADD MSTORE PUSH1 0x84 SWAP1 REVERT JUMPDEST PUSH2 0x2144 SWAP2 POP DUP6 RETURNDATASIZE DUP8 GT PUSH2 0x1773 JUMPI PUSH2 0x1765 DUP2 DUP4 PUSH2 0x29BB JUMP JUMPDEST CODESIZE PUSH2 0x18B3 JUMP JUMPDEST PUSH1 0x40 MLOAD PUSH3 0x461BCD PUSH1 0xE5 SHL DUP2 MSTORE DUP1 DUP7 ADD DUP4 SWAP1 MSTORE PUSH1 0x2A PUSH1 0x24 DUP3 ADD MSTORE PUSH32 0x4F6E6C79207772617070656420736F6E67206F776E65722063616E2072657175 PUSH1 0x44 DUP3 ADD MSTORE PUSH10 0x65737420757064617465 PUSH1 0xB0 SHL PUSH1 0x64 DUP3 ADD MSTORE PUSH1 0x84 SWAP1 REVERT JUMPDEST PUSH2 0x21B8 SWAP2 POP DUP4 RETURNDATASIZE DUP6 GT PUSH2 0x49E JUMPI PUSH2 0x48F DUP2 DUP4 PUSH2 0x29BB JUMP JUMPDEST CODESIZE PUSH2 0x1872 JUMP JUMPDEST POP CALLVALUE PUSH2 0x187 JUMPI PUSH1 0x40 CALLDATASIZE PUSH1 0x3 NOT ADD SLT PUSH2 0x187 JUMPI PUSH2 0x21D8 PUSH2 0x28A6 JUMP JUMPDEST PUSH1 0x1 PUSH1 0x1 PUSH1 0xA0 SHL SUB PUSH1 0x24 CALLDATALOAD DUP2 DUP2 AND SWAP4 SWAP3 SWAP1 DUP5 SWAP1 SUB PUSH2 0x187 JUMPI PUSH2 0x21F8 PUSH2 0x2B44 JUMP JUMPDEST PUSH1 0x2 PUSH1 0x1 SLOAD EQ PUSH2 0x2369 JUMPI PUSH1 0x2 PUSH1 0x1 SSTORE AND SWAP1 DUP2 PUSH1 0xC0 MLOAD MSTORE PUSH1 0x20 SWAP1 PUSH1 0x9 DUP3 MSTORE PUSH1 0x40 PUSH1 0xC0 MLOAD KECCAK256 SLOAD SWAP1 DUP2 ISZERO PUSH2 0x232F JUMPI PUSH1 0xC0 DUP1 MLOAD DUP6 SWAP1 MSTORE PUSH1 0x9 DUP5 MSTORE MLOAD PUSH1 0x40 DUP2 KECCAK256 SSTORE DUP4 PUSH2 0x22C1 JUMPI PUSH1 0xC0 MLOAD DUP1 DUP1 DUP1 DUP6 DUP10 GAS CALL PUSH2 0x224B PUSH2 0x2F23 JUMP JUMPDEST POP ISZERO PUSH2 0x2287 JUMPI POP SWAP1 PUSH32 0x5E110F8BC8A20B65DCC87F224BDF1CC039346E267118BAE2739847F07321FFA8 SWAP2 JUMPDEST PUSH1 0x40 MLOAD SWAP1 DUP2 MSTORE LOG3 PUSH1 0x1 DUP1 SSTORE PUSH1 0xC0 MLOAD DUP1 RETURN JUMPDEST PUSH1 0x40 MLOAD PUSH3 0x461BCD PUSH1 0xE5 SHL DUP2 MSTORE SWAP1 DUP2 ADD DUP4 SWAP1 MSTORE PUSH1 0x13 PUSH1 0x24 DUP3 ADD MSTORE PUSH19 0x115512081D1C985B9CD9995C8819985A5B1959 PUSH1 0x6A SHL PUSH1 0x44 DUP3 ADD MSTORE PUSH1 0x64 SWAP1 REVERT JUMPDEST PUSH1 0x40 MLOAD SWAP1 PUSH4 0xA9059CBB PUSH1 0xE0 SHL DUP5 DUP4 ADD MSTORE DUP6 PUSH1 0x24 DUP4 ADD MSTORE DUP3 PUSH1 0x44 DUP4 ADD MSTORE PUSH1 0x44 DUP3 MSTORE PUSH1 0x80 DUP3 ADD SWAP1 DUP3 DUP3 LT PUSH1 0x1 PUSH1 0x1 PUSH1 0x40 SHL SUB DUP4 GT OR PUSH2 0xD6E JUMPI POP PUSH32 0x5E110F8BC8A20B65DCC87F224BDF1CC039346E267118BAE2739847F07321FFA8 SWAP4 SWAP3 SWAP2 PUSH2 0x232A SWAP2 PUSH1 0x40 MSTORE DUP6 PUSH2 0x2F53 JUMP JUMPDEST PUSH2 0x2276 JUMP JUMPDEST PUSH1 0x40 MLOAD PUSH3 0x461BCD PUSH1 0xE5 SHL DUP2 MSTORE SWAP1 DUP2 ADD DUP4 SWAP1 MSTORE PUSH1 0x13 PUSH1 0x24 DUP3 ADD MSTORE PUSH19 0x4E6F206665657320746F207769746864726177 PUSH1 0x68 SHL PUSH1 0x44 DUP3 ADD MSTORE PUSH1 0x64 SWAP1 REVERT JUMPDEST PUSH1 0x40 MLOAD PUSH4 0x3EE5AEB5 PUSH1 0xE0 SHL DUP2 MSTORE DUP4 SWAP1 REVERT JUMPDEST POP CALLVALUE PUSH2 0x187 JUMPI PUSH1 0x20 CALLDATASIZE PUSH1 0x3 NOT ADD SLT PUSH2 0x187 JUMPI PUSH2 0x2C5 SWAP1 PUSH2 0x2398 PUSH2 0x28A6 JUMP JUMPDEST PUSH2 0x23A0 PUSH2 0x2B8F JUMP JUMPDEST POP PUSH1 0x1 DUP1 PUSH1 0xA0 SHL SUB AND PUSH1 0xC0 MLOAD MSTORE PUSH1 0x6 PUSH1 0x20 MSTORE PUSH1 0x5 PUSH2 0x2AC PUSH1 0x40 PUSH1 0xC0 MLOAD KECCAK256 PUSH2 0x235 PUSH2 0x297 PUSH1 0x40 MLOAD SWAP6 PUSH2 0x224 DUP8 PUSH2 0x298A JUMP JUMPDEST POP PUSH1 0x20 DUP1 PUSH1 0x3 NOT CALLDATASIZE ADD SLT PUSH2 0x187 JUMPI PUSH2 0x23E6 PUSH2 0x28A6 JUMP JUMPDEST PUSH1 0x3 SLOAD PUSH1 0x40 MLOAD PUSH4 0x3AA690E7 PUSH1 0xE0 SHL DUP2 MSTORE PUSH1 0x1 PUSH1 0x1 PUSH1 0xA0 SHL SUB SWAP3 DUP4 AND DUP2 DUP7 ADD DUP2 SWAP1 MSTORE SWAP5 SWAP3 SWAP2 DUP5 SWAP1 DUP3 SWAP1 PUSH1 0x24 SWAP1 DUP3 SWAP1 DUP7 AND GAS STATICCALL SWAP1 DUP2 ISZERO PUSH2 0x469 JUMPI DUP3 SWAP2 DUP6 SWAP2 PUSH1 0xC0 MLOAD SWAP2 PUSH2 0x2680 JUMPI JUMPDEST POP DUP5 PUSH1 0x40 MLOAD DUP1 SWAP5 DUP2 SWAP4 PUSH4 0x8DA5CB5B PUSH1 0xE0 SHL DUP4 MSTORE AND GAS STATICCALL SWAP1 DUP2 ISZERO PUSH2 0x469 JUMPI PUSH1 0xC0 MLOAD SWAP2 PUSH2 0x2663 JUMPI JUMPDEST POP AND CALLER SUB PUSH2 0x2615 JUMPI DUP3 PUSH1 0xC0 MLOAD MSTORE PUSH1 0x8 DUP3 MSTORE PUSH1 0xFF PUSH1 0x40 PUSH1 0xC0 MLOAD KECCAK256 SLOAD AND PUSH2 0x25D3 JUMPI PUSH32 0x4288F171F419B66095D6E026090ED813669EA5A62CFE4416A47E75549E478866 SWAP2 PUSH2 0x13C0 PUSH1 0xC0 SWAP3 DUP6 DUP5 MLOAD MSTORE PUSH1 0x7 DUP4 MSTORE PUSH1 0x40 DUP5 MLOAD KECCAK256 PUSH1 0x6 DUP5 MSTORE PUSH1 0x40 DUP6 MLOAD KECCAK256 DUP2 DUP2 SUB PUSH2 0x2575 JUMPI JUMPDEST POP POP DUP6 DUP5 MLOAD MSTORE PUSH1 0x7 DUP4 MSTORE PUSH2 0x24CD PUSH1 0x40 DUP6 MLOAD KECCAK256 PUSH2 0x2E48 JUMP JUMPDEST DUP6 DUP5 MLOAD MSTORE PUSH1 0x8 DUP4 MSTORE PUSH1 0x40 DUP5 MLOAD KECCAK256 PUSH1 0x1 PUSH1 0xFF NOT DUP3 SLOAD AND OR SWAP1 SSTORE PUSH1 0x6 DUP4 MSTORE PUSH1 0x5 PUSH1 0x40 DUP6 MLOAD KECCAK256 PUSH1 0x40 MLOAD SWAP6 DUP6 DUP8 SWAP7 DUP8 MSTORE DUP7 ADD MSTORE PUSH2 0x2565 PUSH2 0x250C PUSH1 0xE0 DUP8 ADD DUP4 PUSH2 0x2E8D JUMP JUMPDEST SWAP4 PUSH2 0x2553 PUSH2 0x2540 PUSH2 0x252D PUSH1 0x1F NOT SWAP8 DUP9 DUP12 DUP3 SUB ADD PUSH1 0x40 DUP13 ADD MSTORE PUSH1 0x1 DUP8 ADD PUSH2 0x2E8D JUMP JUMPDEST DUP8 DUP11 DUP3 SUB ADD PUSH1 0x60 DUP12 ADD MSTORE PUSH1 0x2 DUP7 ADD PUSH2 0x2E8D JUMP JUMPDEST DUP7 DUP10 DUP3 SUB ADD PUSH1 0x80 DUP11 ADD MSTORE PUSH1 0x3 DUP6 ADD PUSH2 0x2E8D JUMP JUMPDEST SWAP1 DUP6 DUP9 DUP4 SUB ADD PUSH1 0xA0 DUP10 ADD MSTORE DUP4 ADD PUSH2 0x2E8D JUMP JUMPDEST SWAP3 DUP6 DUP5 SUB ADD PUSH1 0xC0 DUP7 ADD MSTORE ADD PUSH2 0x2E8D JUMP JUMPDEST PUSH1 0x5 DUP1 DUP4 PUSH2 0x2586 PUSH2 0x25CC SWAP6 DUP6 PUSH2 0x2D27 JUMP JUMPDEST PUSH2 0x2596 PUSH1 0x1 DUP3 ADD PUSH1 0x1 DUP7 ADD PUSH2 0x2D27 JUMP JUMPDEST PUSH2 0x25A6 PUSH1 0x2 DUP3 ADD PUSH1 0x2 DUP7 ADD PUSH2 0x2D27 JUMP JUMPDEST PUSH2 0x25B6 PUSH1 0x3 DUP3 ADD PUSH1 0x3 DUP7 ADD PUSH2 0x2D27 JUMP JUMPDEST PUSH2 0x25C4 DUP7 DUP3 ADD DUP8 DUP7 ADD PUSH2 0x2D27 JUMP JUMPDEST ADD SWAP2 ADD PUSH2 0x2D27 JUMP JUMPDEST CODESIZE DUP1 PUSH2 0x24B6 JUMP JUMPDEST PUSH1 0x64 SWAP2 PUSH1 0x40 MLOAD SWAP2 PUSH3 0x461BCD PUSH1 0xE5 SHL DUP4 MSTORE DUP3 ADD MSTORE PUSH1 0x1A PUSH1 0x24 DUP3 ADD MSTORE PUSH32 0x4E6F2070656E64696E67206D6574616461746120757064617465000000000000 PUSH1 0x44 DUP3 ADD MSTORE REVERT JUMPDEST PUSH1 0x84 SWAP2 PUSH1 0x40 MLOAD SWAP2 PUSH3 0x461BCD PUSH1 0xE5 SHL DUP4 MSTORE DUP3 ADD MSTORE PUSH1 0x23 PUSH1 0x24 DUP3 ADD MSTORE PUSH32 0x4F6E6C79206469737472696275746F722063616E20636F6E6669726D20757064 PUSH1 0x44 DUP3 ADD MSTORE PUSH3 0x617465 PUSH1 0xE8 SHL PUSH1 0x64 DUP3 ADD MSTORE REVERT JUMPDEST PUSH2 0x267A SWAP2 POP DUP5 RETURNDATASIZE DUP7 GT PUSH2 0x49E JUMPI PUSH2 0x48F DUP2 DUP4 PUSH2 0x29BB JUMP JUMPDEST CODESIZE PUSH2 0x2451 JUMP JUMPDEST PUSH2 0x2697 SWAP2 POP DUP3 RETURNDATASIZE DUP5 GT PUSH2 0x49E JUMPI PUSH2 0x48F DUP2 DUP4 PUSH2 0x29BB JUMP JUMPDEST CODESIZE PUSH2 0x242B JUMP JUMPDEST SWAP1 POP CALLVALUE PUSH2 0x187 JUMPI PUSH1 0x40 CALLDATASIZE PUSH1 0x3 NOT ADD SLT PUSH2 0x187 JUMPI PUSH2 0x26B8 PUSH2 0x28A6 JUMP JUMPDEST SWAP2 PUSH1 0x24 CALLDATALOAD SWAP1 PUSH1 0x1 DUP1 PUSH1 0xA0 SHL SUB DUP1 SWAP5 AND SWAP3 DUP4 PUSH1 0xC0 MLOAD MSTORE PUSH1 0x20 SWAP4 PUSH1 0x6 DUP6 MSTORE PUSH1 0x5 PUSH2 0x276D PUSH1 0x40 PUSH1 0xC0 MLOAD KECCAK256 PUSH2 0x26E8 DUP6 PUSH2 0x298A JUMP JUMPDEST PUSH1 0x40 MLOAD PUSH2 0x26F9 DUP2 PUSH2 0x235 DUP2 DUP6 PUSH2 0x2E8D JUMP JUMPDEST DUP6 MSTORE PUSH1 0x40 MLOAD PUSH2 0x270F DUP2 PUSH2 0x235 DUP2 PUSH1 0x1 DUP7 ADD PUSH2 0x2E8D JUMP JUMPDEST DUP9 DUP7 ADD MSTORE PUSH1 0x40 MLOAD PUSH2 0x2727 DUP2 PUSH2 0x235 DUP2 PUSH1 0x2 DUP7 ADD PUSH2 0x2E8D JUMP JUMPDEST PUSH1 0x40 DUP7 ADD MSTORE PUSH1 0x40 MLOAD PUSH2 0x2740 DUP2 PUSH2 0x235 DUP2 PUSH1 0x3 DUP7 ADD PUSH2 0x2E8D JUMP JUMPDEST PUSH1 0x60 DUP7 ADD MSTORE PUSH1 0x40 MLOAD PUSH2 0x2758 DUP2 PUSH2 0x235 DUP2 DUP11 DUP7 ADD PUSH2 0x2E8D JUMP JUMPDEST PUSH1 0x80 DUP7 ADD MSTORE PUSH2 0x235 PUSH1 0x40 MLOAD DUP1 SWAP5 DUP2 SWAP4 ADD PUSH2 0x2E8D JUMP JUMPDEST PUSH1 0xA0 DUP4 ADD MSTORE PUSH1 0x3 DUP5 LT ISZERO PUSH2 0x2856 JUMPI PUSH2 0x27A3 PUSH1 0x60 SWAP7 PUSH1 0x2 SLOAD AND SWAP3 PUSH1 0x40 MLOAD SWAP8 DUP9 SWAP6 PUSH4 0x2FDA23B7 PUSH1 0xE0 SHL DUP8 MSTORE DUP7 ADD MSTORE PUSH1 0x64 DUP6 ADD SWAP1 PUSH2 0x2909 JUMP JUMPDEST SWAP4 PUSH1 0x24 DUP5 ADD MSTORE PUSH1 0x44 DUP4 ADD MSTORE DUP2 DUP1 PUSH1 0xC0 MLOAD SWAP5 SUB SWAP2 GAS STATICCALL SWAP2 DUP3 ISZERO PUSH2 0x469 JUMPI PUSH1 0xC0 MLOAD SWAP3 PUSH2 0x27DD JUMPI JUMPDEST POP PUSH2 0x2C5 PUSH1 0x40 MLOAD SWAP3 DUP3 DUP5 SWAP4 DUP5 MSTORE DUP4 ADD SWAP1 PUSH2 0x28E4 JUMP JUMPDEST SWAP1 SWAP2 POP RETURNDATASIZE DUP1 PUSH1 0xC0 MLOAD DUP4 RETURNDATACOPY PUSH2 0x27F1 DUP2 DUP4 PUSH2 0x29BB JUMP JUMPDEST DUP2 ADD SWAP1 DUP3 DUP2 DUP4 SUB SLT PUSH2 0x187 JUMPI DUP1 MLOAD SWAP1 PUSH1 0x1 PUSH1 0x1 PUSH1 0x40 SHL SUB DUP3 GT PUSH2 0x187 JUMPI ADD DUP2 PUSH1 0x1F DUP3 ADD SLT ISZERO PUSH2 0x187 JUMPI DUP1 MLOAD PUSH2 0x2825 DUP2 PUSH2 0x29DC JUMP JUMPDEST SWAP3 PUSH2 0x2833 PUSH1 0x40 MLOAD SWAP5 DUP6 PUSH2 0x29BB JUMP JUMPDEST DUP2 DUP5 MSTORE DUP5 DUP3 DUP5 ADD ADD GT PUSH2 0x187 JUMPI PUSH2 0x284F SWAP2 DUP5 DUP1 DUP6 ADD SWAP2 ADD PUSH2 0x28C1 JUMP JUMPDEST SWAP1 CODESIZE PUSH2 0x27C8 JUMP JUMPDEST PUSH1 0x40 MLOAD PUSH3 0x461BCD PUSH1 0xE5 SHL DUP2 MSTORE DUP1 DUP5 ADD DUP7 SWAP1 MSTORE PUSH1 0x24 DUP1 DUP3 ADD MSTORE PUSH32 0x496E76616C696420746F6B656E20494420666F72206D65746164617461206D6F PUSH1 0x44 DUP3 ADD MSTORE PUSH4 0x64756C65 PUSH1 0xE0 SHL PUSH1 0x64 DUP3 ADD MSTORE PUSH1 0x84 SWAP1 REVERT JUMPDEST PUSH1 0x4 CALLDATALOAD SWAP1 PUSH1 0x1 PUSH1 0x1 PUSH1 0xA0 SHL SUB DUP3 AND DUP3 SUB PUSH2 0x28BC JUMPI JUMP JUMPDEST PUSH1 0x0 DUP1 REVERT JUMPDEST PUSH1 0x0 JUMPDEST DUP4 DUP2 LT PUSH2 0x28D4 JUMPI POP POP PUSH1 0x0 SWAP2 ADD MSTORE JUMP JUMPDEST DUP2 DUP2 ADD MLOAD DUP4 DUP3 ADD MSTORE PUSH1 0x20 ADD PUSH2 0x28C4 JUMP JUMPDEST SWAP1 PUSH1 0x20 SWAP2 PUSH2 0x28FD DUP2 MLOAD DUP1 SWAP3 DUP2 DUP6 MSTORE DUP6 DUP1 DUP7 ADD SWAP2 ADD PUSH2 0x28C1 JUMP JUMPDEST PUSH1 0x1F ADD PUSH1 0x1F NOT AND ADD ADD SWAP1 JUMP JUMPDEST PUSH2 0x2987 SWAP2 PUSH1 0xA0 PUSH2 0x2976 PUSH2 0x2964 PUSH2 0x2952 PUSH2 0x2940 PUSH2 0x292E DUP8 MLOAD PUSH1 0xC0 DUP9 MSTORE PUSH1 0xC0 DUP9 ADD SWAP1 PUSH2 0x28E4 JUMP JUMPDEST PUSH1 0x20 DUP9 ADD MLOAD DUP8 DUP3 SUB PUSH1 0x20 DUP10 ADD MSTORE PUSH2 0x28E4 JUMP JUMPDEST PUSH1 0x40 DUP8 ADD MLOAD DUP7 DUP3 SUB PUSH1 0x40 DUP9 ADD MSTORE PUSH2 0x28E4 JUMP JUMPDEST PUSH1 0x60 DUP7 ADD MLOAD DUP6 DUP3 SUB PUSH1 0x60 DUP8 ADD MSTORE PUSH2 0x28E4 JUMP JUMPDEST PUSH1 0x80 DUP6 ADD MLOAD DUP5 DUP3 SUB PUSH1 0x80 DUP7 ADD MSTORE PUSH2 0x28E4 JUMP JUMPDEST SWAP3 ADD MLOAD SWAP1 PUSH1 0xA0 DUP2 DUP5 SUB SWAP2 ADD MSTORE PUSH2 0x28E4 JUMP JUMPDEST SWAP1 JUMP JUMPDEST PUSH1 0xC0 DUP2 ADD SWAP1 DUP2 LT PUSH1 0x1 PUSH1 0x1 PUSH1 0x40 SHL SUB DUP3 GT OR PUSH2 0x29A5 JUMPI PUSH1 0x40 MSTORE JUMP JUMPDEST PUSH4 0x4E487B71 PUSH1 0xE0 SHL PUSH1 0x0 MSTORE PUSH1 0x41 PUSH1 0x4 MSTORE PUSH1 0x24 PUSH1 0x0 REVERT JUMPDEST SWAP1 PUSH1 0x1F DUP1 NOT SWAP2 ADD AND DUP2 ADD SWAP1 DUP2 LT PUSH1 0x1 PUSH1 0x1 PUSH1 0x40 SHL SUB DUP3 GT OR PUSH2 0x29A5 JUMPI PUSH1 0x40 MSTORE JUMP JUMPDEST PUSH1 0x1 PUSH1 0x1 PUSH1 0x40 SHL SUB DUP2 GT PUSH2 0x29A5 JUMPI PUSH1 0x1F ADD PUSH1 0x1F NOT AND PUSH1 0x20 ADD SWAP1 JUMP JUMPDEST DUP2 PUSH1 0x1F DUP3 ADD SLT ISZERO PUSH2 0x28BC JUMPI DUP1 CALLDATALOAD SWAP1 PUSH2 0x2A0E DUP3 PUSH2 0x29DC JUMP JUMPDEST SWAP3 PUSH2 0x2A1C PUSH1 0x40 MLOAD SWAP5 DUP6 PUSH2 0x29BB JUMP JUMPDEST DUP3 DUP5 MSTORE PUSH1 0x20 DUP4 DUP4 ADD ADD GT PUSH2 0x28BC JUMPI DUP2 PUSH1 0x0 SWAP3 PUSH1 0x20 DUP1 SWAP4 ADD DUP4 DUP7 ADD CALLDATACOPY DUP4 ADD ADD MSTORE SWAP1 JUMP JUMPDEST SWAP1 PUSH1 0x3 NOT PUSH1 0x40 DUP2 DUP5 ADD SLT PUSH2 0x28BC JUMPI PUSH1 0x4 DUP1 CALLDATALOAD PUSH1 0x1 PUSH1 0x1 PUSH1 0xA0 SHL SUB DUP2 AND DUP2 SUB PUSH2 0x28BC JUMPI SWAP4 PUSH1 0x24 CALLDATALOAD SWAP2 PUSH1 0x1 PUSH1 0x1 PUSH1 0x40 SHL SUB SWAP4 DUP5 DUP5 GT PUSH2 0x28BC JUMPI PUSH1 0xC0 SWAP1 DUP5 DUP5 SUB ADD SLT PUSH2 0x28BC JUMPI PUSH1 0x40 MLOAD SWAP4 PUSH2 0x2A8E DUP6 PUSH2 0x298A JUMP JUMPDEST DUP4 DUP3 ADD CALLDATALOAD DUP2 DUP2 GT PUSH2 0x28BC JUMPI DUP4 DUP4 PUSH2 0x2AA7 SWAP3 DUP8 ADD ADD PUSH2 0x29F7 JUMP JUMPDEST DUP6 MSTORE PUSH1 0x24 DUP5 ADD CALLDATALOAD DUP2 DUP2 GT PUSH2 0x28BC JUMPI DUP4 DUP4 PUSH2 0x2AC3 SWAP3 DUP8 ADD ADD PUSH2 0x29F7 JUMP JUMPDEST PUSH1 0x20 DUP7 ADD MSTORE PUSH1 0x44 DUP5 ADD CALLDATALOAD DUP2 DUP2 GT PUSH2 0x28BC JUMPI DUP4 DUP4 PUSH2 0x2AE2 SWAP3 DUP8 ADD ADD PUSH2 0x29F7 JUMP JUMPDEST PUSH1 0x40 DUP7 ADD MSTORE PUSH1 0x64 DUP5 ADD CALLDATALOAD DUP2 DUP2 GT PUSH2 0x28BC JUMPI DUP4 DUP4 PUSH2 0x2B01 SWAP3 DUP8 ADD ADD PUSH2 0x29F7 JUMP JUMPDEST PUSH1 0x60 DUP7 ADD MSTORE PUSH1 0x84 DUP5 ADD CALLDATALOAD DUP2 DUP2 GT PUSH2 0x28BC JUMPI DUP4 DUP4 PUSH2 0x2B20 SWAP3 DUP8 ADD ADD PUSH2 0x29F7 JUMP JUMPDEST PUSH1 0x80 DUP7 ADD MSTORE PUSH1 0xA4 DUP5 ADD CALLDATALOAD SWAP1 DUP2 GT PUSH2 0x28BC JUMPI PUSH2 0x2B3C SWAP4 ADD ADD PUSH2 0x29F7 JUMP JUMPDEST PUSH1 0xA0 DUP3 ADD MSTORE SWAP1 JUMP JUMPDEST PUSH1 0x0 SLOAD PUSH1 0x1 PUSH1 0x1 PUSH1 0xA0 SHL SUB AND CALLER SUB PUSH2 0x2B58 JUMPI JUMP JUMPDEST PUSH1 0x40 MLOAD PUSH4 0x118CDAA7 PUSH1 0xE0 SHL DUP2 MSTORE CALLER PUSH1 0x4 DUP3 ADD MSTORE PUSH1 0x24 SWAP1 REVERT JUMPDEST SWAP1 DUP2 PUSH1 0x20 SWAP2 SUB SLT PUSH2 0x28BC JUMPI MLOAD PUSH1 0x1 PUSH1 0x1 PUSH1 0xA0 SHL SUB DUP2 AND DUP2 SUB PUSH2 0x28BC JUMPI SWAP1 JUMP JUMPDEST PUSH1 0x40 MLOAD SWAP1 PUSH2 0x2B9C DUP3 PUSH2 0x298A JUMP JUMPDEST DUP2 PUSH1 0xA0 PUSH1 0x60 SWAP2 DUP3 DUP2 MSTORE DUP3 PUSH1 0x20 DUP3 ADD MSTORE DUP3 PUSH1 0x40 DUP3 ADD MSTORE DUP3 DUP1 DUP3 ADD MSTORE DUP3 PUSH1 0x80 DUP3 ADD MSTORE ADD MSTORE JUMP JUMPDEST SWAP1 PUSH1 0x1 DUP3 DUP2 SHR SWAP3 AND DUP1 ISZERO PUSH2 0x2BF0 JUMPI JUMPDEST PUSH1 0x20 DUP4 LT EQ PUSH2 0x2BDA JUMPI JUMP JUMPDEST PUSH4 0x4E487B71 PUSH1 0xE0 SHL PUSH1 0x0 MSTORE PUSH1 0x22 PUSH1 0x4 MSTORE PUSH1 0x24 PUSH1 0x0 REVERT JUMPDEST SWAP2 PUSH1 0x7F AND SWAP2 PUSH2 0x2BCF JUMP JUMPDEST DUP2 DUP2 LT PUSH2 0x2C05 JUMPI POP POP JUMP JUMPDEST PUSH1 0x0 DUP2 SSTORE PUSH1 0x1 ADD PUSH2 0x2BFA JUMP JUMPDEST SWAP2 SWAP1 PUSH1 0x1F DUP2 GT PUSH2 0x2C20 JUMPI POP POP POP JUMP JUMPDEST PUSH2 0x2C4C SWAP3 PUSH1 0x0 MSTORE PUSH1 0x20 PUSH1 0x0 KECCAK256 SWAP1 PUSH1 0x20 PUSH1 0x1F DUP5 ADD PUSH1 0x5 SHR DUP4 ADD SWAP4 LT PUSH2 0x2C4E JUMPI JUMPDEST PUSH1 0x1F ADD PUSH1 0x5 SHR ADD SWAP1 PUSH2 0x2BFA JUMP JUMPDEST JUMP JUMPDEST SWAP1 SWAP2 POP DUP2 SWAP1 PUSH2 0x2C3F JUMP JUMPDEST DUP1 MLOAD MLOAD ISZERO ISZERO SWAP1 DUP2 PUSH2 0x2C8E JUMPI JUMPDEST DUP2 PUSH2 0x2C7F JUMPI JUMPDEST DUP2 PUSH2 0x2C73 JUMPI POP SWAP1 JUMP JUMPDEST PUSH1 0xA0 SWAP2 POP ADD MLOAD MLOAD ISZERO ISZERO SWAP1 JUMP JUMPDEST PUSH1 0x80 DUP2 ADD MLOAD MLOAD ISZERO ISZERO SWAP2 POP PUSH2 0x2C6A JUMP JUMPDEST PUSH1 0x40 DUP2 ADD MLOAD MLOAD ISZERO ISZERO SWAP2 POP PUSH2 0x2C64 JUMP JUMPDEST ISZERO PUSH2 0x2CA4 JUMPI JUMP JUMPDEST PUSH1 0x40 MLOAD PUSH3 0x461BCD PUSH1 0xE5 SHL DUP2 MSTORE PUSH1 0x20 PUSH1 0x4 DUP3 ADD MSTORE PUSH1 0x37 PUSH1 0x24 DUP3 ADD MSTORE PUSH32 0x496E76616C6964206D657461646174613A20416C6C2072657175697265642066 PUSH1 0x44 DUP3 ADD MSTORE PUSH32 0x69656C6473206D757374206265206E6F6E2D656D707479000000000000000000 PUSH1 0x64 DUP3 ADD MSTORE PUSH1 0x84 SWAP1 REVERT JUMPDEST SWAP1 DUP2 PUSH1 0x20 SWAP2 SUB SLT PUSH2 0x28BC JUMPI MLOAD DUP1 ISZERO ISZERO DUP2 SUB PUSH2 0x28BC JUMPI SWAP1 JUMP JUMPDEST SWAP1 DUP1 DUP3 EQ PUSH2 0x2DFB JUMPI PUSH2 0x2D39 DUP2 SLOAD PUSH2 0x2BC0 JUMP JUMPDEST SWAP1 PUSH1 0x1 PUSH1 0x1 PUSH1 0x40 SHL SUB DUP3 GT PUSH2 0x29A5 JUMPI DUP2 SWAP1 PUSH2 0x2D58 DUP3 PUSH2 0xAE2 DUP7 SLOAD PUSH2 0x2BC0 JUMP JUMPDEST PUSH1 0x0 SWAP1 PUSH1 0x1F DUP4 GT PUSH1 0x1 EQ PUSH2 0x2D8F JUMPI PUSH1 0x0 SWAP3 PUSH2 0x2D84 JUMPI JUMPDEST POP POP DUP2 PUSH1 0x1 SHL SWAP2 PUSH1 0x0 NOT SWAP1 PUSH1 0x3 SHL SHR NOT AND OR SWAP1 SSTORE JUMP JUMPDEST ADD SLOAD SWAP1 POP CODESIZE DUP1 PUSH2 0x2D6E JUMP JUMPDEST DUP2 MSTORE PUSH1 0x20 DUP1 DUP3 KECCAK256 DUP6 DUP4 MSTORE DUP2 DUP4 KECCAK256 SWAP4 POP SWAP1 PUSH1 0x1F NOT DUP6 AND SWAP1 DUP4 SWAP1 JUMPDEST DUP3 DUP3 LT PUSH2 0x2DE2 JUMPI POP POP SWAP1 DUP5 PUSH1 0x1 SWAP6 SWAP5 SWAP4 SWAP3 LT PUSH2 0x2DC9 JUMPI JUMPDEST POP POP POP DUP2 SHL ADD SWAP1 SSTORE JUMP JUMPDEST ADD SLOAD PUSH1 0x0 NOT PUSH1 0xF8 DUP5 PUSH1 0x3 SHL AND SHR NOT AND SWAP1 SSTORE CODESIZE DUP1 DUP1 PUSH2 0x2DBF JUMP JUMPDEST DUP5 SWAP6 DUP2 SWAP3 SWAP6 DUP6 ADD SLOAD DUP2 SSTORE PUSH1 0x1 DUP1 SWAP2 ADD SWAP7 ADD SWAP5 ADD SWAP1 PUSH2 0x2DA8 JUMP JUMPDEST POP POP JUMP JUMPDEST PUSH2 0x2E09 DUP2 SLOAD PUSH2 0x2BC0 JUMP JUMPDEST SWAP1 DUP2 PUSH2 0x2E13 JUMPI POP POP JUMP JUMPDEST DUP2 PUSH1 0x1F PUSH1 0x0 SWAP4 GT PUSH1 0x1 EQ PUSH2 0x2E25 JUMPI POP SSTORE JUMP JUMPDEST SWAP1 DUP1 DUP4 SWAP2 DUP3 MSTORE PUSH2 0x2E44 PUSH1 0x1F PUSH1 0x20 DUP5 KECCAK256 SWAP5 ADD PUSH1 0x5 SHR DUP5 ADD PUSH1 0x1 DUP6 ADD PUSH2 0x2BFA JUMP JUMPDEST SSTORE SSTORE JUMP JUMPDEST PUSH1 0x5 PUSH2 0x2C4C SWAP2 PUSH2 0x2E57 DUP2 PUSH2 0x2DFF JUMP JUMPDEST PUSH2 0x2E63 PUSH1 0x1 DUP3 ADD PUSH2 0x2DFF JUMP JUMPDEST PUSH2 0x2E6F PUSH1 0x2 DUP3 ADD PUSH2 0x2DFF JUMP JUMPDEST PUSH2 0x2E7B PUSH1 0x3 DUP3 ADD PUSH2 0x2DFF JUMP JUMPDEST PUSH2 0x2E87 PUSH1 0x4 DUP3 ADD PUSH2 0x2DFF JUMP JUMPDEST ADD PUSH2 0x2DFF JUMP JUMPDEST SWAP1 PUSH1 0x0 SWAP3 SWAP2 DUP1 SLOAD SWAP2 PUSH2 0x2E9E DUP4 PUSH2 0x2BC0 JUMP JUMPDEST SWAP2 DUP3 DUP3 MSTORE PUSH1 0x1 SWAP4 DUP5 DUP2 AND SWAP1 DUP2 PUSH1 0x0 EQ PUSH2 0x2F00 JUMPI POP PUSH1 0x1 EQ PUSH2 0x2EC0 JUMPI JUMPDEST POP POP POP POP JUMP JUMPDEST SWAP1 SWAP2 SWAP4 SWAP5 POP PUSH1 0x0 MSTORE PUSH1 0x20 SWAP3 DUP4 PUSH1 0x0 KECCAK256 SWAP3 DUP5 PUSH1 0x0 SWAP5 JUMPDEST DUP4 DUP7 LT PUSH2 0x2EEC JUMPI POP POP POP POP ADD ADD SWAP1 CODESIZE DUP1 DUP1 DUP1 PUSH2 0x2EBA JUMP JUMPDEST DUP1 SLOAD DUP6 DUP8 ADD DUP4 ADD MSTORE SWAP5 ADD SWAP4 DUP6 SWAP1 DUP3 ADD PUSH2 0x2ED5 JUMP JUMPDEST SWAP3 SWAP5 POP POP POP PUSH1 0x20 SWAP4 SWAP5 POP PUSH1 0xFF NOT AND DUP4 DUP4 ADD MSTORE ISZERO ISZERO PUSH1 0x5 SHL ADD ADD SWAP1 CODESIZE DUP1 DUP1 DUP1 PUSH2 0x2EBA JUMP JUMPDEST RETURNDATASIZE ISZERO PUSH2 0x2F4E JUMPI RETURNDATASIZE SWAP1 PUSH2 0x2F34 DUP3 PUSH2 0x29DC JUMP JUMPDEST SWAP2 PUSH2 0x2F42 PUSH1 0x40 MLOAD SWAP4 DUP5 PUSH2 0x29BB JUMP JUMPDEST DUP3 MSTORE RETURNDATASIZE PUSH1 0x0 PUSH1 0x20 DUP5 ADD RETURNDATACOPY JUMP JUMPDEST PUSH1 0x60 SWAP1 JUMP JUMPDEST PUSH1 0x0 DUP1 PUSH2 0x2F7C SWAP3 PUSH1 0x1 DUP1 PUSH1 0xA0 SHL SUB AND SWAP4 PUSH1 0x20 DUP2 MLOAD SWAP2 ADD DUP3 DUP7 GAS CALL PUSH2 0x2F75 PUSH2 0x2F23 JUMP JUMPDEST SWAP1 DUP4 PUSH2 0x2FC5 JUMP JUMPDEST DUP1 MLOAD SWAP1 DUP2 ISZERO ISZERO SWAP2 DUP3 PUSH2 0x2FAA JUMPI JUMPDEST POP POP PUSH2 0x2F92 JUMPI POP JUMP JUMPDEST PUSH1 0x24 SWAP1 PUSH1 0x40 MLOAD SWAP1 PUSH4 0x5274AFE7 PUSH1 0xE0 SHL DUP3 MSTORE PUSH1 0x4 DUP3 ADD MSTORE REVERT JUMPDEST PUSH2 0x2FBD SWAP3 POP PUSH1 0x20 DUP1 SWAP2 DUP4 ADD ADD SWAP2 ADD PUSH2 0x2D0F JUMP JUMPDEST ISZERO CODESIZE DUP1 PUSH2 0x2F89 JUMP JUMPDEST SWAP1 PUSH2 0x2FEC JUMPI POP DUP1 MLOAD ISZERO PUSH2 0x2FDA JUMPI DUP1 MLOAD SWAP1 PUSH1 0x20 ADD REVERT JUMPDEST PUSH1 0x40 MLOAD PUSH4 0xA12F521 PUSH1 0xE1 SHL DUP2 MSTORE PUSH1 0x4 SWAP1 REVERT JUMPDEST DUP2 MLOAD ISZERO DUP1 PUSH2 0x301F JUMPI JUMPDEST PUSH2 0x2FFD JUMPI POP SWAP1 JUMP JUMPDEST PUSH1 0x40 MLOAD PUSH4 0x9996B315 PUSH1 0xE0 SHL DUP2 MSTORE PUSH1 0x1 PUSH1 0x1 PUSH1 0xA0 SHL SUB SWAP1 SWAP2 AND PUSH1 0x4 DUP3 ADD MSTORE PUSH1 0x24 SWAP1 REVERT JUMPDEST POP DUP1 EXTCODESIZE ISZERO PUSH2 0x2FF5 JUMP INVALID LOG2 PUSH5 0x6970667358 0x22 SLT KECCAK256 0x22 0xB4 PUSH11 0x7D3E9174CC69D1F6AC16F7 LOG2 0xC4 0xF6 EQ JUMPDEST 0xE2 DUP11 0xCE 0xB1 JUMPDEST PUSH28 0xFA2D6F41B05F5564736F6C6343000814003300000000000000000000 "},"methodIdentifiers":{"confirmUpdateMetadata(address)":"187de53b","createMetadata(address,(string,string,string,string,string,string))":"6613680d","getPendingMetadataUpdate(address)":"da67603e","getTokenURI(address,uint256)":"0b63fd62","getWrappedSongMetadata(address)":"349cdba0","initialize(address)":"c4d66de8","isMetadataUpdateConfirmed(address)":"dac73c99","owner()":"8da5cb5b","protocolModule()":"5c42e667","rejectUpdateMetadata(address)":"9205fafe","removeMetadata(address)":"a9edb0f5","renounceOwnership()":"715018a6","requestUpdateMetadata(address,(string,string,string,string,string,string))":"4b700629","setProtocolModule(address)":"a859dcde","transferOwnership(address)":"f2fde38b","updateMetadata(address,(string,string,string,string,string,string))":"5dc447ed","withdrawAccumulatedFees(address,address)":"376c1f07"}},"storageLayout":{"storage":[{"astId":8,"contract":"contracts/protocol/NonUpgradable/MetadataModule.sol:MetadataModule","label":"_owner","offset":0,"slot":"0","type":"t_address"},{"astId":1015,"contract":"contracts/protocol/NonUpgradable/MetadataModule.sol:MetadataModule","label":"_status","offset":0,"slot":"1","type":"t_uint256"},{"astId":2370,"contract":"contracts/protocol/NonUpgradable/MetadataModule.sol:MetadataModule","label":"protocolModule","offset":0,"slot":"2","type":"t_contract(IProtocolModule)1809"},{"astId":2373,"contract":"contracts/protocol/NonUpgradable/MetadataModule.sol:MetadataModule","label":"releaseModule","offset":0,"slot":"3","type":"t_contract(IReleaseModule)2000"},{"astId":2376,"contract":"contracts/protocol/NonUpgradable/MetadataModule.sol:MetadataModule","label":"feesModule","offset":0,"slot":"4","type":"t_contract(IFeesModule)1368"},{"astId":2379,"contract":"contracts/protocol/NonUpgradable/MetadataModule.sol:MetadataModule","label":"erc20whitelist","offset":0,"slot":"5","type":"t_contract(IERC20Whitelist)1272"},{"astId":2381,"contract":"contracts/protocol/NonUpgradable/MetadataModule.sol:MetadataModule","label":"isProtocolSet","offset":20,"slot":"5","type":"t_bool"},{"astId":2386,"contract":"contracts/protocol/NonUpgradable/MetadataModule.sol:MetadataModule","label":"wrappedSongMetadata","offset":0,"slot":"6","type":"t_mapping(t_address,t_struct(Metadata)1484_storage)"},{"astId":2391,"contract":"contracts/protocol/NonUpgradable/MetadataModule.sol:MetadataModule","label":"pendingMetadataUpdates","offset":0,"slot":"7","type":"t_mapping(t_address,t_struct(Metadata)1484_storage)"},{"astId":2395,"contract":"contracts/protocol/NonUpgradable/MetadataModule.sol:MetadataModule","label":"metadataUpdateConfirmed","offset":0,"slot":"8","type":"t_mapping(t_address,t_bool)"},{"astId":2399,"contract":"contracts/protocol/NonUpgradable/MetadataModule.sol:MetadataModule","label":"accumulatedFees","offset":0,"slot":"9","type":"t_mapping(t_address,t_uint256)"}],"types":{"t_address":{"encoding":"inplace","label":"address","numberOfBytes":"20"},"t_bool":{"encoding":"inplace","label":"bool","numberOfBytes":"1"},"t_contract(IERC20Whitelist)1272":{"encoding":"inplace","label":"contract IERC20Whitelist","numberOfBytes":"20"},"t_contract(IFeesModule)1368":{"encoding":"inplace","label":"contract IFeesModule","numberOfBytes":"20"},"t_contract(IProtocolModule)1809":{"encoding":"inplace","label":"contract IProtocolModule","numberOfBytes":"20"},"t_contract(IReleaseModule)2000":{"encoding":"inplace","label":"contract IReleaseModule","numberOfBytes":"20"},"t_mapping(t_address,t_bool)":{"encoding":"mapping","key":"t_address","label":"mapping(address => bool)","numberOfBytes":"32","value":"t_bool"},"t_mapping(t_address,t_struct(Metadata)1484_storage)":{"encoding":"mapping","key":"t_address","label":"mapping(address => struct IMetadataModule.Metadata)","numberOfBytes":"32","value":"t_struct(Metadata)1484_storage"},"t_mapping(t_address,t_uint256)":{"encoding":"mapping","key":"t_address","label":"mapping(address => uint256)","numberOfBytes":"32","value":"t_uint256"},"t_string_storage":{"encoding":"bytes","label":"string","numberOfBytes":"32"},"t_struct(Metadata)1484_storage":{"encoding":"inplace","label":"struct IMetadataModule.Metadata","members":[{"astId":1473,"contract":"contracts/protocol/NonUpgradable/MetadataModule.sol:MetadataModule","label":"name","offset":0,"slot":"0","type":"t_string_storage"},{"astId":1475,"contract":"contracts/protocol/NonUpgradable/MetadataModule.sol:MetadataModule","label":"description","offset":0,"slot":"1","type":"t_string_storage"},{"astId":1477,"contract":"contracts/protocol/NonUpgradable/MetadataModule.sol:MetadataModule","label":"image","offset":0,"slot":"2","type":"t_string_storage"},{"astId":1479,"contract":"contracts/protocol/NonUpgradable/MetadataModule.sol:MetadataModule","label":"externalUrl","offset":0,"slot":"3","type":"t_string_storage"},{"astId":1481,"contract":"contracts/protocol/NonUpgradable/MetadataModule.sol:MetadataModule","label":"animationUrl","offset":0,"slot":"4","type":"t_string_storage"},{"astId":1483,"contract":"contracts/protocol/NonUpgradable/MetadataModule.sol:MetadataModule","label":"attributesIpfsHash","offset":0,"slot":"5","type":"t_string_storage"}],"numberOfBytes":"192"},"t_uint256":{"encoding":"inplace","label":"uint256","numberOfBytes":"32"}}}}}}