{"contracts/protocol/NonUpgradable/WrappedSongSmartAccount.sol":{"WrappedSongSmartAccount":{"abi":[{"inputs":[{"internalType":"address","name":"_protocolModuleAddress","type":"address"}],"stateMutability":"nonpayable","type":"constructor"},{"inputs":[],"name":"InvalidInitialization","type":"error"},{"inputs":[],"name":"NotInitializing","type":"error"},{"inputs":[{"internalType":"address","name":"owner","type":"address"}],"name":"OwnableInvalidOwner","type":"error"},{"inputs":[{"internalType":"address","name":"account","type":"address"}],"name":"OwnableUnauthorizedAccount","type":"error"},{"inputs":[],"name":"ReentrancyGuardReentrantCall","type":"error"},{"anonymous":false,"inputs":[{"indexed":true,"internalType":"address","name":"newWrappedSongAddress","type":"address"}],"name":"ContractMigrated","type":"event"},{"anonymous":false,"inputs":[{"indexed":true,"internalType":"uint256","name":"epochId","type":"uint256"},{"indexed":false,"internalType":"uint256","name":"amount","type":"uint256"},{"indexed":false,"internalType":"uint256","name":"earningsPerShare","type":"uint256"},{"indexed":false,"internalType":"bool","name":"isETH","type":"bool"}],"name":"EarningsEpochProcessed","type":"event"},{"anonymous":false,"inputs":[{"indexed":true,"internalType":"address","name":"user","type":"address"},{"indexed":false,"internalType":"uint256","name":"fromEpoch","type":"uint256"},{"indexed":false,"internalType":"uint256","name":"toEpoch","type":"uint256"},{"indexed":false,"internalType":"uint256","name":"amount","type":"uint256"},{"indexed":true,"internalType":"address","name":"token","type":"address"}],"name":"EpochEarningsClaimed","type":"event"},{"anonymous":false,"inputs":[{"indexed":false,"internalType":"uint64","name":"version","type":"uint64"}],"name":"Initialized","type":"event"},{"anonymous":false,"inputs":[{"indexed":true,"internalType":"address","name":"previousOwner","type":"address"},{"indexed":true,"internalType":"address","name":"newOwner","type":"address"}],"name":"OwnershipTransferred","type":"event"},{"inputs":[{"internalType":"uint256","name":"maxEpochs","type":"uint256"}],"name":"claimETHEarnings","outputs":[],"stateMutability":"nonpayable","type":"function"},{"inputs":[{"internalType":"uint256","name":"maxEpochs","type":"uint256"}],"name":"claimStablecoinEarnings","outputs":[],"stateMutability":"nonpayable","type":"function"},{"inputs":[{"internalType":"uint256","name":"amount","type":"uint256"},{"internalType":"address","name":"recipient","type":"address"}],"name":"createBuyoutToken","outputs":[],"stateMutability":"nonpayable","type":"function"},{"inputs":[],"name":"createETHDistributionEpoch","outputs":[],"stateMutability":"nonpayable","type":"function"},{"inputs":[{"internalType":"string","name":"contractURI","type":"string"}],"name":"createLegalContract","outputs":[{"internalType":"uint256","name":"","type":"uint256"}],"stateMutability":"nonpayable","type":"function"},{"inputs":[{"internalType":"uint256","name":"sharesAmount","type":"uint256"}],"name":"createSongShares","outputs":[],"stateMutability":"nonpayable","type":"function"},{"inputs":[],"name":"createStablecoinDistributionEpoch","outputs":[],"stateMutability":"nonpayable","type":"function"},{"inputs":[],"name":"ethBalance","outputs":[{"internalType":"uint256","name":"","type":"uint256"}],"stateMutability":"view","type":"function"},{"inputs":[{"internalType":"uint256","name":"index","type":"uint256"}],"name":"ethEarningsEpochs","outputs":[{"components":[{"internalType":"uint256","name":"epochId","type":"uint256"},{"internalType":"uint256","name":"amount","type":"uint256"},{"internalType":"uint256","name":"earningsPerShare","type":"uint256"},{"internalType":"uint256","name":"timestamp","type":"uint256"},{"internalType":"address","name":"sender","type":"address"}],"internalType":"struct IWrappedSongTypes.EarningsEpoch","name":"","type":"tuple"}],"stateMutability":"view","type":"function"},{"inputs":[{"internalType":"address","name":"account","type":"address"}],"name":"getPendingETHEarnings","outputs":[{"internalType":"uint256","name":"","type":"uint256"}],"stateMutability":"view","type":"function"},{"inputs":[],"name":"getPendingStablecoinDistribution","outputs":[{"internalType":"uint256","name":"","type":"uint256"}],"stateMutability":"view","type":"function"},{"inputs":[{"internalType":"address","name":"account","type":"address"}],"name":"getPendingStablecoinEarnings","outputs":[{"internalType":"uint256","name":"","type":"uint256"}],"stateMutability":"view","type":"function"},{"inputs":[{"internalType":"address","name":"account","type":"address"}],"name":"getUnclaimedETHEpochs","outputs":[{"internalType":"uint256[]","name":"epochIds","type":"uint256[]"},{"internalType":"uint256[]","name":"amounts","type":"uint256[]"},{"internalType":"uint256[]","name":"timestamps","type":"uint256[]"},{"internalType":"string[]","name":"sources","type":"string[]"}],"stateMutability":"view","type":"function"},{"inputs":[{"internalType":"address","name":"account","type":"address"}],"name":"getUnclaimedStablecoinEpochs","outputs":[{"internalType":"uint256[]","name":"epochIds","type":"uint256[]"},{"internalType":"uint256[]","name":"amounts","type":"uint256[]"},{"internalType":"uint256[]","name":"timestamps","type":"uint256[]"},{"internalType":"string[]","name":"sources","type":"string[]"}],"stateMutability":"view","type":"function"},{"inputs":[],"name":"getWSTokenManagementAddress","outputs":[{"internalType":"address","name":"","type":"address"}],"stateMutability":"view","type":"function"},{"inputs":[{"internalType":"address","name":"account","type":"address"},{"internalType":"address","name":"token","type":"address"}],"name":"hasMoreEpochsToClaim","outputs":[{"internalType":"bool","name":"hasMore","type":"bool"},{"internalType":"uint256","name":"nextEpoch","type":"uint256"},{"internalType":"uint256","name":"totalEpochs","type":"uint256"}],"stateMutability":"view","type":"function"},{"inputs":[{"internalType":"address","name":"_stablecoinAddress","type":"address"},{"internalType":"address","name":"_owner","type":"address"},{"internalType":"address","name":"","type":"address"}],"name":"initialize","outputs":[],"stateMutability":"nonpayable","type":"function"},{"inputs":[],"name":"metadataModule","outputs":[{"internalType":"contract IMetadataModule","name":"","type":"address"}],"stateMutability":"view","type":"function"},{"inputs":[{"internalType":"address","name":"newMetadataAddress","type":"address"},{"internalType":"address","name":"newWrappedSongAddress","type":"address"}],"name":"migrateWrappedSong","outputs":[],"stateMutability":"nonpayable","type":"function"},{"inputs":[],"name":"migrated","outputs":[{"internalType":"bool","name":"","type":"bool"}],"stateMutability":"view","type":"function"},{"inputs":[{"internalType":"address","name":"operator","type":"address"},{"internalType":"address","name":"from","type":"address"},{"internalType":"uint256[]","name":"ids","type":"uint256[]"},{"internalType":"uint256[]","name":"values","type":"uint256[]"},{"internalType":"bytes","name":"data","type":"bytes"}],"name":"onERC1155BatchReceived","outputs":[{"internalType":"bytes4","name":"","type":"bytes4"}],"stateMutability":"pure","type":"function"},{"inputs":[{"internalType":"address","name":"operator","type":"address"},{"internalType":"address","name":"from","type":"address"},{"internalType":"uint256","name":"id","type":"uint256"},{"internalType":"uint256","name":"value","type":"uint256"},{"internalType":"bytes","name":"data","type":"bytes"}],"name":"onERC1155Received","outputs":[{"internalType":"bytes4","name":"","type":"bytes4"}],"stateMutability":"pure","type":"function"},{"inputs":[],"name":"owner","outputs":[{"internalType":"address","name":"","type":"address"}],"stateMutability":"view","type":"function"},{"inputs":[],"name":"protocolModule","outputs":[{"internalType":"contract IProtocolModule","name":"","type":"address"}],"stateMutability":"view","type":"function"},{"inputs":[{"internalType":"address","name":"token","type":"address"},{"internalType":"uint256","name":"amount","type":"uint256"}],"name":"receiveERC20","outputs":[],"stateMutability":"nonpayable","type":"function"},{"inputs":[],"name":"renounceOwnership","outputs":[],"stateMutability":"nonpayable","type":"function"},{"inputs":[{"internalType":"address","name":"_wsTokenManagement","type":"address"}],"name":"setWSTokenManagement","outputs":[],"stateMutability":"nonpayable","type":"function"},{"inputs":[],"name":"songSharesId","outputs":[{"internalType":"uint256","name":"","type":"uint256"}],"stateMutability":"view","type":"function"},{"inputs":[],"name":"stablecoin","outputs":[{"internalType":"contract IERC20","name":"","type":"address"}],"stateMutability":"view","type":"function"},{"inputs":[{"internalType":"uint256","name":"index","type":"uint256"}],"name":"stablecoinEarningsEpochs","outputs":[{"components":[{"internalType":"uint256","name":"epochId","type":"uint256"},{"internalType":"uint256","name":"amount","type":"uint256"},{"internalType":"uint256","name":"earningsPerShare","type":"uint256"},{"internalType":"uint256","name":"timestamp","type":"uint256"},{"internalType":"address","name":"sender","type":"address"}],"internalType":"struct IWrappedSongTypes.EarningsEpoch","name":"","type":"tuple"}],"stateMutability":"view","type":"function"},{"inputs":[{"internalType":"bytes4","name":"interfaceId","type":"bytes4"}],"name":"supportsInterface","outputs":[{"internalType":"bool","name":"","type":"bool"}],"stateMutability":"view","type":"function"},{"inputs":[{"internalType":"address","name":"newOwner","type":"address"}],"name":"transferOwnership","outputs":[],"stateMutability":"nonpayable","type":"function"},{"inputs":[{"internalType":"address","name":"user","type":"address"}],"name":"userEpochBalances","outputs":[{"components":[{"internalType":"uint256","name":"lastClaimedEpoch","type":"uint256"},{"internalType":"uint256","name":"lastClaimedETHEpoch","type":"uint256"}],"internalType":"struct IWrappedSongTypes.EpochBalance","name":"","type":"tuple"}],"stateMutability":"view","type":"function"},{"inputs":[],"name":"wrappedSongTokenId","outputs":[{"internalType":"uint256","name":"","type":"uint256"}],"stateMutability":"view","type":"function"},{"inputs":[],"name":"wsTokenManagement","outputs":[{"internalType":"contract IWSTokenManagement","name":"","type":"address"}],"stateMutability":"view","type":"function"},{"stateMutability":"payable","type":"receive"}],"evm":{"bytecode":{"linkReferences":{},"object":"60806040908082523462000234578062003137803803809162000023828562000239565b83396020928391810103126200023457516001600160a01b0380821691829003620002345733156200021c57600080546001600160a01b0319808216339081178455875191959285167f8be0079c531659141344cd1fd0a4f28419497f9722a3daafe3b4186f6b6457e08580a3600180558115620001da5750600480548516821781558651623684d160e81b815292918691849182905afa918215620001ce57819262000186575b5050169060055416176005557ff0c57e16840df040f15088dc2f81fe391c3923bec73e23a9662efc9c229c6a009081549160ff83851c1662000175576001600160401b03906002600160401b03198483160162000132575b8451612ec39081620002748239f35b6001600160401b0319909316811790925582519182527fc7f505b2f371ae2175ee4913f4499e1f2633a7b5936321eed1cdaeb6115181d291a13880808062000123565b835163f92ee8a960e01b8152600490fd5b9091508481813d8311620001c6575b620001a1818362000239565b81010312620001c25751908282168203620001bf57503880620000cb565b80fd5b5080fd5b503d62000195565b508551903d90823e3d90fd5b62461bcd60e51b815260048101869052601760248201527f496e76616c69642070726f746f636f6c206d6f64756c650000000000000000006044820152606490fd5b8351631e4fbdf760e01b815260006004820152602490fd5b600080fd5b601f909101601f19168101906001600160401b038211908210176200025d57604052565b634e487b7160e01b600052604160045260246000fdfe6080604081815260049182361015610031575b505050361561002057600080fd5b61002c3460085461234d565b600855005b600092833560e01c91826301ffc9a71461203d575081630a1c35a414611c835781632514a5fb14611a0c5781632c678c64146119e85781632cc6d17b146119a65781633684d1001461197d57816339fa62df1461186a57816343d0b50f1461184b5781634c2b957a1461181f5781634e6630b01461180057816351bcece2146117d95781635c42e667146117b15781635d152b36146117925781636ab415c11461176c5781636d4645fd146112a6578163715018a61461124c578163716f6e87146111c757816382d5195c14610fa85781638da5cb5b14610f805781639a5cb99d146102eb5781639d3bc4bd14610e4b578163a2440fd514610d9a578163aed4aab614610ca7578163b40b5e8214610c6e578163bc197c8114610be5578163bcb7130d14610962578163c0c53b8b1461076e578163c45f497e14610706578163d70a0abc14610314578163df5afd2a146102eb578163e9cbd822146102c2578163f23a6e6114610269578163f2fde38b1461020f57508063f3baa17f146101f15763fcd9b139146101c25780610012565b346101ed5760203660031901126101ed576020906101e66101e1612090565b612ce2565b9051908152f35b5080fd5b50346101ed57816003193601126101ed576020906006549051908152f35b9050346102655760203660031901126102655761022a612090565b916102336122da565b6001600160a01b0383161561024f578361024c84612306565b80f35b51631e4fbdf760e01b8152908101839052602490fd5b8280fd5b8284346102bf5760a03660031901126102bf57610284612090565b5061028d6120a6565b50608435906001600160401b0382116102bf57506020926102b0913691016121f7565b50505163f23a6e6160e01b8152f35b80fd5b5050346101ed57816003193601126101ed5760035490516001600160a01b039091168152602090f35b5050346101ed57816003193601126101ed5760025490516001600160a01b039091168152602090f35b9190503461026557806003193601126102655761032f612090565b916103386120a6565b916103416122da565b600d549060ff82166106c4576001600160a01b03848116958615610681578116801561063e5781600254169081156105fb578286541694845180966366d0ead360e01b825233898301528160246020998a935afa9081156105f1578b916105d4575b50156105995760ff1916600117600d5588929190813b1561059557839060448a83885195869485936335c282af60e21b85528d85015260248401525af1801561057757908391610581575b50506003541682516370a0823160e01b815230868201528481602481855afa908115610577578391610541575b5080610479575b505092505050479182610459575b507f63a3a6504840fce1914d082b35c1578e92684e2412633097b92acce038d2b1ee915080a280f35b81806104719481935af161046b6125ac565b506125dc565b388281610430565b835163a9059cbb60e01b81526001600160a01b038816878201908152602081019290925292859284928390036040019183915af190811561053757879161050a575b50156104c957858180610422565b5162461bcd60e51b815291820152601a60248201527f537461626c65636f696e207472616e73666572206661696c6564000000000000604482015260649150fd5b61052a9150833d8511610530575b610522818361229e565b8101906123bc565b386104bb565b503d610518565b82513d89823e3d90fd5b809350858092503d8311610570575b61055a818361229e565b8101031261056b578791513861041b565b600080fd5b503d610550565b84513d85823e3d90fd5b61058a90612255565b6101ed5781386103ee565b8380fd5b845162461bcd60e51b8152808801879052601560248201527410d85b1b195c881b9bdd08185d5d1a1bdc9a5e9959605a1b6044820152606490fd5b6105eb9150873d891161053057610522818361229e565b386103a3565b86513d8d823e3d90fd5b835162461bcd60e51b8152602081880152601960248201527f5753546f6b656e4d616e6167656d656e74206e6f7420736574000000000000006044820152606490fd5b825162461bcd60e51b8152602081870152601860248201527f496e76616c6964206d65746164617461206164647265737300000000000000006044820152606490fd5b825162461bcd60e51b8152602081870181905260248201527f496e76616c6964206e6577207772617070656420736f6e6720616464726573736044820152606490fd5b5162461bcd60e51b8152602081840152601960248201527f436f6e747261637420616c7265616479206d69677261746564000000000000006044820152606490fd5b5050346101ed5760203660031901126101ed578091610723612090565b816020845161073181612268565b828152015260018060a01b03168152600a60205220600181549101546020835161075a81612268565b838152019081528251918252516020820152f35b90503461026557606036600319011261026557610789612090565b6107916120a6565b6001600160a01b03906044358281160361056b577ff0c57e16840df040f15088dc2f81fe391c3923bec73e23a9662efc9c229c6a009384549360ff85881c1615946001600160401b0381168015908161095a575b6001149081610950575b159081610947575b506109375767ffffffffffffffff198116600117875584919086610918575b50169283156108d55782161561089a575061083090612306565b6bffffffffffffffffffffffff60a01b6003541617600355836007556001600655610859578280f35b805468ff00000000000000001916905551600181527fc7f505b2f371ae2175ee4913f4499e1f2633a7b5936321eed1cdaeb6115181d290602090a138808280f35b606490602087519162461bcd60e51b83528201526015602482015274496e76616c6964206f776e6572206164647265737360581b6044820152fd5b865162461bcd60e51b8152602081840152601a60248201527f496e76616c696420737461626c65636f696e20616464726573730000000000006044820152606490fd5b68ffffffffffffffffff19166801000000000000000117875538610816565b875163f92ee8a960e01b81528390fd5b905015386107f7565b303b1591506107ef565b8791506107e5565b8383346101ed57602092836003193601126102655780356001600160401b03811161059557366023820112156105955780820135916109a0836122bf565b926109ad8551948561229e565b80845260249236848383010111610bda57818792858a9301838801378501015284546001600160a01b0390811633148015610b6f575b15610b16576002541690845163bd85b03960e01b815260038282015287818581865afa908115610b0c578791610adf575b50610a9257908686819493610a4088519788968795869463bcb7130d60e01b86528501528301906120f0565b03925af1928315610a875792610a58575b5051908152f35b9091508281813d8311610a80575b610a70818361229e565b8101031261056b57519083610a51565b503d610a66565b8251903d90823e3d90fd5b845162461bcd60e51b81529081018790526022818401527f4c6567616c20636f6e747261637420616c726561647920696e697469616c697a604482015261195960f21b6064820152608490fd5b90508781813d8311610b05575b610af6818361229e565b8101031261056b575188610a14565b503d610aec565b86513d89823e3d90fd5b50602f6084928786519362461bcd60e51b85528401528201527f43616c6c6572206973206e6f74206f776e6572206f722077726170706564207360448201526e37b733903234b9ba3934b13aba37b960891b6064820152fd5b50828782845416875192838092633aa690e760e01b825230888301525afa908115610b0c579082918891610ba7575b501633146109e3565b809250898092503d8311610bde575b610bc0818361229e565b81010312610bda57518181168103610bda57819089610b9e565b8680fd5b503d610bb6565b8284346102bf5760a03660031901126102bf57610c00612090565b50610c096120a6565b506001600160401b03906044358281116101ed57610c2a90369086016121c7565b50506064358281116101ed57610c4390369086016121c7565b50506084359182116102bf5750602092610c5f913691016121f7565b50505163bc197c8160e01b8152f35b5050346101ed5760203660031901126101ed57610ca390610c95610c90612090565b612991565b919492935194859485612130565b0390f35b905034610265578160031936011261026557610cc1612090565b60243591610cd460ff600d541615612370565b6003546001600160a01b0392831692168203610d675784916064602092865194859384926323b872dd60e01b845233908401523060248401528760448401525af1928315610d5e5750610d3a92610d32918591610d40575b506123d4565b60095461234d565b60095580f35b610d58915060203d811161053057610522818361229e565b38610d2c565b513d85823e3d90fd5b606490602085519162461bcd60e51b8352820152600d60248201526c24b73b30b634b2103a37b5b2b760991b6044820152fd5b9190503461026557602036600319011261026557610ca39250610dbb612e62565b50610dc682356124f9565b5080549260018201549160028101549060038101549260018060a01b039101541692845195610df487612224565b8652602086015283850152606084015260808301525191829182919091608060a0820193805183526020810151602084015260408101516040840152606081015160608401528160018060a01b0391015116910152565b839150346101ed57826003193601126101ed57610e666120a6565b92610e6f6122da565b60018060a01b0391826002541694825163bd85b03960e01b815260028382015260209081816024818b5afa908115610f76578791610f49575b50610f0857508585963b15610f045785928360449286519788958694639d3bc4bd60e01b86528035908601521660248401525af1908115610efb5750610eeb5750f35b610ef490612255565b6102bf5780f35b513d84823e3d90fd5b8580fd5b809150606493519262461bcd60e51b845283015260248201527f4275796f757420746f6b656e20616c726561647920696e697469616c697a65646044820152fd5b90508181813d8311610f6f575b610f60818361229e565b8101031261056b575188610ea8565b503d610f56565b85513d89823e3d90fd5b5050346101ed57816003193601126101ed57905490516001600160a01b039091168152602090f35b91905034610265578260031936011261026557610fca60ff600d541615612370565b60085490811561118e5760018060a01b038060025416600654835191829163bd85b03960e01b83528783015281602460209485935afa908115611184578791611157575b5061101a811515612e24565b670de0b6b3a76400008502670de0b6b3a763ffff198682040161114457906110419161258c565b91600b5490845161105181612224565b82815283810187815286820186815260608301914283526080840195338752600160401b81101561112f5780600161108c9201600b556124f9565b94909461111b57518455516001840155516002830155516003820155915191870180546001600160a01b03191691909216179055600b54600019810195908611611108575082519384528301526001908201527f77841c1ae75de1a1c173cb7ffd7f1dc25d09aca1e636b17a232b67072624bab890606090a280f35b634e487b7160e01b875260119052602486fd5b60008c634e487b7160e01b82525260246000fd5b60418c634e487b7160e01b6000525260246000fd5b634e487b7160e01b885260118752602488fd5b90508181813d831161117d575b61116e818361229e565b8101031261056b57513861100e565b503d611164565b84513d89823e3d90fd5b5162461bcd60e51b815260208184015260146024820152734e6f2045544820746f206469737472696275746560601b6044820152606490fd5b91905034610265576020366003190112610265576111e3612090565b600254926001600160a01b039283851661121357505016906bffffffffffffffffffffffff60a01b161760025580f35b906020606492519162461bcd60e51b8352820152601360248201527215d4d51bdad95b88185b1c9958591e481cd95d606a1b6044820152fd5b83346102bf57806003193601126102bf576112656122da565b600080546001600160a01b0319811682556001600160a01b03167f8be0079c531659141344cd1fd0a4f28419497f9722a3daafe3b4186f6b6457e08280a380f35b9190503461026557602080600319360112610595578235916112c661261e565b6112d560ff600d541615612370565b6002546006548251627eeac760e11b8152338782019081526020810183905291946001600160a01b0390931692918290829081906040010381865afa90811561173557889161173f575b50158015906116b2575b6113329061241f565b338752600a81526001958684892001918783549788600b5461135582821161245d565b821561168c579061136591612412565b8082101561168557505b9490505b8996888a5b61149c575b505050851561145a576008548611611418575050916114106113f2837f33508fa3c05f271d76112f2a1c190707f316b34540511262f6d62bff50a02854956113c88998968c9a61234d565b90556113d685600854612412565b6008556113ec8880808089335af161046b6125ac565b8661234d565b91519283923396846040919493926060820195825260208201520152565b0390a3805580f35b845162461bcd60e51b815291820152601d60248201527f496e73756666696369656e7420636f6e74726163742062616c616e6365000000604482015260649150fd5b845162461bcd60e51b815291820152601860248201527f4e6f20455448206561726e696e677320746f20636c61696d0000000000000000604482015260649150fd5b6114a6878b61234d565b811015611680576114bf6114b9826124f9565b50612534565b6060818101518a51630c4db40d60e31b8152338982019081526020810187905260408101929092528f929091889183918291010381895afa91821561167557908e9695949392611644575b5080611524575b505061151c90612499565b909192611378565b909a9192939450898b0161154361153c825184612579565b928361258c565b90510361160157670de0b6b3a76400008691049a01518a116115be57896115699161234d565b98891061157b57908a92913880611511565b875162461bcd60e51b8152808601859052601860248201527f546f74616c20756e636c61696d6564206f766572666c6f7700000000000000006044820152606490fd5b885162461bcd60e51b8152808701869052601a60248201527f53686172652063616c63756c6174696f6e206f766572666c6f770000000000006044820152606490fd5b895162461bcd60e51b8152808801879052601760248201527f4d756c7469706c69636174696f6e206f766572666c6f770000000000000000006044820152606490fd5b809650878092503d831161166e575b61165d818361229e565b8101031261056b578c94513861150a565b503d611653565b8b51903d90823e3d90fd5b61137d565b905061136f565b6116969250612412565b806032106000146116ad575060325b949050611373565b6116a5565b506000194201428111611144578351630c4db40d60e31b815233888201908152602081018790526040810192909252908290829081906060010381865afa8015611735578890611706575b15159050611329565b508181813d831161172e575b61171c818361229e565b8101031261056b5761133290516116fd565b503d611712565b84513d8a823e3d90fd5b90508181813d8311611765575b611756818361229e565b8101031261056b57513861131f565b503d61174c565b5050346101ed5760203660031901126101ed576020906101e661178d612090565b612b38565b5050346101ed57816003193601126101ed576020906009549051908152f35b9050346102655782600319360112610265575490516001600160a01b03909116815260209150f35b5050346101ed5760203660031901126101ed57610ca390610c956117fb612090565b61274e565b5050346101ed57816003193601126101ed576020906008549051908152f35b9190503461026557602036600319011261026557610ca39250611840612e62565b50610dc682356124a8565b5050346101ed57816003193601126101ed576020906007549051908152f35b8383346101ed576020928360031936011261026557600254825163bd85b03960e01b81526001838201526001600160a01b03909116908581602481855afa908115611973578591611942575b5061190057839450803b156118fb5760248492845195869384926339fa62df60e01b84528035908401525af1908115610efb57506118f2575080f35b61024c90612255565b505050fd5b5083606492519162461bcd60e51b8352820152601a60248201527f53686172657320616c726561647920696e697469616c697a65640000000000006044820152fd5b90508581813d831161196c575b611959818361229e565b810103126119685751866118b6565b8480fd5b503d61194f565b84513d87823e3d90fd5b5050346101ed57816003193601126101ed5760055490516001600160a01b039091168152602090f35b5050346101ed57806003193601126101ed576060906119d46119c6612090565b6119ce6120a6565b90612641565b919290815193151584526020840152820152f35b5050346101ed57816003193601126101ed5760209060ff600d541690519015158152f35b91905034610265578260031936011261026557611a2e60ff600d541615612370565b600954908115611c4157600254600654825163bd85b03960e01b8152858101919091526020936001600160a01b039260249290869082908590829088165afa908115611c37578891611c06575b50611a87811515612e24565b670de0b6b3a76400008202670de0b6b3a763ffff1983820401611bf45790611aae9161258c565b600c54909390918215611bef576000198301838111611bdd57906001611ad6611ade936124a8565b50015461234d565b855190611aea82612224565b83825287820190815286820186815260608301914283526080840195338752600160401b811015611bcb57806001611b259201600c556124a8565b949094611bba57518455516001840155516002830155516003820155915191870180546001600160a01b03191691909216179055600c54600019810195908611611ba957505091846060927f77841c1ae75de1a1c173cb7ffd7f1dc25d09aca1e636b17a232b67072624bab894600954938251948552840152820152a28060095580f35b634e487b7160e01b87526011905285fd5b634e487b7160e01b8d528c8c52878dfd5b634e487b7160e01b8d5260418c52878dfd5b634e487b7160e01b8a5260118952848afd5b611ade565b634e487b7160e01b8952601188528389fd5b90508581813d8311611c30575b611c1d818361229e565b81010312611c2c575138611a7b565b8780fd5b503d611c13565b85513d8a823e3d90fd5b5162461bcd60e51b8152602081840152601d60248201527f4e6f206e6577206561726e696e677320746f20646973747269627574650000006044820152606490fd5b9050346102655760208060031936011261059557813591611ca261261e565b611cb160ff600d541615612370565b6002546006548551627eeac760e11b8152338185019081526020810183905291936001600160a01b0393841693929091908690829081906040010381875afa908115611ff3578991612010575b5015801590611f6c575b611d119061241f565b338852600a8552868820805496600c5490611d2d89831161245d565b8015611f6157611d3e905b8961234d565b9080821015611f5a57505b938995885b868110611e69575b5050508415611e2657839055600354875163a9059cbb60e01b815233928101928352602083018690529291869184918290036040019082908c9086165af1948515611e1c577f33508fa3c05f271d76112f2a1c190707f316b34540511262f6d62bff50a0285495611df593611dd3928b92611dff575b50506123d4565b6003541695519283923396846040919493926060820195825260208201520152565b0390a36001805580f35b611e159250803d1061053057610522818361229e565b3880611dcc565b87513d8a823e3d90fd5b875162461bcd60e51b8152808301879052601f60248201527f4e6f20737461626c65636f696e206561726e696e677320746f20636c61696d006044820152606490fd5b620186a05a10611f4c578b8b611e816114b9846124a8565b6060818101518351630c4db40d60e31b815233818c01908152602081018990526040810192909252918e91839182910103818a5afa938415611f415793611f0a575b5082611edb575b505050611ed690612499565b611d4e565b611efa611f0193611ed6959c93670de0b6b3a764000093015190612579565b049061234d565b97908b38611eca565b8c809294508193503d8311611f3a575b611f24818361229e565b81010312611f36578c90519138611ec3565b8d80fd5b503d611f1a565b8351903d90823e3d90fd5b929550505092388080611d56565b9050611d49565b50611d3e6032611d38565b506000194201428111611ffd578751630c4db40d60e31b815233838201908152602081018790526040810192909252908690829081906060010381875afa8015611ff3578990611fc0575b15159050611d08565b508581813d8311611fec575b611fd6818361229e565b81010312611fe857611d119051611fb7565b8880fd5b503d611fcc565b88513d8b823e3d90fd5b634e487b7160e01b895260118252602489fd5b90508581813d8311612036575b612027818361229e565b81010312611fe8575138611cfe565b503d61201d565b849134610265576020366003190112610265573563ffffffff60e01b81168091036102655760209250630271189760e51b811490811561207f575b5015158152f35b6301ffc9a760e01b14905083612078565b600435906001600160a01b038216820361056b57565b602435906001600160a01b038216820361056b57565b90815180825260208080930193019160005b8281106120dc575050505090565b8351855293810193928101926001016120ce565b919082519283825260005b84811061211c575050826000602080949584010152601f8019910116010190565b6020818301810151848301820152016120fb565b92612158612149612166936080875260808701906120bc565b602094868203868801526120bc565b9084820360408601526120bc565b9160608184039101528251908183528083019281808460051b8301019501936000915b8483106121995750505050505090565b90919293949584806121b7600193601f198682030187528a516120f0565b9801930193019194939290612189565b9181601f8401121561056b578235916001600160401b03831161056b576020808501948460051b01011161056b57565b9181601f8401121561056b578235916001600160401b03831161056b576020838186019501011161056b57565b60a081019081106001600160401b0382111761223f57604052565b634e487b7160e01b600052604160045260246000fd5b6001600160401b03811161223f57604052565b604081019081106001600160401b0382111761223f57604052565b602081019081106001600160401b0382111761223f57604052565b90601f801991011681019081106001600160401b0382111761223f57604052565b6001600160401b03811161223f57601f01601f191660200190565b6000546001600160a01b031633036122ee57565b60405163118cdaa760e01b8152336004820152602490fd5b600080546001600160a01b039283166001600160a01b03198216811783559216907f8be0079c531659141344cd1fd0a4f28419497f9722a3daafe3b4186f6b6457e09080a3565b9190820180921161235a57565b634e487b7160e01b600052601160045260246000fd5b1561237757565b60405162461bcd60e51b815260206004820152601a60248201527f436f6e747261637420686173206265656e206d696772617465640000000000006044820152606490fd5b9081602091031261056b5751801515810361056b5790565b156123db57565b60405162461bcd60e51b815260206004820152600f60248201526e151c985b9cd9995c8819985a5b1959608a1b6044820152606490fd5b9190820391821161235a57565b1561242657565b60405162461bcd60e51b815260206004820152600f60248201526e139bc81cda185c995cc81bdddb9959608a1b6044820152606490fd5b1561246457565b60405162461bcd60e51b815260206004820152600d60248201526c4e6f206e65772065706f63687360981b6044820152606490fd5b600019811461235a5760010190565b600c548110156124e357600590600c600052027fdf6966c971051c3d54ec59162606531493a51404a002842f56009d7e5cf4a8c70190600090565b634e487b7160e01b600052603260045260246000fd5b600b548110156124e357600590600b600052027f0175b7a638427703f0dbe7bb9bbf987a2551717b34e79f33b5b1008d1fa01db90190600090565b9060405161254181612224565b825481526001830154602082015260028301546040820152600383015460608201526004909201546001600160a01b03166080830152565b8181029291811591840414171561235a57565b8115612596570490565b634e487b7160e01b600052601260045260246000fd5b3d156125d7573d906125bd826122bf565b916125cb604051938461229e565b82523d6000602084013e565b606090565b156125e357565b60405162461bcd60e51b8152602060048201526013602482015272115512081d1c985b9cd9995c8819985a5b1959606a1b6044820152606490fd5b60026001541461262f576002600155565b604051633ee5aeb560e01b8152600490fd5b6001600160a01b039081166000908152600a602052604081209190921615929083156126a05760010154925b156126975782600b545b81811161268657505081929190565b612691929350612412565b60019291565b82600c54612677565b549261266d565b6001600160401b03811161223f5760051b60200190565b906126c8826126a7565b6126d5604051918261229e565b82815280926126e6601f19916126a7565b0190602036910137565b906126fa826126a7565b612707604051918261229e565b8281528092612718601f19916126a7565b019060005b82811061272957505050565b80606060208093850101520161271d565b80518210156124e35760209160051b010190565b600254600654604051627eeac760e11b81526001600160a01b0384811660048301526024820183905293949284169391929190602081604481885afa9081156129045760009161295f575b5015612910578416600052600a602052600160406000200154600b546127c76127c28383612412565b6126be565b916127d56127c28284612412565b966127e36127c28385612412565b966127f66127f18486612412565b6126f0565b96835b85811061280c5750505050505093929190565b6128186114b9826124f9565b805161282d6128278885612412565b8a61273a565b526060810151604051630c4db40d60e31b81526001600160a01b0387166004820152602481018590526044810191909152602081606481885afa8015612904578d916000916128ce575b50916060916128ad670de0b6b3a764000061289b6128c99796604086015190612579565b04916128a78b87612412565b9061273a565b5201516128c36128bd8884612412565b8d61273a565b52612499565b6127f9565b91506020823d6020116128fc575b816128e96020938361229e565b810103126102bf5750518c906060612877565b3d91506128dc565b6040513d6000823e3d90fd5b50925050506040519061292282612283565b600082526040519161293383612283565b600083526040519161294483612283565b600083526040519161295583612283565b6000835293929190565b906020823d602011612989575b816129796020938361229e565b810103126102bf57505138612799565b3d915061296c565b600254600654604051627eeac760e11b81526001600160a01b0384811660048301526024820183905293949284169391929190602081604481885afa90811561290457600091612b06575b5015612910578416600052600a602052604060002054600c54612a026127c28383612412565b91612a106127c28284612412565b96612a1e6127c28385612412565b96612a2c6127f18486612412565b96835b858110612a425750505050505093929190565b612a4e6114b9826124a8565b8051612a5d6128278885612412565b526060810151604051630c4db40d60e31b81526001600160a01b0387166004820152602481018590526044810191909152602081606481885afa8015612904578d91600091612ad0575b50916060916128ad670de0b6b3a764000061289b612acb9796604086015190612579565b612a2f565b91506020823d602011612afe575b81612aeb6020938361229e565b810103126102bf5750518c906060612aa7565b3d9150612ade565b906020823d602011612b30575b81612b206020938361229e565b810103126102bf575051386129dc565b3d9150612b13565b60025460065460408051627eeac760e11b81526001600160a01b0385811660048084019190915260248301859052939594811694602094909290919085816044818a5afa908115612cd757600091612caa575b5015612c9e5782919694939216600052600a8352600182600020015495600b5494600097965b868810612bc357505050505050505090565b9091929394959697612c17612bda6114b98b6124f9565b6060818101518951630c4db40d60e31b81526001600160a01b038a16898201908152602081018990526040810192909252938b9285928392910190565b0381875afa918215612c9357908891600093612c5f575b50611efa612c4d93612c539593670de0b6b3a764000093015190612579565b98612499565b96959493929190612bb1565b9150918982813d8311612c8c575b612c77818361229e565b810103126102bf575051908790611efa612c2e565b503d612c6d565b88513d6000823e3d90fd5b50505050505050600090565b908682813d8311612cd0575b612cc0818361229e565b810103126102bf57505138612b8b565b503d612cb6565b85513d6000823e3d90fd5b60025460065460408051627eeac760e11b81526001600160a01b0385811660048084019190915260248301859052939594811694602094909290919085816044818a5afa908115612cd757600091612df7575b5015612c9e5782919694939216600052600a8352816000205495600c5494600097965b868810612d6a57505050505050505090565b9091929394959697612d81612bda6114b98b6124a8565b0381875afa918215612c9357908891600093612dc3575b50611efa612c4d93612db79593670de0b6b3a764000093015190612579565b96959493929190612d58565b9150918982813d8311612df0575b612ddb818361229e565b810103126102bf575051908790611efa612d98565b503d612dd1565b908682813d8311612e1d575b612e0d818361229e565b810103126102bf57505138612d35565b503d612e03565b15612e2b57565b60405162461bcd60e51b815260206004820152600f60248201526e139bc81cda185c995cc8195e1a5cdd608a1b6044820152606490fd5b60405190612e6f82612224565b6000608083828152826020820152826040820152826060820152015256fea2646970667358221220ae24ceeca4034b09ee2e86781a57a69b06d62ab29b00e30664b27d21f896d12d64736f6c63430008140033","opcodes":"PUSH1 0x80 PUSH1 0x40 SWAP1 DUP1 DUP3 MSTORE CALLVALUE PUSH3 0x234 JUMPI DUP1 PUSH3 0x3137 DUP1 CODESIZE SUB DUP1 SWAP2 PUSH3 0x23 DUP3 DUP6 PUSH3 0x239 JUMP JUMPDEST DUP4 CODECOPY PUSH1 0x20 SWAP3 DUP4 SWAP2 DUP2 ADD SUB SLT PUSH3 0x234 JUMPI MLOAD PUSH1 0x1 PUSH1 0x1 PUSH1 0xA0 SHL SUB DUP1 DUP3 AND SWAP2 DUP3 SWAP1 SUB PUSH3 0x234 JUMPI CALLER ISZERO PUSH3 0x21C JUMPI PUSH1 0x0 DUP1 SLOAD PUSH1 0x1 PUSH1 0x1 PUSH1 0xA0 SHL SUB NOT DUP1 DUP3 AND CALLER SWAP1 DUP2 OR DUP5 SSTORE DUP8 MLOAD SWAP2 SWAP6 SWAP3 DUP6 AND PUSH32 0x8BE0079C531659141344CD1FD0A4F28419497F9722A3DAAFE3B4186F6B6457E0 DUP6 DUP1 LOG3 PUSH1 0x1 DUP1 SSTORE DUP2 ISZERO PUSH3 0x1DA JUMPI POP PUSH1 0x4 DUP1 SLOAD DUP6 AND DUP3 OR DUP2 SSTORE DUP7 MLOAD PUSH3 0x3684D1 PUSH1 0xE8 SHL DUP2 MSTORE SWAP3 SWAP2 DUP7 SWAP2 DUP5 SWAP2 DUP3 SWAP1 GAS STATICCALL SWAP2 DUP3 ISZERO PUSH3 0x1CE JUMPI DUP2 SWAP3 PUSH3 0x186 JUMPI JUMPDEST POP POP AND SWAP1 PUSH1 0x5 SLOAD AND OR PUSH1 0x5 SSTORE PUSH32 0xF0C57E16840DF040F15088DC2F81FE391C3923BEC73E23A9662EFC9C229C6A00 SWAP1 DUP2 SLOAD SWAP2 PUSH1 0xFF DUP4 DUP6 SHR AND PUSH3 0x175 JUMPI PUSH1 0x1 PUSH1 0x1 PUSH1 0x40 SHL SUB SWAP1 PUSH1 0x2 PUSH1 0x1 PUSH1 0x40 SHL SUB NOT DUP5 DUP4 AND ADD PUSH3 0x132 JUMPI JUMPDEST DUP5 MLOAD PUSH2 0x2EC3 SWAP1 DUP2 PUSH3 0x274 DUP3 CODECOPY RETURN JUMPDEST PUSH1 0x1 PUSH1 0x1 PUSH1 0x40 SHL SUB NOT SWAP1 SWAP4 AND DUP2 OR SWAP1 SWAP3 SSTORE DUP3 MLOAD SWAP2 DUP3 MSTORE PUSH32 0xC7F505B2F371AE2175EE4913F4499E1F2633A7B5936321EED1CDAEB6115181D2 SWAP2 LOG1 CODESIZE DUP1 DUP1 DUP1 PUSH3 0x123 JUMP JUMPDEST DUP4 MLOAD PUSH4 0xF92EE8A9 PUSH1 0xE0 SHL DUP2 MSTORE PUSH1 0x4 SWAP1 REVERT JUMPDEST SWAP1 SWAP2 POP DUP5 DUP2 DUP2 RETURNDATASIZE DUP4 GT PUSH3 0x1C6 JUMPI JUMPDEST PUSH3 0x1A1 DUP2 DUP4 PUSH3 0x239 JUMP JUMPDEST DUP2 ADD SUB SLT PUSH3 0x1C2 JUMPI MLOAD SWAP1 DUP3 DUP3 AND DUP3 SUB PUSH3 0x1BF JUMPI POP CODESIZE DUP1 PUSH3 0xCB JUMP JUMPDEST DUP1 REVERT JUMPDEST POP DUP1 REVERT JUMPDEST POP RETURNDATASIZE PUSH3 0x195 JUMP JUMPDEST POP DUP6 MLOAD SWAP1 RETURNDATASIZE SWAP1 DUP3 RETURNDATACOPY RETURNDATASIZE SWAP1 REVERT JUMPDEST PUSH3 0x461BCD PUSH1 0xE5 SHL DUP2 MSTORE PUSH1 0x4 DUP2 ADD DUP7 SWAP1 MSTORE PUSH1 0x17 PUSH1 0x24 DUP3 ADD MSTORE PUSH32 0x496E76616C69642070726F746F636F6C206D6F64756C65000000000000000000 PUSH1 0x44 DUP3 ADD MSTORE PUSH1 0x64 SWAP1 REVERT JUMPDEST DUP4 MLOAD PUSH4 0x1E4FBDF7 PUSH1 0xE0 SHL DUP2 MSTORE PUSH1 0x0 PUSH1 0x4 DUP3 ADD MSTORE PUSH1 0x24 SWAP1 REVERT JUMPDEST PUSH1 0x0 DUP1 REVERT JUMPDEST PUSH1 0x1F SWAP1 SWAP2 ADD PUSH1 0x1F NOT AND DUP2 ADD SWAP1 PUSH1 0x1 PUSH1 0x1 PUSH1 0x40 SHL SUB DUP3 GT SWAP1 DUP3 LT OR PUSH3 0x25D JUMPI PUSH1 0x40 MSTORE JUMP JUMPDEST PUSH4 0x4E487B71 PUSH1 0xE0 SHL PUSH1 0x0 MSTORE PUSH1 0x41 PUSH1 0x4 MSTORE PUSH1 0x24 PUSH1 0x0 REVERT INVALID PUSH1 0x80 PUSH1 0x40 DUP2 DUP2 MSTORE PUSH1 0x4 SWAP2 DUP3 CALLDATASIZE LT ISZERO PUSH2 0x31 JUMPI JUMPDEST POP POP POP CALLDATASIZE ISZERO PUSH2 0x20 JUMPI PUSH1 0x0 DUP1 REVERT JUMPDEST PUSH2 0x2C CALLVALUE PUSH1 0x8 SLOAD PUSH2 0x234D JUMP JUMPDEST PUSH1 0x8 SSTORE STOP JUMPDEST PUSH1 0x0 SWAP3 DUP4 CALLDATALOAD PUSH1 0xE0 SHR SWAP2 DUP3 PUSH4 0x1FFC9A7 EQ PUSH2 0x203D JUMPI POP DUP2 PUSH4 0xA1C35A4 EQ PUSH2 0x1C83 JUMPI DUP2 PUSH4 0x2514A5FB EQ PUSH2 0x1A0C JUMPI DUP2 PUSH4 0x2C678C64 EQ PUSH2 0x19E8 JUMPI DUP2 PUSH4 0x2CC6D17B EQ PUSH2 0x19A6 JUMPI DUP2 PUSH4 0x3684D100 EQ PUSH2 0x197D JUMPI DUP2 PUSH4 0x39FA62DF EQ PUSH2 0x186A JUMPI DUP2 PUSH4 0x43D0B50F EQ PUSH2 0x184B JUMPI DUP2 PUSH4 0x4C2B957A EQ PUSH2 0x181F JUMPI DUP2 PUSH4 0x4E6630B0 EQ PUSH2 0x1800 JUMPI DUP2 PUSH4 0x51BCECE2 EQ PUSH2 0x17D9 JUMPI DUP2 PUSH4 0x5C42E667 EQ PUSH2 0x17B1 JUMPI DUP2 PUSH4 0x5D152B36 EQ PUSH2 0x1792 JUMPI DUP2 PUSH4 0x6AB415C1 EQ PUSH2 0x176C JUMPI DUP2 PUSH4 0x6D4645FD EQ PUSH2 0x12A6 JUMPI DUP2 PUSH4 0x715018A6 EQ PUSH2 0x124C JUMPI DUP2 PUSH4 0x716F6E87 EQ PUSH2 0x11C7 JUMPI DUP2 PUSH4 0x82D5195C EQ PUSH2 0xFA8 JUMPI DUP2 PUSH4 0x8DA5CB5B EQ PUSH2 0xF80 JUMPI DUP2 PUSH4 0x9A5CB99D EQ PUSH2 0x2EB JUMPI DUP2 PUSH4 0x9D3BC4BD EQ PUSH2 0xE4B JUMPI DUP2 PUSH4 0xA2440FD5 EQ PUSH2 0xD9A JUMPI DUP2 PUSH4 0xAED4AAB6 EQ PUSH2 0xCA7 JUMPI DUP2 PUSH4 0xB40B5E82 EQ PUSH2 0xC6E JUMPI DUP2 PUSH4 0xBC197C81 EQ PUSH2 0xBE5 JUMPI DUP2 PUSH4 0xBCB7130D EQ PUSH2 0x962 JUMPI DUP2 PUSH4 0xC0C53B8B EQ PUSH2 0x76E JUMPI DUP2 PUSH4 0xC45F497E EQ PUSH2 0x706 JUMPI DUP2 PUSH4 0xD70A0ABC EQ PUSH2 0x314 JUMPI DUP2 PUSH4 0xDF5AFD2A EQ PUSH2 0x2EB JUMPI DUP2 PUSH4 0xE9CBD822 EQ PUSH2 0x2C2 JUMPI DUP2 PUSH4 0xF23A6E61 EQ PUSH2 0x269 JUMPI DUP2 PUSH4 0xF2FDE38B EQ PUSH2 0x20F JUMPI POP DUP1 PUSH4 0xF3BAA17F EQ PUSH2 0x1F1 JUMPI PUSH4 0xFCD9B139 EQ PUSH2 0x1C2 JUMPI DUP1 PUSH2 0x12 JUMP JUMPDEST CALLVALUE PUSH2 0x1ED JUMPI PUSH1 0x20 CALLDATASIZE PUSH1 0x3 NOT ADD SLT PUSH2 0x1ED JUMPI PUSH1 0x20 SWAP1 PUSH2 0x1E6 PUSH2 0x1E1 PUSH2 0x2090 JUMP JUMPDEST PUSH2 0x2CE2 JUMP JUMPDEST SWAP1 MLOAD SWAP1 DUP2 MSTORE RETURN JUMPDEST POP DUP1 REVERT JUMPDEST POP CALLVALUE PUSH2 0x1ED JUMPI DUP2 PUSH1 0x3 NOT CALLDATASIZE ADD SLT PUSH2 0x1ED JUMPI PUSH1 0x20 SWAP1 PUSH1 0x6 SLOAD SWAP1 MLOAD SWAP1 DUP2 MSTORE RETURN JUMPDEST SWAP1 POP CALLVALUE PUSH2 0x265 JUMPI PUSH1 0x20 CALLDATASIZE PUSH1 0x3 NOT ADD SLT PUSH2 0x265 JUMPI PUSH2 0x22A PUSH2 0x2090 JUMP JUMPDEST SWAP2 PUSH2 0x233 PUSH2 0x22DA JUMP JUMPDEST PUSH1 0x1 PUSH1 0x1 PUSH1 0xA0 SHL SUB DUP4 AND ISZERO PUSH2 0x24F JUMPI DUP4 PUSH2 0x24C DUP5 PUSH2 0x2306 JUMP JUMPDEST DUP1 RETURN JUMPDEST MLOAD PUSH4 0x1E4FBDF7 PUSH1 0xE0 SHL DUP2 MSTORE SWAP1 DUP2 ADD DUP4 SWAP1 MSTORE PUSH1 0x24 SWAP1 REVERT JUMPDEST DUP3 DUP1 REVERT JUMPDEST DUP3 DUP5 CALLVALUE PUSH2 0x2BF JUMPI PUSH1 0xA0 CALLDATASIZE PUSH1 0x3 NOT ADD SLT PUSH2 0x2BF JUMPI PUSH2 0x284 PUSH2 0x2090 JUMP JUMPDEST POP PUSH2 0x28D PUSH2 0x20A6 JUMP JUMPDEST POP PUSH1 0x84 CALLDATALOAD SWAP1 PUSH1 0x1 PUSH1 0x1 PUSH1 0x40 SHL SUB DUP3 GT PUSH2 0x2BF JUMPI POP PUSH1 0x20 SWAP3 PUSH2 0x2B0 SWAP2 CALLDATASIZE SWAP2 ADD PUSH2 0x21F7 JUMP JUMPDEST POP POP MLOAD PUSH4 0xF23A6E61 PUSH1 0xE0 SHL DUP2 MSTORE RETURN JUMPDEST DUP1 REVERT JUMPDEST POP POP CALLVALUE PUSH2 0x1ED JUMPI DUP2 PUSH1 0x3 NOT CALLDATASIZE ADD SLT PUSH2 0x1ED JUMPI PUSH1 0x3 SLOAD SWAP1 MLOAD PUSH1 0x1 PUSH1 0x1 PUSH1 0xA0 SHL SUB SWAP1 SWAP2 AND DUP2 MSTORE PUSH1 0x20 SWAP1 RETURN JUMPDEST POP POP CALLVALUE PUSH2 0x1ED JUMPI DUP2 PUSH1 0x3 NOT CALLDATASIZE ADD SLT PUSH2 0x1ED JUMPI PUSH1 0x2 SLOAD SWAP1 MLOAD PUSH1 0x1 PUSH1 0x1 PUSH1 0xA0 SHL SUB SWAP1 SWAP2 AND DUP2 MSTORE PUSH1 0x20 SWAP1 RETURN JUMPDEST SWAP2 SWAP1 POP CALLVALUE PUSH2 0x265 JUMPI DUP1 PUSH1 0x3 NOT CALLDATASIZE ADD SLT PUSH2 0x265 JUMPI PUSH2 0x32F PUSH2 0x2090 JUMP JUMPDEST SWAP2 PUSH2 0x338 PUSH2 0x20A6 JUMP JUMPDEST SWAP2 PUSH2 0x341 PUSH2 0x22DA JUMP JUMPDEST PUSH1 0xD SLOAD SWAP1 PUSH1 0xFF DUP3 AND PUSH2 0x6C4 JUMPI PUSH1 0x1 PUSH1 0x1 PUSH1 0xA0 SHL SUB DUP5 DUP2 AND SWAP6 DUP7 ISZERO PUSH2 0x681 JUMPI DUP2 AND DUP1 ISZERO PUSH2 0x63E JUMPI DUP2 PUSH1 0x2 SLOAD AND SWAP1 DUP2 ISZERO PUSH2 0x5FB JUMPI DUP3 DUP7 SLOAD AND SWAP5 DUP5 MLOAD DUP1 SWAP7 PUSH4 0x66D0EAD3 PUSH1 0xE0 SHL DUP3 MSTORE CALLER DUP10 DUP4 ADD MSTORE DUP2 PUSH1 0x24 PUSH1 0x20 SWAP10 DUP11 SWAP4 GAS STATICCALL SWAP1 DUP2 ISZERO PUSH2 0x5F1 JUMPI DUP12 SWAP2 PUSH2 0x5D4 JUMPI JUMPDEST POP ISZERO PUSH2 0x599 JUMPI PUSH1 0xFF NOT AND PUSH1 0x1 OR PUSH1 0xD SSTORE DUP9 SWAP3 SWAP2 SWAP1 DUP2 EXTCODESIZE ISZERO PUSH2 0x595 JUMPI DUP4 SWAP1 PUSH1 0x44 DUP11 DUP4 DUP9 MLOAD SWAP6 DUP7 SWAP5 DUP6 SWAP4 PUSH4 0x35C282AF PUSH1 0xE2 SHL DUP6 MSTORE DUP14 DUP6 ADD MSTORE PUSH1 0x24 DUP5 ADD MSTORE GAS CALL DUP1 ISZERO PUSH2 0x577 JUMPI SWAP1 DUP4 SWAP2 PUSH2 0x581 JUMPI JUMPDEST POP POP PUSH1 0x3 SLOAD AND DUP3 MLOAD PUSH4 0x70A08231 PUSH1 0xE0 SHL DUP2 MSTORE ADDRESS DUP7 DUP3 ADD MSTORE DUP5 DUP2 PUSH1 0x24 DUP2 DUP6 GAS STATICCALL SWAP1 DUP2 ISZERO PUSH2 0x577 JUMPI DUP4 SWAP2 PUSH2 0x541 JUMPI JUMPDEST POP DUP1 PUSH2 0x479 JUMPI JUMPDEST POP POP SWAP3 POP POP POP SELFBALANCE SWAP2 DUP3 PUSH2 0x459 JUMPI JUMPDEST POP PUSH32 0x63A3A6504840FCE1914D082B35C1578E92684E2412633097B92ACCE038D2B1EE SWAP2 POP DUP1 LOG2 DUP1 RETURN JUMPDEST DUP2 DUP1 PUSH2 0x471 SWAP5 DUP2 SWAP4 GAS CALL PUSH2 0x46B PUSH2 0x25AC JUMP JUMPDEST POP PUSH2 0x25DC JUMP JUMPDEST CODESIZE DUP3 DUP2 PUSH2 0x430 JUMP JUMPDEST DUP4 MLOAD PUSH4 0xA9059CBB PUSH1 0xE0 SHL DUP2 MSTORE PUSH1 0x1 PUSH1 0x1 PUSH1 0xA0 SHL SUB DUP9 AND DUP8 DUP3 ADD SWAP1 DUP2 MSTORE PUSH1 0x20 DUP2 ADD SWAP3 SWAP1 SWAP3 MSTORE SWAP3 DUP6 SWAP3 DUP5 SWAP3 DUP4 SWAP1 SUB PUSH1 0x40 ADD SWAP2 DUP4 SWAP2 GAS CALL SWAP1 DUP2 ISZERO PUSH2 0x537 JUMPI DUP8 SWAP2 PUSH2 0x50A JUMPI JUMPDEST POP ISZERO PUSH2 0x4C9 JUMPI DUP6 DUP2 DUP1 PUSH2 0x422 JUMP JUMPDEST MLOAD PUSH3 0x461BCD PUSH1 0xE5 SHL DUP2 MSTORE SWAP2 DUP3 ADD MSTORE PUSH1 0x1A PUSH1 0x24 DUP3 ADD MSTORE PUSH32 0x537461626C65636F696E207472616E73666572206661696C6564000000000000 PUSH1 0x44 DUP3 ADD MSTORE PUSH1 0x64 SWAP2 POP REVERT JUMPDEST PUSH2 0x52A SWAP2 POP DUP4 RETURNDATASIZE DUP6 GT PUSH2 0x530 JUMPI JUMPDEST PUSH2 0x522 DUP2 DUP4 PUSH2 0x229E JUMP JUMPDEST DUP2 ADD SWAP1 PUSH2 0x23BC JUMP JUMPDEST CODESIZE PUSH2 0x4BB JUMP JUMPDEST POP RETURNDATASIZE PUSH2 0x518 JUMP JUMPDEST DUP3 MLOAD RETURNDATASIZE DUP10 DUP3 RETURNDATACOPY RETURNDATASIZE SWAP1 REVERT JUMPDEST DUP1 SWAP4 POP DUP6 DUP1 SWAP3 POP RETURNDATASIZE DUP4 GT PUSH2 0x570 JUMPI JUMPDEST PUSH2 0x55A DUP2 DUP4 PUSH2 0x229E JUMP JUMPDEST DUP2 ADD SUB SLT PUSH2 0x56B JUMPI DUP8 SWAP2 MLOAD CODESIZE PUSH2 0x41B JUMP JUMPDEST PUSH1 0x0 DUP1 REVERT JUMPDEST POP RETURNDATASIZE PUSH2 0x550 JUMP JUMPDEST DUP5 MLOAD RETURNDATASIZE DUP6 DUP3 RETURNDATACOPY RETURNDATASIZE SWAP1 REVERT JUMPDEST PUSH2 0x58A SWAP1 PUSH2 0x2255 JUMP JUMPDEST PUSH2 0x1ED JUMPI DUP2 CODESIZE PUSH2 0x3EE JUMP JUMPDEST DUP4 DUP1 REVERT JUMPDEST DUP5 MLOAD PUSH3 0x461BCD PUSH1 0xE5 SHL DUP2 MSTORE DUP1 DUP9 ADD DUP8 SWAP1 MSTORE PUSH1 0x15 PUSH1 0x24 DUP3 ADD MSTORE PUSH21 0x10D85B1B195C881B9BDD08185D5D1A1BDC9A5E9959 PUSH1 0x5A SHL PUSH1 0x44 DUP3 ADD MSTORE PUSH1 0x64 SWAP1 REVERT JUMPDEST PUSH2 0x5EB SWAP2 POP DUP8 RETURNDATASIZE DUP10 GT PUSH2 0x530 JUMPI PUSH2 0x522 DUP2 DUP4 PUSH2 0x229E JUMP JUMPDEST CODESIZE PUSH2 0x3A3 JUMP JUMPDEST DUP7 MLOAD RETURNDATASIZE DUP14 DUP3 RETURNDATACOPY RETURNDATASIZE SWAP1 REVERT JUMPDEST DUP4 MLOAD PUSH3 0x461BCD PUSH1 0xE5 SHL DUP2 MSTORE PUSH1 0x20 DUP2 DUP9 ADD MSTORE PUSH1 0x19 PUSH1 0x24 DUP3 ADD MSTORE PUSH32 0x5753546F6B656E4D616E6167656D656E74206E6F742073657400000000000000 PUSH1 0x44 DUP3 ADD MSTORE PUSH1 0x64 SWAP1 REVERT JUMPDEST DUP3 MLOAD PUSH3 0x461BCD PUSH1 0xE5 SHL DUP2 MSTORE PUSH1 0x20 DUP2 DUP8 ADD MSTORE PUSH1 0x18 PUSH1 0x24 DUP3 ADD MSTORE PUSH32 0x496E76616C6964206D6574616461746120616464726573730000000000000000 PUSH1 0x44 DUP3 ADD MSTORE PUSH1 0x64 SWAP1 REVERT JUMPDEST DUP3 MLOAD PUSH3 0x461BCD PUSH1 0xE5 SHL DUP2 MSTORE PUSH1 0x20 DUP2 DUP8 ADD DUP2 SWAP1 MSTORE PUSH1 0x24 DUP3 ADD MSTORE PUSH32 0x496E76616C6964206E6577207772617070656420736F6E672061646472657373 PUSH1 0x44 DUP3 ADD MSTORE PUSH1 0x64 SWAP1 REVERT JUMPDEST MLOAD PUSH3 0x461BCD PUSH1 0xE5 SHL DUP2 MSTORE PUSH1 0x20 DUP2 DUP5 ADD MSTORE PUSH1 0x19 PUSH1 0x24 DUP3 ADD MSTORE PUSH32 0x436F6E747261637420616C7265616479206D6967726174656400000000000000 PUSH1 0x44 DUP3 ADD MSTORE PUSH1 0x64 SWAP1 REVERT JUMPDEST POP POP CALLVALUE PUSH2 0x1ED JUMPI PUSH1 0x20 CALLDATASIZE PUSH1 0x3 NOT ADD SLT PUSH2 0x1ED JUMPI DUP1 SWAP2 PUSH2 0x723 PUSH2 0x2090 JUMP JUMPDEST DUP2 PUSH1 0x20 DUP5 MLOAD PUSH2 0x731 DUP2 PUSH2 0x2268 JUMP JUMPDEST DUP3 DUP2 MSTORE ADD MSTORE PUSH1 0x1 DUP1 PUSH1 0xA0 SHL SUB AND DUP2 MSTORE PUSH1 0xA PUSH1 0x20 MSTORE KECCAK256 PUSH1 0x1 DUP2 SLOAD SWAP2 ADD SLOAD PUSH1 0x20 DUP4 MLOAD PUSH2 0x75A DUP2 PUSH2 0x2268 JUMP JUMPDEST DUP4 DUP2 MSTORE ADD SWAP1 DUP2 MSTORE DUP3 MLOAD SWAP2 DUP3 MSTORE MLOAD PUSH1 0x20 DUP3 ADD MSTORE RETURN JUMPDEST SWAP1 POP CALLVALUE PUSH2 0x265 JUMPI PUSH1 0x60 CALLDATASIZE PUSH1 0x3 NOT ADD SLT PUSH2 0x265 JUMPI PUSH2 0x789 PUSH2 0x2090 JUMP JUMPDEST PUSH2 0x791 PUSH2 0x20A6 JUMP JUMPDEST PUSH1 0x1 PUSH1 0x1 PUSH1 0xA0 SHL SUB SWAP1 PUSH1 0x44 CALLDATALOAD DUP3 DUP2 AND SUB PUSH2 0x56B JUMPI PUSH32 0xF0C57E16840DF040F15088DC2F81FE391C3923BEC73E23A9662EFC9C229C6A00 SWAP4 DUP5 SLOAD SWAP4 PUSH1 0xFF DUP6 DUP9 SHR AND ISZERO SWAP5 PUSH1 0x1 PUSH1 0x1 PUSH1 0x40 SHL SUB DUP2 AND DUP1 ISZERO SWAP1 DUP2 PUSH2 0x95A JUMPI JUMPDEST PUSH1 0x1 EQ SWAP1 DUP2 PUSH2 0x950 JUMPI JUMPDEST ISZERO SWAP1 DUP2 PUSH2 0x947 JUMPI JUMPDEST POP PUSH2 0x937 JUMPI PUSH8 0xFFFFFFFFFFFFFFFF NOT DUP2 AND PUSH1 0x1 OR DUP8 SSTORE DUP5 SWAP2 SWAP1 DUP7 PUSH2 0x918 JUMPI JUMPDEST POP AND SWAP3 DUP4 ISZERO PUSH2 0x8D5 JUMPI DUP3 AND ISZERO PUSH2 0x89A JUMPI POP PUSH2 0x830 SWAP1 PUSH2 0x2306 JUMP JUMPDEST PUSH12 0xFFFFFFFFFFFFFFFFFFFFFFFF PUSH1 0xA0 SHL PUSH1 0x3 SLOAD AND OR PUSH1 0x3 SSTORE DUP4 PUSH1 0x7 SSTORE PUSH1 0x1 PUSH1 0x6 SSTORE PUSH2 0x859 JUMPI DUP3 DUP1 RETURN JUMPDEST DUP1 SLOAD PUSH9 0xFF0000000000000000 NOT AND SWAP1 SSTORE MLOAD PUSH1 0x1 DUP2 MSTORE PUSH32 0xC7F505B2F371AE2175EE4913F4499E1F2633A7B5936321EED1CDAEB6115181D2 SWAP1 PUSH1 0x20 SWAP1 LOG1 CODESIZE DUP1 DUP3 DUP1 RETURN JUMPDEST PUSH1 0x64 SWAP1 PUSH1 0x20 DUP8 MLOAD SWAP2 PUSH3 0x461BCD PUSH1 0xE5 SHL DUP4 MSTORE DUP3 ADD MSTORE PUSH1 0x15 PUSH1 0x24 DUP3 ADD MSTORE PUSH21 0x496E76616C6964206F776E65722061646472657373 PUSH1 0x58 SHL PUSH1 0x44 DUP3 ADD MSTORE REVERT JUMPDEST DUP7 MLOAD PUSH3 0x461BCD PUSH1 0xE5 SHL DUP2 MSTORE PUSH1 0x20 DUP2 DUP5 ADD MSTORE PUSH1 0x1A PUSH1 0x24 DUP3 ADD MSTORE PUSH32 0x496E76616C696420737461626C65636F696E2061646472657373000000000000 PUSH1 0x44 DUP3 ADD MSTORE PUSH1 0x64 SWAP1 REVERT JUMPDEST PUSH9 0xFFFFFFFFFFFFFFFFFF NOT AND PUSH9 0x10000000000000001 OR DUP8 SSTORE CODESIZE PUSH2 0x816 JUMP JUMPDEST DUP8 MLOAD PUSH4 0xF92EE8A9 PUSH1 0xE0 SHL DUP2 MSTORE DUP4 SWAP1 REVERT JUMPDEST SWAP1 POP ISZERO CODESIZE PUSH2 0x7F7 JUMP JUMPDEST ADDRESS EXTCODESIZE ISZERO SWAP2 POP PUSH2 0x7EF JUMP JUMPDEST DUP8 SWAP2 POP PUSH2 0x7E5 JUMP JUMPDEST DUP4 DUP4 CALLVALUE PUSH2 0x1ED JUMPI PUSH1 0x20 SWAP3 DUP4 PUSH1 0x3 NOT CALLDATASIZE ADD SLT PUSH2 0x265 JUMPI DUP1 CALLDATALOAD PUSH1 0x1 PUSH1 0x1 PUSH1 0x40 SHL SUB DUP2 GT PUSH2 0x595 JUMPI CALLDATASIZE PUSH1 0x23 DUP3 ADD SLT ISZERO PUSH2 0x595 JUMPI DUP1 DUP3 ADD CALLDATALOAD SWAP2 PUSH2 0x9A0 DUP4 PUSH2 0x22BF JUMP JUMPDEST SWAP3 PUSH2 0x9AD DUP6 MLOAD SWAP5 DUP6 PUSH2 0x229E JUMP JUMPDEST DUP1 DUP5 MSTORE PUSH1 0x24 SWAP3 CALLDATASIZE DUP5 DUP4 DUP4 ADD ADD GT PUSH2 0xBDA JUMPI DUP2 DUP8 SWAP3 DUP6 DUP11 SWAP4 ADD DUP4 DUP9 ADD CALLDATACOPY DUP6 ADD ADD MSTORE DUP5 SLOAD PUSH1 0x1 PUSH1 0x1 PUSH1 0xA0 SHL SUB SWAP1 DUP2 AND CALLER EQ DUP1 ISZERO PUSH2 0xB6F JUMPI JUMPDEST ISZERO PUSH2 0xB16 JUMPI PUSH1 0x2 SLOAD AND SWAP1 DUP5 MLOAD PUSH4 0xBD85B039 PUSH1 0xE0 SHL DUP2 MSTORE PUSH1 0x3 DUP3 DUP3 ADD MSTORE DUP8 DUP2 DUP6 DUP2 DUP7 GAS STATICCALL SWAP1 DUP2 ISZERO PUSH2 0xB0C JUMPI DUP8 SWAP2 PUSH2 0xADF JUMPI JUMPDEST POP PUSH2 0xA92 JUMPI SWAP1 DUP7 DUP7 DUP2 SWAP5 SWAP4 PUSH2 0xA40 DUP9 MLOAD SWAP8 DUP9 SWAP7 DUP8 SWAP6 DUP7 SWAP5 PUSH4 0xBCB7130D PUSH1 0xE0 SHL DUP7 MSTORE DUP6 ADD MSTORE DUP4 ADD SWAP1 PUSH2 0x20F0 JUMP JUMPDEST SUB SWAP3 GAS CALL SWAP3 DUP4 ISZERO PUSH2 0xA87 JUMPI SWAP3 PUSH2 0xA58 JUMPI JUMPDEST POP MLOAD SWAP1 DUP2 MSTORE RETURN JUMPDEST SWAP1 SWAP2 POP DUP3 DUP2 DUP2 RETURNDATASIZE DUP4 GT PUSH2 0xA80 JUMPI JUMPDEST PUSH2 0xA70 DUP2 DUP4 PUSH2 0x229E JUMP JUMPDEST DUP2 ADD SUB SLT PUSH2 0x56B JUMPI MLOAD SWAP1 DUP4 PUSH2 0xA51 JUMP JUMPDEST POP RETURNDATASIZE PUSH2 0xA66 JUMP JUMPDEST DUP3 MLOAD SWAP1 RETURNDATASIZE SWAP1 DUP3 RETURNDATACOPY RETURNDATASIZE SWAP1 REVERT JUMPDEST DUP5 MLOAD PUSH3 0x461BCD PUSH1 0xE5 SHL DUP2 MSTORE SWAP1 DUP2 ADD DUP8 SWAP1 MSTORE PUSH1 0x22 DUP2 DUP5 ADD MSTORE PUSH32 0x4C6567616C20636F6E747261637420616C726561647920696E697469616C697A PUSH1 0x44 DUP3 ADD MSTORE PUSH2 0x1959 PUSH1 0xF2 SHL PUSH1 0x64 DUP3 ADD MSTORE PUSH1 0x84 SWAP1 REVERT JUMPDEST SWAP1 POP DUP8 DUP2 DUP2 RETURNDATASIZE DUP4 GT PUSH2 0xB05 JUMPI JUMPDEST PUSH2 0xAF6 DUP2 DUP4 PUSH2 0x229E JUMP JUMPDEST DUP2 ADD SUB SLT PUSH2 0x56B JUMPI MLOAD DUP9 PUSH2 0xA14 JUMP JUMPDEST POP RETURNDATASIZE PUSH2 0xAEC JUMP JUMPDEST DUP7 MLOAD RETURNDATASIZE DUP10 DUP3 RETURNDATACOPY RETURNDATASIZE SWAP1 REVERT JUMPDEST POP PUSH1 0x2F PUSH1 0x84 SWAP3 DUP8 DUP7 MLOAD SWAP4 PUSH3 0x461BCD PUSH1 0xE5 SHL DUP6 MSTORE DUP5 ADD MSTORE DUP3 ADD MSTORE PUSH32 0x43616C6C6572206973206E6F74206F776E6572206F7220777261707065642073 PUSH1 0x44 DUP3 ADD MSTORE PUSH15 0x37B733903234B9BA3934B13ABA37B9 PUSH1 0x89 SHL PUSH1 0x64 DUP3 ADD MSTORE REVERT JUMPDEST POP DUP3 DUP8 DUP3 DUP5 SLOAD AND DUP8 MLOAD SWAP3 DUP4 DUP1 SWAP3 PUSH4 0x3AA690E7 PUSH1 0xE0 SHL DUP3 MSTORE ADDRESS DUP9 DUP4 ADD MSTORE GAS STATICCALL SWAP1 DUP2 ISZERO PUSH2 0xB0C JUMPI SWAP1 DUP3 SWAP2 DUP9 SWAP2 PUSH2 0xBA7 JUMPI JUMPDEST POP AND CALLER EQ PUSH2 0x9E3 JUMP JUMPDEST DUP1 SWAP3 POP DUP10 DUP1 SWAP3 POP RETURNDATASIZE DUP4 GT PUSH2 0xBDE JUMPI JUMPDEST PUSH2 0xBC0 DUP2 DUP4 PUSH2 0x229E JUMP JUMPDEST DUP2 ADD SUB SLT PUSH2 0xBDA JUMPI MLOAD DUP2 DUP2 AND DUP2 SUB PUSH2 0xBDA JUMPI DUP2 SWAP1 DUP10 PUSH2 0xB9E JUMP JUMPDEST DUP7 DUP1 REVERT JUMPDEST POP RETURNDATASIZE PUSH2 0xBB6 JUMP JUMPDEST DUP3 DUP5 CALLVALUE PUSH2 0x2BF JUMPI PUSH1 0xA0 CALLDATASIZE PUSH1 0x3 NOT ADD SLT PUSH2 0x2BF JUMPI PUSH2 0xC00 PUSH2 0x2090 JUMP JUMPDEST POP PUSH2 0xC09 PUSH2 0x20A6 JUMP JUMPDEST POP PUSH1 0x1 PUSH1 0x1 PUSH1 0x40 SHL SUB SWAP1 PUSH1 0x44 CALLDATALOAD DUP3 DUP2 GT PUSH2 0x1ED JUMPI PUSH2 0xC2A SWAP1 CALLDATASIZE SWAP1 DUP7 ADD PUSH2 0x21C7 JUMP JUMPDEST POP POP PUSH1 0x64 CALLDATALOAD DUP3 DUP2 GT PUSH2 0x1ED JUMPI PUSH2 0xC43 SWAP1 CALLDATASIZE SWAP1 DUP7 ADD PUSH2 0x21C7 JUMP JUMPDEST POP POP PUSH1 0x84 CALLDATALOAD SWAP2 DUP3 GT PUSH2 0x2BF JUMPI POP PUSH1 0x20 SWAP3 PUSH2 0xC5F SWAP2 CALLDATASIZE SWAP2 ADD PUSH2 0x21F7 JUMP JUMPDEST POP POP MLOAD PUSH4 0xBC197C81 PUSH1 0xE0 SHL DUP2 MSTORE RETURN JUMPDEST POP POP CALLVALUE PUSH2 0x1ED JUMPI PUSH1 0x20 CALLDATASIZE PUSH1 0x3 NOT ADD SLT PUSH2 0x1ED JUMPI PUSH2 0xCA3 SWAP1 PUSH2 0xC95 PUSH2 0xC90 PUSH2 0x2090 JUMP JUMPDEST PUSH2 0x2991 JUMP JUMPDEST SWAP2 SWAP5 SWAP3 SWAP4 MLOAD SWAP5 DUP6 SWAP5 DUP6 PUSH2 0x2130 JUMP JUMPDEST SUB SWAP1 RETURN JUMPDEST SWAP1 POP CALLVALUE PUSH2 0x265 JUMPI DUP2 PUSH1 0x3 NOT CALLDATASIZE ADD SLT PUSH2 0x265 JUMPI PUSH2 0xCC1 PUSH2 0x2090 JUMP JUMPDEST PUSH1 0x24 CALLDATALOAD SWAP2 PUSH2 0xCD4 PUSH1 0xFF PUSH1 0xD SLOAD AND ISZERO PUSH2 0x2370 JUMP JUMPDEST PUSH1 0x3 SLOAD PUSH1 0x1 PUSH1 0x1 PUSH1 0xA0 SHL SUB SWAP3 DUP4 AND SWAP3 AND DUP3 SUB PUSH2 0xD67 JUMPI DUP5 SWAP2 PUSH1 0x64 PUSH1 0x20 SWAP3 DUP7 MLOAD SWAP5 DUP6 SWAP4 DUP5 SWAP3 PUSH4 0x23B872DD PUSH1 0xE0 SHL DUP5 MSTORE CALLER SWAP1 DUP5 ADD MSTORE ADDRESS PUSH1 0x24 DUP5 ADD MSTORE DUP8 PUSH1 0x44 DUP5 ADD MSTORE GAS CALL SWAP3 DUP4 ISZERO PUSH2 0xD5E JUMPI POP PUSH2 0xD3A SWAP3 PUSH2 0xD32 SWAP2 DUP6 SWAP2 PUSH2 0xD40 JUMPI JUMPDEST POP PUSH2 0x23D4 JUMP JUMPDEST PUSH1 0x9 SLOAD PUSH2 0x234D JUMP JUMPDEST PUSH1 0x9 SSTORE DUP1 RETURN JUMPDEST PUSH2 0xD58 SWAP2 POP PUSH1 0x20 RETURNDATASIZE DUP2 GT PUSH2 0x530 JUMPI PUSH2 0x522 DUP2 DUP4 PUSH2 0x229E JUMP JUMPDEST CODESIZE PUSH2 0xD2C JUMP JUMPDEST MLOAD RETURNDATASIZE DUP6 DUP3 RETURNDATACOPY RETURNDATASIZE SWAP1 REVERT JUMPDEST PUSH1 0x64 SWAP1 PUSH1 0x20 DUP6 MLOAD SWAP2 PUSH3 0x461BCD PUSH1 0xE5 SHL DUP4 MSTORE DUP3 ADD MSTORE PUSH1 0xD PUSH1 0x24 DUP3 ADD MSTORE PUSH13 0x24B73B30B634B2103A37B5B2B7 PUSH1 0x99 SHL PUSH1 0x44 DUP3 ADD MSTORE REVERT JUMPDEST SWAP2 SWAP1 POP CALLVALUE PUSH2 0x265 JUMPI PUSH1 0x20 CALLDATASIZE PUSH1 0x3 NOT ADD SLT PUSH2 0x265 JUMPI PUSH2 0xCA3 SWAP3 POP PUSH2 0xDBB PUSH2 0x2E62 JUMP JUMPDEST POP PUSH2 0xDC6 DUP3 CALLDATALOAD PUSH2 0x24F9 JUMP JUMPDEST POP DUP1 SLOAD SWAP3 PUSH1 0x1 DUP3 ADD SLOAD SWAP2 PUSH1 0x2 DUP2 ADD SLOAD SWAP1 PUSH1 0x3 DUP2 ADD SLOAD SWAP3 PUSH1 0x1 DUP1 PUSH1 0xA0 SHL SUB SWAP2 ADD SLOAD AND SWAP3 DUP5 MLOAD SWAP6 PUSH2 0xDF4 DUP8 PUSH2 0x2224 JUMP JUMPDEST DUP7 MSTORE PUSH1 0x20 DUP7 ADD MSTORE DUP4 DUP6 ADD MSTORE PUSH1 0x60 DUP5 ADD MSTORE PUSH1 0x80 DUP4 ADD MSTORE MLOAD SWAP2 DUP3 SWAP2 DUP3 SWAP2 SWAP1 SWAP2 PUSH1 0x80 PUSH1 0xA0 DUP3 ADD SWAP4 DUP1 MLOAD DUP4 MSTORE PUSH1 0x20 DUP2 ADD MLOAD PUSH1 0x20 DUP5 ADD MSTORE PUSH1 0x40 DUP2 ADD MLOAD PUSH1 0x40 DUP5 ADD MSTORE PUSH1 0x60 DUP2 ADD MLOAD PUSH1 0x60 DUP5 ADD MSTORE DUP2 PUSH1 0x1 DUP1 PUSH1 0xA0 SHL SUB SWAP2 ADD MLOAD AND SWAP2 ADD MSTORE JUMP JUMPDEST DUP4 SWAP2 POP CALLVALUE PUSH2 0x1ED JUMPI DUP3 PUSH1 0x3 NOT CALLDATASIZE ADD SLT PUSH2 0x1ED JUMPI PUSH2 0xE66 PUSH2 0x20A6 JUMP JUMPDEST SWAP3 PUSH2 0xE6F PUSH2 0x22DA JUMP JUMPDEST PUSH1 0x1 DUP1 PUSH1 0xA0 SHL SUB SWAP2 DUP3 PUSH1 0x2 SLOAD AND SWAP5 DUP3 MLOAD PUSH4 0xBD85B039 PUSH1 0xE0 SHL DUP2 MSTORE PUSH1 0x2 DUP4 DUP3 ADD MSTORE PUSH1 0x20 SWAP1 DUP2 DUP2 PUSH1 0x24 DUP2 DUP12 GAS STATICCALL SWAP1 DUP2 ISZERO PUSH2 0xF76 JUMPI DUP8 SWAP2 PUSH2 0xF49 JUMPI JUMPDEST POP PUSH2 0xF08 JUMPI POP DUP6 DUP6 SWAP7 EXTCODESIZE ISZERO PUSH2 0xF04 JUMPI DUP6 SWAP3 DUP4 PUSH1 0x44 SWAP3 DUP7 MLOAD SWAP8 DUP9 SWAP6 DUP7 SWAP5 PUSH4 0x9D3BC4BD PUSH1 0xE0 SHL DUP7 MSTORE DUP1 CALLDATALOAD SWAP1 DUP7 ADD MSTORE AND PUSH1 0x24 DUP5 ADD MSTORE GAS CALL SWAP1 DUP2 ISZERO PUSH2 0xEFB JUMPI POP PUSH2 0xEEB JUMPI POP RETURN JUMPDEST PUSH2 0xEF4 SWAP1 PUSH2 0x2255 JUMP JUMPDEST PUSH2 0x2BF JUMPI DUP1 RETURN JUMPDEST MLOAD RETURNDATASIZE DUP5 DUP3 RETURNDATACOPY RETURNDATASIZE SWAP1 REVERT JUMPDEST DUP6 DUP1 REVERT JUMPDEST DUP1 SWAP2 POP PUSH1 0x64 SWAP4 MLOAD SWAP3 PUSH3 0x461BCD PUSH1 0xE5 SHL DUP5 MSTORE DUP4 ADD MSTORE PUSH1 0x24 DUP3 ADD MSTORE PUSH32 0x4275796F757420746F6B656E20616C726561647920696E697469616C697A6564 PUSH1 0x44 DUP3 ADD MSTORE REVERT JUMPDEST SWAP1 POP DUP2 DUP2 DUP2 RETURNDATASIZE DUP4 GT PUSH2 0xF6F JUMPI JUMPDEST PUSH2 0xF60 DUP2 DUP4 PUSH2 0x229E JUMP JUMPDEST DUP2 ADD SUB SLT PUSH2 0x56B JUMPI MLOAD DUP9 PUSH2 0xEA8 JUMP JUMPDEST POP RETURNDATASIZE PUSH2 0xF56 JUMP JUMPDEST DUP6 MLOAD RETURNDATASIZE DUP10 DUP3 RETURNDATACOPY RETURNDATASIZE SWAP1 REVERT JUMPDEST POP POP CALLVALUE PUSH2 0x1ED JUMPI DUP2 PUSH1 0x3 NOT CALLDATASIZE ADD SLT PUSH2 0x1ED JUMPI SWAP1 SLOAD SWAP1 MLOAD PUSH1 0x1 PUSH1 0x1 PUSH1 0xA0 SHL SUB SWAP1 SWAP2 AND DUP2 MSTORE PUSH1 0x20 SWAP1 RETURN JUMPDEST SWAP2 SWAP1 POP CALLVALUE PUSH2 0x265 JUMPI DUP3 PUSH1 0x3 NOT CALLDATASIZE ADD SLT PUSH2 0x265 JUMPI PUSH2 0xFCA PUSH1 0xFF PUSH1 0xD SLOAD AND ISZERO PUSH2 0x2370 JUMP JUMPDEST PUSH1 0x8 SLOAD SWAP1 DUP2 ISZERO PUSH2 0x118E JUMPI PUSH1 0x1 DUP1 PUSH1 0xA0 SHL SUB DUP1 PUSH1 0x2 SLOAD AND PUSH1 0x6 SLOAD DUP4 MLOAD SWAP2 DUP3 SWAP2 PUSH4 0xBD85B039 PUSH1 0xE0 SHL DUP4 MSTORE DUP8 DUP4 ADD MSTORE DUP2 PUSH1 0x24 PUSH1 0x20 SWAP5 DUP6 SWAP4 GAS STATICCALL SWAP1 DUP2 ISZERO PUSH2 0x1184 JUMPI DUP8 SWAP2 PUSH2 0x1157 JUMPI JUMPDEST POP PUSH2 0x101A DUP2 ISZERO ISZERO PUSH2 0x2E24 JUMP JUMPDEST PUSH8 0xDE0B6B3A7640000 DUP6 MUL PUSH8 0xDE0B6B3A763FFFF NOT DUP7 DUP3 DIV ADD PUSH2 0x1144 JUMPI SWAP1 PUSH2 0x1041 SWAP2 PUSH2 0x258C JUMP JUMPDEST SWAP2 PUSH1 0xB SLOAD SWAP1 DUP5 MLOAD PUSH2 0x1051 DUP2 PUSH2 0x2224 JUMP JUMPDEST DUP3 DUP2 MSTORE DUP4 DUP2 ADD DUP8 DUP2 MSTORE DUP7 DUP3 ADD DUP7 DUP2 MSTORE PUSH1 0x60 DUP4 ADD SWAP2 TIMESTAMP DUP4 MSTORE PUSH1 0x80 DUP5 ADD SWAP6 CALLER DUP8 MSTORE PUSH1 0x1 PUSH1 0x40 SHL DUP2 LT ISZERO PUSH2 0x112F JUMPI DUP1 PUSH1 0x1 PUSH2 0x108C SWAP3 ADD PUSH1 0xB SSTORE PUSH2 0x24F9 JUMP JUMPDEST SWAP5 SWAP1 SWAP5 PUSH2 0x111B JUMPI MLOAD DUP5 SSTORE MLOAD PUSH1 0x1 DUP5 ADD SSTORE MLOAD PUSH1 0x2 DUP4 ADD SSTORE MLOAD PUSH1 0x3 DUP3 ADD SSTORE SWAP2 MLOAD SWAP2 DUP8 ADD DUP1 SLOAD PUSH1 0x1 PUSH1 0x1 PUSH1 0xA0 SHL SUB NOT AND SWAP2 SWAP1 SWAP3 AND OR SWAP1 SSTORE PUSH1 0xB SLOAD PUSH1 0x0 NOT DUP2 ADD SWAP6 SWAP1 DUP7 GT PUSH2 0x1108 JUMPI POP DUP3 MLOAD SWAP4 DUP5 MSTORE DUP4 ADD MSTORE PUSH1 0x1 SWAP1 DUP3 ADD MSTORE PUSH32 0x77841C1AE75DE1A1C173CB7FFD7F1DC25D09ACA1E636B17A232B67072624BAB8 SWAP1 PUSH1 0x60 SWAP1 LOG2 DUP1 RETURN JUMPDEST PUSH4 0x4E487B71 PUSH1 0xE0 SHL DUP8 MSTORE PUSH1 0x11 SWAP1 MSTORE PUSH1 0x24 DUP7 REVERT JUMPDEST PUSH1 0x0 DUP13 PUSH4 0x4E487B71 PUSH1 0xE0 SHL DUP3 MSTORE MSTORE PUSH1 0x24 PUSH1 0x0 REVERT JUMPDEST PUSH1 0x41 DUP13 PUSH4 0x4E487B71 PUSH1 0xE0 SHL PUSH1 0x0 MSTORE MSTORE PUSH1 0x24 PUSH1 0x0 REVERT JUMPDEST PUSH4 0x4E487B71 PUSH1 0xE0 SHL DUP9 MSTORE PUSH1 0x11 DUP8 MSTORE PUSH1 0x24 DUP9 REVERT JUMPDEST SWAP1 POP DUP2 DUP2 DUP2 RETURNDATASIZE DUP4 GT PUSH2 0x117D JUMPI JUMPDEST PUSH2 0x116E DUP2 DUP4 PUSH2 0x229E JUMP JUMPDEST DUP2 ADD SUB SLT PUSH2 0x56B JUMPI MLOAD CODESIZE PUSH2 0x100E JUMP JUMPDEST POP RETURNDATASIZE PUSH2 0x1164 JUMP JUMPDEST DUP5 MLOAD RETURNDATASIZE DUP10 DUP3 RETURNDATACOPY RETURNDATASIZE SWAP1 REVERT JUMPDEST MLOAD PUSH3 0x461BCD PUSH1 0xE5 SHL DUP2 MSTORE PUSH1 0x20 DUP2 DUP5 ADD MSTORE PUSH1 0x14 PUSH1 0x24 DUP3 ADD MSTORE PUSH20 0x4E6F2045544820746F2064697374726962757465 PUSH1 0x60 SHL PUSH1 0x44 DUP3 ADD MSTORE PUSH1 0x64 SWAP1 REVERT JUMPDEST SWAP2 SWAP1 POP CALLVALUE PUSH2 0x265 JUMPI PUSH1 0x20 CALLDATASIZE PUSH1 0x3 NOT ADD SLT PUSH2 0x265 JUMPI PUSH2 0x11E3 PUSH2 0x2090 JUMP JUMPDEST PUSH1 0x2 SLOAD SWAP3 PUSH1 0x1 PUSH1 0x1 PUSH1 0xA0 SHL SUB SWAP3 DUP4 DUP6 AND PUSH2 0x1213 JUMPI POP POP AND SWAP1 PUSH12 0xFFFFFFFFFFFFFFFFFFFFFFFF PUSH1 0xA0 SHL AND OR PUSH1 0x2 SSTORE DUP1 RETURN JUMPDEST SWAP1 PUSH1 0x20 PUSH1 0x64 SWAP3 MLOAD SWAP2 PUSH3 0x461BCD PUSH1 0xE5 SHL DUP4 MSTORE DUP3 ADD MSTORE PUSH1 0x13 PUSH1 0x24 DUP3 ADD MSTORE PUSH19 0x15D4D51BDAD95B88185B1C9958591E481CD95D PUSH1 0x6A SHL PUSH1 0x44 DUP3 ADD MSTORE REVERT JUMPDEST DUP4 CALLVALUE PUSH2 0x2BF JUMPI DUP1 PUSH1 0x3 NOT CALLDATASIZE ADD SLT PUSH2 0x2BF JUMPI PUSH2 0x1265 PUSH2 0x22DA JUMP JUMPDEST PUSH1 0x0 DUP1 SLOAD PUSH1 0x1 PUSH1 0x1 PUSH1 0xA0 SHL SUB NOT DUP2 AND DUP3 SSTORE PUSH1 0x1 PUSH1 0x1 PUSH1 0xA0 SHL SUB AND PUSH32 0x8BE0079C531659141344CD1FD0A4F28419497F9722A3DAAFE3B4186F6B6457E0 DUP3 DUP1 LOG3 DUP1 RETURN JUMPDEST SWAP2 SWAP1 POP CALLVALUE PUSH2 0x265 JUMPI PUSH1 0x20 DUP1 PUSH1 0x3 NOT CALLDATASIZE ADD SLT PUSH2 0x595 JUMPI DUP3 CALLDATALOAD SWAP2 PUSH2 0x12C6 PUSH2 0x261E JUMP JUMPDEST PUSH2 0x12D5 PUSH1 0xFF PUSH1 0xD SLOAD AND ISZERO PUSH2 0x2370 JUMP JUMPDEST PUSH1 0x2 SLOAD PUSH1 0x6 SLOAD DUP3 MLOAD PUSH3 0x7EEAC7 PUSH1 0xE1 SHL DUP2 MSTORE CALLER DUP8 DUP3 ADD SWAP1 DUP2 MSTORE PUSH1 0x20 DUP2 ADD DUP4 SWAP1 MSTORE SWAP2 SWAP5 PUSH1 0x1 PUSH1 0x1 PUSH1 0xA0 SHL SUB SWAP1 SWAP4 AND SWAP3 SWAP2 DUP3 SWAP1 DUP3 SWAP1 DUP2 SWAP1 PUSH1 0x40 ADD SUB DUP2 DUP7 GAS STATICCALL SWAP1 DUP2 ISZERO PUSH2 0x1735 JUMPI DUP9 SWAP2 PUSH2 0x173F JUMPI JUMPDEST POP ISZERO DUP1 ISZERO SWAP1 PUSH2 0x16B2 JUMPI JUMPDEST PUSH2 0x1332 SWAP1 PUSH2 0x241F JUMP JUMPDEST CALLER DUP8 MSTORE PUSH1 0xA DUP2 MSTORE PUSH1 0x1 SWAP6 DUP7 DUP5 DUP10 KECCAK256 ADD SWAP2 DUP8 DUP4 SLOAD SWAP8 DUP9 PUSH1 0xB SLOAD PUSH2 0x1355 DUP3 DUP3 GT PUSH2 0x245D JUMP JUMPDEST DUP3 ISZERO PUSH2 0x168C JUMPI SWAP1 PUSH2 0x1365 SWAP2 PUSH2 0x2412 JUMP JUMPDEST DUP1 DUP3 LT ISZERO PUSH2 0x1685 JUMPI POP JUMPDEST SWAP5 SWAP1 POP JUMPDEST DUP10 SWAP7 DUP9 DUP11 JUMPDEST PUSH2 0x149C JUMPI JUMPDEST POP POP POP DUP6 ISZERO PUSH2 0x145A JUMPI PUSH1 0x8 SLOAD DUP7 GT PUSH2 0x1418 JUMPI POP POP SWAP2 PUSH2 0x1410 PUSH2 0x13F2 DUP4 PUSH32 0x33508FA3C05F271D76112F2A1C190707F316B34540511262F6D62BFF50A02854 SWAP6 PUSH2 0x13C8 DUP10 SWAP9 SWAP7 DUP13 SWAP11 PUSH2 0x234D JUMP JUMPDEST SWAP1 SSTORE PUSH2 0x13D6 DUP6 PUSH1 0x8 SLOAD PUSH2 0x2412 JUMP JUMPDEST PUSH1 0x8 SSTORE PUSH2 0x13EC DUP9 DUP1 DUP1 DUP1 DUP10 CALLER GAS CALL PUSH2 0x46B PUSH2 0x25AC JUMP JUMPDEST DUP7 PUSH2 0x234D JUMP JUMPDEST SWAP2 MLOAD SWAP3 DUP4 SWAP3 CALLER SWAP7 DUP5 PUSH1 0x40 SWAP2 SWAP5 SWAP4 SWAP3 PUSH1 0x60 DUP3 ADD SWAP6 DUP3 MSTORE PUSH1 0x20 DUP3 ADD MSTORE ADD MSTORE JUMP JUMPDEST SUB SWAP1 LOG3 DUP1 SSTORE DUP1 RETURN JUMPDEST DUP5 MLOAD PUSH3 0x461BCD PUSH1 0xE5 SHL DUP2 MSTORE SWAP2 DUP3 ADD MSTORE PUSH1 0x1D PUSH1 0x24 DUP3 ADD MSTORE PUSH32 0x496E73756666696369656E7420636F6E74726163742062616C616E6365000000 PUSH1 0x44 DUP3 ADD MSTORE PUSH1 0x64 SWAP2 POP REVERT JUMPDEST DUP5 MLOAD PUSH3 0x461BCD PUSH1 0xE5 SHL DUP2 MSTORE SWAP2 DUP3 ADD MSTORE PUSH1 0x18 PUSH1 0x24 DUP3 ADD MSTORE PUSH32 0x4E6F20455448206561726E696E677320746F20636C61696D0000000000000000 PUSH1 0x44 DUP3 ADD MSTORE PUSH1 0x64 SWAP2 POP REVERT JUMPDEST PUSH2 0x14A6 DUP8 DUP12 PUSH2 0x234D JUMP JUMPDEST DUP2 LT ISZERO PUSH2 0x1680 JUMPI PUSH2 0x14BF PUSH2 0x14B9 DUP3 PUSH2 0x24F9 JUMP JUMPDEST POP PUSH2 0x2534 JUMP JUMPDEST PUSH1 0x60 DUP2 DUP2 ADD MLOAD DUP11 MLOAD PUSH4 0xC4DB40D PUSH1 0xE3 SHL DUP2 MSTORE CALLER DUP10 DUP3 ADD SWAP1 DUP2 MSTORE PUSH1 0x20 DUP2 ADD DUP8 SWAP1 MSTORE PUSH1 0x40 DUP2 ADD SWAP3 SWAP1 SWAP3 MSTORE DUP16 SWAP3 SWAP1 SWAP2 DUP9 SWAP2 DUP4 SWAP2 DUP3 SWAP2 ADD SUB DUP2 DUP10 GAS STATICCALL SWAP2 DUP3 ISZERO PUSH2 0x1675 JUMPI SWAP1 DUP15 SWAP7 SWAP6 SWAP5 SWAP4 SWAP3 PUSH2 0x1644 JUMPI JUMPDEST POP DUP1 PUSH2 0x1524 JUMPI JUMPDEST POP POP PUSH2 0x151C SWAP1 PUSH2 0x2499 JUMP JUMPDEST SWAP1 SWAP2 SWAP3 PUSH2 0x1378 JUMP JUMPDEST SWAP1 SWAP11 SWAP2 SWAP3 SWAP4 SWAP5 POP DUP10 DUP12 ADD PUSH2 0x1543 PUSH2 0x153C DUP3 MLOAD DUP5 PUSH2 0x2579 JUMP JUMPDEST SWAP3 DUP4 PUSH2 0x258C JUMP JUMPDEST SWAP1 MLOAD SUB PUSH2 0x1601 JUMPI PUSH8 0xDE0B6B3A7640000 DUP7 SWAP2 DIV SWAP11 ADD MLOAD DUP11 GT PUSH2 0x15BE JUMPI DUP10 PUSH2 0x1569 SWAP2 PUSH2 0x234D JUMP JUMPDEST SWAP9 DUP10 LT PUSH2 0x157B JUMPI SWAP1 DUP11 SWAP3 SWAP2 CODESIZE DUP1 PUSH2 0x1511 JUMP JUMPDEST DUP8 MLOAD PUSH3 0x461BCD PUSH1 0xE5 SHL DUP2 MSTORE DUP1 DUP7 ADD DUP6 SWAP1 MSTORE PUSH1 0x18 PUSH1 0x24 DUP3 ADD MSTORE PUSH32 0x546F74616C20756E636C61696D6564206F766572666C6F770000000000000000 PUSH1 0x44 DUP3 ADD MSTORE PUSH1 0x64 SWAP1 REVERT JUMPDEST DUP9 MLOAD PUSH3 0x461BCD PUSH1 0xE5 SHL DUP2 MSTORE DUP1 DUP8 ADD DUP7 SWAP1 MSTORE PUSH1 0x1A PUSH1 0x24 DUP3 ADD MSTORE PUSH32 0x53686172652063616C63756C6174696F6E206F766572666C6F77000000000000 PUSH1 0x44 DUP3 ADD MSTORE PUSH1 0x64 SWAP1 REVERT JUMPDEST DUP10 MLOAD PUSH3 0x461BCD PUSH1 0xE5 SHL DUP2 MSTORE DUP1 DUP9 ADD DUP8 SWAP1 MSTORE PUSH1 0x17 PUSH1 0x24 DUP3 ADD MSTORE PUSH32 0x4D756C7469706C69636174696F6E206F766572666C6F77000000000000000000 PUSH1 0x44 DUP3 ADD MSTORE PUSH1 0x64 SWAP1 REVERT JUMPDEST DUP1 SWAP7 POP DUP8 DUP1 SWAP3 POP RETURNDATASIZE DUP4 GT PUSH2 0x166E JUMPI JUMPDEST PUSH2 0x165D DUP2 DUP4 PUSH2 0x229E JUMP JUMPDEST DUP2 ADD SUB SLT PUSH2 0x56B JUMPI DUP13 SWAP5 MLOAD CODESIZE PUSH2 0x150A JUMP JUMPDEST POP RETURNDATASIZE PUSH2 0x1653 JUMP JUMPDEST DUP12 MLOAD SWAP1 RETURNDATASIZE SWAP1 DUP3 RETURNDATACOPY RETURNDATASIZE SWAP1 REVERT JUMPDEST PUSH2 0x137D JUMP JUMPDEST SWAP1 POP PUSH2 0x136F JUMP JUMPDEST PUSH2 0x1696 SWAP3 POP PUSH2 0x2412 JUMP JUMPDEST DUP1 PUSH1 0x32 LT PUSH1 0x0 EQ PUSH2 0x16AD JUMPI POP PUSH1 0x32 JUMPDEST SWAP5 SWAP1 POP PUSH2 0x1373 JUMP JUMPDEST PUSH2 0x16A5 JUMP JUMPDEST POP PUSH1 0x0 NOT TIMESTAMP ADD TIMESTAMP DUP2 GT PUSH2 0x1144 JUMPI DUP4 MLOAD PUSH4 0xC4DB40D PUSH1 0xE3 SHL DUP2 MSTORE CALLER DUP9 DUP3 ADD SWAP1 DUP2 MSTORE PUSH1 0x20 DUP2 ADD DUP8 SWAP1 MSTORE PUSH1 0x40 DUP2 ADD SWAP3 SWAP1 SWAP3 MSTORE SWAP1 DUP3 SWAP1 DUP3 SWAP1 DUP2 SWAP1 PUSH1 0x60 ADD SUB DUP2 DUP7 GAS STATICCALL DUP1 ISZERO PUSH2 0x1735 JUMPI DUP9 SWAP1 PUSH2 0x1706 JUMPI JUMPDEST ISZERO ISZERO SWAP1 POP PUSH2 0x1329 JUMP JUMPDEST POP DUP2 DUP2 DUP2 RETURNDATASIZE DUP4 GT PUSH2 0x172E JUMPI JUMPDEST PUSH2 0x171C DUP2 DUP4 PUSH2 0x229E JUMP JUMPDEST DUP2 ADD SUB SLT PUSH2 0x56B JUMPI PUSH2 0x1332 SWAP1 MLOAD PUSH2 0x16FD JUMP JUMPDEST POP RETURNDATASIZE PUSH2 0x1712 JUMP JUMPDEST DUP5 MLOAD RETURNDATASIZE DUP11 DUP3 RETURNDATACOPY RETURNDATASIZE SWAP1 REVERT JUMPDEST SWAP1 POP DUP2 DUP2 DUP2 RETURNDATASIZE DUP4 GT PUSH2 0x1765 JUMPI JUMPDEST PUSH2 0x1756 DUP2 DUP4 PUSH2 0x229E JUMP JUMPDEST DUP2 ADD SUB SLT PUSH2 0x56B JUMPI MLOAD CODESIZE PUSH2 0x131F JUMP JUMPDEST POP RETURNDATASIZE PUSH2 0x174C JUMP JUMPDEST POP POP CALLVALUE PUSH2 0x1ED JUMPI PUSH1 0x20 CALLDATASIZE PUSH1 0x3 NOT ADD SLT PUSH2 0x1ED JUMPI PUSH1 0x20 SWAP1 PUSH2 0x1E6 PUSH2 0x178D PUSH2 0x2090 JUMP JUMPDEST PUSH2 0x2B38 JUMP JUMPDEST POP POP CALLVALUE PUSH2 0x1ED JUMPI DUP2 PUSH1 0x3 NOT CALLDATASIZE ADD SLT PUSH2 0x1ED JUMPI PUSH1 0x20 SWAP1 PUSH1 0x9 SLOAD SWAP1 MLOAD SWAP1 DUP2 MSTORE RETURN JUMPDEST SWAP1 POP CALLVALUE PUSH2 0x265 JUMPI DUP3 PUSH1 0x3 NOT CALLDATASIZE ADD SLT PUSH2 0x265 JUMPI SLOAD SWAP1 MLOAD PUSH1 0x1 PUSH1 0x1 PUSH1 0xA0 SHL SUB SWAP1 SWAP2 AND DUP2 MSTORE PUSH1 0x20 SWAP2 POP RETURN JUMPDEST POP POP CALLVALUE PUSH2 0x1ED JUMPI PUSH1 0x20 CALLDATASIZE PUSH1 0x3 NOT ADD SLT PUSH2 0x1ED JUMPI PUSH2 0xCA3 SWAP1 PUSH2 0xC95 PUSH2 0x17FB PUSH2 0x2090 JUMP JUMPDEST PUSH2 0x274E JUMP JUMPDEST POP POP CALLVALUE PUSH2 0x1ED JUMPI DUP2 PUSH1 0x3 NOT CALLDATASIZE ADD SLT PUSH2 0x1ED JUMPI PUSH1 0x20 SWAP1 PUSH1 0x8 SLOAD SWAP1 MLOAD SWAP1 DUP2 MSTORE RETURN JUMPDEST SWAP2 SWAP1 POP CALLVALUE PUSH2 0x265 JUMPI PUSH1 0x20 CALLDATASIZE PUSH1 0x3 NOT ADD SLT PUSH2 0x265 JUMPI PUSH2 0xCA3 SWAP3 POP PUSH2 0x1840 PUSH2 0x2E62 JUMP JUMPDEST POP PUSH2 0xDC6 DUP3 CALLDATALOAD PUSH2 0x24A8 JUMP JUMPDEST POP POP CALLVALUE PUSH2 0x1ED JUMPI DUP2 PUSH1 0x3 NOT CALLDATASIZE ADD SLT PUSH2 0x1ED JUMPI PUSH1 0x20 SWAP1 PUSH1 0x7 SLOAD SWAP1 MLOAD SWAP1 DUP2 MSTORE RETURN JUMPDEST DUP4 DUP4 CALLVALUE PUSH2 0x1ED JUMPI PUSH1 0x20 SWAP3 DUP4 PUSH1 0x3 NOT CALLDATASIZE ADD SLT PUSH2 0x265 JUMPI PUSH1 0x2 SLOAD DUP3 MLOAD PUSH4 0xBD85B039 PUSH1 0xE0 SHL DUP2 MSTORE PUSH1 0x1 DUP4 DUP3 ADD MSTORE PUSH1 0x1 PUSH1 0x1 PUSH1 0xA0 SHL SUB SWAP1 SWAP2 AND SWAP1 DUP6 DUP2 PUSH1 0x24 DUP2 DUP6 GAS STATICCALL SWAP1 DUP2 ISZERO PUSH2 0x1973 JUMPI DUP6 SWAP2 PUSH2 0x1942 JUMPI JUMPDEST POP PUSH2 0x1900 JUMPI DUP4 SWAP5 POP DUP1 EXTCODESIZE ISZERO PUSH2 0x18FB JUMPI PUSH1 0x24 DUP5 SWAP3 DUP5 MLOAD SWAP6 DUP7 SWAP4 DUP5 SWAP3 PUSH4 0x39FA62DF PUSH1 0xE0 SHL DUP5 MSTORE DUP1 CALLDATALOAD SWAP1 DUP5 ADD MSTORE GAS CALL SWAP1 DUP2 ISZERO PUSH2 0xEFB JUMPI POP PUSH2 0x18F2 JUMPI POP DUP1 RETURN JUMPDEST PUSH2 0x24C SWAP1 PUSH2 0x2255 JUMP JUMPDEST POP POP POP REVERT JUMPDEST POP DUP4 PUSH1 0x64 SWAP3 MLOAD SWAP2 PUSH3 0x461BCD PUSH1 0xE5 SHL DUP4 MSTORE DUP3 ADD MSTORE PUSH1 0x1A PUSH1 0x24 DUP3 ADD MSTORE PUSH32 0x53686172657320616C726561647920696E697469616C697A6564000000000000 PUSH1 0x44 DUP3 ADD MSTORE REVERT JUMPDEST SWAP1 POP DUP6 DUP2 DUP2 RETURNDATASIZE DUP4 GT PUSH2 0x196C JUMPI JUMPDEST PUSH2 0x1959 DUP2 DUP4 PUSH2 0x229E JUMP JUMPDEST DUP2 ADD SUB SLT PUSH2 0x1968 JUMPI MLOAD DUP7 PUSH2 0x18B6 JUMP JUMPDEST DUP5 DUP1 REVERT JUMPDEST POP RETURNDATASIZE PUSH2 0x194F JUMP JUMPDEST DUP5 MLOAD RETURNDATASIZE DUP8 DUP3 RETURNDATACOPY RETURNDATASIZE SWAP1 REVERT JUMPDEST POP POP CALLVALUE PUSH2 0x1ED JUMPI DUP2 PUSH1 0x3 NOT CALLDATASIZE ADD SLT PUSH2 0x1ED JUMPI PUSH1 0x5 SLOAD SWAP1 MLOAD PUSH1 0x1 PUSH1 0x1 PUSH1 0xA0 SHL SUB SWAP1 SWAP2 AND DUP2 MSTORE PUSH1 0x20 SWAP1 RETURN JUMPDEST POP POP CALLVALUE PUSH2 0x1ED JUMPI DUP1 PUSH1 0x3 NOT CALLDATASIZE ADD SLT PUSH2 0x1ED JUMPI PUSH1 0x60 SWAP1 PUSH2 0x19D4 PUSH2 0x19C6 PUSH2 0x2090 JUMP JUMPDEST PUSH2 0x19CE PUSH2 0x20A6 JUMP JUMPDEST SWAP1 PUSH2 0x2641 JUMP JUMPDEST SWAP2 SWAP3 SWAP1 DUP2 MLOAD SWAP4 ISZERO ISZERO DUP5 MSTORE PUSH1 0x20 DUP5 ADD MSTORE DUP3 ADD MSTORE RETURN JUMPDEST POP POP CALLVALUE PUSH2 0x1ED JUMPI DUP2 PUSH1 0x3 NOT CALLDATASIZE ADD SLT PUSH2 0x1ED JUMPI PUSH1 0x20 SWAP1 PUSH1 0xFF PUSH1 0xD SLOAD AND SWAP1 MLOAD SWAP1 ISZERO ISZERO DUP2 MSTORE RETURN JUMPDEST SWAP2 SWAP1 POP CALLVALUE PUSH2 0x265 JUMPI DUP3 PUSH1 0x3 NOT CALLDATASIZE ADD SLT PUSH2 0x265 JUMPI PUSH2 0x1A2E PUSH1 0xFF PUSH1 0xD SLOAD AND ISZERO PUSH2 0x2370 JUMP JUMPDEST PUSH1 0x9 SLOAD SWAP1 DUP2 ISZERO PUSH2 0x1C41 JUMPI PUSH1 0x2 SLOAD PUSH1 0x6 SLOAD DUP3 MLOAD PUSH4 0xBD85B039 PUSH1 0xE0 SHL DUP2 MSTORE DUP6 DUP2 ADD SWAP2 SWAP1 SWAP2 MSTORE PUSH1 0x20 SWAP4 PUSH1 0x1 PUSH1 0x1 PUSH1 0xA0 SHL SUB SWAP3 PUSH1 0x24 SWAP3 SWAP1 DUP7 SWAP1 DUP3 SWAP1 DUP6 SWAP1 DUP3 SWAP1 DUP9 AND GAS STATICCALL SWAP1 DUP2 ISZERO PUSH2 0x1C37 JUMPI DUP9 SWAP2 PUSH2 0x1C06 JUMPI JUMPDEST POP PUSH2 0x1A87 DUP2 ISZERO ISZERO PUSH2 0x2E24 JUMP JUMPDEST PUSH8 0xDE0B6B3A7640000 DUP3 MUL PUSH8 0xDE0B6B3A763FFFF NOT DUP4 DUP3 DIV ADD PUSH2 0x1BF4 JUMPI SWAP1 PUSH2 0x1AAE SWAP2 PUSH2 0x258C JUMP JUMPDEST PUSH1 0xC SLOAD SWAP1 SWAP4 SWAP1 SWAP2 DUP3 ISZERO PUSH2 0x1BEF JUMPI PUSH1 0x0 NOT DUP4 ADD DUP4 DUP2 GT PUSH2 0x1BDD JUMPI SWAP1 PUSH1 0x1 PUSH2 0x1AD6 PUSH2 0x1ADE SWAP4 PUSH2 0x24A8 JUMP JUMPDEST POP ADD SLOAD PUSH2 0x234D JUMP JUMPDEST DUP6 MLOAD SWAP1 PUSH2 0x1AEA DUP3 PUSH2 0x2224 JUMP JUMPDEST DUP4 DUP3 MSTORE DUP8 DUP3 ADD SWAP1 DUP2 MSTORE DUP7 DUP3 ADD DUP7 DUP2 MSTORE PUSH1 0x60 DUP4 ADD SWAP2 TIMESTAMP DUP4 MSTORE PUSH1 0x80 DUP5 ADD SWAP6 CALLER DUP8 MSTORE PUSH1 0x1 PUSH1 0x40 SHL DUP2 LT ISZERO PUSH2 0x1BCB JUMPI DUP1 PUSH1 0x1 PUSH2 0x1B25 SWAP3 ADD PUSH1 0xC SSTORE PUSH2 0x24A8 JUMP JUMPDEST SWAP5 SWAP1 SWAP5 PUSH2 0x1BBA JUMPI MLOAD DUP5 SSTORE MLOAD PUSH1 0x1 DUP5 ADD SSTORE MLOAD PUSH1 0x2 DUP4 ADD SSTORE MLOAD PUSH1 0x3 DUP3 ADD SSTORE SWAP2 MLOAD SWAP2 DUP8 ADD DUP1 SLOAD PUSH1 0x1 PUSH1 0x1 PUSH1 0xA0 SHL SUB NOT AND SWAP2 SWAP1 SWAP3 AND OR SWAP1 SSTORE PUSH1 0xC SLOAD PUSH1 0x0 NOT DUP2 ADD SWAP6 SWAP1 DUP7 GT PUSH2 0x1BA9 JUMPI POP POP SWAP2 DUP5 PUSH1 0x60 SWAP3 PUSH32 0x77841C1AE75DE1A1C173CB7FFD7F1DC25D09ACA1E636B17A232B67072624BAB8 SWAP5 PUSH1 0x9 SLOAD SWAP4 DUP3 MLOAD SWAP5 DUP6 MSTORE DUP5 ADD MSTORE DUP3 ADD MSTORE LOG2 DUP1 PUSH1 0x9 SSTORE DUP1 RETURN JUMPDEST PUSH4 0x4E487B71 PUSH1 0xE0 SHL DUP8 MSTORE PUSH1 0x11 SWAP1 MSTORE DUP6 REVERT JUMPDEST PUSH4 0x4E487B71 PUSH1 0xE0 SHL DUP14 MSTORE DUP13 DUP13 MSTORE DUP8 DUP14 REVERT JUMPDEST PUSH4 0x4E487B71 PUSH1 0xE0 SHL DUP14 MSTORE PUSH1 0x41 DUP13 MSTORE DUP8 DUP14 REVERT JUMPDEST PUSH4 0x4E487B71 PUSH1 0xE0 SHL DUP11 MSTORE PUSH1 0x11 DUP10 MSTORE DUP5 DUP11 REVERT JUMPDEST PUSH2 0x1ADE JUMP JUMPDEST PUSH4 0x4E487B71 PUSH1 0xE0 SHL DUP10 MSTORE PUSH1 0x11 DUP9 MSTORE DUP4 DUP10 REVERT JUMPDEST SWAP1 POP DUP6 DUP2 DUP2 RETURNDATASIZE DUP4 GT PUSH2 0x1C30 JUMPI JUMPDEST PUSH2 0x1C1D DUP2 DUP4 PUSH2 0x229E JUMP JUMPDEST DUP2 ADD SUB SLT PUSH2 0x1C2C JUMPI MLOAD CODESIZE PUSH2 0x1A7B JUMP JUMPDEST DUP8 DUP1 REVERT JUMPDEST POP RETURNDATASIZE PUSH2 0x1C13 JUMP JUMPDEST DUP6 MLOAD RETURNDATASIZE DUP11 DUP3 RETURNDATACOPY RETURNDATASIZE SWAP1 REVERT JUMPDEST MLOAD PUSH3 0x461BCD PUSH1 0xE5 SHL DUP2 MSTORE PUSH1 0x20 DUP2 DUP5 ADD MSTORE PUSH1 0x1D PUSH1 0x24 DUP3 ADD MSTORE PUSH32 0x4E6F206E6577206561726E696E677320746F2064697374726962757465000000 PUSH1 0x44 DUP3 ADD MSTORE PUSH1 0x64 SWAP1 REVERT JUMPDEST SWAP1 POP CALLVALUE PUSH2 0x265 JUMPI PUSH1 0x20 DUP1 PUSH1 0x3 NOT CALLDATASIZE ADD SLT PUSH2 0x595 JUMPI DUP2 CALLDATALOAD SWAP2 PUSH2 0x1CA2 PUSH2 0x261E JUMP JUMPDEST PUSH2 0x1CB1 PUSH1 0xFF PUSH1 0xD SLOAD AND ISZERO PUSH2 0x2370 JUMP JUMPDEST PUSH1 0x2 SLOAD PUSH1 0x6 SLOAD DUP6 MLOAD PUSH3 0x7EEAC7 PUSH1 0xE1 SHL DUP2 MSTORE CALLER DUP2 DUP6 ADD SWAP1 DUP2 MSTORE PUSH1 0x20 DUP2 ADD DUP4 SWAP1 MSTORE SWAP2 SWAP4 PUSH1 0x1 PUSH1 0x1 PUSH1 0xA0 SHL SUB SWAP4 DUP5 AND SWAP4 SWAP3 SWAP1 SWAP2 SWAP1 DUP7 SWAP1 DUP3 SWAP1 DUP2 SWAP1 PUSH1 0x40 ADD SUB DUP2 DUP8 GAS STATICCALL SWAP1 DUP2 ISZERO PUSH2 0x1FF3 JUMPI DUP10 SWAP2 PUSH2 0x2010 JUMPI JUMPDEST POP ISZERO DUP1 ISZERO SWAP1 PUSH2 0x1F6C JUMPI JUMPDEST PUSH2 0x1D11 SWAP1 PUSH2 0x241F JUMP JUMPDEST CALLER DUP9 MSTORE PUSH1 0xA DUP6 MSTORE DUP7 DUP9 KECCAK256 DUP1 SLOAD SWAP7 PUSH1 0xC SLOAD SWAP1 PUSH2 0x1D2D DUP10 DUP4 GT PUSH2 0x245D JUMP JUMPDEST DUP1 ISZERO PUSH2 0x1F61 JUMPI PUSH2 0x1D3E SWAP1 JUMPDEST DUP10 PUSH2 0x234D JUMP JUMPDEST SWAP1 DUP1 DUP3 LT ISZERO PUSH2 0x1F5A JUMPI POP JUMPDEST SWAP4 DUP10 SWAP6 DUP9 JUMPDEST DUP7 DUP2 LT PUSH2 0x1E69 JUMPI JUMPDEST POP POP POP DUP5 ISZERO PUSH2 0x1E26 JUMPI DUP4 SWAP1 SSTORE PUSH1 0x3 SLOAD DUP8 MLOAD PUSH4 0xA9059CBB PUSH1 0xE0 SHL DUP2 MSTORE CALLER SWAP3 DUP2 ADD SWAP3 DUP4 MSTORE PUSH1 0x20 DUP4 ADD DUP7 SWAP1 MSTORE SWAP3 SWAP2 DUP7 SWAP2 DUP5 SWAP2 DUP3 SWAP1 SUB PUSH1 0x40 ADD SWAP1 DUP3 SWAP1 DUP13 SWAP1 DUP7 AND GAS CALL SWAP5 DUP6 ISZERO PUSH2 0x1E1C JUMPI PUSH32 0x33508FA3C05F271D76112F2A1C190707F316B34540511262F6D62BFF50A02854 SWAP6 PUSH2 0x1DF5 SWAP4 PUSH2 0x1DD3 SWAP3 DUP12 SWAP3 PUSH2 0x1DFF JUMPI JUMPDEST POP POP PUSH2 0x23D4 JUMP JUMPDEST PUSH1 0x3 SLOAD AND SWAP6 MLOAD SWAP3 DUP4 SWAP3 CALLER SWAP7 DUP5 PUSH1 0x40 SWAP2 SWAP5 SWAP4 SWAP3 PUSH1 0x60 DUP3 ADD SWAP6 DUP3 MSTORE PUSH1 0x20 DUP3 ADD MSTORE ADD MSTORE JUMP JUMPDEST SUB SWAP1 LOG3 PUSH1 0x1 DUP1 SSTORE DUP1 RETURN JUMPDEST PUSH2 0x1E15 SWAP3 POP DUP1 RETURNDATASIZE LT PUSH2 0x530 JUMPI PUSH2 0x522 DUP2 DUP4 PUSH2 0x229E JUMP JUMPDEST CODESIZE DUP1 PUSH2 0x1DCC JUMP JUMPDEST DUP8 MLOAD RETURNDATASIZE DUP11 DUP3 RETURNDATACOPY RETURNDATASIZE SWAP1 REVERT JUMPDEST DUP8 MLOAD PUSH3 0x461BCD PUSH1 0xE5 SHL DUP2 MSTORE DUP1 DUP4 ADD DUP8 SWAP1 MSTORE PUSH1 0x1F PUSH1 0x24 DUP3 ADD MSTORE PUSH32 0x4E6F20737461626C65636F696E206561726E696E677320746F20636C61696D00 PUSH1 0x44 DUP3 ADD MSTORE PUSH1 0x64 SWAP1 REVERT JUMPDEST PUSH3 0x186A0 GAS LT PUSH2 0x1F4C JUMPI DUP12 DUP12 PUSH2 0x1E81 PUSH2 0x14B9 DUP5 PUSH2 0x24A8 JUMP JUMPDEST PUSH1 0x60 DUP2 DUP2 ADD MLOAD DUP4 MLOAD PUSH4 0xC4DB40D PUSH1 0xE3 SHL DUP2 MSTORE CALLER DUP2 DUP13 ADD SWAP1 DUP2 MSTORE PUSH1 0x20 DUP2 ADD DUP10 SWAP1 MSTORE PUSH1 0x40 DUP2 ADD SWAP3 SWAP1 SWAP3 MSTORE SWAP2 DUP15 SWAP2 DUP4 SWAP2 DUP3 SWAP2 ADD SUB DUP2 DUP11 GAS STATICCALL SWAP4 DUP5 ISZERO PUSH2 0x1F41 JUMPI SWAP4 PUSH2 0x1F0A JUMPI JUMPDEST POP DUP3 PUSH2 0x1EDB JUMPI JUMPDEST POP POP POP PUSH2 0x1ED6 SWAP1 PUSH2 0x2499 JUMP JUMPDEST PUSH2 0x1D4E JUMP JUMPDEST PUSH2 0x1EFA PUSH2 0x1F01 SWAP4 PUSH2 0x1ED6 SWAP6 SWAP13 SWAP4 PUSH8 0xDE0B6B3A7640000 SWAP4 ADD MLOAD SWAP1 PUSH2 0x2579 JUMP JUMPDEST DIV SWAP1 PUSH2 0x234D JUMP JUMPDEST SWAP8 SWAP1 DUP12 CODESIZE PUSH2 0x1ECA JUMP JUMPDEST DUP13 DUP1 SWAP3 SWAP5 POP DUP2 SWAP4 POP RETURNDATASIZE DUP4 GT PUSH2 0x1F3A JUMPI JUMPDEST PUSH2 0x1F24 DUP2 DUP4 PUSH2 0x229E JUMP JUMPDEST DUP2 ADD SUB SLT PUSH2 0x1F36 JUMPI DUP13 SWAP1 MLOAD SWAP2 CODESIZE PUSH2 0x1EC3 JUMP JUMPDEST DUP14 DUP1 REVERT JUMPDEST POP RETURNDATASIZE PUSH2 0x1F1A JUMP JUMPDEST DUP4 MLOAD SWAP1 RETURNDATASIZE SWAP1 DUP3 RETURNDATACOPY RETURNDATASIZE SWAP1 REVERT JUMPDEST SWAP3 SWAP6 POP POP POP SWAP3 CODESIZE DUP1 DUP1 PUSH2 0x1D56 JUMP JUMPDEST SWAP1 POP PUSH2 0x1D49 JUMP JUMPDEST POP PUSH2 0x1D3E PUSH1 0x32 PUSH2 0x1D38 JUMP JUMPDEST POP PUSH1 0x0 NOT TIMESTAMP ADD TIMESTAMP DUP2 GT PUSH2 0x1FFD JUMPI DUP8 MLOAD PUSH4 0xC4DB40D PUSH1 0xE3 SHL DUP2 MSTORE CALLER DUP4 DUP3 ADD SWAP1 DUP2 MSTORE PUSH1 0x20 DUP2 ADD DUP8 SWAP1 MSTORE PUSH1 0x40 DUP2 ADD SWAP3 SWAP1 SWAP3 MSTORE SWAP1 DUP7 SWAP1 DUP3 SWAP1 DUP2 SWAP1 PUSH1 0x60 ADD SUB DUP2 DUP8 GAS STATICCALL DUP1 ISZERO PUSH2 0x1FF3 JUMPI DUP10 SWAP1 PUSH2 0x1FC0 JUMPI JUMPDEST ISZERO ISZERO SWAP1 POP PUSH2 0x1D08 JUMP JUMPDEST POP DUP6 DUP2 DUP2 RETURNDATASIZE DUP4 GT PUSH2 0x1FEC JUMPI JUMPDEST PUSH2 0x1FD6 DUP2 DUP4 PUSH2 0x229E JUMP JUMPDEST DUP2 ADD SUB SLT PUSH2 0x1FE8 JUMPI PUSH2 0x1D11 SWAP1 MLOAD PUSH2 0x1FB7 JUMP JUMPDEST DUP9 DUP1 REVERT JUMPDEST POP RETURNDATASIZE PUSH2 0x1FCC JUMP JUMPDEST DUP9 MLOAD RETURNDATASIZE DUP12 DUP3 RETURNDATACOPY RETURNDATASIZE SWAP1 REVERT JUMPDEST PUSH4 0x4E487B71 PUSH1 0xE0 SHL DUP10 MSTORE PUSH1 0x11 DUP3 MSTORE PUSH1 0x24 DUP10 REVERT JUMPDEST SWAP1 POP DUP6 DUP2 DUP2 RETURNDATASIZE DUP4 GT PUSH2 0x2036 JUMPI JUMPDEST PUSH2 0x2027 DUP2 DUP4 PUSH2 0x229E JUMP JUMPDEST DUP2 ADD SUB SLT PUSH2 0x1FE8 JUMPI MLOAD CODESIZE PUSH2 0x1CFE JUMP JUMPDEST POP RETURNDATASIZE PUSH2 0x201D JUMP JUMPDEST DUP5 SWAP2 CALLVALUE PUSH2 0x265 JUMPI PUSH1 0x20 CALLDATASIZE PUSH1 0x3 NOT ADD SLT PUSH2 0x265 JUMPI CALLDATALOAD PUSH4 0xFFFFFFFF PUSH1 0xE0 SHL DUP2 AND DUP1 SWAP2 SUB PUSH2 0x265 JUMPI PUSH1 0x20 SWAP3 POP PUSH4 0x2711897 PUSH1 0xE5 SHL DUP2 EQ SWAP1 DUP2 ISZERO PUSH2 0x207F JUMPI JUMPDEST POP ISZERO ISZERO DUP2 MSTORE RETURN JUMPDEST PUSH4 0x1FFC9A7 PUSH1 0xE0 SHL EQ SWAP1 POP DUP4 PUSH2 0x2078 JUMP JUMPDEST PUSH1 0x4 CALLDATALOAD SWAP1 PUSH1 0x1 PUSH1 0x1 PUSH1 0xA0 SHL SUB DUP3 AND DUP3 SUB PUSH2 0x56B JUMPI JUMP JUMPDEST PUSH1 0x24 CALLDATALOAD SWAP1 PUSH1 0x1 PUSH1 0x1 PUSH1 0xA0 SHL SUB DUP3 AND DUP3 SUB PUSH2 0x56B JUMPI JUMP JUMPDEST SWAP1 DUP2 MLOAD DUP1 DUP3 MSTORE PUSH1 0x20 DUP1 DUP1 SWAP4 ADD SWAP4 ADD SWAP2 PUSH1 0x0 JUMPDEST DUP3 DUP2 LT PUSH2 0x20DC JUMPI POP POP POP POP SWAP1 JUMP JUMPDEST DUP4 MLOAD DUP6 MSTORE SWAP4 DUP2 ADD SWAP4 SWAP3 DUP2 ADD SWAP3 PUSH1 0x1 ADD PUSH2 0x20CE JUMP JUMPDEST SWAP2 SWAP1 DUP3 MLOAD SWAP3 DUP4 DUP3 MSTORE PUSH1 0x0 JUMPDEST DUP5 DUP2 LT PUSH2 0x211C JUMPI POP POP DUP3 PUSH1 0x0 PUSH1 0x20 DUP1 SWAP5 SWAP6 DUP5 ADD ADD MSTORE PUSH1 0x1F DUP1 NOT SWAP2 ADD AND ADD ADD SWAP1 JUMP JUMPDEST PUSH1 0x20 DUP2 DUP4 ADD DUP2 ADD MLOAD DUP5 DUP4 ADD DUP3 ADD MSTORE ADD PUSH2 0x20FB JUMP JUMPDEST SWAP3 PUSH2 0x2158 PUSH2 0x2149 PUSH2 0x2166 SWAP4 PUSH1 0x80 DUP8 MSTORE PUSH1 0x80 DUP8 ADD SWAP1 PUSH2 0x20BC JUMP JUMPDEST PUSH1 0x20 SWAP5 DUP7 DUP3 SUB DUP7 DUP9 ADD MSTORE PUSH2 0x20BC JUMP JUMPDEST SWAP1 DUP5 DUP3 SUB PUSH1 0x40 DUP7 ADD MSTORE PUSH2 0x20BC JUMP JUMPDEST SWAP2 PUSH1 0x60 DUP2 DUP5 SUB SWAP2 ADD MSTORE DUP3 MLOAD SWAP1 DUP2 DUP4 MSTORE DUP1 DUP4 ADD SWAP3 DUP2 DUP1 DUP5 PUSH1 0x5 SHL DUP4 ADD ADD SWAP6 ADD SWAP4 PUSH1 0x0 SWAP2 JUMPDEST DUP5 DUP4 LT PUSH2 0x2199 JUMPI POP POP POP POP POP POP SWAP1 JUMP JUMPDEST SWAP1 SWAP2 SWAP3 SWAP4 SWAP5 SWAP6 DUP5 DUP1 PUSH2 0x21B7 PUSH1 0x1 SWAP4 PUSH1 0x1F NOT DUP7 DUP3 SUB ADD DUP8 MSTORE DUP11 MLOAD PUSH2 0x20F0 JUMP JUMPDEST SWAP9 ADD SWAP4 ADD SWAP4 ADD SWAP2 SWAP5 SWAP4 SWAP3 SWAP1 PUSH2 0x2189 JUMP JUMPDEST SWAP2 DUP2 PUSH1 0x1F DUP5 ADD SLT ISZERO PUSH2 0x56B JUMPI DUP3 CALLDATALOAD SWAP2 PUSH1 0x1 PUSH1 0x1 PUSH1 0x40 SHL SUB DUP4 GT PUSH2 0x56B JUMPI PUSH1 0x20 DUP1 DUP6 ADD SWAP5 DUP5 PUSH1 0x5 SHL ADD ADD GT PUSH2 0x56B JUMPI JUMP JUMPDEST SWAP2 DUP2 PUSH1 0x1F DUP5 ADD SLT ISZERO PUSH2 0x56B JUMPI DUP3 CALLDATALOAD SWAP2 PUSH1 0x1 PUSH1 0x1 PUSH1 0x40 SHL SUB DUP4 GT PUSH2 0x56B JUMPI PUSH1 0x20 DUP4 DUP2 DUP7 ADD SWAP6 ADD ADD GT PUSH2 0x56B JUMPI JUMP JUMPDEST PUSH1 0xA0 DUP2 ADD SWAP1 DUP2 LT PUSH1 0x1 PUSH1 0x1 PUSH1 0x40 SHL SUB DUP3 GT OR PUSH2 0x223F JUMPI PUSH1 0x40 MSTORE JUMP JUMPDEST PUSH4 0x4E487B71 PUSH1 0xE0 SHL PUSH1 0x0 MSTORE PUSH1 0x41 PUSH1 0x4 MSTORE PUSH1 0x24 PUSH1 0x0 REVERT JUMPDEST PUSH1 0x1 PUSH1 0x1 PUSH1 0x40 SHL SUB DUP2 GT PUSH2 0x223F JUMPI PUSH1 0x40 MSTORE JUMP JUMPDEST PUSH1 0x40 DUP2 ADD SWAP1 DUP2 LT PUSH1 0x1 PUSH1 0x1 PUSH1 0x40 SHL SUB DUP3 GT OR PUSH2 0x223F JUMPI PUSH1 0x40 MSTORE JUMP JUMPDEST PUSH1 0x20 DUP2 ADD SWAP1 DUP2 LT PUSH1 0x1 PUSH1 0x1 PUSH1 0x40 SHL SUB DUP3 GT OR PUSH2 0x223F JUMPI PUSH1 0x40 MSTORE JUMP JUMPDEST SWAP1 PUSH1 0x1F DUP1 NOT SWAP2 ADD AND DUP2 ADD SWAP1 DUP2 LT PUSH1 0x1 PUSH1 0x1 PUSH1 0x40 SHL SUB DUP3 GT OR PUSH2 0x223F JUMPI PUSH1 0x40 MSTORE JUMP JUMPDEST PUSH1 0x1 PUSH1 0x1 PUSH1 0x40 SHL SUB DUP2 GT PUSH2 0x223F JUMPI PUSH1 0x1F ADD PUSH1 0x1F NOT AND PUSH1 0x20 ADD SWAP1 JUMP JUMPDEST PUSH1 0x0 SLOAD PUSH1 0x1 PUSH1 0x1 PUSH1 0xA0 SHL SUB AND CALLER SUB PUSH2 0x22EE JUMPI JUMP JUMPDEST PUSH1 0x40 MLOAD PUSH4 0x118CDAA7 PUSH1 0xE0 SHL DUP2 MSTORE CALLER PUSH1 0x4 DUP3 ADD MSTORE PUSH1 0x24 SWAP1 REVERT JUMPDEST PUSH1 0x0 DUP1 SLOAD PUSH1 0x1 PUSH1 0x1 PUSH1 0xA0 SHL SUB SWAP3 DUP4 AND PUSH1 0x1 PUSH1 0x1 PUSH1 0xA0 SHL SUB NOT DUP3 AND DUP2 OR DUP4 SSTORE SWAP3 AND SWAP1 PUSH32 0x8BE0079C531659141344CD1FD0A4F28419497F9722A3DAAFE3B4186F6B6457E0 SWAP1 DUP1 LOG3 JUMP JUMPDEST SWAP2 SWAP1 DUP3 ADD DUP1 SWAP3 GT PUSH2 0x235A JUMPI JUMP JUMPDEST PUSH4 0x4E487B71 PUSH1 0xE0 SHL PUSH1 0x0 MSTORE PUSH1 0x11 PUSH1 0x4 MSTORE PUSH1 0x24 PUSH1 0x0 REVERT JUMPDEST ISZERO PUSH2 0x2377 JUMPI JUMP JUMPDEST PUSH1 0x40 MLOAD PUSH3 0x461BCD PUSH1 0xE5 SHL DUP2 MSTORE PUSH1 0x20 PUSH1 0x4 DUP3 ADD MSTORE PUSH1 0x1A PUSH1 0x24 DUP3 ADD MSTORE PUSH32 0x436F6E747261637420686173206265656E206D69677261746564000000000000 PUSH1 0x44 DUP3 ADD MSTORE PUSH1 0x64 SWAP1 REVERT JUMPDEST SWAP1 DUP2 PUSH1 0x20 SWAP2 SUB SLT PUSH2 0x56B JUMPI MLOAD DUP1 ISZERO ISZERO DUP2 SUB PUSH2 0x56B JUMPI SWAP1 JUMP JUMPDEST ISZERO PUSH2 0x23DB JUMPI JUMP JUMPDEST PUSH1 0x40 MLOAD PUSH3 0x461BCD PUSH1 0xE5 SHL DUP2 MSTORE PUSH1 0x20 PUSH1 0x4 DUP3 ADD MSTORE PUSH1 0xF PUSH1 0x24 DUP3 ADD MSTORE PUSH15 0x151C985B9CD9995C8819985A5B1959 PUSH1 0x8A SHL PUSH1 0x44 DUP3 ADD MSTORE PUSH1 0x64 SWAP1 REVERT JUMPDEST SWAP2 SWAP1 DUP3 SUB SWAP2 DUP3 GT PUSH2 0x235A JUMPI JUMP JUMPDEST ISZERO PUSH2 0x2426 JUMPI JUMP JUMPDEST PUSH1 0x40 MLOAD PUSH3 0x461BCD PUSH1 0xE5 SHL DUP2 MSTORE PUSH1 0x20 PUSH1 0x4 DUP3 ADD MSTORE PUSH1 0xF PUSH1 0x24 DUP3 ADD MSTORE PUSH15 0x139BC81CDA185C995CC81BDDDB9959 PUSH1 0x8A SHL PUSH1 0x44 DUP3 ADD MSTORE PUSH1 0x64 SWAP1 REVERT JUMPDEST ISZERO PUSH2 0x2464 JUMPI JUMP JUMPDEST PUSH1 0x40 MLOAD PUSH3 0x461BCD PUSH1 0xE5 SHL DUP2 MSTORE PUSH1 0x20 PUSH1 0x4 DUP3 ADD MSTORE PUSH1 0xD PUSH1 0x24 DUP3 ADD MSTORE PUSH13 0x4E6F206E65772065706F636873 PUSH1 0x98 SHL PUSH1 0x44 DUP3 ADD MSTORE PUSH1 0x64 SWAP1 REVERT JUMPDEST PUSH1 0x0 NOT DUP2 EQ PUSH2 0x235A JUMPI PUSH1 0x1 ADD SWAP1 JUMP JUMPDEST PUSH1 0xC SLOAD DUP2 LT ISZERO PUSH2 0x24E3 JUMPI PUSH1 0x5 SWAP1 PUSH1 0xC PUSH1 0x0 MSTORE MUL PUSH32 0xDF6966C971051C3D54EC59162606531493A51404A002842F56009D7E5CF4A8C7 ADD SWAP1 PUSH1 0x0 SWAP1 JUMP JUMPDEST PUSH4 0x4E487B71 PUSH1 0xE0 SHL PUSH1 0x0 MSTORE PUSH1 0x32 PUSH1 0x4 MSTORE PUSH1 0x24 PUSH1 0x0 REVERT JUMPDEST PUSH1 0xB SLOAD DUP2 LT ISZERO PUSH2 0x24E3 JUMPI PUSH1 0x5 SWAP1 PUSH1 0xB PUSH1 0x0 MSTORE MUL PUSH32 0x175B7A638427703F0DBE7BB9BBF987A2551717B34E79F33B5B1008D1FA01DB9 ADD SWAP1 PUSH1 0x0 SWAP1 JUMP JUMPDEST SWAP1 PUSH1 0x40 MLOAD PUSH2 0x2541 DUP2 PUSH2 0x2224 JUMP JUMPDEST DUP3 SLOAD DUP2 MSTORE PUSH1 0x1 DUP4 ADD SLOAD PUSH1 0x20 DUP3 ADD MSTORE PUSH1 0x2 DUP4 ADD SLOAD PUSH1 0x40 DUP3 ADD MSTORE PUSH1 0x3 DUP4 ADD SLOAD PUSH1 0x60 DUP3 ADD MSTORE PUSH1 0x4 SWAP1 SWAP3 ADD SLOAD PUSH1 0x1 PUSH1 0x1 PUSH1 0xA0 SHL SUB AND PUSH1 0x80 DUP4 ADD MSTORE JUMP JUMPDEST DUP2 DUP2 MUL SWAP3 SWAP2 DUP2 ISZERO SWAP2 DUP5 DIV EQ OR ISZERO PUSH2 0x235A JUMPI JUMP JUMPDEST DUP2 ISZERO PUSH2 0x2596 JUMPI DIV SWAP1 JUMP JUMPDEST PUSH4 0x4E487B71 PUSH1 0xE0 SHL PUSH1 0x0 MSTORE PUSH1 0x12 PUSH1 0x4 MSTORE PUSH1 0x24 PUSH1 0x0 REVERT JUMPDEST RETURNDATASIZE ISZERO PUSH2 0x25D7 JUMPI RETURNDATASIZE SWAP1 PUSH2 0x25BD DUP3 PUSH2 0x22BF JUMP JUMPDEST SWAP2 PUSH2 0x25CB PUSH1 0x40 MLOAD SWAP4 DUP5 PUSH2 0x229E JUMP JUMPDEST DUP3 MSTORE RETURNDATASIZE PUSH1 0x0 PUSH1 0x20 DUP5 ADD RETURNDATACOPY JUMP JUMPDEST PUSH1 0x60 SWAP1 JUMP JUMPDEST ISZERO PUSH2 0x25E3 JUMPI JUMP JUMPDEST PUSH1 0x40 MLOAD PUSH3 0x461BCD PUSH1 0xE5 SHL DUP2 MSTORE PUSH1 0x20 PUSH1 0x4 DUP3 ADD MSTORE PUSH1 0x13 PUSH1 0x24 DUP3 ADD MSTORE PUSH19 0x115512081D1C985B9CD9995C8819985A5B1959 PUSH1 0x6A SHL PUSH1 0x44 DUP3 ADD MSTORE PUSH1 0x64 SWAP1 REVERT JUMPDEST PUSH1 0x2 PUSH1 0x1 SLOAD EQ PUSH2 0x262F JUMPI PUSH1 0x2 PUSH1 0x1 SSTORE JUMP JUMPDEST PUSH1 0x40 MLOAD PUSH4 0x3EE5AEB5 PUSH1 0xE0 SHL DUP2 MSTORE PUSH1 0x4 SWAP1 REVERT JUMPDEST PUSH1 0x1 PUSH1 0x1 PUSH1 0xA0 SHL SUB SWAP1 DUP2 AND PUSH1 0x0 SWAP1 DUP2 MSTORE PUSH1 0xA PUSH1 0x20 MSTORE PUSH1 0x40 DUP2 KECCAK256 SWAP2 SWAP1 SWAP3 AND ISZERO SWAP3 SWAP1 DUP4 ISZERO PUSH2 0x26A0 JUMPI PUSH1 0x1 ADD SLOAD SWAP3 JUMPDEST ISZERO PUSH2 0x2697 JUMPI DUP3 PUSH1 0xB SLOAD JUMPDEST DUP2 DUP2 GT PUSH2 0x2686 JUMPI POP POP DUP2 SWAP3 SWAP2 SWAP1 JUMP JUMPDEST PUSH2 0x2691 SWAP3 SWAP4 POP PUSH2 0x2412 JUMP JUMPDEST PUSH1 0x1 SWAP3 SWAP2 JUMP JUMPDEST DUP3 PUSH1 0xC SLOAD PUSH2 0x2677 JUMP JUMPDEST SLOAD SWAP3 PUSH2 0x266D JUMP JUMPDEST PUSH1 0x1 PUSH1 0x1 PUSH1 0x40 SHL SUB DUP2 GT PUSH2 0x223F JUMPI PUSH1 0x5 SHL PUSH1 0x20 ADD SWAP1 JUMP JUMPDEST SWAP1 PUSH2 0x26C8 DUP3 PUSH2 0x26A7 JUMP JUMPDEST PUSH2 0x26D5 PUSH1 0x40 MLOAD SWAP2 DUP3 PUSH2 0x229E JUMP JUMPDEST DUP3 DUP2 MSTORE DUP1 SWAP3 PUSH2 0x26E6 PUSH1 0x1F NOT SWAP2 PUSH2 0x26A7 JUMP JUMPDEST ADD SWAP1 PUSH1 0x20 CALLDATASIZE SWAP2 ADD CALLDATACOPY JUMP JUMPDEST SWAP1 PUSH2 0x26FA DUP3 PUSH2 0x26A7 JUMP JUMPDEST PUSH2 0x2707 PUSH1 0x40 MLOAD SWAP2 DUP3 PUSH2 0x229E JUMP JUMPDEST DUP3 DUP2 MSTORE DUP1 SWAP3 PUSH2 0x2718 PUSH1 0x1F NOT SWAP2 PUSH2 0x26A7 JUMP JUMPDEST ADD SWAP1 PUSH1 0x0 JUMPDEST DUP3 DUP2 LT PUSH2 0x2729 JUMPI POP POP POP JUMP JUMPDEST DUP1 PUSH1 0x60 PUSH1 0x20 DUP1 SWAP4 DUP6 ADD ADD MSTORE ADD PUSH2 0x271D JUMP JUMPDEST DUP1 MLOAD DUP3 LT ISZERO PUSH2 0x24E3 JUMPI PUSH1 0x20 SWAP2 PUSH1 0x5 SHL ADD ADD SWAP1 JUMP JUMPDEST PUSH1 0x2 SLOAD PUSH1 0x6 SLOAD PUSH1 0x40 MLOAD PUSH3 0x7EEAC7 PUSH1 0xE1 SHL DUP2 MSTORE PUSH1 0x1 PUSH1 0x1 PUSH1 0xA0 SHL SUB DUP5 DUP2 AND PUSH1 0x4 DUP4 ADD MSTORE PUSH1 0x24 DUP3 ADD DUP4 SWAP1 MSTORE SWAP4 SWAP5 SWAP3 DUP5 AND SWAP4 SWAP2 SWAP3 SWAP2 SWAP1 PUSH1 0x20 DUP2 PUSH1 0x44 DUP2 DUP9 GAS STATICCALL SWAP1 DUP2 ISZERO PUSH2 0x2904 JUMPI PUSH1 0x0 SWAP2 PUSH2 0x295F JUMPI JUMPDEST POP ISZERO PUSH2 0x2910 JUMPI DUP5 AND PUSH1 0x0 MSTORE PUSH1 0xA PUSH1 0x20 MSTORE PUSH1 0x1 PUSH1 0x40 PUSH1 0x0 KECCAK256 ADD SLOAD PUSH1 0xB SLOAD PUSH2 0x27C7 PUSH2 0x27C2 DUP4 DUP4 PUSH2 0x2412 JUMP JUMPDEST PUSH2 0x26BE JUMP JUMPDEST SWAP2 PUSH2 0x27D5 PUSH2 0x27C2 DUP3 DUP5 PUSH2 0x2412 JUMP JUMPDEST SWAP7 PUSH2 0x27E3 PUSH2 0x27C2 DUP4 DUP6 PUSH2 0x2412 JUMP JUMPDEST SWAP7 PUSH2 0x27F6 PUSH2 0x27F1 DUP5 DUP7 PUSH2 0x2412 JUMP JUMPDEST PUSH2 0x26F0 JUMP JUMPDEST SWAP7 DUP4 JUMPDEST DUP6 DUP2 LT PUSH2 0x280C JUMPI POP POP POP POP POP POP SWAP4 SWAP3 SWAP2 SWAP1 JUMP JUMPDEST PUSH2 0x2818 PUSH2 0x14B9 DUP3 PUSH2 0x24F9 JUMP JUMPDEST DUP1 MLOAD PUSH2 0x282D PUSH2 0x2827 DUP9 DUP6 PUSH2 0x2412 JUMP JUMPDEST DUP11 PUSH2 0x273A JUMP JUMPDEST MSTORE PUSH1 0x60 DUP2 ADD MLOAD PUSH1 0x40 MLOAD PUSH4 0xC4DB40D PUSH1 0xE3 SHL DUP2 MSTORE PUSH1 0x1 PUSH1 0x1 PUSH1 0xA0 SHL SUB DUP8 AND PUSH1 0x4 DUP3 ADD MSTORE PUSH1 0x24 DUP2 ADD DUP6 SWAP1 MSTORE PUSH1 0x44 DUP2 ADD SWAP2 SWAP1 SWAP2 MSTORE PUSH1 0x20 DUP2 PUSH1 0x64 DUP2 DUP9 GAS STATICCALL DUP1 ISZERO PUSH2 0x2904 JUMPI DUP14 SWAP2 PUSH1 0x0 SWAP2 PUSH2 0x28CE JUMPI JUMPDEST POP SWAP2 PUSH1 0x60 SWAP2 PUSH2 0x28AD PUSH8 0xDE0B6B3A7640000 PUSH2 0x289B PUSH2 0x28C9 SWAP8 SWAP7 PUSH1 0x40 DUP7 ADD MLOAD SWAP1 PUSH2 0x2579 JUMP JUMPDEST DIV SWAP2 PUSH2 0x28A7 DUP12 DUP8 PUSH2 0x2412 JUMP JUMPDEST SWAP1 PUSH2 0x273A JUMP JUMPDEST MSTORE ADD MLOAD PUSH2 0x28C3 PUSH2 0x28BD DUP9 DUP5 PUSH2 0x2412 JUMP JUMPDEST DUP14 PUSH2 0x273A JUMP JUMPDEST MSTORE PUSH2 0x2499 JUMP JUMPDEST PUSH2 0x27F9 JUMP JUMPDEST SWAP2 POP PUSH1 0x20 DUP3 RETURNDATASIZE PUSH1 0x20 GT PUSH2 0x28FC JUMPI JUMPDEST DUP2 PUSH2 0x28E9 PUSH1 0x20 SWAP4 DUP4 PUSH2 0x229E JUMP JUMPDEST DUP2 ADD SUB SLT PUSH2 0x2BF JUMPI POP MLOAD DUP13 SWAP1 PUSH1 0x60 PUSH2 0x2877 JUMP JUMPDEST RETURNDATASIZE SWAP2 POP PUSH2 0x28DC JUMP JUMPDEST PUSH1 0x40 MLOAD RETURNDATASIZE PUSH1 0x0 DUP3 RETURNDATACOPY RETURNDATASIZE SWAP1 REVERT JUMPDEST POP SWAP3 POP POP POP PUSH1 0x40 MLOAD SWAP1 PUSH2 0x2922 DUP3 PUSH2 0x2283 JUMP JUMPDEST PUSH1 0x0 DUP3 MSTORE PUSH1 0x40 MLOAD SWAP2 PUSH2 0x2933 DUP4 PUSH2 0x2283 JUMP JUMPDEST PUSH1 0x0 DUP4 MSTORE PUSH1 0x40 MLOAD SWAP2 PUSH2 0x2944 DUP4 PUSH2 0x2283 JUMP JUMPDEST PUSH1 0x0 DUP4 MSTORE PUSH1 0x40 MLOAD SWAP2 PUSH2 0x2955 DUP4 PUSH2 0x2283 JUMP JUMPDEST PUSH1 0x0 DUP4 MSTORE SWAP4 SWAP3 SWAP2 SWAP1 JUMP JUMPDEST SWAP1 PUSH1 0x20 DUP3 RETURNDATASIZE PUSH1 0x20 GT PUSH2 0x2989 JUMPI JUMPDEST DUP2 PUSH2 0x2979 PUSH1 0x20 SWAP4 DUP4 PUSH2 0x229E JUMP JUMPDEST DUP2 ADD SUB SLT PUSH2 0x2BF JUMPI POP MLOAD CODESIZE PUSH2 0x2799 JUMP JUMPDEST RETURNDATASIZE SWAP2 POP PUSH2 0x296C JUMP JUMPDEST PUSH1 0x2 SLOAD PUSH1 0x6 SLOAD PUSH1 0x40 MLOAD PUSH3 0x7EEAC7 PUSH1 0xE1 SHL DUP2 MSTORE PUSH1 0x1 PUSH1 0x1 PUSH1 0xA0 SHL SUB DUP5 DUP2 AND PUSH1 0x4 DUP4 ADD MSTORE PUSH1 0x24 DUP3 ADD DUP4 SWAP1 MSTORE SWAP4 SWAP5 SWAP3 DUP5 AND SWAP4 SWAP2 SWAP3 SWAP2 SWAP1 PUSH1 0x20 DUP2 PUSH1 0x44 DUP2 DUP9 GAS STATICCALL SWAP1 DUP2 ISZERO PUSH2 0x2904 JUMPI PUSH1 0x0 SWAP2 PUSH2 0x2B06 JUMPI JUMPDEST POP ISZERO PUSH2 0x2910 JUMPI DUP5 AND PUSH1 0x0 MSTORE PUSH1 0xA PUSH1 0x20 MSTORE PUSH1 0x40 PUSH1 0x0 KECCAK256 SLOAD PUSH1 0xC SLOAD PUSH2 0x2A02 PUSH2 0x27C2 DUP4 DUP4 PUSH2 0x2412 JUMP JUMPDEST SWAP2 PUSH2 0x2A10 PUSH2 0x27C2 DUP3 DUP5 PUSH2 0x2412 JUMP JUMPDEST SWAP7 PUSH2 0x2A1E PUSH2 0x27C2 DUP4 DUP6 PUSH2 0x2412 JUMP JUMPDEST SWAP7 PUSH2 0x2A2C PUSH2 0x27F1 DUP5 DUP7 PUSH2 0x2412 JUMP JUMPDEST SWAP7 DUP4 JUMPDEST DUP6 DUP2 LT PUSH2 0x2A42 JUMPI POP POP POP POP POP POP SWAP4 SWAP3 SWAP2 SWAP1 JUMP JUMPDEST PUSH2 0x2A4E PUSH2 0x14B9 DUP3 PUSH2 0x24A8 JUMP JUMPDEST DUP1 MLOAD PUSH2 0x2A5D PUSH2 0x2827 DUP9 DUP6 PUSH2 0x2412 JUMP JUMPDEST MSTORE PUSH1 0x60 DUP2 ADD MLOAD PUSH1 0x40 MLOAD PUSH4 0xC4DB40D PUSH1 0xE3 SHL DUP2 MSTORE PUSH1 0x1 PUSH1 0x1 PUSH1 0xA0 SHL SUB DUP8 AND PUSH1 0x4 DUP3 ADD MSTORE PUSH1 0x24 DUP2 ADD DUP6 SWAP1 MSTORE PUSH1 0x44 DUP2 ADD SWAP2 SWAP1 SWAP2 MSTORE PUSH1 0x20 DUP2 PUSH1 0x64 DUP2 DUP9 GAS STATICCALL DUP1 ISZERO PUSH2 0x2904 JUMPI DUP14 SWAP2 PUSH1 0x0 SWAP2 PUSH2 0x2AD0 JUMPI JUMPDEST POP SWAP2 PUSH1 0x60 SWAP2 PUSH2 0x28AD PUSH8 0xDE0B6B3A7640000 PUSH2 0x289B PUSH2 0x2ACB SWAP8 SWAP7 PUSH1 0x40 DUP7 ADD MLOAD SWAP1 PUSH2 0x2579 JUMP JUMPDEST PUSH2 0x2A2F JUMP JUMPDEST SWAP2 POP PUSH1 0x20 DUP3 RETURNDATASIZE PUSH1 0x20 GT PUSH2 0x2AFE JUMPI JUMPDEST DUP2 PUSH2 0x2AEB PUSH1 0x20 SWAP4 DUP4 PUSH2 0x229E JUMP JUMPDEST DUP2 ADD SUB SLT PUSH2 0x2BF JUMPI POP MLOAD DUP13 SWAP1 PUSH1 0x60 PUSH2 0x2AA7 JUMP JUMPDEST RETURNDATASIZE SWAP2 POP PUSH2 0x2ADE JUMP JUMPDEST SWAP1 PUSH1 0x20 DUP3 RETURNDATASIZE PUSH1 0x20 GT PUSH2 0x2B30 JUMPI JUMPDEST DUP2 PUSH2 0x2B20 PUSH1 0x20 SWAP4 DUP4 PUSH2 0x229E JUMP JUMPDEST DUP2 ADD SUB SLT PUSH2 0x2BF JUMPI POP MLOAD CODESIZE PUSH2 0x29DC JUMP JUMPDEST RETURNDATASIZE SWAP2 POP PUSH2 0x2B13 JUMP JUMPDEST PUSH1 0x2 SLOAD PUSH1 0x6 SLOAD PUSH1 0x40 DUP1 MLOAD PUSH3 0x7EEAC7 PUSH1 0xE1 SHL DUP2 MSTORE PUSH1 0x1 PUSH1 0x1 PUSH1 0xA0 SHL SUB DUP6 DUP2 AND PUSH1 0x4 DUP1 DUP5 ADD SWAP2 SWAP1 SWAP2 MSTORE PUSH1 0x24 DUP4 ADD DUP6 SWAP1 MSTORE SWAP4 SWAP6 SWAP5 DUP2 AND SWAP5 PUSH1 0x20 SWAP5 SWAP1 SWAP3 SWAP1 SWAP2 SWAP1 DUP6 DUP2 PUSH1 0x44 DUP2 DUP11 GAS STATICCALL SWAP1 DUP2 ISZERO PUSH2 0x2CD7 JUMPI PUSH1 0x0 SWAP2 PUSH2 0x2CAA JUMPI JUMPDEST POP ISZERO PUSH2 0x2C9E JUMPI DUP3 SWAP2 SWAP7 SWAP5 SWAP4 SWAP3 AND PUSH1 0x0 MSTORE PUSH1 0xA DUP4 MSTORE PUSH1 0x1 DUP3 PUSH1 0x0 KECCAK256 ADD SLOAD SWAP6 PUSH1 0xB SLOAD SWAP5 PUSH1 0x0 SWAP8 SWAP7 JUMPDEST DUP7 DUP9 LT PUSH2 0x2BC3 JUMPI POP POP POP POP POP POP POP POP SWAP1 JUMP JUMPDEST SWAP1 SWAP2 SWAP3 SWAP4 SWAP5 SWAP6 SWAP7 SWAP8 PUSH2 0x2C17 PUSH2 0x2BDA PUSH2 0x14B9 DUP12 PUSH2 0x24F9 JUMP JUMPDEST PUSH1 0x60 DUP2 DUP2 ADD MLOAD DUP10 MLOAD PUSH4 0xC4DB40D PUSH1 0xE3 SHL DUP2 MSTORE PUSH1 0x1 PUSH1 0x1 PUSH1 0xA0 SHL SUB DUP11 AND DUP10 DUP3 ADD SWAP1 DUP2 MSTORE PUSH1 0x20 DUP2 ADD DUP10 SWAP1 MSTORE PUSH1 0x40 DUP2 ADD SWAP3 SWAP1 SWAP3 MSTORE SWAP4 DUP12 SWAP3 DUP6 SWAP3 DUP4 SWAP3 SWAP2 ADD SWAP1 JUMP JUMPDEST SUB DUP2 DUP8 GAS STATICCALL SWAP2 DUP3 ISZERO PUSH2 0x2C93 JUMPI SWAP1 DUP9 SWAP2 PUSH1 0x0 SWAP4 PUSH2 0x2C5F JUMPI JUMPDEST POP PUSH2 0x1EFA PUSH2 0x2C4D SWAP4 PUSH2 0x2C53 SWAP6 SWAP4 PUSH8 0xDE0B6B3A7640000 SWAP4 ADD MLOAD SWAP1 PUSH2 0x2579 JUMP JUMPDEST SWAP9 PUSH2 0x2499 JUMP JUMPDEST SWAP7 SWAP6 SWAP5 SWAP4 SWAP3 SWAP2 SWAP1 PUSH2 0x2BB1 JUMP JUMPDEST SWAP2 POP SWAP2 DUP10 DUP3 DUP2 RETURNDATASIZE DUP4 GT PUSH2 0x2C8C JUMPI JUMPDEST PUSH2 0x2C77 DUP2 DUP4 PUSH2 0x229E JUMP JUMPDEST DUP2 ADD SUB SLT PUSH2 0x2BF JUMPI POP MLOAD SWAP1 DUP8 SWAP1 PUSH2 0x1EFA PUSH2 0x2C2E JUMP JUMPDEST POP RETURNDATASIZE PUSH2 0x2C6D JUMP JUMPDEST DUP9 MLOAD RETURNDATASIZE PUSH1 0x0 DUP3 RETURNDATACOPY RETURNDATASIZE SWAP1 REVERT JUMPDEST POP POP POP POP POP POP POP PUSH1 0x0 SWAP1 JUMP JUMPDEST SWAP1 DUP7 DUP3 DUP2 RETURNDATASIZE DUP4 GT PUSH2 0x2CD0 JUMPI JUMPDEST PUSH2 0x2CC0 DUP2 DUP4 PUSH2 0x229E JUMP JUMPDEST DUP2 ADD SUB SLT PUSH2 0x2BF JUMPI POP MLOAD CODESIZE PUSH2 0x2B8B JUMP JUMPDEST POP RETURNDATASIZE PUSH2 0x2CB6 JUMP JUMPDEST DUP6 MLOAD RETURNDATASIZE PUSH1 0x0 DUP3 RETURNDATACOPY RETURNDATASIZE SWAP1 REVERT JUMPDEST PUSH1 0x2 SLOAD PUSH1 0x6 SLOAD PUSH1 0x40 DUP1 MLOAD PUSH3 0x7EEAC7 PUSH1 0xE1 SHL DUP2 MSTORE PUSH1 0x1 PUSH1 0x1 PUSH1 0xA0 SHL SUB DUP6 DUP2 AND PUSH1 0x4 DUP1 DUP5 ADD SWAP2 SWAP1 SWAP2 MSTORE PUSH1 0x24 DUP4 ADD DUP6 SWAP1 MSTORE SWAP4 SWAP6 SWAP5 DUP2 AND SWAP5 PUSH1 0x20 SWAP5 SWAP1 SWAP3 SWAP1 SWAP2 SWAP1 DUP6 DUP2 PUSH1 0x44 DUP2 DUP11 GAS STATICCALL SWAP1 DUP2 ISZERO PUSH2 0x2CD7 JUMPI PUSH1 0x0 SWAP2 PUSH2 0x2DF7 JUMPI JUMPDEST POP ISZERO PUSH2 0x2C9E JUMPI DUP3 SWAP2 SWAP7 SWAP5 SWAP4 SWAP3 AND PUSH1 0x0 MSTORE PUSH1 0xA DUP4 MSTORE DUP2 PUSH1 0x0 KECCAK256 SLOAD SWAP6 PUSH1 0xC SLOAD SWAP5 PUSH1 0x0 SWAP8 SWAP7 JUMPDEST DUP7 DUP9 LT PUSH2 0x2D6A JUMPI POP POP POP POP POP POP POP POP SWAP1 JUMP JUMPDEST SWAP1 SWAP2 SWAP3 SWAP4 SWAP5 SWAP6 SWAP7 SWAP8 PUSH2 0x2D81 PUSH2 0x2BDA PUSH2 0x14B9 DUP12 PUSH2 0x24A8 JUMP JUMPDEST SUB DUP2 DUP8 GAS STATICCALL SWAP2 DUP3 ISZERO PUSH2 0x2C93 JUMPI SWAP1 DUP9 SWAP2 PUSH1 0x0 SWAP4 PUSH2 0x2DC3 JUMPI JUMPDEST POP PUSH2 0x1EFA PUSH2 0x2C4D SWAP4 PUSH2 0x2DB7 SWAP6 SWAP4 PUSH8 0xDE0B6B3A7640000 SWAP4 ADD MLOAD SWAP1 PUSH2 0x2579 JUMP JUMPDEST SWAP7 SWAP6 SWAP5 SWAP4 SWAP3 SWAP2 SWAP1 PUSH2 0x2D58 JUMP JUMPDEST SWAP2 POP SWAP2 DUP10 DUP3 DUP2 RETURNDATASIZE DUP4 GT PUSH2 0x2DF0 JUMPI JUMPDEST PUSH2 0x2DDB DUP2 DUP4 PUSH2 0x229E JUMP JUMPDEST DUP2 ADD SUB SLT PUSH2 0x2BF JUMPI POP MLOAD SWAP1 DUP8 SWAP1 PUSH2 0x1EFA PUSH2 0x2D98 JUMP JUMPDEST POP RETURNDATASIZE PUSH2 0x2DD1 JUMP JUMPDEST SWAP1 DUP7 DUP3 DUP2 RETURNDATASIZE DUP4 GT PUSH2 0x2E1D JUMPI JUMPDEST PUSH2 0x2E0D DUP2 DUP4 PUSH2 0x229E JUMP JUMPDEST DUP2 ADD SUB SLT PUSH2 0x2BF JUMPI POP MLOAD CODESIZE PUSH2 0x2D35 JUMP JUMPDEST POP RETURNDATASIZE PUSH2 0x2E03 JUMP JUMPDEST ISZERO PUSH2 0x2E2B JUMPI JUMP JUMPDEST PUSH1 0x40 MLOAD PUSH3 0x461BCD PUSH1 0xE5 SHL DUP2 MSTORE PUSH1 0x20 PUSH1 0x4 DUP3 ADD MSTORE PUSH1 0xF PUSH1 0x24 DUP3 ADD MSTORE PUSH15 0x139BC81CDA185C995CC8195E1A5CDD PUSH1 0x8A SHL PUSH1 0x44 DUP3 ADD MSTORE PUSH1 0x64 SWAP1 REVERT JUMPDEST PUSH1 0x40 MLOAD SWAP1 PUSH2 0x2E6F DUP3 PUSH2 0x2224 JUMP JUMPDEST PUSH1 0x0 PUSH1 0x80 DUP4 DUP3 DUP2 MSTORE DUP3 PUSH1 0x20 DUP3 ADD MSTORE DUP3 PUSH1 0x40 DUP3 ADD MSTORE DUP3 PUSH1 0x60 DUP3 ADD MSTORE ADD MSTORE JUMP INVALID LOG2 PUSH5 0x6970667358 0x22 SLT KECCAK256 0xAE 0x24 0xCE 0xEC LOG4 SUB 0x4B MULMOD 0xEE 0x2E DUP7 PUSH25 0x1A57A69B06D62AB29B00E30664B27D21F896D12D64736F6C63 NUMBER STOP ADDMOD EQ STOP CALLER "},"methodIdentifiers":{"claimETHEarnings(uint256)":"6d4645fd","claimStablecoinEarnings(uint256)":"0a1c35a4","createBuyoutToken(uint256,address)":"9d3bc4bd","createETHDistributionEpoch()":"82d5195c","createLegalContract(string)":"bcb7130d","createSongShares(uint256)":"39fa62df","createStablecoinDistributionEpoch()":"2514a5fb","ethBalance()":"4e6630b0","ethEarningsEpochs(uint256)":"a2440fd5","getPendingETHEarnings(address)":"6ab415c1","getPendingStablecoinDistribution()":"5d152b36","getPendingStablecoinEarnings(address)":"fcd9b139","getUnclaimedETHEpochs(address)":"51bcece2","getUnclaimedStablecoinEpochs(address)":"b40b5e82","getWSTokenManagementAddress()":"df5afd2a","hasMoreEpochsToClaim(address,address)":"2cc6d17b","initialize(address,address,address)":"c0c53b8b","metadataModule()":"3684d100","migrateWrappedSong(address,address)":"d70a0abc","migrated()":"2c678c64","onERC1155BatchReceived(address,address,uint256[],uint256[],bytes)":"bc197c81","onERC1155Received(address,address,uint256,uint256,bytes)":"f23a6e61","owner()":"8da5cb5b","protocolModule()":"5c42e667","receiveERC20(address,uint256)":"aed4aab6","renounceOwnership()":"715018a6","setWSTokenManagement(address)":"716f6e87","songSharesId()":"f3baa17f","stablecoin()":"e9cbd822","stablecoinEarningsEpochs(uint256)":"4c2b957a","supportsInterface(bytes4)":"01ffc9a7","transferOwnership(address)":"f2fde38b","userEpochBalances(address)":"c45f497e","wrappedSongTokenId()":"43d0b50f","wsTokenManagement()":"9a5cb99d"}},"storageLayout":{"storage":[{"astId":8,"contract":"contracts/protocol/NonUpgradable/WrappedSongSmartAccount.sol:WrappedSongSmartAccount","label":"_owner","offset":0,"slot":"0","type":"t_address"},{"astId":1264,"contract":"contracts/protocol/NonUpgradable/WrappedSongSmartAccount.sol:WrappedSongSmartAccount","label":"_status","offset":0,"slot":"1","type":"t_uint256"},{"astId":5179,"contract":"contracts/protocol/NonUpgradable/WrappedSongSmartAccount.sol:WrappedSongSmartAccount","label":"wsTokenManagement","offset":0,"slot":"2","type":"t_contract(IWSTokenManagement)3356"},{"astId":5182,"contract":"contracts/protocol/NonUpgradable/WrappedSongSmartAccount.sol:WrappedSongSmartAccount","label":"stablecoin","offset":0,"slot":"3","type":"t_contract(IERC20)644"},{"astId":5185,"contract":"contracts/protocol/NonUpgradable/WrappedSongSmartAccount.sol:WrappedSongSmartAccount","label":"protocolModule","offset":0,"slot":"4","type":"t_contract(IProtocolModule)3240"},{"astId":5188,"contract":"contracts/protocol/NonUpgradable/WrappedSongSmartAccount.sol:WrappedSongSmartAccount","label":"metadataModule","offset":0,"slot":"5","type":"t_contract(IMetadataModule)2755"},{"astId":5190,"contract":"contracts/protocol/NonUpgradable/WrappedSongSmartAccount.sol:WrappedSongSmartAccount","label":"songSharesId","offset":0,"slot":"6","type":"t_uint256"},{"astId":5192,"contract":"contracts/protocol/NonUpgradable/WrappedSongSmartAccount.sol:WrappedSongSmartAccount","label":"wrappedSongTokenId","offset":0,"slot":"7","type":"t_uint256"},{"astId":5194,"contract":"contracts/protocol/NonUpgradable/WrappedSongSmartAccount.sol:WrappedSongSmartAccount","label":"ethBalance","offset":0,"slot":"8","type":"t_uint256"},{"astId":5196,"contract":"contracts/protocol/NonUpgradable/WrappedSongSmartAccount.sol:WrappedSongSmartAccount","label":"_pendingStablecoinEarnings","offset":0,"slot":"9","type":"t_uint256"},{"astId":5206,"contract":"contracts/protocol/NonUpgradable/WrappedSongSmartAccount.sol:WrappedSongSmartAccount","label":"_userEpochBalances","offset":0,"slot":"10","type":"t_mapping(t_address,t_struct(EpochBalance)5201_storage)"},{"astId":5221,"contract":"contracts/protocol/NonUpgradable/WrappedSongSmartAccount.sol:WrappedSongSmartAccount","label":"_ethEarningsEpochs","offset":0,"slot":"11","type":"t_array(t_struct(EarningsEpoch)5217_storage)dyn_storage"},{"astId":5225,"contract":"contracts/protocol/NonUpgradable/WrappedSongSmartAccount.sol:WrappedSongSmartAccount","label":"_stablecoinEarningsEpochs","offset":0,"slot":"12","type":"t_array(t_struct(EarningsEpoch)5217_storage)dyn_storage"},{"astId":5233,"contract":"contracts/protocol/NonUpgradable/WrappedSongSmartAccount.sol:WrappedSongSmartAccount","label":"migrated","offset":0,"slot":"13","type":"t_bool"}],"types":{"t_address":{"encoding":"inplace","label":"address","numberOfBytes":"20"},"t_array(t_struct(EarningsEpoch)5217_storage)dyn_storage":{"base":"t_struct(EarningsEpoch)5217_storage","encoding":"dynamic_array","label":"struct WrappedSongSmartAccount.EarningsEpoch[]","numberOfBytes":"32"},"t_bool":{"encoding":"inplace","label":"bool","numberOfBytes":"1"},"t_contract(IERC20)644":{"encoding":"inplace","label":"contract IERC20","numberOfBytes":"20"},"t_contract(IMetadataModule)2755":{"encoding":"inplace","label":"contract IMetadataModule","numberOfBytes":"20"},"t_contract(IProtocolModule)3240":{"encoding":"inplace","label":"contract IProtocolModule","numberOfBytes":"20"},"t_contract(IWSTokenManagement)3356":{"encoding":"inplace","label":"contract IWSTokenManagement","numberOfBytes":"20"},"t_mapping(t_address,t_struct(EpochBalance)5201_storage)":{"encoding":"mapping","key":"t_address","label":"mapping(address => struct WrappedSongSmartAccount.EpochBalance)","numberOfBytes":"32","value":"t_struct(EpochBalance)5201_storage"},"t_struct(EarningsEpoch)5217_storage":{"encoding":"inplace","label":"struct WrappedSongSmartAccount.EarningsEpoch","members":[{"astId":5208,"contract":"contracts/protocol/NonUpgradable/WrappedSongSmartAccount.sol:WrappedSongSmartAccount","label":"epochId","offset":0,"slot":"0","type":"t_uint256"},{"astId":5210,"contract":"contracts/protocol/NonUpgradable/WrappedSongSmartAccount.sol:WrappedSongSmartAccount","label":"amount","offset":0,"slot":"1","type":"t_uint256"},{"astId":5212,"contract":"contracts/protocol/NonUpgradable/WrappedSongSmartAccount.sol:WrappedSongSmartAccount","label":"earningsPerShare","offset":0,"slot":"2","type":"t_uint256"},{"astId":5214,"contract":"contracts/protocol/NonUpgradable/WrappedSongSmartAccount.sol:WrappedSongSmartAccount","label":"timestamp","offset":0,"slot":"3","type":"t_uint256"},{"astId":5216,"contract":"contracts/protocol/NonUpgradable/WrappedSongSmartAccount.sol:WrappedSongSmartAccount","label":"sender","offset":0,"slot":"4","type":"t_address"}],"numberOfBytes":"160"},"t_struct(EpochBalance)5201_storage":{"encoding":"inplace","label":"struct WrappedSongSmartAccount.EpochBalance","members":[{"astId":5198,"contract":"contracts/protocol/NonUpgradable/WrappedSongSmartAccount.sol:WrappedSongSmartAccount","label":"lastClaimedEpoch","offset":0,"slot":"0","type":"t_uint256"},{"astId":5200,"contract":"contracts/protocol/NonUpgradable/WrappedSongSmartAccount.sol:WrappedSongSmartAccount","label":"lastClaimedETHEpoch","offset":0,"slot":"1","type":"t_uint256"}],"numberOfBytes":"64"},"t_uint256":{"encoding":"inplace","label":"uint256","numberOfBytes":"32"}}}}}}