{"contracts/protocol/Modules/ReleaseModule.sol":{"ReleaseModule":{"abi":[{"inputs":[],"stateMutability":"nonpayable","type":"constructor"},{"inputs":[{"internalType":"address","name":"target","type":"address"}],"name":"AddressEmptyCode","type":"error"},{"inputs":[{"internalType":"address","name":"account","type":"address"}],"name":"AddressInsufficientBalance","type":"error"},{"inputs":[],"name":"FailedInnerCall","type":"error"},{"inputs":[{"internalType":"address","name":"owner","type":"address"}],"name":"OwnableInvalidOwner","type":"error"},{"inputs":[{"internalType":"address","name":"account","type":"address"}],"name":"OwnableUnauthorizedAccount","type":"error"},{"inputs":[],"name":"ReentrancyGuardReentrantCall","type":"error"},{"inputs":[{"internalType":"address","name":"token","type":"address"}],"name":"SafeERC20FailedOperation","type":"error"},{"anonymous":false,"inputs":[{"indexed":true,"internalType":"address","name":"wrappedSong","type":"address"},{"indexed":true,"internalType":"address","name":"distributor","type":"address"}],"name":"DistributorAcceptedReview","type":"event"},{"anonymous":false,"inputs":[{"indexed":true,"internalType":"address","name":"token","type":"address"},{"indexed":true,"internalType":"address","name":"recipient","type":"address"},{"indexed":false,"internalType":"uint256","name":"amount","type":"uint256"}],"name":"FeesWithdrawn","type":"event"},{"anonymous":false,"inputs":[{"indexed":true,"internalType":"address","name":"previousOwner","type":"address"},{"indexed":true,"internalType":"address","name":"newOwner","type":"address"}],"name":"OwnershipTransferred","type":"event"},{"anonymous":false,"inputs":[{"indexed":true,"internalType":"address","name":"wrappedSong","type":"address"},{"indexed":true,"internalType":"address","name":"token","type":"address"},{"indexed":false,"internalType":"uint256","name":"amount","type":"uint256"}],"name":"ReleaseFeeCollected","type":"event"},{"anonymous":false,"inputs":[{"indexed":false,"internalType":"bool","name":"enabled","type":"bool"}],"name":"ReleasesEnabledChanged","type":"event"},{"anonymous":false,"inputs":[{"indexed":true,"internalType":"address","name":"wrappedSong","type":"address"},{"indexed":true,"internalType":"address","name":"distributor","type":"address"}],"name":"ReviewPeriodExpired","type":"event"},{"anonymous":false,"inputs":[{"indexed":true,"internalType":"address","name":"wrappedSong","type":"address"},{"indexed":true,"internalType":"address","name":"distributor","type":"address"}],"name":"WrappedSongReleaseRejected","type":"event"},{"anonymous":false,"inputs":[{"indexed":true,"internalType":"address","name":"wrappedSong","type":"address"},{"indexed":true,"internalType":"address","name":"distributor","type":"address"},{"indexed":true,"internalType":"address","name":"creator","type":"address"}],"name":"WrappedSongReleaseRequested","type":"event"},{"anonymous":false,"inputs":[{"indexed":true,"internalType":"address","name":"wrappedSong","type":"address"},{"indexed":true,"internalType":"address","name":"distributor","type":"address"}],"name":"WrappedSongReleased","type":"event"},{"stateMutability":"payable","type":"fallback"},{"inputs":[{"internalType":"address","name":"wrappedSong","type":"address"}],"name":"acceptWrappedSongForReview","outputs":[],"stateMutability":"nonpayable","type":"function"},{"inputs":[{"internalType":"address","name":"","type":"address"}],"name":"accumulatedFees","outputs":[{"internalType":"uint256","name":"","type":"uint256"}],"stateMutability":"view","type":"function"},{"inputs":[{"internalType":"address","name":"wrappedSong","type":"address"}],"name":"confirmWrappedSongRelease","outputs":[],"stateMutability":"nonpayable","type":"function"},{"inputs":[],"name":"distributorWalletFactory","outputs":[{"internalType":"contract IDistributorWalletFactory","name":"","type":"address"}],"stateMutability":"view","type":"function"},{"inputs":[],"name":"erc20whitelist","outputs":[{"internalType":"contract IERC20Whitelist","name":"","type":"address"}],"stateMutability":"view","type":"function"},{"inputs":[],"name":"feesModule","outputs":[{"internalType":"contract IFeesModule","name":"","type":"address"}],"stateMutability":"view","type":"function"},{"inputs":[{"internalType":"address","name":"wrappedSong","type":"address"}],"name":"getPendingDistributorRequests","outputs":[{"internalType":"address","name":"","type":"address"}],"stateMutability":"view","type":"function"},{"inputs":[{"internalType":"address","name":"wrappedSong","type":"address"}],"name":"getWrappedSongDistributor","outputs":[{"internalType":"address","name":"","type":"address"}],"stateMutability":"view","type":"function"},{"inputs":[{"internalType":"address","name":"wrappedSong","type":"address"}],"name":"handleExpiredReviewPeriod","outputs":[],"stateMutability":"nonpayable","type":"function"},{"inputs":[{"internalType":"address","name":"_feesModule","type":"address"},{"internalType":"address","name":"_erc20whitelist","type":"address"},{"internalType":"address","name":"_distributorWalletFactory","type":"address"},{"internalType":"address","name":"_metadataModule","type":"address"}],"name":"initialize","outputs":[],"stateMutability":"nonpayable","type":"function"},{"inputs":[{"internalType":"address","name":"wrappedSong","type":"address"}],"name":"isReleased","outputs":[{"internalType":"bool","name":"","type":"bool"}],"stateMutability":"view","type":"function"},{"inputs":[],"name":"metadataModule","outputs":[{"internalType":"contract IMetadataModule","name":"","type":"address"}],"stateMutability":"view","type":"function"},{"inputs":[],"name":"owner","outputs":[{"internalType":"address","name":"","type":"address"}],"stateMutability":"view","type":"function"},{"inputs":[{"internalType":"address","name":"","type":"address"}],"name":"pendingDistributorRequests","outputs":[{"internalType":"address","name":"","type":"address"}],"stateMutability":"view","type":"function"},{"inputs":[{"internalType":"address","name":"wrappedSong","type":"address"}],"name":"rejectWrappedSongRelease","outputs":[],"stateMutability":"nonpayable","type":"function"},{"inputs":[],"name":"releasesEnabled","outputs":[{"internalType":"bool","name":"","type":"bool"}],"stateMutability":"view","type":"function"},{"inputs":[{"internalType":"address","name":"wrappedSong","type":"address"}],"name":"removeWrappedSongReleaseRequest","outputs":[],"stateMutability":"nonpayable","type":"function"},{"inputs":[],"name":"renounceOwnership","outputs":[],"stateMutability":"nonpayable","type":"function"},{"inputs":[{"internalType":"address","name":"wrappedSong","type":"address"},{"internalType":"address","name":"distributor","type":"address"}],"name":"requestWrappedSongRelease","outputs":[],"stateMutability":"payable","type":"function"},{"inputs":[{"internalType":"address","name":"wrappedSong","type":"address"},{"internalType":"address","name":"distributor","type":"address"},{"components":[{"internalType":"string","name":"name","type":"string"},{"internalType":"string","name":"description","type":"string"},{"internalType":"string","name":"image","type":"string"},{"internalType":"string","name":"externalUrl","type":"string"},{"internalType":"string","name":"animationUrl","type":"string"},{"internalType":"string","name":"attributesIpfsHash","type":"string"}],"internalType":"struct IMetadataModule.Metadata","name":"newMetadata","type":"tuple"}],"name":"requestWrappedSongReleaseWithMetadata","outputs":[],"stateMutability":"payable","type":"function"},{"inputs":[],"name":"reviewPeriodDays","outputs":[{"internalType":"uint256","name":"","type":"uint256"}],"stateMutability":"view","type":"function"},{"inputs":[{"internalType":"address","name":"","type":"address"}],"name":"reviewPeriods","outputs":[{"internalType":"uint256","name":"startTime","type":"uint256"},{"internalType":"uint256","name":"endTime","type":"uint256"},{"internalType":"address","name":"distributor","type":"address"}],"stateMutability":"view","type":"function"},{"inputs":[{"internalType":"bool","name":"_enabled","type":"bool"}],"name":"setReleasesEnabled","outputs":[],"stateMutability":"nonpayable","type":"function"},{"inputs":[{"internalType":"uint256","name":"_days","type":"uint256"}],"name":"setReviewPeriodDays","outputs":[],"stateMutability":"nonpayable","type":"function"},{"inputs":[{"internalType":"address","name":"newOwner","type":"address"}],"name":"transferOwnership","outputs":[],"stateMutability":"nonpayable","type":"function"},{"inputs":[{"internalType":"address","name":"token","type":"address"},{"internalType":"address","name":"recipient","type":"address"}],"name":"withdrawAccumulatedFees","outputs":[],"stateMutability":"nonpayable","type":"function"},{"inputs":[{"internalType":"address","name":"","type":"address"}],"name":"wrappedSongToDistributor","outputs":[{"internalType":"address","name":"","type":"address"}],"stateMutability":"view","type":"function"},{"stateMutability":"payable","type":"receive"}],"evm":{"bytecode":{"linkReferences":{},"object":"6080806040523461009057331561007a5760008054336001600160a01b03198216811783556040519290916001600160a01b0316907f8be0079c531659141344cd1fd0a4f28419497f9722a3daafe3b4186f6b6457e09080a360018055600160ff19600a541617600a556007600b55611b4990816100968239f35b631e4fbdf760e01b815260006004820152602490fd5b600080fdfe608060409080825260049182361015610020575b505050361561001e57005b005b600091823560e01c90816309da4e51146110ac575080630c5d8da114611084578063175b818c146110615780631a3b00e2146110435780631f471069146110215780632b03295f14610e625780632cd6c9a614610c045780633684d10014610e3a578063376c1f0714610c7a57806337c38c4814610c3e5780633aa690e714610c045780634b08ec5014610a565780636b09d202146108315780636d4726d914610a2e578063715018a6146109d45780638437de38146109715780638da5cb5b1461094a578063b0c70e271461086b578063c7be5e2a14610831578063ccad87f014610749578063cd36bc9a14610701578063e72cfcb8146106af578063f2fde38b14610628578063f526036914610520578063f8c8765e1461041c578063fcf66664146103e15763ffc5a46f03610013576003196060368201126103dd576101676110d1565b906101706110ec565b926044359167ffffffffffffffff908184116103d95760c09084360301126103d55781519260c08401848110838211176103c2578352808801358281116103be576101c090893691840101611172565b845260248101358281116103be576101dd90893691840101611172565b906020850191825260448101358381116103ba57610200908a3691840101611172565b9184860192835260648201358481116103b657610222908b3691850101611172565b916060870192835260848101358581116103b257610245908c3691840101611172565b906080880191825260a48101358681116103ae57610267913691018d01611172565b9060a0880191825261027d60ff600a54166111e5565b6102878a8a6112a8565b6102908961166e565b6005546001600160a01b0390811695909490863b156103aa57938d95938d9795938c9389958c519d8e9a8b998a98635dc447ed60e01b8a5216908801528d6024880152516044870160c0905261010487016102ea91611231565b9451604319958688820301606489015261030391611231565b9051908587820301608488015261031991611231565b905190848682030160a487015261032f91611231565b905190838582030160c486015261034591611231565b9051918382030160e484015261035a91611231565b03925af180156103a057610377575b85610374868661152c565b80f35b829593951161038d575291925082388080610369565b634e487b7160e01b835260418652602483fd5b82513d88823e3d90fd5b8c80fd5b8b80fd5b8a80fd5b8980fd5b8880fd5b8780fd5b634e487b7160e01b885260418952602488fd5b8580fd5b8680fd5b8280fd5b50346104185760203660031901126104185760209181906001600160a01b036104086110d1565b1681526006845220549051908152f35b5080fd5b508290346103dd5760803660031901126103dd576104386110d1565b916104416110ec565b6001600160a01b03926044358481169291908390036103d957606435958587168097036103be576104706111b9565b600254918683161580610514575b80610509575b806104fd575b156104c55750908592916001600160601b0360a01b968791169116176002551683600354161760035582825416179055600554161760055580f35b5162461bcd60e51b81526020818701526013602482015272105b1c9958591e481a5b9a5d1a585b1a5e9959606a1b6044820152606490fd5b5086600554161561048a565b508686541615610484565b5086600354161561047e565b5081839134610418576020806003193601126103dd576001600160a01b039381856105496110d1565b16958686526008825261056281868820541633146115f2565b82541691602485518094819363d42fe23160e01b835233908301525afa90811561061b579161059e6009926002959487916105ee575b50611583565b8585526008815282852080546001600160a01b031916905552822082815560018101839055015533907fc507cac5427f24391d3862582c450f4840191f3fb50ae93ea8eb3e5d0a27241a8380a380f35b61060e9150833d8511610614575b6106068183611134565b810190611290565b89610598565b503d6105fc565b50505051903d90823e3d90fd5b5082346103dd5760203660031901126103dd576106436110d1565b9061064c6111b9565b6001600160a01b0391821692831561069957505082546001600160a01b0319811683178455167f8be0079c531659141344cd1fd0a4f28419497f9722a3daafe3b4186f6b6457e08380a380f35b51631e4fbdf760e01b8152908101849052602490fd5b5034610418576020366003190112610418576060916001600160a01b0391908190836106d96110d1565b1681526009602052209081549260026001840154930154169181519384526020840152820152f35b50366003190112610746576103746107176110d1565b61071f6110ec565b9061072e60ff600a54166111e5565b61073882826112a8565b6107418161166e565b61152c565b80fd5b5082346103dd5760203660031901126103dd576001600160a01b03908161076e6110d1565b169283855260096020528085209181519261078884611102565b805484528285600260018401549384602089015201541694019384524211156107ef5750600285918583526009602052822082815582600182015501555116907ffbea9ba5ee98f3c8b5c04ea0c944ead3100801a041d88f0c7e90d404ddac1c6a8380a380f35b6020606492519162461bcd60e51b8352820152601d60248201527f52657669657720706572696f6420686173206e6f7420657870697265640000006044820152fd5b5034610418576020366003190112610418576020916001600160a01b039082908261085a6110d1565b168152600885522054169051908152f35b5081839134610418576020806003193601126103dd576001600160a01b039381856108946110d1565b1695868652600882526108ad81868820541633146115f2565b82541691602485518094819363d42fe23160e01b835233908301525afa90811561061b57916108e86009926002959487916105ee5750611583565b858552600781528285206001600160601b0360a01b90338282541617905560088252838620908154169055528220828155826001820155015533907f1ec2d15be1d4041a85003ee3860453fb0818606e3ccda6f18c41e692a25d5eea8380a380f35b5034610418578160031936011261041857905490516001600160a01b039091168152602090f35b5082346103dd5760203660031901126103dd5735908115158092036103dd577fb5bb594c95eb864915724f4025ebea72bd6b2c96ee4243baceea4d04365efb68916020916109bd6111b9565b60ff19600a541660ff831617600a5551908152a180f35b82346107465780600319360112610746576109ed6111b9565b80546001600160a01b03198116825581906001600160a01b03167f8be0079c531659141344cd1fd0a4f28419497f9722a3daafe3b4186f6b6457e08280a380f35b503461041857816003193601126104185760025490516001600160a01b039091168152602090f35b5082346103dd5760209081600319360112610c00576001600160a01b0380610a7c6110d1565b1693848652600884528181872054163303610ba7576024848385541683519283809263d42fe23160e01b825233898301525afa908115610b9d5790610ac7918891610b805750611583565b84865260088452808620926001600160601b0360a01b93848154169055600b54906201518091828102928184041490151715610b6d575090610b0b600292426115cf565b815191610b1783611102565b428352868301918252600981840197338952898b5252882091518255516001820155019251169082541617905533907f0410af91d3fc953f1f383fde268b1cf5278d116a88123c657df6685f443359418380a380f35b634e487b7160e01b885260119052602487fd5b610b979150863d8811610614576106068183611134565b88610598565b82513d89823e3d90fd5b6084939150519162461bcd60e51b8352820152602e60248201527f4f6e6c792070656e64696e67206469737472696275746f722063616e2061636360448201526d65707420666f722072657669657760901b6064820152fd5b8380fd5b5034610418576020366003190112610418576020916001600160a01b0390829082610c2d6110d1565b168152600785522054169051908152f35b5034610418576020366003190112610418576020916001600160a01b0390829082610c676110d1565b1681526007855220541615159051908152f35b509134610418578260031936011261041857610c946110d1565b610c9c6110ec565b610ca46111b9565b600260015414610e2a57600260015560018060a01b03809216918285526020916006835286862054948515610df1578487526006845286888120558415600014610d6e5786808080898787165af1610cfa61163e565b5015610d3557507f5e110f8bc8a20b65dcc87f224bdf1cc039346e267118bae2739847f07321ffa8939495965b519586521693a36001805580f35b875162461bcd60e51b81529081018490526013602482015272115512081d1c985b9cd9995c8819985a5b1959606a1b6044820152606490fd5b96805163a9059cbb60e01b858201528383166024820152866044820152604481526080810181811067ffffffffffffffff821117610dde577f5e110f8bc8a20b65dcc87f224bdf1cc039346e267118bae2739847f07321ffa8969798995090610dd991835287611a3e565b610d27565b634e487b7160e01b895260418a52602489fd5b875162461bcd60e51b815290810184905260136024820152724e6f206665657320746f20776974686472617760681b6044820152606490fd5b8451633ee5aeb560e01b81528390fd5b503461041857816003193601126104185760055490516001600160a01b039091168152602090f35b5082346103dd57602080600319360112610c00576001600160a01b039182610e886110d1565b16908451638da5cb5b60e01b815283818381865afa80156110175785918891610fea575b50163303610f8c578186526008835283858720541615610f4957806024858593541695848952600884528789205416918751968793849263d42fe23160e01b84528301525afa928315610f3f57600893610f0c918791610f225750611583565b845252812080546001600160a01b031916905580f35b610f399150843d8611610614576106068183611134565b87610598565b84513d87823e3d90fd5b845162461bcd60e51b8152908101839052601a60248201527f4e6f2070656e64696e672072656c6561736520726571756573740000000000006044820152606490fd5b845162461bcd60e51b8152908101839052603260248201527f4f6e6c79207772617070656420736f6e67206f776e65722063616e2072656d6f6044820152711d99481c995b19585cd9481c995c5d595cdd60721b6064820152608490fd5b61100a9150853d8711611010575b6110028183611134565b810190611271565b88610eac565b503d610ff8565b86513d89823e3d90fd5b8284346104185760203660031901126104185761103c6111b9565b35600b5580f35b5034610418578160031936011261041857602090600b549051908152f35b503461041857816003193601126104185760209060ff600a541690519015158152f35b5082346103dd57826003193601126103dd575490516001600160a01b03909116815260209150f35b8390346104185781600319360112610418576003546001600160a01b03168152602090f35b600435906001600160a01b03821682036110e757565b600080fd5b602435906001600160a01b03821682036110e757565b6060810190811067ffffffffffffffff82111761111e57604052565b634e487b7160e01b600052604160045260246000fd5b90601f8019910116810190811067ffffffffffffffff82111761111e57604052565b67ffffffffffffffff811161111e57601f01601f191660200190565b81601f820112156110e75780359061118982611156565b926111976040519485611134565b828452602083830101116110e757816000926020809301838601378301015290565b6000546001600160a01b031633036111cd57565b60405163118cdaa760e01b8152336004820152602490fd5b156111ec57565b60405162461bcd60e51b815260206004820152601f60248201527f52656c6561736573206172652063757272656e746c792064697361626c6564006044820152606490fd5b919082519283825260005b84811061125d575050826000602080949584010152601f8019910116010190565b60208183018101518483018201520161123c565b908160209103126110e757516001600160a01b03811681036110e75790565b908160209103126110e7575180151581036110e75790565b60408051638da5cb5b60e01b81526004936020936001600160a01b0392908316919085818881865afa90811561152157908491600091611504575b501633036114ad5782811690811561145f573b1561140e57848387541691602486518094819363d42fe23160e01b83528b8301525afa908115611403576000916113e6575b5015611385576000526007835281600020541661134457505050565b5162461bcd60e51b815291820152601d60248201527f5772617070656420736f6e6720616c72656164792072656c6561736564000000604482015260649150fd5b50505162461bcd60e51b815291820152603560248201527f496e76616c6964206469737472696275746f722077616c6c65743a206e6f74206044820152747265676973746572656420696e20666163746f727960581b606482015260849150fd5b6113fd9150853d8711610614576106068183611134565b38611328565b84513d6000823e3d90fd5b835162461bcd60e51b8152808701869052602560248201527f4469737472696275746f722077616c6c6574206d757374206265206120636f6e6044820152641d1c9858dd60da1b6064820152608490fd5b845162461bcd60e51b8152808801879052602260248201527f496e76616c6964206469737472696275746f722077616c6c6574206164647265604482015261737360f01b6064820152608490fd5b835162461bcd60e51b8152808701869052602b60248201527f4f6e6c79207772617070656420736f6e67206f776e65722063616e207265717560448201526a6573742072656c6561736560a81b6064820152608490fd5b61151b9150873d8911611010576110028183611134565b386112e3565b85513d6000823e3d90fd5b6001600160a01b03908116600081815260086020526040812080546001600160a01b0319169390941692831790935533927fef84744274082261c3a861cf791747fa0ff5d32d6b7dad92e9f777118fc002899080a4565b1561158a57565b60405162461bcd60e51b815260206004820152601a60248201527f4469737472696275746f7220646f6573206e6f742065786973740000000000006044820152606490fd5b919082018092116115dc57565b634e487b7160e01b600052601160045260246000fd5b156115f957565b60405162461bcd60e51b815260206004820152601b60248201527f4e6f74207468652070656e64696e67206469737472696275746f7200000000006044820152606490fd5b3d15611669573d9061164f82611156565b9161165d6040519384611134565b82523d6000602084013e565b606090565b60025460408051638d0c0ce360e01b815260049493919290916020916001600160a01b039190821683858981845afa94851561184f57600095611a0f575b50855163d579e3f360e01b81529084828a81845afa9182156119e55789929186916000936119f0575b5088516337a0a9e960e11b815293849182905afa9182156119e5576000926119b6575b50851561196e571561185a57838360035416916024885180948193637c70c0a360e01b83528d8301525afa90811561184f57908391600091611832575b50169485156117e45780516323b872dd60e01b85820152336024820152306044820152606480820187905281529760a089019067ffffffffffffffff82118a8310176117cf57507f29aebcd0c90b02b955331c453efc06d743e10d2655ab14c0fa2aaec13706f214959697986117ad91835288611a3e565b8660005260068452806000206117c48782546115cf565b9055519485521692a3565b604190634e487b7160e01b6000525260246000fd5b5162461bcd60e51b8152808801849052602360248201527f4e6f2077686974656c697374656420737461626c65636f696e20617661696c61604482015262626c6560e81b6064820152608490fd5b6118499150853d8711611010576110028183611134565b38611735565b86513d6000823e3d90fd5b509495909280949294341061192c576000805260068552826000206118803482546115cf565b90558034116118bc575b505051348152600093909116917f29aebcd0c90b02b955331c453efc06d743e10d2655ab14c0fa2aaec13706f21491a3565b340334811161191757600080808093335af16118d661163e565b50156118e2578061188a565b83606492519162461bcd60e51b83528201526011602482015270115512081c99599d5b990819985a5b1959607a1b6044820152fd5b601182634e487b7160e01b6000525260246000fd5b5083606492519162461bcd60e51b8352820152601860248201527f496e636f7272656374204554482066656520616d6f756e7400000000000000006044820152fd5b505050509190509291923461198257505050565b5162461bcd60e51b815291820152601060248201526f119959481b9bdd081c995c5d5a5c995960821b604482015260649150fd5b90918582813d83116119de575b6119cd8183611134565b8101031261074657505190386116f8565b503d6119c3565b87513d6000823e3d90fd5b611a08919350823d8411610614576106068183611134565b91386116d5565b90948482813d8311611a37575b611a268183611134565b8101031261074657505193386116ac565b503d611a1c565b600080611a679260018060a01b03169360208151910182865af1611a6061163e565b9083611ab0565b8051908115159182611a95575b5050611a7d5750565b60249060405190635274afe760e01b82526004820152fd5b611aa89250602080918301019101611290565b153880611a74565b90611ad75750805115611ac557805190602001fd5b604051630a12f52160e11b8152600490fd5b81511580611b0a575b611ae8575090565b604051639996b31560e01b81526001600160a01b039091166004820152602490fd5b50803b15611ae056fea26469706673582212201347ee6153324862a33057db80a96090a936fc9f9ffc1b426d45af6289c02b1b64736f6c63430008140033","opcodes":"PUSH1 0x80 DUP1 PUSH1 0x40 MSTORE CALLVALUE PUSH2 0x90 JUMPI CALLER ISZERO PUSH2 0x7A JUMPI PUSH1 0x0 DUP1 SLOAD CALLER PUSH1 0x1 PUSH1 0x1 PUSH1 0xA0 SHL SUB NOT DUP3 AND DUP2 OR DUP4 SSTORE PUSH1 0x40 MLOAD SWAP3 SWAP1 SWAP2 PUSH1 0x1 PUSH1 0x1 PUSH1 0xA0 SHL SUB AND SWAP1 PUSH32 0x8BE0079C531659141344CD1FD0A4F28419497F9722A3DAAFE3B4186F6B6457E0 SWAP1 DUP1 LOG3 PUSH1 0x1 DUP1 SSTORE PUSH1 0x1 PUSH1 0xFF NOT PUSH1 0xA SLOAD AND OR PUSH1 0xA SSTORE PUSH1 0x7 PUSH1 0xB SSTORE PUSH2 0x1B49 SWAP1 DUP2 PUSH2 0x96 DUP3 CODECOPY RETURN JUMPDEST PUSH4 0x1E4FBDF7 PUSH1 0xE0 SHL DUP2 MSTORE PUSH1 0x0 PUSH1 0x4 DUP3 ADD MSTORE PUSH1 0x24 SWAP1 REVERT JUMPDEST PUSH1 0x0 DUP1 REVERT INVALID PUSH1 0x80 PUSH1 0x40 SWAP1 DUP1 DUP3 MSTORE PUSH1 0x4 SWAP2 DUP3 CALLDATASIZE LT ISZERO PUSH2 0x20 JUMPI JUMPDEST POP POP POP CALLDATASIZE ISZERO PUSH2 0x1E JUMPI STOP JUMPDEST STOP JUMPDEST PUSH1 0x0 SWAP2 DUP3 CALLDATALOAD PUSH1 0xE0 SHR SWAP1 DUP2 PUSH4 0x9DA4E51 EQ PUSH2 0x10AC JUMPI POP DUP1 PUSH4 0xC5D8DA1 EQ PUSH2 0x1084 JUMPI DUP1 PUSH4 0x175B818C EQ PUSH2 0x1061 JUMPI DUP1 PUSH4 0x1A3B00E2 EQ PUSH2 0x1043 JUMPI DUP1 PUSH4 0x1F471069 EQ PUSH2 0x1021 JUMPI DUP1 PUSH4 0x2B03295F EQ PUSH2 0xE62 JUMPI DUP1 PUSH4 0x2CD6C9A6 EQ PUSH2 0xC04 JUMPI DUP1 PUSH4 0x3684D100 EQ PUSH2 0xE3A JUMPI DUP1 PUSH4 0x376C1F07 EQ PUSH2 0xC7A JUMPI DUP1 PUSH4 0x37C38C48 EQ PUSH2 0xC3E JUMPI DUP1 PUSH4 0x3AA690E7 EQ PUSH2 0xC04 JUMPI DUP1 PUSH4 0x4B08EC50 EQ PUSH2 0xA56 JUMPI DUP1 PUSH4 0x6B09D202 EQ PUSH2 0x831 JUMPI DUP1 PUSH4 0x6D4726D9 EQ PUSH2 0xA2E JUMPI DUP1 PUSH4 0x715018A6 EQ PUSH2 0x9D4 JUMPI DUP1 PUSH4 0x8437DE38 EQ PUSH2 0x971 JUMPI DUP1 PUSH4 0x8DA5CB5B EQ PUSH2 0x94A JUMPI DUP1 PUSH4 0xB0C70E27 EQ PUSH2 0x86B JUMPI DUP1 PUSH4 0xC7BE5E2A EQ PUSH2 0x831 JUMPI DUP1 PUSH4 0xCCAD87F0 EQ PUSH2 0x749 JUMPI DUP1 PUSH4 0xCD36BC9A EQ PUSH2 0x701 JUMPI DUP1 PUSH4 0xE72CFCB8 EQ PUSH2 0x6AF JUMPI DUP1 PUSH4 0xF2FDE38B EQ PUSH2 0x628 JUMPI DUP1 PUSH4 0xF5260369 EQ PUSH2 0x520 JUMPI DUP1 PUSH4 0xF8C8765E EQ PUSH2 0x41C JUMPI DUP1 PUSH4 0xFCF66664 EQ PUSH2 0x3E1 JUMPI PUSH4 0xFFC5A46F SUB PUSH2 0x13 JUMPI PUSH1 0x3 NOT PUSH1 0x60 CALLDATASIZE DUP3 ADD SLT PUSH2 0x3DD JUMPI PUSH2 0x167 PUSH2 0x10D1 JUMP JUMPDEST SWAP1 PUSH2 0x170 PUSH2 0x10EC JUMP JUMPDEST SWAP3 PUSH1 0x44 CALLDATALOAD SWAP2 PUSH8 0xFFFFFFFFFFFFFFFF SWAP1 DUP2 DUP5 GT PUSH2 0x3D9 JUMPI PUSH1 0xC0 SWAP1 DUP5 CALLDATASIZE SUB ADD SLT PUSH2 0x3D5 JUMPI DUP2 MLOAD SWAP3 PUSH1 0xC0 DUP5 ADD DUP5 DUP2 LT DUP4 DUP3 GT OR PUSH2 0x3C2 JUMPI DUP4 MSTORE DUP1 DUP9 ADD CALLDATALOAD DUP3 DUP2 GT PUSH2 0x3BE JUMPI PUSH2 0x1C0 SWAP1 DUP10 CALLDATASIZE SWAP2 DUP5 ADD ADD PUSH2 0x1172 JUMP JUMPDEST DUP5 MSTORE PUSH1 0x24 DUP2 ADD CALLDATALOAD DUP3 DUP2 GT PUSH2 0x3BE JUMPI PUSH2 0x1DD SWAP1 DUP10 CALLDATASIZE SWAP2 DUP5 ADD ADD PUSH2 0x1172 JUMP JUMPDEST SWAP1 PUSH1 0x20 DUP6 ADD SWAP2 DUP3 MSTORE PUSH1 0x44 DUP2 ADD CALLDATALOAD DUP4 DUP2 GT PUSH2 0x3BA JUMPI PUSH2 0x200 SWAP1 DUP11 CALLDATASIZE SWAP2 DUP5 ADD ADD PUSH2 0x1172 JUMP JUMPDEST SWAP2 DUP5 DUP7 ADD SWAP3 DUP4 MSTORE PUSH1 0x64 DUP3 ADD CALLDATALOAD DUP5 DUP2 GT PUSH2 0x3B6 JUMPI PUSH2 0x222 SWAP1 DUP12 CALLDATASIZE SWAP2 DUP6 ADD ADD PUSH2 0x1172 JUMP JUMPDEST SWAP2 PUSH1 0x60 DUP8 ADD SWAP3 DUP4 MSTORE PUSH1 0x84 DUP2 ADD CALLDATALOAD DUP6 DUP2 GT PUSH2 0x3B2 JUMPI PUSH2 0x245 SWAP1 DUP13 CALLDATASIZE SWAP2 DUP5 ADD ADD PUSH2 0x1172 JUMP JUMPDEST SWAP1 PUSH1 0x80 DUP9 ADD SWAP2 DUP3 MSTORE PUSH1 0xA4 DUP2 ADD CALLDATALOAD DUP7 DUP2 GT PUSH2 0x3AE JUMPI PUSH2 0x267 SWAP2 CALLDATASIZE SWAP2 ADD DUP14 ADD PUSH2 0x1172 JUMP JUMPDEST SWAP1 PUSH1 0xA0 DUP9 ADD SWAP2 DUP3 MSTORE PUSH2 0x27D PUSH1 0xFF PUSH1 0xA SLOAD AND PUSH2 0x11E5 JUMP JUMPDEST PUSH2 0x287 DUP11 DUP11 PUSH2 0x12A8 JUMP JUMPDEST PUSH2 0x290 DUP10 PUSH2 0x166E JUMP JUMPDEST PUSH1 0x5 SLOAD PUSH1 0x1 PUSH1 0x1 PUSH1 0xA0 SHL SUB SWAP1 DUP2 AND SWAP6 SWAP1 SWAP5 SWAP1 DUP7 EXTCODESIZE ISZERO PUSH2 0x3AA JUMPI SWAP4 DUP14 SWAP6 SWAP4 DUP14 SWAP8 SWAP6 SWAP4 DUP13 SWAP4 DUP10 SWAP6 DUP13 MLOAD SWAP14 DUP15 SWAP11 DUP12 SWAP10 DUP11 SWAP9 PUSH4 0x5DC447ED PUSH1 0xE0 SHL DUP11 MSTORE AND SWAP1 DUP9 ADD MSTORE DUP14 PUSH1 0x24 DUP9 ADD MSTORE MLOAD PUSH1 0x44 DUP8 ADD PUSH1 0xC0 SWAP1 MSTORE PUSH2 0x104 DUP8 ADD PUSH2 0x2EA SWAP2 PUSH2 0x1231 JUMP JUMPDEST SWAP5 MLOAD PUSH1 0x43 NOT SWAP6 DUP7 DUP9 DUP3 SUB ADD PUSH1 0x64 DUP10 ADD MSTORE PUSH2 0x303 SWAP2 PUSH2 0x1231 JUMP JUMPDEST SWAP1 MLOAD SWAP1 DUP6 DUP8 DUP3 SUB ADD PUSH1 0x84 DUP9 ADD MSTORE PUSH2 0x319 SWAP2 PUSH2 0x1231 JUMP JUMPDEST SWAP1 MLOAD SWAP1 DUP5 DUP7 DUP3 SUB ADD PUSH1 0xA4 DUP8 ADD MSTORE PUSH2 0x32F SWAP2 PUSH2 0x1231 JUMP JUMPDEST SWAP1 MLOAD SWAP1 DUP4 DUP6 DUP3 SUB ADD PUSH1 0xC4 DUP7 ADD MSTORE PUSH2 0x345 SWAP2 PUSH2 0x1231 JUMP JUMPDEST SWAP1 MLOAD SWAP2 DUP4 DUP3 SUB ADD PUSH1 0xE4 DUP5 ADD MSTORE PUSH2 0x35A SWAP2 PUSH2 0x1231 JUMP JUMPDEST SUB SWAP3 GAS CALL DUP1 ISZERO PUSH2 0x3A0 JUMPI PUSH2 0x377 JUMPI JUMPDEST DUP6 PUSH2 0x374 DUP7 DUP7 PUSH2 0x152C JUMP JUMPDEST DUP1 RETURN JUMPDEST DUP3 SWAP6 SWAP4 SWAP6 GT PUSH2 0x38D JUMPI MSTORE SWAP2 SWAP3 POP DUP3 CODESIZE DUP1 DUP1 PUSH2 0x369 JUMP JUMPDEST PUSH4 0x4E487B71 PUSH1 0xE0 SHL DUP4 MSTORE PUSH1 0x41 DUP7 MSTORE PUSH1 0x24 DUP4 REVERT JUMPDEST DUP3 MLOAD RETURNDATASIZE DUP9 DUP3 RETURNDATACOPY RETURNDATASIZE SWAP1 REVERT JUMPDEST DUP13 DUP1 REVERT JUMPDEST DUP12 DUP1 REVERT JUMPDEST DUP11 DUP1 REVERT JUMPDEST DUP10 DUP1 REVERT JUMPDEST DUP9 DUP1 REVERT JUMPDEST DUP8 DUP1 REVERT JUMPDEST PUSH4 0x4E487B71 PUSH1 0xE0 SHL DUP9 MSTORE PUSH1 0x41 DUP10 MSTORE PUSH1 0x24 DUP9 REVERT JUMPDEST DUP6 DUP1 REVERT JUMPDEST DUP7 DUP1 REVERT JUMPDEST DUP3 DUP1 REVERT JUMPDEST POP CALLVALUE PUSH2 0x418 JUMPI PUSH1 0x20 CALLDATASIZE PUSH1 0x3 NOT ADD SLT PUSH2 0x418 JUMPI PUSH1 0x20 SWAP2 DUP2 SWAP1 PUSH1 0x1 PUSH1 0x1 PUSH1 0xA0 SHL SUB PUSH2 0x408 PUSH2 0x10D1 JUMP JUMPDEST AND DUP2 MSTORE PUSH1 0x6 DUP5 MSTORE KECCAK256 SLOAD SWAP1 MLOAD SWAP1 DUP2 MSTORE RETURN JUMPDEST POP DUP1 REVERT JUMPDEST POP DUP3 SWAP1 CALLVALUE PUSH2 0x3DD JUMPI PUSH1 0x80 CALLDATASIZE PUSH1 0x3 NOT ADD SLT PUSH2 0x3DD JUMPI PUSH2 0x438 PUSH2 0x10D1 JUMP JUMPDEST SWAP2 PUSH2 0x441 PUSH2 0x10EC JUMP JUMPDEST PUSH1 0x1 PUSH1 0x1 PUSH1 0xA0 SHL SUB SWAP3 PUSH1 0x44 CALLDATALOAD DUP5 DUP2 AND SWAP3 SWAP2 SWAP1 DUP4 SWAP1 SUB PUSH2 0x3D9 JUMPI PUSH1 0x64 CALLDATALOAD SWAP6 DUP6 DUP8 AND DUP1 SWAP8 SUB PUSH2 0x3BE JUMPI PUSH2 0x470 PUSH2 0x11B9 JUMP JUMPDEST PUSH1 0x2 SLOAD SWAP2 DUP7 DUP4 AND ISZERO DUP1 PUSH2 0x514 JUMPI JUMPDEST DUP1 PUSH2 0x509 JUMPI JUMPDEST DUP1 PUSH2 0x4FD JUMPI JUMPDEST ISZERO PUSH2 0x4C5 JUMPI POP SWAP1 DUP6 SWAP3 SWAP2 PUSH1 0x1 PUSH1 0x1 PUSH1 0x60 SHL SUB PUSH1 0xA0 SHL SWAP7 DUP8 SWAP2 AND SWAP2 AND OR PUSH1 0x2 SSTORE AND DUP4 PUSH1 0x3 SLOAD AND OR PUSH1 0x3 SSTORE DUP3 DUP3 SLOAD AND OR SWAP1 SSTORE PUSH1 0x5 SLOAD AND OR PUSH1 0x5 SSTORE DUP1 RETURN JUMPDEST MLOAD PUSH3 0x461BCD PUSH1 0xE5 SHL DUP2 MSTORE PUSH1 0x20 DUP2 DUP8 ADD MSTORE PUSH1 0x13 PUSH1 0x24 DUP3 ADD MSTORE PUSH19 0x105B1C9958591E481A5B9A5D1A585B1A5E9959 PUSH1 0x6A SHL PUSH1 0x44 DUP3 ADD MSTORE PUSH1 0x64 SWAP1 REVERT JUMPDEST POP DUP7 PUSH1 0x5 SLOAD AND ISZERO PUSH2 0x48A JUMP JUMPDEST POP DUP7 DUP7 SLOAD AND ISZERO PUSH2 0x484 JUMP JUMPDEST POP DUP7 PUSH1 0x3 SLOAD AND ISZERO PUSH2 0x47E JUMP JUMPDEST POP DUP2 DUP4 SWAP2 CALLVALUE PUSH2 0x418 JUMPI PUSH1 0x20 DUP1 PUSH1 0x3 NOT CALLDATASIZE ADD SLT PUSH2 0x3DD JUMPI PUSH1 0x1 PUSH1 0x1 PUSH1 0xA0 SHL SUB SWAP4 DUP2 DUP6 PUSH2 0x549 PUSH2 0x10D1 JUMP JUMPDEST AND SWAP6 DUP7 DUP7 MSTORE PUSH1 0x8 DUP3 MSTORE PUSH2 0x562 DUP2 DUP7 DUP9 KECCAK256 SLOAD AND CALLER EQ PUSH2 0x15F2 JUMP JUMPDEST DUP3 SLOAD AND SWAP2 PUSH1 0x24 DUP6 MLOAD DUP1 SWAP5 DUP2 SWAP4 PUSH4 0xD42FE231 PUSH1 0xE0 SHL DUP4 MSTORE CALLER SWAP1 DUP4 ADD MSTORE GAS STATICCALL SWAP1 DUP2 ISZERO PUSH2 0x61B JUMPI SWAP2 PUSH2 0x59E PUSH1 0x9 SWAP3 PUSH1 0x2 SWAP6 SWAP5 DUP8 SWAP2 PUSH2 0x5EE JUMPI JUMPDEST POP PUSH2 0x1583 JUMP JUMPDEST DUP6 DUP6 MSTORE PUSH1 0x8 DUP2 MSTORE DUP3 DUP6 KECCAK256 DUP1 SLOAD PUSH1 0x1 PUSH1 0x1 PUSH1 0xA0 SHL SUB NOT AND SWAP1 SSTORE MSTORE DUP3 KECCAK256 DUP3 DUP2 SSTORE PUSH1 0x1 DUP2 ADD DUP4 SWAP1 SSTORE ADD SSTORE CALLER SWAP1 PUSH32 0xC507CAC5427F24391D3862582C450F4840191F3FB50AE93EA8EB3E5D0A27241A DUP4 DUP1 LOG3 DUP1 RETURN JUMPDEST PUSH2 0x60E SWAP2 POP DUP4 RETURNDATASIZE DUP6 GT PUSH2 0x614 JUMPI JUMPDEST PUSH2 0x606 DUP2 DUP4 PUSH2 0x1134 JUMP JUMPDEST DUP2 ADD SWAP1 PUSH2 0x1290 JUMP JUMPDEST DUP10 PUSH2 0x598 JUMP JUMPDEST POP RETURNDATASIZE PUSH2 0x5FC JUMP JUMPDEST POP POP POP MLOAD SWAP1 RETURNDATASIZE SWAP1 DUP3 RETURNDATACOPY RETURNDATASIZE SWAP1 REVERT JUMPDEST POP DUP3 CALLVALUE PUSH2 0x3DD JUMPI PUSH1 0x20 CALLDATASIZE PUSH1 0x3 NOT ADD SLT PUSH2 0x3DD JUMPI PUSH2 0x643 PUSH2 0x10D1 JUMP JUMPDEST SWAP1 PUSH2 0x64C PUSH2 0x11B9 JUMP JUMPDEST PUSH1 0x1 PUSH1 0x1 PUSH1 0xA0 SHL SUB SWAP2 DUP3 AND SWAP3 DUP4 ISZERO PUSH2 0x699 JUMPI POP POP DUP3 SLOAD PUSH1 0x1 PUSH1 0x1 PUSH1 0xA0 SHL SUB NOT DUP2 AND DUP4 OR DUP5 SSTORE AND PUSH32 0x8BE0079C531659141344CD1FD0A4F28419497F9722A3DAAFE3B4186F6B6457E0 DUP4 DUP1 LOG3 DUP1 RETURN JUMPDEST MLOAD PUSH4 0x1E4FBDF7 PUSH1 0xE0 SHL DUP2 MSTORE SWAP1 DUP2 ADD DUP5 SWAP1 MSTORE PUSH1 0x24 SWAP1 REVERT JUMPDEST POP CALLVALUE PUSH2 0x418 JUMPI PUSH1 0x20 CALLDATASIZE PUSH1 0x3 NOT ADD SLT PUSH2 0x418 JUMPI PUSH1 0x60 SWAP2 PUSH1 0x1 PUSH1 0x1 PUSH1 0xA0 SHL SUB SWAP2 SWAP1 DUP2 SWAP1 DUP4 PUSH2 0x6D9 PUSH2 0x10D1 JUMP JUMPDEST AND DUP2 MSTORE PUSH1 0x9 PUSH1 0x20 MSTORE KECCAK256 SWAP1 DUP2 SLOAD SWAP3 PUSH1 0x2 PUSH1 0x1 DUP5 ADD SLOAD SWAP4 ADD SLOAD AND SWAP2 DUP2 MLOAD SWAP4 DUP5 MSTORE PUSH1 0x20 DUP5 ADD MSTORE DUP3 ADD MSTORE RETURN JUMPDEST POP CALLDATASIZE PUSH1 0x3 NOT ADD SLT PUSH2 0x746 JUMPI PUSH2 0x374 PUSH2 0x717 PUSH2 0x10D1 JUMP JUMPDEST PUSH2 0x71F PUSH2 0x10EC JUMP JUMPDEST SWAP1 PUSH2 0x72E PUSH1 0xFF PUSH1 0xA SLOAD AND PUSH2 0x11E5 JUMP JUMPDEST PUSH2 0x738 DUP3 DUP3 PUSH2 0x12A8 JUMP JUMPDEST PUSH2 0x741 DUP2 PUSH2 0x166E JUMP JUMPDEST PUSH2 0x152C JUMP JUMPDEST DUP1 REVERT JUMPDEST POP DUP3 CALLVALUE PUSH2 0x3DD JUMPI PUSH1 0x20 CALLDATASIZE PUSH1 0x3 NOT ADD SLT PUSH2 0x3DD JUMPI PUSH1 0x1 PUSH1 0x1 PUSH1 0xA0 SHL SUB SWAP1 DUP2 PUSH2 0x76E PUSH2 0x10D1 JUMP JUMPDEST AND SWAP3 DUP4 DUP6 MSTORE PUSH1 0x9 PUSH1 0x20 MSTORE DUP1 DUP6 KECCAK256 SWAP2 DUP2 MLOAD SWAP3 PUSH2 0x788 DUP5 PUSH2 0x1102 JUMP JUMPDEST DUP1 SLOAD DUP5 MSTORE DUP3 DUP6 PUSH1 0x2 PUSH1 0x1 DUP5 ADD SLOAD SWAP4 DUP5 PUSH1 0x20 DUP10 ADD MSTORE ADD SLOAD AND SWAP5 ADD SWAP4 DUP5 MSTORE TIMESTAMP GT ISZERO PUSH2 0x7EF JUMPI POP PUSH1 0x2 DUP6 SWAP2 DUP6 DUP4 MSTORE PUSH1 0x9 PUSH1 0x20 MSTORE DUP3 KECCAK256 DUP3 DUP2 SSTORE DUP3 PUSH1 0x1 DUP3 ADD SSTORE ADD SSTORE MLOAD AND SWAP1 PUSH32 0xFBEA9BA5EE98F3C8B5C04EA0C944EAD3100801A041D88F0C7E90D404DDAC1C6A DUP4 DUP1 LOG3 DUP1 RETURN JUMPDEST PUSH1 0x20 PUSH1 0x64 SWAP3 MLOAD SWAP2 PUSH3 0x461BCD PUSH1 0xE5 SHL DUP4 MSTORE DUP3 ADD MSTORE PUSH1 0x1D PUSH1 0x24 DUP3 ADD MSTORE PUSH32 0x52657669657720706572696F6420686173206E6F742065787069726564000000 PUSH1 0x44 DUP3 ADD MSTORE REVERT JUMPDEST POP CALLVALUE PUSH2 0x418 JUMPI PUSH1 0x20 CALLDATASIZE PUSH1 0x3 NOT ADD SLT PUSH2 0x418 JUMPI PUSH1 0x20 SWAP2 PUSH1 0x1 PUSH1 0x1 PUSH1 0xA0 SHL SUB SWAP1 DUP3 SWAP1 DUP3 PUSH2 0x85A PUSH2 0x10D1 JUMP JUMPDEST AND DUP2 MSTORE PUSH1 0x8 DUP6 MSTORE KECCAK256 SLOAD AND SWAP1 MLOAD SWAP1 DUP2 MSTORE RETURN JUMPDEST POP DUP2 DUP4 SWAP2 CALLVALUE PUSH2 0x418 JUMPI PUSH1 0x20 DUP1 PUSH1 0x3 NOT CALLDATASIZE ADD SLT PUSH2 0x3DD JUMPI PUSH1 0x1 PUSH1 0x1 PUSH1 0xA0 SHL SUB SWAP4 DUP2 DUP6 PUSH2 0x894 PUSH2 0x10D1 JUMP JUMPDEST AND SWAP6 DUP7 DUP7 MSTORE PUSH1 0x8 DUP3 MSTORE PUSH2 0x8AD DUP2 DUP7 DUP9 KECCAK256 SLOAD AND CALLER EQ PUSH2 0x15F2 JUMP JUMPDEST DUP3 SLOAD AND SWAP2 PUSH1 0x24 DUP6 MLOAD DUP1 SWAP5 DUP2 SWAP4 PUSH4 0xD42FE231 PUSH1 0xE0 SHL DUP4 MSTORE CALLER SWAP1 DUP4 ADD MSTORE GAS STATICCALL SWAP1 DUP2 ISZERO PUSH2 0x61B JUMPI SWAP2 PUSH2 0x8E8 PUSH1 0x9 SWAP3 PUSH1 0x2 SWAP6 SWAP5 DUP8 SWAP2 PUSH2 0x5EE JUMPI POP PUSH2 0x1583 JUMP JUMPDEST DUP6 DUP6 MSTORE PUSH1 0x7 DUP2 MSTORE DUP3 DUP6 KECCAK256 PUSH1 0x1 PUSH1 0x1 PUSH1 0x60 SHL SUB PUSH1 0xA0 SHL SWAP1 CALLER DUP3 DUP3 SLOAD AND OR SWAP1 SSTORE PUSH1 0x8 DUP3 MSTORE DUP4 DUP7 KECCAK256 SWAP1 DUP2 SLOAD AND SWAP1 SSTORE MSTORE DUP3 KECCAK256 DUP3 DUP2 SSTORE DUP3 PUSH1 0x1 DUP3 ADD SSTORE ADD SSTORE CALLER SWAP1 PUSH32 0x1EC2D15BE1D4041A85003EE3860453FB0818606E3CCDA6F18C41E692A25D5EEA DUP4 DUP1 LOG3 DUP1 RETURN JUMPDEST POP CALLVALUE PUSH2 0x418 JUMPI DUP2 PUSH1 0x3 NOT CALLDATASIZE ADD SLT PUSH2 0x418 JUMPI SWAP1 SLOAD SWAP1 MLOAD PUSH1 0x1 PUSH1 0x1 PUSH1 0xA0 SHL SUB SWAP1 SWAP2 AND DUP2 MSTORE PUSH1 0x20 SWAP1 RETURN JUMPDEST POP DUP3 CALLVALUE PUSH2 0x3DD JUMPI PUSH1 0x20 CALLDATASIZE PUSH1 0x3 NOT ADD SLT PUSH2 0x3DD JUMPI CALLDATALOAD SWAP1 DUP2 ISZERO ISZERO DUP1 SWAP3 SUB PUSH2 0x3DD JUMPI PUSH32 0xB5BB594C95EB864915724F4025EBEA72BD6B2C96EE4243BACEEA4D04365EFB68 SWAP2 PUSH1 0x20 SWAP2 PUSH2 0x9BD PUSH2 0x11B9 JUMP JUMPDEST PUSH1 0xFF NOT PUSH1 0xA SLOAD AND PUSH1 0xFF DUP4 AND OR PUSH1 0xA SSTORE MLOAD SWAP1 DUP2 MSTORE LOG1 DUP1 RETURN JUMPDEST DUP3 CALLVALUE PUSH2 0x746 JUMPI DUP1 PUSH1 0x3 NOT CALLDATASIZE ADD SLT PUSH2 0x746 JUMPI PUSH2 0x9ED PUSH2 0x11B9 JUMP JUMPDEST DUP1 SLOAD PUSH1 0x1 PUSH1 0x1 PUSH1 0xA0 SHL SUB NOT DUP2 AND DUP3 SSTORE DUP2 SWAP1 PUSH1 0x1 PUSH1 0x1 PUSH1 0xA0 SHL SUB AND PUSH32 0x8BE0079C531659141344CD1FD0A4F28419497F9722A3DAAFE3B4186F6B6457E0 DUP3 DUP1 LOG3 DUP1 RETURN JUMPDEST POP CALLVALUE PUSH2 0x418 JUMPI DUP2 PUSH1 0x3 NOT CALLDATASIZE ADD SLT PUSH2 0x418 JUMPI PUSH1 0x2 SLOAD SWAP1 MLOAD PUSH1 0x1 PUSH1 0x1 PUSH1 0xA0 SHL SUB SWAP1 SWAP2 AND DUP2 MSTORE PUSH1 0x20 SWAP1 RETURN JUMPDEST POP DUP3 CALLVALUE PUSH2 0x3DD JUMPI PUSH1 0x20 SWAP1 DUP2 PUSH1 0x3 NOT CALLDATASIZE ADD SLT PUSH2 0xC00 JUMPI PUSH1 0x1 PUSH1 0x1 PUSH1 0xA0 SHL SUB DUP1 PUSH2 0xA7C PUSH2 0x10D1 JUMP JUMPDEST AND SWAP4 DUP5 DUP7 MSTORE PUSH1 0x8 DUP5 MSTORE DUP2 DUP2 DUP8 KECCAK256 SLOAD AND CALLER SUB PUSH2 0xBA7 JUMPI PUSH1 0x24 DUP5 DUP4 DUP6 SLOAD AND DUP4 MLOAD SWAP3 DUP4 DUP1 SWAP3 PUSH4 0xD42FE231 PUSH1 0xE0 SHL DUP3 MSTORE CALLER DUP10 DUP4 ADD MSTORE GAS STATICCALL SWAP1 DUP2 ISZERO PUSH2 0xB9D JUMPI SWAP1 PUSH2 0xAC7 SWAP2 DUP9 SWAP2 PUSH2 0xB80 JUMPI POP PUSH2 0x1583 JUMP JUMPDEST DUP5 DUP7 MSTORE PUSH1 0x8 DUP5 MSTORE DUP1 DUP7 KECCAK256 SWAP3 PUSH1 0x1 PUSH1 0x1 PUSH1 0x60 SHL SUB PUSH1 0xA0 SHL SWAP4 DUP5 DUP2 SLOAD AND SWAP1 SSTORE PUSH1 0xB SLOAD SWAP1 PUSH3 0x15180 SWAP2 DUP3 DUP2 MUL SWAP3 DUP2 DUP5 DIV EQ SWAP1 ISZERO OR ISZERO PUSH2 0xB6D JUMPI POP SWAP1 PUSH2 0xB0B PUSH1 0x2 SWAP3 TIMESTAMP PUSH2 0x15CF JUMP JUMPDEST DUP2 MLOAD SWAP2 PUSH2 0xB17 DUP4 PUSH2 0x1102 JUMP JUMPDEST TIMESTAMP DUP4 MSTORE DUP7 DUP4 ADD SWAP2 DUP3 MSTORE PUSH1 0x9 DUP2 DUP5 ADD SWAP8 CALLER DUP10 MSTORE DUP10 DUP12 MSTORE MSTORE DUP9 KECCAK256 SWAP2 MLOAD DUP3 SSTORE MLOAD PUSH1 0x1 DUP3 ADD SSTORE ADD SWAP3 MLOAD AND SWAP1 DUP3 SLOAD AND OR SWAP1 SSTORE CALLER SWAP1 PUSH32 0x410AF91D3FC953F1F383FDE268B1CF5278D116A88123C657DF6685F44335941 DUP4 DUP1 LOG3 DUP1 RETURN JUMPDEST PUSH4 0x4E487B71 PUSH1 0xE0 SHL DUP9 MSTORE PUSH1 0x11 SWAP1 MSTORE PUSH1 0x24 DUP8 REVERT JUMPDEST PUSH2 0xB97 SWAP2 POP DUP7 RETURNDATASIZE DUP9 GT PUSH2 0x614 JUMPI PUSH2 0x606 DUP2 DUP4 PUSH2 0x1134 JUMP JUMPDEST DUP9 PUSH2 0x598 JUMP JUMPDEST DUP3 MLOAD RETURNDATASIZE DUP10 DUP3 RETURNDATACOPY RETURNDATASIZE SWAP1 REVERT JUMPDEST PUSH1 0x84 SWAP4 SWAP2 POP MLOAD SWAP2 PUSH3 0x461BCD PUSH1 0xE5 SHL DUP4 MSTORE DUP3 ADD MSTORE PUSH1 0x2E PUSH1 0x24 DUP3 ADD MSTORE PUSH32 0x4F6E6C792070656E64696E67206469737472696275746F722063616E20616363 PUSH1 0x44 DUP3 ADD MSTORE PUSH14 0x65707420666F7220726576696577 PUSH1 0x90 SHL PUSH1 0x64 DUP3 ADD MSTORE REVERT JUMPDEST DUP4 DUP1 REVERT JUMPDEST POP CALLVALUE PUSH2 0x418 JUMPI PUSH1 0x20 CALLDATASIZE PUSH1 0x3 NOT ADD SLT PUSH2 0x418 JUMPI PUSH1 0x20 SWAP2 PUSH1 0x1 PUSH1 0x1 PUSH1 0xA0 SHL SUB SWAP1 DUP3 SWAP1 DUP3 PUSH2 0xC2D PUSH2 0x10D1 JUMP JUMPDEST AND DUP2 MSTORE PUSH1 0x7 DUP6 MSTORE KECCAK256 SLOAD AND SWAP1 MLOAD SWAP1 DUP2 MSTORE RETURN JUMPDEST POP CALLVALUE PUSH2 0x418 JUMPI PUSH1 0x20 CALLDATASIZE PUSH1 0x3 NOT ADD SLT PUSH2 0x418 JUMPI PUSH1 0x20 SWAP2 PUSH1 0x1 PUSH1 0x1 PUSH1 0xA0 SHL SUB SWAP1 DUP3 SWAP1 DUP3 PUSH2 0xC67 PUSH2 0x10D1 JUMP JUMPDEST AND DUP2 MSTORE PUSH1 0x7 DUP6 MSTORE KECCAK256 SLOAD AND ISZERO ISZERO SWAP1 MLOAD SWAP1 DUP2 MSTORE RETURN JUMPDEST POP SWAP2 CALLVALUE PUSH2 0x418 JUMPI DUP3 PUSH1 0x3 NOT CALLDATASIZE ADD SLT PUSH2 0x418 JUMPI PUSH2 0xC94 PUSH2 0x10D1 JUMP JUMPDEST PUSH2 0xC9C PUSH2 0x10EC JUMP JUMPDEST PUSH2 0xCA4 PUSH2 0x11B9 JUMP JUMPDEST PUSH1 0x2 PUSH1 0x1 SLOAD EQ PUSH2 0xE2A JUMPI PUSH1 0x2 PUSH1 0x1 SSTORE PUSH1 0x1 DUP1 PUSH1 0xA0 SHL SUB DUP1 SWAP3 AND SWAP2 DUP3 DUP6 MSTORE PUSH1 0x20 SWAP2 PUSH1 0x6 DUP4 MSTORE DUP7 DUP7 KECCAK256 SLOAD SWAP5 DUP6 ISZERO PUSH2 0xDF1 JUMPI DUP5 DUP8 MSTORE PUSH1 0x6 DUP5 MSTORE DUP7 DUP9 DUP2 KECCAK256 SSTORE DUP5 ISZERO PUSH1 0x0 EQ PUSH2 0xD6E JUMPI DUP7 DUP1 DUP1 DUP1 DUP10 DUP8 DUP8 AND GAS CALL PUSH2 0xCFA PUSH2 0x163E JUMP JUMPDEST POP ISZERO PUSH2 0xD35 JUMPI POP PUSH32 0x5E110F8BC8A20B65DCC87F224BDF1CC039346E267118BAE2739847F07321FFA8 SWAP4 SWAP5 SWAP6 SWAP7 JUMPDEST MLOAD SWAP6 DUP7 MSTORE AND SWAP4 LOG3 PUSH1 0x1 DUP1 SSTORE DUP1 RETURN JUMPDEST DUP8 MLOAD PUSH3 0x461BCD PUSH1 0xE5 SHL DUP2 MSTORE SWAP1 DUP2 ADD DUP5 SWAP1 MSTORE PUSH1 0x13 PUSH1 0x24 DUP3 ADD MSTORE PUSH19 0x115512081D1C985B9CD9995C8819985A5B1959 PUSH1 0x6A SHL PUSH1 0x44 DUP3 ADD MSTORE PUSH1 0x64 SWAP1 REVERT JUMPDEST SWAP7 DUP1 MLOAD PUSH4 0xA9059CBB PUSH1 0xE0 SHL DUP6 DUP3 ADD MSTORE DUP4 DUP4 AND PUSH1 0x24 DUP3 ADD MSTORE DUP7 PUSH1 0x44 DUP3 ADD MSTORE PUSH1 0x44 DUP2 MSTORE PUSH1 0x80 DUP2 ADD DUP2 DUP2 LT PUSH8 0xFFFFFFFFFFFFFFFF DUP3 GT OR PUSH2 0xDDE JUMPI PUSH32 0x5E110F8BC8A20B65DCC87F224BDF1CC039346E267118BAE2739847F07321FFA8 SWAP7 SWAP8 SWAP9 SWAP10 POP SWAP1 PUSH2 0xDD9 SWAP2 DUP4 MSTORE DUP8 PUSH2 0x1A3E JUMP JUMPDEST PUSH2 0xD27 JUMP JUMPDEST PUSH4 0x4E487B71 PUSH1 0xE0 SHL DUP10 MSTORE PUSH1 0x41 DUP11 MSTORE PUSH1 0x24 DUP10 REVERT JUMPDEST DUP8 MLOAD PUSH3 0x461BCD PUSH1 0xE5 SHL DUP2 MSTORE SWAP1 DUP2 ADD DUP5 SWAP1 MSTORE PUSH1 0x13 PUSH1 0x24 DUP3 ADD MSTORE PUSH19 0x4E6F206665657320746F207769746864726177 PUSH1 0x68 SHL PUSH1 0x44 DUP3 ADD MSTORE PUSH1 0x64 SWAP1 REVERT JUMPDEST DUP5 MLOAD PUSH4 0x3EE5AEB5 PUSH1 0xE0 SHL DUP2 MSTORE DUP4 SWAP1 REVERT JUMPDEST POP CALLVALUE PUSH2 0x418 JUMPI DUP2 PUSH1 0x3 NOT CALLDATASIZE ADD SLT PUSH2 0x418 JUMPI PUSH1 0x5 SLOAD SWAP1 MLOAD PUSH1 0x1 PUSH1 0x1 PUSH1 0xA0 SHL SUB SWAP1 SWAP2 AND DUP2 MSTORE PUSH1 0x20 SWAP1 RETURN JUMPDEST POP DUP3 CALLVALUE PUSH2 0x3DD JUMPI PUSH1 0x20 DUP1 PUSH1 0x3 NOT CALLDATASIZE ADD SLT PUSH2 0xC00 JUMPI PUSH1 0x1 PUSH1 0x1 PUSH1 0xA0 SHL SUB SWAP2 DUP3 PUSH2 0xE88 PUSH2 0x10D1 JUMP JUMPDEST AND SWAP1 DUP5 MLOAD PUSH4 0x8DA5CB5B PUSH1 0xE0 SHL DUP2 MSTORE DUP4 DUP2 DUP4 DUP2 DUP7 GAS STATICCALL DUP1 ISZERO PUSH2 0x1017 JUMPI DUP6 SWAP2 DUP9 SWAP2 PUSH2 0xFEA JUMPI JUMPDEST POP AND CALLER SUB PUSH2 0xF8C JUMPI DUP2 DUP7 MSTORE PUSH1 0x8 DUP4 MSTORE DUP4 DUP6 DUP8 KECCAK256 SLOAD AND ISZERO PUSH2 0xF49 JUMPI DUP1 PUSH1 0x24 DUP6 DUP6 SWAP4 SLOAD AND SWAP6 DUP5 DUP10 MSTORE PUSH1 0x8 DUP5 MSTORE DUP8 DUP10 KECCAK256 SLOAD AND SWAP2 DUP8 MLOAD SWAP7 DUP8 SWAP4 DUP5 SWAP3 PUSH4 0xD42FE231 PUSH1 0xE0 SHL DUP5 MSTORE DUP4 ADD MSTORE GAS STATICCALL SWAP3 DUP4 ISZERO PUSH2 0xF3F JUMPI PUSH1 0x8 SWAP4 PUSH2 0xF0C SWAP2 DUP8 SWAP2 PUSH2 0xF22 JUMPI POP PUSH2 0x1583 JUMP JUMPDEST DUP5 MSTORE MSTORE DUP2 KECCAK256 DUP1 SLOAD PUSH1 0x1 PUSH1 0x1 PUSH1 0xA0 SHL SUB NOT AND SWAP1 SSTORE DUP1 RETURN JUMPDEST PUSH2 0xF39 SWAP2 POP DUP5 RETURNDATASIZE DUP7 GT PUSH2 0x614 JUMPI PUSH2 0x606 DUP2 DUP4 PUSH2 0x1134 JUMP JUMPDEST DUP8 PUSH2 0x598 JUMP JUMPDEST DUP5 MLOAD RETURNDATASIZE DUP8 DUP3 RETURNDATACOPY RETURNDATASIZE SWAP1 REVERT JUMPDEST DUP5 MLOAD PUSH3 0x461BCD PUSH1 0xE5 SHL DUP2 MSTORE SWAP1 DUP2 ADD DUP4 SWAP1 MSTORE PUSH1 0x1A PUSH1 0x24 DUP3 ADD MSTORE PUSH32 0x4E6F2070656E64696E672072656C656173652072657175657374000000000000 PUSH1 0x44 DUP3 ADD MSTORE PUSH1 0x64 SWAP1 REVERT JUMPDEST DUP5 MLOAD PUSH3 0x461BCD PUSH1 0xE5 SHL DUP2 MSTORE SWAP1 DUP2 ADD DUP4 SWAP1 MSTORE PUSH1 0x32 PUSH1 0x24 DUP3 ADD MSTORE PUSH32 0x4F6E6C79207772617070656420736F6E67206F776E65722063616E2072656D6F PUSH1 0x44 DUP3 ADD MSTORE PUSH18 0x1D99481C995B19585CD9481C995C5D595CDD PUSH1 0x72 SHL PUSH1 0x64 DUP3 ADD MSTORE PUSH1 0x84 SWAP1 REVERT JUMPDEST PUSH2 0x100A SWAP2 POP DUP6 RETURNDATASIZE DUP8 GT PUSH2 0x1010 JUMPI JUMPDEST PUSH2 0x1002 DUP2 DUP4 PUSH2 0x1134 JUMP JUMPDEST DUP2 ADD SWAP1 PUSH2 0x1271 JUMP JUMPDEST DUP9 PUSH2 0xEAC JUMP JUMPDEST POP RETURNDATASIZE PUSH2 0xFF8 JUMP JUMPDEST DUP7 MLOAD RETURNDATASIZE DUP10 DUP3 RETURNDATACOPY RETURNDATASIZE SWAP1 REVERT JUMPDEST DUP3 DUP5 CALLVALUE PUSH2 0x418 JUMPI PUSH1 0x20 CALLDATASIZE PUSH1 0x3 NOT ADD SLT PUSH2 0x418 JUMPI PUSH2 0x103C PUSH2 0x11B9 JUMP JUMPDEST CALLDATALOAD PUSH1 0xB SSTORE DUP1 RETURN JUMPDEST POP CALLVALUE PUSH2 0x418 JUMPI DUP2 PUSH1 0x3 NOT CALLDATASIZE ADD SLT PUSH2 0x418 JUMPI PUSH1 0x20 SWAP1 PUSH1 0xB SLOAD SWAP1 MLOAD SWAP1 DUP2 MSTORE RETURN JUMPDEST POP CALLVALUE PUSH2 0x418 JUMPI DUP2 PUSH1 0x3 NOT CALLDATASIZE ADD SLT PUSH2 0x418 JUMPI PUSH1 0x20 SWAP1 PUSH1 0xFF PUSH1 0xA SLOAD AND SWAP1 MLOAD SWAP1 ISZERO ISZERO DUP2 MSTORE RETURN JUMPDEST POP DUP3 CALLVALUE PUSH2 0x3DD JUMPI DUP3 PUSH1 0x3 NOT CALLDATASIZE ADD SLT PUSH2 0x3DD JUMPI SLOAD SWAP1 MLOAD PUSH1 0x1 PUSH1 0x1 PUSH1 0xA0 SHL SUB SWAP1 SWAP2 AND DUP2 MSTORE PUSH1 0x20 SWAP2 POP RETURN JUMPDEST DUP4 SWAP1 CALLVALUE PUSH2 0x418 JUMPI DUP2 PUSH1 0x3 NOT CALLDATASIZE ADD SLT PUSH2 0x418 JUMPI PUSH1 0x3 SLOAD PUSH1 0x1 PUSH1 0x1 PUSH1 0xA0 SHL SUB AND DUP2 MSTORE PUSH1 0x20 SWAP1 RETURN JUMPDEST PUSH1 0x4 CALLDATALOAD SWAP1 PUSH1 0x1 PUSH1 0x1 PUSH1 0xA0 SHL SUB DUP3 AND DUP3 SUB PUSH2 0x10E7 JUMPI JUMP JUMPDEST PUSH1 0x0 DUP1 REVERT JUMPDEST PUSH1 0x24 CALLDATALOAD SWAP1 PUSH1 0x1 PUSH1 0x1 PUSH1 0xA0 SHL SUB DUP3 AND DUP3 SUB PUSH2 0x10E7 JUMPI JUMP JUMPDEST PUSH1 0x60 DUP2 ADD SWAP1 DUP2 LT PUSH8 0xFFFFFFFFFFFFFFFF DUP3 GT OR PUSH2 0x111E JUMPI PUSH1 0x40 MSTORE JUMP JUMPDEST PUSH4 0x4E487B71 PUSH1 0xE0 SHL PUSH1 0x0 MSTORE PUSH1 0x41 PUSH1 0x4 MSTORE PUSH1 0x24 PUSH1 0x0 REVERT JUMPDEST SWAP1 PUSH1 0x1F DUP1 NOT SWAP2 ADD AND DUP2 ADD SWAP1 DUP2 LT PUSH8 0xFFFFFFFFFFFFFFFF DUP3 GT OR PUSH2 0x111E JUMPI PUSH1 0x40 MSTORE JUMP JUMPDEST PUSH8 0xFFFFFFFFFFFFFFFF DUP2 GT PUSH2 0x111E JUMPI PUSH1 0x1F ADD PUSH1 0x1F NOT AND PUSH1 0x20 ADD SWAP1 JUMP JUMPDEST DUP2 PUSH1 0x1F DUP3 ADD SLT ISZERO PUSH2 0x10E7 JUMPI DUP1 CALLDATALOAD SWAP1 PUSH2 0x1189 DUP3 PUSH2 0x1156 JUMP JUMPDEST SWAP3 PUSH2 0x1197 PUSH1 0x40 MLOAD SWAP5 DUP6 PUSH2 0x1134 JUMP JUMPDEST DUP3 DUP5 MSTORE PUSH1 0x20 DUP4 DUP4 ADD ADD GT PUSH2 0x10E7 JUMPI DUP2 PUSH1 0x0 SWAP3 PUSH1 0x20 DUP1 SWAP4 ADD DUP4 DUP7 ADD CALLDATACOPY DUP4 ADD ADD MSTORE SWAP1 JUMP JUMPDEST PUSH1 0x0 SLOAD PUSH1 0x1 PUSH1 0x1 PUSH1 0xA0 SHL SUB AND CALLER SUB PUSH2 0x11CD JUMPI JUMP JUMPDEST PUSH1 0x40 MLOAD PUSH4 0x118CDAA7 PUSH1 0xE0 SHL DUP2 MSTORE CALLER PUSH1 0x4 DUP3 ADD MSTORE PUSH1 0x24 SWAP1 REVERT JUMPDEST ISZERO PUSH2 0x11EC JUMPI JUMP JUMPDEST PUSH1 0x40 MLOAD PUSH3 0x461BCD PUSH1 0xE5 SHL DUP2 MSTORE PUSH1 0x20 PUSH1 0x4 DUP3 ADD MSTORE PUSH1 0x1F PUSH1 0x24 DUP3 ADD MSTORE PUSH32 0x52656C6561736573206172652063757272656E746C792064697361626C656400 PUSH1 0x44 DUP3 ADD MSTORE PUSH1 0x64 SWAP1 REVERT JUMPDEST SWAP2 SWAP1 DUP3 MLOAD SWAP3 DUP4 DUP3 MSTORE PUSH1 0x0 JUMPDEST DUP5 DUP2 LT PUSH2 0x125D JUMPI POP POP DUP3 PUSH1 0x0 PUSH1 0x20 DUP1 SWAP5 SWAP6 DUP5 ADD ADD MSTORE PUSH1 0x1F DUP1 NOT SWAP2 ADD AND ADD ADD SWAP1 JUMP JUMPDEST PUSH1 0x20 DUP2 DUP4 ADD DUP2 ADD MLOAD DUP5 DUP4 ADD DUP3 ADD MSTORE ADD PUSH2 0x123C JUMP JUMPDEST SWAP1 DUP2 PUSH1 0x20 SWAP2 SUB SLT PUSH2 0x10E7 JUMPI MLOAD PUSH1 0x1 PUSH1 0x1 PUSH1 0xA0 SHL SUB DUP2 AND DUP2 SUB PUSH2 0x10E7 JUMPI SWAP1 JUMP JUMPDEST SWAP1 DUP2 PUSH1 0x20 SWAP2 SUB SLT PUSH2 0x10E7 JUMPI MLOAD DUP1 ISZERO ISZERO DUP2 SUB PUSH2 0x10E7 JUMPI SWAP1 JUMP JUMPDEST PUSH1 0x40 DUP1 MLOAD PUSH4 0x8DA5CB5B PUSH1 0xE0 SHL DUP2 MSTORE PUSH1 0x4 SWAP4 PUSH1 0x20 SWAP4 PUSH1 0x1 PUSH1 0x1 PUSH1 0xA0 SHL SUB SWAP3 SWAP1 DUP4 AND SWAP2 SWAP1 DUP6 DUP2 DUP9 DUP2 DUP7 GAS STATICCALL SWAP1 DUP2 ISZERO PUSH2 0x1521 JUMPI SWAP1 DUP5 SWAP2 PUSH1 0x0 SWAP2 PUSH2 0x1504 JUMPI JUMPDEST POP AND CALLER SUB PUSH2 0x14AD JUMPI DUP3 DUP2 AND SWAP1 DUP2 ISZERO PUSH2 0x145F JUMPI EXTCODESIZE ISZERO PUSH2 0x140E JUMPI DUP5 DUP4 DUP8 SLOAD AND SWAP2 PUSH1 0x24 DUP7 MLOAD DUP1 SWAP5 DUP2 SWAP4 PUSH4 0xD42FE231 PUSH1 0xE0 SHL DUP4 MSTORE DUP12 DUP4 ADD MSTORE GAS STATICCALL SWAP1 DUP2 ISZERO PUSH2 0x1403 JUMPI PUSH1 0x0 SWAP2 PUSH2 0x13E6 JUMPI JUMPDEST POP ISZERO PUSH2 0x1385 JUMPI PUSH1 0x0 MSTORE PUSH1 0x7 DUP4 MSTORE DUP2 PUSH1 0x0 KECCAK256 SLOAD AND PUSH2 0x1344 JUMPI POP POP POP JUMP JUMPDEST MLOAD PUSH3 0x461BCD PUSH1 0xE5 SHL DUP2 MSTORE SWAP2 DUP3 ADD MSTORE PUSH1 0x1D PUSH1 0x24 DUP3 ADD MSTORE PUSH32 0x5772617070656420736F6E6720616C72656164792072656C6561736564000000 PUSH1 0x44 DUP3 ADD MSTORE PUSH1 0x64 SWAP2 POP REVERT JUMPDEST POP POP MLOAD PUSH3 0x461BCD PUSH1 0xE5 SHL DUP2 MSTORE SWAP2 DUP3 ADD MSTORE PUSH1 0x35 PUSH1 0x24 DUP3 ADD MSTORE PUSH32 0x496E76616C6964206469737472696275746F722077616C6C65743A206E6F7420 PUSH1 0x44 DUP3 ADD MSTORE PUSH21 0x7265676973746572656420696E20666163746F7279 PUSH1 0x58 SHL PUSH1 0x64 DUP3 ADD MSTORE PUSH1 0x84 SWAP2 POP REVERT JUMPDEST PUSH2 0x13FD SWAP2 POP DUP6 RETURNDATASIZE DUP8 GT PUSH2 0x614 JUMPI PUSH2 0x606 DUP2 DUP4 PUSH2 0x1134 JUMP JUMPDEST CODESIZE PUSH2 0x1328 JUMP JUMPDEST DUP5 MLOAD RETURNDATASIZE PUSH1 0x0 DUP3 RETURNDATACOPY RETURNDATASIZE SWAP1 REVERT JUMPDEST DUP4 MLOAD PUSH3 0x461BCD PUSH1 0xE5 SHL DUP2 MSTORE DUP1 DUP8 ADD DUP7 SWAP1 MSTORE PUSH1 0x25 PUSH1 0x24 DUP3 ADD MSTORE PUSH32 0x4469737472696275746F722077616C6C6574206D757374206265206120636F6E PUSH1 0x44 DUP3 ADD MSTORE PUSH5 0x1D1C9858DD PUSH1 0xDA SHL PUSH1 0x64 DUP3 ADD MSTORE PUSH1 0x84 SWAP1 REVERT JUMPDEST DUP5 MLOAD PUSH3 0x461BCD PUSH1 0xE5 SHL DUP2 MSTORE DUP1 DUP9 ADD DUP8 SWAP1 MSTORE PUSH1 0x22 PUSH1 0x24 DUP3 ADD MSTORE PUSH32 0x496E76616C6964206469737472696275746F722077616C6C6574206164647265 PUSH1 0x44 DUP3 ADD MSTORE PUSH2 0x7373 PUSH1 0xF0 SHL PUSH1 0x64 DUP3 ADD MSTORE PUSH1 0x84 SWAP1 REVERT JUMPDEST DUP4 MLOAD PUSH3 0x461BCD PUSH1 0xE5 SHL DUP2 MSTORE DUP1 DUP8 ADD DUP7 SWAP1 MSTORE PUSH1 0x2B PUSH1 0x24 DUP3 ADD MSTORE PUSH32 0x4F6E6C79207772617070656420736F6E67206F776E65722063616E2072657175 PUSH1 0x44 DUP3 ADD MSTORE PUSH11 0x6573742072656C65617365 PUSH1 0xA8 SHL PUSH1 0x64 DUP3 ADD MSTORE PUSH1 0x84 SWAP1 REVERT JUMPDEST PUSH2 0x151B SWAP2 POP DUP8 RETURNDATASIZE DUP10 GT PUSH2 0x1010 JUMPI PUSH2 0x1002 DUP2 DUP4 PUSH2 0x1134 JUMP JUMPDEST CODESIZE PUSH2 0x12E3 JUMP JUMPDEST DUP6 MLOAD RETURNDATASIZE PUSH1 0x0 DUP3 RETURNDATACOPY RETURNDATASIZE SWAP1 REVERT JUMPDEST PUSH1 0x1 PUSH1 0x1 PUSH1 0xA0 SHL SUB SWAP1 DUP2 AND PUSH1 0x0 DUP2 DUP2 MSTORE PUSH1 0x8 PUSH1 0x20 MSTORE PUSH1 0x40 DUP2 KECCAK256 DUP1 SLOAD PUSH1 0x1 PUSH1 0x1 PUSH1 0xA0 SHL SUB NOT AND SWAP4 SWAP1 SWAP5 AND SWAP3 DUP4 OR SWAP1 SWAP4 SSTORE CALLER SWAP3 PUSH32 0xEF84744274082261C3A861CF791747FA0FF5D32D6B7DAD92E9F777118FC00289 SWAP1 DUP1 LOG4 JUMP JUMPDEST ISZERO PUSH2 0x158A JUMPI JUMP JUMPDEST PUSH1 0x40 MLOAD PUSH3 0x461BCD PUSH1 0xE5 SHL DUP2 MSTORE PUSH1 0x20 PUSH1 0x4 DUP3 ADD MSTORE PUSH1 0x1A PUSH1 0x24 DUP3 ADD MSTORE PUSH32 0x4469737472696275746F7220646F6573206E6F74206578697374000000000000 PUSH1 0x44 DUP3 ADD MSTORE PUSH1 0x64 SWAP1 REVERT JUMPDEST SWAP2 SWAP1 DUP3 ADD DUP1 SWAP3 GT PUSH2 0x15DC JUMPI JUMP JUMPDEST PUSH4 0x4E487B71 PUSH1 0xE0 SHL PUSH1 0x0 MSTORE PUSH1 0x11 PUSH1 0x4 MSTORE PUSH1 0x24 PUSH1 0x0 REVERT JUMPDEST ISZERO PUSH2 0x15F9 JUMPI JUMP JUMPDEST PUSH1 0x40 MLOAD PUSH3 0x461BCD PUSH1 0xE5 SHL DUP2 MSTORE PUSH1 0x20 PUSH1 0x4 DUP3 ADD MSTORE PUSH1 0x1B PUSH1 0x24 DUP3 ADD MSTORE PUSH32 0x4E6F74207468652070656E64696E67206469737472696275746F720000000000 PUSH1 0x44 DUP3 ADD MSTORE PUSH1 0x64 SWAP1 REVERT JUMPDEST RETURNDATASIZE ISZERO PUSH2 0x1669 JUMPI RETURNDATASIZE SWAP1 PUSH2 0x164F DUP3 PUSH2 0x1156 JUMP JUMPDEST SWAP2 PUSH2 0x165D PUSH1 0x40 MLOAD SWAP4 DUP5 PUSH2 0x1134 JUMP JUMPDEST DUP3 MSTORE RETURNDATASIZE PUSH1 0x0 PUSH1 0x20 DUP5 ADD RETURNDATACOPY JUMP JUMPDEST PUSH1 0x60 SWAP1 JUMP JUMPDEST PUSH1 0x2 SLOAD PUSH1 0x40 DUP1 MLOAD PUSH4 0x8D0C0CE3 PUSH1 0xE0 SHL DUP2 MSTORE PUSH1 0x4 SWAP5 SWAP4 SWAP2 SWAP3 SWAP1 SWAP2 PUSH1 0x20 SWAP2 PUSH1 0x1 PUSH1 0x1 PUSH1 0xA0 SHL SUB SWAP2 SWAP1 DUP3 AND DUP4 DUP6 DUP10 DUP2 DUP5 GAS STATICCALL SWAP5 DUP6 ISZERO PUSH2 0x184F JUMPI PUSH1 0x0 SWAP6 PUSH2 0x1A0F JUMPI JUMPDEST POP DUP6 MLOAD PUSH4 0xD579E3F3 PUSH1 0xE0 SHL DUP2 MSTORE SWAP1 DUP5 DUP3 DUP11 DUP2 DUP5 GAS STATICCALL SWAP2 DUP3 ISZERO PUSH2 0x19E5 JUMPI DUP10 SWAP3 SWAP2 DUP7 SWAP2 PUSH1 0x0 SWAP4 PUSH2 0x19F0 JUMPI JUMPDEST POP DUP9 MLOAD PUSH4 0x37A0A9E9 PUSH1 0xE1 SHL DUP2 MSTORE SWAP4 DUP5 SWAP2 DUP3 SWAP1 GAS STATICCALL SWAP2 DUP3 ISZERO PUSH2 0x19E5 JUMPI PUSH1 0x0 SWAP3 PUSH2 0x19B6 JUMPI JUMPDEST POP DUP6 ISZERO PUSH2 0x196E JUMPI ISZERO PUSH2 0x185A JUMPI DUP4 DUP4 PUSH1 0x3 SLOAD AND SWAP2 PUSH1 0x24 DUP9 MLOAD DUP1 SWAP5 DUP2 SWAP4 PUSH4 0x7C70C0A3 PUSH1 0xE0 SHL DUP4 MSTORE DUP14 DUP4 ADD MSTORE GAS STATICCALL SWAP1 DUP2 ISZERO PUSH2 0x184F JUMPI SWAP1 DUP4 SWAP2 PUSH1 0x0 SWAP2 PUSH2 0x1832 JUMPI JUMPDEST POP AND SWAP5 DUP6 ISZERO PUSH2 0x17E4 JUMPI DUP1 MLOAD PUSH4 0x23B872DD PUSH1 0xE0 SHL DUP6 DUP3 ADD MSTORE CALLER PUSH1 0x24 DUP3 ADD MSTORE ADDRESS PUSH1 0x44 DUP3 ADD MSTORE PUSH1 0x64 DUP1 DUP3 ADD DUP8 SWAP1 MSTORE DUP2 MSTORE SWAP8 PUSH1 0xA0 DUP10 ADD SWAP1 PUSH8 0xFFFFFFFFFFFFFFFF DUP3 GT DUP11 DUP4 LT OR PUSH2 0x17CF JUMPI POP PUSH32 0x29AEBCD0C90B02B955331C453EFC06D743E10D2655AB14C0FA2AAEC13706F214 SWAP6 SWAP7 SWAP8 SWAP9 PUSH2 0x17AD SWAP2 DUP4 MSTORE DUP9 PUSH2 0x1A3E JUMP JUMPDEST DUP7 PUSH1 0x0 MSTORE PUSH1 0x6 DUP5 MSTORE DUP1 PUSH1 0x0 KECCAK256 PUSH2 0x17C4 DUP8 DUP3 SLOAD PUSH2 0x15CF JUMP JUMPDEST SWAP1 SSTORE MLOAD SWAP5 DUP6 MSTORE AND SWAP3 LOG3 JUMP JUMPDEST PUSH1 0x41 SWAP1 PUSH4 0x4E487B71 PUSH1 0xE0 SHL PUSH1 0x0 MSTORE MSTORE PUSH1 0x24 PUSH1 0x0 REVERT JUMPDEST MLOAD PUSH3 0x461BCD PUSH1 0xE5 SHL DUP2 MSTORE DUP1 DUP9 ADD DUP5 SWAP1 MSTORE PUSH1 0x23 PUSH1 0x24 DUP3 ADD MSTORE PUSH32 0x4E6F2077686974656C697374656420737461626C65636F696E20617661696C61 PUSH1 0x44 DUP3 ADD MSTORE PUSH3 0x626C65 PUSH1 0xE8 SHL PUSH1 0x64 DUP3 ADD MSTORE PUSH1 0x84 SWAP1 REVERT JUMPDEST PUSH2 0x1849 SWAP2 POP DUP6 RETURNDATASIZE DUP8 GT PUSH2 0x1010 JUMPI PUSH2 0x1002 DUP2 DUP4 PUSH2 0x1134 JUMP JUMPDEST CODESIZE PUSH2 0x1735 JUMP JUMPDEST DUP7 MLOAD RETURNDATASIZE PUSH1 0x0 DUP3 RETURNDATACOPY RETURNDATASIZE SWAP1 REVERT JUMPDEST POP SWAP5 SWAP6 SWAP1 SWAP3 DUP1 SWAP5 SWAP3 SWAP5 CALLVALUE LT PUSH2 0x192C JUMPI PUSH1 0x0 DUP1 MSTORE PUSH1 0x6 DUP6 MSTORE DUP3 PUSH1 0x0 KECCAK256 PUSH2 0x1880 CALLVALUE DUP3 SLOAD PUSH2 0x15CF JUMP JUMPDEST SWAP1 SSTORE DUP1 CALLVALUE GT PUSH2 0x18BC JUMPI JUMPDEST POP POP MLOAD CALLVALUE DUP2 MSTORE PUSH1 0x0 SWAP4 SWAP1 SWAP2 AND SWAP2 PUSH32 0x29AEBCD0C90B02B955331C453EFC06D743E10D2655AB14C0FA2AAEC13706F214 SWAP2 LOG3 JUMP JUMPDEST CALLVALUE SUB CALLVALUE DUP2 GT PUSH2 0x1917 JUMPI PUSH1 0x0 DUP1 DUP1 DUP1 SWAP4 CALLER GAS CALL PUSH2 0x18D6 PUSH2 0x163E JUMP JUMPDEST POP ISZERO PUSH2 0x18E2 JUMPI DUP1 PUSH2 0x188A JUMP JUMPDEST DUP4 PUSH1 0x64 SWAP3 MLOAD SWAP2 PUSH3 0x461BCD PUSH1 0xE5 SHL DUP4 MSTORE DUP3 ADD MSTORE PUSH1 0x11 PUSH1 0x24 DUP3 ADD MSTORE PUSH17 0x115512081C99599D5B990819985A5B1959 PUSH1 0x7A SHL PUSH1 0x44 DUP3 ADD MSTORE REVERT JUMPDEST PUSH1 0x11 DUP3 PUSH4 0x4E487B71 PUSH1 0xE0 SHL PUSH1 0x0 MSTORE MSTORE PUSH1 0x24 PUSH1 0x0 REVERT JUMPDEST POP DUP4 PUSH1 0x64 SWAP3 MLOAD SWAP2 PUSH3 0x461BCD PUSH1 0xE5 SHL DUP4 MSTORE DUP3 ADD MSTORE PUSH1 0x18 PUSH1 0x24 DUP3 ADD MSTORE PUSH32 0x496E636F7272656374204554482066656520616D6F756E740000000000000000 PUSH1 0x44 DUP3 ADD MSTORE REVERT JUMPDEST POP POP POP POP SWAP2 SWAP1 POP SWAP3 SWAP2 SWAP3 CALLVALUE PUSH2 0x1982 JUMPI POP POP POP JUMP JUMPDEST MLOAD PUSH3 0x461BCD PUSH1 0xE5 SHL DUP2 MSTORE SWAP2 DUP3 ADD MSTORE PUSH1 0x10 PUSH1 0x24 DUP3 ADD MSTORE PUSH16 0x119959481B9BDD081C995C5D5A5C9959 PUSH1 0x82 SHL PUSH1 0x44 DUP3 ADD MSTORE PUSH1 0x64 SWAP2 POP REVERT JUMPDEST SWAP1 SWAP2 DUP6 DUP3 DUP2 RETURNDATASIZE DUP4 GT PUSH2 0x19DE JUMPI JUMPDEST PUSH2 0x19CD DUP2 DUP4 PUSH2 0x1134 JUMP JUMPDEST DUP2 ADD SUB SLT PUSH2 0x746 JUMPI POP MLOAD SWAP1 CODESIZE PUSH2 0x16F8 JUMP JUMPDEST POP RETURNDATASIZE PUSH2 0x19C3 JUMP JUMPDEST DUP8 MLOAD RETURNDATASIZE PUSH1 0x0 DUP3 RETURNDATACOPY RETURNDATASIZE SWAP1 REVERT JUMPDEST PUSH2 0x1A08 SWAP2 SWAP4 POP DUP3 RETURNDATASIZE DUP5 GT PUSH2 0x614 JUMPI PUSH2 0x606 DUP2 DUP4 PUSH2 0x1134 JUMP JUMPDEST SWAP2 CODESIZE PUSH2 0x16D5 JUMP JUMPDEST SWAP1 SWAP5 DUP5 DUP3 DUP2 RETURNDATASIZE DUP4 GT PUSH2 0x1A37 JUMPI JUMPDEST PUSH2 0x1A26 DUP2 DUP4 PUSH2 0x1134 JUMP JUMPDEST DUP2 ADD SUB SLT PUSH2 0x746 JUMPI POP MLOAD SWAP4 CODESIZE PUSH2 0x16AC JUMP JUMPDEST POP RETURNDATASIZE PUSH2 0x1A1C JUMP JUMPDEST PUSH1 0x0 DUP1 PUSH2 0x1A67 SWAP3 PUSH1 0x1 DUP1 PUSH1 0xA0 SHL SUB AND SWAP4 PUSH1 0x20 DUP2 MLOAD SWAP2 ADD DUP3 DUP7 GAS CALL PUSH2 0x1A60 PUSH2 0x163E JUMP JUMPDEST SWAP1 DUP4 PUSH2 0x1AB0 JUMP JUMPDEST DUP1 MLOAD SWAP1 DUP2 ISZERO ISZERO SWAP2 DUP3 PUSH2 0x1A95 JUMPI JUMPDEST POP POP PUSH2 0x1A7D JUMPI POP JUMP JUMPDEST PUSH1 0x24 SWAP1 PUSH1 0x40 MLOAD SWAP1 PUSH4 0x5274AFE7 PUSH1 0xE0 SHL DUP3 MSTORE PUSH1 0x4 DUP3 ADD MSTORE REVERT JUMPDEST PUSH2 0x1AA8 SWAP3 POP PUSH1 0x20 DUP1 SWAP2 DUP4 ADD ADD SWAP2 ADD PUSH2 0x1290 JUMP JUMPDEST ISZERO CODESIZE DUP1 PUSH2 0x1A74 JUMP JUMPDEST SWAP1 PUSH2 0x1AD7 JUMPI POP DUP1 MLOAD ISZERO PUSH2 0x1AC5 JUMPI DUP1 MLOAD SWAP1 PUSH1 0x20 ADD REVERT JUMPDEST PUSH1 0x40 MLOAD PUSH4 0xA12F521 PUSH1 0xE1 SHL DUP2 MSTORE PUSH1 0x4 SWAP1 REVERT JUMPDEST DUP2 MLOAD ISZERO DUP1 PUSH2 0x1B0A JUMPI JUMPDEST PUSH2 0x1AE8 JUMPI POP SWAP1 JUMP JUMPDEST PUSH1 0x40 MLOAD PUSH4 0x9996B315 PUSH1 0xE0 SHL DUP2 MSTORE PUSH1 0x1 PUSH1 0x1 PUSH1 0xA0 SHL SUB SWAP1 SWAP2 AND PUSH1 0x4 DUP3 ADD MSTORE PUSH1 0x24 SWAP1 REVERT JUMPDEST POP DUP1 EXTCODESIZE ISZERO PUSH2 0x1AE0 JUMP INVALID LOG2 PUSH5 0x6970667358 0x22 SLT KECCAK256 SGT SELFBALANCE 0xEE PUSH2 0x5332 BASEFEE PUSH3 0xA33057 0xDB DUP1 0xA9 PUSH1 0x90 0xA9 CALLDATASIZE 0xFC SWAP16 SWAP16 0xFC SHL TIMESTAMP PUSH14 0x45AF6289C02B1B64736F6C634300 ADDMOD EQ STOP CALLER "},"methodIdentifiers":{"acceptWrappedSongForReview(address)":"4b08ec50","accumulatedFees(address)":"fcf66664","confirmWrappedSongRelease(address)":"b0c70e27","distributorWalletFactory()":"0c5d8da1","erc20whitelist()":"09da4e51","feesModule()":"6d4726d9","getPendingDistributorRequests(address)":"c7be5e2a","getWrappedSongDistributor(address)":"3aa690e7","handleExpiredReviewPeriod(address)":"ccad87f0","initialize(address,address,address,address)":"f8c8765e","isReleased(address)":"37c38c48","metadataModule()":"3684d100","owner()":"8da5cb5b","pendingDistributorRequests(address)":"6b09d202","rejectWrappedSongRelease(address)":"f5260369","releasesEnabled()":"175b818c","removeWrappedSongReleaseRequest(address)":"2b03295f","renounceOwnership()":"715018a6","requestWrappedSongRelease(address,address)":"cd36bc9a","requestWrappedSongReleaseWithMetadata(address,address,(string,string,string,string,string,string))":"ffc5a46f","reviewPeriodDays()":"1a3b00e2","reviewPeriods(address)":"e72cfcb8","setReleasesEnabled(bool)":"8437de38","setReviewPeriodDays(uint256)":"1f471069","transferOwnership(address)":"f2fde38b","withdrawAccumulatedFees(address,address)":"376c1f07","wrappedSongToDistributor(address)":"2cd6c9a6"}},"storageLayout":{"storage":[{"astId":8,"contract":"contracts/protocol/Modules/ReleaseModule.sol:ReleaseModule","label":"_owner","offset":0,"slot":"0","type":"t_address"},{"astId":845,"contract":"contracts/protocol/Modules/ReleaseModule.sol:ReleaseModule","label":"_status","offset":0,"slot":"1","type":"t_uint256"},{"astId":2045,"contract":"contracts/protocol/Modules/ReleaseModule.sol:ReleaseModule","label":"feesModule","offset":0,"slot":"2","type":"t_contract(IFeesModule)1101"},{"astId":2048,"contract":"contracts/protocol/Modules/ReleaseModule.sol:ReleaseModule","label":"erc20whitelist","offset":0,"slot":"3","type":"t_contract(IERC20Whitelist)1005"},{"astId":2051,"contract":"contracts/protocol/Modules/ReleaseModule.sol:ReleaseModule","label":"distributorWalletFactory","offset":0,"slot":"4","type":"t_contract(IDistributorWalletFactory)942"},{"astId":2054,"contract":"contracts/protocol/Modules/ReleaseModule.sol:ReleaseModule","label":"metadataModule","offset":0,"slot":"5","type":"t_contract(IMetadataModule)1304"},{"astId":2058,"contract":"contracts/protocol/Modules/ReleaseModule.sol:ReleaseModule","label":"accumulatedFees","offset":0,"slot":"6","type":"t_mapping(t_address,t_uint256)"},{"astId":2062,"contract":"contracts/protocol/Modules/ReleaseModule.sol:ReleaseModule","label":"wrappedSongToDistributor","offset":0,"slot":"7","type":"t_mapping(t_address,t_address)"},{"astId":2066,"contract":"contracts/protocol/Modules/ReleaseModule.sol:ReleaseModule","label":"pendingDistributorRequests","offset":0,"slot":"8","type":"t_mapping(t_address,t_address)"},{"astId":2078,"contract":"contracts/protocol/Modules/ReleaseModule.sol:ReleaseModule","label":"reviewPeriods","offset":0,"slot":"9","type":"t_mapping(t_address,t_struct(ReviewPeriod)2073_storage)"},{"astId":2081,"contract":"contracts/protocol/Modules/ReleaseModule.sol:ReleaseModule","label":"releasesEnabled","offset":0,"slot":"10","type":"t_bool"},{"astId":2084,"contract":"contracts/protocol/Modules/ReleaseModule.sol:ReleaseModule","label":"reviewPeriodDays","offset":0,"slot":"11","type":"t_uint256"}],"types":{"t_address":{"encoding":"inplace","label":"address","numberOfBytes":"20"},"t_bool":{"encoding":"inplace","label":"bool","numberOfBytes":"1"},"t_contract(IDistributorWalletFactory)942":{"encoding":"inplace","label":"contract IDistributorWalletFactory","numberOfBytes":"20"},"t_contract(IERC20Whitelist)1005":{"encoding":"inplace","label":"contract IERC20Whitelist","numberOfBytes":"20"},"t_contract(IFeesModule)1101":{"encoding":"inplace","label":"contract IFeesModule","numberOfBytes":"20"},"t_contract(IMetadataModule)1304":{"encoding":"inplace","label":"contract IMetadataModule","numberOfBytes":"20"},"t_mapping(t_address,t_address)":{"encoding":"mapping","key":"t_address","label":"mapping(address => address)","numberOfBytes":"32","value":"t_address"},"t_mapping(t_address,t_struct(ReviewPeriod)2073_storage)":{"encoding":"mapping","key":"t_address","label":"mapping(address => struct ReleaseModule.ReviewPeriod)","numberOfBytes":"32","value":"t_struct(ReviewPeriod)2073_storage"},"t_mapping(t_address,t_uint256)":{"encoding":"mapping","key":"t_address","label":"mapping(address => uint256)","numberOfBytes":"32","value":"t_uint256"},"t_struct(ReviewPeriod)2073_storage":{"encoding":"inplace","label":"struct ReleaseModule.ReviewPeriod","members":[{"astId":2068,"contract":"contracts/protocol/Modules/ReleaseModule.sol:ReleaseModule","label":"startTime","offset":0,"slot":"0","type":"t_uint256"},{"astId":2070,"contract":"contracts/protocol/Modules/ReleaseModule.sol:ReleaseModule","label":"endTime","offset":0,"slot":"1","type":"t_uint256"},{"astId":2072,"contract":"contracts/protocol/Modules/ReleaseModule.sol:ReleaseModule","label":"distributor","offset":0,"slot":"2","type":"t_address"}],"numberOfBytes":"96"},"t_uint256":{"encoding":"inplace","label":"uint256","numberOfBytes":"32"}}}}}}