{"contracts/protocol/Modules/RegistryModule.sol":{"RegistryModule":{"abi":[{"inputs":[],"stateMutability":"nonpayable","type":"constructor"},{"inputs":[{"internalType":"address","name":"owner","type":"address"}],"name":"OwnableInvalidOwner","type":"error"},{"inputs":[{"internalType":"address","name":"account","type":"address"}],"name":"OwnableUnauthorizedAccount","type":"error"},{"anonymous":false,"inputs":[{"indexed":true,"internalType":"address","name":"newModule","type":"address"}],"name":"Erc20WhitelistUpdated","type":"event"},{"anonymous":false,"inputs":[{"indexed":true,"internalType":"address","name":"newModule","type":"address"}],"name":"FeesModuleUpdated","type":"event"},{"anonymous":false,"inputs":[{"indexed":true,"internalType":"address","name":"newModule","type":"address"}],"name":"IdentityModuleUpdated","type":"event"},{"anonymous":false,"inputs":[{"indexed":true,"internalType":"address","name":"newModule","type":"address"}],"name":"LegalContractMetadataUpdated","type":"event"},{"anonymous":false,"inputs":[{"indexed":true,"internalType":"address","name":"newModule","type":"address"}],"name":"MetadataModuleUpdated","type":"event"},{"anonymous":false,"inputs":[{"indexed":true,"internalType":"address","name":"previousOwner","type":"address"},{"indexed":true,"internalType":"address","name":"newOwner","type":"address"}],"name":"OwnershipTransferred","type":"event"},{"anonymous":false,"inputs":[{"indexed":true,"internalType":"address","name":"newModule","type":"address"}],"name":"ReleaseModuleUpdated","type":"event"},{"inputs":[],"name":"erc20whitelist","outputs":[{"internalType":"contract IERC20Whitelist","name":"","type":"address"}],"stateMutability":"view","type":"function"},{"inputs":[],"name":"feesModule","outputs":[{"internalType":"contract IFeesModule","name":"","type":"address"}],"stateMutability":"view","type":"function"},{"inputs":[],"name":"identityModule","outputs":[{"internalType":"contract IIdentityModule","name":"","type":"address"}],"stateMutability":"view","type":"function"},{"inputs":[{"internalType":"address","name":"_feesModule","type":"address"},{"internalType":"address","name":"_releaseModule","type":"address"},{"internalType":"address","name":"_identityModule","type":"address"},{"internalType":"address","name":"_metadataModule","type":"address"},{"internalType":"address","name":"_legalContractMetadata","type":"address"},{"internalType":"address","name":"_erc20whitelist","type":"address"}],"name":"initialize","outputs":[],"stateMutability":"nonpayable","type":"function"},{"inputs":[],"name":"legalContractMetadata","outputs":[{"internalType":"contract ILegalContractMetadata","name":"","type":"address"}],"stateMutability":"view","type":"function"},{"inputs":[],"name":"metadataModule","outputs":[{"internalType":"contract IMetadataModule","name":"","type":"address"}],"stateMutability":"view","type":"function"},{"inputs":[],"name":"owner","outputs":[{"internalType":"address","name":"","type":"address"}],"stateMutability":"view","type":"function"},{"inputs":[],"name":"releaseModule","outputs":[{"internalType":"contract IReleaseModule","name":"","type":"address"}],"stateMutability":"view","type":"function"},{"inputs":[],"name":"renounceOwnership","outputs":[],"stateMutability":"nonpayable","type":"function"},{"inputs":[{"internalType":"address","name":"newOwner","type":"address"}],"name":"transferOwnership","outputs":[],"stateMutability":"nonpayable","type":"function"},{"inputs":[{"internalType":"contract IERC20Whitelist","name":"_newErc20Whitelist","type":"address"}],"name":"updateErc20Whitelist","outputs":[],"stateMutability":"nonpayable","type":"function"},{"inputs":[{"internalType":"contract IFeesModule","name":"_newFeesModule","type":"address"}],"name":"updateFeesModule","outputs":[],"stateMutability":"nonpayable","type":"function"},{"inputs":[{"internalType":"contract IIdentityModule","name":"_newIdentityModule","type":"address"}],"name":"updateIdentityModule","outputs":[],"stateMutability":"nonpayable","type":"function"},{"inputs":[{"internalType":"contract ILegalContractMetadata","name":"_newLegalContractMetadata","type":"address"}],"name":"updateLegalContractMetadata","outputs":[],"stateMutability":"nonpayable","type":"function"},{"inputs":[{"internalType":"contract IMetadataModule","name":"_newMetadataModule","type":"address"}],"name":"updateMetadataModule","outputs":[],"stateMutability":"nonpayable","type":"function"},{"inputs":[{"internalType":"contract IReleaseModule","name":"_newReleaseModule","type":"address"}],"name":"updateReleaseModule","outputs":[],"stateMutability":"nonpayable","type":"function"}],"evm":{"bytecode":{"linkReferences":{},"object":"6080806040523461007a5733156100645760008054336001600160a01b03198216811783556040519290916001600160a01b0316907f8be0079c531659141344cd1fd0a4f28419497f9722a3daafe3b4186f6b6457e09080a36108c590816100808239f35b631e4fbdf760e01b815260006004820152602490fd5b600080fdfe6080604081815260048036101561001557600080fd5b600092833560e01c90816309da4e5114610823575080633684d100146107fc5780633ead5d11146107d35780634a175c301461072357806365bb98b5146106fa5780636d4726d9146106d1578063702447221461061e578063715018a6146105c15780638da5cb5b1461059957806396be7adb146104e6578063b3c59a6314610425578063c6f25ccf14610372578063cc2a9a5b14610240578063cf67f5f014610189578063dbd15d531461015c5763f2fde38b146100d357600080fd5b34610158576020366003190112610158576100ec610848565b906100f5610863565b6001600160a01b0391821692831561014257505082546001600160a01b0319811683178455167f8be0079c531659141344cd1fd0a4f28419497f9722a3daafe3b4186f6b6457e08380a380f35b51631e4fbdf760e01b8152908101849052602490fd5b8280fd5b50503461018557816003193601126101855760055490516001600160a01b039091168152602090f35b5080fd5b50346101585760203660031901126101585780356001600160a01b038116929083900361023c576101b8610863565b82156101f9575050600380546001600160a01b031916821790557f156b489885a9d9051a89e3a112b02b5f65dbf5eb83705635454f535373ee48848280a280f35b906020606492519162461bcd60e51b8352820152601e60248201527f496e76616c6964204964656e746974794d6f64756c65206164647265737300006044820152fd5b8380fd5b50346101585760c03660031901126101585761025a610848565b6001600160a01b039160243583811692919083900361036e5760443584811680910361036a576064359085821680920361036657608435948686168096036103625760a4359680881680980361035e576102b2610863565b6006549860ff8a60a01c1661031c57506bffffffffffffffffffffffff60a01b9516856001541617600155846002541617600255836003541617600355828254161790556005541617600555600160a01b916affffffffffffffffffffff60a81b16171760065580f35b5162461bcd60e51b8152602081870152601f60248201527f436f6e747261637420697320616c726561647920696e697469616c697a6564006044820152606490fd5b8980fd5b8880fd5b8780fd5b8680fd5b8580fd5b50346101585760203660031901126101585780356001600160a01b038116929083900361023c576103a1610863565b82156103e2575050600180546001600160a01b031916821790557f1fd3d81e9d87b8ecd398d18c8902c744336129b073d33e4619b862160d36056a8280a280f35b906020606492519162461bcd60e51b8352820152601a60248201527f496e76616c696420466565734d6f64756c6520616464726573730000000000006044820152fd5b50346101585760203660031901126101585780356001600160a01b038116929083900361023c57610454610863565b8215610495575050600580546001600160a01b031916821790557fa01edaa3cd8a419b7bb45b34f35e84da238af9490eca1b318cb579f3179e29e48280a280f35b906020608492519162461bcd60e51b8352820152602560248201527f496e76616c6964204c6567616c436f6e74726163744d65746164617461206164604482015264647265737360d81b6064820152fd5b50346101585760203660031901126101585780356001600160a01b038116929083900361023c57610515610863565b8215610556575050600680546001600160a01b031916821790557fb259fe5f5e3a8c8b60c630187005e712c75f1ed8c5660302f4001330768bdc5a8280a280f35b906020606492519162461bcd60e51b8352820152601e60248201527f496e76616c696420457263323057686974656c697374206164647265737300006044820152fd5b505034610185578160031936011261018557905490516001600160a01b039091168152602090f35b833461061b578060031936011261061b576105da610863565b80546001600160a01b03198116825581906001600160a01b03167f8be0079c531659141344cd1fd0a4f28419497f9722a3daafe3b4186f6b6457e08280a380f35b80fd5b50346101585760203660031901126101585780356001600160a01b038116929083900361023c5761064d610863565b821561068e575050600280546001600160a01b031916821790557f015df7ab5ea7f977f908e495acd98b62c2d19b8b4b75f79be8c8fb0994118a8b8280a280f35b906020606492519162461bcd60e51b8352820152601d60248201527f496e76616c69642052656c656173654d6f64756c6520616464726573730000006044820152fd5b50503461018557816003193601126101855760015490516001600160a01b039091168152602090f35b50503461018557816003193601126101855760025490516001600160a01b039091168152602090f35b50346101585760203660031901126101585780356001600160a01b038116929083900361023c57610752610863565b8215610790575080546001600160a01b031916821790557f12e10e0acd0f94fc9b2d033a01586c1255f1d396a6a2ce1c02cc9fca057744588280a280f35b906020606492519162461bcd60e51b8352820152601e60248201527f496e76616c6964204d657461646174614d6f64756c65206164647265737300006044820152fd5b50503461018557816003193601126101855760035490516001600160a01b039091168152602090f35b50346101585782600319360112610158575490516001600160a01b03909116815260209150f35b8490346101855781600319360112610185576006546001600160a01b03168152602090f35b600435906001600160a01b038216820361085e57565b600080fd5b6000546001600160a01b0316330361087757565b60405163118cdaa760e01b8152336004820152602490fdfea26469706673582212204118a259b9cd478359f904dc2ce6170f80180578b617444988ed20d26e08666464736f6c63430008140033","opcodes":"PUSH1 0x80 DUP1 PUSH1 0x40 MSTORE CALLVALUE PUSH2 0x7A JUMPI CALLER ISZERO PUSH2 0x64 JUMPI PUSH1 0x0 DUP1 SLOAD CALLER PUSH1 0x1 PUSH1 0x1 PUSH1 0xA0 SHL SUB NOT DUP3 AND DUP2 OR DUP4 SSTORE PUSH1 0x40 MLOAD SWAP3 SWAP1 SWAP2 PUSH1 0x1 PUSH1 0x1 PUSH1 0xA0 SHL SUB AND SWAP1 PUSH32 0x8BE0079C531659141344CD1FD0A4F28419497F9722A3DAAFE3B4186F6B6457E0 SWAP1 DUP1 LOG3 PUSH2 0x8C5 SWAP1 DUP2 PUSH2 0x80 DUP3 CODECOPY RETURN JUMPDEST PUSH4 0x1E4FBDF7 PUSH1 0xE0 SHL DUP2 MSTORE PUSH1 0x0 PUSH1 0x4 DUP3 ADD MSTORE PUSH1 0x24 SWAP1 REVERT JUMPDEST PUSH1 0x0 DUP1 REVERT INVALID PUSH1 0x80 PUSH1 0x40 DUP2 DUP2 MSTORE PUSH1 0x4 DUP1 CALLDATASIZE LT ISZERO PUSH2 0x15 JUMPI PUSH1 0x0 DUP1 REVERT JUMPDEST PUSH1 0x0 SWAP3 DUP4 CALLDATALOAD PUSH1 0xE0 SHR SWAP1 DUP2 PUSH4 0x9DA4E51 EQ PUSH2 0x823 JUMPI POP DUP1 PUSH4 0x3684D100 EQ PUSH2 0x7FC JUMPI DUP1 PUSH4 0x3EAD5D11 EQ PUSH2 0x7D3 JUMPI DUP1 PUSH4 0x4A175C30 EQ PUSH2 0x723 JUMPI DUP1 PUSH4 0x65BB98B5 EQ PUSH2 0x6FA JUMPI DUP1 PUSH4 0x6D4726D9 EQ PUSH2 0x6D1 JUMPI DUP1 PUSH4 0x70244722 EQ PUSH2 0x61E JUMPI DUP1 PUSH4 0x715018A6 EQ PUSH2 0x5C1 JUMPI DUP1 PUSH4 0x8DA5CB5B EQ PUSH2 0x599 JUMPI DUP1 PUSH4 0x96BE7ADB EQ PUSH2 0x4E6 JUMPI DUP1 PUSH4 0xB3C59A63 EQ PUSH2 0x425 JUMPI DUP1 PUSH4 0xC6F25CCF EQ PUSH2 0x372 JUMPI DUP1 PUSH4 0xCC2A9A5B EQ PUSH2 0x240 JUMPI DUP1 PUSH4 0xCF67F5F0 EQ PUSH2 0x189 JUMPI DUP1 PUSH4 0xDBD15D53 EQ PUSH2 0x15C JUMPI PUSH4 0xF2FDE38B EQ PUSH2 0xD3 JUMPI PUSH1 0x0 DUP1 REVERT JUMPDEST CALLVALUE PUSH2 0x158 JUMPI PUSH1 0x20 CALLDATASIZE PUSH1 0x3 NOT ADD SLT PUSH2 0x158 JUMPI PUSH2 0xEC PUSH2 0x848 JUMP JUMPDEST SWAP1 PUSH2 0xF5 PUSH2 0x863 JUMP JUMPDEST PUSH1 0x1 PUSH1 0x1 PUSH1 0xA0 SHL SUB SWAP2 DUP3 AND SWAP3 DUP4 ISZERO PUSH2 0x142 JUMPI POP POP DUP3 SLOAD PUSH1 0x1 PUSH1 0x1 PUSH1 0xA0 SHL SUB NOT DUP2 AND DUP4 OR DUP5 SSTORE AND PUSH32 0x8BE0079C531659141344CD1FD0A4F28419497F9722A3DAAFE3B4186F6B6457E0 DUP4 DUP1 LOG3 DUP1 RETURN JUMPDEST MLOAD PUSH4 0x1E4FBDF7 PUSH1 0xE0 SHL DUP2 MSTORE SWAP1 DUP2 ADD DUP5 SWAP1 MSTORE PUSH1 0x24 SWAP1 REVERT JUMPDEST DUP3 DUP1 REVERT JUMPDEST POP POP CALLVALUE PUSH2 0x185 JUMPI DUP2 PUSH1 0x3 NOT CALLDATASIZE ADD SLT PUSH2 0x185 JUMPI PUSH1 0x5 SLOAD SWAP1 MLOAD PUSH1 0x1 PUSH1 0x1 PUSH1 0xA0 SHL SUB SWAP1 SWAP2 AND DUP2 MSTORE PUSH1 0x20 SWAP1 RETURN JUMPDEST POP DUP1 REVERT JUMPDEST POP CALLVALUE PUSH2 0x158 JUMPI PUSH1 0x20 CALLDATASIZE PUSH1 0x3 NOT ADD SLT PUSH2 0x158 JUMPI DUP1 CALLDATALOAD PUSH1 0x1 PUSH1 0x1 PUSH1 0xA0 SHL SUB DUP2 AND SWAP3 SWAP1 DUP4 SWAP1 SUB PUSH2 0x23C JUMPI PUSH2 0x1B8 PUSH2 0x863 JUMP JUMPDEST DUP3 ISZERO PUSH2 0x1F9 JUMPI POP POP PUSH1 0x3 DUP1 SLOAD PUSH1 0x1 PUSH1 0x1 PUSH1 0xA0 SHL SUB NOT AND DUP3 OR SWAP1 SSTORE PUSH32 0x156B489885A9D9051A89E3A112B02B5F65DBF5EB83705635454F535373EE4884 DUP3 DUP1 LOG2 DUP1 RETURN JUMPDEST SWAP1 PUSH1 0x20 PUSH1 0x64 SWAP3 MLOAD SWAP2 PUSH3 0x461BCD PUSH1 0xE5 SHL DUP4 MSTORE DUP3 ADD MSTORE PUSH1 0x1E PUSH1 0x24 DUP3 ADD MSTORE PUSH32 0x496E76616C6964204964656E746974794D6F64756C6520616464726573730000 PUSH1 0x44 DUP3 ADD MSTORE REVERT JUMPDEST DUP4 DUP1 REVERT JUMPDEST POP CALLVALUE PUSH2 0x158 JUMPI PUSH1 0xC0 CALLDATASIZE PUSH1 0x3 NOT ADD SLT PUSH2 0x158 JUMPI PUSH2 0x25A PUSH2 0x848 JUMP JUMPDEST PUSH1 0x1 PUSH1 0x1 PUSH1 0xA0 SHL SUB SWAP2 PUSH1 0x24 CALLDATALOAD DUP4 DUP2 AND SWAP3 SWAP2 SWAP1 DUP4 SWAP1 SUB PUSH2 0x36E JUMPI PUSH1 0x44 CALLDATALOAD DUP5 DUP2 AND DUP1 SWAP2 SUB PUSH2 0x36A JUMPI PUSH1 0x64 CALLDATALOAD SWAP1 DUP6 DUP3 AND DUP1 SWAP3 SUB PUSH2 0x366 JUMPI PUSH1 0x84 CALLDATALOAD SWAP5 DUP7 DUP7 AND DUP1 SWAP7 SUB PUSH2 0x362 JUMPI PUSH1 0xA4 CALLDATALOAD SWAP7 DUP1 DUP9 AND DUP1 SWAP9 SUB PUSH2 0x35E JUMPI PUSH2 0x2B2 PUSH2 0x863 JUMP JUMPDEST PUSH1 0x6 SLOAD SWAP9 PUSH1 0xFF DUP11 PUSH1 0xA0 SHR AND PUSH2 0x31C JUMPI POP PUSH12 0xFFFFFFFFFFFFFFFFFFFFFFFF PUSH1 0xA0 SHL SWAP6 AND DUP6 PUSH1 0x1 SLOAD AND OR PUSH1 0x1 SSTORE DUP5 PUSH1 0x2 SLOAD AND OR PUSH1 0x2 SSTORE DUP4 PUSH1 0x3 SLOAD AND OR PUSH1 0x3 SSTORE DUP3 DUP3 SLOAD AND OR SWAP1 SSTORE PUSH1 0x5 SLOAD AND OR PUSH1 0x5 SSTORE PUSH1 0x1 PUSH1 0xA0 SHL SWAP2 PUSH11 0xFFFFFFFFFFFFFFFFFFFFFF PUSH1 0xA8 SHL AND OR OR PUSH1 0x6 SSTORE DUP1 RETURN JUMPDEST MLOAD PUSH3 0x461BCD PUSH1 0xE5 SHL DUP2 MSTORE PUSH1 0x20 DUP2 DUP8 ADD MSTORE PUSH1 0x1F PUSH1 0x24 DUP3 ADD MSTORE PUSH32 0x436F6E747261637420697320616C726561647920696E697469616C697A656400 PUSH1 0x44 DUP3 ADD MSTORE PUSH1 0x64 SWAP1 REVERT JUMPDEST DUP10 DUP1 REVERT JUMPDEST DUP9 DUP1 REVERT JUMPDEST DUP8 DUP1 REVERT JUMPDEST DUP7 DUP1 REVERT JUMPDEST DUP6 DUP1 REVERT JUMPDEST POP CALLVALUE PUSH2 0x158 JUMPI PUSH1 0x20 CALLDATASIZE PUSH1 0x3 NOT ADD SLT PUSH2 0x158 JUMPI DUP1 CALLDATALOAD PUSH1 0x1 PUSH1 0x1 PUSH1 0xA0 SHL SUB DUP2 AND SWAP3 SWAP1 DUP4 SWAP1 SUB PUSH2 0x23C JUMPI PUSH2 0x3A1 PUSH2 0x863 JUMP JUMPDEST DUP3 ISZERO PUSH2 0x3E2 JUMPI POP POP PUSH1 0x1 DUP1 SLOAD PUSH1 0x1 PUSH1 0x1 PUSH1 0xA0 SHL SUB NOT AND DUP3 OR SWAP1 SSTORE PUSH32 0x1FD3D81E9D87B8ECD398D18C8902C744336129B073D33E4619B862160D36056A DUP3 DUP1 LOG2 DUP1 RETURN JUMPDEST SWAP1 PUSH1 0x20 PUSH1 0x64 SWAP3 MLOAD SWAP2 PUSH3 0x461BCD PUSH1 0xE5 SHL DUP4 MSTORE DUP3 ADD MSTORE PUSH1 0x1A PUSH1 0x24 DUP3 ADD MSTORE PUSH32 0x496E76616C696420466565734D6F64756C652061646472657373000000000000 PUSH1 0x44 DUP3 ADD MSTORE REVERT JUMPDEST POP CALLVALUE PUSH2 0x158 JUMPI PUSH1 0x20 CALLDATASIZE PUSH1 0x3 NOT ADD SLT PUSH2 0x158 JUMPI DUP1 CALLDATALOAD PUSH1 0x1 PUSH1 0x1 PUSH1 0xA0 SHL SUB DUP2 AND SWAP3 SWAP1 DUP4 SWAP1 SUB PUSH2 0x23C JUMPI PUSH2 0x454 PUSH2 0x863 JUMP JUMPDEST DUP3 ISZERO PUSH2 0x495 JUMPI POP POP PUSH1 0x5 DUP1 SLOAD PUSH1 0x1 PUSH1 0x1 PUSH1 0xA0 SHL SUB NOT AND DUP3 OR SWAP1 SSTORE PUSH32 0xA01EDAA3CD8A419B7BB45B34F35E84DA238AF9490ECA1B318CB579F3179E29E4 DUP3 DUP1 LOG2 DUP1 RETURN JUMPDEST SWAP1 PUSH1 0x20 PUSH1 0x84 SWAP3 MLOAD SWAP2 PUSH3 0x461BCD PUSH1 0xE5 SHL DUP4 MSTORE DUP3 ADD MSTORE PUSH1 0x25 PUSH1 0x24 DUP3 ADD MSTORE PUSH32 0x496E76616C6964204C6567616C436F6E74726163744D65746164617461206164 PUSH1 0x44 DUP3 ADD MSTORE PUSH5 0x6472657373 PUSH1 0xD8 SHL PUSH1 0x64 DUP3 ADD MSTORE REVERT JUMPDEST POP CALLVALUE PUSH2 0x158 JUMPI PUSH1 0x20 CALLDATASIZE PUSH1 0x3 NOT ADD SLT PUSH2 0x158 JUMPI DUP1 CALLDATALOAD PUSH1 0x1 PUSH1 0x1 PUSH1 0xA0 SHL SUB DUP2 AND SWAP3 SWAP1 DUP4 SWAP1 SUB PUSH2 0x23C JUMPI PUSH2 0x515 PUSH2 0x863 JUMP JUMPDEST DUP3 ISZERO PUSH2 0x556 JUMPI POP POP PUSH1 0x6 DUP1 SLOAD PUSH1 0x1 PUSH1 0x1 PUSH1 0xA0 SHL SUB NOT AND DUP3 OR SWAP1 SSTORE PUSH32 0xB259FE5F5E3A8C8B60C630187005E712C75F1ED8C5660302F4001330768BDC5A DUP3 DUP1 LOG2 DUP1 RETURN JUMPDEST SWAP1 PUSH1 0x20 PUSH1 0x64 SWAP3 MLOAD SWAP2 PUSH3 0x461BCD PUSH1 0xE5 SHL DUP4 MSTORE DUP3 ADD MSTORE PUSH1 0x1E PUSH1 0x24 DUP3 ADD MSTORE PUSH32 0x496E76616C696420457263323057686974656C69737420616464726573730000 PUSH1 0x44 DUP3 ADD MSTORE REVERT JUMPDEST POP POP CALLVALUE PUSH2 0x185 JUMPI DUP2 PUSH1 0x3 NOT CALLDATASIZE ADD SLT PUSH2 0x185 JUMPI SWAP1 SLOAD SWAP1 MLOAD PUSH1 0x1 PUSH1 0x1 PUSH1 0xA0 SHL SUB SWAP1 SWAP2 AND DUP2 MSTORE PUSH1 0x20 SWAP1 RETURN JUMPDEST DUP4 CALLVALUE PUSH2 0x61B JUMPI DUP1 PUSH1 0x3 NOT CALLDATASIZE ADD SLT PUSH2 0x61B JUMPI PUSH2 0x5DA PUSH2 0x863 JUMP JUMPDEST DUP1 SLOAD PUSH1 0x1 PUSH1 0x1 PUSH1 0xA0 SHL SUB NOT DUP2 AND DUP3 SSTORE DUP2 SWAP1 PUSH1 0x1 PUSH1 0x1 PUSH1 0xA0 SHL SUB AND PUSH32 0x8BE0079C531659141344CD1FD0A4F28419497F9722A3DAAFE3B4186F6B6457E0 DUP3 DUP1 LOG3 DUP1 RETURN JUMPDEST DUP1 REVERT JUMPDEST POP CALLVALUE PUSH2 0x158 JUMPI PUSH1 0x20 CALLDATASIZE PUSH1 0x3 NOT ADD SLT PUSH2 0x158 JUMPI DUP1 CALLDATALOAD PUSH1 0x1 PUSH1 0x1 PUSH1 0xA0 SHL SUB DUP2 AND SWAP3 SWAP1 DUP4 SWAP1 SUB PUSH2 0x23C JUMPI PUSH2 0x64D PUSH2 0x863 JUMP JUMPDEST DUP3 ISZERO PUSH2 0x68E JUMPI POP POP PUSH1 0x2 DUP1 SLOAD PUSH1 0x1 PUSH1 0x1 PUSH1 0xA0 SHL SUB NOT AND DUP3 OR SWAP1 SSTORE PUSH32 0x15DF7AB5EA7F977F908E495ACD98B62C2D19B8B4B75F79BE8C8FB0994118A8B DUP3 DUP1 LOG2 DUP1 RETURN JUMPDEST SWAP1 PUSH1 0x20 PUSH1 0x64 SWAP3 MLOAD SWAP2 PUSH3 0x461BCD PUSH1 0xE5 SHL DUP4 MSTORE DUP3 ADD MSTORE PUSH1 0x1D PUSH1 0x24 DUP3 ADD MSTORE PUSH32 0x496E76616C69642052656C656173654D6F64756C652061646472657373000000 PUSH1 0x44 DUP3 ADD MSTORE REVERT JUMPDEST POP POP CALLVALUE PUSH2 0x185 JUMPI DUP2 PUSH1 0x3 NOT CALLDATASIZE ADD SLT PUSH2 0x185 JUMPI PUSH1 0x1 SLOAD SWAP1 MLOAD PUSH1 0x1 PUSH1 0x1 PUSH1 0xA0 SHL SUB SWAP1 SWAP2 AND DUP2 MSTORE PUSH1 0x20 SWAP1 RETURN JUMPDEST POP POP CALLVALUE PUSH2 0x185 JUMPI DUP2 PUSH1 0x3 NOT CALLDATASIZE ADD SLT PUSH2 0x185 JUMPI PUSH1 0x2 SLOAD SWAP1 MLOAD PUSH1 0x1 PUSH1 0x1 PUSH1 0xA0 SHL SUB SWAP1 SWAP2 AND DUP2 MSTORE PUSH1 0x20 SWAP1 RETURN JUMPDEST POP CALLVALUE PUSH2 0x158 JUMPI PUSH1 0x20 CALLDATASIZE PUSH1 0x3 NOT ADD SLT PUSH2 0x158 JUMPI DUP1 CALLDATALOAD PUSH1 0x1 PUSH1 0x1 PUSH1 0xA0 SHL SUB DUP2 AND SWAP3 SWAP1 DUP4 SWAP1 SUB PUSH2 0x23C JUMPI PUSH2 0x752 PUSH2 0x863 JUMP JUMPDEST DUP3 ISZERO PUSH2 0x790 JUMPI POP DUP1 SLOAD PUSH1 0x1 PUSH1 0x1 PUSH1 0xA0 SHL SUB NOT AND DUP3 OR SWAP1 SSTORE PUSH32 0x12E10E0ACD0F94FC9B2D033A01586C1255F1D396A6A2CE1C02CC9FCA05774458 DUP3 DUP1 LOG2 DUP1 RETURN JUMPDEST SWAP1 PUSH1 0x20 PUSH1 0x64 SWAP3 MLOAD SWAP2 PUSH3 0x461BCD PUSH1 0xE5 SHL DUP4 MSTORE DUP3 ADD MSTORE PUSH1 0x1E PUSH1 0x24 DUP3 ADD MSTORE PUSH32 0x496E76616C6964204D657461646174614D6F64756C6520616464726573730000 PUSH1 0x44 DUP3 ADD MSTORE REVERT JUMPDEST POP POP CALLVALUE PUSH2 0x185 JUMPI DUP2 PUSH1 0x3 NOT CALLDATASIZE ADD SLT PUSH2 0x185 JUMPI PUSH1 0x3 SLOAD SWAP1 MLOAD PUSH1 0x1 PUSH1 0x1 PUSH1 0xA0 SHL SUB SWAP1 SWAP2 AND DUP2 MSTORE PUSH1 0x20 SWAP1 RETURN JUMPDEST POP CALLVALUE PUSH2 0x158 JUMPI DUP3 PUSH1 0x3 NOT CALLDATASIZE ADD SLT PUSH2 0x158 JUMPI SLOAD SWAP1 MLOAD PUSH1 0x1 PUSH1 0x1 PUSH1 0xA0 SHL SUB SWAP1 SWAP2 AND DUP2 MSTORE PUSH1 0x20 SWAP2 POP RETURN JUMPDEST DUP5 SWAP1 CALLVALUE PUSH2 0x185 JUMPI DUP2 PUSH1 0x3 NOT CALLDATASIZE ADD SLT PUSH2 0x185 JUMPI PUSH1 0x6 SLOAD PUSH1 0x1 PUSH1 0x1 PUSH1 0xA0 SHL SUB AND DUP2 MSTORE PUSH1 0x20 SWAP1 RETURN JUMPDEST PUSH1 0x4 CALLDATALOAD SWAP1 PUSH1 0x1 PUSH1 0x1 PUSH1 0xA0 SHL SUB DUP3 AND DUP3 SUB PUSH2 0x85E JUMPI JUMP JUMPDEST PUSH1 0x0 DUP1 REVERT JUMPDEST PUSH1 0x0 SLOAD PUSH1 0x1 PUSH1 0x1 PUSH1 0xA0 SHL SUB AND CALLER SUB PUSH2 0x877 JUMPI JUMP JUMPDEST PUSH1 0x40 MLOAD PUSH4 0x118CDAA7 PUSH1 0xE0 SHL DUP2 MSTORE CALLER PUSH1 0x4 DUP3 ADD MSTORE PUSH1 0x24 SWAP1 REVERT INVALID LOG2 PUSH5 0x6970667358 0x22 SLT KECCAK256 COINBASE XOR LOG2 MSIZE 0xB9 0xCD SELFBALANCE DUP4 MSIZE 0xF9 DIV 0xDC 0x2C 0xE6 OR 0xF DUP1 XOR SDIV PUSH25 0xB617444988ED20D26E08666464736F6C634300081400330000 "},"methodIdentifiers":{"erc20whitelist()":"09da4e51","feesModule()":"6d4726d9","identityModule()":"3ead5d11","initialize(address,address,address,address,address,address)":"cc2a9a5b","legalContractMetadata()":"dbd15d53","metadataModule()":"3684d100","owner()":"8da5cb5b","releaseModule()":"65bb98b5","renounceOwnership()":"715018a6","transferOwnership(address)":"f2fde38b","updateErc20Whitelist(address)":"96be7adb","updateFeesModule(address)":"c6f25ccf","updateIdentityModule(address)":"cf67f5f0","updateLegalContractMetadata(address)":"b3c59a63","updateMetadataModule(address)":"4a175c30","updateReleaseModule(address)":"70244722"}},"storageLayout":{"storage":[{"astId":8,"contract":"contracts/protocol/Modules/RegistryModule.sol:RegistryModule","label":"_owner","offset":0,"slot":"0","type":"t_address"},{"astId":1712,"contract":"contracts/protocol/Modules/RegistryModule.sol:RegistryModule","label":"feesModule","offset":0,"slot":"1","type":"t_contract(IFeesModule)1101"},{"astId":1715,"contract":"contracts/protocol/Modules/RegistryModule.sol:RegistryModule","label":"releaseModule","offset":0,"slot":"2","type":"t_contract(IReleaseModule)1399"},{"astId":1718,"contract":"contracts/protocol/Modules/RegistryModule.sol:RegistryModule","label":"identityModule","offset":0,"slot":"3","type":"t_contract(IIdentityModule)1174"},{"astId":1721,"contract":"contracts/protocol/Modules/RegistryModule.sol:RegistryModule","label":"metadataModule","offset":0,"slot":"4","type":"t_contract(IMetadataModule)1304"},{"astId":1724,"contract":"contracts/protocol/Modules/RegistryModule.sol:RegistryModule","label":"legalContractMetadata","offset":0,"slot":"5","type":"t_contract(ILegalContractMetadata)1202"},{"astId":1727,"contract":"contracts/protocol/Modules/RegistryModule.sol:RegistryModule","label":"erc20whitelist","offset":0,"slot":"6","type":"t_contract(IERC20Whitelist)1005"},{"astId":1729,"contract":"contracts/protocol/Modules/RegistryModule.sol:RegistryModule","label":"initialized","offset":20,"slot":"6","type":"t_bool"}],"types":{"t_address":{"encoding":"inplace","label":"address","numberOfBytes":"20"},"t_bool":{"encoding":"inplace","label":"bool","numberOfBytes":"1"},"t_contract(IERC20Whitelist)1005":{"encoding":"inplace","label":"contract IERC20Whitelist","numberOfBytes":"20"},"t_contract(IFeesModule)1101":{"encoding":"inplace","label":"contract IFeesModule","numberOfBytes":"20"},"t_contract(IIdentityModule)1174":{"encoding":"inplace","label":"contract IIdentityModule","numberOfBytes":"20"},"t_contract(ILegalContractMetadata)1202":{"encoding":"inplace","label":"contract ILegalContractMetadata","numberOfBytes":"20"},"t_contract(IMetadataModule)1304":{"encoding":"inplace","label":"contract IMetadataModule","numberOfBytes":"20"},"t_contract(IReleaseModule)1399":{"encoding":"inplace","label":"contract IReleaseModule","numberOfBytes":"20"}}}}}}