{"contracts/protocol/Modules/IdentityModule.sol":{"IdentityModule":{"abi":[{"inputs":[{"internalType":"contract ReleaseModule","name":"_releaseModule","type":"address"}],"stateMutability":"nonpayable","type":"constructor"},{"inputs":[{"internalType":"address","name":"owner","type":"address"}],"name":"OwnableInvalidOwner","type":"error"},{"inputs":[{"internalType":"address","name":"account","type":"address"}],"name":"OwnableUnauthorizedAccount","type":"error"},{"anonymous":false,"inputs":[{"indexed":true,"internalType":"address","name":"wrappedSong","type":"address"},{"indexed":false,"internalType":"string","name":"registryType","type":"string"},{"indexed":false,"internalType":"string","name":"value","type":"string"}],"name":"IdentityRegistryUpdated","type":"event"},{"anonymous":false,"inputs":[{"indexed":true,"internalType":"address","name":"previousOwner","type":"address"},{"indexed":true,"internalType":"address","name":"newOwner","type":"address"}],"name":"OwnershipTransferred","type":"event"},{"anonymous":false,"inputs":[{"indexed":true,"internalType":"address","name":"wrappedSong","type":"address"},{"indexed":false,"internalType":"bool","name":"isAuthentic","type":"bool"}],"name":"WrappedSongAuthenticitySet","type":"event"},{"inputs":[{"internalType":"address","name":"wrappedSong","type":"address"},{"internalType":"string","name":"iscc","type":"string"}],"name":"addISCC","outputs":[],"stateMutability":"nonpayable","type":"function"},{"inputs":[{"internalType":"address","name":"wrappedSong","type":"address"},{"internalType":"string","name":"isrc","type":"string"}],"name":"addISRC","outputs":[],"stateMutability":"nonpayable","type":"function"},{"inputs":[{"internalType":"address","name":"wrappedSong","type":"address"},{"internalType":"string","name":"iswc","type":"string"}],"name":"addISWC","outputs":[],"stateMutability":"nonpayable","type":"function"},{"inputs":[{"internalType":"address","name":"wrappedSong","type":"address"},{"internalType":"string","name":"upc","type":"string"}],"name":"addUPC","outputs":[],"stateMutability":"nonpayable","type":"function"},{"inputs":[{"internalType":"address","name":"wrappedSong","type":"address"}],"name":"getIsccCode","outputs":[{"internalType":"string","name":"","type":"string"}],"stateMutability":"view","type":"function"},{"inputs":[{"internalType":"address","name":"wrappedSong","type":"address"}],"name":"getIsrcCode","outputs":[{"internalType":"string","name":"","type":"string"}],"stateMutability":"view","type":"function"},{"inputs":[{"internalType":"address","name":"wrappedSong","type":"address"}],"name":"getIswcCode","outputs":[{"internalType":"string","name":"","type":"string"}],"stateMutability":"view","type":"function"},{"inputs":[{"internalType":"address","name":"wrappedSong","type":"address"}],"name":"getUpcCode","outputs":[{"internalType":"string","name":"","type":"string"}],"stateMutability":"view","type":"function"},{"inputs":[{"internalType":"address","name":"wrappedSong","type":"address"}],"name":"isAuthentic","outputs":[{"internalType":"bool","name":"","type":"bool"}],"stateMutability":"view","type":"function"},{"inputs":[{"internalType":"address","name":"","type":"address"}],"name":"isccRegistry","outputs":[{"internalType":"string","name":"","type":"string"}],"stateMutability":"view","type":"function"},{"inputs":[{"internalType":"address","name":"","type":"address"}],"name":"isrcRegistry","outputs":[{"internalType":"string","name":"","type":"string"}],"stateMutability":"view","type":"function"},{"inputs":[{"internalType":"address","name":"","type":"address"}],"name":"iswcRegistry","outputs":[{"internalType":"string","name":"","type":"string"}],"stateMutability":"view","type":"function"},{"inputs":[],"name":"owner","outputs":[{"internalType":"address","name":"","type":"address"}],"stateMutability":"view","type":"function"},{"inputs":[],"name":"releaseModule","outputs":[{"internalType":"contract ReleaseModule","name":"","type":"address"}],"stateMutability":"view","type":"function"},{"inputs":[],"name":"renounceOwnership","outputs":[],"stateMutability":"nonpayable","type":"function"},{"inputs":[{"internalType":"address","name":"wrappedSong","type":"address"},{"internalType":"bool","name":"_isAuthentic","type":"bool"}],"name":"setWrappedSongAuthenticity","outputs":[],"stateMutability":"nonpayable","type":"function"},{"inputs":[{"internalType":"address","name":"newOwner","type":"address"}],"name":"transferOwnership","outputs":[],"stateMutability":"nonpayable","type":"function"},{"inputs":[{"internalType":"address","name":"","type":"address"}],"name":"upcRegistry","outputs":[{"internalType":"string","name":"","type":"string"}],"stateMutability":"view","type":"function"},{"inputs":[{"internalType":"address","name":"","type":"address"}],"name":"wrappedSongAuthenticity","outputs":[{"internalType":"bool","name":"","type":"bool"}],"stateMutability":"view","type":"function"}],"evm":{"bytecode":{"linkReferences":{},"object":"6080346100c657601f61109838819003918201601f19168301916001600160401b038311848410176100cb578084926020946040528339810103126100c657516001600160a01b0390818116908190036100c65733156100ad5760005460018060a01b0319903382821617600055604051933391167f8be0079c531659141344cd1fd0a4f28419497f9722a3daafe3b4186f6b6457e0600080a36006541617600655610fb690816100e28239f35b604051631e4fbdf760e01b815260006004820152602490fd5b600080fd5b634e487b7160e01b600052604160045260246000fdfe6080604081815260048036101561001557600080fd5b600092833560e01c90816306fd88ed14610c845750806310df9a8414610c49578063164158ff146107555780631e944d5414610c4957806321dd882b146104ad578063496d51af14610a355780634bb43e5c146103d95780634fa71b061461083c57806365bb98b514610813578063715018a6146107b65780638da5cb5b1461078e5780639860da0014610755578063a4144de614610526578063a4493575146104e8578063a8428656146104ad578063be94e3191461042b578063cc7e5445146103d9578063dfef96811461017d5763f2fde38b146100f457600080fd5b346101795760203660031901126101795761010d610cbf565b90610116610eb8565b6001600160a01b0391821692831561016357505082546001600160a01b0319811683178455167f8be0079c531659141344cd1fd0a4f28419497f9722a3daafe3b4186f6b6457e08380a380f35b51631e4fbdf760e01b8152908101849052602490fd5b8280fd5b509190346103d55761018e36610e32565b6006548351633aa690e760e01b81526001600160a01b03938416818801819052602097909594909288908390602490829085165afa9182156103cb57906101e09291889261039c575b50163314610f03565b81511561036357838552600286528285209082519067ffffffffffffffff8211610350575061020f8254610d1a565b601f811161030d575b5086601f821160011461029357869761028293836003979694608094600080516020610f618339815191529a9b91610288575b508160011b91600019908a1b1c19161790555b84519585879687528601526255504360e81b60608601528401526080830190610cda565b0390a280f35b90508501513861024b565b82875287872090601f198316885b8181106102f6575093600184608094600080516020610f618339815191529a9b9c9460039a999761028299106102de575b5050811b01905561025e565b870151600019838c1b60f8161c1916905538806102d2565b91928a60018192868a0151815501940192016102a1565b828752878720601f830160051c810191898410610346575b601f0160051c01905b81811061033b5750610218565b87815560010161032e565b9091508190610325565b634e487b7160e01b875260419052602486fd5b825162461bcd60e51b815290810186905260136024820152725550432063616e6e6f7420626520656d70747960681b6044820152606490fd5b6103bd919250893d8b116103c4575b6103b58183610d54565b810190610ee4565b90386101d7565b503d6103ab565b85513d89823e3d90fd5b5080fd5b5050346103d55760203660031901126103d557610427916104149082906001600160a01b03610406610cbf565b168152600360205220610d8c565b9051918291602083526020830190610cda565b0390f35b5050346103d557806003193601126103d557610445610cbf565b602435908115158092036104a9577fb54df1287f3d7012d0c033203342de84104f09a34d968f171bff51825d6cf54491602091610480610eb8565b6001600160a01b031680865260058352848620805460ff191660ff84161790559351908152a280f35b8380fd5b5050346103d55760203660031901126103d557610427916104149082906001600160a01b036104da610cbf565b168152600160205220610d8c565b5050346103d55760203660031901126103d55760209160ff9082906001600160a01b03610513610cbf565b1681526005855220541690519015158152f35b50346101795761053536610e32565b6006548451633aa690e760e01b81526001600160a01b03938416858201819052959360209283908390602490829085165afa91821561074b5790610583929189926107335750163314610f03565b8151156106fa5784865260038152828620825167ffffffffffffffff81116106e7576105af8254610d1a565b601f81116106a4575b5082601f821160011461062c5792600080516020610f618339815191529695949282608093610282968c91610621575b508160011b916000199060031b1c19161790555b8451958587968752860152634953574360e01b60608601528401526080830190610cda565b9050850151386105e8565b82895283892090601f1983168a5b81811061068d5750836102829693600080516020610f618339815191529a9998969360809660019410610674575b5050811b0190556105fc565b87015160001960f88460031b161c191690553880610668565b91928660018192868b01518155019401920161063a565b828952838920601f830160051c8101918584106106dd575b601f0160051c01905b8181106106d257506105b8565b8981556001016106c5565b90915081906106bc565b634e487b7160e01b885260418652602488fd5b8360649184519162461bcd60e51b83528201526014602482015273495357432063616e6e6f7420626520656d70747960601b6044820152fd5b6103bd919250843d86116103c4576103b58183610d54565b85513d8a823e3d90fd5b50346101795760203660031901126101795761042792610414918391906001600160a01b03610782610cbf565b16825260205220610d8c565b5050346103d557816003193601126103d557905490516001600160a01b039091168152602090f35b83346108105780600319360112610810576107cf610eb8565b80546001600160a01b03198116825581906001600160a01b03167f8be0079c531659141344cd1fd0a4f28419497f9722a3daafe3b4186f6b6457e08280a380f35b80fd5b5050346103d557816003193601126103d55760065490516001600160a01b039091168152602090f35b50346101795761084b36610e32565b6006548451633aa690e760e01b81526001600160a01b03938416858201819052959360209283908390602490829085165afa91821561074b5790610899929189926107335750163314610f03565b8151156109fc57848652838152828620825167ffffffffffffffff81116106e7576108c48254610d1a565b601f81116109b9575b5082601f82116001146109415792600080516020610f618339815191529695949282608093610282968c91610936575b508160011b916000199060031b1c19161790555b8451958587968752860152634953434360e01b60608601528401526080830190610cda565b9050850151386108fd565b82895283892090601f1983168a5b8181106109a25750836102829693600080516020610f618339815191529a9998969360809660019410610989575b5050811b019055610911565b87015160001960f88460031b161c19169055388061097d565b91928660018192868b01518155019401920161094f565b828952838920601f830160051c8101918584106109f2575b601f0160051c01905b8181106109e757506108cd565b8981556001016109da565b90915081906109d1565b8360649184519162461bcd60e51b83528201526014602482015273495343432063616e6e6f7420626520656d70747960601b6044820152fd5b503461017957610a4436610e32565b6006548451633aa690e760e01b81526001600160a01b03938416858201819052959360209283908390602490829085165afa91821561074b5790610a92929189926107335750163314610f03565b815115610c105784865260018082528387209083519067ffffffffffffffff8211610bfd57610ac18354610d1a565b601f8111610bb7575b508389601f8411600114610b3e579280806102829794600080516020610f618339815191529b9a99979460809793610b33575b501b916000199060031b1c19161790555b8451958587968752860152634953524360e01b60608601528401526080830190610cda565b880151925038610afd565b50838a52848a2091929190601f1983168b5b818110610ba2575092600080516020610f6183398151915299989795926080959282610282999610610b89575b5050811b019055610b0e565b87015160001960f88460031b161c191690553880610b7d565b88830151845592850192918701918701610b50565b838a52848a20601f840160051c810191868510610bf3575b601f0160051c019082905b828110610be8575050610aca565b8b8155018290610bda565b9091508190610bcf565b634e487b7160e01b895260418752602489fd5b8360649184519162461bcd60e51b83528201526014602482015273495352432063616e6e6f7420626520656d70747960601b6044820152fd5b5050346103d55760203660031901126103d557610427916104149082906001600160a01b03610c76610cbf565b168152600260205220610d8c565b849084346101795760203660031901126101795760209260ff91906001600160a01b03610caf610cbf565b1681526005855220541615158152f35b600435906001600160a01b0382168203610cd557565b600080fd5b919082519283825260005b848110610d06575050826000602080949584010152601f8019910116010190565b602081830181015184830182015201610ce5565b90600182811c92168015610d4a575b6020831014610d3457565b634e487b7160e01b600052602260045260246000fd5b91607f1691610d29565b90601f8019910116810190811067ffffffffffffffff821117610d7657604052565b634e487b7160e01b600052604160045260246000fd5b9060405191826000825492610da084610d1a565b908184526001948581169081600014610e0f5750600114610dcc575b5050610dca92500383610d54565b565b9093915060005260209081600020936000915b818310610df7575050610dca93508201013880610dbc565b85548884018501529485019487945091830191610ddf565b915050610dca94506020925060ff191682840152151560051b8201013880610dbc565b906040600319830112610cd5576004356001600160a01b0381168103610cd5579167ffffffffffffffff602435818111610cd55782602382011215610cd5578060040135918211610d765760405192610e95601f8401601f191660200185610d54565b82845260248383010111610cd55781600092602460209301838601378301015290565b6000546001600160a01b03163303610ecc57565b60405163118cdaa760e01b8152336004820152602490fd5b90816020910312610cd557516001600160a01b0381168103610cd55790565b15610f0a57565b60405162461bcd60e51b815260206004820152602860248201527f4f6e6c79206469737472696275746f722063616e20706572666f726d20746869604482015267399030b1ba34b7b760c11b6064820152608490fdfea7277ea7d4dbb8f0cc254f34cf3e4ac197629ee7789dfa02f6b28a887228909ba2646970667358221220eb503c70eb7be268fc235f7568e5f40bb48d50ab4fd8a886a23f062dc838ee2b64736f6c63430008140033","opcodes":"PUSH1 0x80 CALLVALUE PUSH2 0xC6 JUMPI PUSH1 0x1F PUSH2 0x1098 CODESIZE DUP2 SWAP1 SUB SWAP2 DUP3 ADD PUSH1 0x1F NOT AND DUP4 ADD SWAP2 PUSH1 0x1 PUSH1 0x1 PUSH1 0x40 SHL SUB DUP4 GT DUP5 DUP5 LT OR PUSH2 0xCB JUMPI DUP1 DUP5 SWAP3 PUSH1 0x20 SWAP5 PUSH1 0x40 MSTORE DUP4 CODECOPY DUP2 ADD SUB SLT PUSH2 0xC6 JUMPI MLOAD PUSH1 0x1 PUSH1 0x1 PUSH1 0xA0 SHL SUB SWAP1 DUP2 DUP2 AND SWAP1 DUP2 SWAP1 SUB PUSH2 0xC6 JUMPI CALLER ISZERO PUSH2 0xAD JUMPI PUSH1 0x0 SLOAD PUSH1 0x1 DUP1 PUSH1 0xA0 SHL SUB NOT SWAP1 CALLER DUP3 DUP3 AND OR PUSH1 0x0 SSTORE PUSH1 0x40 MLOAD SWAP4 CALLER SWAP2 AND PUSH32 0x8BE0079C531659141344CD1FD0A4F28419497F9722A3DAAFE3B4186F6B6457E0 PUSH1 0x0 DUP1 LOG3 PUSH1 0x6 SLOAD AND OR PUSH1 0x6 SSTORE PUSH2 0xFB6 SWAP1 DUP2 PUSH2 0xE2 DUP3 CODECOPY RETURN JUMPDEST PUSH1 0x40 MLOAD PUSH4 0x1E4FBDF7 PUSH1 0xE0 SHL DUP2 MSTORE PUSH1 0x0 PUSH1 0x4 DUP3 ADD MSTORE PUSH1 0x24 SWAP1 REVERT JUMPDEST PUSH1 0x0 DUP1 REVERT JUMPDEST PUSH4 0x4E487B71 PUSH1 0xE0 SHL PUSH1 0x0 MSTORE PUSH1 0x41 PUSH1 0x4 MSTORE PUSH1 0x24 PUSH1 0x0 REVERT INVALID PUSH1 0x80 PUSH1 0x40 DUP2 DUP2 MSTORE PUSH1 0x4 DUP1 CALLDATASIZE LT ISZERO PUSH2 0x15 JUMPI PUSH1 0x0 DUP1 REVERT JUMPDEST PUSH1 0x0 SWAP3 DUP4 CALLDATALOAD PUSH1 0xE0 SHR SWAP1 DUP2 PUSH4 0x6FD88ED EQ PUSH2 0xC84 JUMPI POP DUP1 PUSH4 0x10DF9A84 EQ PUSH2 0xC49 JUMPI DUP1 PUSH4 0x164158FF EQ PUSH2 0x755 JUMPI DUP1 PUSH4 0x1E944D54 EQ PUSH2 0xC49 JUMPI DUP1 PUSH4 0x21DD882B EQ PUSH2 0x4AD JUMPI DUP1 PUSH4 0x496D51AF EQ PUSH2 0xA35 JUMPI DUP1 PUSH4 0x4BB43E5C EQ PUSH2 0x3D9 JUMPI DUP1 PUSH4 0x4FA71B06 EQ PUSH2 0x83C JUMPI DUP1 PUSH4 0x65BB98B5 EQ PUSH2 0x813 JUMPI DUP1 PUSH4 0x715018A6 EQ PUSH2 0x7B6 JUMPI DUP1 PUSH4 0x8DA5CB5B EQ PUSH2 0x78E JUMPI DUP1 PUSH4 0x9860DA00 EQ PUSH2 0x755 JUMPI DUP1 PUSH4 0xA4144DE6 EQ PUSH2 0x526 JUMPI DUP1 PUSH4 0xA4493575 EQ PUSH2 0x4E8 JUMPI DUP1 PUSH4 0xA8428656 EQ PUSH2 0x4AD JUMPI DUP1 PUSH4 0xBE94E319 EQ PUSH2 0x42B JUMPI DUP1 PUSH4 0xCC7E5445 EQ PUSH2 0x3D9 JUMPI DUP1 PUSH4 0xDFEF9681 EQ PUSH2 0x17D JUMPI PUSH4 0xF2FDE38B EQ PUSH2 0xF4 JUMPI PUSH1 0x0 DUP1 REVERT JUMPDEST CALLVALUE PUSH2 0x179 JUMPI PUSH1 0x20 CALLDATASIZE PUSH1 0x3 NOT ADD SLT PUSH2 0x179 JUMPI PUSH2 0x10D PUSH2 0xCBF JUMP JUMPDEST SWAP1 PUSH2 0x116 PUSH2 0xEB8 JUMP JUMPDEST PUSH1 0x1 PUSH1 0x1 PUSH1 0xA0 SHL SUB SWAP2 DUP3 AND SWAP3 DUP4 ISZERO PUSH2 0x163 JUMPI POP POP DUP3 SLOAD PUSH1 0x1 PUSH1 0x1 PUSH1 0xA0 SHL SUB NOT DUP2 AND DUP4 OR DUP5 SSTORE AND PUSH32 0x8BE0079C531659141344CD1FD0A4F28419497F9722A3DAAFE3B4186F6B6457E0 DUP4 DUP1 LOG3 DUP1 RETURN JUMPDEST MLOAD PUSH4 0x1E4FBDF7 PUSH1 0xE0 SHL DUP2 MSTORE SWAP1 DUP2 ADD DUP5 SWAP1 MSTORE PUSH1 0x24 SWAP1 REVERT JUMPDEST DUP3 DUP1 REVERT JUMPDEST POP SWAP2 SWAP1 CALLVALUE PUSH2 0x3D5 JUMPI PUSH2 0x18E CALLDATASIZE PUSH2 0xE32 JUMP JUMPDEST PUSH1 0x6 SLOAD DUP4 MLOAD PUSH4 0x3AA690E7 PUSH1 0xE0 SHL DUP2 MSTORE PUSH1 0x1 PUSH1 0x1 PUSH1 0xA0 SHL SUB SWAP4 DUP5 AND DUP2 DUP9 ADD DUP2 SWAP1 MSTORE PUSH1 0x20 SWAP8 SWAP1 SWAP6 SWAP5 SWAP1 SWAP3 DUP9 SWAP1 DUP4 SWAP1 PUSH1 0x24 SWAP1 DUP3 SWAP1 DUP6 AND GAS STATICCALL SWAP2 DUP3 ISZERO PUSH2 0x3CB JUMPI SWAP1 PUSH2 0x1E0 SWAP3 SWAP2 DUP9 SWAP3 PUSH2 0x39C JUMPI JUMPDEST POP AND CALLER EQ PUSH2 0xF03 JUMP JUMPDEST DUP2 MLOAD ISZERO PUSH2 0x363 JUMPI DUP4 DUP6 MSTORE PUSH1 0x2 DUP7 MSTORE DUP3 DUP6 KECCAK256 SWAP1 DUP3 MLOAD SWAP1 PUSH8 0xFFFFFFFFFFFFFFFF DUP3 GT PUSH2 0x350 JUMPI POP PUSH2 0x20F DUP3 SLOAD PUSH2 0xD1A JUMP JUMPDEST PUSH1 0x1F DUP2 GT PUSH2 0x30D JUMPI JUMPDEST POP DUP7 PUSH1 0x1F DUP3 GT PUSH1 0x1 EQ PUSH2 0x293 JUMPI DUP7 SWAP8 PUSH2 0x282 SWAP4 DUP4 PUSH1 0x3 SWAP8 SWAP7 SWAP5 PUSH1 0x80 SWAP5 PUSH1 0x0 DUP1 MLOAD PUSH1 0x20 PUSH2 0xF61 DUP4 CODECOPY DUP2 MLOAD SWAP2 MSTORE SWAP11 SWAP12 SWAP2 PUSH2 0x288 JUMPI JUMPDEST POP DUP2 PUSH1 0x1 SHL SWAP2 PUSH1 0x0 NOT SWAP1 DUP11 SHL SHR NOT AND OR SWAP1 SSTORE JUMPDEST DUP5 MLOAD SWAP6 DUP6 DUP8 SWAP7 DUP8 MSTORE DUP7 ADD MSTORE PUSH3 0x555043 PUSH1 0xE8 SHL PUSH1 0x60 DUP7 ADD MSTORE DUP5 ADD MSTORE PUSH1 0x80 DUP4 ADD SWAP1 PUSH2 0xCDA JUMP JUMPDEST SUB SWAP1 LOG2 DUP1 RETURN JUMPDEST SWAP1 POP DUP6 ADD MLOAD CODESIZE PUSH2 0x24B JUMP JUMPDEST DUP3 DUP8 MSTORE DUP8 DUP8 KECCAK256 SWAP1 PUSH1 0x1F NOT DUP4 AND DUP9 JUMPDEST DUP2 DUP2 LT PUSH2 0x2F6 JUMPI POP SWAP4 PUSH1 0x1 DUP5 PUSH1 0x80 SWAP5 PUSH1 0x0 DUP1 MLOAD PUSH1 0x20 PUSH2 0xF61 DUP4 CODECOPY DUP2 MLOAD SWAP2 MSTORE SWAP11 SWAP12 SWAP13 SWAP5 PUSH1 0x3 SWAP11 SWAP10 SWAP8 PUSH2 0x282 SWAP10 LT PUSH2 0x2DE JUMPI JUMPDEST POP POP DUP2 SHL ADD SWAP1 SSTORE PUSH2 0x25E JUMP JUMPDEST DUP8 ADD MLOAD PUSH1 0x0 NOT DUP4 DUP13 SHL PUSH1 0xF8 AND SHR NOT AND SWAP1 SSTORE CODESIZE DUP1 PUSH2 0x2D2 JUMP JUMPDEST SWAP2 SWAP3 DUP11 PUSH1 0x1 DUP2 SWAP3 DUP7 DUP11 ADD MLOAD DUP2 SSTORE ADD SWAP5 ADD SWAP3 ADD PUSH2 0x2A1 JUMP JUMPDEST DUP3 DUP8 MSTORE DUP8 DUP8 KECCAK256 PUSH1 0x1F DUP4 ADD PUSH1 0x5 SHR DUP2 ADD SWAP2 DUP10 DUP5 LT PUSH2 0x346 JUMPI JUMPDEST PUSH1 0x1F ADD PUSH1 0x5 SHR ADD SWAP1 JUMPDEST DUP2 DUP2 LT PUSH2 0x33B JUMPI POP PUSH2 0x218 JUMP JUMPDEST DUP8 DUP2 SSTORE PUSH1 0x1 ADD PUSH2 0x32E JUMP JUMPDEST SWAP1 SWAP2 POP DUP2 SWAP1 PUSH2 0x325 JUMP JUMPDEST PUSH4 0x4E487B71 PUSH1 0xE0 SHL DUP8 MSTORE PUSH1 0x41 SWAP1 MSTORE PUSH1 0x24 DUP7 REVERT JUMPDEST DUP3 MLOAD PUSH3 0x461BCD PUSH1 0xE5 SHL DUP2 MSTORE SWAP1 DUP2 ADD DUP7 SWAP1 MSTORE PUSH1 0x13 PUSH1 0x24 DUP3 ADD MSTORE PUSH19 0x5550432063616E6E6F7420626520656D707479 PUSH1 0x68 SHL PUSH1 0x44 DUP3 ADD MSTORE PUSH1 0x64 SWAP1 REVERT JUMPDEST PUSH2 0x3BD SWAP2 SWAP3 POP DUP10 RETURNDATASIZE DUP12 GT PUSH2 0x3C4 JUMPI JUMPDEST PUSH2 0x3B5 DUP2 DUP4 PUSH2 0xD54 JUMP JUMPDEST DUP2 ADD SWAP1 PUSH2 0xEE4 JUMP JUMPDEST SWAP1 CODESIZE PUSH2 0x1D7 JUMP JUMPDEST POP RETURNDATASIZE PUSH2 0x3AB JUMP JUMPDEST DUP6 MLOAD RETURNDATASIZE DUP10 DUP3 RETURNDATACOPY RETURNDATASIZE SWAP1 REVERT JUMPDEST POP DUP1 REVERT JUMPDEST POP POP CALLVALUE PUSH2 0x3D5 JUMPI PUSH1 0x20 CALLDATASIZE PUSH1 0x3 NOT ADD SLT PUSH2 0x3D5 JUMPI PUSH2 0x427 SWAP2 PUSH2 0x414 SWAP1 DUP3 SWAP1 PUSH1 0x1 PUSH1 0x1 PUSH1 0xA0 SHL SUB PUSH2 0x406 PUSH2 0xCBF JUMP JUMPDEST AND DUP2 MSTORE PUSH1 0x3 PUSH1 0x20 MSTORE KECCAK256 PUSH2 0xD8C JUMP JUMPDEST SWAP1 MLOAD SWAP2 DUP3 SWAP2 PUSH1 0x20 DUP4 MSTORE PUSH1 0x20 DUP4 ADD SWAP1 PUSH2 0xCDA JUMP JUMPDEST SUB SWAP1 RETURN JUMPDEST POP POP CALLVALUE PUSH2 0x3D5 JUMPI DUP1 PUSH1 0x3 NOT CALLDATASIZE ADD SLT PUSH2 0x3D5 JUMPI PUSH2 0x445 PUSH2 0xCBF JUMP JUMPDEST PUSH1 0x24 CALLDATALOAD SWAP1 DUP2 ISZERO ISZERO DUP1 SWAP3 SUB PUSH2 0x4A9 JUMPI PUSH32 0xB54DF1287F3D7012D0C033203342DE84104F09A34D968F171BFF51825D6CF544 SWAP2 PUSH1 0x20 SWAP2 PUSH2 0x480 PUSH2 0xEB8 JUMP JUMPDEST PUSH1 0x1 PUSH1 0x1 PUSH1 0xA0 SHL SUB AND DUP1 DUP7 MSTORE PUSH1 0x5 DUP4 MSTORE DUP5 DUP7 KECCAK256 DUP1 SLOAD PUSH1 0xFF NOT AND PUSH1 0xFF DUP5 AND OR SWAP1 SSTORE SWAP4 MLOAD SWAP1 DUP2 MSTORE LOG2 DUP1 RETURN JUMPDEST DUP4 DUP1 REVERT JUMPDEST POP POP CALLVALUE PUSH2 0x3D5 JUMPI PUSH1 0x20 CALLDATASIZE PUSH1 0x3 NOT ADD SLT PUSH2 0x3D5 JUMPI PUSH2 0x427 SWAP2 PUSH2 0x414 SWAP1 DUP3 SWAP1 PUSH1 0x1 PUSH1 0x1 PUSH1 0xA0 SHL SUB PUSH2 0x4DA PUSH2 0xCBF JUMP JUMPDEST AND DUP2 MSTORE PUSH1 0x1 PUSH1 0x20 MSTORE KECCAK256 PUSH2 0xD8C JUMP JUMPDEST POP POP CALLVALUE PUSH2 0x3D5 JUMPI PUSH1 0x20 CALLDATASIZE PUSH1 0x3 NOT ADD SLT PUSH2 0x3D5 JUMPI PUSH1 0x20 SWAP2 PUSH1 0xFF SWAP1 DUP3 SWAP1 PUSH1 0x1 PUSH1 0x1 PUSH1 0xA0 SHL SUB PUSH2 0x513 PUSH2 0xCBF JUMP JUMPDEST AND DUP2 MSTORE PUSH1 0x5 DUP6 MSTORE KECCAK256 SLOAD AND SWAP1 MLOAD SWAP1 ISZERO ISZERO DUP2 MSTORE RETURN JUMPDEST POP CALLVALUE PUSH2 0x179 JUMPI PUSH2 0x535 CALLDATASIZE PUSH2 0xE32 JUMP JUMPDEST PUSH1 0x6 SLOAD DUP5 MLOAD PUSH4 0x3AA690E7 PUSH1 0xE0 SHL DUP2 MSTORE PUSH1 0x1 PUSH1 0x1 PUSH1 0xA0 SHL SUB SWAP4 DUP5 AND DUP6 DUP3 ADD DUP2 SWAP1 MSTORE SWAP6 SWAP4 PUSH1 0x20 SWAP3 DUP4 SWAP1 DUP4 SWAP1 PUSH1 0x24 SWAP1 DUP3 SWAP1 DUP6 AND GAS STATICCALL SWAP2 DUP3 ISZERO PUSH2 0x74B JUMPI SWAP1 PUSH2 0x583 SWAP3 SWAP2 DUP10 SWAP3 PUSH2 0x733 JUMPI POP AND CALLER EQ PUSH2 0xF03 JUMP JUMPDEST DUP2 MLOAD ISZERO PUSH2 0x6FA JUMPI DUP5 DUP7 MSTORE PUSH1 0x3 DUP2 MSTORE DUP3 DUP7 KECCAK256 DUP3 MLOAD PUSH8 0xFFFFFFFFFFFFFFFF DUP2 GT PUSH2 0x6E7 JUMPI PUSH2 0x5AF DUP3 SLOAD PUSH2 0xD1A JUMP JUMPDEST PUSH1 0x1F DUP2 GT PUSH2 0x6A4 JUMPI JUMPDEST POP DUP3 PUSH1 0x1F DUP3 GT PUSH1 0x1 EQ PUSH2 0x62C JUMPI SWAP3 PUSH1 0x0 DUP1 MLOAD PUSH1 0x20 PUSH2 0xF61 DUP4 CODECOPY DUP2 MLOAD SWAP2 MSTORE SWAP7 SWAP6 SWAP5 SWAP3 DUP3 PUSH1 0x80 SWAP4 PUSH2 0x282 SWAP7 DUP13 SWAP2 PUSH2 0x621 JUMPI JUMPDEST POP DUP2 PUSH1 0x1 SHL SWAP2 PUSH1 0x0 NOT SWAP1 PUSH1 0x3 SHL SHR NOT AND OR SWAP1 SSTORE JUMPDEST DUP5 MLOAD SWAP6 DUP6 DUP8 SWAP7 DUP8 MSTORE DUP7 ADD MSTORE PUSH4 0x49535743 PUSH1 0xE0 SHL PUSH1 0x60 DUP7 ADD MSTORE DUP5 ADD MSTORE PUSH1 0x80 DUP4 ADD SWAP1 PUSH2 0xCDA JUMP JUMPDEST SWAP1 POP DUP6 ADD MLOAD CODESIZE PUSH2 0x5E8 JUMP JUMPDEST DUP3 DUP10 MSTORE DUP4 DUP10 KECCAK256 SWAP1 PUSH1 0x1F NOT DUP4 AND DUP11 JUMPDEST DUP2 DUP2 LT PUSH2 0x68D JUMPI POP DUP4 PUSH2 0x282 SWAP7 SWAP4 PUSH1 0x0 DUP1 MLOAD PUSH1 0x20 PUSH2 0xF61 DUP4 CODECOPY DUP2 MLOAD SWAP2 MSTORE SWAP11 SWAP10 SWAP9 SWAP7 SWAP4 PUSH1 0x80 SWAP7 PUSH1 0x1 SWAP5 LT PUSH2 0x674 JUMPI JUMPDEST POP POP DUP2 SHL ADD SWAP1 SSTORE PUSH2 0x5FC JUMP JUMPDEST DUP8 ADD MLOAD PUSH1 0x0 NOT PUSH1 0xF8 DUP5 PUSH1 0x3 SHL AND SHR NOT AND SWAP1 SSTORE CODESIZE DUP1 PUSH2 0x668 JUMP JUMPDEST SWAP2 SWAP3 DUP7 PUSH1 0x1 DUP2 SWAP3 DUP7 DUP12 ADD MLOAD DUP2 SSTORE ADD SWAP5 ADD SWAP3 ADD PUSH2 0x63A JUMP JUMPDEST DUP3 DUP10 MSTORE DUP4 DUP10 KECCAK256 PUSH1 0x1F DUP4 ADD PUSH1 0x5 SHR DUP2 ADD SWAP2 DUP6 DUP5 LT PUSH2 0x6DD JUMPI JUMPDEST PUSH1 0x1F ADD PUSH1 0x5 SHR ADD SWAP1 JUMPDEST DUP2 DUP2 LT PUSH2 0x6D2 JUMPI POP PUSH2 0x5B8 JUMP JUMPDEST DUP10 DUP2 SSTORE PUSH1 0x1 ADD PUSH2 0x6C5 JUMP JUMPDEST SWAP1 SWAP2 POP DUP2 SWAP1 PUSH2 0x6BC JUMP JUMPDEST PUSH4 0x4E487B71 PUSH1 0xE0 SHL DUP9 MSTORE PUSH1 0x41 DUP7 MSTORE PUSH1 0x24 DUP9 REVERT JUMPDEST DUP4 PUSH1 0x64 SWAP2 DUP5 MLOAD SWAP2 PUSH3 0x461BCD PUSH1 0xE5 SHL DUP4 MSTORE DUP3 ADD MSTORE PUSH1 0x14 PUSH1 0x24 DUP3 ADD MSTORE PUSH20 0x495357432063616E6E6F7420626520656D707479 PUSH1 0x60 SHL PUSH1 0x44 DUP3 ADD MSTORE REVERT JUMPDEST PUSH2 0x3BD SWAP2 SWAP3 POP DUP5 RETURNDATASIZE DUP7 GT PUSH2 0x3C4 JUMPI PUSH2 0x3B5 DUP2 DUP4 PUSH2 0xD54 JUMP JUMPDEST DUP6 MLOAD RETURNDATASIZE DUP11 DUP3 RETURNDATACOPY RETURNDATASIZE SWAP1 REVERT JUMPDEST POP CALLVALUE PUSH2 0x179 JUMPI PUSH1 0x20 CALLDATASIZE PUSH1 0x3 NOT ADD SLT PUSH2 0x179 JUMPI PUSH2 0x427 SWAP3 PUSH2 0x414 SWAP2 DUP4 SWAP2 SWAP1 PUSH1 0x1 PUSH1 0x1 PUSH1 0xA0 SHL SUB PUSH2 0x782 PUSH2 0xCBF JUMP JUMPDEST AND DUP3 MSTORE PUSH1 0x20 MSTORE KECCAK256 PUSH2 0xD8C JUMP JUMPDEST POP POP CALLVALUE PUSH2 0x3D5 JUMPI DUP2 PUSH1 0x3 NOT CALLDATASIZE ADD SLT PUSH2 0x3D5 JUMPI SWAP1 SLOAD SWAP1 MLOAD PUSH1 0x1 PUSH1 0x1 PUSH1 0xA0 SHL SUB SWAP1 SWAP2 AND DUP2 MSTORE PUSH1 0x20 SWAP1 RETURN JUMPDEST DUP4 CALLVALUE PUSH2 0x810 JUMPI DUP1 PUSH1 0x3 NOT CALLDATASIZE ADD SLT PUSH2 0x810 JUMPI PUSH2 0x7CF PUSH2 0xEB8 JUMP JUMPDEST DUP1 SLOAD PUSH1 0x1 PUSH1 0x1 PUSH1 0xA0 SHL SUB NOT DUP2 AND DUP3 SSTORE DUP2 SWAP1 PUSH1 0x1 PUSH1 0x1 PUSH1 0xA0 SHL SUB AND PUSH32 0x8BE0079C531659141344CD1FD0A4F28419497F9722A3DAAFE3B4186F6B6457E0 DUP3 DUP1 LOG3 DUP1 RETURN JUMPDEST DUP1 REVERT JUMPDEST POP POP CALLVALUE PUSH2 0x3D5 JUMPI DUP2 PUSH1 0x3 NOT CALLDATASIZE ADD SLT PUSH2 0x3D5 JUMPI PUSH1 0x6 SLOAD SWAP1 MLOAD PUSH1 0x1 PUSH1 0x1 PUSH1 0xA0 SHL SUB SWAP1 SWAP2 AND DUP2 MSTORE PUSH1 0x20 SWAP1 RETURN JUMPDEST POP CALLVALUE PUSH2 0x179 JUMPI PUSH2 0x84B CALLDATASIZE PUSH2 0xE32 JUMP JUMPDEST PUSH1 0x6 SLOAD DUP5 MLOAD PUSH4 0x3AA690E7 PUSH1 0xE0 SHL DUP2 MSTORE PUSH1 0x1 PUSH1 0x1 PUSH1 0xA0 SHL SUB SWAP4 DUP5 AND DUP6 DUP3 ADD DUP2 SWAP1 MSTORE SWAP6 SWAP4 PUSH1 0x20 SWAP3 DUP4 SWAP1 DUP4 SWAP1 PUSH1 0x24 SWAP1 DUP3 SWAP1 DUP6 AND GAS STATICCALL SWAP2 DUP3 ISZERO PUSH2 0x74B JUMPI SWAP1 PUSH2 0x899 SWAP3 SWAP2 DUP10 SWAP3 PUSH2 0x733 JUMPI POP AND CALLER EQ PUSH2 0xF03 JUMP JUMPDEST DUP2 MLOAD ISZERO PUSH2 0x9FC JUMPI DUP5 DUP7 MSTORE DUP4 DUP2 MSTORE DUP3 DUP7 KECCAK256 DUP3 MLOAD PUSH8 0xFFFFFFFFFFFFFFFF DUP2 GT PUSH2 0x6E7 JUMPI PUSH2 0x8C4 DUP3 SLOAD PUSH2 0xD1A JUMP JUMPDEST PUSH1 0x1F DUP2 GT PUSH2 0x9B9 JUMPI JUMPDEST POP DUP3 PUSH1 0x1F DUP3 GT PUSH1 0x1 EQ PUSH2 0x941 JUMPI SWAP3 PUSH1 0x0 DUP1 MLOAD PUSH1 0x20 PUSH2 0xF61 DUP4 CODECOPY DUP2 MLOAD SWAP2 MSTORE SWAP7 SWAP6 SWAP5 SWAP3 DUP3 PUSH1 0x80 SWAP4 PUSH2 0x282 SWAP7 DUP13 SWAP2 PUSH2 0x936 JUMPI JUMPDEST POP DUP2 PUSH1 0x1 SHL SWAP2 PUSH1 0x0 NOT SWAP1 PUSH1 0x3 SHL SHR NOT AND OR SWAP1 SSTORE JUMPDEST DUP5 MLOAD SWAP6 DUP6 DUP8 SWAP7 DUP8 MSTORE DUP7 ADD MSTORE PUSH4 0x49534343 PUSH1 0xE0 SHL PUSH1 0x60 DUP7 ADD MSTORE DUP5 ADD MSTORE PUSH1 0x80 DUP4 ADD SWAP1 PUSH2 0xCDA JUMP JUMPDEST SWAP1 POP DUP6 ADD MLOAD CODESIZE PUSH2 0x8FD JUMP JUMPDEST DUP3 DUP10 MSTORE DUP4 DUP10 KECCAK256 SWAP1 PUSH1 0x1F NOT DUP4 AND DUP11 JUMPDEST DUP2 DUP2 LT PUSH2 0x9A2 JUMPI POP DUP4 PUSH2 0x282 SWAP7 SWAP4 PUSH1 0x0 DUP1 MLOAD PUSH1 0x20 PUSH2 0xF61 DUP4 CODECOPY DUP2 MLOAD SWAP2 MSTORE SWAP11 SWAP10 SWAP9 SWAP7 SWAP4 PUSH1 0x80 SWAP7 PUSH1 0x1 SWAP5 LT PUSH2 0x989 JUMPI JUMPDEST POP POP DUP2 SHL ADD SWAP1 SSTORE PUSH2 0x911 JUMP JUMPDEST DUP8 ADD MLOAD PUSH1 0x0 NOT PUSH1 0xF8 DUP5 PUSH1 0x3 SHL AND SHR NOT AND SWAP1 SSTORE CODESIZE DUP1 PUSH2 0x97D JUMP JUMPDEST SWAP2 SWAP3 DUP7 PUSH1 0x1 DUP2 SWAP3 DUP7 DUP12 ADD MLOAD DUP2 SSTORE ADD SWAP5 ADD SWAP3 ADD PUSH2 0x94F JUMP JUMPDEST DUP3 DUP10 MSTORE DUP4 DUP10 KECCAK256 PUSH1 0x1F DUP4 ADD PUSH1 0x5 SHR DUP2 ADD SWAP2 DUP6 DUP5 LT PUSH2 0x9F2 JUMPI JUMPDEST PUSH1 0x1F ADD PUSH1 0x5 SHR ADD SWAP1 JUMPDEST DUP2 DUP2 LT PUSH2 0x9E7 JUMPI POP PUSH2 0x8CD JUMP JUMPDEST DUP10 DUP2 SSTORE PUSH1 0x1 ADD PUSH2 0x9DA JUMP JUMPDEST SWAP1 SWAP2 POP DUP2 SWAP1 PUSH2 0x9D1 JUMP JUMPDEST DUP4 PUSH1 0x64 SWAP2 DUP5 MLOAD SWAP2 PUSH3 0x461BCD PUSH1 0xE5 SHL DUP4 MSTORE DUP3 ADD MSTORE PUSH1 0x14 PUSH1 0x24 DUP3 ADD MSTORE PUSH20 0x495343432063616E6E6F7420626520656D707479 PUSH1 0x60 SHL PUSH1 0x44 DUP3 ADD MSTORE REVERT JUMPDEST POP CALLVALUE PUSH2 0x179 JUMPI PUSH2 0xA44 CALLDATASIZE PUSH2 0xE32 JUMP JUMPDEST PUSH1 0x6 SLOAD DUP5 MLOAD PUSH4 0x3AA690E7 PUSH1 0xE0 SHL DUP2 MSTORE PUSH1 0x1 PUSH1 0x1 PUSH1 0xA0 SHL SUB SWAP4 DUP5 AND DUP6 DUP3 ADD DUP2 SWAP1 MSTORE SWAP6 SWAP4 PUSH1 0x20 SWAP3 DUP4 SWAP1 DUP4 SWAP1 PUSH1 0x24 SWAP1 DUP3 SWAP1 DUP6 AND GAS STATICCALL SWAP2 DUP3 ISZERO PUSH2 0x74B JUMPI SWAP1 PUSH2 0xA92 SWAP3 SWAP2 DUP10 SWAP3 PUSH2 0x733 JUMPI POP AND CALLER EQ PUSH2 0xF03 JUMP JUMPDEST DUP2 MLOAD ISZERO PUSH2 0xC10 JUMPI DUP5 DUP7 MSTORE PUSH1 0x1 DUP1 DUP3 MSTORE DUP4 DUP8 KECCAK256 SWAP1 DUP4 MLOAD SWAP1 PUSH8 0xFFFFFFFFFFFFFFFF DUP3 GT PUSH2 0xBFD JUMPI PUSH2 0xAC1 DUP4 SLOAD PUSH2 0xD1A JUMP JUMPDEST PUSH1 0x1F DUP2 GT PUSH2 0xBB7 JUMPI JUMPDEST POP DUP4 DUP10 PUSH1 0x1F DUP5 GT PUSH1 0x1 EQ PUSH2 0xB3E JUMPI SWAP3 DUP1 DUP1 PUSH2 0x282 SWAP8 SWAP5 PUSH1 0x0 DUP1 MLOAD PUSH1 0x20 PUSH2 0xF61 DUP4 CODECOPY DUP2 MLOAD SWAP2 MSTORE SWAP12 SWAP11 SWAP10 SWAP8 SWAP5 PUSH1 0x80 SWAP8 SWAP4 PUSH2 0xB33 JUMPI JUMPDEST POP SHL SWAP2 PUSH1 0x0 NOT SWAP1 PUSH1 0x3 SHL SHR NOT AND OR SWAP1 SSTORE JUMPDEST DUP5 MLOAD SWAP6 DUP6 DUP8 SWAP7 DUP8 MSTORE DUP7 ADD MSTORE PUSH4 0x49535243 PUSH1 0xE0 SHL PUSH1 0x60 DUP7 ADD MSTORE DUP5 ADD MSTORE PUSH1 0x80 DUP4 ADD SWAP1 PUSH2 0xCDA JUMP JUMPDEST DUP9 ADD MLOAD SWAP3 POP CODESIZE PUSH2 0xAFD JUMP JUMPDEST POP DUP4 DUP11 MSTORE DUP5 DUP11 KECCAK256 SWAP2 SWAP3 SWAP2 SWAP1 PUSH1 0x1F NOT DUP4 AND DUP12 JUMPDEST DUP2 DUP2 LT PUSH2 0xBA2 JUMPI POP SWAP3 PUSH1 0x0 DUP1 MLOAD PUSH1 0x20 PUSH2 0xF61 DUP4 CODECOPY DUP2 MLOAD SWAP2 MSTORE SWAP10 SWAP9 SWAP8 SWAP6 SWAP3 PUSH1 0x80 SWAP6 SWAP3 DUP3 PUSH2 0x282 SWAP10 SWAP7 LT PUSH2 0xB89 JUMPI JUMPDEST POP POP DUP2 SHL ADD SWAP1 SSTORE PUSH2 0xB0E JUMP JUMPDEST DUP8 ADD MLOAD PUSH1 0x0 NOT PUSH1 0xF8 DUP5 PUSH1 0x3 SHL AND SHR NOT AND SWAP1 SSTORE CODESIZE DUP1 PUSH2 0xB7D JUMP JUMPDEST DUP9 DUP4 ADD MLOAD DUP5 SSTORE SWAP3 DUP6 ADD SWAP3 SWAP2 DUP8 ADD SWAP2 DUP8 ADD PUSH2 0xB50 JUMP JUMPDEST DUP4 DUP11 MSTORE DUP5 DUP11 KECCAK256 PUSH1 0x1F DUP5 ADD PUSH1 0x5 SHR DUP2 ADD SWAP2 DUP7 DUP6 LT PUSH2 0xBF3 JUMPI JUMPDEST PUSH1 0x1F ADD PUSH1 0x5 SHR ADD SWAP1 DUP3 SWAP1 JUMPDEST DUP3 DUP2 LT PUSH2 0xBE8 JUMPI POP POP PUSH2 0xACA JUMP JUMPDEST DUP12 DUP2 SSTORE ADD DUP3 SWAP1 PUSH2 0xBDA JUMP JUMPDEST SWAP1 SWAP2 POP DUP2 SWAP1 PUSH2 0xBCF JUMP JUMPDEST PUSH4 0x4E487B71 PUSH1 0xE0 SHL DUP10 MSTORE PUSH1 0x41 DUP8 MSTORE PUSH1 0x24 DUP10 REVERT JUMPDEST DUP4 PUSH1 0x64 SWAP2 DUP5 MLOAD SWAP2 PUSH3 0x461BCD PUSH1 0xE5 SHL DUP4 MSTORE DUP3 ADD MSTORE PUSH1 0x14 PUSH1 0x24 DUP3 ADD MSTORE PUSH20 0x495352432063616E6E6F7420626520656D707479 PUSH1 0x60 SHL PUSH1 0x44 DUP3 ADD MSTORE REVERT JUMPDEST POP POP CALLVALUE PUSH2 0x3D5 JUMPI PUSH1 0x20 CALLDATASIZE PUSH1 0x3 NOT ADD SLT PUSH2 0x3D5 JUMPI PUSH2 0x427 SWAP2 PUSH2 0x414 SWAP1 DUP3 SWAP1 PUSH1 0x1 PUSH1 0x1 PUSH1 0xA0 SHL SUB PUSH2 0xC76 PUSH2 0xCBF JUMP JUMPDEST AND DUP2 MSTORE PUSH1 0x2 PUSH1 0x20 MSTORE KECCAK256 PUSH2 0xD8C JUMP JUMPDEST DUP5 SWAP1 DUP5 CALLVALUE PUSH2 0x179 JUMPI PUSH1 0x20 CALLDATASIZE PUSH1 0x3 NOT ADD SLT PUSH2 0x179 JUMPI PUSH1 0x20 SWAP3 PUSH1 0xFF SWAP2 SWAP1 PUSH1 0x1 PUSH1 0x1 PUSH1 0xA0 SHL SUB PUSH2 0xCAF PUSH2 0xCBF JUMP JUMPDEST AND DUP2 MSTORE PUSH1 0x5 DUP6 MSTORE KECCAK256 SLOAD AND ISZERO ISZERO DUP2 MSTORE RETURN JUMPDEST PUSH1 0x4 CALLDATALOAD SWAP1 PUSH1 0x1 PUSH1 0x1 PUSH1 0xA0 SHL SUB DUP3 AND DUP3 SUB PUSH2 0xCD5 JUMPI JUMP JUMPDEST PUSH1 0x0 DUP1 REVERT JUMPDEST SWAP2 SWAP1 DUP3 MLOAD SWAP3 DUP4 DUP3 MSTORE PUSH1 0x0 JUMPDEST DUP5 DUP2 LT PUSH2 0xD06 JUMPI POP POP DUP3 PUSH1 0x0 PUSH1 0x20 DUP1 SWAP5 SWAP6 DUP5 ADD ADD MSTORE PUSH1 0x1F DUP1 NOT SWAP2 ADD AND ADD ADD SWAP1 JUMP JUMPDEST PUSH1 0x20 DUP2 DUP4 ADD DUP2 ADD MLOAD DUP5 DUP4 ADD DUP3 ADD MSTORE ADD PUSH2 0xCE5 JUMP JUMPDEST SWAP1 PUSH1 0x1 DUP3 DUP2 SHR SWAP3 AND DUP1 ISZERO PUSH2 0xD4A JUMPI JUMPDEST PUSH1 0x20 DUP4 LT EQ PUSH2 0xD34 JUMPI JUMP JUMPDEST PUSH4 0x4E487B71 PUSH1 0xE0 SHL PUSH1 0x0 MSTORE PUSH1 0x22 PUSH1 0x4 MSTORE PUSH1 0x24 PUSH1 0x0 REVERT JUMPDEST SWAP2 PUSH1 0x7F AND SWAP2 PUSH2 0xD29 JUMP JUMPDEST SWAP1 PUSH1 0x1F DUP1 NOT SWAP2 ADD AND DUP2 ADD SWAP1 DUP2 LT PUSH8 0xFFFFFFFFFFFFFFFF DUP3 GT OR PUSH2 0xD76 JUMPI PUSH1 0x40 MSTORE JUMP JUMPDEST PUSH4 0x4E487B71 PUSH1 0xE0 SHL PUSH1 0x0 MSTORE PUSH1 0x41 PUSH1 0x4 MSTORE PUSH1 0x24 PUSH1 0x0 REVERT JUMPDEST SWAP1 PUSH1 0x40 MLOAD SWAP2 DUP3 PUSH1 0x0 DUP3 SLOAD SWAP3 PUSH2 0xDA0 DUP5 PUSH2 0xD1A JUMP JUMPDEST SWAP1 DUP2 DUP5 MSTORE PUSH1 0x1 SWAP5 DUP6 DUP2 AND SWAP1 DUP2 PUSH1 0x0 EQ PUSH2 0xE0F JUMPI POP PUSH1 0x1 EQ PUSH2 0xDCC JUMPI JUMPDEST POP POP PUSH2 0xDCA SWAP3 POP SUB DUP4 PUSH2 0xD54 JUMP JUMPDEST JUMP JUMPDEST SWAP1 SWAP4 SWAP2 POP PUSH1 0x0 MSTORE PUSH1 0x20 SWAP1 DUP2 PUSH1 0x0 KECCAK256 SWAP4 PUSH1 0x0 SWAP2 JUMPDEST DUP2 DUP4 LT PUSH2 0xDF7 JUMPI POP POP PUSH2 0xDCA SWAP4 POP DUP3 ADD ADD CODESIZE DUP1 PUSH2 0xDBC JUMP JUMPDEST DUP6 SLOAD DUP9 DUP5 ADD DUP6 ADD MSTORE SWAP5 DUP6 ADD SWAP5 DUP8 SWAP5 POP SWAP2 DUP4 ADD SWAP2 PUSH2 0xDDF JUMP JUMPDEST SWAP2 POP POP PUSH2 0xDCA SWAP5 POP PUSH1 0x20 SWAP3 POP PUSH1 0xFF NOT AND DUP3 DUP5 ADD MSTORE ISZERO ISZERO PUSH1 0x5 SHL DUP3 ADD ADD CODESIZE DUP1 PUSH2 0xDBC JUMP JUMPDEST SWAP1 PUSH1 0x40 PUSH1 0x3 NOT DUP4 ADD SLT PUSH2 0xCD5 JUMPI PUSH1 0x4 CALLDATALOAD PUSH1 0x1 PUSH1 0x1 PUSH1 0xA0 SHL SUB DUP2 AND DUP2 SUB PUSH2 0xCD5 JUMPI SWAP2 PUSH8 0xFFFFFFFFFFFFFFFF PUSH1 0x24 CALLDATALOAD DUP2 DUP2 GT PUSH2 0xCD5 JUMPI DUP3 PUSH1 0x23 DUP3 ADD SLT ISZERO PUSH2 0xCD5 JUMPI DUP1 PUSH1 0x4 ADD CALLDATALOAD SWAP2 DUP3 GT PUSH2 0xD76 JUMPI PUSH1 0x40 MLOAD SWAP3 PUSH2 0xE95 PUSH1 0x1F DUP5 ADD PUSH1 0x1F NOT AND PUSH1 0x20 ADD DUP6 PUSH2 0xD54 JUMP JUMPDEST DUP3 DUP5 MSTORE PUSH1 0x24 DUP4 DUP4 ADD ADD GT PUSH2 0xCD5 JUMPI DUP2 PUSH1 0x0 SWAP3 PUSH1 0x24 PUSH1 0x20 SWAP4 ADD DUP4 DUP7 ADD CALLDATACOPY DUP4 ADD ADD MSTORE SWAP1 JUMP JUMPDEST PUSH1 0x0 SLOAD PUSH1 0x1 PUSH1 0x1 PUSH1 0xA0 SHL SUB AND CALLER SUB PUSH2 0xECC JUMPI JUMP JUMPDEST PUSH1 0x40 MLOAD PUSH4 0x118CDAA7 PUSH1 0xE0 SHL DUP2 MSTORE CALLER PUSH1 0x4 DUP3 ADD MSTORE PUSH1 0x24 SWAP1 REVERT JUMPDEST SWAP1 DUP2 PUSH1 0x20 SWAP2 SUB SLT PUSH2 0xCD5 JUMPI MLOAD PUSH1 0x1 PUSH1 0x1 PUSH1 0xA0 SHL SUB DUP2 AND DUP2 SUB PUSH2 0xCD5 JUMPI SWAP1 JUMP JUMPDEST ISZERO PUSH2 0xF0A JUMPI JUMP JUMPDEST PUSH1 0x40 MLOAD PUSH3 0x461BCD PUSH1 0xE5 SHL DUP2 MSTORE PUSH1 0x20 PUSH1 0x4 DUP3 ADD MSTORE PUSH1 0x28 PUSH1 0x24 DUP3 ADD MSTORE PUSH32 0x4F6E6C79206469737472696275746F722063616E20706572666F726D20746869 PUSH1 0x44 DUP3 ADD MSTORE PUSH8 0x399030B1BA34B7B7 PUSH1 0xC1 SHL PUSH1 0x64 DUP3 ADD MSTORE PUSH1 0x84 SWAP1 REVERT INVALID 0xA7 0x27 PUSH31 0xA7D4DBB8F0CC254F34CF3E4AC197629EE7789DFA02F6B28A887228909BA264 PUSH10 0x70667358221220EB503C PUSH17 0xEB7BE268FC235F7568E5F40BB48D50AB4F 0xD8 0xA8 DUP7 LOG2 EXTCODEHASH MOD 0x2D 0xC8 CODESIZE 0xEE 0x2B PUSH5 0x736F6C6343 STOP ADDMOD EQ STOP CALLER "},"methodIdentifiers":{"addISCC(address,string)":"4fa71b06","addISRC(address,string)":"496d51af","addISWC(address,string)":"a4144de6","addUPC(address,string)":"dfef9681","getIsccCode(address)":"164158ff","getIsrcCode(address)":"a8428656","getIswcCode(address)":"cc7e5445","getUpcCode(address)":"10df9a84","isAuthentic(address)":"a4493575","isccRegistry(address)":"9860da00","isrcRegistry(address)":"21dd882b","iswcRegistry(address)":"4bb43e5c","owner()":"8da5cb5b","releaseModule()":"65bb98b5","renounceOwnership()":"715018a6","setWrappedSongAuthenticity(address,bool)":"be94e319","transferOwnership(address)":"f2fde38b","upcRegistry(address)":"1e944d54","wrappedSongAuthenticity(address)":"06fd88ed"}},"storageLayout":{"storage":[{"astId":8,"contract":"contracts/protocol/Modules/IdentityModule.sol:IdentityModule","label":"_owner","offset":0,"slot":"0","type":"t_address"},{"astId":1208,"contract":"contracts/protocol/Modules/IdentityModule.sol:IdentityModule","label":"isrcRegistry","offset":0,"slot":"1","type":"t_mapping(t_address,t_string_storage)"},{"astId":1212,"contract":"contracts/protocol/Modules/IdentityModule.sol:IdentityModule","label":"upcRegistry","offset":0,"slot":"2","type":"t_mapping(t_address,t_string_storage)"},{"astId":1216,"contract":"contracts/protocol/Modules/IdentityModule.sol:IdentityModule","label":"iswcRegistry","offset":0,"slot":"3","type":"t_mapping(t_address,t_string_storage)"},{"astId":1220,"contract":"contracts/protocol/Modules/IdentityModule.sol:IdentityModule","label":"isccRegistry","offset":0,"slot":"4","type":"t_mapping(t_address,t_string_storage)"},{"astId":1224,"contract":"contracts/protocol/Modules/IdentityModule.sol:IdentityModule","label":"wrappedSongAuthenticity","offset":0,"slot":"5","type":"t_mapping(t_address,t_bool)"},{"astId":1227,"contract":"contracts/protocol/Modules/IdentityModule.sol:IdentityModule","label":"releaseModule","offset":0,"slot":"6","type":"t_contract(ReleaseModule)2358"}],"types":{"t_address":{"encoding":"inplace","label":"address","numberOfBytes":"20"},"t_bool":{"encoding":"inplace","label":"bool","numberOfBytes":"1"},"t_contract(ReleaseModule)2358":{"encoding":"inplace","label":"contract ReleaseModule","numberOfBytes":"20"},"t_mapping(t_address,t_bool)":{"encoding":"mapping","key":"t_address","label":"mapping(address => bool)","numberOfBytes":"32","value":"t_bool"},"t_mapping(t_address,t_string_storage)":{"encoding":"mapping","key":"t_address","label":"mapping(address => string)","numberOfBytes":"32","value":"t_string_storage"},"t_string_storage":{"encoding":"bytes","label":"string","numberOfBytes":"32"}}}}}}