{"contracts/protocol/NonUpgradable/DistributorWalletFactory.sol":{"DistributorWalletFactory":{"abi":[{"inputs":[{"internalType":"address","name":"initialOwner","type":"address"}],"stateMutability":"nonpayable","type":"constructor"},{"inputs":[{"internalType":"address","name":"owner","type":"address"}],"name":"OwnableInvalidOwner","type":"error"},{"inputs":[{"internalType":"address","name":"account","type":"address"}],"name":"OwnableUnauthorizedAccount","type":"error"},{"anonymous":false,"inputs":[{"indexed":true,"internalType":"address","name":"distributor","type":"address"},{"indexed":false,"internalType":"address","name":"wallet","type":"address"},{"indexed":false,"internalType":"address","name":"stablecoin","type":"address"}],"name":"DistributorWalletCreated","type":"event"},{"anonymous":false,"inputs":[{"indexed":true,"internalType":"address","name":"previousOwner","type":"address"},{"indexed":true,"internalType":"address","name":"newOwner","type":"address"}],"name":"OwnershipTransferred","type":"event"},{"anonymous":false,"inputs":[{"indexed":true,"internalType":"address","name":"wrappedSong","type":"address"},{"indexed":true,"internalType":"address","name":"distributor","type":"address"}],"name":"WrappedSongReleased","type":"event"},{"inputs":[{"internalType":"address","name":"wallet","type":"address"}],"name":"checkIsDistributorWallet","outputs":[{"internalType":"bool","name":"","type":"bool"}],"stateMutability":"view","type":"function"},{"inputs":[{"internalType":"address","name":"_stablecoin","type":"address"},{"internalType":"address","name":"_protocolModule","type":"address"},{"internalType":"address","name":"_owner","type":"address"}],"name":"createDistributorWallet","outputs":[{"internalType":"address","name":"","type":"address"}],"stateMutability":"nonpayable","type":"function"},{"inputs":[{"internalType":"address","name":"","type":"address"},{"internalType":"uint256","name":"","type":"uint256"}],"name":"distributorWallets","outputs":[{"internalType":"address","name":"","type":"address"}],"stateMutability":"view","type":"function"},{"inputs":[{"internalType":"address","name":"ownerOfWallets","type":"address"}],"name":"getDistributorWallets","outputs":[{"internalType":"address[]","name":"","type":"address[]"}],"stateMutability":"view","type":"function"},{"inputs":[{"internalType":"address","name":"wrappedSong","type":"address"}],"name":"getWrappedSongDistributor","outputs":[{"internalType":"address","name":"","type":"address"}],"stateMutability":"view","type":"function"},{"inputs":[{"internalType":"address","name":"","type":"address"}],"name":"isDistributorWallet","outputs":[{"internalType":"bool","name":"","type":"bool"}],"stateMutability":"view","type":"function"},{"inputs":[],"name":"owner","outputs":[{"internalType":"address","name":"","type":"address"}],"stateMutability":"view","type":"function"},{"inputs":[],"name":"renounceOwnership","outputs":[],"stateMutability":"nonpayable","type":"function"},{"inputs":[{"internalType":"address","name":"newOwner","type":"address"}],"name":"transferOwnership","outputs":[],"stateMutability":"nonpayable","type":"function"},{"inputs":[{"internalType":"address","name":"","type":"address"}],"name":"wrappedSongToDistributor","outputs":[{"internalType":"address","name":"","type":"address"}],"stateMutability":"view","type":"function"}],"evm":{"bytecode":{"linkReferences":{},"object":"6080346100bb57601f612c5638819003918201601f19168301916001600160401b038311848410176100c0578084926020946040528339810103126100bb57516001600160a01b0390818116908190036100bb5780156100a257600080546001600160a01b03198116831782556040519316907f8be0079c531659141344cd1fd0a4f28419497f9722a3daafe3b4186f6b6457e09080a3612b7f90816100d78239f35b604051631e4fbdf760e01b815260006004820152602490fd5b600080fd5b634e487b7160e01b600052604160045260246000fdfe608060408181526004918236101561001657600080fd5b600092833560e01c9182632cd6c9a614610594575081633aa690e7146105595781634166798614610500578163715018a6146104a65781638da5cb5b1461047e578163a6be349614610440578163d42fe23114610440578163d677db97146101d1578163f2fde38b14610146575063f4ae53381461009357600080fd5b34610142576020918260031936011261013f576001600160a01b0390816100b86105cc565b16815260019182855283822094845191828288549182815201908198865283862090865b81811061012a57505050836100f2910384610641565b855195828701938388525180945286019693905b8382106101135786880387f35b845181168852968201969382019390850190610106565b825485168452928501929188019188016100dc565b80fd5b5080fd5b9050346101cd5760203660031901126101cd576101616105cc565b9061016a610615565b6001600160a01b039182169283156101b757505082546001600160a01b0319811683178455167f8be0079c531659141344cd1fd0a4f28419497f9722a3daafe3b4186f6b6457e08380a380f35b51631e4fbdf760e01b8152908101849052602490fd5b8280fd5b838334610142576060366003190112610142576101ec6105cc565b9260249283356001600160a01b03818116929183900361014257604435938185168095036101cd5761021c610615565b8186519863b5af090f60e01b8a52169384828a015260209889818a81855afa9081156103d7578591610423575b50156103e1578651635c975abb60e01b815289818481855afa9081156103d75785916103aa575b50610373578651906124b8908183019183831067ffffffffffffffff8411176103615791839160609361069284398882528c820152888a82015203019084f0801561035757821696858452600189528684209081549268010000000000000000841015610346575050927fce2886f90250a27ef084706fa347b2e815c3b41623bb3ceb84b43cd3d9889f44949261030f838996600188960181556105e7565b819291549060031b918b831b921b19161790558781526003895220600160ff1982541617905581519086825287820152a251908152f35b634e487b7160e01b86526041905284fd5b86513d85823e3d90fd5b634e487b7160e01b8752604185528a87fd5b865162461bcd60e51b81528083018a90526012818a015271141c9bdd1bd8dbdb081a5cc81c185d5cd95960721b6044820152606490fd5b6103ca91508a3d8c116103d0575b6103c28183610641565b810190610679565b8a610270565b503d6103b8565b88513d87823e3d90fd5b865162461bcd60e51b81528083018a9052601d818a01527f537461626c65636f696e206973206e6f742077686974656c69737465640000006044820152606490fd5b61043a91508a3d8c116103d0576103c28183610641565b8a610249565b5050346101425760203660031901126101425760209160ff9082906001600160a01b0361046b6105cc565b1681526003855220541690519015158152f35b505034610142578160031936011261014257905490516001600160a01b039091168152602090f35b833461013f578060031936011261013f576104bf610615565b80546001600160a01b03198116825581906001600160a01b03167f8be0079c531659141344cd1fd0a4f28419497f9722a3daafe3b4186f6b6457e08280a380f35b50503461014257806003193601126101425761051a6105cc565b6001600160a01b03908116835260016020528183208054602435949085101561013f575060209361054a916105e7565b92905490519260031b1c168152f35b505034610142576020366003190112610142576020916001600160a01b03908290826105836105cc565b168152600285522054169051908152f35b849084346101cd5760203660031901126101cd576020926001600160a01b039190826105be6105cc565b168152600285522054168152f35b600435906001600160a01b03821682036105e257565b600080fd5b80548210156105ff5760005260206000200190600090565b634e487b7160e01b600052603260045260246000fd5b6000546001600160a01b0316330361062957565b60405163118cdaa760e01b8152336004820152602490fd5b90601f8019910116810190811067ffffffffffffffff82111761066357604052565b634e487b7160e01b600052604160045260246000fd5b908160209103126105e2575180151581036105e2579056fe60c034620001de57601f620024b838819003918201601f191683019291906001600160401b03841183851017620001e3578160609284926040968752833981010312620001de57816200005282620001f9565b916200006160208201620001f9565b6001600160a01b0392909183916200007a9101620001f9565b16928315620001c657600080546001600160a01b031981168617825586519585939290918416907f8be0079c531659141344cd1fd0a4f28419497f9722a3daafe3b4186f6b6457e09080a3169283156200018f5750169081156200014b5760805260a052516122a990816200020f82396080518181816102e4015281816104f501528181610a4f0152818161114a0152818161162a01526119ec015260a0518181816101750152818161038c0152818161088201528181610c2901528181611835015281816118900152611c3c0152f35b825162461bcd60e51b815260206004820152601760248201527f496e76616c69642070726f746f636f6c206d6f64756c650000000000000000006044820152606490fd5b62461bcd60e51b815260206004820152601260248201527124b73b30b634b21039ba30b13632b1b7b4b760711b6044820152606490fd5b8451631e4fbdf760e01b815260006004820152602490fd5b600080fd5b634e487b7160e01b600052604160045260246000fd5b51906001600160a01b0382168203620001de5756fe608080604052600436101561001357600080fd5b600090813560e01c908163028a6b9e14611cc85750806304adbc2214611be05780630a279e1514611bb05780631188029f14611b6c57806316114acd146119bc57806316a91b2f1461196757806349f3329b146119255780634b08ec50146118645780635c42e6671461181f5780636d3d6e6d146117f5578063715018a61461179b5780637f41b4a8146114165780638da5cb5b146113ef578063921f4533146110745780639d6ce7ca14610db6578063b0c70e2714610be2578063b3104d8014610ba9578063b8b0a09a146108df578063be94e3191461082b578063c0c71ce91461045e578063d20098a214610440578063d65bd2fa14610330578063e91e13a914610313578063e9cbd822146102ce578063eacdc5ff146102b0578063f2fde38b146102205763f52603691461014a57600080fd5b3461021d57602036600319011261021d57610163611d41565b61016b611ded565b6001600160a01b037f0000000000000000000000000000000000000000000000000000000000000000811691839190833b1561021957829160248392604051948593849263f526036960e01b845216978860048401525af1801561020e576101f6575b50807f9b8b9fd151330b7d89319c88adc1ba5b0e63288a430bac1173b0af4570586b6391a280f35b6101ff90611e3c565b61020a5781386101ce565b5080fd5b6040513d84823e3d90fd5b8280fd5b80fd5b503461021d57602036600319011261021d5761023a611d41565b610242611ded565b6001600160a01b0390811690811561029757600054826bffffffffffffffffffffffff60a01b821617600055167f8be0079c531659141344cd1fd0a4f28419497f9722a3daafe3b4186f6b6457e0600080a380f35b604051631e4fbdf760e01b815260048101849052602490fd5b503461021d578060031936011261021d576020600154604051908152f35b503461021d578060031936011261021d576040517f00000000000000000000000000000000000000000000000000000000000000006001600160a01b03168152602090f35b503461021d578060031936011261021d5760206040516103e88152f35b503461021d57602036600319011261021d578061034b611d41565b610353611ded565b60018060a01b03809116908183526005602052610377604084205460065411612227565b604051630222e55560e21b81526020816004817f000000000000000000000000000000000000000000000000000000000000000086165afa908115610435578491610407575b501690813b15610403578291602483926040519485938492634902fd7f60e11b845260048401525af1801561020e576103f35750f35b6103fc90611e3c565b61021d5780f35b5050fd5b610428915060203d811161042e575b6104208183611e66565b810190611fd1565b386103bd565b503d610416565b6040513d86823e3d90fd5b503461021d578060031936011261021d576020600654604051908152f35b503461021d57604036600319011261021d5760043567ffffffffffffffff811161020a57610490903690600401611dbc565b9060248035906001906104a68254841115611f95565b84156107e7578594855b81811061056757866104f060208a6104c98115156121bc565b60405163a9059cbb60e01b8152336004820152602481019190915291829081906044820190565b0381857f00000000000000000000000000000000000000000000000000000000000000006001600160a01b03165af1801561020e57610536918391610539575b50611ea0565b80f35b61055a915060203d8111610560575b6105528183611e66565b810190611e88565b83610530565b503d610548565b6105728183886121ac565b6001600160a01b03989035898116908190036107e35786895260206004815260408a20336000528152604060002082600052815260ff6040600020541661079257899a888b526002825260408b2090604051636fad7e9560e11b81528381600481885afa91821561072f578d8b928194610770575b5080876040925260058752205492169201549160405192630c4db40d60e31b84523360048501528a8a85015260448401528383606481845afa92831561072f578d9361073a575b5090836004939260405194858092633a98ef3960e01b82525afa92831561072f578d936106e7575b509260406106a86106a18d979561069c7f07863fd81b035ca44d1af7b7b984f297c3cf2ef391a2f2e978a98670f200a4eb966106976106df9d9c9a8c611f11565b611ede565b611ef1565b8096611e19565b9d8681526004835220336000528152604060002083600052815260406000208a60ff198254161790556040519384523393a461219d565b9695966104b0565b84809e5081969450919796943d8311610728575b6107058183611e66565b810103126107235792518c9b94959294919391929091906040610656565b600080fd5b503d6106fb565b6040513d8f823e3d90fd5b848092939e508194503d8311610769575b6107558183611e66565b810103126107235790518c9b90918361062e565b503d61074b565b604091945061078b90873d891161042e576104208183611e66565b93906105e7565b6084906025876040519262461bcd60e51b845260048401528201527f416c726561647920636c61696d656420666f722074686973207772617070656460448201526420736f6e6760d81b6064820152fd5b8880fd5b60649060196040519162461bcd60e51b8352602060048401528201527f456d707479207772617070656420736f6e6773206172726179000000000000006044820152fd5b503461021d57604036600319011261021d57610845611d41565b60243580151580910361072357829161085c611ded565b60018060a01b03809116908184526005602052610880604085205460065411612227565b7f00000000000000000000000000000000000000000000000000000000000000001691823b156108da576044849283604051958694859363be94e31960e01b8552600485015260248401525af1801561020e576103f35750f35b505050fd5b503461021d57604036600319011261021d576108f9611d41565b60243590818352602090600482526040842033600052825260406000209060018060a01b038091169182600052835260ff60406000205416610b7257610943600154851115611f95565b8385526002835260408086209051636fad7e9560e11b81528481600481875afa908115610b67578791610b4a575b5083875260058552600183604089205492169201549060405191630c4db40d60e31b83523360048401526001602484015260448301528582606481865afa918215610b0f5786908993610b1a575b50604051633a98ef3960e01b81529293839060049082905afa918215610b0f578892610ade575b506109f89261069761069c9289611f11565b84865260048085526040808820336000818152918852828220878352885290829020805460ff19166001179055905163a9059cbb60e01b8152918201526024810182905290939091819083908189816044810103927f0000000000000000000000000000000000000000000000000000000000000000165af1918215610ad3577f07863fd81b035ca44d1af7b7b984f297c3cf2ef391a2f2e978a98670f200a4eb92610aaa918891610ab65750611ea0565b6040519384523393a480f35b610acd9150833d8511610560576105528183611e66565b38610530565b6040513d88823e3d90fd5b9091508581813d8311610b08575b610af68183611e66565b810103126107235751906109f86109e6565b503d610aec565b6040513d8a823e3d90fd5b809350813d8311610b43575b610b308183611e66565b81010312610723578560049251926109bf565b503d610b26565b610b619150853d871161042e576104208183611e66565b38610971565b6040513d89823e3d90fd5b60405162461bcd60e51b815260048101849052600f60248201526e105b1c9958591e4818db185a5b5959608a1b6044820152606490fd5b503461021d57602036600319011261021d576020906040906001600160a01b03610bd1611d41565b168152600583522054604051908152f35b503461021d5760208060031936011261020a57610bfd611d41565b90610c06611ded565b6040516363df2f1560e11b81526001600160a01b039283166004820181905292907f00000000000000000000000000000000000000000000000000000000000000008216908381602481855afa908115610ad3578691610d99575b508230911603610d54578085913b1561020a5781809160246040518094819363b0c70e2760e01b83528a60048401525af1801561020e57610d3c575b5050600654600160401b811015610d2857806001610cbe9201600655611d57565b819291549060031b9185831b921b1916179055600654906000198201918211610d14576005908385525260408320557fe1649799fd93d14e82ccab2710a96c6b05af2496c30f0c9401e159f568813efd8280a280f35b634e487b7160e01b84526011600452602484fd5b634e487b7160e01b85526041600452602485fd5b610d4590611e3c565b610d50578338610c9d565b8380fd5b60405162461bcd60e51b815260048101849052601b60248201527f4e6f74207468652070656e64696e67206469737472696275746f7200000000006044820152606490fd5b610db09150843d861161042e576104208183611e66565b38610c61565b503461021d57606036600319011261021d57610dd0611d41565b90610dd9611d2b565b9160443567ffffffffffffffff811161021957610dfa903690600401611dbc565b604051636fad7e9560e11b81529094909290916001600160a01b03906020856004818587165afa948515610ad3578695611053575b508183168652600560205260408620549160405194633a98ef3960e01b8652602086600481858b165afa958615610b0f57889661101f575b50610e768997999593956121fb565b98610e846040519a8b611e66565b878a52601f19610e93896121fb565b013660208c013788936001988954955b818110610eea578c8c8c60405191602083016020845284518091526020604085019501915b818110610ed55784860385f35b82518652602095860195909201918301610ec8565b8a610ef9829c9e9c848c6121ac565b358d8d8a83118015610fea575b610fd7575060408183859352600260205220015460405192630c4db40d60e31b84528989166004850152602484015260448301526020826064818b8a165afa918215610fca57918a8f928f93948f969593610f8a575b50610f829561069c610f7c946106978895610f7695611f11565b92612213565b5261219d565b9b999b610ea3565b9550925050506020833d602011610fc2575b81610fa960209383611e66565b810103126107235791518b928d91908b90610f82610f5c565b3d9150610f9c565b8e604051903d90823e3d90fd5b849350610f7c91925093610f8294612213565b505080826040925260046020522088881660005260205260406000208886166000526020528d8d60ff60406000205416610f06565b9095506020813d60201161104b575b8161103b60209383611e66565b8101031261072357519438610e67565b3d915061102e565b61106d91955060203d60201161042e576104208183611e66565b9338610e2f565b503461021d57604036600319011261021d5761108e611d41565b60243567ffffffffffffffff8111610219576110ae903690600401611dbc565b9182156113b557604051636fad7e9560e11b8152906020826004816001600160a01b0385165afa9182156113aa578592611389575b5060018060a01b0381168552600560205260408520549160405190633a98ef3960e01b825260208260048160018060a01b0385165afa918215610b67578792611355575b508695875b8181106111a3578861114560208a6104c98115156121bc565b0381857f00000000000000000000000000000000000000000000000000000000000000006001600160a01b03165af1801561020e5761053691839161118a5750611ea0565b61055a915060203d602011610560576105528183611e66565b6111ae8183896121ac565b35906111be600154831115611f95565b818a52600460205260408a2033600052602052604060002060018060a01b03871660005260205260ff6040600020541661131857818a526002602052600160408b2001549160405192630c4db40d60e31b845233600485015260016024850152604484015260208360648160018060a01b0389165afa801561130d5786938c916112d4575b5061125c6112cf9461069c611263936106978d87611f11565b809b611e19565b818c52600460209081526040808e203360008181529184528282206001600160a01b038d1680845290855291839020805460ff1916600117905591519d8e52929c9092917f07863fd81b035ca44d1af7b7b984f297c3cf2ef391a2f2e978a98670f200a4eb91a461219d565b61112c565b9350506020833d602011611305575b816112f060209383611e66565b8101031261072357915185929061125c611243565b3d91506112e3565b6040513d8d823e3d90fd5b60405162461bcd60e51b8152602060048201526015602482015274115c1bd8da08185b1c9958591e4818db185a5b5959605a1b6044820152606490fd5b9091506020813d602011611381575b8161137160209383611e66565b8101031261072357519038611127565b3d9150611364565b6113a391925060203d60201161042e576104208183611e66565b90386110e3565b6040513d87823e3d90fd5b60405162461bcd60e51b8152602060048201526012602482015271456d7074792065706f63687320617272617960701b6044820152606490fd5b503461021d578060031936011261021d57546040516001600160a01b039091168152602090f35b503461021d5760c036600319011261021d5760248035906004359067ffffffffffffffff9060443582811161179757611453903690600401611dbc565b919092606435916084359182151583036107235760a4359081151582036107235761147c611ded565b6103e8861161176157600193845485810180911161174e578903611717576115fc575b878a526020966003885260408b208a8c52885260408b209187116115e957600160401b87116115e95781548783558088106115c2575b50908a52868a2090848b5b8881106115b05750505050611520575b505050907fab2993bd1558cf55c0837b08905edac8717b4326267b02c8268534311452619891604051908152a380f35b8187019081881161159e5750918580927fab2993bd1558cf55c0837b08905edac8717b4326267b02c82685343114526198969594828b5260028752600260408c2001555560405190815242848201527fb52be436c4d2a5bc18728d4f052344d91ed904f58693186df6726a84f7b3c9a860403092a3909138806114f0565b634e487b7160e01b8952601160045288fd5b898335930192818501550185906114e0565b85888a8e8681522092830192015b8281106115de5750506114d5565b8d81550186906115d0565b634e487b7160e01b8b526041600452838bfd5b84156116dc576040516323b872dd60e01b81523360048201523084820152604481018690526020816064818e7f00000000000000000000000000000000000000000000000000000000000000006001600160a01b03165af1801561130d5761166a918c916116c45750611ea0565b60405160608101818110838211176116af5760405285815260028b602083014281526040808501928084528d815284602052209351845551878401555191015561149f565b84634e487b7160e01b60005260416004526000fd5b610acd915060203d8111610560576105528183611e66565b60405162461bcd60e51b81526020600482015260148185015273125b9d985b1a59081d1bdd185b08185b5bdd5b9d60621b6044820152606490fd5b60405162461bcd60e51b8152602060048201526010818601526f125b9d985b1a5908195c1bd8da081a5960821b6044820152606490fd5b634e487b7160e01b8c526011600452848cfd5b60405162461bcd60e51b815260206004820152600f818501526e4368756e6b20746f6f206c6172676560881b6044820152606490fd5b8580fd5b503461021d578060031936011261021d576117b4611ded565b600080546001600160a01b0319811682556001600160a01b03167f8be0079c531659141344cd1fd0a4f28419497f9722a3daafe3b4186f6b6457e08280a380f35b503461021d57604036600319011261021d576020611817602435600435611f11565b604051908152f35b503461021d578060031936011261021d576040517f00000000000000000000000000000000000000000000000000000000000000006001600160a01b03168152602090f35b503461021d57602036600319011261021d5761187e611d41565b611886611ded565b6001600160a01b037f0000000000000000000000000000000000000000000000000000000000000000811691839190833b156102195782916024839260405194859384926304b08ec560e41b845216978860048401525af1801561020e57611911575b50807f96e9f71e351da2f355723015d74e0a4b6a13763fa188e610b27da4c5aca898c991a280f35b61191a90611e3c565b61020a5781386118e9565b503461021d57602036600319011261021d5760406060916004358152600260205220805490600260018201549101549060405192835260208301526040820152f35b503461021d57606036600319011261021d5760443590600435815260036020526040812060243582526020526040812090815483101561021d5760206119ad8484611da4565b90549060031b1c604051908152f35b503461021d5760208060031936011261020a576119d7611d41565b6119df611ded565b6001600160a01b039081167f000000000000000000000000000000000000000000000000000000000000000082168114611b27576040516370a0823160e01b8152306004820152918383602481855afa9283156113aa578593611af8575b508215611abb57845460405163a9059cbb60e01b815291166001600160a01b031660048201526024810192909252829082908186816044810103925af1908115611ab057610536928492611a93575b5050611ea0565b611aa99250803d10610560576105528183611e66565b3880611a8c565b6040513d85823e3d90fd5b60405162461bcd60e51b81526004810185905260156024820152742737903130b630b731b2903a37903932b1b7bb32b960591b6044820152606490fd5b9092508381813d8311611b20575b611b108183611e66565b8101031261072357519138611a3d565b503d611b06565b60405162461bcd60e51b815260048101849052601960248201527f43616e6e6f74207265636f76657220737461626c65636f696e000000000000006044820152606490fd5b503461021d57602036600319011261021d576004359060065482101561021d576020611b9783611d57565b905460405160039290921b1c6001600160a01b03168152f35b503461021d57606036600319011261021d576020611817611bcf611d41565b611bd7611d2b565b60443591611ff0565b503461021d57602036600319011261021d5780611bfb611d41565b611c03611ded565b60018060a01b03809116908183526005602052611c27604084205460065411612227565b604051630222e55560e21b81526020816004817f000000000000000000000000000000000000000000000000000000000000000086165afa908115610435578491611caa575b5016803b156104035760248392604051948593849263187de53b60e01b845260048401525af1801561020e57611ca1575080f35b61053690611e3c565b611cc2915060203d811161042e576104208183611e66565b38611c6d565b90503461020a57606036600319011261020a57611ce3611d2b565b6044356001600160a01b038181169291839003611d27579360ff92604092602096600435845260048852848420911683528652828220908252855220541615158152f35b8480fd5b602435906001600160a01b038216820361072357565b600435906001600160a01b038216820361072357565b600654811015611d8e5760066000527ff652222313e28459528d920b65115c16c04f3efc82aaedc97be59f3f377c0d3f0190600090565b634e487b7160e01b600052603260045260246000fd5b8054821015611d8e5760005260206000200190600090565b9181601f840112156107235782359167ffffffffffffffff8311610723576020808501948460051b01011161072357565b6000546001600160a01b03163303611e0157565b60405163118cdaa760e01b8152336004820152602490fd5b91908201809211611e2657565b634e487b7160e01b600052601160045260246000fd5b67ffffffffffffffff8111611e5057604052565b634e487b7160e01b600052604160045260246000fd5b90601f8019910116810190811067ffffffffffffffff821117611e5057604052565b90816020910312610723575180151581036107235790565b15611ea757565b60405162461bcd60e51b815260206004820152600f60248201526e151c985b9cd9995c8819985a5b1959608a1b6044820152606490fd5b81810292918115918404141715611e2657565b8115611efb570490565b634e487b7160e01b600052601260045260246000fd5b906103e8918282049260009282845260026020526002604085200154851015611f5d57611f539460409385526003602052838520908552602052069120611da4565b90549060031b1c90565b60405162461bcd60e51b815260206004820152601060248201526f092dcecc2d8d2c840aea640d2dcc8caf60831b6044820152606490fd5b15611f9c57565b60405162461bcd60e51b815260206004820152600d60248201526c092dcecc2d8d2c840cae0dec6d609b1b6044820152606490fd5b9081602091031261072357516001600160a01b03811681036107235790565b600092808452602093600485526040948582209460018060a01b0380911695868452825280878420951694858452825260ff87842054168015612192575b612188578651636fad7e9560e11b8152948286600481845afa95861561217e57849661215f575b508352600582528683205494168383526002825260018784200154875196630c4db40d60e31b885260048801526001602488015260448701528186606481845afa958615612155578396612126575b50908060049392885194858092633a98ef3960e01b82525afa96871561211b575081966120e4575b5050509161069761069c926120e19594611f11565b90565b909180939650813d8311612114575b6120fd8183611e66565b8101031261021d57505192610697826120e16120cc565b503d6120f3565b51913d9150823e3d90fd5b9095508181813d831161214e575b61213e8183611e66565b81010312610219575194816120a4565b503d612134565b87513d85823e3d90fd5b612177919650833d851161042e576104208183611e66565b9438612055565b88513d86823e3d90fd5b5050935050505090565b50600154841161202e565b6000198114611e265760010190565b9190811015611d8e5760051b0190565b156121c357565b60405162461bcd60e51b815260206004820152601060248201526f4e6f7468696e6720746f20636c61696d60801b6044820152606490fd5b67ffffffffffffffff8111611e505760051b60200190565b8051821015611d8e5760209160051b010190565b1561222e57565b60405162461bcd60e51b815260206004820152601a60248201527f4e6f742061206d616e61676564207772617070656420736f6e670000000000006044820152606490fdfea26469706673582212202fa363a194b8d2e9fc9c5da59dbcd1b988ffbaf8c3cd085d3b869ccb3c8fa81364736f6c63430008140033a26469706673582212205e7802fd0b4a56c39ab5fd1778b9c023d104b35786cc7316fae0b4d0a2058c0164736f6c63430008140033","opcodes":"PUSH1 0x80 CALLVALUE PUSH2 0xBB JUMPI PUSH1 0x1F PUSH2 0x2C56 CODESIZE DUP2 SWAP1 SUB SWAP2 DUP3 ADD PUSH1 0x1F NOT AND DUP4 ADD SWAP2 PUSH1 0x1 PUSH1 0x1 PUSH1 0x40 SHL SUB DUP4 GT DUP5 DUP5 LT OR PUSH2 0xC0 JUMPI DUP1 DUP5 SWAP3 PUSH1 0x20 SWAP5 PUSH1 0x40 MSTORE DUP4 CODECOPY DUP2 ADD SUB SLT PUSH2 0xBB JUMPI MLOAD PUSH1 0x1 PUSH1 0x1 PUSH1 0xA0 SHL SUB SWAP1 DUP2 DUP2 AND SWAP1 DUP2 SWAP1 SUB PUSH2 0xBB JUMPI DUP1 ISZERO PUSH2 0xA2 JUMPI PUSH1 0x0 DUP1 SLOAD PUSH1 0x1 PUSH1 0x1 PUSH1 0xA0 SHL SUB NOT DUP2 AND DUP4 OR DUP3 SSTORE PUSH1 0x40 MLOAD SWAP4 AND SWAP1 PUSH32 0x8BE0079C531659141344CD1FD0A4F28419497F9722A3DAAFE3B4186F6B6457E0 SWAP1 DUP1 LOG3 PUSH2 0x2B7F SWAP1 DUP2 PUSH2 0xD7 DUP3 CODECOPY RETURN JUMPDEST PUSH1 0x40 MLOAD PUSH4 0x1E4FBDF7 PUSH1 0xE0 SHL DUP2 MSTORE PUSH1 0x0 PUSH1 0x4 DUP3 ADD MSTORE PUSH1 0x24 SWAP1 REVERT JUMPDEST PUSH1 0x0 DUP1 REVERT JUMPDEST PUSH4 0x4E487B71 PUSH1 0xE0 SHL PUSH1 0x0 MSTORE PUSH1 0x41 PUSH1 0x4 MSTORE PUSH1 0x24 PUSH1 0x0 REVERT INVALID PUSH1 0x80 PUSH1 0x40 DUP2 DUP2 MSTORE PUSH1 0x4 SWAP2 DUP3 CALLDATASIZE LT ISZERO PUSH2 0x16 JUMPI PUSH1 0x0 DUP1 REVERT JUMPDEST PUSH1 0x0 SWAP3 DUP4 CALLDATALOAD PUSH1 0xE0 SHR SWAP2 DUP3 PUSH4 0x2CD6C9A6 EQ PUSH2 0x594 JUMPI POP DUP2 PUSH4 0x3AA690E7 EQ PUSH2 0x559 JUMPI DUP2 PUSH4 0x41667986 EQ PUSH2 0x500 JUMPI DUP2 PUSH4 0x715018A6 EQ PUSH2 0x4A6 JUMPI DUP2 PUSH4 0x8DA5CB5B EQ PUSH2 0x47E JUMPI DUP2 PUSH4 0xA6BE3496 EQ PUSH2 0x440 JUMPI DUP2 PUSH4 0xD42FE231 EQ PUSH2 0x440 JUMPI DUP2 PUSH4 0xD677DB97 EQ PUSH2 0x1D1 JUMPI DUP2 PUSH4 0xF2FDE38B EQ PUSH2 0x146 JUMPI POP PUSH4 0xF4AE5338 EQ PUSH2 0x93 JUMPI PUSH1 0x0 DUP1 REVERT JUMPDEST CALLVALUE PUSH2 0x142 JUMPI PUSH1 0x20 SWAP2 DUP3 PUSH1 0x3 NOT CALLDATASIZE ADD SLT PUSH2 0x13F JUMPI PUSH1 0x1 PUSH1 0x1 PUSH1 0xA0 SHL SUB SWAP1 DUP2 PUSH2 0xB8 PUSH2 0x5CC JUMP JUMPDEST AND DUP2 MSTORE PUSH1 0x1 SWAP2 DUP3 DUP6 MSTORE DUP4 DUP3 KECCAK256 SWAP5 DUP5 MLOAD SWAP2 DUP3 DUP3 DUP9 SLOAD SWAP2 DUP3 DUP2 MSTORE ADD SWAP1 DUP2 SWAP9 DUP7 MSTORE DUP4 DUP7 KECCAK256 SWAP1 DUP7 JUMPDEST DUP2 DUP2 LT PUSH2 0x12A JUMPI POP POP POP DUP4 PUSH2 0xF2 SWAP2 SUB DUP5 PUSH2 0x641 JUMP JUMPDEST DUP6 MLOAD SWAP6 DUP3 DUP8 ADD SWAP4 DUP4 DUP9 MSTORE MLOAD DUP1 SWAP5 MSTORE DUP7 ADD SWAP7 SWAP4 SWAP1 JUMPDEST DUP4 DUP3 LT PUSH2 0x113 JUMPI DUP7 DUP9 SUB DUP8 RETURN JUMPDEST DUP5 MLOAD DUP2 AND DUP9 MSTORE SWAP7 DUP3 ADD SWAP7 SWAP4 DUP3 ADD SWAP4 SWAP1 DUP6 ADD SWAP1 PUSH2 0x106 JUMP JUMPDEST DUP3 SLOAD DUP6 AND DUP5 MSTORE SWAP3 DUP6 ADD SWAP3 SWAP2 DUP9 ADD SWAP2 DUP9 ADD PUSH2 0xDC JUMP JUMPDEST DUP1 REVERT JUMPDEST POP DUP1 REVERT JUMPDEST SWAP1 POP CALLVALUE PUSH2 0x1CD JUMPI PUSH1 0x20 CALLDATASIZE PUSH1 0x3 NOT ADD SLT PUSH2 0x1CD JUMPI PUSH2 0x161 PUSH2 0x5CC JUMP JUMPDEST SWAP1 PUSH2 0x16A PUSH2 0x615 JUMP JUMPDEST PUSH1 0x1 PUSH1 0x1 PUSH1 0xA0 SHL SUB SWAP2 DUP3 AND SWAP3 DUP4 ISZERO PUSH2 0x1B7 JUMPI POP POP DUP3 SLOAD PUSH1 0x1 PUSH1 0x1 PUSH1 0xA0 SHL SUB NOT DUP2 AND DUP4 OR DUP5 SSTORE AND PUSH32 0x8BE0079C531659141344CD1FD0A4F28419497F9722A3DAAFE3B4186F6B6457E0 DUP4 DUP1 LOG3 DUP1 RETURN JUMPDEST MLOAD PUSH4 0x1E4FBDF7 PUSH1 0xE0 SHL DUP2 MSTORE SWAP1 DUP2 ADD DUP5 SWAP1 MSTORE PUSH1 0x24 SWAP1 REVERT JUMPDEST DUP3 DUP1 REVERT JUMPDEST DUP4 DUP4 CALLVALUE PUSH2 0x142 JUMPI PUSH1 0x60 CALLDATASIZE PUSH1 0x3 NOT ADD SLT PUSH2 0x142 JUMPI PUSH2 0x1EC PUSH2 0x5CC JUMP JUMPDEST SWAP3 PUSH1 0x24 SWAP3 DUP4 CALLDATALOAD PUSH1 0x1 PUSH1 0x1 PUSH1 0xA0 SHL SUB DUP2 DUP2 AND SWAP3 SWAP2 DUP4 SWAP1 SUB PUSH2 0x142 JUMPI PUSH1 0x44 CALLDATALOAD SWAP4 DUP2 DUP6 AND DUP1 SWAP6 SUB PUSH2 0x1CD JUMPI PUSH2 0x21C PUSH2 0x615 JUMP JUMPDEST DUP2 DUP7 MLOAD SWAP9 PUSH4 0xB5AF090F PUSH1 0xE0 SHL DUP11 MSTORE AND SWAP4 DUP5 DUP3 DUP11 ADD MSTORE PUSH1 0x20 SWAP9 DUP10 DUP2 DUP11 DUP2 DUP6 GAS STATICCALL SWAP1 DUP2 ISZERO PUSH2 0x3D7 JUMPI DUP6 SWAP2 PUSH2 0x423 JUMPI JUMPDEST POP ISZERO PUSH2 0x3E1 JUMPI DUP7 MLOAD PUSH4 0x5C975ABB PUSH1 0xE0 SHL DUP2 MSTORE DUP10 DUP2 DUP5 DUP2 DUP6 GAS STATICCALL SWAP1 DUP2 ISZERO PUSH2 0x3D7 JUMPI DUP6 SWAP2 PUSH2 0x3AA JUMPI JUMPDEST POP PUSH2 0x373 JUMPI DUP7 MLOAD SWAP1 PUSH2 0x24B8 SWAP1 DUP2 DUP4 ADD SWAP2 DUP4 DUP4 LT PUSH8 0xFFFFFFFFFFFFFFFF DUP5 GT OR PUSH2 0x361 JUMPI SWAP2 DUP4 SWAP2 PUSH1 0x60 SWAP4 PUSH2 0x692 DUP5 CODECOPY DUP9 DUP3 MSTORE DUP13 DUP3 ADD MSTORE DUP9 DUP11 DUP3 ADD MSTORE SUB ADD SWAP1 DUP5 CREATE DUP1 ISZERO PUSH2 0x357 JUMPI DUP3 AND SWAP7 DUP6 DUP5 MSTORE PUSH1 0x1 DUP10 MSTORE DUP7 DUP5 KECCAK256 SWAP1 DUP2 SLOAD SWAP3 PUSH9 0x10000000000000000 DUP5 LT ISZERO PUSH2 0x346 JUMPI POP POP SWAP3 PUSH32 0xCE2886F90250A27EF084706FA347B2E815C3B41623BB3CEB84B43CD3D9889F44 SWAP5 SWAP3 PUSH2 0x30F DUP4 DUP10 SWAP7 PUSH1 0x1 DUP9 SWAP7 ADD DUP2 SSTORE PUSH2 0x5E7 JUMP JUMPDEST DUP2 SWAP3 SWAP2 SLOAD SWAP1 PUSH1 0x3 SHL SWAP2 DUP12 DUP4 SHL SWAP3 SHL NOT AND OR SWAP1 SSTORE DUP8 DUP2 MSTORE PUSH1 0x3 DUP10 MSTORE KECCAK256 PUSH1 0x1 PUSH1 0xFF NOT DUP3 SLOAD AND OR SWAP1 SSTORE DUP2 MLOAD SWAP1 DUP7 DUP3 MSTORE DUP8 DUP3 ADD MSTORE LOG2 MLOAD SWAP1 DUP2 MSTORE RETURN JUMPDEST PUSH4 0x4E487B71 PUSH1 0xE0 SHL DUP7 MSTORE PUSH1 0x41 SWAP1 MSTORE DUP5 REVERT JUMPDEST DUP7 MLOAD RETURNDATASIZE DUP6 DUP3 RETURNDATACOPY RETURNDATASIZE SWAP1 REVERT JUMPDEST PUSH4 0x4E487B71 PUSH1 0xE0 SHL DUP8 MSTORE PUSH1 0x41 DUP6 MSTORE DUP11 DUP8 REVERT JUMPDEST DUP7 MLOAD PUSH3 0x461BCD PUSH1 0xE5 SHL DUP2 MSTORE DUP1 DUP4 ADD DUP11 SWAP1 MSTORE PUSH1 0x12 DUP2 DUP11 ADD MSTORE PUSH18 0x141C9BDD1BD8DBDB081A5CC81C185D5CD959 PUSH1 0x72 SHL PUSH1 0x44 DUP3 ADD MSTORE PUSH1 0x64 SWAP1 REVERT JUMPDEST PUSH2 0x3CA SWAP2 POP DUP11 RETURNDATASIZE DUP13 GT PUSH2 0x3D0 JUMPI JUMPDEST PUSH2 0x3C2 DUP2 DUP4 PUSH2 0x641 JUMP JUMPDEST DUP2 ADD SWAP1 PUSH2 0x679 JUMP JUMPDEST DUP11 PUSH2 0x270 JUMP JUMPDEST POP RETURNDATASIZE PUSH2 0x3B8 JUMP JUMPDEST DUP9 MLOAD RETURNDATASIZE DUP8 DUP3 RETURNDATACOPY RETURNDATASIZE SWAP1 REVERT JUMPDEST DUP7 MLOAD PUSH3 0x461BCD PUSH1 0xE5 SHL DUP2 MSTORE DUP1 DUP4 ADD DUP11 SWAP1 MSTORE PUSH1 0x1D DUP2 DUP11 ADD MSTORE PUSH32 0x537461626C65636F696E206973206E6F742077686974656C6973746564000000 PUSH1 0x44 DUP3 ADD MSTORE PUSH1 0x64 SWAP1 REVERT JUMPDEST PUSH2 0x43A SWAP2 POP DUP11 RETURNDATASIZE DUP13 GT PUSH2 0x3D0 JUMPI PUSH2 0x3C2 DUP2 DUP4 PUSH2 0x641 JUMP JUMPDEST DUP11 PUSH2 0x249 JUMP JUMPDEST POP POP CALLVALUE PUSH2 0x142 JUMPI PUSH1 0x20 CALLDATASIZE PUSH1 0x3 NOT ADD SLT PUSH2 0x142 JUMPI PUSH1 0x20 SWAP2 PUSH1 0xFF SWAP1 DUP3 SWAP1 PUSH1 0x1 PUSH1 0x1 PUSH1 0xA0 SHL SUB PUSH2 0x46B PUSH2 0x5CC JUMP JUMPDEST AND DUP2 MSTORE PUSH1 0x3 DUP6 MSTORE KECCAK256 SLOAD AND SWAP1 MLOAD SWAP1 ISZERO ISZERO DUP2 MSTORE RETURN JUMPDEST POP POP CALLVALUE PUSH2 0x142 JUMPI DUP2 PUSH1 0x3 NOT CALLDATASIZE ADD SLT PUSH2 0x142 JUMPI SWAP1 SLOAD SWAP1 MLOAD PUSH1 0x1 PUSH1 0x1 PUSH1 0xA0 SHL SUB SWAP1 SWAP2 AND DUP2 MSTORE PUSH1 0x20 SWAP1 RETURN JUMPDEST DUP4 CALLVALUE PUSH2 0x13F JUMPI DUP1 PUSH1 0x3 NOT CALLDATASIZE ADD SLT PUSH2 0x13F JUMPI PUSH2 0x4BF PUSH2 0x615 JUMP JUMPDEST DUP1 SLOAD PUSH1 0x1 PUSH1 0x1 PUSH1 0xA0 SHL SUB NOT DUP2 AND DUP3 SSTORE DUP2 SWAP1 PUSH1 0x1 PUSH1 0x1 PUSH1 0xA0 SHL SUB AND PUSH32 0x8BE0079C531659141344CD1FD0A4F28419497F9722A3DAAFE3B4186F6B6457E0 DUP3 DUP1 LOG3 DUP1 RETURN JUMPDEST POP POP CALLVALUE PUSH2 0x142 JUMPI DUP1 PUSH1 0x3 NOT CALLDATASIZE ADD SLT PUSH2 0x142 JUMPI PUSH2 0x51A PUSH2 0x5CC JUMP JUMPDEST PUSH1 0x1 PUSH1 0x1 PUSH1 0xA0 SHL SUB SWAP1 DUP2 AND DUP4 MSTORE PUSH1 0x1 PUSH1 0x20 MSTORE DUP2 DUP4 KECCAK256 DUP1 SLOAD PUSH1 0x24 CALLDATALOAD SWAP5 SWAP1 DUP6 LT ISZERO PUSH2 0x13F JUMPI POP PUSH1 0x20 SWAP4 PUSH2 0x54A SWAP2 PUSH2 0x5E7 JUMP JUMPDEST SWAP3 SWAP1 SLOAD SWAP1 MLOAD SWAP3 PUSH1 0x3 SHL SHR AND DUP2 MSTORE RETURN JUMPDEST POP POP CALLVALUE PUSH2 0x142 JUMPI PUSH1 0x20 CALLDATASIZE PUSH1 0x3 NOT ADD SLT PUSH2 0x142 JUMPI PUSH1 0x20 SWAP2 PUSH1 0x1 PUSH1 0x1 PUSH1 0xA0 SHL SUB SWAP1 DUP3 SWAP1 DUP3 PUSH2 0x583 PUSH2 0x5CC JUMP JUMPDEST AND DUP2 MSTORE PUSH1 0x2 DUP6 MSTORE KECCAK256 SLOAD AND SWAP1 MLOAD SWAP1 DUP2 MSTORE RETURN JUMPDEST DUP5 SWAP1 DUP5 CALLVALUE PUSH2 0x1CD JUMPI PUSH1 0x20 CALLDATASIZE PUSH1 0x3 NOT ADD SLT PUSH2 0x1CD JUMPI PUSH1 0x20 SWAP3 PUSH1 0x1 PUSH1 0x1 PUSH1 0xA0 SHL SUB SWAP2 SWAP1 DUP3 PUSH2 0x5BE PUSH2 0x5CC JUMP JUMPDEST AND DUP2 MSTORE PUSH1 0x2 DUP6 MSTORE KECCAK256 SLOAD AND DUP2 MSTORE RETURN JUMPDEST PUSH1 0x4 CALLDATALOAD SWAP1 PUSH1 0x1 PUSH1 0x1 PUSH1 0xA0 SHL SUB DUP3 AND DUP3 SUB PUSH2 0x5E2 JUMPI JUMP JUMPDEST PUSH1 0x0 DUP1 REVERT JUMPDEST DUP1 SLOAD DUP3 LT ISZERO PUSH2 0x5FF JUMPI PUSH1 0x0 MSTORE PUSH1 0x20 PUSH1 0x0 KECCAK256 ADD SWAP1 PUSH1 0x0 SWAP1 JUMP JUMPDEST PUSH4 0x4E487B71 PUSH1 0xE0 SHL PUSH1 0x0 MSTORE PUSH1 0x32 PUSH1 0x4 MSTORE PUSH1 0x24 PUSH1 0x0 REVERT JUMPDEST PUSH1 0x0 SLOAD PUSH1 0x1 PUSH1 0x1 PUSH1 0xA0 SHL SUB AND CALLER SUB PUSH2 0x629 JUMPI JUMP JUMPDEST PUSH1 0x40 MLOAD PUSH4 0x118CDAA7 PUSH1 0xE0 SHL DUP2 MSTORE CALLER PUSH1 0x4 DUP3 ADD MSTORE PUSH1 0x24 SWAP1 REVERT JUMPDEST SWAP1 PUSH1 0x1F DUP1 NOT SWAP2 ADD AND DUP2 ADD SWAP1 DUP2 LT PUSH8 0xFFFFFFFFFFFFFFFF DUP3 GT OR PUSH2 0x663 JUMPI PUSH1 0x40 MSTORE JUMP JUMPDEST PUSH4 0x4E487B71 PUSH1 0xE0 SHL PUSH1 0x0 MSTORE PUSH1 0x41 PUSH1 0x4 MSTORE PUSH1 0x24 PUSH1 0x0 REVERT JUMPDEST SWAP1 DUP2 PUSH1 0x20 SWAP2 SUB SLT PUSH2 0x5E2 JUMPI MLOAD DUP1 ISZERO ISZERO DUP2 SUB PUSH2 0x5E2 JUMPI SWAP1 JUMP INVALID PUSH1 0xC0 CALLVALUE PUSH3 0x1DE JUMPI PUSH1 0x1F PUSH3 0x24B8 CODESIZE DUP2 SWAP1 SUB SWAP2 DUP3 ADD PUSH1 0x1F NOT AND DUP4 ADD SWAP3 SWAP2 SWAP1 PUSH1 0x1 PUSH1 0x1 PUSH1 0x40 SHL SUB DUP5 GT DUP4 DUP6 LT OR PUSH3 0x1E3 JUMPI DUP2 PUSH1 0x60 SWAP3 DUP5 SWAP3 PUSH1 0x40 SWAP7 DUP8 MSTORE DUP4 CODECOPY DUP2 ADD SUB SLT PUSH3 0x1DE JUMPI DUP2 PUSH3 0x52 DUP3 PUSH3 0x1F9 JUMP JUMPDEST SWAP2 PUSH3 0x61 PUSH1 0x20 DUP3 ADD PUSH3 0x1F9 JUMP JUMPDEST PUSH1 0x1 PUSH1 0x1 PUSH1 0xA0 SHL SUB SWAP3 SWAP1 SWAP2 DUP4 SWAP2 PUSH3 0x7A SWAP2 ADD PUSH3 0x1F9 JUMP JUMPDEST AND SWAP3 DUP4 ISZERO PUSH3 0x1C6 JUMPI PUSH1 0x0 DUP1 SLOAD PUSH1 0x1 PUSH1 0x1 PUSH1 0xA0 SHL SUB NOT DUP2 AND DUP7 OR DUP3 SSTORE DUP7 MLOAD SWAP6 DUP6 SWAP4 SWAP3 SWAP1 SWAP2 DUP5 AND SWAP1 PUSH32 0x8BE0079C531659141344CD1FD0A4F28419497F9722A3DAAFE3B4186F6B6457E0 SWAP1 DUP1 LOG3 AND SWAP3 DUP4 ISZERO PUSH3 0x18F JUMPI POP AND SWAP1 DUP2 ISZERO PUSH3 0x14B JUMPI PUSH1 0x80 MSTORE PUSH1 0xA0 MSTORE MLOAD PUSH2 0x22A9 SWAP1 DUP2 PUSH3 0x20F DUP3 CODECOPY PUSH1 0x80 MLOAD DUP2 DUP2 DUP2 PUSH2 0x2E4 ADD MSTORE DUP2 DUP2 PUSH2 0x4F5 ADD MSTORE DUP2 DUP2 PUSH2 0xA4F ADD MSTORE DUP2 DUP2 PUSH2 0x114A ADD MSTORE DUP2 DUP2 PUSH2 0x162A ADD MSTORE PUSH2 0x19EC ADD MSTORE PUSH1 0xA0 MLOAD DUP2 DUP2 DUP2 PUSH2 0x175 ADD MSTORE DUP2 DUP2 PUSH2 0x38C ADD MSTORE DUP2 DUP2 PUSH2 0x882 ADD MSTORE DUP2 DUP2 PUSH2 0xC29 ADD MSTORE DUP2 DUP2 PUSH2 0x1835 ADD MSTORE DUP2 DUP2 PUSH2 0x1890 ADD MSTORE PUSH2 0x1C3C ADD MSTORE RETURN JUMPDEST DUP3 MLOAD PUSH3 0x461BCD PUSH1 0xE5 SHL DUP2 MSTORE PUSH1 0x20 PUSH1 0x4 DUP3 ADD MSTORE PUSH1 0x17 PUSH1 0x24 DUP3 ADD MSTORE PUSH32 0x496E76616C69642070726F746F636F6C206D6F64756C65000000000000000000 PUSH1 0x44 DUP3 ADD MSTORE PUSH1 0x64 SWAP1 REVERT JUMPDEST PUSH3 0x461BCD PUSH1 0xE5 SHL DUP2 MSTORE PUSH1 0x20 PUSH1 0x4 DUP3 ADD MSTORE PUSH1 0x12 PUSH1 0x24 DUP3 ADD MSTORE PUSH18 0x24B73B30B634B21039BA30B13632B1B7B4B7 PUSH1 0x71 SHL PUSH1 0x44 DUP3 ADD MSTORE PUSH1 0x64 SWAP1 REVERT JUMPDEST DUP5 MLOAD PUSH4 0x1E4FBDF7 PUSH1 0xE0 SHL DUP2 MSTORE PUSH1 0x0 PUSH1 0x4 DUP3 ADD MSTORE PUSH1 0x24 SWAP1 REVERT JUMPDEST PUSH1 0x0 DUP1 REVERT JUMPDEST PUSH4 0x4E487B71 PUSH1 0xE0 SHL PUSH1 0x0 MSTORE PUSH1 0x41 PUSH1 0x4 MSTORE PUSH1 0x24 PUSH1 0x0 REVERT JUMPDEST MLOAD SWAP1 PUSH1 0x1 PUSH1 0x1 PUSH1 0xA0 SHL SUB DUP3 AND DUP3 SUB PUSH3 0x1DE JUMPI JUMP INVALID PUSH1 0x80 DUP1 PUSH1 0x40 MSTORE PUSH1 0x4 CALLDATASIZE LT ISZERO PUSH2 0x13 JUMPI PUSH1 0x0 DUP1 REVERT JUMPDEST PUSH1 0x0 SWAP1 DUP2 CALLDATALOAD PUSH1 0xE0 SHR SWAP1 DUP2 PUSH4 0x28A6B9E EQ PUSH2 0x1CC8 JUMPI POP DUP1 PUSH4 0x4ADBC22 EQ PUSH2 0x1BE0 JUMPI DUP1 PUSH4 0xA279E15 EQ PUSH2 0x1BB0 JUMPI DUP1 PUSH4 0x1188029F EQ PUSH2 0x1B6C JUMPI DUP1 PUSH4 0x16114ACD EQ PUSH2 0x19BC JUMPI DUP1 PUSH4 0x16A91B2F EQ PUSH2 0x1967 JUMPI DUP1 PUSH4 0x49F3329B EQ PUSH2 0x1925 JUMPI DUP1 PUSH4 0x4B08EC50 EQ PUSH2 0x1864 JUMPI DUP1 PUSH4 0x5C42E667 EQ PUSH2 0x181F JUMPI DUP1 PUSH4 0x6D3D6E6D EQ PUSH2 0x17F5 JUMPI DUP1 PUSH4 0x715018A6 EQ PUSH2 0x179B JUMPI DUP1 PUSH4 0x7F41B4A8 EQ PUSH2 0x1416 JUMPI DUP1 PUSH4 0x8DA5CB5B EQ PUSH2 0x13EF JUMPI DUP1 PUSH4 0x921F4533 EQ PUSH2 0x1074 JUMPI DUP1 PUSH4 0x9D6CE7CA EQ PUSH2 0xDB6 JUMPI DUP1 PUSH4 0xB0C70E27 EQ PUSH2 0xBE2 JUMPI DUP1 PUSH4 0xB3104D80 EQ PUSH2 0xBA9 JUMPI DUP1 PUSH4 0xB8B0A09A EQ PUSH2 0x8DF JUMPI DUP1 PUSH4 0xBE94E319 EQ PUSH2 0x82B JUMPI DUP1 PUSH4 0xC0C71CE9 EQ PUSH2 0x45E JUMPI DUP1 PUSH4 0xD20098A2 EQ PUSH2 0x440 JUMPI DUP1 PUSH4 0xD65BD2FA EQ PUSH2 0x330 JUMPI DUP1 PUSH4 0xE91E13A9 EQ PUSH2 0x313 JUMPI DUP1 PUSH4 0xE9CBD822 EQ PUSH2 0x2CE JUMPI DUP1 PUSH4 0xEACDC5FF EQ PUSH2 0x2B0 JUMPI DUP1 PUSH4 0xF2FDE38B EQ PUSH2 0x220 JUMPI PUSH4 0xF5260369 EQ PUSH2 0x14A JUMPI PUSH1 0x0 DUP1 REVERT JUMPDEST CALLVALUE PUSH2 0x21D JUMPI PUSH1 0x20 CALLDATASIZE PUSH1 0x3 NOT ADD SLT PUSH2 0x21D JUMPI PUSH2 0x163 PUSH2 0x1D41 JUMP JUMPDEST PUSH2 0x16B PUSH2 0x1DED JUMP JUMPDEST PUSH1 0x1 PUSH1 0x1 PUSH1 0xA0 SHL SUB PUSH32 0x0 DUP2 AND SWAP2 DUP4 SWAP2 SWAP1 DUP4 EXTCODESIZE ISZERO PUSH2 0x219 JUMPI DUP3 SWAP2 PUSH1 0x24 DUP4 SWAP3 PUSH1 0x40 MLOAD SWAP5 DUP6 SWAP4 DUP5 SWAP3 PUSH4 0xF5260369 PUSH1 0xE0 SHL DUP5 MSTORE AND SWAP8 DUP9 PUSH1 0x4 DUP5 ADD MSTORE GAS CALL DUP1 ISZERO PUSH2 0x20E JUMPI PUSH2 0x1F6 JUMPI JUMPDEST POP DUP1 PUSH32 0x9B8B9FD151330B7D89319C88ADC1BA5B0E63288A430BAC1173B0AF4570586B63 SWAP2 LOG2 DUP1 RETURN JUMPDEST PUSH2 0x1FF SWAP1 PUSH2 0x1E3C JUMP JUMPDEST PUSH2 0x20A JUMPI DUP2 CODESIZE PUSH2 0x1CE JUMP JUMPDEST POP DUP1 REVERT JUMPDEST PUSH1 0x40 MLOAD RETURNDATASIZE DUP5 DUP3 RETURNDATACOPY RETURNDATASIZE SWAP1 REVERT JUMPDEST DUP3 DUP1 REVERT JUMPDEST DUP1 REVERT JUMPDEST POP CALLVALUE PUSH2 0x21D JUMPI PUSH1 0x20 CALLDATASIZE PUSH1 0x3 NOT ADD SLT PUSH2 0x21D JUMPI PUSH2 0x23A PUSH2 0x1D41 JUMP JUMPDEST PUSH2 0x242 PUSH2 0x1DED JUMP JUMPDEST PUSH1 0x1 PUSH1 0x1 PUSH1 0xA0 SHL SUB SWAP1 DUP2 AND SWAP1 DUP2 ISZERO PUSH2 0x297 JUMPI PUSH1 0x0 SLOAD DUP3 PUSH12 0xFFFFFFFFFFFFFFFFFFFFFFFF PUSH1 0xA0 SHL DUP3 AND OR PUSH1 0x0 SSTORE AND PUSH32 0x8BE0079C531659141344CD1FD0A4F28419497F9722A3DAAFE3B4186F6B6457E0 PUSH1 0x0 DUP1 LOG3 DUP1 RETURN JUMPDEST PUSH1 0x40 MLOAD PUSH4 0x1E4FBDF7 PUSH1 0xE0 SHL DUP2 MSTORE PUSH1 0x4 DUP2 ADD DUP5 SWAP1 MSTORE PUSH1 0x24 SWAP1 REVERT JUMPDEST POP CALLVALUE PUSH2 0x21D JUMPI DUP1 PUSH1 0x3 NOT CALLDATASIZE ADD SLT PUSH2 0x21D JUMPI PUSH1 0x20 PUSH1 0x1 SLOAD PUSH1 0x40 MLOAD SWAP1 DUP2 MSTORE RETURN JUMPDEST POP CALLVALUE PUSH2 0x21D JUMPI DUP1 PUSH1 0x3 NOT CALLDATASIZE ADD SLT PUSH2 0x21D JUMPI PUSH1 0x40 MLOAD PUSH32 0x0 PUSH1 0x1 PUSH1 0x1 PUSH1 0xA0 SHL SUB AND DUP2 MSTORE PUSH1 0x20 SWAP1 RETURN JUMPDEST POP CALLVALUE PUSH2 0x21D JUMPI DUP1 PUSH1 0x3 NOT CALLDATASIZE ADD SLT PUSH2 0x21D JUMPI PUSH1 0x20 PUSH1 0x40 MLOAD PUSH2 0x3E8 DUP2 MSTORE RETURN JUMPDEST POP CALLVALUE PUSH2 0x21D JUMPI PUSH1 0x20 CALLDATASIZE PUSH1 0x3 NOT ADD SLT PUSH2 0x21D JUMPI DUP1 PUSH2 0x34B PUSH2 0x1D41 JUMP JUMPDEST PUSH2 0x353 PUSH2 0x1DED JUMP JUMPDEST PUSH1 0x1 DUP1 PUSH1 0xA0 SHL SUB DUP1 SWAP2 AND SWAP1 DUP2 DUP4 MSTORE PUSH1 0x5 PUSH1 0x20 MSTORE PUSH2 0x377 PUSH1 0x40 DUP5 KECCAK256 SLOAD PUSH1 0x6 SLOAD GT PUSH2 0x2227 JUMP JUMPDEST PUSH1 0x40 MLOAD PUSH4 0x222E555 PUSH1 0xE2 SHL DUP2 MSTORE PUSH1 0x20 DUP2 PUSH1 0x4 DUP2 PUSH32 0x0 DUP7 AND GAS STATICCALL SWAP1 DUP2 ISZERO PUSH2 0x435 JUMPI DUP5 SWAP2 PUSH2 0x407 JUMPI JUMPDEST POP AND SWAP1 DUP2 EXTCODESIZE ISZERO PUSH2 0x403 JUMPI DUP3 SWAP2 PUSH1 0x24 DUP4 SWAP3 PUSH1 0x40 MLOAD SWAP5 DUP6 SWAP4 DUP5 SWAP3 PUSH4 0x4902FD7F PUSH1 0xE1 SHL DUP5 MSTORE PUSH1 0x4 DUP5 ADD MSTORE GAS CALL DUP1 ISZERO PUSH2 0x20E JUMPI PUSH2 0x3F3 JUMPI POP RETURN JUMPDEST PUSH2 0x3FC SWAP1 PUSH2 0x1E3C JUMP JUMPDEST PUSH2 0x21D JUMPI DUP1 RETURN JUMPDEST POP POP REVERT JUMPDEST PUSH2 0x428 SWAP2 POP PUSH1 0x20 RETURNDATASIZE DUP2 GT PUSH2 0x42E JUMPI JUMPDEST PUSH2 0x420 DUP2 DUP4 PUSH2 0x1E66 JUMP JUMPDEST DUP2 ADD SWAP1 PUSH2 0x1FD1 JUMP JUMPDEST CODESIZE PUSH2 0x3BD JUMP JUMPDEST POP RETURNDATASIZE PUSH2 0x416 JUMP JUMPDEST PUSH1 0x40 MLOAD RETURNDATASIZE DUP7 DUP3 RETURNDATACOPY RETURNDATASIZE SWAP1 REVERT JUMPDEST POP CALLVALUE PUSH2 0x21D JUMPI DUP1 PUSH1 0x3 NOT CALLDATASIZE ADD SLT PUSH2 0x21D JUMPI PUSH1 0x20 PUSH1 0x6 SLOAD PUSH1 0x40 MLOAD SWAP1 DUP2 MSTORE RETURN JUMPDEST POP CALLVALUE PUSH2 0x21D JUMPI PUSH1 0x40 CALLDATASIZE PUSH1 0x3 NOT ADD SLT PUSH2 0x21D JUMPI PUSH1 0x4 CALLDATALOAD PUSH8 0xFFFFFFFFFFFFFFFF DUP2 GT PUSH2 0x20A JUMPI PUSH2 0x490 SWAP1 CALLDATASIZE SWAP1 PUSH1 0x4 ADD PUSH2 0x1DBC JUMP JUMPDEST SWAP1 PUSH1 0x24 DUP1 CALLDATALOAD SWAP1 PUSH1 0x1 SWAP1 PUSH2 0x4A6 DUP3 SLOAD DUP5 GT ISZERO PUSH2 0x1F95 JUMP JUMPDEST DUP5 ISZERO PUSH2 0x7E7 JUMPI DUP6 SWAP5 DUP6 JUMPDEST DUP2 DUP2 LT PUSH2 0x567 JUMPI DUP7 PUSH2 0x4F0 PUSH1 0x20 DUP11 PUSH2 0x4C9 DUP2 ISZERO ISZERO PUSH2 0x21BC JUMP JUMPDEST PUSH1 0x40 MLOAD PUSH4 0xA9059CBB PUSH1 0xE0 SHL DUP2 MSTORE CALLER PUSH1 0x4 DUP3 ADD MSTORE PUSH1 0x24 DUP2 ADD SWAP2 SWAP1 SWAP2 MSTORE SWAP2 DUP3 SWAP1 DUP2 SWAP1 PUSH1 0x44 DUP3 ADD SWAP1 JUMP JUMPDEST SUB DUP2 DUP6 PUSH32 0x0 PUSH1 0x1 PUSH1 0x1 PUSH1 0xA0 SHL SUB AND GAS CALL DUP1 ISZERO PUSH2 0x20E JUMPI PUSH2 0x536 SWAP2 DUP4 SWAP2 PUSH2 0x539 JUMPI JUMPDEST POP PUSH2 0x1EA0 JUMP JUMPDEST DUP1 RETURN JUMPDEST PUSH2 0x55A SWAP2 POP PUSH1 0x20 RETURNDATASIZE DUP2 GT PUSH2 0x560 JUMPI JUMPDEST PUSH2 0x552 DUP2 DUP4 PUSH2 0x1E66 JUMP JUMPDEST DUP2 ADD SWAP1 PUSH2 0x1E88 JUMP JUMPDEST DUP4 PUSH2 0x530 JUMP JUMPDEST POP RETURNDATASIZE PUSH2 0x548 JUMP JUMPDEST PUSH2 0x572 DUP2 DUP4 DUP9 PUSH2 0x21AC JUMP JUMPDEST PUSH1 0x1 PUSH1 0x1 PUSH1 0xA0 SHL SUB SWAP9 SWAP1 CALLDATALOAD DUP10 DUP2 AND SWAP1 DUP2 SWAP1 SUB PUSH2 0x7E3 JUMPI DUP7 DUP10 MSTORE PUSH1 0x20 PUSH1 0x4 DUP2 MSTORE PUSH1 0x40 DUP11 KECCAK256 CALLER PUSH1 0x0 MSTORE DUP2 MSTORE PUSH1 0x40 PUSH1 0x0 KECCAK256 DUP3 PUSH1 0x0 MSTORE DUP2 MSTORE PUSH1 0xFF PUSH1 0x40 PUSH1 0x0 KECCAK256 SLOAD AND PUSH2 0x792 JUMPI DUP10 SWAP11 DUP9 DUP12 MSTORE PUSH1 0x2 DUP3 MSTORE PUSH1 0x40 DUP12 KECCAK256 SWAP1 PUSH1 0x40 MLOAD PUSH4 0x6FAD7E95 PUSH1 0xE1 SHL DUP2 MSTORE DUP4 DUP2 PUSH1 0x4 DUP2 DUP9 GAS STATICCALL SWAP2 DUP3 ISZERO PUSH2 0x72F JUMPI DUP14 DUP12 SWAP3 DUP2 SWAP5 PUSH2 0x770 JUMPI JUMPDEST POP DUP1 DUP8 PUSH1 0x40 SWAP3 MSTORE PUSH1 0x5 DUP8 MSTORE KECCAK256 SLOAD SWAP3 AND SWAP3 ADD SLOAD SWAP2 PUSH1 0x40 MLOAD SWAP3 PUSH4 0xC4DB40D PUSH1 0xE3 SHL DUP5 MSTORE CALLER PUSH1 0x4 DUP6 ADD MSTORE DUP11 DUP11 DUP6 ADD MSTORE PUSH1 0x44 DUP5 ADD MSTORE DUP4 DUP4 PUSH1 0x64 DUP2 DUP5 GAS STATICCALL SWAP3 DUP4 ISZERO PUSH2 0x72F JUMPI DUP14 SWAP4 PUSH2 0x73A JUMPI JUMPDEST POP SWAP1 DUP4 PUSH1 0x4 SWAP4 SWAP3 PUSH1 0x40 MLOAD SWAP5 DUP6 DUP1 SWAP3 PUSH4 0x3A98EF39 PUSH1 0xE0 SHL DUP3 MSTORE GAS STATICCALL SWAP3 DUP4 ISZERO PUSH2 0x72F JUMPI DUP14 SWAP4 PUSH2 0x6E7 JUMPI JUMPDEST POP SWAP3 PUSH1 0x40 PUSH2 0x6A8 PUSH2 0x6A1 DUP14 SWAP8 SWAP6 PUSH2 0x69C PUSH32 0x7863FD81B035CA44D1AF7B7B984F297C3CF2EF391A2F2E978A98670F200A4EB SWAP7 PUSH2 0x697 PUSH2 0x6DF SWAP14 SWAP13 SWAP11 DUP13 PUSH2 0x1F11 JUMP JUMPDEST PUSH2 0x1EDE JUMP JUMPDEST PUSH2 0x1EF1 JUMP JUMPDEST DUP1 SWAP7 PUSH2 0x1E19 JUMP JUMPDEST SWAP14 DUP7 DUP2 MSTORE PUSH1 0x4 DUP4 MSTORE KECCAK256 CALLER PUSH1 0x0 MSTORE DUP2 MSTORE PUSH1 0x40 PUSH1 0x0 KECCAK256 DUP4 PUSH1 0x0 MSTORE DUP2 MSTORE PUSH1 0x40 PUSH1 0x0 KECCAK256 DUP11 PUSH1 0xFF NOT DUP3 SLOAD AND OR SWAP1 SSTORE PUSH1 0x40 MLOAD SWAP4 DUP5 MSTORE CALLER SWAP4 LOG4 PUSH2 0x219D JUMP JUMPDEST SWAP7 SWAP6 SWAP7 PUSH2 0x4B0 JUMP JUMPDEST DUP5 DUP1 SWAP15 POP DUP2 SWAP7 SWAP5 POP SWAP2 SWAP8 SWAP7 SWAP5 RETURNDATASIZE DUP4 GT PUSH2 0x728 JUMPI JUMPDEST PUSH2 0x705 DUP2 DUP4 PUSH2 0x1E66 JUMP JUMPDEST DUP2 ADD SUB SLT PUSH2 0x723 JUMPI SWAP3 MLOAD DUP13 SWAP12 SWAP5 SWAP6 SWAP3 SWAP5 SWAP2 SWAP4 SWAP2 SWAP3 SWAP1 SWAP2 SWAP1 PUSH1 0x40 PUSH2 0x656 JUMP JUMPDEST PUSH1 0x0 DUP1 REVERT JUMPDEST POP RETURNDATASIZE PUSH2 0x6FB JUMP JUMPDEST PUSH1 0x40 MLOAD RETURNDATASIZE DUP16 DUP3 RETURNDATACOPY RETURNDATASIZE SWAP1 REVERT JUMPDEST DUP5 DUP1 SWAP3 SWAP4 SWAP15 POP DUP2 SWAP5 POP RETURNDATASIZE DUP4 GT PUSH2 0x769 JUMPI JUMPDEST PUSH2 0x755 DUP2 DUP4 PUSH2 0x1E66 JUMP JUMPDEST DUP2 ADD SUB SLT PUSH2 0x723 JUMPI SWAP1 MLOAD DUP13 SWAP12 SWAP1 SWAP2 DUP4 PUSH2 0x62E JUMP JUMPDEST POP RETURNDATASIZE PUSH2 0x74B JUMP JUMPDEST PUSH1 0x40 SWAP2 SWAP5 POP PUSH2 0x78B SWAP1 DUP8 RETURNDATASIZE DUP10 GT PUSH2 0x42E JUMPI PUSH2 0x420 DUP2 DUP4 PUSH2 0x1E66 JUMP JUMPDEST SWAP4 SWAP1 PUSH2 0x5E7 JUMP JUMPDEST PUSH1 0x84 SWAP1 PUSH1 0x25 DUP8 PUSH1 0x40 MLOAD SWAP3 PUSH3 0x461BCD PUSH1 0xE5 SHL DUP5 MSTORE PUSH1 0x4 DUP5 ADD MSTORE DUP3 ADD MSTORE PUSH32 0x416C726561647920636C61696D656420666F7220746869732077726170706564 PUSH1 0x44 DUP3 ADD MSTORE PUSH5 0x20736F6E67 PUSH1 0xD8 SHL PUSH1 0x64 DUP3 ADD MSTORE REVERT JUMPDEST DUP9 DUP1 REVERT JUMPDEST PUSH1 0x64 SWAP1 PUSH1 0x19 PUSH1 0x40 MLOAD SWAP2 PUSH3 0x461BCD PUSH1 0xE5 SHL DUP4 MSTORE PUSH1 0x20 PUSH1 0x4 DUP5 ADD MSTORE DUP3 ADD MSTORE PUSH32 0x456D707479207772617070656420736F6E677320617272617900000000000000 PUSH1 0x44 DUP3 ADD MSTORE REVERT JUMPDEST POP CALLVALUE PUSH2 0x21D JUMPI PUSH1 0x40 CALLDATASIZE PUSH1 0x3 NOT ADD SLT PUSH2 0x21D JUMPI PUSH2 0x845 PUSH2 0x1D41 JUMP JUMPDEST PUSH1 0x24 CALLDATALOAD DUP1 ISZERO ISZERO DUP1 SWAP2 SUB PUSH2 0x723 JUMPI DUP3 SWAP2 PUSH2 0x85C PUSH2 0x1DED JUMP JUMPDEST PUSH1 0x1 DUP1 PUSH1 0xA0 SHL SUB DUP1 SWAP2 AND SWAP1 DUP2 DUP5 MSTORE PUSH1 0x5 PUSH1 0x20 MSTORE PUSH2 0x880 PUSH1 0x40 DUP6 KECCAK256 SLOAD PUSH1 0x6 SLOAD GT PUSH2 0x2227 JUMP JUMPDEST PUSH32 0x0 AND SWAP2 DUP3 EXTCODESIZE ISZERO PUSH2 0x8DA JUMPI PUSH1 0x44 DUP5 SWAP3 DUP4 PUSH1 0x40 MLOAD SWAP6 DUP7 SWAP5 DUP6 SWAP4 PUSH4 0xBE94E319 PUSH1 0xE0 SHL DUP6 MSTORE PUSH1 0x4 DUP6 ADD MSTORE PUSH1 0x24 DUP5 ADD MSTORE GAS CALL DUP1 ISZERO PUSH2 0x20E JUMPI PUSH2 0x3F3 JUMPI POP RETURN JUMPDEST POP POP POP REVERT JUMPDEST POP CALLVALUE PUSH2 0x21D JUMPI PUSH1 0x40 CALLDATASIZE PUSH1 0x3 NOT ADD SLT PUSH2 0x21D JUMPI PUSH2 0x8F9 PUSH2 0x1D41 JUMP JUMPDEST PUSH1 0x24 CALLDATALOAD SWAP1 DUP2 DUP4 MSTORE PUSH1 0x20 SWAP1 PUSH1 0x4 DUP3 MSTORE PUSH1 0x40 DUP5 KECCAK256 CALLER PUSH1 0x0 MSTORE DUP3 MSTORE PUSH1 0x40 PUSH1 0x0 KECCAK256 SWAP1 PUSH1 0x1 DUP1 PUSH1 0xA0 SHL SUB DUP1 SWAP2 AND SWAP2 DUP3 PUSH1 0x0 MSTORE DUP4 MSTORE PUSH1 0xFF PUSH1 0x40 PUSH1 0x0 KECCAK256 SLOAD AND PUSH2 0xB72 JUMPI PUSH2 0x943 PUSH1 0x1 SLOAD DUP6 GT ISZERO PUSH2 0x1F95 JUMP JUMPDEST DUP4 DUP6 MSTORE PUSH1 0x2 DUP4 MSTORE PUSH1 0x40 DUP1 DUP7 KECCAK256 SWAP1 MLOAD PUSH4 0x6FAD7E95 PUSH1 0xE1 SHL DUP2 MSTORE DUP5 DUP2 PUSH1 0x4 DUP2 DUP8 GAS STATICCALL SWAP1 DUP2 ISZERO PUSH2 0xB67 JUMPI DUP8 SWAP2 PUSH2 0xB4A JUMPI JUMPDEST POP DUP4 DUP8 MSTORE PUSH1 0x5 DUP6 MSTORE PUSH1 0x1 DUP4 PUSH1 0x40 DUP10 KECCAK256 SLOAD SWAP3 AND SWAP3 ADD SLOAD SWAP1 PUSH1 0x40 MLOAD SWAP2 PUSH4 0xC4DB40D PUSH1 0xE3 SHL DUP4 MSTORE CALLER PUSH1 0x4 DUP5 ADD MSTORE PUSH1 0x1 PUSH1 0x24 DUP5 ADD MSTORE PUSH1 0x44 DUP4 ADD MSTORE DUP6 DUP3 PUSH1 0x64 DUP2 DUP7 GAS STATICCALL SWAP2 DUP3 ISZERO PUSH2 0xB0F JUMPI DUP7 SWAP1 DUP10 SWAP4 PUSH2 0xB1A JUMPI JUMPDEST POP PUSH1 0x40 MLOAD PUSH4 0x3A98EF39 PUSH1 0xE0 SHL DUP2 MSTORE SWAP3 SWAP4 DUP4 SWAP1 PUSH1 0x4 SWAP1 DUP3 SWAP1 GAS STATICCALL SWAP2 DUP3 ISZERO PUSH2 0xB0F JUMPI DUP9 SWAP3 PUSH2 0xADE JUMPI JUMPDEST POP PUSH2 0x9F8 SWAP3 PUSH2 0x697 PUSH2 0x69C SWAP3 DUP10 PUSH2 0x1F11 JUMP JUMPDEST DUP5 DUP7 MSTORE PUSH1 0x4 DUP1 DUP6 MSTORE PUSH1 0x40 DUP1 DUP9 KECCAK256 CALLER PUSH1 0x0 DUP2 DUP2 MSTORE SWAP2 DUP9 MSTORE DUP3 DUP3 KECCAK256 DUP8 DUP4 MSTORE DUP9 MSTORE SWAP1 DUP3 SWAP1 KECCAK256 DUP1 SLOAD PUSH1 0xFF NOT AND PUSH1 0x1 OR SWAP1 SSTORE SWAP1 MLOAD PUSH4 0xA9059CBB PUSH1 0xE0 SHL DUP2 MSTORE SWAP2 DUP3 ADD MSTORE PUSH1 0x24 DUP2 ADD DUP3 SWAP1 MSTORE SWAP1 SWAP4 SWAP1 SWAP2 DUP2 SWAP1 DUP4 SWAP1 DUP2 DUP10 DUP2 PUSH1 0x44 DUP2 ADD SUB SWAP3 PUSH32 0x0 AND GAS CALL SWAP2 DUP3 ISZERO PUSH2 0xAD3 JUMPI PUSH32 0x7863FD81B035CA44D1AF7B7B984F297C3CF2EF391A2F2E978A98670F200A4EB SWAP3 PUSH2 0xAAA SWAP2 DUP9 SWAP2 PUSH2 0xAB6 JUMPI POP PUSH2 0x1EA0 JUMP JUMPDEST PUSH1 0x40 MLOAD SWAP4 DUP5 MSTORE CALLER SWAP4 LOG4 DUP1 RETURN JUMPDEST PUSH2 0xACD SWAP2 POP DUP4 RETURNDATASIZE DUP6 GT PUSH2 0x560 JUMPI PUSH2 0x552 DUP2 DUP4 PUSH2 0x1E66 JUMP JUMPDEST CODESIZE PUSH2 0x530 JUMP JUMPDEST PUSH1 0x40 MLOAD RETURNDATASIZE DUP9 DUP3 RETURNDATACOPY RETURNDATASIZE SWAP1 REVERT JUMPDEST SWAP1 SWAP2 POP DUP6 DUP2 DUP2 RETURNDATASIZE DUP4 GT PUSH2 0xB08 JUMPI JUMPDEST PUSH2 0xAF6 DUP2 DUP4 PUSH2 0x1E66 JUMP JUMPDEST DUP2 ADD SUB SLT PUSH2 0x723 JUMPI MLOAD SWAP1 PUSH2 0x9F8 PUSH2 0x9E6 JUMP JUMPDEST POP RETURNDATASIZE PUSH2 0xAEC JUMP JUMPDEST PUSH1 0x40 MLOAD RETURNDATASIZE DUP11 DUP3 RETURNDATACOPY RETURNDATASIZE SWAP1 REVERT JUMPDEST DUP1 SWAP4 POP DUP2 RETURNDATASIZE DUP4 GT PUSH2 0xB43 JUMPI JUMPDEST PUSH2 0xB30 DUP2 DUP4 PUSH2 0x1E66 JUMP JUMPDEST DUP2 ADD SUB SLT PUSH2 0x723 JUMPI DUP6 PUSH1 0x4 SWAP3 MLOAD SWAP3 PUSH2 0x9BF JUMP JUMPDEST POP RETURNDATASIZE PUSH2 0xB26 JUMP JUMPDEST PUSH2 0xB61 SWAP2 POP DUP6 RETURNDATASIZE DUP8 GT PUSH2 0x42E JUMPI PUSH2 0x420 DUP2 DUP4 PUSH2 0x1E66 JUMP JUMPDEST CODESIZE PUSH2 0x971 JUMP JUMPDEST PUSH1 0x40 MLOAD RETURNDATASIZE DUP10 DUP3 RETURNDATACOPY RETURNDATASIZE SWAP1 REVERT JUMPDEST PUSH1 0x40 MLOAD PUSH3 0x461BCD PUSH1 0xE5 SHL DUP2 MSTORE PUSH1 0x4 DUP2 ADD DUP5 SWAP1 MSTORE PUSH1 0xF PUSH1 0x24 DUP3 ADD MSTORE PUSH15 0x105B1C9958591E4818DB185A5B5959 PUSH1 0x8A SHL PUSH1 0x44 DUP3 ADD MSTORE PUSH1 0x64 SWAP1 REVERT JUMPDEST POP CALLVALUE PUSH2 0x21D JUMPI PUSH1 0x20 CALLDATASIZE PUSH1 0x3 NOT ADD SLT PUSH2 0x21D JUMPI PUSH1 0x20 SWAP1 PUSH1 0x40 SWAP1 PUSH1 0x1 PUSH1 0x1 PUSH1 0xA0 SHL SUB PUSH2 0xBD1 PUSH2 0x1D41 JUMP JUMPDEST AND DUP2 MSTORE PUSH1 0x5 DUP4 MSTORE KECCAK256 SLOAD PUSH1 0x40 MLOAD SWAP1 DUP2 MSTORE RETURN JUMPDEST POP CALLVALUE PUSH2 0x21D JUMPI PUSH1 0x20 DUP1 PUSH1 0x3 NOT CALLDATASIZE ADD SLT PUSH2 0x20A JUMPI PUSH2 0xBFD PUSH2 0x1D41 JUMP JUMPDEST SWAP1 PUSH2 0xC06 PUSH2 0x1DED JUMP JUMPDEST PUSH1 0x40 MLOAD PUSH4 0x63DF2F15 PUSH1 0xE1 SHL DUP2 MSTORE PUSH1 0x1 PUSH1 0x1 PUSH1 0xA0 SHL SUB SWAP3 DUP4 AND PUSH1 0x4 DUP3 ADD DUP2 SWAP1 MSTORE SWAP3 SWAP1 PUSH32 0x0 DUP3 AND SWAP1 DUP4 DUP2 PUSH1 0x24 DUP2 DUP6 GAS STATICCALL SWAP1 DUP2 ISZERO PUSH2 0xAD3 JUMPI DUP7 SWAP2 PUSH2 0xD99 JUMPI JUMPDEST POP DUP3 ADDRESS SWAP2 AND SUB PUSH2 0xD54 JUMPI DUP1 DUP6 SWAP2 EXTCODESIZE ISZERO PUSH2 0x20A JUMPI DUP2 DUP1 SWAP2 PUSH1 0x24 PUSH1 0x40 MLOAD DUP1 SWAP5 DUP2 SWAP4 PUSH4 0xB0C70E27 PUSH1 0xE0 SHL DUP4 MSTORE DUP11 PUSH1 0x4 DUP5 ADD MSTORE GAS CALL DUP1 ISZERO PUSH2 0x20E JUMPI PUSH2 0xD3C JUMPI JUMPDEST POP POP PUSH1 0x6 SLOAD PUSH1 0x1 PUSH1 0x40 SHL DUP2 LT ISZERO PUSH2 0xD28 JUMPI DUP1 PUSH1 0x1 PUSH2 0xCBE SWAP3 ADD PUSH1 0x6 SSTORE PUSH2 0x1D57 JUMP JUMPDEST DUP2 SWAP3 SWAP2 SLOAD SWAP1 PUSH1 0x3 SHL SWAP2 DUP6 DUP4 SHL SWAP3 SHL NOT AND OR SWAP1 SSTORE PUSH1 0x6 SLOAD SWAP1 PUSH1 0x0 NOT DUP3 ADD SWAP2 DUP3 GT PUSH2 0xD14 JUMPI PUSH1 0x5 SWAP1 DUP4 DUP6 MSTORE MSTORE PUSH1 0x40 DUP4 KECCAK256 SSTORE PUSH32 0xE1649799FD93D14E82CCAB2710A96C6B05AF2496C30F0C9401E159F568813EFD DUP3 DUP1 LOG2 DUP1 RETURN JUMPDEST PUSH4 0x4E487B71 PUSH1 0xE0 SHL DUP5 MSTORE PUSH1 0x11 PUSH1 0x4 MSTORE PUSH1 0x24 DUP5 REVERT JUMPDEST PUSH4 0x4E487B71 PUSH1 0xE0 SHL DUP6 MSTORE PUSH1 0x41 PUSH1 0x4 MSTORE PUSH1 0x24 DUP6 REVERT JUMPDEST PUSH2 0xD45 SWAP1 PUSH2 0x1E3C JUMP JUMPDEST PUSH2 0xD50 JUMPI DUP4 CODESIZE PUSH2 0xC9D JUMP JUMPDEST DUP4 DUP1 REVERT JUMPDEST PUSH1 0x40 MLOAD PUSH3 0x461BCD PUSH1 0xE5 SHL DUP2 MSTORE PUSH1 0x4 DUP2 ADD DUP5 SWAP1 MSTORE PUSH1 0x1B PUSH1 0x24 DUP3 ADD MSTORE PUSH32 0x4E6F74207468652070656E64696E67206469737472696275746F720000000000 PUSH1 0x44 DUP3 ADD MSTORE PUSH1 0x64 SWAP1 REVERT JUMPDEST PUSH2 0xDB0 SWAP2 POP DUP5 RETURNDATASIZE DUP7 GT PUSH2 0x42E JUMPI PUSH2 0x420 DUP2 DUP4 PUSH2 0x1E66 JUMP JUMPDEST CODESIZE PUSH2 0xC61 JUMP JUMPDEST POP CALLVALUE PUSH2 0x21D JUMPI PUSH1 0x60 CALLDATASIZE PUSH1 0x3 NOT ADD SLT PUSH2 0x21D JUMPI PUSH2 0xDD0 PUSH2 0x1D41 JUMP JUMPDEST SWAP1 PUSH2 0xDD9 PUSH2 0x1D2B JUMP JUMPDEST SWAP2 PUSH1 0x44 CALLDATALOAD PUSH8 0xFFFFFFFFFFFFFFFF DUP2 GT PUSH2 0x219 JUMPI PUSH2 0xDFA SWAP1 CALLDATASIZE SWAP1 PUSH1 0x4 ADD PUSH2 0x1DBC JUMP JUMPDEST PUSH1 0x40 MLOAD PUSH4 0x6FAD7E95 PUSH1 0xE1 SHL DUP2 MSTORE SWAP1 SWAP5 SWAP1 SWAP3 SWAP1 SWAP2 PUSH1 0x1 PUSH1 0x1 PUSH1 0xA0 SHL SUB SWAP1 PUSH1 0x20 DUP6 PUSH1 0x4 DUP2 DUP6 DUP8 AND GAS STATICCALL SWAP5 DUP6 ISZERO PUSH2 0xAD3 JUMPI DUP7 SWAP6 PUSH2 0x1053 JUMPI JUMPDEST POP DUP2 DUP4 AND DUP7 MSTORE PUSH1 0x5 PUSH1 0x20 MSTORE PUSH1 0x40 DUP7 KECCAK256 SLOAD SWAP2 PUSH1 0x40 MLOAD SWAP5 PUSH4 0x3A98EF39 PUSH1 0xE0 SHL DUP7 MSTORE PUSH1 0x20 DUP7 PUSH1 0x4 DUP2 DUP6 DUP12 AND GAS STATICCALL SWAP6 DUP7 ISZERO PUSH2 0xB0F JUMPI DUP9 SWAP7 PUSH2 0x101F JUMPI JUMPDEST POP PUSH2 0xE76 DUP10 SWAP8 SWAP10 SWAP6 SWAP4 SWAP6 PUSH2 0x21FB JUMP JUMPDEST SWAP9 PUSH2 0xE84 PUSH1 0x40 MLOAD SWAP11 DUP12 PUSH2 0x1E66 JUMP JUMPDEST DUP8 DUP11 MSTORE PUSH1 0x1F NOT PUSH2 0xE93 DUP10 PUSH2 0x21FB JUMP JUMPDEST ADD CALLDATASIZE PUSH1 0x20 DUP13 ADD CALLDATACOPY DUP9 SWAP4 PUSH1 0x1 SWAP9 DUP10 SLOAD SWAP6 JUMPDEST DUP2 DUP2 LT PUSH2 0xEEA JUMPI DUP13 DUP13 DUP13 PUSH1 0x40 MLOAD SWAP2 PUSH1 0x20 DUP4 ADD PUSH1 0x20 DUP5 MSTORE DUP5 MLOAD DUP1 SWAP2 MSTORE PUSH1 0x20 PUSH1 0x40 DUP6 ADD SWAP6 ADD SWAP2 JUMPDEST DUP2 DUP2 LT PUSH2 0xED5 JUMPI DUP5 DUP7 SUB DUP6 RETURN JUMPDEST DUP3 MLOAD DUP7 MSTORE PUSH1 0x20 SWAP6 DUP7 ADD SWAP6 SWAP1 SWAP3 ADD SWAP2 DUP4 ADD PUSH2 0xEC8 JUMP JUMPDEST DUP11 PUSH2 0xEF9 DUP3 SWAP13 SWAP15 SWAP13 DUP5 DUP13 PUSH2 0x21AC JUMP JUMPDEST CALLDATALOAD DUP14 DUP14 DUP11 DUP4 GT DUP1 ISZERO PUSH2 0xFEA JUMPI JUMPDEST PUSH2 0xFD7 JUMPI POP PUSH1 0x40 DUP2 DUP4 DUP6 SWAP4 MSTORE PUSH1 0x2 PUSH1 0x20 MSTORE KECCAK256 ADD SLOAD PUSH1 0x40 MLOAD SWAP3 PUSH4 0xC4DB40D PUSH1 0xE3 SHL DUP5 MSTORE DUP10 DUP10 AND PUSH1 0x4 DUP6 ADD MSTORE PUSH1 0x24 DUP5 ADD MSTORE PUSH1 0x44 DUP4 ADD MSTORE PUSH1 0x20 DUP3 PUSH1 0x64 DUP2 DUP12 DUP11 AND GAS STATICCALL SWAP2 DUP3 ISZERO PUSH2 0xFCA JUMPI SWAP2 DUP11 DUP16 SWAP3 DUP16 SWAP4 SWAP5 DUP16 SWAP7 SWAP6 SWAP4 PUSH2 0xF8A JUMPI JUMPDEST POP PUSH2 0xF82 SWAP6 PUSH2 0x69C PUSH2 0xF7C SWAP5 PUSH2 0x697 DUP9 SWAP6 PUSH2 0xF76 SWAP6 PUSH2 0x1F11 JUMP JUMPDEST SWAP3 PUSH2 0x2213 JUMP JUMPDEST MSTORE PUSH2 0x219D JUMP JUMPDEST SWAP12 SWAP10 SWAP12 PUSH2 0xEA3 JUMP JUMPDEST SWAP6 POP SWAP3 POP POP POP PUSH1 0x20 DUP4 RETURNDATASIZE PUSH1 0x20 GT PUSH2 0xFC2 JUMPI JUMPDEST DUP2 PUSH2 0xFA9 PUSH1 0x20 SWAP4 DUP4 PUSH2 0x1E66 JUMP JUMPDEST DUP2 ADD SUB SLT PUSH2 0x723 JUMPI SWAP2 MLOAD DUP12 SWAP3 DUP14 SWAP2 SWAP1 DUP12 SWAP1 PUSH2 0xF82 PUSH2 0xF5C JUMP JUMPDEST RETURNDATASIZE SWAP2 POP PUSH2 0xF9C JUMP JUMPDEST DUP15 PUSH1 0x40 MLOAD SWAP1 RETURNDATASIZE SWAP1 DUP3 RETURNDATACOPY RETURNDATASIZE SWAP1 REVERT JUMPDEST DUP5 SWAP4 POP PUSH2 0xF7C SWAP2 SWAP3 POP SWAP4 PUSH2 0xF82 SWAP5 PUSH2 0x2213 JUMP JUMPDEST POP POP DUP1 DUP3 PUSH1 0x40 SWAP3 MSTORE PUSH1 0x4 PUSH1 0x20 MSTORE KECCAK256 DUP9 DUP9 AND PUSH1 0x0 MSTORE PUSH1 0x20 MSTORE PUSH1 0x40 PUSH1 0x0 KECCAK256 DUP9 DUP7 AND PUSH1 0x0 MSTORE PUSH1 0x20 MSTORE DUP14 DUP14 PUSH1 0xFF PUSH1 0x40 PUSH1 0x0 KECCAK256 SLOAD AND PUSH2 0xF06 JUMP JUMPDEST SWAP1 SWAP6 POP PUSH1 0x20 DUP2 RETURNDATASIZE PUSH1 0x20 GT PUSH2 0x104B JUMPI JUMPDEST DUP2 PUSH2 0x103B PUSH1 0x20 SWAP4 DUP4 PUSH2 0x1E66 JUMP JUMPDEST DUP2 ADD SUB SLT PUSH2 0x723 JUMPI MLOAD SWAP5 CODESIZE PUSH2 0xE67 JUMP JUMPDEST RETURNDATASIZE SWAP2 POP PUSH2 0x102E JUMP JUMPDEST PUSH2 0x106D SWAP2 SWAP6 POP PUSH1 0x20 RETURNDATASIZE PUSH1 0x20 GT PUSH2 0x42E JUMPI PUSH2 0x420 DUP2 DUP4 PUSH2 0x1E66 JUMP JUMPDEST SWAP4 CODESIZE PUSH2 0xE2F JUMP JUMPDEST POP CALLVALUE PUSH2 0x21D JUMPI PUSH1 0x40 CALLDATASIZE PUSH1 0x3 NOT ADD SLT PUSH2 0x21D JUMPI PUSH2 0x108E PUSH2 0x1D41 JUMP JUMPDEST PUSH1 0x24 CALLDATALOAD PUSH8 0xFFFFFFFFFFFFFFFF DUP2 GT PUSH2 0x219 JUMPI PUSH2 0x10AE SWAP1 CALLDATASIZE SWAP1 PUSH1 0x4 ADD PUSH2 0x1DBC JUMP JUMPDEST SWAP2 DUP3 ISZERO PUSH2 0x13B5 JUMPI PUSH1 0x40 MLOAD PUSH4 0x6FAD7E95 PUSH1 0xE1 SHL DUP2 MSTORE SWAP1 PUSH1 0x20 DUP3 PUSH1 0x4 DUP2 PUSH1 0x1 PUSH1 0x1 PUSH1 0xA0 SHL SUB DUP6 AND GAS STATICCALL SWAP2 DUP3 ISZERO PUSH2 0x13AA JUMPI DUP6 SWAP3 PUSH2 0x1389 JUMPI JUMPDEST POP PUSH1 0x1 DUP1 PUSH1 0xA0 SHL SUB DUP2 AND DUP6 MSTORE PUSH1 0x5 PUSH1 0x20 MSTORE PUSH1 0x40 DUP6 KECCAK256 SLOAD SWAP2 PUSH1 0x40 MLOAD SWAP1 PUSH4 0x3A98EF39 PUSH1 0xE0 SHL DUP3 MSTORE PUSH1 0x20 DUP3 PUSH1 0x4 DUP2 PUSH1 0x1 DUP1 PUSH1 0xA0 SHL SUB DUP6 AND GAS STATICCALL SWAP2 DUP3 ISZERO PUSH2 0xB67 JUMPI DUP8 SWAP3 PUSH2 0x1355 JUMPI JUMPDEST POP DUP7 SWAP6 DUP8 JUMPDEST DUP2 DUP2 LT PUSH2 0x11A3 JUMPI DUP9 PUSH2 0x1145 PUSH1 0x20 DUP11 PUSH2 0x4C9 DUP2 ISZERO ISZERO PUSH2 0x21BC JUMP JUMPDEST SUB DUP2 DUP6 PUSH32 0x0 PUSH1 0x1 PUSH1 0x1 PUSH1 0xA0 SHL SUB AND GAS CALL DUP1 ISZERO PUSH2 0x20E JUMPI PUSH2 0x536 SWAP2 DUP4 SWAP2 PUSH2 0x118A JUMPI POP PUSH2 0x1EA0 JUMP JUMPDEST PUSH2 0x55A SWAP2 POP PUSH1 0x20 RETURNDATASIZE PUSH1 0x20 GT PUSH2 0x560 JUMPI PUSH2 0x552 DUP2 DUP4 PUSH2 0x1E66 JUMP JUMPDEST PUSH2 0x11AE DUP2 DUP4 DUP10 PUSH2 0x21AC JUMP JUMPDEST CALLDATALOAD SWAP1 PUSH2 0x11BE PUSH1 0x1 SLOAD DUP4 GT ISZERO PUSH2 0x1F95 JUMP JUMPDEST DUP2 DUP11 MSTORE PUSH1 0x4 PUSH1 0x20 MSTORE PUSH1 0x40 DUP11 KECCAK256 CALLER PUSH1 0x0 MSTORE PUSH1 0x20 MSTORE PUSH1 0x40 PUSH1 0x0 KECCAK256 PUSH1 0x1 DUP1 PUSH1 0xA0 SHL SUB DUP8 AND PUSH1 0x0 MSTORE PUSH1 0x20 MSTORE PUSH1 0xFF PUSH1 0x40 PUSH1 0x0 KECCAK256 SLOAD AND PUSH2 0x1318 JUMPI DUP2 DUP11 MSTORE PUSH1 0x2 PUSH1 0x20 MSTORE PUSH1 0x1 PUSH1 0x40 DUP12 KECCAK256 ADD SLOAD SWAP2 PUSH1 0x40 MLOAD SWAP3 PUSH4 0xC4DB40D PUSH1 0xE3 SHL DUP5 MSTORE CALLER PUSH1 0x4 DUP6 ADD MSTORE PUSH1 0x1 PUSH1 0x24 DUP6 ADD MSTORE PUSH1 0x44 DUP5 ADD MSTORE PUSH1 0x20 DUP4 PUSH1 0x64 DUP2 PUSH1 0x1 DUP1 PUSH1 0xA0 SHL SUB DUP10 AND GAS STATICCALL DUP1 ISZERO PUSH2 0x130D JUMPI DUP7 SWAP4 DUP13 SWAP2 PUSH2 0x12D4 JUMPI JUMPDEST POP PUSH2 0x125C PUSH2 0x12CF SWAP5 PUSH2 0x69C PUSH2 0x1263 SWAP4 PUSH2 0x697 DUP14 DUP8 PUSH2 0x1F11 JUMP JUMPDEST DUP1 SWAP12 PUSH2 0x1E19 JUMP JUMPDEST DUP2 DUP13 MSTORE PUSH1 0x4 PUSH1 0x20 SWAP1 DUP2 MSTORE PUSH1 0x40 DUP1 DUP15 KECCAK256 CALLER PUSH1 0x0 DUP2 DUP2 MSTORE SWAP2 DUP5 MSTORE DUP3 DUP3 KECCAK256 PUSH1 0x1 PUSH1 0x1 PUSH1 0xA0 SHL SUB DUP14 AND DUP1 DUP5 MSTORE SWAP1 DUP6 MSTORE SWAP2 DUP4 SWAP1 KECCAK256 DUP1 SLOAD PUSH1 0xFF NOT AND PUSH1 0x1 OR SWAP1 SSTORE SWAP2 MLOAD SWAP14 DUP15 MSTORE SWAP3 SWAP13 SWAP1 SWAP3 SWAP2 PUSH32 0x7863FD81B035CA44D1AF7B7B984F297C3CF2EF391A2F2E978A98670F200A4EB SWAP2 LOG4 PUSH2 0x219D JUMP JUMPDEST PUSH2 0x112C JUMP JUMPDEST SWAP4 POP POP PUSH1 0x20 DUP4 RETURNDATASIZE PUSH1 0x20 GT PUSH2 0x1305 JUMPI JUMPDEST DUP2 PUSH2 0x12F0 PUSH1 0x20 SWAP4 DUP4 PUSH2 0x1E66 JUMP JUMPDEST DUP2 ADD SUB SLT PUSH2 0x723 JUMPI SWAP2 MLOAD DUP6 SWAP3 SWAP1 PUSH2 0x125C PUSH2 0x1243 JUMP JUMPDEST RETURNDATASIZE SWAP2 POP PUSH2 0x12E3 JUMP JUMPDEST PUSH1 0x40 MLOAD RETURNDATASIZE DUP14 DUP3 RETURNDATACOPY RETURNDATASIZE SWAP1 REVERT JUMPDEST PUSH1 0x40 MLOAD PUSH3 0x461BCD PUSH1 0xE5 SHL DUP2 MSTORE PUSH1 0x20 PUSH1 0x4 DUP3 ADD MSTORE PUSH1 0x15 PUSH1 0x24 DUP3 ADD MSTORE PUSH21 0x115C1BD8DA08185B1C9958591E4818DB185A5B5959 PUSH1 0x5A SHL PUSH1 0x44 DUP3 ADD MSTORE PUSH1 0x64 SWAP1 REVERT JUMPDEST SWAP1 SWAP2 POP PUSH1 0x20 DUP2 RETURNDATASIZE PUSH1 0x20 GT PUSH2 0x1381 JUMPI JUMPDEST DUP2 PUSH2 0x1371 PUSH1 0x20 SWAP4 DUP4 PUSH2 0x1E66 JUMP JUMPDEST DUP2 ADD SUB SLT PUSH2 0x723 JUMPI MLOAD SWAP1 CODESIZE PUSH2 0x1127 JUMP JUMPDEST RETURNDATASIZE SWAP2 POP PUSH2 0x1364 JUMP JUMPDEST PUSH2 0x13A3 SWAP2 SWAP3 POP PUSH1 0x20 RETURNDATASIZE PUSH1 0x20 GT PUSH2 0x42E JUMPI PUSH2 0x420 DUP2 DUP4 PUSH2 0x1E66 JUMP JUMPDEST SWAP1 CODESIZE PUSH2 0x10E3 JUMP JUMPDEST PUSH1 0x40 MLOAD RETURNDATASIZE DUP8 DUP3 RETURNDATACOPY RETURNDATASIZE SWAP1 REVERT JUMPDEST PUSH1 0x40 MLOAD PUSH3 0x461BCD PUSH1 0xE5 SHL DUP2 MSTORE PUSH1 0x20 PUSH1 0x4 DUP3 ADD MSTORE PUSH1 0x12 PUSH1 0x24 DUP3 ADD MSTORE PUSH18 0x456D7074792065706F636873206172726179 PUSH1 0x70 SHL PUSH1 0x44 DUP3 ADD MSTORE PUSH1 0x64 SWAP1 REVERT JUMPDEST POP CALLVALUE PUSH2 0x21D JUMPI DUP1 PUSH1 0x3 NOT CALLDATASIZE ADD SLT PUSH2 0x21D JUMPI SLOAD PUSH1 0x40 MLOAD PUSH1 0x1 PUSH1 0x1 PUSH1 0xA0 SHL SUB SWAP1 SWAP2 AND DUP2 MSTORE PUSH1 0x20 SWAP1 RETURN JUMPDEST POP CALLVALUE PUSH2 0x21D JUMPI PUSH1 0xC0 CALLDATASIZE PUSH1 0x3 NOT ADD SLT PUSH2 0x21D JUMPI PUSH1 0x24 DUP1 CALLDATALOAD SWAP1 PUSH1 0x4 CALLDATALOAD SWAP1 PUSH8 0xFFFFFFFFFFFFFFFF SWAP1 PUSH1 0x44 CALLDATALOAD DUP3 DUP2 GT PUSH2 0x1797 JUMPI PUSH2 0x1453 SWAP1 CALLDATASIZE SWAP1 PUSH1 0x4 ADD PUSH2 0x1DBC JUMP JUMPDEST SWAP2 SWAP1 SWAP3 PUSH1 0x64 CALLDATALOAD SWAP2 PUSH1 0x84 CALLDATALOAD SWAP2 DUP3 ISZERO ISZERO DUP4 SUB PUSH2 0x723 JUMPI PUSH1 0xA4 CALLDATALOAD SWAP1 DUP2 ISZERO ISZERO DUP3 SUB PUSH2 0x723 JUMPI PUSH2 0x147C PUSH2 0x1DED JUMP JUMPDEST PUSH2 0x3E8 DUP7 GT PUSH2 0x1761 JUMPI PUSH1 0x1 SWAP4 DUP5 SLOAD DUP6 DUP2 ADD DUP1 SWAP2 GT PUSH2 0x174E JUMPI DUP10 SUB PUSH2 0x1717 JUMPI PUSH2 0x15FC JUMPI JUMPDEST DUP8 DUP11 MSTORE PUSH1 0x20 SWAP7 PUSH1 0x3 DUP9 MSTORE PUSH1 0x40 DUP12 KECCAK256 DUP11 DUP13 MSTORE DUP9 MSTORE PUSH1 0x40 DUP12 KECCAK256 SWAP2 DUP8 GT PUSH2 0x15E9 JUMPI PUSH1 0x1 PUSH1 0x40 SHL DUP8 GT PUSH2 0x15E9 JUMPI DUP2 SLOAD DUP8 DUP4 SSTORE DUP1 DUP9 LT PUSH2 0x15C2 JUMPI JUMPDEST POP SWAP1 DUP11 MSTORE DUP7 DUP11 KECCAK256 SWAP1 DUP5 DUP12 JUMPDEST DUP9 DUP2 LT PUSH2 0x15B0 JUMPI POP POP POP POP PUSH2 0x1520 JUMPI JUMPDEST POP POP POP SWAP1 PUSH32 0xAB2993BD1558CF55C0837B08905EDAC8717B4326267B02C82685343114526198 SWAP2 PUSH1 0x40 MLOAD SWAP1 DUP2 MSTORE LOG3 DUP1 RETURN JUMPDEST DUP2 DUP8 ADD SWAP1 DUP2 DUP9 GT PUSH2 0x159E JUMPI POP SWAP2 DUP6 DUP1 SWAP3 PUSH32 0xAB2993BD1558CF55C0837B08905EDAC8717B4326267B02C82685343114526198 SWAP7 SWAP6 SWAP5 DUP3 DUP12 MSTORE PUSH1 0x2 DUP8 MSTORE PUSH1 0x2 PUSH1 0x40 DUP13 KECCAK256 ADD SSTORE SSTORE PUSH1 0x40 MLOAD SWAP1 DUP2 MSTORE TIMESTAMP DUP5 DUP3 ADD MSTORE PUSH32 0xB52BE436C4D2A5BC18728D4F052344D91ED904F58693186DF6726A84F7B3C9A8 PUSH1 0x40 ADDRESS SWAP3 LOG3 SWAP1 SWAP2 CODESIZE DUP1 PUSH2 0x14F0 JUMP JUMPDEST PUSH4 0x4E487B71 PUSH1 0xE0 SHL DUP10 MSTORE PUSH1 0x11 PUSH1 0x4 MSTORE DUP9 REVERT JUMPDEST DUP10 DUP4 CALLDATALOAD SWAP4 ADD SWAP3 DUP2 DUP6 ADD SSTORE ADD DUP6 SWAP1 PUSH2 0x14E0 JUMP JUMPDEST DUP6 DUP9 DUP11 DUP15 DUP7 DUP2 MSTORE KECCAK256 SWAP3 DUP4 ADD SWAP3 ADD JUMPDEST DUP3 DUP2 LT PUSH2 0x15DE JUMPI POP POP PUSH2 0x14D5 JUMP JUMPDEST DUP14 DUP2 SSTORE ADD DUP7 SWAP1 PUSH2 0x15D0 JUMP JUMPDEST PUSH4 0x4E487B71 PUSH1 0xE0 SHL DUP12 MSTORE PUSH1 0x41 PUSH1 0x4 MSTORE DUP4 DUP12 REVERT JUMPDEST DUP5 ISZERO PUSH2 0x16DC JUMPI PUSH1 0x40 MLOAD PUSH4 0x23B872DD PUSH1 0xE0 SHL DUP2 MSTORE CALLER PUSH1 0x4 DUP3 ADD MSTORE ADDRESS DUP5 DUP3 ADD MSTORE PUSH1 0x44 DUP2 ADD DUP7 SWAP1 MSTORE PUSH1 0x20 DUP2 PUSH1 0x64 DUP2 DUP15 PUSH32 0x0 PUSH1 0x1 PUSH1 0x1 PUSH1 0xA0 SHL SUB AND GAS CALL DUP1 ISZERO PUSH2 0x130D JUMPI PUSH2 0x166A SWAP2 DUP13 SWAP2 PUSH2 0x16C4 JUMPI POP PUSH2 0x1EA0 JUMP JUMPDEST PUSH1 0x40 MLOAD PUSH1 0x60 DUP2 ADD DUP2 DUP2 LT DUP4 DUP3 GT OR PUSH2 0x16AF JUMPI PUSH1 0x40 MSTORE DUP6 DUP2 MSTORE PUSH1 0x2 DUP12 PUSH1 0x20 DUP4 ADD TIMESTAMP DUP2 MSTORE PUSH1 0x40 DUP1 DUP6 ADD SWAP3 DUP1 DUP5 MSTORE DUP14 DUP2 MSTORE DUP5 PUSH1 0x20 MSTORE KECCAK256 SWAP4 MLOAD DUP5 SSTORE MLOAD DUP8 DUP5 ADD SSTORE MLOAD SWAP2 ADD SSTORE PUSH2 0x149F JUMP JUMPDEST DUP5 PUSH4 0x4E487B71 PUSH1 0xE0 SHL PUSH1 0x0 MSTORE PUSH1 0x41 PUSH1 0x4 MSTORE PUSH1 0x0 REVERT JUMPDEST PUSH2 0xACD SWAP2 POP PUSH1 0x20 RETURNDATASIZE DUP2 GT PUSH2 0x560 JUMPI PUSH2 0x552 DUP2 DUP4 PUSH2 0x1E66 JUMP JUMPDEST PUSH1 0x40 MLOAD PUSH3 0x461BCD PUSH1 0xE5 SHL DUP2 MSTORE PUSH1 0x20 PUSH1 0x4 DUP3 ADD MSTORE PUSH1 0x14 DUP2 DUP6 ADD MSTORE PUSH20 0x125B9D985B1A59081D1BDD185B08185B5BDD5B9D PUSH1 0x62 SHL PUSH1 0x44 DUP3 ADD MSTORE PUSH1 0x64 SWAP1 REVERT JUMPDEST PUSH1 0x40 MLOAD PUSH3 0x461BCD PUSH1 0xE5 SHL DUP2 MSTORE PUSH1 0x20 PUSH1 0x4 DUP3 ADD MSTORE PUSH1 0x10 DUP2 DUP7 ADD MSTORE PUSH16 0x125B9D985B1A5908195C1BD8DA081A59 PUSH1 0x82 SHL PUSH1 0x44 DUP3 ADD MSTORE PUSH1 0x64 SWAP1 REVERT JUMPDEST PUSH4 0x4E487B71 PUSH1 0xE0 SHL DUP13 MSTORE PUSH1 0x11 PUSH1 0x4 MSTORE DUP5 DUP13 REVERT JUMPDEST PUSH1 0x40 MLOAD PUSH3 0x461BCD PUSH1 0xE5 SHL DUP2 MSTORE PUSH1 0x20 PUSH1 0x4 DUP3 ADD MSTORE PUSH1 0xF DUP2 DUP6 ADD MSTORE PUSH15 0x4368756E6B20746F6F206C61726765 PUSH1 0x88 SHL PUSH1 0x44 DUP3 ADD MSTORE PUSH1 0x64 SWAP1 REVERT JUMPDEST DUP6 DUP1 REVERT JUMPDEST POP CALLVALUE PUSH2 0x21D JUMPI DUP1 PUSH1 0x3 NOT CALLDATASIZE ADD SLT PUSH2 0x21D JUMPI PUSH2 0x17B4 PUSH2 0x1DED JUMP JUMPDEST PUSH1 0x0 DUP1 SLOAD PUSH1 0x1 PUSH1 0x1 PUSH1 0xA0 SHL SUB NOT DUP2 AND DUP3 SSTORE PUSH1 0x1 PUSH1 0x1 PUSH1 0xA0 SHL SUB AND PUSH32 0x8BE0079C531659141344CD1FD0A4F28419497F9722A3DAAFE3B4186F6B6457E0 DUP3 DUP1 LOG3 DUP1 RETURN JUMPDEST POP CALLVALUE PUSH2 0x21D JUMPI PUSH1 0x40 CALLDATASIZE PUSH1 0x3 NOT ADD SLT PUSH2 0x21D JUMPI PUSH1 0x20 PUSH2 0x1817 PUSH1 0x24 CALLDATALOAD PUSH1 0x4 CALLDATALOAD PUSH2 0x1F11 JUMP JUMPDEST PUSH1 0x40 MLOAD SWAP1 DUP2 MSTORE RETURN JUMPDEST POP CALLVALUE PUSH2 0x21D JUMPI DUP1 PUSH1 0x3 NOT CALLDATASIZE ADD SLT PUSH2 0x21D JUMPI PUSH1 0x40 MLOAD PUSH32 0x0 PUSH1 0x1 PUSH1 0x1 PUSH1 0xA0 SHL SUB AND DUP2 MSTORE PUSH1 0x20 SWAP1 RETURN JUMPDEST POP CALLVALUE PUSH2 0x21D JUMPI PUSH1 0x20 CALLDATASIZE PUSH1 0x3 NOT ADD SLT PUSH2 0x21D JUMPI PUSH2 0x187E PUSH2 0x1D41 JUMP JUMPDEST PUSH2 0x1886 PUSH2 0x1DED JUMP JUMPDEST PUSH1 0x1 PUSH1 0x1 PUSH1 0xA0 SHL SUB PUSH32 0x0 DUP2 AND SWAP2 DUP4 SWAP2 SWAP1 DUP4 EXTCODESIZE ISZERO PUSH2 0x219 JUMPI DUP3 SWAP2 PUSH1 0x24 DUP4 SWAP3 PUSH1 0x40 MLOAD SWAP5 DUP6 SWAP4 DUP5 SWAP3 PUSH4 0x4B08EC5 PUSH1 0xE4 SHL DUP5 MSTORE AND SWAP8 DUP9 PUSH1 0x4 DUP5 ADD MSTORE GAS CALL DUP1 ISZERO PUSH2 0x20E JUMPI PUSH2 0x1911 JUMPI JUMPDEST POP DUP1 PUSH32 0x96E9F71E351DA2F355723015D74E0A4B6A13763FA188E610B27DA4C5ACA898C9 SWAP2 LOG2 DUP1 RETURN JUMPDEST PUSH2 0x191A SWAP1 PUSH2 0x1E3C JUMP JUMPDEST PUSH2 0x20A JUMPI DUP2 CODESIZE PUSH2 0x18E9 JUMP JUMPDEST POP CALLVALUE PUSH2 0x21D JUMPI PUSH1 0x20 CALLDATASIZE PUSH1 0x3 NOT ADD SLT PUSH2 0x21D JUMPI PUSH1 0x40 PUSH1 0x60 SWAP2 PUSH1 0x4 CALLDATALOAD DUP2 MSTORE PUSH1 0x2 PUSH1 0x20 MSTORE KECCAK256 DUP1 SLOAD SWAP1 PUSH1 0x2 PUSH1 0x1 DUP3 ADD SLOAD SWAP2 ADD SLOAD SWAP1 PUSH1 0x40 MLOAD SWAP3 DUP4 MSTORE PUSH1 0x20 DUP4 ADD MSTORE PUSH1 0x40 DUP3 ADD MSTORE RETURN JUMPDEST POP CALLVALUE PUSH2 0x21D JUMPI PUSH1 0x60 CALLDATASIZE PUSH1 0x3 NOT ADD SLT PUSH2 0x21D JUMPI PUSH1 0x44 CALLDATALOAD SWAP1 PUSH1 0x4 CALLDATALOAD DUP2 MSTORE PUSH1 0x3 PUSH1 0x20 MSTORE PUSH1 0x40 DUP2 KECCAK256 PUSH1 0x24 CALLDATALOAD DUP3 MSTORE PUSH1 0x20 MSTORE PUSH1 0x40 DUP2 KECCAK256 SWAP1 DUP2 SLOAD DUP4 LT ISZERO PUSH2 0x21D JUMPI PUSH1 0x20 PUSH2 0x19AD DUP5 DUP5 PUSH2 0x1DA4 JUMP JUMPDEST SWAP1 SLOAD SWAP1 PUSH1 0x3 SHL SHR PUSH1 0x40 MLOAD SWAP1 DUP2 MSTORE RETURN JUMPDEST POP CALLVALUE PUSH2 0x21D JUMPI PUSH1 0x20 DUP1 PUSH1 0x3 NOT CALLDATASIZE ADD SLT PUSH2 0x20A JUMPI PUSH2 0x19D7 PUSH2 0x1D41 JUMP JUMPDEST PUSH2 0x19DF PUSH2 0x1DED JUMP JUMPDEST PUSH1 0x1 PUSH1 0x1 PUSH1 0xA0 SHL SUB SWAP1 DUP2 AND PUSH32 0x0 DUP3 AND DUP2 EQ PUSH2 0x1B27 JUMPI PUSH1 0x40 MLOAD PUSH4 0x70A08231 PUSH1 0xE0 SHL DUP2 MSTORE ADDRESS PUSH1 0x4 DUP3 ADD MSTORE SWAP2 DUP4 DUP4 PUSH1 0x24 DUP2 DUP6 GAS STATICCALL SWAP3 DUP4 ISZERO PUSH2 0x13AA JUMPI DUP6 SWAP4 PUSH2 0x1AF8 JUMPI JUMPDEST POP DUP3 ISZERO PUSH2 0x1ABB JUMPI DUP5 SLOAD PUSH1 0x40 MLOAD PUSH4 0xA9059CBB PUSH1 0xE0 SHL DUP2 MSTORE SWAP2 AND PUSH1 0x1 PUSH1 0x1 PUSH1 0xA0 SHL SUB AND PUSH1 0x4 DUP3 ADD MSTORE PUSH1 0x24 DUP2 ADD SWAP3 SWAP1 SWAP3 MSTORE DUP3 SWAP1 DUP3 SWAP1 DUP2 DUP7 DUP2 PUSH1 0x44 DUP2 ADD SUB SWAP3 GAS CALL SWAP1 DUP2 ISZERO PUSH2 0x1AB0 JUMPI PUSH2 0x536 SWAP3 DUP5 SWAP3 PUSH2 0x1A93 JUMPI JUMPDEST POP POP PUSH2 0x1EA0 JUMP JUMPDEST PUSH2 0x1AA9 SWAP3 POP DUP1 RETURNDATASIZE LT PUSH2 0x560 JUMPI PUSH2 0x552 DUP2 DUP4 PUSH2 0x1E66 JUMP JUMPDEST CODESIZE DUP1 PUSH2 0x1A8C JUMP JUMPDEST PUSH1 0x40 MLOAD RETURNDATASIZE DUP6 DUP3 RETURNDATACOPY RETURNDATASIZE SWAP1 REVERT JUMPDEST PUSH1 0x40 MLOAD PUSH3 0x461BCD PUSH1 0xE5 SHL DUP2 MSTORE PUSH1 0x4 DUP2 ADD DUP6 SWAP1 MSTORE PUSH1 0x15 PUSH1 0x24 DUP3 ADD MSTORE PUSH21 0x2737903130B630B731B2903A37903932B1B7BB32B9 PUSH1 0x59 SHL PUSH1 0x44 DUP3 ADD MSTORE PUSH1 0x64 SWAP1 REVERT JUMPDEST SWAP1 SWAP3 POP DUP4 DUP2 DUP2 RETURNDATASIZE DUP4 GT PUSH2 0x1B20 JUMPI JUMPDEST PUSH2 0x1B10 DUP2 DUP4 PUSH2 0x1E66 JUMP JUMPDEST DUP2 ADD SUB SLT PUSH2 0x723 JUMPI MLOAD SWAP2 CODESIZE PUSH2 0x1A3D JUMP JUMPDEST POP RETURNDATASIZE PUSH2 0x1B06 JUMP JUMPDEST PUSH1 0x40 MLOAD PUSH3 0x461BCD PUSH1 0xE5 SHL DUP2 MSTORE PUSH1 0x4 DUP2 ADD DUP5 SWAP1 MSTORE PUSH1 0x19 PUSH1 0x24 DUP3 ADD MSTORE PUSH32 0x43616E6E6F74207265636F76657220737461626C65636F696E00000000000000 PUSH1 0x44 DUP3 ADD MSTORE PUSH1 0x64 SWAP1 REVERT JUMPDEST POP CALLVALUE PUSH2 0x21D JUMPI PUSH1 0x20 CALLDATASIZE PUSH1 0x3 NOT ADD SLT PUSH2 0x21D JUMPI PUSH1 0x4 CALLDATALOAD SWAP1 PUSH1 0x6 SLOAD DUP3 LT ISZERO PUSH2 0x21D JUMPI PUSH1 0x20 PUSH2 0x1B97 DUP4 PUSH2 0x1D57 JUMP JUMPDEST SWAP1 SLOAD PUSH1 0x40 MLOAD PUSH1 0x3 SWAP3 SWAP1 SWAP3 SHL SHR PUSH1 0x1 PUSH1 0x1 PUSH1 0xA0 SHL SUB AND DUP2 MSTORE RETURN JUMPDEST POP CALLVALUE PUSH2 0x21D JUMPI PUSH1 0x60 CALLDATASIZE PUSH1 0x3 NOT ADD SLT PUSH2 0x21D JUMPI PUSH1 0x20 PUSH2 0x1817 PUSH2 0x1BCF PUSH2 0x1D41 JUMP JUMPDEST PUSH2 0x1BD7 PUSH2 0x1D2B JUMP JUMPDEST PUSH1 0x44 CALLDATALOAD SWAP2 PUSH2 0x1FF0 JUMP JUMPDEST POP CALLVALUE PUSH2 0x21D JUMPI PUSH1 0x20 CALLDATASIZE PUSH1 0x3 NOT ADD SLT PUSH2 0x21D JUMPI DUP1 PUSH2 0x1BFB PUSH2 0x1D41 JUMP JUMPDEST PUSH2 0x1C03 PUSH2 0x1DED JUMP JUMPDEST PUSH1 0x1 DUP1 PUSH1 0xA0 SHL SUB DUP1 SWAP2 AND SWAP1 DUP2 DUP4 MSTORE PUSH1 0x5 PUSH1 0x20 MSTORE PUSH2 0x1C27 PUSH1 0x40 DUP5 KECCAK256 SLOAD PUSH1 0x6 SLOAD GT PUSH2 0x2227 JUMP JUMPDEST PUSH1 0x40 MLOAD PUSH4 0x222E555 PUSH1 0xE2 SHL DUP2 MSTORE PUSH1 0x20 DUP2 PUSH1 0x4 DUP2 PUSH32 0x0 DUP7 AND GAS STATICCALL SWAP1 DUP2 ISZERO PUSH2 0x435 JUMPI DUP5 SWAP2 PUSH2 0x1CAA JUMPI JUMPDEST POP AND DUP1 EXTCODESIZE ISZERO PUSH2 0x403 JUMPI PUSH1 0x24 DUP4 SWAP3 PUSH1 0x40 MLOAD SWAP5 DUP6 SWAP4 DUP5 SWAP3 PUSH4 0x187DE53B PUSH1 0xE0 SHL DUP5 MSTORE PUSH1 0x4 DUP5 ADD MSTORE GAS CALL DUP1 ISZERO PUSH2 0x20E JUMPI PUSH2 0x1CA1 JUMPI POP DUP1 RETURN JUMPDEST PUSH2 0x536 SWAP1 PUSH2 0x1E3C JUMP JUMPDEST PUSH2 0x1CC2 SWAP2 POP PUSH1 0x20 RETURNDATASIZE DUP2 GT PUSH2 0x42E JUMPI PUSH2 0x420 DUP2 DUP4 PUSH2 0x1E66 JUMP JUMPDEST CODESIZE PUSH2 0x1C6D JUMP JUMPDEST SWAP1 POP CALLVALUE PUSH2 0x20A JUMPI PUSH1 0x60 CALLDATASIZE PUSH1 0x3 NOT ADD SLT PUSH2 0x20A JUMPI PUSH2 0x1CE3 PUSH2 0x1D2B JUMP JUMPDEST PUSH1 0x44 CALLDATALOAD PUSH1 0x1 PUSH1 0x1 PUSH1 0xA0 SHL SUB DUP2 DUP2 AND SWAP3 SWAP2 DUP4 SWAP1 SUB PUSH2 0x1D27 JUMPI SWAP4 PUSH1 0xFF SWAP3 PUSH1 0x40 SWAP3 PUSH1 0x20 SWAP7 PUSH1 0x4 CALLDATALOAD DUP5 MSTORE PUSH1 0x4 DUP9 MSTORE DUP5 DUP5 KECCAK256 SWAP2 AND DUP4 MSTORE DUP7 MSTORE DUP3 DUP3 KECCAK256 SWAP1 DUP3 MSTORE DUP6 MSTORE KECCAK256 SLOAD AND ISZERO ISZERO DUP2 MSTORE RETURN JUMPDEST DUP5 DUP1 REVERT JUMPDEST PUSH1 0x24 CALLDATALOAD SWAP1 PUSH1 0x1 PUSH1 0x1 PUSH1 0xA0 SHL SUB DUP3 AND DUP3 SUB PUSH2 0x723 JUMPI JUMP JUMPDEST PUSH1 0x4 CALLDATALOAD SWAP1 PUSH1 0x1 PUSH1 0x1 PUSH1 0xA0 SHL SUB DUP3 AND DUP3 SUB PUSH2 0x723 JUMPI JUMP JUMPDEST PUSH1 0x6 SLOAD DUP2 LT ISZERO PUSH2 0x1D8E JUMPI PUSH1 0x6 PUSH1 0x0 MSTORE PUSH32 0xF652222313E28459528D920B65115C16C04F3EFC82AAEDC97BE59F3F377C0D3F ADD SWAP1 PUSH1 0x0 SWAP1 JUMP JUMPDEST PUSH4 0x4E487B71 PUSH1 0xE0 SHL PUSH1 0x0 MSTORE PUSH1 0x32 PUSH1 0x4 MSTORE PUSH1 0x24 PUSH1 0x0 REVERT JUMPDEST DUP1 SLOAD DUP3 LT ISZERO PUSH2 0x1D8E JUMPI PUSH1 0x0 MSTORE PUSH1 0x20 PUSH1 0x0 KECCAK256 ADD SWAP1 PUSH1 0x0 SWAP1 JUMP JUMPDEST SWAP2 DUP2 PUSH1 0x1F DUP5 ADD SLT ISZERO PUSH2 0x723 JUMPI DUP3 CALLDATALOAD SWAP2 PUSH8 0xFFFFFFFFFFFFFFFF DUP4 GT PUSH2 0x723 JUMPI PUSH1 0x20 DUP1 DUP6 ADD SWAP5 DUP5 PUSH1 0x5 SHL ADD ADD GT PUSH2 0x723 JUMPI JUMP JUMPDEST PUSH1 0x0 SLOAD PUSH1 0x1 PUSH1 0x1 PUSH1 0xA0 SHL SUB AND CALLER SUB PUSH2 0x1E01 JUMPI JUMP JUMPDEST PUSH1 0x40 MLOAD PUSH4 0x118CDAA7 PUSH1 0xE0 SHL DUP2 MSTORE CALLER PUSH1 0x4 DUP3 ADD MSTORE PUSH1 0x24 SWAP1 REVERT JUMPDEST SWAP2 SWAP1 DUP3 ADD DUP1 SWAP3 GT PUSH2 0x1E26 JUMPI JUMP JUMPDEST PUSH4 0x4E487B71 PUSH1 0xE0 SHL PUSH1 0x0 MSTORE PUSH1 0x11 PUSH1 0x4 MSTORE PUSH1 0x24 PUSH1 0x0 REVERT JUMPDEST PUSH8 0xFFFFFFFFFFFFFFFF DUP2 GT PUSH2 0x1E50 JUMPI PUSH1 0x40 MSTORE JUMP JUMPDEST PUSH4 0x4E487B71 PUSH1 0xE0 SHL PUSH1 0x0 MSTORE PUSH1 0x41 PUSH1 0x4 MSTORE PUSH1 0x24 PUSH1 0x0 REVERT JUMPDEST SWAP1 PUSH1 0x1F DUP1 NOT SWAP2 ADD AND DUP2 ADD SWAP1 DUP2 LT PUSH8 0xFFFFFFFFFFFFFFFF DUP3 GT OR PUSH2 0x1E50 JUMPI PUSH1 0x40 MSTORE JUMP JUMPDEST SWAP1 DUP2 PUSH1 0x20 SWAP2 SUB SLT PUSH2 0x723 JUMPI MLOAD DUP1 ISZERO ISZERO DUP2 SUB PUSH2 0x723 JUMPI SWAP1 JUMP JUMPDEST ISZERO PUSH2 0x1EA7 JUMPI JUMP JUMPDEST PUSH1 0x40 MLOAD PUSH3 0x461BCD PUSH1 0xE5 SHL DUP2 MSTORE PUSH1 0x20 PUSH1 0x4 DUP3 ADD MSTORE PUSH1 0xF PUSH1 0x24 DUP3 ADD MSTORE PUSH15 0x151C985B9CD9995C8819985A5B1959 PUSH1 0x8A SHL PUSH1 0x44 DUP3 ADD MSTORE PUSH1 0x64 SWAP1 REVERT JUMPDEST DUP2 DUP2 MUL SWAP3 SWAP2 DUP2 ISZERO SWAP2 DUP5 DIV EQ OR ISZERO PUSH2 0x1E26 JUMPI JUMP JUMPDEST DUP2 ISZERO PUSH2 0x1EFB JUMPI DIV SWAP1 JUMP JUMPDEST PUSH4 0x4E487B71 PUSH1 0xE0 SHL PUSH1 0x0 MSTORE PUSH1 0x12 PUSH1 0x4 MSTORE PUSH1 0x24 PUSH1 0x0 REVERT JUMPDEST SWAP1 PUSH2 0x3E8 SWAP2 DUP3 DUP3 DIV SWAP3 PUSH1 0x0 SWAP3 DUP3 DUP5 MSTORE PUSH1 0x2 PUSH1 0x20 MSTORE PUSH1 0x2 PUSH1 0x40 DUP6 KECCAK256 ADD SLOAD DUP6 LT ISZERO PUSH2 0x1F5D JUMPI PUSH2 0x1F53 SWAP5 PUSH1 0x40 SWAP4 DUP6 MSTORE PUSH1 0x3 PUSH1 0x20 MSTORE DUP4 DUP6 KECCAK256 SWAP1 DUP6 MSTORE PUSH1 0x20 MSTORE MOD SWAP2 KECCAK256 PUSH2 0x1DA4 JUMP JUMPDEST SWAP1 SLOAD SWAP1 PUSH1 0x3 SHL SHR SWAP1 JUMP JUMPDEST PUSH1 0x40 MLOAD PUSH3 0x461BCD PUSH1 0xE5 SHL DUP2 MSTORE PUSH1 0x20 PUSH1 0x4 DUP3 ADD MSTORE PUSH1 0x10 PUSH1 0x24 DUP3 ADD MSTORE PUSH16 0x92DCECC2D8D2C840AEA640D2DCC8CAF PUSH1 0x83 SHL PUSH1 0x44 DUP3 ADD MSTORE PUSH1 0x64 SWAP1 REVERT JUMPDEST ISZERO PUSH2 0x1F9C JUMPI JUMP JUMPDEST PUSH1 0x40 MLOAD PUSH3 0x461BCD PUSH1 0xE5 SHL DUP2 MSTORE PUSH1 0x20 PUSH1 0x4 DUP3 ADD MSTORE PUSH1 0xD PUSH1 0x24 DUP3 ADD MSTORE PUSH13 0x92DCECC2D8D2C840CAE0DEC6D PUSH1 0x9B SHL PUSH1 0x44 DUP3 ADD MSTORE PUSH1 0x64 SWAP1 REVERT JUMPDEST SWAP1 DUP2 PUSH1 0x20 SWAP2 SUB SLT PUSH2 0x723 JUMPI MLOAD PUSH1 0x1 PUSH1 0x1 PUSH1 0xA0 SHL SUB DUP2 AND DUP2 SUB PUSH2 0x723 JUMPI SWAP1 JUMP JUMPDEST PUSH1 0x0 SWAP3 DUP1 DUP5 MSTORE PUSH1 0x20 SWAP4 PUSH1 0x4 DUP6 MSTORE PUSH1 0x40 SWAP5 DUP6 DUP3 KECCAK256 SWAP5 PUSH1 0x1 DUP1 PUSH1 0xA0 SHL SUB DUP1 SWAP2 AND SWAP6 DUP7 DUP5 MSTORE DUP3 MSTORE DUP1 DUP8 DUP5 KECCAK256 SWAP6 AND SWAP5 DUP6 DUP5 MSTORE DUP3 MSTORE PUSH1 0xFF DUP8 DUP5 KECCAK256 SLOAD AND DUP1 ISZERO PUSH2 0x2192 JUMPI JUMPDEST PUSH2 0x2188 JUMPI DUP7 MLOAD PUSH4 0x6FAD7E95 PUSH1 0xE1 SHL DUP2 MSTORE SWAP5 DUP3 DUP7 PUSH1 0x4 DUP2 DUP5 GAS STATICCALL SWAP6 DUP7 ISZERO PUSH2 0x217E JUMPI DUP5 SWAP7 PUSH2 0x215F JUMPI JUMPDEST POP DUP4 MSTORE PUSH1 0x5 DUP3 MSTORE DUP7 DUP4 KECCAK256 SLOAD SWAP5 AND DUP4 DUP4 MSTORE PUSH1 0x2 DUP3 MSTORE PUSH1 0x1 DUP8 DUP5 KECCAK256 ADD SLOAD DUP8 MLOAD SWAP7 PUSH4 0xC4DB40D PUSH1 0xE3 SHL DUP9 MSTORE PUSH1 0x4 DUP9 ADD MSTORE PUSH1 0x1 PUSH1 0x24 DUP9 ADD MSTORE PUSH1 0x44 DUP8 ADD MSTORE DUP2 DUP7 PUSH1 0x64 DUP2 DUP5 GAS STATICCALL SWAP6 DUP7 ISZERO PUSH2 0x2155 JUMPI DUP4 SWAP7 PUSH2 0x2126 JUMPI JUMPDEST POP SWAP1 DUP1 PUSH1 0x4 SWAP4 SWAP3 DUP9 MLOAD SWAP5 DUP6 DUP1 SWAP3 PUSH4 0x3A98EF39 PUSH1 0xE0 SHL DUP3 MSTORE GAS STATICCALL SWAP7 DUP8 ISZERO PUSH2 0x211B JUMPI POP DUP2 SWAP7 PUSH2 0x20E4 JUMPI JUMPDEST POP POP POP SWAP2 PUSH2 0x697 PUSH2 0x69C SWAP3 PUSH2 0x20E1 SWAP6 SWAP5 PUSH2 0x1F11 JUMP JUMPDEST SWAP1 JUMP JUMPDEST SWAP1 SWAP2 DUP1 SWAP4 SWAP7 POP DUP2 RETURNDATASIZE DUP4 GT PUSH2 0x2114 JUMPI JUMPDEST PUSH2 0x20FD DUP2 DUP4 PUSH2 0x1E66 JUMP JUMPDEST DUP2 ADD SUB SLT PUSH2 0x21D JUMPI POP MLOAD SWAP3 PUSH2 0x697 DUP3 PUSH2 0x20E1 PUSH2 0x20CC JUMP JUMPDEST POP RETURNDATASIZE PUSH2 0x20F3 JUMP JUMPDEST MLOAD SWAP2 RETURNDATASIZE SWAP2 POP DUP3 RETURNDATACOPY RETURNDATASIZE SWAP1 REVERT JUMPDEST SWAP1 SWAP6 POP DUP2 DUP2 DUP2 RETURNDATASIZE DUP4 GT PUSH2 0x214E JUMPI JUMPDEST PUSH2 0x213E DUP2 DUP4 PUSH2 0x1E66 JUMP JUMPDEST DUP2 ADD SUB SLT PUSH2 0x219 JUMPI MLOAD SWAP5 DUP2 PUSH2 0x20A4 JUMP JUMPDEST POP RETURNDATASIZE PUSH2 0x2134 JUMP JUMPDEST DUP8 MLOAD RETURNDATASIZE DUP6 DUP3 RETURNDATACOPY RETURNDATASIZE SWAP1 REVERT JUMPDEST PUSH2 0x2177 SWAP2 SWAP7 POP DUP4 RETURNDATASIZE DUP6 GT PUSH2 0x42E JUMPI PUSH2 0x420 DUP2 DUP4 PUSH2 0x1E66 JUMP JUMPDEST SWAP5 CODESIZE PUSH2 0x2055 JUMP JUMPDEST DUP9 MLOAD RETURNDATASIZE DUP7 DUP3 RETURNDATACOPY RETURNDATASIZE SWAP1 REVERT JUMPDEST POP POP SWAP4 POP POP POP POP SWAP1 JUMP JUMPDEST POP PUSH1 0x1 SLOAD DUP5 GT PUSH2 0x202E JUMP JUMPDEST PUSH1 0x0 NOT DUP2 EQ PUSH2 0x1E26 JUMPI PUSH1 0x1 ADD SWAP1 JUMP JUMPDEST SWAP2 SWAP1 DUP2 LT ISZERO PUSH2 0x1D8E JUMPI PUSH1 0x5 SHL ADD SWAP1 JUMP JUMPDEST ISZERO PUSH2 0x21C3 JUMPI JUMP JUMPDEST PUSH1 0x40 MLOAD PUSH3 0x461BCD PUSH1 0xE5 SHL DUP2 MSTORE PUSH1 0x20 PUSH1 0x4 DUP3 ADD MSTORE PUSH1 0x10 PUSH1 0x24 DUP3 ADD MSTORE PUSH16 0x4E6F7468696E6720746F20636C61696D PUSH1 0x80 SHL PUSH1 0x44 DUP3 ADD MSTORE PUSH1 0x64 SWAP1 REVERT JUMPDEST PUSH8 0xFFFFFFFFFFFFFFFF DUP2 GT PUSH2 0x1E50 JUMPI PUSH1 0x5 SHL PUSH1 0x20 ADD SWAP1 JUMP JUMPDEST DUP1 MLOAD DUP3 LT ISZERO PUSH2 0x1D8E JUMPI PUSH1 0x20 SWAP2 PUSH1 0x5 SHL ADD ADD SWAP1 JUMP JUMPDEST ISZERO PUSH2 0x222E JUMPI JUMP JUMPDEST PUSH1 0x40 MLOAD PUSH3 0x461BCD PUSH1 0xE5 SHL DUP2 MSTORE PUSH1 0x20 PUSH1 0x4 DUP3 ADD MSTORE PUSH1 0x1A PUSH1 0x24 DUP3 ADD MSTORE PUSH32 0x4E6F742061206D616E61676564207772617070656420736F6E67000000000000 PUSH1 0x44 DUP3 ADD MSTORE PUSH1 0x64 SWAP1 REVERT INVALID LOG2 PUSH5 0x6970667358 0x22 SLT KECCAK256 0x2F LOG3 PUSH4 0xA194B8D2 0xE9 0xFC SWAP13 0x5D 0xA5 SWAP14 0xBC 0xD1 0xB9 DUP9 SELFDESTRUCT 0xBA 0xF8 0xC3 0xCD ADDMOD 0x5D EXTCODESIZE DUP7 SWAP13 0xCB EXTCODECOPY DUP16 0xA8 SGT PUSH5 0x736F6C6343 STOP ADDMOD EQ STOP CALLER LOG2 PUSH5 0x6970667358 0x22 SLT KECCAK256 0x5E PUSH25 0x2FD0B4A56C39AB5FD1778B9C023D104B35786CC7316FAE0B4 0xD0 LOG2 SDIV DUP13 ADD PUSH5 0x736F6C6343 STOP ADDMOD EQ STOP CALLER "},"methodIdentifiers":{"checkIsDistributorWallet(address)":"d42fe231","createDistributorWallet(address,address,address)":"d677db97","distributorWallets(address,uint256)":"41667986","getDistributorWallets(address)":"f4ae5338","getWrappedSongDistributor(address)":"3aa690e7","isDistributorWallet(address)":"a6be3496","owner()":"8da5cb5b","renounceOwnership()":"715018a6","transferOwnership(address)":"f2fde38b","wrappedSongToDistributor(address)":"2cd6c9a6"}},"storageLayout":{"storage":[{"astId":8,"contract":"contracts/protocol/NonUpgradable/DistributorWalletFactory.sol:DistributorWalletFactory","label":"_owner","offset":0,"slot":"0","type":"t_address"},{"astId":4179,"contract":"contracts/protocol/NonUpgradable/DistributorWalletFactory.sol:DistributorWalletFactory","label":"distributorWallets","offset":0,"slot":"1","type":"t_mapping(t_address,t_array(t_address)dyn_storage)"},{"astId":4183,"contract":"contracts/protocol/NonUpgradable/DistributorWalletFactory.sol:DistributorWalletFactory","label":"wrappedSongToDistributor","offset":0,"slot":"2","type":"t_mapping(t_address,t_address)"},{"astId":4187,"contract":"contracts/protocol/NonUpgradable/DistributorWalletFactory.sol:DistributorWalletFactory","label":"isDistributorWallet","offset":0,"slot":"3","type":"t_mapping(t_address,t_bool)"}],"types":{"t_address":{"encoding":"inplace","label":"address","numberOfBytes":"20"},"t_array(t_address)dyn_storage":{"base":"t_address","encoding":"dynamic_array","label":"address[]","numberOfBytes":"32"},"t_bool":{"encoding":"inplace","label":"bool","numberOfBytes":"1"},"t_mapping(t_address,t_address)":{"encoding":"mapping","key":"t_address","label":"mapping(address => address)","numberOfBytes":"32","value":"t_address"},"t_mapping(t_address,t_array(t_address)dyn_storage)":{"encoding":"mapping","key":"t_address","label":"mapping(address => address[])","numberOfBytes":"32","value":"t_array(t_address)dyn_storage"},"t_mapping(t_address,t_bool)":{"encoding":"mapping","key":"t_address","label":"mapping(address => bool)","numberOfBytes":"32","value":"t_bool"}}}}}}