{"contracts/protocol/NonUpgradable/DistributorWallet.sol":{"DistributorWallet":{"abi":[{"inputs":[{"internalType":"address","name":"_stablecoin","type":"address"},{"internalType":"address","name":"_protocolModule","type":"address"},{"internalType":"address","name":"_owner","type":"address"}],"stateMutability":"nonpayable","type":"constructor"},{"inputs":[{"internalType":"address","name":"owner","type":"address"}],"name":"OwnableInvalidOwner","type":"error"},{"inputs":[{"internalType":"address","name":"account","type":"address"}],"name":"OwnableUnauthorizedAccount","type":"error"},{"anonymous":false,"inputs":[{"indexed":true,"internalType":"address","name":"wrappedSong","type":"address"},{"indexed":true,"internalType":"address","name":"holder","type":"address"},{"indexed":true,"internalType":"uint256","name":"epochId","type":"uint256"},{"indexed":false,"internalType":"uint256","name":"amount","type":"uint256"}],"name":"EpochRedeemed","type":"event"},{"anonymous":false,"inputs":[{"indexed":true,"internalType":"uint256","name":"epochId","type":"uint256"},{"indexed":true,"internalType":"uint256","name":"chunkIndex","type":"uint256"},{"indexed":false,"internalType":"uint256","name":"amountsCount","type":"uint256"}],"name":"NewDistributionChunk","type":"event"},{"anonymous":false,"inputs":[{"indexed":true,"internalType":"address","name":"distributor","type":"address"},{"indexed":true,"internalType":"uint256","name":"epochId","type":"uint256"},{"indexed":false,"internalType":"uint256","name":"totalAmount","type":"uint256"},{"indexed":false,"internalType":"uint256","name":"timestamp","type":"uint256"}],"name":"NewRevenueEpoch","type":"event"},{"anonymous":false,"inputs":[{"indexed":true,"internalType":"address","name":"previousOwner","type":"address"},{"indexed":true,"internalType":"address","name":"newOwner","type":"address"}],"name":"OwnershipTransferred","type":"event"},{"anonymous":false,"inputs":[{"indexed":true,"internalType":"address","name":"wrappedSong","type":"address"}],"name":"WrappedSongAcceptedForReview","type":"event"},{"anonymous":false,"inputs":[{"indexed":true,"internalType":"address","name":"wrappedSong","type":"address"}],"name":"WrappedSongReleaseRejected","type":"event"},{"anonymous":false,"inputs":[{"indexed":true,"internalType":"address","name":"wrappedSong","type":"address"}],"name":"WrappedSongReleased","type":"event"},{"inputs":[],"name":"CHUNK_SIZE","outputs":[{"internalType":"uint256","name":"","type":"uint256"}],"stateMutability":"view","type":"function"},{"inputs":[{"internalType":"address","name":"wrappedSong","type":"address"}],"name":"acceptWrappedSongForReview","outputs":[],"stateMutability":"nonpayable","type":"function"},{"inputs":[{"internalType":"uint256","name":"","type":"uint256"},{"internalType":"uint256","name":"","type":"uint256"},{"internalType":"uint256","name":"","type":"uint256"}],"name":"amountChunks","outputs":[{"internalType":"uint256","name":"","type":"uint256"}],"stateMutability":"view","type":"function"},{"inputs":[{"internalType":"address","name":"_wrappedSong","type":"address"},{"internalType":"uint256","name":"epochId","type":"uint256"}],"name":"claimEpochEarnings","outputs":[],"stateMutability":"nonpayable","type":"function"},{"inputs":[{"internalType":"address","name":"_wrappedSong","type":"address"},{"internalType":"uint256[]","name":"epochIds","type":"uint256[]"}],"name":"claimMultipleEpochs","outputs":[],"stateMutability":"nonpayable","type":"function"},{"inputs":[{"internalType":"address[]","name":"_wrappedSongs","type":"address[]"},{"internalType":"uint256","name":"epochId","type":"uint256"}],"name":"claimMultipleWrappedSongsEarnings","outputs":[],"stateMutability":"nonpayable","type":"function"},{"inputs":[{"internalType":"address","name":"wrappedSong","type":"address"}],"name":"confirmMetadataUpdate","outputs":[],"stateMutability":"nonpayable","type":"function"},{"inputs":[{"internalType":"address","name":"wrappedSong","type":"address"}],"name":"confirmWrappedSongRelease","outputs":[],"stateMutability":"nonpayable","type":"function"},{"inputs":[{"internalType":"uint256","name":"epochId","type":"uint256"},{"internalType":"uint256","name":"chunkIndex","type":"uint256"},{"internalType":"uint256[]","name":"_amounts","type":"uint256[]"},{"internalType":"uint256","name":"_totalAmount","type":"uint256"},{"internalType":"bool","name":"isFirstChunk","type":"bool"},{"internalType":"bool","name":"isLastChunk","type":"bool"}],"name":"createDistributionEpochChunk","outputs":[],"stateMutability":"nonpayable","type":"function"},{"inputs":[],"name":"currentEpochId","outputs":[{"internalType":"uint256","name":"","type":"uint256"}],"stateMutability":"view","type":"function"},{"inputs":[{"internalType":"uint256","name":"","type":"uint256"}],"name":"distributionEpochs","outputs":[{"internalType":"uint256","name":"totalAmount","type":"uint256"},{"internalType":"uint256","name":"timestamp","type":"uint256"},{"internalType":"uint256","name":"chunksCount","type":"uint256"}],"stateMutability":"view","type":"function"},{"inputs":[{"internalType":"uint256","name":"","type":"uint256"},{"internalType":"address","name":"","type":"address"},{"internalType":"address","name":"","type":"address"}],"name":"epochClaims","outputs":[{"internalType":"bool","name":"","type":"bool"}],"stateMutability":"view","type":"function"},{"inputs":[{"internalType":"uint256","name":"epochId","type":"uint256"},{"internalType":"uint256","name":"wsIndex","type":"uint256"}],"name":"getAmountForWS","outputs":[{"internalType":"uint256","name":"","type":"uint256"}],"stateMutability":"view","type":"function"},{"inputs":[{"internalType":"address","name":"_wrappedSong","type":"address"},{"internalType":"address","name":"_holder","type":"address"},{"internalType":"uint256","name":"epochId","type":"uint256"}],"name":"getClaimableAmount","outputs":[{"internalType":"uint256","name":"","type":"uint256"}],"stateMutability":"view","type":"function"},{"inputs":[],"name":"getManagedWrappedSongsCount","outputs":[{"internalType":"uint256","name":"","type":"uint256"}],"stateMutability":"view","type":"function"},{"inputs":[{"internalType":"address","name":"_wrappedSong","type":"address"},{"internalType":"address","name":"_holder","type":"address"},{"internalType":"uint256[]","name":"epochIds","type":"uint256[]"}],"name":"getMultipleClaimableAmounts","outputs":[{"internalType":"uint256[]","name":"amounts","type":"uint256[]"}],"stateMutability":"view","type":"function"},{"inputs":[{"internalType":"uint256","name":"","type":"uint256"}],"name":"managedWrappedSongs","outputs":[{"internalType":"address","name":"","type":"address"}],"stateMutability":"view","type":"function"},{"inputs":[],"name":"owner","outputs":[{"internalType":"address","name":"","type":"address"}],"stateMutability":"view","type":"function"},{"inputs":[],"name":"protocolModule","outputs":[{"internalType":"contract IProtocolModule","name":"","type":"address"}],"stateMutability":"view","type":"function"},{"inputs":[{"internalType":"address","name":"token","type":"address"}],"name":"recoverTokens","outputs":[],"stateMutability":"nonpayable","type":"function"},{"inputs":[{"internalType":"address","name":"wrappedSong","type":"address"}],"name":"rejectMetadataUpdate","outputs":[],"stateMutability":"nonpayable","type":"function"},{"inputs":[{"internalType":"address","name":"wrappedSong","type":"address"}],"name":"rejectWrappedSongRelease","outputs":[],"stateMutability":"nonpayable","type":"function"},{"inputs":[],"name":"renounceOwnership","outputs":[],"stateMutability":"nonpayable","type":"function"},{"inputs":[{"internalType":"address","name":"wrappedSong","type":"address"},{"internalType":"bool","name":"isAuthentic","type":"bool"}],"name":"setWrappedSongAuthenticity","outputs":[],"stateMutability":"nonpayable","type":"function"},{"inputs":[],"name":"stablecoin","outputs":[{"internalType":"contract IERC20","name":"","type":"address"}],"stateMutability":"view","type":"function"},{"inputs":[{"internalType":"address","name":"newOwner","type":"address"}],"name":"transferOwnership","outputs":[],"stateMutability":"nonpayable","type":"function"},{"inputs":[{"internalType":"address","name":"","type":"address"}],"name":"wsRedeemIndexList","outputs":[{"internalType":"uint256","name":"","type":"uint256"}],"stateMutability":"view","type":"function"}],"evm":{"bytecode":{"linkReferences":{},"object":"60c034620001de57601f620024db38819003918201601f191683019291906001600160401b03841183851017620001e3578160609284926040968752833981010312620001de57816200005282620001f9565b916200006160208201620001f9565b6001600160a01b0392909183916200007a9101620001f9565b16928315620001c657600080546001600160a01b031981168617825586519585939290918416907f8be0079c531659141344cd1fd0a4f28419497f9722a3daafe3b4186f6b6457e09080a3169283156200018f5750169081156200014b5760805260a052516122cc90816200020f82396080518181816102e4015281816104ec01528181610a630152818161116c0152818161166c0152611a2e015260a0518181816101750152818161038c0152818161089601528181610c2b01528181611877015281816118d20152611c7e0152f35b825162461bcd60e51b815260206004820152601760248201527f496e76616c69642070726f746f636f6c206d6f64756c650000000000000000006044820152606490fd5b62461bcd60e51b815260206004820152601260248201527124b73b30b634b21039ba30b13632b1b7b4b760711b6044820152606490fd5b8451631e4fbdf760e01b815260006004820152602490fd5b600080fd5b634e487b7160e01b600052604160045260246000fd5b51906001600160a01b0382168203620001de5756fe608080604052600436101561001357600080fd5b600090813560e01c908163028a6b9e14611d0a5750806304adbc2214611c225780630a279e1514611bf25780631188029f14611bae57806316114acd146119fe57806316a91b2f146119a957806349f3329b146119675780634b08ec50146118a65780635c42e667146118615780636d3d6e6d14611837578063715018a6146117dd5780637f41b4a8146114585780638da5cb5b14611431578063921f4533146110765780639d6ce7ca14610db8578063b0c70e2714610be4578063b3104d8014610bab578063b8b0a09a146108f3578063be94e3191461083f578063c0c71ce91461045e578063d20098a214610440578063d65bd2fa14610330578063e91e13a914610313578063e9cbd822146102ce578063eacdc5ff146102b0578063f2fde38b146102205763f52603691461014a57600080fd5b3461021d57602036600319011261021d57610163611d83565b61016b611e2f565b6001600160a01b037f0000000000000000000000000000000000000000000000000000000000000000811691839190833b1561021957829160248392604051948593849263f526036960e01b845216978860048401525af1801561020e576101f6575b50807f9b8b9fd151330b7d89319c88adc1ba5b0e63288a430bac1173b0af4570586b6391a280f35b6101ff90611e7e565b61020a5781386101ce565b5080fd5b6040513d84823e3d90fd5b8280fd5b80fd5b503461021d57602036600319011261021d5761023a611d83565b610242611e2f565b6001600160a01b0390811690811561029757600054826bffffffffffffffffffffffff60a01b821617600055167f8be0079c531659141344cd1fd0a4f28419497f9722a3daafe3b4186f6b6457e0600080a380f35b604051631e4fbdf760e01b815260048101849052602490fd5b503461021d578060031936011261021d576020600154604051908152f35b503461021d578060031936011261021d576040517f00000000000000000000000000000000000000000000000000000000000000006001600160a01b03168152602090f35b503461021d578060031936011261021d5760206040516103e88152f35b503461021d57602036600319011261021d578061034b611d83565b610353611e2f565b60018060a01b0380911690818352600560205261037760408420546006541161222a565b604051630222e55560e21b81526020816004817f000000000000000000000000000000000000000000000000000000000000000086165afa908115610435578491610407575b501690813b15610403578291602483926040519485938492634902fd7f60e11b845260048401525af1801561020e576103f35750f35b6103fc90611e7e565b61021d5780f35b5050fd5b610428915060203d811161042e575b6104208183611ea8565b810190612013565b386103bd565b503d610416565b6040513d86823e3d90fd5b503461021d578060031936011261021d576020600654604051908152f35b503461021d57604036600319011261021d5760043567ffffffffffffffff811161020a57610490903690600401611dfe565b90602490813560016104a58154831115611fd7565b84156107fb578594865b81811061058d578787878115610556575060405163a9059cbb60e01b81523360048201526024810191909152602081604481856001600160a01b037f0000000000000000000000000000000000000000000000000000000000000000165af1801561020e57610525918391610528575b50611ee2565b80f35b610549915060203d811161054f575b6105418183611ea8565b810190611eca565b8361051f565b503d610537565b60649060106040519162461bcd60e51b8352602060048401528201526f4e6f7468696e6720746f20636c61696d60801b6044820152fd5b61059b8183879a999a6121ee565b6001600160a01b03989035898116908190036107f75785895260206004815260408a20336000528152604060002082600052815260ff604060002054166107a657899a878b526002825260408b2090604051636fad7e9560e11b81528381600481885afa918215610743578d8a928194610784575b5080876040925260058752205492169201549160405192630c4db40d60e31b8452336004850152898d85015260448401528383606481845afa928315610743578d9361074e575b5090836004939260405194858092633a98ef3960e01b82525afa928315610743578d936106fb575b509260406106bf6106b88c97956106b3600080516020612277833981519152966106ae6106f69d9c9a8c611f53565b611f20565b611f33565b8096611e5b565b9d8681526004835220336000528152604060002083600052815260406000208960ff198254161790556040519384523393a46121df565b6104af565b84809e5081969450919796943d831161073c575b6107198183611ea8565b810103126107375792518c9b9495929491939192909190604061067f565b600080fd5b503d61070f565b6040513d8f823e3d90fd5b848092939e508194503d831161077d575b6107698183611ea8565b810103126107375790518c9b909183610657565b503d61075f565b604091945061079f90873d891161042e576104208183611ea8565b9390610610565b60849060258a6040519262461bcd60e51b845260048401528201527f416c726561647920636c61696d656420666f722074686973207772617070656460448201526420736f6e6760d81b6064820152fd5b8880fd5b60405162461bcd60e51b8152602060048201526019818601527f456d707479207772617070656420736f6e6773206172726179000000000000006044820152606490fd5b503461021d57604036600319011261021d57610859611d83565b602435801515809103610737578291610870611e2f565b60018060a01b0380911690818452600560205261089460408520546006541161222a565b7f00000000000000000000000000000000000000000000000000000000000000001691823b156108ee576044849283604051958694859363be94e31960e01b8552600485015260248401525af1801561020e576103f35750f35b505050fd5b503461021d57604036600319011261021d5761090d611d83565b60243590818352602090600482526040842033600052825260406000209060018060a01b038091169182600052835260ff60406000205416610b7457610957600154851115611fd7565b8385526002835260408086209051636fad7e9560e11b81528481600481875afa908115610b69578791610b4c575b5083875260058552600183604089205492169201549060405191630c4db40d60e31b83523360048401526001602484015260448301528582606481865afa918215610b115786908993610b1c575b50604051633a98ef3960e01b81529293839060049082905afa918215610b11578892610ae0575b50610a0c926106ae6106b39289611f53565b84865260048085526040808820336000818152918852828220878352885290829020805460ff19166001179055905163a9059cbb60e01b8152918201526024810182905290939091819083908189816044810103927f0000000000000000000000000000000000000000000000000000000000000000165af1918215610ad55760008051602061227783398151915292610aac918891610ab85750611ee2565b6040519384523393a480f35b610acf9150833d851161054f576105418183611ea8565b3861051f565b6040513d88823e3d90fd5b9091508581813d8311610b0a575b610af88183611ea8565b81010312610737575190610a0c6109fa565b503d610aee565b6040513d8a823e3d90fd5b809350813d8311610b45575b610b328183611ea8565b81010312610737578560049251926109d3565b503d610b28565b610b639150853d871161042e576104208183611ea8565b38610985565b6040513d89823e3d90fd5b60405162461bcd60e51b815260048101849052600f60248201526e105b1c9958591e4818db185a5b5959608a1b6044820152606490fd5b503461021d57602036600319011261021d576020906040906001600160a01b03610bd3611d83565b168152600583522054604051908152f35b503461021d5760208060031936011261020a57610bff611d83565b90610c08611e2f565b6040516363df2f1560e11b81526001600160a01b039283166004820181905292907f00000000000000000000000000000000000000000000000000000000000000008216908381602481855afa908115610ad5578691610d9b575b508230911603610d56578085913b1561020a5781809160246040518094819363b0c70e2760e01b83528a60048401525af1801561020e57610d3e575b5050600654600160401b811015610d2a57806001610cc09201600655611d99565b819291549060031b9185831b921b1916179055600654906000198201918211610d16576005908385525260408320557fe1649799fd93d14e82ccab2710a96c6b05af2496c30f0c9401e159f568813efd8280a280f35b634e487b7160e01b84526011600452602484fd5b634e487b7160e01b85526041600452602485fd5b610d4790611e7e565b610d52578338610c9f565b8380fd5b60405162461bcd60e51b815260048101849052601b60248201527f4e6f74207468652070656e64696e67206469737472696275746f7200000000006044820152606490fd5b610db29150843d861161042e576104208183611ea8565b38610c63565b503461021d57606036600319011261021d57610dd2611d83565b90610ddb611d6d565b9160443567ffffffffffffffff811161021957610dfc903690600401611dfe565b604051636fad7e9560e11b81529094909290916001600160a01b03906020856004818587165afa948515610ad5578695611055575b508183168652600560205260408620549160405194633a98ef3960e01b8652602086600481858b165afa958615610b11578896611021575b50610e788997999593956121fe565b98610e866040519a8b611ea8565b878a52601f19610e95896121fe565b013660208c013788936001988954955b818110610eec578c8c8c60405191602083016020845284518091526020604085019501915b818110610ed75784860385f35b82518652602095860195909201918301610eca565b8a610efb829c9e9c848c6121ee565b358d8d8a83118015610fec575b610fd9575060408183859352600260205220015460405192630c4db40d60e31b84528989166004850152602484015260448301526020826064818b8a165afa918215610fcc57918a8f928f93948f969593610f8c575b50610f84956106b3610f7e946106ae8895610f7895611f53565b92612216565b526121df565b9b999b610ea5565b9550925050506020833d602011610fc4575b81610fab60209383611ea8565b810103126107375791518b928d91908b90610f84610f5e565b3d9150610f9e565b8e604051903d90823e3d90fd5b849350610f7e91925093610f8494612216565b505080826040925260046020522088881660005260205260406000208886166000526020528d8d60ff60406000205416610f08565b9095506020813d60201161104d575b8161103d60209383611ea8565b8101031261073757519438610e69565b3d9150611030565b61106f91955060203d60201161042e576104208183611ea8565b9338610e31565b503461021d57604036600319011261021d57611090611d83565b60243567ffffffffffffffff8111610219576110b0903690600401611dfe565b919082156113f757604051636fad7e9560e11b8152916020836004816001600160a01b0385165afa9283156113ec5785936113cb575b5060018060a01b03811685526005602052604085205490604051633a98ef3960e01b815260208160048160018060a01b0389165afa908115610b69578791611399575b508695875b8181106111bd57888880611140575080f35b60405163a9059cbb60e01b81523360048201526024810191909152602081604481856001600160a01b037f0000000000000000000000000000000000000000000000000000000000000000165af1801561020e576105259183916111a45750611ee2565b610549915060203d60201161054f576105418183611ea8565b6111c88183886121ee565b35906111d8600154831115611fd7565b818a52600460205260408a2033600052602052604060002060018060a01b03861660005260205260ff6040600020541661135c57818a526002602052600160408b2001549160405192630c4db40d60e31b845233600485015260016024850152604484015260208360648160018060a01b038d165afa80156113515785908c9061131b575b6112e89450828d52600460205260408d2033600052602052604060002060018060a01b0389166000526020526040600020600160ff1982541617905580156112ed576112bb916106b36112b4926106ae8c87611f53565b809b611e5b565b6040519a8b529933906001600160a01b0388169060008051602061227783398151915290602090a46121df565b61112e565b50506040518b815233906001600160a01b0388169060008051602061227783398151915290602090a46121df565b50506020833d602011611349575b8161133660209383611ea8565b8101031261073757846112e8935161125d565b3d9150611329565b6040513d8d823e3d90fd5b60405162461bcd60e51b8152602060048201526015602482015274115c1bd8da08185b1c9958591e4818db185a5b5959605a1b6044820152606490fd5b90506020813d6020116113c3575b816113b460209383611ea8565b81010312610737575138611129565b3d91506113a7565b6113e591935060203d60201161042e576104208183611ea8565b91386110e6565b6040513d87823e3d90fd5b60405162461bcd60e51b8152602060048201526012602482015271456d7074792065706f63687320617272617960701b6044820152606490fd5b503461021d578060031936011261021d57546040516001600160a01b039091168152602090f35b503461021d5760c036600319011261021d5760248035906004359067ffffffffffffffff906044358281116117d957611495903690600401611dfe565b919092606435916084359182151583036107375760a435908115158203610737576114be611e2f565b6103e886116117a35760019384548581018091116117905789036117595761163e575b878a526020966003885260408b208a8c52885260408b2091871161162b57600160401b871161162b578154878355808810611604575b50908a52868a2090848b5b8881106115f25750505050611562575b505050907fab2993bd1558cf55c0837b08905edac8717b4326267b02c8268534311452619891604051908152a380f35b818701908188116115e05750918580927fab2993bd1558cf55c0837b08905edac8717b4326267b02c82685343114526198969594828b5260028752600260408c2001555560405190815242848201527fb52be436c4d2a5bc18728d4f052344d91ed904f58693186df6726a84f7b3c9a860403092a390913880611532565b634e487b7160e01b8952601160045288fd5b89833593019281850155018590611522565b85888a8e8681522092830192015b828110611620575050611517565b8d8155018690611612565b634e487b7160e01b8b526041600452838bfd5b841561171e576040516323b872dd60e01b81523360048201523084820152604481018690526020816064818e7f00000000000000000000000000000000000000000000000000000000000000006001600160a01b03165af18015611351576116ac918c916117065750611ee2565b60405160608101818110838211176116f15760405285815260028b602083014281526040808501928084528d81528460205220935184555187840155519101556114e1565b84634e487b7160e01b60005260416004526000fd5b610acf915060203d811161054f576105418183611ea8565b60405162461bcd60e51b81526020600482015260148185015273125b9d985b1a59081d1bdd185b08185b5bdd5b9d60621b6044820152606490fd5b60405162461bcd60e51b8152602060048201526010818601526f125b9d985b1a5908195c1bd8da081a5960821b6044820152606490fd5b634e487b7160e01b8c526011600452848cfd5b60405162461bcd60e51b815260206004820152600f818501526e4368756e6b20746f6f206c6172676560881b6044820152606490fd5b8580fd5b503461021d578060031936011261021d576117f6611e2f565b600080546001600160a01b0319811682556001600160a01b03167f8be0079c531659141344cd1fd0a4f28419497f9722a3daafe3b4186f6b6457e08280a380f35b503461021d57604036600319011261021d576020611859602435600435611f53565b604051908152f35b503461021d578060031936011261021d576040517f00000000000000000000000000000000000000000000000000000000000000006001600160a01b03168152602090f35b503461021d57602036600319011261021d576118c0611d83565b6118c8611e2f565b6001600160a01b037f0000000000000000000000000000000000000000000000000000000000000000811691839190833b156102195782916024839260405194859384926304b08ec560e41b845216978860048401525af1801561020e57611953575b50807f96e9f71e351da2f355723015d74e0a4b6a13763fa188e610b27da4c5aca898c991a280f35b61195c90611e7e565b61020a57813861192b565b503461021d57602036600319011261021d5760406060916004358152600260205220805490600260018201549101549060405192835260208301526040820152f35b503461021d57606036600319011261021d5760443590600435815260036020526040812060243582526020526040812090815483101561021d5760206119ef8484611de6565b90549060031b1c604051908152f35b503461021d5760208060031936011261020a57611a19611d83565b611a21611e2f565b6001600160a01b039081167f000000000000000000000000000000000000000000000000000000000000000082168114611b69576040516370a0823160e01b8152306004820152918383602481855afa9283156113ec578593611b3a575b508215611afd57845460405163a9059cbb60e01b815291166001600160a01b031660048201526024810192909252829082908186816044810103925af1908115611af257610525928492611ad5575b5050611ee2565b611aeb9250803d1061054f576105418183611ea8565b3880611ace565b6040513d85823e3d90fd5b60405162461bcd60e51b81526004810185905260156024820152742737903130b630b731b2903a37903932b1b7bb32b960591b6044820152606490fd5b9092508381813d8311611b62575b611b528183611ea8565b8101031261073757519138611a7f565b503d611b48565b60405162461bcd60e51b815260048101849052601960248201527f43616e6e6f74207265636f76657220737461626c65636f696e000000000000006044820152606490fd5b503461021d57602036600319011261021d576004359060065482101561021d576020611bd983611d99565b905460405160039290921b1c6001600160a01b03168152f35b503461021d57606036600319011261021d576020611859611c11611d83565b611c19611d6d565b60443591612032565b503461021d57602036600319011261021d5780611c3d611d83565b611c45611e2f565b60018060a01b03809116908183526005602052611c6960408420546006541161222a565b604051630222e55560e21b81526020816004817f000000000000000000000000000000000000000000000000000000000000000086165afa908115610435578491611cec575b5016803b156104035760248392604051948593849263187de53b60e01b845260048401525af1801561020e57611ce3575080f35b61052590611e7e565b611d04915060203d811161042e576104208183611ea8565b38611caf565b90503461020a57606036600319011261020a57611d25611d6d565b6044356001600160a01b038181169291839003611d69579360ff92604092602096600435845260048852848420911683528652828220908252855220541615158152f35b8480fd5b602435906001600160a01b038216820361073757565b600435906001600160a01b038216820361073757565b600654811015611dd05760066000527ff652222313e28459528d920b65115c16c04f3efc82aaedc97be59f3f377c0d3f0190600090565b634e487b7160e01b600052603260045260246000fd5b8054821015611dd05760005260206000200190600090565b9181601f840112156107375782359167ffffffffffffffff8311610737576020808501948460051b01011161073757565b6000546001600160a01b03163303611e4357565b60405163118cdaa760e01b8152336004820152602490fd5b91908201809211611e6857565b634e487b7160e01b600052601160045260246000fd5b67ffffffffffffffff8111611e9257604052565b634e487b7160e01b600052604160045260246000fd5b90601f8019910116810190811067ffffffffffffffff821117611e9257604052565b90816020910312610737575180151581036107375790565b15611ee957565b60405162461bcd60e51b815260206004820152600f60248201526e151c985b9cd9995c8819985a5b1959608a1b6044820152606490fd5b81810292918115918404141715611e6857565b8115611f3d570490565b634e487b7160e01b600052601260045260246000fd5b906103e8918282049260009282845260026020526002604085200154851015611f9f57611f959460409385526003602052838520908552602052069120611de6565b90549060031b1c90565b60405162461bcd60e51b815260206004820152601060248201526f092dcecc2d8d2c840aea640d2dcc8caf60831b6044820152606490fd5b15611fde57565b60405162461bcd60e51b815260206004820152600d60248201526c092dcecc2d8d2c840cae0dec6d609b1b6044820152606490fd5b9081602091031261073757516001600160a01b03811681036107375790565b600092808452602093600485526040948582209460018060a01b0380911695868452825280878420951694858452825260ff878420541680156121d4575b6121ca578651636fad7e9560e11b8152948286600481845afa9586156121c05784966121a1575b508352600582528683205494168383526002825260018784200154875196630c4db40d60e31b885260048801526001602488015260448701528186606481845afa958615612197578396612168575b50908060049392885194858092633a98ef3960e01b82525afa96871561215d57508196612126575b505050916106ae6106b3926121239594611f53565b90565b909180939650813d8311612156575b61213f8183611ea8565b8101031261021d575051926106ae8261212361210e565b503d612135565b51913d9150823e3d90fd5b9095508181813d8311612190575b6121808183611ea8565b81010312610219575194816120e6565b503d612176565b87513d85823e3d90fd5b6121b9919650833d851161042e576104208183611ea8565b9438612097565b88513d86823e3d90fd5b5050935050505090565b506001548411612070565b6000198114611e685760010190565b9190811015611dd05760051b0190565b67ffffffffffffffff8111611e925760051b60200190565b8051821015611dd05760209160051b010190565b1561223157565b60405162461bcd60e51b815260206004820152601a60248201527f4e6f742061206d616e61676564207772617070656420736f6e670000000000006044820152606490fdfe07863fd81b035ca44d1af7b7b984f297c3cf2ef391a2f2e978a98670f200a4eba2646970667358221220572c1f1cc2027b0ad835d616dfd4ff30c14e27b9c012f0b03987ce3c92fa35d664736f6c63430008140033","opcodes":"PUSH1 0xC0 CALLVALUE PUSH3 0x1DE JUMPI PUSH1 0x1F PUSH3 0x24DB CODESIZE DUP2 SWAP1 SUB SWAP2 DUP3 ADD PUSH1 0x1F NOT AND DUP4 ADD SWAP3 SWAP2 SWAP1 PUSH1 0x1 PUSH1 0x1 PUSH1 0x40 SHL SUB DUP5 GT DUP4 DUP6 LT OR PUSH3 0x1E3 JUMPI DUP2 PUSH1 0x60 SWAP3 DUP5 SWAP3 PUSH1 0x40 SWAP7 DUP8 MSTORE DUP4 CODECOPY DUP2 ADD SUB SLT PUSH3 0x1DE JUMPI DUP2 PUSH3 0x52 DUP3 PUSH3 0x1F9 JUMP JUMPDEST SWAP2 PUSH3 0x61 PUSH1 0x20 DUP3 ADD PUSH3 0x1F9 JUMP JUMPDEST PUSH1 0x1 PUSH1 0x1 PUSH1 0xA0 SHL SUB SWAP3 SWAP1 SWAP2 DUP4 SWAP2 PUSH3 0x7A SWAP2 ADD PUSH3 0x1F9 JUMP JUMPDEST AND SWAP3 DUP4 ISZERO PUSH3 0x1C6 JUMPI PUSH1 0x0 DUP1 SLOAD PUSH1 0x1 PUSH1 0x1 PUSH1 0xA0 SHL SUB NOT DUP2 AND DUP7 OR DUP3 SSTORE DUP7 MLOAD SWAP6 DUP6 SWAP4 SWAP3 SWAP1 SWAP2 DUP5 AND SWAP1 PUSH32 0x8BE0079C531659141344CD1FD0A4F28419497F9722A3DAAFE3B4186F6B6457E0 SWAP1 DUP1 LOG3 AND SWAP3 DUP4 ISZERO PUSH3 0x18F JUMPI POP AND SWAP1 DUP2 ISZERO PUSH3 0x14B JUMPI PUSH1 0x80 MSTORE PUSH1 0xA0 MSTORE MLOAD PUSH2 0x22CC SWAP1 DUP2 PUSH3 0x20F DUP3 CODECOPY PUSH1 0x80 MLOAD DUP2 DUP2 DUP2 PUSH2 0x2E4 ADD MSTORE DUP2 DUP2 PUSH2 0x4EC ADD MSTORE DUP2 DUP2 PUSH2 0xA63 ADD MSTORE DUP2 DUP2 PUSH2 0x116C ADD MSTORE DUP2 DUP2 PUSH2 0x166C ADD MSTORE PUSH2 0x1A2E ADD MSTORE PUSH1 0xA0 MLOAD DUP2 DUP2 DUP2 PUSH2 0x175 ADD MSTORE DUP2 DUP2 PUSH2 0x38C ADD MSTORE DUP2 DUP2 PUSH2 0x896 ADD MSTORE DUP2 DUP2 PUSH2 0xC2B ADD MSTORE DUP2 DUP2 PUSH2 0x1877 ADD MSTORE DUP2 DUP2 PUSH2 0x18D2 ADD MSTORE PUSH2 0x1C7E ADD MSTORE RETURN JUMPDEST DUP3 MLOAD PUSH3 0x461BCD PUSH1 0xE5 SHL DUP2 MSTORE PUSH1 0x20 PUSH1 0x4 DUP3 ADD MSTORE PUSH1 0x17 PUSH1 0x24 DUP3 ADD MSTORE PUSH32 0x496E76616C69642070726F746F636F6C206D6F64756C65000000000000000000 PUSH1 0x44 DUP3 ADD MSTORE PUSH1 0x64 SWAP1 REVERT JUMPDEST PUSH3 0x461BCD PUSH1 0xE5 SHL DUP2 MSTORE PUSH1 0x20 PUSH1 0x4 DUP3 ADD MSTORE PUSH1 0x12 PUSH1 0x24 DUP3 ADD MSTORE PUSH18 0x24B73B30B634B21039BA30B13632B1B7B4B7 PUSH1 0x71 SHL PUSH1 0x44 DUP3 ADD MSTORE PUSH1 0x64 SWAP1 REVERT JUMPDEST DUP5 MLOAD PUSH4 0x1E4FBDF7 PUSH1 0xE0 SHL DUP2 MSTORE PUSH1 0x0 PUSH1 0x4 DUP3 ADD MSTORE PUSH1 0x24 SWAP1 REVERT JUMPDEST PUSH1 0x0 DUP1 REVERT JUMPDEST PUSH4 0x4E487B71 PUSH1 0xE0 SHL PUSH1 0x0 MSTORE PUSH1 0x41 PUSH1 0x4 MSTORE PUSH1 0x24 PUSH1 0x0 REVERT JUMPDEST MLOAD SWAP1 PUSH1 0x1 PUSH1 0x1 PUSH1 0xA0 SHL SUB DUP3 AND DUP3 SUB PUSH3 0x1DE JUMPI JUMP INVALID PUSH1 0x80 DUP1 PUSH1 0x40 MSTORE PUSH1 0x4 CALLDATASIZE LT ISZERO PUSH2 0x13 JUMPI PUSH1 0x0 DUP1 REVERT JUMPDEST PUSH1 0x0 SWAP1 DUP2 CALLDATALOAD PUSH1 0xE0 SHR SWAP1 DUP2 PUSH4 0x28A6B9E EQ PUSH2 0x1D0A JUMPI POP DUP1 PUSH4 0x4ADBC22 EQ PUSH2 0x1C22 JUMPI DUP1 PUSH4 0xA279E15 EQ PUSH2 0x1BF2 JUMPI DUP1 PUSH4 0x1188029F EQ PUSH2 0x1BAE JUMPI DUP1 PUSH4 0x16114ACD EQ PUSH2 0x19FE JUMPI DUP1 PUSH4 0x16A91B2F EQ PUSH2 0x19A9 JUMPI DUP1 PUSH4 0x49F3329B EQ PUSH2 0x1967 JUMPI DUP1 PUSH4 0x4B08EC50 EQ PUSH2 0x18A6 JUMPI DUP1 PUSH4 0x5C42E667 EQ PUSH2 0x1861 JUMPI DUP1 PUSH4 0x6D3D6E6D EQ PUSH2 0x1837 JUMPI DUP1 PUSH4 0x715018A6 EQ PUSH2 0x17DD JUMPI DUP1 PUSH4 0x7F41B4A8 EQ PUSH2 0x1458 JUMPI DUP1 PUSH4 0x8DA5CB5B EQ PUSH2 0x1431 JUMPI DUP1 PUSH4 0x921F4533 EQ PUSH2 0x1076 JUMPI DUP1 PUSH4 0x9D6CE7CA EQ PUSH2 0xDB8 JUMPI DUP1 PUSH4 0xB0C70E27 EQ PUSH2 0xBE4 JUMPI DUP1 PUSH4 0xB3104D80 EQ PUSH2 0xBAB JUMPI DUP1 PUSH4 0xB8B0A09A EQ PUSH2 0x8F3 JUMPI DUP1 PUSH4 0xBE94E319 EQ PUSH2 0x83F JUMPI DUP1 PUSH4 0xC0C71CE9 EQ PUSH2 0x45E JUMPI DUP1 PUSH4 0xD20098A2 EQ PUSH2 0x440 JUMPI DUP1 PUSH4 0xD65BD2FA EQ PUSH2 0x330 JUMPI DUP1 PUSH4 0xE91E13A9 EQ PUSH2 0x313 JUMPI DUP1 PUSH4 0xE9CBD822 EQ PUSH2 0x2CE JUMPI DUP1 PUSH4 0xEACDC5FF EQ PUSH2 0x2B0 JUMPI DUP1 PUSH4 0xF2FDE38B EQ PUSH2 0x220 JUMPI PUSH4 0xF5260369 EQ PUSH2 0x14A JUMPI PUSH1 0x0 DUP1 REVERT JUMPDEST CALLVALUE PUSH2 0x21D JUMPI PUSH1 0x20 CALLDATASIZE PUSH1 0x3 NOT ADD SLT PUSH2 0x21D JUMPI PUSH2 0x163 PUSH2 0x1D83 JUMP JUMPDEST PUSH2 0x16B PUSH2 0x1E2F JUMP JUMPDEST PUSH1 0x1 PUSH1 0x1 PUSH1 0xA0 SHL SUB PUSH32 0x0 DUP2 AND SWAP2 DUP4 SWAP2 SWAP1 DUP4 EXTCODESIZE ISZERO PUSH2 0x219 JUMPI DUP3 SWAP2 PUSH1 0x24 DUP4 SWAP3 PUSH1 0x40 MLOAD SWAP5 DUP6 SWAP4 DUP5 SWAP3 PUSH4 0xF5260369 PUSH1 0xE0 SHL DUP5 MSTORE AND SWAP8 DUP9 PUSH1 0x4 DUP5 ADD MSTORE GAS CALL DUP1 ISZERO PUSH2 0x20E JUMPI PUSH2 0x1F6 JUMPI JUMPDEST POP DUP1 PUSH32 0x9B8B9FD151330B7D89319C88ADC1BA5B0E63288A430BAC1173B0AF4570586B63 SWAP2 LOG2 DUP1 RETURN JUMPDEST PUSH2 0x1FF SWAP1 PUSH2 0x1E7E JUMP JUMPDEST PUSH2 0x20A JUMPI DUP2 CODESIZE PUSH2 0x1CE JUMP JUMPDEST POP DUP1 REVERT JUMPDEST PUSH1 0x40 MLOAD RETURNDATASIZE DUP5 DUP3 RETURNDATACOPY RETURNDATASIZE SWAP1 REVERT JUMPDEST DUP3 DUP1 REVERT JUMPDEST DUP1 REVERT JUMPDEST POP CALLVALUE PUSH2 0x21D JUMPI PUSH1 0x20 CALLDATASIZE PUSH1 0x3 NOT ADD SLT PUSH2 0x21D JUMPI PUSH2 0x23A PUSH2 0x1D83 JUMP JUMPDEST PUSH2 0x242 PUSH2 0x1E2F JUMP JUMPDEST PUSH1 0x1 PUSH1 0x1 PUSH1 0xA0 SHL SUB SWAP1 DUP2 AND SWAP1 DUP2 ISZERO PUSH2 0x297 JUMPI PUSH1 0x0 SLOAD DUP3 PUSH12 0xFFFFFFFFFFFFFFFFFFFFFFFF PUSH1 0xA0 SHL DUP3 AND OR PUSH1 0x0 SSTORE AND PUSH32 0x8BE0079C531659141344CD1FD0A4F28419497F9722A3DAAFE3B4186F6B6457E0 PUSH1 0x0 DUP1 LOG3 DUP1 RETURN JUMPDEST PUSH1 0x40 MLOAD PUSH4 0x1E4FBDF7 PUSH1 0xE0 SHL DUP2 MSTORE PUSH1 0x4 DUP2 ADD DUP5 SWAP1 MSTORE PUSH1 0x24 SWAP1 REVERT JUMPDEST POP CALLVALUE PUSH2 0x21D JUMPI DUP1 PUSH1 0x3 NOT CALLDATASIZE ADD SLT PUSH2 0x21D JUMPI PUSH1 0x20 PUSH1 0x1 SLOAD PUSH1 0x40 MLOAD SWAP1 DUP2 MSTORE RETURN JUMPDEST POP CALLVALUE PUSH2 0x21D JUMPI DUP1 PUSH1 0x3 NOT CALLDATASIZE ADD SLT PUSH2 0x21D JUMPI PUSH1 0x40 MLOAD PUSH32 0x0 PUSH1 0x1 PUSH1 0x1 PUSH1 0xA0 SHL SUB AND DUP2 MSTORE PUSH1 0x20 SWAP1 RETURN JUMPDEST POP CALLVALUE PUSH2 0x21D JUMPI DUP1 PUSH1 0x3 NOT CALLDATASIZE ADD SLT PUSH2 0x21D JUMPI PUSH1 0x20 PUSH1 0x40 MLOAD PUSH2 0x3E8 DUP2 MSTORE RETURN JUMPDEST POP CALLVALUE PUSH2 0x21D JUMPI PUSH1 0x20 CALLDATASIZE PUSH1 0x3 NOT ADD SLT PUSH2 0x21D JUMPI DUP1 PUSH2 0x34B PUSH2 0x1D83 JUMP JUMPDEST PUSH2 0x353 PUSH2 0x1E2F JUMP JUMPDEST PUSH1 0x1 DUP1 PUSH1 0xA0 SHL SUB DUP1 SWAP2 AND SWAP1 DUP2 DUP4 MSTORE PUSH1 0x5 PUSH1 0x20 MSTORE PUSH2 0x377 PUSH1 0x40 DUP5 KECCAK256 SLOAD PUSH1 0x6 SLOAD GT PUSH2 0x222A JUMP JUMPDEST PUSH1 0x40 MLOAD PUSH4 0x222E555 PUSH1 0xE2 SHL DUP2 MSTORE PUSH1 0x20 DUP2 PUSH1 0x4 DUP2 PUSH32 0x0 DUP7 AND GAS STATICCALL SWAP1 DUP2 ISZERO PUSH2 0x435 JUMPI DUP5 SWAP2 PUSH2 0x407 JUMPI JUMPDEST POP AND SWAP1 DUP2 EXTCODESIZE ISZERO PUSH2 0x403 JUMPI DUP3 SWAP2 PUSH1 0x24 DUP4 SWAP3 PUSH1 0x40 MLOAD SWAP5 DUP6 SWAP4 DUP5 SWAP3 PUSH4 0x4902FD7F PUSH1 0xE1 SHL DUP5 MSTORE PUSH1 0x4 DUP5 ADD MSTORE GAS CALL DUP1 ISZERO PUSH2 0x20E JUMPI PUSH2 0x3F3 JUMPI POP RETURN JUMPDEST PUSH2 0x3FC SWAP1 PUSH2 0x1E7E JUMP JUMPDEST PUSH2 0x21D JUMPI DUP1 RETURN JUMPDEST POP POP REVERT JUMPDEST PUSH2 0x428 SWAP2 POP PUSH1 0x20 RETURNDATASIZE DUP2 GT PUSH2 0x42E JUMPI JUMPDEST PUSH2 0x420 DUP2 DUP4 PUSH2 0x1EA8 JUMP JUMPDEST DUP2 ADD SWAP1 PUSH2 0x2013 JUMP JUMPDEST CODESIZE PUSH2 0x3BD JUMP JUMPDEST POP RETURNDATASIZE PUSH2 0x416 JUMP JUMPDEST PUSH1 0x40 MLOAD RETURNDATASIZE DUP7 DUP3 RETURNDATACOPY RETURNDATASIZE SWAP1 REVERT JUMPDEST POP CALLVALUE PUSH2 0x21D JUMPI DUP1 PUSH1 0x3 NOT CALLDATASIZE ADD SLT PUSH2 0x21D JUMPI PUSH1 0x20 PUSH1 0x6 SLOAD PUSH1 0x40 MLOAD SWAP1 DUP2 MSTORE RETURN JUMPDEST POP CALLVALUE PUSH2 0x21D JUMPI PUSH1 0x40 CALLDATASIZE PUSH1 0x3 NOT ADD SLT PUSH2 0x21D JUMPI PUSH1 0x4 CALLDATALOAD PUSH8 0xFFFFFFFFFFFFFFFF DUP2 GT PUSH2 0x20A JUMPI PUSH2 0x490 SWAP1 CALLDATASIZE SWAP1 PUSH1 0x4 ADD PUSH2 0x1DFE JUMP JUMPDEST SWAP1 PUSH1 0x24 SWAP1 DUP2 CALLDATALOAD PUSH1 0x1 PUSH2 0x4A5 DUP2 SLOAD DUP4 GT ISZERO PUSH2 0x1FD7 JUMP JUMPDEST DUP5 ISZERO PUSH2 0x7FB JUMPI DUP6 SWAP5 DUP7 JUMPDEST DUP2 DUP2 LT PUSH2 0x58D JUMPI DUP8 DUP8 DUP8 DUP2 ISZERO PUSH2 0x556 JUMPI POP PUSH1 0x40 MLOAD PUSH4 0xA9059CBB PUSH1 0xE0 SHL DUP2 MSTORE CALLER PUSH1 0x4 DUP3 ADD MSTORE PUSH1 0x24 DUP2 ADD SWAP2 SWAP1 SWAP2 MSTORE PUSH1 0x20 DUP2 PUSH1 0x44 DUP2 DUP6 PUSH1 0x1 PUSH1 0x1 PUSH1 0xA0 SHL SUB PUSH32 0x0 AND GAS CALL DUP1 ISZERO PUSH2 0x20E JUMPI PUSH2 0x525 SWAP2 DUP4 SWAP2 PUSH2 0x528 JUMPI JUMPDEST POP PUSH2 0x1EE2 JUMP JUMPDEST DUP1 RETURN JUMPDEST PUSH2 0x549 SWAP2 POP PUSH1 0x20 RETURNDATASIZE DUP2 GT PUSH2 0x54F JUMPI JUMPDEST PUSH2 0x541 DUP2 DUP4 PUSH2 0x1EA8 JUMP JUMPDEST DUP2 ADD SWAP1 PUSH2 0x1ECA JUMP JUMPDEST DUP4 PUSH2 0x51F JUMP JUMPDEST POP RETURNDATASIZE PUSH2 0x537 JUMP JUMPDEST PUSH1 0x64 SWAP1 PUSH1 0x10 PUSH1 0x40 MLOAD SWAP2 PUSH3 0x461BCD PUSH1 0xE5 SHL DUP4 MSTORE PUSH1 0x20 PUSH1 0x4 DUP5 ADD MSTORE DUP3 ADD MSTORE PUSH16 0x4E6F7468696E6720746F20636C61696D PUSH1 0x80 SHL PUSH1 0x44 DUP3 ADD MSTORE REVERT JUMPDEST PUSH2 0x59B DUP2 DUP4 DUP8 SWAP11 SWAP10 SWAP11 PUSH2 0x21EE JUMP JUMPDEST PUSH1 0x1 PUSH1 0x1 PUSH1 0xA0 SHL SUB SWAP9 SWAP1 CALLDATALOAD DUP10 DUP2 AND SWAP1 DUP2 SWAP1 SUB PUSH2 0x7F7 JUMPI DUP6 DUP10 MSTORE PUSH1 0x20 PUSH1 0x4 DUP2 MSTORE PUSH1 0x40 DUP11 KECCAK256 CALLER PUSH1 0x0 MSTORE DUP2 MSTORE PUSH1 0x40 PUSH1 0x0 KECCAK256 DUP3 PUSH1 0x0 MSTORE DUP2 MSTORE PUSH1 0xFF PUSH1 0x40 PUSH1 0x0 KECCAK256 SLOAD AND PUSH2 0x7A6 JUMPI DUP10 SWAP11 DUP8 DUP12 MSTORE PUSH1 0x2 DUP3 MSTORE PUSH1 0x40 DUP12 KECCAK256 SWAP1 PUSH1 0x40 MLOAD PUSH4 0x6FAD7E95 PUSH1 0xE1 SHL DUP2 MSTORE DUP4 DUP2 PUSH1 0x4 DUP2 DUP9 GAS STATICCALL SWAP2 DUP3 ISZERO PUSH2 0x743 JUMPI DUP14 DUP11 SWAP3 DUP2 SWAP5 PUSH2 0x784 JUMPI JUMPDEST POP DUP1 DUP8 PUSH1 0x40 SWAP3 MSTORE PUSH1 0x5 DUP8 MSTORE KECCAK256 SLOAD SWAP3 AND SWAP3 ADD SLOAD SWAP2 PUSH1 0x40 MLOAD SWAP3 PUSH4 0xC4DB40D PUSH1 0xE3 SHL DUP5 MSTORE CALLER PUSH1 0x4 DUP6 ADD MSTORE DUP10 DUP14 DUP6 ADD MSTORE PUSH1 0x44 DUP5 ADD MSTORE DUP4 DUP4 PUSH1 0x64 DUP2 DUP5 GAS STATICCALL SWAP3 DUP4 ISZERO PUSH2 0x743 JUMPI DUP14 SWAP4 PUSH2 0x74E JUMPI JUMPDEST POP SWAP1 DUP4 PUSH1 0x4 SWAP4 SWAP3 PUSH1 0x40 MLOAD SWAP5 DUP6 DUP1 SWAP3 PUSH4 0x3A98EF39 PUSH1 0xE0 SHL DUP3 MSTORE GAS STATICCALL SWAP3 DUP4 ISZERO PUSH2 0x743 JUMPI DUP14 SWAP4 PUSH2 0x6FB JUMPI JUMPDEST POP SWAP3 PUSH1 0x40 PUSH2 0x6BF PUSH2 0x6B8 DUP13 SWAP8 SWAP6 PUSH2 0x6B3 PUSH1 0x0 DUP1 MLOAD PUSH1 0x20 PUSH2 0x2277 DUP4 CODECOPY DUP2 MLOAD SWAP2 MSTORE SWAP7 PUSH2 0x6AE PUSH2 0x6F6 SWAP14 SWAP13 SWAP11 DUP13 PUSH2 0x1F53 JUMP JUMPDEST PUSH2 0x1F20 JUMP JUMPDEST PUSH2 0x1F33 JUMP JUMPDEST DUP1 SWAP7 PUSH2 0x1E5B JUMP JUMPDEST SWAP14 DUP7 DUP2 MSTORE PUSH1 0x4 DUP4 MSTORE KECCAK256 CALLER PUSH1 0x0 MSTORE DUP2 MSTORE PUSH1 0x40 PUSH1 0x0 KECCAK256 DUP4 PUSH1 0x0 MSTORE DUP2 MSTORE PUSH1 0x40 PUSH1 0x0 KECCAK256 DUP10 PUSH1 0xFF NOT DUP3 SLOAD AND OR SWAP1 SSTORE PUSH1 0x40 MLOAD SWAP4 DUP5 MSTORE CALLER SWAP4 LOG4 PUSH2 0x21DF JUMP JUMPDEST PUSH2 0x4AF JUMP JUMPDEST DUP5 DUP1 SWAP15 POP DUP2 SWAP7 SWAP5 POP SWAP2 SWAP8 SWAP7 SWAP5 RETURNDATASIZE DUP4 GT PUSH2 0x73C JUMPI JUMPDEST PUSH2 0x719 DUP2 DUP4 PUSH2 0x1EA8 JUMP JUMPDEST DUP2 ADD SUB SLT PUSH2 0x737 JUMPI SWAP3 MLOAD DUP13 SWAP12 SWAP5 SWAP6 SWAP3 SWAP5 SWAP2 SWAP4 SWAP2 SWAP3 SWAP1 SWAP2 SWAP1 PUSH1 0x40 PUSH2 0x67F JUMP JUMPDEST PUSH1 0x0 DUP1 REVERT JUMPDEST POP RETURNDATASIZE PUSH2 0x70F JUMP JUMPDEST PUSH1 0x40 MLOAD RETURNDATASIZE DUP16 DUP3 RETURNDATACOPY RETURNDATASIZE SWAP1 REVERT JUMPDEST DUP5 DUP1 SWAP3 SWAP4 SWAP15 POP DUP2 SWAP5 POP RETURNDATASIZE DUP4 GT PUSH2 0x77D JUMPI JUMPDEST PUSH2 0x769 DUP2 DUP4 PUSH2 0x1EA8 JUMP JUMPDEST DUP2 ADD SUB SLT PUSH2 0x737 JUMPI SWAP1 MLOAD DUP13 SWAP12 SWAP1 SWAP2 DUP4 PUSH2 0x657 JUMP JUMPDEST POP RETURNDATASIZE PUSH2 0x75F JUMP JUMPDEST PUSH1 0x40 SWAP2 SWAP5 POP PUSH2 0x79F SWAP1 DUP8 RETURNDATASIZE DUP10 GT PUSH2 0x42E JUMPI PUSH2 0x420 DUP2 DUP4 PUSH2 0x1EA8 JUMP JUMPDEST SWAP4 SWAP1 PUSH2 0x610 JUMP JUMPDEST PUSH1 0x84 SWAP1 PUSH1 0x25 DUP11 PUSH1 0x40 MLOAD SWAP3 PUSH3 0x461BCD PUSH1 0xE5 SHL DUP5 MSTORE PUSH1 0x4 DUP5 ADD MSTORE DUP3 ADD MSTORE PUSH32 0x416C726561647920636C61696D656420666F7220746869732077726170706564 PUSH1 0x44 DUP3 ADD MSTORE PUSH5 0x20736F6E67 PUSH1 0xD8 SHL PUSH1 0x64 DUP3 ADD MSTORE REVERT JUMPDEST DUP9 DUP1 REVERT JUMPDEST PUSH1 0x40 MLOAD PUSH3 0x461BCD PUSH1 0xE5 SHL DUP2 MSTORE PUSH1 0x20 PUSH1 0x4 DUP3 ADD MSTORE PUSH1 0x19 DUP2 DUP7 ADD MSTORE PUSH32 0x456D707479207772617070656420736F6E677320617272617900000000000000 PUSH1 0x44 DUP3 ADD MSTORE PUSH1 0x64 SWAP1 REVERT JUMPDEST POP CALLVALUE PUSH2 0x21D JUMPI PUSH1 0x40 CALLDATASIZE PUSH1 0x3 NOT ADD SLT PUSH2 0x21D JUMPI PUSH2 0x859 PUSH2 0x1D83 JUMP JUMPDEST PUSH1 0x24 CALLDATALOAD DUP1 ISZERO ISZERO DUP1 SWAP2 SUB PUSH2 0x737 JUMPI DUP3 SWAP2 PUSH2 0x870 PUSH2 0x1E2F JUMP JUMPDEST PUSH1 0x1 DUP1 PUSH1 0xA0 SHL SUB DUP1 SWAP2 AND SWAP1 DUP2 DUP5 MSTORE PUSH1 0x5 PUSH1 0x20 MSTORE PUSH2 0x894 PUSH1 0x40 DUP6 KECCAK256 SLOAD PUSH1 0x6 SLOAD GT PUSH2 0x222A JUMP JUMPDEST PUSH32 0x0 AND SWAP2 DUP3 EXTCODESIZE ISZERO PUSH2 0x8EE JUMPI PUSH1 0x44 DUP5 SWAP3 DUP4 PUSH1 0x40 MLOAD SWAP6 DUP7 SWAP5 DUP6 SWAP4 PUSH4 0xBE94E319 PUSH1 0xE0 SHL DUP6 MSTORE PUSH1 0x4 DUP6 ADD MSTORE PUSH1 0x24 DUP5 ADD MSTORE GAS CALL DUP1 ISZERO PUSH2 0x20E JUMPI PUSH2 0x3F3 JUMPI POP RETURN JUMPDEST POP POP POP REVERT JUMPDEST POP CALLVALUE PUSH2 0x21D JUMPI PUSH1 0x40 CALLDATASIZE PUSH1 0x3 NOT ADD SLT PUSH2 0x21D JUMPI PUSH2 0x90D PUSH2 0x1D83 JUMP JUMPDEST PUSH1 0x24 CALLDATALOAD SWAP1 DUP2 DUP4 MSTORE PUSH1 0x20 SWAP1 PUSH1 0x4 DUP3 MSTORE PUSH1 0x40 DUP5 KECCAK256 CALLER PUSH1 0x0 MSTORE DUP3 MSTORE PUSH1 0x40 PUSH1 0x0 KECCAK256 SWAP1 PUSH1 0x1 DUP1 PUSH1 0xA0 SHL SUB DUP1 SWAP2 AND SWAP2 DUP3 PUSH1 0x0 MSTORE DUP4 MSTORE PUSH1 0xFF PUSH1 0x40 PUSH1 0x0 KECCAK256 SLOAD AND PUSH2 0xB74 JUMPI PUSH2 0x957 PUSH1 0x1 SLOAD DUP6 GT ISZERO PUSH2 0x1FD7 JUMP JUMPDEST DUP4 DUP6 MSTORE PUSH1 0x2 DUP4 MSTORE PUSH1 0x40 DUP1 DUP7 KECCAK256 SWAP1 MLOAD PUSH4 0x6FAD7E95 PUSH1 0xE1 SHL DUP2 MSTORE DUP5 DUP2 PUSH1 0x4 DUP2 DUP8 GAS STATICCALL SWAP1 DUP2 ISZERO PUSH2 0xB69 JUMPI DUP8 SWAP2 PUSH2 0xB4C JUMPI JUMPDEST POP DUP4 DUP8 MSTORE PUSH1 0x5 DUP6 MSTORE PUSH1 0x1 DUP4 PUSH1 0x40 DUP10 KECCAK256 SLOAD SWAP3 AND SWAP3 ADD SLOAD SWAP1 PUSH1 0x40 MLOAD SWAP2 PUSH4 0xC4DB40D PUSH1 0xE3 SHL DUP4 MSTORE CALLER PUSH1 0x4 DUP5 ADD MSTORE PUSH1 0x1 PUSH1 0x24 DUP5 ADD MSTORE PUSH1 0x44 DUP4 ADD MSTORE DUP6 DUP3 PUSH1 0x64 DUP2 DUP7 GAS STATICCALL SWAP2 DUP3 ISZERO PUSH2 0xB11 JUMPI DUP7 SWAP1 DUP10 SWAP4 PUSH2 0xB1C JUMPI JUMPDEST POP PUSH1 0x40 MLOAD PUSH4 0x3A98EF39 PUSH1 0xE0 SHL DUP2 MSTORE SWAP3 SWAP4 DUP4 SWAP1 PUSH1 0x4 SWAP1 DUP3 SWAP1 GAS STATICCALL SWAP2 DUP3 ISZERO PUSH2 0xB11 JUMPI DUP9 SWAP3 PUSH2 0xAE0 JUMPI JUMPDEST POP PUSH2 0xA0C SWAP3 PUSH2 0x6AE PUSH2 0x6B3 SWAP3 DUP10 PUSH2 0x1F53 JUMP JUMPDEST DUP5 DUP7 MSTORE PUSH1 0x4 DUP1 DUP6 MSTORE PUSH1 0x40 DUP1 DUP9 KECCAK256 CALLER PUSH1 0x0 DUP2 DUP2 MSTORE SWAP2 DUP9 MSTORE DUP3 DUP3 KECCAK256 DUP8 DUP4 MSTORE DUP9 MSTORE SWAP1 DUP3 SWAP1 KECCAK256 DUP1 SLOAD PUSH1 0xFF NOT AND PUSH1 0x1 OR SWAP1 SSTORE SWAP1 MLOAD PUSH4 0xA9059CBB PUSH1 0xE0 SHL DUP2 MSTORE SWAP2 DUP3 ADD MSTORE PUSH1 0x24 DUP2 ADD DUP3 SWAP1 MSTORE SWAP1 SWAP4 SWAP1 SWAP2 DUP2 SWAP1 DUP4 SWAP1 DUP2 DUP10 DUP2 PUSH1 0x44 DUP2 ADD SUB SWAP3 PUSH32 0x0 AND GAS CALL SWAP2 DUP3 ISZERO PUSH2 0xAD5 JUMPI PUSH1 0x0 DUP1 MLOAD PUSH1 0x20 PUSH2 0x2277 DUP4 CODECOPY DUP2 MLOAD SWAP2 MSTORE SWAP3 PUSH2 0xAAC SWAP2 DUP9 SWAP2 PUSH2 0xAB8 JUMPI POP PUSH2 0x1EE2 JUMP JUMPDEST PUSH1 0x40 MLOAD SWAP4 DUP5 MSTORE CALLER SWAP4 LOG4 DUP1 RETURN JUMPDEST PUSH2 0xACF SWAP2 POP DUP4 RETURNDATASIZE DUP6 GT PUSH2 0x54F JUMPI PUSH2 0x541 DUP2 DUP4 PUSH2 0x1EA8 JUMP JUMPDEST CODESIZE PUSH2 0x51F JUMP JUMPDEST PUSH1 0x40 MLOAD RETURNDATASIZE DUP9 DUP3 RETURNDATACOPY RETURNDATASIZE SWAP1 REVERT JUMPDEST SWAP1 SWAP2 POP DUP6 DUP2 DUP2 RETURNDATASIZE DUP4 GT PUSH2 0xB0A JUMPI JUMPDEST PUSH2 0xAF8 DUP2 DUP4 PUSH2 0x1EA8 JUMP JUMPDEST DUP2 ADD SUB SLT PUSH2 0x737 JUMPI MLOAD SWAP1 PUSH2 0xA0C PUSH2 0x9FA JUMP JUMPDEST POP RETURNDATASIZE PUSH2 0xAEE JUMP JUMPDEST PUSH1 0x40 MLOAD RETURNDATASIZE DUP11 DUP3 RETURNDATACOPY RETURNDATASIZE SWAP1 REVERT JUMPDEST DUP1 SWAP4 POP DUP2 RETURNDATASIZE DUP4 GT PUSH2 0xB45 JUMPI JUMPDEST PUSH2 0xB32 DUP2 DUP4 PUSH2 0x1EA8 JUMP JUMPDEST DUP2 ADD SUB SLT PUSH2 0x737 JUMPI DUP6 PUSH1 0x4 SWAP3 MLOAD SWAP3 PUSH2 0x9D3 JUMP JUMPDEST POP RETURNDATASIZE PUSH2 0xB28 JUMP JUMPDEST PUSH2 0xB63 SWAP2 POP DUP6 RETURNDATASIZE DUP8 GT PUSH2 0x42E JUMPI PUSH2 0x420 DUP2 DUP4 PUSH2 0x1EA8 JUMP JUMPDEST CODESIZE PUSH2 0x985 JUMP JUMPDEST PUSH1 0x40 MLOAD RETURNDATASIZE DUP10 DUP3 RETURNDATACOPY RETURNDATASIZE SWAP1 REVERT JUMPDEST PUSH1 0x40 MLOAD PUSH3 0x461BCD PUSH1 0xE5 SHL DUP2 MSTORE PUSH1 0x4 DUP2 ADD DUP5 SWAP1 MSTORE PUSH1 0xF PUSH1 0x24 DUP3 ADD MSTORE PUSH15 0x105B1C9958591E4818DB185A5B5959 PUSH1 0x8A SHL PUSH1 0x44 DUP3 ADD MSTORE PUSH1 0x64 SWAP1 REVERT JUMPDEST POP CALLVALUE PUSH2 0x21D JUMPI PUSH1 0x20 CALLDATASIZE PUSH1 0x3 NOT ADD SLT PUSH2 0x21D JUMPI PUSH1 0x20 SWAP1 PUSH1 0x40 SWAP1 PUSH1 0x1 PUSH1 0x1 PUSH1 0xA0 SHL SUB PUSH2 0xBD3 PUSH2 0x1D83 JUMP JUMPDEST AND DUP2 MSTORE PUSH1 0x5 DUP4 MSTORE KECCAK256 SLOAD PUSH1 0x40 MLOAD SWAP1 DUP2 MSTORE RETURN JUMPDEST POP CALLVALUE PUSH2 0x21D JUMPI PUSH1 0x20 DUP1 PUSH1 0x3 NOT CALLDATASIZE ADD SLT PUSH2 0x20A JUMPI PUSH2 0xBFF PUSH2 0x1D83 JUMP JUMPDEST SWAP1 PUSH2 0xC08 PUSH2 0x1E2F JUMP JUMPDEST PUSH1 0x40 MLOAD PUSH4 0x63DF2F15 PUSH1 0xE1 SHL DUP2 MSTORE PUSH1 0x1 PUSH1 0x1 PUSH1 0xA0 SHL SUB SWAP3 DUP4 AND PUSH1 0x4 DUP3 ADD DUP2 SWAP1 MSTORE SWAP3 SWAP1 PUSH32 0x0 DUP3 AND SWAP1 DUP4 DUP2 PUSH1 0x24 DUP2 DUP6 GAS STATICCALL SWAP1 DUP2 ISZERO PUSH2 0xAD5 JUMPI DUP7 SWAP2 PUSH2 0xD9B JUMPI JUMPDEST POP DUP3 ADDRESS SWAP2 AND SUB PUSH2 0xD56 JUMPI DUP1 DUP6 SWAP2 EXTCODESIZE ISZERO PUSH2 0x20A JUMPI DUP2 DUP1 SWAP2 PUSH1 0x24 PUSH1 0x40 MLOAD DUP1 SWAP5 DUP2 SWAP4 PUSH4 0xB0C70E27 PUSH1 0xE0 SHL DUP4 MSTORE DUP11 PUSH1 0x4 DUP5 ADD MSTORE GAS CALL DUP1 ISZERO PUSH2 0x20E JUMPI PUSH2 0xD3E JUMPI JUMPDEST POP POP PUSH1 0x6 SLOAD PUSH1 0x1 PUSH1 0x40 SHL DUP2 LT ISZERO PUSH2 0xD2A JUMPI DUP1 PUSH1 0x1 PUSH2 0xCC0 SWAP3 ADD PUSH1 0x6 SSTORE PUSH2 0x1D99 JUMP JUMPDEST DUP2 SWAP3 SWAP2 SLOAD SWAP1 PUSH1 0x3 SHL SWAP2 DUP6 DUP4 SHL SWAP3 SHL NOT AND OR SWAP1 SSTORE PUSH1 0x6 SLOAD SWAP1 PUSH1 0x0 NOT DUP3 ADD SWAP2 DUP3 GT PUSH2 0xD16 JUMPI PUSH1 0x5 SWAP1 DUP4 DUP6 MSTORE MSTORE PUSH1 0x40 DUP4 KECCAK256 SSTORE PUSH32 0xE1649799FD93D14E82CCAB2710A96C6B05AF2496C30F0C9401E159F568813EFD DUP3 DUP1 LOG2 DUP1 RETURN JUMPDEST PUSH4 0x4E487B71 PUSH1 0xE0 SHL DUP5 MSTORE PUSH1 0x11 PUSH1 0x4 MSTORE PUSH1 0x24 DUP5 REVERT JUMPDEST PUSH4 0x4E487B71 PUSH1 0xE0 SHL DUP6 MSTORE PUSH1 0x41 PUSH1 0x4 MSTORE PUSH1 0x24 DUP6 REVERT JUMPDEST PUSH2 0xD47 SWAP1 PUSH2 0x1E7E JUMP JUMPDEST PUSH2 0xD52 JUMPI DUP4 CODESIZE PUSH2 0xC9F JUMP JUMPDEST DUP4 DUP1 REVERT JUMPDEST PUSH1 0x40 MLOAD PUSH3 0x461BCD PUSH1 0xE5 SHL DUP2 MSTORE PUSH1 0x4 DUP2 ADD DUP5 SWAP1 MSTORE PUSH1 0x1B PUSH1 0x24 DUP3 ADD MSTORE PUSH32 0x4E6F74207468652070656E64696E67206469737472696275746F720000000000 PUSH1 0x44 DUP3 ADD MSTORE PUSH1 0x64 SWAP1 REVERT JUMPDEST PUSH2 0xDB2 SWAP2 POP DUP5 RETURNDATASIZE DUP7 GT PUSH2 0x42E JUMPI PUSH2 0x420 DUP2 DUP4 PUSH2 0x1EA8 JUMP JUMPDEST CODESIZE PUSH2 0xC63 JUMP JUMPDEST POP CALLVALUE PUSH2 0x21D JUMPI PUSH1 0x60 CALLDATASIZE PUSH1 0x3 NOT ADD SLT PUSH2 0x21D JUMPI PUSH2 0xDD2 PUSH2 0x1D83 JUMP JUMPDEST SWAP1 PUSH2 0xDDB PUSH2 0x1D6D JUMP JUMPDEST SWAP2 PUSH1 0x44 CALLDATALOAD PUSH8 0xFFFFFFFFFFFFFFFF DUP2 GT PUSH2 0x219 JUMPI PUSH2 0xDFC SWAP1 CALLDATASIZE SWAP1 PUSH1 0x4 ADD PUSH2 0x1DFE JUMP JUMPDEST PUSH1 0x40 MLOAD PUSH4 0x6FAD7E95 PUSH1 0xE1 SHL DUP2 MSTORE SWAP1 SWAP5 SWAP1 SWAP3 SWAP1 SWAP2 PUSH1 0x1 PUSH1 0x1 PUSH1 0xA0 SHL SUB SWAP1 PUSH1 0x20 DUP6 PUSH1 0x4 DUP2 DUP6 DUP8 AND GAS STATICCALL SWAP5 DUP6 ISZERO PUSH2 0xAD5 JUMPI DUP7 SWAP6 PUSH2 0x1055 JUMPI JUMPDEST POP DUP2 DUP4 AND DUP7 MSTORE PUSH1 0x5 PUSH1 0x20 MSTORE PUSH1 0x40 DUP7 KECCAK256 SLOAD SWAP2 PUSH1 0x40 MLOAD SWAP5 PUSH4 0x3A98EF39 PUSH1 0xE0 SHL DUP7 MSTORE PUSH1 0x20 DUP7 PUSH1 0x4 DUP2 DUP6 DUP12 AND GAS STATICCALL SWAP6 DUP7 ISZERO PUSH2 0xB11 JUMPI DUP9 SWAP7 PUSH2 0x1021 JUMPI JUMPDEST POP PUSH2 0xE78 DUP10 SWAP8 SWAP10 SWAP6 SWAP4 SWAP6 PUSH2 0x21FE JUMP JUMPDEST SWAP9 PUSH2 0xE86 PUSH1 0x40 MLOAD SWAP11 DUP12 PUSH2 0x1EA8 JUMP JUMPDEST DUP8 DUP11 MSTORE PUSH1 0x1F NOT PUSH2 0xE95 DUP10 PUSH2 0x21FE JUMP JUMPDEST ADD CALLDATASIZE PUSH1 0x20 DUP13 ADD CALLDATACOPY DUP9 SWAP4 PUSH1 0x1 SWAP9 DUP10 SLOAD SWAP6 JUMPDEST DUP2 DUP2 LT PUSH2 0xEEC JUMPI DUP13 DUP13 DUP13 PUSH1 0x40 MLOAD SWAP2 PUSH1 0x20 DUP4 ADD PUSH1 0x20 DUP5 MSTORE DUP5 MLOAD DUP1 SWAP2 MSTORE PUSH1 0x20 PUSH1 0x40 DUP6 ADD SWAP6 ADD SWAP2 JUMPDEST DUP2 DUP2 LT PUSH2 0xED7 JUMPI DUP5 DUP7 SUB DUP6 RETURN JUMPDEST DUP3 MLOAD DUP7 MSTORE PUSH1 0x20 SWAP6 DUP7 ADD SWAP6 SWAP1 SWAP3 ADD SWAP2 DUP4 ADD PUSH2 0xECA JUMP JUMPDEST DUP11 PUSH2 0xEFB DUP3 SWAP13 SWAP15 SWAP13 DUP5 DUP13 PUSH2 0x21EE JUMP JUMPDEST CALLDATALOAD DUP14 DUP14 DUP11 DUP4 GT DUP1 ISZERO PUSH2 0xFEC JUMPI JUMPDEST PUSH2 0xFD9 JUMPI POP PUSH1 0x40 DUP2 DUP4 DUP6 SWAP4 MSTORE PUSH1 0x2 PUSH1 0x20 MSTORE KECCAK256 ADD SLOAD PUSH1 0x40 MLOAD SWAP3 PUSH4 0xC4DB40D PUSH1 0xE3 SHL DUP5 MSTORE DUP10 DUP10 AND PUSH1 0x4 DUP6 ADD MSTORE PUSH1 0x24 DUP5 ADD MSTORE PUSH1 0x44 DUP4 ADD MSTORE PUSH1 0x20 DUP3 PUSH1 0x64 DUP2 DUP12 DUP11 AND GAS STATICCALL SWAP2 DUP3 ISZERO PUSH2 0xFCC JUMPI SWAP2 DUP11 DUP16 SWAP3 DUP16 SWAP4 SWAP5 DUP16 SWAP7 SWAP6 SWAP4 PUSH2 0xF8C JUMPI JUMPDEST POP PUSH2 0xF84 SWAP6 PUSH2 0x6B3 PUSH2 0xF7E SWAP5 PUSH2 0x6AE DUP9 SWAP6 PUSH2 0xF78 SWAP6 PUSH2 0x1F53 JUMP JUMPDEST SWAP3 PUSH2 0x2216 JUMP JUMPDEST MSTORE PUSH2 0x21DF JUMP JUMPDEST SWAP12 SWAP10 SWAP12 PUSH2 0xEA5 JUMP JUMPDEST SWAP6 POP SWAP3 POP POP POP PUSH1 0x20 DUP4 RETURNDATASIZE PUSH1 0x20 GT PUSH2 0xFC4 JUMPI JUMPDEST DUP2 PUSH2 0xFAB PUSH1 0x20 SWAP4 DUP4 PUSH2 0x1EA8 JUMP JUMPDEST DUP2 ADD SUB SLT PUSH2 0x737 JUMPI SWAP2 MLOAD DUP12 SWAP3 DUP14 SWAP2 SWAP1 DUP12 SWAP1 PUSH2 0xF84 PUSH2 0xF5E JUMP JUMPDEST RETURNDATASIZE SWAP2 POP PUSH2 0xF9E JUMP JUMPDEST DUP15 PUSH1 0x40 MLOAD SWAP1 RETURNDATASIZE SWAP1 DUP3 RETURNDATACOPY RETURNDATASIZE SWAP1 REVERT JUMPDEST DUP5 SWAP4 POP PUSH2 0xF7E SWAP2 SWAP3 POP SWAP4 PUSH2 0xF84 SWAP5 PUSH2 0x2216 JUMP JUMPDEST POP POP DUP1 DUP3 PUSH1 0x40 SWAP3 MSTORE PUSH1 0x4 PUSH1 0x20 MSTORE KECCAK256 DUP9 DUP9 AND PUSH1 0x0 MSTORE PUSH1 0x20 MSTORE PUSH1 0x40 PUSH1 0x0 KECCAK256 DUP9 DUP7 AND PUSH1 0x0 MSTORE PUSH1 0x20 MSTORE DUP14 DUP14 PUSH1 0xFF PUSH1 0x40 PUSH1 0x0 KECCAK256 SLOAD AND PUSH2 0xF08 JUMP JUMPDEST SWAP1 SWAP6 POP PUSH1 0x20 DUP2 RETURNDATASIZE PUSH1 0x20 GT PUSH2 0x104D JUMPI JUMPDEST DUP2 PUSH2 0x103D PUSH1 0x20 SWAP4 DUP4 PUSH2 0x1EA8 JUMP JUMPDEST DUP2 ADD SUB SLT PUSH2 0x737 JUMPI MLOAD SWAP5 CODESIZE PUSH2 0xE69 JUMP JUMPDEST RETURNDATASIZE SWAP2 POP PUSH2 0x1030 JUMP JUMPDEST PUSH2 0x106F SWAP2 SWAP6 POP PUSH1 0x20 RETURNDATASIZE PUSH1 0x20 GT PUSH2 0x42E JUMPI PUSH2 0x420 DUP2 DUP4 PUSH2 0x1EA8 JUMP JUMPDEST SWAP4 CODESIZE PUSH2 0xE31 JUMP JUMPDEST POP CALLVALUE PUSH2 0x21D JUMPI PUSH1 0x40 CALLDATASIZE PUSH1 0x3 NOT ADD SLT PUSH2 0x21D JUMPI PUSH2 0x1090 PUSH2 0x1D83 JUMP JUMPDEST PUSH1 0x24 CALLDATALOAD PUSH8 0xFFFFFFFFFFFFFFFF DUP2 GT PUSH2 0x219 JUMPI PUSH2 0x10B0 SWAP1 CALLDATASIZE SWAP1 PUSH1 0x4 ADD PUSH2 0x1DFE JUMP JUMPDEST SWAP2 SWAP1 DUP3 ISZERO PUSH2 0x13F7 JUMPI PUSH1 0x40 MLOAD PUSH4 0x6FAD7E95 PUSH1 0xE1 SHL DUP2 MSTORE SWAP2 PUSH1 0x20 DUP4 PUSH1 0x4 DUP2 PUSH1 0x1 PUSH1 0x1 PUSH1 0xA0 SHL SUB DUP6 AND GAS STATICCALL SWAP3 DUP4 ISZERO PUSH2 0x13EC JUMPI DUP6 SWAP4 PUSH2 0x13CB JUMPI JUMPDEST POP PUSH1 0x1 DUP1 PUSH1 0xA0 SHL SUB DUP2 AND DUP6 MSTORE PUSH1 0x5 PUSH1 0x20 MSTORE PUSH1 0x40 DUP6 KECCAK256 SLOAD SWAP1 PUSH1 0x40 MLOAD PUSH4 0x3A98EF39 PUSH1 0xE0 SHL DUP2 MSTORE PUSH1 0x20 DUP2 PUSH1 0x4 DUP2 PUSH1 0x1 DUP1 PUSH1 0xA0 SHL SUB DUP10 AND GAS STATICCALL SWAP1 DUP2 ISZERO PUSH2 0xB69 JUMPI DUP8 SWAP2 PUSH2 0x1399 JUMPI JUMPDEST POP DUP7 SWAP6 DUP8 JUMPDEST DUP2 DUP2 LT PUSH2 0x11BD JUMPI DUP9 DUP9 DUP1 PUSH2 0x1140 JUMPI POP DUP1 RETURN JUMPDEST PUSH1 0x40 MLOAD PUSH4 0xA9059CBB PUSH1 0xE0 SHL DUP2 MSTORE CALLER PUSH1 0x4 DUP3 ADD MSTORE PUSH1 0x24 DUP2 ADD SWAP2 SWAP1 SWAP2 MSTORE PUSH1 0x20 DUP2 PUSH1 0x44 DUP2 DUP6 PUSH1 0x1 PUSH1 0x1 PUSH1 0xA0 SHL SUB PUSH32 0x0 AND GAS CALL DUP1 ISZERO PUSH2 0x20E JUMPI PUSH2 0x525 SWAP2 DUP4 SWAP2 PUSH2 0x11A4 JUMPI POP PUSH2 0x1EE2 JUMP JUMPDEST PUSH2 0x549 SWAP2 POP PUSH1 0x20 RETURNDATASIZE PUSH1 0x20 GT PUSH2 0x54F JUMPI PUSH2 0x541 DUP2 DUP4 PUSH2 0x1EA8 JUMP JUMPDEST PUSH2 0x11C8 DUP2 DUP4 DUP9 PUSH2 0x21EE JUMP JUMPDEST CALLDATALOAD SWAP1 PUSH2 0x11D8 PUSH1 0x1 SLOAD DUP4 GT ISZERO PUSH2 0x1FD7 JUMP JUMPDEST DUP2 DUP11 MSTORE PUSH1 0x4 PUSH1 0x20 MSTORE PUSH1 0x40 DUP11 KECCAK256 CALLER PUSH1 0x0 MSTORE PUSH1 0x20 MSTORE PUSH1 0x40 PUSH1 0x0 KECCAK256 PUSH1 0x1 DUP1 PUSH1 0xA0 SHL SUB DUP7 AND PUSH1 0x0 MSTORE PUSH1 0x20 MSTORE PUSH1 0xFF PUSH1 0x40 PUSH1 0x0 KECCAK256 SLOAD AND PUSH2 0x135C JUMPI DUP2 DUP11 MSTORE PUSH1 0x2 PUSH1 0x20 MSTORE PUSH1 0x1 PUSH1 0x40 DUP12 KECCAK256 ADD SLOAD SWAP2 PUSH1 0x40 MLOAD SWAP3 PUSH4 0xC4DB40D PUSH1 0xE3 SHL DUP5 MSTORE CALLER PUSH1 0x4 DUP6 ADD MSTORE PUSH1 0x1 PUSH1 0x24 DUP6 ADD MSTORE PUSH1 0x44 DUP5 ADD MSTORE PUSH1 0x20 DUP4 PUSH1 0x64 DUP2 PUSH1 0x1 DUP1 PUSH1 0xA0 SHL SUB DUP14 AND GAS STATICCALL DUP1 ISZERO PUSH2 0x1351 JUMPI DUP6 SWAP1 DUP13 SWAP1 PUSH2 0x131B JUMPI JUMPDEST PUSH2 0x12E8 SWAP5 POP DUP3 DUP14 MSTORE PUSH1 0x4 PUSH1 0x20 MSTORE PUSH1 0x40 DUP14 KECCAK256 CALLER PUSH1 0x0 MSTORE PUSH1 0x20 MSTORE PUSH1 0x40 PUSH1 0x0 KECCAK256 PUSH1 0x1 DUP1 PUSH1 0xA0 SHL SUB DUP10 AND PUSH1 0x0 MSTORE PUSH1 0x20 MSTORE PUSH1 0x40 PUSH1 0x0 KECCAK256 PUSH1 0x1 PUSH1 0xFF NOT DUP3 SLOAD AND OR SWAP1 SSTORE DUP1 ISZERO PUSH2 0x12ED JUMPI PUSH2 0x12BB SWAP2 PUSH2 0x6B3 PUSH2 0x12B4 SWAP3 PUSH2 0x6AE DUP13 DUP8 PUSH2 0x1F53 JUMP JUMPDEST DUP1 SWAP12 PUSH2 0x1E5B JUMP JUMPDEST PUSH1 0x40 MLOAD SWAP11 DUP12 MSTORE SWAP10 CALLER SWAP1 PUSH1 0x1 PUSH1 0x1 PUSH1 0xA0 SHL SUB DUP9 AND SWAP1 PUSH1 0x0 DUP1 MLOAD PUSH1 0x20 PUSH2 0x2277 DUP4 CODECOPY DUP2 MLOAD SWAP2 MSTORE SWAP1 PUSH1 0x20 SWAP1 LOG4 PUSH2 0x21DF JUMP JUMPDEST PUSH2 0x112E JUMP JUMPDEST POP POP PUSH1 0x40 MLOAD DUP12 DUP2 MSTORE CALLER SWAP1 PUSH1 0x1 PUSH1 0x1 PUSH1 0xA0 SHL SUB DUP9 AND SWAP1 PUSH1 0x0 DUP1 MLOAD PUSH1 0x20 PUSH2 0x2277 DUP4 CODECOPY DUP2 MLOAD SWAP2 MSTORE SWAP1 PUSH1 0x20 SWAP1 LOG4 PUSH2 0x21DF JUMP JUMPDEST POP POP PUSH1 0x20 DUP4 RETURNDATASIZE PUSH1 0x20 GT PUSH2 0x1349 JUMPI JUMPDEST DUP2 PUSH2 0x1336 PUSH1 0x20 SWAP4 DUP4 PUSH2 0x1EA8 JUMP JUMPDEST DUP2 ADD SUB SLT PUSH2 0x737 JUMPI DUP5 PUSH2 0x12E8 SWAP4 MLOAD PUSH2 0x125D JUMP JUMPDEST RETURNDATASIZE SWAP2 POP PUSH2 0x1329 JUMP JUMPDEST PUSH1 0x40 MLOAD RETURNDATASIZE DUP14 DUP3 RETURNDATACOPY RETURNDATASIZE SWAP1 REVERT JUMPDEST PUSH1 0x40 MLOAD PUSH3 0x461BCD PUSH1 0xE5 SHL DUP2 MSTORE PUSH1 0x20 PUSH1 0x4 DUP3 ADD MSTORE PUSH1 0x15 PUSH1 0x24 DUP3 ADD MSTORE PUSH21 0x115C1BD8DA08185B1C9958591E4818DB185A5B5959 PUSH1 0x5A SHL PUSH1 0x44 DUP3 ADD MSTORE PUSH1 0x64 SWAP1 REVERT JUMPDEST SWAP1 POP PUSH1 0x20 DUP2 RETURNDATASIZE PUSH1 0x20 GT PUSH2 0x13C3 JUMPI JUMPDEST DUP2 PUSH2 0x13B4 PUSH1 0x20 SWAP4 DUP4 PUSH2 0x1EA8 JUMP JUMPDEST DUP2 ADD SUB SLT PUSH2 0x737 JUMPI MLOAD CODESIZE PUSH2 0x1129 JUMP JUMPDEST RETURNDATASIZE SWAP2 POP PUSH2 0x13A7 JUMP JUMPDEST PUSH2 0x13E5 SWAP2 SWAP4 POP PUSH1 0x20 RETURNDATASIZE PUSH1 0x20 GT PUSH2 0x42E JUMPI PUSH2 0x420 DUP2 DUP4 PUSH2 0x1EA8 JUMP JUMPDEST SWAP2 CODESIZE PUSH2 0x10E6 JUMP JUMPDEST PUSH1 0x40 MLOAD RETURNDATASIZE DUP8 DUP3 RETURNDATACOPY RETURNDATASIZE SWAP1 REVERT JUMPDEST PUSH1 0x40 MLOAD PUSH3 0x461BCD PUSH1 0xE5 SHL DUP2 MSTORE PUSH1 0x20 PUSH1 0x4 DUP3 ADD MSTORE PUSH1 0x12 PUSH1 0x24 DUP3 ADD MSTORE PUSH18 0x456D7074792065706F636873206172726179 PUSH1 0x70 SHL PUSH1 0x44 DUP3 ADD MSTORE PUSH1 0x64 SWAP1 REVERT JUMPDEST POP CALLVALUE PUSH2 0x21D JUMPI DUP1 PUSH1 0x3 NOT CALLDATASIZE ADD SLT PUSH2 0x21D JUMPI SLOAD PUSH1 0x40 MLOAD PUSH1 0x1 PUSH1 0x1 PUSH1 0xA0 SHL SUB SWAP1 SWAP2 AND DUP2 MSTORE PUSH1 0x20 SWAP1 RETURN JUMPDEST POP CALLVALUE PUSH2 0x21D JUMPI PUSH1 0xC0 CALLDATASIZE PUSH1 0x3 NOT ADD SLT PUSH2 0x21D JUMPI PUSH1 0x24 DUP1 CALLDATALOAD SWAP1 PUSH1 0x4 CALLDATALOAD SWAP1 PUSH8 0xFFFFFFFFFFFFFFFF SWAP1 PUSH1 0x44 CALLDATALOAD DUP3 DUP2 GT PUSH2 0x17D9 JUMPI PUSH2 0x1495 SWAP1 CALLDATASIZE SWAP1 PUSH1 0x4 ADD PUSH2 0x1DFE JUMP JUMPDEST SWAP2 SWAP1 SWAP3 PUSH1 0x64 CALLDATALOAD SWAP2 PUSH1 0x84 CALLDATALOAD SWAP2 DUP3 ISZERO ISZERO DUP4 SUB PUSH2 0x737 JUMPI PUSH1 0xA4 CALLDATALOAD SWAP1 DUP2 ISZERO ISZERO DUP3 SUB PUSH2 0x737 JUMPI PUSH2 0x14BE PUSH2 0x1E2F JUMP JUMPDEST PUSH2 0x3E8 DUP7 GT PUSH2 0x17A3 JUMPI PUSH1 0x1 SWAP4 DUP5 SLOAD DUP6 DUP2 ADD DUP1 SWAP2 GT PUSH2 0x1790 JUMPI DUP10 SUB PUSH2 0x1759 JUMPI PUSH2 0x163E JUMPI JUMPDEST DUP8 DUP11 MSTORE PUSH1 0x20 SWAP7 PUSH1 0x3 DUP9 MSTORE PUSH1 0x40 DUP12 KECCAK256 DUP11 DUP13 MSTORE DUP9 MSTORE PUSH1 0x40 DUP12 KECCAK256 SWAP2 DUP8 GT PUSH2 0x162B JUMPI PUSH1 0x1 PUSH1 0x40 SHL DUP8 GT PUSH2 0x162B JUMPI DUP2 SLOAD DUP8 DUP4 SSTORE DUP1 DUP9 LT PUSH2 0x1604 JUMPI JUMPDEST POP SWAP1 DUP11 MSTORE DUP7 DUP11 KECCAK256 SWAP1 DUP5 DUP12 JUMPDEST DUP9 DUP2 LT PUSH2 0x15F2 JUMPI POP POP POP POP PUSH2 0x1562 JUMPI JUMPDEST POP POP POP SWAP1 PUSH32 0xAB2993BD1558CF55C0837B08905EDAC8717B4326267B02C82685343114526198 SWAP2 PUSH1 0x40 MLOAD SWAP1 DUP2 MSTORE LOG3 DUP1 RETURN JUMPDEST DUP2 DUP8 ADD SWAP1 DUP2 DUP9 GT PUSH2 0x15E0 JUMPI POP SWAP2 DUP6 DUP1 SWAP3 PUSH32 0xAB2993BD1558CF55C0837B08905EDAC8717B4326267B02C82685343114526198 SWAP7 SWAP6 SWAP5 DUP3 DUP12 MSTORE PUSH1 0x2 DUP8 MSTORE PUSH1 0x2 PUSH1 0x40 DUP13 KECCAK256 ADD SSTORE SSTORE PUSH1 0x40 MLOAD SWAP1 DUP2 MSTORE TIMESTAMP DUP5 DUP3 ADD MSTORE PUSH32 0xB52BE436C4D2A5BC18728D4F052344D91ED904F58693186DF6726A84F7B3C9A8 PUSH1 0x40 ADDRESS SWAP3 LOG3 SWAP1 SWAP2 CODESIZE DUP1 PUSH2 0x1532 JUMP JUMPDEST PUSH4 0x4E487B71 PUSH1 0xE0 SHL DUP10 MSTORE PUSH1 0x11 PUSH1 0x4 MSTORE DUP9 REVERT JUMPDEST DUP10 DUP4 CALLDATALOAD SWAP4 ADD SWAP3 DUP2 DUP6 ADD SSTORE ADD DUP6 SWAP1 PUSH2 0x1522 JUMP JUMPDEST DUP6 DUP9 DUP11 DUP15 DUP7 DUP2 MSTORE KECCAK256 SWAP3 DUP4 ADD SWAP3 ADD JUMPDEST DUP3 DUP2 LT PUSH2 0x1620 JUMPI POP POP PUSH2 0x1517 JUMP JUMPDEST DUP14 DUP2 SSTORE ADD DUP7 SWAP1 PUSH2 0x1612 JUMP JUMPDEST PUSH4 0x4E487B71 PUSH1 0xE0 SHL DUP12 MSTORE PUSH1 0x41 PUSH1 0x4 MSTORE DUP4 DUP12 REVERT JUMPDEST DUP5 ISZERO PUSH2 0x171E JUMPI PUSH1 0x40 MLOAD PUSH4 0x23B872DD PUSH1 0xE0 SHL DUP2 MSTORE CALLER PUSH1 0x4 DUP3 ADD MSTORE ADDRESS DUP5 DUP3 ADD MSTORE PUSH1 0x44 DUP2 ADD DUP7 SWAP1 MSTORE PUSH1 0x20 DUP2 PUSH1 0x64 DUP2 DUP15 PUSH32 0x0 PUSH1 0x1 PUSH1 0x1 PUSH1 0xA0 SHL SUB AND GAS CALL DUP1 ISZERO PUSH2 0x1351 JUMPI PUSH2 0x16AC SWAP2 DUP13 SWAP2 PUSH2 0x1706 JUMPI POP PUSH2 0x1EE2 JUMP JUMPDEST PUSH1 0x40 MLOAD PUSH1 0x60 DUP2 ADD DUP2 DUP2 LT DUP4 DUP3 GT OR PUSH2 0x16F1 JUMPI PUSH1 0x40 MSTORE DUP6 DUP2 MSTORE PUSH1 0x2 DUP12 PUSH1 0x20 DUP4 ADD TIMESTAMP DUP2 MSTORE PUSH1 0x40 DUP1 DUP6 ADD SWAP3 DUP1 DUP5 MSTORE DUP14 DUP2 MSTORE DUP5 PUSH1 0x20 MSTORE KECCAK256 SWAP4 MLOAD DUP5 SSTORE MLOAD DUP8 DUP5 ADD SSTORE MLOAD SWAP2 ADD SSTORE PUSH2 0x14E1 JUMP JUMPDEST DUP5 PUSH4 0x4E487B71 PUSH1 0xE0 SHL PUSH1 0x0 MSTORE PUSH1 0x41 PUSH1 0x4 MSTORE PUSH1 0x0 REVERT JUMPDEST PUSH2 0xACF SWAP2 POP PUSH1 0x20 RETURNDATASIZE DUP2 GT PUSH2 0x54F JUMPI PUSH2 0x541 DUP2 DUP4 PUSH2 0x1EA8 JUMP JUMPDEST PUSH1 0x40 MLOAD PUSH3 0x461BCD PUSH1 0xE5 SHL DUP2 MSTORE PUSH1 0x20 PUSH1 0x4 DUP3 ADD MSTORE PUSH1 0x14 DUP2 DUP6 ADD MSTORE PUSH20 0x125B9D985B1A59081D1BDD185B08185B5BDD5B9D PUSH1 0x62 SHL PUSH1 0x44 DUP3 ADD MSTORE PUSH1 0x64 SWAP1 REVERT JUMPDEST PUSH1 0x40 MLOAD PUSH3 0x461BCD PUSH1 0xE5 SHL DUP2 MSTORE PUSH1 0x20 PUSH1 0x4 DUP3 ADD MSTORE PUSH1 0x10 DUP2 DUP7 ADD MSTORE PUSH16 0x125B9D985B1A5908195C1BD8DA081A59 PUSH1 0x82 SHL PUSH1 0x44 DUP3 ADD MSTORE PUSH1 0x64 SWAP1 REVERT JUMPDEST PUSH4 0x4E487B71 PUSH1 0xE0 SHL DUP13 MSTORE PUSH1 0x11 PUSH1 0x4 MSTORE DUP5 DUP13 REVERT JUMPDEST PUSH1 0x40 MLOAD PUSH3 0x461BCD PUSH1 0xE5 SHL DUP2 MSTORE PUSH1 0x20 PUSH1 0x4 DUP3 ADD MSTORE PUSH1 0xF DUP2 DUP6 ADD MSTORE PUSH15 0x4368756E6B20746F6F206C61726765 PUSH1 0x88 SHL PUSH1 0x44 DUP3 ADD MSTORE PUSH1 0x64 SWAP1 REVERT JUMPDEST DUP6 DUP1 REVERT JUMPDEST POP CALLVALUE PUSH2 0x21D JUMPI DUP1 PUSH1 0x3 NOT CALLDATASIZE ADD SLT PUSH2 0x21D JUMPI PUSH2 0x17F6 PUSH2 0x1E2F JUMP JUMPDEST PUSH1 0x0 DUP1 SLOAD PUSH1 0x1 PUSH1 0x1 PUSH1 0xA0 SHL SUB NOT DUP2 AND DUP3 SSTORE PUSH1 0x1 PUSH1 0x1 PUSH1 0xA0 SHL SUB AND PUSH32 0x8BE0079C531659141344CD1FD0A4F28419497F9722A3DAAFE3B4186F6B6457E0 DUP3 DUP1 LOG3 DUP1 RETURN JUMPDEST POP CALLVALUE PUSH2 0x21D JUMPI PUSH1 0x40 CALLDATASIZE PUSH1 0x3 NOT ADD SLT PUSH2 0x21D JUMPI PUSH1 0x20 PUSH2 0x1859 PUSH1 0x24 CALLDATALOAD PUSH1 0x4 CALLDATALOAD PUSH2 0x1F53 JUMP JUMPDEST PUSH1 0x40 MLOAD SWAP1 DUP2 MSTORE RETURN JUMPDEST POP CALLVALUE PUSH2 0x21D JUMPI DUP1 PUSH1 0x3 NOT CALLDATASIZE ADD SLT PUSH2 0x21D JUMPI PUSH1 0x40 MLOAD PUSH32 0x0 PUSH1 0x1 PUSH1 0x1 PUSH1 0xA0 SHL SUB AND DUP2 MSTORE PUSH1 0x20 SWAP1 RETURN JUMPDEST POP CALLVALUE PUSH2 0x21D JUMPI PUSH1 0x20 CALLDATASIZE PUSH1 0x3 NOT ADD SLT PUSH2 0x21D JUMPI PUSH2 0x18C0 PUSH2 0x1D83 JUMP JUMPDEST PUSH2 0x18C8 PUSH2 0x1E2F JUMP JUMPDEST PUSH1 0x1 PUSH1 0x1 PUSH1 0xA0 SHL SUB PUSH32 0x0 DUP2 AND SWAP2 DUP4 SWAP2 SWAP1 DUP4 EXTCODESIZE ISZERO PUSH2 0x219 JUMPI DUP3 SWAP2 PUSH1 0x24 DUP4 SWAP3 PUSH1 0x40 MLOAD SWAP5 DUP6 SWAP4 DUP5 SWAP3 PUSH4 0x4B08EC5 PUSH1 0xE4 SHL DUP5 MSTORE AND SWAP8 DUP9 PUSH1 0x4 DUP5 ADD MSTORE GAS CALL DUP1 ISZERO PUSH2 0x20E JUMPI PUSH2 0x1953 JUMPI JUMPDEST POP DUP1 PUSH32 0x96E9F71E351DA2F355723015D74E0A4B6A13763FA188E610B27DA4C5ACA898C9 SWAP2 LOG2 DUP1 RETURN JUMPDEST PUSH2 0x195C SWAP1 PUSH2 0x1E7E JUMP JUMPDEST PUSH2 0x20A JUMPI DUP2 CODESIZE PUSH2 0x192B JUMP JUMPDEST POP CALLVALUE PUSH2 0x21D JUMPI PUSH1 0x20 CALLDATASIZE PUSH1 0x3 NOT ADD SLT PUSH2 0x21D JUMPI PUSH1 0x40 PUSH1 0x60 SWAP2 PUSH1 0x4 CALLDATALOAD DUP2 MSTORE PUSH1 0x2 PUSH1 0x20 MSTORE KECCAK256 DUP1 SLOAD SWAP1 PUSH1 0x2 PUSH1 0x1 DUP3 ADD SLOAD SWAP2 ADD SLOAD SWAP1 PUSH1 0x40 MLOAD SWAP3 DUP4 MSTORE PUSH1 0x20 DUP4 ADD MSTORE PUSH1 0x40 DUP3 ADD MSTORE RETURN JUMPDEST POP CALLVALUE PUSH2 0x21D JUMPI PUSH1 0x60 CALLDATASIZE PUSH1 0x3 NOT ADD SLT PUSH2 0x21D JUMPI PUSH1 0x44 CALLDATALOAD SWAP1 PUSH1 0x4 CALLDATALOAD DUP2 MSTORE PUSH1 0x3 PUSH1 0x20 MSTORE PUSH1 0x40 DUP2 KECCAK256 PUSH1 0x24 CALLDATALOAD DUP3 MSTORE PUSH1 0x20 MSTORE PUSH1 0x40 DUP2 KECCAK256 SWAP1 DUP2 SLOAD DUP4 LT ISZERO PUSH2 0x21D JUMPI PUSH1 0x20 PUSH2 0x19EF DUP5 DUP5 PUSH2 0x1DE6 JUMP JUMPDEST SWAP1 SLOAD SWAP1 PUSH1 0x3 SHL SHR PUSH1 0x40 MLOAD SWAP1 DUP2 MSTORE RETURN JUMPDEST POP CALLVALUE PUSH2 0x21D JUMPI PUSH1 0x20 DUP1 PUSH1 0x3 NOT CALLDATASIZE ADD SLT PUSH2 0x20A JUMPI PUSH2 0x1A19 PUSH2 0x1D83 JUMP JUMPDEST PUSH2 0x1A21 PUSH2 0x1E2F JUMP JUMPDEST PUSH1 0x1 PUSH1 0x1 PUSH1 0xA0 SHL SUB SWAP1 DUP2 AND PUSH32 0x0 DUP3 AND DUP2 EQ PUSH2 0x1B69 JUMPI PUSH1 0x40 MLOAD PUSH4 0x70A08231 PUSH1 0xE0 SHL DUP2 MSTORE ADDRESS PUSH1 0x4 DUP3 ADD MSTORE SWAP2 DUP4 DUP4 PUSH1 0x24 DUP2 DUP6 GAS STATICCALL SWAP3 DUP4 ISZERO PUSH2 0x13EC JUMPI DUP6 SWAP4 PUSH2 0x1B3A JUMPI JUMPDEST POP DUP3 ISZERO PUSH2 0x1AFD JUMPI DUP5 SLOAD PUSH1 0x40 MLOAD PUSH4 0xA9059CBB PUSH1 0xE0 SHL DUP2 MSTORE SWAP2 AND PUSH1 0x1 PUSH1 0x1 PUSH1 0xA0 SHL SUB AND PUSH1 0x4 DUP3 ADD MSTORE PUSH1 0x24 DUP2 ADD SWAP3 SWAP1 SWAP3 MSTORE DUP3 SWAP1 DUP3 SWAP1 DUP2 DUP7 DUP2 PUSH1 0x44 DUP2 ADD SUB SWAP3 GAS CALL SWAP1 DUP2 ISZERO PUSH2 0x1AF2 JUMPI PUSH2 0x525 SWAP3 DUP5 SWAP3 PUSH2 0x1AD5 JUMPI JUMPDEST POP POP PUSH2 0x1EE2 JUMP JUMPDEST PUSH2 0x1AEB SWAP3 POP DUP1 RETURNDATASIZE LT PUSH2 0x54F JUMPI PUSH2 0x541 DUP2 DUP4 PUSH2 0x1EA8 JUMP JUMPDEST CODESIZE DUP1 PUSH2 0x1ACE JUMP JUMPDEST PUSH1 0x40 MLOAD RETURNDATASIZE DUP6 DUP3 RETURNDATACOPY RETURNDATASIZE SWAP1 REVERT JUMPDEST PUSH1 0x40 MLOAD PUSH3 0x461BCD PUSH1 0xE5 SHL DUP2 MSTORE PUSH1 0x4 DUP2 ADD DUP6 SWAP1 MSTORE PUSH1 0x15 PUSH1 0x24 DUP3 ADD MSTORE PUSH21 0x2737903130B630B731B2903A37903932B1B7BB32B9 PUSH1 0x59 SHL PUSH1 0x44 DUP3 ADD MSTORE PUSH1 0x64 SWAP1 REVERT JUMPDEST SWAP1 SWAP3 POP DUP4 DUP2 DUP2 RETURNDATASIZE DUP4 GT PUSH2 0x1B62 JUMPI JUMPDEST PUSH2 0x1B52 DUP2 DUP4 PUSH2 0x1EA8 JUMP JUMPDEST DUP2 ADD SUB SLT PUSH2 0x737 JUMPI MLOAD SWAP2 CODESIZE PUSH2 0x1A7F JUMP JUMPDEST POP RETURNDATASIZE PUSH2 0x1B48 JUMP JUMPDEST PUSH1 0x40 MLOAD PUSH3 0x461BCD PUSH1 0xE5 SHL DUP2 MSTORE PUSH1 0x4 DUP2 ADD DUP5 SWAP1 MSTORE PUSH1 0x19 PUSH1 0x24 DUP3 ADD MSTORE PUSH32 0x43616E6E6F74207265636F76657220737461626C65636F696E00000000000000 PUSH1 0x44 DUP3 ADD MSTORE PUSH1 0x64 SWAP1 REVERT JUMPDEST POP CALLVALUE PUSH2 0x21D JUMPI PUSH1 0x20 CALLDATASIZE PUSH1 0x3 NOT ADD SLT PUSH2 0x21D JUMPI PUSH1 0x4 CALLDATALOAD SWAP1 PUSH1 0x6 SLOAD DUP3 LT ISZERO PUSH2 0x21D JUMPI PUSH1 0x20 PUSH2 0x1BD9 DUP4 PUSH2 0x1D99 JUMP JUMPDEST SWAP1 SLOAD PUSH1 0x40 MLOAD PUSH1 0x3 SWAP3 SWAP1 SWAP3 SHL SHR PUSH1 0x1 PUSH1 0x1 PUSH1 0xA0 SHL SUB AND DUP2 MSTORE RETURN JUMPDEST POP CALLVALUE PUSH2 0x21D JUMPI PUSH1 0x60 CALLDATASIZE PUSH1 0x3 NOT ADD SLT PUSH2 0x21D JUMPI PUSH1 0x20 PUSH2 0x1859 PUSH2 0x1C11 PUSH2 0x1D83 JUMP JUMPDEST PUSH2 0x1C19 PUSH2 0x1D6D JUMP JUMPDEST PUSH1 0x44 CALLDATALOAD SWAP2 PUSH2 0x2032 JUMP JUMPDEST POP CALLVALUE PUSH2 0x21D JUMPI PUSH1 0x20 CALLDATASIZE PUSH1 0x3 NOT ADD SLT PUSH2 0x21D JUMPI DUP1 PUSH2 0x1C3D PUSH2 0x1D83 JUMP JUMPDEST PUSH2 0x1C45 PUSH2 0x1E2F JUMP JUMPDEST PUSH1 0x1 DUP1 PUSH1 0xA0 SHL SUB DUP1 SWAP2 AND SWAP1 DUP2 DUP4 MSTORE PUSH1 0x5 PUSH1 0x20 MSTORE PUSH2 0x1C69 PUSH1 0x40 DUP5 KECCAK256 SLOAD PUSH1 0x6 SLOAD GT PUSH2 0x222A JUMP JUMPDEST PUSH1 0x40 MLOAD PUSH4 0x222E555 PUSH1 0xE2 SHL DUP2 MSTORE PUSH1 0x20 DUP2 PUSH1 0x4 DUP2 PUSH32 0x0 DUP7 AND GAS STATICCALL SWAP1 DUP2 ISZERO PUSH2 0x435 JUMPI DUP5 SWAP2 PUSH2 0x1CEC JUMPI JUMPDEST POP AND DUP1 EXTCODESIZE ISZERO PUSH2 0x403 JUMPI PUSH1 0x24 DUP4 SWAP3 PUSH1 0x40 MLOAD SWAP5 DUP6 SWAP4 DUP5 SWAP3 PUSH4 0x187DE53B PUSH1 0xE0 SHL DUP5 MSTORE PUSH1 0x4 DUP5 ADD MSTORE GAS CALL DUP1 ISZERO PUSH2 0x20E JUMPI PUSH2 0x1CE3 JUMPI POP DUP1 RETURN JUMPDEST PUSH2 0x525 SWAP1 PUSH2 0x1E7E JUMP JUMPDEST PUSH2 0x1D04 SWAP2 POP PUSH1 0x20 RETURNDATASIZE DUP2 GT PUSH2 0x42E JUMPI PUSH2 0x420 DUP2 DUP4 PUSH2 0x1EA8 JUMP JUMPDEST CODESIZE PUSH2 0x1CAF JUMP JUMPDEST SWAP1 POP CALLVALUE PUSH2 0x20A JUMPI PUSH1 0x60 CALLDATASIZE PUSH1 0x3 NOT ADD SLT PUSH2 0x20A JUMPI PUSH2 0x1D25 PUSH2 0x1D6D JUMP JUMPDEST PUSH1 0x44 CALLDATALOAD PUSH1 0x1 PUSH1 0x1 PUSH1 0xA0 SHL SUB DUP2 DUP2 AND SWAP3 SWAP2 DUP4 SWAP1 SUB PUSH2 0x1D69 JUMPI SWAP4 PUSH1 0xFF SWAP3 PUSH1 0x40 SWAP3 PUSH1 0x20 SWAP7 PUSH1 0x4 CALLDATALOAD DUP5 MSTORE PUSH1 0x4 DUP9 MSTORE DUP5 DUP5 KECCAK256 SWAP2 AND DUP4 MSTORE DUP7 MSTORE DUP3 DUP3 KECCAK256 SWAP1 DUP3 MSTORE DUP6 MSTORE KECCAK256 SLOAD AND ISZERO ISZERO DUP2 MSTORE RETURN JUMPDEST DUP5 DUP1 REVERT JUMPDEST PUSH1 0x24 CALLDATALOAD SWAP1 PUSH1 0x1 PUSH1 0x1 PUSH1 0xA0 SHL SUB DUP3 AND DUP3 SUB PUSH2 0x737 JUMPI JUMP JUMPDEST PUSH1 0x4 CALLDATALOAD SWAP1 PUSH1 0x1 PUSH1 0x1 PUSH1 0xA0 SHL SUB DUP3 AND DUP3 SUB PUSH2 0x737 JUMPI JUMP JUMPDEST PUSH1 0x6 SLOAD DUP2 LT ISZERO PUSH2 0x1DD0 JUMPI PUSH1 0x6 PUSH1 0x0 MSTORE PUSH32 0xF652222313E28459528D920B65115C16C04F3EFC82AAEDC97BE59F3F377C0D3F ADD SWAP1 PUSH1 0x0 SWAP1 JUMP JUMPDEST PUSH4 0x4E487B71 PUSH1 0xE0 SHL PUSH1 0x0 MSTORE PUSH1 0x32 PUSH1 0x4 MSTORE PUSH1 0x24 PUSH1 0x0 REVERT JUMPDEST DUP1 SLOAD DUP3 LT ISZERO PUSH2 0x1DD0 JUMPI PUSH1 0x0 MSTORE PUSH1 0x20 PUSH1 0x0 KECCAK256 ADD SWAP1 PUSH1 0x0 SWAP1 JUMP JUMPDEST SWAP2 DUP2 PUSH1 0x1F DUP5 ADD SLT ISZERO PUSH2 0x737 JUMPI DUP3 CALLDATALOAD SWAP2 PUSH8 0xFFFFFFFFFFFFFFFF DUP4 GT PUSH2 0x737 JUMPI PUSH1 0x20 DUP1 DUP6 ADD SWAP5 DUP5 PUSH1 0x5 SHL ADD ADD GT PUSH2 0x737 JUMPI JUMP JUMPDEST PUSH1 0x0 SLOAD PUSH1 0x1 PUSH1 0x1 PUSH1 0xA0 SHL SUB AND CALLER SUB PUSH2 0x1E43 JUMPI JUMP JUMPDEST PUSH1 0x40 MLOAD PUSH4 0x118CDAA7 PUSH1 0xE0 SHL DUP2 MSTORE CALLER PUSH1 0x4 DUP3 ADD MSTORE PUSH1 0x24 SWAP1 REVERT JUMPDEST SWAP2 SWAP1 DUP3 ADD DUP1 SWAP3 GT PUSH2 0x1E68 JUMPI JUMP JUMPDEST PUSH4 0x4E487B71 PUSH1 0xE0 SHL PUSH1 0x0 MSTORE PUSH1 0x11 PUSH1 0x4 MSTORE PUSH1 0x24 PUSH1 0x0 REVERT JUMPDEST PUSH8 0xFFFFFFFFFFFFFFFF DUP2 GT PUSH2 0x1E92 JUMPI PUSH1 0x40 MSTORE JUMP JUMPDEST PUSH4 0x4E487B71 PUSH1 0xE0 SHL PUSH1 0x0 MSTORE PUSH1 0x41 PUSH1 0x4 MSTORE PUSH1 0x24 PUSH1 0x0 REVERT JUMPDEST SWAP1 PUSH1 0x1F DUP1 NOT SWAP2 ADD AND DUP2 ADD SWAP1 DUP2 LT PUSH8 0xFFFFFFFFFFFFFFFF DUP3 GT OR PUSH2 0x1E92 JUMPI PUSH1 0x40 MSTORE JUMP JUMPDEST SWAP1 DUP2 PUSH1 0x20 SWAP2 SUB SLT PUSH2 0x737 JUMPI MLOAD DUP1 ISZERO ISZERO DUP2 SUB PUSH2 0x737 JUMPI SWAP1 JUMP JUMPDEST ISZERO PUSH2 0x1EE9 JUMPI JUMP JUMPDEST PUSH1 0x40 MLOAD PUSH3 0x461BCD PUSH1 0xE5 SHL DUP2 MSTORE PUSH1 0x20 PUSH1 0x4 DUP3 ADD MSTORE PUSH1 0xF PUSH1 0x24 DUP3 ADD MSTORE PUSH15 0x151C985B9CD9995C8819985A5B1959 PUSH1 0x8A SHL PUSH1 0x44 DUP3 ADD MSTORE PUSH1 0x64 SWAP1 REVERT JUMPDEST DUP2 DUP2 MUL SWAP3 SWAP2 DUP2 ISZERO SWAP2 DUP5 DIV EQ OR ISZERO PUSH2 0x1E68 JUMPI JUMP JUMPDEST DUP2 ISZERO PUSH2 0x1F3D JUMPI DIV SWAP1 JUMP JUMPDEST PUSH4 0x4E487B71 PUSH1 0xE0 SHL PUSH1 0x0 MSTORE PUSH1 0x12 PUSH1 0x4 MSTORE PUSH1 0x24 PUSH1 0x0 REVERT JUMPDEST SWAP1 PUSH2 0x3E8 SWAP2 DUP3 DUP3 DIV SWAP3 PUSH1 0x0 SWAP3 DUP3 DUP5 MSTORE PUSH1 0x2 PUSH1 0x20 MSTORE PUSH1 0x2 PUSH1 0x40 DUP6 KECCAK256 ADD SLOAD DUP6 LT ISZERO PUSH2 0x1F9F JUMPI PUSH2 0x1F95 SWAP5 PUSH1 0x40 SWAP4 DUP6 MSTORE PUSH1 0x3 PUSH1 0x20 MSTORE DUP4 DUP6 KECCAK256 SWAP1 DUP6 MSTORE PUSH1 0x20 MSTORE MOD SWAP2 KECCAK256 PUSH2 0x1DE6 JUMP JUMPDEST SWAP1 SLOAD SWAP1 PUSH1 0x3 SHL SHR SWAP1 JUMP JUMPDEST PUSH1 0x40 MLOAD PUSH3 0x461BCD PUSH1 0xE5 SHL DUP2 MSTORE PUSH1 0x20 PUSH1 0x4 DUP3 ADD MSTORE PUSH1 0x10 PUSH1 0x24 DUP3 ADD MSTORE PUSH16 0x92DCECC2D8D2C840AEA640D2DCC8CAF PUSH1 0x83 SHL PUSH1 0x44 DUP3 ADD MSTORE PUSH1 0x64 SWAP1 REVERT JUMPDEST ISZERO PUSH2 0x1FDE JUMPI JUMP JUMPDEST PUSH1 0x40 MLOAD PUSH3 0x461BCD PUSH1 0xE5 SHL DUP2 MSTORE PUSH1 0x20 PUSH1 0x4 DUP3 ADD MSTORE PUSH1 0xD PUSH1 0x24 DUP3 ADD MSTORE PUSH13 0x92DCECC2D8D2C840CAE0DEC6D PUSH1 0x9B SHL PUSH1 0x44 DUP3 ADD MSTORE PUSH1 0x64 SWAP1 REVERT JUMPDEST SWAP1 DUP2 PUSH1 0x20 SWAP2 SUB SLT PUSH2 0x737 JUMPI MLOAD PUSH1 0x1 PUSH1 0x1 PUSH1 0xA0 SHL SUB DUP2 AND DUP2 SUB PUSH2 0x737 JUMPI SWAP1 JUMP JUMPDEST PUSH1 0x0 SWAP3 DUP1 DUP5 MSTORE PUSH1 0x20 SWAP4 PUSH1 0x4 DUP6 MSTORE PUSH1 0x40 SWAP5 DUP6 DUP3 KECCAK256 SWAP5 PUSH1 0x1 DUP1 PUSH1 0xA0 SHL SUB DUP1 SWAP2 AND SWAP6 DUP7 DUP5 MSTORE DUP3 MSTORE DUP1 DUP8 DUP5 KECCAK256 SWAP6 AND SWAP5 DUP6 DUP5 MSTORE DUP3 MSTORE PUSH1 0xFF DUP8 DUP5 KECCAK256 SLOAD AND DUP1 ISZERO PUSH2 0x21D4 JUMPI JUMPDEST PUSH2 0x21CA JUMPI DUP7 MLOAD PUSH4 0x6FAD7E95 PUSH1 0xE1 SHL DUP2 MSTORE SWAP5 DUP3 DUP7 PUSH1 0x4 DUP2 DUP5 GAS STATICCALL SWAP6 DUP7 ISZERO PUSH2 0x21C0 JUMPI DUP5 SWAP7 PUSH2 0x21A1 JUMPI JUMPDEST POP DUP4 MSTORE PUSH1 0x5 DUP3 MSTORE DUP7 DUP4 KECCAK256 SLOAD SWAP5 AND DUP4 DUP4 MSTORE PUSH1 0x2 DUP3 MSTORE PUSH1 0x1 DUP8 DUP5 KECCAK256 ADD SLOAD DUP8 MLOAD SWAP7 PUSH4 0xC4DB40D PUSH1 0xE3 SHL DUP9 MSTORE PUSH1 0x4 DUP9 ADD MSTORE PUSH1 0x1 PUSH1 0x24 DUP9 ADD MSTORE PUSH1 0x44 DUP8 ADD MSTORE DUP2 DUP7 PUSH1 0x64 DUP2 DUP5 GAS STATICCALL SWAP6 DUP7 ISZERO PUSH2 0x2197 JUMPI DUP4 SWAP7 PUSH2 0x2168 JUMPI JUMPDEST POP SWAP1 DUP1 PUSH1 0x4 SWAP4 SWAP3 DUP9 MLOAD SWAP5 DUP6 DUP1 SWAP3 PUSH4 0x3A98EF39 PUSH1 0xE0 SHL DUP3 MSTORE GAS STATICCALL SWAP7 DUP8 ISZERO PUSH2 0x215D JUMPI POP DUP2 SWAP7 PUSH2 0x2126 JUMPI JUMPDEST POP POP POP SWAP2 PUSH2 0x6AE PUSH2 0x6B3 SWAP3 PUSH2 0x2123 SWAP6 SWAP5 PUSH2 0x1F53 JUMP JUMPDEST SWAP1 JUMP JUMPDEST SWAP1 SWAP2 DUP1 SWAP4 SWAP7 POP DUP2 RETURNDATASIZE DUP4 GT PUSH2 0x2156 JUMPI JUMPDEST PUSH2 0x213F DUP2 DUP4 PUSH2 0x1EA8 JUMP JUMPDEST DUP2 ADD SUB SLT PUSH2 0x21D JUMPI POP MLOAD SWAP3 PUSH2 0x6AE DUP3 PUSH2 0x2123 PUSH2 0x210E JUMP JUMPDEST POP RETURNDATASIZE PUSH2 0x2135 JUMP JUMPDEST MLOAD SWAP2 RETURNDATASIZE SWAP2 POP DUP3 RETURNDATACOPY RETURNDATASIZE SWAP1 REVERT JUMPDEST SWAP1 SWAP6 POP DUP2 DUP2 DUP2 RETURNDATASIZE DUP4 GT PUSH2 0x2190 JUMPI JUMPDEST PUSH2 0x2180 DUP2 DUP4 PUSH2 0x1EA8 JUMP JUMPDEST DUP2 ADD SUB SLT PUSH2 0x219 JUMPI MLOAD SWAP5 DUP2 PUSH2 0x20E6 JUMP JUMPDEST POP RETURNDATASIZE PUSH2 0x2176 JUMP JUMPDEST DUP8 MLOAD RETURNDATASIZE DUP6 DUP3 RETURNDATACOPY RETURNDATASIZE SWAP1 REVERT JUMPDEST PUSH2 0x21B9 SWAP2 SWAP7 POP DUP4 RETURNDATASIZE DUP6 GT PUSH2 0x42E JUMPI PUSH2 0x420 DUP2 DUP4 PUSH2 0x1EA8 JUMP JUMPDEST SWAP5 CODESIZE PUSH2 0x2097 JUMP JUMPDEST DUP9 MLOAD RETURNDATASIZE DUP7 DUP3 RETURNDATACOPY RETURNDATASIZE SWAP1 REVERT JUMPDEST POP POP SWAP4 POP POP POP POP SWAP1 JUMP JUMPDEST POP PUSH1 0x1 SLOAD DUP5 GT PUSH2 0x2070 JUMP JUMPDEST PUSH1 0x0 NOT DUP2 EQ PUSH2 0x1E68 JUMPI PUSH1 0x1 ADD SWAP1 JUMP JUMPDEST SWAP2 SWAP1 DUP2 LT ISZERO PUSH2 0x1DD0 JUMPI PUSH1 0x5 SHL ADD SWAP1 JUMP JUMPDEST PUSH8 0xFFFFFFFFFFFFFFFF DUP2 GT PUSH2 0x1E92 JUMPI PUSH1 0x5 SHL PUSH1 0x20 ADD SWAP1 JUMP JUMPDEST DUP1 MLOAD DUP3 LT ISZERO PUSH2 0x1DD0 JUMPI PUSH1 0x20 SWAP2 PUSH1 0x5 SHL ADD ADD SWAP1 JUMP JUMPDEST ISZERO PUSH2 0x2231 JUMPI JUMP JUMPDEST PUSH1 0x40 MLOAD PUSH3 0x461BCD PUSH1 0xE5 SHL DUP2 MSTORE PUSH1 0x20 PUSH1 0x4 DUP3 ADD MSTORE PUSH1 0x1A PUSH1 0x24 DUP3 ADD MSTORE PUSH32 0x4E6F742061206D616E61676564207772617070656420736F6E67000000000000 PUSH1 0x44 DUP3 ADD MSTORE PUSH1 0x64 SWAP1 REVERT INVALID SMOD DUP7 EXTCODEHASH 0xD8 SHL SUB 0x5C LOG4 0x4D BYTE 0xF7 0xB7 0xB9 DUP5 CALLCODE SWAP8 0xC3 0xCF 0x2E RETURN SWAP2 LOG2 CALLCODE 0xE9 PUSH25 0xA98670F200A4EBA2646970667358221220572C1F1CC2027B0A 0xD8 CALLDATALOAD 0xD6 AND 0xDF 0xD4 SELFDESTRUCT ADDRESS 0xC1 0x4E 0x27 0xB9 0xC0 SLT CREATE 0xB0 CODECOPY DUP8 0xCE EXTCODECOPY SWAP3 STATICCALL CALLDATALOAD 0xD6 PUSH5 0x736F6C6343 STOP ADDMOD EQ STOP CALLER "},"methodIdentifiers":{"CHUNK_SIZE()":"e91e13a9","acceptWrappedSongForReview(address)":"4b08ec50","amountChunks(uint256,uint256,uint256)":"16a91b2f","claimEpochEarnings(address,uint256)":"b8b0a09a","claimMultipleEpochs(address,uint256[])":"921f4533","claimMultipleWrappedSongsEarnings(address[],uint256)":"c0c71ce9","confirmMetadataUpdate(address)":"04adbc22","confirmWrappedSongRelease(address)":"b0c70e27","createDistributionEpochChunk(uint256,uint256,uint256[],uint256,bool,bool)":"7f41b4a8","currentEpochId()":"eacdc5ff","distributionEpochs(uint256)":"49f3329b","epochClaims(uint256,address,address)":"028a6b9e","getAmountForWS(uint256,uint256)":"6d3d6e6d","getClaimableAmount(address,address,uint256)":"0a279e15","getManagedWrappedSongsCount()":"d20098a2","getMultipleClaimableAmounts(address,address,uint256[])":"9d6ce7ca","managedWrappedSongs(uint256)":"1188029f","owner()":"8da5cb5b","protocolModule()":"5c42e667","recoverTokens(address)":"16114acd","rejectMetadataUpdate(address)":"d65bd2fa","rejectWrappedSongRelease(address)":"f5260369","renounceOwnership()":"715018a6","setWrappedSongAuthenticity(address,bool)":"be94e319","stablecoin()":"e9cbd822","transferOwnership(address)":"f2fde38b","wsRedeemIndexList(address)":"b3104d80"}},"storageLayout":{"storage":[{"astId":8,"contract":"contracts/protocol/NonUpgradable/DistributorWallet.sol:DistributorWallet","label":"_owner","offset":0,"slot":"0","type":"t_address"},{"astId":3617,"contract":"contracts/protocol/NonUpgradable/DistributorWallet.sol:DistributorWallet","label":"currentEpochId","offset":0,"slot":"1","type":"t_uint256"},{"astId":3628,"contract":"contracts/protocol/NonUpgradable/DistributorWallet.sol:DistributorWallet","label":"distributionEpochs","offset":0,"slot":"2","type":"t_mapping(t_uint256,t_struct(RevenueEpoch)3615_storage)"},{"astId":3635,"contract":"contracts/protocol/NonUpgradable/DistributorWallet.sol:DistributorWallet","label":"amountChunks","offset":0,"slot":"3","type":"t_mapping(t_uint256,t_mapping(t_uint256,t_array(t_uint256)dyn_storage))"},{"astId":3643,"contract":"contracts/protocol/NonUpgradable/DistributorWallet.sol:DistributorWallet","label":"epochClaims","offset":0,"slot":"4","type":"t_mapping(t_uint256,t_mapping(t_address,t_mapping(t_address,t_bool)))"},{"astId":3647,"contract":"contracts/protocol/NonUpgradable/DistributorWallet.sol:DistributorWallet","label":"wsRedeemIndexList","offset":0,"slot":"5","type":"t_mapping(t_address,t_uint256)"},{"astId":3650,"contract":"contracts/protocol/NonUpgradable/DistributorWallet.sol:DistributorWallet","label":"managedWrappedSongs","offset":0,"slot":"6","type":"t_array(t_address)dyn_storage"}],"types":{"t_address":{"encoding":"inplace","label":"address","numberOfBytes":"20"},"t_array(t_address)dyn_storage":{"base":"t_address","encoding":"dynamic_array","label":"address[]","numberOfBytes":"32"},"t_array(t_uint256)dyn_storage":{"base":"t_uint256","encoding":"dynamic_array","label":"uint256[]","numberOfBytes":"32"},"t_bool":{"encoding":"inplace","label":"bool","numberOfBytes":"1"},"t_mapping(t_address,t_bool)":{"encoding":"mapping","key":"t_address","label":"mapping(address => bool)","numberOfBytes":"32","value":"t_bool"},"t_mapping(t_address,t_mapping(t_address,t_bool))":{"encoding":"mapping","key":"t_address","label":"mapping(address => mapping(address => bool))","numberOfBytes":"32","value":"t_mapping(t_address,t_bool)"},"t_mapping(t_address,t_uint256)":{"encoding":"mapping","key":"t_address","label":"mapping(address => uint256)","numberOfBytes":"32","value":"t_uint256"},"t_mapping(t_uint256,t_array(t_uint256)dyn_storage)":{"encoding":"mapping","key":"t_uint256","label":"mapping(uint256 => uint256[])","numberOfBytes":"32","value":"t_array(t_uint256)dyn_storage"},"t_mapping(t_uint256,t_mapping(t_address,t_mapping(t_address,t_bool)))":{"encoding":"mapping","key":"t_uint256","label":"mapping(uint256 => mapping(address => mapping(address => bool)))","numberOfBytes":"32","value":"t_mapping(t_address,t_mapping(t_address,t_bool))"},"t_mapping(t_uint256,t_mapping(t_uint256,t_array(t_uint256)dyn_storage))":{"encoding":"mapping","key":"t_uint256","label":"mapping(uint256 => mapping(uint256 => uint256[]))","numberOfBytes":"32","value":"t_mapping(t_uint256,t_array(t_uint256)dyn_storage)"},"t_mapping(t_uint256,t_struct(RevenueEpoch)3615_storage)":{"encoding":"mapping","key":"t_uint256","label":"mapping(uint256 => struct DistributorWallet.RevenueEpoch)","numberOfBytes":"32","value":"t_struct(RevenueEpoch)3615_storage"},"t_struct(RevenueEpoch)3615_storage":{"encoding":"inplace","label":"struct DistributorWallet.RevenueEpoch","members":[{"astId":3610,"contract":"contracts/protocol/NonUpgradable/DistributorWallet.sol:DistributorWallet","label":"totalAmount","offset":0,"slot":"0","type":"t_uint256"},{"astId":3612,"contract":"contracts/protocol/NonUpgradable/DistributorWallet.sol:DistributorWallet","label":"timestamp","offset":0,"slot":"1","type":"t_uint256"},{"astId":3614,"contract":"contracts/protocol/NonUpgradable/DistributorWallet.sol:DistributorWallet","label":"chunksCount","offset":0,"slot":"2","type":"t_uint256"}],"numberOfBytes":"96"},"t_uint256":{"encoding":"inplace","label":"uint256","numberOfBytes":"32"}}}}}}