{"contracts/protocol/NonUpgradable/WrappedSongSmartAccount.sol":{"WrappedSongSmartAccount":{"abi":[{"inputs":[{"internalType":"address","name":"_protocolModuleAddress","type":"address"}],"stateMutability":"nonpayable","type":"constructor"},{"inputs":[],"name":"InvalidInitialization","type":"error"},{"inputs":[],"name":"NotInitializing","type":"error"},{"inputs":[{"internalType":"address","name":"owner","type":"address"}],"name":"OwnableInvalidOwner","type":"error"},{"inputs":[{"internalType":"address","name":"account","type":"address"}],"name":"OwnableUnauthorizedAccount","type":"error"},{"inputs":[],"name":"ReentrancyGuardReentrantCall","type":"error"},{"anonymous":false,"inputs":[{"indexed":true,"internalType":"address","name":"newWrappedSongAddress","type":"address"}],"name":"ContractMigrated","type":"event"},{"anonymous":false,"inputs":[{"indexed":true,"internalType":"uint256","name":"epochId","type":"uint256"},{"indexed":false,"internalType":"uint256","name":"amount","type":"uint256"},{"indexed":false,"internalType":"uint256","name":"earningsPerShare","type":"uint256"},{"indexed":false,"internalType":"bool","name":"isETH","type":"bool"}],"name":"EarningsEpochProcessed","type":"event"},{"anonymous":false,"inputs":[{"indexed":true,"internalType":"address","name":"user","type":"address"},{"indexed":false,"internalType":"uint256","name":"fromEpoch","type":"uint256"},{"indexed":false,"internalType":"uint256","name":"toEpoch","type":"uint256"},{"indexed":false,"internalType":"uint256","name":"amount","type":"uint256"},{"indexed":true,"internalType":"address","name":"token","type":"address"}],"name":"EpochEarningsClaimed","type":"event"},{"anonymous":false,"inputs":[{"indexed":false,"internalType":"uint64","name":"version","type":"uint64"}],"name":"Initialized","type":"event"},{"anonymous":false,"inputs":[{"indexed":true,"internalType":"address","name":"previousOwner","type":"address"},{"indexed":true,"internalType":"address","name":"newOwner","type":"address"}],"name":"OwnershipTransferred","type":"event"},{"inputs":[{"internalType":"uint256","name":"maxEpochs","type":"uint256"}],"name":"claimETHEarnings","outputs":[],"stateMutability":"nonpayable","type":"function"},{"inputs":[{"internalType":"uint256","name":"maxEpochs","type":"uint256"}],"name":"claimStablecoinEarnings","outputs":[],"stateMutability":"nonpayable","type":"function"},{"inputs":[{"internalType":"uint256","name":"amount","type":"uint256"},{"internalType":"address","name":"recipient","type":"address"}],"name":"createBuyoutToken","outputs":[],"stateMutability":"nonpayable","type":"function"},{"inputs":[],"name":"createETHDistributionEpoch","outputs":[],"stateMutability":"nonpayable","type":"function"},{"inputs":[{"internalType":"string","name":"contractURI","type":"string"}],"name":"createLegalContract","outputs":[{"internalType":"uint256","name":"","type":"uint256"}],"stateMutability":"nonpayable","type":"function"},{"inputs":[{"internalType":"uint256","name":"sharesAmount","type":"uint256"}],"name":"createSongShares","outputs":[],"stateMutability":"nonpayable","type":"function"},{"inputs":[],"name":"createStablecoinDistributionEpoch","outputs":[],"stateMutability":"nonpayable","type":"function"},{"inputs":[],"name":"ethBalance","outputs":[{"internalType":"uint256","name":"","type":"uint256"}],"stateMutability":"view","type":"function"},{"inputs":[{"internalType":"uint256","name":"index","type":"uint256"}],"name":"ethEarningsEpochs","outputs":[{"components":[{"internalType":"uint256","name":"epochId","type":"uint256"},{"internalType":"uint256","name":"amount","type":"uint256"},{"internalType":"uint256","name":"earningsPerShare","type":"uint256"},{"internalType":"uint256","name":"timestamp","type":"uint256"},{"internalType":"address","name":"sender","type":"address"}],"internalType":"struct IWrappedSongTypes.EarningsEpoch","name":"","type":"tuple"}],"stateMutability":"view","type":"function"},{"inputs":[{"internalType":"address","name":"account","type":"address"}],"name":"getPendingETHEarnings","outputs":[{"internalType":"uint256","name":"","type":"uint256"}],"stateMutability":"view","type":"function"},{"inputs":[],"name":"getPendingStablecoinDistribution","outputs":[{"internalType":"uint256","name":"","type":"uint256"}],"stateMutability":"view","type":"function"},{"inputs":[{"internalType":"address","name":"account","type":"address"}],"name":"getPendingStablecoinEarnings","outputs":[{"internalType":"uint256","name":"","type":"uint256"}],"stateMutability":"view","type":"function"},{"inputs":[{"internalType":"address","name":"account","type":"address"}],"name":"getUnclaimedETHEpochs","outputs":[{"internalType":"uint256[]","name":"epochIds","type":"uint256[]"},{"internalType":"uint256[]","name":"amounts","type":"uint256[]"},{"internalType":"uint256[]","name":"timestamps","type":"uint256[]"},{"internalType":"string[]","name":"sources","type":"string[]"}],"stateMutability":"view","type":"function"},{"inputs":[{"internalType":"address","name":"account","type":"address"}],"name":"getUnclaimedStablecoinEpochs","outputs":[{"internalType":"uint256[]","name":"epochIds","type":"uint256[]"},{"internalType":"uint256[]","name":"amounts","type":"uint256[]"},{"internalType":"uint256[]","name":"timestamps","type":"uint256[]"},{"internalType":"string[]","name":"sources","type":"string[]"}],"stateMutability":"view","type":"function"},{"inputs":[],"name":"getWSTokenManagementAddress","outputs":[{"internalType":"address","name":"","type":"address"}],"stateMutability":"view","type":"function"},{"inputs":[{"internalType":"address","name":"account","type":"address"},{"internalType":"address","name":"token","type":"address"}],"name":"hasMoreEpochsToClaim","outputs":[{"internalType":"bool","name":"hasMore","type":"bool"},{"internalType":"uint256","name":"nextEpoch","type":"uint256"},{"internalType":"uint256","name":"totalEpochs","type":"uint256"}],"stateMutability":"view","type":"function"},{"inputs":[{"internalType":"address","name":"_stablecoinAddress","type":"address"},{"internalType":"address","name":"_owner","type":"address"},{"internalType":"address","name":"_protocolModuleAddress","type":"address"}],"name":"initialize","outputs":[],"stateMutability":"nonpayable","type":"function"},{"inputs":[],"name":"metadataModule","outputs":[{"internalType":"contract IMetadataModule","name":"","type":"address"}],"stateMutability":"view","type":"function"},{"inputs":[{"internalType":"address","name":"newMetadataAddress","type":"address"},{"internalType":"address","name":"newWrappedSongAddress","type":"address"}],"name":"migrateWrappedSong","outputs":[],"stateMutability":"nonpayable","type":"function"},{"inputs":[],"name":"migrated","outputs":[{"internalType":"bool","name":"","type":"bool"}],"stateMutability":"view","type":"function"},{"inputs":[{"internalType":"address","name":"operator","type":"address"},{"internalType":"address","name":"from","type":"address"},{"internalType":"uint256[]","name":"ids","type":"uint256[]"},{"internalType":"uint256[]","name":"values","type":"uint256[]"},{"internalType":"bytes","name":"data","type":"bytes"}],"name":"onERC1155BatchReceived","outputs":[{"internalType":"bytes4","name":"","type":"bytes4"}],"stateMutability":"pure","type":"function"},{"inputs":[{"internalType":"address","name":"operator","type":"address"},{"internalType":"address","name":"from","type":"address"},{"internalType":"uint256","name":"id","type":"uint256"},{"internalType":"uint256","name":"value","type":"uint256"},{"internalType":"bytes","name":"data","type":"bytes"}],"name":"onERC1155Received","outputs":[{"internalType":"bytes4","name":"","type":"bytes4"}],"stateMutability":"pure","type":"function"},{"inputs":[],"name":"owner","outputs":[{"internalType":"address","name":"","type":"address"}],"stateMutability":"view","type":"function"},{"inputs":[],"name":"protocolModule","outputs":[{"internalType":"contract IProtocolModule","name":"","type":"address"}],"stateMutability":"view","type":"function"},{"inputs":[{"internalType":"address","name":"token","type":"address"},{"internalType":"uint256","name":"amount","type":"uint256"}],"name":"receiveERC20","outputs":[],"stateMutability":"nonpayable","type":"function"},{"inputs":[],"name":"renounceOwnership","outputs":[],"stateMutability":"nonpayable","type":"function"},{"inputs":[{"internalType":"address","name":"_wsTokenManagement","type":"address"}],"name":"setWSTokenManagement","outputs":[],"stateMutability":"nonpayable","type":"function"},{"inputs":[],"name":"songSharesId","outputs":[{"internalType":"uint256","name":"","type":"uint256"}],"stateMutability":"view","type":"function"},{"inputs":[],"name":"stablecoin","outputs":[{"internalType":"contract IERC20","name":"","type":"address"}],"stateMutability":"view","type":"function"},{"inputs":[{"internalType":"uint256","name":"index","type":"uint256"}],"name":"stablecoinEarningsEpochs","outputs":[{"components":[{"internalType":"uint256","name":"epochId","type":"uint256"},{"internalType":"uint256","name":"amount","type":"uint256"},{"internalType":"uint256","name":"earningsPerShare","type":"uint256"},{"internalType":"uint256","name":"timestamp","type":"uint256"},{"internalType":"address","name":"sender","type":"address"}],"internalType":"struct IWrappedSongTypes.EarningsEpoch","name":"","type":"tuple"}],"stateMutability":"view","type":"function"},{"inputs":[{"internalType":"bytes4","name":"interfaceId","type":"bytes4"}],"name":"supportsInterface","outputs":[{"internalType":"bool","name":"","type":"bool"}],"stateMutability":"view","type":"function"},{"inputs":[{"internalType":"address","name":"newOwner","type":"address"}],"name":"transferOwnership","outputs":[],"stateMutability":"nonpayable","type":"function"},{"inputs":[{"internalType":"address","name":"user","type":"address"}],"name":"userEpochBalances","outputs":[{"components":[{"internalType":"uint256","name":"lastClaimedEpoch","type":"uint256"},{"internalType":"uint256","name":"lastClaimedETHEpoch","type":"uint256"}],"internalType":"struct IWrappedSongTypes.EpochBalance","name":"","type":"tuple"}],"stateMutability":"view","type":"function"},{"inputs":[],"name":"wrappedSongTokenId","outputs":[{"internalType":"uint256","name":"","type":"uint256"}],"stateMutability":"view","type":"function"},{"inputs":[],"name":"wsTokenManagement","outputs":[{"internalType":"contract IWSTokenManagement","name":"","type":"address"}],"stateMutability":"view","type":"function"},{"stateMutability":"payable","type":"receive"}],"evm":{"bytecode":{"linkReferences":{},"object":"6080604090808252346200023457806200318c803803809162000023828562000239565b83396020928391810103126200023457516001600160a01b0380821691829003620002345733156200021c57600080546001600160a01b0319808216339081178455875191959285167f8be0079c531659141344cd1fd0a4f28419497f9722a3daafe3b4186f6b6457e08580a3600180558115620001da5750600480548516821781558651623684d160e81b815292918691849182905afa918215620001ce57819262000186575b5050169060055416176005557ff0c57e16840df040f15088dc2f81fe391c3923bec73e23a9662efc9c229c6a009081549160ff83851c1662000175576001600160401b03906002600160401b03198483160162000132575b8451612f189081620002748239f35b6001600160401b0319909316811790925582519182527fc7f505b2f371ae2175ee4913f4499e1f2633a7b5936321eed1cdaeb6115181d291a13880808062000123565b835163f92ee8a960e01b8152600490fd5b9091508481813d8311620001c6575b620001a1818362000239565b81010312620001c25751908282168203620001bf57503880620000cb565b80fd5b5080fd5b503d62000195565b508551903d90823e3d90fd5b62461bcd60e51b815260048101869052601760248201527f496e76616c69642070726f746f636f6c206d6f64756c650000000000000000006044820152606490fd5b8351631e4fbdf760e01b815260006004820152602490fd5b600080fd5b601f909101601f19168101906001600160401b038211908210176200025d57604052565b634e487b7160e01b600052604160045260246000fdfe6080604081815260049182361015610031575b505050361561002057600080fd5b61002c346008546123e4565b600855005b600092833560e01c91826301ffc9a7146120d4575081630a1c35a414611d1a5781632514a5fb14611aa35781632c678c6414611a7f5781632cc6d17b14611a3d5781633684d10014611a1457816339fa62df1461190157816343d0b50f146118e25781634c2b957a146118b65781634e6630b01461189757816351bcece2146118705781635c42e667146118485781635d152b36146118295781636ab415c1146118035781636d4645fd146112e5578163715018a61461128b578163716f6e871461120657816382d5195c14610fe75781638da5cb5b14610fbf5781639a5cb99d146102eb5781639d3bc4bd14610e8e578163a2440fd514610ddd578163aed4aab614610cea578163b40b5e8214610cb1578163bc197c8114610c28578163bcb7130d146109a5578163c0c53b8b14610764578163c45f497e146106fc578163d70a0abc14610314578163df5afd2a146102eb578163e9cbd822146102c2578163f23a6e6114610269578163f2fde38b1461020f57508063f3baa17f146101f15763fcd9b139146101c25780610012565b346101ed5760203660031901126101ed576020906101e66101e1612127565b612d37565b9051908152f35b5080fd5b50346101ed57816003193601126101ed576020906006549051908152f35b9050346102655760203660031901126102655761022a612127565b91610233612371565b6001600160a01b0383161561024f578361024c8461239d565b80f35b51631e4fbdf760e01b8152908101839052602490fd5b8280fd5b8284346102bf5760a03660031901126102bf57610284612127565b5061028d61213d565b50608435906001600160401b0382116102bf57506020926102b09136910161228e565b50505163f23a6e6160e01b8152f35b80fd5b5050346101ed57816003193601126101ed5760035490516001600160a01b039091168152602090f35b5050346101ed57816003193601126101ed5760025490516001600160a01b039091168152602090f35b90503461026557816003193601126102655761032e612127565b9161033761213d565b600d5460ff81166106b9576001600160a01b0382811695861561067657811680156106335781600254169081156105f0578287541693865180956366d0ead360e01b8252338a83015281602460209889935afa9081156105e6578b916105c9575b501561058e5760ff1916600117600d55889493929190813b1561058a57859160448392895194859384926335c282af60e21b84528d8401528d60248401525af1801561056857908591610572575b505060035485516370a0823160e01b8152308882015291168282602481845afa918215610568578592610531575b50816104b2575b505050478061044e575b82867f63a3a6504840fce1914d082b35c1578e92684e2412633097b92acce038d2b1ee8280a280f35b8280929181925af161045e612643565b501561046c57838180610425565b6104ae92505191829162461bcd60e51b83528201606090602081526013602082015272115512081d1c985b9cd9995c8819985a5b1959606a1b60408201520190565b0390fd5b855163a9059cbb60e01b81526001600160a01b0385168189019081526020810193909352918391839182908890829060400103925af18015610527576104f9575b8061041b565b8161051892903d10610520575b6105108183612335565b810190612453565b5038806104f3565b503d610506565b85513d86823e3d90fd5b945090508184813d8111610561575b61054a8183612335565b8101031261055c578793519038610414565b600080fd5b503d610540565b86513d87823e3d90fd5b61057b906122ec565b6105865783386103e6565b8380fd5b8580fd5b865162461bcd60e51b8152808901869052601560248201527410d85b1b195c881b9bdd08185d5d1a1bdc9a5e9959605a1b6044820152606490fd5b6105e09150863d8811610520576105108183612335565b38610398565b88513d8d823e3d90fd5b855162461bcd60e51b8152602081890152601960248201527f5753546f6b656e4d616e6167656d656e74206e6f7420736574000000000000006044820152606490fd5b845162461bcd60e51b8152602081880152601860248201527f496e76616c6964206d65746164617461206164647265737300000000000000006044820152606490fd5b845162461bcd60e51b8152602081880181905260248201527f496e76616c6964206e6577207772617070656420736f6e6720616464726573736044820152606490fd5b825162461bcd60e51b8152602081860152601960248201527f436f6e747261637420616c7265616479206d69677261746564000000000000006044820152606490fd5b5050346101ed5760203660031901126101ed578091610719612127565b8160208451610727816122ff565b828152015260018060a01b03168152600a602052206001815491015460208351610750816122ff565b838152019081528251918252516020820152f35b9050346102655760603660031901126102655761077f612127565b61078761213d565b6001600160a01b0390604435828116919082900361055c577ff0c57e16840df040f15088dc2f81fe391c3923bec73e23a9662efc9c229c6a009485549460ff86891c1615956001600160401b0381168015908161099d575b6001149081610993575b15908161098a575b5061097a5767ffffffffffffffff19811660011788558661095b575b5083156109185784169384156108d55782161561089a5780546001600160a01b031990811690931790556108409061239d565b6003541617600355836007556001600655610859578280f35b805468ff00000000000000001916905551600181527fc7f505b2f371ae2175ee4913f4499e1f2633a7b5936321eed1cdaeb6115181d290602090a138808280f35b606490602088519162461bcd60e51b83528201526015602482015274496e76616c6964206f776e6572206164647265737360581b6044820152fd5b875162461bcd60e51b8152602081840152601a60248201527f496e76616c696420737461626c65636f696e20616464726573730000000000006044820152606490fd5b875162461bcd60e51b8152602081840152601f60248201527f496e76616c69642070726f746f636f6c206d6f64756c652061646472657373006044820152606490fd5b68ffffffffffffffffff1916680100000000000000011787553861080d565b885163f92ee8a960e01b81528390fd5b905015386107f1565b303b1591506107e9565b8891506107df565b8383346101ed57602092836003193601126102655780356001600160401b03811161058657366023820112156105865780820135916109e383612356565b926109f085519485612335565b80845260249236848383010111610c1d57818792858a9301838801378501015284546001600160a01b0390811633148015610bb2575b15610b59576002541690845163bd85b03960e01b815260038282015287818581865afa908115610b4f578791610b22575b50610ad557908686819493610a8388519788968795869463bcb7130d60e01b8652850152830190612187565b03925af1928315610aca5792610a9b575b5051908152f35b9091508281813d8311610ac3575b610ab38183612335565b8101031261055c57519083610a94565b503d610aa9565b8251903d90823e3d90fd5b845162461bcd60e51b81529081018790526022818401527f4c6567616c20636f6e747261637420616c726561647920696e697469616c697a604482015261195960f21b6064820152608490fd5b90508781813d8311610b48575b610b398183612335565b8101031261055c575188610a57565b503d610b2f565b86513d89823e3d90fd5b50602f6084928786519362461bcd60e51b85528401528201527f43616c6c6572206973206e6f74206f776e6572206f722077726170706564207360448201526e37b733903234b9ba3934b13aba37b960891b6064820152fd5b50828782845416875192838092633aa690e760e01b825230888301525afa908115610b4f579082918891610bea575b50163314610a26565b809250898092503d8311610c21575b610c038183612335565b81010312610c1d57518181168103610c1d57819089610be1565b8680fd5b503d610bf9565b8284346102bf5760a03660031901126102bf57610c43612127565b50610c4c61213d565b506001600160401b03906044358281116101ed57610c6d903690860161225e565b50506064358281116101ed57610c86903690860161225e565b50506084359182116102bf5750602092610ca29136910161228e565b50505163bc197c8160e01b8152f35b5050346101ed5760203660031901126101ed57610ce690610cd8610cd3612127565b6129e6565b9194929351948594856121c7565b0390f35b905034610265578160031936011261026557610d04612127565b60243591610d1760ff600d541615612407565b6003546001600160a01b0392831692168203610daa5784916064602092865194859384926323b872dd60e01b845233908401523060248401528760448401525af1928315610da15750610d7d92610d75918591610d83575b5061246b565b6009546123e4565b60095580f35b610d9b915060203d8111610520576105108183612335565b38610d6f565b513d85823e3d90fd5b606490602085519162461bcd60e51b8352820152600d60248201526c24b73b30b634b2103a37b5b2b760991b6044820152fd5b9190503461026557602036600319011261026557610ce69250610dfe612eb7565b50610e098235612590565b5080549260018201549160028101549060038101549260018060a01b039101541692845195610e37876122bb565b8652602086015283850152606084015260808301525191829182919091608060a0820193805183526020810151602084015260408101516040840152606081015160608401528160018060a01b0391015116910152565b839150346101ed57826003193601126101ed57610ea961213d565b92610eb2612371565b60018060a01b0391826002541694825163bd85b03960e01b815260028382015260209081816024818b5afa908115610fb5578791610f88575b50610f4757508585963b1561058a5785928360449286519788958694639d3bc4bd60e01b86528035908601521660248401525af1908115610f3e5750610f2e5750f35b610f37906122ec565b6102bf5780f35b513d84823e3d90fd5b809150606493519262461bcd60e51b845283015260248201527f4275796f757420746f6b656e20616c726561647920696e697469616c697a65646044820152fd5b90508181813d8311610fae575b610f9f8183612335565b8101031261055c575188610eeb565b503d610f95565b85513d89823e3d90fd5b5050346101ed57816003193601126101ed57905490516001600160a01b039091168152602090f35b9190503461026557826003193601126102655761100960ff600d541615612407565b6008549081156111cd5760018060a01b038060025416600654835191829163bd85b03960e01b83528783015281602460209485935afa9081156111c3578791611196575b50611059811515612e79565b670de0b6b3a76400008502670de0b6b3a763ffff1986820401611183579061108091612623565b91600b54908451611090816122bb565b82815283810187815286820186815260608301914283526080840195338752600160401b81101561116e578060016110cb9201600b55612590565b94909461115a57518455516001840155516002830155516003820155915191870180546001600160a01b03191691909216179055600b54600019810195908611611147575082519384528301526001908201527f77841c1ae75de1a1c173cb7ffd7f1dc25d09aca1e636b17a232b67072624bab890606090a280f35b634e487b7160e01b875260119052602486fd5b60008c634e487b7160e01b82525260246000fd5b60418c634e487b7160e01b6000525260246000fd5b634e487b7160e01b885260118752602488fd5b90508181813d83116111bc575b6111ad8183612335565b8101031261055c57513861104d565b503d6111a3565b84513d89823e3d90fd5b5162461bcd60e51b815260208184015260146024820152734e6f2045544820746f206469737472696275746560601b6044820152606490fd5b9190503461026557602036600319011261026557611222612127565b600254926001600160a01b039283851661125257505016906bffffffffffffffffffffffff60a01b161760025580f35b906020606492519162461bcd60e51b8352820152601360248201527215d4d51bdad95b88185b1c9958591e481cd95d606a1b6044820152fd5b83346102bf57806003193601126102bf576112a4612371565b600080546001600160a01b0319811682556001600160a01b03167f8be0079c531659141344cd1fd0a4f28419497f9722a3daafe3b4186f6b6457e08280a380f35b91905034610265576020918260031936011261058657803591611306612673565b61131560ff600d541615612407565b6002546006548251627eeac760e11b8152338582019081526020810183905291946001600160a01b0390931692918790829081906040010381865afa9081156117b95788916117d6575b5015801590611736575b611372906124b6565b338752600a86526001958684892001908782549788600b546113958282116124f4565b821561171057906113a5916124a9565b8082101561170957505b9490505b8996888a5b611520575b50505085156114de57600854861161149c57506113da83876123e4565b90556113e8846008546124a9565b6008558680808087335af16113fb612643565b501561145a5750917f33508fa3c05f271d76112f2a1c190707f316b34540511262f6d62bff50a0285491611452611434869589976123e4565b91519283923396846040919493926060820195825260208201520152565b0390a3805580f35b6104ae90835191829162461bcd60e51b83528201606090602081526013602082015272115512081d1c985b9cd9995c8819985a5b1959606a1b60408201520190565b8260649186519162461bcd60e51b8352820152601d60248201527f496e73756666696369656e7420636f6e74726163742062616c616e63650000006044820152fd5b8260649186519162461bcd60e51b8352820152601860248201527f4e6f20455448206561726e696e677320746f20636c61696d00000000000000006044820152fd5b61152a878b6123e4565b8110156117045761154361153d82612590565b506125cb565b6060818101518a51630c4db40d60e31b815233818b019081526020810187905260408101929092528f929091889183918291010381895afa9182156116f957908e96959493926116c8575b50806115a8575b50506115a090612530565b9091926113b8565b909a9192939450898b016115c76115c0825184612610565b9283612623565b90510361168557670de0b6b3a76400008691049a01518a1161164257896115ed916123e4565b9889106115ff57908a92913880611595565b875162461bcd60e51b8152808701859052601860248201527f546f74616c20756e636c61696d6564206f766572666c6f7700000000000000006044820152606490fd5b885162461bcd60e51b8152808801869052601a60248201527f53686172652063616c63756c6174696f6e206f766572666c6f770000000000006044820152606490fd5b895162461bcd60e51b8152808901879052601760248201527f4d756c7469706c69636174696f6e206f766572666c6f770000000000000000006044820152606490fd5b809650878092503d83116116f2575b6116e18183612335565b8101031261055c578c94513861158e565b503d6116d7565b8b51903d90823e3d90fd5b6113bd565b90506113af565b61171a92506124a9565b80603210600014611731575060325b9490506113b3565b611729565b5060001942014281116117c3578351630c4db40d60e31b815233838201908152602081018790526040810192909252908790829081906060010381865afa80156117b957889061178a575b15159050611369565b508681813d83116117b2575b6117a08183612335565b8101031261055c576113729051611781565b503d611796565b84513d8a823e3d90fd5b634e487b7160e01b885260118252602488fd5b90508681813d83116117fc575b6117ed8183612335565b8101031261055c57513861135f565b503d6117e3565b5050346101ed5760203660031901126101ed576020906101e6611824612127565b612b8d565b5050346101ed57816003193601126101ed576020906009549051908152f35b9050346102655782600319360112610265575490516001600160a01b03909116815260209150f35b5050346101ed5760203660031901126101ed57610ce690610cd8611892612127565b6127a3565b5050346101ed57816003193601126101ed576020906008549051908152f35b9190503461026557602036600319011261026557610ce692506118d7612eb7565b50610e09823561253f565b5050346101ed57816003193601126101ed576020906007549051908152f35b8383346101ed576020928360031936011261026557600254825163bd85b03960e01b81526001838201526001600160a01b03909116908581602481855afa908115611a0a5785916119d9575b5061199757839450803b156119925760248492845195869384926339fa62df60e01b84528035908401525af1908115610f3e5750611989575080f35b61024c906122ec565b505050fd5b5083606492519162461bcd60e51b8352820152601a60248201527f53686172657320616c726561647920696e697469616c697a65640000000000006044820152fd5b90508581813d8311611a03575b6119f08183612335565b810103126119ff57518661194d565b8480fd5b503d6119e6565b84513d87823e3d90fd5b5050346101ed57816003193601126101ed5760055490516001600160a01b039091168152602090f35b5050346101ed57806003193601126101ed57606090611a6b611a5d612127565b611a6561213d565b90612696565b919290815193151584526020840152820152f35b5050346101ed57816003193601126101ed5760209060ff600d541690519015158152f35b91905034610265578260031936011261026557611ac560ff600d541615612407565b600954908115611cd857600254600654825163bd85b03960e01b8152858101919091526020936001600160a01b039260249290869082908590829088165afa908115611cce578891611c9d575b50611b1e811515612e79565b670de0b6b3a76400008202670de0b6b3a763ffff1983820401611c8b5790611b4591612623565b600c54909390918215611c86576000198301838111611c7457906001611b6d611b759361253f565b5001546123e4565b855190611b81826122bb565b83825287820190815286820186815260608301914283526080840195338752600160401b811015611c6257806001611bbc9201600c5561253f565b949094611c5157518455516001840155516002830155516003820155915191870180546001600160a01b03191691909216179055600c54600019810195908611611c4057505091846060927f77841c1ae75de1a1c173cb7ffd7f1dc25d09aca1e636b17a232b67072624bab894600954938251948552840152820152a28060095580f35b634e487b7160e01b87526011905285fd5b634e487b7160e01b8d528c8c52878dfd5b634e487b7160e01b8d5260418c52878dfd5b634e487b7160e01b8a5260118952848afd5b611b75565b634e487b7160e01b8952601188528389fd5b90508581813d8311611cc7575b611cb48183612335565b81010312611cc3575138611b12565b8780fd5b503d611caa565b85513d8a823e3d90fd5b5162461bcd60e51b8152602081840152601d60248201527f4e6f206e6577206561726e696e677320746f20646973747269627574650000006044820152606490fd5b9050346102655760208060031936011261058657813591611d39612673565b611d4860ff600d541615612407565b6002546006548551627eeac760e11b8152338185019081526020810183905291936001600160a01b0393841693929091908690829081906040010381875afa90811561208a5789916120a7575b5015801590612003575b611da8906124b6565b338852600a8552868820805496600c5490611dc48983116124f4565b8015611ff857611dd5905b896123e4565b9080821015611ff157505b938995885b868110611f00575b5050508415611ebd57839055600354875163a9059cbb60e01b815233928101928352602083018690529291869184918290036040019082908c9086165af1948515611eb3577f33508fa3c05f271d76112f2a1c190707f316b34540511262f6d62bff50a0285495611e8c93611e6a928b92611e96575b505061246b565b6003541695519283923396846040919493926060820195825260208201520152565b0390a36001805580f35b611eac9250803d10610520576105108183612335565b3880611e63565b87513d8a823e3d90fd5b875162461bcd60e51b8152808301879052601f60248201527f4e6f20737461626c65636f696e206561726e696e677320746f20636c61696d006044820152606490fd5b620186a05a10611fe3578b8b611f1861153d8461253f565b6060818101518351630c4db40d60e31b815233818c01908152602081018990526040810192909252918e91839182910103818a5afa938415611fd85793611fa1575b5082611f72575b505050611f6d90612530565b611de5565b611f91611f9893611f6d959c93670de0b6b3a764000093015190612610565b04906123e4565b97908b38611f61565b8c809294508193503d8311611fd1575b611fbb8183612335565b81010312611fcd578c90519138611f5a565b8d80fd5b503d611fb1565b8351903d90823e3d90fd5b929550505092388080611ded565b9050611de0565b50611dd56032611dcf565b506000194201428111612094578751630c4db40d60e31b815233838201908152602081018790526040810192909252908690829081906060010381875afa801561208a578990612057575b15159050611d9f565b508581813d8311612083575b61206d8183612335565b8101031261207f57611da8905161204e565b8880fd5b503d612063565b88513d8b823e3d90fd5b634e487b7160e01b895260118252602489fd5b90508581813d83116120cd575b6120be8183612335565b8101031261207f575138611d95565b503d6120b4565b849134610265576020366003190112610265573563ffffffff60e01b81168091036102655760209250630271189760e51b8114908115612116575b5015158152f35b6301ffc9a760e01b1490508361210f565b600435906001600160a01b038216820361055c57565b602435906001600160a01b038216820361055c57565b90815180825260208080930193019160005b828110612173575050505090565b835185529381019392810192600101612165565b919082519283825260005b8481106121b3575050826000602080949584010152601f8019910116010190565b602081830181015184830182015201612192565b926121ef6121e06121fd93608087526080870190612153565b60209486820386880152612153565b908482036040860152612153565b9160608184039101528251908183528083019281808460051b8301019501936000915b8483106122305750505050505090565b909192939495848061224e600193601f198682030187528a51612187565b9801930193019194939290612220565b9181601f8401121561055c578235916001600160401b03831161055c576020808501948460051b01011161055c57565b9181601f8401121561055c578235916001600160401b03831161055c576020838186019501011161055c57565b60a081019081106001600160401b038211176122d657604052565b634e487b7160e01b600052604160045260246000fd5b6001600160401b0381116122d657604052565b604081019081106001600160401b038211176122d657604052565b602081019081106001600160401b038211176122d657604052565b90601f801991011681019081106001600160401b038211176122d657604052565b6001600160401b0381116122d657601f01601f191660200190565b6000546001600160a01b0316330361238557565b60405163118cdaa760e01b8152336004820152602490fd5b600080546001600160a01b039283166001600160a01b03198216811783559216907f8be0079c531659141344cd1fd0a4f28419497f9722a3daafe3b4186f6b6457e09080a3565b919082018092116123f157565b634e487b7160e01b600052601160045260246000fd5b1561240e57565b60405162461bcd60e51b815260206004820152601a60248201527f436f6e747261637420686173206265656e206d696772617465640000000000006044820152606490fd5b9081602091031261055c5751801515810361055c5790565b1561247257565b60405162461bcd60e51b815260206004820152600f60248201526e151c985b9cd9995c8819985a5b1959608a1b6044820152606490fd5b919082039182116123f157565b156124bd57565b60405162461bcd60e51b815260206004820152600f60248201526e139bc81cda185c995cc81bdddb9959608a1b6044820152606490fd5b156124fb57565b60405162461bcd60e51b815260206004820152600d60248201526c4e6f206e65772065706f63687360981b6044820152606490fd5b60001981146123f15760010190565b600c5481101561257a57600590600c600052027fdf6966c971051c3d54ec59162606531493a51404a002842f56009d7e5cf4a8c70190600090565b634e487b7160e01b600052603260045260246000fd5b600b5481101561257a57600590600b600052027f0175b7a638427703f0dbe7bb9bbf987a2551717b34e79f33b5b1008d1fa01db90190600090565b906040516125d8816122bb565b825481526001830154602082015260028301546040820152600383015460608201526004909201546001600160a01b03166080830152565b818102929181159184041417156123f157565b811561262d570490565b634e487b7160e01b600052601260045260246000fd5b3d1561266e573d9061265482612356565b916126626040519384612335565b82523d6000602084013e565b606090565b600260015414612684576002600155565b604051633ee5aeb560e01b8152600490fd5b6001600160a01b039081166000908152600a602052604081209190921615929083156126f55760010154925b156126ec5782600b545b8181116126db57505081929190565b6126e69293506124a9565b60019291565b82600c546126cc565b54926126c2565b6001600160401b0381116122d65760051b60200190565b9061271d826126fc565b61272a6040519182612335565b828152809261273b601f19916126fc565b0190602036910137565b9061274f826126fc565b61275c6040519182612335565b828152809261276d601f19916126fc565b019060005b82811061277e57505050565b806060602080938501015201612772565b805182101561257a5760209160051b010190565b600254600654604051627eeac760e11b81526001600160a01b0384811660048301526024820183905293949284169391929190602081604481885afa908115612959576000916129b4575b5015612965578416600052600a602052600160406000200154600b5461281c61281783836124a9565b612713565b9161282a61281782846124a9565b9661283861281783856124a9565b9661284b61284684866124a9565b612745565b96835b8581106128615750505050505093929190565b61286d61153d82612590565b805161288261287c88856124a9565b8a61278f565b526060810151604051630c4db40d60e31b81526001600160a01b0387166004820152602481018590526044810191909152602081606481885afa8015612959578d91600091612923575b5091606091612902670de0b6b3a76400006128f061291e9796604086015190612610565b04916128fc8b876124a9565b9061278f565b52015161291861291288846124a9565b8d61278f565b52612530565b61284e565b91506020823d602011612951575b8161293e60209383612335565b810103126102bf5750518c9060606128cc565b3d9150612931565b6040513d6000823e3d90fd5b5092505050604051906129778261231a565b60008252604051916129888361231a565b60008352604051916129998361231a565b60008352604051916129aa8361231a565b6000835293929190565b906020823d6020116129de575b816129ce60209383612335565b810103126102bf575051386127ee565b3d91506129c1565b600254600654604051627eeac760e11b81526001600160a01b0384811660048301526024820183905293949284169391929190602081604481885afa90811561295957600091612b5b575b5015612965578416600052600a602052604060002054600c54612a5761281783836124a9565b91612a6561281782846124a9565b96612a7361281783856124a9565b96612a8161284684866124a9565b96835b858110612a975750505050505093929190565b612aa361153d8261253f565b8051612ab261287c88856124a9565b526060810151604051630c4db40d60e31b81526001600160a01b0387166004820152602481018590526044810191909152602081606481885afa8015612959578d91600091612b25575b5091606091612902670de0b6b3a76400006128f0612b209796604086015190612610565b612a84565b91506020823d602011612b53575b81612b4060209383612335565b810103126102bf5750518c906060612afc565b3d9150612b33565b906020823d602011612b85575b81612b7560209383612335565b810103126102bf57505138612a31565b3d9150612b68565b60025460065460408051627eeac760e11b81526001600160a01b0385811660048084019190915260248301859052939594811694602094909290919085816044818a5afa908115612d2c57600091612cff575b5015612cf35782919694939216600052600a8352600182600020015495600b5494600097965b868810612c1857505050505050505090565b9091929394959697612c6c612c2f61153d8b612590565b6060818101518951630c4db40d60e31b81526001600160a01b038a16898201908152602081018990526040810192909252938b9285928392910190565b0381875afa918215612ce857908891600093612cb4575b50611f91612ca293612ca89593670de0b6b3a764000093015190612610565b98612530565b96959493929190612c06565b9150918982813d8311612ce1575b612ccc8183612335565b810103126102bf575051908790611f91612c83565b503d612cc2565b88513d6000823e3d90fd5b50505050505050600090565b908682813d8311612d25575b612d158183612335565b810103126102bf57505138612be0565b503d612d0b565b85513d6000823e3d90fd5b60025460065460408051627eeac760e11b81526001600160a01b0385811660048084019190915260248301859052939594811694602094909290919085816044818a5afa908115612d2c57600091612e4c575b5015612cf35782919694939216600052600a8352816000205495600c5494600097965b868810612dbf57505050505050505090565b9091929394959697612dd6612c2f61153d8b61253f565b0381875afa918215612ce857908891600093612e18575b50611f91612ca293612e0c9593670de0b6b3a764000093015190612610565b96959493929190612dad565b9150918982813d8311612e45575b612e308183612335565b810103126102bf575051908790611f91612ded565b503d612e26565b908682813d8311612e72575b612e628183612335565b810103126102bf57505138612d8a565b503d612e58565b15612e8057565b60405162461bcd60e51b815260206004820152600f60248201526e139bc81cda185c995cc8195e1a5cdd608a1b6044820152606490fd5b60405190612ec4826122bb565b6000608083828152826020820152826040820152826060820152015256fea2646970667358221220a57404883a43c47f3645b7671b40fab7883757b18380115bcc02fe9445f8931164736f6c63430008140033","opcodes":"PUSH1 0x80 PUSH1 0x40 SWAP1 DUP1 DUP3 MSTORE CALLVALUE PUSH3 0x234 JUMPI DUP1 PUSH3 0x318C DUP1 CODESIZE SUB DUP1 SWAP2 PUSH3 0x23 DUP3 DUP6 PUSH3 0x239 JUMP JUMPDEST DUP4 CODECOPY PUSH1 0x20 SWAP3 DUP4 SWAP2 DUP2 ADD SUB SLT PUSH3 0x234 JUMPI MLOAD PUSH1 0x1 PUSH1 0x1 PUSH1 0xA0 SHL SUB DUP1 DUP3 AND SWAP2 DUP3 SWAP1 SUB PUSH3 0x234 JUMPI CALLER ISZERO PUSH3 0x21C JUMPI PUSH1 0x0 DUP1 SLOAD PUSH1 0x1 PUSH1 0x1 PUSH1 0xA0 SHL SUB NOT DUP1 DUP3 AND CALLER SWAP1 DUP2 OR DUP5 SSTORE DUP8 MLOAD SWAP2 SWAP6 SWAP3 DUP6 AND PUSH32 0x8BE0079C531659141344CD1FD0A4F28419497F9722A3DAAFE3B4186F6B6457E0 DUP6 DUP1 LOG3 PUSH1 0x1 DUP1 SSTORE DUP2 ISZERO PUSH3 0x1DA JUMPI POP PUSH1 0x4 DUP1 SLOAD DUP6 AND DUP3 OR DUP2 SSTORE DUP7 MLOAD PUSH3 0x3684D1 PUSH1 0xE8 SHL DUP2 MSTORE SWAP3 SWAP2 DUP7 SWAP2 DUP5 SWAP2 DUP3 SWAP1 GAS STATICCALL SWAP2 DUP3 ISZERO PUSH3 0x1CE JUMPI DUP2 SWAP3 PUSH3 0x186 JUMPI JUMPDEST POP POP AND SWAP1 PUSH1 0x5 SLOAD AND OR PUSH1 0x5 SSTORE PUSH32 0xF0C57E16840DF040F15088DC2F81FE391C3923BEC73E23A9662EFC9C229C6A00 SWAP1 DUP2 SLOAD SWAP2 PUSH1 0xFF DUP4 DUP6 SHR AND PUSH3 0x175 JUMPI PUSH1 0x1 PUSH1 0x1 PUSH1 0x40 SHL SUB SWAP1 PUSH1 0x2 PUSH1 0x1 PUSH1 0x40 SHL SUB NOT DUP5 DUP4 AND ADD PUSH3 0x132 JUMPI JUMPDEST DUP5 MLOAD PUSH2 0x2F18 SWAP1 DUP2 PUSH3 0x274 DUP3 CODECOPY RETURN JUMPDEST PUSH1 0x1 PUSH1 0x1 PUSH1 0x40 SHL SUB NOT SWAP1 SWAP4 AND DUP2 OR SWAP1 SWAP3 SSTORE DUP3 MLOAD SWAP2 DUP3 MSTORE PUSH32 0xC7F505B2F371AE2175EE4913F4499E1F2633A7B5936321EED1CDAEB6115181D2 SWAP2 LOG1 CODESIZE DUP1 DUP1 DUP1 PUSH3 0x123 JUMP JUMPDEST DUP4 MLOAD PUSH4 0xF92EE8A9 PUSH1 0xE0 SHL DUP2 MSTORE PUSH1 0x4 SWAP1 REVERT JUMPDEST SWAP1 SWAP2 POP DUP5 DUP2 DUP2 RETURNDATASIZE DUP4 GT PUSH3 0x1C6 JUMPI JUMPDEST PUSH3 0x1A1 DUP2 DUP4 PUSH3 0x239 JUMP JUMPDEST DUP2 ADD SUB SLT PUSH3 0x1C2 JUMPI MLOAD SWAP1 DUP3 DUP3 AND DUP3 SUB PUSH3 0x1BF JUMPI POP CODESIZE DUP1 PUSH3 0xCB JUMP JUMPDEST DUP1 REVERT JUMPDEST POP DUP1 REVERT JUMPDEST POP RETURNDATASIZE PUSH3 0x195 JUMP JUMPDEST POP DUP6 MLOAD SWAP1 RETURNDATASIZE SWAP1 DUP3 RETURNDATACOPY RETURNDATASIZE SWAP1 REVERT JUMPDEST PUSH3 0x461BCD PUSH1 0xE5 SHL DUP2 MSTORE PUSH1 0x4 DUP2 ADD DUP7 SWAP1 MSTORE PUSH1 0x17 PUSH1 0x24 DUP3 ADD MSTORE PUSH32 0x496E76616C69642070726F746F636F6C206D6F64756C65000000000000000000 PUSH1 0x44 DUP3 ADD MSTORE PUSH1 0x64 SWAP1 REVERT JUMPDEST DUP4 MLOAD PUSH4 0x1E4FBDF7 PUSH1 0xE0 SHL DUP2 MSTORE PUSH1 0x0 PUSH1 0x4 DUP3 ADD MSTORE PUSH1 0x24 SWAP1 REVERT JUMPDEST PUSH1 0x0 DUP1 REVERT JUMPDEST PUSH1 0x1F SWAP1 SWAP2 ADD PUSH1 0x1F NOT AND DUP2 ADD SWAP1 PUSH1 0x1 PUSH1 0x1 PUSH1 0x40 SHL SUB DUP3 GT SWAP1 DUP3 LT OR PUSH3 0x25D JUMPI PUSH1 0x40 MSTORE JUMP JUMPDEST PUSH4 0x4E487B71 PUSH1 0xE0 SHL PUSH1 0x0 MSTORE PUSH1 0x41 PUSH1 0x4 MSTORE PUSH1 0x24 PUSH1 0x0 REVERT INVALID PUSH1 0x80 PUSH1 0x40 DUP2 DUP2 MSTORE PUSH1 0x4 SWAP2 DUP3 CALLDATASIZE LT ISZERO PUSH2 0x31 JUMPI JUMPDEST POP POP POP CALLDATASIZE ISZERO PUSH2 0x20 JUMPI PUSH1 0x0 DUP1 REVERT JUMPDEST PUSH2 0x2C CALLVALUE PUSH1 0x8 SLOAD PUSH2 0x23E4 JUMP JUMPDEST PUSH1 0x8 SSTORE STOP JUMPDEST PUSH1 0x0 SWAP3 DUP4 CALLDATALOAD PUSH1 0xE0 SHR SWAP2 DUP3 PUSH4 0x1FFC9A7 EQ PUSH2 0x20D4 JUMPI POP DUP2 PUSH4 0xA1C35A4 EQ PUSH2 0x1D1A JUMPI DUP2 PUSH4 0x2514A5FB EQ PUSH2 0x1AA3 JUMPI DUP2 PUSH4 0x2C678C64 EQ PUSH2 0x1A7F JUMPI DUP2 PUSH4 0x2CC6D17B EQ PUSH2 0x1A3D JUMPI DUP2 PUSH4 0x3684D100 EQ PUSH2 0x1A14 JUMPI DUP2 PUSH4 0x39FA62DF EQ PUSH2 0x1901 JUMPI DUP2 PUSH4 0x43D0B50F EQ PUSH2 0x18E2 JUMPI DUP2 PUSH4 0x4C2B957A EQ PUSH2 0x18B6 JUMPI DUP2 PUSH4 0x4E6630B0 EQ PUSH2 0x1897 JUMPI DUP2 PUSH4 0x51BCECE2 EQ PUSH2 0x1870 JUMPI DUP2 PUSH4 0x5C42E667 EQ PUSH2 0x1848 JUMPI DUP2 PUSH4 0x5D152B36 EQ PUSH2 0x1829 JUMPI DUP2 PUSH4 0x6AB415C1 EQ PUSH2 0x1803 JUMPI DUP2 PUSH4 0x6D4645FD EQ PUSH2 0x12E5 JUMPI DUP2 PUSH4 0x715018A6 EQ PUSH2 0x128B JUMPI DUP2 PUSH4 0x716F6E87 EQ PUSH2 0x1206 JUMPI DUP2 PUSH4 0x82D5195C EQ PUSH2 0xFE7 JUMPI DUP2 PUSH4 0x8DA5CB5B EQ PUSH2 0xFBF JUMPI DUP2 PUSH4 0x9A5CB99D EQ PUSH2 0x2EB JUMPI DUP2 PUSH4 0x9D3BC4BD EQ PUSH2 0xE8E JUMPI DUP2 PUSH4 0xA2440FD5 EQ PUSH2 0xDDD JUMPI DUP2 PUSH4 0xAED4AAB6 EQ PUSH2 0xCEA JUMPI DUP2 PUSH4 0xB40B5E82 EQ PUSH2 0xCB1 JUMPI DUP2 PUSH4 0xBC197C81 EQ PUSH2 0xC28 JUMPI DUP2 PUSH4 0xBCB7130D EQ PUSH2 0x9A5 JUMPI DUP2 PUSH4 0xC0C53B8B EQ PUSH2 0x764 JUMPI DUP2 PUSH4 0xC45F497E EQ PUSH2 0x6FC JUMPI DUP2 PUSH4 0xD70A0ABC EQ PUSH2 0x314 JUMPI DUP2 PUSH4 0xDF5AFD2A EQ PUSH2 0x2EB JUMPI DUP2 PUSH4 0xE9CBD822 EQ PUSH2 0x2C2 JUMPI DUP2 PUSH4 0xF23A6E61 EQ PUSH2 0x269 JUMPI DUP2 PUSH4 0xF2FDE38B EQ PUSH2 0x20F JUMPI POP DUP1 PUSH4 0xF3BAA17F EQ PUSH2 0x1F1 JUMPI PUSH4 0xFCD9B139 EQ PUSH2 0x1C2 JUMPI DUP1 PUSH2 0x12 JUMP JUMPDEST CALLVALUE PUSH2 0x1ED JUMPI PUSH1 0x20 CALLDATASIZE PUSH1 0x3 NOT ADD SLT PUSH2 0x1ED JUMPI PUSH1 0x20 SWAP1 PUSH2 0x1E6 PUSH2 0x1E1 PUSH2 0x2127 JUMP JUMPDEST PUSH2 0x2D37 JUMP JUMPDEST SWAP1 MLOAD SWAP1 DUP2 MSTORE RETURN JUMPDEST POP DUP1 REVERT JUMPDEST POP CALLVALUE PUSH2 0x1ED JUMPI DUP2 PUSH1 0x3 NOT CALLDATASIZE ADD SLT PUSH2 0x1ED JUMPI PUSH1 0x20 SWAP1 PUSH1 0x6 SLOAD SWAP1 MLOAD SWAP1 DUP2 MSTORE RETURN JUMPDEST SWAP1 POP CALLVALUE PUSH2 0x265 JUMPI PUSH1 0x20 CALLDATASIZE PUSH1 0x3 NOT ADD SLT PUSH2 0x265 JUMPI PUSH2 0x22A PUSH2 0x2127 JUMP JUMPDEST SWAP2 PUSH2 0x233 PUSH2 0x2371 JUMP JUMPDEST PUSH1 0x1 PUSH1 0x1 PUSH1 0xA0 SHL SUB DUP4 AND ISZERO PUSH2 0x24F JUMPI DUP4 PUSH2 0x24C DUP5 PUSH2 0x239D JUMP JUMPDEST DUP1 RETURN JUMPDEST MLOAD PUSH4 0x1E4FBDF7 PUSH1 0xE0 SHL DUP2 MSTORE SWAP1 DUP2 ADD DUP4 SWAP1 MSTORE PUSH1 0x24 SWAP1 REVERT JUMPDEST DUP3 DUP1 REVERT JUMPDEST DUP3 DUP5 CALLVALUE PUSH2 0x2BF JUMPI PUSH1 0xA0 CALLDATASIZE PUSH1 0x3 NOT ADD SLT PUSH2 0x2BF JUMPI PUSH2 0x284 PUSH2 0x2127 JUMP JUMPDEST POP PUSH2 0x28D PUSH2 0x213D JUMP JUMPDEST POP PUSH1 0x84 CALLDATALOAD SWAP1 PUSH1 0x1 PUSH1 0x1 PUSH1 0x40 SHL SUB DUP3 GT PUSH2 0x2BF JUMPI POP PUSH1 0x20 SWAP3 PUSH2 0x2B0 SWAP2 CALLDATASIZE SWAP2 ADD PUSH2 0x228E JUMP JUMPDEST POP POP MLOAD PUSH4 0xF23A6E61 PUSH1 0xE0 SHL DUP2 MSTORE RETURN JUMPDEST DUP1 REVERT JUMPDEST POP POP CALLVALUE PUSH2 0x1ED JUMPI DUP2 PUSH1 0x3 NOT CALLDATASIZE ADD SLT PUSH2 0x1ED JUMPI PUSH1 0x3 SLOAD SWAP1 MLOAD PUSH1 0x1 PUSH1 0x1 PUSH1 0xA0 SHL SUB SWAP1 SWAP2 AND DUP2 MSTORE PUSH1 0x20 SWAP1 RETURN JUMPDEST POP POP CALLVALUE PUSH2 0x1ED JUMPI DUP2 PUSH1 0x3 NOT CALLDATASIZE ADD SLT PUSH2 0x1ED JUMPI PUSH1 0x2 SLOAD SWAP1 MLOAD PUSH1 0x1 PUSH1 0x1 PUSH1 0xA0 SHL SUB SWAP1 SWAP2 AND DUP2 MSTORE PUSH1 0x20 SWAP1 RETURN JUMPDEST SWAP1 POP CALLVALUE PUSH2 0x265 JUMPI DUP2 PUSH1 0x3 NOT CALLDATASIZE ADD SLT PUSH2 0x265 JUMPI PUSH2 0x32E PUSH2 0x2127 JUMP JUMPDEST SWAP2 PUSH2 0x337 PUSH2 0x213D JUMP JUMPDEST PUSH1 0xD SLOAD PUSH1 0xFF DUP2 AND PUSH2 0x6B9 JUMPI PUSH1 0x1 PUSH1 0x1 PUSH1 0xA0 SHL SUB DUP3 DUP2 AND SWAP6 DUP7 ISZERO PUSH2 0x676 JUMPI DUP2 AND DUP1 ISZERO PUSH2 0x633 JUMPI DUP2 PUSH1 0x2 SLOAD AND SWAP1 DUP2 ISZERO PUSH2 0x5F0 JUMPI DUP3 DUP8 SLOAD AND SWAP4 DUP7 MLOAD DUP1 SWAP6 PUSH4 0x66D0EAD3 PUSH1 0xE0 SHL DUP3 MSTORE CALLER DUP11 DUP4 ADD MSTORE DUP2 PUSH1 0x24 PUSH1 0x20 SWAP9 DUP10 SWAP4 GAS STATICCALL SWAP1 DUP2 ISZERO PUSH2 0x5E6 JUMPI DUP12 SWAP2 PUSH2 0x5C9 JUMPI JUMPDEST POP ISZERO PUSH2 0x58E JUMPI PUSH1 0xFF NOT AND PUSH1 0x1 OR PUSH1 0xD SSTORE DUP9 SWAP5 SWAP4 SWAP3 SWAP2 SWAP1 DUP2 EXTCODESIZE ISZERO PUSH2 0x58A JUMPI DUP6 SWAP2 PUSH1 0x44 DUP4 SWAP3 DUP10 MLOAD SWAP5 DUP6 SWAP4 DUP5 SWAP3 PUSH4 0x35C282AF PUSH1 0xE2 SHL DUP5 MSTORE DUP14 DUP5 ADD MSTORE DUP14 PUSH1 0x24 DUP5 ADD MSTORE GAS CALL DUP1 ISZERO PUSH2 0x568 JUMPI SWAP1 DUP6 SWAP2 PUSH2 0x572 JUMPI JUMPDEST POP POP PUSH1 0x3 SLOAD DUP6 MLOAD PUSH4 0x70A08231 PUSH1 0xE0 SHL DUP2 MSTORE ADDRESS DUP9 DUP3 ADD MSTORE SWAP2 AND DUP3 DUP3 PUSH1 0x24 DUP2 DUP5 GAS STATICCALL SWAP2 DUP3 ISZERO PUSH2 0x568 JUMPI DUP6 SWAP3 PUSH2 0x531 JUMPI JUMPDEST POP DUP2 PUSH2 0x4B2 JUMPI JUMPDEST POP POP POP SELFBALANCE DUP1 PUSH2 0x44E JUMPI JUMPDEST DUP3 DUP7 PUSH32 0x63A3A6504840FCE1914D082B35C1578E92684E2412633097B92ACCE038D2B1EE DUP3 DUP1 LOG2 DUP1 RETURN JUMPDEST DUP3 DUP1 SWAP3 SWAP2 DUP2 SWAP3 GAS CALL PUSH2 0x45E PUSH2 0x2643 JUMP JUMPDEST POP ISZERO PUSH2 0x46C JUMPI DUP4 DUP2 DUP1 PUSH2 0x425 JUMP JUMPDEST PUSH2 0x4AE SWAP3 POP MLOAD SWAP2 DUP3 SWAP2 PUSH3 0x461BCD PUSH1 0xE5 SHL DUP4 MSTORE DUP3 ADD PUSH1 0x60 SWAP1 PUSH1 0x20 DUP2 MSTORE PUSH1 0x13 PUSH1 0x20 DUP3 ADD MSTORE PUSH19 0x115512081D1C985B9CD9995C8819985A5B1959 PUSH1 0x6A SHL PUSH1 0x40 DUP3 ADD MSTORE ADD SWAP1 JUMP JUMPDEST SUB SWAP1 REVERT JUMPDEST DUP6 MLOAD PUSH4 0xA9059CBB PUSH1 0xE0 SHL DUP2 MSTORE PUSH1 0x1 PUSH1 0x1 PUSH1 0xA0 SHL SUB DUP6 AND DUP2 DUP10 ADD SWAP1 DUP2 MSTORE PUSH1 0x20 DUP2 ADD SWAP4 SWAP1 SWAP4 MSTORE SWAP2 DUP4 SWAP2 DUP4 SWAP2 DUP3 SWAP1 DUP9 SWAP1 DUP3 SWAP1 PUSH1 0x40 ADD SUB SWAP3 GAS CALL DUP1 ISZERO PUSH2 0x527 JUMPI PUSH2 0x4F9 JUMPI JUMPDEST DUP1 PUSH2 0x41B JUMP JUMPDEST DUP2 PUSH2 0x518 SWAP3 SWAP1 RETURNDATASIZE LT PUSH2 0x520 JUMPI JUMPDEST PUSH2 0x510 DUP2 DUP4 PUSH2 0x2335 JUMP JUMPDEST DUP2 ADD SWAP1 PUSH2 0x2453 JUMP JUMPDEST POP CODESIZE DUP1 PUSH2 0x4F3 JUMP JUMPDEST POP RETURNDATASIZE PUSH2 0x506 JUMP JUMPDEST DUP6 MLOAD RETURNDATASIZE DUP7 DUP3 RETURNDATACOPY RETURNDATASIZE SWAP1 REVERT JUMPDEST SWAP5 POP SWAP1 POP DUP2 DUP5 DUP2 RETURNDATASIZE DUP2 GT PUSH2 0x561 JUMPI JUMPDEST PUSH2 0x54A DUP2 DUP4 PUSH2 0x2335 JUMP JUMPDEST DUP2 ADD SUB SLT PUSH2 0x55C JUMPI DUP8 SWAP4 MLOAD SWAP1 CODESIZE PUSH2 0x414 JUMP JUMPDEST PUSH1 0x0 DUP1 REVERT JUMPDEST POP RETURNDATASIZE PUSH2 0x540 JUMP JUMPDEST DUP7 MLOAD RETURNDATASIZE DUP8 DUP3 RETURNDATACOPY RETURNDATASIZE SWAP1 REVERT JUMPDEST PUSH2 0x57B SWAP1 PUSH2 0x22EC JUMP JUMPDEST PUSH2 0x586 JUMPI DUP4 CODESIZE PUSH2 0x3E6 JUMP JUMPDEST DUP4 DUP1 REVERT JUMPDEST DUP6 DUP1 REVERT JUMPDEST DUP7 MLOAD PUSH3 0x461BCD PUSH1 0xE5 SHL DUP2 MSTORE DUP1 DUP10 ADD DUP7 SWAP1 MSTORE PUSH1 0x15 PUSH1 0x24 DUP3 ADD MSTORE PUSH21 0x10D85B1B195C881B9BDD08185D5D1A1BDC9A5E9959 PUSH1 0x5A SHL PUSH1 0x44 DUP3 ADD MSTORE PUSH1 0x64 SWAP1 REVERT JUMPDEST PUSH2 0x5E0 SWAP2 POP DUP7 RETURNDATASIZE DUP9 GT PUSH2 0x520 JUMPI PUSH2 0x510 DUP2 DUP4 PUSH2 0x2335 JUMP JUMPDEST CODESIZE PUSH2 0x398 JUMP JUMPDEST DUP9 MLOAD RETURNDATASIZE DUP14 DUP3 RETURNDATACOPY RETURNDATASIZE SWAP1 REVERT JUMPDEST DUP6 MLOAD PUSH3 0x461BCD PUSH1 0xE5 SHL DUP2 MSTORE PUSH1 0x20 DUP2 DUP10 ADD MSTORE PUSH1 0x19 PUSH1 0x24 DUP3 ADD MSTORE PUSH32 0x5753546F6B656E4D616E6167656D656E74206E6F742073657400000000000000 PUSH1 0x44 DUP3 ADD MSTORE PUSH1 0x64 SWAP1 REVERT JUMPDEST DUP5 MLOAD PUSH3 0x461BCD PUSH1 0xE5 SHL DUP2 MSTORE PUSH1 0x20 DUP2 DUP9 ADD MSTORE PUSH1 0x18 PUSH1 0x24 DUP3 ADD MSTORE PUSH32 0x496E76616C6964206D6574616461746120616464726573730000000000000000 PUSH1 0x44 DUP3 ADD MSTORE PUSH1 0x64 SWAP1 REVERT JUMPDEST DUP5 MLOAD PUSH3 0x461BCD PUSH1 0xE5 SHL DUP2 MSTORE PUSH1 0x20 DUP2 DUP9 ADD DUP2 SWAP1 MSTORE PUSH1 0x24 DUP3 ADD MSTORE PUSH32 0x496E76616C6964206E6577207772617070656420736F6E672061646472657373 PUSH1 0x44 DUP3 ADD MSTORE PUSH1 0x64 SWAP1 REVERT JUMPDEST DUP3 MLOAD PUSH3 0x461BCD PUSH1 0xE5 SHL DUP2 MSTORE PUSH1 0x20 DUP2 DUP7 ADD MSTORE PUSH1 0x19 PUSH1 0x24 DUP3 ADD MSTORE PUSH32 0x436F6E747261637420616C7265616479206D6967726174656400000000000000 PUSH1 0x44 DUP3 ADD MSTORE PUSH1 0x64 SWAP1 REVERT JUMPDEST POP POP CALLVALUE PUSH2 0x1ED JUMPI PUSH1 0x20 CALLDATASIZE PUSH1 0x3 NOT ADD SLT PUSH2 0x1ED JUMPI DUP1 SWAP2 PUSH2 0x719 PUSH2 0x2127 JUMP JUMPDEST DUP2 PUSH1 0x20 DUP5 MLOAD PUSH2 0x727 DUP2 PUSH2 0x22FF JUMP JUMPDEST DUP3 DUP2 MSTORE ADD MSTORE PUSH1 0x1 DUP1 PUSH1 0xA0 SHL SUB AND DUP2 MSTORE PUSH1 0xA PUSH1 0x20 MSTORE KECCAK256 PUSH1 0x1 DUP2 SLOAD SWAP2 ADD SLOAD PUSH1 0x20 DUP4 MLOAD PUSH2 0x750 DUP2 PUSH2 0x22FF JUMP JUMPDEST DUP4 DUP2 MSTORE ADD SWAP1 DUP2 MSTORE DUP3 MLOAD SWAP2 DUP3 MSTORE MLOAD PUSH1 0x20 DUP3 ADD MSTORE RETURN JUMPDEST SWAP1 POP CALLVALUE PUSH2 0x265 JUMPI PUSH1 0x60 CALLDATASIZE PUSH1 0x3 NOT ADD SLT PUSH2 0x265 JUMPI PUSH2 0x77F PUSH2 0x2127 JUMP JUMPDEST PUSH2 0x787 PUSH2 0x213D JUMP JUMPDEST PUSH1 0x1 PUSH1 0x1 PUSH1 0xA0 SHL SUB SWAP1 PUSH1 0x44 CALLDATALOAD DUP3 DUP2 AND SWAP2 SWAP1 DUP3 SWAP1 SUB PUSH2 0x55C JUMPI PUSH32 0xF0C57E16840DF040F15088DC2F81FE391C3923BEC73E23A9662EFC9C229C6A00 SWAP5 DUP6 SLOAD SWAP5 PUSH1 0xFF DUP7 DUP10 SHR AND ISZERO SWAP6 PUSH1 0x1 PUSH1 0x1 PUSH1 0x40 SHL SUB DUP2 AND DUP1 ISZERO SWAP1 DUP2 PUSH2 0x99D JUMPI JUMPDEST PUSH1 0x1 EQ SWAP1 DUP2 PUSH2 0x993 JUMPI JUMPDEST ISZERO SWAP1 DUP2 PUSH2 0x98A JUMPI JUMPDEST POP PUSH2 0x97A JUMPI PUSH8 0xFFFFFFFFFFFFFFFF NOT DUP2 AND PUSH1 0x1 OR DUP9 SSTORE DUP7 PUSH2 0x95B JUMPI JUMPDEST POP DUP4 ISZERO PUSH2 0x918 JUMPI DUP5 AND SWAP4 DUP5 ISZERO PUSH2 0x8D5 JUMPI DUP3 AND ISZERO PUSH2 0x89A JUMPI DUP1 SLOAD PUSH1 0x1 PUSH1 0x1 PUSH1 0xA0 SHL SUB NOT SWAP1 DUP2 AND SWAP1 SWAP4 OR SWAP1 SSTORE PUSH2 0x840 SWAP1 PUSH2 0x239D JUMP JUMPDEST PUSH1 0x3 SLOAD AND OR PUSH1 0x3 SSTORE DUP4 PUSH1 0x7 SSTORE PUSH1 0x1 PUSH1 0x6 SSTORE PUSH2 0x859 JUMPI DUP3 DUP1 RETURN JUMPDEST DUP1 SLOAD PUSH9 0xFF0000000000000000 NOT AND SWAP1 SSTORE MLOAD PUSH1 0x1 DUP2 MSTORE PUSH32 0xC7F505B2F371AE2175EE4913F4499E1F2633A7B5936321EED1CDAEB6115181D2 SWAP1 PUSH1 0x20 SWAP1 LOG1 CODESIZE DUP1 DUP3 DUP1 RETURN JUMPDEST PUSH1 0x64 SWAP1 PUSH1 0x20 DUP9 MLOAD SWAP2 PUSH3 0x461BCD PUSH1 0xE5 SHL DUP4 MSTORE DUP3 ADD MSTORE PUSH1 0x15 PUSH1 0x24 DUP3 ADD MSTORE PUSH21 0x496E76616C6964206F776E65722061646472657373 PUSH1 0x58 SHL PUSH1 0x44 DUP3 ADD MSTORE REVERT JUMPDEST DUP8 MLOAD PUSH3 0x461BCD PUSH1 0xE5 SHL DUP2 MSTORE PUSH1 0x20 DUP2 DUP5 ADD MSTORE PUSH1 0x1A PUSH1 0x24 DUP3 ADD MSTORE PUSH32 0x496E76616C696420737461626C65636F696E2061646472657373000000000000 PUSH1 0x44 DUP3 ADD MSTORE PUSH1 0x64 SWAP1 REVERT JUMPDEST DUP8 MLOAD PUSH3 0x461BCD PUSH1 0xE5 SHL DUP2 MSTORE PUSH1 0x20 DUP2 DUP5 ADD MSTORE PUSH1 0x1F PUSH1 0x24 DUP3 ADD MSTORE PUSH32 0x496E76616C69642070726F746F636F6C206D6F64756C65206164647265737300 PUSH1 0x44 DUP3 ADD MSTORE PUSH1 0x64 SWAP1 REVERT JUMPDEST PUSH9 0xFFFFFFFFFFFFFFFFFF NOT AND PUSH9 0x10000000000000001 OR DUP8 SSTORE CODESIZE PUSH2 0x80D JUMP JUMPDEST DUP9 MLOAD PUSH4 0xF92EE8A9 PUSH1 0xE0 SHL DUP2 MSTORE DUP4 SWAP1 REVERT JUMPDEST SWAP1 POP ISZERO CODESIZE PUSH2 0x7F1 JUMP JUMPDEST ADDRESS EXTCODESIZE ISZERO SWAP2 POP PUSH2 0x7E9 JUMP JUMPDEST DUP9 SWAP2 POP PUSH2 0x7DF JUMP JUMPDEST DUP4 DUP4 CALLVALUE PUSH2 0x1ED JUMPI PUSH1 0x20 SWAP3 DUP4 PUSH1 0x3 NOT CALLDATASIZE ADD SLT PUSH2 0x265 JUMPI DUP1 CALLDATALOAD PUSH1 0x1 PUSH1 0x1 PUSH1 0x40 SHL SUB DUP2 GT PUSH2 0x586 JUMPI CALLDATASIZE PUSH1 0x23 DUP3 ADD SLT ISZERO PUSH2 0x586 JUMPI DUP1 DUP3 ADD CALLDATALOAD SWAP2 PUSH2 0x9E3 DUP4 PUSH2 0x2356 JUMP JUMPDEST SWAP3 PUSH2 0x9F0 DUP6 MLOAD SWAP5 DUP6 PUSH2 0x2335 JUMP JUMPDEST DUP1 DUP5 MSTORE PUSH1 0x24 SWAP3 CALLDATASIZE DUP5 DUP4 DUP4 ADD ADD GT PUSH2 0xC1D JUMPI DUP2 DUP8 SWAP3 DUP6 DUP11 SWAP4 ADD DUP4 DUP9 ADD CALLDATACOPY DUP6 ADD ADD MSTORE DUP5 SLOAD PUSH1 0x1 PUSH1 0x1 PUSH1 0xA0 SHL SUB SWAP1 DUP2 AND CALLER EQ DUP1 ISZERO PUSH2 0xBB2 JUMPI JUMPDEST ISZERO PUSH2 0xB59 JUMPI PUSH1 0x2 SLOAD AND SWAP1 DUP5 MLOAD PUSH4 0xBD85B039 PUSH1 0xE0 SHL DUP2 MSTORE PUSH1 0x3 DUP3 DUP3 ADD MSTORE DUP8 DUP2 DUP6 DUP2 DUP7 GAS STATICCALL SWAP1 DUP2 ISZERO PUSH2 0xB4F JUMPI DUP8 SWAP2 PUSH2 0xB22 JUMPI JUMPDEST POP PUSH2 0xAD5 JUMPI SWAP1 DUP7 DUP7 DUP2 SWAP5 SWAP4 PUSH2 0xA83 DUP9 MLOAD SWAP8 DUP9 SWAP7 DUP8 SWAP6 DUP7 SWAP5 PUSH4 0xBCB7130D PUSH1 0xE0 SHL DUP7 MSTORE DUP6 ADD MSTORE DUP4 ADD SWAP1 PUSH2 0x2187 JUMP JUMPDEST SUB SWAP3 GAS CALL SWAP3 DUP4 ISZERO PUSH2 0xACA JUMPI SWAP3 PUSH2 0xA9B JUMPI JUMPDEST POP MLOAD SWAP1 DUP2 MSTORE RETURN JUMPDEST SWAP1 SWAP2 POP DUP3 DUP2 DUP2 RETURNDATASIZE DUP4 GT PUSH2 0xAC3 JUMPI JUMPDEST PUSH2 0xAB3 DUP2 DUP4 PUSH2 0x2335 JUMP JUMPDEST DUP2 ADD SUB SLT PUSH2 0x55C JUMPI MLOAD SWAP1 DUP4 PUSH2 0xA94 JUMP JUMPDEST POP RETURNDATASIZE PUSH2 0xAA9 JUMP JUMPDEST DUP3 MLOAD SWAP1 RETURNDATASIZE SWAP1 DUP3 RETURNDATACOPY RETURNDATASIZE SWAP1 REVERT JUMPDEST DUP5 MLOAD PUSH3 0x461BCD PUSH1 0xE5 SHL DUP2 MSTORE SWAP1 DUP2 ADD DUP8 SWAP1 MSTORE PUSH1 0x22 DUP2 DUP5 ADD MSTORE PUSH32 0x4C6567616C20636F6E747261637420616C726561647920696E697469616C697A PUSH1 0x44 DUP3 ADD MSTORE PUSH2 0x1959 PUSH1 0xF2 SHL PUSH1 0x64 DUP3 ADD MSTORE PUSH1 0x84 SWAP1 REVERT JUMPDEST SWAP1 POP DUP8 DUP2 DUP2 RETURNDATASIZE DUP4 GT PUSH2 0xB48 JUMPI JUMPDEST PUSH2 0xB39 DUP2 DUP4 PUSH2 0x2335 JUMP JUMPDEST DUP2 ADD SUB SLT PUSH2 0x55C JUMPI MLOAD DUP9 PUSH2 0xA57 JUMP JUMPDEST POP RETURNDATASIZE PUSH2 0xB2F JUMP JUMPDEST DUP7 MLOAD RETURNDATASIZE DUP10 DUP3 RETURNDATACOPY RETURNDATASIZE SWAP1 REVERT JUMPDEST POP PUSH1 0x2F PUSH1 0x84 SWAP3 DUP8 DUP7 MLOAD SWAP4 PUSH3 0x461BCD PUSH1 0xE5 SHL DUP6 MSTORE DUP5 ADD MSTORE DUP3 ADD MSTORE PUSH32 0x43616C6C6572206973206E6F74206F776E6572206F7220777261707065642073 PUSH1 0x44 DUP3 ADD MSTORE PUSH15 0x37B733903234B9BA3934B13ABA37B9 PUSH1 0x89 SHL PUSH1 0x64 DUP3 ADD MSTORE REVERT JUMPDEST POP DUP3 DUP8 DUP3 DUP5 SLOAD AND DUP8 MLOAD SWAP3 DUP4 DUP1 SWAP3 PUSH4 0x3AA690E7 PUSH1 0xE0 SHL DUP3 MSTORE ADDRESS DUP9 DUP4 ADD MSTORE GAS STATICCALL SWAP1 DUP2 ISZERO PUSH2 0xB4F JUMPI SWAP1 DUP3 SWAP2 DUP9 SWAP2 PUSH2 0xBEA JUMPI JUMPDEST POP AND CALLER EQ PUSH2 0xA26 JUMP JUMPDEST DUP1 SWAP3 POP DUP10 DUP1 SWAP3 POP RETURNDATASIZE DUP4 GT PUSH2 0xC21 JUMPI JUMPDEST PUSH2 0xC03 DUP2 DUP4 PUSH2 0x2335 JUMP JUMPDEST DUP2 ADD SUB SLT PUSH2 0xC1D JUMPI MLOAD DUP2 DUP2 AND DUP2 SUB PUSH2 0xC1D JUMPI DUP2 SWAP1 DUP10 PUSH2 0xBE1 JUMP JUMPDEST DUP7 DUP1 REVERT JUMPDEST POP RETURNDATASIZE PUSH2 0xBF9 JUMP JUMPDEST DUP3 DUP5 CALLVALUE PUSH2 0x2BF JUMPI PUSH1 0xA0 CALLDATASIZE PUSH1 0x3 NOT ADD SLT PUSH2 0x2BF JUMPI PUSH2 0xC43 PUSH2 0x2127 JUMP JUMPDEST POP PUSH2 0xC4C PUSH2 0x213D JUMP JUMPDEST POP PUSH1 0x1 PUSH1 0x1 PUSH1 0x40 SHL SUB SWAP1 PUSH1 0x44 CALLDATALOAD DUP3 DUP2 GT PUSH2 0x1ED JUMPI PUSH2 0xC6D SWAP1 CALLDATASIZE SWAP1 DUP7 ADD PUSH2 0x225E JUMP JUMPDEST POP POP PUSH1 0x64 CALLDATALOAD DUP3 DUP2 GT PUSH2 0x1ED JUMPI PUSH2 0xC86 SWAP1 CALLDATASIZE SWAP1 DUP7 ADD PUSH2 0x225E JUMP JUMPDEST POP POP PUSH1 0x84 CALLDATALOAD SWAP2 DUP3 GT PUSH2 0x2BF JUMPI POP PUSH1 0x20 SWAP3 PUSH2 0xCA2 SWAP2 CALLDATASIZE SWAP2 ADD PUSH2 0x228E JUMP JUMPDEST POP POP MLOAD PUSH4 0xBC197C81 PUSH1 0xE0 SHL DUP2 MSTORE RETURN JUMPDEST POP POP CALLVALUE PUSH2 0x1ED JUMPI PUSH1 0x20 CALLDATASIZE PUSH1 0x3 NOT ADD SLT PUSH2 0x1ED JUMPI PUSH2 0xCE6 SWAP1 PUSH2 0xCD8 PUSH2 0xCD3 PUSH2 0x2127 JUMP JUMPDEST PUSH2 0x29E6 JUMP JUMPDEST SWAP2 SWAP5 SWAP3 SWAP4 MLOAD SWAP5 DUP6 SWAP5 DUP6 PUSH2 0x21C7 JUMP JUMPDEST SUB SWAP1 RETURN JUMPDEST SWAP1 POP CALLVALUE PUSH2 0x265 JUMPI DUP2 PUSH1 0x3 NOT CALLDATASIZE ADD SLT PUSH2 0x265 JUMPI PUSH2 0xD04 PUSH2 0x2127 JUMP JUMPDEST PUSH1 0x24 CALLDATALOAD SWAP2 PUSH2 0xD17 PUSH1 0xFF PUSH1 0xD SLOAD AND ISZERO PUSH2 0x2407 JUMP JUMPDEST PUSH1 0x3 SLOAD PUSH1 0x1 PUSH1 0x1 PUSH1 0xA0 SHL SUB SWAP3 DUP4 AND SWAP3 AND DUP3 SUB PUSH2 0xDAA JUMPI DUP5 SWAP2 PUSH1 0x64 PUSH1 0x20 SWAP3 DUP7 MLOAD SWAP5 DUP6 SWAP4 DUP5 SWAP3 PUSH4 0x23B872DD PUSH1 0xE0 SHL DUP5 MSTORE CALLER SWAP1 DUP5 ADD MSTORE ADDRESS PUSH1 0x24 DUP5 ADD MSTORE DUP8 PUSH1 0x44 DUP5 ADD MSTORE GAS CALL SWAP3 DUP4 ISZERO PUSH2 0xDA1 JUMPI POP PUSH2 0xD7D SWAP3 PUSH2 0xD75 SWAP2 DUP6 SWAP2 PUSH2 0xD83 JUMPI JUMPDEST POP PUSH2 0x246B JUMP JUMPDEST PUSH1 0x9 SLOAD PUSH2 0x23E4 JUMP JUMPDEST PUSH1 0x9 SSTORE DUP1 RETURN JUMPDEST PUSH2 0xD9B SWAP2 POP PUSH1 0x20 RETURNDATASIZE DUP2 GT PUSH2 0x520 JUMPI PUSH2 0x510 DUP2 DUP4 PUSH2 0x2335 JUMP JUMPDEST CODESIZE PUSH2 0xD6F JUMP JUMPDEST MLOAD RETURNDATASIZE DUP6 DUP3 RETURNDATACOPY RETURNDATASIZE SWAP1 REVERT JUMPDEST PUSH1 0x64 SWAP1 PUSH1 0x20 DUP6 MLOAD SWAP2 PUSH3 0x461BCD PUSH1 0xE5 SHL DUP4 MSTORE DUP3 ADD MSTORE PUSH1 0xD PUSH1 0x24 DUP3 ADD MSTORE PUSH13 0x24B73B30B634B2103A37B5B2B7 PUSH1 0x99 SHL PUSH1 0x44 DUP3 ADD MSTORE REVERT JUMPDEST SWAP2 SWAP1 POP CALLVALUE PUSH2 0x265 JUMPI PUSH1 0x20 CALLDATASIZE PUSH1 0x3 NOT ADD SLT PUSH2 0x265 JUMPI PUSH2 0xCE6 SWAP3 POP PUSH2 0xDFE PUSH2 0x2EB7 JUMP JUMPDEST POP PUSH2 0xE09 DUP3 CALLDATALOAD PUSH2 0x2590 JUMP JUMPDEST POP DUP1 SLOAD SWAP3 PUSH1 0x1 DUP3 ADD SLOAD SWAP2 PUSH1 0x2 DUP2 ADD SLOAD SWAP1 PUSH1 0x3 DUP2 ADD SLOAD SWAP3 PUSH1 0x1 DUP1 PUSH1 0xA0 SHL SUB SWAP2 ADD SLOAD AND SWAP3 DUP5 MLOAD SWAP6 PUSH2 0xE37 DUP8 PUSH2 0x22BB JUMP JUMPDEST DUP7 MSTORE PUSH1 0x20 DUP7 ADD MSTORE DUP4 DUP6 ADD MSTORE PUSH1 0x60 DUP5 ADD MSTORE PUSH1 0x80 DUP4 ADD MSTORE MLOAD SWAP2 DUP3 SWAP2 DUP3 SWAP2 SWAP1 SWAP2 PUSH1 0x80 PUSH1 0xA0 DUP3 ADD SWAP4 DUP1 MLOAD DUP4 MSTORE PUSH1 0x20 DUP2 ADD MLOAD PUSH1 0x20 DUP5 ADD MSTORE PUSH1 0x40 DUP2 ADD MLOAD PUSH1 0x40 DUP5 ADD MSTORE PUSH1 0x60 DUP2 ADD MLOAD PUSH1 0x60 DUP5 ADD MSTORE DUP2 PUSH1 0x1 DUP1 PUSH1 0xA0 SHL SUB SWAP2 ADD MLOAD AND SWAP2 ADD MSTORE JUMP JUMPDEST DUP4 SWAP2 POP CALLVALUE PUSH2 0x1ED JUMPI DUP3 PUSH1 0x3 NOT CALLDATASIZE ADD SLT PUSH2 0x1ED JUMPI PUSH2 0xEA9 PUSH2 0x213D JUMP JUMPDEST SWAP3 PUSH2 0xEB2 PUSH2 0x2371 JUMP JUMPDEST PUSH1 0x1 DUP1 PUSH1 0xA0 SHL SUB SWAP2 DUP3 PUSH1 0x2 SLOAD AND SWAP5 DUP3 MLOAD PUSH4 0xBD85B039 PUSH1 0xE0 SHL DUP2 MSTORE PUSH1 0x2 DUP4 DUP3 ADD MSTORE PUSH1 0x20 SWAP1 DUP2 DUP2 PUSH1 0x24 DUP2 DUP12 GAS STATICCALL SWAP1 DUP2 ISZERO PUSH2 0xFB5 JUMPI DUP8 SWAP2 PUSH2 0xF88 JUMPI JUMPDEST POP PUSH2 0xF47 JUMPI POP DUP6 DUP6 SWAP7 EXTCODESIZE ISZERO PUSH2 0x58A JUMPI DUP6 SWAP3 DUP4 PUSH1 0x44 SWAP3 DUP7 MLOAD SWAP8 DUP9 SWAP6 DUP7 SWAP5 PUSH4 0x9D3BC4BD PUSH1 0xE0 SHL DUP7 MSTORE DUP1 CALLDATALOAD SWAP1 DUP7 ADD MSTORE AND PUSH1 0x24 DUP5 ADD MSTORE GAS CALL SWAP1 DUP2 ISZERO PUSH2 0xF3E JUMPI POP PUSH2 0xF2E JUMPI POP RETURN JUMPDEST PUSH2 0xF37 SWAP1 PUSH2 0x22EC JUMP JUMPDEST PUSH2 0x2BF JUMPI DUP1 RETURN JUMPDEST MLOAD RETURNDATASIZE DUP5 DUP3 RETURNDATACOPY RETURNDATASIZE SWAP1 REVERT JUMPDEST DUP1 SWAP2 POP PUSH1 0x64 SWAP4 MLOAD SWAP3 PUSH3 0x461BCD PUSH1 0xE5 SHL DUP5 MSTORE DUP4 ADD MSTORE PUSH1 0x24 DUP3 ADD MSTORE PUSH32 0x4275796F757420746F6B656E20616C726561647920696E697469616C697A6564 PUSH1 0x44 DUP3 ADD MSTORE REVERT JUMPDEST SWAP1 POP DUP2 DUP2 DUP2 RETURNDATASIZE DUP4 GT PUSH2 0xFAE JUMPI JUMPDEST PUSH2 0xF9F DUP2 DUP4 PUSH2 0x2335 JUMP JUMPDEST DUP2 ADD SUB SLT PUSH2 0x55C JUMPI MLOAD DUP9 PUSH2 0xEEB JUMP JUMPDEST POP RETURNDATASIZE PUSH2 0xF95 JUMP JUMPDEST DUP6 MLOAD RETURNDATASIZE DUP10 DUP3 RETURNDATACOPY RETURNDATASIZE SWAP1 REVERT JUMPDEST POP POP CALLVALUE PUSH2 0x1ED JUMPI DUP2 PUSH1 0x3 NOT CALLDATASIZE ADD SLT PUSH2 0x1ED JUMPI SWAP1 SLOAD SWAP1 MLOAD PUSH1 0x1 PUSH1 0x1 PUSH1 0xA0 SHL SUB SWAP1 SWAP2 AND DUP2 MSTORE PUSH1 0x20 SWAP1 RETURN JUMPDEST SWAP2 SWAP1 POP CALLVALUE PUSH2 0x265 JUMPI DUP3 PUSH1 0x3 NOT CALLDATASIZE ADD SLT PUSH2 0x265 JUMPI PUSH2 0x1009 PUSH1 0xFF PUSH1 0xD SLOAD AND ISZERO PUSH2 0x2407 JUMP JUMPDEST PUSH1 0x8 SLOAD SWAP1 DUP2 ISZERO PUSH2 0x11CD JUMPI PUSH1 0x1 DUP1 PUSH1 0xA0 SHL SUB DUP1 PUSH1 0x2 SLOAD AND PUSH1 0x6 SLOAD DUP4 MLOAD SWAP2 DUP3 SWAP2 PUSH4 0xBD85B039 PUSH1 0xE0 SHL DUP4 MSTORE DUP8 DUP4 ADD MSTORE DUP2 PUSH1 0x24 PUSH1 0x20 SWAP5 DUP6 SWAP4 GAS STATICCALL SWAP1 DUP2 ISZERO PUSH2 0x11C3 JUMPI DUP8 SWAP2 PUSH2 0x1196 JUMPI JUMPDEST POP PUSH2 0x1059 DUP2 ISZERO ISZERO PUSH2 0x2E79 JUMP JUMPDEST PUSH8 0xDE0B6B3A7640000 DUP6 MUL PUSH8 0xDE0B6B3A763FFFF NOT DUP7 DUP3 DIV ADD PUSH2 0x1183 JUMPI SWAP1 PUSH2 0x1080 SWAP2 PUSH2 0x2623 JUMP JUMPDEST SWAP2 PUSH1 0xB SLOAD SWAP1 DUP5 MLOAD PUSH2 0x1090 DUP2 PUSH2 0x22BB JUMP JUMPDEST DUP3 DUP2 MSTORE DUP4 DUP2 ADD DUP8 DUP2 MSTORE DUP7 DUP3 ADD DUP7 DUP2 MSTORE PUSH1 0x60 DUP4 ADD SWAP2 TIMESTAMP DUP4 MSTORE PUSH1 0x80 DUP5 ADD SWAP6 CALLER DUP8 MSTORE PUSH1 0x1 PUSH1 0x40 SHL DUP2 LT ISZERO PUSH2 0x116E JUMPI DUP1 PUSH1 0x1 PUSH2 0x10CB SWAP3 ADD PUSH1 0xB SSTORE PUSH2 0x2590 JUMP JUMPDEST SWAP5 SWAP1 SWAP5 PUSH2 0x115A JUMPI MLOAD DUP5 SSTORE MLOAD PUSH1 0x1 DUP5 ADD SSTORE MLOAD PUSH1 0x2 DUP4 ADD SSTORE MLOAD PUSH1 0x3 DUP3 ADD SSTORE SWAP2 MLOAD SWAP2 DUP8 ADD DUP1 SLOAD PUSH1 0x1 PUSH1 0x1 PUSH1 0xA0 SHL SUB NOT AND SWAP2 SWAP1 SWAP3 AND OR SWAP1 SSTORE PUSH1 0xB SLOAD PUSH1 0x0 NOT DUP2 ADD SWAP6 SWAP1 DUP7 GT PUSH2 0x1147 JUMPI POP DUP3 MLOAD SWAP4 DUP5 MSTORE DUP4 ADD MSTORE PUSH1 0x1 SWAP1 DUP3 ADD MSTORE PUSH32 0x77841C1AE75DE1A1C173CB7FFD7F1DC25D09ACA1E636B17A232B67072624BAB8 SWAP1 PUSH1 0x60 SWAP1 LOG2 DUP1 RETURN JUMPDEST PUSH4 0x4E487B71 PUSH1 0xE0 SHL DUP8 MSTORE PUSH1 0x11 SWAP1 MSTORE PUSH1 0x24 DUP7 REVERT JUMPDEST PUSH1 0x0 DUP13 PUSH4 0x4E487B71 PUSH1 0xE0 SHL DUP3 MSTORE MSTORE PUSH1 0x24 PUSH1 0x0 REVERT JUMPDEST PUSH1 0x41 DUP13 PUSH4 0x4E487B71 PUSH1 0xE0 SHL PUSH1 0x0 MSTORE MSTORE PUSH1 0x24 PUSH1 0x0 REVERT JUMPDEST PUSH4 0x4E487B71 PUSH1 0xE0 SHL DUP9 MSTORE PUSH1 0x11 DUP8 MSTORE PUSH1 0x24 DUP9 REVERT JUMPDEST SWAP1 POP DUP2 DUP2 DUP2 RETURNDATASIZE DUP4 GT PUSH2 0x11BC JUMPI JUMPDEST PUSH2 0x11AD DUP2 DUP4 PUSH2 0x2335 JUMP JUMPDEST DUP2 ADD SUB SLT PUSH2 0x55C JUMPI MLOAD CODESIZE PUSH2 0x104D JUMP JUMPDEST POP RETURNDATASIZE PUSH2 0x11A3 JUMP JUMPDEST DUP5 MLOAD RETURNDATASIZE DUP10 DUP3 RETURNDATACOPY RETURNDATASIZE SWAP1 REVERT JUMPDEST MLOAD PUSH3 0x461BCD PUSH1 0xE5 SHL DUP2 MSTORE PUSH1 0x20 DUP2 DUP5 ADD MSTORE PUSH1 0x14 PUSH1 0x24 DUP3 ADD MSTORE PUSH20 0x4E6F2045544820746F2064697374726962757465 PUSH1 0x60 SHL PUSH1 0x44 DUP3 ADD MSTORE PUSH1 0x64 SWAP1 REVERT JUMPDEST SWAP2 SWAP1 POP CALLVALUE PUSH2 0x265 JUMPI PUSH1 0x20 CALLDATASIZE PUSH1 0x3 NOT ADD SLT PUSH2 0x265 JUMPI PUSH2 0x1222 PUSH2 0x2127 JUMP JUMPDEST PUSH1 0x2 SLOAD SWAP3 PUSH1 0x1 PUSH1 0x1 PUSH1 0xA0 SHL SUB SWAP3 DUP4 DUP6 AND PUSH2 0x1252 JUMPI POP POP AND SWAP1 PUSH12 0xFFFFFFFFFFFFFFFFFFFFFFFF PUSH1 0xA0 SHL AND OR PUSH1 0x2 SSTORE DUP1 RETURN JUMPDEST SWAP1 PUSH1 0x20 PUSH1 0x64 SWAP3 MLOAD SWAP2 PUSH3 0x461BCD PUSH1 0xE5 SHL DUP4 MSTORE DUP3 ADD MSTORE PUSH1 0x13 PUSH1 0x24 DUP3 ADD MSTORE PUSH19 0x15D4D51BDAD95B88185B1C9958591E481CD95D PUSH1 0x6A SHL PUSH1 0x44 DUP3 ADD MSTORE REVERT JUMPDEST DUP4 CALLVALUE PUSH2 0x2BF JUMPI DUP1 PUSH1 0x3 NOT CALLDATASIZE ADD SLT PUSH2 0x2BF JUMPI PUSH2 0x12A4 PUSH2 0x2371 JUMP JUMPDEST PUSH1 0x0 DUP1 SLOAD PUSH1 0x1 PUSH1 0x1 PUSH1 0xA0 SHL SUB NOT DUP2 AND DUP3 SSTORE PUSH1 0x1 PUSH1 0x1 PUSH1 0xA0 SHL SUB AND PUSH32 0x8BE0079C531659141344CD1FD0A4F28419497F9722A3DAAFE3B4186F6B6457E0 DUP3 DUP1 LOG3 DUP1 RETURN JUMPDEST SWAP2 SWAP1 POP CALLVALUE PUSH2 0x265 JUMPI PUSH1 0x20 SWAP2 DUP3 PUSH1 0x3 NOT CALLDATASIZE ADD SLT PUSH2 0x586 JUMPI DUP1 CALLDATALOAD SWAP2 PUSH2 0x1306 PUSH2 0x2673 JUMP JUMPDEST PUSH2 0x1315 PUSH1 0xFF PUSH1 0xD SLOAD AND ISZERO PUSH2 0x2407 JUMP JUMPDEST PUSH1 0x2 SLOAD PUSH1 0x6 SLOAD DUP3 MLOAD PUSH3 0x7EEAC7 PUSH1 0xE1 SHL DUP2 MSTORE CALLER DUP6 DUP3 ADD SWAP1 DUP2 MSTORE PUSH1 0x20 DUP2 ADD DUP4 SWAP1 MSTORE SWAP2 SWAP5 PUSH1 0x1 PUSH1 0x1 PUSH1 0xA0 SHL SUB SWAP1 SWAP4 AND SWAP3 SWAP2 DUP8 SWAP1 DUP3 SWAP1 DUP2 SWAP1 PUSH1 0x40 ADD SUB DUP2 DUP7 GAS STATICCALL SWAP1 DUP2 ISZERO PUSH2 0x17B9 JUMPI DUP9 SWAP2 PUSH2 0x17D6 JUMPI JUMPDEST POP ISZERO DUP1 ISZERO SWAP1 PUSH2 0x1736 JUMPI JUMPDEST PUSH2 0x1372 SWAP1 PUSH2 0x24B6 JUMP JUMPDEST CALLER DUP8 MSTORE PUSH1 0xA DUP7 MSTORE PUSH1 0x1 SWAP6 DUP7 DUP5 DUP10 KECCAK256 ADD SWAP1 DUP8 DUP3 SLOAD SWAP8 DUP9 PUSH1 0xB SLOAD PUSH2 0x1395 DUP3 DUP3 GT PUSH2 0x24F4 JUMP JUMPDEST DUP3 ISZERO PUSH2 0x1710 JUMPI SWAP1 PUSH2 0x13A5 SWAP2 PUSH2 0x24A9 JUMP JUMPDEST DUP1 DUP3 LT ISZERO PUSH2 0x1709 JUMPI POP JUMPDEST SWAP5 SWAP1 POP JUMPDEST DUP10 SWAP7 DUP9 DUP11 JUMPDEST PUSH2 0x1520 JUMPI JUMPDEST POP POP POP DUP6 ISZERO PUSH2 0x14DE JUMPI PUSH1 0x8 SLOAD DUP7 GT PUSH2 0x149C JUMPI POP PUSH2 0x13DA DUP4 DUP8 PUSH2 0x23E4 JUMP JUMPDEST SWAP1 SSTORE PUSH2 0x13E8 DUP5 PUSH1 0x8 SLOAD PUSH2 0x24A9 JUMP JUMPDEST PUSH1 0x8 SSTORE DUP7 DUP1 DUP1 DUP1 DUP8 CALLER GAS CALL PUSH2 0x13FB PUSH2 0x2643 JUMP JUMPDEST POP ISZERO PUSH2 0x145A JUMPI POP SWAP2 PUSH32 0x33508FA3C05F271D76112F2A1C190707F316B34540511262F6D62BFF50A02854 SWAP2 PUSH2 0x1452 PUSH2 0x1434 DUP7 SWAP6 DUP10 SWAP8 PUSH2 0x23E4 JUMP JUMPDEST SWAP2 MLOAD SWAP3 DUP4 SWAP3 CALLER SWAP7 DUP5 PUSH1 0x40 SWAP2 SWAP5 SWAP4 SWAP3 PUSH1 0x60 DUP3 ADD SWAP6 DUP3 MSTORE PUSH1 0x20 DUP3 ADD MSTORE ADD MSTORE JUMP JUMPDEST SUB SWAP1 LOG3 DUP1 SSTORE DUP1 RETURN JUMPDEST PUSH2 0x4AE SWAP1 DUP4 MLOAD SWAP2 DUP3 SWAP2 PUSH3 0x461BCD PUSH1 0xE5 SHL DUP4 MSTORE DUP3 ADD PUSH1 0x60 SWAP1 PUSH1 0x20 DUP2 MSTORE PUSH1 0x13 PUSH1 0x20 DUP3 ADD MSTORE PUSH19 0x115512081D1C985B9CD9995C8819985A5B1959 PUSH1 0x6A SHL PUSH1 0x40 DUP3 ADD MSTORE ADD SWAP1 JUMP JUMPDEST DUP3 PUSH1 0x64 SWAP2 DUP7 MLOAD SWAP2 PUSH3 0x461BCD PUSH1 0xE5 SHL DUP4 MSTORE DUP3 ADD MSTORE PUSH1 0x1D PUSH1 0x24 DUP3 ADD MSTORE PUSH32 0x496E73756666696369656E7420636F6E74726163742062616C616E6365000000 PUSH1 0x44 DUP3 ADD MSTORE REVERT JUMPDEST DUP3 PUSH1 0x64 SWAP2 DUP7 MLOAD SWAP2 PUSH3 0x461BCD PUSH1 0xE5 SHL DUP4 MSTORE DUP3 ADD MSTORE PUSH1 0x18 PUSH1 0x24 DUP3 ADD MSTORE PUSH32 0x4E6F20455448206561726E696E677320746F20636C61696D0000000000000000 PUSH1 0x44 DUP3 ADD MSTORE REVERT JUMPDEST PUSH2 0x152A DUP8 DUP12 PUSH2 0x23E4 JUMP JUMPDEST DUP2 LT ISZERO PUSH2 0x1704 JUMPI PUSH2 0x1543 PUSH2 0x153D DUP3 PUSH2 0x2590 JUMP JUMPDEST POP PUSH2 0x25CB JUMP JUMPDEST PUSH1 0x60 DUP2 DUP2 ADD MLOAD DUP11 MLOAD PUSH4 0xC4DB40D PUSH1 0xE3 SHL DUP2 MSTORE CALLER DUP2 DUP12 ADD SWAP1 DUP2 MSTORE PUSH1 0x20 DUP2 ADD DUP8 SWAP1 MSTORE PUSH1 0x40 DUP2 ADD SWAP3 SWAP1 SWAP3 MSTORE DUP16 SWAP3 SWAP1 SWAP2 DUP9 SWAP2 DUP4 SWAP2 DUP3 SWAP2 ADD SUB DUP2 DUP10 GAS STATICCALL SWAP2 DUP3 ISZERO PUSH2 0x16F9 JUMPI SWAP1 DUP15 SWAP7 SWAP6 SWAP5 SWAP4 SWAP3 PUSH2 0x16C8 JUMPI JUMPDEST POP DUP1 PUSH2 0x15A8 JUMPI JUMPDEST POP POP PUSH2 0x15A0 SWAP1 PUSH2 0x2530 JUMP JUMPDEST SWAP1 SWAP2 SWAP3 PUSH2 0x13B8 JUMP JUMPDEST SWAP1 SWAP11 SWAP2 SWAP3 SWAP4 SWAP5 POP DUP10 DUP12 ADD PUSH2 0x15C7 PUSH2 0x15C0 DUP3 MLOAD DUP5 PUSH2 0x2610 JUMP JUMPDEST SWAP3 DUP4 PUSH2 0x2623 JUMP JUMPDEST SWAP1 MLOAD SUB PUSH2 0x1685 JUMPI PUSH8 0xDE0B6B3A7640000 DUP7 SWAP2 DIV SWAP11 ADD MLOAD DUP11 GT PUSH2 0x1642 JUMPI DUP10 PUSH2 0x15ED SWAP2 PUSH2 0x23E4 JUMP JUMPDEST SWAP9 DUP10 LT PUSH2 0x15FF JUMPI SWAP1 DUP11 SWAP3 SWAP2 CODESIZE DUP1 PUSH2 0x1595 JUMP JUMPDEST DUP8 MLOAD PUSH3 0x461BCD PUSH1 0xE5 SHL DUP2 MSTORE DUP1 DUP8 ADD DUP6 SWAP1 MSTORE PUSH1 0x18 PUSH1 0x24 DUP3 ADD MSTORE PUSH32 0x546F74616C20756E636C61696D6564206F766572666C6F770000000000000000 PUSH1 0x44 DUP3 ADD MSTORE PUSH1 0x64 SWAP1 REVERT JUMPDEST DUP9 MLOAD PUSH3 0x461BCD PUSH1 0xE5 SHL DUP2 MSTORE DUP1 DUP9 ADD DUP7 SWAP1 MSTORE PUSH1 0x1A PUSH1 0x24 DUP3 ADD MSTORE PUSH32 0x53686172652063616C63756C6174696F6E206F766572666C6F77000000000000 PUSH1 0x44 DUP3 ADD MSTORE PUSH1 0x64 SWAP1 REVERT JUMPDEST DUP10 MLOAD PUSH3 0x461BCD PUSH1 0xE5 SHL DUP2 MSTORE DUP1 DUP10 ADD DUP8 SWAP1 MSTORE PUSH1 0x17 PUSH1 0x24 DUP3 ADD MSTORE PUSH32 0x4D756C7469706C69636174696F6E206F766572666C6F77000000000000000000 PUSH1 0x44 DUP3 ADD MSTORE PUSH1 0x64 SWAP1 REVERT JUMPDEST DUP1 SWAP7 POP DUP8 DUP1 SWAP3 POP RETURNDATASIZE DUP4 GT PUSH2 0x16F2 JUMPI JUMPDEST PUSH2 0x16E1 DUP2 DUP4 PUSH2 0x2335 JUMP JUMPDEST DUP2 ADD SUB SLT PUSH2 0x55C JUMPI DUP13 SWAP5 MLOAD CODESIZE PUSH2 0x158E JUMP JUMPDEST POP RETURNDATASIZE PUSH2 0x16D7 JUMP JUMPDEST DUP12 MLOAD SWAP1 RETURNDATASIZE SWAP1 DUP3 RETURNDATACOPY RETURNDATASIZE SWAP1 REVERT JUMPDEST PUSH2 0x13BD JUMP JUMPDEST SWAP1 POP PUSH2 0x13AF JUMP JUMPDEST PUSH2 0x171A SWAP3 POP PUSH2 0x24A9 JUMP JUMPDEST DUP1 PUSH1 0x32 LT PUSH1 0x0 EQ PUSH2 0x1731 JUMPI POP PUSH1 0x32 JUMPDEST SWAP5 SWAP1 POP PUSH2 0x13B3 JUMP JUMPDEST PUSH2 0x1729 JUMP JUMPDEST POP PUSH1 0x0 NOT TIMESTAMP ADD TIMESTAMP DUP2 GT PUSH2 0x17C3 JUMPI DUP4 MLOAD PUSH4 0xC4DB40D PUSH1 0xE3 SHL DUP2 MSTORE CALLER DUP4 DUP3 ADD SWAP1 DUP2 MSTORE PUSH1 0x20 DUP2 ADD DUP8 SWAP1 MSTORE PUSH1 0x40 DUP2 ADD SWAP3 SWAP1 SWAP3 MSTORE SWAP1 DUP8 SWAP1 DUP3 SWAP1 DUP2 SWAP1 PUSH1 0x60 ADD SUB DUP2 DUP7 GAS STATICCALL DUP1 ISZERO PUSH2 0x17B9 JUMPI DUP9 SWAP1 PUSH2 0x178A JUMPI JUMPDEST ISZERO ISZERO SWAP1 POP PUSH2 0x1369 JUMP JUMPDEST POP DUP7 DUP2 DUP2 RETURNDATASIZE DUP4 GT PUSH2 0x17B2 JUMPI JUMPDEST PUSH2 0x17A0 DUP2 DUP4 PUSH2 0x2335 JUMP JUMPDEST DUP2 ADD SUB SLT PUSH2 0x55C JUMPI PUSH2 0x1372 SWAP1 MLOAD PUSH2 0x1781 JUMP JUMPDEST POP RETURNDATASIZE PUSH2 0x1796 JUMP JUMPDEST DUP5 MLOAD RETURNDATASIZE DUP11 DUP3 RETURNDATACOPY RETURNDATASIZE SWAP1 REVERT JUMPDEST PUSH4 0x4E487B71 PUSH1 0xE0 SHL DUP9 MSTORE PUSH1 0x11 DUP3 MSTORE PUSH1 0x24 DUP9 REVERT JUMPDEST SWAP1 POP DUP7 DUP2 DUP2 RETURNDATASIZE DUP4 GT PUSH2 0x17FC JUMPI JUMPDEST PUSH2 0x17ED DUP2 DUP4 PUSH2 0x2335 JUMP JUMPDEST DUP2 ADD SUB SLT PUSH2 0x55C JUMPI MLOAD CODESIZE PUSH2 0x135F JUMP JUMPDEST POP RETURNDATASIZE PUSH2 0x17E3 JUMP JUMPDEST POP POP CALLVALUE PUSH2 0x1ED JUMPI PUSH1 0x20 CALLDATASIZE PUSH1 0x3 NOT ADD SLT PUSH2 0x1ED JUMPI PUSH1 0x20 SWAP1 PUSH2 0x1E6 PUSH2 0x1824 PUSH2 0x2127 JUMP JUMPDEST PUSH2 0x2B8D JUMP JUMPDEST POP POP CALLVALUE PUSH2 0x1ED JUMPI DUP2 PUSH1 0x3 NOT CALLDATASIZE ADD SLT PUSH2 0x1ED JUMPI PUSH1 0x20 SWAP1 PUSH1 0x9 SLOAD SWAP1 MLOAD SWAP1 DUP2 MSTORE RETURN JUMPDEST SWAP1 POP CALLVALUE PUSH2 0x265 JUMPI DUP3 PUSH1 0x3 NOT CALLDATASIZE ADD SLT PUSH2 0x265 JUMPI SLOAD SWAP1 MLOAD PUSH1 0x1 PUSH1 0x1 PUSH1 0xA0 SHL SUB SWAP1 SWAP2 AND DUP2 MSTORE PUSH1 0x20 SWAP2 POP RETURN JUMPDEST POP POP CALLVALUE PUSH2 0x1ED JUMPI PUSH1 0x20 CALLDATASIZE PUSH1 0x3 NOT ADD SLT PUSH2 0x1ED JUMPI PUSH2 0xCE6 SWAP1 PUSH2 0xCD8 PUSH2 0x1892 PUSH2 0x2127 JUMP JUMPDEST PUSH2 0x27A3 JUMP JUMPDEST POP POP CALLVALUE PUSH2 0x1ED JUMPI DUP2 PUSH1 0x3 NOT CALLDATASIZE ADD SLT PUSH2 0x1ED JUMPI PUSH1 0x20 SWAP1 PUSH1 0x8 SLOAD SWAP1 MLOAD SWAP1 DUP2 MSTORE RETURN JUMPDEST SWAP2 SWAP1 POP CALLVALUE PUSH2 0x265 JUMPI PUSH1 0x20 CALLDATASIZE PUSH1 0x3 NOT ADD SLT PUSH2 0x265 JUMPI PUSH2 0xCE6 SWAP3 POP PUSH2 0x18D7 PUSH2 0x2EB7 JUMP JUMPDEST POP PUSH2 0xE09 DUP3 CALLDATALOAD PUSH2 0x253F JUMP JUMPDEST POP POP CALLVALUE PUSH2 0x1ED JUMPI DUP2 PUSH1 0x3 NOT CALLDATASIZE ADD SLT PUSH2 0x1ED JUMPI PUSH1 0x20 SWAP1 PUSH1 0x7 SLOAD SWAP1 MLOAD SWAP1 DUP2 MSTORE RETURN JUMPDEST DUP4 DUP4 CALLVALUE PUSH2 0x1ED JUMPI PUSH1 0x20 SWAP3 DUP4 PUSH1 0x3 NOT CALLDATASIZE ADD SLT PUSH2 0x265 JUMPI PUSH1 0x2 SLOAD DUP3 MLOAD PUSH4 0xBD85B039 PUSH1 0xE0 SHL DUP2 MSTORE PUSH1 0x1 DUP4 DUP3 ADD MSTORE PUSH1 0x1 PUSH1 0x1 PUSH1 0xA0 SHL SUB SWAP1 SWAP2 AND SWAP1 DUP6 DUP2 PUSH1 0x24 DUP2 DUP6 GAS STATICCALL SWAP1 DUP2 ISZERO PUSH2 0x1A0A JUMPI DUP6 SWAP2 PUSH2 0x19D9 JUMPI JUMPDEST POP PUSH2 0x1997 JUMPI DUP4 SWAP5 POP DUP1 EXTCODESIZE ISZERO PUSH2 0x1992 JUMPI PUSH1 0x24 DUP5 SWAP3 DUP5 MLOAD SWAP6 DUP7 SWAP4 DUP5 SWAP3 PUSH4 0x39FA62DF PUSH1 0xE0 SHL DUP5 MSTORE DUP1 CALLDATALOAD SWAP1 DUP5 ADD MSTORE GAS CALL SWAP1 DUP2 ISZERO PUSH2 0xF3E JUMPI POP PUSH2 0x1989 JUMPI POP DUP1 RETURN JUMPDEST PUSH2 0x24C SWAP1 PUSH2 0x22EC JUMP JUMPDEST POP POP POP REVERT JUMPDEST POP DUP4 PUSH1 0x64 SWAP3 MLOAD SWAP2 PUSH3 0x461BCD PUSH1 0xE5 SHL DUP4 MSTORE DUP3 ADD MSTORE PUSH1 0x1A PUSH1 0x24 DUP3 ADD MSTORE PUSH32 0x53686172657320616C726561647920696E697469616C697A6564000000000000 PUSH1 0x44 DUP3 ADD MSTORE REVERT JUMPDEST SWAP1 POP DUP6 DUP2 DUP2 RETURNDATASIZE DUP4 GT PUSH2 0x1A03 JUMPI JUMPDEST PUSH2 0x19F0 DUP2 DUP4 PUSH2 0x2335 JUMP JUMPDEST DUP2 ADD SUB SLT PUSH2 0x19FF JUMPI MLOAD DUP7 PUSH2 0x194D JUMP JUMPDEST DUP5 DUP1 REVERT JUMPDEST POP RETURNDATASIZE PUSH2 0x19E6 JUMP JUMPDEST DUP5 MLOAD RETURNDATASIZE DUP8 DUP3 RETURNDATACOPY RETURNDATASIZE SWAP1 REVERT JUMPDEST POP POP CALLVALUE PUSH2 0x1ED JUMPI DUP2 PUSH1 0x3 NOT CALLDATASIZE ADD SLT PUSH2 0x1ED JUMPI PUSH1 0x5 SLOAD SWAP1 MLOAD PUSH1 0x1 PUSH1 0x1 PUSH1 0xA0 SHL SUB SWAP1 SWAP2 AND DUP2 MSTORE PUSH1 0x20 SWAP1 RETURN JUMPDEST POP POP CALLVALUE PUSH2 0x1ED JUMPI DUP1 PUSH1 0x3 NOT CALLDATASIZE ADD SLT PUSH2 0x1ED JUMPI PUSH1 0x60 SWAP1 PUSH2 0x1A6B PUSH2 0x1A5D PUSH2 0x2127 JUMP JUMPDEST PUSH2 0x1A65 PUSH2 0x213D JUMP JUMPDEST SWAP1 PUSH2 0x2696 JUMP JUMPDEST SWAP2 SWAP3 SWAP1 DUP2 MLOAD SWAP4 ISZERO ISZERO DUP5 MSTORE PUSH1 0x20 DUP5 ADD MSTORE DUP3 ADD MSTORE RETURN JUMPDEST POP POP CALLVALUE PUSH2 0x1ED JUMPI DUP2 PUSH1 0x3 NOT CALLDATASIZE ADD SLT PUSH2 0x1ED JUMPI PUSH1 0x20 SWAP1 PUSH1 0xFF PUSH1 0xD SLOAD AND SWAP1 MLOAD SWAP1 ISZERO ISZERO DUP2 MSTORE RETURN JUMPDEST SWAP2 SWAP1 POP CALLVALUE PUSH2 0x265 JUMPI DUP3 PUSH1 0x3 NOT CALLDATASIZE ADD SLT PUSH2 0x265 JUMPI PUSH2 0x1AC5 PUSH1 0xFF PUSH1 0xD SLOAD AND ISZERO PUSH2 0x2407 JUMP JUMPDEST PUSH1 0x9 SLOAD SWAP1 DUP2 ISZERO PUSH2 0x1CD8 JUMPI PUSH1 0x2 SLOAD PUSH1 0x6 SLOAD DUP3 MLOAD PUSH4 0xBD85B039 PUSH1 0xE0 SHL DUP2 MSTORE DUP6 DUP2 ADD SWAP2 SWAP1 SWAP2 MSTORE PUSH1 0x20 SWAP4 PUSH1 0x1 PUSH1 0x1 PUSH1 0xA0 SHL SUB SWAP3 PUSH1 0x24 SWAP3 SWAP1 DUP7 SWAP1 DUP3 SWAP1 DUP6 SWAP1 DUP3 SWAP1 DUP9 AND GAS STATICCALL SWAP1 DUP2 ISZERO PUSH2 0x1CCE JUMPI DUP9 SWAP2 PUSH2 0x1C9D JUMPI JUMPDEST POP PUSH2 0x1B1E DUP2 ISZERO ISZERO PUSH2 0x2E79 JUMP JUMPDEST PUSH8 0xDE0B6B3A7640000 DUP3 MUL PUSH8 0xDE0B6B3A763FFFF NOT DUP4 DUP3 DIV ADD PUSH2 0x1C8B JUMPI SWAP1 PUSH2 0x1B45 SWAP2 PUSH2 0x2623 JUMP JUMPDEST PUSH1 0xC SLOAD SWAP1 SWAP4 SWAP1 SWAP2 DUP3 ISZERO PUSH2 0x1C86 JUMPI PUSH1 0x0 NOT DUP4 ADD DUP4 DUP2 GT PUSH2 0x1C74 JUMPI SWAP1 PUSH1 0x1 PUSH2 0x1B6D PUSH2 0x1B75 SWAP4 PUSH2 0x253F JUMP JUMPDEST POP ADD SLOAD PUSH2 0x23E4 JUMP JUMPDEST DUP6 MLOAD SWAP1 PUSH2 0x1B81 DUP3 PUSH2 0x22BB JUMP JUMPDEST DUP4 DUP3 MSTORE DUP8 DUP3 ADD SWAP1 DUP2 MSTORE DUP7 DUP3 ADD DUP7 DUP2 MSTORE PUSH1 0x60 DUP4 ADD SWAP2 TIMESTAMP DUP4 MSTORE PUSH1 0x80 DUP5 ADD SWAP6 CALLER DUP8 MSTORE PUSH1 0x1 PUSH1 0x40 SHL DUP2 LT ISZERO PUSH2 0x1C62 JUMPI DUP1 PUSH1 0x1 PUSH2 0x1BBC SWAP3 ADD PUSH1 0xC SSTORE PUSH2 0x253F JUMP JUMPDEST SWAP5 SWAP1 SWAP5 PUSH2 0x1C51 JUMPI MLOAD DUP5 SSTORE MLOAD PUSH1 0x1 DUP5 ADD SSTORE MLOAD PUSH1 0x2 DUP4 ADD SSTORE MLOAD PUSH1 0x3 DUP3 ADD SSTORE SWAP2 MLOAD SWAP2 DUP8 ADD DUP1 SLOAD PUSH1 0x1 PUSH1 0x1 PUSH1 0xA0 SHL SUB NOT AND SWAP2 SWAP1 SWAP3 AND OR SWAP1 SSTORE PUSH1 0xC SLOAD PUSH1 0x0 NOT DUP2 ADD SWAP6 SWAP1 DUP7 GT PUSH2 0x1C40 JUMPI POP POP SWAP2 DUP5 PUSH1 0x60 SWAP3 PUSH32 0x77841C1AE75DE1A1C173CB7FFD7F1DC25D09ACA1E636B17A232B67072624BAB8 SWAP5 PUSH1 0x9 SLOAD SWAP4 DUP3 MLOAD SWAP5 DUP6 MSTORE DUP5 ADD MSTORE DUP3 ADD MSTORE LOG2 DUP1 PUSH1 0x9 SSTORE DUP1 RETURN JUMPDEST PUSH4 0x4E487B71 PUSH1 0xE0 SHL DUP8 MSTORE PUSH1 0x11 SWAP1 MSTORE DUP6 REVERT JUMPDEST PUSH4 0x4E487B71 PUSH1 0xE0 SHL DUP14 MSTORE DUP13 DUP13 MSTORE DUP8 DUP14 REVERT JUMPDEST PUSH4 0x4E487B71 PUSH1 0xE0 SHL DUP14 MSTORE PUSH1 0x41 DUP13 MSTORE DUP8 DUP14 REVERT JUMPDEST PUSH4 0x4E487B71 PUSH1 0xE0 SHL DUP11 MSTORE PUSH1 0x11 DUP10 MSTORE DUP5 DUP11 REVERT JUMPDEST PUSH2 0x1B75 JUMP JUMPDEST PUSH4 0x4E487B71 PUSH1 0xE0 SHL DUP10 MSTORE PUSH1 0x11 DUP9 MSTORE DUP4 DUP10 REVERT JUMPDEST SWAP1 POP DUP6 DUP2 DUP2 RETURNDATASIZE DUP4 GT PUSH2 0x1CC7 JUMPI JUMPDEST PUSH2 0x1CB4 DUP2 DUP4 PUSH2 0x2335 JUMP JUMPDEST DUP2 ADD SUB SLT PUSH2 0x1CC3 JUMPI MLOAD CODESIZE PUSH2 0x1B12 JUMP JUMPDEST DUP8 DUP1 REVERT JUMPDEST POP RETURNDATASIZE PUSH2 0x1CAA JUMP JUMPDEST DUP6 MLOAD RETURNDATASIZE DUP11 DUP3 RETURNDATACOPY RETURNDATASIZE SWAP1 REVERT JUMPDEST MLOAD PUSH3 0x461BCD PUSH1 0xE5 SHL DUP2 MSTORE PUSH1 0x20 DUP2 DUP5 ADD MSTORE PUSH1 0x1D PUSH1 0x24 DUP3 ADD MSTORE PUSH32 0x4E6F206E6577206561726E696E677320746F2064697374726962757465000000 PUSH1 0x44 DUP3 ADD MSTORE PUSH1 0x64 SWAP1 REVERT JUMPDEST SWAP1 POP CALLVALUE PUSH2 0x265 JUMPI PUSH1 0x20 DUP1 PUSH1 0x3 NOT CALLDATASIZE ADD SLT PUSH2 0x586 JUMPI DUP2 CALLDATALOAD SWAP2 PUSH2 0x1D39 PUSH2 0x2673 JUMP JUMPDEST PUSH2 0x1D48 PUSH1 0xFF PUSH1 0xD SLOAD AND ISZERO PUSH2 0x2407 JUMP JUMPDEST PUSH1 0x2 SLOAD PUSH1 0x6 SLOAD DUP6 MLOAD PUSH3 0x7EEAC7 PUSH1 0xE1 SHL DUP2 MSTORE CALLER DUP2 DUP6 ADD SWAP1 DUP2 MSTORE PUSH1 0x20 DUP2 ADD DUP4 SWAP1 MSTORE SWAP2 SWAP4 PUSH1 0x1 PUSH1 0x1 PUSH1 0xA0 SHL SUB SWAP4 DUP5 AND SWAP4 SWAP3 SWAP1 SWAP2 SWAP1 DUP7 SWAP1 DUP3 SWAP1 DUP2 SWAP1 PUSH1 0x40 ADD SUB DUP2 DUP8 GAS STATICCALL SWAP1 DUP2 ISZERO PUSH2 0x208A JUMPI DUP10 SWAP2 PUSH2 0x20A7 JUMPI JUMPDEST POP ISZERO DUP1 ISZERO SWAP1 PUSH2 0x2003 JUMPI JUMPDEST PUSH2 0x1DA8 SWAP1 PUSH2 0x24B6 JUMP JUMPDEST CALLER DUP9 MSTORE PUSH1 0xA DUP6 MSTORE DUP7 DUP9 KECCAK256 DUP1 SLOAD SWAP7 PUSH1 0xC SLOAD SWAP1 PUSH2 0x1DC4 DUP10 DUP4 GT PUSH2 0x24F4 JUMP JUMPDEST DUP1 ISZERO PUSH2 0x1FF8 JUMPI PUSH2 0x1DD5 SWAP1 JUMPDEST DUP10 PUSH2 0x23E4 JUMP JUMPDEST SWAP1 DUP1 DUP3 LT ISZERO PUSH2 0x1FF1 JUMPI POP JUMPDEST SWAP4 DUP10 SWAP6 DUP9 JUMPDEST DUP7 DUP2 LT PUSH2 0x1F00 JUMPI JUMPDEST POP POP POP DUP5 ISZERO PUSH2 0x1EBD JUMPI DUP4 SWAP1 SSTORE PUSH1 0x3 SLOAD DUP8 MLOAD PUSH4 0xA9059CBB PUSH1 0xE0 SHL DUP2 MSTORE CALLER SWAP3 DUP2 ADD SWAP3 DUP4 MSTORE PUSH1 0x20 DUP4 ADD DUP7 SWAP1 MSTORE SWAP3 SWAP2 DUP7 SWAP2 DUP5 SWAP2 DUP3 SWAP1 SUB PUSH1 0x40 ADD SWAP1 DUP3 SWAP1 DUP13 SWAP1 DUP7 AND GAS CALL SWAP5 DUP6 ISZERO PUSH2 0x1EB3 JUMPI PUSH32 0x33508FA3C05F271D76112F2A1C190707F316B34540511262F6D62BFF50A02854 SWAP6 PUSH2 0x1E8C SWAP4 PUSH2 0x1E6A SWAP3 DUP12 SWAP3 PUSH2 0x1E96 JUMPI JUMPDEST POP POP PUSH2 0x246B JUMP JUMPDEST PUSH1 0x3 SLOAD AND SWAP6 MLOAD SWAP3 DUP4 SWAP3 CALLER SWAP7 DUP5 PUSH1 0x40 SWAP2 SWAP5 SWAP4 SWAP3 PUSH1 0x60 DUP3 ADD SWAP6 DUP3 MSTORE PUSH1 0x20 DUP3 ADD MSTORE ADD MSTORE JUMP JUMPDEST SUB SWAP1 LOG3 PUSH1 0x1 DUP1 SSTORE DUP1 RETURN JUMPDEST PUSH2 0x1EAC SWAP3 POP DUP1 RETURNDATASIZE LT PUSH2 0x520 JUMPI PUSH2 0x510 DUP2 DUP4 PUSH2 0x2335 JUMP JUMPDEST CODESIZE DUP1 PUSH2 0x1E63 JUMP JUMPDEST DUP8 MLOAD RETURNDATASIZE DUP11 DUP3 RETURNDATACOPY RETURNDATASIZE SWAP1 REVERT JUMPDEST DUP8 MLOAD PUSH3 0x461BCD PUSH1 0xE5 SHL DUP2 MSTORE DUP1 DUP4 ADD DUP8 SWAP1 MSTORE PUSH1 0x1F PUSH1 0x24 DUP3 ADD MSTORE PUSH32 0x4E6F20737461626C65636F696E206561726E696E677320746F20636C61696D00 PUSH1 0x44 DUP3 ADD MSTORE PUSH1 0x64 SWAP1 REVERT JUMPDEST PUSH3 0x186A0 GAS LT PUSH2 0x1FE3 JUMPI DUP12 DUP12 PUSH2 0x1F18 PUSH2 0x153D DUP5 PUSH2 0x253F JUMP JUMPDEST PUSH1 0x60 DUP2 DUP2 ADD MLOAD DUP4 MLOAD PUSH4 0xC4DB40D PUSH1 0xE3 SHL DUP2 MSTORE CALLER DUP2 DUP13 ADD SWAP1 DUP2 MSTORE PUSH1 0x20 DUP2 ADD DUP10 SWAP1 MSTORE PUSH1 0x40 DUP2 ADD SWAP3 SWAP1 SWAP3 MSTORE SWAP2 DUP15 SWAP2 DUP4 SWAP2 DUP3 SWAP2 ADD SUB DUP2 DUP11 GAS STATICCALL SWAP4 DUP5 ISZERO PUSH2 0x1FD8 JUMPI SWAP4 PUSH2 0x1FA1 JUMPI JUMPDEST POP DUP3 PUSH2 0x1F72 JUMPI JUMPDEST POP POP POP PUSH2 0x1F6D SWAP1 PUSH2 0x2530 JUMP JUMPDEST PUSH2 0x1DE5 JUMP JUMPDEST PUSH2 0x1F91 PUSH2 0x1F98 SWAP4 PUSH2 0x1F6D SWAP6 SWAP13 SWAP4 PUSH8 0xDE0B6B3A7640000 SWAP4 ADD MLOAD SWAP1 PUSH2 0x2610 JUMP JUMPDEST DIV SWAP1 PUSH2 0x23E4 JUMP JUMPDEST SWAP8 SWAP1 DUP12 CODESIZE PUSH2 0x1F61 JUMP JUMPDEST DUP13 DUP1 SWAP3 SWAP5 POP DUP2 SWAP4 POP RETURNDATASIZE DUP4 GT PUSH2 0x1FD1 JUMPI JUMPDEST PUSH2 0x1FBB DUP2 DUP4 PUSH2 0x2335 JUMP JUMPDEST DUP2 ADD SUB SLT PUSH2 0x1FCD JUMPI DUP13 SWAP1 MLOAD SWAP2 CODESIZE PUSH2 0x1F5A JUMP JUMPDEST DUP14 DUP1 REVERT JUMPDEST POP RETURNDATASIZE PUSH2 0x1FB1 JUMP JUMPDEST DUP4 MLOAD SWAP1 RETURNDATASIZE SWAP1 DUP3 RETURNDATACOPY RETURNDATASIZE SWAP1 REVERT JUMPDEST SWAP3 SWAP6 POP POP POP SWAP3 CODESIZE DUP1 DUP1 PUSH2 0x1DED JUMP JUMPDEST SWAP1 POP PUSH2 0x1DE0 JUMP JUMPDEST POP PUSH2 0x1DD5 PUSH1 0x32 PUSH2 0x1DCF JUMP JUMPDEST POP PUSH1 0x0 NOT TIMESTAMP ADD TIMESTAMP DUP2 GT PUSH2 0x2094 JUMPI DUP8 MLOAD PUSH4 0xC4DB40D PUSH1 0xE3 SHL DUP2 MSTORE CALLER DUP4 DUP3 ADD SWAP1 DUP2 MSTORE PUSH1 0x20 DUP2 ADD DUP8 SWAP1 MSTORE PUSH1 0x40 DUP2 ADD SWAP3 SWAP1 SWAP3 MSTORE SWAP1 DUP7 SWAP1 DUP3 SWAP1 DUP2 SWAP1 PUSH1 0x60 ADD SUB DUP2 DUP8 GAS STATICCALL DUP1 ISZERO PUSH2 0x208A JUMPI DUP10 SWAP1 PUSH2 0x2057 JUMPI JUMPDEST ISZERO ISZERO SWAP1 POP PUSH2 0x1D9F JUMP JUMPDEST POP DUP6 DUP2 DUP2 RETURNDATASIZE DUP4 GT PUSH2 0x2083 JUMPI JUMPDEST PUSH2 0x206D DUP2 DUP4 PUSH2 0x2335 JUMP JUMPDEST DUP2 ADD SUB SLT PUSH2 0x207F JUMPI PUSH2 0x1DA8 SWAP1 MLOAD PUSH2 0x204E JUMP JUMPDEST DUP9 DUP1 REVERT JUMPDEST POP RETURNDATASIZE PUSH2 0x2063 JUMP JUMPDEST DUP9 MLOAD RETURNDATASIZE DUP12 DUP3 RETURNDATACOPY RETURNDATASIZE SWAP1 REVERT JUMPDEST PUSH4 0x4E487B71 PUSH1 0xE0 SHL DUP10 MSTORE PUSH1 0x11 DUP3 MSTORE PUSH1 0x24 DUP10 REVERT JUMPDEST SWAP1 POP DUP6 DUP2 DUP2 RETURNDATASIZE DUP4 GT PUSH2 0x20CD JUMPI JUMPDEST PUSH2 0x20BE DUP2 DUP4 PUSH2 0x2335 JUMP JUMPDEST DUP2 ADD SUB SLT PUSH2 0x207F JUMPI MLOAD CODESIZE PUSH2 0x1D95 JUMP JUMPDEST POP RETURNDATASIZE PUSH2 0x20B4 JUMP JUMPDEST DUP5 SWAP2 CALLVALUE PUSH2 0x265 JUMPI PUSH1 0x20 CALLDATASIZE PUSH1 0x3 NOT ADD SLT PUSH2 0x265 JUMPI CALLDATALOAD PUSH4 0xFFFFFFFF PUSH1 0xE0 SHL DUP2 AND DUP1 SWAP2 SUB PUSH2 0x265 JUMPI PUSH1 0x20 SWAP3 POP PUSH4 0x2711897 PUSH1 0xE5 SHL DUP2 EQ SWAP1 DUP2 ISZERO PUSH2 0x2116 JUMPI JUMPDEST POP ISZERO ISZERO DUP2 MSTORE RETURN JUMPDEST PUSH4 0x1FFC9A7 PUSH1 0xE0 SHL EQ SWAP1 POP DUP4 PUSH2 0x210F JUMP JUMPDEST PUSH1 0x4 CALLDATALOAD SWAP1 PUSH1 0x1 PUSH1 0x1 PUSH1 0xA0 SHL SUB DUP3 AND DUP3 SUB PUSH2 0x55C JUMPI JUMP JUMPDEST PUSH1 0x24 CALLDATALOAD SWAP1 PUSH1 0x1 PUSH1 0x1 PUSH1 0xA0 SHL SUB DUP3 AND DUP3 SUB PUSH2 0x55C JUMPI JUMP JUMPDEST SWAP1 DUP2 MLOAD DUP1 DUP3 MSTORE PUSH1 0x20 DUP1 DUP1 SWAP4 ADD SWAP4 ADD SWAP2 PUSH1 0x0 JUMPDEST DUP3 DUP2 LT PUSH2 0x2173 JUMPI POP POP POP POP SWAP1 JUMP JUMPDEST DUP4 MLOAD DUP6 MSTORE SWAP4 DUP2 ADD SWAP4 SWAP3 DUP2 ADD SWAP3 PUSH1 0x1 ADD PUSH2 0x2165 JUMP JUMPDEST SWAP2 SWAP1 DUP3 MLOAD SWAP3 DUP4 DUP3 MSTORE PUSH1 0x0 JUMPDEST DUP5 DUP2 LT PUSH2 0x21B3 JUMPI POP POP DUP3 PUSH1 0x0 PUSH1 0x20 DUP1 SWAP5 SWAP6 DUP5 ADD ADD MSTORE PUSH1 0x1F DUP1 NOT SWAP2 ADD AND ADD ADD SWAP1 JUMP JUMPDEST PUSH1 0x20 DUP2 DUP4 ADD DUP2 ADD MLOAD DUP5 DUP4 ADD DUP3 ADD MSTORE ADD PUSH2 0x2192 JUMP JUMPDEST SWAP3 PUSH2 0x21EF PUSH2 0x21E0 PUSH2 0x21FD SWAP4 PUSH1 0x80 DUP8 MSTORE PUSH1 0x80 DUP8 ADD SWAP1 PUSH2 0x2153 JUMP JUMPDEST PUSH1 0x20 SWAP5 DUP7 DUP3 SUB DUP7 DUP9 ADD MSTORE PUSH2 0x2153 JUMP JUMPDEST SWAP1 DUP5 DUP3 SUB PUSH1 0x40 DUP7 ADD MSTORE PUSH2 0x2153 JUMP JUMPDEST SWAP2 PUSH1 0x60 DUP2 DUP5 SUB SWAP2 ADD MSTORE DUP3 MLOAD SWAP1 DUP2 DUP4 MSTORE DUP1 DUP4 ADD SWAP3 DUP2 DUP1 DUP5 PUSH1 0x5 SHL DUP4 ADD ADD SWAP6 ADD SWAP4 PUSH1 0x0 SWAP2 JUMPDEST DUP5 DUP4 LT PUSH2 0x2230 JUMPI POP POP POP POP POP POP SWAP1 JUMP JUMPDEST SWAP1 SWAP2 SWAP3 SWAP4 SWAP5 SWAP6 DUP5 DUP1 PUSH2 0x224E PUSH1 0x1 SWAP4 PUSH1 0x1F NOT DUP7 DUP3 SUB ADD DUP8 MSTORE DUP11 MLOAD PUSH2 0x2187 JUMP JUMPDEST SWAP9 ADD SWAP4 ADD SWAP4 ADD SWAP2 SWAP5 SWAP4 SWAP3 SWAP1 PUSH2 0x2220 JUMP JUMPDEST SWAP2 DUP2 PUSH1 0x1F DUP5 ADD SLT ISZERO PUSH2 0x55C JUMPI DUP3 CALLDATALOAD SWAP2 PUSH1 0x1 PUSH1 0x1 PUSH1 0x40 SHL SUB DUP4 GT PUSH2 0x55C JUMPI PUSH1 0x20 DUP1 DUP6 ADD SWAP5 DUP5 PUSH1 0x5 SHL ADD ADD GT PUSH2 0x55C JUMPI JUMP JUMPDEST SWAP2 DUP2 PUSH1 0x1F DUP5 ADD SLT ISZERO PUSH2 0x55C JUMPI DUP3 CALLDATALOAD SWAP2 PUSH1 0x1 PUSH1 0x1 PUSH1 0x40 SHL SUB DUP4 GT PUSH2 0x55C JUMPI PUSH1 0x20 DUP4 DUP2 DUP7 ADD SWAP6 ADD ADD GT PUSH2 0x55C JUMPI JUMP JUMPDEST PUSH1 0xA0 DUP2 ADD SWAP1 DUP2 LT PUSH1 0x1 PUSH1 0x1 PUSH1 0x40 SHL SUB DUP3 GT OR PUSH2 0x22D6 JUMPI PUSH1 0x40 MSTORE JUMP JUMPDEST PUSH4 0x4E487B71 PUSH1 0xE0 SHL PUSH1 0x0 MSTORE PUSH1 0x41 PUSH1 0x4 MSTORE PUSH1 0x24 PUSH1 0x0 REVERT JUMPDEST PUSH1 0x1 PUSH1 0x1 PUSH1 0x40 SHL SUB DUP2 GT PUSH2 0x22D6 JUMPI PUSH1 0x40 MSTORE JUMP JUMPDEST PUSH1 0x40 DUP2 ADD SWAP1 DUP2 LT PUSH1 0x1 PUSH1 0x1 PUSH1 0x40 SHL SUB DUP3 GT OR PUSH2 0x22D6 JUMPI PUSH1 0x40 MSTORE JUMP JUMPDEST PUSH1 0x20 DUP2 ADD SWAP1 DUP2 LT PUSH1 0x1 PUSH1 0x1 PUSH1 0x40 SHL SUB DUP3 GT OR PUSH2 0x22D6 JUMPI PUSH1 0x40 MSTORE JUMP JUMPDEST SWAP1 PUSH1 0x1F DUP1 NOT SWAP2 ADD AND DUP2 ADD SWAP1 DUP2 LT PUSH1 0x1 PUSH1 0x1 PUSH1 0x40 SHL SUB DUP3 GT OR PUSH2 0x22D6 JUMPI PUSH1 0x40 MSTORE JUMP JUMPDEST PUSH1 0x1 PUSH1 0x1 PUSH1 0x40 SHL SUB DUP2 GT PUSH2 0x22D6 JUMPI PUSH1 0x1F ADD PUSH1 0x1F NOT AND PUSH1 0x20 ADD SWAP1 JUMP JUMPDEST PUSH1 0x0 SLOAD PUSH1 0x1 PUSH1 0x1 PUSH1 0xA0 SHL SUB AND CALLER SUB PUSH2 0x2385 JUMPI JUMP JUMPDEST PUSH1 0x40 MLOAD PUSH4 0x118CDAA7 PUSH1 0xE0 SHL DUP2 MSTORE CALLER PUSH1 0x4 DUP3 ADD MSTORE PUSH1 0x24 SWAP1 REVERT JUMPDEST PUSH1 0x0 DUP1 SLOAD PUSH1 0x1 PUSH1 0x1 PUSH1 0xA0 SHL SUB SWAP3 DUP4 AND PUSH1 0x1 PUSH1 0x1 PUSH1 0xA0 SHL SUB NOT DUP3 AND DUP2 OR DUP4 SSTORE SWAP3 AND SWAP1 PUSH32 0x8BE0079C531659141344CD1FD0A4F28419497F9722A3DAAFE3B4186F6B6457E0 SWAP1 DUP1 LOG3 JUMP JUMPDEST SWAP2 SWAP1 DUP3 ADD DUP1 SWAP3 GT PUSH2 0x23F1 JUMPI JUMP JUMPDEST PUSH4 0x4E487B71 PUSH1 0xE0 SHL PUSH1 0x0 MSTORE PUSH1 0x11 PUSH1 0x4 MSTORE PUSH1 0x24 PUSH1 0x0 REVERT JUMPDEST ISZERO PUSH2 0x240E JUMPI JUMP JUMPDEST PUSH1 0x40 MLOAD PUSH3 0x461BCD PUSH1 0xE5 SHL DUP2 MSTORE PUSH1 0x20 PUSH1 0x4 DUP3 ADD MSTORE PUSH1 0x1A PUSH1 0x24 DUP3 ADD MSTORE PUSH32 0x436F6E747261637420686173206265656E206D69677261746564000000000000 PUSH1 0x44 DUP3 ADD MSTORE PUSH1 0x64 SWAP1 REVERT JUMPDEST SWAP1 DUP2 PUSH1 0x20 SWAP2 SUB SLT PUSH2 0x55C JUMPI MLOAD DUP1 ISZERO ISZERO DUP2 SUB PUSH2 0x55C JUMPI SWAP1 JUMP JUMPDEST ISZERO PUSH2 0x2472 JUMPI JUMP JUMPDEST PUSH1 0x40 MLOAD PUSH3 0x461BCD PUSH1 0xE5 SHL DUP2 MSTORE PUSH1 0x20 PUSH1 0x4 DUP3 ADD MSTORE PUSH1 0xF PUSH1 0x24 DUP3 ADD MSTORE PUSH15 0x151C985B9CD9995C8819985A5B1959 PUSH1 0x8A SHL PUSH1 0x44 DUP3 ADD MSTORE PUSH1 0x64 SWAP1 REVERT JUMPDEST SWAP2 SWAP1 DUP3 SUB SWAP2 DUP3 GT PUSH2 0x23F1 JUMPI JUMP JUMPDEST ISZERO PUSH2 0x24BD JUMPI JUMP JUMPDEST PUSH1 0x40 MLOAD PUSH3 0x461BCD PUSH1 0xE5 SHL DUP2 MSTORE PUSH1 0x20 PUSH1 0x4 DUP3 ADD MSTORE PUSH1 0xF PUSH1 0x24 DUP3 ADD MSTORE PUSH15 0x139BC81CDA185C995CC81BDDDB9959 PUSH1 0x8A SHL PUSH1 0x44 DUP3 ADD MSTORE PUSH1 0x64 SWAP1 REVERT JUMPDEST ISZERO PUSH2 0x24FB JUMPI JUMP JUMPDEST PUSH1 0x40 MLOAD PUSH3 0x461BCD PUSH1 0xE5 SHL DUP2 MSTORE PUSH1 0x20 PUSH1 0x4 DUP3 ADD MSTORE PUSH1 0xD PUSH1 0x24 DUP3 ADD MSTORE PUSH13 0x4E6F206E65772065706F636873 PUSH1 0x98 SHL PUSH1 0x44 DUP3 ADD MSTORE PUSH1 0x64 SWAP1 REVERT JUMPDEST PUSH1 0x0 NOT DUP2 EQ PUSH2 0x23F1 JUMPI PUSH1 0x1 ADD SWAP1 JUMP JUMPDEST PUSH1 0xC SLOAD DUP2 LT ISZERO PUSH2 0x257A JUMPI PUSH1 0x5 SWAP1 PUSH1 0xC PUSH1 0x0 MSTORE MUL PUSH32 0xDF6966C971051C3D54EC59162606531493A51404A002842F56009D7E5CF4A8C7 ADD SWAP1 PUSH1 0x0 SWAP1 JUMP JUMPDEST PUSH4 0x4E487B71 PUSH1 0xE0 SHL PUSH1 0x0 MSTORE PUSH1 0x32 PUSH1 0x4 MSTORE PUSH1 0x24 PUSH1 0x0 REVERT JUMPDEST PUSH1 0xB SLOAD DUP2 LT ISZERO PUSH2 0x257A JUMPI PUSH1 0x5 SWAP1 PUSH1 0xB PUSH1 0x0 MSTORE MUL PUSH32 0x175B7A638427703F0DBE7BB9BBF987A2551717B34E79F33B5B1008D1FA01DB9 ADD SWAP1 PUSH1 0x0 SWAP1 JUMP JUMPDEST SWAP1 PUSH1 0x40 MLOAD PUSH2 0x25D8 DUP2 PUSH2 0x22BB JUMP JUMPDEST DUP3 SLOAD DUP2 MSTORE PUSH1 0x1 DUP4 ADD SLOAD PUSH1 0x20 DUP3 ADD MSTORE PUSH1 0x2 DUP4 ADD SLOAD PUSH1 0x40 DUP3 ADD MSTORE PUSH1 0x3 DUP4 ADD SLOAD PUSH1 0x60 DUP3 ADD MSTORE PUSH1 0x4 SWAP1 SWAP3 ADD SLOAD PUSH1 0x1 PUSH1 0x1 PUSH1 0xA0 SHL SUB AND PUSH1 0x80 DUP4 ADD MSTORE JUMP JUMPDEST DUP2 DUP2 MUL SWAP3 SWAP2 DUP2 ISZERO SWAP2 DUP5 DIV EQ OR ISZERO PUSH2 0x23F1 JUMPI JUMP JUMPDEST DUP2 ISZERO PUSH2 0x262D JUMPI DIV SWAP1 JUMP JUMPDEST PUSH4 0x4E487B71 PUSH1 0xE0 SHL PUSH1 0x0 MSTORE PUSH1 0x12 PUSH1 0x4 MSTORE PUSH1 0x24 PUSH1 0x0 REVERT JUMPDEST RETURNDATASIZE ISZERO PUSH2 0x266E JUMPI RETURNDATASIZE SWAP1 PUSH2 0x2654 DUP3 PUSH2 0x2356 JUMP JUMPDEST SWAP2 PUSH2 0x2662 PUSH1 0x40 MLOAD SWAP4 DUP5 PUSH2 0x2335 JUMP JUMPDEST DUP3 MSTORE RETURNDATASIZE PUSH1 0x0 PUSH1 0x20 DUP5 ADD RETURNDATACOPY JUMP JUMPDEST PUSH1 0x60 SWAP1 JUMP JUMPDEST PUSH1 0x2 PUSH1 0x1 SLOAD EQ PUSH2 0x2684 JUMPI PUSH1 0x2 PUSH1 0x1 SSTORE JUMP JUMPDEST PUSH1 0x40 MLOAD PUSH4 0x3EE5AEB5 PUSH1 0xE0 SHL DUP2 MSTORE PUSH1 0x4 SWAP1 REVERT JUMPDEST PUSH1 0x1 PUSH1 0x1 PUSH1 0xA0 SHL SUB SWAP1 DUP2 AND PUSH1 0x0 SWAP1 DUP2 MSTORE PUSH1 0xA PUSH1 0x20 MSTORE PUSH1 0x40 DUP2 KECCAK256 SWAP2 SWAP1 SWAP3 AND ISZERO SWAP3 SWAP1 DUP4 ISZERO PUSH2 0x26F5 JUMPI PUSH1 0x1 ADD SLOAD SWAP3 JUMPDEST ISZERO PUSH2 0x26EC JUMPI DUP3 PUSH1 0xB SLOAD JUMPDEST DUP2 DUP2 GT PUSH2 0x26DB JUMPI POP POP DUP2 SWAP3 SWAP2 SWAP1 JUMP JUMPDEST PUSH2 0x26E6 SWAP3 SWAP4 POP PUSH2 0x24A9 JUMP JUMPDEST PUSH1 0x1 SWAP3 SWAP2 JUMP JUMPDEST DUP3 PUSH1 0xC SLOAD PUSH2 0x26CC JUMP JUMPDEST SLOAD SWAP3 PUSH2 0x26C2 JUMP JUMPDEST PUSH1 0x1 PUSH1 0x1 PUSH1 0x40 SHL SUB DUP2 GT PUSH2 0x22D6 JUMPI PUSH1 0x5 SHL PUSH1 0x20 ADD SWAP1 JUMP JUMPDEST SWAP1 PUSH2 0x271D DUP3 PUSH2 0x26FC JUMP JUMPDEST PUSH2 0x272A PUSH1 0x40 MLOAD SWAP2 DUP3 PUSH2 0x2335 JUMP JUMPDEST DUP3 DUP2 MSTORE DUP1 SWAP3 PUSH2 0x273B PUSH1 0x1F NOT SWAP2 PUSH2 0x26FC JUMP JUMPDEST ADD SWAP1 PUSH1 0x20 CALLDATASIZE SWAP2 ADD CALLDATACOPY JUMP JUMPDEST SWAP1 PUSH2 0x274F DUP3 PUSH2 0x26FC JUMP JUMPDEST PUSH2 0x275C PUSH1 0x40 MLOAD SWAP2 DUP3 PUSH2 0x2335 JUMP JUMPDEST DUP3 DUP2 MSTORE DUP1 SWAP3 PUSH2 0x276D PUSH1 0x1F NOT SWAP2 PUSH2 0x26FC JUMP JUMPDEST ADD SWAP1 PUSH1 0x0 JUMPDEST DUP3 DUP2 LT PUSH2 0x277E JUMPI POP POP POP JUMP JUMPDEST DUP1 PUSH1 0x60 PUSH1 0x20 DUP1 SWAP4 DUP6 ADD ADD MSTORE ADD PUSH2 0x2772 JUMP JUMPDEST DUP1 MLOAD DUP3 LT ISZERO PUSH2 0x257A JUMPI PUSH1 0x20 SWAP2 PUSH1 0x5 SHL ADD ADD SWAP1 JUMP JUMPDEST PUSH1 0x2 SLOAD PUSH1 0x6 SLOAD PUSH1 0x40 MLOAD PUSH3 0x7EEAC7 PUSH1 0xE1 SHL DUP2 MSTORE PUSH1 0x1 PUSH1 0x1 PUSH1 0xA0 SHL SUB DUP5 DUP2 AND PUSH1 0x4 DUP4 ADD MSTORE PUSH1 0x24 DUP3 ADD DUP4 SWAP1 MSTORE SWAP4 SWAP5 SWAP3 DUP5 AND SWAP4 SWAP2 SWAP3 SWAP2 SWAP1 PUSH1 0x20 DUP2 PUSH1 0x44 DUP2 DUP9 GAS STATICCALL SWAP1 DUP2 ISZERO PUSH2 0x2959 JUMPI PUSH1 0x0 SWAP2 PUSH2 0x29B4 JUMPI JUMPDEST POP ISZERO PUSH2 0x2965 JUMPI DUP5 AND PUSH1 0x0 MSTORE PUSH1 0xA PUSH1 0x20 MSTORE PUSH1 0x1 PUSH1 0x40 PUSH1 0x0 KECCAK256 ADD SLOAD PUSH1 0xB SLOAD PUSH2 0x281C PUSH2 0x2817 DUP4 DUP4 PUSH2 0x24A9 JUMP JUMPDEST PUSH2 0x2713 JUMP JUMPDEST SWAP2 PUSH2 0x282A PUSH2 0x2817 DUP3 DUP5 PUSH2 0x24A9 JUMP JUMPDEST SWAP7 PUSH2 0x2838 PUSH2 0x2817 DUP4 DUP6 PUSH2 0x24A9 JUMP JUMPDEST SWAP7 PUSH2 0x284B PUSH2 0x2846 DUP5 DUP7 PUSH2 0x24A9 JUMP JUMPDEST PUSH2 0x2745 JUMP JUMPDEST SWAP7 DUP4 JUMPDEST DUP6 DUP2 LT PUSH2 0x2861 JUMPI POP POP POP POP POP POP SWAP4 SWAP3 SWAP2 SWAP1 JUMP JUMPDEST PUSH2 0x286D PUSH2 0x153D DUP3 PUSH2 0x2590 JUMP JUMPDEST DUP1 MLOAD PUSH2 0x2882 PUSH2 0x287C DUP9 DUP6 PUSH2 0x24A9 JUMP JUMPDEST DUP11 PUSH2 0x278F JUMP JUMPDEST MSTORE PUSH1 0x60 DUP2 ADD MLOAD PUSH1 0x40 MLOAD PUSH4 0xC4DB40D PUSH1 0xE3 SHL DUP2 MSTORE PUSH1 0x1 PUSH1 0x1 PUSH1 0xA0 SHL SUB DUP8 AND PUSH1 0x4 DUP3 ADD MSTORE PUSH1 0x24 DUP2 ADD DUP6 SWAP1 MSTORE PUSH1 0x44 DUP2 ADD SWAP2 SWAP1 SWAP2 MSTORE PUSH1 0x20 DUP2 PUSH1 0x64 DUP2 DUP9 GAS STATICCALL DUP1 ISZERO PUSH2 0x2959 JUMPI DUP14 SWAP2 PUSH1 0x0 SWAP2 PUSH2 0x2923 JUMPI JUMPDEST POP SWAP2 PUSH1 0x60 SWAP2 PUSH2 0x2902 PUSH8 0xDE0B6B3A7640000 PUSH2 0x28F0 PUSH2 0x291E SWAP8 SWAP7 PUSH1 0x40 DUP7 ADD MLOAD SWAP1 PUSH2 0x2610 JUMP JUMPDEST DIV SWAP2 PUSH2 0x28FC DUP12 DUP8 PUSH2 0x24A9 JUMP JUMPDEST SWAP1 PUSH2 0x278F JUMP JUMPDEST MSTORE ADD MLOAD PUSH2 0x2918 PUSH2 0x2912 DUP9 DUP5 PUSH2 0x24A9 JUMP JUMPDEST DUP14 PUSH2 0x278F JUMP JUMPDEST MSTORE PUSH2 0x2530 JUMP JUMPDEST PUSH2 0x284E JUMP JUMPDEST SWAP2 POP PUSH1 0x20 DUP3 RETURNDATASIZE PUSH1 0x20 GT PUSH2 0x2951 JUMPI JUMPDEST DUP2 PUSH2 0x293E PUSH1 0x20 SWAP4 DUP4 PUSH2 0x2335 JUMP JUMPDEST DUP2 ADD SUB SLT PUSH2 0x2BF JUMPI POP MLOAD DUP13 SWAP1 PUSH1 0x60 PUSH2 0x28CC JUMP JUMPDEST RETURNDATASIZE SWAP2 POP PUSH2 0x2931 JUMP JUMPDEST PUSH1 0x40 MLOAD RETURNDATASIZE PUSH1 0x0 DUP3 RETURNDATACOPY RETURNDATASIZE SWAP1 REVERT JUMPDEST POP SWAP3 POP POP POP PUSH1 0x40 MLOAD SWAP1 PUSH2 0x2977 DUP3 PUSH2 0x231A JUMP JUMPDEST PUSH1 0x0 DUP3 MSTORE PUSH1 0x40 MLOAD SWAP2 PUSH2 0x2988 DUP4 PUSH2 0x231A JUMP JUMPDEST PUSH1 0x0 DUP4 MSTORE PUSH1 0x40 MLOAD SWAP2 PUSH2 0x2999 DUP4 PUSH2 0x231A JUMP JUMPDEST PUSH1 0x0 DUP4 MSTORE PUSH1 0x40 MLOAD SWAP2 PUSH2 0x29AA DUP4 PUSH2 0x231A JUMP JUMPDEST PUSH1 0x0 DUP4 MSTORE SWAP4 SWAP3 SWAP2 SWAP1 JUMP JUMPDEST SWAP1 PUSH1 0x20 DUP3 RETURNDATASIZE PUSH1 0x20 GT PUSH2 0x29DE JUMPI JUMPDEST DUP2 PUSH2 0x29CE PUSH1 0x20 SWAP4 DUP4 PUSH2 0x2335 JUMP JUMPDEST DUP2 ADD SUB SLT PUSH2 0x2BF JUMPI POP MLOAD CODESIZE PUSH2 0x27EE JUMP JUMPDEST RETURNDATASIZE SWAP2 POP PUSH2 0x29C1 JUMP JUMPDEST PUSH1 0x2 SLOAD PUSH1 0x6 SLOAD PUSH1 0x40 MLOAD PUSH3 0x7EEAC7 PUSH1 0xE1 SHL DUP2 MSTORE PUSH1 0x1 PUSH1 0x1 PUSH1 0xA0 SHL SUB DUP5 DUP2 AND PUSH1 0x4 DUP4 ADD MSTORE PUSH1 0x24 DUP3 ADD DUP4 SWAP1 MSTORE SWAP4 SWAP5 SWAP3 DUP5 AND SWAP4 SWAP2 SWAP3 SWAP2 SWAP1 PUSH1 0x20 DUP2 PUSH1 0x44 DUP2 DUP9 GAS STATICCALL SWAP1 DUP2 ISZERO PUSH2 0x2959 JUMPI PUSH1 0x0 SWAP2 PUSH2 0x2B5B JUMPI JUMPDEST POP ISZERO PUSH2 0x2965 JUMPI DUP5 AND PUSH1 0x0 MSTORE PUSH1 0xA PUSH1 0x20 MSTORE PUSH1 0x40 PUSH1 0x0 KECCAK256 SLOAD PUSH1 0xC SLOAD PUSH2 0x2A57 PUSH2 0x2817 DUP4 DUP4 PUSH2 0x24A9 JUMP JUMPDEST SWAP2 PUSH2 0x2A65 PUSH2 0x2817 DUP3 DUP5 PUSH2 0x24A9 JUMP JUMPDEST SWAP7 PUSH2 0x2A73 PUSH2 0x2817 DUP4 DUP6 PUSH2 0x24A9 JUMP JUMPDEST SWAP7 PUSH2 0x2A81 PUSH2 0x2846 DUP5 DUP7 PUSH2 0x24A9 JUMP JUMPDEST SWAP7 DUP4 JUMPDEST DUP6 DUP2 LT PUSH2 0x2A97 JUMPI POP POP POP POP POP POP SWAP4 SWAP3 SWAP2 SWAP1 JUMP JUMPDEST PUSH2 0x2AA3 PUSH2 0x153D DUP3 PUSH2 0x253F JUMP JUMPDEST DUP1 MLOAD PUSH2 0x2AB2 PUSH2 0x287C DUP9 DUP6 PUSH2 0x24A9 JUMP JUMPDEST MSTORE PUSH1 0x60 DUP2 ADD MLOAD PUSH1 0x40 MLOAD PUSH4 0xC4DB40D PUSH1 0xE3 SHL DUP2 MSTORE PUSH1 0x1 PUSH1 0x1 PUSH1 0xA0 SHL SUB DUP8 AND PUSH1 0x4 DUP3 ADD MSTORE PUSH1 0x24 DUP2 ADD DUP6 SWAP1 MSTORE PUSH1 0x44 DUP2 ADD SWAP2 SWAP1 SWAP2 MSTORE PUSH1 0x20 DUP2 PUSH1 0x64 DUP2 DUP9 GAS STATICCALL DUP1 ISZERO PUSH2 0x2959 JUMPI DUP14 SWAP2 PUSH1 0x0 SWAP2 PUSH2 0x2B25 JUMPI JUMPDEST POP SWAP2 PUSH1 0x60 SWAP2 PUSH2 0x2902 PUSH8 0xDE0B6B3A7640000 PUSH2 0x28F0 PUSH2 0x2B20 SWAP8 SWAP7 PUSH1 0x40 DUP7 ADD MLOAD SWAP1 PUSH2 0x2610 JUMP JUMPDEST PUSH2 0x2A84 JUMP JUMPDEST SWAP2 POP PUSH1 0x20 DUP3 RETURNDATASIZE PUSH1 0x20 GT PUSH2 0x2B53 JUMPI JUMPDEST DUP2 PUSH2 0x2B40 PUSH1 0x20 SWAP4 DUP4 PUSH2 0x2335 JUMP JUMPDEST DUP2 ADD SUB SLT PUSH2 0x2BF JUMPI POP MLOAD DUP13 SWAP1 PUSH1 0x60 PUSH2 0x2AFC JUMP JUMPDEST RETURNDATASIZE SWAP2 POP PUSH2 0x2B33 JUMP JUMPDEST SWAP1 PUSH1 0x20 DUP3 RETURNDATASIZE PUSH1 0x20 GT PUSH2 0x2B85 JUMPI JUMPDEST DUP2 PUSH2 0x2B75 PUSH1 0x20 SWAP4 DUP4 PUSH2 0x2335 JUMP JUMPDEST DUP2 ADD SUB SLT PUSH2 0x2BF JUMPI POP MLOAD CODESIZE PUSH2 0x2A31 JUMP JUMPDEST RETURNDATASIZE SWAP2 POP PUSH2 0x2B68 JUMP JUMPDEST PUSH1 0x2 SLOAD PUSH1 0x6 SLOAD PUSH1 0x40 DUP1 MLOAD PUSH3 0x7EEAC7 PUSH1 0xE1 SHL DUP2 MSTORE PUSH1 0x1 PUSH1 0x1 PUSH1 0xA0 SHL SUB DUP6 DUP2 AND PUSH1 0x4 DUP1 DUP5 ADD SWAP2 SWAP1 SWAP2 MSTORE PUSH1 0x24 DUP4 ADD DUP6 SWAP1 MSTORE SWAP4 SWAP6 SWAP5 DUP2 AND SWAP5 PUSH1 0x20 SWAP5 SWAP1 SWAP3 SWAP1 SWAP2 SWAP1 DUP6 DUP2 PUSH1 0x44 DUP2 DUP11 GAS STATICCALL SWAP1 DUP2 ISZERO PUSH2 0x2D2C JUMPI PUSH1 0x0 SWAP2 PUSH2 0x2CFF JUMPI JUMPDEST POP ISZERO PUSH2 0x2CF3 JUMPI DUP3 SWAP2 SWAP7 SWAP5 SWAP4 SWAP3 AND PUSH1 0x0 MSTORE PUSH1 0xA DUP4 MSTORE PUSH1 0x1 DUP3 PUSH1 0x0 KECCAK256 ADD SLOAD SWAP6 PUSH1 0xB SLOAD SWAP5 PUSH1 0x0 SWAP8 SWAP7 JUMPDEST DUP7 DUP9 LT PUSH2 0x2C18 JUMPI POP POP POP POP POP POP POP POP SWAP1 JUMP JUMPDEST SWAP1 SWAP2 SWAP3 SWAP4 SWAP5 SWAP6 SWAP7 SWAP8 PUSH2 0x2C6C PUSH2 0x2C2F PUSH2 0x153D DUP12 PUSH2 0x2590 JUMP JUMPDEST PUSH1 0x60 DUP2 DUP2 ADD MLOAD DUP10 MLOAD PUSH4 0xC4DB40D PUSH1 0xE3 SHL DUP2 MSTORE PUSH1 0x1 PUSH1 0x1 PUSH1 0xA0 SHL SUB DUP11 AND DUP10 DUP3 ADD SWAP1 DUP2 MSTORE PUSH1 0x20 DUP2 ADD DUP10 SWAP1 MSTORE PUSH1 0x40 DUP2 ADD SWAP3 SWAP1 SWAP3 MSTORE SWAP4 DUP12 SWAP3 DUP6 SWAP3 DUP4 SWAP3 SWAP2 ADD SWAP1 JUMP JUMPDEST SUB DUP2 DUP8 GAS STATICCALL SWAP2 DUP3 ISZERO PUSH2 0x2CE8 JUMPI SWAP1 DUP9 SWAP2 PUSH1 0x0 SWAP4 PUSH2 0x2CB4 JUMPI JUMPDEST POP PUSH2 0x1F91 PUSH2 0x2CA2 SWAP4 PUSH2 0x2CA8 SWAP6 SWAP4 PUSH8 0xDE0B6B3A7640000 SWAP4 ADD MLOAD SWAP1 PUSH2 0x2610 JUMP JUMPDEST SWAP9 PUSH2 0x2530 JUMP JUMPDEST SWAP7 SWAP6 SWAP5 SWAP4 SWAP3 SWAP2 SWAP1 PUSH2 0x2C06 JUMP JUMPDEST SWAP2 POP SWAP2 DUP10 DUP3 DUP2 RETURNDATASIZE DUP4 GT PUSH2 0x2CE1 JUMPI JUMPDEST PUSH2 0x2CCC DUP2 DUP4 PUSH2 0x2335 JUMP JUMPDEST DUP2 ADD SUB SLT PUSH2 0x2BF JUMPI POP MLOAD SWAP1 DUP8 SWAP1 PUSH2 0x1F91 PUSH2 0x2C83 JUMP JUMPDEST POP RETURNDATASIZE PUSH2 0x2CC2 JUMP JUMPDEST DUP9 MLOAD RETURNDATASIZE PUSH1 0x0 DUP3 RETURNDATACOPY RETURNDATASIZE SWAP1 REVERT JUMPDEST POP POP POP POP POP POP POP PUSH1 0x0 SWAP1 JUMP JUMPDEST SWAP1 DUP7 DUP3 DUP2 RETURNDATASIZE DUP4 GT PUSH2 0x2D25 JUMPI JUMPDEST PUSH2 0x2D15 DUP2 DUP4 PUSH2 0x2335 JUMP JUMPDEST DUP2 ADD SUB SLT PUSH2 0x2BF JUMPI POP MLOAD CODESIZE PUSH2 0x2BE0 JUMP JUMPDEST POP RETURNDATASIZE PUSH2 0x2D0B JUMP JUMPDEST DUP6 MLOAD RETURNDATASIZE PUSH1 0x0 DUP3 RETURNDATACOPY RETURNDATASIZE SWAP1 REVERT JUMPDEST PUSH1 0x2 SLOAD PUSH1 0x6 SLOAD PUSH1 0x40 DUP1 MLOAD PUSH3 0x7EEAC7 PUSH1 0xE1 SHL DUP2 MSTORE PUSH1 0x1 PUSH1 0x1 PUSH1 0xA0 SHL SUB DUP6 DUP2 AND PUSH1 0x4 DUP1 DUP5 ADD SWAP2 SWAP1 SWAP2 MSTORE PUSH1 0x24 DUP4 ADD DUP6 SWAP1 MSTORE SWAP4 SWAP6 SWAP5 DUP2 AND SWAP5 PUSH1 0x20 SWAP5 SWAP1 SWAP3 SWAP1 SWAP2 SWAP1 DUP6 DUP2 PUSH1 0x44 DUP2 DUP11 GAS STATICCALL SWAP1 DUP2 ISZERO PUSH2 0x2D2C JUMPI PUSH1 0x0 SWAP2 PUSH2 0x2E4C JUMPI JUMPDEST POP ISZERO PUSH2 0x2CF3 JUMPI DUP3 SWAP2 SWAP7 SWAP5 SWAP4 SWAP3 AND PUSH1 0x0 MSTORE PUSH1 0xA DUP4 MSTORE DUP2 PUSH1 0x0 KECCAK256 SLOAD SWAP6 PUSH1 0xC SLOAD SWAP5 PUSH1 0x0 SWAP8 SWAP7 JUMPDEST DUP7 DUP9 LT PUSH2 0x2DBF JUMPI POP POP POP POP POP POP POP POP SWAP1 JUMP JUMPDEST SWAP1 SWAP2 SWAP3 SWAP4 SWAP5 SWAP6 SWAP7 SWAP8 PUSH2 0x2DD6 PUSH2 0x2C2F PUSH2 0x153D DUP12 PUSH2 0x253F JUMP JUMPDEST SUB DUP2 DUP8 GAS STATICCALL SWAP2 DUP3 ISZERO PUSH2 0x2CE8 JUMPI SWAP1 DUP9 SWAP2 PUSH1 0x0 SWAP4 PUSH2 0x2E18 JUMPI JUMPDEST POP PUSH2 0x1F91 PUSH2 0x2CA2 SWAP4 PUSH2 0x2E0C SWAP6 SWAP4 PUSH8 0xDE0B6B3A7640000 SWAP4 ADD MLOAD SWAP1 PUSH2 0x2610 JUMP JUMPDEST SWAP7 SWAP6 SWAP5 SWAP4 SWAP3 SWAP2 SWAP1 PUSH2 0x2DAD JUMP JUMPDEST SWAP2 POP SWAP2 DUP10 DUP3 DUP2 RETURNDATASIZE DUP4 GT PUSH2 0x2E45 JUMPI JUMPDEST PUSH2 0x2E30 DUP2 DUP4 PUSH2 0x2335 JUMP JUMPDEST DUP2 ADD SUB SLT PUSH2 0x2BF JUMPI POP MLOAD SWAP1 DUP8 SWAP1 PUSH2 0x1F91 PUSH2 0x2DED JUMP JUMPDEST POP RETURNDATASIZE PUSH2 0x2E26 JUMP JUMPDEST SWAP1 DUP7 DUP3 DUP2 RETURNDATASIZE DUP4 GT PUSH2 0x2E72 JUMPI JUMPDEST PUSH2 0x2E62 DUP2 DUP4 PUSH2 0x2335 JUMP JUMPDEST DUP2 ADD SUB SLT PUSH2 0x2BF JUMPI POP MLOAD CODESIZE PUSH2 0x2D8A JUMP JUMPDEST POP RETURNDATASIZE PUSH2 0x2E58 JUMP JUMPDEST ISZERO PUSH2 0x2E80 JUMPI JUMP JUMPDEST PUSH1 0x40 MLOAD PUSH3 0x461BCD PUSH1 0xE5 SHL DUP2 MSTORE PUSH1 0x20 PUSH1 0x4 DUP3 ADD MSTORE PUSH1 0xF PUSH1 0x24 DUP3 ADD MSTORE PUSH15 0x139BC81CDA185C995CC8195E1A5CDD PUSH1 0x8A SHL PUSH1 0x44 DUP3 ADD MSTORE PUSH1 0x64 SWAP1 REVERT JUMPDEST PUSH1 0x40 MLOAD SWAP1 PUSH2 0x2EC4 DUP3 PUSH2 0x22BB JUMP JUMPDEST PUSH1 0x0 PUSH1 0x80 DUP4 DUP3 DUP2 MSTORE DUP3 PUSH1 0x20 DUP3 ADD MSTORE DUP3 PUSH1 0x40 DUP3 ADD MSTORE DUP3 PUSH1 0x60 DUP3 ADD MSTORE ADD MSTORE JUMP INVALID LOG2 PUSH5 0x6970667358 0x22 SLT KECCAK256 0xA5 PUSH21 0x4883A43C47F3645B7671B40FAB7883757B1838011 JUMPDEST 0xCC MUL INVALID SWAP5 GASLIMIT 0xF8 SWAP4 GT PUSH5 0x736F6C6343 STOP ADDMOD EQ STOP CALLER "},"methodIdentifiers":{"claimETHEarnings(uint256)":"6d4645fd","claimStablecoinEarnings(uint256)":"0a1c35a4","createBuyoutToken(uint256,address)":"9d3bc4bd","createETHDistributionEpoch()":"82d5195c","createLegalContract(string)":"bcb7130d","createSongShares(uint256)":"39fa62df","createStablecoinDistributionEpoch()":"2514a5fb","ethBalance()":"4e6630b0","ethEarningsEpochs(uint256)":"a2440fd5","getPendingETHEarnings(address)":"6ab415c1","getPendingStablecoinDistribution()":"5d152b36","getPendingStablecoinEarnings(address)":"fcd9b139","getUnclaimedETHEpochs(address)":"51bcece2","getUnclaimedStablecoinEpochs(address)":"b40b5e82","getWSTokenManagementAddress()":"df5afd2a","hasMoreEpochsToClaim(address,address)":"2cc6d17b","initialize(address,address,address)":"c0c53b8b","metadataModule()":"3684d100","migrateWrappedSong(address,address)":"d70a0abc","migrated()":"2c678c64","onERC1155BatchReceived(address,address,uint256[],uint256[],bytes)":"bc197c81","onERC1155Received(address,address,uint256,uint256,bytes)":"f23a6e61","owner()":"8da5cb5b","protocolModule()":"5c42e667","receiveERC20(address,uint256)":"aed4aab6","renounceOwnership()":"715018a6","setWSTokenManagement(address)":"716f6e87","songSharesId()":"f3baa17f","stablecoin()":"e9cbd822","stablecoinEarningsEpochs(uint256)":"4c2b957a","supportsInterface(bytes4)":"01ffc9a7","transferOwnership(address)":"f2fde38b","userEpochBalances(address)":"c45f497e","wrappedSongTokenId()":"43d0b50f","wsTokenManagement()":"9a5cb99d"}},"storageLayout":{"storage":[{"astId":8,"contract":"contracts/protocol/NonUpgradable/WrappedSongSmartAccount.sol:WrappedSongSmartAccount","label":"_owner","offset":0,"slot":"0","type":"t_address"},{"astId":1264,"contract":"contracts/protocol/NonUpgradable/WrappedSongSmartAccount.sol:WrappedSongSmartAccount","label":"_status","offset":0,"slot":"1","type":"t_uint256"},{"astId":5199,"contract":"contracts/protocol/NonUpgradable/WrappedSongSmartAccount.sol:WrappedSongSmartAccount","label":"wsTokenManagement","offset":0,"slot":"2","type":"t_contract(IWSTokenManagement)3364"},{"astId":5202,"contract":"contracts/protocol/NonUpgradable/WrappedSongSmartAccount.sol:WrappedSongSmartAccount","label":"stablecoin","offset":0,"slot":"3","type":"t_contract(IERC20)644"},{"astId":5205,"contract":"contracts/protocol/NonUpgradable/WrappedSongSmartAccount.sol:WrappedSongSmartAccount","label":"protocolModule","offset":0,"slot":"4","type":"t_contract(IProtocolModule)3248"},{"astId":5208,"contract":"contracts/protocol/NonUpgradable/WrappedSongSmartAccount.sol:WrappedSongSmartAccount","label":"metadataModule","offset":0,"slot":"5","type":"t_contract(IMetadataModule)2763"},{"astId":5210,"contract":"contracts/protocol/NonUpgradable/WrappedSongSmartAccount.sol:WrappedSongSmartAccount","label":"songSharesId","offset":0,"slot":"6","type":"t_uint256"},{"astId":5212,"contract":"contracts/protocol/NonUpgradable/WrappedSongSmartAccount.sol:WrappedSongSmartAccount","label":"wrappedSongTokenId","offset":0,"slot":"7","type":"t_uint256"},{"astId":5214,"contract":"contracts/protocol/NonUpgradable/WrappedSongSmartAccount.sol:WrappedSongSmartAccount","label":"ethBalance","offset":0,"slot":"8","type":"t_uint256"},{"astId":5216,"contract":"contracts/protocol/NonUpgradable/WrappedSongSmartAccount.sol:WrappedSongSmartAccount","label":"_pendingStablecoinEarnings","offset":0,"slot":"9","type":"t_uint256"},{"astId":5226,"contract":"contracts/protocol/NonUpgradable/WrappedSongSmartAccount.sol:WrappedSongSmartAccount","label":"_userEpochBalances","offset":0,"slot":"10","type":"t_mapping(t_address,t_struct(EpochBalance)5221_storage)"},{"astId":5241,"contract":"contracts/protocol/NonUpgradable/WrappedSongSmartAccount.sol:WrappedSongSmartAccount","label":"_ethEarningsEpochs","offset":0,"slot":"11","type":"t_array(t_struct(EarningsEpoch)5237_storage)dyn_storage"},{"astId":5245,"contract":"contracts/protocol/NonUpgradable/WrappedSongSmartAccount.sol:WrappedSongSmartAccount","label":"_stablecoinEarningsEpochs","offset":0,"slot":"12","type":"t_array(t_struct(EarningsEpoch)5237_storage)dyn_storage"},{"astId":5253,"contract":"contracts/protocol/NonUpgradable/WrappedSongSmartAccount.sol:WrappedSongSmartAccount","label":"migrated","offset":0,"slot":"13","type":"t_bool"}],"types":{"t_address":{"encoding":"inplace","label":"address","numberOfBytes":"20"},"t_array(t_struct(EarningsEpoch)5237_storage)dyn_storage":{"base":"t_struct(EarningsEpoch)5237_storage","encoding":"dynamic_array","label":"struct WrappedSongSmartAccount.EarningsEpoch[]","numberOfBytes":"32"},"t_bool":{"encoding":"inplace","label":"bool","numberOfBytes":"1"},"t_contract(IERC20)644":{"encoding":"inplace","label":"contract IERC20","numberOfBytes":"20"},"t_contract(IMetadataModule)2763":{"encoding":"inplace","label":"contract IMetadataModule","numberOfBytes":"20"},"t_contract(IProtocolModule)3248":{"encoding":"inplace","label":"contract IProtocolModule","numberOfBytes":"20"},"t_contract(IWSTokenManagement)3364":{"encoding":"inplace","label":"contract IWSTokenManagement","numberOfBytes":"20"},"t_mapping(t_address,t_struct(EpochBalance)5221_storage)":{"encoding":"mapping","key":"t_address","label":"mapping(address => struct WrappedSongSmartAccount.EpochBalance)","numberOfBytes":"32","value":"t_struct(EpochBalance)5221_storage"},"t_struct(EarningsEpoch)5237_storage":{"encoding":"inplace","label":"struct WrappedSongSmartAccount.EarningsEpoch","members":[{"astId":5228,"contract":"contracts/protocol/NonUpgradable/WrappedSongSmartAccount.sol:WrappedSongSmartAccount","label":"epochId","offset":0,"slot":"0","type":"t_uint256"},{"astId":5230,"contract":"contracts/protocol/NonUpgradable/WrappedSongSmartAccount.sol:WrappedSongSmartAccount","label":"amount","offset":0,"slot":"1","type":"t_uint256"},{"astId":5232,"contract":"contracts/protocol/NonUpgradable/WrappedSongSmartAccount.sol:WrappedSongSmartAccount","label":"earningsPerShare","offset":0,"slot":"2","type":"t_uint256"},{"astId":5234,"contract":"contracts/protocol/NonUpgradable/WrappedSongSmartAccount.sol:WrappedSongSmartAccount","label":"timestamp","offset":0,"slot":"3","type":"t_uint256"},{"astId":5236,"contract":"contracts/protocol/NonUpgradable/WrappedSongSmartAccount.sol:WrappedSongSmartAccount","label":"sender","offset":0,"slot":"4","type":"t_address"}],"numberOfBytes":"160"},"t_struct(EpochBalance)5221_storage":{"encoding":"inplace","label":"struct WrappedSongSmartAccount.EpochBalance","members":[{"astId":5218,"contract":"contracts/protocol/NonUpgradable/WrappedSongSmartAccount.sol:WrappedSongSmartAccount","label":"lastClaimedEpoch","offset":0,"slot":"0","type":"t_uint256"},{"astId":5220,"contract":"contracts/protocol/NonUpgradable/WrappedSongSmartAccount.sol:WrappedSongSmartAccount","label":"lastClaimedETHEpoch","offset":0,"slot":"1","type":"t_uint256"}],"numberOfBytes":"64"},"t_uint256":{"encoding":"inplace","label":"uint256","numberOfBytes":"32"}}}}}}