{"contracts/protocol/NonUpgradable/WrappedSongFactory.sol":{"WrappedSongFactory":{"abi":[{"inputs":[{"internalType":"address","name":"_wrappedSongTemplate","type":"address"},{"internalType":"address","name":"_wsTokenTemplate","type":"address"},{"internalType":"address","name":"_protocolModule","type":"address"}],"stateMutability":"nonpayable","type":"constructor"},{"inputs":[{"internalType":"address","name":"target","type":"address"}],"name":"AddressEmptyCode","type":"error"},{"inputs":[{"internalType":"address","name":"account","type":"address"}],"name":"AddressInsufficientBalance","type":"error"},{"inputs":[],"name":"ERC1167FailedCreateClone","type":"error"},{"inputs":[],"name":"FailedInnerCall","type":"error"},{"inputs":[{"internalType":"address","name":"owner","type":"address"}],"name":"OwnableInvalidOwner","type":"error"},{"inputs":[{"internalType":"address","name":"account","type":"address"}],"name":"OwnableUnauthorizedAccount","type":"error"},{"inputs":[{"internalType":"address","name":"token","type":"address"}],"name":"SafeERC20FailedOperation","type":"error"},{"anonymous":false,"inputs":[{"indexed":true,"internalType":"address","name":"wrappedSong","type":"address"},{"indexed":true,"internalType":"address","name":"token","type":"address"},{"indexed":false,"internalType":"uint256","name":"amount","type":"uint256"}],"name":"CreationFeeCollected","type":"event"},{"anonymous":false,"inputs":[{"indexed":true,"internalType":"address","name":"token","type":"address"},{"indexed":true,"internalType":"address","name":"recipient","type":"address"},{"indexed":false,"internalType":"uint256","name":"amount","type":"uint256"}],"name":"FeesWithdrawn","type":"event"},{"anonymous":false,"inputs":[{"indexed":true,"internalType":"address","name":"previousOwner","type":"address"},{"indexed":true,"internalType":"address","name":"newOwner","type":"address"}],"name":"OwnershipTransferred","type":"event"},{"anonymous":false,"inputs":[{"indexed":true,"internalType":"address","name":"owner","type":"address"},{"indexed":true,"internalType":"address","name":"wrappedSongSmartAccount","type":"address"},{"indexed":false,"internalType":"address","name":"stablecoin","type":"address"},{"indexed":false,"internalType":"address","name":"wsTokenManagement","type":"address"},{"indexed":false,"internalType":"uint256","name":"sharesAmount","type":"uint256"},{"components":[{"internalType":"string","name":"name","type":"string"},{"internalType":"string","name":"description","type":"string"},{"internalType":"string","name":"image","type":"string"},{"internalType":"string","name":"externalUrl","type":"string"},{"internalType":"string","name":"animationUrl","type":"string"},{"internalType":"string","name":"attributesIpfsHash","type":"string"}],"indexed":false,"internalType":"struct IMetadataModule.Metadata","name":"metadata","type":"tuple"}],"name":"WrappedSongCreated","type":"event"},{"inputs":[{"internalType":"address","name":"","type":"address"}],"name":"accumulatedFees","outputs":[{"internalType":"uint256","name":"","type":"uint256"}],"stateMutability":"view","type":"function"},{"inputs":[{"internalType":"address","name":"_stablecoin","type":"address"},{"components":[{"internalType":"string","name":"name","type":"string"},{"internalType":"string","name":"description","type":"string"},{"internalType":"string","name":"image","type":"string"},{"internalType":"string","name":"externalUrl","type":"string"},{"internalType":"string","name":"animationUrl","type":"string"},{"internalType":"string","name":"attributesIpfsHash","type":"string"}],"internalType":"struct IMetadataModule.Metadata","name":"songMetadata","type":"tuple"},{"internalType":"uint256","name":"sharesAmount","type":"uint256"},{"internalType":"address","name":"wsOwner","type":"address"}],"name":"createWrappedSong","outputs":[{"internalType":"address","name":"","type":"address"}],"stateMutability":"payable","type":"function"},{"inputs":[],"name":"owner","outputs":[{"internalType":"address","name":"","type":"address"}],"stateMutability":"view","type":"function"},{"inputs":[],"name":"protocolModule","outputs":[{"internalType":"contract IProtocolModule","name":"","type":"address"}],"stateMutability":"view","type":"function"},{"inputs":[],"name":"registryModule","outputs":[{"internalType":"contract IRegistryModule","name":"","type":"address"}],"stateMutability":"view","type":"function"},{"inputs":[],"name":"renounceOwnership","outputs":[],"stateMutability":"nonpayable","type":"function"},{"inputs":[{"internalType":"address","name":"newOwner","type":"address"}],"name":"transferOwnership","outputs":[],"stateMutability":"nonpayable","type":"function"},{"inputs":[{"internalType":"address","name":"token","type":"address"},{"internalType":"address","name":"recipient","type":"address"}],"name":"withdrawAccumulatedFees","outputs":[],"stateMutability":"nonpayable","type":"function"},{"inputs":[],"name":"wrappedSongTemplate","outputs":[{"internalType":"address","name":"","type":"address"}],"stateMutability":"view","type":"function"},{"inputs":[],"name":"wsTokenTemplate","outputs":[{"internalType":"address","name":"","type":"address"}],"stateMutability":"view","type":"function"},{"stateMutability":"payable","type":"receive"}],"evm":{"bytecode":{"linkReferences":{},"object":"60e0346200017e57601f62001c2d38819003918201601f19168301916001600160401b0383118484101762000183578084926060946040528339810103126200017e576200004d8162000199565b906200006a6040620000626020840162000199565b920162000199565b3315620001655760008054336001600160a01b0319821681178355604051956001600160a01b03959390928616907f8be0079c531659141344cd1fd0a4f28419497f9722a3daafe3b4186f6b6457e09080a360a05260c05216608052611a7e9081620001af82396080518181816101f201528181610272015281816102d90152818161032401528181610459015281816104fe015281816105430152818161059b015281816105cf0152818161062c01528181610668015281816106c7015281816107a901528181610b8c01528181611377015261145e015260a0518181816103fa01526113bc015260c05181818161049f01526113320152f35b604051631e4fbdf760e01b815260006004820152602490fd5b600080fd5b634e487b7160e01b600052604160045260246000fd5b51906001600160a01b03821682036200017e5756fe608080604052600436101561001d575b50361561001b57600080fd5b005b600090813560e01c908163376c1f0714611414575080633cd7bc95146113eb5780633e22876b146113a65780635c42e667146113615780635e63149f1461131c578063715018a6146112c25780638da5cb5b1461129b578063f2fde38b14611215578063fcf66664146111dc5763ff42536b0361000f57600319608036820112610a16576100a9611668565b602435916001600160401b038311610a655760c0908336030112610a1257604051916100d483611683565b80600401356001600160401b038111610e1c576100f79060043691840101611703565b835260248101356001600160401b038111610e1c5761011c9060043691840101611703565b602084015260448101356001600160401b038111610e1c576101449060043691840101611703565b906040840191825260648101356001600160401b038111610dbe5761016f9060043691840101611703565b606085015260848101356001600160401b038111610dbe576101979060043691840101611703565b906080850191825260a4810135906001600160401b0382116111d85760046101c29236920101611703565b60a08501908152906064356001600160a01b0381169003610dbe57604051635c975abb60e01b81526020816004817f00000000000000000000000000000000000000000000000000000000000000006001600160a01b03165afa9081156111cd5787916111ae575b506111745784515115159283611168575b508261115c575b5081611150575b501561111857604435156110c35760405163f140b55f60e01b81523360048201526020816024817f00000000000000000000000000000000000000000000000000000000000000006001600160a01b03165afa908115610a715784916110a4575b50156110605760405163b5af090f60e01b81526001600160a01b038281166004830152602090829060249082907f0000000000000000000000000000000000000000000000000000000000000000165afa908115610a71578491611041575b5015610ffc5760405163670d296960e11b81526020816004817f00000000000000000000000000000000000000000000000000000000000000006001600160a01b03165afa908115610a71576004916020918691610fdf575b50604051636d4726d960e01b815292839182906001600160a01b03165afa908115610a71578491610f9d575b5060405163a454912960e01b8152906020826004816001600160a01b0385165afa918215610b34578592610f69575b5060405163d579e3f360e01b81526020816004816001600160a01b0386165afa908115610dca578691610f3a575b5082610b3f575b50505061041e7f00000000000000000000000000000000000000000000000000000000000000006118b8565b916001600160a01b0383163b15610a655760405163c0c53b8b60e01b81526001600160a01b03838116600483015260648035821660248401527f00000000000000000000000000000000000000000000000000000000000000008216604484015286918391908290849089165af18015610b3457610b21575b5083906104c37f00000000000000000000000000000000000000000000000000000000000000006118b8565b906001600160a01b0382163b15610a125760405163c0c53b8b60e01b81526001600160a01b03868116600483015260648035821660248401527f00000000000000000000000000000000000000000000000000000000000000008216604484015285918391908290849088165af1908115610a71578491610b0d575b50507f00000000000000000000000000000000000000000000000000000000000000006001600160a01b03163b15610a125760405163d9ce7b9560e01b81526001600160a01b03838116600483015284908290602490829084907f0000000000000000000000000000000000000000000000000000000000000000165af1908115610a71578491610af9575b50507f00000000000000000000000000000000000000000000000000000000000000006001600160a01b03163b15610a12576040516208ac8360e01b81526001600160a01b03808716600483015283166024820152838180604481010381837f00000000000000000000000000000000000000000000000000000000000000006001600160a01b03165af1908115610a71578491610ae5575b50507f00000000000000000000000000000000000000000000000000000000000000006001600160a01b03163b15610a125760405160016216ef6160e31b031981523360048201526001600160a01b0386166024820152838180604481010381837f00000000000000000000000000000000000000000000000000000000000000006001600160a01b03165af1908115610a71578491610ad1575b50506001600160a01b0385163b15610a125760405163716f6e8760e01b81526001600160a01b03838116600483015284908290602490829084908b165af1908115610a71578491610abd575b50506001600160a01b0385163b15610a12576040516339fa62df60e01b815260443560048201528381602481836001600160a01b038b165af1908115610a71578491610aa9575b505060405163670d296960e11b81526020816004817f00000000000000000000000000000000000000000000000000000000000000006001600160a01b03165afa908115610a71576004916020918691610a7c575b50604051623684d160e81b815292839182906001600160a01b03165afa8015610a715784918291610a26575b5060408051636613680d60e01b81526001600160a01b0389166004820152602481019190915297919288928391829061085090604483019061183a565b03926001600160a01b03165af1918215610a1a5780926108e9575b50602094506040519260018060a01b0316835260018060a01b0316848301526044356040830152608060608301527f938ece1ab5d508d56896411e3f1b2c96359f780ecbfe90c9a4031cd170aa4a4a60018060a01b03841692806108d43394608083019061183a565b0390a36040516001600160a01b039091168152f35b9091503d8082873e6108fb81876116c7565b850194602081870312610a16578051906001600160401b038211610a1257019060c082870312610a0f576040519161093283611683565b80516001600160401b038111610a12578761094e9183016117d0565b835260208101516001600160401b038111610a12578761096f9183016117d0565b602084015260408101516001600160401b038111610a1257876109939183016117d0565b604084015260608101516001600160401b038111610a1257876109b79183016117d0565b606084015260808101516001600160401b038111610a1257876109db9183016117d0565b608084015260a0810151916001600160401b038311610a0f575095610a0391602097016117d0565b60a0820152903861086b565b80fd5b8280fd5b5080fd5b604051903d90823e3d90fd5b9150506020813d602011610a69575b81610a42602093836116c7565b81010312610a6557516001600160a01b0381168103610a65578390610850610813565b8380fd5b3d9150610a35565b6040513d86823e3d90fd5b610a9c9150823d8411610aa2575b610a9481836116c7565b81019061178e565b386107e7565b503d610a8a565b610ab2906116b4565b610a12578238610792565b610ac6906116b4565b610a1257823861074b565b610ada906116b4565b610a125782386106ff565b610aee906116b4565b610a12578238610664565b610b02906116b4565b610a125782386105cb565b610b16906116b4565b610a1257823861053f565b610b2d909491946116b4565b9238610497565b6040513d87823e3d90fd5b15610e28576040516337a0a9e960e11b815290602090829060049082906001600160a01b03165afa908115610b34578591610df2575b5060405163670d296960e11b8152906020826004817f00000000000000000000000000000000000000000000000000000000000000006001600160a01b03165afa918215610dca576004926020918891610dd5575b506040516309da4e5160e01b815293849182906001600160a01b03165afa918215610dca578692610d81575b50604051637c70c0a360e01b8152600481019190915290602090829060249082906001600160a01b03165afa908115610b34578591610d62575b506001600160a01b03811615610d11576040516323b872dd60e01b6020820152336024820152306044820152826064820152606481528060a08101106001600160401b0360a083011117610cfd5760a0810160405285917fdd872ca9502e175165673833ac2a0e1395edb4b5c72f2915685598490c375e999160209190610cc0906001600160a01b038316611973565b6001600160a01b038116845260018252604084208054610ce1908790611920565b90556040519485526001600160a01b031693a35b3880806103f2565b634e487b7160e01b86526041600452602486fd5b60405162461bcd60e51b815260206004820152602360248201527f4e6f2077686974656c697374656420737461626c65636f696e20617661696c61604482015262626c6560e81b6064820152608490fd5b610d7b915060203d602011610aa257610a9481836116c7565b38610c30565b9091506020813d602011610dc2575b81610d9d602093836116c7565b81010312610dbe57516001600160a01b0381168103610dbe57906020610bf6565b8580fd5b3d9150610d90565b6040513d88823e3d90fd5b610dec9150823d8411610aa257610a9481836116c7565b38610bca565b90506020813d602011610e20575b81610e0d602093836116c7565b81010312610e1c575138610b75565b8480fd5b3d9150610e00565b50803410610ef557838052600160205260408420610e47348254611920565b9055803411610e83575b5082807fdd872ca9502e175165673833ac2a0e1395edb4b5c72f2915685598490c375e996020604051348152a3610cf5565b3403348111610ee1578380808093335af1610e9c611943565b5015610ea85738610e51565b60405162461bcd60e51b8152602060048201526011602482015270115512081c99599d5b990819985a5b1959607a1b6044820152606490fd5b634e487b7160e01b84526011600452602484fd5b60405162461bcd60e51b815260206004820152601860248201527f496e636f7272656374204554482066656520616d6f756e7400000000000000006044820152606490fd5b610f5c915060203d602011610f62575b610f5481836116c7565b810190611776565b386103eb565b503d610f4a565b9091506020813d602011610f95575b81610f85602093836116c7565b81010312610e1c575190386103bd565b3d9150610f78565b90506020813d602011610fd7575b81610fb8602093836116c7565b81010312610a6557516001600160a01b0381168103610a65573861038e565b3d9150610fab565b610ff69150823d8411610aa257610a9481836116c7565b38610362565b60405162461bcd60e51b815260206004820152601d60248201527f537461626c65636f696e206973206e6f742077686974656c69737465640000006044820152606490fd5b61105a915060203d602011610f6257610f5481836116c7565b38610309565b606460405162461bcd60e51b815260206004820152602060248201527f4e6f742076616c696420746f20637265617465205772617070656420536f6e676044820152fd5b6110bd915060203d602011610f6257610f5481836116c7565b386102aa565b60405162461bcd60e51b815260206004820152602760248201527f53686172657320616d6f756e74206d7573742062652067726561746572207468604482015266616e207a65726f60c81b6064820152608490fd5b60405162461bcd60e51b815260206004820152601060248201526f496e76616c6964206d6574616461746160801b6044820152606490fd5b90505151151538610249565b51511515915038610242565b5151151592503861023b565b60405162461bcd60e51b8152602060048201526012602482015271141c9bdd1bd8dbdb081a5cc81c185d5cd95960721b6044820152606490fd5b6111c7915060203d602011610f6257610f5481836116c7565b3861022a565b6040513d89823e3d90fd5b8680fd5b5034610a0f576020366003190112610a0f576020906040906001600160a01b03611204611668565b168152600183522054604051908152f35b5034610a0f576020366003190112610a0f5761122f611668565b61123761174a565b6001600160a01b039081169081156112825782546001600160a01b0319811683178455167f8be0079c531659141344cd1fd0a4f28419497f9722a3daafe3b4186f6b6457e08380a380f35b604051631e4fbdf760e01b815260048101849052602490fd5b5034610a0f5780600319360112610a0f57546040516001600160a01b039091168152602090f35b5034610a0f5780600319360112610a0f576112db61174a565b80546001600160a01b03198116825581906001600160a01b03167f8be0079c531659141344cd1fd0a4f28419497f9722a3daafe3b4186f6b6457e08280a380f35b5034610a0f5780600319360112610a0f576040517f00000000000000000000000000000000000000000000000000000000000000006001600160a01b03168152602090f35b5034610a0f5780600319360112610a0f576040517f00000000000000000000000000000000000000000000000000000000000000006001600160a01b03168152602090f35b5034610a0f5780600319360112610a0f576040517f00000000000000000000000000000000000000000000000000000000000000006001600160a01b03168152602090f35b5034610a0f5780600319360112610a0f576002546040516001600160a01b039091168152602090f35b905034610a16576040366003190112610a165761142f611668565b602480356001600160a01b038181169492939091859003610dbe57638da5cb5b60e01b835260209283816004817f000000000000000000000000000000000000000000000000000000000000000087165afa80156111cd578391889161164b575b501633036115f95716918285526001825260408520549081156115c057838652600183528560408120558315600014611541578580808085895af16114d3611943565b50156115085750907f5e110f8bc8a20b65dcc87f224bdf1cc039346e267118bae2739847f07321ffa8915b604051908152a380f35b8260136064926040519262461bcd60e51b8452600484015282015272115512081d1c985b9cd9995c8819985a5b1959606a1b6044820152fd5b6040519063a9059cbb60e01b8483015285818301528260448301526044825260808201908282106001600160401b038311176115ae57507f5e110f8bc8a20b65dcc87f224bdf1cc039346e267118bae2739847f07321ffa89392916115a99160405285611973565b6114fe565b634e487b7160e01b8852604160045287fd5b8260136064926040519262461bcd60e51b84526004840152820152724e6f206665657320746f20776974686472617760681b6044820152fd5b60405162461bcd60e51b8152600481018490526025818601527f4f6e6c792070726f746f636f6c206f776e65722063616e207769746864726177604482015264206665657360d81b6064820152608490fd5b6116629150853d8711610aa257610a9481836116c7565b38611490565b600435906001600160a01b038216820361167e57565b600080fd5b60c081019081106001600160401b0382111761169e57604052565b634e487b7160e01b600052604160045260246000fd5b6001600160401b03811161169e57604052565b90601f801991011681019081106001600160401b0382111761169e57604052565b6001600160401b03811161169e57601f01601f191660200190565b81601f8201121561167e5780359061171a826116e8565b9261172860405194856116c7565b8284526020838301011161167e57816000926020809301838601378301015290565b6000546001600160a01b0316330361175e57565b60405163118cdaa760e01b8152336004820152602490fd5b9081602091031261167e5751801515810361167e5790565b9081602091031261167e57516001600160a01b038116810361167e5790565b60005b8381106117c05750506000910152565b81810151838201526020016117b0565b81601f8201121561167e5780516117e6816116e8565b926117f460405194856116c7565b8184526020828401011161167e5761181291602080850191016117ad565b90565b9060209161182e815180928185528580860191016117ad565b601f01601f1916010190565b6118129160a06118a761189561188361187161185f875160c0885260c0880190611815565b60208801518782036020890152611815565b60408701518682036040880152611815565b60608601518582036060870152611815565b60808501518482036080860152611815565b9201519060a0818403910152611815565b6e5af43d82803e903d91602b57fd5bf390763d602d80600a3d3981f3363d3d373d3d3d363d7300000062ffffff8260881c161760005260781b17602052603760096000f0906001600160a01b0382161561190e57565b6040516330be1a3d60e21b8152600490fd5b9190820180921161192d57565b634e487b7160e01b600052601160045260246000fd5b3d1561196e573d90611954826116e8565b9161196260405193846116c7565b82523d6000602084013e565b606090565b60008061199c9260018060a01b03169360208151910182865af1611995611943565b90836119e5565b80519081151591826119ca575b50506119b25750565b60249060405190635274afe760e01b82526004820152fd5b6119dd9250602080918301019101611776565b1538806119a9565b90611a0c57508051156119fa57805190602001fd5b604051630a12f52160e11b8152600490fd5b81511580611a3f575b611a1d575090565b604051639996b31560e01b81526001600160a01b039091166004820152602490fd5b50803b15611a1556fea2646970667358221220108184dd2f4f7b38ee4cff7c2a98860190d0f3e84c0d9b04952043fb794475af64736f6c63430008140033","opcodes":"PUSH1 0xE0 CALLVALUE PUSH3 0x17E JUMPI PUSH1 0x1F PUSH3 0x1C2D CODESIZE DUP2 SWAP1 SUB SWAP2 DUP3 ADD PUSH1 0x1F NOT AND DUP4 ADD SWAP2 PUSH1 0x1 PUSH1 0x1 PUSH1 0x40 SHL SUB DUP4 GT DUP5 DUP5 LT OR PUSH3 0x183 JUMPI DUP1 DUP5 SWAP3 PUSH1 0x60 SWAP5 PUSH1 0x40 MSTORE DUP4 CODECOPY DUP2 ADD SUB SLT PUSH3 0x17E JUMPI PUSH3 0x4D DUP2 PUSH3 0x199 JUMP JUMPDEST SWAP1 PUSH3 0x6A PUSH1 0x40 PUSH3 0x62 PUSH1 0x20 DUP5 ADD PUSH3 0x199 JUMP JUMPDEST SWAP3 ADD PUSH3 0x199 JUMP JUMPDEST CALLER ISZERO PUSH3 0x165 JUMPI PUSH1 0x0 DUP1 SLOAD CALLER PUSH1 0x1 PUSH1 0x1 PUSH1 0xA0 SHL SUB NOT DUP3 AND DUP2 OR DUP4 SSTORE PUSH1 0x40 MLOAD SWAP6 PUSH1 0x1 PUSH1 0x1 PUSH1 0xA0 SHL SUB SWAP6 SWAP4 SWAP1 SWAP3 DUP7 AND SWAP1 PUSH32 0x8BE0079C531659141344CD1FD0A4F28419497F9722A3DAAFE3B4186F6B6457E0 SWAP1 DUP1 LOG3 PUSH1 0xA0 MSTORE PUSH1 0xC0 MSTORE AND PUSH1 0x80 MSTORE PUSH2 0x1A7E SWAP1 DUP2 PUSH3 0x1AF DUP3 CODECOPY PUSH1 0x80 MLOAD DUP2 DUP2 DUP2 PUSH2 0x1F2 ADD MSTORE DUP2 DUP2 PUSH2 0x272 ADD MSTORE DUP2 DUP2 PUSH2 0x2D9 ADD MSTORE DUP2 DUP2 PUSH2 0x324 ADD MSTORE DUP2 DUP2 PUSH2 0x459 ADD MSTORE DUP2 DUP2 PUSH2 0x4FE ADD MSTORE DUP2 DUP2 PUSH2 0x543 ADD MSTORE DUP2 DUP2 PUSH2 0x59B ADD MSTORE DUP2 DUP2 PUSH2 0x5CF ADD MSTORE DUP2 DUP2 PUSH2 0x62C ADD MSTORE DUP2 DUP2 PUSH2 0x668 ADD MSTORE DUP2 DUP2 PUSH2 0x6C7 ADD MSTORE DUP2 DUP2 PUSH2 0x7A9 ADD MSTORE DUP2 DUP2 PUSH2 0xB8C ADD MSTORE DUP2 DUP2 PUSH2 0x1377 ADD MSTORE PUSH2 0x145E ADD MSTORE PUSH1 0xA0 MLOAD DUP2 DUP2 DUP2 PUSH2 0x3FA ADD MSTORE PUSH2 0x13BC ADD MSTORE PUSH1 0xC0 MLOAD DUP2 DUP2 DUP2 PUSH2 0x49F ADD MSTORE PUSH2 0x1332 ADD MSTORE RETURN JUMPDEST PUSH1 0x40 MLOAD PUSH4 0x1E4FBDF7 PUSH1 0xE0 SHL DUP2 MSTORE PUSH1 0x0 PUSH1 0x4 DUP3 ADD MSTORE PUSH1 0x24 SWAP1 REVERT JUMPDEST PUSH1 0x0 DUP1 REVERT JUMPDEST PUSH4 0x4E487B71 PUSH1 0xE0 SHL PUSH1 0x0 MSTORE PUSH1 0x41 PUSH1 0x4 MSTORE PUSH1 0x24 PUSH1 0x0 REVERT JUMPDEST MLOAD SWAP1 PUSH1 0x1 PUSH1 0x1 PUSH1 0xA0 SHL SUB DUP3 AND DUP3 SUB PUSH3 0x17E JUMPI JUMP INVALID PUSH1 0x80 DUP1 PUSH1 0x40 MSTORE PUSH1 0x4 CALLDATASIZE LT ISZERO PUSH2 0x1D JUMPI JUMPDEST POP CALLDATASIZE ISZERO PUSH2 0x1B JUMPI PUSH1 0x0 DUP1 REVERT JUMPDEST STOP JUMPDEST PUSH1 0x0 SWAP1 DUP2 CALLDATALOAD PUSH1 0xE0 SHR SWAP1 DUP2 PUSH4 0x376C1F07 EQ PUSH2 0x1414 JUMPI POP DUP1 PUSH4 0x3CD7BC95 EQ PUSH2 0x13EB JUMPI DUP1 PUSH4 0x3E22876B EQ PUSH2 0x13A6 JUMPI DUP1 PUSH4 0x5C42E667 EQ PUSH2 0x1361 JUMPI DUP1 PUSH4 0x5E63149F EQ PUSH2 0x131C JUMPI DUP1 PUSH4 0x715018A6 EQ PUSH2 0x12C2 JUMPI DUP1 PUSH4 0x8DA5CB5B EQ PUSH2 0x129B JUMPI DUP1 PUSH4 0xF2FDE38B EQ PUSH2 0x1215 JUMPI DUP1 PUSH4 0xFCF66664 EQ PUSH2 0x11DC JUMPI PUSH4 0xFF42536B SUB PUSH2 0xF JUMPI PUSH1 0x3 NOT PUSH1 0x80 CALLDATASIZE DUP3 ADD SLT PUSH2 0xA16 JUMPI PUSH2 0xA9 PUSH2 0x1668 JUMP JUMPDEST PUSH1 0x24 CALLDATALOAD SWAP2 PUSH1 0x1 PUSH1 0x1 PUSH1 0x40 SHL SUB DUP4 GT PUSH2 0xA65 JUMPI PUSH1 0xC0 SWAP1 DUP4 CALLDATASIZE SUB ADD SLT PUSH2 0xA12 JUMPI PUSH1 0x40 MLOAD SWAP2 PUSH2 0xD4 DUP4 PUSH2 0x1683 JUMP JUMPDEST DUP1 PUSH1 0x4 ADD CALLDATALOAD PUSH1 0x1 PUSH1 0x1 PUSH1 0x40 SHL SUB DUP2 GT PUSH2 0xE1C JUMPI PUSH2 0xF7 SWAP1 PUSH1 0x4 CALLDATASIZE SWAP2 DUP5 ADD ADD PUSH2 0x1703 JUMP JUMPDEST DUP4 MSTORE PUSH1 0x24 DUP2 ADD CALLDATALOAD PUSH1 0x1 PUSH1 0x1 PUSH1 0x40 SHL SUB DUP2 GT PUSH2 0xE1C JUMPI PUSH2 0x11C SWAP1 PUSH1 0x4 CALLDATASIZE SWAP2 DUP5 ADD ADD PUSH2 0x1703 JUMP JUMPDEST PUSH1 0x20 DUP5 ADD MSTORE PUSH1 0x44 DUP2 ADD CALLDATALOAD PUSH1 0x1 PUSH1 0x1 PUSH1 0x40 SHL SUB DUP2 GT PUSH2 0xE1C JUMPI PUSH2 0x144 SWAP1 PUSH1 0x4 CALLDATASIZE SWAP2 DUP5 ADD ADD PUSH2 0x1703 JUMP JUMPDEST SWAP1 PUSH1 0x40 DUP5 ADD SWAP2 DUP3 MSTORE PUSH1 0x64 DUP2 ADD CALLDATALOAD PUSH1 0x1 PUSH1 0x1 PUSH1 0x40 SHL SUB DUP2 GT PUSH2 0xDBE JUMPI PUSH2 0x16F SWAP1 PUSH1 0x4 CALLDATASIZE SWAP2 DUP5 ADD ADD PUSH2 0x1703 JUMP JUMPDEST PUSH1 0x60 DUP6 ADD MSTORE PUSH1 0x84 DUP2 ADD CALLDATALOAD PUSH1 0x1 PUSH1 0x1 PUSH1 0x40 SHL SUB DUP2 GT PUSH2 0xDBE JUMPI PUSH2 0x197 SWAP1 PUSH1 0x4 CALLDATASIZE SWAP2 DUP5 ADD ADD PUSH2 0x1703 JUMP JUMPDEST SWAP1 PUSH1 0x80 DUP6 ADD SWAP2 DUP3 MSTORE PUSH1 0xA4 DUP2 ADD CALLDATALOAD SWAP1 PUSH1 0x1 PUSH1 0x1 PUSH1 0x40 SHL SUB DUP3 GT PUSH2 0x11D8 JUMPI PUSH1 0x4 PUSH2 0x1C2 SWAP3 CALLDATASIZE SWAP3 ADD ADD PUSH2 0x1703 JUMP JUMPDEST PUSH1 0xA0 DUP6 ADD SWAP1 DUP2 MSTORE SWAP1 PUSH1 0x64 CALLDATALOAD PUSH1 0x1 PUSH1 0x1 PUSH1 0xA0 SHL SUB DUP2 AND SWAP1 SUB PUSH2 0xDBE JUMPI PUSH1 0x40 MLOAD PUSH4 0x5C975ABB PUSH1 0xE0 SHL DUP2 MSTORE PUSH1 0x20 DUP2 PUSH1 0x4 DUP2 PUSH32 0x0 PUSH1 0x1 PUSH1 0x1 PUSH1 0xA0 SHL SUB AND GAS STATICCALL SWAP1 DUP2 ISZERO PUSH2 0x11CD JUMPI DUP8 SWAP2 PUSH2 0x11AE JUMPI JUMPDEST POP PUSH2 0x1174 JUMPI DUP5 MLOAD MLOAD ISZERO ISZERO SWAP3 DUP4 PUSH2 0x1168 JUMPI JUMPDEST POP DUP3 PUSH2 0x115C JUMPI JUMPDEST POP DUP2 PUSH2 0x1150 JUMPI JUMPDEST POP ISZERO PUSH2 0x1118 JUMPI PUSH1 0x44 CALLDATALOAD ISZERO PUSH2 0x10C3 JUMPI PUSH1 0x40 MLOAD PUSH4 0xF140B55F PUSH1 0xE0 SHL DUP2 MSTORE CALLER PUSH1 0x4 DUP3 ADD MSTORE PUSH1 0x20 DUP2 PUSH1 0x24 DUP2 PUSH32 0x0 PUSH1 0x1 PUSH1 0x1 PUSH1 0xA0 SHL SUB AND GAS STATICCALL SWAP1 DUP2 ISZERO PUSH2 0xA71 JUMPI DUP5 SWAP2 PUSH2 0x10A4 JUMPI JUMPDEST POP ISZERO PUSH2 0x1060 JUMPI PUSH1 0x40 MLOAD PUSH4 0xB5AF090F PUSH1 0xE0 SHL DUP2 MSTORE PUSH1 0x1 PUSH1 0x1 PUSH1 0xA0 SHL SUB DUP3 DUP2 AND PUSH1 0x4 DUP4 ADD MSTORE PUSH1 0x20 SWAP1 DUP3 SWAP1 PUSH1 0x24 SWAP1 DUP3 SWAP1 PUSH32 0x0 AND GAS STATICCALL SWAP1 DUP2 ISZERO PUSH2 0xA71 JUMPI DUP5 SWAP2 PUSH2 0x1041 JUMPI JUMPDEST POP ISZERO PUSH2 0xFFC JUMPI PUSH1 0x40 MLOAD PUSH4 0x670D2969 PUSH1 0xE1 SHL DUP2 MSTORE PUSH1 0x20 DUP2 PUSH1 0x4 DUP2 PUSH32 0x0 PUSH1 0x1 PUSH1 0x1 PUSH1 0xA0 SHL SUB AND GAS STATICCALL SWAP1 DUP2 ISZERO PUSH2 0xA71 JUMPI PUSH1 0x4 SWAP2 PUSH1 0x20 SWAP2 DUP7 SWAP2 PUSH2 0xFDF JUMPI JUMPDEST POP PUSH1 0x40 MLOAD PUSH4 0x6D4726D9 PUSH1 0xE0 SHL DUP2 MSTORE SWAP3 DUP4 SWAP2 DUP3 SWAP1 PUSH1 0x1 PUSH1 0x1 PUSH1 0xA0 SHL SUB AND GAS STATICCALL SWAP1 DUP2 ISZERO PUSH2 0xA71 JUMPI DUP5 SWAP2 PUSH2 0xF9D JUMPI JUMPDEST POP PUSH1 0x40 MLOAD PUSH4 0xA4549129 PUSH1 0xE0 SHL DUP2 MSTORE SWAP1 PUSH1 0x20 DUP3 PUSH1 0x4 DUP2 PUSH1 0x1 PUSH1 0x1 PUSH1 0xA0 SHL SUB DUP6 AND GAS STATICCALL SWAP2 DUP3 ISZERO PUSH2 0xB34 JUMPI DUP6 SWAP3 PUSH2 0xF69 JUMPI JUMPDEST POP PUSH1 0x40 MLOAD PUSH4 0xD579E3F3 PUSH1 0xE0 SHL DUP2 MSTORE PUSH1 0x20 DUP2 PUSH1 0x4 DUP2 PUSH1 0x1 PUSH1 0x1 PUSH1 0xA0 SHL SUB DUP7 AND GAS STATICCALL SWAP1 DUP2 ISZERO PUSH2 0xDCA JUMPI DUP7 SWAP2 PUSH2 0xF3A JUMPI JUMPDEST POP DUP3 PUSH2 0xB3F JUMPI JUMPDEST POP POP POP PUSH2 0x41E PUSH32 0x0 PUSH2 0x18B8 JUMP JUMPDEST SWAP2 PUSH1 0x1 PUSH1 0x1 PUSH1 0xA0 SHL SUB DUP4 AND EXTCODESIZE ISZERO PUSH2 0xA65 JUMPI PUSH1 0x40 MLOAD PUSH4 0xC0C53B8B PUSH1 0xE0 SHL DUP2 MSTORE PUSH1 0x1 PUSH1 0x1 PUSH1 0xA0 SHL SUB DUP4 DUP2 AND PUSH1 0x4 DUP4 ADD MSTORE PUSH1 0x64 DUP1 CALLDATALOAD DUP3 AND PUSH1 0x24 DUP5 ADD MSTORE PUSH32 0x0 DUP3 AND PUSH1 0x44 DUP5 ADD MSTORE DUP7 SWAP2 DUP4 SWAP2 SWAP1 DUP3 SWAP1 DUP5 SWAP1 DUP10 AND GAS CALL DUP1 ISZERO PUSH2 0xB34 JUMPI PUSH2 0xB21 JUMPI JUMPDEST POP DUP4 SWAP1 PUSH2 0x4C3 PUSH32 0x0 PUSH2 0x18B8 JUMP JUMPDEST SWAP1 PUSH1 0x1 PUSH1 0x1 PUSH1 0xA0 SHL SUB DUP3 AND EXTCODESIZE ISZERO PUSH2 0xA12 JUMPI PUSH1 0x40 MLOAD PUSH4 0xC0C53B8B PUSH1 0xE0 SHL DUP2 MSTORE PUSH1 0x1 PUSH1 0x1 PUSH1 0xA0 SHL SUB DUP7 DUP2 AND PUSH1 0x4 DUP4 ADD MSTORE PUSH1 0x64 DUP1 CALLDATALOAD DUP3 AND PUSH1 0x24 DUP5 ADD MSTORE PUSH32 0x0 DUP3 AND PUSH1 0x44 DUP5 ADD MSTORE DUP6 SWAP2 DUP4 SWAP2 SWAP1 DUP3 SWAP1 DUP5 SWAP1 DUP9 AND GAS CALL SWAP1 DUP2 ISZERO PUSH2 0xA71 JUMPI DUP5 SWAP2 PUSH2 0xB0D JUMPI JUMPDEST POP POP PUSH32 0x0 PUSH1 0x1 PUSH1 0x1 PUSH1 0xA0 SHL SUB AND EXTCODESIZE ISZERO PUSH2 0xA12 JUMPI PUSH1 0x40 MLOAD PUSH4 0xD9CE7B95 PUSH1 0xE0 SHL DUP2 MSTORE PUSH1 0x1 PUSH1 0x1 PUSH1 0xA0 SHL SUB DUP4 DUP2 AND PUSH1 0x4 DUP4 ADD MSTORE DUP5 SWAP1 DUP3 SWAP1 PUSH1 0x24 SWAP1 DUP3 SWAP1 DUP5 SWAP1 PUSH32 0x0 AND GAS CALL SWAP1 DUP2 ISZERO PUSH2 0xA71 JUMPI DUP5 SWAP2 PUSH2 0xAF9 JUMPI JUMPDEST POP POP PUSH32 0x0 PUSH1 0x1 PUSH1 0x1 PUSH1 0xA0 SHL SUB AND EXTCODESIZE ISZERO PUSH2 0xA12 JUMPI PUSH1 0x40 MLOAD PUSH3 0x8AC83 PUSH1 0xE0 SHL DUP2 MSTORE PUSH1 0x1 PUSH1 0x1 PUSH1 0xA0 SHL SUB DUP1 DUP8 AND PUSH1 0x4 DUP4 ADD MSTORE DUP4 AND PUSH1 0x24 DUP3 ADD MSTORE DUP4 DUP2 DUP1 PUSH1 0x44 DUP2 ADD SUB DUP2 DUP4 PUSH32 0x0 PUSH1 0x1 PUSH1 0x1 PUSH1 0xA0 SHL SUB AND GAS CALL SWAP1 DUP2 ISZERO PUSH2 0xA71 JUMPI DUP5 SWAP2 PUSH2 0xAE5 JUMPI JUMPDEST POP POP PUSH32 0x0 PUSH1 0x1 PUSH1 0x1 PUSH1 0xA0 SHL SUB AND EXTCODESIZE ISZERO PUSH2 0xA12 JUMPI PUSH1 0x40 MLOAD PUSH1 0x1 PUSH3 0x16EF61 PUSH1 0xE3 SHL SUB NOT DUP2 MSTORE CALLER PUSH1 0x4 DUP3 ADD MSTORE PUSH1 0x1 PUSH1 0x1 PUSH1 0xA0 SHL SUB DUP7 AND PUSH1 0x24 DUP3 ADD MSTORE DUP4 DUP2 DUP1 PUSH1 0x44 DUP2 ADD SUB DUP2 DUP4 PUSH32 0x0 PUSH1 0x1 PUSH1 0x1 PUSH1 0xA0 SHL SUB AND GAS CALL SWAP1 DUP2 ISZERO PUSH2 0xA71 JUMPI DUP5 SWAP2 PUSH2 0xAD1 JUMPI JUMPDEST POP POP PUSH1 0x1 PUSH1 0x1 PUSH1 0xA0 SHL SUB DUP6 AND EXTCODESIZE ISZERO PUSH2 0xA12 JUMPI PUSH1 0x40 MLOAD PUSH4 0x716F6E87 PUSH1 0xE0 SHL DUP2 MSTORE PUSH1 0x1 PUSH1 0x1 PUSH1 0xA0 SHL SUB DUP4 DUP2 AND PUSH1 0x4 DUP4 ADD MSTORE DUP5 SWAP1 DUP3 SWAP1 PUSH1 0x24 SWAP1 DUP3 SWAP1 DUP5 SWAP1 DUP12 AND GAS CALL SWAP1 DUP2 ISZERO PUSH2 0xA71 JUMPI DUP5 SWAP2 PUSH2 0xABD JUMPI JUMPDEST POP POP PUSH1 0x1 PUSH1 0x1 PUSH1 0xA0 SHL SUB DUP6 AND EXTCODESIZE ISZERO PUSH2 0xA12 JUMPI PUSH1 0x40 MLOAD PUSH4 0x39FA62DF PUSH1 0xE0 SHL DUP2 MSTORE PUSH1 0x44 CALLDATALOAD PUSH1 0x4 DUP3 ADD MSTORE DUP4 DUP2 PUSH1 0x24 DUP2 DUP4 PUSH1 0x1 PUSH1 0x1 PUSH1 0xA0 SHL SUB DUP12 AND GAS CALL SWAP1 DUP2 ISZERO PUSH2 0xA71 JUMPI DUP5 SWAP2 PUSH2 0xAA9 JUMPI JUMPDEST POP POP PUSH1 0x40 MLOAD PUSH4 0x670D2969 PUSH1 0xE1 SHL DUP2 MSTORE PUSH1 0x20 DUP2 PUSH1 0x4 DUP2 PUSH32 0x0 PUSH1 0x1 PUSH1 0x1 PUSH1 0xA0 SHL SUB AND GAS STATICCALL SWAP1 DUP2 ISZERO PUSH2 0xA71 JUMPI PUSH1 0x4 SWAP2 PUSH1 0x20 SWAP2 DUP7 SWAP2 PUSH2 0xA7C JUMPI JUMPDEST POP PUSH1 0x40 MLOAD PUSH3 0x3684D1 PUSH1 0xE8 SHL DUP2 MSTORE SWAP3 DUP4 SWAP2 DUP3 SWAP1 PUSH1 0x1 PUSH1 0x1 PUSH1 0xA0 SHL SUB AND GAS STATICCALL DUP1 ISZERO PUSH2 0xA71 JUMPI DUP5 SWAP2 DUP3 SWAP2 PUSH2 0xA26 JUMPI JUMPDEST POP PUSH1 0x40 DUP1 MLOAD PUSH4 0x6613680D PUSH1 0xE0 SHL DUP2 MSTORE PUSH1 0x1 PUSH1 0x1 PUSH1 0xA0 SHL SUB DUP10 AND PUSH1 0x4 DUP3 ADD MSTORE PUSH1 0x24 DUP2 ADD SWAP2 SWAP1 SWAP2 MSTORE SWAP8 SWAP2 SWAP3 DUP9 SWAP3 DUP4 SWAP2 DUP3 SWAP1 PUSH2 0x850 SWAP1 PUSH1 0x44 DUP4 ADD SWAP1 PUSH2 0x183A JUMP JUMPDEST SUB SWAP3 PUSH1 0x1 PUSH1 0x1 PUSH1 0xA0 SHL SUB AND GAS CALL SWAP2 DUP3 ISZERO PUSH2 0xA1A JUMPI DUP1 SWAP3 PUSH2 0x8E9 JUMPI JUMPDEST POP PUSH1 0x20 SWAP5 POP PUSH1 0x40 MLOAD SWAP3 PUSH1 0x1 DUP1 PUSH1 0xA0 SHL SUB AND DUP4 MSTORE PUSH1 0x1 DUP1 PUSH1 0xA0 SHL SUB AND DUP5 DUP4 ADD MSTORE PUSH1 0x44 CALLDATALOAD PUSH1 0x40 DUP4 ADD MSTORE PUSH1 0x80 PUSH1 0x60 DUP4 ADD MSTORE PUSH32 0x938ECE1AB5D508D56896411E3F1B2C96359F780ECBFE90C9A4031CD170AA4A4A PUSH1 0x1 DUP1 PUSH1 0xA0 SHL SUB DUP5 AND SWAP3 DUP1 PUSH2 0x8D4 CALLER SWAP5 PUSH1 0x80 DUP4 ADD SWAP1 PUSH2 0x183A JUMP JUMPDEST SUB SWAP1 LOG3 PUSH1 0x40 MLOAD PUSH1 0x1 PUSH1 0x1 PUSH1 0xA0 SHL SUB SWAP1 SWAP2 AND DUP2 MSTORE RETURN JUMPDEST SWAP1 SWAP2 POP RETURNDATASIZE DUP1 DUP3 DUP8 RETURNDATACOPY PUSH2 0x8FB DUP2 DUP8 PUSH2 0x16C7 JUMP JUMPDEST DUP6 ADD SWAP5 PUSH1 0x20 DUP2 DUP8 SUB SLT PUSH2 0xA16 JUMPI DUP1 MLOAD SWAP1 PUSH1 0x1 PUSH1 0x1 PUSH1 0x40 SHL SUB DUP3 GT PUSH2 0xA12 JUMPI ADD SWAP1 PUSH1 0xC0 DUP3 DUP8 SUB SLT PUSH2 0xA0F JUMPI PUSH1 0x40 MLOAD SWAP2 PUSH2 0x932 DUP4 PUSH2 0x1683 JUMP JUMPDEST DUP1 MLOAD PUSH1 0x1 PUSH1 0x1 PUSH1 0x40 SHL SUB DUP2 GT PUSH2 0xA12 JUMPI DUP8 PUSH2 0x94E SWAP2 DUP4 ADD PUSH2 0x17D0 JUMP JUMPDEST DUP4 MSTORE PUSH1 0x20 DUP2 ADD MLOAD PUSH1 0x1 PUSH1 0x1 PUSH1 0x40 SHL SUB DUP2 GT PUSH2 0xA12 JUMPI DUP8 PUSH2 0x96F SWAP2 DUP4 ADD PUSH2 0x17D0 JUMP JUMPDEST PUSH1 0x20 DUP5 ADD MSTORE PUSH1 0x40 DUP2 ADD MLOAD PUSH1 0x1 PUSH1 0x1 PUSH1 0x40 SHL SUB DUP2 GT PUSH2 0xA12 JUMPI DUP8 PUSH2 0x993 SWAP2 DUP4 ADD PUSH2 0x17D0 JUMP JUMPDEST PUSH1 0x40 DUP5 ADD MSTORE PUSH1 0x60 DUP2 ADD MLOAD PUSH1 0x1 PUSH1 0x1 PUSH1 0x40 SHL SUB DUP2 GT PUSH2 0xA12 JUMPI DUP8 PUSH2 0x9B7 SWAP2 DUP4 ADD PUSH2 0x17D0 JUMP JUMPDEST PUSH1 0x60 DUP5 ADD MSTORE PUSH1 0x80 DUP2 ADD MLOAD PUSH1 0x1 PUSH1 0x1 PUSH1 0x40 SHL SUB DUP2 GT PUSH2 0xA12 JUMPI DUP8 PUSH2 0x9DB SWAP2 DUP4 ADD PUSH2 0x17D0 JUMP JUMPDEST PUSH1 0x80 DUP5 ADD MSTORE PUSH1 0xA0 DUP2 ADD MLOAD SWAP2 PUSH1 0x1 PUSH1 0x1 PUSH1 0x40 SHL SUB DUP4 GT PUSH2 0xA0F JUMPI POP SWAP6 PUSH2 0xA03 SWAP2 PUSH1 0x20 SWAP8 ADD PUSH2 0x17D0 JUMP JUMPDEST PUSH1 0xA0 DUP3 ADD MSTORE SWAP1 CODESIZE PUSH2 0x86B JUMP JUMPDEST DUP1 REVERT JUMPDEST DUP3 DUP1 REVERT JUMPDEST POP DUP1 REVERT JUMPDEST PUSH1 0x40 MLOAD SWAP1 RETURNDATASIZE SWAP1 DUP3 RETURNDATACOPY RETURNDATASIZE SWAP1 REVERT JUMPDEST SWAP2 POP POP PUSH1 0x20 DUP2 RETURNDATASIZE PUSH1 0x20 GT PUSH2 0xA69 JUMPI JUMPDEST DUP2 PUSH2 0xA42 PUSH1 0x20 SWAP4 DUP4 PUSH2 0x16C7 JUMP JUMPDEST DUP2 ADD SUB SLT PUSH2 0xA65 JUMPI MLOAD PUSH1 0x1 PUSH1 0x1 PUSH1 0xA0 SHL SUB DUP2 AND DUP2 SUB PUSH2 0xA65 JUMPI DUP4 SWAP1 PUSH2 0x850 PUSH2 0x813 JUMP JUMPDEST DUP4 DUP1 REVERT JUMPDEST RETURNDATASIZE SWAP2 POP PUSH2 0xA35 JUMP JUMPDEST PUSH1 0x40 MLOAD RETURNDATASIZE DUP7 DUP3 RETURNDATACOPY RETURNDATASIZE SWAP1 REVERT JUMPDEST PUSH2 0xA9C SWAP2 POP DUP3 RETURNDATASIZE DUP5 GT PUSH2 0xAA2 JUMPI JUMPDEST PUSH2 0xA94 DUP2 DUP4 PUSH2 0x16C7 JUMP JUMPDEST DUP2 ADD SWAP1 PUSH2 0x178E JUMP JUMPDEST CODESIZE PUSH2 0x7E7 JUMP JUMPDEST POP RETURNDATASIZE PUSH2 0xA8A JUMP JUMPDEST PUSH2 0xAB2 SWAP1 PUSH2 0x16B4 JUMP JUMPDEST PUSH2 0xA12 JUMPI DUP3 CODESIZE PUSH2 0x792 JUMP JUMPDEST PUSH2 0xAC6 SWAP1 PUSH2 0x16B4 JUMP JUMPDEST PUSH2 0xA12 JUMPI DUP3 CODESIZE PUSH2 0x74B JUMP JUMPDEST PUSH2 0xADA SWAP1 PUSH2 0x16B4 JUMP JUMPDEST PUSH2 0xA12 JUMPI DUP3 CODESIZE PUSH2 0x6FF JUMP JUMPDEST PUSH2 0xAEE SWAP1 PUSH2 0x16B4 JUMP JUMPDEST PUSH2 0xA12 JUMPI DUP3 CODESIZE PUSH2 0x664 JUMP JUMPDEST PUSH2 0xB02 SWAP1 PUSH2 0x16B4 JUMP JUMPDEST PUSH2 0xA12 JUMPI DUP3 CODESIZE PUSH2 0x5CB JUMP JUMPDEST PUSH2 0xB16 SWAP1 PUSH2 0x16B4 JUMP JUMPDEST PUSH2 0xA12 JUMPI DUP3 CODESIZE PUSH2 0x53F JUMP JUMPDEST PUSH2 0xB2D SWAP1 SWAP5 SWAP2 SWAP5 PUSH2 0x16B4 JUMP JUMPDEST SWAP3 CODESIZE PUSH2 0x497 JUMP JUMPDEST PUSH1 0x40 MLOAD RETURNDATASIZE DUP8 DUP3 RETURNDATACOPY RETURNDATASIZE SWAP1 REVERT JUMPDEST ISZERO PUSH2 0xE28 JUMPI PUSH1 0x40 MLOAD PUSH4 0x37A0A9E9 PUSH1 0xE1 SHL DUP2 MSTORE SWAP1 PUSH1 0x20 SWAP1 DUP3 SWAP1 PUSH1 0x4 SWAP1 DUP3 SWAP1 PUSH1 0x1 PUSH1 0x1 PUSH1 0xA0 SHL SUB AND GAS STATICCALL SWAP1 DUP2 ISZERO PUSH2 0xB34 JUMPI DUP6 SWAP2 PUSH2 0xDF2 JUMPI JUMPDEST POP PUSH1 0x40 MLOAD PUSH4 0x670D2969 PUSH1 0xE1 SHL DUP2 MSTORE SWAP1 PUSH1 0x20 DUP3 PUSH1 0x4 DUP2 PUSH32 0x0 PUSH1 0x1 PUSH1 0x1 PUSH1 0xA0 SHL SUB AND GAS STATICCALL SWAP2 DUP3 ISZERO PUSH2 0xDCA JUMPI PUSH1 0x4 SWAP3 PUSH1 0x20 SWAP2 DUP9 SWAP2 PUSH2 0xDD5 JUMPI JUMPDEST POP PUSH1 0x40 MLOAD PUSH4 0x9DA4E51 PUSH1 0xE0 SHL DUP2 MSTORE SWAP4 DUP5 SWAP2 DUP3 SWAP1 PUSH1 0x1 PUSH1 0x1 PUSH1 0xA0 SHL SUB AND GAS STATICCALL SWAP2 DUP3 ISZERO PUSH2 0xDCA JUMPI DUP7 SWAP3 PUSH2 0xD81 JUMPI JUMPDEST POP PUSH1 0x40 MLOAD PUSH4 0x7C70C0A3 PUSH1 0xE0 SHL DUP2 MSTORE PUSH1 0x4 DUP2 ADD SWAP2 SWAP1 SWAP2 MSTORE SWAP1 PUSH1 0x20 SWAP1 DUP3 SWAP1 PUSH1 0x24 SWAP1 DUP3 SWAP1 PUSH1 0x1 PUSH1 0x1 PUSH1 0xA0 SHL SUB AND GAS STATICCALL SWAP1 DUP2 ISZERO PUSH2 0xB34 JUMPI DUP6 SWAP2 PUSH2 0xD62 JUMPI JUMPDEST POP PUSH1 0x1 PUSH1 0x1 PUSH1 0xA0 SHL SUB DUP2 AND ISZERO PUSH2 0xD11 JUMPI PUSH1 0x40 MLOAD PUSH4 0x23B872DD PUSH1 0xE0 SHL PUSH1 0x20 DUP3 ADD MSTORE CALLER PUSH1 0x24 DUP3 ADD MSTORE ADDRESS PUSH1 0x44 DUP3 ADD MSTORE DUP3 PUSH1 0x64 DUP3 ADD MSTORE PUSH1 0x64 DUP2 MSTORE DUP1 PUSH1 0xA0 DUP2 ADD LT PUSH1 0x1 PUSH1 0x1 PUSH1 0x40 SHL SUB PUSH1 0xA0 DUP4 ADD GT OR PUSH2 0xCFD JUMPI PUSH1 0xA0 DUP2 ADD PUSH1 0x40 MSTORE DUP6 SWAP2 PUSH32 0xDD872CA9502E175165673833AC2A0E1395EDB4B5C72F2915685598490C375E99 SWAP2 PUSH1 0x20 SWAP2 SWAP1 PUSH2 0xCC0 SWAP1 PUSH1 0x1 PUSH1 0x1 PUSH1 0xA0 SHL SUB DUP4 AND PUSH2 0x1973 JUMP JUMPDEST PUSH1 0x1 PUSH1 0x1 PUSH1 0xA0 SHL SUB DUP2 AND DUP5 MSTORE PUSH1 0x1 DUP3 MSTORE PUSH1 0x40 DUP5 KECCAK256 DUP1 SLOAD PUSH2 0xCE1 SWAP1 DUP8 SWAP1 PUSH2 0x1920 JUMP JUMPDEST SWAP1 SSTORE PUSH1 0x40 MLOAD SWAP5 DUP6 MSTORE PUSH1 0x1 PUSH1 0x1 PUSH1 0xA0 SHL SUB AND SWAP4 LOG3 JUMPDEST CODESIZE DUP1 DUP1 PUSH2 0x3F2 JUMP JUMPDEST PUSH4 0x4E487B71 PUSH1 0xE0 SHL DUP7 MSTORE PUSH1 0x41 PUSH1 0x4 MSTORE PUSH1 0x24 DUP7 REVERT JUMPDEST PUSH1 0x40 MLOAD PUSH3 0x461BCD PUSH1 0xE5 SHL DUP2 MSTORE PUSH1 0x20 PUSH1 0x4 DUP3 ADD MSTORE PUSH1 0x23 PUSH1 0x24 DUP3 ADD MSTORE PUSH32 0x4E6F2077686974656C697374656420737461626C65636F696E20617661696C61 PUSH1 0x44 DUP3 ADD MSTORE PUSH3 0x626C65 PUSH1 0xE8 SHL PUSH1 0x64 DUP3 ADD MSTORE PUSH1 0x84 SWAP1 REVERT JUMPDEST PUSH2 0xD7B SWAP2 POP PUSH1 0x20 RETURNDATASIZE PUSH1 0x20 GT PUSH2 0xAA2 JUMPI PUSH2 0xA94 DUP2 DUP4 PUSH2 0x16C7 JUMP JUMPDEST CODESIZE PUSH2 0xC30 JUMP JUMPDEST SWAP1 SWAP2 POP PUSH1 0x20 DUP2 RETURNDATASIZE PUSH1 0x20 GT PUSH2 0xDC2 JUMPI JUMPDEST DUP2 PUSH2 0xD9D PUSH1 0x20 SWAP4 DUP4 PUSH2 0x16C7 JUMP JUMPDEST DUP2 ADD SUB SLT PUSH2 0xDBE JUMPI MLOAD PUSH1 0x1 PUSH1 0x1 PUSH1 0xA0 SHL SUB DUP2 AND DUP2 SUB PUSH2 0xDBE JUMPI SWAP1 PUSH1 0x20 PUSH2 0xBF6 JUMP JUMPDEST DUP6 DUP1 REVERT JUMPDEST RETURNDATASIZE SWAP2 POP PUSH2 0xD90 JUMP JUMPDEST PUSH1 0x40 MLOAD RETURNDATASIZE DUP9 DUP3 RETURNDATACOPY RETURNDATASIZE SWAP1 REVERT JUMPDEST PUSH2 0xDEC SWAP2 POP DUP3 RETURNDATASIZE DUP5 GT PUSH2 0xAA2 JUMPI PUSH2 0xA94 DUP2 DUP4 PUSH2 0x16C7 JUMP JUMPDEST CODESIZE PUSH2 0xBCA JUMP JUMPDEST SWAP1 POP PUSH1 0x20 DUP2 RETURNDATASIZE PUSH1 0x20 GT PUSH2 0xE20 JUMPI JUMPDEST DUP2 PUSH2 0xE0D PUSH1 0x20 SWAP4 DUP4 PUSH2 0x16C7 JUMP JUMPDEST DUP2 ADD SUB SLT PUSH2 0xE1C JUMPI MLOAD CODESIZE PUSH2 0xB75 JUMP JUMPDEST DUP5 DUP1 REVERT JUMPDEST RETURNDATASIZE SWAP2 POP PUSH2 0xE00 JUMP JUMPDEST POP DUP1 CALLVALUE LT PUSH2 0xEF5 JUMPI DUP4 DUP1 MSTORE PUSH1 0x1 PUSH1 0x20 MSTORE PUSH1 0x40 DUP5 KECCAK256 PUSH2 0xE47 CALLVALUE DUP3 SLOAD PUSH2 0x1920 JUMP JUMPDEST SWAP1 SSTORE DUP1 CALLVALUE GT PUSH2 0xE83 JUMPI JUMPDEST POP DUP3 DUP1 PUSH32 0xDD872CA9502E175165673833AC2A0E1395EDB4B5C72F2915685598490C375E99 PUSH1 0x20 PUSH1 0x40 MLOAD CALLVALUE DUP2 MSTORE LOG3 PUSH2 0xCF5 JUMP JUMPDEST CALLVALUE SUB CALLVALUE DUP2 GT PUSH2 0xEE1 JUMPI DUP4 DUP1 DUP1 DUP1 SWAP4 CALLER GAS CALL PUSH2 0xE9C PUSH2 0x1943 JUMP JUMPDEST POP ISZERO PUSH2 0xEA8 JUMPI CODESIZE PUSH2 0xE51 JUMP JUMPDEST PUSH1 0x40 MLOAD PUSH3 0x461BCD PUSH1 0xE5 SHL DUP2 MSTORE PUSH1 0x20 PUSH1 0x4 DUP3 ADD MSTORE PUSH1 0x11 PUSH1 0x24 DUP3 ADD MSTORE PUSH17 0x115512081C99599D5B990819985A5B1959 PUSH1 0x7A SHL PUSH1 0x44 DUP3 ADD MSTORE PUSH1 0x64 SWAP1 REVERT JUMPDEST PUSH4 0x4E487B71 PUSH1 0xE0 SHL DUP5 MSTORE PUSH1 0x11 PUSH1 0x4 MSTORE PUSH1 0x24 DUP5 REVERT JUMPDEST PUSH1 0x40 MLOAD PUSH3 0x461BCD PUSH1 0xE5 SHL DUP2 MSTORE PUSH1 0x20 PUSH1 0x4 DUP3 ADD MSTORE PUSH1 0x18 PUSH1 0x24 DUP3 ADD MSTORE PUSH32 0x496E636F7272656374204554482066656520616D6F756E740000000000000000 PUSH1 0x44 DUP3 ADD MSTORE PUSH1 0x64 SWAP1 REVERT JUMPDEST PUSH2 0xF5C SWAP2 POP PUSH1 0x20 RETURNDATASIZE PUSH1 0x20 GT PUSH2 0xF62 JUMPI JUMPDEST PUSH2 0xF54 DUP2 DUP4 PUSH2 0x16C7 JUMP JUMPDEST DUP2 ADD SWAP1 PUSH2 0x1776 JUMP JUMPDEST CODESIZE PUSH2 0x3EB JUMP JUMPDEST POP RETURNDATASIZE PUSH2 0xF4A JUMP JUMPDEST SWAP1 SWAP2 POP PUSH1 0x20 DUP2 RETURNDATASIZE PUSH1 0x20 GT PUSH2 0xF95 JUMPI JUMPDEST DUP2 PUSH2 0xF85 PUSH1 0x20 SWAP4 DUP4 PUSH2 0x16C7 JUMP JUMPDEST DUP2 ADD SUB SLT PUSH2 0xE1C JUMPI MLOAD SWAP1 CODESIZE PUSH2 0x3BD JUMP JUMPDEST RETURNDATASIZE SWAP2 POP PUSH2 0xF78 JUMP JUMPDEST SWAP1 POP PUSH1 0x20 DUP2 RETURNDATASIZE PUSH1 0x20 GT PUSH2 0xFD7 JUMPI JUMPDEST DUP2 PUSH2 0xFB8 PUSH1 0x20 SWAP4 DUP4 PUSH2 0x16C7 JUMP JUMPDEST DUP2 ADD SUB SLT PUSH2 0xA65 JUMPI MLOAD PUSH1 0x1 PUSH1 0x1 PUSH1 0xA0 SHL SUB DUP2 AND DUP2 SUB PUSH2 0xA65 JUMPI CODESIZE PUSH2 0x38E JUMP JUMPDEST RETURNDATASIZE SWAP2 POP PUSH2 0xFAB JUMP JUMPDEST PUSH2 0xFF6 SWAP2 POP DUP3 RETURNDATASIZE DUP5 GT PUSH2 0xAA2 JUMPI PUSH2 0xA94 DUP2 DUP4 PUSH2 0x16C7 JUMP JUMPDEST CODESIZE PUSH2 0x362 JUMP JUMPDEST PUSH1 0x40 MLOAD PUSH3 0x461BCD PUSH1 0xE5 SHL DUP2 MSTORE PUSH1 0x20 PUSH1 0x4 DUP3 ADD MSTORE PUSH1 0x1D PUSH1 0x24 DUP3 ADD MSTORE PUSH32 0x537461626C65636F696E206973206E6F742077686974656C6973746564000000 PUSH1 0x44 DUP3 ADD MSTORE PUSH1 0x64 SWAP1 REVERT JUMPDEST PUSH2 0x105A SWAP2 POP PUSH1 0x20 RETURNDATASIZE PUSH1 0x20 GT PUSH2 0xF62 JUMPI PUSH2 0xF54 DUP2 DUP4 PUSH2 0x16C7 JUMP JUMPDEST CODESIZE PUSH2 0x309 JUMP JUMPDEST PUSH1 0x64 PUSH1 0x40 MLOAD PUSH3 0x461BCD PUSH1 0xE5 SHL DUP2 MSTORE PUSH1 0x20 PUSH1 0x4 DUP3 ADD MSTORE PUSH1 0x20 PUSH1 0x24 DUP3 ADD MSTORE PUSH32 0x4E6F742076616C696420746F20637265617465205772617070656420536F6E67 PUSH1 0x44 DUP3 ADD MSTORE REVERT JUMPDEST PUSH2 0x10BD SWAP2 POP PUSH1 0x20 RETURNDATASIZE PUSH1 0x20 GT PUSH2 0xF62 JUMPI PUSH2 0xF54 DUP2 DUP4 PUSH2 0x16C7 JUMP JUMPDEST CODESIZE PUSH2 0x2AA JUMP JUMPDEST PUSH1 0x40 MLOAD PUSH3 0x461BCD PUSH1 0xE5 SHL DUP2 MSTORE PUSH1 0x20 PUSH1 0x4 DUP3 ADD MSTORE PUSH1 0x27 PUSH1 0x24 DUP3 ADD MSTORE PUSH32 0x53686172657320616D6F756E74206D7573742062652067726561746572207468 PUSH1 0x44 DUP3 ADD MSTORE PUSH7 0x616E207A65726F PUSH1 0xC8 SHL PUSH1 0x64 DUP3 ADD MSTORE PUSH1 0x84 SWAP1 REVERT JUMPDEST PUSH1 0x40 MLOAD PUSH3 0x461BCD PUSH1 0xE5 SHL DUP2 MSTORE PUSH1 0x20 PUSH1 0x4 DUP3 ADD MSTORE PUSH1 0x10 PUSH1 0x24 DUP3 ADD MSTORE PUSH16 0x496E76616C6964206D65746164617461 PUSH1 0x80 SHL PUSH1 0x44 DUP3 ADD MSTORE PUSH1 0x64 SWAP1 REVERT JUMPDEST SWAP1 POP MLOAD MLOAD ISZERO ISZERO CODESIZE PUSH2 0x249 JUMP JUMPDEST MLOAD MLOAD ISZERO ISZERO SWAP2 POP CODESIZE PUSH2 0x242 JUMP JUMPDEST MLOAD MLOAD ISZERO ISZERO SWAP3 POP CODESIZE PUSH2 0x23B JUMP JUMPDEST PUSH1 0x40 MLOAD PUSH3 0x461BCD PUSH1 0xE5 SHL DUP2 MSTORE PUSH1 0x20 PUSH1 0x4 DUP3 ADD MSTORE PUSH1 0x12 PUSH1 0x24 DUP3 ADD MSTORE PUSH18 0x141C9BDD1BD8DBDB081A5CC81C185D5CD959 PUSH1 0x72 SHL PUSH1 0x44 DUP3 ADD MSTORE PUSH1 0x64 SWAP1 REVERT JUMPDEST PUSH2 0x11C7 SWAP2 POP PUSH1 0x20 RETURNDATASIZE PUSH1 0x20 GT PUSH2 0xF62 JUMPI PUSH2 0xF54 DUP2 DUP4 PUSH2 0x16C7 JUMP JUMPDEST CODESIZE PUSH2 0x22A JUMP JUMPDEST PUSH1 0x40 MLOAD RETURNDATASIZE DUP10 DUP3 RETURNDATACOPY RETURNDATASIZE SWAP1 REVERT JUMPDEST DUP7 DUP1 REVERT JUMPDEST POP CALLVALUE PUSH2 0xA0F JUMPI PUSH1 0x20 CALLDATASIZE PUSH1 0x3 NOT ADD SLT PUSH2 0xA0F JUMPI PUSH1 0x20 SWAP1 PUSH1 0x40 SWAP1 PUSH1 0x1 PUSH1 0x1 PUSH1 0xA0 SHL SUB PUSH2 0x1204 PUSH2 0x1668 JUMP JUMPDEST AND DUP2 MSTORE PUSH1 0x1 DUP4 MSTORE KECCAK256 SLOAD PUSH1 0x40 MLOAD SWAP1 DUP2 MSTORE RETURN JUMPDEST POP CALLVALUE PUSH2 0xA0F JUMPI PUSH1 0x20 CALLDATASIZE PUSH1 0x3 NOT ADD SLT PUSH2 0xA0F JUMPI PUSH2 0x122F PUSH2 0x1668 JUMP JUMPDEST PUSH2 0x1237 PUSH2 0x174A JUMP JUMPDEST PUSH1 0x1 PUSH1 0x1 PUSH1 0xA0 SHL SUB SWAP1 DUP2 AND SWAP1 DUP2 ISZERO PUSH2 0x1282 JUMPI DUP3 SLOAD PUSH1 0x1 PUSH1 0x1 PUSH1 0xA0 SHL SUB NOT DUP2 AND DUP4 OR DUP5 SSTORE AND PUSH32 0x8BE0079C531659141344CD1FD0A4F28419497F9722A3DAAFE3B4186F6B6457E0 DUP4 DUP1 LOG3 DUP1 RETURN JUMPDEST PUSH1 0x40 MLOAD PUSH4 0x1E4FBDF7 PUSH1 0xE0 SHL DUP2 MSTORE PUSH1 0x4 DUP2 ADD DUP5 SWAP1 MSTORE PUSH1 0x24 SWAP1 REVERT JUMPDEST POP CALLVALUE PUSH2 0xA0F JUMPI DUP1 PUSH1 0x3 NOT CALLDATASIZE ADD SLT PUSH2 0xA0F JUMPI SLOAD PUSH1 0x40 MLOAD PUSH1 0x1 PUSH1 0x1 PUSH1 0xA0 SHL SUB SWAP1 SWAP2 AND DUP2 MSTORE PUSH1 0x20 SWAP1 RETURN JUMPDEST POP CALLVALUE PUSH2 0xA0F JUMPI DUP1 PUSH1 0x3 NOT CALLDATASIZE ADD SLT PUSH2 0xA0F JUMPI PUSH2 0x12DB PUSH2 0x174A JUMP JUMPDEST DUP1 SLOAD PUSH1 0x1 PUSH1 0x1 PUSH1 0xA0 SHL SUB NOT DUP2 AND DUP3 SSTORE DUP2 SWAP1 PUSH1 0x1 PUSH1 0x1 PUSH1 0xA0 SHL SUB AND PUSH32 0x8BE0079C531659141344CD1FD0A4F28419497F9722A3DAAFE3B4186F6B6457E0 DUP3 DUP1 LOG3 DUP1 RETURN JUMPDEST POP CALLVALUE PUSH2 0xA0F JUMPI DUP1 PUSH1 0x3 NOT CALLDATASIZE ADD SLT PUSH2 0xA0F JUMPI PUSH1 0x40 MLOAD PUSH32 0x0 PUSH1 0x1 PUSH1 0x1 PUSH1 0xA0 SHL SUB AND DUP2 MSTORE PUSH1 0x20 SWAP1 RETURN JUMPDEST POP CALLVALUE PUSH2 0xA0F JUMPI DUP1 PUSH1 0x3 NOT CALLDATASIZE ADD SLT PUSH2 0xA0F JUMPI PUSH1 0x40 MLOAD PUSH32 0x0 PUSH1 0x1 PUSH1 0x1 PUSH1 0xA0 SHL SUB AND DUP2 MSTORE PUSH1 0x20 SWAP1 RETURN JUMPDEST POP CALLVALUE PUSH2 0xA0F JUMPI DUP1 PUSH1 0x3 NOT CALLDATASIZE ADD SLT PUSH2 0xA0F JUMPI PUSH1 0x40 MLOAD PUSH32 0x0 PUSH1 0x1 PUSH1 0x1 PUSH1 0xA0 SHL SUB AND DUP2 MSTORE PUSH1 0x20 SWAP1 RETURN JUMPDEST POP CALLVALUE PUSH2 0xA0F JUMPI DUP1 PUSH1 0x3 NOT CALLDATASIZE ADD SLT PUSH2 0xA0F JUMPI PUSH1 0x2 SLOAD PUSH1 0x40 MLOAD PUSH1 0x1 PUSH1 0x1 PUSH1 0xA0 SHL SUB SWAP1 SWAP2 AND DUP2 MSTORE PUSH1 0x20 SWAP1 RETURN JUMPDEST SWAP1 POP CALLVALUE PUSH2 0xA16 JUMPI PUSH1 0x40 CALLDATASIZE PUSH1 0x3 NOT ADD SLT PUSH2 0xA16 JUMPI PUSH2 0x142F PUSH2 0x1668 JUMP JUMPDEST PUSH1 0x24 DUP1 CALLDATALOAD PUSH1 0x1 PUSH1 0x1 PUSH1 0xA0 SHL SUB DUP2 DUP2 AND SWAP5 SWAP3 SWAP4 SWAP1 SWAP2 DUP6 SWAP1 SUB PUSH2 0xDBE JUMPI PUSH4 0x8DA5CB5B PUSH1 0xE0 SHL DUP4 MSTORE PUSH1 0x20 SWAP3 DUP4 DUP2 PUSH1 0x4 DUP2 PUSH32 0x0 DUP8 AND GAS STATICCALL DUP1 ISZERO PUSH2 0x11CD JUMPI DUP4 SWAP2 DUP9 SWAP2 PUSH2 0x164B JUMPI JUMPDEST POP AND CALLER SUB PUSH2 0x15F9 JUMPI AND SWAP2 DUP3 DUP6 MSTORE PUSH1 0x1 DUP3 MSTORE PUSH1 0x40 DUP6 KECCAK256 SLOAD SWAP1 DUP2 ISZERO PUSH2 0x15C0 JUMPI DUP4 DUP7 MSTORE PUSH1 0x1 DUP4 MSTORE DUP6 PUSH1 0x40 DUP2 KECCAK256 SSTORE DUP4 ISZERO PUSH1 0x0 EQ PUSH2 0x1541 JUMPI DUP6 DUP1 DUP1 DUP1 DUP6 DUP10 GAS CALL PUSH2 0x14D3 PUSH2 0x1943 JUMP JUMPDEST POP ISZERO PUSH2 0x1508 JUMPI POP SWAP1 PUSH32 0x5E110F8BC8A20B65DCC87F224BDF1CC039346E267118BAE2739847F07321FFA8 SWAP2 JUMPDEST PUSH1 0x40 MLOAD SWAP1 DUP2 MSTORE LOG3 DUP1 RETURN JUMPDEST DUP3 PUSH1 0x13 PUSH1 0x64 SWAP3 PUSH1 0x40 MLOAD SWAP3 PUSH3 0x461BCD PUSH1 0xE5 SHL DUP5 MSTORE PUSH1 0x4 DUP5 ADD MSTORE DUP3 ADD MSTORE PUSH19 0x115512081D1C985B9CD9995C8819985A5B1959 PUSH1 0x6A SHL PUSH1 0x44 DUP3 ADD MSTORE REVERT JUMPDEST PUSH1 0x40 MLOAD SWAP1 PUSH4 0xA9059CBB PUSH1 0xE0 SHL DUP5 DUP4 ADD MSTORE DUP6 DUP2 DUP4 ADD MSTORE DUP3 PUSH1 0x44 DUP4 ADD MSTORE PUSH1 0x44 DUP3 MSTORE PUSH1 0x80 DUP3 ADD SWAP1 DUP3 DUP3 LT PUSH1 0x1 PUSH1 0x1 PUSH1 0x40 SHL SUB DUP4 GT OR PUSH2 0x15AE JUMPI POP PUSH32 0x5E110F8BC8A20B65DCC87F224BDF1CC039346E267118BAE2739847F07321FFA8 SWAP4 SWAP3 SWAP2 PUSH2 0x15A9 SWAP2 PUSH1 0x40 MSTORE DUP6 PUSH2 0x1973 JUMP JUMPDEST PUSH2 0x14FE JUMP JUMPDEST PUSH4 0x4E487B71 PUSH1 0xE0 SHL DUP9 MSTORE PUSH1 0x41 PUSH1 0x4 MSTORE DUP8 REVERT JUMPDEST DUP3 PUSH1 0x13 PUSH1 0x64 SWAP3 PUSH1 0x40 MLOAD SWAP3 PUSH3 0x461BCD PUSH1 0xE5 SHL DUP5 MSTORE PUSH1 0x4 DUP5 ADD MSTORE DUP3 ADD MSTORE PUSH19 0x4E6F206665657320746F207769746864726177 PUSH1 0x68 SHL PUSH1 0x44 DUP3 ADD MSTORE REVERT JUMPDEST PUSH1 0x40 MLOAD PUSH3 0x461BCD PUSH1 0xE5 SHL DUP2 MSTORE PUSH1 0x4 DUP2 ADD DUP5 SWAP1 MSTORE PUSH1 0x25 DUP2 DUP7 ADD MSTORE PUSH32 0x4F6E6C792070726F746F636F6C206F776E65722063616E207769746864726177 PUSH1 0x44 DUP3 ADD MSTORE PUSH5 0x2066656573 PUSH1 0xD8 SHL PUSH1 0x64 DUP3 ADD MSTORE PUSH1 0x84 SWAP1 REVERT JUMPDEST PUSH2 0x1662 SWAP2 POP DUP6 RETURNDATASIZE DUP8 GT PUSH2 0xAA2 JUMPI PUSH2 0xA94 DUP2 DUP4 PUSH2 0x16C7 JUMP JUMPDEST CODESIZE PUSH2 0x1490 JUMP JUMPDEST PUSH1 0x4 CALLDATALOAD SWAP1 PUSH1 0x1 PUSH1 0x1 PUSH1 0xA0 SHL SUB DUP3 AND DUP3 SUB PUSH2 0x167E JUMPI JUMP JUMPDEST PUSH1 0x0 DUP1 REVERT JUMPDEST PUSH1 0xC0 DUP2 ADD SWAP1 DUP2 LT PUSH1 0x1 PUSH1 0x1 PUSH1 0x40 SHL SUB DUP3 GT OR PUSH2 0x169E JUMPI PUSH1 0x40 MSTORE JUMP JUMPDEST PUSH4 0x4E487B71 PUSH1 0xE0 SHL PUSH1 0x0 MSTORE PUSH1 0x41 PUSH1 0x4 MSTORE PUSH1 0x24 PUSH1 0x0 REVERT JUMPDEST PUSH1 0x1 PUSH1 0x1 PUSH1 0x40 SHL SUB DUP2 GT PUSH2 0x169E JUMPI PUSH1 0x40 MSTORE JUMP JUMPDEST SWAP1 PUSH1 0x1F DUP1 NOT SWAP2 ADD AND DUP2 ADD SWAP1 DUP2 LT PUSH1 0x1 PUSH1 0x1 PUSH1 0x40 SHL SUB DUP3 GT OR PUSH2 0x169E JUMPI PUSH1 0x40 MSTORE JUMP JUMPDEST PUSH1 0x1 PUSH1 0x1 PUSH1 0x40 SHL SUB DUP2 GT PUSH2 0x169E JUMPI PUSH1 0x1F ADD PUSH1 0x1F NOT AND PUSH1 0x20 ADD SWAP1 JUMP JUMPDEST DUP2 PUSH1 0x1F DUP3 ADD SLT ISZERO PUSH2 0x167E JUMPI DUP1 CALLDATALOAD SWAP1 PUSH2 0x171A DUP3 PUSH2 0x16E8 JUMP JUMPDEST SWAP3 PUSH2 0x1728 PUSH1 0x40 MLOAD SWAP5 DUP6 PUSH2 0x16C7 JUMP JUMPDEST DUP3 DUP5 MSTORE PUSH1 0x20 DUP4 DUP4 ADD ADD GT PUSH2 0x167E JUMPI DUP2 PUSH1 0x0 SWAP3 PUSH1 0x20 DUP1 SWAP4 ADD DUP4 DUP7 ADD CALLDATACOPY DUP4 ADD ADD MSTORE SWAP1 JUMP JUMPDEST PUSH1 0x0 SLOAD PUSH1 0x1 PUSH1 0x1 PUSH1 0xA0 SHL SUB AND CALLER SUB PUSH2 0x175E JUMPI JUMP JUMPDEST PUSH1 0x40 MLOAD PUSH4 0x118CDAA7 PUSH1 0xE0 SHL DUP2 MSTORE CALLER PUSH1 0x4 DUP3 ADD MSTORE PUSH1 0x24 SWAP1 REVERT JUMPDEST SWAP1 DUP2 PUSH1 0x20 SWAP2 SUB SLT PUSH2 0x167E JUMPI MLOAD DUP1 ISZERO ISZERO DUP2 SUB PUSH2 0x167E JUMPI SWAP1 JUMP JUMPDEST SWAP1 DUP2 PUSH1 0x20 SWAP2 SUB SLT PUSH2 0x167E JUMPI MLOAD PUSH1 0x1 PUSH1 0x1 PUSH1 0xA0 SHL SUB DUP2 AND DUP2 SUB PUSH2 0x167E JUMPI SWAP1 JUMP JUMPDEST PUSH1 0x0 JUMPDEST DUP4 DUP2 LT PUSH2 0x17C0 JUMPI POP POP PUSH1 0x0 SWAP2 ADD MSTORE JUMP JUMPDEST DUP2 DUP2 ADD MLOAD DUP4 DUP3 ADD MSTORE PUSH1 0x20 ADD PUSH2 0x17B0 JUMP JUMPDEST DUP2 PUSH1 0x1F DUP3 ADD SLT ISZERO PUSH2 0x167E JUMPI DUP1 MLOAD PUSH2 0x17E6 DUP2 PUSH2 0x16E8 JUMP JUMPDEST SWAP3 PUSH2 0x17F4 PUSH1 0x40 MLOAD SWAP5 DUP6 PUSH2 0x16C7 JUMP JUMPDEST DUP2 DUP5 MSTORE PUSH1 0x20 DUP3 DUP5 ADD ADD GT PUSH2 0x167E JUMPI PUSH2 0x1812 SWAP2 PUSH1 0x20 DUP1 DUP6 ADD SWAP2 ADD PUSH2 0x17AD JUMP JUMPDEST SWAP1 JUMP JUMPDEST SWAP1 PUSH1 0x20 SWAP2 PUSH2 0x182E DUP2 MLOAD DUP1 SWAP3 DUP2 DUP6 MSTORE DUP6 DUP1 DUP7 ADD SWAP2 ADD PUSH2 0x17AD JUMP JUMPDEST PUSH1 0x1F ADD PUSH1 0x1F NOT AND ADD ADD SWAP1 JUMP JUMPDEST PUSH2 0x1812 SWAP2 PUSH1 0xA0 PUSH2 0x18A7 PUSH2 0x1895 PUSH2 0x1883 PUSH2 0x1871 PUSH2 0x185F DUP8 MLOAD PUSH1 0xC0 DUP9 MSTORE PUSH1 0xC0 DUP9 ADD SWAP1 PUSH2 0x1815 JUMP JUMPDEST PUSH1 0x20 DUP9 ADD MLOAD DUP8 DUP3 SUB PUSH1 0x20 DUP10 ADD MSTORE PUSH2 0x1815 JUMP JUMPDEST PUSH1 0x40 DUP8 ADD MLOAD DUP7 DUP3 SUB PUSH1 0x40 DUP9 ADD MSTORE PUSH2 0x1815 JUMP JUMPDEST PUSH1 0x60 DUP7 ADD MLOAD DUP6 DUP3 SUB PUSH1 0x60 DUP8 ADD MSTORE PUSH2 0x1815 JUMP JUMPDEST PUSH1 0x80 DUP6 ADD MLOAD DUP5 DUP3 SUB PUSH1 0x80 DUP7 ADD MSTORE PUSH2 0x1815 JUMP JUMPDEST SWAP3 ADD MLOAD SWAP1 PUSH1 0xA0 DUP2 DUP5 SUB SWAP2 ADD MSTORE PUSH2 0x1815 JUMP JUMPDEST PUSH15 0x5AF43D82803E903D91602B57FD5BF3 SWAP1 PUSH23 0x3D602D80600A3D3981F3363D3D373D3D3D363D73000000 PUSH3 0xFFFFFF DUP3 PUSH1 0x88 SHR AND OR PUSH1 0x0 MSTORE PUSH1 0x78 SHL OR PUSH1 0x20 MSTORE PUSH1 0x37 PUSH1 0x9 PUSH1 0x0 CREATE SWAP1 PUSH1 0x1 PUSH1 0x1 PUSH1 0xA0 SHL SUB DUP3 AND ISZERO PUSH2 0x190E JUMPI JUMP JUMPDEST PUSH1 0x40 MLOAD PUSH4 0x30BE1A3D PUSH1 0xE2 SHL DUP2 MSTORE PUSH1 0x4 SWAP1 REVERT JUMPDEST SWAP2 SWAP1 DUP3 ADD DUP1 SWAP3 GT PUSH2 0x192D JUMPI JUMP JUMPDEST PUSH4 0x4E487B71 PUSH1 0xE0 SHL PUSH1 0x0 MSTORE PUSH1 0x11 PUSH1 0x4 MSTORE PUSH1 0x24 PUSH1 0x0 REVERT JUMPDEST RETURNDATASIZE ISZERO PUSH2 0x196E JUMPI RETURNDATASIZE SWAP1 PUSH2 0x1954 DUP3 PUSH2 0x16E8 JUMP JUMPDEST SWAP2 PUSH2 0x1962 PUSH1 0x40 MLOAD SWAP4 DUP5 PUSH2 0x16C7 JUMP JUMPDEST DUP3 MSTORE RETURNDATASIZE PUSH1 0x0 PUSH1 0x20 DUP5 ADD RETURNDATACOPY JUMP JUMPDEST PUSH1 0x60 SWAP1 JUMP JUMPDEST PUSH1 0x0 DUP1 PUSH2 0x199C SWAP3 PUSH1 0x1 DUP1 PUSH1 0xA0 SHL SUB AND SWAP4 PUSH1 0x20 DUP2 MLOAD SWAP2 ADD DUP3 DUP7 GAS CALL PUSH2 0x1995 PUSH2 0x1943 JUMP JUMPDEST SWAP1 DUP4 PUSH2 0x19E5 JUMP JUMPDEST DUP1 MLOAD SWAP1 DUP2 ISZERO ISZERO SWAP2 DUP3 PUSH2 0x19CA JUMPI JUMPDEST POP POP PUSH2 0x19B2 JUMPI POP JUMP JUMPDEST PUSH1 0x24 SWAP1 PUSH1 0x40 MLOAD SWAP1 PUSH4 0x5274AFE7 PUSH1 0xE0 SHL DUP3 MSTORE PUSH1 0x4 DUP3 ADD MSTORE REVERT JUMPDEST PUSH2 0x19DD SWAP3 POP PUSH1 0x20 DUP1 SWAP2 DUP4 ADD ADD SWAP2 ADD PUSH2 0x1776 JUMP JUMPDEST ISZERO CODESIZE DUP1 PUSH2 0x19A9 JUMP JUMPDEST SWAP1 PUSH2 0x1A0C JUMPI POP DUP1 MLOAD ISZERO PUSH2 0x19FA JUMPI DUP1 MLOAD SWAP1 PUSH1 0x20 ADD REVERT JUMPDEST PUSH1 0x40 MLOAD PUSH4 0xA12F521 PUSH1 0xE1 SHL DUP2 MSTORE PUSH1 0x4 SWAP1 REVERT JUMPDEST DUP2 MLOAD ISZERO DUP1 PUSH2 0x1A3F JUMPI JUMPDEST PUSH2 0x1A1D JUMPI POP SWAP1 JUMP JUMPDEST PUSH1 0x40 MLOAD PUSH4 0x9996B315 PUSH1 0xE0 SHL DUP2 MSTORE PUSH1 0x1 PUSH1 0x1 PUSH1 0xA0 SHL SUB SWAP1 SWAP2 AND PUSH1 0x4 DUP3 ADD MSTORE PUSH1 0x24 SWAP1 REVERT JUMPDEST POP DUP1 EXTCODESIZE ISZERO PUSH2 0x1A15 JUMP INVALID LOG2 PUSH5 0x6970667358 0x22 SLT KECCAK256 LT DUP2 DUP5 0xDD 0x2F 0x4F PUSH28 0x38EE4CFF7C2A98860190D0F3E84C0D9B04952043FB794475AF64736F PUSH13 0x63430008140033000000000000 "},"methodIdentifiers":{"accumulatedFees(address)":"fcf66664","createWrappedSong(address,(string,string,string,string,string,string),uint256,address)":"ff42536b","owner()":"8da5cb5b","protocolModule()":"5c42e667","registryModule()":"3cd7bc95","renounceOwnership()":"715018a6","transferOwnership(address)":"f2fde38b","withdrawAccumulatedFees(address,address)":"376c1f07","wrappedSongTemplate()":"3e22876b","wsTokenTemplate()":"5e63149f"}},"storageLayout":{"storage":[{"astId":8,"contract":"contracts/protocol/NonUpgradable/WrappedSongFactory.sol:WrappedSongFactory","label":"_owner","offset":0,"slot":"0","type":"t_address"},{"astId":3635,"contract":"contracts/protocol/NonUpgradable/WrappedSongFactory.sol:WrappedSongFactory","label":"accumulatedFees","offset":0,"slot":"1","type":"t_mapping(t_address,t_uint256)"},{"astId":3669,"contract":"contracts/protocol/NonUpgradable/WrappedSongFactory.sol:WrappedSongFactory","label":"registryModule","offset":0,"slot":"2","type":"t_contract(IRegistryModule)3164"}],"types":{"t_address":{"encoding":"inplace","label":"address","numberOfBytes":"20"},"t_contract(IRegistryModule)3164":{"encoding":"inplace","label":"contract IRegistryModule","numberOfBytes":"20"},"t_mapping(t_address,t_uint256)":{"encoding":"mapping","key":"t_address","label":"mapping(address => uint256)","numberOfBytes":"32","value":"t_uint256"},"t_uint256":{"encoding":"inplace","label":"uint256","numberOfBytes":"32"}}}}}}