{"contracts/protocol/NonUpgradable/MetadataRendererV2.sol":{"MetadataRendererV2":{"abi":[{"inputs":[{"internalType":"address","name":"initialOwner","type":"address"},{"internalType":"string","name":"_ipfsBaseURI","type":"string"},{"internalType":"string","name":"_arweaveBaseURI","type":"string"}],"stateMutability":"nonpayable","type":"constructor"},{"inputs":[{"internalType":"address","name":"owner","type":"address"}],"name":"OwnableInvalidOwner","type":"error"},{"inputs":[{"internalType":"address","name":"account","type":"address"}],"name":"OwnableUnauthorizedAccount","type":"error"},{"anonymous":false,"inputs":[{"indexed":false,"internalType":"string","name":"oldURI","type":"string"},{"indexed":false,"internalType":"string","name":"newURI","type":"string"}],"name":"ArweaveBaseURIUpdated","type":"event"},{"anonymous":false,"inputs":[{"indexed":false,"internalType":"string","name":"oldURI","type":"string"},{"indexed":false,"internalType":"string","name":"newURI","type":"string"}],"name":"IPFSBaseURIUpdated","type":"event"},{"anonymous":false,"inputs":[{"indexed":true,"internalType":"address","name":"previousOwner","type":"address"},{"indexed":true,"internalType":"address","name":"newOwner","type":"address"}],"name":"OwnershipTransferred","type":"event"},{"inputs":[],"name":"arweaveBaseURI","outputs":[{"internalType":"string","name":"","type":"string"}],"stateMutability":"view","type":"function"},{"inputs":[{"components":[{"internalType":"string","name":"name","type":"string"},{"internalType":"string","name":"description","type":"string"},{"internalType":"string","name":"image","type":"string"},{"internalType":"string","name":"externalUrl","type":"string"},{"internalType":"string","name":"animationUrl","type":"string"},{"internalType":"string","name":"attributesIpfsHash","type":"string"}],"internalType":"struct IMetadataModule.Metadata","name":"metadata","type":"tuple"},{"internalType":"uint256","name":"tokenId","type":"uint256"},{"internalType":"address","name":"wrappedSongAddress","type":"address"},{"internalType":"string","name":"baseURI","type":"string"},{"internalType":"contract IProtocolModule","name":"protocolModule","type":"address"}],"name":"composeTokenURI","outputs":[{"internalType":"string","name":"","type":"string"}],"stateMutability":"view","type":"function"},{"inputs":[],"name":"ipfsBaseURI","outputs":[{"internalType":"string","name":"","type":"string"}],"stateMutability":"view","type":"function"},{"inputs":[],"name":"owner","outputs":[{"internalType":"address","name":"","type":"address"}],"stateMutability":"view","type":"function"},{"inputs":[],"name":"renounceOwnership","outputs":[],"stateMutability":"nonpayable","type":"function"},{"inputs":[{"internalType":"string","name":"_arweaveBaseURI","type":"string"}],"name":"setArweaveBaseURI","outputs":[],"stateMutability":"nonpayable","type":"function"},{"inputs":[{"internalType":"string","name":"_ipfsBaseURI","type":"string"},{"internalType":"string","name":"_arweaveBaseURI","type":"string"}],"name":"setBaseURIs","outputs":[],"stateMutability":"nonpayable","type":"function"},{"inputs":[{"internalType":"string","name":"_ipfsBaseURI","type":"string"}],"name":"setIPFSBaseURI","outputs":[],"stateMutability":"nonpayable","type":"function"},{"inputs":[{"internalType":"address","name":"newOwner","type":"address"}],"name":"transferOwnership","outputs":[],"stateMutability":"nonpayable","type":"function"}],"evm":{"bytecode":{"linkReferences":{},"object":"60806040523462000382576200228f803803806200001d8162000387565b928339810190606081830312620003825780516001600160a01b03808216939091849003620003825760208381015190946001600160401b039490918581116200038257836200006f918301620003c3565b9260408201518681116200038257620000899201620003c3565b9080156200036957600080546001600160a01b03198116831782559094167f8be0079c531659141344cd1fd0a4f28419497f9722a3daafe3b4186f6b6457e08580a381519284841162000273576001938454938585811c951680156200035e575b888610146200034a578190601f95868111620002f7575b5088908683116001146200029357849262000287575b5050600019600383901b1c191690851b1784555b815194851162000273576002548481811c9116801562000268575b8782101462000254578381116200020b575b5085928511600114620001a257939450849291908362000196575b50501b916000199060031b1c1916176002555b604051611e599081620004368239f35b01519250388062000173565b6002815285812093958591601f198316915b88838310620001f05750505010620001d6575b505050811b0160025562000186565b015160001960f88460031b161c19169055388080620001c7565b858701518855909601959485019487935090810190620001b4565b600282528682208480880160051c8201928989106200024a575b0160051c019085905b8281106200023e57505062000158565b8381550185906200022e565b9250819262000225565b634e487b7160e01b82526022600452602482fd5b90607f169062000146565b634e487b7160e01b81526041600452602490fd5b01519050388062000117565b8785528985208894509190601f198416865b8c828210620002e05750508411620002c6575b505050811b0184556200012b565b015160001960f88460031b161c19169055388080620002b8565b8385015186558b97909501949384019301620002a5565b9091508684528884208680850160051c8201928b861062000340575b918991869594930160051c01915b8281106200033157505062000101565b86815585945089910162000321565b9250819262000313565b634e487b7160e01b83526022600452602483fd5b94607f1694620000ea565b604051631e4fbdf760e01b815260006004820152602490fd5b600080fd5b6040519190601f01601f191682016001600160401b03811183821017620003ad57604052565b634e487b7160e01b600052604160045260246000fd5b919080601f84011215620003825782516001600160401b038111620003ad57602090620003f9601f8201601f1916830162000387565b92818452828287010111620003825760005b8181106200042157508260009394955001015290565b85810183015184820184015282016200040b56fe6080604052600436101561001257600080fd5b60003560e01c806345df05f9146115475780636a1ed362146107ee578063715018a6146107955780638da5cb5b1461076c578063bf1696ce146105e3578063c1ce2e91146102f1578063f0fb21b0146102bd578063f2fde38b1461022d5763f3dbc5af1461007f57600080fd5b34610228576020806003193601126102285767ffffffffffffffff90600435828111610228576100b39036906004016117a7565b906100bc6117ee565b6100c4611613565b908251938411610212576100d9600254611563565b601f81116101c0575b5080601f851160011461013e57509280600080516020611dc483398151915294600091610133575b508160011b916000199060031b1c1916176002555b61012e6040519283928361181a565b0390a1005b90508301513861010a565b90601f1985166002600052600080516020611da4833981519152926000905b8282106101a8575050918591600080516020611dc4833981519152966001941061018f575b5050811b0160025561011f565b85015160001960f88460031b161c191690553880610182565b80600185968294968a0151815501950193019061015d565b6002600052600080516020611da4833981519152601f860160051c810191838710610208575b601f0160051c01905b8181106101fc57506100e2565b600081556001016101ef565b90915081906101e6565b634e487b7160e01b600052604160045260246000fd5b600080fd5b34610228576020366003190112610228576004356001600160a01b03818116918290036102285761025c6117ee565b81156102a457600054826bffffffffffffffffffffffff60a01b821617600055167f8be0079c531659141344cd1fd0a4f28419497f9722a3daafe3b4186f6b6457e0600080a3005b604051631e4fbdf760e01b815260006004820152602490fd5b34610228576000366003190112610228576102ed6102d96116bf565b604051918291602083526020830190611766565b0390f35b346102285760403660031901126102285767ffffffffffffffff600435818111610228576103239036906004016117a7565b906024358181116102285761033c9036906004016117a7565b906103456117ee565b61034d6116bf565b610355611613565b9184518181116102125760019061036c8254611563565b90601f91828111610591575b5080602083821160011461052457600091610519575b50600019600383901b1c191690831b1782555b8551928311610212576103b5600254611563565b8181116104c6575b50602090831160011461043557918080600080516020611de48339815191529593600080516020611dc4833981519152999560009361042a575b501b916000199060031b1c1916176002555b6104186040519283928361181a565b0390a161012e6040519283928361181a565b89015192508a6103f7565b601f929192198216906002600052600080516020611da48339815191529160005b8181106104b05750918391600080516020611de48339815191529694600080516020611dc48339815191529a969410610497575b5050811b01600255610409565b88015160001960f88460031b161c19169055888061048a565b8883015184559285019260209283019201610456565b6002600052600080516020611da48339815191528280860160051c82019260208710610510575b0160051c019083905b8281106105045750506103bd565b600081550183906104f6565b925081926104ed565b90508801518961038e565b849250601f1982169083600052600080516020611e048339815191529160005b8c82821061057a5750508311610561575b5050811b0182556103a1565b8a015160001960f88460031b161c191690558980610555565b830151845587959093019260209283019201610544565b83600052600080516020611e048339815191528380840160051c820192602085106105da575b0160051c019084905b8281106105ce575050610378565b600081550184906105c0565b925081926105b7565b34610228576020806003193601126102285767ffffffffffffffff600435818111610228576106169036906004016117a7565b9061061f6117ee565b6106276116bf565b9082519081116102125760019061063e8254611563565b601f8111610718575b5084601f821160011461069a575080600080516020611de48339815191529560009161068f575b50600019600383901b1c191690821b17905561012e6040519283928361181a565b90508401518661066e565b94601f19821683600052600080516020611e04833981519152966000905b8282106107015750509582918493600080516020611de483398151915298106106e8575b5050811b01905561011f565b86015160001960f88460031b161c1916905586806106dc565b8784015189559785019792830192908101906106b8565b82600052600080516020611e04833981519152601f830160051c810191878410610762575b601f0160051c019083905b828110610756575050610647565b60008155018390610748565b909150819061073d565b34610228576000366003190112610228576000546040516001600160a01b039091168152602090f35b34610228576000366003190112610228576107ae6117ee565b600080546001600160a01b0319811682556001600160a01b03167f8be0079c531659141344cd1fd0a4f28419497f9722a3daafe3b4186f6b6457e08280a3005b346102285760031960a036820112610228576004359067ffffffffffffffff908183116102285760c0908336030112610228576040519160c08301838110838211176102125760405280600401358281116102285761085390600436918401016117a7565b835260248101358281116102285761087190600436918401016117a7565b602084015260448101358281116102285761089290600436918401016117a7565b60408401526064810135828111610228576108b390600436918401016117a7565b60608401526084810135828111610228576108d490600436918401016117a7565b608084015260a4810135908282116102285760046108f592369201016117a7565b60a08301526044356001600160a01b038116900361022857606435908111610228576109259036906004016117a7565b90608435906001600160a01b03821682036102285782511561150f576060808060243561127d57505050600460405161095d8161159d565b6003815262714bc960e91b60208201529261098d604084015161097e6116bf565b87610987611613565b92611bc7565b92602080820151925b60405163670d296960e11b815294859182906001600160a01b03165afa92831561110957600093611239575b50604051633ead5d1160e01b81526020816004816001600160a01b0388165afa90811561110957602491600091829161121a575b50604051635421432b60e11b81526001600160a01b03604435811660048301529093849290918391165afa908115611109576000916111ff575b50604051633ead5d1160e01b81526020816004816001600160a01b0389165afa9081156111095760249160009182916111e0575b50604051630437e6a160e21b81526001600160a01b03604435811660048301529093849290918391165afa908115611109576000916111c5575b50604051633ead5d1160e01b8152946020866004816001600160a01b0385165afa9586156111095760249660009182916111a6575b5060405163cc7e544560e01b81526001600160a01b03604435811660048301529098899290918391165afa95861561110957600096611189575b50604051633ead5d1160e01b8152926020846004816001600160a01b0386165afa93841561110957602494600091829161116a575b5060405163164158ff60e01b81526001600160a01b03604435811660048301529096879290918391165afa91821561110957600494600093611142575b50604051633ead5d1160e01b81529460209186919082906001600160a01b03165afa93841561110957602494602091600091611115575b5060405163a449357560e01b81526001600160a01b03604435811660048301529096879290918391165afa938415611109576000946110b6575b50936102ed99610e4d9894610d43605d610fde9a9660859a968a610fe39f9b51151560001461109f57915b80511561108857985b80511561107157905b80511561105a57905b604051998a9371227265676973747279436f646573223a207b60701b6020860152681124a9a921911d101160b91b6032860152610c7d815180926020603b89019101611743565b61088b60f21b858201603b81019190915267112aa821911d101160c11b603d820152825192610cb6918491604590910190602001611743565b84010161088b60f21b6045820152681124a9aba1911d101160b91b6047820152610cea825180936020605085019101611743565b0161088b60f21b6050820152681124a9a1a1911d101160b91b6052820152610d1c825180936020605b85019101611743565b601160f91b605b8383010152607d60f81b605c83830101520103603d8101885201866115f1565b1561103657604051610d548161159d565b60048152637472756560e01b6020820152945b610dd160416040518098702261757468656e746963697479223a207b60781b60208301526e01134b9a0baba3432b73a34b1911d1608d1b6031830152610db7815180926020604086019101611743565b8101607d60f81b60408201520360218101895201876115f1565b825193610e21610df06060860151610de76116bf565b86610987611613565b9360a0610e0c6080880151610e036116bf565b84610987611613565b96015190610e186116bf565b90610987611613565b94602a6040519c8d809b693d913730b6b2911d101160b11b602083015260208151948593019101611743565b8901600160fd1b602a820152610e6d825180936020602b85019101611743565b0161088b60f21b602b8201526f113232b9b1b934b83a34b7b7111d101160811b602d820152610ea6825180936020603d85019101611743565b0161088b60f21b603d820152691134b6b0b3b2911d101160b11b603f820152610ed9825180936020604985019101611743565b0161088b60f21b6049820152701132bc3a32b93730b62fbab936111d101160791b604b820152610f13825180936020605c85019101611743565b0161088b60f21b605c820152711130b734b6b0ba34b7b72fbab936111d101160711b605e820152610f4e825180936020607085019101611743565b0161088b60f21b60708201526e1130ba3a3934b13aba32b9911d101160891b6072820152610f86825180936020608185019101611743565b0161088b60f21b6081820152610fa6825180936020608385019101611743565b01600b60fa1b6083820152610fc5825180936020608485019101611743565b01607d60f81b60848201520360658101845201826115f1565b6118c0565b6102d9603d60405180937f646174613a6170706c69636174696f6e2f6a736f6e3b6261736536342c00000060208301526110268151809260208686019101611743565b810103601d8101845201826115f1565b6040516110428161159d565b600581526466616c736560d81b602082015294610d67565b50604051611067816115b9565b6000815290610c36565b5060405161107e816115b9565b6000815290610c2d565b50604051611095816115b9565b6000815298610c24565b506040516110ac816115b9565b6000815291610c1b565b909894969295919793506020813d602011611101575b816110d9602093836115f1565b81010312610228575195861515870361022857939792969195909490929091906102ed610bf0565b3d91506110cc565b6040513d6000823e3d90fd5b6111359150823d841161113b575b61112d81836115f1565b810190611842565b8c610bb6565b503d611123565b6020919350611163903d806000833e61115b81836115f1565b810190611861565b9290610b7f565b611183915060203d60201161113b5761112d81836115f1565b8c610b42565b61119f9196503d806000833e61115b81836115f1565b9489610b0d565b6111bf915060203d60201161113b5761112d81836115f1565b8b610ad3565b6111da91503d806000833e61115b81836115f1565b88610a9e565b6111f9915060203d60201161113b5761112d81836115f1565b8a610a64565b61121491503d806000833e61115b81836115f1565b87610a30565b611233915060203d60201161113b5761112d81836115f1565b896109f6565b9092506020813d602011611275575b81611255602093836115f1565b8101031261022857516001600160a01b03811681036102285791866109c2565b3d9150611248565b6024356001036113745750505060046040516112988161159d565b6002815261c2a760f01b6020820152926112b8604084015161097e6116bf565b9260206112c6604435611a81565b61136e607d60405180937f5468657365206172652074686520536f6e675368617265732072657072657365868301527f6e74696e6720796f7572207368617265206f6e2074686520726f79616c74792060408301527f6561726e696e6773206f6620746865205772617070656420536f6e670000000060608301526113548151809288607c86019101611743565b8101601760f91b607c82015203605d8101845201826115f1565b92610996565b60243560020361142f57505050600460405161138f8161159d565b6003815262e29fb360e81b6020820152926113b0604084015161097e6116bf565b9260206113be604435611a81565b61136e604d60405180937f546869732069732061204275796f757420546f6b656e20666f72207468652057868301526b03930b83832b21029b7b733960a51b60408301526114158151809288604c86019101611743565b8101601760f91b604c82015203602d8101845201826115f1565b9091926003602435101561144a575b60206004939495610996565b92505050600460405161145c8161159d565b818152633c27e4e160e21b60208201529261147d604084015161097e6116bf565b92602061148b604435611a81565b611504605560405180937f546869732069732061204c6567616c20436f6e747261637420546f6b656e20668683015273037b9103a3432902bb930b83832b21029b7b733960651b60408301526114ea8151809288605486019101611743565b8101601760f91b60548201520360358101845201826115f1565b92959493505061143e565b60405162461bcd60e51b815260206004820152601060248201526f10985cd948155492481b9bdd081cd95d60821b6044820152606490fd5b34610228576000366003190112610228576102ed6102d9611613565b90600182811c92168015611593575b602083101461157d57565b634e487b7160e01b600052602260045260246000fd5b91607f1691611572565b6040810190811067ffffffffffffffff82111761021257604052565b6020810190811067ffffffffffffffff82111761021257604052565b6060810190811067ffffffffffffffff82111761021257604052565b90601f8019910116810190811067ffffffffffffffff82111761021257604052565b604051906000826002549161162783611563565b8083529260019081811690811561169d5750600114611650575b5061164e925003836115f1565b565b600260009081529150600080516020611da48339815191525b848310611682575061164e935050810160200138611641565b81935090816020925483858a01015201910190918592611669565b90506020925061164e94915060ff191682840152151560051b82010138611641565b604051906000826001918254926116d584611563565b8084529381811690811561169d57506001146116f8575061164e925003836115f1565b60008181529150600080516020611e048339815191525b848310611728575061164e935050810160200138611641565b81935090816020925483858a0101520191019091859261170f565b60005b8381106117565750506000910152565b8181015183820152602001611746565b9060209161177f81518092818552858086019101611743565b601f01601f1916010190565b67ffffffffffffffff811161021257601f01601f191660200190565b81601f82011215610228578035906117be8261178b565b926117cc60405194856115f1565b8284526020838301011161022857816000926020809301838601378301015290565b6000546001600160a01b0316330361180257565b60405163118cdaa760e01b8152336004820152602490fd5b909161183161183f93604084526040840190611766565b916020818403910152611766565b90565b9081602091031261022857516001600160a01b03811681036102285790565b6020818303126102285780519067ffffffffffffffff8211610228570181601f820112156102285780516118948161178b565b926118a260405194856115f1565b818452602082840101116102285761183f9160208085019101611743565b805115611a3757604051906118d4826115d5565b604082527f4142434445464748494a4b4c4d4e4f505152535455565758595a61626364656660208301527f6768696a6b6c6d6e6f707172737475767778797a303132333435363738392b2f60408301528051600291828201809211611a215760039182900480841b94906001600160fe1b03811603611a21579261197061195a8661178b565b9561196860405197886115f1565b80875261178b565b6020860190601f190136823793829183518401906020820192835194600085525b8381106119d05750505050525106806001146119bd576002146119b2575090565b603d90600019015390565b50603d9081600019820153600119015390565b87600491999293949901918251600190603f9082828260121c16880101518453828282600c1c16880101518385015382828260061c1688010151888501531685010151898201530197929190611991565b634e487b7160e01b600052601160045260246000fd5b50604051611a44816115b9565b6000815290565b908151811015611a5c570160200190565b634e487b7160e01b600052603260045260246000fd5b6000198114611a215760010190565b604051906001600160a01b0316611a978261159d565b6010825260206f181899199a1a9b1b9c1cb0b131b232b360811b8184015260405192611ac2846115d5565b602a84528184016040368237845115611a5c5760309053835192600193841015611a5c576078602186015360005b60148110611b0057505050505090565b600c8101808211611a215784811015611a5c5782901a60046001600160f81b0319600f81611b3285851c831689611a4b565b511693858a1b94600290878704821488151715611bb257868201809211611bb257611b67611b6f9493928e9260001a92611a4b565b531687611a4b565b5116906003928301809311611b9d575090611b92611b98939260001a9189611a4b565b53611a72565b611af0565b601190634e487b7160e01b6000525260246000fd5b601186634e487b7160e01b6000525260246000fd5b9290611bd284611c84565b6003811015611c6e5760018103611c2457505050602061183f916040519381611c048693518092868087019101611743565b8201611c1882518093868085019101611743565b010380845201826115f1565b91925090600203611c4e5750602061183f916040519381611c048693518092868087019101611743565b61183f91506020906040519381611c048693518092868087019101611743565b634e487b7160e01b600052602160045260246000fd5b805190602e821480611d82575b80611d5d575b611d3457603b821480611d3b575b611d3457602b82101580611d29575b611cc0575b5050600090565b60005b828110611cd05750611cb9565b6001600160f81b0319602d60f81b81611ce98486611a4b565b511614908115611d0f575b50611d0757611d0290611a72565b611cc3565b505050600290565b605f60f81b9150611d208385611a4b565b51161438611cf4565b50602c821115611cb4565b5050600190565b50805115611a5c5760208101516001600160f81b031916603160f91b14611ca5565b50805160011015611a5c5760218101516001600160f81b031916606d60f81b14611c97565b508115611a5c5760208101516001600160f81b031916605160f81b14611c9156fe405787fa12a823e0f2b7631cc41b3ba8828b3321ca811111fa75cd3aa3bb5aceafbd1cd7e76e4bf002d2d50614b23d12171c00925761c7318940f4d173dfd38dcdfe07c8bb9b3c8e2dcaf2f86e29b44559cb1f9f7222c3f8772b0c36b1e78b11b10e2d527612073b26eecdfd717e6a320cf44b4afac2b0732d9fcbe2b7fa0cf6a2646970667358221220408fb91d8cf728198a707ffa8fd9a14b8a10b3a0e616062d2de24dd55244310364736f6c63430008140033","opcodes":"PUSH1 0x80 PUSH1 0x40 MSTORE CALLVALUE PUSH3 0x382 JUMPI PUSH3 0x228F DUP1 CODESIZE SUB DUP1 PUSH3 0x1D DUP2 PUSH3 0x387 JUMP JUMPDEST SWAP3 DUP4 CODECOPY DUP2 ADD SWAP1 PUSH1 0x60 DUP2 DUP4 SUB SLT PUSH3 0x382 JUMPI DUP1 MLOAD PUSH1 0x1 PUSH1 0x1 PUSH1 0xA0 SHL SUB DUP1 DUP3 AND SWAP4 SWAP1 SWAP2 DUP5 SWAP1 SUB PUSH3 0x382 JUMPI PUSH1 0x20 DUP4 DUP2 ADD MLOAD SWAP1 SWAP5 PUSH1 0x1 PUSH1 0x1 PUSH1 0x40 SHL SUB SWAP5 SWAP1 SWAP2 DUP6 DUP2 GT PUSH3 0x382 JUMPI DUP4 PUSH3 0x6F SWAP2 DUP4 ADD PUSH3 0x3C3 JUMP JUMPDEST SWAP3 PUSH1 0x40 DUP3 ADD MLOAD DUP7 DUP2 GT PUSH3 0x382 JUMPI PUSH3 0x89 SWAP3 ADD PUSH3 0x3C3 JUMP JUMPDEST SWAP1 DUP1 ISZERO PUSH3 0x369 JUMPI PUSH1 0x0 DUP1 SLOAD PUSH1 0x1 PUSH1 0x1 PUSH1 0xA0 SHL SUB NOT DUP2 AND DUP4 OR DUP3 SSTORE SWAP1 SWAP5 AND PUSH32 0x8BE0079C531659141344CD1FD0A4F28419497F9722A3DAAFE3B4186F6B6457E0 DUP6 DUP1 LOG3 DUP2 MLOAD SWAP3 DUP5 DUP5 GT PUSH3 0x273 JUMPI PUSH1 0x1 SWAP4 DUP5 SLOAD SWAP4 DUP6 DUP6 DUP2 SHR SWAP6 AND DUP1 ISZERO PUSH3 0x35E JUMPI JUMPDEST DUP9 DUP7 LT EQ PUSH3 0x34A JUMPI DUP2 SWAP1 PUSH1 0x1F SWAP6 DUP7 DUP2 GT PUSH3 0x2F7 JUMPI JUMPDEST POP DUP9 SWAP1 DUP7 DUP4 GT PUSH1 0x1 EQ PUSH3 0x293 JUMPI DUP5 SWAP3 PUSH3 0x287 JUMPI JUMPDEST POP POP PUSH1 0x0 NOT PUSH1 0x3 DUP4 SWAP1 SHL SHR NOT AND SWAP1 DUP6 SHL OR DUP5 SSTORE JUMPDEST DUP2 MLOAD SWAP5 DUP6 GT PUSH3 0x273 JUMPI PUSH1 0x2 SLOAD DUP5 DUP2 DUP2 SHR SWAP2 AND DUP1 ISZERO PUSH3 0x268 JUMPI JUMPDEST DUP8 DUP3 LT EQ PUSH3 0x254 JUMPI DUP4 DUP2 GT PUSH3 0x20B JUMPI JUMPDEST POP DUP6 SWAP3 DUP6 GT PUSH1 0x1 EQ PUSH3 0x1A2 JUMPI SWAP4 SWAP5 POP DUP5 SWAP3 SWAP2 SWAP1 DUP4 PUSH3 0x196 JUMPI JUMPDEST POP POP SHL SWAP2 PUSH1 0x0 NOT SWAP1 PUSH1 0x3 SHL SHR NOT AND OR PUSH1 0x2 SSTORE JUMPDEST PUSH1 0x40 MLOAD PUSH2 0x1E59 SWAP1 DUP2 PUSH3 0x436 DUP3 CODECOPY RETURN JUMPDEST ADD MLOAD SWAP3 POP CODESIZE DUP1 PUSH3 0x173 JUMP JUMPDEST PUSH1 0x2 DUP2 MSTORE DUP6 DUP2 KECCAK256 SWAP4 SWAP6 DUP6 SWAP2 PUSH1 0x1F NOT DUP4 AND SWAP2 JUMPDEST DUP9 DUP4 DUP4 LT PUSH3 0x1F0 JUMPI POP POP POP LT PUSH3 0x1D6 JUMPI JUMPDEST POP POP POP DUP2 SHL ADD PUSH1 0x2 SSTORE PUSH3 0x186 JUMP JUMPDEST ADD MLOAD PUSH1 0x0 NOT PUSH1 0xF8 DUP5 PUSH1 0x3 SHL AND SHR NOT AND SWAP1 SSTORE CODESIZE DUP1 DUP1 PUSH3 0x1C7 JUMP JUMPDEST DUP6 DUP8 ADD MLOAD DUP9 SSTORE SWAP1 SWAP7 ADD SWAP6 SWAP5 DUP6 ADD SWAP5 DUP8 SWAP4 POP SWAP1 DUP2 ADD SWAP1 PUSH3 0x1B4 JUMP JUMPDEST PUSH1 0x2 DUP3 MSTORE DUP7 DUP3 KECCAK256 DUP5 DUP1 DUP9 ADD PUSH1 0x5 SHR DUP3 ADD SWAP3 DUP10 DUP10 LT PUSH3 0x24A JUMPI JUMPDEST ADD PUSH1 0x5 SHR ADD SWAP1 DUP6 SWAP1 JUMPDEST DUP3 DUP2 LT PUSH3 0x23E JUMPI POP POP PUSH3 0x158 JUMP JUMPDEST DUP4 DUP2 SSTORE ADD DUP6 SWAP1 PUSH3 0x22E JUMP JUMPDEST SWAP3 POP DUP2 SWAP3 PUSH3 0x225 JUMP JUMPDEST PUSH4 0x4E487B71 PUSH1 0xE0 SHL DUP3 MSTORE PUSH1 0x22 PUSH1 0x4 MSTORE PUSH1 0x24 DUP3 REVERT JUMPDEST SWAP1 PUSH1 0x7F AND SWAP1 PUSH3 0x146 JUMP JUMPDEST PUSH4 0x4E487B71 PUSH1 0xE0 SHL DUP2 MSTORE PUSH1 0x41 PUSH1 0x4 MSTORE PUSH1 0x24 SWAP1 REVERT JUMPDEST ADD MLOAD SWAP1 POP CODESIZE DUP1 PUSH3 0x117 JUMP JUMPDEST DUP8 DUP6 MSTORE DUP10 DUP6 KECCAK256 DUP9 SWAP5 POP SWAP2 SWAP1 PUSH1 0x1F NOT DUP5 AND DUP7 JUMPDEST DUP13 DUP3 DUP3 LT PUSH3 0x2E0 JUMPI POP POP DUP5 GT PUSH3 0x2C6 JUMPI JUMPDEST POP POP POP DUP2 SHL ADD DUP5 SSTORE PUSH3 0x12B JUMP JUMPDEST ADD MLOAD PUSH1 0x0 NOT PUSH1 0xF8 DUP5 PUSH1 0x3 SHL AND SHR NOT AND SWAP1 SSTORE CODESIZE DUP1 DUP1 PUSH3 0x2B8 JUMP JUMPDEST DUP4 DUP6 ADD MLOAD DUP7 SSTORE DUP12 SWAP8 SWAP1 SWAP6 ADD SWAP5 SWAP4 DUP5 ADD SWAP4 ADD PUSH3 0x2A5 JUMP JUMPDEST SWAP1 SWAP2 POP DUP7 DUP5 MSTORE DUP9 DUP5 KECCAK256 DUP7 DUP1 DUP6 ADD PUSH1 0x5 SHR DUP3 ADD SWAP3 DUP12 DUP7 LT PUSH3 0x340 JUMPI JUMPDEST SWAP2 DUP10 SWAP2 DUP7 SWAP6 SWAP5 SWAP4 ADD PUSH1 0x5 SHR ADD SWAP2 JUMPDEST DUP3 DUP2 LT PUSH3 0x331 JUMPI POP POP PUSH3 0x101 JUMP JUMPDEST DUP7 DUP2 SSTORE DUP6 SWAP5 POP DUP10 SWAP2 ADD PUSH3 0x321 JUMP JUMPDEST SWAP3 POP DUP2 SWAP3 PUSH3 0x313 JUMP JUMPDEST PUSH4 0x4E487B71 PUSH1 0xE0 SHL DUP4 MSTORE PUSH1 0x22 PUSH1 0x4 MSTORE PUSH1 0x24 DUP4 REVERT JUMPDEST SWAP5 PUSH1 0x7F AND SWAP5 PUSH3 0xEA JUMP JUMPDEST PUSH1 0x40 MLOAD PUSH4 0x1E4FBDF7 PUSH1 0xE0 SHL DUP2 MSTORE PUSH1 0x0 PUSH1 0x4 DUP3 ADD MSTORE PUSH1 0x24 SWAP1 REVERT JUMPDEST PUSH1 0x0 DUP1 REVERT JUMPDEST PUSH1 0x40 MLOAD SWAP2 SWAP1 PUSH1 0x1F ADD PUSH1 0x1F NOT AND DUP3 ADD PUSH1 0x1 PUSH1 0x1 PUSH1 0x40 SHL SUB DUP2 GT DUP4 DUP3 LT OR PUSH3 0x3AD JUMPI PUSH1 0x40 MSTORE JUMP JUMPDEST PUSH4 0x4E487B71 PUSH1 0xE0 SHL PUSH1 0x0 MSTORE PUSH1 0x41 PUSH1 0x4 MSTORE PUSH1 0x24 PUSH1 0x0 REVERT JUMPDEST SWAP2 SWAP1 DUP1 PUSH1 0x1F DUP5 ADD SLT ISZERO PUSH3 0x382 JUMPI DUP3 MLOAD PUSH1 0x1 PUSH1 0x1 PUSH1 0x40 SHL SUB DUP2 GT PUSH3 0x3AD JUMPI PUSH1 0x20 SWAP1 PUSH3 0x3F9 PUSH1 0x1F DUP3 ADD PUSH1 0x1F NOT AND DUP4 ADD PUSH3 0x387 JUMP JUMPDEST SWAP3 DUP2 DUP5 MSTORE DUP3 DUP3 DUP8 ADD ADD GT PUSH3 0x382 JUMPI PUSH1 0x0 JUMPDEST DUP2 DUP2 LT PUSH3 0x421 JUMPI POP DUP3 PUSH1 0x0 SWAP4 SWAP5 SWAP6 POP ADD ADD MSTORE SWAP1 JUMP JUMPDEST DUP6 DUP2 ADD DUP4 ADD MLOAD DUP5 DUP3 ADD DUP5 ADD MSTORE DUP3 ADD PUSH3 0x40B JUMP INVALID PUSH1 0x80 PUSH1 0x40 MSTORE PUSH1 0x4 CALLDATASIZE LT ISZERO PUSH2 0x12 JUMPI PUSH1 0x0 DUP1 REVERT JUMPDEST PUSH1 0x0 CALLDATALOAD PUSH1 0xE0 SHR DUP1 PUSH4 0x45DF05F9 EQ PUSH2 0x1547 JUMPI DUP1 PUSH4 0x6A1ED362 EQ PUSH2 0x7EE JUMPI DUP1 PUSH4 0x715018A6 EQ PUSH2 0x795 JUMPI DUP1 PUSH4 0x8DA5CB5B EQ PUSH2 0x76C JUMPI DUP1 PUSH4 0xBF1696CE EQ PUSH2 0x5E3 JUMPI DUP1 PUSH4 0xC1CE2E91 EQ PUSH2 0x2F1 JUMPI DUP1 PUSH4 0xF0FB21B0 EQ PUSH2 0x2BD JUMPI DUP1 PUSH4 0xF2FDE38B EQ PUSH2 0x22D JUMPI PUSH4 0xF3DBC5AF EQ PUSH2 0x7F JUMPI PUSH1 0x0 DUP1 REVERT JUMPDEST CALLVALUE PUSH2 0x228 JUMPI PUSH1 0x20 DUP1 PUSH1 0x3 NOT CALLDATASIZE ADD SLT PUSH2 0x228 JUMPI PUSH8 0xFFFFFFFFFFFFFFFF SWAP1 PUSH1 0x4 CALLDATALOAD DUP3 DUP2 GT PUSH2 0x228 JUMPI PUSH2 0xB3 SWAP1 CALLDATASIZE SWAP1 PUSH1 0x4 ADD PUSH2 0x17A7 JUMP JUMPDEST SWAP1 PUSH2 0xBC PUSH2 0x17EE JUMP JUMPDEST PUSH2 0xC4 PUSH2 0x1613 JUMP JUMPDEST SWAP1 DUP3 MLOAD SWAP4 DUP5 GT PUSH2 0x212 JUMPI PUSH2 0xD9 PUSH1 0x2 SLOAD PUSH2 0x1563 JUMP JUMPDEST PUSH1 0x1F DUP2 GT PUSH2 0x1C0 JUMPI JUMPDEST POP DUP1 PUSH1 0x1F DUP6 GT PUSH1 0x1 EQ PUSH2 0x13E JUMPI POP SWAP3 DUP1 PUSH1 0x0 DUP1 MLOAD PUSH1 0x20 PUSH2 0x1DC4 DUP4 CODECOPY DUP2 MLOAD SWAP2 MSTORE SWAP5 PUSH1 0x0 SWAP2 PUSH2 0x133 JUMPI JUMPDEST POP DUP2 PUSH1 0x1 SHL SWAP2 PUSH1 0x0 NOT SWAP1 PUSH1 0x3 SHL SHR NOT AND OR PUSH1 0x2 SSTORE JUMPDEST PUSH2 0x12E PUSH1 0x40 MLOAD SWAP3 DUP4 SWAP3 DUP4 PUSH2 0x181A JUMP JUMPDEST SUB SWAP1 LOG1 STOP JUMPDEST SWAP1 POP DUP4 ADD MLOAD CODESIZE PUSH2 0x10A JUMP JUMPDEST SWAP1 PUSH1 0x1F NOT DUP6 AND PUSH1 0x2 PUSH1 0x0 MSTORE PUSH1 0x0 DUP1 MLOAD PUSH1 0x20 PUSH2 0x1DA4 DUP4 CODECOPY DUP2 MLOAD SWAP2 MSTORE SWAP3 PUSH1 0x0 SWAP1 JUMPDEST DUP3 DUP3 LT PUSH2 0x1A8 JUMPI POP POP SWAP2 DUP6 SWAP2 PUSH1 0x0 DUP1 MLOAD PUSH1 0x20 PUSH2 0x1DC4 DUP4 CODECOPY DUP2 MLOAD SWAP2 MSTORE SWAP7 PUSH1 0x1 SWAP5 LT PUSH2 0x18F JUMPI JUMPDEST POP POP DUP2 SHL ADD PUSH1 0x2 SSTORE PUSH2 0x11F JUMP JUMPDEST DUP6 ADD MLOAD PUSH1 0x0 NOT PUSH1 0xF8 DUP5 PUSH1 0x3 SHL AND SHR NOT AND SWAP1 SSTORE CODESIZE DUP1 PUSH2 0x182 JUMP JUMPDEST DUP1 PUSH1 0x1 DUP6 SWAP7 DUP3 SWAP5 SWAP7 DUP11 ADD MLOAD DUP2 SSTORE ADD SWAP6 ADD SWAP4 ADD SWAP1 PUSH2 0x15D JUMP JUMPDEST PUSH1 0x2 PUSH1 0x0 MSTORE PUSH1 0x0 DUP1 MLOAD PUSH1 0x20 PUSH2 0x1DA4 DUP4 CODECOPY DUP2 MLOAD SWAP2 MSTORE PUSH1 0x1F DUP7 ADD PUSH1 0x5 SHR DUP2 ADD SWAP2 DUP4 DUP8 LT PUSH2 0x208 JUMPI JUMPDEST PUSH1 0x1F ADD PUSH1 0x5 SHR ADD SWAP1 JUMPDEST DUP2 DUP2 LT PUSH2 0x1FC JUMPI POP PUSH2 0xE2 JUMP JUMPDEST PUSH1 0x0 DUP2 SSTORE PUSH1 0x1 ADD PUSH2 0x1EF JUMP JUMPDEST SWAP1 SWAP2 POP DUP2 SWAP1 PUSH2 0x1E6 JUMP JUMPDEST PUSH4 0x4E487B71 PUSH1 0xE0 SHL PUSH1 0x0 MSTORE PUSH1 0x41 PUSH1 0x4 MSTORE PUSH1 0x24 PUSH1 0x0 REVERT JUMPDEST PUSH1 0x0 DUP1 REVERT JUMPDEST CALLVALUE PUSH2 0x228 JUMPI PUSH1 0x20 CALLDATASIZE PUSH1 0x3 NOT ADD SLT PUSH2 0x228 JUMPI PUSH1 0x4 CALLDATALOAD PUSH1 0x1 PUSH1 0x1 PUSH1 0xA0 SHL SUB DUP2 DUP2 AND SWAP2 DUP3 SWAP1 SUB PUSH2 0x228 JUMPI PUSH2 0x25C PUSH2 0x17EE JUMP JUMPDEST DUP2 ISZERO PUSH2 0x2A4 JUMPI PUSH1 0x0 SLOAD DUP3 PUSH12 0xFFFFFFFFFFFFFFFFFFFFFFFF PUSH1 0xA0 SHL DUP3 AND OR PUSH1 0x0 SSTORE AND PUSH32 0x8BE0079C531659141344CD1FD0A4F28419497F9722A3DAAFE3B4186F6B6457E0 PUSH1 0x0 DUP1 LOG3 STOP JUMPDEST PUSH1 0x40 MLOAD PUSH4 0x1E4FBDF7 PUSH1 0xE0 SHL DUP2 MSTORE PUSH1 0x0 PUSH1 0x4 DUP3 ADD MSTORE PUSH1 0x24 SWAP1 REVERT JUMPDEST CALLVALUE PUSH2 0x228 JUMPI PUSH1 0x0 CALLDATASIZE PUSH1 0x3 NOT ADD SLT PUSH2 0x228 JUMPI PUSH2 0x2ED PUSH2 0x2D9 PUSH2 0x16BF JUMP JUMPDEST PUSH1 0x40 MLOAD SWAP2 DUP3 SWAP2 PUSH1 0x20 DUP4 MSTORE PUSH1 0x20 DUP4 ADD SWAP1 PUSH2 0x1766 JUMP JUMPDEST SUB SWAP1 RETURN JUMPDEST CALLVALUE PUSH2 0x228 JUMPI PUSH1 0x40 CALLDATASIZE PUSH1 0x3 NOT ADD SLT PUSH2 0x228 JUMPI PUSH8 0xFFFFFFFFFFFFFFFF PUSH1 0x4 CALLDATALOAD DUP2 DUP2 GT PUSH2 0x228 JUMPI PUSH2 0x323 SWAP1 CALLDATASIZE SWAP1 PUSH1 0x4 ADD PUSH2 0x17A7 JUMP JUMPDEST SWAP1 PUSH1 0x24 CALLDATALOAD DUP2 DUP2 GT PUSH2 0x228 JUMPI PUSH2 0x33C SWAP1 CALLDATASIZE SWAP1 PUSH1 0x4 ADD PUSH2 0x17A7 JUMP JUMPDEST SWAP1 PUSH2 0x345 PUSH2 0x17EE JUMP JUMPDEST PUSH2 0x34D PUSH2 0x16BF JUMP JUMPDEST PUSH2 0x355 PUSH2 0x1613 JUMP JUMPDEST SWAP2 DUP5 MLOAD DUP2 DUP2 GT PUSH2 0x212 JUMPI PUSH1 0x1 SWAP1 PUSH2 0x36C DUP3 SLOAD PUSH2 0x1563 JUMP JUMPDEST SWAP1 PUSH1 0x1F SWAP2 DUP3 DUP2 GT PUSH2 0x591 JUMPI JUMPDEST POP DUP1 PUSH1 0x20 DUP4 DUP3 GT PUSH1 0x1 EQ PUSH2 0x524 JUMPI PUSH1 0x0 SWAP2 PUSH2 0x519 JUMPI JUMPDEST POP PUSH1 0x0 NOT PUSH1 0x3 DUP4 SWAP1 SHL SHR NOT AND SWAP1 DUP4 SHL OR DUP3 SSTORE JUMPDEST DUP6 MLOAD SWAP3 DUP4 GT PUSH2 0x212 JUMPI PUSH2 0x3B5 PUSH1 0x2 SLOAD PUSH2 0x1563 JUMP JUMPDEST DUP2 DUP2 GT PUSH2 0x4C6 JUMPI JUMPDEST POP PUSH1 0x20 SWAP1 DUP4 GT PUSH1 0x1 EQ PUSH2 0x435 JUMPI SWAP2 DUP1 DUP1 PUSH1 0x0 DUP1 MLOAD PUSH1 0x20 PUSH2 0x1DE4 DUP4 CODECOPY DUP2 MLOAD SWAP2 MSTORE SWAP6 SWAP4 PUSH1 0x0 DUP1 MLOAD PUSH1 0x20 PUSH2 0x1DC4 DUP4 CODECOPY DUP2 MLOAD SWAP2 MSTORE SWAP10 SWAP6 PUSH1 0x0 SWAP4 PUSH2 0x42A JUMPI JUMPDEST POP SHL SWAP2 PUSH1 0x0 NOT SWAP1 PUSH1 0x3 SHL SHR NOT AND OR PUSH1 0x2 SSTORE JUMPDEST PUSH2 0x418 PUSH1 0x40 MLOAD SWAP3 DUP4 SWAP3 DUP4 PUSH2 0x181A JUMP JUMPDEST SUB SWAP1 LOG1 PUSH2 0x12E PUSH1 0x40 MLOAD SWAP3 DUP4 SWAP3 DUP4 PUSH2 0x181A JUMP JUMPDEST DUP10 ADD MLOAD SWAP3 POP DUP11 PUSH2 0x3F7 JUMP JUMPDEST PUSH1 0x1F SWAP3 SWAP2 SWAP3 NOT DUP3 AND SWAP1 PUSH1 0x2 PUSH1 0x0 MSTORE PUSH1 0x0 DUP1 MLOAD PUSH1 0x20 PUSH2 0x1DA4 DUP4 CODECOPY DUP2 MLOAD SWAP2 MSTORE SWAP2 PUSH1 0x0 JUMPDEST DUP2 DUP2 LT PUSH2 0x4B0 JUMPI POP SWAP2 DUP4 SWAP2 PUSH1 0x0 DUP1 MLOAD PUSH1 0x20 PUSH2 0x1DE4 DUP4 CODECOPY DUP2 MLOAD SWAP2 MSTORE SWAP7 SWAP5 PUSH1 0x0 DUP1 MLOAD PUSH1 0x20 PUSH2 0x1DC4 DUP4 CODECOPY DUP2 MLOAD SWAP2 MSTORE SWAP11 SWAP7 SWAP5 LT PUSH2 0x497 JUMPI JUMPDEST POP POP DUP2 SHL ADD PUSH1 0x2 SSTORE PUSH2 0x409 JUMP JUMPDEST DUP9 ADD MLOAD PUSH1 0x0 NOT PUSH1 0xF8 DUP5 PUSH1 0x3 SHL AND SHR NOT AND SWAP1 SSTORE DUP9 DUP1 PUSH2 0x48A JUMP JUMPDEST DUP9 DUP4 ADD MLOAD DUP5 SSTORE SWAP3 DUP6 ADD SWAP3 PUSH1 0x20 SWAP3 DUP4 ADD SWAP3 ADD PUSH2 0x456 JUMP JUMPDEST PUSH1 0x2 PUSH1 0x0 MSTORE PUSH1 0x0 DUP1 MLOAD PUSH1 0x20 PUSH2 0x1DA4 DUP4 CODECOPY DUP2 MLOAD SWAP2 MSTORE DUP3 DUP1 DUP7 ADD PUSH1 0x5 SHR DUP3 ADD SWAP3 PUSH1 0x20 DUP8 LT PUSH2 0x510 JUMPI JUMPDEST ADD PUSH1 0x5 SHR ADD SWAP1 DUP4 SWAP1 JUMPDEST DUP3 DUP2 LT PUSH2 0x504 JUMPI POP POP PUSH2 0x3BD JUMP JUMPDEST PUSH1 0x0 DUP2 SSTORE ADD DUP4 SWAP1 PUSH2 0x4F6 JUMP JUMPDEST SWAP3 POP DUP2 SWAP3 PUSH2 0x4ED JUMP JUMPDEST SWAP1 POP DUP9 ADD MLOAD DUP10 PUSH2 0x38E JUMP JUMPDEST DUP5 SWAP3 POP PUSH1 0x1F NOT DUP3 AND SWAP1 DUP4 PUSH1 0x0 MSTORE PUSH1 0x0 DUP1 MLOAD PUSH1 0x20 PUSH2 0x1E04 DUP4 CODECOPY DUP2 MLOAD SWAP2 MSTORE SWAP2 PUSH1 0x0 JUMPDEST DUP13 DUP3 DUP3 LT PUSH2 0x57A JUMPI POP POP DUP4 GT PUSH2 0x561 JUMPI JUMPDEST POP POP DUP2 SHL ADD DUP3 SSTORE PUSH2 0x3A1 JUMP JUMPDEST DUP11 ADD MLOAD PUSH1 0x0 NOT PUSH1 0xF8 DUP5 PUSH1 0x3 SHL AND SHR NOT AND SWAP1 SSTORE DUP10 DUP1 PUSH2 0x555 JUMP JUMPDEST DUP4 ADD MLOAD DUP5 SSTORE DUP8 SWAP6 SWAP1 SWAP4 ADD SWAP3 PUSH1 0x20 SWAP3 DUP4 ADD SWAP3 ADD PUSH2 0x544 JUMP JUMPDEST DUP4 PUSH1 0x0 MSTORE PUSH1 0x0 DUP1 MLOAD PUSH1 0x20 PUSH2 0x1E04 DUP4 CODECOPY DUP2 MLOAD SWAP2 MSTORE DUP4 DUP1 DUP5 ADD PUSH1 0x5 SHR DUP3 ADD SWAP3 PUSH1 0x20 DUP6 LT PUSH2 0x5DA JUMPI JUMPDEST ADD PUSH1 0x5 SHR ADD SWAP1 DUP5 SWAP1 JUMPDEST DUP3 DUP2 LT PUSH2 0x5CE JUMPI POP POP PUSH2 0x378 JUMP JUMPDEST PUSH1 0x0 DUP2 SSTORE ADD DUP5 SWAP1 PUSH2 0x5C0 JUMP JUMPDEST SWAP3 POP DUP2 SWAP3 PUSH2 0x5B7 JUMP JUMPDEST CALLVALUE PUSH2 0x228 JUMPI PUSH1 0x20 DUP1 PUSH1 0x3 NOT CALLDATASIZE ADD SLT PUSH2 0x228 JUMPI PUSH8 0xFFFFFFFFFFFFFFFF PUSH1 0x4 CALLDATALOAD DUP2 DUP2 GT PUSH2 0x228 JUMPI PUSH2 0x616 SWAP1 CALLDATASIZE SWAP1 PUSH1 0x4 ADD PUSH2 0x17A7 JUMP JUMPDEST SWAP1 PUSH2 0x61F PUSH2 0x17EE JUMP JUMPDEST PUSH2 0x627 PUSH2 0x16BF JUMP JUMPDEST SWAP1 DUP3 MLOAD SWAP1 DUP2 GT PUSH2 0x212 JUMPI PUSH1 0x1 SWAP1 PUSH2 0x63E DUP3 SLOAD PUSH2 0x1563 JUMP JUMPDEST PUSH1 0x1F DUP2 GT PUSH2 0x718 JUMPI JUMPDEST POP DUP5 PUSH1 0x1F DUP3 GT PUSH1 0x1 EQ PUSH2 0x69A JUMPI POP DUP1 PUSH1 0x0 DUP1 MLOAD PUSH1 0x20 PUSH2 0x1DE4 DUP4 CODECOPY DUP2 MLOAD SWAP2 MSTORE SWAP6 PUSH1 0x0 SWAP2 PUSH2 0x68F JUMPI JUMPDEST POP PUSH1 0x0 NOT PUSH1 0x3 DUP4 SWAP1 SHL SHR NOT AND SWAP1 DUP3 SHL OR SWAP1 SSTORE PUSH2 0x12E PUSH1 0x40 MLOAD SWAP3 DUP4 SWAP3 DUP4 PUSH2 0x181A JUMP JUMPDEST SWAP1 POP DUP5 ADD MLOAD DUP7 PUSH2 0x66E JUMP JUMPDEST SWAP5 PUSH1 0x1F NOT DUP3 AND DUP4 PUSH1 0x0 MSTORE PUSH1 0x0 DUP1 MLOAD PUSH1 0x20 PUSH2 0x1E04 DUP4 CODECOPY DUP2 MLOAD SWAP2 MSTORE SWAP7 PUSH1 0x0 SWAP1 JUMPDEST DUP3 DUP3 LT PUSH2 0x701 JUMPI POP POP SWAP6 DUP3 SWAP2 DUP5 SWAP4 PUSH1 0x0 DUP1 MLOAD PUSH1 0x20 PUSH2 0x1DE4 DUP4 CODECOPY DUP2 MLOAD SWAP2 MSTORE SWAP9 LT PUSH2 0x6E8 JUMPI JUMPDEST POP POP DUP2 SHL ADD SWAP1 SSTORE PUSH2 0x11F JUMP JUMPDEST DUP7 ADD MLOAD PUSH1 0x0 NOT PUSH1 0xF8 DUP5 PUSH1 0x3 SHL AND SHR NOT AND SWAP1 SSTORE DUP7 DUP1 PUSH2 0x6DC JUMP JUMPDEST DUP8 DUP5 ADD MLOAD DUP10 SSTORE SWAP8 DUP6 ADD SWAP8 SWAP3 DUP4 ADD SWAP3 SWAP1 DUP2 ADD SWAP1 PUSH2 0x6B8 JUMP JUMPDEST DUP3 PUSH1 0x0 MSTORE PUSH1 0x0 DUP1 MLOAD PUSH1 0x20 PUSH2 0x1E04 DUP4 CODECOPY DUP2 MLOAD SWAP2 MSTORE PUSH1 0x1F DUP4 ADD PUSH1 0x5 SHR DUP2 ADD SWAP2 DUP8 DUP5 LT PUSH2 0x762 JUMPI JUMPDEST PUSH1 0x1F ADD PUSH1 0x5 SHR ADD SWAP1 DUP4 SWAP1 JUMPDEST DUP3 DUP2 LT PUSH2 0x756 JUMPI POP POP PUSH2 0x647 JUMP JUMPDEST PUSH1 0x0 DUP2 SSTORE ADD DUP4 SWAP1 PUSH2 0x748 JUMP JUMPDEST SWAP1 SWAP2 POP DUP2 SWAP1 PUSH2 0x73D JUMP JUMPDEST CALLVALUE PUSH2 0x228 JUMPI PUSH1 0x0 CALLDATASIZE PUSH1 0x3 NOT ADD SLT PUSH2 0x228 JUMPI PUSH1 0x0 SLOAD PUSH1 0x40 MLOAD PUSH1 0x1 PUSH1 0x1 PUSH1 0xA0 SHL SUB SWAP1 SWAP2 AND DUP2 MSTORE PUSH1 0x20 SWAP1 RETURN JUMPDEST CALLVALUE PUSH2 0x228 JUMPI PUSH1 0x0 CALLDATASIZE PUSH1 0x3 NOT ADD SLT PUSH2 0x228 JUMPI PUSH2 0x7AE PUSH2 0x17EE JUMP JUMPDEST PUSH1 0x0 DUP1 SLOAD PUSH1 0x1 PUSH1 0x1 PUSH1 0xA0 SHL SUB NOT DUP2 AND DUP3 SSTORE PUSH1 0x1 PUSH1 0x1 PUSH1 0xA0 SHL SUB AND PUSH32 0x8BE0079C531659141344CD1FD0A4F28419497F9722A3DAAFE3B4186F6B6457E0 DUP3 DUP1 LOG3 STOP JUMPDEST CALLVALUE PUSH2 0x228 JUMPI PUSH1 0x3 NOT PUSH1 0xA0 CALLDATASIZE DUP3 ADD SLT PUSH2 0x228 JUMPI PUSH1 0x4 CALLDATALOAD SWAP1 PUSH8 0xFFFFFFFFFFFFFFFF SWAP1 DUP2 DUP4 GT PUSH2 0x228 JUMPI PUSH1 0xC0 SWAP1 DUP4 CALLDATASIZE SUB ADD SLT PUSH2 0x228 JUMPI PUSH1 0x40 MLOAD SWAP2 PUSH1 0xC0 DUP4 ADD DUP4 DUP2 LT DUP4 DUP3 GT OR PUSH2 0x212 JUMPI PUSH1 0x40 MSTORE DUP1 PUSH1 0x4 ADD CALLDATALOAD DUP3 DUP2 GT PUSH2 0x228 JUMPI PUSH2 0x853 SWAP1 PUSH1 0x4 CALLDATASIZE SWAP2 DUP5 ADD ADD PUSH2 0x17A7 JUMP JUMPDEST DUP4 MSTORE PUSH1 0x24 DUP2 ADD CALLDATALOAD DUP3 DUP2 GT PUSH2 0x228 JUMPI PUSH2 0x871 SWAP1 PUSH1 0x4 CALLDATASIZE SWAP2 DUP5 ADD ADD PUSH2 0x17A7 JUMP JUMPDEST PUSH1 0x20 DUP5 ADD MSTORE PUSH1 0x44 DUP2 ADD CALLDATALOAD DUP3 DUP2 GT PUSH2 0x228 JUMPI PUSH2 0x892 SWAP1 PUSH1 0x4 CALLDATASIZE SWAP2 DUP5 ADD ADD PUSH2 0x17A7 JUMP JUMPDEST PUSH1 0x40 DUP5 ADD MSTORE PUSH1 0x64 DUP2 ADD CALLDATALOAD DUP3 DUP2 GT PUSH2 0x228 JUMPI PUSH2 0x8B3 SWAP1 PUSH1 0x4 CALLDATASIZE SWAP2 DUP5 ADD ADD PUSH2 0x17A7 JUMP JUMPDEST PUSH1 0x60 DUP5 ADD MSTORE PUSH1 0x84 DUP2 ADD CALLDATALOAD DUP3 DUP2 GT PUSH2 0x228 JUMPI PUSH2 0x8D4 SWAP1 PUSH1 0x4 CALLDATASIZE SWAP2 DUP5 ADD ADD PUSH2 0x17A7 JUMP JUMPDEST PUSH1 0x80 DUP5 ADD MSTORE PUSH1 0xA4 DUP2 ADD CALLDATALOAD SWAP1 DUP3 DUP3 GT PUSH2 0x228 JUMPI PUSH1 0x4 PUSH2 0x8F5 SWAP3 CALLDATASIZE SWAP3 ADD ADD PUSH2 0x17A7 JUMP JUMPDEST PUSH1 0xA0 DUP4 ADD MSTORE PUSH1 0x44 CALLDATALOAD PUSH1 0x1 PUSH1 0x1 PUSH1 0xA0 SHL SUB DUP2 AND SWAP1 SUB PUSH2 0x228 JUMPI PUSH1 0x64 CALLDATALOAD SWAP1 DUP2 GT PUSH2 0x228 JUMPI PUSH2 0x925 SWAP1 CALLDATASIZE SWAP1 PUSH1 0x4 ADD PUSH2 0x17A7 JUMP JUMPDEST SWAP1 PUSH1 0x84 CALLDATALOAD SWAP1 PUSH1 0x1 PUSH1 0x1 PUSH1 0xA0 SHL SUB DUP3 AND DUP3 SUB PUSH2 0x228 JUMPI DUP3 MLOAD ISZERO PUSH2 0x150F JUMPI PUSH1 0x60 DUP1 DUP1 PUSH1 0x24 CALLDATALOAD PUSH2 0x127D JUMPI POP POP POP PUSH1 0x4 PUSH1 0x40 MLOAD PUSH2 0x95D DUP2 PUSH2 0x159D JUMP JUMPDEST PUSH1 0x3 DUP2 MSTORE PUSH3 0x714BC9 PUSH1 0xE9 SHL PUSH1 0x20 DUP3 ADD MSTORE SWAP3 PUSH2 0x98D PUSH1 0x40 DUP5 ADD MLOAD PUSH2 0x97E PUSH2 0x16BF JUMP JUMPDEST DUP8 PUSH2 0x987 PUSH2 0x1613 JUMP JUMPDEST SWAP3 PUSH2 0x1BC7 JUMP JUMPDEST SWAP3 PUSH1 0x20 DUP1 DUP3 ADD MLOAD SWAP3 JUMPDEST PUSH1 0x40 MLOAD PUSH4 0x670D2969 PUSH1 0xE1 SHL DUP2 MSTORE SWAP5 DUP6 SWAP2 DUP3 SWAP1 PUSH1 0x1 PUSH1 0x1 PUSH1 0xA0 SHL SUB AND GAS STATICCALL SWAP3 DUP4 ISZERO PUSH2 0x1109 JUMPI PUSH1 0x0 SWAP4 PUSH2 0x1239 JUMPI JUMPDEST POP PUSH1 0x40 MLOAD PUSH4 0x3EAD5D11 PUSH1 0xE0 SHL DUP2 MSTORE PUSH1 0x20 DUP2 PUSH1 0x4 DUP2 PUSH1 0x1 PUSH1 0x1 PUSH1 0xA0 SHL SUB DUP9 AND GAS STATICCALL SWAP1 DUP2 ISZERO PUSH2 0x1109 JUMPI PUSH1 0x24 SWAP2 PUSH1 0x0 SWAP2 DUP3 SWAP2 PUSH2 0x121A JUMPI JUMPDEST POP PUSH1 0x40 MLOAD PUSH4 0x5421432B PUSH1 0xE1 SHL DUP2 MSTORE PUSH1 0x1 PUSH1 0x1 PUSH1 0xA0 SHL SUB PUSH1 0x44 CALLDATALOAD DUP2 AND PUSH1 0x4 DUP4 ADD MSTORE SWAP1 SWAP4 DUP5 SWAP3 SWAP1 SWAP2 DUP4 SWAP2 AND GAS STATICCALL SWAP1 DUP2 ISZERO PUSH2 0x1109 JUMPI PUSH1 0x0 SWAP2 PUSH2 0x11FF JUMPI JUMPDEST POP PUSH1 0x40 MLOAD PUSH4 0x3EAD5D11 PUSH1 0xE0 SHL DUP2 MSTORE PUSH1 0x20 DUP2 PUSH1 0x4 DUP2 PUSH1 0x1 PUSH1 0x1 PUSH1 0xA0 SHL SUB DUP10 AND GAS STATICCALL SWAP1 DUP2 ISZERO PUSH2 0x1109 JUMPI PUSH1 0x24 SWAP2 PUSH1 0x0 SWAP2 DUP3 SWAP2 PUSH2 0x11E0 JUMPI JUMPDEST POP PUSH1 0x40 MLOAD PUSH4 0x437E6A1 PUSH1 0xE2 SHL DUP2 MSTORE PUSH1 0x1 PUSH1 0x1 PUSH1 0xA0 SHL SUB PUSH1 0x44 CALLDATALOAD DUP2 AND PUSH1 0x4 DUP4 ADD MSTORE SWAP1 SWAP4 DUP5 SWAP3 SWAP1 SWAP2 DUP4 SWAP2 AND GAS STATICCALL SWAP1 DUP2 ISZERO PUSH2 0x1109 JUMPI PUSH1 0x0 SWAP2 PUSH2 0x11C5 JUMPI JUMPDEST POP PUSH1 0x40 MLOAD PUSH4 0x3EAD5D11 PUSH1 0xE0 SHL DUP2 MSTORE SWAP5 PUSH1 0x20 DUP7 PUSH1 0x4 DUP2 PUSH1 0x1 PUSH1 0x1 PUSH1 0xA0 SHL SUB DUP6 AND GAS STATICCALL SWAP6 DUP7 ISZERO PUSH2 0x1109 JUMPI PUSH1 0x24 SWAP7 PUSH1 0x0 SWAP2 DUP3 SWAP2 PUSH2 0x11A6 JUMPI JUMPDEST POP PUSH1 0x40 MLOAD PUSH4 0xCC7E5445 PUSH1 0xE0 SHL DUP2 MSTORE PUSH1 0x1 PUSH1 0x1 PUSH1 0xA0 SHL SUB PUSH1 0x44 CALLDATALOAD DUP2 AND PUSH1 0x4 DUP4 ADD MSTORE SWAP1 SWAP9 DUP10 SWAP3 SWAP1 SWAP2 DUP4 SWAP2 AND GAS STATICCALL SWAP6 DUP7 ISZERO PUSH2 0x1109 JUMPI PUSH1 0x0 SWAP7 PUSH2 0x1189 JUMPI JUMPDEST POP PUSH1 0x40 MLOAD PUSH4 0x3EAD5D11 PUSH1 0xE0 SHL DUP2 MSTORE SWAP3 PUSH1 0x20 DUP5 PUSH1 0x4 DUP2 PUSH1 0x1 PUSH1 0x1 PUSH1 0xA0 SHL SUB DUP7 AND GAS STATICCALL SWAP4 DUP5 ISZERO PUSH2 0x1109 JUMPI PUSH1 0x24 SWAP5 PUSH1 0x0 SWAP2 DUP3 SWAP2 PUSH2 0x116A JUMPI JUMPDEST POP PUSH1 0x40 MLOAD PUSH4 0x164158FF PUSH1 0xE0 SHL DUP2 MSTORE PUSH1 0x1 PUSH1 0x1 PUSH1 0xA0 SHL SUB PUSH1 0x44 CALLDATALOAD DUP2 AND PUSH1 0x4 DUP4 ADD MSTORE SWAP1 SWAP7 DUP8 SWAP3 SWAP1 SWAP2 DUP4 SWAP2 AND GAS STATICCALL SWAP2 DUP3 ISZERO PUSH2 0x1109 JUMPI PUSH1 0x4 SWAP5 PUSH1 0x0 SWAP4 PUSH2 0x1142 JUMPI JUMPDEST POP PUSH1 0x40 MLOAD PUSH4 0x3EAD5D11 PUSH1 0xE0 SHL DUP2 MSTORE SWAP5 PUSH1 0x20 SWAP2 DUP7 SWAP2 SWAP1 DUP3 SWAP1 PUSH1 0x1 PUSH1 0x1 PUSH1 0xA0 SHL SUB AND GAS STATICCALL SWAP4 DUP5 ISZERO PUSH2 0x1109 JUMPI PUSH1 0x24 SWAP5 PUSH1 0x20 SWAP2 PUSH1 0x0 SWAP2 PUSH2 0x1115 JUMPI JUMPDEST POP PUSH1 0x40 MLOAD PUSH4 0xA4493575 PUSH1 0xE0 SHL DUP2 MSTORE PUSH1 0x1 PUSH1 0x1 PUSH1 0xA0 SHL SUB PUSH1 0x44 CALLDATALOAD DUP2 AND PUSH1 0x4 DUP4 ADD MSTORE SWAP1 SWAP7 DUP8 SWAP3 SWAP1 SWAP2 DUP4 SWAP2 AND GAS STATICCALL SWAP4 DUP5 ISZERO PUSH2 0x1109 JUMPI PUSH1 0x0 SWAP5 PUSH2 0x10B6 JUMPI JUMPDEST POP SWAP4 PUSH2 0x2ED SWAP10 PUSH2 0xE4D SWAP9 SWAP5 PUSH2 0xD43 PUSH1 0x5D PUSH2 0xFDE SWAP11 SWAP7 PUSH1 0x85 SWAP11 SWAP7 DUP11 PUSH2 0xFE3 SWAP16 SWAP12 MLOAD ISZERO ISZERO PUSH1 0x0 EQ PUSH2 0x109F JUMPI SWAP2 JUMPDEST DUP1 MLOAD ISZERO PUSH2 0x1088 JUMPI SWAP9 JUMPDEST DUP1 MLOAD ISZERO PUSH2 0x1071 JUMPI SWAP1 JUMPDEST DUP1 MLOAD ISZERO PUSH2 0x105A JUMPI SWAP1 JUMPDEST PUSH1 0x40 MLOAD SWAP10 DUP11 SWAP4 PUSH18 0x227265676973747279436F646573223A207B PUSH1 0x70 SHL PUSH1 0x20 DUP7 ADD MSTORE PUSH9 0x1124A9A921911D1011 PUSH1 0xB9 SHL PUSH1 0x32 DUP7 ADD MSTORE PUSH2 0xC7D DUP2 MLOAD DUP1 SWAP3 PUSH1 0x20 PUSH1 0x3B DUP10 ADD SWAP2 ADD PUSH2 0x1743 JUMP JUMPDEST PUSH2 0x88B PUSH1 0xF2 SHL DUP6 DUP3 ADD PUSH1 0x3B DUP2 ADD SWAP2 SWAP1 SWAP2 MSTORE PUSH8 0x112AA821911D1011 PUSH1 0xC1 SHL PUSH1 0x3D DUP3 ADD MSTORE DUP3 MLOAD SWAP3 PUSH2 0xCB6 SWAP2 DUP5 SWAP2 PUSH1 0x45 SWAP1 SWAP2 ADD SWAP1 PUSH1 0x20 ADD PUSH2 0x1743 JUMP JUMPDEST DUP5 ADD ADD PUSH2 0x88B PUSH1 0xF2 SHL PUSH1 0x45 DUP3 ADD MSTORE PUSH9 0x1124A9ABA1911D1011 PUSH1 0xB9 SHL PUSH1 0x47 DUP3 ADD MSTORE PUSH2 0xCEA DUP3 MLOAD DUP1 SWAP4 PUSH1 0x20 PUSH1 0x50 DUP6 ADD SWAP2 ADD PUSH2 0x1743 JUMP JUMPDEST ADD PUSH2 0x88B PUSH1 0xF2 SHL PUSH1 0x50 DUP3 ADD MSTORE PUSH9 0x1124A9A1A1911D1011 PUSH1 0xB9 SHL PUSH1 0x52 DUP3 ADD MSTORE PUSH2 0xD1C DUP3 MLOAD DUP1 SWAP4 PUSH1 0x20 PUSH1 0x5B DUP6 ADD SWAP2 ADD PUSH2 0x1743 JUMP JUMPDEST PUSH1 0x11 PUSH1 0xF9 SHL PUSH1 0x5B DUP4 DUP4 ADD ADD MSTORE PUSH1 0x7D PUSH1 0xF8 SHL PUSH1 0x5C DUP4 DUP4 ADD ADD MSTORE ADD SUB PUSH1 0x3D DUP2 ADD DUP9 MSTORE ADD DUP7 PUSH2 0x15F1 JUMP JUMPDEST ISZERO PUSH2 0x1036 JUMPI PUSH1 0x40 MLOAD PUSH2 0xD54 DUP2 PUSH2 0x159D JUMP JUMPDEST PUSH1 0x4 DUP2 MSTORE PUSH4 0x74727565 PUSH1 0xE0 SHL PUSH1 0x20 DUP3 ADD MSTORE SWAP5 JUMPDEST PUSH2 0xDD1 PUSH1 0x41 PUSH1 0x40 MLOAD DUP1 SWAP9 PUSH17 0x2261757468656E746963697479223A207B PUSH1 0x78 SHL PUSH1 0x20 DUP4 ADD MSTORE PUSH15 0x1134B9A0BABA3432B73A34B1911D1 PUSH1 0x8D SHL PUSH1 0x31 DUP4 ADD MSTORE PUSH2 0xDB7 DUP2 MLOAD DUP1 SWAP3 PUSH1 0x20 PUSH1 0x40 DUP7 ADD SWAP2 ADD PUSH2 0x1743 JUMP JUMPDEST DUP2 ADD PUSH1 0x7D PUSH1 0xF8 SHL PUSH1 0x40 DUP3 ADD MSTORE SUB PUSH1 0x21 DUP2 ADD DUP10 MSTORE ADD DUP8 PUSH2 0x15F1 JUMP JUMPDEST DUP3 MLOAD SWAP4 PUSH2 0xE21 PUSH2 0xDF0 PUSH1 0x60 DUP7 ADD MLOAD PUSH2 0xDE7 PUSH2 0x16BF JUMP JUMPDEST DUP7 PUSH2 0x987 PUSH2 0x1613 JUMP JUMPDEST SWAP4 PUSH1 0xA0 PUSH2 0xE0C PUSH1 0x80 DUP9 ADD MLOAD PUSH2 0xE03 PUSH2 0x16BF JUMP JUMPDEST DUP5 PUSH2 0x987 PUSH2 0x1613 JUMP JUMPDEST SWAP7 ADD MLOAD SWAP1 PUSH2 0xE18 PUSH2 0x16BF JUMP JUMPDEST SWAP1 PUSH2 0x987 PUSH2 0x1613 JUMP JUMPDEST SWAP5 PUSH1 0x2A PUSH1 0x40 MLOAD SWAP13 DUP14 DUP1 SWAP12 PUSH10 0x3D913730B6B2911D1011 PUSH1 0xB1 SHL PUSH1 0x20 DUP4 ADD MSTORE PUSH1 0x20 DUP2 MLOAD SWAP5 DUP6 SWAP4 ADD SWAP2 ADD PUSH2 0x1743 JUMP JUMPDEST DUP10 ADD PUSH1 0x1 PUSH1 0xFD SHL PUSH1 0x2A DUP3 ADD MSTORE PUSH2 0xE6D DUP3 MLOAD DUP1 SWAP4 PUSH1 0x20 PUSH1 0x2B DUP6 ADD SWAP2 ADD PUSH2 0x1743 JUMP JUMPDEST ADD PUSH2 0x88B PUSH1 0xF2 SHL PUSH1 0x2B DUP3 ADD MSTORE PUSH16 0x113232B9B1B934B83A34B7B7111D1011 PUSH1 0x81 SHL PUSH1 0x2D DUP3 ADD MSTORE PUSH2 0xEA6 DUP3 MLOAD DUP1 SWAP4 PUSH1 0x20 PUSH1 0x3D DUP6 ADD SWAP2 ADD PUSH2 0x1743 JUMP JUMPDEST ADD PUSH2 0x88B PUSH1 0xF2 SHL PUSH1 0x3D DUP3 ADD MSTORE PUSH10 0x1134B6B0B3B2911D1011 PUSH1 0xB1 SHL PUSH1 0x3F DUP3 ADD MSTORE PUSH2 0xED9 DUP3 MLOAD DUP1 SWAP4 PUSH1 0x20 PUSH1 0x49 DUP6 ADD SWAP2 ADD PUSH2 0x1743 JUMP JUMPDEST ADD PUSH2 0x88B PUSH1 0xF2 SHL PUSH1 0x49 DUP3 ADD MSTORE PUSH17 0x1132BC3A32B93730B62FBAB936111D1011 PUSH1 0x79 SHL PUSH1 0x4B DUP3 ADD MSTORE PUSH2 0xF13 DUP3 MLOAD DUP1 SWAP4 PUSH1 0x20 PUSH1 0x5C DUP6 ADD SWAP2 ADD PUSH2 0x1743 JUMP JUMPDEST ADD PUSH2 0x88B PUSH1 0xF2 SHL PUSH1 0x5C DUP3 ADD MSTORE PUSH18 0x1130B734B6B0BA34B7B72FBAB936111D1011 PUSH1 0x71 SHL PUSH1 0x5E DUP3 ADD MSTORE PUSH2 0xF4E DUP3 MLOAD DUP1 SWAP4 PUSH1 0x20 PUSH1 0x70 DUP6 ADD SWAP2 ADD PUSH2 0x1743 JUMP JUMPDEST ADD PUSH2 0x88B PUSH1 0xF2 SHL PUSH1 0x70 DUP3 ADD MSTORE PUSH15 0x1130BA3A3934B13ABA32B9911D1011 PUSH1 0x89 SHL PUSH1 0x72 DUP3 ADD MSTORE PUSH2 0xF86 DUP3 MLOAD DUP1 SWAP4 PUSH1 0x20 PUSH1 0x81 DUP6 ADD SWAP2 ADD PUSH2 0x1743 JUMP JUMPDEST ADD PUSH2 0x88B PUSH1 0xF2 SHL PUSH1 0x81 DUP3 ADD MSTORE PUSH2 0xFA6 DUP3 MLOAD DUP1 SWAP4 PUSH1 0x20 PUSH1 0x83 DUP6 ADD SWAP2 ADD PUSH2 0x1743 JUMP JUMPDEST ADD PUSH1 0xB PUSH1 0xFA SHL PUSH1 0x83 DUP3 ADD MSTORE PUSH2 0xFC5 DUP3 MLOAD DUP1 SWAP4 PUSH1 0x20 PUSH1 0x84 DUP6 ADD SWAP2 ADD PUSH2 0x1743 JUMP JUMPDEST ADD PUSH1 0x7D PUSH1 0xF8 SHL PUSH1 0x84 DUP3 ADD MSTORE SUB PUSH1 0x65 DUP2 ADD DUP5 MSTORE ADD DUP3 PUSH2 0x15F1 JUMP JUMPDEST PUSH2 0x18C0 JUMP JUMPDEST PUSH2 0x2D9 PUSH1 0x3D PUSH1 0x40 MLOAD DUP1 SWAP4 PUSH32 0x646174613A6170706C69636174696F6E2F6A736F6E3B6261736536342C000000 PUSH1 0x20 DUP4 ADD MSTORE PUSH2 0x1026 DUP2 MLOAD DUP1 SWAP3 PUSH1 0x20 DUP7 DUP7 ADD SWAP2 ADD PUSH2 0x1743 JUMP JUMPDEST DUP2 ADD SUB PUSH1 0x1D DUP2 ADD DUP5 MSTORE ADD DUP3 PUSH2 0x15F1 JUMP JUMPDEST PUSH1 0x40 MLOAD PUSH2 0x1042 DUP2 PUSH2 0x159D JUMP JUMPDEST PUSH1 0x5 DUP2 MSTORE PUSH5 0x66616C7365 PUSH1 0xD8 SHL PUSH1 0x20 DUP3 ADD MSTORE SWAP5 PUSH2 0xD67 JUMP JUMPDEST POP PUSH1 0x40 MLOAD PUSH2 0x1067 DUP2 PUSH2 0x15B9 JUMP JUMPDEST PUSH1 0x0 DUP2 MSTORE SWAP1 PUSH2 0xC36 JUMP JUMPDEST POP PUSH1 0x40 MLOAD PUSH2 0x107E DUP2 PUSH2 0x15B9 JUMP JUMPDEST PUSH1 0x0 DUP2 MSTORE SWAP1 PUSH2 0xC2D JUMP JUMPDEST POP PUSH1 0x40 MLOAD PUSH2 0x1095 DUP2 PUSH2 0x15B9 JUMP JUMPDEST PUSH1 0x0 DUP2 MSTORE SWAP9 PUSH2 0xC24 JUMP JUMPDEST POP PUSH1 0x40 MLOAD PUSH2 0x10AC DUP2 PUSH2 0x15B9 JUMP JUMPDEST PUSH1 0x0 DUP2 MSTORE SWAP2 PUSH2 0xC1B JUMP JUMPDEST SWAP1 SWAP9 SWAP5 SWAP7 SWAP3 SWAP6 SWAP2 SWAP8 SWAP4 POP PUSH1 0x20 DUP2 RETURNDATASIZE PUSH1 0x20 GT PUSH2 0x1101 JUMPI JUMPDEST DUP2 PUSH2 0x10D9 PUSH1 0x20 SWAP4 DUP4 PUSH2 0x15F1 JUMP JUMPDEST DUP2 ADD SUB SLT PUSH2 0x228 JUMPI MLOAD SWAP6 DUP7 ISZERO ISZERO DUP8 SUB PUSH2 0x228 JUMPI SWAP4 SWAP8 SWAP3 SWAP7 SWAP2 SWAP6 SWAP1 SWAP5 SWAP1 SWAP3 SWAP1 SWAP2 SWAP1 PUSH2 0x2ED PUSH2 0xBF0 JUMP JUMPDEST RETURNDATASIZE SWAP2 POP PUSH2 0x10CC JUMP JUMPDEST PUSH1 0x40 MLOAD RETURNDATASIZE PUSH1 0x0 DUP3 RETURNDATACOPY RETURNDATASIZE SWAP1 REVERT JUMPDEST PUSH2 0x1135 SWAP2 POP DUP3 RETURNDATASIZE DUP5 GT PUSH2 0x113B JUMPI JUMPDEST PUSH2 0x112D DUP2 DUP4 PUSH2 0x15F1 JUMP JUMPDEST DUP2 ADD SWAP1 PUSH2 0x1842 JUMP JUMPDEST DUP13 PUSH2 0xBB6 JUMP JUMPDEST POP RETURNDATASIZE PUSH2 0x1123 JUMP JUMPDEST PUSH1 0x20 SWAP2 SWAP4 POP PUSH2 0x1163 SWAP1 RETURNDATASIZE DUP1 PUSH1 0x0 DUP4 RETURNDATACOPY PUSH2 0x115B DUP2 DUP4 PUSH2 0x15F1 JUMP JUMPDEST DUP2 ADD SWAP1 PUSH2 0x1861 JUMP JUMPDEST SWAP3 SWAP1 PUSH2 0xB7F JUMP JUMPDEST PUSH2 0x1183 SWAP2 POP PUSH1 0x20 RETURNDATASIZE PUSH1 0x20 GT PUSH2 0x113B JUMPI PUSH2 0x112D DUP2 DUP4 PUSH2 0x15F1 JUMP JUMPDEST DUP13 PUSH2 0xB42 JUMP JUMPDEST PUSH2 0x119F SWAP2 SWAP7 POP RETURNDATASIZE DUP1 PUSH1 0x0 DUP4 RETURNDATACOPY PUSH2 0x115B DUP2 DUP4 PUSH2 0x15F1 JUMP JUMPDEST SWAP5 DUP10 PUSH2 0xB0D JUMP JUMPDEST PUSH2 0x11BF SWAP2 POP PUSH1 0x20 RETURNDATASIZE PUSH1 0x20 GT PUSH2 0x113B JUMPI PUSH2 0x112D DUP2 DUP4 PUSH2 0x15F1 JUMP JUMPDEST DUP12 PUSH2 0xAD3 JUMP JUMPDEST PUSH2 0x11DA SWAP2 POP RETURNDATASIZE DUP1 PUSH1 0x0 DUP4 RETURNDATACOPY PUSH2 0x115B DUP2 DUP4 PUSH2 0x15F1 JUMP JUMPDEST DUP9 PUSH2 0xA9E JUMP JUMPDEST PUSH2 0x11F9 SWAP2 POP PUSH1 0x20 RETURNDATASIZE PUSH1 0x20 GT PUSH2 0x113B JUMPI PUSH2 0x112D DUP2 DUP4 PUSH2 0x15F1 JUMP JUMPDEST DUP11 PUSH2 0xA64 JUMP JUMPDEST PUSH2 0x1214 SWAP2 POP RETURNDATASIZE DUP1 PUSH1 0x0 DUP4 RETURNDATACOPY PUSH2 0x115B DUP2 DUP4 PUSH2 0x15F1 JUMP JUMPDEST DUP8 PUSH2 0xA30 JUMP JUMPDEST PUSH2 0x1233 SWAP2 POP PUSH1 0x20 RETURNDATASIZE PUSH1 0x20 GT PUSH2 0x113B JUMPI PUSH2 0x112D DUP2 DUP4 PUSH2 0x15F1 JUMP JUMPDEST DUP10 PUSH2 0x9F6 JUMP JUMPDEST SWAP1 SWAP3 POP PUSH1 0x20 DUP2 RETURNDATASIZE PUSH1 0x20 GT PUSH2 0x1275 JUMPI JUMPDEST DUP2 PUSH2 0x1255 PUSH1 0x20 SWAP4 DUP4 PUSH2 0x15F1 JUMP JUMPDEST DUP2 ADD SUB SLT PUSH2 0x228 JUMPI MLOAD PUSH1 0x1 PUSH1 0x1 PUSH1 0xA0 SHL SUB DUP2 AND DUP2 SUB PUSH2 0x228 JUMPI SWAP2 DUP7 PUSH2 0x9C2 JUMP JUMPDEST RETURNDATASIZE SWAP2 POP PUSH2 0x1248 JUMP JUMPDEST PUSH1 0x24 CALLDATALOAD PUSH1 0x1 SUB PUSH2 0x1374 JUMPI POP POP POP PUSH1 0x4 PUSH1 0x40 MLOAD PUSH2 0x1298 DUP2 PUSH2 0x159D JUMP JUMPDEST PUSH1 0x2 DUP2 MSTORE PUSH2 0xC2A7 PUSH1 0xF0 SHL PUSH1 0x20 DUP3 ADD MSTORE SWAP3 PUSH2 0x12B8 PUSH1 0x40 DUP5 ADD MLOAD PUSH2 0x97E PUSH2 0x16BF JUMP JUMPDEST SWAP3 PUSH1 0x20 PUSH2 0x12C6 PUSH1 0x44 CALLDATALOAD PUSH2 0x1A81 JUMP JUMPDEST PUSH2 0x136E PUSH1 0x7D PUSH1 0x40 MLOAD DUP1 SWAP4 PUSH32 0x5468657365206172652074686520536F6E675368617265732072657072657365 DUP7 DUP4 ADD MSTORE PUSH32 0x6E74696E6720796F7572207368617265206F6E2074686520726F79616C747920 PUSH1 0x40 DUP4 ADD MSTORE PUSH32 0x6561726E696E6773206F6620746865205772617070656420536F6E6700000000 PUSH1 0x60 DUP4 ADD MSTORE PUSH2 0x1354 DUP2 MLOAD DUP1 SWAP3 DUP9 PUSH1 0x7C DUP7 ADD SWAP2 ADD PUSH2 0x1743 JUMP JUMPDEST DUP2 ADD PUSH1 0x17 PUSH1 0xF9 SHL PUSH1 0x7C DUP3 ADD MSTORE SUB PUSH1 0x5D DUP2 ADD DUP5 MSTORE ADD DUP3 PUSH2 0x15F1 JUMP JUMPDEST SWAP3 PUSH2 0x996 JUMP JUMPDEST PUSH1 0x24 CALLDATALOAD PUSH1 0x2 SUB PUSH2 0x142F JUMPI POP POP POP PUSH1 0x4 PUSH1 0x40 MLOAD PUSH2 0x138F DUP2 PUSH2 0x159D JUMP JUMPDEST PUSH1 0x3 DUP2 MSTORE PUSH3 0xE29FB3 PUSH1 0xE8 SHL PUSH1 0x20 DUP3 ADD MSTORE SWAP3 PUSH2 0x13B0 PUSH1 0x40 DUP5 ADD MLOAD PUSH2 0x97E PUSH2 0x16BF JUMP JUMPDEST SWAP3 PUSH1 0x20 PUSH2 0x13BE PUSH1 0x44 CALLDATALOAD PUSH2 0x1A81 JUMP JUMPDEST PUSH2 0x136E PUSH1 0x4D PUSH1 0x40 MLOAD DUP1 SWAP4 PUSH32 0x546869732069732061204275796F757420546F6B656E20666F72207468652057 DUP7 DUP4 ADD MSTORE PUSH12 0x3930B83832B21029B7B7339 PUSH1 0xA5 SHL PUSH1 0x40 DUP4 ADD MSTORE PUSH2 0x1415 DUP2 MLOAD DUP1 SWAP3 DUP9 PUSH1 0x4C DUP7 ADD SWAP2 ADD PUSH2 0x1743 JUMP JUMPDEST DUP2 ADD PUSH1 0x17 PUSH1 0xF9 SHL PUSH1 0x4C DUP3 ADD MSTORE SUB PUSH1 0x2D DUP2 ADD DUP5 MSTORE ADD DUP3 PUSH2 0x15F1 JUMP JUMPDEST SWAP1 SWAP2 SWAP3 PUSH1 0x3 PUSH1 0x24 CALLDATALOAD LT ISZERO PUSH2 0x144A JUMPI JUMPDEST PUSH1 0x20 PUSH1 0x4 SWAP4 SWAP5 SWAP6 PUSH2 0x996 JUMP JUMPDEST SWAP3 POP POP POP PUSH1 0x4 PUSH1 0x40 MLOAD PUSH2 0x145C DUP2 PUSH2 0x159D JUMP JUMPDEST DUP2 DUP2 MSTORE PUSH4 0x3C27E4E1 PUSH1 0xE2 SHL PUSH1 0x20 DUP3 ADD MSTORE SWAP3 PUSH2 0x147D PUSH1 0x40 DUP5 ADD MLOAD PUSH2 0x97E PUSH2 0x16BF JUMP JUMPDEST SWAP3 PUSH1 0x20 PUSH2 0x148B PUSH1 0x44 CALLDATALOAD PUSH2 0x1A81 JUMP JUMPDEST PUSH2 0x1504 PUSH1 0x55 PUSH1 0x40 MLOAD DUP1 SWAP4 PUSH32 0x546869732069732061204C6567616C20436F6E747261637420546F6B656E2066 DUP7 DUP4 ADD MSTORE PUSH20 0x37B9103A3432902BB930B83832B21029B7B7339 PUSH1 0x65 SHL PUSH1 0x40 DUP4 ADD MSTORE PUSH2 0x14EA DUP2 MLOAD DUP1 SWAP3 DUP9 PUSH1 0x54 DUP7 ADD SWAP2 ADD PUSH2 0x1743 JUMP JUMPDEST DUP2 ADD PUSH1 0x17 PUSH1 0xF9 SHL PUSH1 0x54 DUP3 ADD MSTORE SUB PUSH1 0x35 DUP2 ADD DUP5 MSTORE ADD DUP3 PUSH2 0x15F1 JUMP JUMPDEST SWAP3 SWAP6 SWAP5 SWAP4 POP POP PUSH2 0x143E JUMP JUMPDEST PUSH1 0x40 MLOAD PUSH3 0x461BCD PUSH1 0xE5 SHL DUP2 MSTORE PUSH1 0x20 PUSH1 0x4 DUP3 ADD MSTORE PUSH1 0x10 PUSH1 0x24 DUP3 ADD MSTORE PUSH16 0x10985CD948155492481B9BDD081CD95D PUSH1 0x82 SHL PUSH1 0x44 DUP3 ADD MSTORE PUSH1 0x64 SWAP1 REVERT JUMPDEST CALLVALUE PUSH2 0x228 JUMPI PUSH1 0x0 CALLDATASIZE PUSH1 0x3 NOT ADD SLT PUSH2 0x228 JUMPI PUSH2 0x2ED PUSH2 0x2D9 PUSH2 0x1613 JUMP JUMPDEST SWAP1 PUSH1 0x1 DUP3 DUP2 SHR SWAP3 AND DUP1 ISZERO PUSH2 0x1593 JUMPI JUMPDEST PUSH1 0x20 DUP4 LT EQ PUSH2 0x157D JUMPI JUMP JUMPDEST PUSH4 0x4E487B71 PUSH1 0xE0 SHL PUSH1 0x0 MSTORE PUSH1 0x22 PUSH1 0x4 MSTORE PUSH1 0x24 PUSH1 0x0 REVERT JUMPDEST SWAP2 PUSH1 0x7F AND SWAP2 PUSH2 0x1572 JUMP JUMPDEST PUSH1 0x40 DUP2 ADD SWAP1 DUP2 LT PUSH8 0xFFFFFFFFFFFFFFFF DUP3 GT OR PUSH2 0x212 JUMPI PUSH1 0x40 MSTORE JUMP JUMPDEST PUSH1 0x20 DUP2 ADD SWAP1 DUP2 LT PUSH8 0xFFFFFFFFFFFFFFFF DUP3 GT OR PUSH2 0x212 JUMPI PUSH1 0x40 MSTORE JUMP JUMPDEST PUSH1 0x60 DUP2 ADD SWAP1 DUP2 LT PUSH8 0xFFFFFFFFFFFFFFFF DUP3 GT OR PUSH2 0x212 JUMPI PUSH1 0x40 MSTORE JUMP JUMPDEST SWAP1 PUSH1 0x1F DUP1 NOT SWAP2 ADD AND DUP2 ADD SWAP1 DUP2 LT PUSH8 0xFFFFFFFFFFFFFFFF DUP3 GT OR PUSH2 0x212 JUMPI PUSH1 0x40 MSTORE JUMP JUMPDEST PUSH1 0x40 MLOAD SWAP1 PUSH1 0x0 DUP3 PUSH1 0x2 SLOAD SWAP2 PUSH2 0x1627 DUP4 PUSH2 0x1563 JUMP JUMPDEST DUP1 DUP4 MSTORE SWAP3 PUSH1 0x1 SWAP1 DUP2 DUP2 AND SWAP1 DUP2 ISZERO PUSH2 0x169D JUMPI POP PUSH1 0x1 EQ PUSH2 0x1650 JUMPI JUMPDEST POP PUSH2 0x164E SWAP3 POP SUB DUP4 PUSH2 0x15F1 JUMP JUMPDEST JUMP JUMPDEST PUSH1 0x2 PUSH1 0x0 SWAP1 DUP2 MSTORE SWAP2 POP PUSH1 0x0 DUP1 MLOAD PUSH1 0x20 PUSH2 0x1DA4 DUP4 CODECOPY DUP2 MLOAD SWAP2 MSTORE JUMPDEST DUP5 DUP4 LT PUSH2 0x1682 JUMPI POP PUSH2 0x164E SWAP4 POP POP DUP2 ADD PUSH1 0x20 ADD CODESIZE PUSH2 0x1641 JUMP JUMPDEST DUP2 SWAP4 POP SWAP1 DUP2 PUSH1 0x20 SWAP3 SLOAD DUP4 DUP6 DUP11 ADD ADD MSTORE ADD SWAP2 ADD SWAP1 SWAP2 DUP6 SWAP3 PUSH2 0x1669 JUMP JUMPDEST SWAP1 POP PUSH1 0x20 SWAP3 POP PUSH2 0x164E SWAP5 SWAP2 POP PUSH1 0xFF NOT AND DUP3 DUP5 ADD MSTORE ISZERO ISZERO PUSH1 0x5 SHL DUP3 ADD ADD CODESIZE PUSH2 0x1641 JUMP JUMPDEST PUSH1 0x40 MLOAD SWAP1 PUSH1 0x0 DUP3 PUSH1 0x1 SWAP2 DUP3 SLOAD SWAP3 PUSH2 0x16D5 DUP5 PUSH2 0x1563 JUMP JUMPDEST DUP1 DUP5 MSTORE SWAP4 DUP2 DUP2 AND SWAP1 DUP2 ISZERO PUSH2 0x169D JUMPI POP PUSH1 0x1 EQ PUSH2 0x16F8 JUMPI POP PUSH2 0x164E SWAP3 POP SUB DUP4 PUSH2 0x15F1 JUMP JUMPDEST PUSH1 0x0 DUP2 DUP2 MSTORE SWAP2 POP PUSH1 0x0 DUP1 MLOAD PUSH1 0x20 PUSH2 0x1E04 DUP4 CODECOPY DUP2 MLOAD SWAP2 MSTORE JUMPDEST DUP5 DUP4 LT PUSH2 0x1728 JUMPI POP PUSH2 0x164E SWAP4 POP POP DUP2 ADD PUSH1 0x20 ADD CODESIZE PUSH2 0x1641 JUMP JUMPDEST DUP2 SWAP4 POP SWAP1 DUP2 PUSH1 0x20 SWAP3 SLOAD DUP4 DUP6 DUP11 ADD ADD MSTORE ADD SWAP2 ADD SWAP1 SWAP2 DUP6 SWAP3 PUSH2 0x170F JUMP JUMPDEST PUSH1 0x0 JUMPDEST DUP4 DUP2 LT PUSH2 0x1756 JUMPI POP POP PUSH1 0x0 SWAP2 ADD MSTORE JUMP JUMPDEST DUP2 DUP2 ADD MLOAD DUP4 DUP3 ADD MSTORE PUSH1 0x20 ADD PUSH2 0x1746 JUMP JUMPDEST SWAP1 PUSH1 0x20 SWAP2 PUSH2 0x177F DUP2 MLOAD DUP1 SWAP3 DUP2 DUP6 MSTORE DUP6 DUP1 DUP7 ADD SWAP2 ADD PUSH2 0x1743 JUMP JUMPDEST PUSH1 0x1F ADD PUSH1 0x1F NOT AND ADD ADD SWAP1 JUMP JUMPDEST PUSH8 0xFFFFFFFFFFFFFFFF DUP2 GT PUSH2 0x212 JUMPI PUSH1 0x1F ADD PUSH1 0x1F NOT AND PUSH1 0x20 ADD SWAP1 JUMP JUMPDEST DUP2 PUSH1 0x1F DUP3 ADD SLT ISZERO PUSH2 0x228 JUMPI DUP1 CALLDATALOAD SWAP1 PUSH2 0x17BE DUP3 PUSH2 0x178B JUMP JUMPDEST SWAP3 PUSH2 0x17CC PUSH1 0x40 MLOAD SWAP5 DUP6 PUSH2 0x15F1 JUMP JUMPDEST DUP3 DUP5 MSTORE PUSH1 0x20 DUP4 DUP4 ADD ADD GT PUSH2 0x228 JUMPI DUP2 PUSH1 0x0 SWAP3 PUSH1 0x20 DUP1 SWAP4 ADD DUP4 DUP7 ADD CALLDATACOPY DUP4 ADD ADD MSTORE SWAP1 JUMP JUMPDEST PUSH1 0x0 SLOAD PUSH1 0x1 PUSH1 0x1 PUSH1 0xA0 SHL SUB AND CALLER SUB PUSH2 0x1802 JUMPI JUMP JUMPDEST PUSH1 0x40 MLOAD PUSH4 0x118CDAA7 PUSH1 0xE0 SHL DUP2 MSTORE CALLER PUSH1 0x4 DUP3 ADD MSTORE PUSH1 0x24 SWAP1 REVERT JUMPDEST SWAP1 SWAP2 PUSH2 0x1831 PUSH2 0x183F SWAP4 PUSH1 0x40 DUP5 MSTORE PUSH1 0x40 DUP5 ADD SWAP1 PUSH2 0x1766 JUMP JUMPDEST SWAP2 PUSH1 0x20 DUP2 DUP5 SUB SWAP2 ADD MSTORE PUSH2 0x1766 JUMP JUMPDEST SWAP1 JUMP JUMPDEST SWAP1 DUP2 PUSH1 0x20 SWAP2 SUB SLT PUSH2 0x228 JUMPI MLOAD PUSH1 0x1 PUSH1 0x1 PUSH1 0xA0 SHL SUB DUP2 AND DUP2 SUB PUSH2 0x228 JUMPI SWAP1 JUMP JUMPDEST PUSH1 0x20 DUP2 DUP4 SUB SLT PUSH2 0x228 JUMPI DUP1 MLOAD SWAP1 PUSH8 0xFFFFFFFFFFFFFFFF DUP3 GT PUSH2 0x228 JUMPI ADD DUP2 PUSH1 0x1F DUP3 ADD SLT ISZERO PUSH2 0x228 JUMPI DUP1 MLOAD PUSH2 0x1894 DUP2 PUSH2 0x178B JUMP JUMPDEST SWAP3 PUSH2 0x18A2 PUSH1 0x40 MLOAD SWAP5 DUP6 PUSH2 0x15F1 JUMP JUMPDEST DUP2 DUP5 MSTORE PUSH1 0x20 DUP3 DUP5 ADD ADD GT PUSH2 0x228 JUMPI PUSH2 0x183F SWAP2 PUSH1 0x20 DUP1 DUP6 ADD SWAP2 ADD PUSH2 0x1743 JUMP JUMPDEST DUP1 MLOAD ISZERO PUSH2 0x1A37 JUMPI PUSH1 0x40 MLOAD SWAP1 PUSH2 0x18D4 DUP3 PUSH2 0x15D5 JUMP JUMPDEST PUSH1 0x40 DUP3 MSTORE PUSH32 0x4142434445464748494A4B4C4D4E4F505152535455565758595A616263646566 PUSH1 0x20 DUP4 ADD MSTORE PUSH32 0x6768696A6B6C6D6E6F707172737475767778797A303132333435363738392B2F PUSH1 0x40 DUP4 ADD MSTORE DUP1 MLOAD PUSH1 0x2 SWAP2 DUP3 DUP3 ADD DUP1 SWAP3 GT PUSH2 0x1A21 JUMPI PUSH1 0x3 SWAP2 DUP3 SWAP1 DIV DUP1 DUP5 SHL SWAP5 SWAP1 PUSH1 0x1 PUSH1 0x1 PUSH1 0xFE SHL SUB DUP2 AND SUB PUSH2 0x1A21 JUMPI SWAP3 PUSH2 0x1970 PUSH2 0x195A DUP7 PUSH2 0x178B JUMP JUMPDEST SWAP6 PUSH2 0x1968 PUSH1 0x40 MLOAD SWAP8 DUP9 PUSH2 0x15F1 JUMP JUMPDEST DUP1 DUP8 MSTORE PUSH2 0x178B JUMP JUMPDEST PUSH1 0x20 DUP7 ADD SWAP1 PUSH1 0x1F NOT ADD CALLDATASIZE DUP3 CALLDATACOPY SWAP4 DUP3 SWAP2 DUP4 MLOAD DUP5 ADD SWAP1 PUSH1 0x20 DUP3 ADD SWAP3 DUP4 MLOAD SWAP5 PUSH1 0x0 DUP6 MSTORE JUMPDEST DUP4 DUP2 LT PUSH2 0x19D0 JUMPI POP POP POP POP MSTORE MLOAD MOD DUP1 PUSH1 0x1 EQ PUSH2 0x19BD JUMPI PUSH1 0x2 EQ PUSH2 0x19B2 JUMPI POP SWAP1 JUMP JUMPDEST PUSH1 0x3D SWAP1 PUSH1 0x0 NOT ADD MSTORE8 SWAP1 JUMP JUMPDEST POP PUSH1 0x3D SWAP1 DUP2 PUSH1 0x0 NOT DUP3 ADD MSTORE8 PUSH1 0x1 NOT ADD MSTORE8 SWAP1 JUMP JUMPDEST DUP8 PUSH1 0x4 SWAP2 SWAP10 SWAP3 SWAP4 SWAP5 SWAP10 ADD SWAP2 DUP3 MLOAD PUSH1 0x1 SWAP1 PUSH1 0x3F SWAP1 DUP3 DUP3 DUP3 PUSH1 0x12 SHR AND DUP9 ADD ADD MLOAD DUP5 MSTORE8 DUP3 DUP3 DUP3 PUSH1 0xC SHR AND DUP9 ADD ADD MLOAD DUP4 DUP6 ADD MSTORE8 DUP3 DUP3 DUP3 PUSH1 0x6 SHR AND DUP9 ADD ADD MLOAD DUP9 DUP6 ADD MSTORE8 AND DUP6 ADD ADD MLOAD DUP10 DUP3 ADD MSTORE8 ADD SWAP8 SWAP3 SWAP2 SWAP1 PUSH2 0x1991 JUMP JUMPDEST PUSH4 0x4E487B71 PUSH1 0xE0 SHL PUSH1 0x0 MSTORE PUSH1 0x11 PUSH1 0x4 MSTORE PUSH1 0x24 PUSH1 0x0 REVERT JUMPDEST POP PUSH1 0x40 MLOAD PUSH2 0x1A44 DUP2 PUSH2 0x15B9 JUMP JUMPDEST PUSH1 0x0 DUP2 MSTORE SWAP1 JUMP JUMPDEST SWAP1 DUP2 MLOAD DUP2 LT ISZERO PUSH2 0x1A5C JUMPI ADD PUSH1 0x20 ADD SWAP1 JUMP JUMPDEST PUSH4 0x4E487B71 PUSH1 0xE0 SHL PUSH1 0x0 MSTORE PUSH1 0x32 PUSH1 0x4 MSTORE PUSH1 0x24 PUSH1 0x0 REVERT JUMPDEST PUSH1 0x0 NOT DUP2 EQ PUSH2 0x1A21 JUMPI PUSH1 0x1 ADD SWAP1 JUMP JUMPDEST PUSH1 0x40 MLOAD SWAP1 PUSH1 0x1 PUSH1 0x1 PUSH1 0xA0 SHL SUB AND PUSH2 0x1A97 DUP3 PUSH2 0x159D JUMP JUMPDEST PUSH1 0x10 DUP3 MSTORE PUSH1 0x20 PUSH16 0x181899199A1A9B1B9C1CB0B131B232B3 PUSH1 0x81 SHL DUP2 DUP5 ADD MSTORE PUSH1 0x40 MLOAD SWAP3 PUSH2 0x1AC2 DUP5 PUSH2 0x15D5 JUMP JUMPDEST PUSH1 0x2A DUP5 MSTORE DUP2 DUP5 ADD PUSH1 0x40 CALLDATASIZE DUP3 CALLDATACOPY DUP5 MLOAD ISZERO PUSH2 0x1A5C JUMPI PUSH1 0x30 SWAP1 MSTORE8 DUP4 MLOAD SWAP3 PUSH1 0x1 SWAP4 DUP5 LT ISZERO PUSH2 0x1A5C JUMPI PUSH1 0x78 PUSH1 0x21 DUP7 ADD MSTORE8 PUSH1 0x0 JUMPDEST PUSH1 0x14 DUP2 LT PUSH2 0x1B00 JUMPI POP POP POP POP POP SWAP1 JUMP JUMPDEST PUSH1 0xC DUP2 ADD DUP1 DUP3 GT PUSH2 0x1A21 JUMPI DUP5 DUP2 LT ISZERO PUSH2 0x1A5C JUMPI DUP3 SWAP1 BYTE PUSH1 0x4 PUSH1 0x1 PUSH1 0x1 PUSH1 0xF8 SHL SUB NOT PUSH1 0xF DUP2 PUSH2 0x1B32 DUP6 DUP6 SHR DUP4 AND DUP10 PUSH2 0x1A4B JUMP JUMPDEST MLOAD AND SWAP4 DUP6 DUP11 SHL SWAP5 PUSH1 0x2 SWAP1 DUP8 DUP8 DIV DUP3 EQ DUP9 ISZERO OR ISZERO PUSH2 0x1BB2 JUMPI DUP7 DUP3 ADD DUP1 SWAP3 GT PUSH2 0x1BB2 JUMPI PUSH2 0x1B67 PUSH2 0x1B6F SWAP5 SWAP4 SWAP3 DUP15 SWAP3 PUSH1 0x0 BYTE SWAP3 PUSH2 0x1A4B JUMP JUMPDEST MSTORE8 AND DUP8 PUSH2 0x1A4B JUMP JUMPDEST MLOAD AND SWAP1 PUSH1 0x3 SWAP3 DUP4 ADD DUP1 SWAP4 GT PUSH2 0x1B9D JUMPI POP SWAP1 PUSH2 0x1B92 PUSH2 0x1B98 SWAP4 SWAP3 PUSH1 0x0 BYTE SWAP2 DUP10 PUSH2 0x1A4B JUMP JUMPDEST MSTORE8 PUSH2 0x1A72 JUMP JUMPDEST PUSH2 0x1AF0 JUMP JUMPDEST PUSH1 0x11 SWAP1 PUSH4 0x4E487B71 PUSH1 0xE0 SHL PUSH1 0x0 MSTORE MSTORE PUSH1 0x24 PUSH1 0x0 REVERT JUMPDEST PUSH1 0x11 DUP7 PUSH4 0x4E487B71 PUSH1 0xE0 SHL PUSH1 0x0 MSTORE MSTORE PUSH1 0x24 PUSH1 0x0 REVERT JUMPDEST SWAP3 SWAP1 PUSH2 0x1BD2 DUP5 PUSH2 0x1C84 JUMP JUMPDEST PUSH1 0x3 DUP2 LT ISZERO PUSH2 0x1C6E JUMPI PUSH1 0x1 DUP2 SUB PUSH2 0x1C24 JUMPI POP POP POP PUSH1 0x20 PUSH2 0x183F SWAP2 PUSH1 0x40 MLOAD SWAP4 DUP2 PUSH2 0x1C04 DUP7 SWAP4 MLOAD DUP1 SWAP3 DUP7 DUP1 DUP8 ADD SWAP2 ADD PUSH2 0x1743 JUMP JUMPDEST DUP3 ADD PUSH2 0x1C18 DUP3 MLOAD DUP1 SWAP4 DUP7 DUP1 DUP6 ADD SWAP2 ADD PUSH2 0x1743 JUMP JUMPDEST ADD SUB DUP1 DUP5 MSTORE ADD DUP3 PUSH2 0x15F1 JUMP JUMPDEST SWAP2 SWAP3 POP SWAP1 PUSH1 0x2 SUB PUSH2 0x1C4E JUMPI POP PUSH1 0x20 PUSH2 0x183F SWAP2 PUSH1 0x40 MLOAD SWAP4 DUP2 PUSH2 0x1C04 DUP7 SWAP4 MLOAD DUP1 SWAP3 DUP7 DUP1 DUP8 ADD SWAP2 ADD PUSH2 0x1743 JUMP JUMPDEST PUSH2 0x183F SWAP2 POP PUSH1 0x20 SWAP1 PUSH1 0x40 MLOAD SWAP4 DUP2 PUSH2 0x1C04 DUP7 SWAP4 MLOAD DUP1 SWAP3 DUP7 DUP1 DUP8 ADD SWAP2 ADD PUSH2 0x1743 JUMP JUMPDEST PUSH4 0x4E487B71 PUSH1 0xE0 SHL PUSH1 0x0 MSTORE PUSH1 0x21 PUSH1 0x4 MSTORE PUSH1 0x24 PUSH1 0x0 REVERT JUMPDEST DUP1 MLOAD SWAP1 PUSH1 0x2E DUP3 EQ DUP1 PUSH2 0x1D82 JUMPI JUMPDEST DUP1 PUSH2 0x1D5D JUMPI JUMPDEST PUSH2 0x1D34 JUMPI PUSH1 0x3B DUP3 EQ DUP1 PUSH2 0x1D3B JUMPI JUMPDEST PUSH2 0x1D34 JUMPI PUSH1 0x2B DUP3 LT ISZERO DUP1 PUSH2 0x1D29 JUMPI JUMPDEST PUSH2 0x1CC0 JUMPI JUMPDEST POP POP PUSH1 0x0 SWAP1 JUMP JUMPDEST PUSH1 0x0 JUMPDEST DUP3 DUP2 LT PUSH2 0x1CD0 JUMPI POP PUSH2 0x1CB9 JUMP JUMPDEST PUSH1 0x1 PUSH1 0x1 PUSH1 0xF8 SHL SUB NOT PUSH1 0x2D PUSH1 0xF8 SHL DUP2 PUSH2 0x1CE9 DUP5 DUP7 PUSH2 0x1A4B JUMP JUMPDEST MLOAD AND EQ SWAP1 DUP2 ISZERO PUSH2 0x1D0F JUMPI JUMPDEST POP PUSH2 0x1D07 JUMPI PUSH2 0x1D02 SWAP1 PUSH2 0x1A72 JUMP JUMPDEST PUSH2 0x1CC3 JUMP JUMPDEST POP POP POP PUSH1 0x2 SWAP1 JUMP JUMPDEST PUSH1 0x5F PUSH1 0xF8 SHL SWAP2 POP PUSH2 0x1D20 DUP4 DUP6 PUSH2 0x1A4B JUMP JUMPDEST MLOAD AND EQ CODESIZE PUSH2 0x1CF4 JUMP JUMPDEST POP PUSH1 0x2C DUP3 GT ISZERO PUSH2 0x1CB4 JUMP JUMPDEST POP POP PUSH1 0x1 SWAP1 JUMP JUMPDEST POP DUP1 MLOAD ISZERO PUSH2 0x1A5C JUMPI PUSH1 0x20 DUP2 ADD MLOAD PUSH1 0x1 PUSH1 0x1 PUSH1 0xF8 SHL SUB NOT AND PUSH1 0x31 PUSH1 0xF9 SHL EQ PUSH2 0x1CA5 JUMP JUMPDEST POP DUP1 MLOAD PUSH1 0x1 LT ISZERO PUSH2 0x1A5C JUMPI PUSH1 0x21 DUP2 ADD MLOAD PUSH1 0x1 PUSH1 0x1 PUSH1 0xF8 SHL SUB NOT AND PUSH1 0x6D PUSH1 0xF8 SHL EQ PUSH2 0x1C97 JUMP JUMPDEST POP DUP2 ISZERO PUSH2 0x1A5C JUMPI PUSH1 0x20 DUP2 ADD MLOAD PUSH1 0x1 PUSH1 0x1 PUSH1 0xF8 SHL SUB NOT AND PUSH1 0x51 PUSH1 0xF8 SHL EQ PUSH2 0x1C91 JUMP INVALID BLOCKHASH JUMPI DUP8 STATICCALL SLT 0xA8 0x23 0xE0 CALLCODE 0xB7 PUSH4 0x1CC41B3B 0xA8 DUP3 DUP12 CALLER 0x21 0xCA DUP2 GT GT STATICCALL PUSH22 0xCD3AA3BB5ACEAFBD1CD7E76E4BF002D2D50614B23D12 OR SHR STOP SWAP3 JUMPI PUSH2 0xC731 DUP10 BLOCKHASH DELEGATECALL 0xD1 PUSH20 0xDFD38DCDFE07C8BB9B3C8E2DCAF2F86E29B44559 0xCB 0x1F SWAP16 PUSH19 0x22C3F8772B0C36B1E78B11B10E2D527612073B 0x26 0xEE 0xCD REVERT PUSH18 0x7E6A320CF44B4AFAC2B0732D9FCBE2B7FA0C 0xF6 LOG2 PUSH5 0x6970667358 0x22 SLT KECCAK256 BLOCKHASH DUP16 0xB9 SAR DUP13 0xF7 0x28 NOT DUP11 PUSH17 0x7FFA8FD9A14B8A10B3A0E616062D2DE24D 0xD5 MSTORE PREVRANDAO BALANCE SUB PUSH5 0x736F6C6343 STOP ADDMOD EQ STOP CALLER "},"methodIdentifiers":{"arweaveBaseURI()":"45df05f9","composeTokenURI((string,string,string,string,string,string),uint256,address,string,address)":"6a1ed362","ipfsBaseURI()":"f0fb21b0","owner()":"8da5cb5b","renounceOwnership()":"715018a6","setArweaveBaseURI(string)":"f3dbc5af","setBaseURIs(string,string)":"c1ce2e91","setIPFSBaseURI(string)":"bf1696ce","transferOwnership(address)":"f2fde38b"}},"storageLayout":{"storage":[{"astId":8,"contract":"contracts/protocol/NonUpgradable/MetadataRendererV2.sol:MetadataRendererV2","label":"_owner","offset":0,"slot":"0","type":"t_address"},{"astId":1039,"contract":"contracts/protocol/NonUpgradable/MetadataRendererV2.sol:MetadataRendererV2","label":"ipfsBaseURI","offset":0,"slot":"1","type":"t_string_storage"},{"astId":1041,"contract":"contracts/protocol/NonUpgradable/MetadataRendererV2.sol:MetadataRendererV2","label":"arweaveBaseURI","offset":0,"slot":"2","type":"t_string_storage"}],"types":{"t_address":{"encoding":"inplace","label":"address","numberOfBytes":"20"},"t_string_storage":{"encoding":"bytes","label":"string","numberOfBytes":"32"}}}}}}