{"contracts/protocol/Modules/FeesModule.sol":{"FeesModule":{"abi":[{"inputs":[{"internalType":"address","name":"_owner","type":"address"}],"stateMutability":"nonpayable","type":"constructor"},{"inputs":[{"internalType":"address","name":"owner","type":"address"}],"name":"OwnableInvalidOwner","type":"error"},{"inputs":[{"internalType":"address","name":"account","type":"address"}],"name":"OwnableUnauthorizedAccount","type":"error"},{"inputs":[],"name":"ReentrancyGuardReentrantCall","type":"error"},{"anonymous":false,"inputs":[{"indexed":false,"internalType":"uint256","name":"newFee","type":"uint256"}],"name":"DistributorCreationFeeUpdated","type":"event"},{"anonymous":false,"inputs":[{"indexed":true,"internalType":"address","name":"token","type":"address"},{"indexed":true,"internalType":"address","name":"recipient","type":"address"},{"indexed":false,"internalType":"uint256","name":"amount","type":"uint256"}],"name":"FeesWithdrawn","type":"event"},{"anonymous":false,"inputs":[{"indexed":true,"internalType":"address","name":"previousOwner","type":"address"},{"indexed":true,"internalType":"address","name":"newOwner","type":"address"}],"name":"OwnershipTransferred","type":"event"},{"anonymous":false,"inputs":[{"indexed":false,"internalType":"bool","name":"newPayInStablecoin","type":"bool"}],"name":"PayInStablecoinUpdated","type":"event"},{"anonymous":false,"inputs":[{"indexed":true,"internalType":"address","name":"wrappedSong","type":"address"},{"indexed":true,"internalType":"address","name":"token","type":"address"},{"indexed":false,"internalType":"uint256","name":"amount","type":"uint256"}],"name":"ReleaseFeeCollected","type":"event"},{"anonymous":false,"inputs":[{"indexed":false,"internalType":"uint256","name":"newFee","type":"uint256"}],"name":"ReleaseFeeUpdated","type":"event"},{"anonymous":false,"inputs":[{"indexed":false,"internalType":"uint256","name":"newFee","type":"uint256"}],"name":"StartSaleFeeUpdated","type":"event"},{"anonymous":false,"inputs":[{"indexed":false,"internalType":"uint256","name":"newFee","type":"uint256"}],"name":"UpdateMetadataFeeUpdated","type":"event"},{"anonymous":false,"inputs":[{"indexed":false,"internalType":"uint256","name":"newPercentage","type":"uint256"}],"name":"WithdrawalFeePercentageUpdated","type":"event"},{"anonymous":false,"inputs":[{"indexed":false,"internalType":"uint256","name":"newFee","type":"uint256"}],"name":"WrappedSongCreationFeeUpdated","type":"event"},{"stateMutability":"payable","type":"fallback"},{"inputs":[],"name":"MAX_WITHDRAWAL_FEE","outputs":[{"internalType":"uint256","name":"","type":"uint256"}],"stateMutability":"view","type":"function"},{"inputs":[{"internalType":"address","name":"","type":"address"}],"name":"accumulatedFees","outputs":[{"internalType":"uint256","name":"","type":"uint256"}],"stateMutability":"view","type":"function"},{"inputs":[],"name":"currentStablecoinIndex","outputs":[{"internalType":"uint256","name":"","type":"uint256"}],"stateMutability":"view","type":"function"},{"inputs":[],"name":"distributorCreationFee","outputs":[{"internalType":"uint256","name":"","type":"uint256"}],"stateMutability":"view","type":"function"},{"inputs":[],"name":"getCurrentStablecoinIndex","outputs":[{"internalType":"uint256","name":"","type":"uint256"}],"stateMutability":"view","type":"function"},{"inputs":[],"name":"getDistributorCreationFee","outputs":[{"internalType":"uint256","name":"","type":"uint256"}],"stateMutability":"view","type":"function"},{"inputs":[],"name":"getPayInStablecoin","outputs":[{"internalType":"bool","name":"","type":"bool"}],"stateMutability":"view","type":"function"},{"inputs":[],"name":"getReleaseFee","outputs":[{"internalType":"uint256","name":"","type":"uint256"}],"stateMutability":"view","type":"function"},{"inputs":[],"name":"getStartSaleFee","outputs":[{"internalType":"uint256","name":"","type":"uint256"}],"stateMutability":"view","type":"function"},{"inputs":[],"name":"getUpdateMetadataFee","outputs":[{"internalType":"uint256","name":"","type":"uint256"}],"stateMutability":"view","type":"function"},{"inputs":[],"name":"getWithdrawalFeePercentage","outputs":[{"internalType":"uint256","name":"","type":"uint256"}],"stateMutability":"view","type":"function"},{"inputs":[],"name":"getWrappedSongCreationFee","outputs":[{"internalType":"uint256","name":"","type":"uint256"}],"stateMutability":"view","type":"function"},{"inputs":[],"name":"isPayInStablecoin","outputs":[{"internalType":"bool","name":"","type":"bool"}],"stateMutability":"view","type":"function"},{"inputs":[],"name":"owner","outputs":[{"internalType":"address","name":"","type":"address"}],"stateMutability":"view","type":"function"},{"inputs":[],"name":"payInStablecoin","outputs":[{"internalType":"bool","name":"","type":"bool"}],"stateMutability":"view","type":"function"},{"inputs":[],"name":"releaseFee","outputs":[{"internalType":"uint256","name":"","type":"uint256"}],"stateMutability":"view","type":"function"},{"inputs":[],"name":"renounceOwnership","outputs":[],"stateMutability":"nonpayable","type":"function"},{"inputs":[{"internalType":"uint256","name":"_index","type":"uint256"}],"name":"setCurrentStablecoinIndex","outputs":[],"stateMutability":"nonpayable","type":"function"},{"inputs":[{"internalType":"uint256","name":"_fee","type":"uint256"}],"name":"setDistributorCreationFee","outputs":[],"stateMutability":"nonpayable","type":"function"},{"inputs":[{"internalType":"bool","name":"_payInStablecoin","type":"bool"}],"name":"setPayInStablecoin","outputs":[],"stateMutability":"nonpayable","type":"function"},{"inputs":[{"internalType":"uint256","name":"_fee","type":"uint256"}],"name":"setReleaseFee","outputs":[],"stateMutability":"nonpayable","type":"function"},{"inputs":[{"internalType":"uint256","name":"newFee","type":"uint256"}],"name":"setStartSaleFee","outputs":[],"stateMutability":"nonpayable","type":"function"},{"inputs":[{"internalType":"uint256","name":"_fee","type":"uint256"}],"name":"setUpdateMetadataFee","outputs":[],"stateMutability":"nonpayable","type":"function"},{"inputs":[{"internalType":"uint256","name":"_feePercentage","type":"uint256"}],"name":"setWithdrawalFeePercentage","outputs":[],"stateMutability":"nonpayable","type":"function"},{"inputs":[{"internalType":"uint256","name":"_fee","type":"uint256"}],"name":"setWrappedSongCreationFee","outputs":[],"stateMutability":"nonpayable","type":"function"},{"inputs":[{"internalType":"address","name":"newOwner","type":"address"}],"name":"transferOwnership","outputs":[],"stateMutability":"nonpayable","type":"function"},{"inputs":[],"name":"updateMetadataFee","outputs":[{"internalType":"uint256","name":"","type":"uint256"}],"stateMutability":"view","type":"function"},{"inputs":[],"name":"withdrawalFeePercentage","outputs":[{"internalType":"uint256","name":"","type":"uint256"}],"stateMutability":"view","type":"function"},{"inputs":[],"name":"wrappedSongCreationFee","outputs":[{"internalType":"uint256","name":"","type":"uint256"}],"stateMutability":"view","type":"function"},{"stateMutability":"payable","type":"receive"}],"evm":{"bytecode":{"linkReferences":{},"object":"6080346100bf57601f6107e638819003918201601f19168301916001600160401b038311848410176100c4578084926020946040528339810103126100bf57516001600160a01b0390818116908190036100bf5780156100a657600080546001600160a01b03198116831782556040519316907f8be0079c531659141344cd1fd0a4f28419497f9722a3daafe3b4186f6b6457e09080a36001805561070b90816100db8239f35b604051631e4fbdf760e01b815260006004820152602490fd5b600080fd5b634e487b7160e01b600052604160045260246000fdfe6080604081815260048036101561001e575b505050361561001c57005b005b600092833560e01c9081630bb7503114610665575080630e902faf146102e157806316eddecb146106415780632490a901146103a75780633224d848146105f4578063438c9d95146102fe578063490542741461054b5780635fb0ea901461056a5780636f4153d21461054b578063715018a6146104ee5780637159aa62146104a157806374816e371461048257806377f040041461043557806378922c8f1461027557806379988efd146104135780638bfa25da146103c65780638d0c0ce3146103a75780638da5cb5b1461037f5780639f58bfaa1461031d578063a4549129146102fe578063a491034214610270578063c4bec006146102e1578063c67ca8e714610294578063c8f5f4e814610275578063d579e3f314610270578063d9fa987914610251578063eb6ed33014610230578063f2fde38b146101a25763fcf6666403610011573461019e57602036600319011261019e57356001600160a01b0381169081900361019e5782829160209452600a845220549051908152f35b8280fd5b50903461019e57602036600319011261019e576001600160a01b0382358181169391929084900361022c576101d56106a9565b831561021657505082546001600160a01b0319811683178455167f8be0079c531659141344cd1fd0a4f28419497f9722a3daafe3b4186f6b6457e08380a380f35b51631e4fbdf760e01b8152908101849052602490fd5b8480fd5b50503461024d578160031936011261024d57602090516103e88152f35b5080fd5b50503461024d578160031936011261024d576020906007549051908152f35b610681565b50503461024d578160031936011261024d576020906006549051908152f35b50903461019e57602036600319011261019e57816020917f27ee93bf85897822eaa83c84de291bb575ef9d2bea9a01ddfc83261909407004933580926102d86106a9565b5551908152a180f35b503461019e578260031936011261019e5760209250549051908152f35b50503461024d578160031936011261024d576020906002549051908152f35b503461019e57602036600319011261019e57359081151580920361019e577fc42d410f496ad2dfdbe03a4e5c1c714a8091596f6191b9b64a90d67d5f008990916020916103686106a9565b60ff196008541660ff83161760085551908152a180f35b50503461024d578160031936011261024d57905490516001600160a01b039091168152602090f35b50503461024d578160031936011261024d576020906003549051908152f35b503461019e57602036600319011261019e577fd4d82b8c259d09036a9ed2baf6867c5e54dccab39d04fd233b20827303df5f129160209135906104076106a9565b8160035551908152a180f35b83823461024d57602036600319011261024d5761042e6106a9565b3560095580f35b503461019e57602036600319011261019e577f295f11816c8a8a66cf041fb88e0e1fa756cb9017dffa76c760980a5d52a26cf29160209135906104766106a9565b8160055551908152a180f35b50503461024d578160031936011261024d576020906005549051908152f35b503461019e57602036600319011261019e577f1848f86a1772cf74c666a7db07dd66df4942583c365ea0f63bf434245a56f3559160209135906104e26106a9565b8160075551908152a180f35b83346105485780600319360112610548576105076106a9565b80546001600160a01b03198116825581906001600160a01b03167f8be0079c531659141344cd1fd0a4f28419497f9722a3daafe3b4186f6b6457e08280a380f35b80fd5b50503461024d578160031936011261024d576020906009549051908152f35b50903461019e57602036600319011261019e578135916105886106a9565b6103e883116105c35750816020917f8e529082462a4df100fb1f50fd2581a8dec26c740aa251f8cab712c91042ef5c9360065551908152a180f35b6020606492519162461bcd60e51b8352820152600c60248201526b08ccaca40e8dede40d0d2ced60a31b6044820152fd5b503461019e57602036600319011261019e577fd2f394433244b5e41aa3a9cc6fae806b7ec98210c12b000cf879e113115c93299160209135906106356106a9565b8160025551908152a180f35b50503461024d578160031936011261024d5760209060ff6008541690519015158152f35b84903461024d578160031936011261024d576020906005548152f35b346106a45760003660031901126106a457602060ff600854166040519015158152f35b600080fd5b6000546001600160a01b031633036106bd57565b60405163118cdaa760e01b8152336004820152602490fdfea2646970667358221220c0bfe0eb65df462b6840f3ea3feb01484d9d108f3ea21b61a2d9b0dd7072b9b464736f6c63430008140033","opcodes":"PUSH1 0x80 CALLVALUE PUSH2 0xBF JUMPI PUSH1 0x1F PUSH2 0x7E6 CODESIZE DUP2 SWAP1 SUB SWAP2 DUP3 ADD PUSH1 0x1F NOT AND DUP4 ADD SWAP2 PUSH1 0x1 PUSH1 0x1 PUSH1 0x40 SHL SUB DUP4 GT DUP5 DUP5 LT OR PUSH2 0xC4 JUMPI DUP1 DUP5 SWAP3 PUSH1 0x20 SWAP5 PUSH1 0x40 MSTORE DUP4 CODECOPY DUP2 ADD SUB SLT PUSH2 0xBF JUMPI MLOAD PUSH1 0x1 PUSH1 0x1 PUSH1 0xA0 SHL SUB SWAP1 DUP2 DUP2 AND SWAP1 DUP2 SWAP1 SUB PUSH2 0xBF JUMPI DUP1 ISZERO PUSH2 0xA6 JUMPI PUSH1 0x0 DUP1 SLOAD PUSH1 0x1 PUSH1 0x1 PUSH1 0xA0 SHL SUB NOT DUP2 AND DUP4 OR DUP3 SSTORE PUSH1 0x40 MLOAD SWAP4 AND SWAP1 PUSH32 0x8BE0079C531659141344CD1FD0A4F28419497F9722A3DAAFE3B4186F6B6457E0 SWAP1 DUP1 LOG3 PUSH1 0x1 DUP1 SSTORE PUSH2 0x70B SWAP1 DUP2 PUSH2 0xDB DUP3 CODECOPY RETURN JUMPDEST PUSH1 0x40 MLOAD PUSH4 0x1E4FBDF7 PUSH1 0xE0 SHL DUP2 MSTORE PUSH1 0x0 PUSH1 0x4 DUP3 ADD MSTORE PUSH1 0x24 SWAP1 REVERT JUMPDEST PUSH1 0x0 DUP1 REVERT JUMPDEST PUSH4 0x4E487B71 PUSH1 0xE0 SHL PUSH1 0x0 MSTORE PUSH1 0x41 PUSH1 0x4 MSTORE PUSH1 0x24 PUSH1 0x0 REVERT INVALID PUSH1 0x80 PUSH1 0x40 DUP2 DUP2 MSTORE PUSH1 0x4 DUP1 CALLDATASIZE LT ISZERO PUSH2 0x1E JUMPI JUMPDEST POP POP POP CALLDATASIZE ISZERO PUSH2 0x1C JUMPI STOP JUMPDEST STOP JUMPDEST PUSH1 0x0 SWAP3 DUP4 CALLDATALOAD PUSH1 0xE0 SHR SWAP1 DUP2 PUSH4 0xBB75031 EQ PUSH2 0x665 JUMPI POP DUP1 PUSH4 0xE902FAF EQ PUSH2 0x2E1 JUMPI DUP1 PUSH4 0x16EDDECB EQ PUSH2 0x641 JUMPI DUP1 PUSH4 0x2490A901 EQ PUSH2 0x3A7 JUMPI DUP1 PUSH4 0x3224D848 EQ PUSH2 0x5F4 JUMPI DUP1 PUSH4 0x438C9D95 EQ PUSH2 0x2FE JUMPI DUP1 PUSH4 0x49054274 EQ PUSH2 0x54B JUMPI DUP1 PUSH4 0x5FB0EA90 EQ PUSH2 0x56A JUMPI DUP1 PUSH4 0x6F4153D2 EQ PUSH2 0x54B JUMPI DUP1 PUSH4 0x715018A6 EQ PUSH2 0x4EE JUMPI DUP1 PUSH4 0x7159AA62 EQ PUSH2 0x4A1 JUMPI DUP1 PUSH4 0x74816E37 EQ PUSH2 0x482 JUMPI DUP1 PUSH4 0x77F04004 EQ PUSH2 0x435 JUMPI DUP1 PUSH4 0x78922C8F EQ PUSH2 0x275 JUMPI DUP1 PUSH4 0x79988EFD EQ PUSH2 0x413 JUMPI DUP1 PUSH4 0x8BFA25DA EQ PUSH2 0x3C6 JUMPI DUP1 PUSH4 0x8D0C0CE3 EQ PUSH2 0x3A7 JUMPI DUP1 PUSH4 0x8DA5CB5B EQ PUSH2 0x37F JUMPI DUP1 PUSH4 0x9F58BFAA EQ PUSH2 0x31D JUMPI DUP1 PUSH4 0xA4549129 EQ PUSH2 0x2FE JUMPI DUP1 PUSH4 0xA4910342 EQ PUSH2 0x270 JUMPI DUP1 PUSH4 0xC4BEC006 EQ PUSH2 0x2E1 JUMPI DUP1 PUSH4 0xC67CA8E7 EQ PUSH2 0x294 JUMPI DUP1 PUSH4 0xC8F5F4E8 EQ PUSH2 0x275 JUMPI DUP1 PUSH4 0xD579E3F3 EQ PUSH2 0x270 JUMPI DUP1 PUSH4 0xD9FA9879 EQ PUSH2 0x251 JUMPI DUP1 PUSH4 0xEB6ED330 EQ PUSH2 0x230 JUMPI DUP1 PUSH4 0xF2FDE38B EQ PUSH2 0x1A2 JUMPI PUSH4 0xFCF66664 SUB PUSH2 0x11 JUMPI CALLVALUE PUSH2 0x19E JUMPI PUSH1 0x20 CALLDATASIZE PUSH1 0x3 NOT ADD SLT PUSH2 0x19E JUMPI CALLDATALOAD PUSH1 0x1 PUSH1 0x1 PUSH1 0xA0 SHL SUB DUP2 AND SWAP1 DUP2 SWAP1 SUB PUSH2 0x19E JUMPI DUP3 DUP3 SWAP2 PUSH1 0x20 SWAP5 MSTORE PUSH1 0xA DUP5 MSTORE KECCAK256 SLOAD SWAP1 MLOAD SWAP1 DUP2 MSTORE RETURN JUMPDEST DUP3 DUP1 REVERT JUMPDEST POP SWAP1 CALLVALUE PUSH2 0x19E JUMPI PUSH1 0x20 CALLDATASIZE PUSH1 0x3 NOT ADD SLT PUSH2 0x19E JUMPI PUSH1 0x1 PUSH1 0x1 PUSH1 0xA0 SHL SUB DUP3 CALLDATALOAD DUP2 DUP2 AND SWAP4 SWAP2 SWAP3 SWAP1 DUP5 SWAP1 SUB PUSH2 0x22C JUMPI PUSH2 0x1D5 PUSH2 0x6A9 JUMP JUMPDEST DUP4 ISZERO PUSH2 0x216 JUMPI POP POP DUP3 SLOAD PUSH1 0x1 PUSH1 0x1 PUSH1 0xA0 SHL SUB NOT DUP2 AND DUP4 OR DUP5 SSTORE AND PUSH32 0x8BE0079C531659141344CD1FD0A4F28419497F9722A3DAAFE3B4186F6B6457E0 DUP4 DUP1 LOG3 DUP1 RETURN JUMPDEST MLOAD PUSH4 0x1E4FBDF7 PUSH1 0xE0 SHL DUP2 MSTORE SWAP1 DUP2 ADD DUP5 SWAP1 MSTORE PUSH1 0x24 SWAP1 REVERT JUMPDEST DUP5 DUP1 REVERT JUMPDEST POP POP CALLVALUE PUSH2 0x24D JUMPI DUP2 PUSH1 0x3 NOT CALLDATASIZE ADD SLT PUSH2 0x24D JUMPI PUSH1 0x20 SWAP1 MLOAD PUSH2 0x3E8 DUP2 MSTORE RETURN JUMPDEST POP DUP1 REVERT JUMPDEST POP POP CALLVALUE PUSH2 0x24D JUMPI DUP2 PUSH1 0x3 NOT CALLDATASIZE ADD SLT PUSH2 0x24D JUMPI PUSH1 0x20 SWAP1 PUSH1 0x7 SLOAD SWAP1 MLOAD SWAP1 DUP2 MSTORE RETURN JUMPDEST PUSH2 0x681 JUMP JUMPDEST POP POP CALLVALUE PUSH2 0x24D JUMPI DUP2 PUSH1 0x3 NOT CALLDATASIZE ADD SLT PUSH2 0x24D JUMPI PUSH1 0x20 SWAP1 PUSH1 0x6 SLOAD SWAP1 MLOAD SWAP1 DUP2 MSTORE RETURN JUMPDEST POP SWAP1 CALLVALUE PUSH2 0x19E JUMPI PUSH1 0x20 CALLDATASIZE PUSH1 0x3 NOT ADD SLT PUSH2 0x19E JUMPI DUP2 PUSH1 0x20 SWAP2 PUSH32 0x27EE93BF85897822EAA83C84DE291BB575EF9D2BEA9A01DDFC83261909407004 SWAP4 CALLDATALOAD DUP1 SWAP3 PUSH2 0x2D8 PUSH2 0x6A9 JUMP JUMPDEST SSTORE MLOAD SWAP1 DUP2 MSTORE LOG1 DUP1 RETURN JUMPDEST POP CALLVALUE PUSH2 0x19E JUMPI DUP3 PUSH1 0x3 NOT CALLDATASIZE ADD SLT PUSH2 0x19E JUMPI PUSH1 0x20 SWAP3 POP SLOAD SWAP1 MLOAD SWAP1 DUP2 MSTORE RETURN JUMPDEST POP POP CALLVALUE PUSH2 0x24D JUMPI DUP2 PUSH1 0x3 NOT CALLDATASIZE ADD SLT PUSH2 0x24D JUMPI PUSH1 0x20 SWAP1 PUSH1 0x2 SLOAD SWAP1 MLOAD SWAP1 DUP2 MSTORE RETURN JUMPDEST POP CALLVALUE PUSH2 0x19E JUMPI PUSH1 0x20 CALLDATASIZE PUSH1 0x3 NOT ADD SLT PUSH2 0x19E JUMPI CALLDATALOAD SWAP1 DUP2 ISZERO ISZERO DUP1 SWAP3 SUB PUSH2 0x19E JUMPI PUSH32 0xC42D410F496AD2DFDBE03A4E5C1C714A8091596F6191B9B64A90D67D5F008990 SWAP2 PUSH1 0x20 SWAP2 PUSH2 0x368 PUSH2 0x6A9 JUMP JUMPDEST PUSH1 0xFF NOT PUSH1 0x8 SLOAD AND PUSH1 0xFF DUP4 AND OR PUSH1 0x8 SSTORE MLOAD SWAP1 DUP2 MSTORE LOG1 DUP1 RETURN JUMPDEST POP POP CALLVALUE PUSH2 0x24D JUMPI DUP2 PUSH1 0x3 NOT CALLDATASIZE ADD SLT PUSH2 0x24D JUMPI SWAP1 SLOAD SWAP1 MLOAD PUSH1 0x1 PUSH1 0x1 PUSH1 0xA0 SHL SUB SWAP1 SWAP2 AND DUP2 MSTORE PUSH1 0x20 SWAP1 RETURN JUMPDEST POP POP CALLVALUE PUSH2 0x24D JUMPI DUP2 PUSH1 0x3 NOT CALLDATASIZE ADD SLT PUSH2 0x24D JUMPI PUSH1 0x20 SWAP1 PUSH1 0x3 SLOAD SWAP1 MLOAD SWAP1 DUP2 MSTORE RETURN JUMPDEST POP CALLVALUE PUSH2 0x19E JUMPI PUSH1 0x20 CALLDATASIZE PUSH1 0x3 NOT ADD SLT PUSH2 0x19E JUMPI PUSH32 0xD4D82B8C259D09036A9ED2BAF6867C5E54DCCAB39D04FD233B20827303DF5F12 SWAP2 PUSH1 0x20 SWAP2 CALLDATALOAD SWAP1 PUSH2 0x407 PUSH2 0x6A9 JUMP JUMPDEST DUP2 PUSH1 0x3 SSTORE MLOAD SWAP1 DUP2 MSTORE LOG1 DUP1 RETURN JUMPDEST DUP4 DUP3 CALLVALUE PUSH2 0x24D JUMPI PUSH1 0x20 CALLDATASIZE PUSH1 0x3 NOT ADD SLT PUSH2 0x24D JUMPI PUSH2 0x42E PUSH2 0x6A9 JUMP JUMPDEST CALLDATALOAD PUSH1 0x9 SSTORE DUP1 RETURN JUMPDEST POP CALLVALUE PUSH2 0x19E JUMPI PUSH1 0x20 CALLDATASIZE PUSH1 0x3 NOT ADD SLT PUSH2 0x19E JUMPI PUSH32 0x295F11816C8A8A66CF041FB88E0E1FA756CB9017DFFA76C760980A5D52A26CF2 SWAP2 PUSH1 0x20 SWAP2 CALLDATALOAD SWAP1 PUSH2 0x476 PUSH2 0x6A9 JUMP JUMPDEST DUP2 PUSH1 0x5 SSTORE MLOAD SWAP1 DUP2 MSTORE LOG1 DUP1 RETURN JUMPDEST POP POP CALLVALUE PUSH2 0x24D JUMPI DUP2 PUSH1 0x3 NOT CALLDATASIZE ADD SLT PUSH2 0x24D JUMPI PUSH1 0x20 SWAP1 PUSH1 0x5 SLOAD SWAP1 MLOAD SWAP1 DUP2 MSTORE RETURN JUMPDEST POP CALLVALUE PUSH2 0x19E JUMPI PUSH1 0x20 CALLDATASIZE PUSH1 0x3 NOT ADD SLT PUSH2 0x19E JUMPI PUSH32 0x1848F86A1772CF74C666A7DB07DD66DF4942583C365EA0F63BF434245A56F355 SWAP2 PUSH1 0x20 SWAP2 CALLDATALOAD SWAP1 PUSH2 0x4E2 PUSH2 0x6A9 JUMP JUMPDEST DUP2 PUSH1 0x7 SSTORE MLOAD SWAP1 DUP2 MSTORE LOG1 DUP1 RETURN JUMPDEST DUP4 CALLVALUE PUSH2 0x548 JUMPI DUP1 PUSH1 0x3 NOT CALLDATASIZE ADD SLT PUSH2 0x548 JUMPI PUSH2 0x507 PUSH2 0x6A9 JUMP JUMPDEST DUP1 SLOAD PUSH1 0x1 PUSH1 0x1 PUSH1 0xA0 SHL SUB NOT DUP2 AND DUP3 SSTORE DUP2 SWAP1 PUSH1 0x1 PUSH1 0x1 PUSH1 0xA0 SHL SUB AND PUSH32 0x8BE0079C531659141344CD1FD0A4F28419497F9722A3DAAFE3B4186F6B6457E0 DUP3 DUP1 LOG3 DUP1 RETURN JUMPDEST DUP1 REVERT JUMPDEST POP POP CALLVALUE PUSH2 0x24D JUMPI DUP2 PUSH1 0x3 NOT CALLDATASIZE ADD SLT PUSH2 0x24D JUMPI PUSH1 0x20 SWAP1 PUSH1 0x9 SLOAD SWAP1 MLOAD SWAP1 DUP2 MSTORE RETURN JUMPDEST POP SWAP1 CALLVALUE PUSH2 0x19E JUMPI PUSH1 0x20 CALLDATASIZE PUSH1 0x3 NOT ADD SLT PUSH2 0x19E JUMPI DUP2 CALLDATALOAD SWAP2 PUSH2 0x588 PUSH2 0x6A9 JUMP JUMPDEST PUSH2 0x3E8 DUP4 GT PUSH2 0x5C3 JUMPI POP DUP2 PUSH1 0x20 SWAP2 PUSH32 0x8E529082462A4DF100FB1F50FD2581A8DEC26C740AA251F8CAB712C91042EF5C SWAP4 PUSH1 0x6 SSTORE MLOAD SWAP1 DUP2 MSTORE LOG1 DUP1 RETURN JUMPDEST PUSH1 0x20 PUSH1 0x64 SWAP3 MLOAD SWAP2 PUSH3 0x461BCD PUSH1 0xE5 SHL DUP4 MSTORE DUP3 ADD MSTORE PUSH1 0xC PUSH1 0x24 DUP3 ADD MSTORE PUSH12 0x8CCACA40E8DEDE40D0D2CED PUSH1 0xA3 SHL PUSH1 0x44 DUP3 ADD MSTORE REVERT JUMPDEST POP CALLVALUE PUSH2 0x19E JUMPI PUSH1 0x20 CALLDATASIZE PUSH1 0x3 NOT ADD SLT PUSH2 0x19E JUMPI PUSH32 0xD2F394433244B5E41AA3A9CC6FAE806B7EC98210C12B000CF879E113115C9329 SWAP2 PUSH1 0x20 SWAP2 CALLDATALOAD SWAP1 PUSH2 0x635 PUSH2 0x6A9 JUMP JUMPDEST DUP2 PUSH1 0x2 SSTORE MLOAD SWAP1 DUP2 MSTORE LOG1 DUP1 RETURN JUMPDEST POP POP CALLVALUE PUSH2 0x24D JUMPI DUP2 PUSH1 0x3 NOT CALLDATASIZE ADD SLT PUSH2 0x24D JUMPI PUSH1 0x20 SWAP1 PUSH1 0xFF PUSH1 0x8 SLOAD AND SWAP1 MLOAD SWAP1 ISZERO ISZERO DUP2 MSTORE RETURN JUMPDEST DUP5 SWAP1 CALLVALUE PUSH2 0x24D JUMPI DUP2 PUSH1 0x3 NOT CALLDATASIZE ADD SLT PUSH2 0x24D JUMPI PUSH1 0x20 SWAP1 PUSH1 0x5 SLOAD DUP2 MSTORE RETURN JUMPDEST CALLVALUE PUSH2 0x6A4 JUMPI PUSH1 0x0 CALLDATASIZE PUSH1 0x3 NOT ADD SLT PUSH2 0x6A4 JUMPI PUSH1 0x20 PUSH1 0xFF PUSH1 0x8 SLOAD AND PUSH1 0x40 MLOAD SWAP1 ISZERO ISZERO DUP2 MSTORE RETURN JUMPDEST PUSH1 0x0 DUP1 REVERT JUMPDEST PUSH1 0x0 SLOAD PUSH1 0x1 PUSH1 0x1 PUSH1 0xA0 SHL SUB AND CALLER SUB PUSH2 0x6BD JUMPI JUMP JUMPDEST PUSH1 0x40 MLOAD PUSH4 0x118CDAA7 PUSH1 0xE0 SHL DUP2 MSTORE CALLER PUSH1 0x4 DUP3 ADD MSTORE PUSH1 0x24 SWAP1 REVERT INVALID LOG2 PUSH5 0x6970667358 0x22 SLT KECCAK256 0xC0 0xBF 0xE0 0xEB PUSH6 0xDF462B6840F3 0xEA EXTCODEHASH 0xEB ADD BASEFEE 0x4D SWAP14 LT DUP16 RETURNDATACOPY LOG2 SHL PUSH2 0xA2D9 0xB0 0xDD PUSH17 0x72B9B464736F6C63430008140033000000 "},"methodIdentifiers":{"MAX_WITHDRAWAL_FEE()":"eb6ed330","accumulatedFees(address)":"fcf66664","currentStablecoinIndex()":"49054274","distributorCreationFee()":"c4bec006","getCurrentStablecoinIndex()":"6f4153d2","getDistributorCreationFee()":"0e902faf","getPayInStablecoin()":"a4910342","getReleaseFee()":"8d0c0ce3","getStartSaleFee()":"d9fa9879","getUpdateMetadataFee()":"74816e37","getWithdrawalFeePercentage()":"c8f5f4e8","getWrappedSongCreationFee()":"a4549129","isPayInStablecoin()":"d579e3f3","owner()":"8da5cb5b","payInStablecoin()":"16eddecb","releaseFee()":"2490a901","renounceOwnership()":"715018a6","setCurrentStablecoinIndex(uint256)":"79988efd","setDistributorCreationFee(uint256)":"c67ca8e7","setPayInStablecoin(bool)":"9f58bfaa","setReleaseFee(uint256)":"8bfa25da","setStartSaleFee(uint256)":"7159aa62","setUpdateMetadataFee(uint256)":"77f04004","setWithdrawalFeePercentage(uint256)":"5fb0ea90","setWrappedSongCreationFee(uint256)":"3224d848","transferOwnership(address)":"f2fde38b","updateMetadataFee()":"0bb75031","withdrawalFeePercentage()":"78922c8f","wrappedSongCreationFee()":"438c9d95"}},"storageLayout":{"storage":[{"astId":8,"contract":"contracts/protocol/Modules/FeesModule.sol:FeesModule","label":"_owner","offset":0,"slot":"0","type":"t_address"},{"astId":845,"contract":"contracts/protocol/Modules/FeesModule.sol:FeesModule","label":"_status","offset":0,"slot":"1","type":"t_uint256"},{"astId":982,"contract":"contracts/protocol/Modules/FeesModule.sol:FeesModule","label":"wrappedSongCreationFee","offset":0,"slot":"2","type":"t_uint256"},{"astId":984,"contract":"contracts/protocol/Modules/FeesModule.sol:FeesModule","label":"releaseFee","offset":0,"slot":"3","type":"t_uint256"},{"astId":986,"contract":"contracts/protocol/Modules/FeesModule.sol:FeesModule","label":"distributorCreationFee","offset":0,"slot":"4","type":"t_uint256"},{"astId":988,"contract":"contracts/protocol/Modules/FeesModule.sol:FeesModule","label":"updateMetadataFee","offset":0,"slot":"5","type":"t_uint256"},{"astId":990,"contract":"contracts/protocol/Modules/FeesModule.sol:FeesModule","label":"withdrawalFeePercentage","offset":0,"slot":"6","type":"t_uint256"},{"astId":995,"contract":"contracts/protocol/Modules/FeesModule.sol:FeesModule","label":"_startSaleFee","offset":0,"slot":"7","type":"t_uint256"},{"astId":997,"contract":"contracts/protocol/Modules/FeesModule.sol:FeesModule","label":"payInStablecoin","offset":0,"slot":"8","type":"t_bool"},{"astId":999,"contract":"contracts/protocol/Modules/FeesModule.sol:FeesModule","label":"currentStablecoinIndex","offset":0,"slot":"9","type":"t_uint256"},{"astId":1003,"contract":"contracts/protocol/Modules/FeesModule.sol:FeesModule","label":"accumulatedFees","offset":0,"slot":"10","type":"t_mapping(t_address,t_uint256)"}],"types":{"t_address":{"encoding":"inplace","label":"address","numberOfBytes":"20"},"t_bool":{"encoding":"inplace","label":"bool","numberOfBytes":"1"},"t_mapping(t_address,t_uint256)":{"encoding":"mapping","key":"t_address","label":"mapping(address => uint256)","numberOfBytes":"32","value":"t_uint256"},"t_uint256":{"encoding":"inplace","label":"uint256","numberOfBytes":"32"}}}}}}