{"contracts/protocol/NonUpgradable/MetadataModule.sol":{"MetadataModule":{"abi":[{"inputs":[],"stateMutability":"nonpayable","type":"constructor"},{"inputs":[{"internalType":"address","name":"owner","type":"address"}],"name":"OwnableInvalidOwner","type":"error"},{"inputs":[{"internalType":"address","name":"account","type":"address"}],"name":"OwnableUnauthorizedAccount","type":"error"},{"anonymous":false,"inputs":[{"indexed":true,"internalType":"address","name":"wrappedSong","type":"address"},{"components":[{"internalType":"string","name":"name","type":"string"},{"internalType":"string","name":"description","type":"string"},{"internalType":"string","name":"image","type":"string"},{"internalType":"string","name":"externalUrl","type":"string"},{"internalType":"string","name":"animationUrl","type":"string"},{"internalType":"string","name":"attributesIpfsHash","type":"string"}],"indexed":false,"internalType":"struct IMetadataModule.Metadata","name":"newMetadata","type":"tuple"}],"name":"MetadataCreated","type":"event"},{"anonymous":false,"inputs":[{"indexed":true,"internalType":"address","name":"wrappedSong","type":"address"}],"name":"MetadataRemoved","type":"event"},{"anonymous":false,"inputs":[{"indexed":true,"internalType":"address","name":"wrappedSong","type":"address"}],"name":"MetadataUpdateRejected","type":"event"},{"anonymous":false,"inputs":[{"indexed":true,"internalType":"address","name":"wrappedSong","type":"address"},{"components":[{"internalType":"string","name":"name","type":"string"},{"internalType":"string","name":"description","type":"string"},{"internalType":"string","name":"image","type":"string"},{"internalType":"string","name":"externalUrl","type":"string"},{"internalType":"string","name":"animationUrl","type":"string"},{"internalType":"string","name":"attributesIpfsHash","type":"string"}],"indexed":false,"internalType":"struct IMetadataModule.Metadata","name":"newMetadata","type":"tuple"}],"name":"MetadataUpdateRequested","type":"event"},{"anonymous":false,"inputs":[{"indexed":true,"internalType":"address","name":"wrappedSong","type":"address"},{"components":[{"internalType":"string","name":"name","type":"string"},{"internalType":"string","name":"description","type":"string"},{"internalType":"string","name":"image","type":"string"},{"internalType":"string","name":"externalUrl","type":"string"},{"internalType":"string","name":"animationUrl","type":"string"},{"internalType":"string","name":"attributesIpfsHash","type":"string"}],"indexed":false,"internalType":"struct IMetadataModule.Metadata","name":"newMetadata","type":"tuple"}],"name":"MetadataUpdated","type":"event"},{"anonymous":false,"inputs":[{"indexed":true,"internalType":"address","name":"previousOwner","type":"address"},{"indexed":true,"internalType":"address","name":"newOwner","type":"address"}],"name":"OwnershipTransferred","type":"event"},{"inputs":[{"internalType":"address","name":"wrappedSong","type":"address"}],"name":"confirmUpdateMetadata","outputs":[],"stateMutability":"nonpayable","type":"function"},{"inputs":[{"internalType":"address","name":"wrappedSong","type":"address"},{"components":[{"internalType":"string","name":"name","type":"string"},{"internalType":"string","name":"description","type":"string"},{"internalType":"string","name":"image","type":"string"},{"internalType":"string","name":"externalUrl","type":"string"},{"internalType":"string","name":"animationUrl","type":"string"},{"internalType":"string","name":"attributesIpfsHash","type":"string"}],"internalType":"struct IMetadataModule.Metadata","name":"newMetadata","type":"tuple"}],"name":"createMetadata","outputs":[{"components":[{"internalType":"string","name":"name","type":"string"},{"internalType":"string","name":"description","type":"string"},{"internalType":"string","name":"image","type":"string"},{"internalType":"string","name":"externalUrl","type":"string"},{"internalType":"string","name":"animationUrl","type":"string"},{"internalType":"string","name":"attributesIpfsHash","type":"string"}],"internalType":"struct IMetadataModule.Metadata","name":"","type":"tuple"}],"stateMutability":"nonpayable","type":"function"},{"inputs":[{"internalType":"address","name":"wrappedSong","type":"address"}],"name":"getPendingMetadataUpdate","outputs":[{"components":[{"internalType":"string","name":"name","type":"string"},{"internalType":"string","name":"description","type":"string"},{"internalType":"string","name":"image","type":"string"},{"internalType":"string","name":"externalUrl","type":"string"},{"internalType":"string","name":"animationUrl","type":"string"},{"internalType":"string","name":"attributesIpfsHash","type":"string"}],"internalType":"struct IMetadataModule.Metadata","name":"","type":"tuple"}],"stateMutability":"view","type":"function"},{"inputs":[{"internalType":"address","name":"wrappedSong","type":"address"},{"internalType":"uint256","name":"tokenId","type":"uint256"}],"name":"getTokenURI","outputs":[{"internalType":"string","name":"","type":"string"}],"stateMutability":"view","type":"function"},{"inputs":[{"internalType":"address","name":"wrappedSong","type":"address"}],"name":"isMetadataUpdateConfirmed","outputs":[{"internalType":"bool","name":"","type":"bool"}],"stateMutability":"view","type":"function"},{"inputs":[],"name":"owner","outputs":[{"internalType":"address","name":"","type":"address"}],"stateMutability":"view","type":"function"},{"inputs":[],"name":"protocolModule","outputs":[{"internalType":"contract IProtocolModule","name":"","type":"address"}],"stateMutability":"view","type":"function"},{"inputs":[{"internalType":"address","name":"wrappedSong","type":"address"}],"name":"rejectUpdateMetadata","outputs":[],"stateMutability":"nonpayable","type":"function"},{"inputs":[{"internalType":"address","name":"wrappedSong","type":"address"}],"name":"removeMetadata","outputs":[],"stateMutability":"nonpayable","type":"function"},{"inputs":[],"name":"renounceOwnership","outputs":[],"stateMutability":"nonpayable","type":"function"},{"inputs":[{"internalType":"address","name":"wrappedSong","type":"address"},{"components":[{"internalType":"string","name":"name","type":"string"},{"internalType":"string","name":"description","type":"string"},{"internalType":"string","name":"image","type":"string"},{"internalType":"string","name":"externalUrl","type":"string"},{"internalType":"string","name":"animationUrl","type":"string"},{"internalType":"string","name":"attributesIpfsHash","type":"string"}],"internalType":"struct IMetadataModule.Metadata","name":"newMetadata","type":"tuple"}],"name":"requestUpdateMetadata","outputs":[],"stateMutability":"nonpayable","type":"function"},{"inputs":[{"internalType":"address","name":"_protocolModule","type":"address"}],"name":"setProtocolModule","outputs":[],"stateMutability":"nonpayable","type":"function"},{"inputs":[{"internalType":"address","name":"newOwner","type":"address"}],"name":"transferOwnership","outputs":[],"stateMutability":"nonpayable","type":"function"},{"inputs":[{"internalType":"address","name":"wrappedSong","type":"address"},{"components":[{"internalType":"string","name":"name","type":"string"},{"internalType":"string","name":"description","type":"string"},{"internalType":"string","name":"image","type":"string"},{"internalType":"string","name":"externalUrl","type":"string"},{"internalType":"string","name":"animationUrl","type":"string"},{"internalType":"string","name":"attributesIpfsHash","type":"string"}],"internalType":"struct IMetadataModule.Metadata","name":"newMetadata","type":"tuple"}],"name":"updateMetadata","outputs":[],"stateMutability":"nonpayable","type":"function"}],"evm":{"bytecode":{"linkReferences":{},"object":"6080806040523461007a5733156100645760008054336001600160a01b03198216811783556040519290916001600160a01b0316907f8be0079c531659141344cd1fd0a4f28419497f9722a3daafe3b4186f6b6457e09080a361264b90816100808239f35b631e4fbdf760e01b815260006004820152602490fd5b600080fdfe6080806040526004908136101561001557600080fd5b60003560e01c9081630b63fd6214611d9557508063187de53b14611ac95780634b700629146114475780635c42e6671461141e5780635dc447ed14610d635780636613680d14610657578063715018a6146105fe5780638da5cb5b146105d55780639205fafe14610456578063a859dcde146103c4578063a9edb0f514610285578063da67603e1461018c578063dac73c991461014e5763f2fde38b146100bb57600080fd5b34610149576020366003190112610149576100d4611f9d565b6100dc612236565b6001600160a01b039081169182156101315750600054826bffffffffffffffffffffffff60a01b821617600055167f8be0079c531659141344cd1fd0a4f28419497f9722a3daafe3b4186f6b6457e0600080a3005b602490600060405191631e4fbdf760e01b8352820152fd5b600080fd5b5034610149576020366003190112610149576001600160a01b03610170611f9d565b16600052602052602060ff604060002054166040519015158152f35b503461014957602036600319011261014957610281906101aa611f9d565b6101b2612262565b5060018060a01b03166000526003602052600561026860406000206101f1610253604051956101e087611ffb565b6040516101f8816101f1818861257f565b038261202c565b875260405161020e816101f1816001890161257f565b6020880152604051610227816101f1816002890161257f565b6040880152604051610240816101f1816003890161257f565b606088015260405192838092860161257f565b60808501526101f1604051809481930161257f565b60a08201526040519182916020835260208301906121b5565b0390f35b50346101495760209081600319360112610149576001600160a01b036102a9611f9d565b16913383036103735782600052600281526102c86040600020546122b2565b156103305782600052600281526102e2604060002061253a565b82600052600381526102f7604060002061253a565b8260005252604060002060ff1981541690557f850e5df914b57ac32b9b4cfb02944f8e955f9991d54ae5ccac3936a7b205cace600080a2005b60405162461bcd60e51b815291820152601760248201527f4d6574616461746120646f6573206e6f74206578697374000000000000000000604482015260649150fd5b60405162461bcd60e51b815291820152602560248201527f4f6e6c79207772617070656420736f6e672063616e2072656d6f7665206d6574604482015264616461746160d81b606482015260849150fd5b5034610149576020366003190112610149576103de611f9d565b6103e6612236565b6001600160a01b03169081156104125750600180546001600160a81b031916909117600160a01b179055005b60649060206040519162461bcd60e51b8352820152601f60248201527f496e76616c69642070726f746f636f6c206d6f64756c652061646472657373006044820152fd5b5034610149576020908160031936011261014957610472611f9d565b600154604051633aa690e760e01b81526001600160a01b0392831684820181905294929183908290602490829086165afa9081156105ac57829184916000916105b8575b508560405180948193638da5cb5b60e01b8352165afa9081156105ac5760009161057f575b501633036105315782600052600381526104f8604060002061253a565b8260005252604060002060ff1981541690557f44983a324fa169af1e5f7fc334fe51324c21a0f94c8407867926cb4266b0cb54600080a2005b60405162461bcd60e51b815291820152602260248201527f4f6e6c79206469737472696275746f722063616e2072656a6563742075706461604482015261746560f01b606482015260849150fd5b61059f9150833d85116105a5575b610597818361202c565b810190612293565b386104db565b503d61058d565b6040513d6000823e3d90fd5b6105cf9150823d84116105a557610597818361202c565b386104b6565b34610149576000366003190112610149576000546040516001600160a01b039091168152602090f35b3461014957600036600319011261014957610617612236565b600080546001600160a01b0319811682556001600160a01b03167f8be0079c531659141344cd1fd0a4f28419497f9722a3daafe3b4186f6b6457e08280a3005b503461014957610666366120af565b9061066f612262565b5060015460405163058dba2f60e11b81526001600160a01b038381168287015294916020908290602490829089165afa80156105ac578591600091610d44575b501615610d005783821660005260026020526106cf6040600020546122b2565b610cbc576106dc8361234a565b15610c8557838216600052600260205260406000209083518051906001600160401b038211610c7057819061071b8261071587546122b2565b87612303565b602090601f8311600114610c0a57600092610bff575b50508160011b916000199060031b1c19161782555b6001820160208501518051906001600160401b038211610a835781906107768261077086546122b2565b86612303565b602090601f8311600114610b9957600092610b8e575b50508160011b916000199060031b1c19161790555b6002820160408501518051906001600160401b038211610a835781906107cb8261077086546122b2565b602090601f8311600114610b2857600092610b1d575b50508160011b916000199060031b1c19161790555b60039182810160608601518051906001600160401b038211610b085781906108228261077086546122b2565b602090601f8311600114610aa357600092610a98575b50508160011b9160001990871b1c19161790555b60808501518051906001600160401b038211610a835761087a82610872868601546122b2565b868601612303565b602090601f8311600114610a1357600593929160009183610a08575b50508160011b9160001990871b1c191617838201555b019160a08501518051926001600160401b0384116109f357506108d38361077086546122b2565b602090601f841160011461096157927f6e59fb1f315f2f4b281014e9d51ca1387542c6af4109446eaaabadd34b5d5eb3949281926102819995600093610956575b50508260011b92600019911b1c19161790555b604051926020845216918061093f60208201866121b5565b0390a26040519182916020835260208301906121b5565b015191503880610914565b9190601f198416928560005260206000209360005b8181106109db57509285927f6e59fb1f315f2f4b281014e9d51ca1387542c6af4109446eaaabadd34b5d5eb39795926102819b97600196106109c1575b50505050811b019055610927565b01519060f884600019921b161c19169055388080806109b3565b92946020600181928886015181550196019301610976565b604190634e487b7160e01b6000525260246000fd5b015190503880610896565b9084840160005260206000209160005b601f1985168110610a6b575091839160019360059695601f19811610610a53575b505050811b01838201556108ac565b015160001983891b60f8161c19169055388080610a44565b91926020600181928685015181550194019201610a23565b604184634e487b7160e01b6000525260246000fd5b015190503880610838565b6000858152602081209350601f198516905b818110610af05750908460019594939210610ad8575b505050811b01905561084c565b015160001983891b60f8161c19169055388080610acb565b92936020600181928786015181550195019301610ab5565b604185634e487b7160e01b6000525260246000fd5b0151905038806107e1565b6000858152602081209350601f198516905b818110610b765750908460019594939210610b5d575b505050811b0190556107f6565b015160001960f88460031b161c19169055388080610b50565b92936020600181928786015181550195019301610b3a565b01519050388061078c565b6000858152602081209350601f198516905b818110610be75750908460019594939210610bce575b505050811b0190556107a1565b015160001960f88460031b161c19169055388080610bc1565b92936020600181928786015181550195019301610bab565b015190503880610731565b6000868152602081209350601f198516905b818110610c585750908460019594939210610c3f575b505050811b018255610746565b015160001960f88460031b161c19169055388080610c32565b92936020600181928786015181550195019301610c1c565b604183634e487b7160e01b6000525260246000fd5b60649060206040519162461bcd60e51b8352820152601060248201526f496e76616c6964206d6574616461746160801b6044820152fd5b60649060206040519162461bcd60e51b8352820152601760248201527f4d6574616461746120616c7265616479206578697374730000000000000000006044820152fd5b60649060206040519162461bcd60e51b8352820152601960248201527f41646472657373206e6f7420612070726f746f636f6c205753000000000000006044820152fd5b610d5d915060203d6020116105a557610597818361202c565b386106af565b503461014957610d72366120af565b604051638da5cb5b60e01b81526001600160a01b03939284169260209182818381885afa9081156105ac57600091611401575b508516331480156113f4575b156113a0578190600195865416604051928380926306f8718960e31b8252888583015260249586915afa9081156105ac57600091611373575b5061131c57610e00610dfb8561234a565b61238f565b846000526002835260406000208451968751926001600160401b039384811161130857610e318161077086546122b2565b8087601f9b8c83116001146112a55760009261129a575b5050600019600383901b1c191690831b1783555b81830186880151805190868211611218578190610e7d8261077086546122b2565b89908d83116001146112375760009261122c575b5050600019600383901b1c191690841b1790555b600283016040880151805190868211611218578190610ec88261077086546122b2565b89908d83116001146111b5576000926111aa575b5050600019600383901b1c191690841b1790555b6003928381016060890151805190878211611129578c8291610f168361071587546122b2565b8b9183116001146111485760009261113d575b505060001982881b1c191690851b1790555b818101608089015180519087821161112957610f6182610f5b85546122b2565b85612303565b89908d83116001146110c057600594939291600091836110b5575b505060001982891b1c191690861b1790555b019460a08801519182519586116110a2575050610faf8461071587546122b2565b8598841160011461101e578392917f4288f171f419b66095d6e026090ed813669ea5a62cfe4416a47e75549e47886698998492600095611013575b50501b92600019911b1c19161790555b61100e6040519282849384528301906121b5565b0390a2005b015193503880610fea565b909291601f1983169885600052866000209260005b8b811061108d5750847f4288f171f419b66095d6e026090ed813669ea5a62cfe4416a47e75549e4788669a9b10611073575b50505050811b019055610ffa565b01519060f884600019921b161c1916905538808080611065565b81830151855593860193918801918801611033565b604190634e487b7160e01b600052526000fd5b015190503880610f7c565b9392918691601f19821690846000528c600020918d6000905b8282106111125750509683600598106110fa575b505050811b019055610f8e565b0151600019838b1b60f8161c191690553880806110ed565b838a015185558b969094019392830192018e6110d9565b88604186634e487b7160e01b600052526000fd5b015190503880610f29565b60008581528c8120899550929190601f198516908e5b828210611193575050841161117b575b505050811b019055610f3b565b0151600019838a1b60f8161c1916905538808061116e565b8385015186558b979095019493840193018e61115e565b015190503880610edc565b90869350601f19831691856000528b6000209260005b8d82821061120257505084116111e9575b505050811b019055610ef0565b015160001960f88460031b161c191690553880806111dc565b8385015186558a979095019493840193016111cb565b87604185634e487b7160e01b600052526000fd5b015190503880610e91565b90869350601f19831691856000528b6000209260005b8d828210611284575050841161126b575b505050811b019055610ea5565b015160001960f88460031b161c1916905538808061125e565b8385015186558a9790950194938401930161124d565b015190503880610e48565b90859350601f19831691876000528a6000209260005b8c8282106112f257505084116112d9575b505050811b018355610e5c565b015160001960f88460031b161c191690553880806112cc565b83850151865589979095019493840193016112bb565b85604183634e487b7160e01b600052526000fd5b602d608492846040519362461bcd60e51b85528401528201527f43616e6e6f7420757064617465206d65746164617461206469726563746c792060448201526c61667465722072656c6561736560981b6064820152fd5b6113939150843d8611611399575b61138b818361202c565b810190612401565b38610dea565b503d611381565b6084916040519162461bcd60e51b8352820152602960248201527f4f6e6c79207772617070656420736f6e67206f7220697473206f776e65722063604482015268616e2075706461746560b81b6064820152fd5b5084600154163314610db1565b6114189150833d85116105a557610597818361202c565b38610da5565b34610149576000366003190112610149576001546040516001600160a01b039091168152602090f35b503461014957611456366120af565b611465610dfb8294939461234a565b604051638da5cb5b60e01b81526001600160a01b039384169260209182818381885afa9081156105ac57600091611aac575b508533911603611a575781600195865416604051918280926306f8718960e31b8252888683015260249485915afa9081156105ac57600091611a3a575b50156119e5578460005260038084526040600020908551978851926001600160401b03938481116119d1576115138161150d84546122b2565b84612303565b8088601f9c8d831160011461196f57600092611964575b505060001982861b1c191690831b1781555b81810187890151805190868211611809578c829161155e8361071587546122b2565b8b918311600114611902576000926118f7575b505060001982871b1c191690841b1790555b600281016040890151805190868211611809578c82916115a78361071587546122b2565b8b9183116001146118955760009261188a575b505060001982871b1c191690841b1790555b8281016060890151805190868211611809578c82916115ef8361071587546122b2565b8b9183116001146118285760009261181d575b505060001982871b1c191690841b1790555b85810160808901518051908682116118095761163482610f5b85546122b2565b89908d83116001146117a05760059493929160009183611795575b505060001982881b1c191690851b1790555b019360a088015190815194851161178257506116818461071587546122b2565b869984116001146116fe578392917fcfa38ad22e928cede6a19793c7da9bad051ddd68eaabfc0a35500e381a60cb39999a84926000956116f3575b50501b92600019911b1c19161790555b846000528152604060002060ff19815416905561100e6040519282849384528301906121b5565b0151935038806116bc565b909291601f1983169985600052876000209260005b8c811061176d5750847fcfa38ad22e928cede6a19793c7da9bad051ddd68eaabfc0a35500e381a60cb399b9c10611753575b50505050811b0190556116cc565b01519060f884600019921b161c1916905538808080611745565b81830151855593860193918901918901611713565b634e487b7160e01b600090815260418852fd5b01519050388061164f565b9392918591601f19821690846000528c600020918d6000905b8282106117f25750509683600598106117da575b505050811b019055611661565b0151600019838a1b60f8161c191690553880806117cd565b838a015185558a969094019392830192018e6117b9565b8760418a634e487b7160e01b600052526000fd5b015190503880611602565b60008581528c8120889550929190601f198516908e5b828210611873575050841161185b575b505050811b019055611614565b015160001983891b60f8161c1916905538808061184e565b8385015186558a979095019493840193018e61183e565b0151905038806115ba565b60008581528c8120889550929190601f198516908e5b8282106118e057505084116118c8575b505050811b0190556115cc565b015160001983891b60f8161c191690553880806118bb565b8385015186558a979095019493840193018e6118ab565b015190503880611571565b60008581528c8120889550929190601f198516908e5b82821061194d5750508411611935575b505050811b019055611583565b015160001983891b60f8161c19169055388080611928565b8385015186558a979095019493840193018e611918565b01519050388061152a565b90859350601f19831691856000528b6000209260005b8d8282106119bb57505084116119a3575b505050811b01815561153c565b015160001983881b60f8161c19169055388080611996565b8385015186558997909501949384019301611985565b85604188634e487b7160e01b600052526000fd5b602b906084936040519362461bcd60e51b85528401528201527f536f6e67206e6f742072656c65617365642c20757064617465206d657461646160448201526a7461206469726563746c7960a81b6064820152fd5b611a519150843d86116113995761138b818361202c565b386114d4565b6084916040519162461bcd60e51b8352820152602a60248201527f4f6e6c79207772617070656420736f6e67206f776e65722063616e20726571756044820152696573742075706461746560b01b6064820152fd5b611ac39150833d85116105a557610597818361202c565b38611497565b50346101495760208060031936011261014957611ae4611f9d565b600154604051633aa690e760e01b81526001600160a01b0392831681860181905294929184908290602490829086165afa9081156105ac5782918591600091611d78575b508460405180948193638da5cb5b60e01b8352165afa9081156105ac57600091611d5b575b50163303611d0d578260005280825260ff60406000205416611ccb577f4288f171f419b66095d6e026090ed813669ea5a62cfe4416a47e75549e4788669161100e60c09285600052600383526040600020600284526040600020818103611c6d575b50508560005260038352611bc6604060002061253a565b856000528083526040600020600160ff198254161790556002835260056040600020604051958587968752860152611c5d611c0460e087018361257f565b93611c4b611c38611c25601f1997888b82030160408c01526001870161257f565b878a82030160608b01526002860161257f565b868982030160808a01526003850161257f565b90858883030160a0890152830161257f565b928584030160c08601520161257f565b60058083611c7e611cc49585612419565b611c8e6001820160018601612419565b611c9e6002820160028601612419565b611cae6003820160038601612419565b611cbc868201878601612419565b019101612419565b3880611baf565b6064916040519162461bcd60e51b8352820152601a60248201527f4e6f2070656e64696e67206d65746164617461207570646174650000000000006044820152fd5b6084916040519162461bcd60e51b8352820152602360248201527f4f6e6c79206469737472696275746f722063616e20636f6e6669726d2075706460448201526261746560e81b6064820152fd5b611d729150843d86116105a557610597818361202c565b38611b4d565b611d8f9150823d84116105a557610597818361202c565b38611b28565b90503461014957604036600319011261014957611db0611f9d565b9060243560018060a01b038093169081600052602093600285526005611e626040600020611ddd87611ffb565b604051611dee816101f1818561257f565b8752604051611e04816101f1816001860161257f565b88880152604051611e1c816101f1816002860161257f565b6040880152604051611e35816101f1816003860161257f565b6060880152604051611e4d816101f1818d860161257f565b60808801526101f1604051809481930161257f565b60a08501526003821015611f4d57611ea2956000949392606092600154169360405198899687958695632fda23b760e01b875286015260648501906121b5565b916024840152604483015203915afa9182156105ac57600092611ed5575b50610281604051928284938452830190611fd6565b9091503d806000833e611ee8818361202c565b8101908281830312610149578051906001600160401b038211610149570181601f82011215610149578051611f1c8161204d565b92611f2a604051948561202c565b81845284828401011161014957611f4691848085019101611fb3565b9038611ec0565b60405162461bcd60e51b81528087018690526024808201527f496e76616c696420746f6b656e20494420666f72206d65746164617461206d6f60448201526364756c6560e01b6064820152608490fd5b600435906001600160a01b038216820361014957565b60005b838110611fc65750506000910152565b8181015183820152602001611fb6565b90602091611fef81518092818552858086019101611fb3565b601f01601f1916010190565b60c081019081106001600160401b0382111761201657604052565b634e487b7160e01b600052604160045260246000fd5b90601f801991011681019081106001600160401b0382111761201657604052565b6001600160401b03811161201657601f01601f191660200190565b81601f820112156101495780359061207f8261204d565b9261208d604051948561202c565b8284526020838301011161014957816000926020809301838601378301015290565b9060031960408184011261014957600480356001600160a01b03811681036101495793602435916001600160401b03938484116101495760c090848403011261014957604051936120ff85611ffb565b8382013581811161014957838361211892870101612068565b8552602484013581811161014957838361213492870101612068565b6020860152604484013581811161014957838361215392870101612068565b6040860152606484013581811161014957838361217292870101612068565b6060860152608484013581811161014957838361219192870101612068565b608086015260a4840135908111610149576121ad930101612068565b60a082015290565b6122339160a06122226122106121fe6121ec6121da875160c0885260c0880190611fd6565b60208801518782036020890152611fd6565b60408701518682036040880152611fd6565b60608601518582036060870152611fd6565b60808501518482036080860152611fd6565b9201519060a0818403910152611fd6565b90565b6000546001600160a01b0316330361224a57565b60405163118cdaa760e01b8152336004820152602490fd5b6040519061226f82611ffb565b8160a060609182815282602082015282604082015282808201528260808201520152565b9081602091031261014957516001600160a01b03811681036101495790565b90600182811c921680156122e2575b60208310146122cc57565b634e487b7160e01b600052602260045260246000fd5b91607f16916122c1565b8181106122f7575050565b600081556001016122ec565b9190601f811161231257505050565b61233e926000526020600020906020601f840160051c83019310612340575b601f0160051c01906122ec565b565b9091508190612331565b80515115159081612380575b81612371575b81612365575090565b60a09150015151151590565b6080810151511515915061235c565b60408101515115159150612356565b1561239657565b60405162461bcd60e51b815260206004820152603760248201527f496e76616c6964206d657461646174613a20416c6c207265717569726564206660448201527f69656c6473206d757374206265206e6f6e2d656d7074790000000000000000006064820152608490fd5b90816020910312610149575180151581036101495790565b908082146124ed5761242b81546122b2565b906001600160401b03821161201657819061244a8261077086546122b2565b600090601f831160011461248157600092612476575b50508160011b916000199060031b1c1916179055565b015490503880612460565b81526020808220858352818320935090601f1985169083905b8282106124d45750509084600195949392106124bb575b505050811b019055565b015460001960f88460031b161c191690553880806124b1565b849581929585015481556001809101960194019061249a565b5050565b6124fb81546122b2565b9081612505575050565b81601f60009311600114612517575055565b908083918252612536601f60208420940160051c8401600185016122ec565b5555565b600561233e91612549816124f1565b612555600182016124f1565b612561600282016124f1565b61256d600382016124f1565b612579600482016124f1565b016124f1565b9060009291805491612590836122b2565b9182825260019384811690816000146125f257506001146125b2575b50505050565b90919394506000526020928360002092846000945b8386106125de5750505050010190388080806125ac565b8054858701830152940193859082016125c7565b9294505050602093945060ff191683830152151560051b010190388080806125ac56fea264697066735822122060dbc66084bb81c75f009a0928e7bd77e1ba83f920c39d00bcef563be9b40e4e64736f6c63430008140033","opcodes":"PUSH1 0x80 DUP1 PUSH1 0x40 MSTORE CALLVALUE PUSH2 0x7A JUMPI CALLER ISZERO PUSH2 0x64 JUMPI PUSH1 0x0 DUP1 SLOAD CALLER PUSH1 0x1 PUSH1 0x1 PUSH1 0xA0 SHL SUB NOT DUP3 AND DUP2 OR DUP4 SSTORE PUSH1 0x40 MLOAD SWAP3 SWAP1 SWAP2 PUSH1 0x1 PUSH1 0x1 PUSH1 0xA0 SHL SUB AND SWAP1 PUSH32 0x8BE0079C531659141344CD1FD0A4F28419497F9722A3DAAFE3B4186F6B6457E0 SWAP1 DUP1 LOG3 PUSH2 0x264B SWAP1 DUP2 PUSH2 0x80 DUP3 CODECOPY RETURN JUMPDEST PUSH4 0x1E4FBDF7 PUSH1 0xE0 SHL DUP2 MSTORE PUSH1 0x0 PUSH1 0x4 DUP3 ADD MSTORE PUSH1 0x24 SWAP1 REVERT JUMPDEST PUSH1 0x0 DUP1 REVERT INVALID PUSH1 0x80 DUP1 PUSH1 0x40 MSTORE PUSH1 0x4 SWAP1 DUP2 CALLDATASIZE LT ISZERO PUSH2 0x15 JUMPI PUSH1 0x0 DUP1 REVERT JUMPDEST PUSH1 0x0 CALLDATALOAD PUSH1 0xE0 SHR SWAP1 DUP2 PUSH4 0xB63FD62 EQ PUSH2 0x1D95 JUMPI POP DUP1 PUSH4 0x187DE53B EQ PUSH2 0x1AC9 JUMPI DUP1 PUSH4 0x4B700629 EQ PUSH2 0x1447 JUMPI DUP1 PUSH4 0x5C42E667 EQ PUSH2 0x141E JUMPI DUP1 PUSH4 0x5DC447ED EQ PUSH2 0xD63 JUMPI DUP1 PUSH4 0x6613680D EQ PUSH2 0x657 JUMPI DUP1 PUSH4 0x715018A6 EQ PUSH2 0x5FE JUMPI DUP1 PUSH4 0x8DA5CB5B EQ PUSH2 0x5D5 JUMPI DUP1 PUSH4 0x9205FAFE EQ PUSH2 0x456 JUMPI DUP1 PUSH4 0xA859DCDE EQ PUSH2 0x3C4 JUMPI DUP1 PUSH4 0xA9EDB0F5 EQ PUSH2 0x285 JUMPI DUP1 PUSH4 0xDA67603E EQ PUSH2 0x18C JUMPI DUP1 PUSH4 0xDAC73C99 EQ PUSH2 0x14E JUMPI PUSH4 0xF2FDE38B EQ PUSH2 0xBB JUMPI PUSH1 0x0 DUP1 REVERT JUMPDEST CALLVALUE PUSH2 0x149 JUMPI PUSH1 0x20 CALLDATASIZE PUSH1 0x3 NOT ADD SLT PUSH2 0x149 JUMPI PUSH2 0xD4 PUSH2 0x1F9D JUMP JUMPDEST PUSH2 0xDC PUSH2 0x2236 JUMP JUMPDEST PUSH1 0x1 PUSH1 0x1 PUSH1 0xA0 SHL SUB SWAP1 DUP2 AND SWAP2 DUP3 ISZERO PUSH2 0x131 JUMPI POP PUSH1 0x0 SLOAD DUP3 PUSH12 0xFFFFFFFFFFFFFFFFFFFFFFFF PUSH1 0xA0 SHL DUP3 AND OR PUSH1 0x0 SSTORE AND PUSH32 0x8BE0079C531659141344CD1FD0A4F28419497F9722A3DAAFE3B4186F6B6457E0 PUSH1 0x0 DUP1 LOG3 STOP JUMPDEST PUSH1 0x24 SWAP1 PUSH1 0x0 PUSH1 0x40 MLOAD SWAP2 PUSH4 0x1E4FBDF7 PUSH1 0xE0 SHL DUP4 MSTORE DUP3 ADD MSTORE REVERT JUMPDEST PUSH1 0x0 DUP1 REVERT JUMPDEST POP CALLVALUE PUSH2 0x149 JUMPI PUSH1 0x20 CALLDATASIZE PUSH1 0x3 NOT ADD SLT PUSH2 0x149 JUMPI PUSH1 0x1 PUSH1 0x1 PUSH1 0xA0 SHL SUB PUSH2 0x170 PUSH2 0x1F9D JUMP JUMPDEST AND PUSH1 0x0 MSTORE PUSH1 0x20 MSTORE PUSH1 0x20 PUSH1 0xFF PUSH1 0x40 PUSH1 0x0 KECCAK256 SLOAD AND PUSH1 0x40 MLOAD SWAP1 ISZERO ISZERO DUP2 MSTORE RETURN JUMPDEST POP CALLVALUE PUSH2 0x149 JUMPI PUSH1 0x20 CALLDATASIZE PUSH1 0x3 NOT ADD SLT PUSH2 0x149 JUMPI PUSH2 0x281 SWAP1 PUSH2 0x1AA PUSH2 0x1F9D JUMP JUMPDEST PUSH2 0x1B2 PUSH2 0x2262 JUMP JUMPDEST POP PUSH1 0x1 DUP1 PUSH1 0xA0 SHL SUB AND PUSH1 0x0 MSTORE PUSH1 0x3 PUSH1 0x20 MSTORE PUSH1 0x5 PUSH2 0x268 PUSH1 0x40 PUSH1 0x0 KECCAK256 PUSH2 0x1F1 PUSH2 0x253 PUSH1 0x40 MLOAD SWAP6 PUSH2 0x1E0 DUP8 PUSH2 0x1FFB JUMP JUMPDEST PUSH1 0x40 MLOAD PUSH2 0x1F8 DUP2 PUSH2 0x1F1 DUP2 DUP9 PUSH2 0x257F JUMP JUMPDEST SUB DUP3 PUSH2 0x202C JUMP JUMPDEST DUP8 MSTORE PUSH1 0x40 MLOAD PUSH2 0x20E DUP2 PUSH2 0x1F1 DUP2 PUSH1 0x1 DUP10 ADD PUSH2 0x257F JUMP JUMPDEST PUSH1 0x20 DUP9 ADD MSTORE PUSH1 0x40 MLOAD PUSH2 0x227 DUP2 PUSH2 0x1F1 DUP2 PUSH1 0x2 DUP10 ADD PUSH2 0x257F JUMP JUMPDEST PUSH1 0x40 DUP9 ADD MSTORE PUSH1 0x40 MLOAD PUSH2 0x240 DUP2 PUSH2 0x1F1 DUP2 PUSH1 0x3 DUP10 ADD PUSH2 0x257F JUMP JUMPDEST PUSH1 0x60 DUP9 ADD MSTORE PUSH1 0x40 MLOAD SWAP3 DUP4 DUP1 SWAP3 DUP7 ADD PUSH2 0x257F JUMP JUMPDEST PUSH1 0x80 DUP6 ADD MSTORE PUSH2 0x1F1 PUSH1 0x40 MLOAD DUP1 SWAP5 DUP2 SWAP4 ADD PUSH2 0x257F JUMP JUMPDEST PUSH1 0xA0 DUP3 ADD MSTORE PUSH1 0x40 MLOAD SWAP2 DUP3 SWAP2 PUSH1 0x20 DUP4 MSTORE PUSH1 0x20 DUP4 ADD SWAP1 PUSH2 0x21B5 JUMP JUMPDEST SUB SWAP1 RETURN JUMPDEST POP CALLVALUE PUSH2 0x149 JUMPI PUSH1 0x20 SWAP1 DUP2 PUSH1 0x3 NOT CALLDATASIZE ADD SLT PUSH2 0x149 JUMPI PUSH1 0x1 PUSH1 0x1 PUSH1 0xA0 SHL SUB PUSH2 0x2A9 PUSH2 0x1F9D JUMP JUMPDEST AND SWAP2 CALLER DUP4 SUB PUSH2 0x373 JUMPI DUP3 PUSH1 0x0 MSTORE PUSH1 0x2 DUP2 MSTORE PUSH2 0x2C8 PUSH1 0x40 PUSH1 0x0 KECCAK256 SLOAD PUSH2 0x22B2 JUMP JUMPDEST ISZERO PUSH2 0x330 JUMPI DUP3 PUSH1 0x0 MSTORE PUSH1 0x2 DUP2 MSTORE PUSH2 0x2E2 PUSH1 0x40 PUSH1 0x0 KECCAK256 PUSH2 0x253A JUMP JUMPDEST DUP3 PUSH1 0x0 MSTORE PUSH1 0x3 DUP2 MSTORE PUSH2 0x2F7 PUSH1 0x40 PUSH1 0x0 KECCAK256 PUSH2 0x253A JUMP JUMPDEST DUP3 PUSH1 0x0 MSTORE MSTORE PUSH1 0x40 PUSH1 0x0 KECCAK256 PUSH1 0xFF NOT DUP2 SLOAD AND SWAP1 SSTORE PUSH32 0x850E5DF914B57AC32B9B4CFB02944F8E955F9991D54AE5CCAC3936A7B205CACE PUSH1 0x0 DUP1 LOG2 STOP JUMPDEST PUSH1 0x40 MLOAD PUSH3 0x461BCD PUSH1 0xE5 SHL DUP2 MSTORE SWAP2 DUP3 ADD MSTORE PUSH1 0x17 PUSH1 0x24 DUP3 ADD MSTORE PUSH32 0x4D6574616461746120646F6573206E6F74206578697374000000000000000000 PUSH1 0x44 DUP3 ADD MSTORE PUSH1 0x64 SWAP2 POP REVERT JUMPDEST PUSH1 0x40 MLOAD PUSH3 0x461BCD PUSH1 0xE5 SHL DUP2 MSTORE SWAP2 DUP3 ADD MSTORE PUSH1 0x25 PUSH1 0x24 DUP3 ADD MSTORE PUSH32 0x4F6E6C79207772617070656420736F6E672063616E2072656D6F7665206D6574 PUSH1 0x44 DUP3 ADD MSTORE PUSH5 0x6164617461 PUSH1 0xD8 SHL PUSH1 0x64 DUP3 ADD MSTORE PUSH1 0x84 SWAP2 POP REVERT JUMPDEST POP CALLVALUE PUSH2 0x149 JUMPI PUSH1 0x20 CALLDATASIZE PUSH1 0x3 NOT ADD SLT PUSH2 0x149 JUMPI PUSH2 0x3DE PUSH2 0x1F9D JUMP JUMPDEST PUSH2 0x3E6 PUSH2 0x2236 JUMP JUMPDEST PUSH1 0x1 PUSH1 0x1 PUSH1 0xA0 SHL SUB AND SWAP1 DUP2 ISZERO PUSH2 0x412 JUMPI POP PUSH1 0x1 DUP1 SLOAD PUSH1 0x1 PUSH1 0x1 PUSH1 0xA8 SHL SUB NOT AND SWAP1 SWAP2 OR PUSH1 0x1 PUSH1 0xA0 SHL OR SWAP1 SSTORE STOP JUMPDEST PUSH1 0x64 SWAP1 PUSH1 0x20 PUSH1 0x40 MLOAD SWAP2 PUSH3 0x461BCD PUSH1 0xE5 SHL DUP4 MSTORE DUP3 ADD MSTORE PUSH1 0x1F PUSH1 0x24 DUP3 ADD MSTORE PUSH32 0x496E76616C69642070726F746F636F6C206D6F64756C65206164647265737300 PUSH1 0x44 DUP3 ADD MSTORE REVERT JUMPDEST POP CALLVALUE PUSH2 0x149 JUMPI PUSH1 0x20 SWAP1 DUP2 PUSH1 0x3 NOT CALLDATASIZE ADD SLT PUSH2 0x149 JUMPI PUSH2 0x472 PUSH2 0x1F9D JUMP JUMPDEST PUSH1 0x1 SLOAD PUSH1 0x40 MLOAD PUSH4 0x3AA690E7 PUSH1 0xE0 SHL DUP2 MSTORE PUSH1 0x1 PUSH1 0x1 PUSH1 0xA0 SHL SUB SWAP3 DUP4 AND DUP5 DUP3 ADD DUP2 SWAP1 MSTORE SWAP5 SWAP3 SWAP2 DUP4 SWAP1 DUP3 SWAP1 PUSH1 0x24 SWAP1 DUP3 SWAP1 DUP7 AND GAS STATICCALL SWAP1 DUP2 ISZERO PUSH2 0x5AC JUMPI DUP3 SWAP2 DUP5 SWAP2 PUSH1 0x0 SWAP2 PUSH2 0x5B8 JUMPI JUMPDEST POP DUP6 PUSH1 0x40 MLOAD DUP1 SWAP5 DUP2 SWAP4 PUSH4 0x8DA5CB5B PUSH1 0xE0 SHL DUP4 MSTORE AND GAS STATICCALL SWAP1 DUP2 ISZERO PUSH2 0x5AC JUMPI PUSH1 0x0 SWAP2 PUSH2 0x57F JUMPI JUMPDEST POP AND CALLER SUB PUSH2 0x531 JUMPI DUP3 PUSH1 0x0 MSTORE PUSH1 0x3 DUP2 MSTORE PUSH2 0x4F8 PUSH1 0x40 PUSH1 0x0 KECCAK256 PUSH2 0x253A JUMP JUMPDEST DUP3 PUSH1 0x0 MSTORE MSTORE PUSH1 0x40 PUSH1 0x0 KECCAK256 PUSH1 0xFF NOT DUP2 SLOAD AND SWAP1 SSTORE PUSH32 0x44983A324FA169AF1E5F7FC334FE51324C21A0F94C8407867926CB4266B0CB54 PUSH1 0x0 DUP1 LOG2 STOP JUMPDEST PUSH1 0x40 MLOAD PUSH3 0x461BCD PUSH1 0xE5 SHL DUP2 MSTORE SWAP2 DUP3 ADD MSTORE PUSH1 0x22 PUSH1 0x24 DUP3 ADD MSTORE PUSH32 0x4F6E6C79206469737472696275746F722063616E2072656A6563742075706461 PUSH1 0x44 DUP3 ADD MSTORE PUSH2 0x7465 PUSH1 0xF0 SHL PUSH1 0x64 DUP3 ADD MSTORE PUSH1 0x84 SWAP2 POP REVERT JUMPDEST PUSH2 0x59F SWAP2 POP DUP4 RETURNDATASIZE DUP6 GT PUSH2 0x5A5 JUMPI JUMPDEST PUSH2 0x597 DUP2 DUP4 PUSH2 0x202C JUMP JUMPDEST DUP2 ADD SWAP1 PUSH2 0x2293 JUMP JUMPDEST CODESIZE PUSH2 0x4DB JUMP JUMPDEST POP RETURNDATASIZE PUSH2 0x58D JUMP JUMPDEST PUSH1 0x40 MLOAD RETURNDATASIZE PUSH1 0x0 DUP3 RETURNDATACOPY RETURNDATASIZE SWAP1 REVERT JUMPDEST PUSH2 0x5CF SWAP2 POP DUP3 RETURNDATASIZE DUP5 GT PUSH2 0x5A5 JUMPI PUSH2 0x597 DUP2 DUP4 PUSH2 0x202C JUMP JUMPDEST CODESIZE PUSH2 0x4B6 JUMP JUMPDEST CALLVALUE PUSH2 0x149 JUMPI PUSH1 0x0 CALLDATASIZE PUSH1 0x3 NOT ADD SLT PUSH2 0x149 JUMPI PUSH1 0x0 SLOAD PUSH1 0x40 MLOAD PUSH1 0x1 PUSH1 0x1 PUSH1 0xA0 SHL SUB SWAP1 SWAP2 AND DUP2 MSTORE PUSH1 0x20 SWAP1 RETURN JUMPDEST CALLVALUE PUSH2 0x149 JUMPI PUSH1 0x0 CALLDATASIZE PUSH1 0x3 NOT ADD SLT PUSH2 0x149 JUMPI PUSH2 0x617 PUSH2 0x2236 JUMP JUMPDEST PUSH1 0x0 DUP1 SLOAD PUSH1 0x1 PUSH1 0x1 PUSH1 0xA0 SHL SUB NOT DUP2 AND DUP3 SSTORE PUSH1 0x1 PUSH1 0x1 PUSH1 0xA0 SHL SUB AND PUSH32 0x8BE0079C531659141344CD1FD0A4F28419497F9722A3DAAFE3B4186F6B6457E0 DUP3 DUP1 LOG3 STOP JUMPDEST POP CALLVALUE PUSH2 0x149 JUMPI PUSH2 0x666 CALLDATASIZE PUSH2 0x20AF JUMP JUMPDEST SWAP1 PUSH2 0x66F PUSH2 0x2262 JUMP JUMPDEST POP PUSH1 0x1 SLOAD PUSH1 0x40 MLOAD PUSH4 0x58DBA2F PUSH1 0xE1 SHL DUP2 MSTORE PUSH1 0x1 PUSH1 0x1 PUSH1 0xA0 SHL SUB DUP4 DUP2 AND DUP3 DUP8 ADD MSTORE SWAP5 SWAP2 PUSH1 0x20 SWAP1 DUP3 SWAP1 PUSH1 0x24 SWAP1 DUP3 SWAP1 DUP10 AND GAS STATICCALL DUP1 ISZERO PUSH2 0x5AC JUMPI DUP6 SWAP2 PUSH1 0x0 SWAP2 PUSH2 0xD44 JUMPI JUMPDEST POP AND ISZERO PUSH2 0xD00 JUMPI DUP4 DUP3 AND PUSH1 0x0 MSTORE PUSH1 0x2 PUSH1 0x20 MSTORE PUSH2 0x6CF PUSH1 0x40 PUSH1 0x0 KECCAK256 SLOAD PUSH2 0x22B2 JUMP JUMPDEST PUSH2 0xCBC JUMPI PUSH2 0x6DC DUP4 PUSH2 0x234A JUMP JUMPDEST ISZERO PUSH2 0xC85 JUMPI DUP4 DUP3 AND PUSH1 0x0 MSTORE PUSH1 0x2 PUSH1 0x20 MSTORE PUSH1 0x40 PUSH1 0x0 KECCAK256 SWAP1 DUP4 MLOAD DUP1 MLOAD SWAP1 PUSH1 0x1 PUSH1 0x1 PUSH1 0x40 SHL SUB DUP3 GT PUSH2 0xC70 JUMPI DUP2 SWAP1 PUSH2 0x71B DUP3 PUSH2 0x715 DUP8 SLOAD PUSH2 0x22B2 JUMP JUMPDEST DUP8 PUSH2 0x2303 JUMP JUMPDEST PUSH1 0x20 SWAP1 PUSH1 0x1F DUP4 GT PUSH1 0x1 EQ PUSH2 0xC0A JUMPI PUSH1 0x0 SWAP3 PUSH2 0xBFF JUMPI JUMPDEST POP POP DUP2 PUSH1 0x1 SHL SWAP2 PUSH1 0x0 NOT SWAP1 PUSH1 0x3 SHL SHR NOT AND OR DUP3 SSTORE JUMPDEST PUSH1 0x1 DUP3 ADD PUSH1 0x20 DUP6 ADD MLOAD DUP1 MLOAD SWAP1 PUSH1 0x1 PUSH1 0x1 PUSH1 0x40 SHL SUB DUP3 GT PUSH2 0xA83 JUMPI DUP2 SWAP1 PUSH2 0x776 DUP3 PUSH2 0x770 DUP7 SLOAD PUSH2 0x22B2 JUMP JUMPDEST DUP7 PUSH2 0x2303 JUMP JUMPDEST PUSH1 0x20 SWAP1 PUSH1 0x1F DUP4 GT PUSH1 0x1 EQ PUSH2 0xB99 JUMPI PUSH1 0x0 SWAP3 PUSH2 0xB8E JUMPI JUMPDEST POP POP DUP2 PUSH1 0x1 SHL SWAP2 PUSH1 0x0 NOT SWAP1 PUSH1 0x3 SHL SHR NOT AND OR SWAP1 SSTORE JUMPDEST PUSH1 0x2 DUP3 ADD PUSH1 0x40 DUP6 ADD MLOAD DUP1 MLOAD SWAP1 PUSH1 0x1 PUSH1 0x1 PUSH1 0x40 SHL SUB DUP3 GT PUSH2 0xA83 JUMPI DUP2 SWAP1 PUSH2 0x7CB DUP3 PUSH2 0x770 DUP7 SLOAD PUSH2 0x22B2 JUMP JUMPDEST PUSH1 0x20 SWAP1 PUSH1 0x1F DUP4 GT PUSH1 0x1 EQ PUSH2 0xB28 JUMPI PUSH1 0x0 SWAP3 PUSH2 0xB1D JUMPI JUMPDEST POP POP DUP2 PUSH1 0x1 SHL SWAP2 PUSH1 0x0 NOT SWAP1 PUSH1 0x3 SHL SHR NOT AND OR SWAP1 SSTORE JUMPDEST PUSH1 0x3 SWAP2 DUP3 DUP2 ADD PUSH1 0x60 DUP7 ADD MLOAD DUP1 MLOAD SWAP1 PUSH1 0x1 PUSH1 0x1 PUSH1 0x40 SHL SUB DUP3 GT PUSH2 0xB08 JUMPI DUP2 SWAP1 PUSH2 0x822 DUP3 PUSH2 0x770 DUP7 SLOAD PUSH2 0x22B2 JUMP JUMPDEST PUSH1 0x20 SWAP1 PUSH1 0x1F DUP4 GT PUSH1 0x1 EQ PUSH2 0xAA3 JUMPI PUSH1 0x0 SWAP3 PUSH2 0xA98 JUMPI JUMPDEST POP POP DUP2 PUSH1 0x1 SHL SWAP2 PUSH1 0x0 NOT SWAP1 DUP8 SHL SHR NOT AND OR SWAP1 SSTORE JUMPDEST PUSH1 0x80 DUP6 ADD MLOAD DUP1 MLOAD SWAP1 PUSH1 0x1 PUSH1 0x1 PUSH1 0x40 SHL SUB DUP3 GT PUSH2 0xA83 JUMPI PUSH2 0x87A DUP3 PUSH2 0x872 DUP7 DUP7 ADD SLOAD PUSH2 0x22B2 JUMP JUMPDEST DUP7 DUP7 ADD PUSH2 0x2303 JUMP JUMPDEST PUSH1 0x20 SWAP1 PUSH1 0x1F DUP4 GT PUSH1 0x1 EQ PUSH2 0xA13 JUMPI PUSH1 0x5 SWAP4 SWAP3 SWAP2 PUSH1 0x0 SWAP2 DUP4 PUSH2 0xA08 JUMPI JUMPDEST POP POP DUP2 PUSH1 0x1 SHL SWAP2 PUSH1 0x0 NOT SWAP1 DUP8 SHL SHR NOT AND OR DUP4 DUP3 ADD SSTORE JUMPDEST ADD SWAP2 PUSH1 0xA0 DUP6 ADD MLOAD DUP1 MLOAD SWAP3 PUSH1 0x1 PUSH1 0x1 PUSH1 0x40 SHL SUB DUP5 GT PUSH2 0x9F3 JUMPI POP PUSH2 0x8D3 DUP4 PUSH2 0x770 DUP7 SLOAD PUSH2 0x22B2 JUMP JUMPDEST PUSH1 0x20 SWAP1 PUSH1 0x1F DUP5 GT PUSH1 0x1 EQ PUSH2 0x961 JUMPI SWAP3 PUSH32 0x6E59FB1F315F2F4B281014E9D51CA1387542C6AF4109446EAAABADD34B5D5EB3 SWAP5 SWAP3 DUP2 SWAP3 PUSH2 0x281 SWAP10 SWAP6 PUSH1 0x0 SWAP4 PUSH2 0x956 JUMPI JUMPDEST POP POP DUP3 PUSH1 0x1 SHL SWAP3 PUSH1 0x0 NOT SWAP2 SHL SHR NOT AND OR SWAP1 SSTORE JUMPDEST PUSH1 0x40 MLOAD SWAP3 PUSH1 0x20 DUP5 MSTORE AND SWAP2 DUP1 PUSH2 0x93F PUSH1 0x20 DUP3 ADD DUP7 PUSH2 0x21B5 JUMP JUMPDEST SUB SWAP1 LOG2 PUSH1 0x40 MLOAD SWAP2 DUP3 SWAP2 PUSH1 0x20 DUP4 MSTORE PUSH1 0x20 DUP4 ADD SWAP1 PUSH2 0x21B5 JUMP JUMPDEST ADD MLOAD SWAP2 POP CODESIZE DUP1 PUSH2 0x914 JUMP JUMPDEST SWAP2 SWAP1 PUSH1 0x1F NOT DUP5 AND SWAP3 DUP6 PUSH1 0x0 MSTORE PUSH1 0x20 PUSH1 0x0 KECCAK256 SWAP4 PUSH1 0x0 JUMPDEST DUP2 DUP2 LT PUSH2 0x9DB JUMPI POP SWAP3 DUP6 SWAP3 PUSH32 0x6E59FB1F315F2F4B281014E9D51CA1387542C6AF4109446EAAABADD34B5D5EB3 SWAP8 SWAP6 SWAP3 PUSH2 0x281 SWAP12 SWAP8 PUSH1 0x1 SWAP7 LT PUSH2 0x9C1 JUMPI JUMPDEST POP POP POP POP DUP2 SHL ADD SWAP1 SSTORE PUSH2 0x927 JUMP JUMPDEST ADD MLOAD SWAP1 PUSH1 0xF8 DUP5 PUSH1 0x0 NOT SWAP3 SHL AND SHR NOT AND SWAP1 SSTORE CODESIZE DUP1 DUP1 DUP1 PUSH2 0x9B3 JUMP JUMPDEST SWAP3 SWAP5 PUSH1 0x20 PUSH1 0x1 DUP2 SWAP3 DUP9 DUP7 ADD MLOAD DUP2 SSTORE ADD SWAP7 ADD SWAP4 ADD PUSH2 0x976 JUMP JUMPDEST PUSH1 0x41 SWAP1 PUSH4 0x4E487B71 PUSH1 0xE0 SHL PUSH1 0x0 MSTORE MSTORE PUSH1 0x24 PUSH1 0x0 REVERT JUMPDEST ADD MLOAD SWAP1 POP CODESIZE DUP1 PUSH2 0x896 JUMP JUMPDEST SWAP1 DUP5 DUP5 ADD PUSH1 0x0 MSTORE PUSH1 0x20 PUSH1 0x0 KECCAK256 SWAP2 PUSH1 0x0 JUMPDEST PUSH1 0x1F NOT DUP6 AND DUP2 LT PUSH2 0xA6B JUMPI POP SWAP2 DUP4 SWAP2 PUSH1 0x1 SWAP4 PUSH1 0x5 SWAP7 SWAP6 PUSH1 0x1F NOT DUP2 AND LT PUSH2 0xA53 JUMPI JUMPDEST POP POP POP DUP2 SHL ADD DUP4 DUP3 ADD SSTORE PUSH2 0x8AC JUMP JUMPDEST ADD MLOAD PUSH1 0x0 NOT DUP4 DUP10 SHL PUSH1 0xF8 AND SHR NOT AND SWAP1 SSTORE CODESIZE DUP1 DUP1 PUSH2 0xA44 JUMP JUMPDEST SWAP2 SWAP3 PUSH1 0x20 PUSH1 0x1 DUP2 SWAP3 DUP7 DUP6 ADD MLOAD DUP2 SSTORE ADD SWAP5 ADD SWAP3 ADD PUSH2 0xA23 JUMP JUMPDEST PUSH1 0x41 DUP5 PUSH4 0x4E487B71 PUSH1 0xE0 SHL PUSH1 0x0 MSTORE MSTORE PUSH1 0x24 PUSH1 0x0 REVERT JUMPDEST ADD MLOAD SWAP1 POP CODESIZE DUP1 PUSH2 0x838 JUMP JUMPDEST PUSH1 0x0 DUP6 DUP2 MSTORE PUSH1 0x20 DUP2 KECCAK256 SWAP4 POP PUSH1 0x1F NOT DUP6 AND SWAP1 JUMPDEST DUP2 DUP2 LT PUSH2 0xAF0 JUMPI POP SWAP1 DUP5 PUSH1 0x1 SWAP6 SWAP5 SWAP4 SWAP3 LT PUSH2 0xAD8 JUMPI JUMPDEST POP POP POP DUP2 SHL ADD SWAP1 SSTORE PUSH2 0x84C JUMP JUMPDEST ADD MLOAD PUSH1 0x0 NOT DUP4 DUP10 SHL PUSH1 0xF8 AND SHR NOT AND SWAP1 SSTORE CODESIZE DUP1 DUP1 PUSH2 0xACB JUMP JUMPDEST SWAP3 SWAP4 PUSH1 0x20 PUSH1 0x1 DUP2 SWAP3 DUP8 DUP7 ADD MLOAD DUP2 SSTORE ADD SWAP6 ADD SWAP4 ADD PUSH2 0xAB5 JUMP JUMPDEST PUSH1 0x41 DUP6 PUSH4 0x4E487B71 PUSH1 0xE0 SHL PUSH1 0x0 MSTORE MSTORE PUSH1 0x24 PUSH1 0x0 REVERT JUMPDEST ADD MLOAD SWAP1 POP CODESIZE DUP1 PUSH2 0x7E1 JUMP JUMPDEST PUSH1 0x0 DUP6 DUP2 MSTORE PUSH1 0x20 DUP2 KECCAK256 SWAP4 POP PUSH1 0x1F NOT DUP6 AND SWAP1 JUMPDEST DUP2 DUP2 LT PUSH2 0xB76 JUMPI POP SWAP1 DUP5 PUSH1 0x1 SWAP6 SWAP5 SWAP4 SWAP3 LT PUSH2 0xB5D JUMPI JUMPDEST POP POP POP DUP2 SHL ADD SWAP1 SSTORE PUSH2 0x7F6 JUMP JUMPDEST ADD MLOAD PUSH1 0x0 NOT PUSH1 0xF8 DUP5 PUSH1 0x3 SHL AND SHR NOT AND SWAP1 SSTORE CODESIZE DUP1 DUP1 PUSH2 0xB50 JUMP JUMPDEST SWAP3 SWAP4 PUSH1 0x20 PUSH1 0x1 DUP2 SWAP3 DUP8 DUP7 ADD MLOAD DUP2 SSTORE ADD SWAP6 ADD SWAP4 ADD PUSH2 0xB3A JUMP JUMPDEST ADD MLOAD SWAP1 POP CODESIZE DUP1 PUSH2 0x78C JUMP JUMPDEST PUSH1 0x0 DUP6 DUP2 MSTORE PUSH1 0x20 DUP2 KECCAK256 SWAP4 POP PUSH1 0x1F NOT DUP6 AND SWAP1 JUMPDEST DUP2 DUP2 LT PUSH2 0xBE7 JUMPI POP SWAP1 DUP5 PUSH1 0x1 SWAP6 SWAP5 SWAP4 SWAP3 LT PUSH2 0xBCE JUMPI JUMPDEST POP POP POP DUP2 SHL ADD SWAP1 SSTORE PUSH2 0x7A1 JUMP JUMPDEST ADD MLOAD PUSH1 0x0 NOT PUSH1 0xF8 DUP5 PUSH1 0x3 SHL AND SHR NOT AND SWAP1 SSTORE CODESIZE DUP1 DUP1 PUSH2 0xBC1 JUMP JUMPDEST SWAP3 SWAP4 PUSH1 0x20 PUSH1 0x1 DUP2 SWAP3 DUP8 DUP7 ADD MLOAD DUP2 SSTORE ADD SWAP6 ADD SWAP4 ADD PUSH2 0xBAB JUMP JUMPDEST ADD MLOAD SWAP1 POP CODESIZE DUP1 PUSH2 0x731 JUMP JUMPDEST PUSH1 0x0 DUP7 DUP2 MSTORE PUSH1 0x20 DUP2 KECCAK256 SWAP4 POP PUSH1 0x1F NOT DUP6 AND SWAP1 JUMPDEST DUP2 DUP2 LT PUSH2 0xC58 JUMPI POP SWAP1 DUP5 PUSH1 0x1 SWAP6 SWAP5 SWAP4 SWAP3 LT PUSH2 0xC3F JUMPI JUMPDEST POP POP POP DUP2 SHL ADD DUP3 SSTORE PUSH2 0x746 JUMP JUMPDEST ADD MLOAD PUSH1 0x0 NOT PUSH1 0xF8 DUP5 PUSH1 0x3 SHL AND SHR NOT AND SWAP1 SSTORE CODESIZE DUP1 DUP1 PUSH2 0xC32 JUMP JUMPDEST SWAP3 SWAP4 PUSH1 0x20 PUSH1 0x1 DUP2 SWAP3 DUP8 DUP7 ADD MLOAD DUP2 SSTORE ADD SWAP6 ADD SWAP4 ADD PUSH2 0xC1C JUMP JUMPDEST PUSH1 0x41 DUP4 PUSH4 0x4E487B71 PUSH1 0xE0 SHL PUSH1 0x0 MSTORE MSTORE PUSH1 0x24 PUSH1 0x0 REVERT JUMPDEST PUSH1 0x64 SWAP1 PUSH1 0x20 PUSH1 0x40 MLOAD SWAP2 PUSH3 0x461BCD PUSH1 0xE5 SHL DUP4 MSTORE DUP3 ADD MSTORE PUSH1 0x10 PUSH1 0x24 DUP3 ADD MSTORE PUSH16 0x496E76616C6964206D65746164617461 PUSH1 0x80 SHL PUSH1 0x44 DUP3 ADD MSTORE REVERT JUMPDEST PUSH1 0x64 SWAP1 PUSH1 0x20 PUSH1 0x40 MLOAD SWAP2 PUSH3 0x461BCD PUSH1 0xE5 SHL DUP4 MSTORE DUP3 ADD MSTORE PUSH1 0x17 PUSH1 0x24 DUP3 ADD MSTORE PUSH32 0x4D6574616461746120616C726561647920657869737473000000000000000000 PUSH1 0x44 DUP3 ADD MSTORE REVERT JUMPDEST PUSH1 0x64 SWAP1 PUSH1 0x20 PUSH1 0x40 MLOAD SWAP2 PUSH3 0x461BCD PUSH1 0xE5 SHL DUP4 MSTORE DUP3 ADD MSTORE PUSH1 0x19 PUSH1 0x24 DUP3 ADD MSTORE PUSH32 0x41646472657373206E6F7420612070726F746F636F6C20575300000000000000 PUSH1 0x44 DUP3 ADD MSTORE REVERT JUMPDEST PUSH2 0xD5D SWAP2 POP PUSH1 0x20 RETURNDATASIZE PUSH1 0x20 GT PUSH2 0x5A5 JUMPI PUSH2 0x597 DUP2 DUP4 PUSH2 0x202C JUMP JUMPDEST CODESIZE PUSH2 0x6AF JUMP JUMPDEST POP CALLVALUE PUSH2 0x149 JUMPI PUSH2 0xD72 CALLDATASIZE PUSH2 0x20AF JUMP JUMPDEST PUSH1 0x40 MLOAD PUSH4 0x8DA5CB5B PUSH1 0xE0 SHL DUP2 MSTORE PUSH1 0x1 PUSH1 0x1 PUSH1 0xA0 SHL SUB SWAP4 SWAP3 DUP5 AND SWAP3 PUSH1 0x20 SWAP2 DUP3 DUP2 DUP4 DUP2 DUP9 GAS STATICCALL SWAP1 DUP2 ISZERO PUSH2 0x5AC JUMPI PUSH1 0x0 SWAP2 PUSH2 0x1401 JUMPI JUMPDEST POP DUP6 AND CALLER EQ DUP1 ISZERO PUSH2 0x13F4 JUMPI JUMPDEST ISZERO PUSH2 0x13A0 JUMPI DUP2 SWAP1 PUSH1 0x1 SWAP6 DUP7 SLOAD AND PUSH1 0x40 MLOAD SWAP3 DUP4 DUP1 SWAP3 PUSH4 0x6F87189 PUSH1 0xE3 SHL DUP3 MSTORE DUP9 DUP6 DUP4 ADD MSTORE PUSH1 0x24 SWAP6 DUP7 SWAP2 GAS STATICCALL SWAP1 DUP2 ISZERO PUSH2 0x5AC JUMPI PUSH1 0x0 SWAP2 PUSH2 0x1373 JUMPI JUMPDEST POP PUSH2 0x131C JUMPI PUSH2 0xE00 PUSH2 0xDFB DUP6 PUSH2 0x234A JUMP JUMPDEST PUSH2 0x238F JUMP JUMPDEST DUP5 PUSH1 0x0 MSTORE PUSH1 0x2 DUP4 MSTORE PUSH1 0x40 PUSH1 0x0 KECCAK256 DUP5 MLOAD SWAP7 DUP8 MLOAD SWAP3 PUSH1 0x1 PUSH1 0x1 PUSH1 0x40 SHL SUB SWAP4 DUP5 DUP2 GT PUSH2 0x1308 JUMPI PUSH2 0xE31 DUP2 PUSH2 0x770 DUP7 SLOAD PUSH2 0x22B2 JUMP JUMPDEST DUP1 DUP8 PUSH1 0x1F SWAP12 DUP13 DUP4 GT PUSH1 0x1 EQ PUSH2 0x12A5 JUMPI PUSH1 0x0 SWAP3 PUSH2 0x129A JUMPI JUMPDEST POP POP PUSH1 0x0 NOT PUSH1 0x3 DUP4 SWAP1 SHL SHR NOT AND SWAP1 DUP4 SHL OR DUP4 SSTORE JUMPDEST DUP2 DUP4 ADD DUP7 DUP9 ADD MLOAD DUP1 MLOAD SWAP1 DUP7 DUP3 GT PUSH2 0x1218 JUMPI DUP2 SWAP1 PUSH2 0xE7D DUP3 PUSH2 0x770 DUP7 SLOAD PUSH2 0x22B2 JUMP JUMPDEST DUP10 SWAP1 DUP14 DUP4 GT PUSH1 0x1 EQ PUSH2 0x1237 JUMPI PUSH1 0x0 SWAP3 PUSH2 0x122C JUMPI JUMPDEST POP POP PUSH1 0x0 NOT PUSH1 0x3 DUP4 SWAP1 SHL SHR NOT AND SWAP1 DUP5 SHL OR SWAP1 SSTORE JUMPDEST PUSH1 0x2 DUP4 ADD PUSH1 0x40 DUP9 ADD MLOAD DUP1 MLOAD SWAP1 DUP7 DUP3 GT PUSH2 0x1218 JUMPI DUP2 SWAP1 PUSH2 0xEC8 DUP3 PUSH2 0x770 DUP7 SLOAD PUSH2 0x22B2 JUMP JUMPDEST DUP10 SWAP1 DUP14 DUP4 GT PUSH1 0x1 EQ PUSH2 0x11B5 JUMPI PUSH1 0x0 SWAP3 PUSH2 0x11AA JUMPI JUMPDEST POP POP PUSH1 0x0 NOT PUSH1 0x3 DUP4 SWAP1 SHL SHR NOT AND SWAP1 DUP5 SHL OR SWAP1 SSTORE JUMPDEST PUSH1 0x3 SWAP3 DUP4 DUP2 ADD PUSH1 0x60 DUP10 ADD MLOAD DUP1 MLOAD SWAP1 DUP8 DUP3 GT PUSH2 0x1129 JUMPI DUP13 DUP3 SWAP2 PUSH2 0xF16 DUP4 PUSH2 0x715 DUP8 SLOAD PUSH2 0x22B2 JUMP JUMPDEST DUP12 SWAP2 DUP4 GT PUSH1 0x1 EQ PUSH2 0x1148 JUMPI PUSH1 0x0 SWAP3 PUSH2 0x113D JUMPI JUMPDEST POP POP PUSH1 0x0 NOT DUP3 DUP9 SHL SHR NOT AND SWAP1 DUP6 SHL OR SWAP1 SSTORE JUMPDEST DUP2 DUP2 ADD PUSH1 0x80 DUP10 ADD MLOAD DUP1 MLOAD SWAP1 DUP8 DUP3 GT PUSH2 0x1129 JUMPI PUSH2 0xF61 DUP3 PUSH2 0xF5B DUP6 SLOAD PUSH2 0x22B2 JUMP JUMPDEST DUP6 PUSH2 0x2303 JUMP JUMPDEST DUP10 SWAP1 DUP14 DUP4 GT PUSH1 0x1 EQ PUSH2 0x10C0 JUMPI PUSH1 0x5 SWAP5 SWAP4 SWAP3 SWAP2 PUSH1 0x0 SWAP2 DUP4 PUSH2 0x10B5 JUMPI JUMPDEST POP POP PUSH1 0x0 NOT DUP3 DUP10 SHL SHR NOT AND SWAP1 DUP7 SHL OR SWAP1 SSTORE JUMPDEST ADD SWAP5 PUSH1 0xA0 DUP9 ADD MLOAD SWAP2 DUP3 MLOAD SWAP6 DUP7 GT PUSH2 0x10A2 JUMPI POP POP PUSH2 0xFAF DUP5 PUSH2 0x715 DUP8 SLOAD PUSH2 0x22B2 JUMP JUMPDEST DUP6 SWAP9 DUP5 GT PUSH1 0x1 EQ PUSH2 0x101E JUMPI DUP4 SWAP3 SWAP2 PUSH32 0x4288F171F419B66095D6E026090ED813669EA5A62CFE4416A47E75549E478866 SWAP9 SWAP10 DUP5 SWAP3 PUSH1 0x0 SWAP6 PUSH2 0x1013 JUMPI JUMPDEST POP POP SHL SWAP3 PUSH1 0x0 NOT SWAP2 SHL SHR NOT AND OR SWAP1 SSTORE JUMPDEST PUSH2 0x100E PUSH1 0x40 MLOAD SWAP3 DUP3 DUP5 SWAP4 DUP5 MSTORE DUP4 ADD SWAP1 PUSH2 0x21B5 JUMP JUMPDEST SUB SWAP1 LOG2 STOP JUMPDEST ADD MLOAD SWAP4 POP CODESIZE DUP1 PUSH2 0xFEA JUMP JUMPDEST SWAP1 SWAP3 SWAP2 PUSH1 0x1F NOT DUP4 AND SWAP9 DUP6 PUSH1 0x0 MSTORE DUP7 PUSH1 0x0 KECCAK256 SWAP3 PUSH1 0x0 JUMPDEST DUP12 DUP2 LT PUSH2 0x108D JUMPI POP DUP5 PUSH32 0x4288F171F419B66095D6E026090ED813669EA5A62CFE4416A47E75549E478866 SWAP11 SWAP12 LT PUSH2 0x1073 JUMPI JUMPDEST POP POP POP POP DUP2 SHL ADD SWAP1 SSTORE PUSH2 0xFFA JUMP JUMPDEST ADD MLOAD SWAP1 PUSH1 0xF8 DUP5 PUSH1 0x0 NOT SWAP3 SHL AND SHR NOT AND SWAP1 SSTORE CODESIZE DUP1 DUP1 DUP1 PUSH2 0x1065 JUMP JUMPDEST DUP2 DUP4 ADD MLOAD DUP6 SSTORE SWAP4 DUP7 ADD SWAP4 SWAP2 DUP9 ADD SWAP2 DUP9 ADD PUSH2 0x1033 JUMP JUMPDEST PUSH1 0x41 SWAP1 PUSH4 0x4E487B71 PUSH1 0xE0 SHL PUSH1 0x0 MSTORE MSTORE PUSH1 0x0 REVERT JUMPDEST ADD MLOAD SWAP1 POP CODESIZE DUP1 PUSH2 0xF7C JUMP JUMPDEST SWAP4 SWAP3 SWAP2 DUP7 SWAP2 PUSH1 0x1F NOT DUP3 AND SWAP1 DUP5 PUSH1 0x0 MSTORE DUP13 PUSH1 0x0 KECCAK256 SWAP2 DUP14 PUSH1 0x0 SWAP1 JUMPDEST DUP3 DUP3 LT PUSH2 0x1112 JUMPI POP POP SWAP7 DUP4 PUSH1 0x5 SWAP9 LT PUSH2 0x10FA JUMPI JUMPDEST POP POP POP DUP2 SHL ADD SWAP1 SSTORE PUSH2 0xF8E JUMP JUMPDEST ADD MLOAD PUSH1 0x0 NOT DUP4 DUP12 SHL PUSH1 0xF8 AND SHR NOT AND SWAP1 SSTORE CODESIZE DUP1 DUP1 PUSH2 0x10ED JUMP JUMPDEST DUP4 DUP11 ADD MLOAD DUP6 SSTORE DUP12 SWAP7 SWAP1 SWAP5 ADD SWAP4 SWAP3 DUP4 ADD SWAP3 ADD DUP15 PUSH2 0x10D9 JUMP JUMPDEST DUP9 PUSH1 0x41 DUP7 PUSH4 0x4E487B71 PUSH1 0xE0 SHL PUSH1 0x0 MSTORE MSTORE PUSH1 0x0 REVERT JUMPDEST ADD MLOAD SWAP1 POP CODESIZE DUP1 PUSH2 0xF29 JUMP JUMPDEST PUSH1 0x0 DUP6 DUP2 MSTORE DUP13 DUP2 KECCAK256 DUP10 SWAP6 POP SWAP3 SWAP2 SWAP1 PUSH1 0x1F NOT DUP6 AND SWAP1 DUP15 JUMPDEST DUP3 DUP3 LT PUSH2 0x1193 JUMPI POP POP DUP5 GT PUSH2 0x117B JUMPI JUMPDEST POP POP POP DUP2 SHL ADD SWAP1 SSTORE PUSH2 0xF3B JUMP JUMPDEST ADD MLOAD PUSH1 0x0 NOT DUP4 DUP11 SHL PUSH1 0xF8 AND SHR NOT AND SWAP1 SSTORE CODESIZE DUP1 DUP1 PUSH2 0x116E JUMP JUMPDEST DUP4 DUP6 ADD MLOAD DUP7 SSTORE DUP12 SWAP8 SWAP1 SWAP6 ADD SWAP5 SWAP4 DUP5 ADD SWAP4 ADD DUP15 PUSH2 0x115E JUMP JUMPDEST ADD MLOAD SWAP1 POP CODESIZE DUP1 PUSH2 0xEDC JUMP JUMPDEST SWAP1 DUP7 SWAP4 POP PUSH1 0x1F NOT DUP4 AND SWAP2 DUP6 PUSH1 0x0 MSTORE DUP12 PUSH1 0x0 KECCAK256 SWAP3 PUSH1 0x0 JUMPDEST DUP14 DUP3 DUP3 LT PUSH2 0x1202 JUMPI POP POP DUP5 GT PUSH2 0x11E9 JUMPI JUMPDEST POP POP POP DUP2 SHL ADD SWAP1 SSTORE PUSH2 0xEF0 JUMP JUMPDEST ADD MLOAD PUSH1 0x0 NOT PUSH1 0xF8 DUP5 PUSH1 0x3 SHL AND SHR NOT AND SWAP1 SSTORE CODESIZE DUP1 DUP1 PUSH2 0x11DC JUMP JUMPDEST DUP4 DUP6 ADD MLOAD DUP7 SSTORE DUP11 SWAP8 SWAP1 SWAP6 ADD SWAP5 SWAP4 DUP5 ADD SWAP4 ADD PUSH2 0x11CB JUMP JUMPDEST DUP8 PUSH1 0x41 DUP6 PUSH4 0x4E487B71 PUSH1 0xE0 SHL PUSH1 0x0 MSTORE MSTORE PUSH1 0x0 REVERT JUMPDEST ADD MLOAD SWAP1 POP CODESIZE DUP1 PUSH2 0xE91 JUMP JUMPDEST SWAP1 DUP7 SWAP4 POP PUSH1 0x1F NOT DUP4 AND SWAP2 DUP6 PUSH1 0x0 MSTORE DUP12 PUSH1 0x0 KECCAK256 SWAP3 PUSH1 0x0 JUMPDEST DUP14 DUP3 DUP3 LT PUSH2 0x1284 JUMPI POP POP DUP5 GT PUSH2 0x126B JUMPI JUMPDEST POP POP POP DUP2 SHL ADD SWAP1 SSTORE PUSH2 0xEA5 JUMP JUMPDEST ADD MLOAD PUSH1 0x0 NOT PUSH1 0xF8 DUP5 PUSH1 0x3 SHL AND SHR NOT AND SWAP1 SSTORE CODESIZE DUP1 DUP1 PUSH2 0x125E JUMP JUMPDEST DUP4 DUP6 ADD MLOAD DUP7 SSTORE DUP11 SWAP8 SWAP1 SWAP6 ADD SWAP5 SWAP4 DUP5 ADD SWAP4 ADD PUSH2 0x124D JUMP JUMPDEST ADD MLOAD SWAP1 POP CODESIZE DUP1 PUSH2 0xE48 JUMP JUMPDEST SWAP1 DUP6 SWAP4 POP PUSH1 0x1F NOT DUP4 AND SWAP2 DUP8 PUSH1 0x0 MSTORE DUP11 PUSH1 0x0 KECCAK256 SWAP3 PUSH1 0x0 JUMPDEST DUP13 DUP3 DUP3 LT PUSH2 0x12F2 JUMPI POP POP DUP5 GT PUSH2 0x12D9 JUMPI JUMPDEST POP POP POP DUP2 SHL ADD DUP4 SSTORE PUSH2 0xE5C JUMP JUMPDEST ADD MLOAD PUSH1 0x0 NOT PUSH1 0xF8 DUP5 PUSH1 0x3 SHL AND SHR NOT AND SWAP1 SSTORE CODESIZE DUP1 DUP1 PUSH2 0x12CC JUMP JUMPDEST DUP4 DUP6 ADD MLOAD DUP7 SSTORE DUP10 SWAP8 SWAP1 SWAP6 ADD SWAP5 SWAP4 DUP5 ADD SWAP4 ADD PUSH2 0x12BB JUMP JUMPDEST DUP6 PUSH1 0x41 DUP4 PUSH4 0x4E487B71 PUSH1 0xE0 SHL PUSH1 0x0 MSTORE MSTORE PUSH1 0x0 REVERT JUMPDEST PUSH1 0x2D PUSH1 0x84 SWAP3 DUP5 PUSH1 0x40 MLOAD SWAP4 PUSH3 0x461BCD PUSH1 0xE5 SHL DUP6 MSTORE DUP5 ADD MSTORE DUP3 ADD MSTORE PUSH32 0x43616E6E6F7420757064617465206D65746164617461206469726563746C7920 PUSH1 0x44 DUP3 ADD MSTORE PUSH13 0x61667465722072656C65617365 PUSH1 0x98 SHL PUSH1 0x64 DUP3 ADD MSTORE REVERT JUMPDEST PUSH2 0x1393 SWAP2 POP DUP5 RETURNDATASIZE DUP7 GT PUSH2 0x1399 JUMPI JUMPDEST PUSH2 0x138B DUP2 DUP4 PUSH2 0x202C JUMP JUMPDEST DUP2 ADD SWAP1 PUSH2 0x2401 JUMP JUMPDEST CODESIZE PUSH2 0xDEA JUMP JUMPDEST POP RETURNDATASIZE PUSH2 0x1381 JUMP JUMPDEST PUSH1 0x84 SWAP2 PUSH1 0x40 MLOAD SWAP2 PUSH3 0x461BCD PUSH1 0xE5 SHL DUP4 MSTORE DUP3 ADD MSTORE PUSH1 0x29 PUSH1 0x24 DUP3 ADD MSTORE PUSH32 0x4F6E6C79207772617070656420736F6E67206F7220697473206F776E65722063 PUSH1 0x44 DUP3 ADD MSTORE PUSH9 0x616E20757064617465 PUSH1 0xB8 SHL PUSH1 0x64 DUP3 ADD MSTORE REVERT JUMPDEST POP DUP5 PUSH1 0x1 SLOAD AND CALLER EQ PUSH2 0xDB1 JUMP JUMPDEST PUSH2 0x1418 SWAP2 POP DUP4 RETURNDATASIZE DUP6 GT PUSH2 0x5A5 JUMPI PUSH2 0x597 DUP2 DUP4 PUSH2 0x202C JUMP JUMPDEST CODESIZE PUSH2 0xDA5 JUMP JUMPDEST CALLVALUE PUSH2 0x149 JUMPI PUSH1 0x0 CALLDATASIZE PUSH1 0x3 NOT ADD SLT PUSH2 0x149 JUMPI PUSH1 0x1 SLOAD PUSH1 0x40 MLOAD PUSH1 0x1 PUSH1 0x1 PUSH1 0xA0 SHL SUB SWAP1 SWAP2 AND DUP2 MSTORE PUSH1 0x20 SWAP1 RETURN JUMPDEST POP CALLVALUE PUSH2 0x149 JUMPI PUSH2 0x1456 CALLDATASIZE PUSH2 0x20AF JUMP JUMPDEST PUSH2 0x1465 PUSH2 0xDFB DUP3 SWAP5 SWAP4 SWAP5 PUSH2 0x234A JUMP JUMPDEST PUSH1 0x40 MLOAD PUSH4 0x8DA5CB5B PUSH1 0xE0 SHL DUP2 MSTORE PUSH1 0x1 PUSH1 0x1 PUSH1 0xA0 SHL SUB SWAP4 DUP5 AND SWAP3 PUSH1 0x20 SWAP2 DUP3 DUP2 DUP4 DUP2 DUP9 GAS STATICCALL SWAP1 DUP2 ISZERO PUSH2 0x5AC JUMPI PUSH1 0x0 SWAP2 PUSH2 0x1AAC JUMPI JUMPDEST POP DUP6 CALLER SWAP2 AND SUB PUSH2 0x1A57 JUMPI DUP2 PUSH1 0x1 SWAP6 DUP7 SLOAD AND PUSH1 0x40 MLOAD SWAP2 DUP3 DUP1 SWAP3 PUSH4 0x6F87189 PUSH1 0xE3 SHL DUP3 MSTORE DUP9 DUP7 DUP4 ADD MSTORE PUSH1 0x24 SWAP5 DUP6 SWAP2 GAS STATICCALL SWAP1 DUP2 ISZERO PUSH2 0x5AC JUMPI PUSH1 0x0 SWAP2 PUSH2 0x1A3A JUMPI JUMPDEST POP ISZERO PUSH2 0x19E5 JUMPI DUP5 PUSH1 0x0 MSTORE PUSH1 0x3 DUP1 DUP5 MSTORE PUSH1 0x40 PUSH1 0x0 KECCAK256 SWAP1 DUP6 MLOAD SWAP8 DUP9 MLOAD SWAP3 PUSH1 0x1 PUSH1 0x1 PUSH1 0x40 SHL SUB SWAP4 DUP5 DUP2 GT PUSH2 0x19D1 JUMPI PUSH2 0x1513 DUP2 PUSH2 0x150D DUP5 SLOAD PUSH2 0x22B2 JUMP JUMPDEST DUP5 PUSH2 0x2303 JUMP JUMPDEST DUP1 DUP9 PUSH1 0x1F SWAP13 DUP14 DUP4 GT PUSH1 0x1 EQ PUSH2 0x196F JUMPI PUSH1 0x0 SWAP3 PUSH2 0x1964 JUMPI JUMPDEST POP POP PUSH1 0x0 NOT DUP3 DUP7 SHL SHR NOT AND SWAP1 DUP4 SHL OR DUP2 SSTORE JUMPDEST DUP2 DUP2 ADD DUP8 DUP10 ADD MLOAD DUP1 MLOAD SWAP1 DUP7 DUP3 GT PUSH2 0x1809 JUMPI DUP13 DUP3 SWAP2 PUSH2 0x155E DUP4 PUSH2 0x715 DUP8 SLOAD PUSH2 0x22B2 JUMP JUMPDEST DUP12 SWAP2 DUP4 GT PUSH1 0x1 EQ PUSH2 0x1902 JUMPI PUSH1 0x0 SWAP3 PUSH2 0x18F7 JUMPI JUMPDEST POP POP PUSH1 0x0 NOT DUP3 DUP8 SHL SHR NOT AND SWAP1 DUP5 SHL OR SWAP1 SSTORE JUMPDEST PUSH1 0x2 DUP2 ADD PUSH1 0x40 DUP10 ADD MLOAD DUP1 MLOAD SWAP1 DUP7 DUP3 GT PUSH2 0x1809 JUMPI DUP13 DUP3 SWAP2 PUSH2 0x15A7 DUP4 PUSH2 0x715 DUP8 SLOAD PUSH2 0x22B2 JUMP JUMPDEST DUP12 SWAP2 DUP4 GT PUSH1 0x1 EQ PUSH2 0x1895 JUMPI PUSH1 0x0 SWAP3 PUSH2 0x188A JUMPI JUMPDEST POP POP PUSH1 0x0 NOT DUP3 DUP8 SHL SHR NOT AND SWAP1 DUP5 SHL OR SWAP1 SSTORE JUMPDEST DUP3 DUP2 ADD PUSH1 0x60 DUP10 ADD MLOAD DUP1 MLOAD SWAP1 DUP7 DUP3 GT PUSH2 0x1809 JUMPI DUP13 DUP3 SWAP2 PUSH2 0x15EF DUP4 PUSH2 0x715 DUP8 SLOAD PUSH2 0x22B2 JUMP JUMPDEST DUP12 SWAP2 DUP4 GT PUSH1 0x1 EQ PUSH2 0x1828 JUMPI PUSH1 0x0 SWAP3 PUSH2 0x181D JUMPI JUMPDEST POP POP PUSH1 0x0 NOT DUP3 DUP8 SHL SHR NOT AND SWAP1 DUP5 SHL OR SWAP1 SSTORE JUMPDEST DUP6 DUP2 ADD PUSH1 0x80 DUP10 ADD MLOAD DUP1 MLOAD SWAP1 DUP7 DUP3 GT PUSH2 0x1809 JUMPI PUSH2 0x1634 DUP3 PUSH2 0xF5B DUP6 SLOAD PUSH2 0x22B2 JUMP JUMPDEST DUP10 SWAP1 DUP14 DUP4 GT PUSH1 0x1 EQ PUSH2 0x17A0 JUMPI PUSH1 0x5 SWAP5 SWAP4 SWAP3 SWAP2 PUSH1 0x0 SWAP2 DUP4 PUSH2 0x1795 JUMPI JUMPDEST POP POP PUSH1 0x0 NOT DUP3 DUP9 SHL SHR NOT AND SWAP1 DUP6 SHL OR SWAP1 SSTORE JUMPDEST ADD SWAP4 PUSH1 0xA0 DUP9 ADD MLOAD SWAP1 DUP2 MLOAD SWAP5 DUP6 GT PUSH2 0x1782 JUMPI POP PUSH2 0x1681 DUP5 PUSH2 0x715 DUP8 SLOAD PUSH2 0x22B2 JUMP JUMPDEST DUP7 SWAP10 DUP5 GT PUSH1 0x1 EQ PUSH2 0x16FE JUMPI DUP4 SWAP3 SWAP2 PUSH32 0xCFA38AD22E928CEDE6A19793C7DA9BAD051DDD68EAABFC0A35500E381A60CB39 SWAP10 SWAP11 DUP5 SWAP3 PUSH1 0x0 SWAP6 PUSH2 0x16F3 JUMPI JUMPDEST POP POP SHL SWAP3 PUSH1 0x0 NOT SWAP2 SHL SHR NOT AND OR SWAP1 SSTORE JUMPDEST DUP5 PUSH1 0x0 MSTORE DUP2 MSTORE PUSH1 0x40 PUSH1 0x0 KECCAK256 PUSH1 0xFF NOT DUP2 SLOAD AND SWAP1 SSTORE PUSH2 0x100E PUSH1 0x40 MLOAD SWAP3 DUP3 DUP5 SWAP4 DUP5 MSTORE DUP4 ADD SWAP1 PUSH2 0x21B5 JUMP JUMPDEST ADD MLOAD SWAP4 POP CODESIZE DUP1 PUSH2 0x16BC JUMP JUMPDEST SWAP1 SWAP3 SWAP2 PUSH1 0x1F NOT DUP4 AND SWAP10 DUP6 PUSH1 0x0 MSTORE DUP8 PUSH1 0x0 KECCAK256 SWAP3 PUSH1 0x0 JUMPDEST DUP13 DUP2 LT PUSH2 0x176D JUMPI POP DUP5 PUSH32 0xCFA38AD22E928CEDE6A19793C7DA9BAD051DDD68EAABFC0A35500E381A60CB39 SWAP12 SWAP13 LT PUSH2 0x1753 JUMPI JUMPDEST POP POP POP POP DUP2 SHL ADD SWAP1 SSTORE PUSH2 0x16CC JUMP JUMPDEST ADD MLOAD SWAP1 PUSH1 0xF8 DUP5 PUSH1 0x0 NOT SWAP3 SHL AND SHR NOT AND SWAP1 SSTORE CODESIZE DUP1 DUP1 DUP1 PUSH2 0x1745 JUMP JUMPDEST DUP2 DUP4 ADD MLOAD DUP6 SSTORE SWAP4 DUP7 ADD SWAP4 SWAP2 DUP10 ADD SWAP2 DUP10 ADD PUSH2 0x1713 JUMP JUMPDEST PUSH4 0x4E487B71 PUSH1 0xE0 SHL PUSH1 0x0 SWAP1 DUP2 MSTORE PUSH1 0x41 DUP9 MSTORE REVERT JUMPDEST ADD MLOAD SWAP1 POP CODESIZE DUP1 PUSH2 0x164F JUMP JUMPDEST SWAP4 SWAP3 SWAP2 DUP6 SWAP2 PUSH1 0x1F NOT DUP3 AND SWAP1 DUP5 PUSH1 0x0 MSTORE DUP13 PUSH1 0x0 KECCAK256 SWAP2 DUP14 PUSH1 0x0 SWAP1 JUMPDEST DUP3 DUP3 LT PUSH2 0x17F2 JUMPI POP POP SWAP7 DUP4 PUSH1 0x5 SWAP9 LT PUSH2 0x17DA JUMPI JUMPDEST POP POP POP DUP2 SHL ADD SWAP1 SSTORE PUSH2 0x1661 JUMP JUMPDEST ADD MLOAD PUSH1 0x0 NOT DUP4 DUP11 SHL PUSH1 0xF8 AND SHR NOT AND SWAP1 SSTORE CODESIZE DUP1 DUP1 PUSH2 0x17CD JUMP JUMPDEST DUP4 DUP11 ADD MLOAD DUP6 SSTORE DUP11 SWAP7 SWAP1 SWAP5 ADD SWAP4 SWAP3 DUP4 ADD SWAP3 ADD DUP15 PUSH2 0x17B9 JUMP JUMPDEST DUP8 PUSH1 0x41 DUP11 PUSH4 0x4E487B71 PUSH1 0xE0 SHL PUSH1 0x0 MSTORE MSTORE PUSH1 0x0 REVERT JUMPDEST ADD MLOAD SWAP1 POP CODESIZE DUP1 PUSH2 0x1602 JUMP JUMPDEST PUSH1 0x0 DUP6 DUP2 MSTORE DUP13 DUP2 KECCAK256 DUP9 SWAP6 POP SWAP3 SWAP2 SWAP1 PUSH1 0x1F NOT DUP6 AND SWAP1 DUP15 JUMPDEST DUP3 DUP3 LT PUSH2 0x1873 JUMPI POP POP DUP5 GT PUSH2 0x185B JUMPI JUMPDEST POP POP POP DUP2 SHL ADD SWAP1 SSTORE PUSH2 0x1614 JUMP JUMPDEST ADD MLOAD PUSH1 0x0 NOT DUP4 DUP10 SHL PUSH1 0xF8 AND SHR NOT AND SWAP1 SSTORE CODESIZE DUP1 DUP1 PUSH2 0x184E JUMP JUMPDEST DUP4 DUP6 ADD MLOAD DUP7 SSTORE DUP11 SWAP8 SWAP1 SWAP6 ADD SWAP5 SWAP4 DUP5 ADD SWAP4 ADD DUP15 PUSH2 0x183E JUMP JUMPDEST ADD MLOAD SWAP1 POP CODESIZE DUP1 PUSH2 0x15BA JUMP JUMPDEST PUSH1 0x0 DUP6 DUP2 MSTORE DUP13 DUP2 KECCAK256 DUP9 SWAP6 POP SWAP3 SWAP2 SWAP1 PUSH1 0x1F NOT DUP6 AND SWAP1 DUP15 JUMPDEST DUP3 DUP3 LT PUSH2 0x18E0 JUMPI POP POP DUP5 GT PUSH2 0x18C8 JUMPI JUMPDEST POP POP POP DUP2 SHL ADD SWAP1 SSTORE PUSH2 0x15CC JUMP JUMPDEST ADD MLOAD PUSH1 0x0 NOT DUP4 DUP10 SHL PUSH1 0xF8 AND SHR NOT AND SWAP1 SSTORE CODESIZE DUP1 DUP1 PUSH2 0x18BB JUMP JUMPDEST DUP4 DUP6 ADD MLOAD DUP7 SSTORE DUP11 SWAP8 SWAP1 SWAP6 ADD SWAP5 SWAP4 DUP5 ADD SWAP4 ADD DUP15 PUSH2 0x18AB JUMP JUMPDEST ADD MLOAD SWAP1 POP CODESIZE DUP1 PUSH2 0x1571 JUMP JUMPDEST PUSH1 0x0 DUP6 DUP2 MSTORE DUP13 DUP2 KECCAK256 DUP9 SWAP6 POP SWAP3 SWAP2 SWAP1 PUSH1 0x1F NOT DUP6 AND SWAP1 DUP15 JUMPDEST DUP3 DUP3 LT PUSH2 0x194D JUMPI POP POP DUP5 GT PUSH2 0x1935 JUMPI JUMPDEST POP POP POP DUP2 SHL ADD SWAP1 SSTORE PUSH2 0x1583 JUMP JUMPDEST ADD MLOAD PUSH1 0x0 NOT DUP4 DUP10 SHL PUSH1 0xF8 AND SHR NOT AND SWAP1 SSTORE CODESIZE DUP1 DUP1 PUSH2 0x1928 JUMP JUMPDEST DUP4 DUP6 ADD MLOAD DUP7 SSTORE DUP11 SWAP8 SWAP1 SWAP6 ADD SWAP5 SWAP4 DUP5 ADD SWAP4 ADD DUP15 PUSH2 0x1918 JUMP JUMPDEST ADD MLOAD SWAP1 POP CODESIZE DUP1 PUSH2 0x152A JUMP JUMPDEST SWAP1 DUP6 SWAP4 POP PUSH1 0x1F NOT DUP4 AND SWAP2 DUP6 PUSH1 0x0 MSTORE DUP12 PUSH1 0x0 KECCAK256 SWAP3 PUSH1 0x0 JUMPDEST DUP14 DUP3 DUP3 LT PUSH2 0x19BB JUMPI POP POP DUP5 GT PUSH2 0x19A3 JUMPI JUMPDEST POP POP POP DUP2 SHL ADD DUP2 SSTORE PUSH2 0x153C JUMP JUMPDEST ADD MLOAD PUSH1 0x0 NOT DUP4 DUP9 SHL PUSH1 0xF8 AND SHR NOT AND SWAP1 SSTORE CODESIZE DUP1 DUP1 PUSH2 0x1996 JUMP JUMPDEST DUP4 DUP6 ADD MLOAD DUP7 SSTORE DUP10 SWAP8 SWAP1 SWAP6 ADD SWAP5 SWAP4 DUP5 ADD SWAP4 ADD PUSH2 0x1985 JUMP JUMPDEST DUP6 PUSH1 0x41 DUP9 PUSH4 0x4E487B71 PUSH1 0xE0 SHL PUSH1 0x0 MSTORE MSTORE PUSH1 0x0 REVERT JUMPDEST PUSH1 0x2B SWAP1 PUSH1 0x84 SWAP4 PUSH1 0x40 MLOAD SWAP4 PUSH3 0x461BCD PUSH1 0xE5 SHL DUP6 MSTORE DUP5 ADD MSTORE DUP3 ADD MSTORE PUSH32 0x536F6E67206E6F742072656C65617365642C20757064617465206D6574616461 PUSH1 0x44 DUP3 ADD MSTORE PUSH11 0x7461206469726563746C79 PUSH1 0xA8 SHL PUSH1 0x64 DUP3 ADD MSTORE REVERT JUMPDEST PUSH2 0x1A51 SWAP2 POP DUP5 RETURNDATASIZE DUP7 GT PUSH2 0x1399 JUMPI PUSH2 0x138B DUP2 DUP4 PUSH2 0x202C JUMP JUMPDEST CODESIZE PUSH2 0x14D4 JUMP JUMPDEST PUSH1 0x84 SWAP2 PUSH1 0x40 MLOAD SWAP2 PUSH3 0x461BCD PUSH1 0xE5 SHL DUP4 MSTORE DUP3 ADD MSTORE PUSH1 0x2A PUSH1 0x24 DUP3 ADD MSTORE PUSH32 0x4F6E6C79207772617070656420736F6E67206F776E65722063616E2072657175 PUSH1 0x44 DUP3 ADD MSTORE PUSH10 0x65737420757064617465 PUSH1 0xB0 SHL PUSH1 0x64 DUP3 ADD MSTORE REVERT JUMPDEST PUSH2 0x1AC3 SWAP2 POP DUP4 RETURNDATASIZE DUP6 GT PUSH2 0x5A5 JUMPI PUSH2 0x597 DUP2 DUP4 PUSH2 0x202C JUMP JUMPDEST CODESIZE PUSH2 0x1497 JUMP JUMPDEST POP CALLVALUE PUSH2 0x149 JUMPI PUSH1 0x20 DUP1 PUSH1 0x3 NOT CALLDATASIZE ADD SLT PUSH2 0x149 JUMPI PUSH2 0x1AE4 PUSH2 0x1F9D JUMP JUMPDEST PUSH1 0x1 SLOAD PUSH1 0x40 MLOAD PUSH4 0x3AA690E7 PUSH1 0xE0 SHL DUP2 MSTORE PUSH1 0x1 PUSH1 0x1 PUSH1 0xA0 SHL SUB SWAP3 DUP4 AND DUP2 DUP7 ADD DUP2 SWAP1 MSTORE SWAP5 SWAP3 SWAP2 DUP5 SWAP1 DUP3 SWAP1 PUSH1 0x24 SWAP1 DUP3 SWAP1 DUP7 AND GAS STATICCALL SWAP1 DUP2 ISZERO PUSH2 0x5AC JUMPI DUP3 SWAP2 DUP6 SWAP2 PUSH1 0x0 SWAP2 PUSH2 0x1D78 JUMPI JUMPDEST POP DUP5 PUSH1 0x40 MLOAD DUP1 SWAP5 DUP2 SWAP4 PUSH4 0x8DA5CB5B PUSH1 0xE0 SHL DUP4 MSTORE AND GAS STATICCALL SWAP1 DUP2 ISZERO PUSH2 0x5AC JUMPI PUSH1 0x0 SWAP2 PUSH2 0x1D5B JUMPI JUMPDEST POP AND CALLER SUB PUSH2 0x1D0D JUMPI DUP3 PUSH1 0x0 MSTORE DUP1 DUP3 MSTORE PUSH1 0xFF PUSH1 0x40 PUSH1 0x0 KECCAK256 SLOAD AND PUSH2 0x1CCB JUMPI PUSH32 0x4288F171F419B66095D6E026090ED813669EA5A62CFE4416A47E75549E478866 SWAP2 PUSH2 0x100E PUSH1 0xC0 SWAP3 DUP6 PUSH1 0x0 MSTORE PUSH1 0x3 DUP4 MSTORE PUSH1 0x40 PUSH1 0x0 KECCAK256 PUSH1 0x2 DUP5 MSTORE PUSH1 0x40 PUSH1 0x0 KECCAK256 DUP2 DUP2 SUB PUSH2 0x1C6D JUMPI JUMPDEST POP POP DUP6 PUSH1 0x0 MSTORE PUSH1 0x3 DUP4 MSTORE PUSH2 0x1BC6 PUSH1 0x40 PUSH1 0x0 KECCAK256 PUSH2 0x253A JUMP JUMPDEST DUP6 PUSH1 0x0 MSTORE DUP1 DUP4 MSTORE PUSH1 0x40 PUSH1 0x0 KECCAK256 PUSH1 0x1 PUSH1 0xFF NOT DUP3 SLOAD AND OR SWAP1 SSTORE PUSH1 0x2 DUP4 MSTORE PUSH1 0x5 PUSH1 0x40 PUSH1 0x0 KECCAK256 PUSH1 0x40 MLOAD SWAP6 DUP6 DUP8 SWAP7 DUP8 MSTORE DUP7 ADD MSTORE PUSH2 0x1C5D PUSH2 0x1C04 PUSH1 0xE0 DUP8 ADD DUP4 PUSH2 0x257F JUMP JUMPDEST SWAP4 PUSH2 0x1C4B PUSH2 0x1C38 PUSH2 0x1C25 PUSH1 0x1F NOT SWAP8 DUP9 DUP12 DUP3 SUB ADD PUSH1 0x40 DUP13 ADD MSTORE PUSH1 0x1 DUP8 ADD PUSH2 0x257F JUMP JUMPDEST DUP8 DUP11 DUP3 SUB ADD PUSH1 0x60 DUP12 ADD MSTORE PUSH1 0x2 DUP7 ADD PUSH2 0x257F JUMP JUMPDEST DUP7 DUP10 DUP3 SUB ADD PUSH1 0x80 DUP11 ADD MSTORE PUSH1 0x3 DUP6 ADD PUSH2 0x257F JUMP JUMPDEST SWAP1 DUP6 DUP9 DUP4 SUB ADD PUSH1 0xA0 DUP10 ADD MSTORE DUP4 ADD PUSH2 0x257F JUMP JUMPDEST SWAP3 DUP6 DUP5 SUB ADD PUSH1 0xC0 DUP7 ADD MSTORE ADD PUSH2 0x257F JUMP JUMPDEST PUSH1 0x5 DUP1 DUP4 PUSH2 0x1C7E PUSH2 0x1CC4 SWAP6 DUP6 PUSH2 0x2419 JUMP JUMPDEST PUSH2 0x1C8E PUSH1 0x1 DUP3 ADD PUSH1 0x1 DUP7 ADD PUSH2 0x2419 JUMP JUMPDEST PUSH2 0x1C9E PUSH1 0x2 DUP3 ADD PUSH1 0x2 DUP7 ADD PUSH2 0x2419 JUMP JUMPDEST PUSH2 0x1CAE PUSH1 0x3 DUP3 ADD PUSH1 0x3 DUP7 ADD PUSH2 0x2419 JUMP JUMPDEST PUSH2 0x1CBC DUP7 DUP3 ADD DUP8 DUP7 ADD PUSH2 0x2419 JUMP JUMPDEST ADD SWAP2 ADD PUSH2 0x2419 JUMP JUMPDEST CODESIZE DUP1 PUSH2 0x1BAF JUMP JUMPDEST PUSH1 0x64 SWAP2 PUSH1 0x40 MLOAD SWAP2 PUSH3 0x461BCD PUSH1 0xE5 SHL DUP4 MSTORE DUP3 ADD MSTORE PUSH1 0x1A PUSH1 0x24 DUP3 ADD MSTORE PUSH32 0x4E6F2070656E64696E67206D6574616461746120757064617465000000000000 PUSH1 0x44 DUP3 ADD MSTORE REVERT JUMPDEST PUSH1 0x84 SWAP2 PUSH1 0x40 MLOAD SWAP2 PUSH3 0x461BCD PUSH1 0xE5 SHL DUP4 MSTORE DUP3 ADD MSTORE PUSH1 0x23 PUSH1 0x24 DUP3 ADD MSTORE PUSH32 0x4F6E6C79206469737472696275746F722063616E20636F6E6669726D20757064 PUSH1 0x44 DUP3 ADD MSTORE PUSH3 0x617465 PUSH1 0xE8 SHL PUSH1 0x64 DUP3 ADD MSTORE REVERT JUMPDEST PUSH2 0x1D72 SWAP2 POP DUP5 RETURNDATASIZE DUP7 GT PUSH2 0x5A5 JUMPI PUSH2 0x597 DUP2 DUP4 PUSH2 0x202C JUMP JUMPDEST CODESIZE PUSH2 0x1B4D JUMP JUMPDEST PUSH2 0x1D8F SWAP2 POP DUP3 RETURNDATASIZE DUP5 GT PUSH2 0x5A5 JUMPI PUSH2 0x597 DUP2 DUP4 PUSH2 0x202C JUMP JUMPDEST CODESIZE PUSH2 0x1B28 JUMP JUMPDEST SWAP1 POP CALLVALUE PUSH2 0x149 JUMPI PUSH1 0x40 CALLDATASIZE PUSH1 0x3 NOT ADD SLT PUSH2 0x149 JUMPI PUSH2 0x1DB0 PUSH2 0x1F9D JUMP JUMPDEST SWAP1 PUSH1 0x24 CALLDATALOAD PUSH1 0x1 DUP1 PUSH1 0xA0 SHL SUB DUP1 SWAP4 AND SWAP1 DUP2 PUSH1 0x0 MSTORE PUSH1 0x20 SWAP4 PUSH1 0x2 DUP6 MSTORE PUSH1 0x5 PUSH2 0x1E62 PUSH1 0x40 PUSH1 0x0 KECCAK256 PUSH2 0x1DDD DUP8 PUSH2 0x1FFB JUMP JUMPDEST PUSH1 0x40 MLOAD PUSH2 0x1DEE DUP2 PUSH2 0x1F1 DUP2 DUP6 PUSH2 0x257F JUMP JUMPDEST DUP8 MSTORE PUSH1 0x40 MLOAD PUSH2 0x1E04 DUP2 PUSH2 0x1F1 DUP2 PUSH1 0x1 DUP7 ADD PUSH2 0x257F JUMP JUMPDEST DUP9 DUP9 ADD MSTORE PUSH1 0x40 MLOAD PUSH2 0x1E1C DUP2 PUSH2 0x1F1 DUP2 PUSH1 0x2 DUP7 ADD PUSH2 0x257F JUMP JUMPDEST PUSH1 0x40 DUP9 ADD MSTORE PUSH1 0x40 MLOAD PUSH2 0x1E35 DUP2 PUSH2 0x1F1 DUP2 PUSH1 0x3 DUP7 ADD PUSH2 0x257F JUMP JUMPDEST PUSH1 0x60 DUP9 ADD MSTORE PUSH1 0x40 MLOAD PUSH2 0x1E4D DUP2 PUSH2 0x1F1 DUP2 DUP14 DUP7 ADD PUSH2 0x257F JUMP JUMPDEST PUSH1 0x80 DUP9 ADD MSTORE PUSH2 0x1F1 PUSH1 0x40 MLOAD DUP1 SWAP5 DUP2 SWAP4 ADD PUSH2 0x257F JUMP JUMPDEST PUSH1 0xA0 DUP6 ADD MSTORE PUSH1 0x3 DUP3 LT ISZERO PUSH2 0x1F4D JUMPI PUSH2 0x1EA2 SWAP6 PUSH1 0x0 SWAP5 SWAP4 SWAP3 PUSH1 0x60 SWAP3 PUSH1 0x1 SLOAD AND SWAP4 PUSH1 0x40 MLOAD SWAP9 DUP10 SWAP7 DUP8 SWAP6 DUP7 SWAP6 PUSH4 0x2FDA23B7 PUSH1 0xE0 SHL DUP8 MSTORE DUP7 ADD MSTORE PUSH1 0x64 DUP6 ADD SWAP1 PUSH2 0x21B5 JUMP JUMPDEST SWAP2 PUSH1 0x24 DUP5 ADD MSTORE PUSH1 0x44 DUP4 ADD MSTORE SUB SWAP2 GAS STATICCALL SWAP2 DUP3 ISZERO PUSH2 0x5AC JUMPI PUSH1 0x0 SWAP3 PUSH2 0x1ED5 JUMPI JUMPDEST POP PUSH2 0x281 PUSH1 0x40 MLOAD SWAP3 DUP3 DUP5 SWAP4 DUP5 MSTORE DUP4 ADD SWAP1 PUSH2 0x1FD6 JUMP JUMPDEST SWAP1 SWAP2 POP RETURNDATASIZE DUP1 PUSH1 0x0 DUP4 RETURNDATACOPY PUSH2 0x1EE8 DUP2 DUP4 PUSH2 0x202C JUMP JUMPDEST DUP2 ADD SWAP1 DUP3 DUP2 DUP4 SUB SLT PUSH2 0x149 JUMPI DUP1 MLOAD SWAP1 PUSH1 0x1 PUSH1 0x1 PUSH1 0x40 SHL SUB DUP3 GT PUSH2 0x149 JUMPI ADD DUP2 PUSH1 0x1F DUP3 ADD SLT ISZERO PUSH2 0x149 JUMPI DUP1 MLOAD PUSH2 0x1F1C DUP2 PUSH2 0x204D JUMP JUMPDEST SWAP3 PUSH2 0x1F2A PUSH1 0x40 MLOAD SWAP5 DUP6 PUSH2 0x202C JUMP JUMPDEST DUP2 DUP5 MSTORE DUP5 DUP3 DUP5 ADD ADD GT PUSH2 0x149 JUMPI PUSH2 0x1F46 SWAP2 DUP5 DUP1 DUP6 ADD SWAP2 ADD PUSH2 0x1FB3 JUMP JUMPDEST SWAP1 CODESIZE PUSH2 0x1EC0 JUMP JUMPDEST PUSH1 0x40 MLOAD PUSH3 0x461BCD PUSH1 0xE5 SHL DUP2 MSTORE DUP1 DUP8 ADD DUP7 SWAP1 MSTORE PUSH1 0x24 DUP1 DUP3 ADD MSTORE PUSH32 0x496E76616C696420746F6B656E20494420666F72206D65746164617461206D6F PUSH1 0x44 DUP3 ADD MSTORE PUSH4 0x64756C65 PUSH1 0xE0 SHL PUSH1 0x64 DUP3 ADD MSTORE PUSH1 0x84 SWAP1 REVERT JUMPDEST PUSH1 0x4 CALLDATALOAD SWAP1 PUSH1 0x1 PUSH1 0x1 PUSH1 0xA0 SHL SUB DUP3 AND DUP3 SUB PUSH2 0x149 JUMPI JUMP JUMPDEST PUSH1 0x0 JUMPDEST DUP4 DUP2 LT PUSH2 0x1FC6 JUMPI POP POP PUSH1 0x0 SWAP2 ADD MSTORE JUMP JUMPDEST DUP2 DUP2 ADD MLOAD DUP4 DUP3 ADD MSTORE PUSH1 0x20 ADD PUSH2 0x1FB6 JUMP JUMPDEST SWAP1 PUSH1 0x20 SWAP2 PUSH2 0x1FEF DUP2 MLOAD DUP1 SWAP3 DUP2 DUP6 MSTORE DUP6 DUP1 DUP7 ADD SWAP2 ADD PUSH2 0x1FB3 JUMP JUMPDEST PUSH1 0x1F ADD PUSH1 0x1F NOT AND ADD ADD SWAP1 JUMP JUMPDEST PUSH1 0xC0 DUP2 ADD SWAP1 DUP2 LT PUSH1 0x1 PUSH1 0x1 PUSH1 0x40 SHL SUB DUP3 GT OR PUSH2 0x2016 JUMPI PUSH1 0x40 MSTORE JUMP JUMPDEST PUSH4 0x4E487B71 PUSH1 0xE0 SHL PUSH1 0x0 MSTORE PUSH1 0x41 PUSH1 0x4 MSTORE PUSH1 0x24 PUSH1 0x0 REVERT JUMPDEST SWAP1 PUSH1 0x1F DUP1 NOT SWAP2 ADD AND DUP2 ADD SWAP1 DUP2 LT PUSH1 0x1 PUSH1 0x1 PUSH1 0x40 SHL SUB DUP3 GT OR PUSH2 0x2016 JUMPI PUSH1 0x40 MSTORE JUMP JUMPDEST PUSH1 0x1 PUSH1 0x1 PUSH1 0x40 SHL SUB DUP2 GT PUSH2 0x2016 JUMPI PUSH1 0x1F ADD PUSH1 0x1F NOT AND PUSH1 0x20 ADD SWAP1 JUMP JUMPDEST DUP2 PUSH1 0x1F DUP3 ADD SLT ISZERO PUSH2 0x149 JUMPI DUP1 CALLDATALOAD SWAP1 PUSH2 0x207F DUP3 PUSH2 0x204D JUMP JUMPDEST SWAP3 PUSH2 0x208D PUSH1 0x40 MLOAD SWAP5 DUP6 PUSH2 0x202C JUMP JUMPDEST DUP3 DUP5 MSTORE PUSH1 0x20 DUP4 DUP4 ADD ADD GT PUSH2 0x149 JUMPI DUP2 PUSH1 0x0 SWAP3 PUSH1 0x20 DUP1 SWAP4 ADD DUP4 DUP7 ADD CALLDATACOPY DUP4 ADD ADD MSTORE SWAP1 JUMP JUMPDEST SWAP1 PUSH1 0x3 NOT PUSH1 0x40 DUP2 DUP5 ADD SLT PUSH2 0x149 JUMPI PUSH1 0x4 DUP1 CALLDATALOAD PUSH1 0x1 PUSH1 0x1 PUSH1 0xA0 SHL SUB DUP2 AND DUP2 SUB PUSH2 0x149 JUMPI SWAP4 PUSH1 0x24 CALLDATALOAD SWAP2 PUSH1 0x1 PUSH1 0x1 PUSH1 0x40 SHL SUB SWAP4 DUP5 DUP5 GT PUSH2 0x149 JUMPI PUSH1 0xC0 SWAP1 DUP5 DUP5 SUB ADD SLT PUSH2 0x149 JUMPI PUSH1 0x40 MLOAD SWAP4 PUSH2 0x20FF DUP6 PUSH2 0x1FFB JUMP JUMPDEST DUP4 DUP3 ADD CALLDATALOAD DUP2 DUP2 GT PUSH2 0x149 JUMPI DUP4 DUP4 PUSH2 0x2118 SWAP3 DUP8 ADD ADD PUSH2 0x2068 JUMP JUMPDEST DUP6 MSTORE PUSH1 0x24 DUP5 ADD CALLDATALOAD DUP2 DUP2 GT PUSH2 0x149 JUMPI DUP4 DUP4 PUSH2 0x2134 SWAP3 DUP8 ADD ADD PUSH2 0x2068 JUMP JUMPDEST PUSH1 0x20 DUP7 ADD MSTORE PUSH1 0x44 DUP5 ADD CALLDATALOAD DUP2 DUP2 GT PUSH2 0x149 JUMPI DUP4 DUP4 PUSH2 0x2153 SWAP3 DUP8 ADD ADD PUSH2 0x2068 JUMP JUMPDEST PUSH1 0x40 DUP7 ADD MSTORE PUSH1 0x64 DUP5 ADD CALLDATALOAD DUP2 DUP2 GT PUSH2 0x149 JUMPI DUP4 DUP4 PUSH2 0x2172 SWAP3 DUP8 ADD ADD PUSH2 0x2068 JUMP JUMPDEST PUSH1 0x60 DUP7 ADD MSTORE PUSH1 0x84 DUP5 ADD CALLDATALOAD DUP2 DUP2 GT PUSH2 0x149 JUMPI DUP4 DUP4 PUSH2 0x2191 SWAP3 DUP8 ADD ADD PUSH2 0x2068 JUMP JUMPDEST PUSH1 0x80 DUP7 ADD MSTORE PUSH1 0xA4 DUP5 ADD CALLDATALOAD SWAP1 DUP2 GT PUSH2 0x149 JUMPI PUSH2 0x21AD SWAP4 ADD ADD PUSH2 0x2068 JUMP JUMPDEST PUSH1 0xA0 DUP3 ADD MSTORE SWAP1 JUMP JUMPDEST PUSH2 0x2233 SWAP2 PUSH1 0xA0 PUSH2 0x2222 PUSH2 0x2210 PUSH2 0x21FE PUSH2 0x21EC PUSH2 0x21DA DUP8 MLOAD PUSH1 0xC0 DUP9 MSTORE PUSH1 0xC0 DUP9 ADD SWAP1 PUSH2 0x1FD6 JUMP JUMPDEST PUSH1 0x20 DUP9 ADD MLOAD DUP8 DUP3 SUB PUSH1 0x20 DUP10 ADD MSTORE PUSH2 0x1FD6 JUMP JUMPDEST PUSH1 0x40 DUP8 ADD MLOAD DUP7 DUP3 SUB PUSH1 0x40 DUP9 ADD MSTORE PUSH2 0x1FD6 JUMP JUMPDEST PUSH1 0x60 DUP7 ADD MLOAD DUP6 DUP3 SUB PUSH1 0x60 DUP8 ADD MSTORE PUSH2 0x1FD6 JUMP JUMPDEST PUSH1 0x80 DUP6 ADD MLOAD DUP5 DUP3 SUB PUSH1 0x80 DUP7 ADD MSTORE PUSH2 0x1FD6 JUMP JUMPDEST SWAP3 ADD MLOAD SWAP1 PUSH1 0xA0 DUP2 DUP5 SUB SWAP2 ADD MSTORE PUSH2 0x1FD6 JUMP JUMPDEST SWAP1 JUMP JUMPDEST PUSH1 0x0 SLOAD PUSH1 0x1 PUSH1 0x1 PUSH1 0xA0 SHL SUB AND CALLER SUB PUSH2 0x224A JUMPI JUMP JUMPDEST PUSH1 0x40 MLOAD PUSH4 0x118CDAA7 PUSH1 0xE0 SHL DUP2 MSTORE CALLER PUSH1 0x4 DUP3 ADD MSTORE PUSH1 0x24 SWAP1 REVERT JUMPDEST PUSH1 0x40 MLOAD SWAP1 PUSH2 0x226F DUP3 PUSH2 0x1FFB JUMP JUMPDEST DUP2 PUSH1 0xA0 PUSH1 0x60 SWAP2 DUP3 DUP2 MSTORE DUP3 PUSH1 0x20 DUP3 ADD MSTORE DUP3 PUSH1 0x40 DUP3 ADD MSTORE DUP3 DUP1 DUP3 ADD MSTORE DUP3 PUSH1 0x80 DUP3 ADD MSTORE ADD MSTORE JUMP JUMPDEST SWAP1 DUP2 PUSH1 0x20 SWAP2 SUB SLT PUSH2 0x149 JUMPI MLOAD PUSH1 0x1 PUSH1 0x1 PUSH1 0xA0 SHL SUB DUP2 AND DUP2 SUB PUSH2 0x149 JUMPI SWAP1 JUMP JUMPDEST SWAP1 PUSH1 0x1 DUP3 DUP2 SHR SWAP3 AND DUP1 ISZERO PUSH2 0x22E2 JUMPI JUMPDEST PUSH1 0x20 DUP4 LT EQ PUSH2 0x22CC JUMPI JUMP JUMPDEST PUSH4 0x4E487B71 PUSH1 0xE0 SHL PUSH1 0x0 MSTORE PUSH1 0x22 PUSH1 0x4 MSTORE PUSH1 0x24 PUSH1 0x0 REVERT JUMPDEST SWAP2 PUSH1 0x7F AND SWAP2 PUSH2 0x22C1 JUMP JUMPDEST DUP2 DUP2 LT PUSH2 0x22F7 JUMPI POP POP JUMP JUMPDEST PUSH1 0x0 DUP2 SSTORE PUSH1 0x1 ADD PUSH2 0x22EC JUMP JUMPDEST SWAP2 SWAP1 PUSH1 0x1F DUP2 GT PUSH2 0x2312 JUMPI POP POP POP JUMP JUMPDEST PUSH2 0x233E SWAP3 PUSH1 0x0 MSTORE PUSH1 0x20 PUSH1 0x0 KECCAK256 SWAP1 PUSH1 0x20 PUSH1 0x1F DUP5 ADD PUSH1 0x5 SHR DUP4 ADD SWAP4 LT PUSH2 0x2340 JUMPI JUMPDEST PUSH1 0x1F ADD PUSH1 0x5 SHR ADD SWAP1 PUSH2 0x22EC JUMP JUMPDEST JUMP JUMPDEST SWAP1 SWAP2 POP DUP2 SWAP1 PUSH2 0x2331 JUMP JUMPDEST DUP1 MLOAD MLOAD ISZERO ISZERO SWAP1 DUP2 PUSH2 0x2380 JUMPI JUMPDEST DUP2 PUSH2 0x2371 JUMPI JUMPDEST DUP2 PUSH2 0x2365 JUMPI POP SWAP1 JUMP JUMPDEST PUSH1 0xA0 SWAP2 POP ADD MLOAD MLOAD ISZERO ISZERO SWAP1 JUMP JUMPDEST PUSH1 0x80 DUP2 ADD MLOAD MLOAD ISZERO ISZERO SWAP2 POP PUSH2 0x235C JUMP JUMPDEST PUSH1 0x40 DUP2 ADD MLOAD MLOAD ISZERO ISZERO SWAP2 POP PUSH2 0x2356 JUMP JUMPDEST ISZERO PUSH2 0x2396 JUMPI JUMP JUMPDEST PUSH1 0x40 MLOAD PUSH3 0x461BCD PUSH1 0xE5 SHL DUP2 MSTORE PUSH1 0x20 PUSH1 0x4 DUP3 ADD MSTORE PUSH1 0x37 PUSH1 0x24 DUP3 ADD MSTORE PUSH32 0x496E76616C6964206D657461646174613A20416C6C2072657175697265642066 PUSH1 0x44 DUP3 ADD MSTORE PUSH32 0x69656C6473206D757374206265206E6F6E2D656D707479000000000000000000 PUSH1 0x64 DUP3 ADD MSTORE PUSH1 0x84 SWAP1 REVERT JUMPDEST SWAP1 DUP2 PUSH1 0x20 SWAP2 SUB SLT PUSH2 0x149 JUMPI MLOAD DUP1 ISZERO ISZERO DUP2 SUB PUSH2 0x149 JUMPI SWAP1 JUMP JUMPDEST SWAP1 DUP1 DUP3 EQ PUSH2 0x24ED JUMPI PUSH2 0x242B DUP2 SLOAD PUSH2 0x22B2 JUMP JUMPDEST SWAP1 PUSH1 0x1 PUSH1 0x1 PUSH1 0x40 SHL SUB DUP3 GT PUSH2 0x2016 JUMPI DUP2 SWAP1 PUSH2 0x244A DUP3 PUSH2 0x770 DUP7 SLOAD PUSH2 0x22B2 JUMP JUMPDEST PUSH1 0x0 SWAP1 PUSH1 0x1F DUP4 GT PUSH1 0x1 EQ PUSH2 0x2481 JUMPI PUSH1 0x0 SWAP3 PUSH2 0x2476 JUMPI JUMPDEST POP POP DUP2 PUSH1 0x1 SHL SWAP2 PUSH1 0x0 NOT SWAP1 PUSH1 0x3 SHL SHR NOT AND OR SWAP1 SSTORE JUMP JUMPDEST ADD SLOAD SWAP1 POP CODESIZE DUP1 PUSH2 0x2460 JUMP JUMPDEST DUP2 MSTORE PUSH1 0x20 DUP1 DUP3 KECCAK256 DUP6 DUP4 MSTORE DUP2 DUP4 KECCAK256 SWAP4 POP SWAP1 PUSH1 0x1F NOT DUP6 AND SWAP1 DUP4 SWAP1 JUMPDEST DUP3 DUP3 LT PUSH2 0x24D4 JUMPI POP POP SWAP1 DUP5 PUSH1 0x1 SWAP6 SWAP5 SWAP4 SWAP3 LT PUSH2 0x24BB JUMPI JUMPDEST POP POP POP DUP2 SHL ADD SWAP1 SSTORE JUMP JUMPDEST ADD SLOAD PUSH1 0x0 NOT PUSH1 0xF8 DUP5 PUSH1 0x3 SHL AND SHR NOT AND SWAP1 SSTORE CODESIZE DUP1 DUP1 PUSH2 0x24B1 JUMP JUMPDEST DUP5 SWAP6 DUP2 SWAP3 SWAP6 DUP6 ADD SLOAD DUP2 SSTORE PUSH1 0x1 DUP1 SWAP2 ADD SWAP7 ADD SWAP5 ADD SWAP1 PUSH2 0x249A JUMP JUMPDEST POP POP JUMP JUMPDEST PUSH2 0x24FB DUP2 SLOAD PUSH2 0x22B2 JUMP JUMPDEST SWAP1 DUP2 PUSH2 0x2505 JUMPI POP POP JUMP JUMPDEST DUP2 PUSH1 0x1F PUSH1 0x0 SWAP4 GT PUSH1 0x1 EQ PUSH2 0x2517 JUMPI POP SSTORE JUMP JUMPDEST SWAP1 DUP1 DUP4 SWAP2 DUP3 MSTORE PUSH2 0x2536 PUSH1 0x1F PUSH1 0x20 DUP5 KECCAK256 SWAP5 ADD PUSH1 0x5 SHR DUP5 ADD PUSH1 0x1 DUP6 ADD PUSH2 0x22EC JUMP JUMPDEST SSTORE SSTORE JUMP JUMPDEST PUSH1 0x5 PUSH2 0x233E SWAP2 PUSH2 0x2549 DUP2 PUSH2 0x24F1 JUMP JUMPDEST PUSH2 0x2555 PUSH1 0x1 DUP3 ADD PUSH2 0x24F1 JUMP JUMPDEST PUSH2 0x2561 PUSH1 0x2 DUP3 ADD PUSH2 0x24F1 JUMP JUMPDEST PUSH2 0x256D PUSH1 0x3 DUP3 ADD PUSH2 0x24F1 JUMP JUMPDEST PUSH2 0x2579 PUSH1 0x4 DUP3 ADD PUSH2 0x24F1 JUMP JUMPDEST ADD PUSH2 0x24F1 JUMP JUMPDEST SWAP1 PUSH1 0x0 SWAP3 SWAP2 DUP1 SLOAD SWAP2 PUSH2 0x2590 DUP4 PUSH2 0x22B2 JUMP JUMPDEST SWAP2 DUP3 DUP3 MSTORE PUSH1 0x1 SWAP4 DUP5 DUP2 AND SWAP1 DUP2 PUSH1 0x0 EQ PUSH2 0x25F2 JUMPI POP PUSH1 0x1 EQ PUSH2 0x25B2 JUMPI JUMPDEST POP POP POP POP JUMP JUMPDEST SWAP1 SWAP2 SWAP4 SWAP5 POP PUSH1 0x0 MSTORE PUSH1 0x20 SWAP3 DUP4 PUSH1 0x0 KECCAK256 SWAP3 DUP5 PUSH1 0x0 SWAP5 JUMPDEST DUP4 DUP7 LT PUSH2 0x25DE JUMPI POP POP POP POP ADD ADD SWAP1 CODESIZE DUP1 DUP1 DUP1 PUSH2 0x25AC JUMP JUMPDEST DUP1 SLOAD DUP6 DUP8 ADD DUP4 ADD MSTORE SWAP5 ADD SWAP4 DUP6 SWAP1 DUP3 ADD PUSH2 0x25C7 JUMP JUMPDEST SWAP3 SWAP5 POP POP POP PUSH1 0x20 SWAP4 SWAP5 POP PUSH1 0xFF NOT AND DUP4 DUP4 ADD MSTORE ISZERO ISZERO PUSH1 0x5 SHL ADD ADD SWAP1 CODESIZE DUP1 DUP1 DUP1 PUSH2 0x25AC JUMP INVALID LOG2 PUSH5 0x6970667358 0x22 SLT KECCAK256 PUSH1 0xDB 0xC6 PUSH1 0x84 0xBB DUP2 0xC7 PUSH0 STOP SWAP11 MULMOD 0x28 0xE7 0xBD PUSH24 0xE1BA83F920C39D00BCEF563BE9B40E4E64736F6C63430008 EQ STOP CALLER "},"methodIdentifiers":{"confirmUpdateMetadata(address)":"187de53b","createMetadata(address,(string,string,string,string,string,string))":"6613680d","getPendingMetadataUpdate(address)":"da67603e","getTokenURI(address,uint256)":"0b63fd62","isMetadataUpdateConfirmed(address)":"dac73c99","owner()":"8da5cb5b","protocolModule()":"5c42e667","rejectUpdateMetadata(address)":"9205fafe","removeMetadata(address)":"a9edb0f5","renounceOwnership()":"715018a6","requestUpdateMetadata(address,(string,string,string,string,string,string))":"4b700629","setProtocolModule(address)":"a859dcde","transferOwnership(address)":"f2fde38b","updateMetadata(address,(string,string,string,string,string,string))":"5dc447ed"}},"storageLayout":{"storage":[{"astId":8,"contract":"contracts/protocol/NonUpgradable/MetadataModule.sol:MetadataModule","label":"_owner","offset":0,"slot":"0","type":"t_address"},{"astId":1527,"contract":"contracts/protocol/NonUpgradable/MetadataModule.sol:MetadataModule","label":"protocolModule","offset":0,"slot":"1","type":"t_contract(IProtocolModule)1166"},{"astId":1529,"contract":"contracts/protocol/NonUpgradable/MetadataModule.sol:MetadataModule","label":"isProtocolSet","offset":20,"slot":"1","type":"t_bool"},{"astId":1534,"contract":"contracts/protocol/NonUpgradable/MetadataModule.sol:MetadataModule","label":"wrappedSongMetadata","offset":0,"slot":"2","type":"t_mapping(t_address,t_struct(Metadata)667_storage)"},{"astId":1539,"contract":"contracts/protocol/NonUpgradable/MetadataModule.sol:MetadataModule","label":"pendingMetadataUpdates","offset":0,"slot":"3","type":"t_mapping(t_address,t_struct(Metadata)667_storage)"},{"astId":1543,"contract":"contracts/protocol/NonUpgradable/MetadataModule.sol:MetadataModule","label":"metadataUpdateConfirmed","offset":0,"slot":"4","type":"t_mapping(t_address,t_bool)"}],"types":{"t_address":{"encoding":"inplace","label":"address","numberOfBytes":"20"},"t_bool":{"encoding":"inplace","label":"bool","numberOfBytes":"1"},"t_contract(IProtocolModule)1166":{"encoding":"inplace","label":"contract IProtocolModule","numberOfBytes":"20"},"t_mapping(t_address,t_bool)":{"encoding":"mapping","key":"t_address","label":"mapping(address => bool)","numberOfBytes":"32","value":"t_bool"},"t_mapping(t_address,t_struct(Metadata)667_storage)":{"encoding":"mapping","key":"t_address","label":"mapping(address => struct IMetadataModule.Metadata)","numberOfBytes":"32","value":"t_struct(Metadata)667_storage"},"t_string_storage":{"encoding":"bytes","label":"string","numberOfBytes":"32"},"t_struct(Metadata)667_storage":{"encoding":"inplace","label":"struct IMetadataModule.Metadata","members":[{"astId":656,"contract":"contracts/protocol/NonUpgradable/MetadataModule.sol:MetadataModule","label":"name","offset":0,"slot":"0","type":"t_string_storage"},{"astId":658,"contract":"contracts/protocol/NonUpgradable/MetadataModule.sol:MetadataModule","label":"description","offset":0,"slot":"1","type":"t_string_storage"},{"astId":660,"contract":"contracts/protocol/NonUpgradable/MetadataModule.sol:MetadataModule","label":"image","offset":0,"slot":"2","type":"t_string_storage"},{"astId":662,"contract":"contracts/protocol/NonUpgradable/MetadataModule.sol:MetadataModule","label":"externalUrl","offset":0,"slot":"3","type":"t_string_storage"},{"astId":664,"contract":"contracts/protocol/NonUpgradable/MetadataModule.sol:MetadataModule","label":"animationUrl","offset":0,"slot":"4","type":"t_string_storage"},{"astId":666,"contract":"contracts/protocol/NonUpgradable/MetadataModule.sol:MetadataModule","label":"attributesIpfsHash","offset":0,"slot":"5","type":"t_string_storage"}],"numberOfBytes":"192"}}}}}}