{"contracts/protocol/NonUpgradable/SongSharesMarketPlace.sol":{"SongSharesMarketPlace":{"abi":[{"inputs":[{"internalType":"address","name":"_protocolModule","type":"address"}],"stateMutability":"nonpayable","type":"constructor"},{"inputs":[{"internalType":"address","name":"target","type":"address"}],"name":"AddressEmptyCode","type":"error"},{"inputs":[{"internalType":"address","name":"account","type":"address"}],"name":"AddressInsufficientBalance","type":"error"},{"inputs":[],"name":"EnforcedPause","type":"error"},{"inputs":[],"name":"ExpectedPause","type":"error"},{"inputs":[],"name":"FailedInnerCall","type":"error"},{"inputs":[{"internalType":"address","name":"owner","type":"address"}],"name":"OwnableInvalidOwner","type":"error"},{"inputs":[{"internalType":"address","name":"account","type":"address"}],"name":"OwnableUnauthorizedAccount","type":"error"},{"inputs":[],"name":"ReentrancyGuardReentrantCall","type":"error"},{"inputs":[{"internalType":"address","name":"token","type":"address"}],"name":"SafeERC20FailedOperation","type":"error"},{"anonymous":false,"inputs":[{"indexed":true,"internalType":"address","name":"wrappedSong","type":"address"},{"indexed":false,"internalType":"address","name":"token","type":"address"},{"indexed":false,"internalType":"uint256","name":"amount","type":"uint256"},{"indexed":false,"internalType":"address","name":"sender","type":"address"}],"name":"ERC20Received","type":"event"},{"anonymous":false,"inputs":[{"indexed":true,"internalType":"address","name":"wrappedSong","type":"address"},{"indexed":true,"internalType":"address","name":"to","type":"address"},{"indexed":false,"internalType":"uint256","name":"amount","type":"uint256"}],"name":"FundsWithdrawn","type":"event"},{"anonymous":false,"inputs":[{"indexed":true,"internalType":"address","name":"previousOwner","type":"address"},{"indexed":true,"internalType":"address","name":"newOwner","type":"address"}],"name":"OwnershipTransferred","type":"event"},{"anonymous":false,"inputs":[{"indexed":false,"internalType":"address","name":"account","type":"address"}],"name":"Paused","type":"event"},{"anonymous":false,"inputs":[{"indexed":true,"internalType":"address","name":"wrappedSong","type":"address"}],"name":"SharesSaleEnded","type":"event"},{"anonymous":false,"inputs":[{"indexed":true,"internalType":"address","name":"wrappedSong","type":"address"},{"indexed":true,"internalType":"address","name":"owner","type":"address"},{"indexed":false,"internalType":"uint256","name":"amount","type":"uint256"},{"indexed":false,"internalType":"uint256","name":"price","type":"uint256"},{"indexed":false,"internalType":"uint256","name":"maxSharesPerWallet","type":"uint256"},{"indexed":false,"internalType":"address","name":"stableCoinAddress","type":"address"}],"name":"SharesSaleStarted","type":"event"},{"anonymous":false,"inputs":[{"indexed":true,"internalType":"address","name":"wrappedSong","type":"address"},{"indexed":true,"internalType":"address","name":"buyer","type":"address"},{"indexed":true,"internalType":"address","name":"recipient","type":"address"},{"indexed":false,"internalType":"uint256","name":"amount","type":"uint256"},{"indexed":false,"internalType":"uint256","name":"totalCost","type":"uint256"},{"indexed":false,"internalType":"address","name":"paymentToken","type":"address"}],"name":"SharesSold","type":"event"},{"anonymous":false,"inputs":[{"indexed":false,"internalType":"address","name":"account","type":"address"}],"name":"Unpaused","type":"event"},{"inputs":[{"internalType":"address","name":"","type":"address"}],"name":"accumulatedFunds","outputs":[{"internalType":"uint256","name":"","type":"uint256"}],"stateMutability":"view","type":"function"},{"inputs":[{"internalType":"address","name":"wrappedSong","type":"address"},{"internalType":"uint256","name":"amount","type":"uint256"},{"internalType":"address","name":"recipient","type":"address"}],"name":"buyShares","outputs":[],"stateMutability":"payable","type":"function"},{"inputs":[{"internalType":"address","name":"","type":"address"},{"internalType":"address","name":"","type":"address"}],"name":"buyerPurchases","outputs":[{"internalType":"uint256","name":"","type":"uint256"}],"stateMutability":"view","type":"function"},{"inputs":[{"internalType":"address","name":"wrappedSong","type":"address"}],"name":"endSale","outputs":[],"stateMutability":"nonpayable","type":"function"},{"inputs":[],"name":"feesModule","outputs":[{"internalType":"contract IFeesModule","name":"","type":"address"}],"stateMutability":"view","type":"function"},{"inputs":[{"internalType":"address","name":"wrappedSong","type":"address"}],"name":"getSale","outputs":[{"components":[{"internalType":"bool","name":"active","type":"bool"},{"internalType":"address","name":"seller","type":"address"},{"internalType":"uint256","name":"sharesForSale","type":"uint256"},{"internalType":"uint256","name":"pricePerShare","type":"uint256"},{"internalType":"uint256","name":"maxSharesPerWallet","type":"uint256"},{"internalType":"uint256","name":"totalSold","type":"uint256"},{"internalType":"address","name":"stableCoin","type":"address"}],"internalType":"struct SongSharesMarketPlace.Sale","name":"","type":"tuple"}],"stateMutability":"view","type":"function"},{"inputs":[],"name":"initialize","outputs":[],"stateMutability":"nonpayable","type":"function"},{"inputs":[{"internalType":"address","name":"wrappedSong","type":"address"},{"internalType":"address","name":"seller","type":"address"}],"name":"isApprovedForShares","outputs":[{"internalType":"bool","name":"","type":"bool"}],"stateMutability":"view","type":"function"},{"inputs":[{"internalType":"address","name":"wrappedSong","type":"address"}],"name":"isSaleExpired","outputs":[{"internalType":"bool","name":"","type":"bool"}],"stateMutability":"view","type":"function"},{"inputs":[],"name":"owner","outputs":[{"internalType":"address","name":"","type":"address"}],"stateMutability":"view","type":"function"},{"inputs":[],"name":"pause","outputs":[],"stateMutability":"nonpayable","type":"function"},{"inputs":[],"name":"paused","outputs":[{"internalType":"bool","name":"","type":"bool"}],"stateMutability":"view","type":"function"},{"inputs":[],"name":"protocolModule","outputs":[{"internalType":"contract IProtocolModule","name":"","type":"address"}],"stateMutability":"view","type":"function"},{"inputs":[],"name":"renounceOwnership","outputs":[],"stateMutability":"nonpayable","type":"function"},{"inputs":[{"internalType":"address","name":"","type":"address"}],"name":"saleStartTimes","outputs":[{"internalType":"uint256","name":"","type":"uint256"}],"stateMutability":"view","type":"function"},{"inputs":[{"internalType":"address","name":"","type":"address"}],"name":"sales","outputs":[{"internalType":"bool","name":"active","type":"bool"},{"internalType":"address","name":"seller","type":"address"},{"internalType":"uint256","name":"sharesForSale","type":"uint256"},{"internalType":"uint256","name":"pricePerShare","type":"uint256"},{"internalType":"uint256","name":"maxSharesPerWallet","type":"uint256"},{"internalType":"uint256","name":"totalSold","type":"uint256"},{"internalType":"address","name":"stableCoin","type":"address"}],"stateMutability":"view","type":"function"},{"inputs":[{"internalType":"address","name":"wrappedSong","type":"address"},{"internalType":"uint256","name":"amount","type":"uint256"},{"internalType":"uint256","name":"price","type":"uint256"},{"internalType":"uint256","name":"maxShares","type":"uint256"},{"internalType":"address","name":"_stableCoin","type":"address"}],"name":"startSale","outputs":[],"stateMutability":"payable","type":"function"},{"inputs":[{"internalType":"address","name":"newOwner","type":"address"}],"name":"transferOwnership","outputs":[],"stateMutability":"nonpayable","type":"function"},{"inputs":[],"name":"unpause","outputs":[],"stateMutability":"nonpayable","type":"function"},{"inputs":[{"internalType":"address","name":"wrappedSong","type":"address"}],"name":"withdrawFunds","outputs":[],"stateMutability":"nonpayable","type":"function"},{"stateMutability":"payable","type":"receive"}],"evm":{"bytecode":{"linkReferences":{},"object":"60a03461010e57601f6122f838819003918201601f19168301916001600160401b038311848410176101135780849260209460405283398101031261010e57516001600160a01b03908181169081900361010e5733156100f5576000543360018060a01b0319821617600055604051923391167f8be0079c531659141344cd1fd0a4f28419497f9722a3daafe3b4186f6b6457e0600080a36001805560ff19600254166002556080526121ce908161012a8239608051818181610260015281816105040152818161060c01528181610c1d01528181610e0201528181611062015281816116e201528181611ad90152611bdf0152f35b604051631e4fbdf760e01b815260006004820152602490fd5b600080fd5b634e487b7160e01b600052604160045260246000fdfe608080604052600436101561001d575b50361561001b57600080fd5b005b600090813560e01c90816325b8b8cb14611c7b575080633ec9898414611b735780633f4ba83a14611b085780635c42e66714611ac35780635c975abb14611aa057806368742da61461164757806369ac14871461160e5780636d4726d9146115e15780636ef3cd8a14610fc4578063703c92ae14610f75578063715018a614610f1b5780637cd4c4b414610ee25780638129fc1c14610dc95780638456cb5914610d6e5780638c9f7b3914610b845780638da5cb5b14610b5d578063ba074d1c14610a76578063c6b9f06a146109f2578063f2333ec4146101945763f2fde38b0361000f57346101915760203660031901126101915761011b611db0565b610123611ddc565b6001600160a01b0390811690811561017857600054826bffffffffffffffffffffffff60a01b821617600055167f8be0079c531659141344cd1fd0a4f28419497f9722a3daafe3b4186f6b6457e0600080a380f35b604051631e4fbdf760e01b815260048101849052602490fd5b80fd5b5060a0366003190112610191576101a9611db0565b6084356001600160a01b03811681036107ac576101c4611fb0565b604051638da5cb5b60e01b81526020816004816001600160a01b0387165afa80156109e7576102059185916109c8575b506001600160a01b03163314611e7b565b604051636fad7e9560e11b80825291906020816004816001600160a01b0388165afa90811561097f5785916109a9575b50604051631b3d58e960e21b81526001600160a01b03918216600482015290602090829060249082907f0000000000000000000000000000000000000000000000000000000000000000165afa801561097f5761029991869161098a575b50611ed8565b60025460405163d9fa987960e01b8152906020908290600490829060081c6001600160a01b03165afa90811561097f57859161094d575b503410610908576001600160a01b038316156108c357602435156102f48115611f24565b6305f5e1006024351161087e57701d6329f1c35ca4bfabb9f561000000000060443511610839576064359260243584116107e6576040519081526020816004816001600160a01b0389165afa9081156107015760449160209188916107b9575b50604051627eeac760e11b81523360048201526001602482015292839182906001600160a01b03165afa908115610701578691610782575b5060243511610747576001600160a01b03841685526003602052604085205460ff1661070c576001600160a01b0382166105e3575b60443561057a575b506001600160a01b038316845260056020526040808520429055516103ed81611e08565b6001815260056020820191338352604081016024358152606082016044358152608083019087825260a08401928a845260c085019660018060a01b038916885260018060a01b038b168c52600360205260408c20955115159060ff875491610100600160a81b03905160081b169216906affffffffffffffffffffff60a81b1617178555516001850155516002840155516003830155516004820155019060018060a01b039051166bffffffffffffffffffffffff60a01b8254161790556040519160243583526044356020840152604083015260018060a01b031660608201527f7e13ce3c75f9b5edb5e31305c6f620962f35f6554a1d3b8d7189be71041902ba6080339360018060a01b031692a380808080347f00000000000000000000000000000000000000000000000000000000000000006001600160a01b03165af1610536611f70565b501561053f5780f35b60405162461bcd60e51b8152602060048201526013602482015272119959481d1c985b9cd9995c8819985a5b1959606a1b6044820152606490fd5b6105cf57602435600019046044351161059357386103c9565b60405162461bcd60e51b81526020600482015260146024820152735072696365206f766572666c6f7720636865636b60601b6044820152606490fd5b634e487b7160e01b84526012600452602484fd5b60405163b5af090f60e01b81526001600160a01b038381166004830152602090829060249082907f0000000000000000000000000000000000000000000000000000000000000000165afa9081156107015786916106d2575b501561068d57813b6103c15760405162461bcd60e51b815260206004820152601a60248201527f496e76616c696420737461626c65636f696e20616464726573730000000000006044820152606490fd5b60405162461bcd60e51b815260206004820152601d60248201527f537461626c65636f696e206973206e6f742077686974656c69737465640000006044820152606490fd5b6106f4915060203d6020116106fa575b6106ec8183611e3a565b810190611ec0565b3861063c565b503d6106e2565b6040513d88823e3d90fd5b60405162461bcd60e51b815260206004820152601360248201527253616c6520616c72656164792061637469766560681b6044820152606490fd5b60405162461bcd60e51b8152602060048201526013602482015272496e73756666696369656e742073686172657360681b6044820152606490fd5b90506020813d6020116107b1575b8161079d60209383611e3a565b810103126107ac57513861038c565b600080fd5b3d9150610790565b6107d99150823d84116107df575b6107d18183611e3a565b810190611e5c565b38610354565b503d6107c7565b60405162461bcd60e51b815260206004820152602560248201527f4d617820736861726573207065722077616c6c6574206c657373207468616e206044820152641d1bdd185b60da1b6064820152608490fd5b60405162461bcd60e51b815260206004820152601b60248201527f50726963652065786365656473206d6178696d756d206c696d697400000000006044820152606490fd5b60405162461bcd60e51b815260206004820152601c60248201527f416d6f756e742065786365656473206d6178696d756d206c696d6974000000006044820152606490fd5b60405162461bcd60e51b815260206004820152601c60248201527f496e76616c6964207772617070656420736f6e672061646472657373000000006044820152606490fd5b60405162461bcd60e51b815260206004820152601b60248201527f496e73756666696369656e742073746172742073616c652066656500000000006044820152606490fd5b90506020813d602011610977575b8161096860209383611e3a565b810103126107ac5751386102d0565b3d915061095b565b6040513d87823e3d90fd5b6109a3915060203d6020116106fa576106ec8183611e3a565b38610293565b6109c2915060203d6020116107df576107d18183611e3a565b38610235565b6109e1915060203d6020116107df576107d18183611e3a565b386101f4565b6040513d86823e3d90fd5b50346101915760203660031901126101915760e0906001600160a01b039060409082610a1c611db0565b1681526003602052209081549160018101546002820154600383015491846005600486015495015416946040519660ff81161515885260081c16602087015260408601526060850152608084015260a083015260c0820152f35b503461019157604036600319011261019157610a90611db0565b90610a99611dc6565b604051636fad7e9560e11b815260209390916001600160a01b039185908490600490829086165afa9283156109e757908592918594610b3b575b5060405163e985e9c560e01b815290821660048201523060248201529283916044918391165afa918215610b2f5791610b12575b506040519015158152f35b610b299150823d84116106fa576106ec8183611e3a565b38610b07565b604051903d90823e3d90fd5b6044919450610b5690843d86116107df576107d18183611e3a565b9390610ad3565b5034610191578060031936011261019157546040516001600160a01b039091168152602090f35b503461019157602080600319360112610d6a576001600160a01b039081610ba9611db0565b1691604051638da5cb5b60e01b81528281600481875afa801561097f57610bdb918691610d4d575b5082163314611e7b565b604051636fad7e9560e11b808252908381600481885afa908115610701578691610d30575b50604051631b3d58e960e21b8152908316600482015283816024817f000000000000000000000000000000000000000000000000000000000000000087165afa801561070157610c56918791610d195750611ed8565b6040519081528281600481875afa801561097f57610cfc575b50828452600382526040842091825491610c8b60ff8416611fce565b33908360081c1603610cc5575060ff191690557f50e9428f1419cdaec089c86c412fd52565cbe415f195d893357a3a8b2a0e646a8280a280f35b6064906040519062461bcd60e51b82526004820152601060248201526f2737ba1039b0b6329031b932b0ba37b960811b6044820152fd5b610d1290833d85116107df576107d18183611e3a565b5038610c6f565b6109a39150853d87116106fa576106ec8183611e3a565b610d479150843d86116107df576107d18183611e3a565b38610c00565b610d649150843d86116107df576107d18183611e3a565b38610bd1565b5080fd5b5034610191578060031936011261019157610d87611ddc565b610d8f611fb0565b600160ff1960025416176002557f62e78cea01bee320cd4e420270b5ea74000d11b0c9f74754ebdbfc544b05a2586020604051338152a180f35b5034610191578060031936011261019157610de2611ddc565b60405163670d296960e11b81526020906001600160a01b039082816004817f000000000000000000000000000000000000000000000000000000000000000086165afa9081156109e757829184918691610ec5575b50600460405180948193636d4726d960e01b8352165afa9283156109e7578493610e88575b505060028054610100600160a81b03191660089390931b610100600160a81b0316929092179091555080f35b9080929350813d8311610ebe575b610ea08183611e3a565b81010312610eba57519081168103610d6a57388080610e5c565b8280fd5b503d610e96565b610edc9150823d84116107df576107d18183611e3a565b38610e37565b5034610191576020366003190112610191576020906040906001600160a01b03610f0a611db0565b168152600683522054604051908152f35b5034610191578060031936011261019157610f34611ddc565b600080546001600160a01b0319811682556001600160a01b03167f8be0079c531659141344cd1fd0a4f28419497f9722a3daafe3b4186f6b6457e08280a380f35b503461019157604036600319011261019157610f8f611db0565b6040610f99611dc6565b9260018060a01b03809316815260046020522091166000526020526020604060002054604051908152f35b50606036600319011261019157610fd9611db0565b6044356001600160a01b038181169260248035939091908590036115dd578290611001611fb0565b611009612123565b1691821515806115d4575b1561159e578315906110268215611f24565b838752602092600384526040882061104160ff825416611fce565b858952600585526040808a2054905163391ff95160e11b81529086826004817f000000000000000000000000000000000000000000000000000000000000000089165afa9081156113dc578b91611569575b61109d925061200b565b4211611536576001810180548089116114f25760028301546110bf818b61202e565b9681611488575b5050878b526004875260408b208a8c5287526110e68960408d205461200b565b90888c526004885260408c208b8d52885260408c2054821061144457896003850154806113e7575b5061111891612041565b8255600483016111298a825461200b565b9055878b526004875260408b208a8c52875260408b205560405192636fad7e9560e11b845286846004818b5afa9384156113dc578b946113bd575b5060058301805490949086161561135c573461130a5785855416604051906323b872dd60e01b8a8301523384830152306044830152886064830152606482528160a081011067ffffffffffffffff60a0840111176112f757816111cf9160a08a95940160405261204e565b898d526006895260408d206111e589825461200b565b90555b16908b86855460081c16833b15610d6a5760c48d91838e966040519788958694637921219560e11b865260048601528885015260016044850152606484015260a060848401528160a48401525af180156112ec576112bc575b50505415611289575b5054169160405194855284015260408301527f16a6b05063764eec367f7f75e1d59322471f7bd0cc347509f5796d7ce8e3e86660603393a46001805580f35b805460ff19169055847f50e9428f1419cdaec089c86c412fd52565cbe415f195d893357a3a8b2a0e646a8980a23861124a565b67ffffffffffffffff829c939c116112da5750604052983880611241565b634e487b7160e01b8352604160045282fd5b6040513d8e823e3d90fd5b634e487b7160e01b8e526041600452838efd5b60405162461bcd60e51b8152600481018990526025818401527f455448206e6f7420616363657074656420666f7220737461626c6520636f696e6044820152642073616c6560d81b6064820152608490fd5b863403611382578590898d526006895260408d2061137b34825461200b565b90556111e8565b60405162461bcd60e51b81526004810189905260148184015273125b98dbdc9c9958dd0811551208185b5bdd5b9d60621b6044820152606490fd5b6113d5919450873d89116107df576107d18183611e3a565b9238611164565b6040513d8d823e3d90fd5b905082116113f657893861110e565b60405162461bcd60e51b8152600481018990526021818701527f45786365656473206d6178696d756d20736861726573207065722077616c6c656044820152601d60fa1b6064820152608490fd5b60405162461bcd60e51b8152600481018990526018818701527f507572636861736520616d6f756e74206f766572666c6f7700000000000000006044820152606490fd5b6114df578987040361149b5738806110c6565b60405162461bcd60e51b815260048101889052601a818601527f50726963652063616c63756c6174696f6e206f766572666c6f770000000000006044820152606490fd5b634e487b7160e01b8c526012600452848cfd5b60405162461bcd60e51b815260048101889052601b818601527f4e6f7420656e6f7567682073686172657320617661696c61626c6500000000006044820152606490fd5b60405162461bcd60e51b815260048101869052600c818401526b14d85b1948195e1c1a5c995960a21b6044820152606490fd5b90508682813d8311611597575b6115808183611e3a565b810103126115935761109d915190611093565b8a80fd5b503d611576565b60405162461bcd60e51b815260206004820152600f818401526e496e76616c6964206164647265737360881b6044820152606490fd5b50841515611014565b8580fd5b503461019157806003193601126101915760025460405160089190911c6001600160a01b03168152602090f35b5034610191576020366003190112610191576020906040906001600160a01b03611636611db0565b168152600583522054604051908152f35b503461019157602080600319360112610d6a57611662611db0565b61166a612123565b604051638da5cb5b60e01b81526001600160a01b0391821691908381600481865afa801561097f576116a6918691611a89575082163314611e7b565b604051636fad7e9560e11b8152928084600481865afa93841561097f578594611a6a575b50604051631b3d58e960e21b815293821660048501527f000000000000000000000000000000000000000000000000000000000000000082169360249082818381895afa8015611a5f57611724918891611a485750611ed8565b838652600682526040862054928315611a0d578487526003835260048382600560408b200154169260025460081c166040519283809263191ebe9d60e31b82525afa908115611a025788916119cf575b50611782612710918661202e565b049161178e8386612041565b86895260068552604089208990559482156118c6576040516370a0823160e01b815230600482015285818481875afa9081156118bb578a9161188a575b501061184757506117dd843383612146565b818681611836575b5050505b6040519283527fa92ff919b850e4909ab2261d907ef955f11bc1716733a6cbece38d163a69af8a928484843393a380611825575b856001805580f35b604051908152a3388080808061181d565b61183f92612146565b3881866117e5565b83601d6064926040519262461bcd60e51b845260048401528201527f496e73756666696369656e7420636f6e74726163742062616c616e63650000006044820152fd5b90508581813d83116118b4575b6118a18183611e3a565b810103126118b05751386117cb565b8980fd5b503d611897565b6040513d8c823e3d90fd5b909150471061198c578680808087335af16118df611f70565b501561194957816118f1575b506117e9565b86808080858a5af1611901611f70565b506118eb5782601f6064926040519262461bcd60e51b845260048401528201527f455448207472616e7366657220746f2070726f746f636f6c206661696c6564006044820152fd5b82601b6064926040519262461bcd60e51b845260048401528201527f455448207472616e7366657220746f2075736572206661696c656400000000006044820152fd5b8260186064926040519262461bcd60e51b845260048401528201527f496e73756666696369656e74204554482062616c616e636500000000000000006044820152fd5b90508381813d83116119fb575b6119e68183611e3a565b810103126119f75751611782611774565b8780fd5b503d6119dc565b6040513d8a823e3d90fd5b60405162461bcd60e51b815260048101849052601481840152734e6f2066756e647320746f20776974686472617760601b6044820152606490fd5b6109a39150843d86116106fa576106ec8183611e3a565b6040513d89823e3d90fd5b81611a829295503d86116107df576107d18183611e3a565b92386116ca565b610d649150853d87116107df576107d18183611e3a565b5034610191578060031936011261019157602060ff600254166040519015158152f35b50346101915780600319360112610191576040517f00000000000000000000000000000000000000000000000000000000000000006001600160a01b03168152602090f35b5034610191578060031936011261019157611b21611ddc565b60025460ff811615611b615760ff19166002557f5db9ee0a495bf2e6ff9c91a7834c1ba4fdd244a5e8aa4e537bd38aeae4b073aa6020604051338152a180f35b604051638dfc202b60e01b8152600490fd5b503461019157602080600319360112610d6a576001600160a01b0380611b97611db0565b604051636fad7e9560e11b81529291168383600481845afa92831561097f57600493611c5e575b50845260058352826040852054916040519384809263391ff95160e11b82527f0000000000000000000000000000000000000000000000000000000000000000165afa9182156109e7578492611c24575b5090611c1a9161200b565b4211604051908152f35b9091508281813d8311611c57575b611c3c8183611e3a565b81010312611c5357611c1a92935051908392611c0f565b8380fd5b503d611c32565b611c7490853d87116107df576107d18183611e3a565b5038611bbe565b905034610d6a5760209081600319360112610eba578260c0611c9b611db0565b92611ca581611e08565b82815282858201528260408201528260608201528260808201528260a0820152015260018060a01b03809116604051636fad7e9560e11b81528381600481855afa801561097f579160e09591604093611d93575b508152600384522060405190611d0e82611e08565b805460ff8116151594858452848185019260081c16825260018301546040850190815260028401549160608601928352866003860154946080880195865260c082600560048a01549960a08c019a8b520154169801978852604051998a525116908801525160408701525160608601525160808501525160a0840152511660c0820152f35b611da990863d88116107df576107d18183611e3a565b5038611cf9565b600435906001600160a01b03821682036107ac57565b602435906001600160a01b03821682036107ac57565b6000546001600160a01b03163303611df057565b60405163118cdaa760e01b8152336004820152602490fd5b60e0810190811067ffffffffffffffff821117611e2457604052565b634e487b7160e01b600052604160045260246000fd5b90601f8019910116810190811067ffffffffffffffff821117611e2457604052565b908160209103126107ac57516001600160a01b03811681036107ac5790565b15611e8257565b60405162461bcd60e51b81526020600482015260166024820152752737ba103bb930b83832b21039b7b7339037bbb732b960511b6044820152606490fd5b908160209103126107ac575180151581036107ac5790565b15611edf57565b60405162461bcd60e51b815260206004820152601f60248201527f4e6f7420612076657269666965642070726f746f636f6c205753546f6b656e006044820152606490fd5b15611f2b57565b60405162461bcd60e51b815260206004820152601d60248201527f416d6f756e74206d7573742062652067726561746572207468616e20300000006044820152606490fd5b3d15611fab573d9067ffffffffffffffff8211611e245760405191611f9f601f8201601f191660200184611e3a565b82523d6000602084013e565b606090565b60ff60025416611fbc57565b60405163d93c066560e01b8152600490fd5b15611fd557565b60405162461bcd60e51b815260206004820152600e60248201526d4e6f206163746976652073616c6560901b6044820152606490fd5b9190820180921161201857565b634e487b7160e01b600052601160045260246000fd5b8181029291811591840414171561201857565b9190820391821161201857565b6000806120779260018060a01b03169360208151910182865af1612070611f70565b90836120c0565b80519081151591826120a5575b505061208d5750565b60249060405190635274afe760e01b82526004820152fd5b6120b89250602080918301019101611ec0565b153880612084565b906120e757508051156120d557805190602001fd5b604051630a12f52160e11b8152600490fd5b8151158061211a575b6120f8575090565b604051639996b31560e01b81526001600160a01b039091166004820152602490fd5b50803b156120f0565b600260015414612134576002600155565b604051633ee5aeb560e01b8152600490fd5b60405163a9059cbb60e01b60208201526001600160a01b039092166024830152604480830193909352918152608081019167ffffffffffffffff831182841017611e24576121969260405261204e565b56fea264697066735822122094cb597c7ad116280d6c91fa53af80ed6e8ecb4678519a21cc97f0bc843419b564736f6c63430008140033","opcodes":"PUSH1 0xA0 CALLVALUE PUSH2 0x10E JUMPI PUSH1 0x1F PUSH2 0x22F8 CODESIZE DUP2 SWAP1 SUB SWAP2 DUP3 ADD PUSH1 0x1F NOT AND DUP4 ADD SWAP2 PUSH1 0x1 PUSH1 0x1 PUSH1 0x40 SHL SUB DUP4 GT DUP5 DUP5 LT OR PUSH2 0x113 JUMPI DUP1 DUP5 SWAP3 PUSH1 0x20 SWAP5 PUSH1 0x40 MSTORE DUP4 CODECOPY DUP2 ADD SUB SLT PUSH2 0x10E JUMPI MLOAD PUSH1 0x1 PUSH1 0x1 PUSH1 0xA0 SHL SUB SWAP1 DUP2 DUP2 AND SWAP1 DUP2 SWAP1 SUB PUSH2 0x10E JUMPI CALLER ISZERO PUSH2 0xF5 JUMPI PUSH1 0x0 SLOAD CALLER PUSH1 0x1 DUP1 PUSH1 0xA0 SHL SUB NOT DUP3 AND OR PUSH1 0x0 SSTORE PUSH1 0x40 MLOAD SWAP3 CALLER SWAP2 AND PUSH32 0x8BE0079C531659141344CD1FD0A4F28419497F9722A3DAAFE3B4186F6B6457E0 PUSH1 0x0 DUP1 LOG3 PUSH1 0x1 DUP1 SSTORE PUSH1 0xFF NOT PUSH1 0x2 SLOAD AND PUSH1 0x2 SSTORE PUSH1 0x80 MSTORE PUSH2 0x21CE SWAP1 DUP2 PUSH2 0x12A DUP3 CODECOPY PUSH1 0x80 MLOAD DUP2 DUP2 DUP2 PUSH2 0x260 ADD MSTORE DUP2 DUP2 PUSH2 0x504 ADD MSTORE DUP2 DUP2 PUSH2 0x60C ADD MSTORE DUP2 DUP2 PUSH2 0xC1D ADD MSTORE DUP2 DUP2 PUSH2 0xE02 ADD MSTORE DUP2 DUP2 PUSH2 0x1062 ADD MSTORE DUP2 DUP2 PUSH2 0x16E2 ADD MSTORE DUP2 DUP2 PUSH2 0x1AD9 ADD MSTORE PUSH2 0x1BDF ADD MSTORE RETURN JUMPDEST PUSH1 0x40 MLOAD PUSH4 0x1E4FBDF7 PUSH1 0xE0 SHL DUP2 MSTORE PUSH1 0x0 PUSH1 0x4 DUP3 ADD MSTORE PUSH1 0x24 SWAP1 REVERT JUMPDEST PUSH1 0x0 DUP1 REVERT JUMPDEST PUSH4 0x4E487B71 PUSH1 0xE0 SHL PUSH1 0x0 MSTORE PUSH1 0x41 PUSH1 0x4 MSTORE PUSH1 0x24 PUSH1 0x0 REVERT INVALID PUSH1 0x80 DUP1 PUSH1 0x40 MSTORE PUSH1 0x4 CALLDATASIZE LT ISZERO PUSH2 0x1D JUMPI JUMPDEST POP CALLDATASIZE ISZERO PUSH2 0x1B JUMPI PUSH1 0x0 DUP1 REVERT JUMPDEST STOP JUMPDEST PUSH1 0x0 SWAP1 DUP2 CALLDATALOAD PUSH1 0xE0 SHR SWAP1 DUP2 PUSH4 0x25B8B8CB EQ PUSH2 0x1C7B JUMPI POP DUP1 PUSH4 0x3EC98984 EQ PUSH2 0x1B73 JUMPI DUP1 PUSH4 0x3F4BA83A EQ PUSH2 0x1B08 JUMPI DUP1 PUSH4 0x5C42E667 EQ PUSH2 0x1AC3 JUMPI DUP1 PUSH4 0x5C975ABB EQ PUSH2 0x1AA0 JUMPI DUP1 PUSH4 0x68742DA6 EQ PUSH2 0x1647 JUMPI DUP1 PUSH4 0x69AC1487 EQ PUSH2 0x160E JUMPI DUP1 PUSH4 0x6D4726D9 EQ PUSH2 0x15E1 JUMPI DUP1 PUSH4 0x6EF3CD8A EQ PUSH2 0xFC4 JUMPI DUP1 PUSH4 0x703C92AE EQ PUSH2 0xF75 JUMPI DUP1 PUSH4 0x715018A6 EQ PUSH2 0xF1B JUMPI DUP1 PUSH4 0x7CD4C4B4 EQ PUSH2 0xEE2 JUMPI DUP1 PUSH4 0x8129FC1C EQ PUSH2 0xDC9 JUMPI DUP1 PUSH4 0x8456CB59 EQ PUSH2 0xD6E JUMPI DUP1 PUSH4 0x8C9F7B39 EQ PUSH2 0xB84 JUMPI DUP1 PUSH4 0x8DA5CB5B EQ PUSH2 0xB5D JUMPI DUP1 PUSH4 0xBA074D1C EQ PUSH2 0xA76 JUMPI DUP1 PUSH4 0xC6B9F06A EQ PUSH2 0x9F2 JUMPI DUP1 PUSH4 0xF2333EC4 EQ PUSH2 0x194 JUMPI PUSH4 0xF2FDE38B SUB PUSH2 0xF JUMPI CALLVALUE PUSH2 0x191 JUMPI PUSH1 0x20 CALLDATASIZE PUSH1 0x3 NOT ADD SLT PUSH2 0x191 JUMPI PUSH2 0x11B PUSH2 0x1DB0 JUMP JUMPDEST PUSH2 0x123 PUSH2 0x1DDC JUMP JUMPDEST PUSH1 0x1 PUSH1 0x1 PUSH1 0xA0 SHL SUB SWAP1 DUP2 AND SWAP1 DUP2 ISZERO PUSH2 0x178 JUMPI PUSH1 0x0 SLOAD DUP3 PUSH12 0xFFFFFFFFFFFFFFFFFFFFFFFF PUSH1 0xA0 SHL DUP3 AND OR PUSH1 0x0 SSTORE AND PUSH32 0x8BE0079C531659141344CD1FD0A4F28419497F9722A3DAAFE3B4186F6B6457E0 PUSH1 0x0 DUP1 LOG3 DUP1 RETURN JUMPDEST PUSH1 0x40 MLOAD PUSH4 0x1E4FBDF7 PUSH1 0xE0 SHL DUP2 MSTORE PUSH1 0x4 DUP2 ADD DUP5 SWAP1 MSTORE PUSH1 0x24 SWAP1 REVERT JUMPDEST DUP1 REVERT JUMPDEST POP PUSH1 0xA0 CALLDATASIZE PUSH1 0x3 NOT ADD SLT PUSH2 0x191 JUMPI PUSH2 0x1A9 PUSH2 0x1DB0 JUMP JUMPDEST PUSH1 0x84 CALLDATALOAD PUSH1 0x1 PUSH1 0x1 PUSH1 0xA0 SHL SUB DUP2 AND DUP2 SUB PUSH2 0x7AC JUMPI PUSH2 0x1C4 PUSH2 0x1FB0 JUMP JUMPDEST PUSH1 0x40 MLOAD PUSH4 0x8DA5CB5B PUSH1 0xE0 SHL DUP2 MSTORE PUSH1 0x20 DUP2 PUSH1 0x4 DUP2 PUSH1 0x1 PUSH1 0x1 PUSH1 0xA0 SHL SUB DUP8 AND GAS STATICCALL DUP1 ISZERO PUSH2 0x9E7 JUMPI PUSH2 0x205 SWAP2 DUP6 SWAP2 PUSH2 0x9C8 JUMPI JUMPDEST POP PUSH1 0x1 PUSH1 0x1 PUSH1 0xA0 SHL SUB AND CALLER EQ PUSH2 0x1E7B JUMP JUMPDEST PUSH1 0x40 MLOAD PUSH4 0x6FAD7E95 PUSH1 0xE1 SHL DUP1 DUP3 MSTORE SWAP2 SWAP1 PUSH1 0x20 DUP2 PUSH1 0x4 DUP2 PUSH1 0x1 PUSH1 0x1 PUSH1 0xA0 SHL SUB DUP9 AND GAS STATICCALL SWAP1 DUP2 ISZERO PUSH2 0x97F JUMPI DUP6 SWAP2 PUSH2 0x9A9 JUMPI JUMPDEST POP PUSH1 0x40 MLOAD PUSH4 0x1B3D58E9 PUSH1 0xE2 SHL DUP2 MSTORE PUSH1 0x1 PUSH1 0x1 PUSH1 0xA0 SHL SUB SWAP2 DUP3 AND PUSH1 0x4 DUP3 ADD MSTORE SWAP1 PUSH1 0x20 SWAP1 DUP3 SWAP1 PUSH1 0x24 SWAP1 DUP3 SWAP1 PUSH32 0x0 AND GAS STATICCALL DUP1 ISZERO PUSH2 0x97F JUMPI PUSH2 0x299 SWAP2 DUP7 SWAP2 PUSH2 0x98A JUMPI JUMPDEST POP PUSH2 0x1ED8 JUMP JUMPDEST PUSH1 0x2 SLOAD PUSH1 0x40 MLOAD PUSH4 0xD9FA9879 PUSH1 0xE0 SHL DUP2 MSTORE SWAP1 PUSH1 0x20 SWAP1 DUP3 SWAP1 PUSH1 0x4 SWAP1 DUP3 SWAP1 PUSH1 0x8 SHR PUSH1 0x1 PUSH1 0x1 PUSH1 0xA0 SHL SUB AND GAS STATICCALL SWAP1 DUP2 ISZERO PUSH2 0x97F JUMPI DUP6 SWAP2 PUSH2 0x94D JUMPI JUMPDEST POP CALLVALUE LT PUSH2 0x908 JUMPI PUSH1 0x1 PUSH1 0x1 PUSH1 0xA0 SHL SUB DUP4 AND ISZERO PUSH2 0x8C3 JUMPI PUSH1 0x24 CALLDATALOAD ISZERO PUSH2 0x2F4 DUP2 ISZERO PUSH2 0x1F24 JUMP JUMPDEST PUSH4 0x5F5E100 PUSH1 0x24 CALLDATALOAD GT PUSH2 0x87E JUMPI PUSH17 0x1D6329F1C35CA4BFABB9F5610000000000 PUSH1 0x44 CALLDATALOAD GT PUSH2 0x839 JUMPI PUSH1 0x64 CALLDATALOAD SWAP3 PUSH1 0x24 CALLDATALOAD DUP5 GT PUSH2 0x7E6 JUMPI PUSH1 0x40 MLOAD SWAP1 DUP2 MSTORE PUSH1 0x20 DUP2 PUSH1 0x4 DUP2 PUSH1 0x1 PUSH1 0x1 PUSH1 0xA0 SHL SUB DUP10 AND GAS STATICCALL SWAP1 DUP2 ISZERO PUSH2 0x701 JUMPI PUSH1 0x44 SWAP2 PUSH1 0x20 SWAP2 DUP9 SWAP2 PUSH2 0x7B9 JUMPI JUMPDEST POP PUSH1 0x40 MLOAD PUSH3 0x7EEAC7 PUSH1 0xE1 SHL DUP2 MSTORE CALLER PUSH1 0x4 DUP3 ADD MSTORE PUSH1 0x1 PUSH1 0x24 DUP3 ADD MSTORE SWAP3 DUP4 SWAP2 DUP3 SWAP1 PUSH1 0x1 PUSH1 0x1 PUSH1 0xA0 SHL SUB AND GAS STATICCALL SWAP1 DUP2 ISZERO PUSH2 0x701 JUMPI DUP7 SWAP2 PUSH2 0x782 JUMPI JUMPDEST POP PUSH1 0x24 CALLDATALOAD GT PUSH2 0x747 JUMPI PUSH1 0x1 PUSH1 0x1 PUSH1 0xA0 SHL SUB DUP5 AND DUP6 MSTORE PUSH1 0x3 PUSH1 0x20 MSTORE PUSH1 0x40 DUP6 KECCAK256 SLOAD PUSH1 0xFF AND PUSH2 0x70C JUMPI PUSH1 0x1 PUSH1 0x1 PUSH1 0xA0 SHL SUB DUP3 AND PUSH2 0x5E3 JUMPI JUMPDEST PUSH1 0x44 CALLDATALOAD PUSH2 0x57A JUMPI JUMPDEST POP PUSH1 0x1 PUSH1 0x1 PUSH1 0xA0 SHL SUB DUP4 AND DUP5 MSTORE PUSH1 0x5 PUSH1 0x20 MSTORE PUSH1 0x40 DUP1 DUP6 KECCAK256 TIMESTAMP SWAP1 SSTORE MLOAD PUSH2 0x3ED DUP2 PUSH2 0x1E08 JUMP JUMPDEST PUSH1 0x1 DUP2 MSTORE PUSH1 0x5 PUSH1 0x20 DUP3 ADD SWAP2 CALLER DUP4 MSTORE PUSH1 0x40 DUP2 ADD PUSH1 0x24 CALLDATALOAD DUP2 MSTORE PUSH1 0x60 DUP3 ADD PUSH1 0x44 CALLDATALOAD DUP2 MSTORE PUSH1 0x80 DUP4 ADD SWAP1 DUP8 DUP3 MSTORE PUSH1 0xA0 DUP5 ADD SWAP3 DUP11 DUP5 MSTORE PUSH1 0xC0 DUP6 ADD SWAP7 PUSH1 0x1 DUP1 PUSH1 0xA0 SHL SUB DUP10 AND DUP9 MSTORE PUSH1 0x1 DUP1 PUSH1 0xA0 SHL SUB DUP12 AND DUP13 MSTORE PUSH1 0x3 PUSH1 0x20 MSTORE PUSH1 0x40 DUP13 KECCAK256 SWAP6 MLOAD ISZERO ISZERO SWAP1 PUSH1 0xFF DUP8 SLOAD SWAP2 PUSH2 0x100 PUSH1 0x1 PUSH1 0xA8 SHL SUB SWAP1 MLOAD PUSH1 0x8 SHL AND SWAP3 AND SWAP1 PUSH11 0xFFFFFFFFFFFFFFFFFFFFFF PUSH1 0xA8 SHL AND OR OR DUP6 SSTORE MLOAD PUSH1 0x1 DUP6 ADD SSTORE MLOAD PUSH1 0x2 DUP5 ADD SSTORE MLOAD PUSH1 0x3 DUP4 ADD SSTORE MLOAD PUSH1 0x4 DUP3 ADD SSTORE ADD SWAP1 PUSH1 0x1 DUP1 PUSH1 0xA0 SHL SUB SWAP1 MLOAD AND PUSH12 0xFFFFFFFFFFFFFFFFFFFFFFFF PUSH1 0xA0 SHL DUP3 SLOAD AND OR SWAP1 SSTORE PUSH1 0x40 MLOAD SWAP2 PUSH1 0x24 CALLDATALOAD DUP4 MSTORE PUSH1 0x44 CALLDATALOAD PUSH1 0x20 DUP5 ADD MSTORE PUSH1 0x40 DUP4 ADD MSTORE PUSH1 0x1 DUP1 PUSH1 0xA0 SHL SUB AND PUSH1 0x60 DUP3 ADD MSTORE PUSH32 0x7E13CE3C75F9B5EDB5E31305C6F620962F35F6554A1D3B8D7189BE71041902BA PUSH1 0x80 CALLER SWAP4 PUSH1 0x1 DUP1 PUSH1 0xA0 SHL SUB AND SWAP3 LOG3 DUP1 DUP1 DUP1 DUP1 CALLVALUE PUSH32 0x0 PUSH1 0x1 PUSH1 0x1 PUSH1 0xA0 SHL SUB AND GAS CALL PUSH2 0x536 PUSH2 0x1F70 JUMP JUMPDEST POP ISZERO PUSH2 0x53F JUMPI DUP1 RETURN JUMPDEST PUSH1 0x40 MLOAD PUSH3 0x461BCD PUSH1 0xE5 SHL DUP2 MSTORE PUSH1 0x20 PUSH1 0x4 DUP3 ADD MSTORE PUSH1 0x13 PUSH1 0x24 DUP3 ADD MSTORE PUSH19 0x119959481D1C985B9CD9995C8819985A5B1959 PUSH1 0x6A SHL PUSH1 0x44 DUP3 ADD MSTORE PUSH1 0x64 SWAP1 REVERT JUMPDEST PUSH2 0x5CF JUMPI PUSH1 0x24 CALLDATALOAD PUSH1 0x0 NOT DIV PUSH1 0x44 CALLDATALOAD GT PUSH2 0x593 JUMPI CODESIZE PUSH2 0x3C9 JUMP JUMPDEST PUSH1 0x40 MLOAD PUSH3 0x461BCD PUSH1 0xE5 SHL DUP2 MSTORE PUSH1 0x20 PUSH1 0x4 DUP3 ADD MSTORE PUSH1 0x14 PUSH1 0x24 DUP3 ADD MSTORE PUSH20 0x5072696365206F766572666C6F7720636865636B PUSH1 0x60 SHL PUSH1 0x44 DUP3 ADD MSTORE PUSH1 0x64 SWAP1 REVERT JUMPDEST PUSH4 0x4E487B71 PUSH1 0xE0 SHL DUP5 MSTORE PUSH1 0x12 PUSH1 0x4 MSTORE PUSH1 0x24 DUP5 REVERT JUMPDEST PUSH1 0x40 MLOAD PUSH4 0xB5AF090F PUSH1 0xE0 SHL DUP2 MSTORE PUSH1 0x1 PUSH1 0x1 PUSH1 0xA0 SHL SUB DUP4 DUP2 AND PUSH1 0x4 DUP4 ADD MSTORE PUSH1 0x20 SWAP1 DUP3 SWAP1 PUSH1 0x24 SWAP1 DUP3 SWAP1 PUSH32 0x0 AND GAS STATICCALL SWAP1 DUP2 ISZERO PUSH2 0x701 JUMPI DUP7 SWAP2 PUSH2 0x6D2 JUMPI JUMPDEST POP ISZERO PUSH2 0x68D JUMPI DUP2 EXTCODESIZE PUSH2 0x3C1 JUMPI PUSH1 0x40 MLOAD PUSH3 0x461BCD PUSH1 0xE5 SHL DUP2 MSTORE PUSH1 0x20 PUSH1 0x4 DUP3 ADD MSTORE PUSH1 0x1A PUSH1 0x24 DUP3 ADD MSTORE PUSH32 0x496E76616C696420737461626C65636F696E2061646472657373000000000000 PUSH1 0x44 DUP3 ADD MSTORE PUSH1 0x64 SWAP1 REVERT JUMPDEST PUSH1 0x40 MLOAD PUSH3 0x461BCD PUSH1 0xE5 SHL DUP2 MSTORE PUSH1 0x20 PUSH1 0x4 DUP3 ADD MSTORE PUSH1 0x1D PUSH1 0x24 DUP3 ADD MSTORE PUSH32 0x537461626C65636F696E206973206E6F742077686974656C6973746564000000 PUSH1 0x44 DUP3 ADD MSTORE PUSH1 0x64 SWAP1 REVERT JUMPDEST PUSH2 0x6F4 SWAP2 POP PUSH1 0x20 RETURNDATASIZE PUSH1 0x20 GT PUSH2 0x6FA JUMPI JUMPDEST PUSH2 0x6EC DUP2 DUP4 PUSH2 0x1E3A JUMP JUMPDEST DUP2 ADD SWAP1 PUSH2 0x1EC0 JUMP JUMPDEST CODESIZE PUSH2 0x63C JUMP JUMPDEST POP RETURNDATASIZE PUSH2 0x6E2 JUMP JUMPDEST PUSH1 0x40 MLOAD RETURNDATASIZE DUP9 DUP3 RETURNDATACOPY RETURNDATASIZE SWAP1 REVERT JUMPDEST PUSH1 0x40 MLOAD PUSH3 0x461BCD PUSH1 0xE5 SHL DUP2 MSTORE PUSH1 0x20 PUSH1 0x4 DUP3 ADD MSTORE PUSH1 0x13 PUSH1 0x24 DUP3 ADD MSTORE PUSH19 0x53616C6520616C726561647920616374697665 PUSH1 0x68 SHL PUSH1 0x44 DUP3 ADD MSTORE PUSH1 0x64 SWAP1 REVERT JUMPDEST PUSH1 0x40 MLOAD PUSH3 0x461BCD PUSH1 0xE5 SHL DUP2 MSTORE PUSH1 0x20 PUSH1 0x4 DUP3 ADD MSTORE PUSH1 0x13 PUSH1 0x24 DUP3 ADD MSTORE PUSH19 0x496E73756666696369656E7420736861726573 PUSH1 0x68 SHL PUSH1 0x44 DUP3 ADD MSTORE PUSH1 0x64 SWAP1 REVERT JUMPDEST SWAP1 POP PUSH1 0x20 DUP2 RETURNDATASIZE PUSH1 0x20 GT PUSH2 0x7B1 JUMPI JUMPDEST DUP2 PUSH2 0x79D PUSH1 0x20 SWAP4 DUP4 PUSH2 0x1E3A JUMP JUMPDEST DUP2 ADD SUB SLT PUSH2 0x7AC JUMPI MLOAD CODESIZE PUSH2 0x38C JUMP JUMPDEST PUSH1 0x0 DUP1 REVERT JUMPDEST RETURNDATASIZE SWAP2 POP PUSH2 0x790 JUMP JUMPDEST PUSH2 0x7D9 SWAP2 POP DUP3 RETURNDATASIZE DUP5 GT PUSH2 0x7DF JUMPI JUMPDEST PUSH2 0x7D1 DUP2 DUP4 PUSH2 0x1E3A JUMP JUMPDEST DUP2 ADD SWAP1 PUSH2 0x1E5C JUMP JUMPDEST CODESIZE PUSH2 0x354 JUMP JUMPDEST POP RETURNDATASIZE PUSH2 0x7C7 JUMP JUMPDEST PUSH1 0x40 MLOAD PUSH3 0x461BCD PUSH1 0xE5 SHL DUP2 MSTORE PUSH1 0x20 PUSH1 0x4 DUP3 ADD MSTORE PUSH1 0x25 PUSH1 0x24 DUP3 ADD MSTORE PUSH32 0x4D617820736861726573207065722077616C6C6574206C657373207468616E20 PUSH1 0x44 DUP3 ADD MSTORE PUSH5 0x1D1BDD185B PUSH1 0xDA SHL PUSH1 0x64 DUP3 ADD MSTORE PUSH1 0x84 SWAP1 REVERT JUMPDEST PUSH1 0x40 MLOAD PUSH3 0x461BCD PUSH1 0xE5 SHL DUP2 MSTORE PUSH1 0x20 PUSH1 0x4 DUP3 ADD MSTORE PUSH1 0x1B PUSH1 0x24 DUP3 ADD MSTORE PUSH32 0x50726963652065786365656473206D6178696D756D206C696D69740000000000 PUSH1 0x44 DUP3 ADD MSTORE PUSH1 0x64 SWAP1 REVERT JUMPDEST PUSH1 0x40 MLOAD PUSH3 0x461BCD PUSH1 0xE5 SHL DUP2 MSTORE PUSH1 0x20 PUSH1 0x4 DUP3 ADD MSTORE PUSH1 0x1C PUSH1 0x24 DUP3 ADD MSTORE PUSH32 0x416D6F756E742065786365656473206D6178696D756D206C696D697400000000 PUSH1 0x44 DUP3 ADD MSTORE PUSH1 0x64 SWAP1 REVERT JUMPDEST PUSH1 0x40 MLOAD PUSH3 0x461BCD PUSH1 0xE5 SHL DUP2 MSTORE PUSH1 0x20 PUSH1 0x4 DUP3 ADD MSTORE PUSH1 0x1C PUSH1 0x24 DUP3 ADD MSTORE PUSH32 0x496E76616C6964207772617070656420736F6E67206164647265737300000000 PUSH1 0x44 DUP3 ADD MSTORE PUSH1 0x64 SWAP1 REVERT JUMPDEST PUSH1 0x40 MLOAD PUSH3 0x461BCD PUSH1 0xE5 SHL DUP2 MSTORE PUSH1 0x20 PUSH1 0x4 DUP3 ADD MSTORE PUSH1 0x1B PUSH1 0x24 DUP3 ADD MSTORE PUSH32 0x496E73756666696369656E742073746172742073616C65206665650000000000 PUSH1 0x44 DUP3 ADD MSTORE PUSH1 0x64 SWAP1 REVERT JUMPDEST SWAP1 POP PUSH1 0x20 DUP2 RETURNDATASIZE PUSH1 0x20 GT PUSH2 0x977 JUMPI JUMPDEST DUP2 PUSH2 0x968 PUSH1 0x20 SWAP4 DUP4 PUSH2 0x1E3A JUMP JUMPDEST DUP2 ADD SUB SLT PUSH2 0x7AC JUMPI MLOAD CODESIZE PUSH2 0x2D0 JUMP JUMPDEST RETURNDATASIZE SWAP2 POP PUSH2 0x95B JUMP JUMPDEST PUSH1 0x40 MLOAD RETURNDATASIZE DUP8 DUP3 RETURNDATACOPY RETURNDATASIZE SWAP1 REVERT JUMPDEST PUSH2 0x9A3 SWAP2 POP PUSH1 0x20 RETURNDATASIZE PUSH1 0x20 GT PUSH2 0x6FA JUMPI PUSH2 0x6EC DUP2 DUP4 PUSH2 0x1E3A JUMP JUMPDEST CODESIZE PUSH2 0x293 JUMP JUMPDEST PUSH2 0x9C2 SWAP2 POP PUSH1 0x20 RETURNDATASIZE PUSH1 0x20 GT PUSH2 0x7DF JUMPI PUSH2 0x7D1 DUP2 DUP4 PUSH2 0x1E3A JUMP JUMPDEST CODESIZE PUSH2 0x235 JUMP JUMPDEST PUSH2 0x9E1 SWAP2 POP PUSH1 0x20 RETURNDATASIZE PUSH1 0x20 GT PUSH2 0x7DF JUMPI PUSH2 0x7D1 DUP2 DUP4 PUSH2 0x1E3A JUMP JUMPDEST CODESIZE PUSH2 0x1F4 JUMP JUMPDEST PUSH1 0x40 MLOAD RETURNDATASIZE DUP7 DUP3 RETURNDATACOPY RETURNDATASIZE SWAP1 REVERT JUMPDEST POP CALLVALUE PUSH2 0x191 JUMPI PUSH1 0x20 CALLDATASIZE PUSH1 0x3 NOT ADD SLT PUSH2 0x191 JUMPI PUSH1 0xE0 SWAP1 PUSH1 0x1 PUSH1 0x1 PUSH1 0xA0 SHL SUB SWAP1 PUSH1 0x40 SWAP1 DUP3 PUSH2 0xA1C PUSH2 0x1DB0 JUMP JUMPDEST AND DUP2 MSTORE PUSH1 0x3 PUSH1 0x20 MSTORE KECCAK256 SWAP1 DUP2 SLOAD SWAP2 PUSH1 0x1 DUP2 ADD SLOAD PUSH1 0x2 DUP3 ADD SLOAD PUSH1 0x3 DUP4 ADD SLOAD SWAP2 DUP5 PUSH1 0x5 PUSH1 0x4 DUP7 ADD SLOAD SWAP6 ADD SLOAD AND SWAP5 PUSH1 0x40 MLOAD SWAP7 PUSH1 0xFF DUP2 AND ISZERO ISZERO DUP9 MSTORE PUSH1 0x8 SHR AND PUSH1 0x20 DUP8 ADD MSTORE PUSH1 0x40 DUP7 ADD MSTORE PUSH1 0x60 DUP6 ADD MSTORE PUSH1 0x80 DUP5 ADD MSTORE PUSH1 0xA0 DUP4 ADD MSTORE PUSH1 0xC0 DUP3 ADD MSTORE RETURN JUMPDEST POP CALLVALUE PUSH2 0x191 JUMPI PUSH1 0x40 CALLDATASIZE PUSH1 0x3 NOT ADD SLT PUSH2 0x191 JUMPI PUSH2 0xA90 PUSH2 0x1DB0 JUMP JUMPDEST SWAP1 PUSH2 0xA99 PUSH2 0x1DC6 JUMP JUMPDEST PUSH1 0x40 MLOAD PUSH4 0x6FAD7E95 PUSH1 0xE1 SHL DUP2 MSTORE PUSH1 0x20 SWAP4 SWAP1 SWAP2 PUSH1 0x1 PUSH1 0x1 PUSH1 0xA0 SHL SUB SWAP2 DUP6 SWAP1 DUP5 SWAP1 PUSH1 0x4 SWAP1 DUP3 SWAP1 DUP7 AND GAS STATICCALL SWAP3 DUP4 ISZERO PUSH2 0x9E7 JUMPI SWAP1 DUP6 SWAP3 SWAP2 DUP6 SWAP5 PUSH2 0xB3B JUMPI JUMPDEST POP PUSH1 0x40 MLOAD PUSH4 0xE985E9C5 PUSH1 0xE0 SHL DUP2 MSTORE SWAP1 DUP3 AND PUSH1 0x4 DUP3 ADD MSTORE ADDRESS PUSH1 0x24 DUP3 ADD MSTORE SWAP3 DUP4 SWAP2 PUSH1 0x44 SWAP2 DUP4 SWAP2 AND GAS STATICCALL SWAP2 DUP3 ISZERO PUSH2 0xB2F JUMPI SWAP2 PUSH2 0xB12 JUMPI JUMPDEST POP PUSH1 0x40 MLOAD SWAP1 ISZERO ISZERO DUP2 MSTORE RETURN JUMPDEST PUSH2 0xB29 SWAP2 POP DUP3 RETURNDATASIZE DUP5 GT PUSH2 0x6FA JUMPI PUSH2 0x6EC DUP2 DUP4 PUSH2 0x1E3A JUMP JUMPDEST CODESIZE PUSH2 0xB07 JUMP JUMPDEST PUSH1 0x40 MLOAD SWAP1 RETURNDATASIZE SWAP1 DUP3 RETURNDATACOPY RETURNDATASIZE SWAP1 REVERT JUMPDEST PUSH1 0x44 SWAP2 SWAP5 POP PUSH2 0xB56 SWAP1 DUP5 RETURNDATASIZE DUP7 GT PUSH2 0x7DF JUMPI PUSH2 0x7D1 DUP2 DUP4 PUSH2 0x1E3A JUMP JUMPDEST SWAP4 SWAP1 PUSH2 0xAD3 JUMP JUMPDEST POP CALLVALUE PUSH2 0x191 JUMPI DUP1 PUSH1 0x3 NOT CALLDATASIZE ADD SLT PUSH2 0x191 JUMPI SLOAD PUSH1 0x40 MLOAD PUSH1 0x1 PUSH1 0x1 PUSH1 0xA0 SHL SUB SWAP1 SWAP2 AND DUP2 MSTORE PUSH1 0x20 SWAP1 RETURN JUMPDEST POP CALLVALUE PUSH2 0x191 JUMPI PUSH1 0x20 DUP1 PUSH1 0x3 NOT CALLDATASIZE ADD SLT PUSH2 0xD6A JUMPI PUSH1 0x1 PUSH1 0x1 PUSH1 0xA0 SHL SUB SWAP1 DUP2 PUSH2 0xBA9 PUSH2 0x1DB0 JUMP JUMPDEST AND SWAP2 PUSH1 0x40 MLOAD PUSH4 0x8DA5CB5B PUSH1 0xE0 SHL DUP2 MSTORE DUP3 DUP2 PUSH1 0x4 DUP2 DUP8 GAS STATICCALL DUP1 ISZERO PUSH2 0x97F JUMPI PUSH2 0xBDB SWAP2 DUP7 SWAP2 PUSH2 0xD4D JUMPI JUMPDEST POP DUP3 AND CALLER EQ PUSH2 0x1E7B JUMP JUMPDEST PUSH1 0x40 MLOAD PUSH4 0x6FAD7E95 PUSH1 0xE1 SHL DUP1 DUP3 MSTORE SWAP1 DUP4 DUP2 PUSH1 0x4 DUP2 DUP9 GAS STATICCALL SWAP1 DUP2 ISZERO PUSH2 0x701 JUMPI DUP7 SWAP2 PUSH2 0xD30 JUMPI JUMPDEST POP PUSH1 0x40 MLOAD PUSH4 0x1B3D58E9 PUSH1 0xE2 SHL DUP2 MSTORE SWAP1 DUP4 AND PUSH1 0x4 DUP3 ADD MSTORE DUP4 DUP2 PUSH1 0x24 DUP2 PUSH32 0x0 DUP8 AND GAS STATICCALL DUP1 ISZERO PUSH2 0x701 JUMPI PUSH2 0xC56 SWAP2 DUP8 SWAP2 PUSH2 0xD19 JUMPI POP PUSH2 0x1ED8 JUMP JUMPDEST PUSH1 0x40 MLOAD SWAP1 DUP2 MSTORE DUP3 DUP2 PUSH1 0x4 DUP2 DUP8 GAS STATICCALL DUP1 ISZERO PUSH2 0x97F JUMPI PUSH2 0xCFC JUMPI JUMPDEST POP DUP3 DUP5 MSTORE PUSH1 0x3 DUP3 MSTORE PUSH1 0x40 DUP5 KECCAK256 SWAP2 DUP3 SLOAD SWAP2 PUSH2 0xC8B PUSH1 0xFF DUP5 AND PUSH2 0x1FCE JUMP JUMPDEST CALLER SWAP1 DUP4 PUSH1 0x8 SHR AND SUB PUSH2 0xCC5 JUMPI POP PUSH1 0xFF NOT AND SWAP1 SSTORE PUSH32 0x50E9428F1419CDAEC089C86C412FD52565CBE415F195D893357A3A8B2A0E646A DUP3 DUP1 LOG2 DUP1 RETURN JUMPDEST PUSH1 0x64 SWAP1 PUSH1 0x40 MLOAD SWAP1 PUSH3 0x461BCD PUSH1 0xE5 SHL DUP3 MSTORE PUSH1 0x4 DUP3 ADD MSTORE PUSH1 0x10 PUSH1 0x24 DUP3 ADD MSTORE PUSH16 0x2737BA1039B0B6329031B932B0BA37B9 PUSH1 0x81 SHL PUSH1 0x44 DUP3 ADD MSTORE REVERT JUMPDEST PUSH2 0xD12 SWAP1 DUP4 RETURNDATASIZE DUP6 GT PUSH2 0x7DF JUMPI PUSH2 0x7D1 DUP2 DUP4 PUSH2 0x1E3A JUMP JUMPDEST POP CODESIZE PUSH2 0xC6F JUMP JUMPDEST PUSH2 0x9A3 SWAP2 POP DUP6 RETURNDATASIZE DUP8 GT PUSH2 0x6FA JUMPI PUSH2 0x6EC DUP2 DUP4 PUSH2 0x1E3A JUMP JUMPDEST PUSH2 0xD47 SWAP2 POP DUP5 RETURNDATASIZE DUP7 GT PUSH2 0x7DF JUMPI PUSH2 0x7D1 DUP2 DUP4 PUSH2 0x1E3A JUMP JUMPDEST CODESIZE PUSH2 0xC00 JUMP JUMPDEST PUSH2 0xD64 SWAP2 POP DUP5 RETURNDATASIZE DUP7 GT PUSH2 0x7DF JUMPI PUSH2 0x7D1 DUP2 DUP4 PUSH2 0x1E3A JUMP JUMPDEST CODESIZE PUSH2 0xBD1 JUMP JUMPDEST POP DUP1 REVERT JUMPDEST POP CALLVALUE PUSH2 0x191 JUMPI DUP1 PUSH1 0x3 NOT CALLDATASIZE ADD SLT PUSH2 0x191 JUMPI PUSH2 0xD87 PUSH2 0x1DDC JUMP JUMPDEST PUSH2 0xD8F PUSH2 0x1FB0 JUMP JUMPDEST PUSH1 0x1 PUSH1 0xFF NOT PUSH1 0x2 SLOAD AND OR PUSH1 0x2 SSTORE PUSH32 0x62E78CEA01BEE320CD4E420270B5EA74000D11B0C9F74754EBDBFC544B05A258 PUSH1 0x20 PUSH1 0x40 MLOAD CALLER DUP2 MSTORE LOG1 DUP1 RETURN JUMPDEST POP CALLVALUE PUSH2 0x191 JUMPI DUP1 PUSH1 0x3 NOT CALLDATASIZE ADD SLT PUSH2 0x191 JUMPI PUSH2 0xDE2 PUSH2 0x1DDC JUMP JUMPDEST PUSH1 0x40 MLOAD PUSH4 0x670D2969 PUSH1 0xE1 SHL DUP2 MSTORE PUSH1 0x20 SWAP1 PUSH1 0x1 PUSH1 0x1 PUSH1 0xA0 SHL SUB SWAP1 DUP3 DUP2 PUSH1 0x4 DUP2 PUSH32 0x0 DUP7 AND GAS STATICCALL SWAP1 DUP2 ISZERO PUSH2 0x9E7 JUMPI DUP3 SWAP2 DUP5 SWAP2 DUP7 SWAP2 PUSH2 0xEC5 JUMPI JUMPDEST POP PUSH1 0x4 PUSH1 0x40 MLOAD DUP1 SWAP5 DUP2 SWAP4 PUSH4 0x6D4726D9 PUSH1 0xE0 SHL DUP4 MSTORE AND GAS STATICCALL SWAP3 DUP4 ISZERO PUSH2 0x9E7 JUMPI DUP5 SWAP4 PUSH2 0xE88 JUMPI JUMPDEST POP POP PUSH1 0x2 DUP1 SLOAD PUSH2 0x100 PUSH1 0x1 PUSH1 0xA8 SHL SUB NOT AND PUSH1 0x8 SWAP4 SWAP1 SWAP4 SHL PUSH2 0x100 PUSH1 0x1 PUSH1 0xA8 SHL SUB AND SWAP3 SWAP1 SWAP3 OR SWAP1 SWAP2 SSTORE POP DUP1 RETURN JUMPDEST SWAP1 DUP1 SWAP3 SWAP4 POP DUP2 RETURNDATASIZE DUP4 GT PUSH2 0xEBE JUMPI JUMPDEST PUSH2 0xEA0 DUP2 DUP4 PUSH2 0x1E3A JUMP JUMPDEST DUP2 ADD SUB SLT PUSH2 0xEBA JUMPI MLOAD SWAP1 DUP2 AND DUP2 SUB PUSH2 0xD6A JUMPI CODESIZE DUP1 DUP1 PUSH2 0xE5C JUMP JUMPDEST DUP3 DUP1 REVERT JUMPDEST POP RETURNDATASIZE PUSH2 0xE96 JUMP JUMPDEST PUSH2 0xEDC SWAP2 POP DUP3 RETURNDATASIZE DUP5 GT PUSH2 0x7DF JUMPI PUSH2 0x7D1 DUP2 DUP4 PUSH2 0x1E3A JUMP JUMPDEST CODESIZE PUSH2 0xE37 JUMP JUMPDEST POP CALLVALUE PUSH2 0x191 JUMPI PUSH1 0x20 CALLDATASIZE PUSH1 0x3 NOT ADD SLT PUSH2 0x191 JUMPI PUSH1 0x20 SWAP1 PUSH1 0x40 SWAP1 PUSH1 0x1 PUSH1 0x1 PUSH1 0xA0 SHL SUB PUSH2 0xF0A PUSH2 0x1DB0 JUMP JUMPDEST AND DUP2 MSTORE PUSH1 0x6 DUP4 MSTORE KECCAK256 SLOAD PUSH1 0x40 MLOAD SWAP1 DUP2 MSTORE RETURN JUMPDEST POP CALLVALUE PUSH2 0x191 JUMPI DUP1 PUSH1 0x3 NOT CALLDATASIZE ADD SLT PUSH2 0x191 JUMPI PUSH2 0xF34 PUSH2 0x1DDC JUMP JUMPDEST PUSH1 0x0 DUP1 SLOAD PUSH1 0x1 PUSH1 0x1 PUSH1 0xA0 SHL SUB NOT DUP2 AND DUP3 SSTORE PUSH1 0x1 PUSH1 0x1 PUSH1 0xA0 SHL SUB AND PUSH32 0x8BE0079C531659141344CD1FD0A4F28419497F9722A3DAAFE3B4186F6B6457E0 DUP3 DUP1 LOG3 DUP1 RETURN JUMPDEST POP CALLVALUE PUSH2 0x191 JUMPI PUSH1 0x40 CALLDATASIZE PUSH1 0x3 NOT ADD SLT PUSH2 0x191 JUMPI PUSH2 0xF8F PUSH2 0x1DB0 JUMP JUMPDEST PUSH1 0x40 PUSH2 0xF99 PUSH2 0x1DC6 JUMP JUMPDEST SWAP3 PUSH1 0x1 DUP1 PUSH1 0xA0 SHL SUB DUP1 SWAP4 AND DUP2 MSTORE PUSH1 0x4 PUSH1 0x20 MSTORE KECCAK256 SWAP2 AND PUSH1 0x0 MSTORE PUSH1 0x20 MSTORE PUSH1 0x20 PUSH1 0x40 PUSH1 0x0 KECCAK256 SLOAD PUSH1 0x40 MLOAD SWAP1 DUP2 MSTORE RETURN JUMPDEST POP PUSH1 0x60 CALLDATASIZE PUSH1 0x3 NOT ADD SLT PUSH2 0x191 JUMPI PUSH2 0xFD9 PUSH2 0x1DB0 JUMP JUMPDEST PUSH1 0x44 CALLDATALOAD PUSH1 0x1 PUSH1 0x1 PUSH1 0xA0 SHL SUB DUP2 DUP2 AND SWAP3 PUSH1 0x24 DUP1 CALLDATALOAD SWAP4 SWAP1 SWAP2 SWAP1 DUP6 SWAP1 SUB PUSH2 0x15DD JUMPI DUP3 SWAP1 PUSH2 0x1001 PUSH2 0x1FB0 JUMP JUMPDEST PUSH2 0x1009 PUSH2 0x2123 JUMP JUMPDEST AND SWAP2 DUP3 ISZERO ISZERO DUP1 PUSH2 0x15D4 JUMPI JUMPDEST ISZERO PUSH2 0x159E JUMPI DUP4 ISZERO SWAP1 PUSH2 0x1026 DUP3 ISZERO PUSH2 0x1F24 JUMP JUMPDEST DUP4 DUP8 MSTORE PUSH1 0x20 SWAP3 PUSH1 0x3 DUP5 MSTORE PUSH1 0x40 DUP9 KECCAK256 PUSH2 0x1041 PUSH1 0xFF DUP3 SLOAD AND PUSH2 0x1FCE JUMP JUMPDEST DUP6 DUP10 MSTORE PUSH1 0x5 DUP6 MSTORE PUSH1 0x40 DUP1 DUP11 KECCAK256 SLOAD SWAP1 MLOAD PUSH4 0x391FF951 PUSH1 0xE1 SHL DUP2 MSTORE SWAP1 DUP7 DUP3 PUSH1 0x4 DUP2 PUSH32 0x0 DUP10 AND GAS STATICCALL SWAP1 DUP2 ISZERO PUSH2 0x13DC JUMPI DUP12 SWAP2 PUSH2 0x1569 JUMPI JUMPDEST PUSH2 0x109D SWAP3 POP PUSH2 0x200B JUMP JUMPDEST TIMESTAMP GT PUSH2 0x1536 JUMPI PUSH1 0x1 DUP2 ADD DUP1 SLOAD DUP1 DUP10 GT PUSH2 0x14F2 JUMPI PUSH1 0x2 DUP4 ADD SLOAD PUSH2 0x10BF DUP2 DUP12 PUSH2 0x202E JUMP JUMPDEST SWAP7 DUP2 PUSH2 0x1488 JUMPI JUMPDEST POP POP DUP8 DUP12 MSTORE PUSH1 0x4 DUP8 MSTORE PUSH1 0x40 DUP12 KECCAK256 DUP11 DUP13 MSTORE DUP8 MSTORE PUSH2 0x10E6 DUP10 PUSH1 0x40 DUP14 KECCAK256 SLOAD PUSH2 0x200B JUMP JUMPDEST SWAP1 DUP9 DUP13 MSTORE PUSH1 0x4 DUP9 MSTORE PUSH1 0x40 DUP13 KECCAK256 DUP12 DUP14 MSTORE DUP9 MSTORE PUSH1 0x40 DUP13 KECCAK256 SLOAD DUP3 LT PUSH2 0x1444 JUMPI DUP10 PUSH1 0x3 DUP6 ADD SLOAD DUP1 PUSH2 0x13E7 JUMPI JUMPDEST POP PUSH2 0x1118 SWAP2 PUSH2 0x2041 JUMP JUMPDEST DUP3 SSTORE PUSH1 0x4 DUP4 ADD PUSH2 0x1129 DUP11 DUP3 SLOAD PUSH2 0x200B JUMP JUMPDEST SWAP1 SSTORE DUP8 DUP12 MSTORE PUSH1 0x4 DUP8 MSTORE PUSH1 0x40 DUP12 KECCAK256 DUP11 DUP13 MSTORE DUP8 MSTORE PUSH1 0x40 DUP12 KECCAK256 SSTORE PUSH1 0x40 MLOAD SWAP3 PUSH4 0x6FAD7E95 PUSH1 0xE1 SHL DUP5 MSTORE DUP7 DUP5 PUSH1 0x4 DUP2 DUP12 GAS STATICCALL SWAP4 DUP5 ISZERO PUSH2 0x13DC JUMPI DUP12 SWAP5 PUSH2 0x13BD JUMPI JUMPDEST POP PUSH1 0x5 DUP4 ADD DUP1 SLOAD SWAP1 SWAP5 SWAP1 DUP7 AND ISZERO PUSH2 0x135C JUMPI CALLVALUE PUSH2 0x130A JUMPI DUP6 DUP6 SLOAD AND PUSH1 0x40 MLOAD SWAP1 PUSH4 0x23B872DD PUSH1 0xE0 SHL DUP11 DUP4 ADD MSTORE CALLER DUP5 DUP4 ADD MSTORE ADDRESS PUSH1 0x44 DUP4 ADD MSTORE DUP9 PUSH1 0x64 DUP4 ADD MSTORE PUSH1 0x64 DUP3 MSTORE DUP2 PUSH1 0xA0 DUP2 ADD LT PUSH8 0xFFFFFFFFFFFFFFFF PUSH1 0xA0 DUP5 ADD GT OR PUSH2 0x12F7 JUMPI DUP2 PUSH2 0x11CF SWAP2 PUSH1 0xA0 DUP11 SWAP6 SWAP5 ADD PUSH1 0x40 MSTORE PUSH2 0x204E JUMP JUMPDEST DUP10 DUP14 MSTORE PUSH1 0x6 DUP10 MSTORE PUSH1 0x40 DUP14 KECCAK256 PUSH2 0x11E5 DUP10 DUP3 SLOAD PUSH2 0x200B JUMP JUMPDEST SWAP1 SSTORE JUMPDEST AND SWAP1 DUP12 DUP7 DUP6 SLOAD PUSH1 0x8 SHR AND DUP4 EXTCODESIZE ISZERO PUSH2 0xD6A JUMPI PUSH1 0xC4 DUP14 SWAP2 DUP4 DUP15 SWAP7 PUSH1 0x40 MLOAD SWAP8 DUP9 SWAP6 DUP7 SWAP5 PUSH4 0x79212195 PUSH1 0xE1 SHL DUP7 MSTORE PUSH1 0x4 DUP7 ADD MSTORE DUP9 DUP6 ADD MSTORE PUSH1 0x1 PUSH1 0x44 DUP6 ADD MSTORE PUSH1 0x64 DUP5 ADD MSTORE PUSH1 0xA0 PUSH1 0x84 DUP5 ADD MSTORE DUP2 PUSH1 0xA4 DUP5 ADD MSTORE GAS CALL DUP1 ISZERO PUSH2 0x12EC JUMPI PUSH2 0x12BC JUMPI JUMPDEST POP POP SLOAD ISZERO PUSH2 0x1289 JUMPI JUMPDEST POP SLOAD AND SWAP2 PUSH1 0x40 MLOAD SWAP5 DUP6 MSTORE DUP5 ADD MSTORE PUSH1 0x40 DUP4 ADD MSTORE PUSH32 0x16A6B05063764EEC367F7F75E1D59322471F7BD0CC347509F5796D7CE8E3E866 PUSH1 0x60 CALLER SWAP4 LOG4 PUSH1 0x1 DUP1 SSTORE DUP1 RETURN JUMPDEST DUP1 SLOAD PUSH1 0xFF NOT AND SWAP1 SSTORE DUP5 PUSH32 0x50E9428F1419CDAEC089C86C412FD52565CBE415F195D893357A3A8B2A0E646A DUP10 DUP1 LOG2 CODESIZE PUSH2 0x124A JUMP JUMPDEST PUSH8 0xFFFFFFFFFFFFFFFF DUP3 SWAP13 SWAP4 SWAP13 GT PUSH2 0x12DA JUMPI POP PUSH1 0x40 MSTORE SWAP9 CODESIZE DUP1 PUSH2 0x1241 JUMP JUMPDEST PUSH4 0x4E487B71 PUSH1 0xE0 SHL DUP4 MSTORE PUSH1 0x41 PUSH1 0x4 MSTORE DUP3 REVERT JUMPDEST PUSH1 0x40 MLOAD RETURNDATASIZE DUP15 DUP3 RETURNDATACOPY RETURNDATASIZE SWAP1 REVERT JUMPDEST PUSH4 0x4E487B71 PUSH1 0xE0 SHL DUP15 MSTORE PUSH1 0x41 PUSH1 0x4 MSTORE DUP4 DUP15 REVERT JUMPDEST PUSH1 0x40 MLOAD PUSH3 0x461BCD PUSH1 0xE5 SHL DUP2 MSTORE PUSH1 0x4 DUP2 ADD DUP10 SWAP1 MSTORE PUSH1 0x25 DUP2 DUP5 ADD MSTORE PUSH32 0x455448206E6F7420616363657074656420666F7220737461626C6520636F696E PUSH1 0x44 DUP3 ADD MSTORE PUSH5 0x2073616C65 PUSH1 0xD8 SHL PUSH1 0x64 DUP3 ADD MSTORE PUSH1 0x84 SWAP1 REVERT JUMPDEST DUP7 CALLVALUE SUB PUSH2 0x1382 JUMPI DUP6 SWAP1 DUP10 DUP14 MSTORE PUSH1 0x6 DUP10 MSTORE PUSH1 0x40 DUP14 KECCAK256 PUSH2 0x137B CALLVALUE DUP3 SLOAD PUSH2 0x200B JUMP JUMPDEST SWAP1 SSTORE PUSH2 0x11E8 JUMP JUMPDEST PUSH1 0x40 MLOAD PUSH3 0x461BCD PUSH1 0xE5 SHL DUP2 MSTORE PUSH1 0x4 DUP2 ADD DUP10 SWAP1 MSTORE PUSH1 0x14 DUP2 DUP5 ADD MSTORE PUSH20 0x125B98DBDC9C9958DD0811551208185B5BDD5B9D PUSH1 0x62 SHL PUSH1 0x44 DUP3 ADD MSTORE PUSH1 0x64 SWAP1 REVERT JUMPDEST PUSH2 0x13D5 SWAP2 SWAP5 POP DUP8 RETURNDATASIZE DUP10 GT PUSH2 0x7DF JUMPI PUSH2 0x7D1 DUP2 DUP4 PUSH2 0x1E3A JUMP JUMPDEST SWAP3 CODESIZE PUSH2 0x1164 JUMP JUMPDEST PUSH1 0x40 MLOAD RETURNDATASIZE DUP14 DUP3 RETURNDATACOPY RETURNDATASIZE SWAP1 REVERT JUMPDEST SWAP1 POP DUP3 GT PUSH2 0x13F6 JUMPI DUP10 CODESIZE PUSH2 0x110E JUMP JUMPDEST PUSH1 0x40 MLOAD PUSH3 0x461BCD PUSH1 0xE5 SHL DUP2 MSTORE PUSH1 0x4 DUP2 ADD DUP10 SWAP1 MSTORE PUSH1 0x21 DUP2 DUP8 ADD MSTORE PUSH32 0x45786365656473206D6178696D756D20736861726573207065722077616C6C65 PUSH1 0x44 DUP3 ADD MSTORE PUSH1 0x1D PUSH1 0xFA SHL PUSH1 0x64 DUP3 ADD MSTORE PUSH1 0x84 SWAP1 REVERT JUMPDEST PUSH1 0x40 MLOAD PUSH3 0x461BCD PUSH1 0xE5 SHL DUP2 MSTORE PUSH1 0x4 DUP2 ADD DUP10 SWAP1 MSTORE PUSH1 0x18 DUP2 DUP8 ADD MSTORE PUSH32 0x507572636861736520616D6F756E74206F766572666C6F770000000000000000 PUSH1 0x44 DUP3 ADD MSTORE PUSH1 0x64 SWAP1 REVERT JUMPDEST PUSH2 0x14DF JUMPI DUP10 DUP8 DIV SUB PUSH2 0x149B JUMPI CODESIZE DUP1 PUSH2 0x10C6 JUMP JUMPDEST PUSH1 0x40 MLOAD PUSH3 0x461BCD PUSH1 0xE5 SHL DUP2 MSTORE PUSH1 0x4 DUP2 ADD DUP9 SWAP1 MSTORE PUSH1 0x1A DUP2 DUP7 ADD MSTORE PUSH32 0x50726963652063616C63756C6174696F6E206F766572666C6F77000000000000 PUSH1 0x44 DUP3 ADD MSTORE PUSH1 0x64 SWAP1 REVERT JUMPDEST PUSH4 0x4E487B71 PUSH1 0xE0 SHL DUP13 MSTORE PUSH1 0x12 PUSH1 0x4 MSTORE DUP5 DUP13 REVERT JUMPDEST PUSH1 0x40 MLOAD PUSH3 0x461BCD PUSH1 0xE5 SHL DUP2 MSTORE PUSH1 0x4 DUP2 ADD DUP9 SWAP1 MSTORE PUSH1 0x1B DUP2 DUP7 ADD MSTORE PUSH32 0x4E6F7420656E6F7567682073686172657320617661696C61626C650000000000 PUSH1 0x44 DUP3 ADD MSTORE PUSH1 0x64 SWAP1 REVERT JUMPDEST PUSH1 0x40 MLOAD PUSH3 0x461BCD PUSH1 0xE5 SHL DUP2 MSTORE PUSH1 0x4 DUP2 ADD DUP7 SWAP1 MSTORE PUSH1 0xC DUP2 DUP5 ADD MSTORE PUSH12 0x14D85B1948195E1C1A5C9959 PUSH1 0xA2 SHL PUSH1 0x44 DUP3 ADD MSTORE PUSH1 0x64 SWAP1 REVERT JUMPDEST SWAP1 POP DUP7 DUP3 DUP2 RETURNDATASIZE DUP4 GT PUSH2 0x1597 JUMPI JUMPDEST PUSH2 0x1580 DUP2 DUP4 PUSH2 0x1E3A JUMP JUMPDEST DUP2 ADD SUB SLT PUSH2 0x1593 JUMPI PUSH2 0x109D SWAP2 MLOAD SWAP1 PUSH2 0x1093 JUMP JUMPDEST DUP11 DUP1 REVERT JUMPDEST POP RETURNDATASIZE PUSH2 0x1576 JUMP JUMPDEST PUSH1 0x40 MLOAD PUSH3 0x461BCD PUSH1 0xE5 SHL DUP2 MSTORE PUSH1 0x20 PUSH1 0x4 DUP3 ADD MSTORE PUSH1 0xF DUP2 DUP5 ADD MSTORE PUSH15 0x496E76616C69642061646472657373 PUSH1 0x88 SHL PUSH1 0x44 DUP3 ADD MSTORE PUSH1 0x64 SWAP1 REVERT JUMPDEST POP DUP5 ISZERO ISZERO PUSH2 0x1014 JUMP JUMPDEST DUP6 DUP1 REVERT JUMPDEST POP CALLVALUE PUSH2 0x191 JUMPI DUP1 PUSH1 0x3 NOT CALLDATASIZE ADD SLT PUSH2 0x191 JUMPI PUSH1 0x2 SLOAD PUSH1 0x40 MLOAD PUSH1 0x8 SWAP2 SWAP1 SWAP2 SHR PUSH1 0x1 PUSH1 0x1 PUSH1 0xA0 SHL SUB AND DUP2 MSTORE PUSH1 0x20 SWAP1 RETURN JUMPDEST POP CALLVALUE PUSH2 0x191 JUMPI PUSH1 0x20 CALLDATASIZE PUSH1 0x3 NOT ADD SLT PUSH2 0x191 JUMPI PUSH1 0x20 SWAP1 PUSH1 0x40 SWAP1 PUSH1 0x1 PUSH1 0x1 PUSH1 0xA0 SHL SUB PUSH2 0x1636 PUSH2 0x1DB0 JUMP JUMPDEST AND DUP2 MSTORE PUSH1 0x5 DUP4 MSTORE KECCAK256 SLOAD PUSH1 0x40 MLOAD SWAP1 DUP2 MSTORE RETURN JUMPDEST POP CALLVALUE PUSH2 0x191 JUMPI PUSH1 0x20 DUP1 PUSH1 0x3 NOT CALLDATASIZE ADD SLT PUSH2 0xD6A JUMPI PUSH2 0x1662 PUSH2 0x1DB0 JUMP JUMPDEST PUSH2 0x166A PUSH2 0x2123 JUMP JUMPDEST PUSH1 0x40 MLOAD PUSH4 0x8DA5CB5B PUSH1 0xE0 SHL DUP2 MSTORE PUSH1 0x1 PUSH1 0x1 PUSH1 0xA0 SHL SUB SWAP2 DUP3 AND SWAP2 SWAP1 DUP4 DUP2 PUSH1 0x4 DUP2 DUP7 GAS STATICCALL DUP1 ISZERO PUSH2 0x97F JUMPI PUSH2 0x16A6 SWAP2 DUP7 SWAP2 PUSH2 0x1A89 JUMPI POP DUP3 AND CALLER EQ PUSH2 0x1E7B JUMP JUMPDEST PUSH1 0x40 MLOAD PUSH4 0x6FAD7E95 PUSH1 0xE1 SHL DUP2 MSTORE SWAP3 DUP1 DUP5 PUSH1 0x4 DUP2 DUP7 GAS STATICCALL SWAP4 DUP5 ISZERO PUSH2 0x97F JUMPI DUP6 SWAP5 PUSH2 0x1A6A JUMPI JUMPDEST POP PUSH1 0x40 MLOAD PUSH4 0x1B3D58E9 PUSH1 0xE2 SHL DUP2 MSTORE SWAP4 DUP3 AND PUSH1 0x4 DUP6 ADD MSTORE PUSH32 0x0 DUP3 AND SWAP4 PUSH1 0x24 SWAP1 DUP3 DUP2 DUP4 DUP2 DUP10 GAS STATICCALL DUP1 ISZERO PUSH2 0x1A5F JUMPI PUSH2 0x1724 SWAP2 DUP9 SWAP2 PUSH2 0x1A48 JUMPI POP PUSH2 0x1ED8 JUMP JUMPDEST DUP4 DUP7 MSTORE PUSH1 0x6 DUP3 MSTORE PUSH1 0x40 DUP7 KECCAK256 SLOAD SWAP3 DUP4 ISZERO PUSH2 0x1A0D JUMPI DUP5 DUP8 MSTORE PUSH1 0x3 DUP4 MSTORE PUSH1 0x4 DUP4 DUP3 PUSH1 0x5 PUSH1 0x40 DUP12 KECCAK256 ADD SLOAD AND SWAP3 PUSH1 0x2 SLOAD PUSH1 0x8 SHR AND PUSH1 0x40 MLOAD SWAP3 DUP4 DUP1 SWAP3 PUSH4 0x191EBE9D PUSH1 0xE3 SHL DUP3 MSTORE GAS STATICCALL SWAP1 DUP2 ISZERO PUSH2 0x1A02 JUMPI DUP9 SWAP2 PUSH2 0x19CF JUMPI JUMPDEST POP PUSH2 0x1782 PUSH2 0x2710 SWAP2 DUP7 PUSH2 0x202E JUMP JUMPDEST DIV SWAP2 PUSH2 0x178E DUP4 DUP7 PUSH2 0x2041 JUMP JUMPDEST DUP7 DUP10 MSTORE PUSH1 0x6 DUP6 MSTORE PUSH1 0x40 DUP10 KECCAK256 DUP10 SWAP1 SSTORE SWAP5 DUP3 ISZERO PUSH2 0x18C6 JUMPI PUSH1 0x40 MLOAD PUSH4 0x70A08231 PUSH1 0xE0 SHL DUP2 MSTORE ADDRESS PUSH1 0x4 DUP3 ADD MSTORE DUP6 DUP2 DUP5 DUP2 DUP8 GAS STATICCALL SWAP1 DUP2 ISZERO PUSH2 0x18BB JUMPI DUP11 SWAP2 PUSH2 0x188A JUMPI JUMPDEST POP LT PUSH2 0x1847 JUMPI POP PUSH2 0x17DD DUP5 CALLER DUP4 PUSH2 0x2146 JUMP JUMPDEST DUP2 DUP7 DUP2 PUSH2 0x1836 JUMPI JUMPDEST POP POP POP JUMPDEST PUSH1 0x40 MLOAD SWAP3 DUP4 MSTORE PUSH32 0xA92FF919B850E4909AB2261D907EF955F11BC1716733A6CBECE38D163A69AF8A SWAP3 DUP5 DUP5 DUP5 CALLER SWAP4 LOG3 DUP1 PUSH2 0x1825 JUMPI JUMPDEST DUP6 PUSH1 0x1 DUP1 SSTORE DUP1 RETURN JUMPDEST PUSH1 0x40 MLOAD SWAP1 DUP2 MSTORE LOG3 CODESIZE DUP1 DUP1 DUP1 DUP1 PUSH2 0x181D JUMP JUMPDEST PUSH2 0x183F SWAP3 PUSH2 0x2146 JUMP JUMPDEST CODESIZE DUP2 DUP7 PUSH2 0x17E5 JUMP JUMPDEST DUP4 PUSH1 0x1D PUSH1 0x64 SWAP3 PUSH1 0x40 MLOAD SWAP3 PUSH3 0x461BCD PUSH1 0xE5 SHL DUP5 MSTORE PUSH1 0x4 DUP5 ADD MSTORE DUP3 ADD MSTORE PUSH32 0x496E73756666696369656E7420636F6E74726163742062616C616E6365000000 PUSH1 0x44 DUP3 ADD MSTORE REVERT JUMPDEST SWAP1 POP DUP6 DUP2 DUP2 RETURNDATASIZE DUP4 GT PUSH2 0x18B4 JUMPI JUMPDEST PUSH2 0x18A1 DUP2 DUP4 PUSH2 0x1E3A JUMP JUMPDEST DUP2 ADD SUB SLT PUSH2 0x18B0 JUMPI MLOAD CODESIZE PUSH2 0x17CB JUMP JUMPDEST DUP10 DUP1 REVERT JUMPDEST POP RETURNDATASIZE PUSH2 0x1897 JUMP JUMPDEST PUSH1 0x40 MLOAD RETURNDATASIZE DUP13 DUP3 RETURNDATACOPY RETURNDATASIZE SWAP1 REVERT JUMPDEST SWAP1 SWAP2 POP SELFBALANCE LT PUSH2 0x198C JUMPI DUP7 DUP1 DUP1 DUP1 DUP8 CALLER GAS CALL PUSH2 0x18DF PUSH2 0x1F70 JUMP JUMPDEST POP ISZERO PUSH2 0x1949 JUMPI DUP2 PUSH2 0x18F1 JUMPI JUMPDEST POP PUSH2 0x17E9 JUMP JUMPDEST DUP7 DUP1 DUP1 DUP1 DUP6 DUP11 GAS CALL PUSH2 0x1901 PUSH2 0x1F70 JUMP JUMPDEST POP PUSH2 0x18EB JUMPI DUP3 PUSH1 0x1F PUSH1 0x64 SWAP3 PUSH1 0x40 MLOAD SWAP3 PUSH3 0x461BCD PUSH1 0xE5 SHL DUP5 MSTORE PUSH1 0x4 DUP5 ADD MSTORE DUP3 ADD MSTORE PUSH32 0x455448207472616E7366657220746F2070726F746F636F6C206661696C656400 PUSH1 0x44 DUP3 ADD MSTORE REVERT JUMPDEST DUP3 PUSH1 0x1B PUSH1 0x64 SWAP3 PUSH1 0x40 MLOAD SWAP3 PUSH3 0x461BCD PUSH1 0xE5 SHL DUP5 MSTORE PUSH1 0x4 DUP5 ADD MSTORE DUP3 ADD MSTORE PUSH32 0x455448207472616E7366657220746F2075736572206661696C65640000000000 PUSH1 0x44 DUP3 ADD MSTORE REVERT JUMPDEST DUP3 PUSH1 0x18 PUSH1 0x64 SWAP3 PUSH1 0x40 MLOAD SWAP3 PUSH3 0x461BCD PUSH1 0xE5 SHL DUP5 MSTORE PUSH1 0x4 DUP5 ADD MSTORE DUP3 ADD MSTORE PUSH32 0x496E73756666696369656E74204554482062616C616E63650000000000000000 PUSH1 0x44 DUP3 ADD MSTORE REVERT JUMPDEST SWAP1 POP DUP4 DUP2 DUP2 RETURNDATASIZE DUP4 GT PUSH2 0x19FB JUMPI JUMPDEST PUSH2 0x19E6 DUP2 DUP4 PUSH2 0x1E3A JUMP JUMPDEST DUP2 ADD SUB SLT PUSH2 0x19F7 JUMPI MLOAD PUSH2 0x1782 PUSH2 0x1774 JUMP JUMPDEST DUP8 DUP1 REVERT JUMPDEST POP RETURNDATASIZE PUSH2 0x19DC JUMP JUMPDEST PUSH1 0x40 MLOAD RETURNDATASIZE DUP11 DUP3 RETURNDATACOPY RETURNDATASIZE SWAP1 REVERT JUMPDEST PUSH1 0x40 MLOAD PUSH3 0x461BCD PUSH1 0xE5 SHL DUP2 MSTORE PUSH1 0x4 DUP2 ADD DUP5 SWAP1 MSTORE PUSH1 0x14 DUP2 DUP5 ADD MSTORE PUSH20 0x4E6F2066756E647320746F207769746864726177 PUSH1 0x60 SHL PUSH1 0x44 DUP3 ADD MSTORE PUSH1 0x64 SWAP1 REVERT JUMPDEST PUSH2 0x9A3 SWAP2 POP DUP5 RETURNDATASIZE DUP7 GT PUSH2 0x6FA JUMPI PUSH2 0x6EC DUP2 DUP4 PUSH2 0x1E3A JUMP JUMPDEST PUSH1 0x40 MLOAD RETURNDATASIZE DUP10 DUP3 RETURNDATACOPY RETURNDATASIZE SWAP1 REVERT JUMPDEST DUP2 PUSH2 0x1A82 SWAP3 SWAP6 POP RETURNDATASIZE DUP7 GT PUSH2 0x7DF JUMPI PUSH2 0x7D1 DUP2 DUP4 PUSH2 0x1E3A JUMP JUMPDEST SWAP3 CODESIZE PUSH2 0x16CA JUMP JUMPDEST PUSH2 0xD64 SWAP2 POP DUP6 RETURNDATASIZE DUP8 GT PUSH2 0x7DF JUMPI PUSH2 0x7D1 DUP2 DUP4 PUSH2 0x1E3A JUMP JUMPDEST POP CALLVALUE PUSH2 0x191 JUMPI DUP1 PUSH1 0x3 NOT CALLDATASIZE ADD SLT PUSH2 0x191 JUMPI PUSH1 0x20 PUSH1 0xFF PUSH1 0x2 SLOAD AND PUSH1 0x40 MLOAD SWAP1 ISZERO ISZERO DUP2 MSTORE RETURN JUMPDEST POP CALLVALUE PUSH2 0x191 JUMPI DUP1 PUSH1 0x3 NOT CALLDATASIZE ADD SLT PUSH2 0x191 JUMPI PUSH1 0x40 MLOAD PUSH32 0x0 PUSH1 0x1 PUSH1 0x1 PUSH1 0xA0 SHL SUB AND DUP2 MSTORE PUSH1 0x20 SWAP1 RETURN JUMPDEST POP CALLVALUE PUSH2 0x191 JUMPI DUP1 PUSH1 0x3 NOT CALLDATASIZE ADD SLT PUSH2 0x191 JUMPI PUSH2 0x1B21 PUSH2 0x1DDC JUMP JUMPDEST PUSH1 0x2 SLOAD PUSH1 0xFF DUP2 AND ISZERO PUSH2 0x1B61 JUMPI PUSH1 0xFF NOT AND PUSH1 0x2 SSTORE PUSH32 0x5DB9EE0A495BF2E6FF9C91A7834C1BA4FDD244A5E8AA4E537BD38AEAE4B073AA PUSH1 0x20 PUSH1 0x40 MLOAD CALLER DUP2 MSTORE LOG1 DUP1 RETURN JUMPDEST PUSH1 0x40 MLOAD PUSH4 0x8DFC202B PUSH1 0xE0 SHL DUP2 MSTORE PUSH1 0x4 SWAP1 REVERT JUMPDEST POP CALLVALUE PUSH2 0x191 JUMPI PUSH1 0x20 DUP1 PUSH1 0x3 NOT CALLDATASIZE ADD SLT PUSH2 0xD6A JUMPI PUSH1 0x1 PUSH1 0x1 PUSH1 0xA0 SHL SUB DUP1 PUSH2 0x1B97 PUSH2 0x1DB0 JUMP JUMPDEST PUSH1 0x40 MLOAD PUSH4 0x6FAD7E95 PUSH1 0xE1 SHL DUP2 MSTORE SWAP3 SWAP2 AND DUP4 DUP4 PUSH1 0x4 DUP2 DUP5 GAS STATICCALL SWAP3 DUP4 ISZERO PUSH2 0x97F JUMPI PUSH1 0x4 SWAP4 PUSH2 0x1C5E JUMPI JUMPDEST POP DUP5 MSTORE PUSH1 0x5 DUP4 MSTORE DUP3 PUSH1 0x40 DUP6 KECCAK256 SLOAD SWAP2 PUSH1 0x40 MLOAD SWAP4 DUP5 DUP1 SWAP3 PUSH4 0x391FF951 PUSH1 0xE1 SHL DUP3 MSTORE PUSH32 0x0 AND GAS STATICCALL SWAP2 DUP3 ISZERO PUSH2 0x9E7 JUMPI DUP5 SWAP3 PUSH2 0x1C24 JUMPI JUMPDEST POP SWAP1 PUSH2 0x1C1A SWAP2 PUSH2 0x200B JUMP JUMPDEST TIMESTAMP GT PUSH1 0x40 MLOAD SWAP1 DUP2 MSTORE RETURN JUMPDEST SWAP1 SWAP2 POP DUP3 DUP2 DUP2 RETURNDATASIZE DUP4 GT PUSH2 0x1C57 JUMPI JUMPDEST PUSH2 0x1C3C DUP2 DUP4 PUSH2 0x1E3A JUMP JUMPDEST DUP2 ADD SUB SLT PUSH2 0x1C53 JUMPI PUSH2 0x1C1A SWAP3 SWAP4 POP MLOAD SWAP1 DUP4 SWAP3 PUSH2 0x1C0F JUMP JUMPDEST DUP4 DUP1 REVERT JUMPDEST POP RETURNDATASIZE PUSH2 0x1C32 JUMP JUMPDEST PUSH2 0x1C74 SWAP1 DUP6 RETURNDATASIZE DUP8 GT PUSH2 0x7DF JUMPI PUSH2 0x7D1 DUP2 DUP4 PUSH2 0x1E3A JUMP JUMPDEST POP CODESIZE PUSH2 0x1BBE JUMP JUMPDEST SWAP1 POP CALLVALUE PUSH2 0xD6A JUMPI PUSH1 0x20 SWAP1 DUP2 PUSH1 0x3 NOT CALLDATASIZE ADD SLT PUSH2 0xEBA JUMPI DUP3 PUSH1 0xC0 PUSH2 0x1C9B PUSH2 0x1DB0 JUMP JUMPDEST SWAP3 PUSH2 0x1CA5 DUP2 PUSH2 0x1E08 JUMP JUMPDEST DUP3 DUP2 MSTORE DUP3 DUP6 DUP3 ADD MSTORE DUP3 PUSH1 0x40 DUP3 ADD MSTORE DUP3 PUSH1 0x60 DUP3 ADD MSTORE DUP3 PUSH1 0x80 DUP3 ADD MSTORE DUP3 PUSH1 0xA0 DUP3 ADD MSTORE ADD MSTORE PUSH1 0x1 DUP1 PUSH1 0xA0 SHL SUB DUP1 SWAP2 AND PUSH1 0x40 MLOAD PUSH4 0x6FAD7E95 PUSH1 0xE1 SHL DUP2 MSTORE DUP4 DUP2 PUSH1 0x4 DUP2 DUP6 GAS STATICCALL DUP1 ISZERO PUSH2 0x97F JUMPI SWAP2 PUSH1 0xE0 SWAP6 SWAP2 PUSH1 0x40 SWAP4 PUSH2 0x1D93 JUMPI JUMPDEST POP DUP2 MSTORE PUSH1 0x3 DUP5 MSTORE KECCAK256 PUSH1 0x40 MLOAD SWAP1 PUSH2 0x1D0E DUP3 PUSH2 0x1E08 JUMP JUMPDEST DUP1 SLOAD PUSH1 0xFF DUP2 AND ISZERO ISZERO SWAP5 DUP6 DUP5 MSTORE DUP5 DUP2 DUP6 ADD SWAP3 PUSH1 0x8 SHR AND DUP3 MSTORE PUSH1 0x1 DUP4 ADD SLOAD PUSH1 0x40 DUP6 ADD SWAP1 DUP2 MSTORE PUSH1 0x2 DUP5 ADD SLOAD SWAP2 PUSH1 0x60 DUP7 ADD SWAP3 DUP4 MSTORE DUP7 PUSH1 0x3 DUP7 ADD SLOAD SWAP5 PUSH1 0x80 DUP9 ADD SWAP6 DUP7 MSTORE PUSH1 0xC0 DUP3 PUSH1 0x5 PUSH1 0x4 DUP11 ADD SLOAD SWAP10 PUSH1 0xA0 DUP13 ADD SWAP11 DUP12 MSTORE ADD SLOAD AND SWAP9 ADD SWAP8 DUP9 MSTORE PUSH1 0x40 MLOAD SWAP10 DUP11 MSTORE MLOAD AND SWAP1 DUP9 ADD MSTORE MLOAD PUSH1 0x40 DUP8 ADD MSTORE MLOAD PUSH1 0x60 DUP7 ADD MSTORE MLOAD PUSH1 0x80 DUP6 ADD MSTORE MLOAD PUSH1 0xA0 DUP5 ADD MSTORE MLOAD AND PUSH1 0xC0 DUP3 ADD MSTORE RETURN JUMPDEST PUSH2 0x1DA9 SWAP1 DUP7 RETURNDATASIZE DUP9 GT PUSH2 0x7DF JUMPI PUSH2 0x7D1 DUP2 DUP4 PUSH2 0x1E3A JUMP JUMPDEST POP CODESIZE PUSH2 0x1CF9 JUMP JUMPDEST PUSH1 0x4 CALLDATALOAD SWAP1 PUSH1 0x1 PUSH1 0x1 PUSH1 0xA0 SHL SUB DUP3 AND DUP3 SUB PUSH2 0x7AC JUMPI JUMP JUMPDEST PUSH1 0x24 CALLDATALOAD SWAP1 PUSH1 0x1 PUSH1 0x1 PUSH1 0xA0 SHL SUB DUP3 AND DUP3 SUB PUSH2 0x7AC JUMPI JUMP JUMPDEST PUSH1 0x0 SLOAD PUSH1 0x1 PUSH1 0x1 PUSH1 0xA0 SHL SUB AND CALLER SUB PUSH2 0x1DF0 JUMPI JUMP JUMPDEST PUSH1 0x40 MLOAD PUSH4 0x118CDAA7 PUSH1 0xE0 SHL DUP2 MSTORE CALLER PUSH1 0x4 DUP3 ADD MSTORE PUSH1 0x24 SWAP1 REVERT JUMPDEST PUSH1 0xE0 DUP2 ADD SWAP1 DUP2 LT PUSH8 0xFFFFFFFFFFFFFFFF DUP3 GT OR PUSH2 0x1E24 JUMPI PUSH1 0x40 MSTORE JUMP JUMPDEST PUSH4 0x4E487B71 PUSH1 0xE0 SHL PUSH1 0x0 MSTORE PUSH1 0x41 PUSH1 0x4 MSTORE PUSH1 0x24 PUSH1 0x0 REVERT JUMPDEST SWAP1 PUSH1 0x1F DUP1 NOT SWAP2 ADD AND DUP2 ADD SWAP1 DUP2 LT PUSH8 0xFFFFFFFFFFFFFFFF DUP3 GT OR PUSH2 0x1E24 JUMPI PUSH1 0x40 MSTORE JUMP JUMPDEST SWAP1 DUP2 PUSH1 0x20 SWAP2 SUB SLT PUSH2 0x7AC JUMPI MLOAD PUSH1 0x1 PUSH1 0x1 PUSH1 0xA0 SHL SUB DUP2 AND DUP2 SUB PUSH2 0x7AC JUMPI SWAP1 JUMP JUMPDEST ISZERO PUSH2 0x1E82 JUMPI JUMP JUMPDEST PUSH1 0x40 MLOAD PUSH3 0x461BCD PUSH1 0xE5 SHL DUP2 MSTORE PUSH1 0x20 PUSH1 0x4 DUP3 ADD MSTORE PUSH1 0x16 PUSH1 0x24 DUP3 ADD MSTORE PUSH22 0x2737BA103BB930B83832B21039B7B7339037BBB732B9 PUSH1 0x51 SHL PUSH1 0x44 DUP3 ADD MSTORE PUSH1 0x64 SWAP1 REVERT JUMPDEST SWAP1 DUP2 PUSH1 0x20 SWAP2 SUB SLT PUSH2 0x7AC JUMPI MLOAD DUP1 ISZERO ISZERO DUP2 SUB PUSH2 0x7AC JUMPI SWAP1 JUMP JUMPDEST ISZERO PUSH2 0x1EDF JUMPI JUMP JUMPDEST PUSH1 0x40 MLOAD PUSH3 0x461BCD PUSH1 0xE5 SHL DUP2 MSTORE PUSH1 0x20 PUSH1 0x4 DUP3 ADD MSTORE PUSH1 0x1F PUSH1 0x24 DUP3 ADD MSTORE PUSH32 0x4E6F7420612076657269666965642070726F746F636F6C205753546F6B656E00 PUSH1 0x44 DUP3 ADD MSTORE PUSH1 0x64 SWAP1 REVERT JUMPDEST ISZERO PUSH2 0x1F2B JUMPI JUMP JUMPDEST PUSH1 0x40 MLOAD PUSH3 0x461BCD PUSH1 0xE5 SHL DUP2 MSTORE PUSH1 0x20 PUSH1 0x4 DUP3 ADD MSTORE PUSH1 0x1D PUSH1 0x24 DUP3 ADD MSTORE PUSH32 0x416D6F756E74206D7573742062652067726561746572207468616E2030000000 PUSH1 0x44 DUP3 ADD MSTORE PUSH1 0x64 SWAP1 REVERT JUMPDEST RETURNDATASIZE ISZERO PUSH2 0x1FAB JUMPI RETURNDATASIZE SWAP1 PUSH8 0xFFFFFFFFFFFFFFFF DUP3 GT PUSH2 0x1E24 JUMPI PUSH1 0x40 MLOAD SWAP2 PUSH2 0x1F9F PUSH1 0x1F DUP3 ADD PUSH1 0x1F NOT AND PUSH1 0x20 ADD DUP5 PUSH2 0x1E3A JUMP JUMPDEST DUP3 MSTORE RETURNDATASIZE PUSH1 0x0 PUSH1 0x20 DUP5 ADD RETURNDATACOPY JUMP JUMPDEST PUSH1 0x60 SWAP1 JUMP JUMPDEST PUSH1 0xFF PUSH1 0x2 SLOAD AND PUSH2 0x1FBC JUMPI JUMP JUMPDEST PUSH1 0x40 MLOAD PUSH4 0xD93C0665 PUSH1 0xE0 SHL DUP2 MSTORE PUSH1 0x4 SWAP1 REVERT JUMPDEST ISZERO PUSH2 0x1FD5 JUMPI JUMP JUMPDEST PUSH1 0x40 MLOAD PUSH3 0x461BCD PUSH1 0xE5 SHL DUP2 MSTORE PUSH1 0x20 PUSH1 0x4 DUP3 ADD MSTORE PUSH1 0xE PUSH1 0x24 DUP3 ADD MSTORE PUSH14 0x4E6F206163746976652073616C65 PUSH1 0x90 SHL PUSH1 0x44 DUP3 ADD MSTORE PUSH1 0x64 SWAP1 REVERT JUMPDEST SWAP2 SWAP1 DUP3 ADD DUP1 SWAP3 GT PUSH2 0x2018 JUMPI JUMP JUMPDEST PUSH4 0x4E487B71 PUSH1 0xE0 SHL PUSH1 0x0 MSTORE PUSH1 0x11 PUSH1 0x4 MSTORE PUSH1 0x24 PUSH1 0x0 REVERT JUMPDEST DUP2 DUP2 MUL SWAP3 SWAP2 DUP2 ISZERO SWAP2 DUP5 DIV EQ OR ISZERO PUSH2 0x2018 JUMPI JUMP JUMPDEST SWAP2 SWAP1 DUP3 SUB SWAP2 DUP3 GT PUSH2 0x2018 JUMPI JUMP JUMPDEST PUSH1 0x0 DUP1 PUSH2 0x2077 SWAP3 PUSH1 0x1 DUP1 PUSH1 0xA0 SHL SUB AND SWAP4 PUSH1 0x20 DUP2 MLOAD SWAP2 ADD DUP3 DUP7 GAS CALL PUSH2 0x2070 PUSH2 0x1F70 JUMP JUMPDEST SWAP1 DUP4 PUSH2 0x20C0 JUMP JUMPDEST DUP1 MLOAD SWAP1 DUP2 ISZERO ISZERO SWAP2 DUP3 PUSH2 0x20A5 JUMPI JUMPDEST POP POP PUSH2 0x208D JUMPI POP JUMP JUMPDEST PUSH1 0x24 SWAP1 PUSH1 0x40 MLOAD SWAP1 PUSH4 0x5274AFE7 PUSH1 0xE0 SHL DUP3 MSTORE PUSH1 0x4 DUP3 ADD MSTORE REVERT JUMPDEST PUSH2 0x20B8 SWAP3 POP PUSH1 0x20 DUP1 SWAP2 DUP4 ADD ADD SWAP2 ADD PUSH2 0x1EC0 JUMP JUMPDEST ISZERO CODESIZE DUP1 PUSH2 0x2084 JUMP JUMPDEST SWAP1 PUSH2 0x20E7 JUMPI POP DUP1 MLOAD ISZERO PUSH2 0x20D5 JUMPI DUP1 MLOAD SWAP1 PUSH1 0x20 ADD REVERT JUMPDEST PUSH1 0x40 MLOAD PUSH4 0xA12F521 PUSH1 0xE1 SHL DUP2 MSTORE PUSH1 0x4 SWAP1 REVERT JUMPDEST DUP2 MLOAD ISZERO DUP1 PUSH2 0x211A JUMPI JUMPDEST PUSH2 0x20F8 JUMPI POP SWAP1 JUMP JUMPDEST PUSH1 0x40 MLOAD PUSH4 0x9996B315 PUSH1 0xE0 SHL DUP2 MSTORE PUSH1 0x1 PUSH1 0x1 PUSH1 0xA0 SHL SUB SWAP1 SWAP2 AND PUSH1 0x4 DUP3 ADD MSTORE PUSH1 0x24 SWAP1 REVERT JUMPDEST POP DUP1 EXTCODESIZE ISZERO PUSH2 0x20F0 JUMP JUMPDEST PUSH1 0x2 PUSH1 0x1 SLOAD EQ PUSH2 0x2134 JUMPI PUSH1 0x2 PUSH1 0x1 SSTORE JUMP JUMPDEST PUSH1 0x40 MLOAD PUSH4 0x3EE5AEB5 PUSH1 0xE0 SHL DUP2 MSTORE PUSH1 0x4 SWAP1 REVERT JUMPDEST PUSH1 0x40 MLOAD PUSH4 0xA9059CBB PUSH1 0xE0 SHL PUSH1 0x20 DUP3 ADD MSTORE PUSH1 0x1 PUSH1 0x1 PUSH1 0xA0 SHL SUB SWAP1 SWAP3 AND PUSH1 0x24 DUP4 ADD MSTORE PUSH1 0x44 DUP1 DUP4 ADD SWAP4 SWAP1 SWAP4 MSTORE SWAP2 DUP2 MSTORE PUSH1 0x80 DUP2 ADD SWAP2 PUSH8 0xFFFFFFFFFFFFFFFF DUP4 GT DUP3 DUP5 LT OR PUSH2 0x1E24 JUMPI PUSH2 0x2196 SWAP3 PUSH1 0x40 MSTORE PUSH2 0x204E JUMP JUMPDEST JUMP INVALID LOG2 PUSH5 0x6970667358 0x22 SLT KECCAK256 SWAP5 0xCB MSIZE PUSH29 0x7AD116280D6C91FA53AF80ED6E8ECB4678519A21CC97F0BC843419B564 PUSH20 0x6F6C634300081400330000000000000000000000 "},"methodIdentifiers":{"accumulatedFunds(address)":"7cd4c4b4","buyShares(address,uint256,address)":"6ef3cd8a","buyerPurchases(address,address)":"703c92ae","endSale(address)":"8c9f7b39","feesModule()":"6d4726d9","getSale(address)":"25b8b8cb","initialize()":"8129fc1c","isApprovedForShares(address,address)":"ba074d1c","isSaleExpired(address)":"3ec98984","owner()":"8da5cb5b","pause()":"8456cb59","paused()":"5c975abb","protocolModule()":"5c42e667","renounceOwnership()":"715018a6","saleStartTimes(address)":"69ac1487","sales(address)":"c6b9f06a","startSale(address,uint256,uint256,uint256,address)":"f2333ec4","transferOwnership(address)":"f2fde38b","unpause()":"3f4ba83a","withdrawFunds(address)":"68742da6"}},"storageLayout":{"storage":[{"astId":8,"contract":"contracts/protocol/NonUpgradable/SongSharesMarketPlace.sol:SongSharesMarketPlace","label":"_owner","offset":0,"slot":"0","type":"t_address"},{"astId":1085,"contract":"contracts/protocol/NonUpgradable/SongSharesMarketPlace.sol:SongSharesMarketPlace","label":"_status","offset":0,"slot":"1","type":"t_uint256"},{"astId":966,"contract":"contracts/protocol/NonUpgradable/SongSharesMarketPlace.sol:SongSharesMarketPlace","label":"_paused","offset":0,"slot":"2","type":"t_bool"},{"astId":2371,"contract":"contracts/protocol/NonUpgradable/SongSharesMarketPlace.sol:SongSharesMarketPlace","label":"feesModule","offset":1,"slot":"2","type":"t_contract(IFeesModule)1314"},{"astId":2391,"contract":"contracts/protocol/NonUpgradable/SongSharesMarketPlace.sol:SongSharesMarketPlace","label":"sales","offset":0,"slot":"3","type":"t_mapping(t_address,t_struct(Sale)2386_storage)"},{"astId":2397,"contract":"contracts/protocol/NonUpgradable/SongSharesMarketPlace.sol:SongSharesMarketPlace","label":"buyerPurchases","offset":0,"slot":"4","type":"t_mapping(t_address,t_mapping(t_address,t_uint256))"},{"astId":2401,"contract":"contracts/protocol/NonUpgradable/SongSharesMarketPlace.sol:SongSharesMarketPlace","label":"saleStartTimes","offset":0,"slot":"5","type":"t_mapping(t_address,t_uint256)"},{"astId":2405,"contract":"contracts/protocol/NonUpgradable/SongSharesMarketPlace.sol:SongSharesMarketPlace","label":"accumulatedFunds","offset":0,"slot":"6","type":"t_mapping(t_address,t_uint256)"}],"types":{"t_address":{"encoding":"inplace","label":"address","numberOfBytes":"20"},"t_bool":{"encoding":"inplace","label":"bool","numberOfBytes":"1"},"t_contract(IFeesModule)1314":{"encoding":"inplace","label":"contract IFeesModule","numberOfBytes":"20"},"t_mapping(t_address,t_mapping(t_address,t_uint256))":{"encoding":"mapping","key":"t_address","label":"mapping(address => mapping(address => uint256))","numberOfBytes":"32","value":"t_mapping(t_address,t_uint256)"},"t_mapping(t_address,t_struct(Sale)2386_storage)":{"encoding":"mapping","key":"t_address","label":"mapping(address => struct SongSharesMarketPlace.Sale)","numberOfBytes":"32","value":"t_struct(Sale)2386_storage"},"t_mapping(t_address,t_uint256)":{"encoding":"mapping","key":"t_address","label":"mapping(address => uint256)","numberOfBytes":"32","value":"t_uint256"},"t_struct(Sale)2386_storage":{"encoding":"inplace","label":"struct SongSharesMarketPlace.Sale","members":[{"astId":2373,"contract":"contracts/protocol/NonUpgradable/SongSharesMarketPlace.sol:SongSharesMarketPlace","label":"active","offset":0,"slot":"0","type":"t_bool"},{"astId":2375,"contract":"contracts/protocol/NonUpgradable/SongSharesMarketPlace.sol:SongSharesMarketPlace","label":"seller","offset":1,"slot":"0","type":"t_address"},{"astId":2377,"contract":"contracts/protocol/NonUpgradable/SongSharesMarketPlace.sol:SongSharesMarketPlace","label":"sharesForSale","offset":0,"slot":"1","type":"t_uint256"},{"astId":2379,"contract":"contracts/protocol/NonUpgradable/SongSharesMarketPlace.sol:SongSharesMarketPlace","label":"pricePerShare","offset":0,"slot":"2","type":"t_uint256"},{"astId":2381,"contract":"contracts/protocol/NonUpgradable/SongSharesMarketPlace.sol:SongSharesMarketPlace","label":"maxSharesPerWallet","offset":0,"slot":"3","type":"t_uint256"},{"astId":2383,"contract":"contracts/protocol/NonUpgradable/SongSharesMarketPlace.sol:SongSharesMarketPlace","label":"totalSold","offset":0,"slot":"4","type":"t_uint256"},{"astId":2385,"contract":"contracts/protocol/NonUpgradable/SongSharesMarketPlace.sol:SongSharesMarketPlace","label":"stableCoin","offset":0,"slot":"5","type":"t_address"}],"numberOfBytes":"192"},"t_uint256":{"encoding":"inplace","label":"uint256","numberOfBytes":"32"}}}}}}