{
  "_format": "hh-sol-artifact-1",
  "contractName": "ITokenURIProvider2",
  "sourceName": "contracts/SongsLicense/ITokenURIProvider.sol",
  "abi": [
    {
      "inputs": [
        {
          "internalType": "uint256",
          "name": "tokenId",
          "type": "uint256"
        },
        {
          "internalType": "string",
          "name": "name",
          "type": "string"
        },
        {
          "internalType": "string",
          "name": "baseURI",
          "type": "string"
        },
        {
          "internalType": "string",
          "name": "imageHash",
          "type": "string"
        },
        {
          "internalType": "string",
          "name": "htmlHash",
          "type": "string"
        }
      ],
      "name": "tokenURI",
      "outputs": [
        {
          "internalType": "string",
          "name": "",
          "type": "string"
        }
      ],
      "stateMutability": "pure",
      "type": "function"
    }
  ],
  "bytecode": "0x608080604052346100165761084a908161001c8239f35b600080fdfe6040608081526004908136101561001557600080fd5b6000803560e01c63bc10c1ec1461002b57600080fd5b346104415760a03660031901126104415782359267ffffffffffffffff9160243583811161044c5761006090369084016104a4565b916044358481116104485761007890369083016104a4565b936064358181116104445761009090369084016104a4565b9260843591821161044157506100a8913691016104a4565b845190602096878301958884825196828401976100c6818c8b6104f0565b820181519182858084019201916100dc926104f0565b0103808652016100ec9085610450565b6100f5826106d1565b88519384928b840197889151809261010c926104f0565b8301815191828d808401920191610122926104f0565b018a8101622f232f60e81b9052815191828c60238401920191610144926104f0565b01036003810183526023016101599083610450565b610162906106d1565b92865191888301947f7b2274726169745f74797065223a224c6963656e7365204944222c2276616c7586526332911d1160e11b89850152805190818b604487019201916101ae926104f0565b62089f4b60ea1b6044918501918201527f7b2274726169745f74797065223a224e616d65222c2276616c7565223a220000604782015286518a880198918591906101fc82606583018d6104f0565b0161227d60f01b60658201520360478101855260670161021c9085610450565b88519788978b8901607b60f81b905267113730b6b2911d1160c11b60218a015251908160298a0161024c926104f0565b61088b60f21b60299189019182018190527f226465736372697074696f6e223a2254686973206c6963656e736520616c6c6f602b8301527f77732074686520686f6c64657220746f207075626c6973682057726170706564604b8301527f20536f6e67732061742074686520534f4e47532050726f746f636f6c222c0000606b830152681134b6b0b3b2911d1160b91b60898301529551916102f490839060928401906104f0565b0190846092830152701130b734b6b0ba34b7b72fbab936111d1160791b609483015251918260a58301610326926104f0565b019160a583015260a782017f2265787465726e616c5f75726c223a2268747470733a2f2f736f6e67732d746f9052681bdb1ccb98dbdb488b60ba1b60c78301526d2261747472696275746573223a5b60901b60d083015251918260de830161038d926104f0565b0160de8101605d60f81b905260df8101607d60f81b90520360c08101825260e0016103b89082610450565b6103c190610545565b9181519081818101947f646174613a6170706c69636174696f6e2f6a736f6e3b6261736536342c00000086528051908184603d8501920191610402926104f0565b810103601d81018352603d016104189083610450565b825193849282845251809284015281848401610433926104f0565b601f01601f19168101030190f35b80fd5b8380fd5b8280fd5b5080fd5b90601f8019910116810190811067ffffffffffffffff82111761047257604052565b634e487b7160e01b600052604160045260246000fd5b67ffffffffffffffff811161047257601f01601f191660200190565b81601f820112156104eb578035906104bb82610488565b926104c96040519485610450565b828452602083830101116104eb57816000926020809301838601378301015290565b600080fd5b60005b8381106105035750506000910152565b81810151838201526020016104f3565b9061051d82610488565b61052a6040519182610450565b828152809261053b601f1991610488565b0190602036910137565b8051156106ac57604051906060820182811067ffffffffffffffff82111761047257604052604082527f4142434445464748494a4b4c4d4e4f505152535455565758595a61626364656660208301527f6768696a6b6c6d6e6f707172737475767778797a303132333435363738392b2f60408301528051600291828201809211610696576003918290046001600160fe1b0381168103610696576105ec908495941b610513565b936020850193829183518401906020820192835194600085525b83811061064557505050505251068060011461063257600214610627575090565b603d90600019015390565b50603d9081600019820153600119015390565b87600491999293949901918251600190603f9082828260121c16880101518453828282600c1c16880101518385015382828260061c1688010151888501531685010151898201530197929190610606565b634e487b7160e01b600052601160045260246000fd5b506040516020810181811067ffffffffffffffff821117610472576040526000815290565b806000917a184f03e93ff9f4daa797ed6e38ed64bf6a1f01000000000000000080821015610806575b506d04ee2d6d415b85acef8100000000808310156107f7575b50662386f26fc10000808310156107e8575b506305f5e100808310156107d9575b50612710808310156107ca575b5060648210156107ba575b600a809210156107b0575b600190816021610768828701610513565b95860101905b61077a575b5050505090565b600019019083906f181899199a1a9b1b9c1cb0b131b232b360811b8282061a8353049182156107ab5791908261076e565b610773565b9160010191610757565b919060646002910491019161074c565b60049193920491019138610741565b60089193920491019138610734565b60109193920491019138610725565b60209193920491019138610713565b6040935081049150386106fa56fea264697066735822122056480323485a76e8683ebf134b8cd06b2931697a21fecb0c8d1184464822f9aa64736f6c63430008140033",
  "linkReferences": {},
  "deployedLinkReferences": {}
}