{
  "_format": "hh-sol-artifact-1",
  "contractName": "IdentityModule",
  "sourceName": "contracts/protocol/Modules/IdentityModule.sol",
  "abi": [
    {
      "inputs": [
        {
          "internalType": "contract ReleaseModule",
          "name": "_releaseModule",
          "type": "address"
        }
      ],
      "stateMutability": "nonpayable",
      "type": "constructor"
    },
    {
      "inputs": [
        {
          "internalType": "address",
          "name": "owner",
          "type": "address"
        }
      ],
      "name": "OwnableInvalidOwner",
      "type": "error"
    },
    {
      "inputs": [
        {
          "internalType": "address",
          "name": "account",
          "type": "address"
        }
      ],
      "name": "OwnableUnauthorizedAccount",
      "type": "error"
    },
    {
      "anonymous": false,
      "inputs": [
        {
          "indexed": true,
          "internalType": "address",
          "name": "wrappedSong",
          "type": "address"
        },
        {
          "indexed": false,
          "internalType": "string",
          "name": "registryType",
          "type": "string"
        },
        {
          "indexed": false,
          "internalType": "string",
          "name": "value",
          "type": "string"
        }
      ],
      "name": "IdentityRegistryUpdated",
      "type": "event"
    },
    {
      "anonymous": false,
      "inputs": [
        {
          "indexed": true,
          "internalType": "address",
          "name": "previousOwner",
          "type": "address"
        },
        {
          "indexed": true,
          "internalType": "address",
          "name": "newOwner",
          "type": "address"
        }
      ],
      "name": "OwnershipTransferred",
      "type": "event"
    },
    {
      "anonymous": false,
      "inputs": [
        {
          "indexed": true,
          "internalType": "address",
          "name": "wrappedSong",
          "type": "address"
        },
        {
          "indexed": false,
          "internalType": "bool",
          "name": "isAuthentic",
          "type": "bool"
        }
      ],
      "name": "WrappedSongAuthenticitySet",
      "type": "event"
    },
    {
      "inputs": [
        {
          "internalType": "address",
          "name": "wrappedSong",
          "type": "address"
        },
        {
          "internalType": "string",
          "name": "iscc",
          "type": "string"
        }
      ],
      "name": "addISCC",
      "outputs": [],
      "stateMutability": "nonpayable",
      "type": "function"
    },
    {
      "inputs": [
        {
          "internalType": "address",
          "name": "wrappedSong",
          "type": "address"
        },
        {
          "internalType": "string",
          "name": "isrc",
          "type": "string"
        }
      ],
      "name": "addISRC",
      "outputs": [],
      "stateMutability": "nonpayable",
      "type": "function"
    },
    {
      "inputs": [
        {
          "internalType": "address",
          "name": "wrappedSong",
          "type": "address"
        },
        {
          "internalType": "string",
          "name": "iswc",
          "type": "string"
        }
      ],
      "name": "addISWC",
      "outputs": [],
      "stateMutability": "nonpayable",
      "type": "function"
    },
    {
      "inputs": [
        {
          "internalType": "address",
          "name": "wrappedSong",
          "type": "address"
        },
        {
          "internalType": "string",
          "name": "upc",
          "type": "string"
        }
      ],
      "name": "addUPC",
      "outputs": [],
      "stateMutability": "nonpayable",
      "type": "function"
    },
    {
      "inputs": [
        {
          "internalType": "address",
          "name": "wrappedSong",
          "type": "address"
        }
      ],
      "name": "getIsccCode",
      "outputs": [
        {
          "internalType": "string",
          "name": "",
          "type": "string"
        }
      ],
      "stateMutability": "view",
      "type": "function"
    },
    {
      "inputs": [
        {
          "internalType": "address",
          "name": "wrappedSong",
          "type": "address"
        }
      ],
      "name": "getIsrcCode",
      "outputs": [
        {
          "internalType": "string",
          "name": "",
          "type": "string"
        }
      ],
      "stateMutability": "view",
      "type": "function"
    },
    {
      "inputs": [
        {
          "internalType": "address",
          "name": "wrappedSong",
          "type": "address"
        }
      ],
      "name": "getIswcCode",
      "outputs": [
        {
          "internalType": "string",
          "name": "",
          "type": "string"
        }
      ],
      "stateMutability": "view",
      "type": "function"
    },
    {
      "inputs": [
        {
          "internalType": "address",
          "name": "wrappedSong",
          "type": "address"
        }
      ],
      "name": "getUpcCode",
      "outputs": [
        {
          "internalType": "string",
          "name": "",
          "type": "string"
        }
      ],
      "stateMutability": "view",
      "type": "function"
    },
    {
      "inputs": [
        {
          "internalType": "address",
          "name": "wrappedSong",
          "type": "address"
        }
      ],
      "name": "isAuthentic",
      "outputs": [
        {
          "internalType": "bool",
          "name": "",
          "type": "bool"
        }
      ],
      "stateMutability": "view",
      "type": "function"
    },
    {
      "inputs": [
        {
          "internalType": "address",
          "name": "",
          "type": "address"
        }
      ],
      "name": "isccRegistry",
      "outputs": [
        {
          "internalType": "string",
          "name": "",
          "type": "string"
        }
      ],
      "stateMutability": "view",
      "type": "function"
    },
    {
      "inputs": [
        {
          "internalType": "address",
          "name": "",
          "type": "address"
        }
      ],
      "name": "isrcRegistry",
      "outputs": [
        {
          "internalType": "string",
          "name": "",
          "type": "string"
        }
      ],
      "stateMutability": "view",
      "type": "function"
    },
    {
      "inputs": [
        {
          "internalType": "address",
          "name": "",
          "type": "address"
        }
      ],
      "name": "iswcRegistry",
      "outputs": [
        {
          "internalType": "string",
          "name": "",
          "type": "string"
        }
      ],
      "stateMutability": "view",
      "type": "function"
    },
    {
      "inputs": [],
      "name": "owner",
      "outputs": [
        {
          "internalType": "address",
          "name": "",
          "type": "address"
        }
      ],
      "stateMutability": "view",
      "type": "function"
    },
    {
      "inputs": [],
      "name": "releaseModule",
      "outputs": [
        {
          "internalType": "contract ReleaseModule",
          "name": "",
          "type": "address"
        }
      ],
      "stateMutability": "view",
      "type": "function"
    },
    {
      "inputs": [],
      "name": "renounceOwnership",
      "outputs": [],
      "stateMutability": "nonpayable",
      "type": "function"
    },
    {
      "inputs": [
        {
          "internalType": "address",
          "name": "wrappedSong",
          "type": "address"
        },
        {
          "internalType": "bool",
          "name": "_isAuthentic",
          "type": "bool"
        }
      ],
      "name": "setWrappedSongAuthenticity",
      "outputs": [],
      "stateMutability": "nonpayable",
      "type": "function"
    },
    {
      "inputs": [
        {
          "internalType": "address",
          "name": "newOwner",
          "type": "address"
        }
      ],
      "name": "transferOwnership",
      "outputs": [],
      "stateMutability": "nonpayable",
      "type": "function"
    },
    {
      "inputs": [
        {
          "internalType": "address",
          "name": "",
          "type": "address"
        }
      ],
      "name": "upcRegistry",
      "outputs": [
        {
          "internalType": "string",
          "name": "",
          "type": "string"
        }
      ],
      "stateMutability": "view",
      "type": "function"
    },
    {
      "inputs": [
        {
          "internalType": "address",
          "name": "",
          "type": "address"
        }
      ],
      "name": "wrappedSongAuthenticity",
      "outputs": [
        {
          "internalType": "bool",
          "name": "",
          "type": "bool"
        }
      ],
      "stateMutability": "view",
      "type": "function"
    }
  ],
  "bytecode": "0x6080346100c657601f6110f538819003918201601f19168301916001600160401b038311848410176100cb578084926020946040528339810103126100c657516001600160a01b0390818116908190036100c65733156100ad5760005460018060a01b0319903382821617600055604051933391167f8be0079c531659141344cd1fd0a4f28419497f9722a3daafe3b4186f6b6457e0600080a3600654161760065561101390816100e28239f35b604051631e4fbdf760e01b815260006004820152602490fd5b600080fd5b634e487b7160e01b600052604160045260246000fdfe6080604081815260048036101561001557600080fd5b600092833560e01c90816306fd88ed14610ce15750806310df9a8414610ca6578063164158ff146107b25780631e944d5414610ca657806321dd882b1461050a578063496d51af14610a925780634bb43e5c146103d95780634fa71b061461089957806365bb98b514610870578063715018a6146108135780638da5cb5b146107eb5780639860da00146107b2578063a4144de614610583578063a449357514610545578063a84286561461050a578063be94e3191461042b578063cc7e5445146103d9578063dfef96811461017d5763f2fde38b146100f457600080fd5b346101795760203660031901126101795761010d610d1c565b90610116610f15565b6001600160a01b0391821692831561016357505082546001600160a01b0319811683178455167f8be0079c531659141344cd1fd0a4f28419497f9722a3daafe3b4186f6b6457e08380a380f35b51631e4fbdf760e01b8152908101849052602490fd5b8280fd5b509190346103d55761018e36610e8f565b6006548351633aa690e760e01b81526001600160a01b03938416818801819052602097909594909288908390602490829085165afa9182156103cb57906101e09291889261039c575b50163314610f60565b81511561036357838552600286528285209082519067ffffffffffffffff8211610350575061020f8254610d77565b601f811161030d575b5086601f821160011461029357869761028293836003979694608094600080516020610fbe8339815191529a9b91610288575b508160011b91600019908a1b1c19161790555b84519585879687528601526255504360e81b60608601528401526080830190610d37565b0390a280f35b90508501513861024b565b82875287872090601f198316885b8181106102f6575093600184608094600080516020610fbe8339815191529a9b9c9460039a999761028299106102de575b5050811b01905561025e565b870151600019838c1b60f8161c1916905538806102d2565b91928a60018192868a0151815501940192016102a1565b828752878720601f830160051c810191898410610346575b601f0160051c01905b81811061033b5750610218565b87815560010161032e565b9091508190610325565b634e487b7160e01b875260419052602486fd5b825162461bcd60e51b815290810186905260136024820152725550432063616e6e6f7420626520656d70747960681b6044820152606490fd5b6103bd919250893d8b116103c4575b6103b58183610db1565b810190610f41565b90386101d7565b503d6103ab565b85513d89823e3d90fd5b5080fd5b5050346103d55760203660031901126103d557610427916104149082906001600160a01b03610406610d1c565b168152600360205220610de9565b9051918291602083526020830190610d37565b0390f35b509034610179578060031936011261017957610445610d1c565b9060243591821515809303610506576006548251633aa690e760e01b81526001600160a01b0392831695810186905291906020908390602490829085165afa9182156104fc577fb54df1287f3d7012d0c033203342de84104f09a34d968f171bff51825d6cf5449492602094926104c59289926104e45750163314610f60565b8486526005835280862060ff1981541660ff841617905551908152a280f35b6103bd919250863d81116103c4576103b58183610db1565b83513d88823e3d90fd5b8480fd5b5050346103d55760203660031901126103d557610427916104149082906001600160a01b03610537610d1c565b168152600160205220610de9565b5050346103d55760203660031901126103d55760209160ff9082906001600160a01b03610570610d1c565b1681526005855220541690519015158152f35b50346101795761059236610e8f565b6006548451633aa690e760e01b81526001600160a01b03938416858201819052959360209283908390602490829085165afa9182156107a857906105e0929189926107905750163314610f60565b8151156107575784865260038152828620825167ffffffffffffffff81116107445761060c8254610d77565b601f8111610701575b5082601f82116001146106895792600080516020610fbe8339815191529695949282608093610282968c9161067e575b508160011b916000199060031b1c19161790555b8451958587968752860152634953574360e01b60608601528401526080830190610d37565b905085015138610645565b82895283892090601f1983168a5b8181106106ea5750836102829693600080516020610fbe8339815191529a99989693608096600194106106d1575b5050811b019055610659565b87015160001960f88460031b161c1916905538806106c5565b91928660018192868b015181550194019201610697565b828952838920601f830160051c81019185841061073a575b601f0160051c01905b81811061072f5750610615565b898155600101610722565b9091508190610719565b634e487b7160e01b885260418652602488fd5b8360649184519162461bcd60e51b83528201526014602482015273495357432063616e6e6f7420626520656d70747960601b6044820152fd5b6103bd919250843d86116103c4576103b58183610db1565b85513d8a823e3d90fd5b50346101795760203660031901126101795761042792610414918391906001600160a01b036107df610d1c565b16825260205220610de9565b5050346103d557816003193601126103d557905490516001600160a01b039091168152602090f35b833461086d578060031936011261086d5761082c610f15565b80546001600160a01b03198116825581906001600160a01b03167f8be0079c531659141344cd1fd0a4f28419497f9722a3daafe3b4186f6b6457e08280a380f35b80fd5b5050346103d557816003193601126103d55760065490516001600160a01b039091168152602090f35b5034610179576108a836610e8f565b6006548451633aa690e760e01b81526001600160a01b03938416858201819052959360209283908390602490829085165afa9182156107a857906108f6929189926107905750163314610f60565b815115610a5957848652838152828620825167ffffffffffffffff8111610744576109218254610d77565b601f8111610a16575b5082601f821160011461099e5792600080516020610fbe8339815191529695949282608093610282968c91610993575b508160011b916000199060031b1c19161790555b8451958587968752860152634953434360e01b60608601528401526080830190610d37565b90508501513861095a565b82895283892090601f1983168a5b8181106109ff5750836102829693600080516020610fbe8339815191529a99989693608096600194106109e6575b5050811b01905561096e565b87015160001960f88460031b161c1916905538806109da565b91928660018192868b0151815501940192016109ac565b828952838920601f830160051c810191858410610a4f575b601f0160051c01905b818110610a44575061092a565b898155600101610a37565b9091508190610a2e565b8360649184519162461bcd60e51b83528201526014602482015273495343432063616e6e6f7420626520656d70747960601b6044820152fd5b503461017957610aa136610e8f565b6006548451633aa690e760e01b81526001600160a01b03938416858201819052959360209283908390602490829085165afa9182156107a85790610aef929189926107905750163314610f60565b815115610c6d5784865260018082528387209083519067ffffffffffffffff8211610c5a57610b1e8354610d77565b601f8111610c14575b508389601f8411600114610b9b579280806102829794600080516020610fbe8339815191529b9a99979460809793610b90575b501b916000199060031b1c19161790555b8451958587968752860152634953524360e01b60608601528401526080830190610d37565b880151925038610b5a565b50838a52848a2091929190601f1983168b5b818110610bff575092600080516020610fbe83398151915299989795926080959282610282999610610be6575b5050811b019055610b6b565b87015160001960f88460031b161c191690553880610bda565b88830151845592850192918701918701610bad565b838a52848a20601f840160051c810191868510610c50575b601f0160051c019082905b828110610c45575050610b27565b8b8155018290610c37565b9091508190610c2c565b634e487b7160e01b895260418752602489fd5b8360649184519162461bcd60e51b83528201526014602482015273495352432063616e6e6f7420626520656d70747960601b6044820152fd5b5050346103d55760203660031901126103d557610427916104149082906001600160a01b03610cd3610d1c565b168152600260205220610de9565b849084346101795760203660031901126101795760209260ff91906001600160a01b03610d0c610d1c565b1681526005855220541615158152f35b600435906001600160a01b0382168203610d3257565b600080fd5b919082519283825260005b848110610d63575050826000602080949584010152601f8019910116010190565b602081830181015184830182015201610d42565b90600182811c92168015610da7575b6020831014610d9157565b634e487b7160e01b600052602260045260246000fd5b91607f1691610d86565b90601f8019910116810190811067ffffffffffffffff821117610dd357604052565b634e487b7160e01b600052604160045260246000fd5b9060405191826000825492610dfd84610d77565b908184526001948581169081600014610e6c5750600114610e29575b5050610e2792500383610db1565b565b9093915060005260209081600020936000915b818310610e54575050610e2793508201013880610e19565b85548884018501529485019487945091830191610e3c565b915050610e2794506020925060ff191682840152151560051b8201013880610e19565b906040600319830112610d32576004356001600160a01b0381168103610d32579167ffffffffffffffff602435818111610d325782602382011215610d32578060040135918211610dd35760405192610ef2601f8401601f191660200185610db1565b82845260248383010111610d325781600092602460209301838601378301015290565b6000546001600160a01b03163303610f2957565b60405163118cdaa760e01b8152336004820152602490fd5b90816020910312610d3257516001600160a01b0381168103610d325790565b15610f6757565b60405162461bcd60e51b815260206004820152602860248201527f4f6e6c79206469737472696275746f722063616e20706572666f726d20746869604482015267399030b1ba34b7b760c11b6064820152608490fdfea7277ea7d4dbb8f0cc254f34cf3e4ac197629ee7789dfa02f6b28a887228909ba264697066735822122096c55af8c9b728044ae7b3a41a2cb8a235f202bb1c404ec4c8af834708a725f364736f6c63430008140033",
  "linkReferences": {},
  "deployedLinkReferences": {}
}