{
  "_format": "hh-sol-artifact-1",
  "contractName": "IdentityModule",
  "sourceName": "contracts/protocol/Modules/IdentityModule.sol",
  "abi": [
    {
      "inputs": [
        {
          "internalType": "contract ReleaseModule",
          "name": "_releaseModule",
          "type": "address"
        }
      ],
      "stateMutability": "nonpayable",
      "type": "constructor"
    },
    {
      "inputs": [
        {
          "internalType": "address",
          "name": "owner",
          "type": "address"
        }
      ],
      "name": "OwnableInvalidOwner",
      "type": "error"
    },
    {
      "inputs": [
        {
          "internalType": "address",
          "name": "account",
          "type": "address"
        }
      ],
      "name": "OwnableUnauthorizedAccount",
      "type": "error"
    },
    {
      "anonymous": false,
      "inputs": [
        {
          "indexed": true,
          "internalType": "address",
          "name": "wrappedSong",
          "type": "address"
        },
        {
          "indexed": false,
          "internalType": "string",
          "name": "registryType",
          "type": "string"
        },
        {
          "indexed": false,
          "internalType": "string",
          "name": "value",
          "type": "string"
        }
      ],
      "name": "IdentityRegistryUpdated",
      "type": "event"
    },
    {
      "anonymous": false,
      "inputs": [
        {
          "indexed": true,
          "internalType": "address",
          "name": "previousOwner",
          "type": "address"
        },
        {
          "indexed": true,
          "internalType": "address",
          "name": "newOwner",
          "type": "address"
        }
      ],
      "name": "OwnershipTransferred",
      "type": "event"
    },
    {
      "anonymous": false,
      "inputs": [
        {
          "indexed": true,
          "internalType": "address",
          "name": "wrappedSong",
          "type": "address"
        },
        {
          "indexed": false,
          "internalType": "bool",
          "name": "isAuthentic",
          "type": "bool"
        }
      ],
      "name": "WrappedSongAuthenticitySet",
      "type": "event"
    },
    {
      "inputs": [
        {
          "internalType": "address",
          "name": "wrappedSong",
          "type": "address"
        },
        {
          "internalType": "string",
          "name": "iscc",
          "type": "string"
        }
      ],
      "name": "addISCC",
      "outputs": [],
      "stateMutability": "nonpayable",
      "type": "function"
    },
    {
      "inputs": [
        {
          "internalType": "address",
          "name": "wrappedSong",
          "type": "address"
        },
        {
          "internalType": "string",
          "name": "isrc",
          "type": "string"
        }
      ],
      "name": "addISRC",
      "outputs": [],
      "stateMutability": "nonpayable",
      "type": "function"
    },
    {
      "inputs": [
        {
          "internalType": "address",
          "name": "wrappedSong",
          "type": "address"
        },
        {
          "internalType": "string",
          "name": "iswc",
          "type": "string"
        }
      ],
      "name": "addISWC",
      "outputs": [],
      "stateMutability": "nonpayable",
      "type": "function"
    },
    {
      "inputs": [
        {
          "internalType": "address",
          "name": "wrappedSong",
          "type": "address"
        },
        {
          "internalType": "string",
          "name": "upc",
          "type": "string"
        }
      ],
      "name": "addUPC",
      "outputs": [],
      "stateMutability": "nonpayable",
      "type": "function"
    },
    {
      "inputs": [
        {
          "internalType": "address",
          "name": "wrappedSong",
          "type": "address"
        }
      ],
      "name": "getIsccCode",
      "outputs": [
        {
          "internalType": "string",
          "name": "",
          "type": "string"
        }
      ],
      "stateMutability": "view",
      "type": "function"
    },
    {
      "inputs": [
        {
          "internalType": "address",
          "name": "wrappedSong",
          "type": "address"
        }
      ],
      "name": "getIsrcCode",
      "outputs": [
        {
          "internalType": "string",
          "name": "",
          "type": "string"
        }
      ],
      "stateMutability": "view",
      "type": "function"
    },
    {
      "inputs": [
        {
          "internalType": "address",
          "name": "wrappedSong",
          "type": "address"
        }
      ],
      "name": "getIswcCode",
      "outputs": [
        {
          "internalType": "string",
          "name": "",
          "type": "string"
        }
      ],
      "stateMutability": "view",
      "type": "function"
    },
    {
      "inputs": [
        {
          "internalType": "address",
          "name": "wrappedSong",
          "type": "address"
        }
      ],
      "name": "getUpcCode",
      "outputs": [
        {
          "internalType": "string",
          "name": "",
          "type": "string"
        }
      ],
      "stateMutability": "view",
      "type": "function"
    },
    {
      "inputs": [
        {
          "internalType": "address",
          "name": "wrappedSong",
          "type": "address"
        }
      ],
      "name": "isAuthentic",
      "outputs": [
        {
          "internalType": "bool",
          "name": "",
          "type": "bool"
        }
      ],
      "stateMutability": "view",
      "type": "function"
    },
    {
      "inputs": [
        {
          "internalType": "address",
          "name": "",
          "type": "address"
        }
      ],
      "name": "isccRegistry",
      "outputs": [
        {
          "internalType": "string",
          "name": "",
          "type": "string"
        }
      ],
      "stateMutability": "view",
      "type": "function"
    },
    {
      "inputs": [
        {
          "internalType": "address",
          "name": "",
          "type": "address"
        }
      ],
      "name": "isrcRegistry",
      "outputs": [
        {
          "internalType": "string",
          "name": "",
          "type": "string"
        }
      ],
      "stateMutability": "view",
      "type": "function"
    },
    {
      "inputs": [
        {
          "internalType": "address",
          "name": "",
          "type": "address"
        }
      ],
      "name": "iswcRegistry",
      "outputs": [
        {
          "internalType": "string",
          "name": "",
          "type": "string"
        }
      ],
      "stateMutability": "view",
      "type": "function"
    },
    {
      "inputs": [],
      "name": "owner",
      "outputs": [
        {
          "internalType": "address",
          "name": "",
          "type": "address"
        }
      ],
      "stateMutability": "view",
      "type": "function"
    },
    {
      "inputs": [],
      "name": "releaseModule",
      "outputs": [
        {
          "internalType": "contract ReleaseModule",
          "name": "",
          "type": "address"
        }
      ],
      "stateMutability": "view",
      "type": "function"
    },
    {
      "inputs": [],
      "name": "renounceOwnership",
      "outputs": [],
      "stateMutability": "nonpayable",
      "type": "function"
    },
    {
      "inputs": [
        {
          "internalType": "address",
          "name": "wrappedSong",
          "type": "address"
        },
        {
          "internalType": "bool",
          "name": "_isAuthentic",
          "type": "bool"
        }
      ],
      "name": "setWrappedSongAuthenticity",
      "outputs": [],
      "stateMutability": "nonpayable",
      "type": "function"
    },
    {
      "inputs": [
        {
          "internalType": "address",
          "name": "newOwner",
          "type": "address"
        }
      ],
      "name": "transferOwnership",
      "outputs": [],
      "stateMutability": "nonpayable",
      "type": "function"
    },
    {
      "inputs": [
        {
          "internalType": "address",
          "name": "",
          "type": "address"
        }
      ],
      "name": "upcRegistry",
      "outputs": [
        {
          "internalType": "string",
          "name": "",
          "type": "string"
        }
      ],
      "stateMutability": "view",
      "type": "function"
    },
    {
      "inputs": [
        {
          "internalType": "address",
          "name": "",
          "type": "address"
        }
      ],
      "name": "wrappedSongAuthenticity",
      "outputs": [
        {
          "internalType": "bool",
          "name": "",
          "type": "bool"
        }
      ],
      "stateMutability": "view",
      "type": "function"
    }
  ],
  "bytecode": "0x6080346100c657601f61109838819003918201601f19168301916001600160401b038311848410176100cb578084926020946040528339810103126100c657516001600160a01b0390818116908190036100c65733156100ad5760005460018060a01b0319903382821617600055604051933391167f8be0079c531659141344cd1fd0a4f28419497f9722a3daafe3b4186f6b6457e0600080a36006541617600655610fb690816100e28239f35b604051631e4fbdf760e01b815260006004820152602490fd5b600080fd5b634e487b7160e01b600052604160045260246000fdfe6080604081815260048036101561001557600080fd5b600092833560e01c90816306fd88ed14610c845750806310df9a8414610c49578063164158ff146107555780631e944d5414610c4957806321dd882b146104ad578063496d51af14610a355780634bb43e5c146103d95780634fa71b061461083c57806365bb98b514610813578063715018a6146107b65780638da5cb5b1461078e5780639860da0014610755578063a4144de614610526578063a4493575146104e8578063a8428656146104ad578063be94e3191461042b578063cc7e5445146103d9578063dfef96811461017d5763f2fde38b146100f457600080fd5b346101795760203660031901126101795761010d610cbf565b90610116610eb8565b6001600160a01b0391821692831561016357505082546001600160a01b0319811683178455167f8be0079c531659141344cd1fd0a4f28419497f9722a3daafe3b4186f6b6457e08380a380f35b51631e4fbdf760e01b8152908101849052602490fd5b8280fd5b509190346103d55761018e36610e32565b6006548351633aa690e760e01b81526001600160a01b03938416818801819052602097909594909288908390602490829085165afa9182156103cb57906101e09291889261039c575b50163314610f03565b81511561036357838552600286528285209082519067ffffffffffffffff8211610350575061020f8254610d1a565b601f811161030d575b5086601f821160011461029357869761028293836003979694608094600080516020610f618339815191529a9b91610288575b508160011b91600019908a1b1c19161790555b84519585879687528601526255504360e81b60608601528401526080830190610cda565b0390a280f35b90508501513861024b565b82875287872090601f198316885b8181106102f6575093600184608094600080516020610f618339815191529a9b9c9460039a999761028299106102de575b5050811b01905561025e565b870151600019838c1b60f8161c1916905538806102d2565b91928a60018192868a0151815501940192016102a1565b828752878720601f830160051c810191898410610346575b601f0160051c01905b81811061033b5750610218565b87815560010161032e565b9091508190610325565b634e487b7160e01b875260419052602486fd5b825162461bcd60e51b815290810186905260136024820152725550432063616e6e6f7420626520656d70747960681b6044820152606490fd5b6103bd919250893d8b116103c4575b6103b58183610d54565b810190610ee4565b90386101d7565b503d6103ab565b85513d89823e3d90fd5b5080fd5b5050346103d55760203660031901126103d557610427916104149082906001600160a01b03610406610cbf565b168152600360205220610d8c565b9051918291602083526020830190610cda565b0390f35b5050346103d557806003193601126103d557610445610cbf565b602435908115158092036104a9577fb54df1287f3d7012d0c033203342de84104f09a34d968f171bff51825d6cf54491602091610480610eb8565b6001600160a01b031680865260058352848620805460ff191660ff84161790559351908152a280f35b8380fd5b5050346103d55760203660031901126103d557610427916104149082906001600160a01b036104da610cbf565b168152600160205220610d8c565b5050346103d55760203660031901126103d55760209160ff9082906001600160a01b03610513610cbf565b1681526005855220541690519015158152f35b50346101795761053536610e32565b6006548451633aa690e760e01b81526001600160a01b03938416858201819052959360209283908390602490829085165afa91821561074b5790610583929189926107335750163314610f03565b8151156106fa5784865260038152828620825167ffffffffffffffff81116106e7576105af8254610d1a565b601f81116106a4575b5082601f821160011461062c5792600080516020610f618339815191529695949282608093610282968c91610621575b508160011b916000199060031b1c19161790555b8451958587968752860152634953574360e01b60608601528401526080830190610cda565b9050850151386105e8565b82895283892090601f1983168a5b81811061068d5750836102829693600080516020610f618339815191529a9998969360809660019410610674575b5050811b0190556105fc565b87015160001960f88460031b161c191690553880610668565b91928660018192868b01518155019401920161063a565b828952838920601f830160051c8101918584106106dd575b601f0160051c01905b8181106106d257506105b8565b8981556001016106c5565b90915081906106bc565b634e487b7160e01b885260418652602488fd5b8360649184519162461bcd60e51b83528201526014602482015273495357432063616e6e6f7420626520656d70747960601b6044820152fd5b6103bd919250843d86116103c4576103b58183610d54565b85513d8a823e3d90fd5b50346101795760203660031901126101795761042792610414918391906001600160a01b03610782610cbf565b16825260205220610d8c565b5050346103d557816003193601126103d557905490516001600160a01b039091168152602090f35b83346108105780600319360112610810576107cf610eb8565b80546001600160a01b03198116825581906001600160a01b03167f8be0079c531659141344cd1fd0a4f28419497f9722a3daafe3b4186f6b6457e08280a380f35b80fd5b5050346103d557816003193601126103d55760065490516001600160a01b039091168152602090f35b50346101795761084b36610e32565b6006548451633aa690e760e01b81526001600160a01b03938416858201819052959360209283908390602490829085165afa91821561074b5790610899929189926107335750163314610f03565b8151156109fc57848652838152828620825167ffffffffffffffff81116106e7576108c48254610d1a565b601f81116109b9575b5082601f82116001146109415792600080516020610f618339815191529695949282608093610282968c91610936575b508160011b916000199060031b1c19161790555b8451958587968752860152634953434360e01b60608601528401526080830190610cda565b9050850151386108fd565b82895283892090601f1983168a5b8181106109a25750836102829693600080516020610f618339815191529a9998969360809660019410610989575b5050811b019055610911565b87015160001960f88460031b161c19169055388061097d565b91928660018192868b01518155019401920161094f565b828952838920601f830160051c8101918584106109f2575b601f0160051c01905b8181106109e757506108cd565b8981556001016109da565b90915081906109d1565b8360649184519162461bcd60e51b83528201526014602482015273495343432063616e6e6f7420626520656d70747960601b6044820152fd5b503461017957610a4436610e32565b6006548451633aa690e760e01b81526001600160a01b03938416858201819052959360209283908390602490829085165afa91821561074b5790610a92929189926107335750163314610f03565b815115610c105784865260018082528387209083519067ffffffffffffffff8211610bfd57610ac18354610d1a565b601f8111610bb7575b508389601f8411600114610b3e579280806102829794600080516020610f618339815191529b9a99979460809793610b33575b501b916000199060031b1c19161790555b8451958587968752860152634953524360e01b60608601528401526080830190610cda565b880151925038610afd565b50838a52848a2091929190601f1983168b5b818110610ba2575092600080516020610f6183398151915299989795926080959282610282999610610b89575b5050811b019055610b0e565b87015160001960f88460031b161c191690553880610b7d565b88830151845592850192918701918701610b50565b838a52848a20601f840160051c810191868510610bf3575b601f0160051c019082905b828110610be8575050610aca565b8b8155018290610bda565b9091508190610bcf565b634e487b7160e01b895260418752602489fd5b8360649184519162461bcd60e51b83528201526014602482015273495352432063616e6e6f7420626520656d70747960601b6044820152fd5b5050346103d55760203660031901126103d557610427916104149082906001600160a01b03610c76610cbf565b168152600260205220610d8c565b849084346101795760203660031901126101795760209260ff91906001600160a01b03610caf610cbf565b1681526005855220541615158152f35b600435906001600160a01b0382168203610cd557565b600080fd5b919082519283825260005b848110610d06575050826000602080949584010152601f8019910116010190565b602081830181015184830182015201610ce5565b90600182811c92168015610d4a575b6020831014610d3457565b634e487b7160e01b600052602260045260246000fd5b91607f1691610d29565b90601f8019910116810190811067ffffffffffffffff821117610d7657604052565b634e487b7160e01b600052604160045260246000fd5b9060405191826000825492610da084610d1a565b908184526001948581169081600014610e0f5750600114610dcc575b5050610dca92500383610d54565b565b9093915060005260209081600020936000915b818310610df7575050610dca93508201013880610dbc565b85548884018501529485019487945091830191610ddf565b915050610dca94506020925060ff191682840152151560051b8201013880610dbc565b906040600319830112610cd5576004356001600160a01b0381168103610cd5579167ffffffffffffffff602435818111610cd55782602382011215610cd5578060040135918211610d765760405192610e95601f8401601f191660200185610d54565b82845260248383010111610cd55781600092602460209301838601378301015290565b6000546001600160a01b03163303610ecc57565b60405163118cdaa760e01b8152336004820152602490fd5b90816020910312610cd557516001600160a01b0381168103610cd55790565b15610f0a57565b60405162461bcd60e51b815260206004820152602860248201527f4f6e6c79206469737472696275746f722063616e20706572666f726d20746869604482015267399030b1ba34b7b760c11b6064820152608490fdfea7277ea7d4dbb8f0cc254f34cf3e4ac197629ee7789dfa02f6b28a887228909ba264697066735822122037344b4ccfd6f566a4085368383d4545df41c2e336daaebabeed5d74ce42b64964736f6c63430008140033",
  "linkReferences": {},
  "deployedLinkReferences": {}
}