{
  "_format": "hh-sol-artifact-1",
  "contractName": "IdentityModule",
  "sourceName": "contracts/protocol/Modules/IdentityModule.sol",
  "abi": [
    {
      "inputs": [],
      "stateMutability": "nonpayable",
      "type": "constructor"
    },
    {
      "inputs": [
        {
          "internalType": "address",
          "name": "owner",
          "type": "address"
        }
      ],
      "name": "OwnableInvalidOwner",
      "type": "error"
    },
    {
      "inputs": [
        {
          "internalType": "address",
          "name": "account",
          "type": "address"
        }
      ],
      "name": "OwnableUnauthorizedAccount",
      "type": "error"
    },
    {
      "anonymous": false,
      "inputs": [
        {
          "indexed": true,
          "internalType": "address",
          "name": "wrappedSong",
          "type": "address"
        },
        {
          "indexed": false,
          "internalType": "string",
          "name": "registryType",
          "type": "string"
        },
        {
          "indexed": false,
          "internalType": "string",
          "name": "value",
          "type": "string"
        }
      ],
      "name": "IdentityRegistryUpdated",
      "type": "event"
    },
    {
      "anonymous": false,
      "inputs": [
        {
          "indexed": true,
          "internalType": "address",
          "name": "previousOwner",
          "type": "address"
        },
        {
          "indexed": true,
          "internalType": "address",
          "name": "newOwner",
          "type": "address"
        }
      ],
      "name": "OwnershipTransferred",
      "type": "event"
    },
    {
      "anonymous": false,
      "inputs": [
        {
          "indexed": true,
          "internalType": "address",
          "name": "wrappedSong",
          "type": "address"
        },
        {
          "indexed": false,
          "internalType": "bool",
          "name": "isAuthentic",
          "type": "bool"
        }
      ],
      "name": "WrappedSongAuthenticitySet",
      "type": "event"
    },
    {
      "inputs": [
        {
          "internalType": "address",
          "name": "wrappedSong",
          "type": "address"
        },
        {
          "internalType": "string",
          "name": "iscc",
          "type": "string"
        }
      ],
      "name": "addISCC",
      "outputs": [],
      "stateMutability": "nonpayable",
      "type": "function"
    },
    {
      "inputs": [
        {
          "internalType": "address",
          "name": "wrappedSong",
          "type": "address"
        },
        {
          "internalType": "string",
          "name": "isrc",
          "type": "string"
        }
      ],
      "name": "addISRC",
      "outputs": [],
      "stateMutability": "nonpayable",
      "type": "function"
    },
    {
      "inputs": [
        {
          "internalType": "address",
          "name": "wrappedSong",
          "type": "address"
        },
        {
          "internalType": "string",
          "name": "iswc",
          "type": "string"
        }
      ],
      "name": "addISWC",
      "outputs": [],
      "stateMutability": "nonpayable",
      "type": "function"
    },
    {
      "inputs": [
        {
          "internalType": "address",
          "name": "wrappedSong",
          "type": "address"
        },
        {
          "internalType": "string",
          "name": "upc",
          "type": "string"
        }
      ],
      "name": "addUPC",
      "outputs": [],
      "stateMutability": "nonpayable",
      "type": "function"
    },
    {
      "inputs": [
        {
          "internalType": "address",
          "name": "wrappedSong",
          "type": "address"
        }
      ],
      "name": "getIsccCode",
      "outputs": [
        {
          "internalType": "string",
          "name": "",
          "type": "string"
        }
      ],
      "stateMutability": "view",
      "type": "function"
    },
    {
      "inputs": [
        {
          "internalType": "address",
          "name": "wrappedSong",
          "type": "address"
        }
      ],
      "name": "getIsrcCode",
      "outputs": [
        {
          "internalType": "string",
          "name": "",
          "type": "string"
        }
      ],
      "stateMutability": "view",
      "type": "function"
    },
    {
      "inputs": [
        {
          "internalType": "address",
          "name": "wrappedSong",
          "type": "address"
        }
      ],
      "name": "getIswcCode",
      "outputs": [
        {
          "internalType": "string",
          "name": "",
          "type": "string"
        }
      ],
      "stateMutability": "view",
      "type": "function"
    },
    {
      "inputs": [
        {
          "internalType": "address",
          "name": "wrappedSong",
          "type": "address"
        }
      ],
      "name": "getUpcCode",
      "outputs": [
        {
          "internalType": "string",
          "name": "",
          "type": "string"
        }
      ],
      "stateMutability": "view",
      "type": "function"
    },
    {
      "inputs": [
        {
          "internalType": "contract ReleaseModule",
          "name": "_releaseModule",
          "type": "address"
        }
      ],
      "name": "initialize",
      "outputs": [],
      "stateMutability": "nonpayable",
      "type": "function"
    },
    {
      "inputs": [
        {
          "internalType": "address",
          "name": "wrappedSong",
          "type": "address"
        }
      ],
      "name": "isAuthentic",
      "outputs": [
        {
          "internalType": "bool",
          "name": "",
          "type": "bool"
        }
      ],
      "stateMutability": "view",
      "type": "function"
    },
    {
      "inputs": [
        {
          "internalType": "address",
          "name": "",
          "type": "address"
        }
      ],
      "name": "isccRegistry",
      "outputs": [
        {
          "internalType": "string",
          "name": "",
          "type": "string"
        }
      ],
      "stateMutability": "view",
      "type": "function"
    },
    {
      "inputs": [
        {
          "internalType": "address",
          "name": "",
          "type": "address"
        }
      ],
      "name": "isrcRegistry",
      "outputs": [
        {
          "internalType": "string",
          "name": "",
          "type": "string"
        }
      ],
      "stateMutability": "view",
      "type": "function"
    },
    {
      "inputs": [
        {
          "internalType": "address",
          "name": "",
          "type": "address"
        }
      ],
      "name": "iswcRegistry",
      "outputs": [
        {
          "internalType": "string",
          "name": "",
          "type": "string"
        }
      ],
      "stateMutability": "view",
      "type": "function"
    },
    {
      "inputs": [],
      "name": "owner",
      "outputs": [
        {
          "internalType": "address",
          "name": "",
          "type": "address"
        }
      ],
      "stateMutability": "view",
      "type": "function"
    },
    {
      "inputs": [],
      "name": "releaseModule",
      "outputs": [
        {
          "internalType": "contract ReleaseModule",
          "name": "",
          "type": "address"
        }
      ],
      "stateMutability": "view",
      "type": "function"
    },
    {
      "inputs": [],
      "name": "renounceOwnership",
      "outputs": [],
      "stateMutability": "nonpayable",
      "type": "function"
    },
    {
      "inputs": [
        {
          "internalType": "address",
          "name": "wrappedSong",
          "type": "address"
        },
        {
          "internalType": "bool",
          "name": "_isAuthentic",
          "type": "bool"
        }
      ],
      "name": "setWrappedSongAuthenticity",
      "outputs": [],
      "stateMutability": "nonpayable",
      "type": "function"
    },
    {
      "inputs": [
        {
          "internalType": "address",
          "name": "newOwner",
          "type": "address"
        }
      ],
      "name": "transferOwnership",
      "outputs": [],
      "stateMutability": "nonpayable",
      "type": "function"
    },
    {
      "inputs": [
        {
          "internalType": "address",
          "name": "",
          "type": "address"
        }
      ],
      "name": "upcRegistry",
      "outputs": [
        {
          "internalType": "string",
          "name": "",
          "type": "string"
        }
      ],
      "stateMutability": "view",
      "type": "function"
    },
    {
      "inputs": [
        {
          "internalType": "address",
          "name": "",
          "type": "address"
        }
      ],
      "name": "wrappedSongAuthenticity",
      "outputs": [
        {
          "internalType": "bool",
          "name": "",
          "type": "bool"
        }
      ],
      "stateMutability": "view",
      "type": "function"
    }
  ],
  "bytecode": "0x6080806040523461007a5733156100645760008054336001600160a01b03198216811783556040519290916001600160a01b0316907f8be0079c531659141344cd1fd0a4f28419497f9722a3daafe3b4186f6b6457e09080a36110a790816100808239f35b631e4fbdf760e01b815260006004820152602490fd5b600080fdfe6080604081815260048036101561001557600080fd5b600092833560e01c90816306fd88ed14610d755750806310df9a8414610d3a578063164158ff146108465780631e944d5414610d3a57806321dd882b1461059e578063496d51af14610b265780634bb43e5c146103e45780634fa71b061461092d57806365bb98b514610904578063715018a6146108a75780638da5cb5b1461087f5780639860da0014610846578063a4144de614610617578063a4493575146105d9578063a84286561461059e578063be94e319146104c3578063c4d66de814610436578063cc7e5445146103e4578063dfef9681146101885763f2fde38b146100ff57600080fd5b3461018457602036600319011261018457610118610db0565b90610121610fa9565b6001600160a01b0391821692831561016e57505082546001600160a01b0319811683178455167f8be0079c531659141344cd1fd0a4f28419497f9722a3daafe3b4186f6b6457e08380a380f35b51631e4fbdf760e01b8152908101849052602490fd5b8280fd5b509190346103e05761019936610f23565b6006548351633aa690e760e01b81526001600160a01b03938416818801819052602097909594909288908390602490829085165afa9182156103d657906101eb929188926103a7575b50163314610ff4565b81511561036e57838552600286528285209082519067ffffffffffffffff821161035b575061021a8254610e0b565b601f8111610318575b5086601f821160011461029e57869761028d938360039796946080946000805160206110528339815191529a9b91610293575b508160011b91600019908a1b1c19161790555b84519585879687528601526255504360e81b60608601528401526080830190610dcb565b0390a280f35b905085015138610256565b82875287872090601f198316885b8181106103015750936001846080946000805160206110528339815191529a9b9c9460039a999761028d99106102e9575b5050811b019055610269565b870151600019838c1b60f8161c1916905538806102dd565b91928a60018192868a0151815501940192016102ac565b828752878720601f830160051c810191898410610351575b601f0160051c01905b8181106103465750610223565b878155600101610339565b9091508190610330565b634e487b7160e01b875260419052602486fd5b825162461bcd60e51b815290810186905260136024820152725550432063616e6e6f7420626520656d70747960681b6044820152606490fd5b6103c8919250893d8b116103cf575b6103c08183610e45565b810190610fd5565b90386101e2565b503d6103b6565b85513d89823e3d90fd5b5080fd5b5050346103e05760203660031901126103e0576104329161041f9082906001600160a01b03610411610db0565b168152600360205220610e7d565b9051918291602083526020830190610dcb565b0390f35b509034610184576020366003190112610184576001600160a01b038235818116939192908490036104bf57610469610fa9565b6006549283166104865750506001600160a01b0319161760065580f35b906020606492519162461bcd60e51b83528201526013602482015272105b1c9958591e481a5b9a5d1a585b1a5e9959606a1b6044820152fd5b8480fd5b5090346101845780600319360112610184576104dd610db0565b90602435918215158093036104bf576006548251633aa690e760e01b81526001600160a01b0392831695810186905291906020908390602490829085165afa918215610594577fb54df1287f3d7012d0c033203342de84104f09a34d968f171bff51825d6cf54494926020949261055d92899261057c5750163314610ff4565b8486526005835280862060ff1981541660ff841617905551908152a280f35b6103c8919250863d81116103cf576103c08183610e45565b83513d88823e3d90fd5b5050346103e05760203660031901126103e0576104329161041f9082906001600160a01b036105cb610db0565b168152600160205220610e7d565b5050346103e05760203660031901126103e05760209160ff9082906001600160a01b03610604610db0565b1681526005855220541690519015158152f35b50346101845761062636610f23565b6006548451633aa690e760e01b81526001600160a01b03938416858201819052959360209283908390602490829085165afa91821561083c5790610674929189926108245750163314610ff4565b8151156107eb5784865260038152828620825167ffffffffffffffff81116107d8576106a08254610e0b565b601f8111610795575b5082601f821160011461071d5792600080516020611052833981519152969594928260809361028d968c91610712575b508160011b916000199060031b1c19161790555b8451958587968752860152634953574360e01b60608601528401526080830190610dcb565b9050850151386106d9565b82895283892090601f1983168a5b81811061077e57508361028d96936000805160206110528339815191529a9998969360809660019410610765575b5050811b0190556106ed565b87015160001960f88460031b161c191690553880610759565b91928660018192868b01518155019401920161072b565b828952838920601f830160051c8101918584106107ce575b601f0160051c01905b8181106107c357506106a9565b8981556001016107b6565b90915081906107ad565b634e487b7160e01b885260418652602488fd5b8360649184519162461bcd60e51b83528201526014602482015273495357432063616e6e6f7420626520656d70747960601b6044820152fd5b6103c8919250843d86116103cf576103c08183610e45565b85513d8a823e3d90fd5b5034610184576020366003190112610184576104329261041f918391906001600160a01b03610873610db0565b16825260205220610e7d565b5050346103e057816003193601126103e057905490516001600160a01b039091168152602090f35b83346109015780600319360112610901576108c0610fa9565b80546001600160a01b03198116825581906001600160a01b03167f8be0079c531659141344cd1fd0a4f28419497f9722a3daafe3b4186f6b6457e08280a380f35b80fd5b5050346103e057816003193601126103e05760065490516001600160a01b039091168152602090f35b50346101845761093c36610f23565b6006548451633aa690e760e01b81526001600160a01b03938416858201819052959360209283908390602490829085165afa91821561083c579061098a929189926108245750163314610ff4565b815115610aed57848652838152828620825167ffffffffffffffff81116107d8576109b58254610e0b565b601f8111610aaa575b5082601f8211600114610a325792600080516020611052833981519152969594928260809361028d968c91610a27575b508160011b916000199060031b1c19161790555b8451958587968752860152634953434360e01b60608601528401526080830190610dcb565b9050850151386109ee565b82895283892090601f1983168a5b818110610a9357508361028d96936000805160206110528339815191529a9998969360809660019410610a7a575b5050811b019055610a02565b87015160001960f88460031b161c191690553880610a6e565b91928660018192868b015181550194019201610a40565b828952838920601f830160051c810191858410610ae3575b601f0160051c01905b818110610ad857506109be565b898155600101610acb565b9091508190610ac2565b8360649184519162461bcd60e51b83528201526014602482015273495343432063616e6e6f7420626520656d70747960601b6044820152fd5b503461018457610b3536610f23565b6006548451633aa690e760e01b81526001600160a01b03938416858201819052959360209283908390602490829085165afa91821561083c5790610b83929189926108245750163314610ff4565b815115610d015784865260018082528387209083519067ffffffffffffffff8211610cee57610bb28354610e0b565b601f8111610ca8575b508389601f8411600114610c2f5792808061028d97946000805160206110528339815191529b9a99979460809793610c24575b501b916000199060031b1c19161790555b8451958587968752860152634953524360e01b60608601528401526080830190610dcb565b880151925038610bee565b50838a52848a2091929190601f1983168b5b818110610c935750926000805160206110528339815191529998979592608095928261028d999610610c7a575b5050811b019055610bff565b87015160001960f88460031b161c191690553880610c6e565b88830151845592850192918701918701610c41565b838a52848a20601f840160051c810191868510610ce4575b601f0160051c019082905b828110610cd9575050610bbb565b8b8155018290610ccb565b9091508190610cc0565b634e487b7160e01b895260418752602489fd5b8360649184519162461bcd60e51b83528201526014602482015273495352432063616e6e6f7420626520656d70747960601b6044820152fd5b5050346103e05760203660031901126103e0576104329161041f9082906001600160a01b03610d67610db0565b168152600260205220610e7d565b849084346101845760203660031901126101845760209260ff91906001600160a01b03610da0610db0565b1681526005855220541615158152f35b600435906001600160a01b0382168203610dc657565b600080fd5b919082519283825260005b848110610df7575050826000602080949584010152601f8019910116010190565b602081830181015184830182015201610dd6565b90600182811c92168015610e3b575b6020831014610e2557565b634e487b7160e01b600052602260045260246000fd5b91607f1691610e1a565b90601f8019910116810190811067ffffffffffffffff821117610e6757604052565b634e487b7160e01b600052604160045260246000fd5b9060405191826000825492610e9184610e0b565b908184526001948581169081600014610f005750600114610ebd575b5050610ebb92500383610e45565b565b9093915060005260209081600020936000915b818310610ee8575050610ebb93508201013880610ead565b85548884018501529485019487945091830191610ed0565b915050610ebb94506020925060ff191682840152151560051b8201013880610ead565b906040600319830112610dc6576004356001600160a01b0381168103610dc6579167ffffffffffffffff602435818111610dc65782602382011215610dc6578060040135918211610e675760405192610f86601f8401601f191660200185610e45565b82845260248383010111610dc65781600092602460209301838601378301015290565b6000546001600160a01b03163303610fbd57565b60405163118cdaa760e01b8152336004820152602490fd5b90816020910312610dc657516001600160a01b0381168103610dc65790565b15610ffb57565b60405162461bcd60e51b815260206004820152602860248201527f4f6e6c79206469737472696275746f722063616e20706572666f726d20746869604482015267399030b1ba34b7b760c11b6064820152608490fdfea7277ea7d4dbb8f0cc254f34cf3e4ac197629ee7789dfa02f6b28a887228909ba264697066735822122060822375cf4c22cd970d4db4eb3d34c815bddfb72db4cd0b25a03fefb5ede1ab64736f6c63430008140033",
  "linkReferences": {},
  "deployedLinkReferences": {}
}