{
  "_format": "hh-sol-artifact-1",
  "contractName": "WrappedSongFactoryV2",
  "sourceName": "contracts/mocks/WrappedSongFactoryV2.sol",
  "abi": [
    {
      "inputs": [
        {
          "internalType": "address",
          "name": "_protocolModule",
          "type": "address"
        },
        {
          "internalType": "address",
          "name": "_wrappedSongTemplate",
          "type": "address"
        },
        {
          "internalType": "address",
          "name": "_wsTokenTemplate",
          "type": "address"
        }
      ],
      "stateMutability": "nonpayable",
      "type": "constructor"
    },
    {
      "inputs": [
        {
          "internalType": "address",
          "name": "target",
          "type": "address"
        }
      ],
      "name": "AddressEmptyCode",
      "type": "error"
    },
    {
      "inputs": [
        {
          "internalType": "address",
          "name": "account",
          "type": "address"
        }
      ],
      "name": "AddressInsufficientBalance",
      "type": "error"
    },
    {
      "inputs": [],
      "name": "ERC1167FailedCreateClone",
      "type": "error"
    },
    {
      "inputs": [],
      "name": "FailedInnerCall",
      "type": "error"
    },
    {
      "inputs": [
        {
          "internalType": "address",
          "name": "token",
          "type": "address"
        }
      ],
      "name": "SafeERC20FailedOperation",
      "type": "error"
    },
    {
      "inputs": [
        {
          "internalType": "uint256",
          "name": "value",
          "type": "uint256"
        },
        {
          "internalType": "uint256",
          "name": "length",
          "type": "uint256"
        }
      ],
      "name": "StringsInsufficientHexLength",
      "type": "error"
    },
    {
      "anonymous": false,
      "inputs": [
        {
          "indexed": true,
          "internalType": "address",
          "name": "wrappedSong",
          "type": "address"
        },
        {
          "indexed": true,
          "internalType": "address",
          "name": "token",
          "type": "address"
        },
        {
          "indexed": false,
          "internalType": "uint256",
          "name": "amount",
          "type": "uint256"
        }
      ],
      "name": "CreationFeeCollected",
      "type": "event"
    },
    {
      "anonymous": false,
      "inputs": [
        {
          "indexed": true,
          "internalType": "address",
          "name": "token",
          "type": "address"
        },
        {
          "indexed": true,
          "internalType": "address",
          "name": "recipient",
          "type": "address"
        },
        {
          "indexed": false,
          "internalType": "uint256",
          "name": "amount",
          "type": "uint256"
        }
      ],
      "name": "FeesWithdrawn",
      "type": "event"
    },
    {
      "anonymous": false,
      "inputs": [
        {
          "indexed": false,
          "internalType": "string",
          "name": "reason",
          "type": "string"
        }
      ],
      "name": "MigrationError",
      "type": "event"
    },
    {
      "anonymous": false,
      "inputs": [
        {
          "indexed": false,
          "internalType": "string",
          "name": "step",
          "type": "string"
        },
        {
          "indexed": true,
          "internalType": "address",
          "name": "wrappedSong",
          "type": "address"
        }
      ],
      "name": "MigrationStep",
      "type": "event"
    },
    {
      "anonymous": false,
      "inputs": [
        {
          "indexed": true,
          "internalType": "address",
          "name": "owner",
          "type": "address"
        },
        {
          "indexed": true,
          "internalType": "address",
          "name": "wrappedSongSmartAccount",
          "type": "address"
        },
        {
          "indexed": false,
          "internalType": "address",
          "name": "stablecoin",
          "type": "address"
        },
        {
          "indexed": false,
          "internalType": "address",
          "name": "wsTokenManagement",
          "type": "address"
        },
        {
          "indexed": false,
          "internalType": "uint256",
          "name": "sharesAmount",
          "type": "uint256"
        },
        {
          "components": [
            {
              "internalType": "string",
              "name": "name",
              "type": "string"
            },
            {
              "internalType": "string",
              "name": "description",
              "type": "string"
            },
            {
              "internalType": "string",
              "name": "image",
              "type": "string"
            },
            {
              "internalType": "string",
              "name": "externalUrl",
              "type": "string"
            },
            {
              "internalType": "string",
              "name": "animationUrl",
              "type": "string"
            },
            {
              "internalType": "string",
              "name": "attributesIpfsHash",
              "type": "string"
            }
          ],
          "indexed": false,
          "internalType": "struct IMetadataModule.Metadata",
          "name": "metadata",
          "type": "tuple"
        }
      ],
      "name": "WrappedSongCreated",
      "type": "event"
    },
    {
      "anonymous": false,
      "inputs": [
        {
          "indexed": true,
          "internalType": "address",
          "name": "oldWrappedSong",
          "type": "address"
        },
        {
          "indexed": true,
          "internalType": "address",
          "name": "newWrappedSong",
          "type": "address"
        },
        {
          "indexed": true,
          "internalType": "address",
          "name": "owner",
          "type": "address"
        },
        {
          "indexed": false,
          "internalType": "address",
          "name": "stablecoin",
          "type": "address"
        },
        {
          "indexed": false,
          "internalType": "address",
          "name": "wsTokenManagement",
          "type": "address"
        }
      ],
      "name": "WrappedSongMigrated",
      "type": "event"
    },
    {
      "inputs": [
        {
          "internalType": "address",
          "name": "",
          "type": "address"
        }
      ],
      "name": "accumulatedFees",
      "outputs": [
        {
          "internalType": "uint256",
          "name": "",
          "type": "uint256"
        }
      ],
      "stateMutability": "view",
      "type": "function"
    },
    {
      "inputs": [
        {
          "internalType": "address",
          "name": "_stablecoin",
          "type": "address"
        },
        {
          "components": [
            {
              "internalType": "string",
              "name": "name",
              "type": "string"
            },
            {
              "internalType": "string",
              "name": "description",
              "type": "string"
            },
            {
              "internalType": "string",
              "name": "image",
              "type": "string"
            },
            {
              "internalType": "string",
              "name": "externalUrl",
              "type": "string"
            },
            {
              "internalType": "string",
              "name": "animationUrl",
              "type": "string"
            },
            {
              "internalType": "string",
              "name": "attributesIpfsHash",
              "type": "string"
            }
          ],
          "internalType": "struct IMetadataModule.Metadata",
          "name": "songMetadata",
          "type": "tuple"
        },
        {
          "internalType": "uint256",
          "name": "sharesAmount",
          "type": "uint256"
        }
      ],
      "name": "createWrappedSong",
      "outputs": [
        {
          "internalType": "address",
          "name": "",
          "type": "address"
        }
      ],
      "stateMutability": "payable",
      "type": "function"
    },
    {
      "inputs": [],
      "name": "metadataModule",
      "outputs": [
        {
          "internalType": "contract IMetadataModule",
          "name": "",
          "type": "address"
        }
      ],
      "stateMutability": "view",
      "type": "function"
    },
    {
      "inputs": [
        {
          "internalType": "address",
          "name": "oldWrappedSong_",
          "type": "address"
        },
        {
          "internalType": "address",
          "name": "oldMetadataModule_",
          "type": "address"
        }
      ],
      "name": "migrateWrappedSong",
      "outputs": [
        {
          "internalType": "address",
          "name": "",
          "type": "address"
        }
      ],
      "stateMutability": "payable",
      "type": "function"
    },
    {
      "inputs": [],
      "name": "protocolModule",
      "outputs": [
        {
          "internalType": "contract IProtocolModule",
          "name": "",
          "type": "address"
        }
      ],
      "stateMutability": "view",
      "type": "function"
    },
    {
      "inputs": [
        {
          "internalType": "address",
          "name": "token",
          "type": "address"
        },
        {
          "internalType": "address",
          "name": "recipient",
          "type": "address"
        }
      ],
      "name": "withdrawAccumulatedFees",
      "outputs": [],
      "stateMutability": "nonpayable",
      "type": "function"
    },
    {
      "inputs": [],
      "name": "wrappedSongTemplate",
      "outputs": [
        {
          "internalType": "address",
          "name": "",
          "type": "address"
        }
      ],
      "stateMutability": "view",
      "type": "function"
    },
    {
      "inputs": [],
      "name": "wsTokenTemplate",
      "outputs": [
        {
          "internalType": "address",
          "name": "",
          "type": "address"
        }
      ],
      "stateMutability": "view",
      "type": "function"
    },
    {
      "stateMutability": "payable",
      "type": "receive"
    }
  ],
  "bytecode": "0x610100604090808252346200028c5760608162002991803803809162000026828562000291565b8339810103126200028c576200003c81620002cb565b906020916200005a8462000052858501620002cb565b9301620002cb565b926001600160a01b039182168015620002485782841615620002045782851615620001c057908082600493608052875193848092630222e55560e21b82525afa908115620001b55760009162000176575b5090501660a05260c05260e052516126b09081620002e1823960805181818161012e01528181610ec401528181610f4701528181610fae01528181610ff901528181611129015281816111d2015281816112120152818161125c01528181611298015281816112f60152818161132f015281816113900152818161162801528181611c3d0152611cf6015260a05181818161087b015281816114760152611f1f015260c05181818161043e015281816110cf0152611c82015260e0518181816111750152611bf80152f35b82813d8311620001ad575b6200018d818362000291565b81010312620001aa5750620001a290620002cb565b8038620000ab565b80fd5b503d62000181565b86513d6000823e3d90fd5b855162461bcd60e51b815260048101839052601860248201527f496e76616c6964205753546f6b656e2074656d706c61746500000000000000006044820152606490fd5b855162461bcd60e51b815260048101839052601d60248201527f496e76616c6964207772617070656420736f6e672074656d706c6174650000006044820152606490fd5b855162461bcd60e51b815260048101839052601760248201527f496e76616c69642070726f746f636f6c206d6f64756c650000000000000000006044820152606490fd5b600080fd5b601f909101601f19168101906001600160401b03821190821017620002b557604052565b634e487b7160e01b600052604160045260246000fd5b51906001600160a01b03821682036200028c5756fe608080604052600436101561001d575b50361561001b57600080fd5b005b600090813560e01c9081633684d10014611f0b57508063376c1f0714611cb15780633e22876b14611c6c5780635c42e66714611c275780635e63149f14611be2578063b9408f5c14610d7c578063d70a0abc146100b85763fcf666640361000f57346100b55760203660031901126100b5576020906040906001600160a01b036100a5611f4e565b1681528083522054604051908152f35b80fd5b5060403660031901126100b5576100cd611f4e565b6100d5611f69565b604051926100e284611fc3565b60178452610117836020957f5374617274696e67206d6967726174696f6e20666f723a0000000000000000008782015261262a565b604051635c975abb60e01b81526001600160a01b037f00000000000000000000000000000000000000000000000000000000000000008116949093918681600481895afa908115610d7157859291610177918691610d54575b5015612094565b6101aa60405161018681611fc3565b6013815272141c9bdd1bd8dbdb081b9bdd081c185d5cd959606a1b89820152612594565b169160405193638da5cb5b60e01b948581528781600481885afa908115610af3579061027e918491610d37575b50610207816040516101e881611fc3565b600e81526d21bab93932b73a1037bbb732b91d60911b8c82015261262a565b61028d603f61021533612490565b61021e84612490565b8c6040519687937f496e76616c6964206f776e65722e2045787065637465643a20000000000000008386015261025d81518092856039890191016120d5565b8401916501023b7ba1d160d51b6039840152835193849187850191016120d5565b0103601f810185520183611ff9565b8233911603610d1157506102c96040516102a681611fc3565b601281527113dddb995c9cda1a5c081d995c9a599a595960721b89820152612594565b604051630b19e31960e21b81528781600481885afa908115610af3578391610ce4575b50610ca75761032e60405161030081611fc3565b601881527f4d6967726174696f6e2073746174757320636865636b6564000000000000000089820152612594565b6040516374e5ec1160e11b81528781600481885afa908115610af3579082918491610c69575b50169461038d8660405161036781611fc3565b601581527429ba30b13632b1b7b4b7103932ba3934b2bb32b21d60591b8b82015261262a565b60405193636fad7e9560e11b9283865289866004818a5afa958615610b16578596610c4a575b506103f2866040516103c481611fc3565b601a81527f5753546f6b656e2061646472657373207265747269657665643a0000000000008d82015261262a565b808616918215610c055761043960405161040b81611fc3565b601881527f5753546f6b656e206164647265737320766572696669656400000000000000008d820152612594565b6104627f00000000000000000000000000000000000000000000000000000000000000006122e1565b926104a2848d7f4e6577207772617070656420736f6e6720636c6f6e65643a00000000000000006040519161049683611fc3565b6018835282015261262a565b8284169a8b3b15610bba5760405163c0c53b8b60e01b81526001600160a01b03808d1660048301523360248301528216604482015288818e8183816064810103925af18015610bd257908991610bf1575b50506105338d7f4e6577207772617070656420736f6e6720696e697469616c697a6564000000006040519161052783611fc3565b601c8352820152612594565b803b15610bba5760405163d9ce7b9560e01b815260048101839052888160248183865af18015610bd257908991610bdd575b50506105a58d7f5753546f6b656e2073657420696e2070726f746f636f6c0000000000000000006040519161059983611fc3565b60178352820152612594565b803b15610bba576040516208ac8360e01b81526001600160a01b0386811660048301528a166024820152888160448183865af18015610bd257908991610bbe575b50506106388d7f536d617274206163636f756e7420746f205753546f6b656e2072656c6174696f6040519161061a83611fde565b60298352820152681b9cda1a5c081cd95d60ba1b6040820152612594565b803b15610bba5760405160016216ef6160e31b031981523360048201526001600160a01b03861660248201529088908290604490829084905af18015610baf57908891610b9b575b50506106b88c7413dddb995c881cd95d081a5b881c1c9bdd1bd8dbdb605a1b604051916106ac83611fc3565b60158352820152612594565b8a3b15610b975760405163716f6e8760e01b815260048101919091528681602481838f5af18015610b8c579187918493610b70575b506107258d7515d4d51bdad95b881b585b9859d95b595b9d081cd95d60521b6040519161071983611fc3565b60168352820152612594565b6024604051809481936301a4e6dd60e51b83528d6004840152165afa908115610b475786908192610b52575b506108b791926107828d7513db19081b595d1859185d18481c995d1c9a595d995960521b6040519161071983611fc3565b6107b88d8551907127b6321036b2ba30b230ba30903730b6b29d60711b604051916107ac83611fc3565b601283528201526125e3565b6107f28d6040860151907227b6321036b2ba30b230ba309034b6b0b3b29d60691b604051916107e683611fc3565b601383528201526125e3565b6108368d6080860151907f4f6c64206d6574616461746120616e696d6174696f6e55726c3a0000000000006040519161082a83611fc3565b601a83528201526125e3565b6108798d60a0860151907f4f6c64206d65746164617461206174747269627574657349706673486173683a6040519161086e83611fc3565b8083528201526125e3565b7f0000000000000000000000000000000000000000000000000000000000000000169260405180938192636613680d60e01b835287600484016122bf565b038183865af18015610b4757610b25575b506108fd6040516108d881611fc3565b601481527313995dc81b595d1859185d184818dc99585d195960621b8c820152612594565b863b15610b21576040516335c282af60e21b81526001600160a01b03918216600482015290821660248201528481604481838b5af18015610b1657908591610afe575b505061099d9061097760405161095581611fc3565b601181527013db19081cdbdb99c81b5a59dc985d1959607a1b8c820152612594565b60405161098381611fc3565b60098152682732bb9039b7b7339d60b91b8b82015261262a565b60405190815287816004818a5afa908115610af357906109eb918491610ad6575b506040516109cb81611fc3565b600f81526e2732bb9039b7b7339037bbb732b91d60891b8a82015261262a565b6040519081528681600481895afa918215610aca5792610a6e7fc42cdc1cea8afc407ec500712a997b1d17d698ae57762e29810084b83a295a5493610a929389979691610a9d575b50604051610a4081611fc3565b601b81527f4e657720736f6e67205753546f6b656e4d616e6167656d656e743a00000000008b82015261262a565b604080516001600160a01b0397881681529690911660208701523395918291820190565b0390a4604051908152f35b610abd91508a3d8c11610ac3575b610ab58183611ff9565b810190612349565b38610a33565b503d610aab565b604051903d90823e3d90fd5b610aed9150893d8b11610ac357610ab58183611ff9565b386109be565b6040513d85823e3d90fd5b610b0790611fb0565b610b12578338610940565b8380fd5b6040513d87823e3d90fd5b8480fd5b610b40903d8088833e610b388183611ff9565b81019061213d565b50386108c8565b6040513d88823e3d90fd5b6108b79250610b6a903d8084833e610b388183611ff9565b91610751565b610b7b919350611fb0565b610b8857858291386106ed565b8580fd5b6040513d89823e3d90fd5b8680fd5b610ba490611fb0565b610b97578638610680565b6040513d8a823e3d90fd5b8780fd5b610bc790611fb0565b610bba5787386105e6565b6040513d8b823e3d90fd5b610be690611fb0565b610bba578738610565565b610bfa90611fb0565b610bba5787386104f3565b60405162461bcd60e51b8152600481018c9052601760248201527f496e76616c6964205753546f6b656e20616464726573730000000000000000006044820152606490fd5b610c629196508a3d8c11610ac357610ab58183611ff9565b94386103b3565b809250898092503d8311610ca0575b610c828183611ff9565b81010312610c9c57518181168103610c9c57819038610354565b8280fd5b503d610c78565b60405162461bcd60e51b815260048101889052601560248201527414dbdb99c8185b1c9958591e481b5a59dc985d1959605a1b6044820152606490fd5b610d049150883d8a11610d0a575b610cfc8183611ff9565b81019061207c565b386102ec565b503d610cf2565b87610d3360405192839262461bcd60e51b84526004840152602483019061221c565b0390fd5b610d4e9150893d8b11610ac357610ab58183611ff9565b386101d7565b610d6b9150893d8b11610d0a57610cfc8183611ff9565b38610170565b6040513d86823e3d90fd5b5060031960603682011261159c57610d92611f4e565b602435916001600160401b038311610b125760c0908336030112610c9c5760405191610dbd83611f7f565b80600401356001600160401b038111610b2157610de09060043691840101612035565b835260248101356001600160401b038111610b2157610e059060043691840101612035565b602084015260448101356001600160401b038111610b2157610e2d9060043691840101612035565b604084015260648101356001600160401b038111610b2157610e559060043691840101612035565b606084015260848101356001600160401b038111610b2157610e7d9060043691840101612035565b906080840191825260a4810135906001600160401b038211610b88576004610ea89236920101612035565b60a08401908152604051635c975abb60e01b81526020816004817f00000000000000000000000000000000000000000000000000000000000000006001600160a01b03165afa8015610b4757610f05918791611bc9575015612094565b83515115159182611bba575b82611bae575b5081611ba2575b5015611b6a5760443515611b155760405163f140b55f60e01b81523360048201526020816024817f00000000000000000000000000000000000000000000000000000000000000006001600160a01b03165afa908115610d71578491611af6575b5015611ab25760405163b5af090f60e01b81526001600160a01b038281166004830152602090829060249082907f0000000000000000000000000000000000000000000000000000000000000000165afa908115610d71578491611a93575b5015611a4e5760405163670d296960e11b81526020816004817f00000000000000000000000000000000000000000000000000000000000000006001600160a01b03165afa908115610d71576004916020918691611a31575b50604051636d4726d960e01b815292839182906001600160a01b03165afa908115610d715784916119ef575b5060405163a454912960e01b8152906020826004816001600160a01b0385165afa918215610b165785926119bb575b5060405163d579e3f360e01b81526020816004816001600160a01b0386165afa908115610b4757869161199c575b50826115db575b5050506110f37f00000000000000000000000000000000000000000000000000000000000000006122e1565b916001600160a01b0383163b15610b125760405163c0c53b8b60e01b81526001600160a01b0383811660048301523260248301527f0000000000000000000000000000000000000000000000000000000000000000166044820152848180606481010381836001600160a01b0389165af18015610b16576115c8575b506111997f00000000000000000000000000000000000000000000000000000000000000006122e1565b6001600160a01b038116908590823b1561159c5760405163c0c53b8b60e01b81526001600160a01b0387811660048301523360248301527f0000000000000000000000000000000000000000000000000000000000000000166044820152828160648183885af1908115610af35783916115b4575b50507f00000000000000000000000000000000000000000000000000000000000000006001600160a01b03163b1561159c5760405163d9ce7b9560e01b8152600481018490528281602481837f00000000000000000000000000000000000000000000000000000000000000006001600160a01b03165af1908115610af35783916115a0575b50507f00000000000000000000000000000000000000000000000000000000000000006001600160a01b03163b1561159c576040516208ac8360e01b81526001600160a01b0380881660048301529091166024820152818180604481010381837f00000000000000000000000000000000000000000000000000000000000000006001600160a01b03165af1801561155557611588575b50507f00000000000000000000000000000000000000000000000000000000000000006001600160a01b03163b15610b215760405160016216ef6160e31b031981523360048201526001600160a01b03851660248201528590818180604481010381837f00000000000000000000000000000000000000000000000000000000000000006001600160a01b03165af1801561155557611574575b50506001600160a01b0384163b15610b215760405163716f6e8760e01b81526004810182905285908181602481836001600160a01b038b165af1801561155557611560575b50506001600160a01b0384163b15610b21576040516339fa62df60e01b8152604435600482015285908181602481836001600160a01b038b165af1801561155557611541575b50604051636613680d60e01b815292839081906114719088600484016122bf565b0381837f00000000000000000000000000000000000000000000000000000000000000006001600160a01b03165af1918215610b16578560209693611524575b50506040519260018060a01b03168352848301526044356040830152608060608301527f938ece1ab5d508d56896411e3f1b2c96359f780ecbfe90c9a4031cd170aa4a4a60018060a01b038416928061150f33946080830190612241565b0390a36040516001600160a01b039091168152f35b6115399293503d8091833e610b388183611ff9565b9038806114b1565b61154b8291611fb0565b6100b55738611450565b6040513d84823e3d90fd5b61156990611fb0565b610b2157843861140a565b61157d90611fb0565b610b215784386113c5565b61159190611fb0565b610b2157843861132b565b5080fd5b6115a990611fb0565b61159c578138611294565b6115bd90611fb0565b61159c57813861120e565b6115d490949194611fb0565b923861116f565b1561188b576040516337a0a9e960e11b815290602090829060049082906001600160a01b03165afa908115610b16578591611859575b5060405163670d296960e11b8152906020826004817f00000000000000000000000000000000000000000000000000000000000000006001600160a01b03165afa918215610b4757600492602091889161183c575b506040516309da4e5160e01b815293849182906001600160a01b03165afa918215610b475786926117f7575b50604051637c70c0a360e01b8152600481019190915290602090829060249082906001600160a01b03165afa908115610b165785916117d8575b506001600160a01b0316908115611787576040516323b872dd60e01b60208201523360248201523060448201526064808201839052815260a081016001600160401b0381118282101761177357869261174c7fdd872ca9502e175165673833ac2a0e1395edb4b5c72f2915685598490c375e9993602093604052866123bb565b84845283825260408420611761828254612368565b9055604051908152a35b3880806110c7565b634e487b7160e01b87526041600452602487fd5b60405162461bcd60e51b815260206004820152602360248201527f4e6f2077686974656c697374656420737461626c65636f696e20617661696c61604482015262626c6560e81b6064820152608490fd5b6117f1915060203d602011610ac357610ab58183611ff9565b386116cc565b9091506020813d602011611834575b8161181360209383611ff9565b81010312610b8857516001600160a01b0381168103610b8857906020611692565b3d9150611806565b6118539150823d8411610ac357610ab58183611ff9565b38611666565b90506020813d602011611883575b8161187460209383611ff9565b81010312610b21575138611611565b3d9150611867565b508034106119575783805283602052604084206118a9348254612368565b90558034116118e5575b5082807fdd872ca9502e175165673833ac2a0e1395edb4b5c72f2915685598490c375e996020604051348152a361176b565b3403348111611943578380808093335af16118fe61238b565b501561190a57386118b3565b60405162461bcd60e51b8152602060048201526011602482015270115512081c99599d5b990819985a5b1959607a1b6044820152606490fd5b634e487b7160e01b84526011600452602484fd5b60405162461bcd60e51b815260206004820152601860248201527f496e636f7272656374204554482066656520616d6f756e7400000000000000006044820152606490fd5b6119b5915060203d602011610d0a57610cfc8183611ff9565b386110c0565b9091506020813d6020116119e7575b816119d760209383611ff9565b81010312610b2157519038611092565b3d91506119ca565b90506020813d602011611a29575b81611a0a60209383611ff9565b81010312610b1257516001600160a01b0381168103610b125738611063565b3d91506119fd565b611a489150823d8411610ac357610ab58183611ff9565b38611037565b60405162461bcd60e51b815260206004820152601d60248201527f537461626c65636f696e206973206e6f742077686974656c69737465640000006044820152606490fd5b611aac915060203d602011610d0a57610cfc8183611ff9565b38610fde565b606460405162461bcd60e51b815260206004820152602060248201527f4e6f742076616c696420746f20637265617465205772617070656420536f6e676044820152fd5b611b0f915060203d602011610d0a57610cfc8183611ff9565b38610f7f565b60405162461bcd60e51b815260206004820152602760248201527f53686172657320616d6f756e74206d7573742062652067726561746572207468604482015266616e207a65726f60c81b6064820152608490fd5b60405162461bcd60e51b815260206004820152601060248201526f496e76616c6964206d6574616461746160801b6044820152606490fd5b90505151151538610f1e565b51511515915038610f17565b60408501515115159250610f11565b610d6b915060203d602011610d0a57610cfc8183611ff9565b50346100b557806003193601126100b5576040517f00000000000000000000000000000000000000000000000000000000000000006001600160a01b03168152602090f35b50346100b557806003193601126100b5576040517f00000000000000000000000000000000000000000000000000000000000000006001600160a01b03168152602090f35b50346100b557806003193601126100b5576040517f00000000000000000000000000000000000000000000000000000000000000006001600160a01b03168152602090f35b50346100b55760403660031901126100b557611ccb611f4e565b611cd3611f69565b604051638da5cb5b60e01b815290916001600160a01b03916020919082816004817f000000000000000000000000000000000000000000000000000000000000000088165afa8015610b475784918791611eee575b50163303611e9b578216918285528482526040852054938415611e60578386528583528560408120558315600014611dde5785808080888686165af1611d6c61238b565b5015611da357907f5e110f8bc8a20b65dcc87f224bdf1cc039346e267118bae2739847f07321ffa892915b6040519586521693a380f35b60405162461bcd60e51b8152600481018490526013602482015272115512081d1c985b9cd9995c8819985a5b1959606a1b6044820152606490fd5b60405163a9059cbb60e01b84820152818316602482015260448082018790528152608081016001600160401b03811182821017611e4c577f5e110f8bc8a20b65dcc87f224bdf1cc039346e267118bae2739847f07321ffa894939291611e4791604052866123bb565b611d97565b634e487b7160e01b88526041600452602488fd5b60405162461bcd60e51b81526004810184905260136024820152724e6f206665657320746f20776974686472617760681b6044820152606490fd5b60405162461bcd60e51b815260048101839052602560248201527f4f6e6c792070726f746f636f6c206f776e65722063616e207769746864726177604482015264206665657360d81b6064820152608490fd5b611f059150843d8611610ac357610ab58183611ff9565b38611d28565b90503461159c578160031936011261159c577f00000000000000000000000000000000000000000000000000000000000000006001600160a01b03168152602090f35b600435906001600160a01b0382168203611f6457565b600080fd5b602435906001600160a01b0382168203611f6457565b60c081019081106001600160401b03821117611f9a57604052565b634e487b7160e01b600052604160045260246000fd5b6001600160401b038111611f9a57604052565b604081019081106001600160401b03821117611f9a57604052565b606081019081106001600160401b03821117611f9a57604052565b90601f801991011681019081106001600160401b03821117611f9a57604052565b6001600160401b038111611f9a57601f01601f191660200190565b81601f82011215611f645780359061204c8261201a565b9261205a6040519485611ff9565b82845260208383010111611f6457816000926020809301838601378301015290565b90816020910312611f6457518015158103611f645790565b1561209b57565b60405162461bcd60e51b8152602060048201526012602482015271141c9bdd1bd8dbdb081a5cc81c185d5cd95960721b6044820152606490fd5b60005b8381106120e85750506000910152565b81810151838201526020016120d8565b81601f82011215611f6457805161210e8161201a565b9261211c6040519485611ff9565b81845260208284010111611f645761213a91602080850191016120d5565b90565b90602082820312611f645781516001600160401b0392838211611f6457019060c082820312611f64576040519261217384611f7f565b8251818111611f6457826121889185016120f8565b84526020830151818111611f6457826121a29185016120f8565b60208501526040830151818111611f6457826121bf9185016120f8565b60408501526060830151818111611f6457826121dc9185016120f8565b60608501526080830151818111611f6457826121f99185016120f8565b608085015260a0830151908111611f645761221492016120f8565b60a082015290565b90602091612235815180928185528580860191016120d5565b601f01601f1916010190565b61213a9160a06122ae61229c61228a612278612266875160c0885260c088019061221c565b6020880151878203602089015261221c565b6040870151868203604088015261221c565b6060860151858203606087015261221c565b6080850151848203608086015261221c565b9201519060a081840391015261221c565b6001600160a01b03909116815260406020820181905261213a92910190612241565b6e5af43d82803e903d91602b57fd5bf390763d602d80600a3d3981f3363d3d373d3d3d363d7300000062ffffff8260881c161760005260781b17602052603760096000f0906001600160a01b0382161561233757565b6040516330be1a3d60e21b8152600490fd5b90816020910312611f6457516001600160a01b0381168103611f645790565b9190820180921161237557565b634e487b7160e01b600052601160045260246000fd5b3d156123b6573d9061239c8261201a565b916123aa6040519384611ff9565b82523d6000602084013e565b606090565b6000806123e49260018060a01b03169360208151910182865af16123dd61238b565b908361242d565b8051908115159182612412575b50506123fa5750565b60249060405190635274afe760e01b82526004820152fd5b612425925060208091830101910161207c565b1538806123f1565b90612454575080511561244257805190602001fd5b604051630a12f52160e11b8152600490fd5b81511580612487575b612465575090565b604051639996b31560e01b81526001600160a01b039091166004820152602490fd5b50803b1561245d565b604051906001600160a01b0316806124a783611fde565b602a83526020808401604036823784511561257e576030905383519060019182101561257e5790607860218601536029915b81831161250a575050506124eb575090565b6044906040519063e22e27eb60e01b8252600482015260146024820152fd5b909192600f81166010811015612569578651851015612569576f181899199a1a9b1b9c1cb0b131b232b360811b901a86850183015360041c928015612554576000190191906124d9565b60246000634e487b7160e01b81526011600452fd5b60246000634e487b7160e01b81526032600452fd5b634e487b7160e01b600052603260045260246000fd5b600080916040516125d0816125c2602082019463104c13eb60e21b865260206024840152604483019061221c565b03601f198101835282611ff9565b51906a636f6e736f6c652e6c6f675afa50565b600091906125c26125d084936040519283916126186020840196634b5c427760e01b885260406024860152606485019061221c565b8381036023190160448501529061221c565b6000919082916125d0604051809261265b602083019563319af33360e01b875260406024850152606484019061221c565b6001600160a01b0391909116604483015203601f198101835282611ff956fea264697066735822122068813c586a35a01f5db1c89b163e44dd4d568869867591508a31a654479371d064736f6c63430008140033",
  "linkReferences": {},
  "deployedLinkReferences": {}
}