{
  "_format": "hh-sol-artifact-1",
  "contractName": "WrappedSongFactoryV2",
  "sourceName": "contracts/mocks/WrappedSongFactoryV2.sol",
  "abi": [
    {
      "inputs": [
        {
          "internalType": "address",
          "name": "_protocolModule",
          "type": "address"
        },
        {
          "internalType": "address",
          "name": "_wrappedSongTemplate",
          "type": "address"
        },
        {
          "internalType": "address",
          "name": "_wsTokenTemplate",
          "type": "address"
        }
      ],
      "stateMutability": "nonpayable",
      "type": "constructor"
    },
    {
      "inputs": [
        {
          "internalType": "address",
          "name": "target",
          "type": "address"
        }
      ],
      "name": "AddressEmptyCode",
      "type": "error"
    },
    {
      "inputs": [
        {
          "internalType": "address",
          "name": "account",
          "type": "address"
        }
      ],
      "name": "AddressInsufficientBalance",
      "type": "error"
    },
    {
      "inputs": [],
      "name": "ERC1167FailedCreateClone",
      "type": "error"
    },
    {
      "inputs": [],
      "name": "FailedInnerCall",
      "type": "error"
    },
    {
      "inputs": [
        {
          "internalType": "address",
          "name": "token",
          "type": "address"
        }
      ],
      "name": "SafeERC20FailedOperation",
      "type": "error"
    },
    {
      "inputs": [
        {
          "internalType": "uint256",
          "name": "value",
          "type": "uint256"
        },
        {
          "internalType": "uint256",
          "name": "length",
          "type": "uint256"
        }
      ],
      "name": "StringsInsufficientHexLength",
      "type": "error"
    },
    {
      "anonymous": false,
      "inputs": [
        {
          "indexed": true,
          "internalType": "address",
          "name": "wrappedSong",
          "type": "address"
        },
        {
          "indexed": true,
          "internalType": "address",
          "name": "token",
          "type": "address"
        },
        {
          "indexed": false,
          "internalType": "uint256",
          "name": "amount",
          "type": "uint256"
        }
      ],
      "name": "CreationFeeCollected",
      "type": "event"
    },
    {
      "anonymous": false,
      "inputs": [
        {
          "indexed": true,
          "internalType": "address",
          "name": "token",
          "type": "address"
        },
        {
          "indexed": true,
          "internalType": "address",
          "name": "recipient",
          "type": "address"
        },
        {
          "indexed": false,
          "internalType": "uint256",
          "name": "amount",
          "type": "uint256"
        }
      ],
      "name": "FeesWithdrawn",
      "type": "event"
    },
    {
      "anonymous": false,
      "inputs": [
        {
          "indexed": false,
          "internalType": "string",
          "name": "reason",
          "type": "string"
        }
      ],
      "name": "MigrationError",
      "type": "event"
    },
    {
      "anonymous": false,
      "inputs": [
        {
          "indexed": false,
          "internalType": "string",
          "name": "step",
          "type": "string"
        },
        {
          "indexed": true,
          "internalType": "address",
          "name": "wrappedSong",
          "type": "address"
        }
      ],
      "name": "MigrationStep",
      "type": "event"
    },
    {
      "anonymous": false,
      "inputs": [
        {
          "indexed": true,
          "internalType": "address",
          "name": "owner",
          "type": "address"
        },
        {
          "indexed": true,
          "internalType": "address",
          "name": "wrappedSongSmartAccount",
          "type": "address"
        },
        {
          "indexed": false,
          "internalType": "address",
          "name": "stablecoin",
          "type": "address"
        },
        {
          "indexed": false,
          "internalType": "address",
          "name": "wsTokenManagement",
          "type": "address"
        },
        {
          "indexed": false,
          "internalType": "uint256",
          "name": "sharesAmount",
          "type": "uint256"
        },
        {
          "components": [
            {
              "internalType": "string",
              "name": "name",
              "type": "string"
            },
            {
              "internalType": "string",
              "name": "description",
              "type": "string"
            },
            {
              "internalType": "string",
              "name": "image",
              "type": "string"
            },
            {
              "internalType": "string",
              "name": "externalUrl",
              "type": "string"
            },
            {
              "internalType": "string",
              "name": "animationUrl",
              "type": "string"
            },
            {
              "internalType": "string",
              "name": "attributesIpfsHash",
              "type": "string"
            }
          ],
          "indexed": false,
          "internalType": "struct IMetadataModule.Metadata",
          "name": "metadata",
          "type": "tuple"
        }
      ],
      "name": "WrappedSongCreated",
      "type": "event"
    },
    {
      "anonymous": false,
      "inputs": [
        {
          "indexed": true,
          "internalType": "address",
          "name": "oldWrappedSong",
          "type": "address"
        },
        {
          "indexed": true,
          "internalType": "address",
          "name": "newWrappedSong",
          "type": "address"
        },
        {
          "indexed": true,
          "internalType": "address",
          "name": "owner",
          "type": "address"
        },
        {
          "indexed": false,
          "internalType": "address",
          "name": "stablecoin",
          "type": "address"
        },
        {
          "indexed": false,
          "internalType": "address",
          "name": "wsTokenManagement",
          "type": "address"
        }
      ],
      "name": "WrappedSongMigrated",
      "type": "event"
    },
    {
      "inputs": [
        {
          "internalType": "address",
          "name": "",
          "type": "address"
        }
      ],
      "name": "accumulatedFees",
      "outputs": [
        {
          "internalType": "uint256",
          "name": "",
          "type": "uint256"
        }
      ],
      "stateMutability": "view",
      "type": "function"
    },
    {
      "inputs": [
        {
          "internalType": "address",
          "name": "_stablecoin",
          "type": "address"
        },
        {
          "components": [
            {
              "internalType": "string",
              "name": "name",
              "type": "string"
            },
            {
              "internalType": "string",
              "name": "description",
              "type": "string"
            },
            {
              "internalType": "string",
              "name": "image",
              "type": "string"
            },
            {
              "internalType": "string",
              "name": "externalUrl",
              "type": "string"
            },
            {
              "internalType": "string",
              "name": "animationUrl",
              "type": "string"
            },
            {
              "internalType": "string",
              "name": "attributesIpfsHash",
              "type": "string"
            }
          ],
          "internalType": "struct IMetadataModule.Metadata",
          "name": "songMetadata",
          "type": "tuple"
        },
        {
          "internalType": "uint256",
          "name": "sharesAmount",
          "type": "uint256"
        }
      ],
      "name": "createWrappedSong",
      "outputs": [
        {
          "internalType": "address",
          "name": "",
          "type": "address"
        }
      ],
      "stateMutability": "payable",
      "type": "function"
    },
    {
      "inputs": [],
      "name": "erc20whitelist",
      "outputs": [
        {
          "internalType": "contract IERC20Whitelist",
          "name": "",
          "type": "address"
        }
      ],
      "stateMutability": "view",
      "type": "function"
    },
    {
      "inputs": [],
      "name": "feesModule",
      "outputs": [
        {
          "internalType": "contract IFeesModule",
          "name": "",
          "type": "address"
        }
      ],
      "stateMutability": "view",
      "type": "function"
    },
    {
      "inputs": [],
      "name": "metadataModule",
      "outputs": [
        {
          "internalType": "contract IMetadataModule",
          "name": "",
          "type": "address"
        }
      ],
      "stateMutability": "view",
      "type": "function"
    },
    {
      "inputs": [
        {
          "internalType": "address",
          "name": "oldWrappedSong_",
          "type": "address"
        },
        {
          "internalType": "address",
          "name": "oldMetadataModule_",
          "type": "address"
        }
      ],
      "name": "migrateWrappedSong",
      "outputs": [
        {
          "internalType": "address",
          "name": "",
          "type": "address"
        }
      ],
      "stateMutability": "payable",
      "type": "function"
    },
    {
      "inputs": [],
      "name": "protocolModule",
      "outputs": [
        {
          "internalType": "contract IProtocolModule",
          "name": "",
          "type": "address"
        }
      ],
      "stateMutability": "view",
      "type": "function"
    },
    {
      "inputs": [
        {
          "internalType": "address",
          "name": "token",
          "type": "address"
        },
        {
          "internalType": "address",
          "name": "recipient",
          "type": "address"
        }
      ],
      "name": "withdrawAccumulatedFees",
      "outputs": [],
      "stateMutability": "nonpayable",
      "type": "function"
    },
    {
      "inputs": [],
      "name": "wrappedSongTemplate",
      "outputs": [
        {
          "internalType": "address",
          "name": "",
          "type": "address"
        }
      ],
      "stateMutability": "view",
      "type": "function"
    },
    {
      "inputs": [],
      "name": "wsTokenTemplate",
      "outputs": [
        {
          "internalType": "address",
          "name": "",
          "type": "address"
        }
      ],
      "stateMutability": "view",
      "type": "function"
    },
    {
      "stateMutability": "payable",
      "type": "receive"
    }
  ],
  "bytecode": "0x6101406040818152346200046a5760608262002abf80380380916200002582856200046f565b8339810103126200046a576200003b82620004a9565b90602091620000598262000051858701620004a9565b9501620004a9565b926001600160a01b039182168015620004265782861615620003e257828516156200039e578181600492608052855192838092630222e55560e21b82525afa9081156200028c579083916000916200035f575b501660a05261010094855261012093845281608051168351828160048163670d296960e11b958682525afa9081156200031457849184916000916200031f575b506004875180948193636d4726d960e01b8352165afa9081156200031457600091620002d7575b5060c05281836080511691600486518094819382525afa9081156200028c578391839160009162000297575b5060048651809481936309da4e5160e01b8352165afa9182156200028c5760009262000248575b5050905060e05251906126009283620004bf843960805183818161014401528181610eda01528181610f5d01528181610fc4015281816110fd015281816111a6015281816111e6015281816112300152818161126c015281816112ca015281816113030152818161136401528181611b480152611c01015260a0518381816108910152818161144a0152611e2c015260c05183818161100f0152818161105d015281816115c90152611abe015260e05183818161161f0152611e6f015251828181610454015281816110a30152611b8d0152518181816111490152611b030152f35b81813d831162000284575b6200025f81836200046f565b8101031262000280575191821682036200027d575080388062000166565b80fd5b5080fd5b503d62000253565b84513d6000823e3d90fd5b92509082813d8111620002cf575b620002b181836200046f565b810103126200027d575081620002c88492620004a9565b386200013f565b503d620002a5565b8381813d83116200030c575b620002ef81836200046f565b810103126200028057519084821682036200027d57503862000113565b503d620002e3565b85513d6000823e3d90fd5b92509082813d811162000357575b6200033981836200046f565b810103126200027d575082620003508592620004a9565b38620000ec565b503d6200032d565b91508282813d831162000396575b6200037981836200046f565b810103126200027d57506200038f8391620004a9565b38620000ac565b503d6200036d565b835162461bcd60e51b815260048101839052601860248201527f496e76616c6964205753546f6b656e2074656d706c61746500000000000000006044820152606490fd5b835162461bcd60e51b815260048101839052601d60248201527f496e76616c6964207772617070656420736f6e672074656d706c6174650000006044820152606490fd5b835162461bcd60e51b815260048101839052601760248201527f496e76616c69642070726f746f636f6c206d6f64756c650000000000000000006044820152606490fd5b600080fd5b601f909101601f19168101906001600160401b038211908210176200049357604052565b634e487b7160e01b600052604160045260246000fd5b51906001600160a01b03821682036200046a5756fe608080604052600436101561001d575b50361561001b57600080fd5b005b600090813560e01c90816309da4e5114611e5b575080633684d10014611e16578063376c1f0714611bbc5780633e22876b14611b775780635c42e66714611b325780635e63149f14611aed5780636d4726d914611aa8578063b9408f5c14610d92578063d70a0abc146100ce5763fcf666640361000f57346100cb5760203660031901126100cb576020906040906001600160a01b036100bb611e9e565b1681528083522054604051908152f35b80fd5b5060403660031901126100cb576100e3611e9e565b6100eb611eb9565b604051926100f884611f13565b6017845261012d836020957f5374617274696e67206d6967726174696f6e20666f723a0000000000000000008782015261257a565b604051635c975abb60e01b81526001600160a01b037f00000000000000000000000000000000000000000000000000000000000000008116949093918681600481895afa908115610d875785929161018d918691610d6a575b5015611fe4565b6101c060405161019c81611f13565b6013815272141c9bdd1bd8dbdb081b9bdd081c185d5cd959606a1b898201526124e4565b169160405193638da5cb5b60e01b948581528781600481885afa908115610b095790610294918491610d4d575b5061021d816040516101fe81611f13565b600e81526d21bab93932b73a1037bbb732b91d60911b8c82015261257a565b6102a3603f61022b336123e0565b610234846123e0565b8c6040519687937f496e76616c6964206f776e65722e2045787065637465643a2000000000000000838601526102738151809285603989019101612025565b8401916501023b7ba1d160d51b603984015283519384918785019101612025565b0103601f810185520183611f49565b8233911603610d2757506102df6040516102bc81611f13565b601281527113dddb995c9cda1a5c081d995c9a599a595960721b898201526124e4565b604051630b19e31960e21b81528781600481885afa908115610b09578391610cfa575b50610cbd5761034460405161031681611f13565b601881527f4d6967726174696f6e2073746174757320636865636b65640000000000000000898201526124e4565b6040516374e5ec1160e11b81528781600481885afa908115610b09579082918491610c7f575b5016946103a38660405161037d81611f13565b601581527429ba30b13632b1b7b4b7103932ba3934b2bb32b21d60591b8b82015261257a565b60405193636fad7e9560e11b9283865289866004818a5afa958615610b2c578596610c60575b50610408866040516103da81611f13565b601a81527f5753546f6b656e2061646472657373207265747269657665643a0000000000008d82015261257a565b808616918215610c1b5761044f60405161042181611f13565b601881527f5753546f6b656e206164647265737320766572696669656400000000000000008d8201526124e4565b6104787f0000000000000000000000000000000000000000000000000000000000000000612231565b926104b8848d7f4e6577207772617070656420736f6e6720636c6f6e65643a0000000000000000604051916104ac83611f13565b6018835282015261257a565b8284169a8b3b15610bd05760405163c0c53b8b60e01b81526001600160a01b03808d1660048301523360248301528216604482015288818e8183816064810103925af18015610be857908991610c07575b50506105498d7f4e6577207772617070656420736f6e6720696e697469616c697a6564000000006040519161053d83611f13565b601c83528201526124e4565b803b15610bd05760405163d9ce7b9560e01b815260048101839052888160248183865af18015610be857908991610bf3575b50506105bb8d7f5753546f6b656e2073657420696e2070726f746f636f6c000000000000000000604051916105af83611f13565b601783528201526124e4565b803b15610bd0576040516208ac8360e01b81526001600160a01b0386811660048301528a166024820152888160448183865af18015610be857908991610bd4575b505061064e8d7f536d617274206163636f756e7420746f205753546f6b656e2072656c6174696f6040519161063083611f2e565b60298352820152681b9cda1a5c081cd95d60ba1b60408201526124e4565b803b15610bd05760405160016216ef6160e31b031981523360048201526001600160a01b03861660248201529088908290604490829084905af18015610bc557908891610bb1575b50506106ce8c7413dddb995c881cd95d081a5b881c1c9bdd1bd8dbdb605a1b604051916106c283611f13565b601583528201526124e4565b8a3b15610bad5760405163716f6e8760e01b815260048101919091528681602481838f5af18015610ba2579187918493610b86575b5061073b8d7515d4d51bdad95b881b585b9859d95b595b9d081cd95d60521b6040519161072f83611f13565b601683528201526124e4565b6024604051809481936301a4e6dd60e51b83528d6004840152165afa908115610b5d5786908192610b68575b506108cd91926107988d7513db19081b595d1859185d18481c995d1c9a595d995960521b6040519161072f83611f13565b6107ce8d8551907127b6321036b2ba30b230ba30903730b6b29d60711b604051916107c283611f13565b60128352820152612533565b6108088d6040860151907227b6321036b2ba30b230ba309034b6b0b3b29d60691b604051916107fc83611f13565b60138352820152612533565b61084c8d6080860151907f4f6c64206d6574616461746120616e696d6174696f6e55726c3a0000000000006040519161084083611f13565b601a8352820152612533565b61088f8d60a0860151907f4f6c64206d65746164617461206174747269627574657349706673486173683a6040519161088483611f13565b808352820152612533565b7f0000000000000000000000000000000000000000000000000000000000000000169260405180938192636613680d60e01b8352876004840161220f565b038183865af18015610b5d57610b3b575b506109136040516108ee81611f13565b601481527313995dc81b595d1859185d184818dc99585d195960621b8c8201526124e4565b863b15610b37576040516335c282af60e21b81526001600160a01b03918216600482015290821660248201528481604481838b5af18015610b2c57908591610b14575b50506109b39061098d60405161096b81611f13565b601181527013db19081cdbdb99c81b5a59dc985d1959607a1b8c8201526124e4565b60405161099981611f13565b60098152682732bb9039b7b7339d60b91b8b82015261257a565b60405190815287816004818a5afa908115610b095790610a01918491610aec575b506040516109e181611f13565b600f81526e2732bb9039b7b7339037bbb732b91d60891b8a82015261257a565b6040519081528681600481895afa918215610ae05792610a847fc42cdc1cea8afc407ec500712a997b1d17d698ae57762e29810084b83a295a5493610aa89389979691610ab3575b50604051610a5681611f13565b601b81527f4e657720736f6e67205753546f6b656e4d616e6167656d656e743a00000000008b82015261257a565b604080516001600160a01b0397881681529690911660208701523395918291820190565b0390a4604051908152f35b610ad391508a3d8c11610ad9575b610acb8183611f49565b8101906122ec565b38610a49565b503d610ac1565b604051903d90823e3d90fd5b610b039150893d8b11610ad957610acb8183611f49565b386109d4565b6040513d85823e3d90fd5b610b1d90611f00565b610b28578338610956565b8380fd5b6040513d87823e3d90fd5b8480fd5b610b56903d8088833e610b4e8183611f49565b81019061208d565b50386108de565b6040513d88823e3d90fd5b6108cd9250610b80903d8084833e610b4e8183611f49565b91610767565b610b91919350611f00565b610b9e5785829138610703565b8580fd5b6040513d89823e3d90fd5b8680fd5b610bba90611f00565b610bad578638610696565b6040513d8a823e3d90fd5b8780fd5b610bdd90611f00565b610bd05787386105fc565b6040513d8b823e3d90fd5b610bfc90611f00565b610bd057873861057b565b610c1090611f00565b610bd0578738610509565b60405162461bcd60e51b8152600481018c9052601760248201527f496e76616c6964205753546f6b656e20616464726573730000000000000000006044820152606490fd5b610c789196508a3d8c11610ad957610acb8183611f49565b94386103c9565b809250898092503d8311610cb6575b610c988183611f49565b81010312610cb257518181168103610cb25781903861036a565b8280fd5b503d610c8e565b60405162461bcd60e51b815260048101889052601560248201527414dbdb99c8185b1c9958591e481b5a59dc985d1959605a1b6044820152606490fd5b610d1a9150883d8a11610d20575b610d128183611f49565b810190611fcc565b38610302565b503d610d08565b87610d4960405192839262461bcd60e51b84526004840152602483019061216c565b0390fd5b610d649150893d8b11610ad957610acb8183611f49565b386101ed565b610d819150893d8b11610d2057610d128183611f49565b38610186565b6040513d86823e3d90fd5b5060031960603682011261157057610da8611e9e565b602435916001600160401b038311610b285760c0908336030112610cb25760405191610dd383611ecf565b80600401356001600160401b038111610b3757610df69060043691840101611f85565b835260248101356001600160401b038111610b3757610e1b9060043691840101611f85565b602084015260448101356001600160401b038111610b3757610e439060043691840101611f85565b604084015260648101356001600160401b038111610b3757610e6b9060043691840101611f85565b606084015260848101356001600160401b038111610b3757610e939060043691840101611f85565b906080840191825260a4810135906001600160401b038211610b9e576004610ebe9236920101611f85565b60a08401908152604051635c975abb60e01b81526020816004817f00000000000000000000000000000000000000000000000000000000000000006001600160a01b03165afa8015610b5d57610f1b918791611a8f575015611fe4565b83515115159182611a80575b82611a74575b5081611a68575b5015611a3057604435156119db5760405163f140b55f60e01b81523360048201526020816024817f00000000000000000000000000000000000000000000000000000000000000006001600160a01b03165afa908115610d875784916119bc575b50156119785760405163b5af090f60e01b81526001600160a01b038281166004830152602090829060249082907f0000000000000000000000000000000000000000000000000000000000000000165afa908115610d87578491611959575b50156119145760405163a454912960e01b81526020816004817f00000000000000000000000000000000000000000000000000000000000000006001600160a01b03165afa908115610d875784916118e2575b5060405163d579e3f360e01b81526020816004817f00000000000000000000000000000000000000000000000000000000000000006001600160a01b03165afa908115610b2c5785916118c3575b50816115af575b50506110c77f0000000000000000000000000000000000000000000000000000000000000000612231565b916001600160a01b0383163b15610b285760405163c0c53b8b60e01b81526001600160a01b0383811660048301523260248301527f0000000000000000000000000000000000000000000000000000000000000000166044820152848180606481010381836001600160a01b0389165af18015610b2c5761159c575b5061116d7f0000000000000000000000000000000000000000000000000000000000000000612231565b6001600160a01b038116908590823b156115705760405163c0c53b8b60e01b81526001600160a01b0387811660048301523360248301527f0000000000000000000000000000000000000000000000000000000000000000166044820152828160648183885af1908115610b09578391611588575b50507f00000000000000000000000000000000000000000000000000000000000000006001600160a01b03163b156115705760405163d9ce7b9560e01b8152600481018490528281602481837f00000000000000000000000000000000000000000000000000000000000000006001600160a01b03165af1908115610b09578391611574575b50507f00000000000000000000000000000000000000000000000000000000000000006001600160a01b03163b15611570576040516208ac8360e01b81526001600160a01b0380881660048301529091166024820152818180604481010381837f00000000000000000000000000000000000000000000000000000000000000006001600160a01b03165af180156115295761155c575b50507f00000000000000000000000000000000000000000000000000000000000000006001600160a01b03163b15610b375760405160016216ef6160e31b031981523360048201526001600160a01b03851660248201528590818180604481010381837f00000000000000000000000000000000000000000000000000000000000000006001600160a01b03165af1801561152957611548575b50506001600160a01b0384163b15610b375760405163716f6e8760e01b81526004810182905285908181602481836001600160a01b038b165af1801561152957611534575b50506001600160a01b0384163b15610b37576040516339fa62df60e01b8152604435600482015285908181602481836001600160a01b038b165af1801561152957611515575b50604051636613680d60e01b8152928390819061144590886004840161220f565b0381837f00000000000000000000000000000000000000000000000000000000000000006001600160a01b03165af1918215610b2c5785602096936114f8575b50506040519260018060a01b03168352848301526044356040830152608060608301527f938ece1ab5d508d56896411e3f1b2c96359f780ecbfe90c9a4031cd170aa4a4a60018060a01b03841692806114e333946080830190612191565b0390a36040516001600160a01b039091168152f35b61150d9293503d8091833e610b4e8183611f49565b903880611485565b61151f8291611f00565b6100cb5738611424565b6040513d84823e3d90fd5b61153d90611f00565b610b375784386113de565b61155190611f00565b610b37578438611399565b61156590611f00565b610b375784386112ff565b5080fd5b61157d90611f00565b611570578138611268565b61159190611f00565b6115705781386111e2565b6115a890949194611f00565b9238611143565b156117b3576040516337a0a9e960e11b81526020816004817f00000000000000000000000000000000000000000000000000000000000000006001600160a01b03165afa908115610b2c578591611781575b50604051637c70c0a360e01b815260048101919091526020816024817f00000000000000000000000000000000000000000000000000000000000000006001600160a01b03165afa908115610b2c578591611762575b506001600160a01b0316908115611711576040516323b872dd60e01b60208201523360248201523060448201526064808201839052815260a081016001600160401b038111828210176116fd5786926116d77fdd872ca9502e175165673833ac2a0e1395edb4b5c72f2915685598490c375e99936020936040528661230b565b848452838252604084206116ec828254612299565b9055604051908152a35b388061109c565b634e487b7160e01b87526041600452602487fd5b60405162461bcd60e51b815260206004820152602360248201527f4e6f2077686974656c697374656420737461626c65636f696e20617661696c61604482015262626c6560e81b6064820152608490fd5b61177b915060203d602011610ad957610acb8183611f49565b38611657565b90506020813d6020116117ab575b8161179c60209383611f49565b81010312610b37575138611601565b3d915061178f565b80341061187e5783805283602052604084206117d0348254612299565b905580341161180c575b5082807fdd872ca9502e175165673833ac2a0e1395edb4b5c72f2915685598490c375e996020604051348152a36116f6565b340334811161186a578380808093335af16118256122bc565b501561183157386117da565b60405162461bcd60e51b8152602060048201526011602482015270115512081c99599d5b990819985a5b1959607a1b6044820152606490fd5b634e487b7160e01b84526011600452602484fd5b60405162461bcd60e51b815260206004820152601860248201527f496e636f7272656374204554482066656520616d6f756e7400000000000000006044820152606490fd5b6118dc915060203d602011610d2057610d128183611f49565b38611095565b90506020813d60201161190c575b816118fd60209383611f49565b81010312610b28575138611047565b3d91506118f0565b60405162461bcd60e51b815260206004820152601d60248201527f537461626c65636f696e206973206e6f742077686974656c69737465640000006044820152606490fd5b611972915060203d602011610d2057610d128183611f49565b38610ff4565b606460405162461bcd60e51b815260206004820152602060248201527f4e6f742076616c696420746f20637265617465205772617070656420536f6e676044820152fd5b6119d5915060203d602011610d2057610d128183611f49565b38610f95565b60405162461bcd60e51b815260206004820152602760248201527f53686172657320616d6f756e74206d7573742062652067726561746572207468604482015266616e207a65726f60c81b6064820152608490fd5b60405162461bcd60e51b815260206004820152601060248201526f496e76616c6964206d6574616461746160801b6044820152606490fd5b90505151151538610f34565b51511515915038610f2d565b60408501515115159250610f27565b610d81915060203d602011610d2057610d128183611f49565b50346100cb57806003193601126100cb576040517f00000000000000000000000000000000000000000000000000000000000000006001600160a01b03168152602090f35b50346100cb57806003193601126100cb576040517f00000000000000000000000000000000000000000000000000000000000000006001600160a01b03168152602090f35b50346100cb57806003193601126100cb576040517f00000000000000000000000000000000000000000000000000000000000000006001600160a01b03168152602090f35b50346100cb57806003193601126100cb576040517f00000000000000000000000000000000000000000000000000000000000000006001600160a01b03168152602090f35b50346100cb5760403660031901126100cb57611bd6611e9e565b611bde611eb9565b604051638da5cb5b60e01b815290916001600160a01b03916020919082816004817f000000000000000000000000000000000000000000000000000000000000000088165afa8015610b5d5784918791611df9575b50163303611da6578216918285528482526040852054938415611d6b578386528583528560408120558315600014611ce95785808080888686165af1611c776122bc565b5015611cae57907f5e110f8bc8a20b65dcc87f224bdf1cc039346e267118bae2739847f07321ffa892915b6040519586521693a380f35b60405162461bcd60e51b8152600481018490526013602482015272115512081d1c985b9cd9995c8819985a5b1959606a1b6044820152606490fd5b60405163a9059cbb60e01b84820152818316602482015260448082018790528152608081016001600160401b03811182821017611d57577f5e110f8bc8a20b65dcc87f224bdf1cc039346e267118bae2739847f07321ffa894939291611d52916040528661230b565b611ca2565b634e487b7160e01b88526041600452602488fd5b60405162461bcd60e51b81526004810184905260136024820152724e6f206665657320746f20776974686472617760681b6044820152606490fd5b60405162461bcd60e51b815260048101839052602560248201527f4f6e6c792070726f746f636f6c206f776e65722063616e207769746864726177604482015264206665657360d81b6064820152608490fd5b611e109150843d8611610ad957610acb8183611f49565b38611c33565b50346100cb57806003193601126100cb576040517f00000000000000000000000000000000000000000000000000000000000000006001600160a01b03168152602090f35b9050346115705781600319360112611570577f00000000000000000000000000000000000000000000000000000000000000006001600160a01b03168152602090f35b600435906001600160a01b0382168203611eb457565b600080fd5b602435906001600160a01b0382168203611eb457565b60c081019081106001600160401b03821117611eea57604052565b634e487b7160e01b600052604160045260246000fd5b6001600160401b038111611eea57604052565b604081019081106001600160401b03821117611eea57604052565b606081019081106001600160401b03821117611eea57604052565b90601f801991011681019081106001600160401b03821117611eea57604052565b6001600160401b038111611eea57601f01601f191660200190565b81601f82011215611eb457803590611f9c82611f6a565b92611faa6040519485611f49565b82845260208383010111611eb457816000926020809301838601378301015290565b90816020910312611eb457518015158103611eb45790565b15611feb57565b60405162461bcd60e51b8152602060048201526012602482015271141c9bdd1bd8dbdb081a5cc81c185d5cd95960721b6044820152606490fd5b60005b8381106120385750506000910152565b8181015183820152602001612028565b81601f82011215611eb457805161205e81611f6a565b9261206c6040519485611f49565b81845260208284010111611eb45761208a9160208085019101612025565b90565b90602082820312611eb45781516001600160401b0392838211611eb457019060c082820312611eb457604051926120c384611ecf565b8251818111611eb457826120d8918501612048565b84526020830151818111611eb457826120f2918501612048565b60208501526040830151818111611eb4578261210f918501612048565b60408501526060830151818111611eb4578261212c918501612048565b60608501526080830151818111611eb45782612149918501612048565b608085015260a0830151908111611eb4576121649201612048565b60a082015290565b9060209161218581518092818552858086019101612025565b601f01601f1916010190565b61208a9160a06121fe6121ec6121da6121c86121b6875160c0885260c088019061216c565b6020880151878203602089015261216c565b6040870151868203604088015261216c565b6060860151858203606087015261216c565b6080850151848203608086015261216c565b9201519060a081840391015261216c565b6001600160a01b03909116815260406020820181905261208a92910190612191565b6e5af43d82803e903d91602b57fd5bf390763d602d80600a3d3981f3363d3d373d3d3d363d7300000062ffffff8260881c161760005260781b17602052603760096000f0906001600160a01b0382161561228757565b6040516330be1a3d60e21b8152600490fd5b919082018092116122a657565b634e487b7160e01b600052601160045260246000fd5b3d156122e7573d906122cd82611f6a565b916122db6040519384611f49565b82523d6000602084013e565b606090565b90816020910312611eb457516001600160a01b0381168103611eb45790565b6000806123349260018060a01b03169360208151910182865af161232d6122bc565b908361237d565b8051908115159182612362575b505061234a5750565b60249060405190635274afe760e01b82526004820152fd5b6123759250602080918301019101611fcc565b153880612341565b906123a4575080511561239257805190602001fd5b604051630a12f52160e11b8152600490fd5b815115806123d7575b6123b5575090565b604051639996b31560e01b81526001600160a01b039091166004820152602490fd5b50803b156123ad565b604051906001600160a01b0316806123f783611f2e565b602a8352602080840160403682378451156124ce57603090538351906001918210156124ce5790607860218601536029915b81831161245a5750505061243b575090565b6044906040519063e22e27eb60e01b8252600482015260146024820152fd5b909192600f811660108110156124b95786518510156124b9576f181899199a1a9b1b9c1cb0b131b232b360811b901a86850183015360041c9280156124a457600019019190612429565b60246000634e487b7160e01b81526011600452fd5b60246000634e487b7160e01b81526032600452fd5b634e487b7160e01b600052603260045260246000fd5b6000809160405161252081612512602082019463104c13eb60e21b865260206024840152604483019061216c565b03601f198101835282611f49565b51906a636f6e736f6c652e6c6f675afa50565b6000919061251261252084936040519283916125686020840196634b5c427760e01b885260406024860152606485019061216c565b8381036023190160448501529061216c565b60009190829161252060405180926125ab602083019563319af33360e01b875260406024850152606484019061216c565b6001600160a01b0391909116604483015203601f198101835282611f4956fea264697066735822122042aa318bfacf1b0aa53cb4655d43fd364c5b9e922ca0576a426d7ee5702b472f64736f6c63430008140033",
  "linkReferences": {},
  "deployedLinkReferences": {}
}