{
  "_format": "hh-sol-artifact-1",
  "contractName": "RegistryModule",
  "sourceName": "contracts/protocol/Modules/RegistryModule.sol",
  "abi": [
    {
      "inputs": [],
      "stateMutability": "nonpayable",
      "type": "constructor"
    },
    {
      "inputs": [
        {
          "internalType": "address",
          "name": "owner",
          "type": "address"
        }
      ],
      "name": "OwnableInvalidOwner",
      "type": "error"
    },
    {
      "inputs": [
        {
          "internalType": "address",
          "name": "account",
          "type": "address"
        }
      ],
      "name": "OwnableUnauthorizedAccount",
      "type": "error"
    },
    {
      "anonymous": false,
      "inputs": [
        {
          "indexed": true,
          "internalType": "address",
          "name": "newModule",
          "type": "address"
        }
      ],
      "name": "Erc20WhitelistUpdated",
      "type": "event"
    },
    {
      "anonymous": false,
      "inputs": [
        {
          "indexed": true,
          "internalType": "address",
          "name": "newModule",
          "type": "address"
        }
      ],
      "name": "FeesModuleUpdated",
      "type": "event"
    },
    {
      "anonymous": false,
      "inputs": [
        {
          "indexed": true,
          "internalType": "address",
          "name": "newModule",
          "type": "address"
        }
      ],
      "name": "IdentityModuleUpdated",
      "type": "event"
    },
    {
      "anonymous": false,
      "inputs": [
        {
          "indexed": true,
          "internalType": "address",
          "name": "newModule",
          "type": "address"
        }
      ],
      "name": "LegalContractMetadataUpdated",
      "type": "event"
    },
    {
      "anonymous": false,
      "inputs": [
        {
          "indexed": true,
          "internalType": "address",
          "name": "newModule",
          "type": "address"
        }
      ],
      "name": "MetadataModuleUpdated",
      "type": "event"
    },
    {
      "anonymous": false,
      "inputs": [
        {
          "indexed": true,
          "internalType": "address",
          "name": "previousOwner",
          "type": "address"
        },
        {
          "indexed": true,
          "internalType": "address",
          "name": "newOwner",
          "type": "address"
        }
      ],
      "name": "OwnershipTransferred",
      "type": "event"
    },
    {
      "anonymous": false,
      "inputs": [
        {
          "indexed": true,
          "internalType": "address",
          "name": "newModule",
          "type": "address"
        }
      ],
      "name": "ReleaseModuleUpdated",
      "type": "event"
    },
    {
      "inputs": [],
      "name": "erc20whitelist",
      "outputs": [
        {
          "internalType": "contract IERC20Whitelist",
          "name": "",
          "type": "address"
        }
      ],
      "stateMutability": "view",
      "type": "function"
    },
    {
      "inputs": [],
      "name": "feesModule",
      "outputs": [
        {
          "internalType": "contract IFeesModule",
          "name": "",
          "type": "address"
        }
      ],
      "stateMutability": "view",
      "type": "function"
    },
    {
      "inputs": [],
      "name": "identityModule",
      "outputs": [
        {
          "internalType": "contract IIdentityModule",
          "name": "",
          "type": "address"
        }
      ],
      "stateMutability": "view",
      "type": "function"
    },
    {
      "inputs": [
        {
          "internalType": "address",
          "name": "_feesModule",
          "type": "address"
        },
        {
          "internalType": "address",
          "name": "_releaseModule",
          "type": "address"
        },
        {
          "internalType": "address",
          "name": "_identityModule",
          "type": "address"
        },
        {
          "internalType": "address",
          "name": "_metadataModule",
          "type": "address"
        },
        {
          "internalType": "address",
          "name": "_legalContractMetadata",
          "type": "address"
        },
        {
          "internalType": "address",
          "name": "_erc20whitelist",
          "type": "address"
        }
      ],
      "name": "initialize",
      "outputs": [],
      "stateMutability": "nonpayable",
      "type": "function"
    },
    {
      "inputs": [],
      "name": "legalContractMetadata",
      "outputs": [
        {
          "internalType": "contract ILegalContractMetadata",
          "name": "",
          "type": "address"
        }
      ],
      "stateMutability": "view",
      "type": "function"
    },
    {
      "inputs": [],
      "name": "metadataModule",
      "outputs": [
        {
          "internalType": "contract IMetadataModule",
          "name": "",
          "type": "address"
        }
      ],
      "stateMutability": "view",
      "type": "function"
    },
    {
      "inputs": [],
      "name": "owner",
      "outputs": [
        {
          "internalType": "address",
          "name": "",
          "type": "address"
        }
      ],
      "stateMutability": "view",
      "type": "function"
    },
    {
      "inputs": [],
      "name": "releaseModule",
      "outputs": [
        {
          "internalType": "contract IReleaseModule",
          "name": "",
          "type": "address"
        }
      ],
      "stateMutability": "view",
      "type": "function"
    },
    {
      "inputs": [],
      "name": "renounceOwnership",
      "outputs": [],
      "stateMutability": "nonpayable",
      "type": "function"
    },
    {
      "inputs": [
        {
          "internalType": "address",
          "name": "newOwner",
          "type": "address"
        }
      ],
      "name": "transferOwnership",
      "outputs": [],
      "stateMutability": "nonpayable",
      "type": "function"
    },
    {
      "inputs": [
        {
          "internalType": "contract IERC20Whitelist",
          "name": "_newErc20Whitelist",
          "type": "address"
        }
      ],
      "name": "updateErc20Whitelist",
      "outputs": [],
      "stateMutability": "nonpayable",
      "type": "function"
    },
    {
      "inputs": [
        {
          "internalType": "contract IFeesModule",
          "name": "_newFeesModule",
          "type": "address"
        }
      ],
      "name": "updateFeesModule",
      "outputs": [],
      "stateMutability": "nonpayable",
      "type": "function"
    },
    {
      "inputs": [
        {
          "internalType": "contract IIdentityModule",
          "name": "_newIdentityModule",
          "type": "address"
        }
      ],
      "name": "updateIdentityModule",
      "outputs": [],
      "stateMutability": "nonpayable",
      "type": "function"
    },
    {
      "inputs": [
        {
          "internalType": "contract ILegalContractMetadata",
          "name": "_newLegalContractMetadata",
          "type": "address"
        }
      ],
      "name": "updateLegalContractMetadata",
      "outputs": [],
      "stateMutability": "nonpayable",
      "type": "function"
    },
    {
      "inputs": [
        {
          "internalType": "contract IMetadataModule",
          "name": "_newMetadataModule",
          "type": "address"
        }
      ],
      "name": "updateMetadataModule",
      "outputs": [],
      "stateMutability": "nonpayable",
      "type": "function"
    },
    {
      "inputs": [
        {
          "internalType": "contract IReleaseModule",
          "name": "_newReleaseModule",
          "type": "address"
        }
      ],
      "name": "updateReleaseModule",
      "outputs": [],
      "stateMutability": "nonpayable",
      "type": "function"
    }
  ],
  "bytecode": "0x6080806040523461007a5733156100645760008054336001600160a01b03198216811783556040519290916001600160a01b0316907f8be0079c531659141344cd1fd0a4f28419497f9722a3daafe3b4186f6b6457e09080a36108c590816100808239f35b631e4fbdf760e01b815260006004820152602490fd5b600080fdfe6080604081815260048036101561001557600080fd5b600092833560e01c90816309da4e5114610823575080633684d100146107fc5780633ead5d11146107d35780634a175c301461072357806365bb98b5146106fa5780636d4726d9146106d1578063702447221461061e578063715018a6146105c15780638da5cb5b1461059957806396be7adb146104e6578063b3c59a6314610425578063c6f25ccf14610372578063cc2a9a5b14610240578063cf67f5f014610189578063dbd15d531461015c5763f2fde38b146100d357600080fd5b34610158576020366003190112610158576100ec610848565b906100f5610863565b6001600160a01b0391821692831561014257505082546001600160a01b0319811683178455167f8be0079c531659141344cd1fd0a4f28419497f9722a3daafe3b4186f6b6457e08380a380f35b51631e4fbdf760e01b8152908101849052602490fd5b8280fd5b50503461018557816003193601126101855760055490516001600160a01b039091168152602090f35b5080fd5b50346101585760203660031901126101585780356001600160a01b038116929083900361023c576101b8610863565b82156101f9575050600380546001600160a01b031916821790557f156b489885a9d9051a89e3a112b02b5f65dbf5eb83705635454f535373ee48848280a280f35b906020606492519162461bcd60e51b8352820152601e60248201527f496e76616c6964204964656e746974794d6f64756c65206164647265737300006044820152fd5b8380fd5b50346101585760c03660031901126101585761025a610848565b6001600160a01b039160243583811692919083900361036e5760443584811680910361036a576064359085821680920361036657608435948686168096036103625760a4359680881680980361035e576102b2610863565b6006549860ff8a60a01c1661031c57506bffffffffffffffffffffffff60a01b9516856001541617600155846002541617600255836003541617600355828254161790556005541617600555600160a01b916affffffffffffffffffffff60a81b16171760065580f35b5162461bcd60e51b8152602081870152601f60248201527f436f6e747261637420697320616c726561647920696e697469616c697a6564006044820152606490fd5b8980fd5b8880fd5b8780fd5b8680fd5b8580fd5b50346101585760203660031901126101585780356001600160a01b038116929083900361023c576103a1610863565b82156103e2575050600180546001600160a01b031916821790557f1fd3d81e9d87b8ecd398d18c8902c744336129b073d33e4619b862160d36056a8280a280f35b906020606492519162461bcd60e51b8352820152601a60248201527f496e76616c696420466565734d6f64756c6520616464726573730000000000006044820152fd5b50346101585760203660031901126101585780356001600160a01b038116929083900361023c57610454610863565b8215610495575050600580546001600160a01b031916821790557fa01edaa3cd8a419b7bb45b34f35e84da238af9490eca1b318cb579f3179e29e48280a280f35b906020608492519162461bcd60e51b8352820152602560248201527f496e76616c6964204c6567616c436f6e74726163744d65746164617461206164604482015264647265737360d81b6064820152fd5b50346101585760203660031901126101585780356001600160a01b038116929083900361023c57610515610863565b8215610556575050600680546001600160a01b031916821790557fb259fe5f5e3a8c8b60c630187005e712c75f1ed8c5660302f4001330768bdc5a8280a280f35b906020606492519162461bcd60e51b8352820152601e60248201527f496e76616c696420457263323057686974656c697374206164647265737300006044820152fd5b505034610185578160031936011261018557905490516001600160a01b039091168152602090f35b833461061b578060031936011261061b576105da610863565b80546001600160a01b03198116825581906001600160a01b03167f8be0079c531659141344cd1fd0a4f28419497f9722a3daafe3b4186f6b6457e08280a380f35b80fd5b50346101585760203660031901126101585780356001600160a01b038116929083900361023c5761064d610863565b821561068e575050600280546001600160a01b031916821790557f015df7ab5ea7f977f908e495acd98b62c2d19b8b4b75f79be8c8fb0994118a8b8280a280f35b906020606492519162461bcd60e51b8352820152601d60248201527f496e76616c69642052656c656173654d6f64756c6520616464726573730000006044820152fd5b50503461018557816003193601126101855760015490516001600160a01b039091168152602090f35b50503461018557816003193601126101855760025490516001600160a01b039091168152602090f35b50346101585760203660031901126101585780356001600160a01b038116929083900361023c57610752610863565b8215610790575080546001600160a01b031916821790557f12e10e0acd0f94fc9b2d033a01586c1255f1d396a6a2ce1c02cc9fca057744588280a280f35b906020606492519162461bcd60e51b8352820152601e60248201527f496e76616c6964204d657461646174614d6f64756c65206164647265737300006044820152fd5b50503461018557816003193601126101855760035490516001600160a01b039091168152602090f35b50346101585782600319360112610158575490516001600160a01b03909116815260209150f35b8490346101855781600319360112610185576006546001600160a01b03168152602090f35b600435906001600160a01b038216820361085e57565b600080fd5b6000546001600160a01b0316330361087757565b60405163118cdaa760e01b8152336004820152602490fdfea2646970667358221220d174872576af6352103428071b1c0741b5fa8698c15a44c87d89b925a95042a064736f6c63430008140033",
  "linkReferences": {},
  "deployedLinkReferences": {}
}