{
  "_format": "hh-sol-artifact-1",
  "contractName": "WSUtils",
  "sourceName": "contracts/protocol/NonUpgradable/WSUtils.sol",
  "abi": [
    {
      "inputs": [
        {
          "internalType": "address",
          "name": "_protocolModuleAddress",
          "type": "address"
        },
        {
          "internalType": "address",
          "name": "_owner",
          "type": "address"
        }
      ],
      "stateMutability": "nonpayable",
      "type": "constructor"
    },
    {
      "inputs": [
        {
          "internalType": "address",
          "name": "owner",
          "type": "address"
        }
      ],
      "name": "OwnableInvalidOwner",
      "type": "error"
    },
    {
      "inputs": [
        {
          "internalType": "address",
          "name": "account",
          "type": "address"
        }
      ],
      "name": "OwnableUnauthorizedAccount",
      "type": "error"
    },
    {
      "anonymous": false,
      "inputs": [
        {
          "indexed": true,
          "internalType": "address",
          "name": "previousOwner",
          "type": "address"
        },
        {
          "indexed": true,
          "internalType": "address",
          "name": "newOwner",
          "type": "address"
        }
      ],
      "name": "OwnershipTransferred",
      "type": "event"
    },
    {
      "inputs": [
        {
          "internalType": "address",
          "name": "_wsTokensManagement",
          "type": "address"
        },
        {
          "internalType": "address",
          "name": "account",
          "type": "address"
        }
      ],
      "name": "getSongSharesBalance",
      "outputs": [
        {
          "internalType": "uint256",
          "name": "",
          "type": "uint256"
        }
      ],
      "stateMutability": "view",
      "type": "function"
    },
    {
      "inputs": [
        {
          "internalType": "address",
          "name": "_wsTokensManagement",
          "type": "address"
        },
        {
          "internalType": "address",
          "name": "account",
          "type": "address"
        },
        {
          "internalType": "uint256",
          "name": "tokenId",
          "type": "uint256"
        }
      ],
      "name": "getTokenBalance",
      "outputs": [
        {
          "internalType": "uint256",
          "name": "",
          "type": "uint256"
        }
      ],
      "stateMutability": "view",
      "type": "function"
    },
    {
      "inputs": [
        {
          "internalType": "address",
          "name": "_wsTokensManagement",
          "type": "address"
        },
        {
          "internalType": "uint256",
          "name": "tokenId",
          "type": "uint256"
        }
      ],
      "name": "getTokenMetadata",
      "outputs": [
        {
          "internalType": "string",
          "name": "",
          "type": "string"
        }
      ],
      "stateMutability": "view",
      "type": "function"
    },
    {
      "inputs": [
        {
          "internalType": "address",
          "name": "_wsTokensManagement",
          "type": "address"
        },
        {
          "internalType": "uint256",
          "name": "id",
          "type": "uint256"
        }
      ],
      "name": "getTokenTotalSupply",
      "outputs": [
        {
          "internalType": "uint256",
          "name": "",
          "type": "uint256"
        }
      ],
      "stateMutability": "view",
      "type": "function"
    },
    {
      "inputs": [
        {
          "internalType": "address",
          "name": "_wsTokensManagement",
          "type": "address"
        },
        {
          "internalType": "uint256",
          "name": "tokenId",
          "type": "uint256"
        }
      ],
      "name": "getTokenURI",
      "outputs": [
        {
          "internalType": "string",
          "name": "",
          "type": "string"
        }
      ],
      "stateMutability": "view",
      "type": "function"
    },
    {
      "inputs": [
        {
          "internalType": "address",
          "name": "_wsTokensManagement",
          "type": "address"
        }
      ],
      "name": "getTotalShares",
      "outputs": [
        {
          "internalType": "uint256",
          "name": "",
          "type": "uint256"
        }
      ],
      "stateMutability": "view",
      "type": "function"
    },
    {
      "inputs": [
        {
          "internalType": "address",
          "name": "_wsTokensManagement",
          "type": "address"
        },
        {
          "internalType": "uint256",
          "name": "tokenId",
          "type": "uint256"
        }
      ],
      "name": "getWrappedSongMetadata",
      "outputs": [
        {
          "internalType": "string",
          "name": "",
          "type": "string"
        }
      ],
      "stateMutability": "view",
      "type": "function"
    },
    {
      "inputs": [
        {
          "internalType": "address",
          "name": "_wsTokensManagement",
          "type": "address"
        }
      ],
      "name": "isFromProtocol",
      "outputs": [
        {
          "internalType": "bool",
          "name": "",
          "type": "bool"
        }
      ],
      "stateMutability": "view",
      "type": "function"
    },
    {
      "inputs": [],
      "name": "owner",
      "outputs": [
        {
          "internalType": "address",
          "name": "",
          "type": "address"
        }
      ],
      "stateMutability": "view",
      "type": "function"
    },
    {
      "inputs": [],
      "name": "protocolModule",
      "outputs": [
        {
          "internalType": "contract IProtocolModule",
          "name": "",
          "type": "address"
        }
      ],
      "stateMutability": "view",
      "type": "function"
    },
    {
      "inputs": [],
      "name": "renounceOwnership",
      "outputs": [],
      "stateMutability": "nonpayable",
      "type": "function"
    },
    {
      "inputs": [
        {
          "internalType": "bytes4",
          "name": "interfaceId",
          "type": "bytes4"
        }
      ],
      "name": "supportsInterface",
      "outputs": [
        {
          "internalType": "bool",
          "name": "",
          "type": "bool"
        }
      ],
      "stateMutability": "view",
      "type": "function"
    },
    {
      "inputs": [
        {
          "internalType": "address",
          "name": "_wsTokensManagement",
          "type": "address"
        },
        {
          "internalType": "uint256",
          "name": "tokenId",
          "type": "uint256"
        }
      ],
      "name": "tokenExists",
      "outputs": [
        {
          "internalType": "bool",
          "name": "",
          "type": "bool"
        }
      ],
      "stateMutability": "view",
      "type": "function"
    },
    {
      "inputs": [
        {
          "internalType": "address",
          "name": "newOwner",
          "type": "address"
        }
      ],
      "name": "transferOwnership",
      "outputs": [],
      "stateMutability": "nonpayable",
      "type": "function"
    }
  ],
  "bytecode": "0x60a03461012c57601f6109a638819003918201601f19168301916001600160401b0383118484101761013157808492604094855283398101031261012c57602061004882610147565b916001600160a01b0391829161005e9101610147565b1691821561011357600080546001600160a01b03198116851782556040519491908416907f8be0079c531659141344cd1fd0a4f28419497f9722a3daafe3b4186f6b6457e09080a3169081156100d1575060805260405161084a908161015c823960805181818161042401526105810152f35b62461bcd60e51b815260206004820152601f60248201527f496e76616c69642070726f746f636f6c206d6f64756c652061646472657373006044820152606490fd5b604051631e4fbdf760e01b815260006004820152602490fd5b600080fd5b634e487b7160e01b600052604160045260246000fd5b51906001600160a01b038216820361012c5756fe6080604081815260048036101561001557600080fd5b600092833560e01c90816301ffc9a714610603575080630b63fd621461029a5780631fb3ffe41461029a578063288526141461053c578063454901da146104535780635c42e6671461040f578063715018a6146103b55780638da5cb5b1461038d5780639af03d0f146102f9578063c5cbc2b71461029f578063ce1628291461029a578063d41123d8146101da578063f20d8634146101465763f2fde38b146100bd57600080fd5b34610142576020366003190112610142576100d661063a565b906100df6107b0565b6001600160a01b0391821692831561012c57505082546001600160a01b0319811683178455167f8be0079c531659141344cd1fd0a4f28419497f9722a3daafe3b4186f6b6457e08380a380f35b51631e4fbdf760e01b8152908101849052602490fd5b8280fd5b509190346101d6576020928360031936011261014257836001600160a01b0361016d61063a565b16835192838092633a98ef3960e01b82525afa9283156101cb578093610196575b505051908152f35b909192508382813d83116101c4575b6101af81836107dc565b810103126101c157505190388061018e565b80fd5b503d6101a5565b8251903d90823e3d90fd5b5080fd5b509034610142576060366003190112610142576020610234926101fb61063a565b610203610655565b8451627eeac760e11b81526001600160a01b0390911692810192835260443560208401529485928391829160400190565b03916001600160a01b03165afa918215610290578392610259575b6020838351908152f35b9091506020813d8211610288575b81610274602093836107dc565b81010312610142576020925051903861024f565b3d9150610267565b81513d85823e3d90fd5b61068e565b50903461014257806003193601126101425760206102bb61063a565b825163bd85b03960e01b8152602480359582019590955293849182906001600160a01b03165afa918215610290578392610259576020838351908152f35b509034610142578060031936011261014257602061031561063a565b825163bd85b03960e01b8152602480359582019590955293849182906001600160a01b03165afa918215610290578392610356575b60208383519015158152f35b9091506020813d8211610385575b81610371602093836107dc565b81010312610142576020925051903861034a565b3d9150610364565b5050346101d657816003193601126101d657905490516001600160a01b039091168152602090f35b83346101c157806003193601126101c1576103ce6107b0565b80546001600160a01b03198116825581906001600160a01b03167f8be0079c531659141344cd1fd0a4f28419497f9722a3daafe3b4186f6b6457e08280a380f35b5050346101d657816003193601126101d657517f00000000000000000000000000000000000000000000000000000000000000006001600160a01b03168152602090f35b509190346101d657806003193601126101d65761046e61063a565b92610477610655565b8251630645179d60e11b815260209590916001600160a01b039091169086838581855afa92831561053257908793929187936104f9575b508551627eeac760e11b81526001600160a01b0390911694810194855260208501929092529092839190829081906040015b03915afa9283156101cb57809361019657505051908152f35b848193959294503d831161052b575b61051281836107dc565b810103126105275751869290916104e06104ae565b8580fd5b503d610508565b85513d88823e3d90fd5b50903461014257602092836003193601126101c1578361055a61063a565b8351631b3d58e960e21b81526001600160a01b0391821695810195909552849060249082907f0000000000000000000000000000000000000000000000000000000000000000165afa9283156105f75781936105bb575b5050519015158152f35b909192508381813d83116105f0575b6105d481836107dc565b810103126101d657519081151582036101c157509038806105b1565b503d6105ca565b509051903d90823e3d90fd5b92505034610142576020366003190112610142573563ffffffff60e01b8116809103610142576301ffc9a760e01b14815260209150f35b600435906001600160a01b038216820361065057565b600080fd5b602435906001600160a01b038216820361065057565b60005b83811061067e5750506000910152565b818101518382015260200161066e565b3461065057604080600319360112610650576106a861063a565b81516303a24d0760e21b8152602480356004830152909291600091829185919082906001600160a01b03165afa9283156105f7578193610714575b50508051809260208252610706815180928160208601526020868601910161066b565b601f01601f19168101030190f35b909192503d8083833e61072781836107dc565b8101916020828403126101c157815167ffffffffffffffff9283821161014257019083601f830112156101c157815192831161079c57845193610774601f8501601f1916602001866107dc565b838552602084840101116101c1575090610794916020808501910161066b565b9038806106e3565b634e487b7160e01b81526041600452602490fd5b6000546001600160a01b031633036107c457565b60405163118cdaa760e01b8152336004820152602490fd5b90601f8019910116810190811067ffffffffffffffff8211176107fe57604052565b634e487b7160e01b600052604160045260246000fdfea26469706673582212202ffe4c99ed67dea024f4c817687d3b0976b59ab900156a8a0432f412fcacd6e964736f6c63430008140033",
  "linkReferences": {},
  "deployedLinkReferences": {}
}