{
  "_format": "hh-sol-artifact-1",
  "contractName": "MetadataModule",
  "sourceName": "contracts/protocol/NonUpgradable/MetadataModule.sol",
  "abi": [
    {
      "inputs": [
        {
          "internalType": "address",
          "name": "_initialOwner",
          "type": "address"
        }
      ],
      "stateMutability": "nonpayable",
      "type": "constructor"
    },
    {
      "inputs": [
        {
          "internalType": "address",
          "name": "target",
          "type": "address"
        }
      ],
      "name": "AddressEmptyCode",
      "type": "error"
    },
    {
      "inputs": [
        {
          "internalType": "address",
          "name": "account",
          "type": "address"
        }
      ],
      "name": "AddressInsufficientBalance",
      "type": "error"
    },
    {
      "inputs": [],
      "name": "FailedInnerCall",
      "type": "error"
    },
    {
      "inputs": [
        {
          "internalType": "address",
          "name": "owner",
          "type": "address"
        }
      ],
      "name": "OwnableInvalidOwner",
      "type": "error"
    },
    {
      "inputs": [
        {
          "internalType": "address",
          "name": "account",
          "type": "address"
        }
      ],
      "name": "OwnableUnauthorizedAccount",
      "type": "error"
    },
    {
      "inputs": [],
      "name": "ReentrancyGuardReentrantCall",
      "type": "error"
    },
    {
      "inputs": [
        {
          "internalType": "address",
          "name": "token",
          "type": "address"
        }
      ],
      "name": "SafeERC20FailedOperation",
      "type": "error"
    },
    {
      "anonymous": false,
      "inputs": [
        {
          "indexed": true,
          "internalType": "address",
          "name": "token",
          "type": "address"
        },
        {
          "indexed": true,
          "internalType": "address",
          "name": "recipient",
          "type": "address"
        },
        {
          "indexed": false,
          "internalType": "uint256",
          "name": "amount",
          "type": "uint256"
        }
      ],
      "name": "FeesWithdrawn",
      "type": "event"
    },
    {
      "anonymous": false,
      "inputs": [
        {
          "indexed": true,
          "internalType": "address",
          "name": "wrappedSong",
          "type": "address"
        },
        {
          "components": [
            {
              "internalType": "string",
              "name": "name",
              "type": "string"
            },
            {
              "internalType": "string",
              "name": "description",
              "type": "string"
            },
            {
              "internalType": "string",
              "name": "image",
              "type": "string"
            },
            {
              "internalType": "string",
              "name": "externalUrl",
              "type": "string"
            },
            {
              "internalType": "string",
              "name": "animationUrl",
              "type": "string"
            },
            {
              "internalType": "string",
              "name": "attributesIpfsHash",
              "type": "string"
            }
          ],
          "indexed": false,
          "internalType": "struct IMetadataModule.Metadata",
          "name": "newMetadata",
          "type": "tuple"
        }
      ],
      "name": "MetadataCreated",
      "type": "event"
    },
    {
      "anonymous": false,
      "inputs": [
        {
          "indexed": true,
          "internalType": "address",
          "name": "wrappedSong",
          "type": "address"
        }
      ],
      "name": "MetadataRemoved",
      "type": "event"
    },
    {
      "anonymous": false,
      "inputs": [
        {
          "indexed": true,
          "internalType": "address",
          "name": "wrappedSong",
          "type": "address"
        }
      ],
      "name": "MetadataUpdateRejected",
      "type": "event"
    },
    {
      "anonymous": false,
      "inputs": [
        {
          "indexed": true,
          "internalType": "address",
          "name": "wrappedSong",
          "type": "address"
        },
        {
          "components": [
            {
              "internalType": "string",
              "name": "name",
              "type": "string"
            },
            {
              "internalType": "string",
              "name": "description",
              "type": "string"
            },
            {
              "internalType": "string",
              "name": "image",
              "type": "string"
            },
            {
              "internalType": "string",
              "name": "externalUrl",
              "type": "string"
            },
            {
              "internalType": "string",
              "name": "animationUrl",
              "type": "string"
            },
            {
              "internalType": "string",
              "name": "attributesIpfsHash",
              "type": "string"
            }
          ],
          "indexed": false,
          "internalType": "struct IMetadataModule.Metadata",
          "name": "newMetadata",
          "type": "tuple"
        }
      ],
      "name": "MetadataUpdateRequested",
      "type": "event"
    },
    {
      "anonymous": false,
      "inputs": [
        {
          "indexed": true,
          "internalType": "address",
          "name": "wrappedSong",
          "type": "address"
        },
        {
          "components": [
            {
              "internalType": "string",
              "name": "name",
              "type": "string"
            },
            {
              "internalType": "string",
              "name": "description",
              "type": "string"
            },
            {
              "internalType": "string",
              "name": "image",
              "type": "string"
            },
            {
              "internalType": "string",
              "name": "externalUrl",
              "type": "string"
            },
            {
              "internalType": "string",
              "name": "animationUrl",
              "type": "string"
            },
            {
              "internalType": "string",
              "name": "attributesIpfsHash",
              "type": "string"
            }
          ],
          "indexed": false,
          "internalType": "struct IMetadataModule.Metadata",
          "name": "newMetadata",
          "type": "tuple"
        }
      ],
      "name": "MetadataUpdated",
      "type": "event"
    },
    {
      "anonymous": false,
      "inputs": [
        {
          "indexed": true,
          "internalType": "address",
          "name": "previousOwner",
          "type": "address"
        },
        {
          "indexed": true,
          "internalType": "address",
          "name": "newOwner",
          "type": "address"
        }
      ],
      "name": "OwnershipTransferred",
      "type": "event"
    },
    {
      "anonymous": false,
      "inputs": [
        {
          "indexed": true,
          "internalType": "address",
          "name": "wrappedSong",
          "type": "address"
        },
        {
          "indexed": true,
          "internalType": "address",
          "name": "token",
          "type": "address"
        },
        {
          "indexed": false,
          "internalType": "uint256",
          "name": "amount",
          "type": "uint256"
        }
      ],
      "name": "UpdateFeeCollected",
      "type": "event"
    },
    {
      "inputs": [
        {
          "internalType": "address",
          "name": "wrappedSong",
          "type": "address"
        }
      ],
      "name": "confirmUpdateMetadata",
      "outputs": [],
      "stateMutability": "payable",
      "type": "function"
    },
    {
      "inputs": [
        {
          "internalType": "address",
          "name": "wrappedSong",
          "type": "address"
        },
        {
          "components": [
            {
              "internalType": "string",
              "name": "name",
              "type": "string"
            },
            {
              "internalType": "string",
              "name": "description",
              "type": "string"
            },
            {
              "internalType": "string",
              "name": "image",
              "type": "string"
            },
            {
              "internalType": "string",
              "name": "externalUrl",
              "type": "string"
            },
            {
              "internalType": "string",
              "name": "animationUrl",
              "type": "string"
            },
            {
              "internalType": "string",
              "name": "attributesIpfsHash",
              "type": "string"
            }
          ],
          "internalType": "struct IMetadataModule.Metadata",
          "name": "newMetadata",
          "type": "tuple"
        }
      ],
      "name": "createMetadata",
      "outputs": [
        {
          "components": [
            {
              "internalType": "string",
              "name": "name",
              "type": "string"
            },
            {
              "internalType": "string",
              "name": "description",
              "type": "string"
            },
            {
              "internalType": "string",
              "name": "image",
              "type": "string"
            },
            {
              "internalType": "string",
              "name": "externalUrl",
              "type": "string"
            },
            {
              "internalType": "string",
              "name": "animationUrl",
              "type": "string"
            },
            {
              "internalType": "string",
              "name": "attributesIpfsHash",
              "type": "string"
            }
          ],
          "internalType": "struct IMetadataModule.Metadata",
          "name": "",
          "type": "tuple"
        }
      ],
      "stateMutability": "nonpayable",
      "type": "function"
    },
    {
      "inputs": [
        {
          "internalType": "address",
          "name": "wrappedSong",
          "type": "address"
        }
      ],
      "name": "getPendingMetadataUpdate",
      "outputs": [
        {
          "components": [
            {
              "internalType": "string",
              "name": "name",
              "type": "string"
            },
            {
              "internalType": "string",
              "name": "description",
              "type": "string"
            },
            {
              "internalType": "string",
              "name": "image",
              "type": "string"
            },
            {
              "internalType": "string",
              "name": "externalUrl",
              "type": "string"
            },
            {
              "internalType": "string",
              "name": "animationUrl",
              "type": "string"
            },
            {
              "internalType": "string",
              "name": "attributesIpfsHash",
              "type": "string"
            }
          ],
          "internalType": "struct IMetadataModule.Metadata",
          "name": "",
          "type": "tuple"
        }
      ],
      "stateMutability": "view",
      "type": "function"
    },
    {
      "inputs": [
        {
          "internalType": "address",
          "name": "wrappedSong",
          "type": "address"
        },
        {
          "internalType": "uint256",
          "name": "tokenId",
          "type": "uint256"
        }
      ],
      "name": "getTokenURI",
      "outputs": [
        {
          "internalType": "string",
          "name": "",
          "type": "string"
        }
      ],
      "stateMutability": "view",
      "type": "function"
    },
    {
      "inputs": [
        {
          "internalType": "address",
          "name": "wrappedSong",
          "type": "address"
        }
      ],
      "name": "getWrappedSongMetadata",
      "outputs": [
        {
          "components": [
            {
              "internalType": "string",
              "name": "name",
              "type": "string"
            },
            {
              "internalType": "string",
              "name": "description",
              "type": "string"
            },
            {
              "internalType": "string",
              "name": "image",
              "type": "string"
            },
            {
              "internalType": "string",
              "name": "externalUrl",
              "type": "string"
            },
            {
              "internalType": "string",
              "name": "animationUrl",
              "type": "string"
            },
            {
              "internalType": "string",
              "name": "attributesIpfsHash",
              "type": "string"
            }
          ],
          "internalType": "struct IMetadataModule.Metadata",
          "name": "",
          "type": "tuple"
        }
      ],
      "stateMutability": "view",
      "type": "function"
    },
    {
      "inputs": [
        {
          "internalType": "address",
          "name": "wrappedSong",
          "type": "address"
        }
      ],
      "name": "isMetadataUpdateConfirmed",
      "outputs": [
        {
          "internalType": "bool",
          "name": "",
          "type": "bool"
        }
      ],
      "stateMutability": "view",
      "type": "function"
    },
    {
      "inputs": [],
      "name": "owner",
      "outputs": [
        {
          "internalType": "address",
          "name": "",
          "type": "address"
        }
      ],
      "stateMutability": "view",
      "type": "function"
    },
    {
      "inputs": [],
      "name": "protocolModule",
      "outputs": [
        {
          "internalType": "contract IProtocolModule",
          "name": "",
          "type": "address"
        }
      ],
      "stateMutability": "view",
      "type": "function"
    },
    {
      "inputs": [
        {
          "internalType": "address",
          "name": "wrappedSong",
          "type": "address"
        }
      ],
      "name": "rejectUpdateMetadata",
      "outputs": [],
      "stateMutability": "nonpayable",
      "type": "function"
    },
    {
      "inputs": [
        {
          "internalType": "address",
          "name": "wrappedSong",
          "type": "address"
        }
      ],
      "name": "removeMetadata",
      "outputs": [],
      "stateMutability": "nonpayable",
      "type": "function"
    },
    {
      "inputs": [],
      "name": "renounceOwnership",
      "outputs": [],
      "stateMutability": "nonpayable",
      "type": "function"
    },
    {
      "inputs": [
        {
          "internalType": "address",
          "name": "wrappedSong",
          "type": "address"
        },
        {
          "components": [
            {
              "internalType": "string",
              "name": "name",
              "type": "string"
            },
            {
              "internalType": "string",
              "name": "description",
              "type": "string"
            },
            {
              "internalType": "string",
              "name": "image",
              "type": "string"
            },
            {
              "internalType": "string",
              "name": "externalUrl",
              "type": "string"
            },
            {
              "internalType": "string",
              "name": "animationUrl",
              "type": "string"
            },
            {
              "internalType": "string",
              "name": "attributesIpfsHash",
              "type": "string"
            }
          ],
          "internalType": "struct IMetadataModule.Metadata",
          "name": "newMetadata",
          "type": "tuple"
        }
      ],
      "name": "requestUpdateMetadata",
      "outputs": [],
      "stateMutability": "nonpayable",
      "type": "function"
    },
    {
      "inputs": [
        {
          "internalType": "address",
          "name": "_protocolModule",
          "type": "address"
        }
      ],
      "name": "setProtocolModule",
      "outputs": [],
      "stateMutability": "nonpayable",
      "type": "function"
    },
    {
      "inputs": [
        {
          "internalType": "address",
          "name": "newOwner",
          "type": "address"
        }
      ],
      "name": "transferOwnership",
      "outputs": [],
      "stateMutability": "nonpayable",
      "type": "function"
    },
    {
      "inputs": [
        {
          "internalType": "address",
          "name": "wrappedSong",
          "type": "address"
        },
        {
          "components": [
            {
              "internalType": "string",
              "name": "name",
              "type": "string"
            },
            {
              "internalType": "string",
              "name": "description",
              "type": "string"
            },
            {
              "internalType": "string",
              "name": "image",
              "type": "string"
            },
            {
              "internalType": "string",
              "name": "externalUrl",
              "type": "string"
            },
            {
              "internalType": "string",
              "name": "animationUrl",
              "type": "string"
            },
            {
              "internalType": "string",
              "name": "attributesIpfsHash",
              "type": "string"
            }
          ],
          "internalType": "struct IMetadataModule.Metadata",
          "name": "newMetadata",
          "type": "tuple"
        }
      ],
      "name": "updateMetadata",
      "outputs": [],
      "stateMutability": "payable",
      "type": "function"
    },
    {
      "inputs": [
        {
          "internalType": "address",
          "name": "token",
          "type": "address"
        },
        {
          "internalType": "address",
          "name": "recipient",
          "type": "address"
        }
      ],
      "name": "withdrawAccumulatedFees",
      "outputs": [],
      "stateMutability": "nonpayable",
      "type": "function"
    },
    {
      "stateMutability": "payable",
      "type": "receive"
    }
  ],
  "bytecode": "0x608034620000c657601f6200322338819003918201601f19168301916001600160401b03831184841017620000cb57808492602094604052833981010312620000c657516001600160a01b039081811690819003620000c6578015620000ad57600080546001600160a01b03198116831782556040519316907f8be0079c531659141344cd1fd0a4f28419497f9722a3daafe3b4186f6b6457e09080a3600180556131419081620000e28239f35b604051631e4fbdf760e01b815260006004820152602490fd5b600080fd5b634e487b7160e01b600052604160045260246000fdfe60e08060405260049081361015610020575b5050361561001e57600080fd5b005b600060c05260c0513560e01c9081630b63fd621461278057508063187de53b14612411578063349cdba0146123bb578063376c1f07146121ff5780634b700629146116665780635c42e6671461163c5780635dc447ed14610e995780636613680d14610767578063715018a6146107085780638da5cb5b146106dd5780639205fafe146104ac578063a859dcde14610408578063a9edb0f5146102b9578063da67603e146101be578063dac73c991461017d5763f2fde38b146100e35780610011565b34610177576020366003190112610177576100fc612989565b610104612c27565b6001600160a01b0390811691821561015d575060c05154826001600160601b0360a01b82161760c05155167f8be0079c531659141344cd1fd0a4f28419497f9722a3daafe3b4186f6b6457e060c05160c051a360c05180f35b60249060405190631e4fbdf760e01b825260c05190820152fd5b60c05180fd5b34610177576020366003190112610177576001600160a01b0361019e612989565b1660c051526008602052602060ff604060c0512054166040519015158152f35b5034610177576020366003190112610177576102b5906101dc612989565b6101e4612c53565b5060018060a01b031660c051526007602052600561029c604060c051206102256102876040519561021487612a6d565b60405161022c816102258188612f70565b0382612a9e565b8752604051610242816102258160018901612f70565b602088015260405161025b816102258160028901612f70565b6040880152604051610274816102258160038901612f70565b6060880152604051928380928601612f70565b60808501526102256040518094819301612f70565b60a08201526040519182916020835260208301906129ec565b0390f35b503461017757602080600319360112610177576001600160a01b036102dc612989565b16913383036103b8578260c05152600682526102fd604060c0512054612ca3565b1561037657506008908260c051526006815261031d604060c05120612f2b565b8260c0515260078152610334604060c05120612f2b565b8260c0515252604060c0512060ff1981541690557f850e5df914b57ac32b9b4cfb02944f8e955f9991d54ae5ccac3936a7b205cace60c05160c051a260c05180f35b6064916040519162461bcd60e51b8352820152601760248201527f4d6574616461746120646f6573206e6f742065786973740000000000000000006044820152fd5b6084916040519162461bcd60e51b8352820152602560248201527f4f6e6c79207772617070656420736f6e672063616e2072656d6f7665206d6574604482015264616461746160d81b6064820152fd5b503461017757602036600319011261017757610422612989565b61042a612c27565b6001600160a01b03169081156104685750600280546001600160a01b0319169190911790556005805460ff60a01b1916600160a01b17905560c05180f35b60649060206040519162461bcd60e51b8352820152601f60248201527f496e76616c69642070726f746f636f6c206d6f64756c652061646472657373006044820152fd5b503461017757602080600319360112610177576104c7612989565b60025460405163670d296960e11b81529193916001600160a01b0391849082908590829086165afa908115610679578291859160c051916106c0575b5084604051809481936365bb98b560e01b8352165afa801561067957828591819360c051916106a3575b501695866001600160601b0360a01b6003541617600355602460405180948193633aa690e760e01b8352169889888301525afa908115610679578291859160c05191610686575b508460405180948193638da5cb5b60e01b8352165afa9081156106795760c0519161064c575b501633036105ff57506008908260c05152600781526105bd604060c05120612f2b565b8260c0515252604060c0512060ff1981541690557f44983a324fa169af1e5f7fc334fe51324c21a0f94c8407867926cb4266b0cb5460c05160c051a260c05180f35b6084916040519162461bcd60e51b8352820152602260248201527f4f6e6c79206469737472696275746f722063616e2072656a6563742075706461604482015261746560f01b6064820152fd5b61066c9150843d8611610672575b6106648183612a9e565b810190612c84565b3861059a565b503d61065a565b6040513d60c051823e3d90fd5b61069d9150823d8411610672576106648183612a9e565b38610574565b6106ba9150833d8511610672576106648183612a9e565b3861052d565b6106d79150823d8411610672576106648183612a9e565b38610503565b346101775760c0513660031901126101775760c051546040516001600160a01b039091168152602090f35b346101775760c05136600319011261017757610722612c27565b60c05180546001600160a01b0319811682556001600160a01b03167f8be0079c531659141344cd1fd0a4f28419497f9722a3daafe3b4186f6b6457e08280a360c05180f35b50346101775761077636612b21565b9061077f612c53565b5060025460405163058dba2f60e11b81526001600160a01b038381168287015294916020908290602490829089165afa801561067957859160c05191610e7a575b501615610e365783821660c0515260066020526107e2604060c0512054612ca3565b610df2576107ef83612d3b565b15610dbb5783821660c051526006602052604060c051209083518051906001600160401b038211610da45781906108308261082a8754612ca3565b87612cf4565b6020906001601f841114610d3b5760c05192610d30575b50508160011b916000199060031b1c19161782555b6001820160208501518051906001600160401b038211610ba757819061088c826108868654612ca3565b86612cf4565b6020906001601f841114610cc75760c05192610cbc575b50508160011b916000199060031b1c19161790555b6002820160408501518051906001600160401b038211610ba75781906108e2826108868654612ca3565b6020906001601f841114610c535760c05192610c48575b50508160011b916000199060031b1c19161790555b60039182810160608601518051906001600160401b038211610c3157819061093a826108868654612ca3565b6020906001601f841114610bc95760c05192610bbe575b50508160011b9160001990871b1c19161790555b60808501518051906001600160401b038211610ba7576109938261098b86860154612ca3565b868601612cf4565b6020906001601f841114610b34579180916005949360c05192610b29575b50508160011b9160001990871b1c191617838201555b019160a08501518051926001600160401b038411610b1257506109ee836108868654612ca3565b6020906001601f851114610a7d57927f6e59fb1f315f2f4b281014e9d51ca1387542c6af4109446eaaabadd34b5d5eb3949281926102b5999560c05193610a72575b50508260011b92600019911b1c19161790555b6040519260208452169180610a5b60208201866129ec565b0390a26040519182916020835260208301906129ec565b015191503880610a30565b9190601f198416928560c05152602060c051209360c0515b818110610afa57509285927f6e59fb1f315f2f4b281014e9d51ca1387542c6af4109446eaaabadd34b5d5eb39795926102b59b9760019610610ae0575b50505050811b019055610a43565b01519060f884600019921b161c1916905538808080610ad2565b92946020600181928886015181550196019301610a95565b604190634e487b7160e01b60c0515252602460c051fd5b0151905038806109b1565b9084840160c05152602060c051209160c0515b601f1985168110610b8f575091839160019360059695601f19811610610b77575b505050811b01838201556109c7565b015160001983891b60f8161c19169055388080610b68565b91926020600181928685015181550194019201610b47565b604184634e487b7160e01b60c0515252602460c051fd5b015190503880610951565b60c0805186905251602081209350601f198516905b818110610c195750908460019594939210610c01575b505050811b019055610965565b015160001983891b60f8161c19169055388080610bf4565b92936020600181928786015181550195019301610bde565b604185634e487b7160e01b60c0515252602460c051fd5b0151905038806108f9565b60c0805186905251602081209350601f198516905b818110610ca45750908460019594939210610c8b575b505050811b01905561090e565b015160001960f88460031b161c19169055388080610c7e565b92936020600181928786015181550195019301610c68565b0151905038806108a3565b60c0805186905251602081209350601f198516905b818110610d185750908460019594939210610cff575b505050811b0190556108b8565b015160001960f88460031b161c19169055388080610cf2565b92936020600181928786015181550195019301610cdc565b015190503880610847565b60c0805187905251602081209350601f198516905b818110610d8c5750908460019594939210610d73575b505050811b01825561085c565b015160001960f88460031b161c19169055388080610d66565b92936020600181928786015181550195019301610d50565b604183634e487b7160e01b60c0515252602460c051fd5b60649060206040519162461bcd60e51b8352820152601060248201526f496e76616c6964206d6574616461746160801b6044820152fd5b60649060206040519162461bcd60e51b8352820152601760248201527f4d6574616461746120616c7265616479206578697374730000000000000000006044820152fd5b60649060206040519162461bcd60e51b8352820152601960248201527f41646472657373206e6f7420612070726f746f636f6c205753000000000000006044820152fd5b610e93915060203d602011610672576106648183612a9e565b386107c0565b50610ea336612b21565b604051638da5cb5b60e01b81526001600160a01b039283169260209182818781885afa9081156106795760c0519161161f575b50811633148015611612575b156115bc57848282600254166040519283809263670d296960e11b82525afa908115610679578291849160c0519161159f575b5087604051809581936365bb98b560e01b8352165afa801561067957839260c05191611582575b5016600390806001600160601b0360a01b835416178255604051928380926306f8718960e31b8252888a83015260249586915afa9081156106795760c05191611555575b506114fc57610f96610f9185612d3b565b612d80565b8460c0515260068352604060c05120908451968751926001600160401b03938481116114e657610fd081610fca8454612ca3565b84612cf4565b601f998190889060018d84111461147f5760c05192611474575b50508160011b9160001990861b1c19161781555b60016080526080518101868801518051908682116112fc578190611026826108868654612ca3565b899060018e8411146114095760c051926113fe575b5050816080511b9160001990871b1c19161790555b6002810160408801518051908682116112fc578190611073826108868654612ca3565b899060018e8411146113935760c05192611388575b5050816080511b9160001990871b1c19161790555b82810160608801518051908682116112fc5781906110bf826108868654612ca3565b899060018e84111461131d5760c05192611312575b5050816080511b9160001990871b1c19161790555b81810160808801518051908682116112fc5761110f826111098554612ca3565b85612cf4565b889060018d84111461128a57918091600595949360c0519261127f575b5050816080511b9160001990881b1c19161790555b019360a087015191825194851161126a575050611162836108868654612ca3565b60c05150849783116001146111dc57907f4288f171f419b66095d6e026090ed813669ea5a62cfe4416a47e75549e4788669697839260c051936111d1575b5050826080511b92600019911b1c19161790555b6111c86040519282849384528301906129ec565b0390a260c05180f35b0151915038806111a0565b90601f198316978460c051528560c051209260c0515b8a81106112525750847f4288f171f419b66095d6e026090ed813669ea5a62cfe4416a47e75549e478866999a10611238575b50505050608051906080511b0190556111b4565b01519060f884600019921b161c1916905538808080611224565b919387809186840151815560805101950192016111f2565b604190634e487b7160e01b60c051525260c051fd5b01519050388061112c565b90601f198316918460c051528a60c051209260c0515b8c8282106112e557505090846005979695949392106112cd575b505050608051906080511b019055611141565b015160001983891b60f8161c191690553880806112ba565b8495819295850151815560805101950193016112a0565b87604186634e487b7160e01b60c051525260c051fd5b0151905038806110d4565b60c08051869052518b812093508490601f198216905b8d82821061136e57505010611356575b505050608051906080511b0190556110e9565b015160001983881b60f8161c19169055388080611343565b848601518755608051909601959485019487935001611333565b015190503880611088565b60c08051869052518b812093508490601f198216905b8d8282106113e4575050106113cc575b505050608051906080511b01905561109d565b015160001983881b60f8161c191690553880806113b9565b8486015187556080519096019594850194879350016113a9565b01519050388061103b565b60c08051869052518b812093508490601f198216905b8d82821061145a57505010611442575b505050608051906080511b019055611050565b015160001983881b60f8161c1916905538808061142f565b84860151875560805190960195948501948793500161141f565b015190503880610fea565b60c08051869052518a81209350601f198516905b8b8282106114d05750509084600195949392106114b8575b505050811b018155610ffe565b015160001983881b60f8161c191690553880806114ab565b6001859682939686015181550195019301611493565b85604184634e487b7160e01b60c051525260c051fd5b60405162461bcd60e51b8152808701849052602d818401527f43616e6e6f7420757064617465206d65746164617461206469726563746c792060448201526c61667465722072656c6561736560981b6064820152608490fd5b6115759150843d861161157b575b61156d8183612a9e565b810190612df2565b38610f80565b503d611563565b6115999150833d8511610672576106648183612a9e565b38610f3c565b6115b69150823d8411610672576106648183612a9e565b38610f15565b60405162461bcd60e51b8152808601839052602960248201527f4f6e6c79207772617070656420736f6e67206f7220697473206f776e65722063604482015268616e2075706461746560b81b6064820152608490fd5b5080600254163314610ee2565b6116369150833d8511610672576106648183612a9e565b38610ed6565b346101775760c051366003190112610177576002546040516001600160a01b039091168152602090f35b50346101775761167536612b21565b60025460405163670d296960e11b8082526001600160a01b039283169460209392909190848189818a5afa908115610679578491869160c051916121e2575b5089604051809481936365bb98b560e01b8352165afa801561067957849160c051916121c5575b5016926001600160601b0360a01b816003948683875416178655611701610f918a612d3b565b1697604051638da5cb5b60e01b815287818c818d5afa9081156106795760c051916121a8575b508333911603612151576040516306f8718960e31b8152808b018a905260249688908290899082905afa9081156106795760c05191612134575b50156120dd5760405184815287818c81855afa908115610679578491899160c051916120c0575b508c60405180948193636d4726d960e01b8352165afa801561067957849160c05191612086575b50169384838c5416178b55604051946374816e3760e01b865288868d81845afa9586156106795760c05196612057575b5060405163d579e3f360e01b815289818e81855afa928315610679578a9160c05194612038575b508d6040518096819382525afa9283156106795785938a9160c0519161201b575b508d604051809681936309da4e5160e01b8352165afa91821561067957858a938e9560c05191611fdb575b5016809560055416176005558615159081600014611fce5715611f4257506040516337a0a9e960e11b815292839182905afa801561067957879160c05191611f13575b50868b6040519485938492637c70c0a360e01b84528301525afa9081156106795760c05191611ef6575b5016908115611ea7576040516323b872dd60e01b8682015233858201523060448201526064808201839052815260a081016001600160401b03811182821017611e935760405261190f9083613036565b8160c0515260098552604060c05120805490828201809211611e7f57556040519081527f785bfd9070b1fa5b19bfa2ac4637328df950f5e0adafe5873360de4e23b6d8a0853392a35b8460c0515260078352604060c05120908451968751926001600160401b03938481116114e65761198c81610fca8454612ca3565b601f998190889060018d841114611e185760c05192611e0d575b50508160011b9160001990861b1c19161781555b600160a05260a0518101868801518051908682116112fc5781906119e2826108868654612ca3565b899060018e841114611da25760c05192611d97575b50508160a0511b9160001990871b1c19161790555b6002810160408801518051908682116112fc578190611a2f826108868654612ca3565b899060018e841114611d2c5760c05192611d21575b50508160a0511b9160001990871b1c19161790555b82810160608801518051908682116112fc578190611a7b826108868654612ca3565b899060018e841114611cb65760c05192611cab575b50508160a0511b9160001990871b1c19161790555b81810160808801518051908682116112fc57611ac5826111098554612ca3565b889060018d841114611c3957918091600595949360c05192611c2e575b50508160a0511b9160001990881b1c19161790555b019360a087015191825194851161126a575050611b18836108868654612ca3565b60c0515084978311600114611ba057907fcfa38ad22e928cede6a19793c7da9bad051ddd68eaabfc0a35500e381a60cb399697839260c05193611b95575b50508260a0511b92600019911b1c19161790555b8360c0515260088152604060c0512060ff1981541690556111c86040519282849384528301906129ec565b015191503880611b56565b90601f198316978460c051528560c051209260c0515b8a8110611c165750847fcfa38ad22e928cede6a19793c7da9bad051ddd68eaabfc0a35500e381a60cb39999a10611bfc575b5050505060a0519060a0511b019055611b6a565b01519060f884600019921b161c1916905538808080611be8565b919387809186840151815560a0510195019201611bb6565b015190503880611ae2565b90601f198316918460c051528a60c051209260c0515b8c828210611c945750509084600597969594939210611c7c575b50505060a0519060a0511b019055611af7565b015160001983891b60f8161c19169055388080611c69565b8495819295850151815560a0510195019301611c4f565b015190503880611a90565b60c08051869052518b812093508490601f198216905b8d828210611d0757505010611cef575b50505060a0519060a0511b019055611aa5565b015160001983881b60f8161c19169055388080611cdc565b84860151875560a051909601959485019487935001611ccc565b015190503880611a44565b60c08051869052518b812093508490601f198216905b8d828210611d7d57505010611d65575b50505060a0519060a0511b019055611a59565b015160001983881b60f8161c19169055388080611d52565b84860151875560a051909601959485019487935001611d42565b0151905038806119f7565b60c08051869052518b812093508490601f198216905b8d828210611df357505010611ddb575b50505060a0519060a0511b019055611a0c565b015160001983881b60f8161c19169055388080611dc8565b84860151875560a051909601959485019487935001611db8565b0151905038806119a6565b60c08051869052518a81209350601f198516905b8b828210611e69575050908460019594939210611e51575b505050811b0181556119ba565b015160001983881b60f8161c19169055388080611e44565b6001859682939686015181550195019301611e2c565b8560118b634e487b7160e01b600052526000fd5b8560418b634e487b7160e01b600052526000fd5b60405162461bcd60e51b81528089018690526023818601527f4e6f2077686974656c697374656420737461626c65636f696e20617661696c61604482015262626c6560e81b6064820152608490fd5b611f0d9150863d8811610672576106648183612a9e565b386118bf565b82819392503d8311611f3b575b611f2a8183612a9e565b810103126101775786905138611895565b503d611f20565b95505050505050611f8b5760c05180526009835260405160008082529033907f785bfd9070b1fa5b19bfa2ac4637328df950f5e0adafe5873360de4e23b6d8a0908690a3611958565b60405162461bcd60e51b81528087018490526018818401527f496e636f7272656374204554482066656520616d6f756e7400000000000000006044820152606490fd5b5050505050505050611958565b9394929550505081813d8311612014575b611ff68183612a9e565b810103126101775751908482168203610177578b92858a9338611852565b503d611fec565b6120329150823d8411610672576106648183612a9e565b38611827565b612050919450823d841161157b5761156d8183612a9e565b9238611806565b9095508881813d831161207f575b61206f8183612a9e565b81010312610177575194386117df565b503d612065565b809250898092503d83116120b9575b61209f8183612a9e565b8101031261017757518381168103610177578390386117af565b503d612095565b6120d79150823d8411610672576106648183612a9e565b38611788565b60405162461bcd60e51b8152808b01889052602b818801527f536f6e67206e6f742072656c65617365642c20757064617465206d657461646160448201526a7461206469726563746c7960a81b6064820152608490fd5b61214b9150883d8a1161157b5761156d8183612a9e565b38611761565b60405162461bcd60e51b8152808b01889052602a60248201527f4f6e6c79207772617070656420736f6e67206f776e65722063616e20726571756044820152696573742075706461746560b01b6064820152608490fd5b6121bf9150883d8a11610672576106648183612a9e565b38611727565b6121dc9150863d8811610672576106648183612a9e565b386116db565b6121f99150823d8411610672576106648183612a9e565b386116b4565b503461017757604036600319011261017757612219612989565b6001600160a01b0360243581811693929084900361017757612239612c27565b6002600154146123aa57600260015516908160c0515260209060098252604060c05120549081156123705760c0805185905260098452516040812055836123025760c05180808085895af161228c613006565b50156122c85750907f5e110f8bc8a20b65dcc87f224bdf1cc039346e267118bae2739847f07321ffa8915b604051908152a36001805560c05180f35b60405162461bcd60e51b81529081018390526013602482015272115512081d1c985b9cd9995c8819985a5b1959606a1b6044820152606490fd5b6040519063a9059cbb60e01b848301528560248301528260448301526044825260808201908282106001600160401b03831117610b1257507f5e110f8bc8a20b65dcc87f224bdf1cc039346e267118bae2739847f07321ffa893929161236b9160405285613036565b6122b7565b60405162461bcd60e51b815290810183905260136024820152724e6f206665657320746f20776974686472617760681b6044820152606490fd5b604051633ee5aeb560e01b81528390fd5b5034610177576020366003190112610177576102b5906123d9612989565b6123e1612c53565b5060018060a01b031660c051526006602052600561029c604060c051206102256102876040519561021487612a6d565b5060208060031936011261017757612427612989565b60025460405163670d296960e11b81529193916001600160a01b0391849082908590829086165afa908115610679578291859160c05191612763575b5084604051809481936365bb98b560e01b8352165afa801561067957828591819360c05191612746575b501695866001600160601b0360a01b6003541617600355602460405180948193633aa690e760e01b8352169889888301525afa908115610679578291859160c05191612729575b508460405180948193638da5cb5b60e01b8352165afa9081156106795760c0519161270c575b501633036126be578260c051526008825260ff604060c05120541661267c577f4288f171f419b66095d6e026090ed813669ea5a62cfe4416a47e75549e478866916111c860c0928584515260078352604084512060068452604085512081810361261e575b505085845152600783526125766040855120612f2b565b85845152600883526040845120600160ff19825416179055600683526005604085512060405195858796875286015261260e6125b560e0870183612f70565b936125fc6125e96125d6601f1997888b82030160408c015260018701612f70565b878a82030160608b015260028601612f70565b868982030160808a015260038501612f70565b90858883030160a08901528301612f70565b928584030160c086015201612f70565b6005808361262f6126759585612e0a565b61263f6001820160018601612e0a565b61264f6002820160028601612e0a565b61265f6003820160038601612e0a565b61266d868201878601612e0a565b019101612e0a565b388061255f565b6064916040519162461bcd60e51b8352820152601a60248201527f4e6f2070656e64696e67206d65746164617461207570646174650000000000006044820152fd5b6084916040519162461bcd60e51b8352820152602360248201527f4f6e6c79206469737472696275746f722063616e20636f6e6669726d2075706460448201526261746560e81b6064820152fd5b6127239150843d8611610672576106648183612a9e565b386124fa565b6127409150823d8411610672576106648183612a9e565b386124d4565b61275d9150833d8511610672576106648183612a9e565b3861248d565b61277a9150823d8411610672576106648183612a9e565b38612463565b9050346101775760403660031901126101775761279b612989565b916024359060018060a01b03809416928360c05152602093600685526005612850604060c051206127cb85612a6d565b6040516127dc816102258185612f70565b85526040516127f2816102258160018601612f70565b8886015260405161280a816102258160028601612f70565b6040860152604051612823816102258160038601612f70565b606086015260405161283b81610225818a8601612f70565b60808601526102256040518094819301612f70565b60a08301526003841015612939576128866060966002541692604051978895632fda23b760e01b875286015260648501906129ec565b9360248401526044830152818060c0519403915afa9182156106795760c051926128c0575b506102b56040519282849384528301906129c7565b9091503d8060c051833e6128d48183612a9e565b8101908281830312610177578051906001600160401b038211610177570181601f8201121561017757805161290881612abf565b926129166040519485612a9e565b81845284828401011161017757612932918480850191016129a4565b90386128ab565b60405162461bcd60e51b81528084018690526024808201527f496e76616c696420746f6b656e20494420666f72206d65746164617461206d6f60448201526364756c6560e01b6064820152608490fd5b600435906001600160a01b038216820361299f57565b600080fd5b60005b8381106129b75750506000910152565b81810151838201526020016129a7565b906020916129e0815180928185528580860191016129a4565b601f01601f1916010190565b612a6a9160a0612a59612a47612a35612a23612a11875160c0885260c08801906129c7565b602088015187820360208901526129c7565b604087015186820360408801526129c7565b606086015185820360608701526129c7565b608085015184820360808601526129c7565b9201519060a08184039101526129c7565b90565b60c081019081106001600160401b03821117612a8857604052565b634e487b7160e01b600052604160045260246000fd5b90601f801991011681019081106001600160401b03821117612a8857604052565b6001600160401b038111612a8857601f01601f191660200190565b81601f8201121561299f57803590612af182612abf565b92612aff6040519485612a9e565b8284526020838301011161299f57816000926020809301838601378301015290565b9060031960408184011261299f57600480356001600160a01b038116810361299f5793602435916001600160401b039384841161299f5760c090848403011261299f5760405193612b7185612a6d565b8382013581811161299f578383612b8a92870101612ada565b8552602484013581811161299f578383612ba692870101612ada565b6020860152604484013581811161299f578383612bc592870101612ada565b6040860152606484013581811161299f578383612be492870101612ada565b6060860152608484013581811161299f578383612c0392870101612ada565b608086015260a484013590811161299f57612c1f930101612ada565b60a082015290565b6000546001600160a01b03163303612c3b57565b60405163118cdaa760e01b8152336004820152602490fd5b60405190612c6082612a6d565b8160a060609182815282602082015282604082015282808201528260808201520152565b9081602091031261299f57516001600160a01b038116810361299f5790565b90600182811c92168015612cd3575b6020831014612cbd57565b634e487b7160e01b600052602260045260246000fd5b91607f1691612cb2565b818110612ce8575050565b60008155600101612cdd565b9190601f8111612d0357505050565b612d2f926000526020600020906020601f840160051c83019310612d31575b601f0160051c0190612cdd565b565b9091508190612d22565b80515115159081612d71575b81612d62575b81612d56575090565b60a09150015151151590565b60808101515115159150612d4d565b60408101515115159150612d47565b15612d8757565b60405162461bcd60e51b815260206004820152603760248201527f496e76616c6964206d657461646174613a20416c6c207265717569726564206660448201527f69656c6473206d757374206265206e6f6e2d656d7074790000000000000000006064820152608490fd5b9081602091031261299f5751801515810361299f5790565b90808214612ede57612e1c8154612ca3565b906001600160401b038211612a88578190612e3b826108868654612ca3565b600090601f8311600114612e7257600092612e67575b50508160011b916000199060031b1c1916179055565b015490503880612e51565b81526020808220858352818320935090601f1985169083905b828210612ec5575050908460019594939210612eac575b505050811b019055565b015460001960f88460031b161c19169055388080612ea2565b8495819295850154815560018091019601940190612e8b565b5050565b612eec8154612ca3565b9081612ef6575050565b81601f60009311600114612f08575055565b908083918252612f27601f60208420940160051c840160018501612cdd565b5555565b6005612d2f91612f3a81612ee2565b612f4660018201612ee2565b612f5260028201612ee2565b612f5e60038201612ee2565b612f6a60048201612ee2565b01612ee2565b9060009291805491612f8183612ca3565b918282526001938481169081600014612fe35750600114612fa3575b50505050565b90919394506000526020928360002092846000945b838610612fcf575050505001019038808080612f9d565b805485870183015294019385908201612fb8565b9294505050602093945060ff191683830152151560051b01019038808080612f9d565b3d15613031573d9061301782612abf565b916130256040519384612a9e565b82523d6000602084013e565b606090565b60008061305f9260018060a01b03169360208151910182865af1613058613006565b90836130a8565b805190811515918261308d575b50506130755750565b60249060405190635274afe760e01b82526004820152fd5b6130a09250602080918301019101612df2565b15388061306c565b906130cf57508051156130bd57805190602001fd5b604051630a12f52160e11b8152600490fd5b81511580613102575b6130e0575090565b604051639996b31560e01b81526001600160a01b039091166004820152602490fd5b50803b156130d856fea2646970667358221220cc4b0017344c3184a1deede3ddad28d55d35df488a74bc38bdd04d68dc933c6564736f6c63430008140033",
  "linkReferences": {},
  "deployedLinkReferences": {}
}