{
  "_format": "hh-sol-artifact-1",
  "contractName": "MetadataModule",
  "sourceName": "contracts/protocol/NonUpgradable/MetadataModule.sol",
  "abi": [
    {
      "inputs": [],
      "stateMutability": "nonpayable",
      "type": "constructor"
    },
    {
      "inputs": [
        {
          "internalType": "address",
          "name": "target",
          "type": "address"
        }
      ],
      "name": "AddressEmptyCode",
      "type": "error"
    },
    {
      "inputs": [
        {
          "internalType": "address",
          "name": "account",
          "type": "address"
        }
      ],
      "name": "AddressInsufficientBalance",
      "type": "error"
    },
    {
      "inputs": [],
      "name": "FailedInnerCall",
      "type": "error"
    },
    {
      "inputs": [
        {
          "internalType": "address",
          "name": "owner",
          "type": "address"
        }
      ],
      "name": "OwnableInvalidOwner",
      "type": "error"
    },
    {
      "inputs": [
        {
          "internalType": "address",
          "name": "account",
          "type": "address"
        }
      ],
      "name": "OwnableUnauthorizedAccount",
      "type": "error"
    },
    {
      "inputs": [],
      "name": "ReentrancyGuardReentrantCall",
      "type": "error"
    },
    {
      "inputs": [
        {
          "internalType": "address",
          "name": "token",
          "type": "address"
        }
      ],
      "name": "SafeERC20FailedOperation",
      "type": "error"
    },
    {
      "anonymous": false,
      "inputs": [
        {
          "indexed": true,
          "internalType": "address",
          "name": "token",
          "type": "address"
        },
        {
          "indexed": true,
          "internalType": "address",
          "name": "recipient",
          "type": "address"
        },
        {
          "indexed": false,
          "internalType": "uint256",
          "name": "amount",
          "type": "uint256"
        }
      ],
      "name": "FeesWithdrawn",
      "type": "event"
    },
    {
      "anonymous": false,
      "inputs": [
        {
          "indexed": true,
          "internalType": "address",
          "name": "wrappedSong",
          "type": "address"
        },
        {
          "components": [
            {
              "internalType": "string",
              "name": "name",
              "type": "string"
            },
            {
              "internalType": "string",
              "name": "description",
              "type": "string"
            },
            {
              "internalType": "string",
              "name": "image",
              "type": "string"
            },
            {
              "internalType": "string",
              "name": "externalUrl",
              "type": "string"
            },
            {
              "internalType": "string",
              "name": "animationUrl",
              "type": "string"
            },
            {
              "internalType": "string",
              "name": "attributesIpfsHash",
              "type": "string"
            }
          ],
          "indexed": false,
          "internalType": "struct IMetadataModule.Metadata",
          "name": "newMetadata",
          "type": "tuple"
        }
      ],
      "name": "MetadataCreated",
      "type": "event"
    },
    {
      "anonymous": false,
      "inputs": [
        {
          "indexed": true,
          "internalType": "address",
          "name": "wrappedSong",
          "type": "address"
        }
      ],
      "name": "MetadataRemoved",
      "type": "event"
    },
    {
      "anonymous": false,
      "inputs": [
        {
          "indexed": true,
          "internalType": "address",
          "name": "wrappedSong",
          "type": "address"
        }
      ],
      "name": "MetadataUpdateRejected",
      "type": "event"
    },
    {
      "anonymous": false,
      "inputs": [
        {
          "indexed": true,
          "internalType": "address",
          "name": "wrappedSong",
          "type": "address"
        },
        {
          "components": [
            {
              "internalType": "string",
              "name": "name",
              "type": "string"
            },
            {
              "internalType": "string",
              "name": "description",
              "type": "string"
            },
            {
              "internalType": "string",
              "name": "image",
              "type": "string"
            },
            {
              "internalType": "string",
              "name": "externalUrl",
              "type": "string"
            },
            {
              "internalType": "string",
              "name": "animationUrl",
              "type": "string"
            },
            {
              "internalType": "string",
              "name": "attributesIpfsHash",
              "type": "string"
            }
          ],
          "indexed": false,
          "internalType": "struct IMetadataModule.Metadata",
          "name": "newMetadata",
          "type": "tuple"
        }
      ],
      "name": "MetadataUpdateRequested",
      "type": "event"
    },
    {
      "anonymous": false,
      "inputs": [
        {
          "indexed": true,
          "internalType": "address",
          "name": "wrappedSong",
          "type": "address"
        },
        {
          "components": [
            {
              "internalType": "string",
              "name": "name",
              "type": "string"
            },
            {
              "internalType": "string",
              "name": "description",
              "type": "string"
            },
            {
              "internalType": "string",
              "name": "image",
              "type": "string"
            },
            {
              "internalType": "string",
              "name": "externalUrl",
              "type": "string"
            },
            {
              "internalType": "string",
              "name": "animationUrl",
              "type": "string"
            },
            {
              "internalType": "string",
              "name": "attributesIpfsHash",
              "type": "string"
            }
          ],
          "indexed": false,
          "internalType": "struct IMetadataModule.Metadata",
          "name": "newMetadata",
          "type": "tuple"
        }
      ],
      "name": "MetadataUpdated",
      "type": "event"
    },
    {
      "anonymous": false,
      "inputs": [
        {
          "indexed": true,
          "internalType": "address",
          "name": "previousOwner",
          "type": "address"
        },
        {
          "indexed": true,
          "internalType": "address",
          "name": "newOwner",
          "type": "address"
        }
      ],
      "name": "OwnershipTransferred",
      "type": "event"
    },
    {
      "anonymous": false,
      "inputs": [
        {
          "indexed": true,
          "internalType": "address",
          "name": "wrappedSong",
          "type": "address"
        },
        {
          "indexed": true,
          "internalType": "address",
          "name": "token",
          "type": "address"
        },
        {
          "indexed": false,
          "internalType": "uint256",
          "name": "amount",
          "type": "uint256"
        }
      ],
      "name": "UpdateFeeCollected",
      "type": "event"
    },
    {
      "inputs": [
        {
          "internalType": "address",
          "name": "wrappedSong",
          "type": "address"
        }
      ],
      "name": "confirmUpdateMetadata",
      "outputs": [],
      "stateMutability": "payable",
      "type": "function"
    },
    {
      "inputs": [
        {
          "internalType": "address",
          "name": "wrappedSong",
          "type": "address"
        },
        {
          "components": [
            {
              "internalType": "string",
              "name": "name",
              "type": "string"
            },
            {
              "internalType": "string",
              "name": "description",
              "type": "string"
            },
            {
              "internalType": "string",
              "name": "image",
              "type": "string"
            },
            {
              "internalType": "string",
              "name": "externalUrl",
              "type": "string"
            },
            {
              "internalType": "string",
              "name": "animationUrl",
              "type": "string"
            },
            {
              "internalType": "string",
              "name": "attributesIpfsHash",
              "type": "string"
            }
          ],
          "internalType": "struct IMetadataModule.Metadata",
          "name": "newMetadata",
          "type": "tuple"
        }
      ],
      "name": "createMetadata",
      "outputs": [
        {
          "components": [
            {
              "internalType": "string",
              "name": "name",
              "type": "string"
            },
            {
              "internalType": "string",
              "name": "description",
              "type": "string"
            },
            {
              "internalType": "string",
              "name": "image",
              "type": "string"
            },
            {
              "internalType": "string",
              "name": "externalUrl",
              "type": "string"
            },
            {
              "internalType": "string",
              "name": "animationUrl",
              "type": "string"
            },
            {
              "internalType": "string",
              "name": "attributesIpfsHash",
              "type": "string"
            }
          ],
          "internalType": "struct IMetadataModule.Metadata",
          "name": "",
          "type": "tuple"
        }
      ],
      "stateMutability": "nonpayable",
      "type": "function"
    },
    {
      "inputs": [
        {
          "internalType": "address",
          "name": "wrappedSong",
          "type": "address"
        }
      ],
      "name": "getPendingMetadataUpdate",
      "outputs": [
        {
          "components": [
            {
              "internalType": "string",
              "name": "name",
              "type": "string"
            },
            {
              "internalType": "string",
              "name": "description",
              "type": "string"
            },
            {
              "internalType": "string",
              "name": "image",
              "type": "string"
            },
            {
              "internalType": "string",
              "name": "externalUrl",
              "type": "string"
            },
            {
              "internalType": "string",
              "name": "animationUrl",
              "type": "string"
            },
            {
              "internalType": "string",
              "name": "attributesIpfsHash",
              "type": "string"
            }
          ],
          "internalType": "struct IMetadataModule.Metadata",
          "name": "",
          "type": "tuple"
        }
      ],
      "stateMutability": "view",
      "type": "function"
    },
    {
      "inputs": [
        {
          "internalType": "address",
          "name": "wrappedSong",
          "type": "address"
        },
        {
          "internalType": "uint256",
          "name": "tokenId",
          "type": "uint256"
        }
      ],
      "name": "getTokenURI",
      "outputs": [
        {
          "internalType": "string",
          "name": "",
          "type": "string"
        }
      ],
      "stateMutability": "view",
      "type": "function"
    },
    {
      "inputs": [
        {
          "internalType": "address",
          "name": "wrappedSong",
          "type": "address"
        }
      ],
      "name": "isMetadataUpdateConfirmed",
      "outputs": [
        {
          "internalType": "bool",
          "name": "",
          "type": "bool"
        }
      ],
      "stateMutability": "view",
      "type": "function"
    },
    {
      "inputs": [],
      "name": "owner",
      "outputs": [
        {
          "internalType": "address",
          "name": "",
          "type": "address"
        }
      ],
      "stateMutability": "view",
      "type": "function"
    },
    {
      "inputs": [],
      "name": "protocolModule",
      "outputs": [
        {
          "internalType": "contract IProtocolModule",
          "name": "",
          "type": "address"
        }
      ],
      "stateMutability": "view",
      "type": "function"
    },
    {
      "inputs": [
        {
          "internalType": "address",
          "name": "wrappedSong",
          "type": "address"
        }
      ],
      "name": "rejectUpdateMetadata",
      "outputs": [],
      "stateMutability": "nonpayable",
      "type": "function"
    },
    {
      "inputs": [
        {
          "internalType": "address",
          "name": "wrappedSong",
          "type": "address"
        }
      ],
      "name": "removeMetadata",
      "outputs": [],
      "stateMutability": "nonpayable",
      "type": "function"
    },
    {
      "inputs": [],
      "name": "renounceOwnership",
      "outputs": [],
      "stateMutability": "nonpayable",
      "type": "function"
    },
    {
      "inputs": [
        {
          "internalType": "address",
          "name": "wrappedSong",
          "type": "address"
        },
        {
          "components": [
            {
              "internalType": "string",
              "name": "name",
              "type": "string"
            },
            {
              "internalType": "string",
              "name": "description",
              "type": "string"
            },
            {
              "internalType": "string",
              "name": "image",
              "type": "string"
            },
            {
              "internalType": "string",
              "name": "externalUrl",
              "type": "string"
            },
            {
              "internalType": "string",
              "name": "animationUrl",
              "type": "string"
            },
            {
              "internalType": "string",
              "name": "attributesIpfsHash",
              "type": "string"
            }
          ],
          "internalType": "struct IMetadataModule.Metadata",
          "name": "newMetadata",
          "type": "tuple"
        }
      ],
      "name": "requestUpdateMetadata",
      "outputs": [],
      "stateMutability": "nonpayable",
      "type": "function"
    },
    {
      "inputs": [
        {
          "internalType": "address",
          "name": "_protocolModule",
          "type": "address"
        }
      ],
      "name": "setProtocolModule",
      "outputs": [],
      "stateMutability": "nonpayable",
      "type": "function"
    },
    {
      "inputs": [
        {
          "internalType": "address",
          "name": "newOwner",
          "type": "address"
        }
      ],
      "name": "transferOwnership",
      "outputs": [],
      "stateMutability": "nonpayable",
      "type": "function"
    },
    {
      "inputs": [
        {
          "internalType": "address",
          "name": "wrappedSong",
          "type": "address"
        },
        {
          "components": [
            {
              "internalType": "string",
              "name": "name",
              "type": "string"
            },
            {
              "internalType": "string",
              "name": "description",
              "type": "string"
            },
            {
              "internalType": "string",
              "name": "image",
              "type": "string"
            },
            {
              "internalType": "string",
              "name": "externalUrl",
              "type": "string"
            },
            {
              "internalType": "string",
              "name": "animationUrl",
              "type": "string"
            },
            {
              "internalType": "string",
              "name": "attributesIpfsHash",
              "type": "string"
            }
          ],
          "internalType": "struct IMetadataModule.Metadata",
          "name": "newMetadata",
          "type": "tuple"
        }
      ],
      "name": "updateMetadata",
      "outputs": [],
      "stateMutability": "payable",
      "type": "function"
    },
    {
      "inputs": [
        {
          "internalType": "address",
          "name": "token",
          "type": "address"
        },
        {
          "internalType": "address",
          "name": "recipient",
          "type": "address"
        }
      ],
      "name": "withdrawAccumulatedFees",
      "outputs": [],
      "stateMutability": "nonpayable",
      "type": "function"
    },
    {
      "stateMutability": "payable",
      "type": "receive"
    }
  ],
  "bytecode": "0x6080806040523461007e5733156100685760008054336001600160a01b03198216811783556040519290916001600160a01b0316907f8be0079c531659141344cd1fd0a4f28419497f9722a3daafe3b4186f6b6457e09080a360018055612d5d90816100848239f35b631e4fbdf760e01b815260006004820152602490fd5b600080fdfe60808060405260049081361015610020575b5050361561001e57600080fd5b005b60003560e01c9081630b63fd6214611f5d57508063187de53b14611c8e578063376c1f0714611adc5780634b700629146114615780635c42e667146114385780635dc447ed14610d905780636613680d1461066d578063715018a6146106145780638da5cb5b146105eb5780639205fafe1461046c578063a859dcde146103da578063a9edb0f51461029c578063da67603e146101a4578063dac73c99146101655763f2fde38b146100d25780610011565b34610160576020366003190112610160576100eb612165565b6100f36123fe565b6001600160a01b039081169182156101485750600054826bffffffffffffffffffffffff60a01b821617600055167f8be0079c531659141344cd1fd0a4f28419497f9722a3daafe3b4186f6b6457e0600080a3005b602490600060405191631e4fbdf760e01b8352820152fd5b600080fd5b34610160576020366003190112610160576001600160a01b03610186612165565b166000526005602052602060ff604060002054166040519015158152f35b503461016057602036600319011261016057610298906101c2612165565b6101ca61242a565b5060018060a01b031660005280602052600561027f604060002061020861026a604051956101f7876121c3565b60405161020f816102088188612747565b03826121f4565b8752604051610225816102088160018901612747565b602088015260405161023e816102088160028901612747565b6040880152604051610257816102088160038901612747565b6060880152604051928380928601612747565b60808501526102086040518094819301612747565b60a082015260405191829160208352602083019061237d565b0390f35b503461016057602080600319360112610160576001600160a01b036102bf612165565b169133830361038a5782600052600382526102de60406000205461247a565b15610348579060059183600052600382526102fc6040600020612702565b83600052815261030f6040600020612702565b8260005252604060002060ff1981541690557f850e5df914b57ac32b9b4cfb02944f8e955f9991d54ae5ccac3936a7b205cace600080a2005b6064916040519162461bcd60e51b8352820152601760248201527f4d6574616461746120646f6573206e6f742065786973740000000000000000006044820152fd5b6084916040519162461bcd60e51b8352820152602560248201527f4f6e6c79207772617070656420736f6e672063616e2072656d6f7665206d6574604482015264616461746160d81b6064820152fd5b5034610160576020366003190112610160576103f4612165565b6103fc6123fe565b6001600160a01b03169081156104285750600280546001600160a81b031916909117600160a01b179055005b60649060206040519162461bcd60e51b8352820152601f60248201527f496e76616c69642070726f746f636f6c206d6f64756c652061646472657373006044820152fd5b50346101605760208060031936011261016057610487612165565b600254604051633aa690e760e01b81526001600160a01b0392831681860181905294929184908290602490829086165afa9081156105c257829185916000916105ce575b508460405180948193638da5cb5b60e01b8352165afa9081156105c257600091610595575b50163303610548579060059183600052815261050f6040600020612702565b8260005252604060002060ff1981541690557f44983a324fa169af1e5f7fc334fe51324c21a0f94c8407867926cb4266b0cb54600080a2005b6084916040519162461bcd60e51b8352820152602260248201527f4f6e6c79206469737472696275746f722063616e2072656a6563742075706461604482015261746560f01b6064820152fd5b6105b59150843d86116105bb575b6105ad81836121f4565b81019061245b565b386104f0565b503d6105a3565b6040513d6000823e3d90fd5b6105e59150823d84116105bb576105ad81836121f4565b386104cb565b34610160576000366003190112610160576000546040516001600160a01b039091168152602090f35b346101605760003660031901126101605761062d6123fe565b600080546001600160a01b0319811682556001600160a01b03167f8be0079c531659141344cd1fd0a4f28419497f9722a3daafe3b4186f6b6457e08280a3005b50346101605761067c36612277565b9061068561242a565b5060025460405163058dba2f60e11b81526001600160a01b038381168287015294916020908290602490829089165afa80156105c2578591600091610d71575b501615610d2d5783821660005260036020526106e560406000205461247a565b610ce9576106f283612512565b15610cb2578382166000526003602052604060002083518051906001600160401b038211610aac5781906107308261072a865461247a565b866124cb565b602090601f8311600114610c4c57600092610c41575b50508160011b916000199060031b1c19161781555b6001810160208501518051906001600160401b038211610c2c5781906107858261072a865461247a565b602090601f8311600114610bc657600092610bbb575b50508160011b916000199060031b1c19161790555b60408401518051906001600160401b038211610aac5781906107e2826107d9600287015461247a565b600287016124cb565b602090601f8311600114610b4957600092610b3e575b50508160011b916000199060031b1c19161760028201555b60608401518051906001600160401b038211610aac57819061084282610839600387015461247a565b600387016124cb565b602090601f8311600114610acc57600092610ac1575b50508160011b916000199060031b1c19161760038201555b60808401518051906001600160401b038211610aac5761089e826108968686015461247a565b8686016124cb565b602090601f8311600114610a3b57600593929160009183610a30575b50508160011b916000199060031b1c191617838201555b019060a08401518051916001600160401b038311610a1b57506108fe826108f8855461247a565b856124cb565b602090601f831160011461098d5791807f6e59fb1f315f2f4b281014e9d51ca1387542c6af4109446eaaabadd34b5d5eb394926102989894600092610982575b50508160011b916000199060031b1c19161790555b604051926020845216918061096b602082018661237d565b0390a260405191829160208352602083019061237d565b01519050388061093e565b90601f198316918460005260206000209260005b818110610a0357509260019285926102989a967f6e59fb1f315f2f4b281014e9d51ca1387542c6af4109446eaaabadd34b5d5eb39896106109ea575b505050811b019055610953565b015160001960f88460031b161c191690553880806109dd565b929360206001819287860151815501950193016109a1565b604190634e487b7160e01b6000525260246000fd5b0151905038806108ba565b9084840160005260206000209160005b601f1985168110610a94575091839160019360059695601f19811610610a7b575b505050811b01838201556108d1565b015160001960f88460031b161c19169055388080610a6c565b91926020600181928685015181550194019201610a4b565b604184634e487b7160e01b6000525260246000fd5b015190503880610858565b9250600384016000526020600020906000935b601f1984168510610b23576001945083601f19811610610b0a575b505050811b016003820155610870565b015160001960f88460031b161c19169055388080610afa565b81810151835560209485019460019093019290910190610adf565b0151905038806107f8565b9250600284016000526020600020906000935b601f1984168510610ba0576001945083601f19811610610b87575b505050811b016002820155610810565b015160001960f88460031b161c19169055388080610b77565b81810151835560209485019460019093019290910190610b5c565b01519050388061079b565b6000858152602081209350601f198516905b818110610c145750908460019594939210610bfb575b505050811b0190556107b0565b015160001960f88460031b161c19169055388080610bee565b92936020600181928786015181550195019301610bd8565b604185634e487b7160e01b6000525260246000fd5b015190503880610746565b6000858152602081209350601f198516905b818110610c9a5750908460019594939210610c81575b505050811b01815561075b565b015160001960f88460031b161c19169055388080610c74565b92936020600181928786015181550195019301610c5e565b60649060206040519162461bcd60e51b8352820152601060248201526f496e76616c6964206d6574616461746160801b6044820152fd5b60649060206040519162461bcd60e51b8352820152601760248201527f4d6574616461746120616c7265616479206578697374730000000000000000006044820152fd5b60649060206040519162461bcd60e51b8352820152601960248201527f41646472657373206e6f7420612070726f746f636f6c205753000000000000006044820152fd5b610d8a915060203d6020116105bb576105ad81836121f4565b386106c5565b50610d9a36612277565b604051638da5cb5b60e01b81526001600160a01b039283169260209182818781885afa9081156105c25760009161141b575b5081163314801561140e575b156113b857819060025416604051918280926306f8718960e31b8252878983015260249485915afa9081156105c25760009161138b575b5061133357610e25610e2084612512565b612557565b610e2d612830565b836000526003948583526040600020958451968751926001600160401b039384811161131f57610e61816108f8855461247a565b8087601f9b8c83116001146112bb576000926112b0575b50508160011b9160001990861b1c19161782555b60019182810187890151805190878211611155578c8291610eb783610eb1875461247a565b876124cb565b8b91831160011461124e57600092611243575b505060001982881b1c191690851b1790555b600281016040890151805190878211611155578c8291610f0083610eb1875461247a565b8b9183116001146111e1576000926111d6575b505060001982881b1c191690851b1790555b8381016060890151805190878211611155578c8291610f4883610eb1875461247a565b8b91831160011461117457600092611169575b505060001982881b1c191690851b1790555b818101608089015180519087821161115557610f8d826108f8855461247a565b89908d83116001146110ec57600594939291600091836110e1575b505060001982891b1c191690861b1790555b019460a08801519182519586116110ce575050610fdb84610eb1875461247a565b8598841160011461104a578392917f4288f171f419b66095d6e026090ed813669ea5a62cfe4416a47e75549e4788669899849260009561103f575b50501b92600019911b1c19161790555b61103a60405192828493845283019061237d565b0390a2005b015193503880611016565b909291601f1983169885600052866000209260005b8b81106110b95750847f4288f171f419b66095d6e026090ed813669ea5a62cfe4416a47e75549e4788669a9b1061109f575b50505050811b019055611026565b01519060f884600019921b161c1916905538808080611091565b8183015185559386019391880191880161105f565b604190634e487b7160e01b600052526000fd5b015190503880610fa8565b9392918691601f19821690846000528c600020918d6000905b82821061113e575050968360059810611126575b505050811b019055610fba565b0151600019838b1b60f8161c19169055388080611119565b838a015185558b969094019392830192018e611105565b88604186634e487b7160e01b600052526000fd5b015190503880610f5b565b60008581528c8120899550929190601f198516908e5b8282106111bf57505084116111a7575b505050811b019055610f6d565b0151600019838a1b60f8161c1916905538808061119a565b8385015186558b979095019493840193018e61118a565b015190503880610f13565b60008581528c8120899550929190601f198516908e5b82821061122c5750508411611214575b505050811b019055610f25565b0151600019838a1b60f8161c19169055388080611207565b8385015186558b979095019493840193018e6111f7565b015190503880610eca565b60008581528c8120899550929190601f198516908e5b8282106112995750508411611281575b505050811b019055610edc565b0151600019838a1b60f8161c19169055388080611274565b8385015186558b979095019493840193018e611264565b015190503880610e78565b60008681528a81209350601f198516905b8b8282106113095750509084600195949392106112f1575b505050811b018255610e8c565b015160001983881b60f8161c191690553880806112e4565b60018596829396860151815501950193016112cc565b85604183634e487b7160e01b600052526000fd5b602d85916084936040519362461bcd60e51b85528401528201527f43616e6e6f7420757064617465206d65746164617461206469726563746c792060448201526c61667465722072656c6561736560981b6064820152fd5b6113ab9150833d85116113b1575b6113a381836121f4565b8101906125c9565b38610e0f565b503d611399565b60405162461bcd60e51b8152808601839052602960248201527f4f6e6c79207772617070656420736f6e67206f7220697473206f776e65722063604482015268616e2075706461746560b81b6064820152608490fd5b5080600254163314610dd8565b6114329150833d85116105bb576105ad81836121f4565b38610dcc565b34610160576000366003190112610160576002546040516001600160a01b039091168152602090f35b50346101605761147036612277565b61147c610e2082612512565b604051638da5cb5b60e01b81526001600160a01b039283169260209182818781885afa9081156105c257600091611abf575b508133911603611a6857819060025416604051918280926306f8718960e31b8252878983015260249485915afa9081156105c257600091611a4b575b50156119f557836000528482526040600020948351958651916001600160401b03928381116119e157611521816108f8855461247a565b8086601f9a8b831160011461197c57600092611971575b50508160011b916000199060031b1c19161782555b600190818301868801518051908682116118ef5781906115718261072a865461247a565b89908d831160011461190e57600092611903575b5050600019600383901b1c191690841b1790555b6002830160408801518051908682116118ef5781906115bc8261072a865461247a565b89908d831160011461188c57600092611881575b5050600019600383901b1c191690841b1790555b6003928381016060890151805190878211611155578c829161160a83610eb1875461247a565b8b91831160011461181f57600092611814575b505060001982881b1c191690851b1790555b81810160808901518051908782116111555761164f826108f8855461247a565b89908d83116001146117ab57600594939291600091836117a0575b505060001982891b1c191690861b1790555b019460a08801519182519586116110ce57505061169d84610eb1875461247a565b8598841160011461171c578392917fcfa38ad22e928cede6a19793c7da9bad051ddd68eaabfc0a35500e381a60cb3998998492600095611711575b50501b92600019911b1c19161790555b8360005260058152604060002060ff19815416905561103a60405192828493845283019061237d565b0151935038806116d8565b909291601f1983169885600052866000209260005b8b811061178b5750847fcfa38ad22e928cede6a19793c7da9bad051ddd68eaabfc0a35500e381a60cb399a9b10611771575b50505050811b0190556116e8565b01519060f884600019921b161c1916905538808080611763565b81830151855593860193918801918801611731565b01519050388061166a565b9392918691601f19821690846000528c600020918d6000905b8282106117fd5750509683600598106117e5575b505050811b01905561167c565b0151600019838b1b60f8161c191690553880806117d8565b838a015185558b969094019392830192018e6117c4565b01519050388061161d565b60008581528c8120899550929190601f198516908e5b82821061186a5750508411611852575b505050811b01905561162f565b0151600019838a1b60f8161c19169055388080611845565b8385015186558b979095019493840193018e611835565b0151905038806115d0565b90869350601f19831691856000528b6000209260005b8d8282106118d957505084116118c0575b505050811b0190556115e4565b015160001960f88460031b161c191690553880806118b3565b8385015186558a979095019493840193016118a2565b87604185634e487b7160e01b600052526000fd5b015190503880611585565b90869350601f19831691856000528b6000209260005b8d82821061195b5750508411611942575b505050811b019055611599565b015160001960f88460031b161c19169055388080611935565b8385015186558a97909501949384019301611924565b015190503880611538565b60008681528981209350601f198516905b8a8282106119cb5750509084600195949392106119b2575b505050811b01825561154d565b015160001960f88460031b161c191690553880806119a5565b600185968293968601518155019501930161198d565b84604183634e487b7160e01b600052526000fd5b602b85916084936040519362461bcd60e51b85528401528201527f536f6e67206e6f742072656c65617365642c20757064617465206d657461646160448201526a7461206469726563746c7960a81b6064820152fd5b611a629150833d85116113b1576113a381836121f4565b386114ea565b60405162461bcd60e51b8152808601839052602a60248201527f4f6e6c79207772617070656420736f6e67206f776e65722063616e20726571756044820152696573742075706461746560b01b6064820152608490fd5b611ad69150833d85116105bb576105ad81836121f4565b386114ae565b503461016057604036600319011261016057611af6612165565b6001600160a01b0360243581811693929084900361016057611b166123fe565b600260015414611c7d57600260015516908160005260209060068252604060002054908115611c4357600084815260068452604081205583611bd557600080808085895af1611b63612800565b5015611b9b5750907f5e110f8bc8a20b65dcc87f224bdf1cc039346e267118bae2739847f07321ffa8915b604051908152a360018055005b60405162461bcd60e51b81529081018390526013602482015272115512081d1c985b9cd9995c8819985a5b1959606a1b6044820152606490fd5b6040519063a9059cbb60e01b848301528560248301528260448301526044825260808201908282106001600160401b03831117610a1b57507f5e110f8bc8a20b65dcc87f224bdf1cc039346e267118bae2739847f07321ffa8939291611c3e9160405285612c52565b611b8e565b60405162461bcd60e51b815290810183905260136024820152724e6f206665657320746f20776974686472617760681b6044820152606490fd5b604051633ee5aeb560e01b81528390fd5b5060208060031936011261016057611ca4612165565b600254604051633aa690e760e01b81526001600160a01b0392831681860181905294929184908290602490829086165afa9081156105c25782918591600091611f40575b508460405180948193638da5cb5b60e01b8352165afa9081156105c257600091611f23575b50163303611ed557826000526005825260ff60406000205416611e93577f4288f171f419b66095d6e026090ed813669ea5a62cfe4416a47e75549e4788669161103a60c092611d5a612830565b856000528083526040600020600384526040600020818103611e35575b505085600052808352611d8d6040600020612702565b85600052600583526040600020600160ff198254161790556003835260056040600020604051958587968752860152611e25611dcc60e0870183612747565b93611e13611e00611ded601f1997888b82030160408c015260018701612747565b878a82030160608b015260028601612747565b868982030160808a015260038501612747565b90858883030160a08901528301612747565b928584030160c086015201612747565b60058083611e46611e8c95856125e1565b611e5660018201600186016125e1565b611e6660028201600286016125e1565b611e7660038201600386016125e1565b611e848682018786016125e1565b0191016125e1565b3880611d77565b6064916040519162461bcd60e51b8352820152601a60248201527f4e6f2070656e64696e67206d65746164617461207570646174650000000000006044820152fd5b6084916040519162461bcd60e51b8352820152602360248201527f4f6e6c79206469737472696275746f722063616e20636f6e6669726d2075706460448201526261746560e81b6064820152fd5b611f3a9150843d86116105bb576105ad81836121f4565b38611d0d565b611f579150823d84116105bb576105ad81836121f4565b38611ce8565b90503461016057604036600319011261016057611f78612165565b9060243560018060a01b03809316908160005260209360038552600561202a6040600020611fa5876121c3565b604051611fb6816102088185612747565b8752604051611fcc816102088160018601612747565b88880152604051611fe4816102088160028601612747565b6040880152604051611ffd816102088160038601612747565b606088015260405161201581610208818d8601612747565b60808801526102086040518094819301612747565b60a085015260038210156121155761206a956000949392606092600254169360405198899687958695632fda23b760e01b8752860152606485019061237d565b916024840152604483015203915afa9182156105c25760009261209d575b5061029860405192828493845283019061219e565b9091503d806000833e6120b081836121f4565b8101908281830312610160578051906001600160401b038211610160570181601f820112156101605780516120e481612215565b926120f260405194856121f4565b8184528482840101116101605761210e9184808501910161217b565b9038612088565b60405162461bcd60e51b81528087018690526024808201527f496e76616c696420746f6b656e20494420666f72206d65746164617461206d6f60448201526364756c6560e01b6064820152608490fd5b600435906001600160a01b038216820361016057565b60005b83811061218e5750506000910152565b818101518382015260200161217e565b906020916121b78151809281855285808601910161217b565b601f01601f1916010190565b60c081019081106001600160401b038211176121de57604052565b634e487b7160e01b600052604160045260246000fd5b90601f801991011681019081106001600160401b038211176121de57604052565b6001600160401b0381116121de57601f01601f191660200190565b81601f820112156101605780359061224782612215565b9261225560405194856121f4565b8284526020838301011161016057816000926020809301838601378301015290565b9060031960408184011261016057600480356001600160a01b03811681036101605793602435916001600160401b03938484116101605760c090848403011261016057604051936122c7856121c3565b838201358181116101605783836122e092870101612230565b855260248401358181116101605783836122fc92870101612230565b6020860152604484013581811161016057838361231b92870101612230565b6040860152606484013581811161016057838361233a92870101612230565b6060860152608484013581811161016057838361235992870101612230565b608086015260a484013590811161016057612375930101612230565b60a082015290565b6123fb9160a06123ea6123d86123c66123b46123a2875160c0885260c088019061219e565b6020880151878203602089015261219e565b6040870151868203604088015261219e565b6060860151858203606087015261219e565b6080850151848203608086015261219e565b9201519060a081840391015261219e565b90565b6000546001600160a01b0316330361241257565b60405163118cdaa760e01b8152336004820152602490fd5b60405190612437826121c3565b8160a060609182815282602082015282604082015282808201528260808201520152565b9081602091031261016057516001600160a01b03811681036101605790565b90600182811c921680156124aa575b602083101461249457565b634e487b7160e01b600052602260045260246000fd5b91607f1691612489565b8181106124bf575050565b600081556001016124b4565b9190601f81116124da57505050565b612506926000526020600020906020601f840160051c83019310612508575b601f0160051c01906124b4565b565b90915081906124f9565b80515115159081612548575b81612539575b8161252d575090565b60a09150015151151590565b60808101515115159150612524565b6040810151511515915061251e565b1561255e57565b60405162461bcd60e51b815260206004820152603760248201527f496e76616c6964206d657461646174613a20416c6c207265717569726564206660448201527f69656c6473206d757374206265206e6f6e2d656d7074790000000000000000006064820152608490fd5b90816020910312610160575180151581036101605790565b908082146126b5576125f3815461247a565b906001600160401b0382116121de5781906126128261072a865461247a565b600090601f83116001146126495760009261263e575b50508160011b916000199060031b1c1916179055565b015490503880612628565b81526020808220858352818320935090601f1985169083905b82821061269c575050908460019594939210612683575b505050811b019055565b015460001960f88460031b161c19169055388080612679565b8495819295850154815560018091019601940190612662565b5050565b6126c3815461247a565b90816126cd575050565b81601f600093116001146126df575055565b9080839182526126fe601f60208420940160051c8401600185016124b4565b5555565b600561250691612711816126b9565b61271d600182016126b9565b612729600282016126b9565b612735600382016126b9565b612741600482016126b9565b016126b9565b90600092918054916127588361247a565b9182825260019384811690816000146127ba575060011461277a575b50505050565b90919394506000526020928360002092846000945b8386106127a6575050505001019038808080612774565b80548587018301529401938590820161278f565b9294505050602093945060ff191683830152151560051b01019038808080612774565b919082018092116127ea57565b634e487b7160e01b600052601160045260246000fd5b3d1561282b573d9061281182612215565b9161281f60405193846121f4565b82523d6000602084013e565b606090565b60025460408051630bb7503160e01b815260049290916020916001600160a01b0390811683858781845afa948515612a1f57908691600096612c20575b5084908451928380926316eddecb60e01b82525afa908115612a1f57600091612c03575b508415612bc05715612ab0576002548251631241509d60e21b815290821684828881845afa918215612a71578792918691600093612a7c575b5085516309da4e5160e01b815293849182905afa918215612a71579185918493600092612a2a575b5060249086519485938492637c70c0a360e01b84528c840152165afa908115612a1f57600091612a02575b50169384156129b55781516323b872dd60e01b84820152336024820152306044820152606480820186905281529060a08201906001600160401b03821183831017610a1b57508291612993917f785bfd9070b1fa5b19bfa2ac4637328df950f5e0adafe5873360de4e23b6d8a095945286612c52565b8460005260068252806000206129aa8582546127dd565b9055519283523392a3565b82608492519162461bcd60e51b8352820152602360248201527f4e6f2077686974656c697374656420737461626c65636f696e20617661696c61604482015262626c6560e81b6064820152fd5b612a199150843d86116105bb576105ad81836121f4565b3861291d565b83513d6000823e3d90fd5b838193949295503d8311612a6a575b612a4381836121f4565b81010312612a665751908382168203612a635750829185919060246128f2565b80fd5b5080fd5b503d612a39565b84513d6000823e3d90fd5b828194939295503d8311612aa9575b612a9581836121f4565b81010312612a6357505186918590386128ca565b503d612a8b565b5093929091803410612b7e57600080526006835284600020612ad33482546127dd565b9055803411612b0e575b50507f785bfd9070b1fa5b19bfa2ac4637328df950f5e0adafe5873360de4e23b6d8a06000929351913483523392a3565b3403348111612b6957600080808093335af1612b28612800565b5015612b345780612add565b60649184519162461bcd60e51b83528201526011602482015270115512081c99599d5b990819985a5b1959607a1b6044820152fd5b601182634e487b7160e01b6000525260246000fd5b5060649184519162461bcd60e51b8352820152601860248201527f496e636f7272656374204554482066656520616d6f756e7400000000000000006044820152fd5b505090915034612bcf57505050565b5162461bcd60e51b815291820152601060248201526f119959481b9bdd081c995c5d5a5c995960821b604482015260649150fd5b612c1a9150843d86116113b1576113a381836121f4565b38612891565b9150948482813d8311612c4b575b612c3881836121f4565b81010312612a635750519385908461286d565b503d612c2e565b600080612c7b9260018060a01b03169360208151910182865af1612c74612800565b9083612cc4565b8051908115159182612ca9575b5050612c915750565b60249060405190635274afe760e01b82526004820152fd5b612cbc92506020809183010191016125c9565b153880612c88565b90612ceb5750805115612cd957805190602001fd5b604051630a12f52160e11b8152600490fd5b81511580612d1e575b612cfc575090565b604051639996b31560e01b81526001600160a01b039091166004820152602490fd5b50803b15612cf456fea2646970667358221220372c19346672bb8667274946b3c8c4eeb41d79b0d3aa8f41eb5c905a36f7dd9864736f6c63430008140033",
  "linkReferences": {},
  "deployedLinkReferences": {}
}