{
  "_format": "hh-sol-artifact-1",
  "contractName": "MetadataModule",
  "sourceName": "contracts/protocol/NonUpgradable/MetadataModule.sol",
  "abi": [
    {
      "inputs": [],
      "stateMutability": "nonpayable",
      "type": "constructor"
    },
    {
      "inputs": [
        {
          "internalType": "address",
          "name": "target",
          "type": "address"
        }
      ],
      "name": "AddressEmptyCode",
      "type": "error"
    },
    {
      "inputs": [
        {
          "internalType": "address",
          "name": "account",
          "type": "address"
        }
      ],
      "name": "AddressInsufficientBalance",
      "type": "error"
    },
    {
      "inputs": [],
      "name": "FailedInnerCall",
      "type": "error"
    },
    {
      "inputs": [
        {
          "internalType": "address",
          "name": "owner",
          "type": "address"
        }
      ],
      "name": "OwnableInvalidOwner",
      "type": "error"
    },
    {
      "inputs": [
        {
          "internalType": "address",
          "name": "account",
          "type": "address"
        }
      ],
      "name": "OwnableUnauthorizedAccount",
      "type": "error"
    },
    {
      "inputs": [],
      "name": "ReentrancyGuardReentrantCall",
      "type": "error"
    },
    {
      "inputs": [
        {
          "internalType": "address",
          "name": "token",
          "type": "address"
        }
      ],
      "name": "SafeERC20FailedOperation",
      "type": "error"
    },
    {
      "anonymous": false,
      "inputs": [
        {
          "indexed": true,
          "internalType": "address",
          "name": "token",
          "type": "address"
        },
        {
          "indexed": true,
          "internalType": "address",
          "name": "recipient",
          "type": "address"
        },
        {
          "indexed": false,
          "internalType": "uint256",
          "name": "amount",
          "type": "uint256"
        }
      ],
      "name": "FeesWithdrawn",
      "type": "event"
    },
    {
      "anonymous": false,
      "inputs": [
        {
          "indexed": true,
          "internalType": "address",
          "name": "wrappedSong",
          "type": "address"
        },
        {
          "components": [
            {
              "internalType": "string",
              "name": "name",
              "type": "string"
            },
            {
              "internalType": "string",
              "name": "description",
              "type": "string"
            },
            {
              "internalType": "string",
              "name": "image",
              "type": "string"
            },
            {
              "internalType": "string",
              "name": "externalUrl",
              "type": "string"
            },
            {
              "internalType": "string",
              "name": "animationUrl",
              "type": "string"
            },
            {
              "internalType": "string",
              "name": "attributesIpfsHash",
              "type": "string"
            }
          ],
          "indexed": false,
          "internalType": "struct IMetadataModule.Metadata",
          "name": "newMetadata",
          "type": "tuple"
        }
      ],
      "name": "MetadataCreated",
      "type": "event"
    },
    {
      "anonymous": false,
      "inputs": [
        {
          "indexed": true,
          "internalType": "address",
          "name": "wrappedSong",
          "type": "address"
        }
      ],
      "name": "MetadataRemoved",
      "type": "event"
    },
    {
      "anonymous": false,
      "inputs": [
        {
          "indexed": true,
          "internalType": "address",
          "name": "wrappedSong",
          "type": "address"
        }
      ],
      "name": "MetadataUpdateRejected",
      "type": "event"
    },
    {
      "anonymous": false,
      "inputs": [
        {
          "indexed": true,
          "internalType": "address",
          "name": "wrappedSong",
          "type": "address"
        },
        {
          "components": [
            {
              "internalType": "string",
              "name": "name",
              "type": "string"
            },
            {
              "internalType": "string",
              "name": "description",
              "type": "string"
            },
            {
              "internalType": "string",
              "name": "image",
              "type": "string"
            },
            {
              "internalType": "string",
              "name": "externalUrl",
              "type": "string"
            },
            {
              "internalType": "string",
              "name": "animationUrl",
              "type": "string"
            },
            {
              "internalType": "string",
              "name": "attributesIpfsHash",
              "type": "string"
            }
          ],
          "indexed": false,
          "internalType": "struct IMetadataModule.Metadata",
          "name": "newMetadata",
          "type": "tuple"
        }
      ],
      "name": "MetadataUpdateRequested",
      "type": "event"
    },
    {
      "anonymous": false,
      "inputs": [
        {
          "indexed": true,
          "internalType": "address",
          "name": "wrappedSong",
          "type": "address"
        },
        {
          "components": [
            {
              "internalType": "string",
              "name": "name",
              "type": "string"
            },
            {
              "internalType": "string",
              "name": "description",
              "type": "string"
            },
            {
              "internalType": "string",
              "name": "image",
              "type": "string"
            },
            {
              "internalType": "string",
              "name": "externalUrl",
              "type": "string"
            },
            {
              "internalType": "string",
              "name": "animationUrl",
              "type": "string"
            },
            {
              "internalType": "string",
              "name": "attributesIpfsHash",
              "type": "string"
            }
          ],
          "indexed": false,
          "internalType": "struct IMetadataModule.Metadata",
          "name": "newMetadata",
          "type": "tuple"
        }
      ],
      "name": "MetadataUpdated",
      "type": "event"
    },
    {
      "anonymous": false,
      "inputs": [
        {
          "indexed": true,
          "internalType": "address",
          "name": "previousOwner",
          "type": "address"
        },
        {
          "indexed": true,
          "internalType": "address",
          "name": "newOwner",
          "type": "address"
        }
      ],
      "name": "OwnershipTransferred",
      "type": "event"
    },
    {
      "anonymous": false,
      "inputs": [
        {
          "indexed": true,
          "internalType": "address",
          "name": "wrappedSong",
          "type": "address"
        },
        {
          "indexed": true,
          "internalType": "address",
          "name": "token",
          "type": "address"
        },
        {
          "indexed": false,
          "internalType": "uint256",
          "name": "amount",
          "type": "uint256"
        }
      ],
      "name": "UpdateFeeCollected",
      "type": "event"
    },
    {
      "inputs": [
        {
          "internalType": "address",
          "name": "wrappedSong",
          "type": "address"
        }
      ],
      "name": "confirmUpdateMetadata",
      "outputs": [],
      "stateMutability": "payable",
      "type": "function"
    },
    {
      "inputs": [
        {
          "internalType": "address",
          "name": "wrappedSong",
          "type": "address"
        },
        {
          "components": [
            {
              "internalType": "string",
              "name": "name",
              "type": "string"
            },
            {
              "internalType": "string",
              "name": "description",
              "type": "string"
            },
            {
              "internalType": "string",
              "name": "image",
              "type": "string"
            },
            {
              "internalType": "string",
              "name": "externalUrl",
              "type": "string"
            },
            {
              "internalType": "string",
              "name": "animationUrl",
              "type": "string"
            },
            {
              "internalType": "string",
              "name": "attributesIpfsHash",
              "type": "string"
            }
          ],
          "internalType": "struct IMetadataModule.Metadata",
          "name": "newMetadata",
          "type": "tuple"
        }
      ],
      "name": "createMetadata",
      "outputs": [
        {
          "components": [
            {
              "internalType": "string",
              "name": "name",
              "type": "string"
            },
            {
              "internalType": "string",
              "name": "description",
              "type": "string"
            },
            {
              "internalType": "string",
              "name": "image",
              "type": "string"
            },
            {
              "internalType": "string",
              "name": "externalUrl",
              "type": "string"
            },
            {
              "internalType": "string",
              "name": "animationUrl",
              "type": "string"
            },
            {
              "internalType": "string",
              "name": "attributesIpfsHash",
              "type": "string"
            }
          ],
          "internalType": "struct IMetadataModule.Metadata",
          "name": "",
          "type": "tuple"
        }
      ],
      "stateMutability": "nonpayable",
      "type": "function"
    },
    {
      "inputs": [
        {
          "internalType": "address",
          "name": "wrappedSong",
          "type": "address"
        }
      ],
      "name": "getPendingMetadataUpdate",
      "outputs": [
        {
          "components": [
            {
              "internalType": "string",
              "name": "name",
              "type": "string"
            },
            {
              "internalType": "string",
              "name": "description",
              "type": "string"
            },
            {
              "internalType": "string",
              "name": "image",
              "type": "string"
            },
            {
              "internalType": "string",
              "name": "externalUrl",
              "type": "string"
            },
            {
              "internalType": "string",
              "name": "animationUrl",
              "type": "string"
            },
            {
              "internalType": "string",
              "name": "attributesIpfsHash",
              "type": "string"
            }
          ],
          "internalType": "struct IMetadataModule.Metadata",
          "name": "",
          "type": "tuple"
        }
      ],
      "stateMutability": "view",
      "type": "function"
    },
    {
      "inputs": [
        {
          "internalType": "address",
          "name": "wrappedSong",
          "type": "address"
        },
        {
          "internalType": "uint256",
          "name": "tokenId",
          "type": "uint256"
        }
      ],
      "name": "getTokenURI",
      "outputs": [
        {
          "internalType": "string",
          "name": "",
          "type": "string"
        }
      ],
      "stateMutability": "view",
      "type": "function"
    },
    {
      "inputs": [
        {
          "internalType": "address",
          "name": "wrappedSong",
          "type": "address"
        }
      ],
      "name": "isMetadataUpdateConfirmed",
      "outputs": [
        {
          "internalType": "bool",
          "name": "",
          "type": "bool"
        }
      ],
      "stateMutability": "view",
      "type": "function"
    },
    {
      "inputs": [],
      "name": "owner",
      "outputs": [
        {
          "internalType": "address",
          "name": "",
          "type": "address"
        }
      ],
      "stateMutability": "view",
      "type": "function"
    },
    {
      "inputs": [],
      "name": "protocolModule",
      "outputs": [
        {
          "internalType": "contract IProtocolModule",
          "name": "",
          "type": "address"
        }
      ],
      "stateMutability": "view",
      "type": "function"
    },
    {
      "inputs": [
        {
          "internalType": "address",
          "name": "wrappedSong",
          "type": "address"
        }
      ],
      "name": "rejectUpdateMetadata",
      "outputs": [],
      "stateMutability": "nonpayable",
      "type": "function"
    },
    {
      "inputs": [
        {
          "internalType": "address",
          "name": "wrappedSong",
          "type": "address"
        }
      ],
      "name": "removeMetadata",
      "outputs": [],
      "stateMutability": "nonpayable",
      "type": "function"
    },
    {
      "inputs": [],
      "name": "renounceOwnership",
      "outputs": [],
      "stateMutability": "nonpayable",
      "type": "function"
    },
    {
      "inputs": [
        {
          "internalType": "address",
          "name": "wrappedSong",
          "type": "address"
        },
        {
          "components": [
            {
              "internalType": "string",
              "name": "name",
              "type": "string"
            },
            {
              "internalType": "string",
              "name": "description",
              "type": "string"
            },
            {
              "internalType": "string",
              "name": "image",
              "type": "string"
            },
            {
              "internalType": "string",
              "name": "externalUrl",
              "type": "string"
            },
            {
              "internalType": "string",
              "name": "animationUrl",
              "type": "string"
            },
            {
              "internalType": "string",
              "name": "attributesIpfsHash",
              "type": "string"
            }
          ],
          "internalType": "struct IMetadataModule.Metadata",
          "name": "newMetadata",
          "type": "tuple"
        }
      ],
      "name": "requestUpdateMetadata",
      "outputs": [],
      "stateMutability": "nonpayable",
      "type": "function"
    },
    {
      "inputs": [
        {
          "internalType": "address",
          "name": "_protocolModule",
          "type": "address"
        }
      ],
      "name": "setProtocolModule",
      "outputs": [],
      "stateMutability": "nonpayable",
      "type": "function"
    },
    {
      "inputs": [
        {
          "internalType": "address",
          "name": "newOwner",
          "type": "address"
        }
      ],
      "name": "transferOwnership",
      "outputs": [],
      "stateMutability": "nonpayable",
      "type": "function"
    },
    {
      "inputs": [
        {
          "internalType": "address",
          "name": "wrappedSong",
          "type": "address"
        },
        {
          "components": [
            {
              "internalType": "string",
              "name": "name",
              "type": "string"
            },
            {
              "internalType": "string",
              "name": "description",
              "type": "string"
            },
            {
              "internalType": "string",
              "name": "image",
              "type": "string"
            },
            {
              "internalType": "string",
              "name": "externalUrl",
              "type": "string"
            },
            {
              "internalType": "string",
              "name": "animationUrl",
              "type": "string"
            },
            {
              "internalType": "string",
              "name": "attributesIpfsHash",
              "type": "string"
            }
          ],
          "internalType": "struct IMetadataModule.Metadata",
          "name": "newMetadata",
          "type": "tuple"
        }
      ],
      "name": "updateMetadata",
      "outputs": [],
      "stateMutability": "payable",
      "type": "function"
    },
    {
      "inputs": [
        {
          "internalType": "address",
          "name": "token",
          "type": "address"
        },
        {
          "internalType": "address",
          "name": "recipient",
          "type": "address"
        }
      ],
      "name": "withdrawAccumulatedFees",
      "outputs": [],
      "stateMutability": "nonpayable",
      "type": "function"
    },
    {
      "stateMutability": "payable",
      "type": "receive"
    }
  ],
  "bytecode": "0x6080806040523461007e5733156100685760008054336001600160a01b03198216811783556040519290916001600160a01b0316907f8be0079c531659141344cd1fd0a4f28419497f9722a3daafe3b4186f6b6457e09080a360018055612d8390816100848239f35b631e4fbdf760e01b815260006004820152602490fd5b600080fdfe60e08060405260049081361015610020575b5050361561001e57600080fd5b005b600060c05260c0513560e01c9081630b63fd62146123c257508063187de53b146120f7578063376c1f0714611f3b5780634b7006291461151a5780635c42e667146114f05780635dc447ed14610df35780636613680d146106ac578063715018a61461064d5780638da5cb5b146106225780639205fafe14610495578063a859dcde146103ff578063a9edb0f5146102b2578063da67603e146101b8578063dac73c99146101775763f2fde38b146100d85780610011565b34610171576020366003190112610171576100f16125cb565b6100f9612869565b6001600160a01b03908116918215610157575060c05154826bffffffffffffffffffffffff60a01b82161760c05155167f8be0079c531659141344cd1fd0a4f28419497f9722a3daafe3b4186f6b6457e060c05160c051a360c05180f35b60249060405190631e4fbdf760e01b825260c05190820152fd5b60c05180fd5b34610171576020366003190112610171576001600160a01b036101986125cb565b1660c051526005602052602060ff604060c0512054166040519015158152f35b5034610171576020366003190112610171576102ae906101d66125cb565b6101de612895565b5060018060a01b031660c05152806020526005610295604060c0512061021e6102806040519561020d8761262e565b6040516102258161021e8188612bb2565b038261265f565b875260405161023b8161021e8160018901612bb2565b60208801526040516102548161021e8160028901612bb2565b604088015260405161026d8161021e8160038901612bb2565b6060880152604051928380928601612bb2565b608085015261021e6040518094819301612bb2565b60a08201526040519182916020835260208301906127e8565b0390f35b503461017157602080600319360112610171576001600160a01b036102d56125cb565b16913383036103af578260c05152600382526102f6604060c05120546128e5565b1561036d57906005918360c0515260038252610316604060c05120612b6d565b8360c05152815261032b604060c05120612b6d565b8260c0515252604060c0512060ff1981541690557f850e5df914b57ac32b9b4cfb02944f8e955f9991d54ae5ccac3936a7b205cace60c05160c051a260c05180f35b6064916040519162461bcd60e51b8352820152601760248201527f4d6574616461746120646f6573206e6f742065786973740000000000000000006044820152fd5b6084916040519162461bcd60e51b8352820152602560248201527f4f6e6c79207772617070656420736f6e672063616e2072656d6f7665206d6574604482015264616461746160d81b6064820152fd5b5034610171576020366003190112610171576104196125cb565b610421612869565b6001600160a01b03169081156104515750600280546001600160a81b031916909117600160a01b17905560c05180f35b60649060206040519162461bcd60e51b8352820152601f60248201527f496e76616c69642070726f746f636f6c206d6f64756c652061646472657373006044820152fd5b503461017157602080600319360112610171576104b06125cb565b600254604051633aa690e760e01b81526001600160a01b0392831681860181905294929184908290602490829086165afa9081156105f8578291859160c05191610605575b508460405180948193638da5cb5b60e01b8352165afa9081156105f85760c051916105cb575b5016330361057e57906005918360c05152815261053c604060c05120612b6d565b8260c0515252604060c0512060ff1981541690557f44983a324fa169af1e5f7fc334fe51324c21a0f94c8407867926cb4266b0cb5460c05160c051a260c05180f35b6084916040519162461bcd60e51b8352820152602260248201527f4f6e6c79206469737472696275746f722063616e2072656a6563742075706461604482015261746560f01b6064820152fd5b6105eb9150843d86116105f1575b6105e3818361265f565b8101906128c6565b3861051b565b503d6105d9565b6040513d60c051823e3d90fd5b61061c9150823d84116105f1576105e3818361265f565b386104f5565b346101715760c0513660031901126101715760c051546040516001600160a01b039091168152602090f35b346101715760c05136600319011261017157610667612869565b60c05180546001600160a01b0319811682556001600160a01b03167f8be0079c531659141344cd1fd0a4f28419497f9722a3daafe3b4186f6b6457e08280a360c05180f35b5034610171576106bb366126e2565b906106c4612895565b5060025460405163058dba2f60e11b81526001600160a01b038381168287015294916020908290602490829089165afa80156105f857859160c05191610dd4575b501615610d905783821660c051526003602052610727604060c05120546128e5565b610d4c576107348361297d565b15610d155783821660c051526003602052604060c0512083518051906001600160401b038211610aff5781906107748261076e86546128e5565b86612936565b6020906001601f841114610cac5760c05192610ca1575b50508160011b916000199060031b1c19161781555b6001810160208501518051906001600160401b038211610c8a5781906107ca8261076e86546128e5565b6020906001601f841114610c215760c05192610c16575b50508160011b916000199060031b1c19161790555b60408401518051906001600160401b038211610aff5781906108288261081f60028701546128e5565b60028701612936565b6020906001601f841114610ba15760c05192610b96575b50508160011b916000199060031b1c19161760028201555b60608401518051906001600160401b038211610aff5781906108898261088060038701546128e5565b60038701612936565b6020906001601f841114610b215760c05192610b16575b50508160011b916000199060031b1c19161760038201555b60808401518051906001600160401b038211610aff576108e6826108de868601546128e5565b868601612936565b6020906001601f841114610a8b579180916005949360c05192610a80575b50508160011b916000199060031b1c191617838201555b019060a08401518051916001600160401b038311610a6957506109488261094285546128e5565b85612936565b6020906001601f8411146109d85791807f6e59fb1f315f2f4b281014e9d51ca1387542c6af4109446eaaabadd34b5d5eb394926102ae989460c051926109cd575b50508160011b916000199060031b1c19161790555b60405192602084521691806109b660208201866127e8565b0390a26040519182916020835260208301906127e8565b015190503880610989565b90601f198316918460c05152602060c051209260c0515b818110610a5157509260019285926102ae9a967f6e59fb1f315f2f4b281014e9d51ca1387542c6af4109446eaaabadd34b5d5eb3989610610a38575b505050811b01905561099e565b015160001960f88460031b161c19169055388080610a2b565b929360206001819287860151815501950193016109ef565b604190634e487b7160e01b60c0515252602460c051fd5b015190503880610904565b9084840160c05152602060c051209160c0515b601f1985168110610ae7575091839160019360059695601f19811610610ace575b505050811b018382015561091b565b015160001960f88460031b161c19169055388080610abf565b91926020600181928685015181550194019201610a9e565b604184634e487b7160e01b60c0515252602460c051fd5b0151905038806108a0565b92506003840160c05152602060c051209060c051935b601f1984168510610b7b576001945083601f19811610610b62575b505050811b0160038201556108b8565b015160001960f88460031b161c19169055388080610b52565b81810151835560209485019460019093019290910190610b37565b01519050388061083f565b92506002840160c05152602060c051209060c051935b601f1984168510610bfb576001945083601f19811610610be2575b505050811b016002820155610857565b015160001960f88460031b161c19169055388080610bd2565b81810151835560209485019460019093019290910190610bb7565b0151905038806107e1565b60c0805186905251602081209350601f198516905b818110610c725750908460019594939210610c59575b505050811b0190556107f6565b015160001960f88460031b161c19169055388080610c4c565b92936020600181928786015181550195019301610c36565b604185634e487b7160e01b60c0515252602460c051fd5b01519050388061078b565b60c0805186905251602081209350601f198516905b818110610cfd5750908460019594939210610ce4575b505050811b0181556107a0565b015160001960f88460031b161c19169055388080610cd7565b92936020600181928786015181550195019301610cc1565b60649060206040519162461bcd60e51b8352820152601060248201526f496e76616c6964206d6574616461746160801b6044820152fd5b60649060206040519162461bcd60e51b8352820152601760248201527f4d6574616461746120616c7265616479206578697374730000000000000000006044820152fd5b60649060206040519162461bcd60e51b8352820152601960248201527f41646472657373206e6f7420612070726f746f636f6c205753000000000000006044820152fd5b610ded915060203d6020116105f1576105e3818361265f565b38610705565b50610dfd366126e2565b604051638da5cb5b60e01b81526001600160a01b039283169260209182818781885afa9081156105f85760c051916114d3575b508116331480156114c6575b1561147057819060025416604051918280926306f8718960e31b8252878983015260249485915afa9081156105f85760c05191611443575b506113eb57610e8a610e858461297d565b6129c2565b8360c051526003808352604060c05120908451968751926001600160401b03938481116113d557610ec581610ebf84546128e5565b84612936565b601f998190889060018d84111461136e5760c05192611363575b50508160011b9160001990861b1c19161781555b60016080526080518101868801518051908682116111eb578190610f1b8261076e86546128e5565b899060018e8411146112f85760c051926112ed575b5050816080511b9160001990871b1c19161790555b6002810160408801518051908682116111eb578190610f688261076e86546128e5565b899060018e8411146112825760c05192611277575b5050816080511b9160001990871b1c19161790555b82810160608801518051908682116111eb578190610fb48261076e86546128e5565b899060018e84111461120c5760c05192611201575b5050816080511b9160001990871b1c19161790555b81810160808801518051908682116111eb57610ffe8261094285546128e5565b889060018d84111461117957918091600595949360c0519261116e575b5050816080511b9160001990881b1c19161790555b019360a08701519182519485116111595750506110518361076e86546128e5565b60c05150849783116001146110cb57907f4288f171f419b66095d6e026090ed813669ea5a62cfe4416a47e75549e4788669697839260c051936110c0575b5050826080511b92600019911b1c19161790555b6110b76040519282849384528301906127e8565b0390a260c05180f35b01519150388061108f565b90601f198316978460c051528560c051209260c0515b8a81106111415750847f4288f171f419b66095d6e026090ed813669ea5a62cfe4416a47e75549e478866999a10611127575b50505050608051906080511b0190556110a3565b01519060f884600019921b161c1916905538808080611113565b919387809186840151815560805101950192016110e1565b604190634e487b7160e01b60c051525260c051fd5b01519050388061101b565b90601f198316918460c051528a60c051209260c0515b8c8282106111d457505090846005979695949392106111bc575b505050608051906080511b019055611030565b015160001983891b60f8161c191690553880806111a9565b84958192958501518155608051019501930161118f565b87604186634e487b7160e01b60c051525260c051fd5b015190503880610fc9565b60c08051869052518b812093508490601f198216905b8d82821061125d57505010611245575b505050608051906080511b019055610fde565b015160001983881b60f8161c19169055388080611232565b848601518755608051909601959485019487935001611222565b015190503880610f7d565b60c08051869052518b812093508490601f198216905b8d8282106112d3575050106112bb575b505050608051906080511b019055610f92565b015160001983881b60f8161c191690553880806112a8565b848601518755608051909601959485019487935001611298565b015190503880610f30565b60c08051869052518b812093508490601f198216905b8d82821061134957505010611331575b505050608051906080511b019055610f45565b015160001983881b60f8161c1916905538808061131e565b84860151875560805190960195948501948793500161130e565b015190503880610edf565b60c08051869052518a81209350601f198516905b8b8282106113bf5750509084600195949392106113a7575b505050811b018155610ef3565b015160001983881b60f8161c1916905538808061139a565b6001859682939686015181550195019301611382565b85604184634e487b7160e01b60c051525260c051fd5b602d85916084936040519362461bcd60e51b85528401528201527f43616e6e6f7420757064617465206d65746164617461206469726563746c792060448201526c61667465722072656c6561736560981b6064820152fd5b6114639150833d8511611469575b61145b818361265f565b810190612a34565b38610e74565b503d611451565b60405162461bcd60e51b8152808601839052602960248201527f4f6e6c79207772617070656420736f6e67206f7220697473206f776e65722063604482015268616e2075706461746560b81b6064820152608490fd5b5080600254163314610e3c565b6114ea9150833d85116105f1576105e3818361265f565b38610e30565b346101715760c051366003190112610171576002546040516001600160a01b039091168152602090f35b503461017157611529366126e2565b611535610e858261297d565b604051638da5cb5b60e01b81526001600160a01b039283169260209182818781885afa9081156105f85760c05191611f1e575b508133911603611ec7578060025416604051916306f8718960e31b8352858784015260249284818581865afa9081156105f85760c05191611eaa575b5015611e5357604051630bb7503160e01b81529184838981845afa9283156105f85760c05193611e24575b506040516316eddecb60e01b815285818a81855afa9081156105f85760c05191611e07575b50831580159190611dfd5715611d755750604051631241509d60e21b81529085828a81845afa9182156105f8578991879160c05194611d43575b506040516309da4e5160e01b815292839182905afa9182156105f857869160c05193611d09575b50858a856040519586948593637c70c0a360e01b8552840152165afa9081156105f85760c05191611cec575b5016908115611c9d576040516323b872dd60e01b8582015233848201523060448201526064808201839052815260a081016001600160401b03811182821017611c89576040526116d19083612c78565b8160c0515260068452604060c05120805490828201809211611c7557556040519081527f785bfd9070b1fa5b19bfa2ac4637328df950f5e0adafe5873360de4e23b6d8a0843392a35b8360c05152848252604060c05120948351958651916001600160401b0392838111611c5f5761174d8161094285546128e5565b601f988190879060018c841114611bf75760c05192611bec575b50508160011b916000199060031b1c19161782555b600160a05260a051820185870151805190858211611b5f5781906117a48261076e86546128e5565b889060018d841114611b805760c05192611b75575b50508160a0511b916000199060031b1c19161790555b600282016040870151805190858211611b5f5781906117f28261076e86546128e5565b889060018d841114611af35760c05192611ae8575b50508160a0511b916000199060031b1c19161790555b60039182810160608801518051908682116111eb5781906118428261076e86546128e5565b899060018e841114611a7d5760c05192611a72575b50508160a0511b9160001990871b1c19161790555b81810160808801518051908682116111eb5761188c8261094285546128e5565b889060018d841114611a0057918091600595949360c051926119f5575b50508160a0511b9160001990881b1c19161790555b019360a08701519182519485116111595750506118df8361076e86546128e5565b60c051508497831160011461196757907fcfa38ad22e928cede6a19793c7da9bad051ddd68eaabfc0a35500e381a60cb399697839260c0519361195c575b50508260a0511b92600019911b1c19161790555b8360c0515260058152604060c0512060ff1981541690556110b76040519282849384528301906127e8565b01519150388061191d565b90601f198316978460c051528560c051209260c0515b8a81106119dd5750847fcfa38ad22e928cede6a19793c7da9bad051ddd68eaabfc0a35500e381a60cb39999a106119c3575b5050505060a0519060a0511b019055611931565b01519060f884600019921b161c19169055388080806119af565b919387809186840151815560a051019501920161197d565b0151905038806118a9565b90601f198316918460c051528a60c051209260c0515b8c828210611a5b5750509084600597969594939210611a43575b50505060a0519060a0511b0190556118be565b015160001983891b60f8161c19169055388080611a30565b8495819295850151815560a0510195019301611a16565b015190503880611857565b60c08051869052518b812093508490601f198216905b8d828210611ace57505010611ab6575b50505060a0519060a0511b01905561186c565b015160001983881b60f8161c19169055388080611aa3565b84860151875560a051909601959485019487935001611a93565b015190503880611807565b60c08051869052518a812093508490601f198216905b8c828210611b4557505010611b2c575b50505060a0519060a0511b01905561181d565b015160001960f88460031b161c19169055388080611b19565b84860151875560a051909601959485019487935001611b09565b86604185634e487b7160e01b60c051525260c051fd5b0151905038806117b9565b60c08051869052518a812093508490601f198216905b8c828210611bd257505010611bb9575b50505060a0519060a0511b0190556117cf565b015160001960f88460031b161c19169055388080611ba6565b84860151875560a051909601959485019487935001611b96565b015190503880611767565b60c08051879052518981209350601f198516905b8a828210611c49575050908460019594939210611c30575b505050811b01825561177c565b015160001960f88460031b161c19169055388080611c23565b6001859682939686015181550195019301611c0b565b84604183634e487b7160e01b60c051525260c051fd5b8460118a634e487b7160e01b600052526000fd5b8460418a634e487b7160e01b600052526000fd5b60405162461bcd60e51b81528088018590526023818501527f4e6f2077686974656c697374656420737461626c65636f696e20617661696c61604482015262626c6560e81b6064820152608490fd5b611d039150853d87116105f1576105e3818361265f565b38611681565b8281939294503d8311611d3c575b611d21818361265f565b81010312610171575182811681036101715785909138611655565b503d611d17565b9250925081813d8311611d6e575b611d5b818361265f565b810103126101715785899151923861162e565b503d611d51565b92505050611dbb5760c05180526006825260405160008082529033907f785bfd9070b1fa5b19bfa2ac4637328df950f5e0adafe5873360de4e23b6d8a0908590a361171a565b601885916064936040519362461bcd60e51b85528401528201527f496e636f7272656374204554482066656520616d6f756e7400000000000000006044820152fd5b505050505061171a565b611e1e9150863d88116114695761145b818361265f565b386115f4565b9092508481813d8311611e4c575b611e3c818361265f565b81010312610171575191386115cf565b503d611e32565b60405162461bcd60e51b8152808801859052602b818501527f536f6e67206e6f742072656c65617365642c20757064617465206d657461646160448201526a7461206469726563746c7960a81b6064820152608490fd5b611ec19150853d87116114695761145b818361265f565b386115a4565b60405162461bcd60e51b8152808601839052602a60248201527f4f6e6c79207772617070656420736f6e67206f776e65722063616e20726571756044820152696573742075706461746560b01b6064820152608490fd5b611f359150833d85116105f1576105e3818361265f565b38611568565b503461017157604036600319011261017157611f556125cb565b6001600160a01b0360243581811693929084900361017157611f75612869565b6002600154146120e657600260015516908160c0515260209060068252604060c05120549081156120ac5760c08051859052600684525160408120558361203e5760c05180808085895af1611fc8612c48565b50156120045750907f5e110f8bc8a20b65dcc87f224bdf1cc039346e267118bae2739847f07321ffa8915b604051908152a36001805560c05180f35b60405162461bcd60e51b81529081018390526013602482015272115512081d1c985b9cd9995c8819985a5b1959606a1b6044820152606490fd5b6040519063a9059cbb60e01b848301528560248301528260448301526044825260808201908282106001600160401b03831117610a6957507f5e110f8bc8a20b65dcc87f224bdf1cc039346e267118bae2739847f07321ffa89392916120a79160405285612c78565b611ff3565b60405162461bcd60e51b815290810183905260136024820152724e6f206665657320746f20776974686472617760681b6044820152606490fd5b604051633ee5aeb560e01b81528390fd5b506020806003193601126101715761210d6125cb565b600254604051633aa690e760e01b81526001600160a01b0392831681860181905294929184908290602490829086165afa9081156105f8578291859160c051916123a5575b508460405180948193638da5cb5b60e01b8352165afa9081156105f85760c05191612388575b5016330361233a578260c051526005825260ff604060c0512054166122f8577f4288f171f419b66095d6e026090ed813669ea5a62cfe4416a47e75549e478866916110b760c09285845152808352604084512060038452604085512081810361229a575b5050858451528083526121f26040855120612b6d565b85845152600583526040845120600160ff19825416179055600383526005604085512060405195858796875286015261228a61223160e0870183612bb2565b93612278612265612252601f1997888b82030160408c015260018701612bb2565b878a82030160608b015260028601612bb2565b868982030160808a015260038501612bb2565b90858883030160a08901528301612bb2565b928584030160c086015201612bb2565b600580836122ab6122f19585612a4c565b6122bb6001820160018601612a4c565b6122cb6002820160028601612a4c565b6122db6003820160038601612a4c565b6122e9868201878601612a4c565b019101612a4c565b38806121dc565b6064916040519162461bcd60e51b8352820152601a60248201527f4e6f2070656e64696e67206d65746164617461207570646174650000000000006044820152fd5b6084916040519162461bcd60e51b8352820152602360248201527f4f6e6c79206469737472696275746f722063616e20636f6e6669726d2075706460448201526261746560e81b6064820152fd5b61239f9150843d86116105f1576105e3818361265f565b38612178565b6123bc9150823d84116105f1576105e3818361265f565b38612152565b905034610171576040366003190112610171576123dd6125cb565b916024359060018060a01b03809416928360c05152602093600385526005612492604060c0512061240d8561262e565b60405161241e8161021e8185612bb2565b85526040516124348161021e8160018601612bb2565b8886015260405161244c8161021e8160028601612bb2565b60408601526040516124658161021e8160038601612bb2565b606086015260405161247d8161021e818a8601612bb2565b608086015261021e6040518094819301612bb2565b60a0830152600384101561257b576124c86060966002541692604051978895632fda23b760e01b875286015260648501906127e8565b9360248401526044830152818060c0519403915afa9182156105f85760c05192612502575b506102ae604051928284938452830190612609565b9091503d8060c051833e612516818361265f565b8101908281830312610171578051906001600160401b038211610171570181601f8201121561017157805161254a81612680565b92612558604051948561265f565b81845284828401011161017157612574918480850191016125e6565b90386124ed565b60405162461bcd60e51b81528084018690526024808201527f496e76616c696420746f6b656e20494420666f72206d65746164617461206d6f60448201526364756c6560e01b6064820152608490fd5b600435906001600160a01b03821682036125e157565b600080fd5b60005b8381106125f95750506000910152565b81810151838201526020016125e9565b90602091612622815180928185528580860191016125e6565b601f01601f1916010190565b60c081019081106001600160401b0382111761264957604052565b634e487b7160e01b600052604160045260246000fd5b90601f801991011681019081106001600160401b0382111761264957604052565b6001600160401b03811161264957601f01601f191660200190565b81601f820112156125e1578035906126b282612680565b926126c0604051948561265f565b828452602083830101116125e157816000926020809301838601378301015290565b906003196040818401126125e157600480356001600160a01b03811681036125e15793602435916001600160401b03938484116125e15760c09084840301126125e157604051936127328561262e565b838201358181116125e157838361274b9287010161269b565b855260248401358181116125e15783836127679287010161269b565b602086015260448401358181116125e15783836127869287010161269b565b604086015260648401358181116125e15783836127a59287010161269b565b606086015260848401358181116125e15783836127c49287010161269b565b608086015260a48401359081116125e1576127e093010161269b565b60a082015290565b6128669160a061285561284361283161281f61280d875160c0885260c0880190612609565b60208801518782036020890152612609565b60408701518682036040880152612609565b60608601518582036060870152612609565b60808501518482036080860152612609565b9201519060a0818403910152612609565b90565b6000546001600160a01b0316330361287d57565b60405163118cdaa760e01b8152336004820152602490fd5b604051906128a28261262e565b8160a060609182815282602082015282604082015282808201528260808201520152565b908160209103126125e157516001600160a01b03811681036125e15790565b90600182811c92168015612915575b60208310146128ff57565b634e487b7160e01b600052602260045260246000fd5b91607f16916128f4565b81811061292a575050565b6000815560010161291f565b9190601f811161294557505050565b612971926000526020600020906020601f840160051c83019310612973575b601f0160051c019061291f565b565b9091508190612964565b805151151590816129b3575b816129a4575b81612998575090565b60a09150015151151590565b6080810151511515915061298f565b60408101515115159150612989565b156129c957565b60405162461bcd60e51b815260206004820152603760248201527f496e76616c6964206d657461646174613a20416c6c207265717569726564206660448201527f69656c6473206d757374206265206e6f6e2d656d7074790000000000000000006064820152608490fd5b908160209103126125e1575180151581036125e15790565b90808214612b2057612a5e81546128e5565b906001600160401b038211612649578190612a7d8261076e86546128e5565b600090601f8311600114612ab457600092612aa9575b50508160011b916000199060031b1c1916179055565b015490503880612a93565b81526020808220858352818320935090601f1985169083905b828210612b07575050908460019594939210612aee575b505050811b019055565b015460001960f88460031b161c19169055388080612ae4565b8495819295850154815560018091019601940190612acd565b5050565b612b2e81546128e5565b9081612b38575050565b81601f60009311600114612b4a575055565b908083918252612b69601f60208420940160051c84016001850161291f565b5555565b600561297191612b7c81612b24565b612b8860018201612b24565b612b9460028201612b24565b612ba060038201612b24565b612bac60048201612b24565b01612b24565b9060009291805491612bc3836128e5565b918282526001938481169081600014612c255750600114612be5575b50505050565b90919394506000526020928360002092846000945b838610612c11575050505001019038808080612bdf565b805485870183015294019385908201612bfa565b9294505050602093945060ff191683830152151560051b01019038808080612bdf565b3d15612c73573d90612c5982612680565b91612c67604051938461265f565b82523d6000602084013e565b606090565b600080612ca19260018060a01b03169360208151910182865af1612c9a612c48565b9083612cea565b8051908115159182612ccf575b5050612cb75750565b60249060405190635274afe760e01b82526004820152fd5b612ce29250602080918301019101612a34565b153880612cae565b90612d115750805115612cff57805190602001fd5b604051630a12f52160e11b8152600490fd5b81511580612d44575b612d22575090565b604051639996b31560e01b81526001600160a01b039091166004820152602490fd5b50803b15612d1a56fea264697066735822122027e300019c3b12b713aea3d31470df191a9680a1bb47702f17dc231f22f2e78464736f6c63430008140033",
  "linkReferences": {},
  "deployedLinkReferences": {}
}