{
  "_format": "hh-sol-artifact-1",
  "contractName": "MetadataModule",
  "sourceName": "contracts/protocol/NonUpgradable/MetadataModule.sol",
  "abi": [
    {
      "inputs": [
        {
          "internalType": "address",
          "name": "_initialOwner",
          "type": "address"
        }
      ],
      "stateMutability": "nonpayable",
      "type": "constructor"
    },
    {
      "inputs": [
        {
          "internalType": "address",
          "name": "target",
          "type": "address"
        }
      ],
      "name": "AddressEmptyCode",
      "type": "error"
    },
    {
      "inputs": [
        {
          "internalType": "address",
          "name": "account",
          "type": "address"
        }
      ],
      "name": "AddressInsufficientBalance",
      "type": "error"
    },
    {
      "inputs": [],
      "name": "FailedInnerCall",
      "type": "error"
    },
    {
      "inputs": [
        {
          "internalType": "address",
          "name": "owner",
          "type": "address"
        }
      ],
      "name": "OwnableInvalidOwner",
      "type": "error"
    },
    {
      "inputs": [
        {
          "internalType": "address",
          "name": "account",
          "type": "address"
        }
      ],
      "name": "OwnableUnauthorizedAccount",
      "type": "error"
    },
    {
      "inputs": [],
      "name": "ReentrancyGuardReentrantCall",
      "type": "error"
    },
    {
      "inputs": [
        {
          "internalType": "address",
          "name": "token",
          "type": "address"
        }
      ],
      "name": "SafeERC20FailedOperation",
      "type": "error"
    },
    {
      "anonymous": false,
      "inputs": [
        {
          "indexed": true,
          "internalType": "address",
          "name": "token",
          "type": "address"
        },
        {
          "indexed": true,
          "internalType": "address",
          "name": "recipient",
          "type": "address"
        },
        {
          "indexed": false,
          "internalType": "uint256",
          "name": "amount",
          "type": "uint256"
        }
      ],
      "name": "FeesWithdrawn",
      "type": "event"
    },
    {
      "anonymous": false,
      "inputs": [
        {
          "indexed": true,
          "internalType": "address",
          "name": "wrappedSong",
          "type": "address"
        },
        {
          "components": [
            {
              "internalType": "string",
              "name": "name",
              "type": "string"
            },
            {
              "internalType": "string",
              "name": "description",
              "type": "string"
            },
            {
              "internalType": "string",
              "name": "image",
              "type": "string"
            },
            {
              "internalType": "string",
              "name": "externalUrl",
              "type": "string"
            },
            {
              "internalType": "string",
              "name": "animationUrl",
              "type": "string"
            },
            {
              "internalType": "string",
              "name": "attributesIpfsHash",
              "type": "string"
            }
          ],
          "indexed": false,
          "internalType": "struct IMetadataModule.Metadata",
          "name": "newMetadata",
          "type": "tuple"
        }
      ],
      "name": "MetadataCreated",
      "type": "event"
    },
    {
      "anonymous": false,
      "inputs": [
        {
          "indexed": true,
          "internalType": "address",
          "name": "wrappedSong",
          "type": "address"
        }
      ],
      "name": "MetadataRemoved",
      "type": "event"
    },
    {
      "anonymous": false,
      "inputs": [
        {
          "indexed": true,
          "internalType": "address",
          "name": "wrappedSong",
          "type": "address"
        }
      ],
      "name": "MetadataUpdateRejected",
      "type": "event"
    },
    {
      "anonymous": false,
      "inputs": [
        {
          "indexed": true,
          "internalType": "address",
          "name": "wrappedSong",
          "type": "address"
        },
        {
          "components": [
            {
              "internalType": "string",
              "name": "name",
              "type": "string"
            },
            {
              "internalType": "string",
              "name": "description",
              "type": "string"
            },
            {
              "internalType": "string",
              "name": "image",
              "type": "string"
            },
            {
              "internalType": "string",
              "name": "externalUrl",
              "type": "string"
            },
            {
              "internalType": "string",
              "name": "animationUrl",
              "type": "string"
            },
            {
              "internalType": "string",
              "name": "attributesIpfsHash",
              "type": "string"
            }
          ],
          "indexed": false,
          "internalType": "struct IMetadataModule.Metadata",
          "name": "newMetadata",
          "type": "tuple"
        }
      ],
      "name": "MetadataUpdateRequested",
      "type": "event"
    },
    {
      "anonymous": false,
      "inputs": [
        {
          "indexed": true,
          "internalType": "address",
          "name": "wrappedSong",
          "type": "address"
        },
        {
          "components": [
            {
              "internalType": "string",
              "name": "name",
              "type": "string"
            },
            {
              "internalType": "string",
              "name": "description",
              "type": "string"
            },
            {
              "internalType": "string",
              "name": "image",
              "type": "string"
            },
            {
              "internalType": "string",
              "name": "externalUrl",
              "type": "string"
            },
            {
              "internalType": "string",
              "name": "animationUrl",
              "type": "string"
            },
            {
              "internalType": "string",
              "name": "attributesIpfsHash",
              "type": "string"
            }
          ],
          "indexed": false,
          "internalType": "struct IMetadataModule.Metadata",
          "name": "newMetadata",
          "type": "tuple"
        }
      ],
      "name": "MetadataUpdated",
      "type": "event"
    },
    {
      "anonymous": false,
      "inputs": [
        {
          "indexed": true,
          "internalType": "address",
          "name": "previousOwner",
          "type": "address"
        },
        {
          "indexed": true,
          "internalType": "address",
          "name": "newOwner",
          "type": "address"
        }
      ],
      "name": "OwnershipTransferred",
      "type": "event"
    },
    {
      "anonymous": false,
      "inputs": [
        {
          "indexed": true,
          "internalType": "address",
          "name": "wrappedSong",
          "type": "address"
        },
        {
          "indexed": true,
          "internalType": "address",
          "name": "token",
          "type": "address"
        },
        {
          "indexed": false,
          "internalType": "uint256",
          "name": "amount",
          "type": "uint256"
        }
      ],
      "name": "UpdateFeeCollected",
      "type": "event"
    },
    {
      "inputs": [
        {
          "internalType": "address",
          "name": "wrappedSong",
          "type": "address"
        }
      ],
      "name": "confirmUpdateMetadata",
      "outputs": [],
      "stateMutability": "payable",
      "type": "function"
    },
    {
      "inputs": [
        {
          "internalType": "address",
          "name": "wrappedSong",
          "type": "address"
        },
        {
          "components": [
            {
              "internalType": "string",
              "name": "name",
              "type": "string"
            },
            {
              "internalType": "string",
              "name": "description",
              "type": "string"
            },
            {
              "internalType": "string",
              "name": "image",
              "type": "string"
            },
            {
              "internalType": "string",
              "name": "externalUrl",
              "type": "string"
            },
            {
              "internalType": "string",
              "name": "animationUrl",
              "type": "string"
            },
            {
              "internalType": "string",
              "name": "attributesIpfsHash",
              "type": "string"
            }
          ],
          "internalType": "struct IMetadataModule.Metadata",
          "name": "newMetadata",
          "type": "tuple"
        }
      ],
      "name": "createMetadata",
      "outputs": [
        {
          "components": [
            {
              "internalType": "string",
              "name": "name",
              "type": "string"
            },
            {
              "internalType": "string",
              "name": "description",
              "type": "string"
            },
            {
              "internalType": "string",
              "name": "image",
              "type": "string"
            },
            {
              "internalType": "string",
              "name": "externalUrl",
              "type": "string"
            },
            {
              "internalType": "string",
              "name": "animationUrl",
              "type": "string"
            },
            {
              "internalType": "string",
              "name": "attributesIpfsHash",
              "type": "string"
            }
          ],
          "internalType": "struct IMetadataModule.Metadata",
          "name": "",
          "type": "tuple"
        }
      ],
      "stateMutability": "nonpayable",
      "type": "function"
    },
    {
      "inputs": [
        {
          "internalType": "address",
          "name": "wrappedSong",
          "type": "address"
        }
      ],
      "name": "getPendingMetadataUpdate",
      "outputs": [
        {
          "components": [
            {
              "internalType": "string",
              "name": "name",
              "type": "string"
            },
            {
              "internalType": "string",
              "name": "description",
              "type": "string"
            },
            {
              "internalType": "string",
              "name": "image",
              "type": "string"
            },
            {
              "internalType": "string",
              "name": "externalUrl",
              "type": "string"
            },
            {
              "internalType": "string",
              "name": "animationUrl",
              "type": "string"
            },
            {
              "internalType": "string",
              "name": "attributesIpfsHash",
              "type": "string"
            }
          ],
          "internalType": "struct IMetadataModule.Metadata",
          "name": "",
          "type": "tuple"
        }
      ],
      "stateMutability": "view",
      "type": "function"
    },
    {
      "inputs": [
        {
          "internalType": "address",
          "name": "wrappedSong",
          "type": "address"
        },
        {
          "internalType": "uint256",
          "name": "tokenId",
          "type": "uint256"
        }
      ],
      "name": "getTokenURI",
      "outputs": [
        {
          "internalType": "string",
          "name": "",
          "type": "string"
        }
      ],
      "stateMutability": "view",
      "type": "function"
    },
    {
      "inputs": [
        {
          "internalType": "address",
          "name": "wrappedSong",
          "type": "address"
        }
      ],
      "name": "getWrappedSongMetadata",
      "outputs": [
        {
          "components": [
            {
              "internalType": "string",
              "name": "name",
              "type": "string"
            },
            {
              "internalType": "string",
              "name": "description",
              "type": "string"
            },
            {
              "internalType": "string",
              "name": "image",
              "type": "string"
            },
            {
              "internalType": "string",
              "name": "externalUrl",
              "type": "string"
            },
            {
              "internalType": "string",
              "name": "animationUrl",
              "type": "string"
            },
            {
              "internalType": "string",
              "name": "attributesIpfsHash",
              "type": "string"
            }
          ],
          "internalType": "struct IMetadataModule.Metadata",
          "name": "",
          "type": "tuple"
        }
      ],
      "stateMutability": "view",
      "type": "function"
    },
    {
      "inputs": [
        {
          "internalType": "address",
          "name": "_protocolModule",
          "type": "address"
        }
      ],
      "name": "initialize",
      "outputs": [],
      "stateMutability": "nonpayable",
      "type": "function"
    },
    {
      "inputs": [
        {
          "internalType": "address",
          "name": "wrappedSong",
          "type": "address"
        }
      ],
      "name": "isMetadataUpdateConfirmed",
      "outputs": [
        {
          "internalType": "bool",
          "name": "",
          "type": "bool"
        }
      ],
      "stateMutability": "view",
      "type": "function"
    },
    {
      "inputs": [],
      "name": "owner",
      "outputs": [
        {
          "internalType": "address",
          "name": "",
          "type": "address"
        }
      ],
      "stateMutability": "view",
      "type": "function"
    },
    {
      "inputs": [],
      "name": "protocolModule",
      "outputs": [
        {
          "internalType": "contract IProtocolModule",
          "name": "",
          "type": "address"
        }
      ],
      "stateMutability": "view",
      "type": "function"
    },
    {
      "inputs": [
        {
          "internalType": "address",
          "name": "wrappedSong",
          "type": "address"
        }
      ],
      "name": "rejectUpdateMetadata",
      "outputs": [],
      "stateMutability": "nonpayable",
      "type": "function"
    },
    {
      "inputs": [
        {
          "internalType": "address",
          "name": "wrappedSong",
          "type": "address"
        }
      ],
      "name": "removeMetadata",
      "outputs": [],
      "stateMutability": "nonpayable",
      "type": "function"
    },
    {
      "inputs": [],
      "name": "renounceOwnership",
      "outputs": [],
      "stateMutability": "nonpayable",
      "type": "function"
    },
    {
      "inputs": [
        {
          "internalType": "address",
          "name": "wrappedSong",
          "type": "address"
        },
        {
          "components": [
            {
              "internalType": "string",
              "name": "name",
              "type": "string"
            },
            {
              "internalType": "string",
              "name": "description",
              "type": "string"
            },
            {
              "internalType": "string",
              "name": "image",
              "type": "string"
            },
            {
              "internalType": "string",
              "name": "externalUrl",
              "type": "string"
            },
            {
              "internalType": "string",
              "name": "animationUrl",
              "type": "string"
            },
            {
              "internalType": "string",
              "name": "attributesIpfsHash",
              "type": "string"
            }
          ],
          "internalType": "struct IMetadataModule.Metadata",
          "name": "newMetadata",
          "type": "tuple"
        }
      ],
      "name": "requestUpdateMetadata",
      "outputs": [],
      "stateMutability": "nonpayable",
      "type": "function"
    },
    {
      "inputs": [
        {
          "internalType": "address",
          "name": "_protocolModule",
          "type": "address"
        }
      ],
      "name": "setProtocolModule",
      "outputs": [],
      "stateMutability": "nonpayable",
      "type": "function"
    },
    {
      "inputs": [
        {
          "internalType": "address",
          "name": "newOwner",
          "type": "address"
        }
      ],
      "name": "transferOwnership",
      "outputs": [],
      "stateMutability": "nonpayable",
      "type": "function"
    },
    {
      "inputs": [
        {
          "internalType": "address",
          "name": "wrappedSong",
          "type": "address"
        },
        {
          "components": [
            {
              "internalType": "string",
              "name": "name",
              "type": "string"
            },
            {
              "internalType": "string",
              "name": "description",
              "type": "string"
            },
            {
              "internalType": "string",
              "name": "image",
              "type": "string"
            },
            {
              "internalType": "string",
              "name": "externalUrl",
              "type": "string"
            },
            {
              "internalType": "string",
              "name": "animationUrl",
              "type": "string"
            },
            {
              "internalType": "string",
              "name": "attributesIpfsHash",
              "type": "string"
            }
          ],
          "internalType": "struct IMetadataModule.Metadata",
          "name": "newMetadata",
          "type": "tuple"
        }
      ],
      "name": "updateMetadata",
      "outputs": [],
      "stateMutability": "payable",
      "type": "function"
    },
    {
      "inputs": [
        {
          "internalType": "address",
          "name": "token",
          "type": "address"
        },
        {
          "internalType": "address",
          "name": "recipient",
          "type": "address"
        }
      ],
      "name": "withdrawAccumulatedFees",
      "outputs": [],
      "stateMutability": "nonpayable",
      "type": "function"
    },
    {
      "stateMutability": "payable",
      "type": "receive"
    }
  ],
  "bytecode": "0x608034620000c657601f6200314038819003918201601f19168301916001600160401b03831184841017620000cb57808492602094604052833981010312620000c657516001600160a01b039081811690819003620000c6578015620000ad57600080546001600160a01b03198116831782556040519316907f8be0079c531659141344cd1fd0a4f28419497f9722a3daafe3b4186f6b6457e09080a36001805561305e9081620000e28239f35b604051631e4fbdf760e01b815260006004820152602490fd5b600080fd5b634e487b7160e01b600052604160045260246000fdfe60e08060405260049081361015610020575b5050361561001e57600080fd5b005b600060c05260c0513560e01c9081630b63fd621461269d57508063187de53b146123d0578063349cdba01461237a578063376c1f07146121be5780634b700629146118245780635c42e667146117fa5780635dc447ed146110f55780636613680d146109c3578063715018a6146109645780638da5cb5b146109395780639205fafe146107c7578063a859dcde14610723578063a9edb0f5146105d4578063c4d66de8146102c9578063da67603e146101ce578063dac73c991461018d5763f2fde38b146100ee5780610011565b34610187576020366003190112610187576101076128a6565b61010f612b44565b6001600160a01b0390811691821561016d575060c05154826bffffffffffffffffffffffff60a01b82161760c05155167f8be0079c531659141344cd1fd0a4f28419497f9722a3daafe3b4186f6b6457e060c05160c051a360c05180f35b60249060405190631e4fbdf760e01b825260c05190820152fd5b60c05180fd5b34610187576020366003190112610187576001600160a01b036101ae6128a6565b1660c051526008602052602060ff604060c0512054166040519015158152f35b5034610187576020366003190112610187576102c5906101ec6128a6565b6101f4612b8f565b5060018060a01b031660c05152600760205260056102ac604060c05120610235610297604051956102248761298a565b60405161023c816102358188612e8d565b03826129bb565b8752604051610252816102358160018901612e8d565b602088015260405161026b816102358160028901612e8d565b6040880152604051610284816102358160038901612e8d565b6060880152604051928380928601612e8d565b60808501526102356040518094819301612e8d565b60a0820152604051918291602083526020830190612909565b0390f35b50346101875760209081600319360112610187576102e56128a6565b6005549160ff8360a01c1661059a576001600160a01b03918216801561055657600280546001600160a01b0319908116831790915560405163670d296960e11b8082529087818681875afa908115610469578691899160c05191610539575b5086604051809481936365bb98b560e01b8352165afa801561046957869160c051916104ff575b50168260035416176003556040519181835287838681875afa928315610469578693899160c051916104e2575b508660405180968193636d4726d960e01b8352165afa928315610469578893879160c051916104a5575b501690855416178455836040518094819382525afa8015610469578392869260c05192610476575b506040516309da4e5160e01b81529384928391165afa9384156104695760c05194610430575b50506001600160a81b0319909116911617600160a01b1760055560c05180f35b9080929450813d8311610462575b61044881836129bb565b810103126101875751828116810361018757913880610410565b503d61043e565b6040513d60c051823e3d90fd5b610497919250833d851161049e575b61048f81836129bb565b810190612b70565b90386103ea565b503d610485565b92948092508391503d83116104db575b6104bf81836129bb565b81010312610187575191858316830361018757858893386103c2565b503d6104b5565b6104f99150823d841161049e5761048f81836129bb565b38610398565b809250898092503d8311610532575b61051881836129bb565b81010312610187575185811681036101875785903861036b565b503d61050e565b6105509150823d841161049e5761048f81836129bb565b38610344565b60405162461bcd60e51b8152808301869052601760248201527f496e76616c69642070726f746f636f6c206d6f64756c650000000000000000006044820152606490fd5b60405162461bcd60e51b81529081018490526013602482015272105b1c9958591e481a5b9a5d1a585b1a5e9959606a1b6044820152606490fd5b503461018757602080600319360112610187576001600160a01b036105f76128a6565b16913383036106d3578260c0515260068252610618604060c0512054612bc0565b1561069157506008908260c0515260068152610638604060c05120612e48565b8260c051526007815261064f604060c05120612e48565b8260c0515252604060c0512060ff1981541690557f850e5df914b57ac32b9b4cfb02944f8e955f9991d54ae5ccac3936a7b205cace60c05160c051a260c05180f35b6064916040519162461bcd60e51b8352820152601760248201527f4d6574616461746120646f6573206e6f742065786973740000000000000000006044820152fd5b6084916040519162461bcd60e51b8352820152602560248201527f4f6e6c79207772617070656420736f6e672063616e2072656d6f7665206d6574604482015264616461746160d81b6064820152fd5b50346101875760203660031901126101875761073d6128a6565b610745612b44565b6001600160a01b03169081156107835750600280546001600160a01b0319169190911790556005805460ff60a01b1916600160a01b17905560c05180f35b60649060206040519162461bcd60e51b8352820152601f60248201527f496e76616c69642070726f746f636f6c206d6f64756c652061646472657373006044820152fd5b503461018757602080600319360112610187576107e26128a6565b600354604051633aa690e760e01b81526001600160a01b0392831681860181905294929184908290602490829086165afa908115610469578291859160c0519161091c575b508460405180948193638da5cb5b60e01b8352165afa9081156104695760c051916108ff575b501633036108b257506008908260c0515260078152610870604060c05120612e48565b8260c0515252604060c0512060ff1981541690557f44983a324fa169af1e5f7fc334fe51324c21a0f94c8407867926cb4266b0cb5460c05160c051a260c05180f35b6084916040519162461bcd60e51b8352820152602260248201527f4f6e6c79206469737472696275746f722063616e2072656a6563742075706461604482015261746560f01b6064820152fd5b6109169150843d861161049e5761048f81836129bb565b3861084d565b6109339150823d841161049e5761048f81836129bb565b38610827565b346101875760c0513660031901126101875760c051546040516001600160a01b039091168152602090f35b346101875760c0513660031901126101875761097e612b44565b60c05180546001600160a01b0319811682556001600160a01b03167f8be0079c531659141344cd1fd0a4f28419497f9722a3daafe3b4186f6b6457e08280a360c05180f35b5034610187576109d236612a3e565b906109db612b8f565b5060025460405163058dba2f60e11b81526001600160a01b038381168287015294916020908290602490829089165afa801561046957859160c051916110d6575b5016156110925783821660c051526006602052610a3e604060c0512054612bc0565b61104e57610a4b83612c58565b156110175783821660c051526006602052604060c051209083518051906001600160401b038211611000578190610a8c82610a868754612bc0565b87612c11565b6020906001601f841114610f975760c05192610f8c575b50508160011b916000199060031b1c19161782555b6001820160208501518051906001600160401b038211610e03578190610ae882610ae28654612bc0565b86612c11565b6020906001601f841114610f235760c05192610f18575b50508160011b916000199060031b1c19161790555b6002820160408501518051906001600160401b038211610e03578190610b3e82610ae28654612bc0565b6020906001601f841114610eaf5760c05192610ea4575b50508160011b916000199060031b1c19161790555b60039182810160608601518051906001600160401b038211610e8d578190610b9682610ae28654612bc0565b6020906001601f841114610e255760c05192610e1a575b50508160011b9160001990871b1c19161790555b60808501518051906001600160401b038211610e0357610bef82610be786860154612bc0565b868601612c11565b6020906001601f841114610d90579180916005949360c05192610d85575b50508160011b9160001990871b1c191617838201555b019160a08501518051926001600160401b038411610d6e5750610c4a83610ae28654612bc0565b6020906001601f851114610cd957927f6e59fb1f315f2f4b281014e9d51ca1387542c6af4109446eaaabadd34b5d5eb3949281926102c5999560c05193610cce575b50508260011b92600019911b1c19161790555b6040519260208452169180610cb76020820186612909565b0390a2604051918291602083526020830190612909565b015191503880610c8c565b9190601f198416928560c05152602060c051209360c0515b818110610d5657509285927f6e59fb1f315f2f4b281014e9d51ca1387542c6af4109446eaaabadd34b5d5eb39795926102c59b9760019610610d3c575b50505050811b019055610c9f565b01519060f884600019921b161c1916905538808080610d2e565b92946020600181928886015181550196019301610cf1565b604190634e487b7160e01b60c0515252602460c051fd5b015190503880610c0d565b9084840160c05152602060c051209160c0515b601f1985168110610deb575091839160019360059695601f19811610610dd3575b505050811b0183820155610c23565b015160001983891b60f8161c19169055388080610dc4565b91926020600181928685015181550194019201610da3565b604184634e487b7160e01b60c0515252602460c051fd5b015190503880610bad565b60c0805186905251602081209350601f198516905b818110610e755750908460019594939210610e5d575b505050811b019055610bc1565b015160001983891b60f8161c19169055388080610e50565b92936020600181928786015181550195019301610e3a565b604185634e487b7160e01b60c0515252602460c051fd5b015190503880610b55565b60c0805186905251602081209350601f198516905b818110610f005750908460019594939210610ee7575b505050811b019055610b6a565b015160001960f88460031b161c19169055388080610eda565b92936020600181928786015181550195019301610ec4565b015190503880610aff565b60c0805186905251602081209350601f198516905b818110610f745750908460019594939210610f5b575b505050811b019055610b14565b015160001960f88460031b161c19169055388080610f4e565b92936020600181928786015181550195019301610f38565b015190503880610aa3565b60c0805187905251602081209350601f198516905b818110610fe85750908460019594939210610fcf575b505050811b018255610ab8565b015160001960f88460031b161c19169055388080610fc2565b92936020600181928786015181550195019301610fac565b604183634e487b7160e01b60c0515252602460c051fd5b60649060206040519162461bcd60e51b8352820152601060248201526f496e76616c6964206d6574616461746160801b6044820152fd5b60649060206040519162461bcd60e51b8352820152601760248201527f4d6574616461746120616c7265616479206578697374730000000000000000006044820152fd5b60649060206040519162461bcd60e51b8352820152601960248201527f41646472657373206e6f7420612070726f746f636f6c205753000000000000006044820152fd5b6110ef915060203d60201161049e5761048f81836129bb565b38610a1c565b506110ff36612a3e565b604051638da5cb5b60e01b81526001600160a01b039283169260209182818781885afa9081156104695760c051916117dd575b508116331480156117d0575b1561177a578190600390815416604051928380926306f8718960e31b8252888a83015260249586915afa9081156104695760c0519161174d575b506116f45761118e61118985612c58565b612c9d565b8460c0515260068352604060c05120908451968751926001600160401b03938481116116de576111c8816111c28454612bc0565b84612c11565b601f998190889060018d8411146116775760c0519261166c575b50508160011b9160001990861b1c19161781555b600160a05260a0518101868801518051908682116114f457819061121e82610ae28654612bc0565b899060018e8411146116015760c051926115f6575b50508160a0511b9160001990871b1c19161790555b6002810160408801518051908682116114f457819061126b82610ae28654612bc0565b899060018e84111461158b5760c05192611580575b50508160a0511b9160001990871b1c19161790555b82810160608801518051908682116114f45781906112b782610ae28654612bc0565b899060018e8411146115155760c0519261150a575b50508160a0511b9160001990871b1c19161790555b81810160808801518051908682116114f457611307826113018554612bc0565b85612c11565b889060018d84111461148257918091600595949360c05192611477575b50508160a0511b9160001990881b1c19161790555b019360a087015191825194851161146257505061135a83610ae28654612bc0565b60c05150849783116001146113d457907f4288f171f419b66095d6e026090ed813669ea5a62cfe4416a47e75549e4788669697839260c051936113c9575b50508260a0511b92600019911b1c19161790555b6113c0604051928284938452830190612909565b0390a260c05180f35b015191503880611398565b90601f198316978460c051528560c051209260c0515b8a811061144a5750847f4288f171f419b66095d6e026090ed813669ea5a62cfe4416a47e75549e478866999a10611430575b5050505060a0519060a0511b0190556113ac565b01519060f884600019921b161c191690553880808061141c565b919387809186840151815560a05101950192016113ea565b604190634e487b7160e01b60c051525260c051fd5b015190503880611324565b90601f198316918460c051528a60c051209260c0515b8c8282106114dd57505090846005979695949392106114c5575b50505060a0519060a0511b019055611339565b015160001983891b60f8161c191690553880806114b2565b8495819295850151815560a0510195019301611498565b87604186634e487b7160e01b60c051525260c051fd5b0151905038806112cc565b60c08051869052518b812093508490601f198216905b8d8282106115665750501061154e575b50505060a0519060a0511b0190556112e1565b015160001983881b60f8161c1916905538808061153b565b84860151875560a05190960195948501948793500161152b565b015190503880611280565b60c08051869052518b812093508490601f198216905b8d8282106115dc575050106115c4575b50505060a0519060a0511b019055611295565b015160001983881b60f8161c191690553880806115b1565b84860151875560a0519096019594850194879350016115a1565b015190503880611233565b60c08051869052518b812093508490601f198216905b8d8282106116525750501061163a575b50505060a0519060a0511b019055611248565b015160001983881b60f8161c19169055388080611627565b84860151875560a051909601959485019487935001611617565b0151905038806111e2565b60c08051869052518a81209350601f198516905b8b8282106116c85750509084600195949392106116b0575b505050811b0181556111f6565b015160001983881b60f8161c191690553880806116a3565b600185968293968601518155019501930161168b565b85604184634e487b7160e01b60c051525260c051fd5b60405162461bcd60e51b8152808701849052602d818401527f43616e6e6f7420757064617465206d65746164617461206469726563746c792060448201526c61667465722072656c6561736560981b6064820152608490fd5b61176d9150843d8611611773575b61176581836129bb565b810190612d0f565b38611178565b503d61175b565b60405162461bcd60e51b8152808601839052602960248201527f4f6e6c79207772617070656420736f6e67206f7220697473206f776e65722063604482015268616e2075706461746560b81b6064820152608490fd5b508060025416331461113e565b6117f49150833d851161049e5761048f81836129bb565b38611132565b346101875760c051366003190112610187576002546040516001600160a01b039091168152602090f35b50346101875761183336612a3e565b61183f61118982612c58565b604051638da5cb5b60e01b81526001600160a01b039283169260209182818781885afa9081156104695760c051916121a1575b50813391160361214a57600380546040516306f8718960e31b815287810187905260249391859082908690829086165afa9081156104695760c0519161212d575b50156120d65786546040516374816e3760e01b81529190811685838a81845afa9283156104695760c051936120a7575b5060405163d579e3f360e01b815286818b81855afa918215610469578a92889260c0519161208a575b5085158015919061207e5715611ff357506040516337a0a9e960e11b815292839182905afa9081156104695760c05191611fc6575b5085826005541691868b6040519485938492637c70c0a360e01b84528301525afa9081156104695760c05191611fa9575b5016908115611f5a576040516323b872dd60e01b8682015233858201523060448201526064808201839052815260a081016001600160401b03811182821017611f46576040526119c29083612f53565b8160c0515260098552604060c05120805490828201809211611f3257556040519081527f785bfd9070b1fa5b19bfa2ac4637328df950f5e0adafe5873360de4e23b6d8a0853392a35b8460c0515260078352604060c05120908451968751926001600160401b03938481116116de57611a3f816111c28454612bc0565b601f998190889060018d841114611ecb5760c05192611ec0575b50508160011b9160001990861b1c19161781555b60016080526080518101868801518051908682116114f4578190611a9582610ae28654612bc0565b899060018e841114611e555760c05192611e4a575b5050816080511b9160001990871b1c19161790555b6002810160408801518051908682116114f4578190611ae282610ae28654612bc0565b899060018e841114611ddf5760c05192611dd4575b5050816080511b9160001990871b1c19161790555b82810160608801518051908682116114f4578190611b2e82610ae28654612bc0565b899060018e841114611d695760c05192611d5e575b5050816080511b9160001990871b1c19161790555b81810160808801518051908682116114f457611b78826113018554612bc0565b889060018d841114611cec57918091600595949360c05192611ce1575b5050816080511b9160001990881b1c19161790555b019360a0870151918251948511611462575050611bcb83610ae28654612bc0565b60c0515084978311600114611c5357907fcfa38ad22e928cede6a19793c7da9bad051ddd68eaabfc0a35500e381a60cb399697839260c05193611c48575b5050826080511b92600019911b1c19161790555b8360c0515260088152604060c0512060ff1981541690556113c0604051928284938452830190612909565b015191503880611c09565b90601f198316978460c051528560c051209260c0515b8a8110611cc95750847fcfa38ad22e928cede6a19793c7da9bad051ddd68eaabfc0a35500e381a60cb39999a10611caf575b50505050608051906080511b019055611c1d565b01519060f884600019921b161c1916905538808080611c9b565b91938780918684015181556080510195019201611c69565b015190503880611b95565b90601f198316918460c051528a60c051209260c0515b8c828210611d475750509084600597969594939210611d2f575b505050608051906080511b019055611baa565b015160001983891b60f8161c19169055388080611d1c565b849581929585015181556080510195019301611d02565b015190503880611b43565b60c08051869052518b812093508490601f198216905b8d828210611dba57505010611da2575b505050608051906080511b019055611b58565b015160001983881b60f8161c19169055388080611d8f565b848601518755608051909601959485019487935001611d7f565b015190503880611af7565b60c08051869052518b812093508490601f198216905b8d828210611e3057505010611e18575b505050608051906080511b019055611b0c565b015160001983881b60f8161c19169055388080611e05565b848601518755608051909601959485019487935001611df5565b015190503880611aaa565b60c08051869052518b812093508490601f198216905b8d828210611ea657505010611e8e575b505050608051906080511b019055611abf565b015160001983881b60f8161c19169055388080611e7b565b848601518755608051909601959485019487935001611e6b565b015190503880611a59565b60c08051869052518a81209350601f198516905b8b828210611f1c575050908460019594939210611f04575b505050811b018155611a6d565b015160001983881b60f8161c19169055388080611ef7565b6001859682939686015181550195019301611edf565b8560118b634e487b7160e01b600052526000fd5b8560418b634e487b7160e01b600052526000fd5b60405162461bcd60e51b81528089018690526023818601527f4e6f2077686974656c697374656420737461626c65636f696e20617661696c61604482015262626c6560e81b6064820152608490fd5b611fc09150863d881161049e5761048f81836129bb565b38611972565b90508581813d8311611fec575b611fdd81836129bb565b81010312610187575138611941565b503d611fd3565b94505050505061203b5760c05180526009835260405160008082529033907f785bfd9070b1fa5b19bfa2ac4637328df950f5e0adafe5873360de4e23b6d8a0908690a3611a0b565b60405162461bcd60e51b81528087018490526018818401527f496e636f7272656374204554482066656520616d6f756e7400000000000000006044820152606490fd5b50505050505050611a0b565b6120a19150833d85116117735761176581836129bb565b3861190c565b9092508581813d83116120cf575b6120bf81836129bb565b81010312610187575191386118e3565b503d6120b5565b60405162461bcd60e51b8152808801859052602b818501527f536f6e67206e6f742072656c65617365642c20757064617465206d657461646160448201526a7461206469726563746c7960a81b6064820152608490fd5b6121449150853d87116117735761176581836129bb565b386118b3565b60405162461bcd60e51b8152808601839052602a60248201527f4f6e6c79207772617070656420736f6e67206f776e65722063616e20726571756044820152696573742075706461746560b01b6064820152608490fd5b6121b89150833d851161049e5761048f81836129bb565b38611872565b5034610187576040366003190112610187576121d86128a6565b6001600160a01b03602435818116939290849003610187576121f8612b44565b60026001541461236957600260015516908160c0515260209060098252604060c051205490811561232f5760c0805185905260098452516040812055836122c15760c05180808085895af161224b612f23565b50156122875750907f5e110f8bc8a20b65dcc87f224bdf1cc039346e267118bae2739847f07321ffa8915b604051908152a36001805560c05180f35b60405162461bcd60e51b81529081018390526013602482015272115512081d1c985b9cd9995c8819985a5b1959606a1b6044820152606490fd5b6040519063a9059cbb60e01b848301528560248301528260448301526044825260808201908282106001600160401b03831117610d6e57507f5e110f8bc8a20b65dcc87f224bdf1cc039346e267118bae2739847f07321ffa893929161232a9160405285612f53565b612276565b60405162461bcd60e51b815290810183905260136024820152724e6f206665657320746f20776974686472617760681b6044820152606490fd5b604051633ee5aeb560e01b81528390fd5b5034610187576020366003190112610187576102c5906123986128a6565b6123a0612b8f565b5060018060a01b031660c05152600660205260056102ac604060c05120610235610297604051956102248761298a565b50602080600319360112610187576123e66128a6565b600354604051633aa690e760e01b81526001600160a01b0392831681860181905294929184908290602490829086165afa908115610469578291859160c05191612680575b508460405180948193638da5cb5b60e01b8352165afa9081156104695760c05191612663575b50163303612615578260c051526008825260ff604060c0512054166125d3577f4288f171f419b66095d6e026090ed813669ea5a62cfe4416a47e75549e478866916113c060c09285845152600783526040845120600684526040855120818103612575575b505085845152600783526124cd6040855120612e48565b85845152600883526040845120600160ff19825416179055600683526005604085512060405195858796875286015261256561250c60e0870183612e8d565b9361255361254061252d601f1997888b82030160408c015260018701612e8d565b878a82030160608b015260028601612e8d565b868982030160808a015260038501612e8d565b90858883030160a08901528301612e8d565b928584030160c086015201612e8d565b600580836125866125cc9585612d27565b6125966001820160018601612d27565b6125a66002820160028601612d27565b6125b66003820160038601612d27565b6125c4868201878601612d27565b019101612d27565b38806124b6565b6064916040519162461bcd60e51b8352820152601a60248201527f4e6f2070656e64696e67206d65746164617461207570646174650000000000006044820152fd5b6084916040519162461bcd60e51b8352820152602360248201527f4f6e6c79206469737472696275746f722063616e20636f6e6669726d2075706460448201526261746560e81b6064820152fd5b61267a9150843d861161049e5761048f81836129bb565b38612451565b6126979150823d841161049e5761048f81836129bb565b3861242b565b905034610187576040366003190112610187576126b86128a6565b916024359060018060a01b03809416928360c0515260209360068552600561276d604060c051206126e88561298a565b6040516126f9816102358185612e8d565b855260405161270f816102358160018601612e8d565b88860152604051612727816102358160028601612e8d565b6040860152604051612740816102358160038601612e8d565b606086015260405161275881610235818a8601612e8d565b60808601526102356040518094819301612e8d565b60a08301526003841015612856576127a36060966002541692604051978895632fda23b760e01b87528601526064850190612909565b9360248401526044830152818060c0519403915afa9182156104695760c051926127dd575b506102c56040519282849384528301906128e4565b9091503d8060c051833e6127f181836129bb565b8101908281830312610187578051906001600160401b038211610187570181601f82011215610187578051612825816129dc565b9261283360405194856129bb565b8184528482840101116101875761284f918480850191016128c1565b90386127c8565b60405162461bcd60e51b81528084018690526024808201527f496e76616c696420746f6b656e20494420666f72206d65746164617461206d6f60448201526364756c6560e01b6064820152608490fd5b600435906001600160a01b03821682036128bc57565b600080fd5b60005b8381106128d45750506000910152565b81810151838201526020016128c4565b906020916128fd815180928185528580860191016128c1565b601f01601f1916010190565b6129879160a061297661296461295261294061292e875160c0885260c08801906128e4565b602088015187820360208901526128e4565b604087015186820360408801526128e4565b606086015185820360608701526128e4565b608085015184820360808601526128e4565b9201519060a08184039101526128e4565b90565b60c081019081106001600160401b038211176129a557604052565b634e487b7160e01b600052604160045260246000fd5b90601f801991011681019081106001600160401b038211176129a557604052565b6001600160401b0381116129a557601f01601f191660200190565b81601f820112156128bc57803590612a0e826129dc565b92612a1c60405194856129bb565b828452602083830101116128bc57816000926020809301838601378301015290565b906003196040818401126128bc57600480356001600160a01b03811681036128bc5793602435916001600160401b03938484116128bc5760c09084840301126128bc5760405193612a8e8561298a565b838201358181116128bc578383612aa7928701016129f7565b855260248401358181116128bc578383612ac3928701016129f7565b602086015260448401358181116128bc578383612ae2928701016129f7565b604086015260648401358181116128bc578383612b01928701016129f7565b606086015260848401358181116128bc578383612b20928701016129f7565b608086015260a48401359081116128bc57612b3c9301016129f7565b60a082015290565b6000546001600160a01b03163303612b5857565b60405163118cdaa760e01b8152336004820152602490fd5b908160209103126128bc57516001600160a01b03811681036128bc5790565b60405190612b9c8261298a565b8160a060609182815282602082015282604082015282808201528260808201520152565b90600182811c92168015612bf0575b6020831014612bda57565b634e487b7160e01b600052602260045260246000fd5b91607f1691612bcf565b818110612c05575050565b60008155600101612bfa565b9190601f8111612c2057505050565b612c4c926000526020600020906020601f840160051c83019310612c4e575b601f0160051c0190612bfa565b565b9091508190612c3f565b80515115159081612c8e575b81612c7f575b81612c73575090565b60a09150015151151590565b60808101515115159150612c6a565b60408101515115159150612c64565b15612ca457565b60405162461bcd60e51b815260206004820152603760248201527f496e76616c6964206d657461646174613a20416c6c207265717569726564206660448201527f69656c6473206d757374206265206e6f6e2d656d7074790000000000000000006064820152608490fd5b908160209103126128bc575180151581036128bc5790565b90808214612dfb57612d398154612bc0565b906001600160401b0382116129a5578190612d5882610ae28654612bc0565b600090601f8311600114612d8f57600092612d84575b50508160011b916000199060031b1c1916179055565b015490503880612d6e565b81526020808220858352818320935090601f1985169083905b828210612de2575050908460019594939210612dc9575b505050811b019055565b015460001960f88460031b161c19169055388080612dbf565b8495819295850154815560018091019601940190612da8565b5050565b612e098154612bc0565b9081612e13575050565b81601f60009311600114612e25575055565b908083918252612e44601f60208420940160051c840160018501612bfa565b5555565b6005612c4c91612e5781612dff565b612e6360018201612dff565b612e6f60028201612dff565b612e7b60038201612dff565b612e8760048201612dff565b01612dff565b9060009291805491612e9e83612bc0565b918282526001938481169081600014612f005750600114612ec0575b50505050565b90919394506000526020928360002092846000945b838610612eec575050505001019038808080612eba565b805485870183015294019385908201612ed5565b9294505050602093945060ff191683830152151560051b01019038808080612eba565b3d15612f4e573d90612f34826129dc565b91612f4260405193846129bb565b82523d6000602084013e565b606090565b600080612f7c9260018060a01b03169360208151910182865af1612f75612f23565b9083612fc5565b8051908115159182612faa575b5050612f925750565b60249060405190635274afe760e01b82526004820152fd5b612fbd9250602080918301019101612d0f565b153880612f89565b90612fec5750805115612fda57805190602001fd5b604051630a12f52160e11b8152600490fd5b8151158061301f575b612ffd575090565b604051639996b31560e01b81526001600160a01b039091166004820152602490fd5b50803b15612ff556fea264697066735822122022b46a7d3e9174cc69d1f6ac16f7a2c4f6145be28aceb15b7bfa2d6f41b05f5564736f6c63430008140033",
  "linkReferences": {},
  "deployedLinkReferences": {}
}