{
  "_format": "hh-sol-artifact-1",
  "contractName": "MetadataModule",
  "sourceName": "contracts/protocol/NonUpgradable/MetadataModule.sol",
  "abi": [
    {
      "inputs": [
        {
          "internalType": "address",
          "name": "_initialOwner",
          "type": "address"
        }
      ],
      "stateMutability": "nonpayable",
      "type": "constructor"
    },
    {
      "inputs": [
        {
          "internalType": "address",
          "name": "target",
          "type": "address"
        }
      ],
      "name": "AddressEmptyCode",
      "type": "error"
    },
    {
      "inputs": [
        {
          "internalType": "address",
          "name": "account",
          "type": "address"
        }
      ],
      "name": "AddressInsufficientBalance",
      "type": "error"
    },
    {
      "inputs": [],
      "name": "FailedInnerCall",
      "type": "error"
    },
    {
      "inputs": [
        {
          "internalType": "address",
          "name": "owner",
          "type": "address"
        }
      ],
      "name": "OwnableInvalidOwner",
      "type": "error"
    },
    {
      "inputs": [
        {
          "internalType": "address",
          "name": "account",
          "type": "address"
        }
      ],
      "name": "OwnableUnauthorizedAccount",
      "type": "error"
    },
    {
      "inputs": [],
      "name": "ReentrancyGuardReentrantCall",
      "type": "error"
    },
    {
      "inputs": [
        {
          "internalType": "address",
          "name": "token",
          "type": "address"
        }
      ],
      "name": "SafeERC20FailedOperation",
      "type": "error"
    },
    {
      "anonymous": false,
      "inputs": [
        {
          "indexed": true,
          "internalType": "address",
          "name": "token",
          "type": "address"
        },
        {
          "indexed": true,
          "internalType": "address",
          "name": "recipient",
          "type": "address"
        },
        {
          "indexed": false,
          "internalType": "uint256",
          "name": "amount",
          "type": "uint256"
        }
      ],
      "name": "FeesWithdrawn",
      "type": "event"
    },
    {
      "anonymous": false,
      "inputs": [
        {
          "indexed": true,
          "internalType": "address",
          "name": "wrappedSong",
          "type": "address"
        },
        {
          "components": [
            {
              "internalType": "string",
              "name": "name",
              "type": "string"
            },
            {
              "internalType": "string",
              "name": "description",
              "type": "string"
            },
            {
              "internalType": "string",
              "name": "image",
              "type": "string"
            },
            {
              "internalType": "string",
              "name": "externalUrl",
              "type": "string"
            },
            {
              "internalType": "string",
              "name": "animationUrl",
              "type": "string"
            },
            {
              "internalType": "string",
              "name": "attributesIpfsHash",
              "type": "string"
            }
          ],
          "indexed": false,
          "internalType": "struct IMetadataModule.Metadata",
          "name": "newMetadata",
          "type": "tuple"
        }
      ],
      "name": "MetadataCreated",
      "type": "event"
    },
    {
      "anonymous": false,
      "inputs": [
        {
          "indexed": true,
          "internalType": "address",
          "name": "wrappedSong",
          "type": "address"
        }
      ],
      "name": "MetadataRemoved",
      "type": "event"
    },
    {
      "anonymous": false,
      "inputs": [
        {
          "indexed": true,
          "internalType": "address",
          "name": "wrappedSong",
          "type": "address"
        }
      ],
      "name": "MetadataUpdateRejected",
      "type": "event"
    },
    {
      "anonymous": false,
      "inputs": [
        {
          "indexed": true,
          "internalType": "address",
          "name": "wrappedSong",
          "type": "address"
        },
        {
          "components": [
            {
              "internalType": "string",
              "name": "name",
              "type": "string"
            },
            {
              "internalType": "string",
              "name": "description",
              "type": "string"
            },
            {
              "internalType": "string",
              "name": "image",
              "type": "string"
            },
            {
              "internalType": "string",
              "name": "externalUrl",
              "type": "string"
            },
            {
              "internalType": "string",
              "name": "animationUrl",
              "type": "string"
            },
            {
              "internalType": "string",
              "name": "attributesIpfsHash",
              "type": "string"
            }
          ],
          "indexed": false,
          "internalType": "struct IMetadataModule.Metadata",
          "name": "newMetadata",
          "type": "tuple"
        }
      ],
      "name": "MetadataUpdateRequested",
      "type": "event"
    },
    {
      "anonymous": false,
      "inputs": [
        {
          "indexed": true,
          "internalType": "address",
          "name": "wrappedSong",
          "type": "address"
        },
        {
          "components": [
            {
              "internalType": "string",
              "name": "name",
              "type": "string"
            },
            {
              "internalType": "string",
              "name": "description",
              "type": "string"
            },
            {
              "internalType": "string",
              "name": "image",
              "type": "string"
            },
            {
              "internalType": "string",
              "name": "externalUrl",
              "type": "string"
            },
            {
              "internalType": "string",
              "name": "animationUrl",
              "type": "string"
            },
            {
              "internalType": "string",
              "name": "attributesIpfsHash",
              "type": "string"
            }
          ],
          "indexed": false,
          "internalType": "struct IMetadataModule.Metadata",
          "name": "newMetadata",
          "type": "tuple"
        }
      ],
      "name": "MetadataUpdated",
      "type": "event"
    },
    {
      "anonymous": false,
      "inputs": [
        {
          "indexed": true,
          "internalType": "address",
          "name": "previousOwner",
          "type": "address"
        },
        {
          "indexed": true,
          "internalType": "address",
          "name": "newOwner",
          "type": "address"
        }
      ],
      "name": "OwnershipTransferred",
      "type": "event"
    },
    {
      "anonymous": false,
      "inputs": [
        {
          "indexed": true,
          "internalType": "address",
          "name": "wrappedSong",
          "type": "address"
        },
        {
          "indexed": true,
          "internalType": "address",
          "name": "token",
          "type": "address"
        },
        {
          "indexed": false,
          "internalType": "uint256",
          "name": "amount",
          "type": "uint256"
        }
      ],
      "name": "UpdateFeeCollected",
      "type": "event"
    },
    {
      "inputs": [
        {
          "internalType": "address",
          "name": "wrappedSong",
          "type": "address"
        }
      ],
      "name": "confirmUpdateMetadata",
      "outputs": [],
      "stateMutability": "payable",
      "type": "function"
    },
    {
      "inputs": [
        {
          "internalType": "address",
          "name": "wrappedSong",
          "type": "address"
        },
        {
          "components": [
            {
              "internalType": "string",
              "name": "name",
              "type": "string"
            },
            {
              "internalType": "string",
              "name": "description",
              "type": "string"
            },
            {
              "internalType": "string",
              "name": "image",
              "type": "string"
            },
            {
              "internalType": "string",
              "name": "externalUrl",
              "type": "string"
            },
            {
              "internalType": "string",
              "name": "animationUrl",
              "type": "string"
            },
            {
              "internalType": "string",
              "name": "attributesIpfsHash",
              "type": "string"
            }
          ],
          "internalType": "struct IMetadataModule.Metadata",
          "name": "newMetadata",
          "type": "tuple"
        }
      ],
      "name": "createMetadata",
      "outputs": [
        {
          "components": [
            {
              "internalType": "string",
              "name": "name",
              "type": "string"
            },
            {
              "internalType": "string",
              "name": "description",
              "type": "string"
            },
            {
              "internalType": "string",
              "name": "image",
              "type": "string"
            },
            {
              "internalType": "string",
              "name": "externalUrl",
              "type": "string"
            },
            {
              "internalType": "string",
              "name": "animationUrl",
              "type": "string"
            },
            {
              "internalType": "string",
              "name": "attributesIpfsHash",
              "type": "string"
            }
          ],
          "internalType": "struct IMetadataModule.Metadata",
          "name": "",
          "type": "tuple"
        }
      ],
      "stateMutability": "nonpayable",
      "type": "function"
    },
    {
      "inputs": [
        {
          "internalType": "address",
          "name": "wrappedSong",
          "type": "address"
        }
      ],
      "name": "getContractURI",
      "outputs": [
        {
          "internalType": "string",
          "name": "",
          "type": "string"
        }
      ],
      "stateMutability": "view",
      "type": "function"
    },
    {
      "inputs": [
        {
          "internalType": "address",
          "name": "wrappedSong",
          "type": "address"
        }
      ],
      "name": "getPendingMetadataUpdate",
      "outputs": [
        {
          "components": [
            {
              "internalType": "string",
              "name": "name",
              "type": "string"
            },
            {
              "internalType": "string",
              "name": "description",
              "type": "string"
            },
            {
              "internalType": "string",
              "name": "image",
              "type": "string"
            },
            {
              "internalType": "string",
              "name": "externalUrl",
              "type": "string"
            },
            {
              "internalType": "string",
              "name": "animationUrl",
              "type": "string"
            },
            {
              "internalType": "string",
              "name": "attributesIpfsHash",
              "type": "string"
            }
          ],
          "internalType": "struct IMetadataModule.Metadata",
          "name": "",
          "type": "tuple"
        }
      ],
      "stateMutability": "view",
      "type": "function"
    },
    {
      "inputs": [
        {
          "internalType": "address",
          "name": "wrappedSong",
          "type": "address"
        },
        {
          "internalType": "uint256",
          "name": "tokenId",
          "type": "uint256"
        }
      ],
      "name": "getTokenURI",
      "outputs": [
        {
          "internalType": "string",
          "name": "",
          "type": "string"
        }
      ],
      "stateMutability": "view",
      "type": "function"
    },
    {
      "inputs": [
        {
          "internalType": "address",
          "name": "wrappedSong",
          "type": "address"
        }
      ],
      "name": "getWrappedSongMetadata",
      "outputs": [
        {
          "components": [
            {
              "internalType": "string",
              "name": "name",
              "type": "string"
            },
            {
              "internalType": "string",
              "name": "description",
              "type": "string"
            },
            {
              "internalType": "string",
              "name": "image",
              "type": "string"
            },
            {
              "internalType": "string",
              "name": "externalUrl",
              "type": "string"
            },
            {
              "internalType": "string",
              "name": "animationUrl",
              "type": "string"
            },
            {
              "internalType": "string",
              "name": "attributesIpfsHash",
              "type": "string"
            }
          ],
          "internalType": "struct IMetadataModule.Metadata",
          "name": "",
          "type": "tuple"
        }
      ],
      "stateMutability": "view",
      "type": "function"
    },
    {
      "inputs": [
        {
          "internalType": "address",
          "name": "wrappedSong",
          "type": "address"
        }
      ],
      "name": "isMetadataUpdateConfirmed",
      "outputs": [
        {
          "internalType": "bool",
          "name": "",
          "type": "bool"
        }
      ],
      "stateMutability": "view",
      "type": "function"
    },
    {
      "inputs": [],
      "name": "owner",
      "outputs": [
        {
          "internalType": "address",
          "name": "",
          "type": "address"
        }
      ],
      "stateMutability": "view",
      "type": "function"
    },
    {
      "inputs": [],
      "name": "protocolModule",
      "outputs": [
        {
          "internalType": "contract IProtocolModule",
          "name": "",
          "type": "address"
        }
      ],
      "stateMutability": "view",
      "type": "function"
    },
    {
      "inputs": [
        {
          "internalType": "address",
          "name": "wrappedSong",
          "type": "address"
        }
      ],
      "name": "rejectUpdateMetadata",
      "outputs": [],
      "stateMutability": "nonpayable",
      "type": "function"
    },
    {
      "inputs": [
        {
          "internalType": "address",
          "name": "wrappedSong",
          "type": "address"
        }
      ],
      "name": "removeMetadata",
      "outputs": [],
      "stateMutability": "nonpayable",
      "type": "function"
    },
    {
      "inputs": [],
      "name": "renounceOwnership",
      "outputs": [],
      "stateMutability": "nonpayable",
      "type": "function"
    },
    {
      "inputs": [
        {
          "internalType": "address",
          "name": "wrappedSong",
          "type": "address"
        },
        {
          "components": [
            {
              "internalType": "string",
              "name": "name",
              "type": "string"
            },
            {
              "internalType": "string",
              "name": "description",
              "type": "string"
            },
            {
              "internalType": "string",
              "name": "image",
              "type": "string"
            },
            {
              "internalType": "string",
              "name": "externalUrl",
              "type": "string"
            },
            {
              "internalType": "string",
              "name": "animationUrl",
              "type": "string"
            },
            {
              "internalType": "string",
              "name": "attributesIpfsHash",
              "type": "string"
            }
          ],
          "internalType": "struct IMetadataModule.Metadata",
          "name": "newMetadata",
          "type": "tuple"
        }
      ],
      "name": "requestUpdateMetadata",
      "outputs": [],
      "stateMutability": "nonpayable",
      "type": "function"
    },
    {
      "inputs": [
        {
          "internalType": "address",
          "name": "_protocolModule",
          "type": "address"
        }
      ],
      "name": "setProtocolModule",
      "outputs": [],
      "stateMutability": "nonpayable",
      "type": "function"
    },
    {
      "inputs": [
        {
          "internalType": "address",
          "name": "newOwner",
          "type": "address"
        }
      ],
      "name": "transferOwnership",
      "outputs": [],
      "stateMutability": "nonpayable",
      "type": "function"
    },
    {
      "inputs": [
        {
          "internalType": "address",
          "name": "wrappedSong",
          "type": "address"
        },
        {
          "components": [
            {
              "internalType": "string",
              "name": "name",
              "type": "string"
            },
            {
              "internalType": "string",
              "name": "description",
              "type": "string"
            },
            {
              "internalType": "string",
              "name": "image",
              "type": "string"
            },
            {
              "internalType": "string",
              "name": "externalUrl",
              "type": "string"
            },
            {
              "internalType": "string",
              "name": "animationUrl",
              "type": "string"
            },
            {
              "internalType": "string",
              "name": "attributesIpfsHash",
              "type": "string"
            }
          ],
          "internalType": "struct IMetadataModule.Metadata",
          "name": "newMetadata",
          "type": "tuple"
        }
      ],
      "name": "updateMetadata",
      "outputs": [],
      "stateMutability": "payable",
      "type": "function"
    },
    {
      "inputs": [
        {
          "internalType": "address",
          "name": "token",
          "type": "address"
        },
        {
          "internalType": "address",
          "name": "recipient",
          "type": "address"
        }
      ],
      "name": "withdrawAccumulatedFees",
      "outputs": [],
      "stateMutability": "nonpayable",
      "type": "function"
    },
    {
      "stateMutability": "payable",
      "type": "receive"
    }
  ],
  "bytecode": "0x608034620000c657601f620033d938819003918201601f19168301916001600160401b03831184841017620000cb57808492602094604052833981010312620000c657516001600160a01b039081811690819003620000c6578015620000ad57600080546001600160a01b03198116831782556040519316907f8be0079c531659141344cd1fd0a4f28419497f9722a3daafe3b4186f6b6457e09080a3600180556132f79081620000e28239f35b604051631e4fbdf760e01b815260006004820152602490fd5b600080fd5b634e487b7160e01b600052604160045260246000fdfe60e08060405260049081361015610020575b5050361561001e57600080fd5b005b600060c05260c0513560e01c9081630b63fd621461293457508063187de53b146125c5578063349cdba01461256f578063374e2648146123cd578063376c1f07146122115780634b700629146116785780635c42e6671461164e5780635dc447ed14610ea45780636613680d14610772578063715018a6146107135780638da5cb5b146106e85780639205fafe146104b7578063a859dcde14610413578063a9edb0f5146102c4578063da67603e146101c9578063dac73c99146101885763f2fde38b146100ee5780610011565b3461018257602036600319011261018257610107612ae1565b61010f612d7f565b6001600160a01b03908116918215610168575060c05154826001600160601b0360a01b82161760c05155167f8be0079c531659141344cd1fd0a4f28419497f9722a3daafe3b4186f6b6457e060c05160c051a360c05180f35b60249060405190631e4fbdf760e01b825260c05190820152fd5b60c05180fd5b34610182576020366003190112610182576001600160a01b036101a9612ae1565b1660c051526008602052602060ff604060c0512054166040519015158152f35b5034610182576020366003190112610182576102c0906101e7612ae1565b6101ef612dab565b5060018060a01b031660c05152600760205260056102a7604060c051206102306102926040519561021f87612bc5565b6040516102378161023081886130c8565b0382612bf6565b875260405161024d8161023081600189016130c8565b60208801526040516102668161023081600289016130c8565b604088015260405161027f8161023081600389016130c8565b60608801526040519283809286016130c8565b608085015261023060405180948193016130c8565b60a0820152604051918291602083526020830190612b44565b0390f35b503461018257602080600319360112610182576001600160a01b036102e7612ae1565b16913383036103c3578260c0515260068252610308604060c0512054612dfb565b1561038157506008908260c0515260068152610328604060c05120613083565b8260c051526007815261033f604060c05120613083565b8260c0515252604060c0512060ff1981541690557f850e5df914b57ac32b9b4cfb02944f8e955f9991d54ae5ccac3936a7b205cace60c05160c051a260c05180f35b6064916040519162461bcd60e51b8352820152601760248201527f4d6574616461746120646f6573206e6f742065786973740000000000000000006044820152fd5b6084916040519162461bcd60e51b8352820152602560248201527f4f6e6c79207772617070656420736f6e672063616e2072656d6f7665206d6574604482015264616461746160d81b6064820152fd5b50346101825760203660031901126101825761042d612ae1565b610435612d7f565b6001600160a01b03169081156104735750600280546001600160a01b0319169190911790556005805460ff60a01b1916600160a01b17905560c05180f35b60649060206040519162461bcd60e51b8352820152601f60248201527f496e76616c69642070726f746f636f6c206d6f64756c652061646472657373006044820152fd5b503461018257602080600319360112610182576104d2612ae1565b60025460405163670d296960e11b81529193916001600160a01b0391849082908590829086165afa908115610684578291859160c051916106cb575b5084604051809481936365bb98b560e01b8352165afa801561068457828591819360c051916106ae575b501695866001600160601b0360a01b6003541617600355602460405180948193633aa690e760e01b8352169889888301525afa908115610684578291859160c05191610691575b508460405180948193638da5cb5b60e01b8352165afa9081156106845760c05191610657575b5016330361060a57506008908260c05152600781526105c8604060c05120613083565b8260c0515252604060c0512060ff1981541690557f44983a324fa169af1e5f7fc334fe51324c21a0f94c8407867926cb4266b0cb5460c05160c051a260c05180f35b6084916040519162461bcd60e51b8352820152602260248201527f4f6e6c79206469737472696275746f722063616e2072656a6563742075706461604482015261746560f01b6064820152fd5b6106779150843d861161067d575b61066f8183612bf6565b810190612ddc565b386105a5565b503d610665565b6040513d60c051823e3d90fd5b6106a89150823d841161067d5761066f8183612bf6565b3861057f565b6106c59150833d851161067d5761066f8183612bf6565b38610538565b6106e29150823d841161067d5761066f8183612bf6565b3861050e565b346101825760c0513660031901126101825760c051546040516001600160a01b039091168152602090f35b346101825760c0513660031901126101825761072d612d7f565b60c05180546001600160a01b0319811682556001600160a01b03167f8be0079c531659141344cd1fd0a4f28419497f9722a3daafe3b4186f6b6457e08280a360c05180f35b50346101825761078136612c79565b9061078a612dab565b5060025460405163058dba2f60e11b81526001600160a01b038381168287015294916020908290602490829089165afa801561068457859160c05191610e85575b501615610e415783821660c0515260066020526107ed604060c0512054612dfb565b610dfd576107fa83612e93565b15610dc65783821660c051526006602052604060c051209083518051906001600160401b038211610daf57819061083b826108358754612dfb565b87612e4c565b6020906001601f841114610d465760c05192610d3b575b50508160011b916000199060031b1c19161782555b6001820160208501518051906001600160401b038211610bb2578190610897826108918654612dfb565b86612e4c565b6020906001601f841114610cd25760c05192610cc7575b50508160011b916000199060031b1c19161790555b6002820160408501518051906001600160401b038211610bb25781906108ed826108918654612dfb565b6020906001601f841114610c5e5760c05192610c53575b50508160011b916000199060031b1c19161790555b60039182810160608601518051906001600160401b038211610c3c578190610945826108918654612dfb565b6020906001601f841114610bd45760c05192610bc9575b50508160011b9160001990871b1c19161790555b60808501518051906001600160401b038211610bb25761099e8261099686860154612dfb565b868601612e4c565b6020906001601f841114610b3f579180916005949360c05192610b34575b50508160011b9160001990871b1c191617838201555b019160a08501518051926001600160401b038411610b1d57506109f9836108918654612dfb565b6020906001601f851114610a8857927f6e59fb1f315f2f4b281014e9d51ca1387542c6af4109446eaaabadd34b5d5eb3949281926102c0999560c05193610a7d575b50508260011b92600019911b1c19161790555b6040519260208452169180610a666020820186612b44565b0390a2604051918291602083526020830190612b44565b015191503880610a3b565b9190601f198416928560c05152602060c051209360c0515b818110610b0557509285927f6e59fb1f315f2f4b281014e9d51ca1387542c6af4109446eaaabadd34b5d5eb39795926102c09b9760019610610aeb575b50505050811b019055610a4e565b01519060f884600019921b161c1916905538808080610add565b92946020600181928886015181550196019301610aa0565b604190634e487b7160e01b60c0515252602460c051fd5b0151905038806109bc565b9084840160c05152602060c051209160c0515b601f1985168110610b9a575091839160019360059695601f19811610610b82575b505050811b01838201556109d2565b015160001983891b60f8161c19169055388080610b73565b91926020600181928685015181550194019201610b52565b604184634e487b7160e01b60c0515252602460c051fd5b01519050388061095c565b60c0805186905251602081209350601f198516905b818110610c245750908460019594939210610c0c575b505050811b019055610970565b015160001983891b60f8161c19169055388080610bff565b92936020600181928786015181550195019301610be9565b604185634e487b7160e01b60c0515252602460c051fd5b015190503880610904565b60c0805186905251602081209350601f198516905b818110610caf5750908460019594939210610c96575b505050811b019055610919565b015160001960f88460031b161c19169055388080610c89565b92936020600181928786015181550195019301610c73565b0151905038806108ae565b60c0805186905251602081209350601f198516905b818110610d235750908460019594939210610d0a575b505050811b0190556108c3565b015160001960f88460031b161c19169055388080610cfd565b92936020600181928786015181550195019301610ce7565b015190503880610852565b60c0805187905251602081209350601f198516905b818110610d975750908460019594939210610d7e575b505050811b018255610867565b015160001960f88460031b161c19169055388080610d71565b92936020600181928786015181550195019301610d5b565b604183634e487b7160e01b60c0515252602460c051fd5b60649060206040519162461bcd60e51b8352820152601060248201526f496e76616c6964206d6574616461746160801b6044820152fd5b60649060206040519162461bcd60e51b8352820152601760248201527f4d6574616461746120616c7265616479206578697374730000000000000000006044820152fd5b60649060206040519162461bcd60e51b8352820152601960248201527f41646472657373206e6f7420612070726f746f636f6c205753000000000000006044820152fd5b610e9e915060203d60201161067d5761066f8183612bf6565b386107cb565b50610eae36612c79565b60025460405163670d296960e11b81526001600160a01b0393602092909190839082908890829089165afa908115610684578591849160c05191611631575b5087604051809481936365bb98b560e01b8352165afa801561068457859160c05191611614575b501684600392826001600160601b0360a01b855416178455169460405190638da5cb5b60e01b8252848289818a5afa9182156106845760c051926115f5575b5016331480156115ec575b15611596576040516306f8718960e31b81528681018690526024929184908290859082905afa9081156106845760c05191611569575b5061151057610faa610fa585612e93565b612ed8565b8460c0515260068352604060c05120908451968751926001600160401b03938481116114fa57610fe481610fde8454612dfb565b84612e4c565b601f998190889060018d8411146114935760c05192611488575b50508160011b9160001990861b1c19161781555b600160a05260a05181018688015180519086821161131057819061103a826108918654612dfb565b899060018e84111461141d5760c05192611412575b50508160a0511b9160001990871b1c19161790555b600281016040880151805190868211611310578190611087826108918654612dfb565b899060018e8411146113a75760c0519261139c575b50508160a0511b9160001990871b1c19161790555b82810160608801518051908682116113105781906110d3826108918654612dfb565b899060018e8411146113315760c05192611326575b50508160a0511b9160001990871b1c19161790555b8181016080880151805190868211611310576111238261111d8554612dfb565b85612e4c565b889060018d84111461129e57918091600595949360c05192611293575b50508160a0511b9160001990881b1c19161790555b019360a087015191825194851161127e575050611176836108918654612dfb565b60c05150849783116001146111f057907f4288f171f419b66095d6e026090ed813669ea5a62cfe4416a47e75549e4788669697839260c051936111e5575b50508260a0511b92600019911b1c19161790555b6111dc604051928284938452830190612b44565b0390a260c05180f35b0151915038806111b4565b90601f198316978460c051528560c051209260c0515b8a81106112665750847f4288f171f419b66095d6e026090ed813669ea5a62cfe4416a47e75549e478866999a1061124c575b5050505060a0519060a0511b0190556111c8565b01519060f884600019921b161c1916905538808080611238565b919387809186840151815560a0510195019201611206565b604190634e487b7160e01b60c051525260c051fd5b015190503880611140565b90601f198316918460c051528a60c051209260c0515b8c8282106112f957505090846005979695949392106112e1575b50505060a0519060a0511b019055611155565b015160001983891b60f8161c191690553880806112ce565b8495819295850151815560a05101950193016112b4565b87604186634e487b7160e01b60c051525260c051fd5b0151905038806110e8565b60c08051869052518b812093508490601f198216905b8d8282106113825750501061136a575b50505060a0519060a0511b0190556110fd565b015160001983881b60f8161c19169055388080611357565b84860151875560a051909601959485019487935001611347565b01519050388061109c565b60c08051869052518b812093508490601f198216905b8d8282106113f8575050106113e0575b50505060a0519060a0511b0190556110b1565b015160001983881b60f8161c191690553880806113cd565b84860151875560a0519096019594850194879350016113bd565b01519050388061104f565b60c08051869052518b812093508490601f198216905b8d82821061146e57505010611456575b50505060a0519060a0511b019055611064565b015160001983881b60f8161c19169055388080611443565b84860151875560a051909601959485019487935001611433565b015190503880610ffe565b60c08051869052518a81209350601f198516905b8b8282106114e45750509084600195949392106114cc575b505050811b018155611012565b015160001983881b60f8161c191690553880806114bf565b60018596829396860151815501950193016114a7565b85604184634e487b7160e01b60c051525260c051fd5b60405162461bcd60e51b8152808701849052602d818401527f43616e6e6f7420757064617465206d65746164617461206469726563746c792060448201526c61667465722072656c6561736560981b6064820152608490fd5b6115899150843d861161158f575b6115818183612bf6565b810190612f4a565b38610f94565b503d611577565b60405162461bcd60e51b8152808701849052602960248201527f4f6e6c79207772617070656420736f6e67206f7220697473206f776e65722063604482015268616e2075706461746560b81b6064820152608490fd5b50803314610f5e565b61160d919250853d871161067d5761066f8183612bf6565b9038610f53565b61162b9150843d861161067d5761066f8183612bf6565b38610f14565b6116489150823d841161067d5761066f8183612bf6565b38610eed565b346101825760c051366003190112610182576002546040516001600160a01b039091168152602090f35b50346101825761168736612c79565b60025460405163670d296960e11b8082526001600160a01b039283169460209392909190848189818a5afa908115610684578491869160c051916121f4575b5089604051809481936365bb98b560e01b8352165afa801561068457849160c051916121d7575b5016926001600160601b0360a01b816003948683875416178655611713610fa58a612e93565b1697604051638da5cb5b60e01b815287818c818d5afa9081156106845760c051916121ba575b508333911603612163576040516306f8718960e31b8152808b018a905260249688908290899082905afa9081156106845760c05191612146575b50156120ef5760405184815287818c81855afa908115610684578491899160c051916120d2575b508c60405180948193636d4726d960e01b8352165afa801561068457849160c05191612098575b50169384838c5416178b55604051946374816e3760e01b865288868d81845afa9586156106845760c05196612069575b5060405163d579e3f360e01b815289818e81855afa928315610684578a9160c0519461204a575b508d6040518096819382525afa9283156106845785938a9160c0519161202d575b508d604051809681936309da4e5160e01b8352165afa91821561068457858a938e9560c05191611fed575b5016809560055416176005558615159081600014611fe05715611f5457506040516337a0a9e960e11b815292839182905afa801561068457879160c05191611f25575b50868b6040519485938492637c70c0a360e01b84528301525afa9081156106845760c05191611f08575b5016908115611eb9576040516323b872dd60e01b8682015233858201523060448201526064808201839052815260a081016001600160401b03811182821017611ea55760405261192190836131ec565b8160c0515260098552604060c05120805490828201809211611e9157556040519081527f785bfd9070b1fa5b19bfa2ac4637328df950f5e0adafe5873360de4e23b6d8a0853392a35b8460c0515260078352604060c05120908451968751926001600160401b03938481116114fa5761199e81610fde8454612dfb565b601f998190889060018d841114611e2a5760c05192611e1f575b50508160011b9160001990861b1c19161781555b60016080526080518101868801518051908682116113105781906119f4826108918654612dfb565b899060018e841114611db45760c05192611da9575b5050816080511b9160001990871b1c19161790555b600281016040880151805190868211611310578190611a41826108918654612dfb565b899060018e841114611d3e5760c05192611d33575b5050816080511b9160001990871b1c19161790555b8281016060880151805190868211611310578190611a8d826108918654612dfb565b899060018e841114611cc85760c05192611cbd575b5050816080511b9160001990871b1c19161790555b818101608088015180519086821161131057611ad78261111d8554612dfb565b889060018d841114611c4b57918091600595949360c05192611c40575b5050816080511b9160001990881b1c19161790555b019360a087015191825194851161127e575050611b2a836108918654612dfb565b60c0515084978311600114611bb257907fcfa38ad22e928cede6a19793c7da9bad051ddd68eaabfc0a35500e381a60cb399697839260c05193611ba7575b5050826080511b92600019911b1c19161790555b8360c0515260088152604060c0512060ff1981541690556111dc604051928284938452830190612b44565b015191503880611b68565b90601f198316978460c051528560c051209260c0515b8a8110611c285750847fcfa38ad22e928cede6a19793c7da9bad051ddd68eaabfc0a35500e381a60cb39999a10611c0e575b50505050608051906080511b019055611b7c565b01519060f884600019921b161c1916905538808080611bfa565b91938780918684015181556080510195019201611bc8565b015190503880611af4565b90601f198316918460c051528a60c051209260c0515b8c828210611ca65750509084600597969594939210611c8e575b505050608051906080511b019055611b09565b015160001983891b60f8161c19169055388080611c7b565b849581929585015181556080510195019301611c61565b015190503880611aa2565b60c08051869052518b812093508490601f198216905b8d828210611d1957505010611d01575b505050608051906080511b019055611ab7565b015160001983881b60f8161c19169055388080611cee565b848601518755608051909601959485019487935001611cde565b015190503880611a56565b60c08051869052518b812093508490601f198216905b8d828210611d8f57505010611d77575b505050608051906080511b019055611a6b565b015160001983881b60f8161c19169055388080611d64565b848601518755608051909601959485019487935001611d54565b015190503880611a09565b60c08051869052518b812093508490601f198216905b8d828210611e0557505010611ded575b505050608051906080511b019055611a1e565b015160001983881b60f8161c19169055388080611dda565b848601518755608051909601959485019487935001611dca565b0151905038806119b8565b60c08051869052518a81209350601f198516905b8b828210611e7b575050908460019594939210611e63575b505050811b0181556119cc565b015160001983881b60f8161c19169055388080611e56565b6001859682939686015181550195019301611e3e565b8560118b634e487b7160e01b600052526000fd5b8560418b634e487b7160e01b600052526000fd5b60405162461bcd60e51b81528089018690526023818601527f4e6f2077686974656c697374656420737461626c65636f696e20617661696c61604482015262626c6560e81b6064820152608490fd5b611f1f9150863d881161067d5761066f8183612bf6565b386118d1565b82819392503d8311611f4d575b611f3c8183612bf6565b8101031261018257869051386118a7565b503d611f32565b95505050505050611f9d5760c05180526009835260405160008082529033907f785bfd9070b1fa5b19bfa2ac4637328df950f5e0adafe5873360de4e23b6d8a0908690a361196a565b60405162461bcd60e51b81528087018490526018818401527f496e636f7272656374204554482066656520616d6f756e7400000000000000006044820152606490fd5b505050505050505061196a565b9394929550505081813d8311612026575b6120088183612bf6565b810103126101825751908482168203610182578b92858a9338611864565b503d611ffe565b6120449150823d841161067d5761066f8183612bf6565b38611839565b612062919450823d841161158f576115818183612bf6565b9238611818565b9095508881813d8311612091575b6120818183612bf6565b81010312610182575194386117f1565b503d612077565b809250898092503d83116120cb575b6120b18183612bf6565b8101031261018257518381168103610182578390386117c1565b503d6120a7565b6120e99150823d841161067d5761066f8183612bf6565b3861179a565b60405162461bcd60e51b8152808b01889052602b818801527f536f6e67206e6f742072656c65617365642c20757064617465206d657461646160448201526a7461206469726563746c7960a81b6064820152608490fd5b61215d9150883d8a1161158f576115818183612bf6565b38611773565b60405162461bcd60e51b8152808b01889052602a60248201527f4f6e6c79207772617070656420736f6e67206f776e65722063616e20726571756044820152696573742075706461746560b01b6064820152608490fd5b6121d19150883d8a1161067d5761066f8183612bf6565b38611739565b6121ee9150863d881161067d5761066f8183612bf6565b386116ed565b61220b9150823d841161067d5761066f8183612bf6565b386116c6565b50346101825760403660031901126101825761222b612ae1565b6001600160a01b036024358181169392908490036101825761224b612d7f565b6002600154146123bc57600260015516908160c0515260209060098252604060c05120549081156123825760c0805185905260098452516040812055836123145760c05180808085895af161229e6131bc565b50156122da5750907f5e110f8bc8a20b65dcc87f224bdf1cc039346e267118bae2739847f07321ffa8915b604051908152a36001805560c05180f35b60405162461bcd60e51b81529081018390526013602482015272115512081d1c985b9cd9995c8819985a5b1959606a1b6044820152606490fd5b6040519063a9059cbb60e01b848301528560248301528260448301526044825260808201908282106001600160401b03831117610b1d57507f5e110f8bc8a20b65dcc87f224bdf1cc039346e267118bae2739847f07321ffa893929161237d91604052856131ec565b6122c9565b60405162461bcd60e51b815290810183905260136024820152724e6f206665657320746f20776974686472617760681b6044820152606490fd5b604051633ee5aeb560e01b81528390fd5b503461018257602080600319360112610182576001600160a01b03806123f1612ae1565b16801561251f5792829360c0515260068352604060c051209160056124a16040519461241c86612bc5565b60405161242d8161023081856130c8565b86526040516124438161023081600186016130c8565b8787015260405161245b8161023081600286016130c8565b60408701526040516124748161023081600386016130c8565b606087015260405161248c81610230818986016130c8565b608087015261023060405180948193016130c8565b60a08401526002541660405194859263c7acd8fb60e01b845283015281806124d060c051956024830190612b44565b03915afa9182156106845760c051926124f9575b506102c0604051928284938452830190612b1f565b6125189192503d8060c051833e6125108183612bf6565b81019061315e565b90386124e4565b60405162461bcd60e51b8152808501849052602360248201527f5772617070656420736f6e6720616464726573732063616e6e6f74206265207a60448201526265726f60e81b6064820152608490fd5b5034610182576020366003190112610182576102c09061258d612ae1565b612595612dab565b5060018060a01b031660c05152600660205260056102a7604060c051206102306102926040519561021f87612bc5565b50602080600319360112610182576125db612ae1565b60025460405163670d296960e11b81529193916001600160a01b0391849082908590829086165afa908115610684578291859160c05191612917575b5084604051809481936365bb98b560e01b8352165afa801561068457828591819360c051916128fa575b501695866001600160601b0360a01b6003541617600355602460405180948193633aa690e760e01b8352169889888301525afa908115610684578291859160c051916128dd575b508460405180948193638da5cb5b60e01b8352165afa9081156106845760c051916128c0575b50163303612872578260c051526008825260ff604060c051205416612830577f4288f171f419b66095d6e026090ed813669ea5a62cfe4416a47e75549e478866916111dc60c092858451526007835260408451206006845260408551208181036127d2575b5050858451526007835261272a6040855120613083565b85845152600883526040845120600160ff1982541617905560068352600560408551206040519585879687528601526127c261276960e08701836130c8565b936127b061279d61278a601f1997888b82030160408c0152600187016130c8565b878a82030160608b0152600286016130c8565b868982030160808a0152600385016130c8565b90858883030160a089015283016130c8565b928584030160c0860152016130c8565b600580836127e36128299585612f62565b6127f36001820160018601612f62565b6128036002820160028601612f62565b6128136003820160038601612f62565b612821868201878601612f62565b019101612f62565b3880612713565b6064916040519162461bcd60e51b8352820152601a60248201527f4e6f2070656e64696e67206d65746164617461207570646174650000000000006044820152fd5b6084916040519162461bcd60e51b8352820152602360248201527f4f6e6c79206469737472696275746f722063616e20636f6e6669726d2075706460448201526261746560e81b6064820152fd5b6128d79150843d861161067d5761066f8183612bf6565b386126ae565b6128f49150823d841161067d5761066f8183612bf6565b38612688565b6129119150833d851161067d5761066f8183612bf6565b38612641565b61292e9150823d841161067d5761066f8183612bf6565b38612617565b9050346101825760403660031901126101825761294f612ae1565b916024359160018060a01b038094168060c0515260066020526005612a02604060c0512061297c85612bc5565b60405161298d8161023081856130c8565b85526040516129a38161023081600186016130c8565b60208601526040516129bc8161023081600286016130c8565b60408601526040516129d58161023081600386016130c8565b60608601526040516129ed81610230818a86016130c8565b608086015261023060405180948193016130c8565b60a08301526003841015612a9157612a386060956002541692604051968795632fda23b760e01b87528601526064850190612b44565b9360248401526044830152818060c0519403915afa8015610684576102c09160c05191612a75575b50604051918291602083526020830190612b1f565b612a8b91503d8060c051833e6125108183612bf6565b38612a60565b60405162461bcd60e51b81526020818501526024808201527f496e76616c696420746f6b656e20494420666f72206d65746164617461206d6f60448201526364756c6560e01b6064820152608490fd5b600435906001600160a01b0382168203612af757565b600080fd5b60005b838110612b0f5750506000910152565b8181015183820152602001612aff565b90602091612b3881518092818552858086019101612afc565b601f01601f1916010190565b612bc29160a0612bb1612b9f612b8d612b7b612b69875160c0885260c0880190612b1f565b60208801518782036020890152612b1f565b60408701518682036040880152612b1f565b60608601518582036060870152612b1f565b60808501518482036080860152612b1f565b9201519060a0818403910152612b1f565b90565b60c081019081106001600160401b03821117612be057604052565b634e487b7160e01b600052604160045260246000fd5b90601f801991011681019081106001600160401b03821117612be057604052565b6001600160401b038111612be057601f01601f191660200190565b81601f82011215612af757803590612c4982612c17565b92612c576040519485612bf6565b82845260208383010111612af757816000926020809301838601378301015290565b90600319604081840112612af757600480356001600160a01b0381168103612af75793602435916001600160401b0393848411612af75760c0908484030112612af75760405193612cc985612bc5565b83820135818111612af7578383612ce292870101612c32565b85526024840135818111612af7578383612cfe92870101612c32565b60208601526044840135818111612af7578383612d1d92870101612c32565b60408601526064840135818111612af7578383612d3c92870101612c32565b60608601526084840135818111612af7578383612d5b92870101612c32565b608086015260a4840135908111612af757612d77930101612c32565b60a082015290565b6000546001600160a01b03163303612d9357565b60405163118cdaa760e01b8152336004820152602490fd5b60405190612db882612bc5565b8160a060609182815282602082015282604082015282808201528260808201520152565b90816020910312612af757516001600160a01b0381168103612af75790565b90600182811c92168015612e2b575b6020831014612e1557565b634e487b7160e01b600052602260045260246000fd5b91607f1691612e0a565b818110612e40575050565b60008155600101612e35565b9190601f8111612e5b57505050565b612e87926000526020600020906020601f840160051c83019310612e89575b601f0160051c0190612e35565b565b9091508190612e7a565b80515115159081612ec9575b81612eba575b81612eae575090565b60a09150015151151590565b60808101515115159150612ea5565b60408101515115159150612e9f565b15612edf57565b60405162461bcd60e51b815260206004820152603760248201527f496e76616c6964206d657461646174613a20416c6c207265717569726564206660448201527f69656c6473206d757374206265206e6f6e2d656d7074790000000000000000006064820152608490fd5b90816020910312612af757518015158103612af75790565b9080821461303657612f748154612dfb565b906001600160401b038211612be0578190612f93826108918654612dfb565b600090601f8311600114612fca57600092612fbf575b50508160011b916000199060031b1c1916179055565b015490503880612fa9565b81526020808220858352818320935090601f1985169083905b82821061301d575050908460019594939210613004575b505050811b019055565b015460001960f88460031b161c19169055388080612ffa565b8495819295850154815560018091019601940190612fe3565b5050565b6130448154612dfb565b908161304e575050565b81601f60009311600114613060575055565b90808391825261307f601f60208420940160051c840160018501612e35565b5555565b6005612e87916130928161303a565b61309e6001820161303a565b6130aa6002820161303a565b6130b66003820161303a565b6130c26004820161303a565b0161303a565b90600092918054916130d983612dfb565b91828252600193848116908160001461313b57506001146130fb575b50505050565b90919394506000526020928360002092846000945b8386106131275750505050010190388080806130f5565b805485870183015294019385908201613110565b9294505050602093945060ff191683830152151560051b010190388080806130f5565b602081830312612af7578051906001600160401b038211612af7570181601f82011215612af757805161319081612c17565b9261319e6040519485612bf6565b81845260208284010111612af757612bc29160208085019101612afc565b3d156131e7573d906131cd82612c17565b916131db6040519384612bf6565b82523d6000602084013e565b606090565b6000806132159260018060a01b03169360208151910182865af161320e6131bc565b908361325e565b8051908115159182613243575b505061322b5750565b60249060405190635274afe760e01b82526004820152fd5b6132569250602080918301019101612f4a565b153880613222565b90613285575080511561327357805190602001fd5b604051630a12f52160e11b8152600490fd5b815115806132b8575b613296575090565b604051639996b31560e01b81526001600160a01b039091166004820152602490fd5b50803b1561328e56fea2646970667358221220e6233e857b8438d9a9dca6f6a36bd7edb2331d095c0fe547cd3bb9290747f20764736f6c63430008140033",
  "linkReferences": {},
  "deployedLinkReferences": {}
}