{
  "_format": "hh-sol-artifact-1",
  "contractName": "MetadataModule",
  "sourceName": "contracts/protocol/NonUpgradable/MetadataModule.sol",
  "abi": [
    {
      "inputs": [
        {
          "internalType": "address",
          "name": "_initialOwner",
          "type": "address"
        }
      ],
      "stateMutability": "nonpayable",
      "type": "constructor"
    },
    {
      "inputs": [
        {
          "internalType": "address",
          "name": "target",
          "type": "address"
        }
      ],
      "name": "AddressEmptyCode",
      "type": "error"
    },
    {
      "inputs": [
        {
          "internalType": "address",
          "name": "account",
          "type": "address"
        }
      ],
      "name": "AddressInsufficientBalance",
      "type": "error"
    },
    {
      "inputs": [],
      "name": "FailedInnerCall",
      "type": "error"
    },
    {
      "inputs": [
        {
          "internalType": "address",
          "name": "owner",
          "type": "address"
        }
      ],
      "name": "OwnableInvalidOwner",
      "type": "error"
    },
    {
      "inputs": [
        {
          "internalType": "address",
          "name": "account",
          "type": "address"
        }
      ],
      "name": "OwnableUnauthorizedAccount",
      "type": "error"
    },
    {
      "inputs": [],
      "name": "ReentrancyGuardReentrantCall",
      "type": "error"
    },
    {
      "inputs": [
        {
          "internalType": "address",
          "name": "token",
          "type": "address"
        }
      ],
      "name": "SafeERC20FailedOperation",
      "type": "error"
    },
    {
      "anonymous": false,
      "inputs": [
        {
          "indexed": true,
          "internalType": "address",
          "name": "token",
          "type": "address"
        },
        {
          "indexed": true,
          "internalType": "address",
          "name": "recipient",
          "type": "address"
        },
        {
          "indexed": false,
          "internalType": "uint256",
          "name": "amount",
          "type": "uint256"
        }
      ],
      "name": "FeesWithdrawn",
      "type": "event"
    },
    {
      "anonymous": false,
      "inputs": [
        {
          "indexed": true,
          "internalType": "address",
          "name": "wrappedSong",
          "type": "address"
        },
        {
          "components": [
            {
              "internalType": "string",
              "name": "name",
              "type": "string"
            },
            {
              "internalType": "string",
              "name": "description",
              "type": "string"
            },
            {
              "internalType": "string",
              "name": "image",
              "type": "string"
            },
            {
              "internalType": "string",
              "name": "animationUrl",
              "type": "string"
            },
            {
              "internalType": "string",
              "name": "attributesIpfsHash",
              "type": "string"
            }
          ],
          "indexed": false,
          "internalType": "struct IMetadataModule.Metadata",
          "name": "newMetadata",
          "type": "tuple"
        }
      ],
      "name": "MetadataCreated",
      "type": "event"
    },
    {
      "anonymous": false,
      "inputs": [
        {
          "indexed": true,
          "internalType": "address",
          "name": "wrappedSong",
          "type": "address"
        }
      ],
      "name": "MetadataRemoved",
      "type": "event"
    },
    {
      "anonymous": false,
      "inputs": [
        {
          "indexed": true,
          "internalType": "address",
          "name": "wrappedSong",
          "type": "address"
        }
      ],
      "name": "MetadataUpdateRejected",
      "type": "event"
    },
    {
      "anonymous": false,
      "inputs": [
        {
          "indexed": true,
          "internalType": "address",
          "name": "wrappedSong",
          "type": "address"
        },
        {
          "components": [
            {
              "internalType": "string",
              "name": "name",
              "type": "string"
            },
            {
              "internalType": "string",
              "name": "description",
              "type": "string"
            },
            {
              "internalType": "string",
              "name": "image",
              "type": "string"
            },
            {
              "internalType": "string",
              "name": "animationUrl",
              "type": "string"
            },
            {
              "internalType": "string",
              "name": "attributesIpfsHash",
              "type": "string"
            }
          ],
          "indexed": false,
          "internalType": "struct IMetadataModule.Metadata",
          "name": "newMetadata",
          "type": "tuple"
        }
      ],
      "name": "MetadataUpdateRequested",
      "type": "event"
    },
    {
      "anonymous": false,
      "inputs": [
        {
          "indexed": true,
          "internalType": "address",
          "name": "wrappedSong",
          "type": "address"
        },
        {
          "components": [
            {
              "internalType": "string",
              "name": "name",
              "type": "string"
            },
            {
              "internalType": "string",
              "name": "description",
              "type": "string"
            },
            {
              "internalType": "string",
              "name": "image",
              "type": "string"
            },
            {
              "internalType": "string",
              "name": "animationUrl",
              "type": "string"
            },
            {
              "internalType": "string",
              "name": "attributesIpfsHash",
              "type": "string"
            }
          ],
          "indexed": false,
          "internalType": "struct IMetadataModule.Metadata",
          "name": "newMetadata",
          "type": "tuple"
        }
      ],
      "name": "MetadataUpdated",
      "type": "event"
    },
    {
      "anonymous": false,
      "inputs": [
        {
          "indexed": true,
          "internalType": "address",
          "name": "previousOwner",
          "type": "address"
        },
        {
          "indexed": true,
          "internalType": "address",
          "name": "newOwner",
          "type": "address"
        }
      ],
      "name": "OwnershipTransferred",
      "type": "event"
    },
    {
      "anonymous": false,
      "inputs": [
        {
          "indexed": true,
          "internalType": "address",
          "name": "wrappedSong",
          "type": "address"
        },
        {
          "indexed": true,
          "internalType": "address",
          "name": "token",
          "type": "address"
        },
        {
          "indexed": false,
          "internalType": "uint256",
          "name": "amount",
          "type": "uint256"
        }
      ],
      "name": "UpdateFeeCollected",
      "type": "event"
    },
    {
      "inputs": [
        {
          "internalType": "address",
          "name": "wrappedSong",
          "type": "address"
        }
      ],
      "name": "confirmUpdateMetadata",
      "outputs": [],
      "stateMutability": "payable",
      "type": "function"
    },
    {
      "inputs": [
        {
          "internalType": "address",
          "name": "wrappedSong",
          "type": "address"
        },
        {
          "components": [
            {
              "internalType": "string",
              "name": "name",
              "type": "string"
            },
            {
              "internalType": "string",
              "name": "description",
              "type": "string"
            },
            {
              "internalType": "string",
              "name": "image",
              "type": "string"
            },
            {
              "internalType": "string",
              "name": "animationUrl",
              "type": "string"
            },
            {
              "internalType": "string",
              "name": "attributesIpfsHash",
              "type": "string"
            }
          ],
          "internalType": "struct IMetadataModule.Metadata",
          "name": "newMetadata",
          "type": "tuple"
        }
      ],
      "name": "createMetadata",
      "outputs": [
        {
          "components": [
            {
              "internalType": "string",
              "name": "name",
              "type": "string"
            },
            {
              "internalType": "string",
              "name": "description",
              "type": "string"
            },
            {
              "internalType": "string",
              "name": "image",
              "type": "string"
            },
            {
              "internalType": "string",
              "name": "animationUrl",
              "type": "string"
            },
            {
              "internalType": "string",
              "name": "attributesIpfsHash",
              "type": "string"
            }
          ],
          "internalType": "struct IMetadataModule.Metadata",
          "name": "",
          "type": "tuple"
        }
      ],
      "stateMutability": "nonpayable",
      "type": "function"
    },
    {
      "inputs": [
        {
          "internalType": "address",
          "name": "wrappedSong",
          "type": "address"
        }
      ],
      "name": "getContractURI",
      "outputs": [
        {
          "internalType": "string",
          "name": "",
          "type": "string"
        }
      ],
      "stateMutability": "view",
      "type": "function"
    },
    {
      "inputs": [
        {
          "internalType": "address",
          "name": "wrappedSong",
          "type": "address"
        }
      ],
      "name": "getPendingMetadataUpdate",
      "outputs": [
        {
          "components": [
            {
              "internalType": "string",
              "name": "name",
              "type": "string"
            },
            {
              "internalType": "string",
              "name": "description",
              "type": "string"
            },
            {
              "internalType": "string",
              "name": "image",
              "type": "string"
            },
            {
              "internalType": "string",
              "name": "animationUrl",
              "type": "string"
            },
            {
              "internalType": "string",
              "name": "attributesIpfsHash",
              "type": "string"
            }
          ],
          "internalType": "struct IMetadataModule.Metadata",
          "name": "",
          "type": "tuple"
        }
      ],
      "stateMutability": "view",
      "type": "function"
    },
    {
      "inputs": [
        {
          "internalType": "address",
          "name": "wrappedSong",
          "type": "address"
        },
        {
          "internalType": "uint256",
          "name": "tokenId",
          "type": "uint256"
        }
      ],
      "name": "getTokenURI",
      "outputs": [
        {
          "internalType": "string",
          "name": "",
          "type": "string"
        }
      ],
      "stateMutability": "view",
      "type": "function"
    },
    {
      "inputs": [
        {
          "internalType": "address",
          "name": "wrappedSong",
          "type": "address"
        }
      ],
      "name": "getWrappedSongMetadata",
      "outputs": [
        {
          "components": [
            {
              "internalType": "string",
              "name": "name",
              "type": "string"
            },
            {
              "internalType": "string",
              "name": "description",
              "type": "string"
            },
            {
              "internalType": "string",
              "name": "image",
              "type": "string"
            },
            {
              "internalType": "string",
              "name": "animationUrl",
              "type": "string"
            },
            {
              "internalType": "string",
              "name": "attributesIpfsHash",
              "type": "string"
            }
          ],
          "internalType": "struct IMetadataModule.Metadata",
          "name": "",
          "type": "tuple"
        }
      ],
      "stateMutability": "view",
      "type": "function"
    },
    {
      "inputs": [
        {
          "internalType": "address",
          "name": "wrappedSong",
          "type": "address"
        }
      ],
      "name": "isMetadataUpdateConfirmed",
      "outputs": [
        {
          "internalType": "bool",
          "name": "",
          "type": "bool"
        }
      ],
      "stateMutability": "view",
      "type": "function"
    },
    {
      "inputs": [],
      "name": "owner",
      "outputs": [
        {
          "internalType": "address",
          "name": "",
          "type": "address"
        }
      ],
      "stateMutability": "view",
      "type": "function"
    },
    {
      "inputs": [],
      "name": "protocolModule",
      "outputs": [
        {
          "internalType": "contract IProtocolModule",
          "name": "",
          "type": "address"
        }
      ],
      "stateMutability": "view",
      "type": "function"
    },
    {
      "inputs": [
        {
          "internalType": "address",
          "name": "wrappedSong",
          "type": "address"
        }
      ],
      "name": "rejectUpdateMetadata",
      "outputs": [],
      "stateMutability": "nonpayable",
      "type": "function"
    },
    {
      "inputs": [
        {
          "internalType": "address",
          "name": "wrappedSong",
          "type": "address"
        }
      ],
      "name": "removeMetadata",
      "outputs": [],
      "stateMutability": "nonpayable",
      "type": "function"
    },
    {
      "inputs": [],
      "name": "renounceOwnership",
      "outputs": [],
      "stateMutability": "nonpayable",
      "type": "function"
    },
    {
      "inputs": [
        {
          "internalType": "address",
          "name": "wrappedSong",
          "type": "address"
        },
        {
          "components": [
            {
              "internalType": "string",
              "name": "name",
              "type": "string"
            },
            {
              "internalType": "string",
              "name": "description",
              "type": "string"
            },
            {
              "internalType": "string",
              "name": "image",
              "type": "string"
            },
            {
              "internalType": "string",
              "name": "animationUrl",
              "type": "string"
            },
            {
              "internalType": "string",
              "name": "attributesIpfsHash",
              "type": "string"
            }
          ],
          "internalType": "struct IMetadataModule.Metadata",
          "name": "newMetadata",
          "type": "tuple"
        }
      ],
      "name": "requestUpdateMetadata",
      "outputs": [],
      "stateMutability": "nonpayable",
      "type": "function"
    },
    {
      "inputs": [
        {
          "internalType": "address",
          "name": "_protocolModule",
          "type": "address"
        }
      ],
      "name": "setProtocolModule",
      "outputs": [],
      "stateMutability": "nonpayable",
      "type": "function"
    },
    {
      "inputs": [
        {
          "internalType": "address",
          "name": "newOwner",
          "type": "address"
        }
      ],
      "name": "transferOwnership",
      "outputs": [],
      "stateMutability": "nonpayable",
      "type": "function"
    },
    {
      "inputs": [
        {
          "internalType": "address",
          "name": "wrappedSong",
          "type": "address"
        },
        {
          "components": [
            {
              "internalType": "string",
              "name": "name",
              "type": "string"
            },
            {
              "internalType": "string",
              "name": "description",
              "type": "string"
            },
            {
              "internalType": "string",
              "name": "image",
              "type": "string"
            },
            {
              "internalType": "string",
              "name": "animationUrl",
              "type": "string"
            },
            {
              "internalType": "string",
              "name": "attributesIpfsHash",
              "type": "string"
            }
          ],
          "internalType": "struct IMetadataModule.Metadata",
          "name": "newMetadata",
          "type": "tuple"
        }
      ],
      "name": "updateMetadata",
      "outputs": [],
      "stateMutability": "payable",
      "type": "function"
    },
    {
      "inputs": [
        {
          "internalType": "address",
          "name": "token",
          "type": "address"
        },
        {
          "internalType": "address",
          "name": "recipient",
          "type": "address"
        }
      ],
      "name": "withdrawAccumulatedFees",
      "outputs": [],
      "stateMutability": "nonpayable",
      "type": "function"
    },
    {
      "stateMutability": "payable",
      "type": "receive"
    }
  ],
  "bytecode": "0x608034620000c657601f6200310038819003918201601f19168301916001600160401b03831184841017620000cb57808492602094604052833981010312620000c657516001600160a01b039081811690819003620000c6578015620000ad57600080546001600160a01b03198116831782556040519316907f8be0079c531659141344cd1fd0a4f28419497f9722a3daafe3b4186f6b6457e09080a36001805561301e9081620000e28239f35b604051631e4fbdf760e01b815260006004820152602490fd5b600080fd5b634e487b7160e01b600052604160045260246000fdfe6080604052600436101561001b575b361561001957600080fd5b005b6000803560e01c80630918c9c8146120d15780630b63fd6214611fa0578063187de53b14611c61578063349cdba014611c13578063374e264814611a79578063376c1f07146118b35780635c42e6671461188a578063715018a6146118305780638620ebd0146111e15780638da5cb5b146111ba5780639205fafe14610fad578063a859dcde14610f0d578063a9edb0f514610dce578063da195bd314610289578063da67603e146101a9578063dac73c991461016a5763f2fde38b146100e2575061000e565b34610167576020366003190112610167576100fb61284e565b610103612ab8565b6001600160a01b0390811690811561014e5782546001600160a01b0319811683178455167f8be0079c531659141344cd1fd0a4f28419497f9722a3daafe3b4186f6b6457e08380a380f35b604051631e4fbdf760e01b815260048101849052602490fd5b80fd5b50346101675760203660031901126101675760209060ff906040906001600160a01b0361019561284e565b168152600884522054166040519015158152f35b5034610167576020366003190112610167576040610285916101c961284e565b6101d1612ae4565b506001600160a01b031681526007602052206040519060049061026c906101f784612869565b60405161020f816102088185612def565b038261289a565b8452604051610225816102088160018601612def565b602085015260405161023e816102088160028601612def565b6040850152604051610257816102088160038601612def565b60608501526102086040518094819301612def565b6080820152604051918291602083526020830190612a4c565b0390f35b5034610167576102983661291d565b60025460405163670d296960e11b808252949392916020916001600160a01b0391821691908381600481865afa908115610da657829185918991610db1575b506004604051809481936365bb98b560e01b8352165afa908115610da6579082918891610d89575b5016966001600160601b0360a01b9060039880838b5416178a5561032a61032588612bc6565b612c0b565b604051638da5cb5b60e01b81529784169786816004818c5afa908115610c77578a91610d6c575b508433911603610d14576040516306f8718960e31b8152600481018990526024959493929187908290889082905afa908115610c77578a91610cf7575b5015610c9f576040518181528681600481885afa908115610c7757849188918c91610c82575b50600460405180948193636d4726d960e01b8352165afa908115610c77579084918b91610c39575b50169081836004541617600455604051946374816e3760e01b86528786600481865afa958615610ba8578b96610c0a575b5060405163d579e3f360e01b8152918883600481875afa928315610bff579089918d94610bd0575b5060046040518094819382525afa908115610ba857859189918d91610bb3575b506004604051809481936309da4e5160e01b8352165afa908115610ba8579085918c91610b6a575b5016809360055416176005558415159081600014610b5f5715610ad5575085600491604051928380926337a0a9e960e11b82525afa908115610aca579086918a91610a97575b508560405180948193637c70c0a360e01b835260048301525afa908115610a8c578891610a5f575b5016908115610a0f5761052a6040516323b872dd60e01b8682015233858201523060448201528260648201526064815261052481612869565b83612f13565b81875260098452604087208054908282018092116109fa57556040519081527f785bfd9070b1fa5b19bfa2ac4637328df950f5e0adafe5873360de4e23b6d8a0843392a35b83855260078252604085209583519081516001600160401b03928382116109e75781906105a6826105a08d54612b2e565b8d612b7f565b8690601f8311600114610985578a9261097a575b50508160011b9160001990841b1c19161788555b600197888101858701518051908582116108f55781906105f8826105f28654612b2e565b86612b7f565b8890601f8311600114610913578c92610908575b505060001982861b1c1916908b1b1790555b6002810160408701518051908582116108f5578190610641826105f28654612b2e565b8890601f831160011461088e578c92610883575b505060001982861b1c1916908b1b1790555b60608601518051848111610870578383019161068d826106878554612b2e565b85612b7f565b8790601f83116001146107ff576004949392918c91836107f4575b505060001982871b1c1916908c1b1790555b019260808601519081519384116107e257506106da836105f28654612b2e565b8490601f841160011461075f57889984939284927f50736c611636e8a71f4d4edc089bfbc4f03d9c3400b30509227d8d393b8e85199a9b95610754575b50501b92600019911b1c19161790555b838552600881526040852060ff19815416905561074e604051928284938452830190612a4c565b0390a280f35b015193503880610717565b989291601f19831691858a52868a20928a5b8181106107cd57509a847f50736c611636e8a71f4d4edc089bfbc4f03d9c3400b30509227d8d393b8e85199a9b9c106107b3575b50505050811b019055610727565b01519060f884600019921b161c19169055388080806107a5565b8c830151855593860193918801918801610771565b634e487b7160e01b8952604160045288fd5b0151905038806106a8565b9392918c91838d52898d20908d601f198416905b8c82821061084d575050968360049810610835575b505050811b0190556106ba565b015160001983891b60f8161c19169055388080610828565b919295899487849397999a9b015181550195019301908f94929796959391610813565b634e487b7160e01b8a526041600452858afd5b015190503880610655565b848d52898d208e94509190601f1984168e5b8c8282106108d657505084116108be575b505050811b019055610667565b015160001983881b60f8161c191690553880806108b1565b91929395968291958786015181550195019301908f95949392916108a0565b634e487b7160e01b8b526041600452868bfd5b01519050388061060c565b848d52898d208e94509190601f1984168e5b8c82821061095b5750508411610943575b505050811b01905561061e565b015160001983881b60f8161c19169055388080610936565b91929395968291958786015181550195019301908f9594939291610925565b0151905038806105ba565b8b8b52878b209250601f1984168b5b898282106109d15750509084600195949392106109b9575b505050811b0188556105ce565b015160001983861b60f8161c191690553880806109ac565b6001859682939686015181550195019301610994565b634e487b7160e01b895260416004528489fd5b84634e487b7160e01b60005260116004526000fd5b60405162461bcd60e51b8152600481018590526023818501527f4e6f2077686974656c697374656420737461626c65636f696e20617661696c61604482015262626c6560e81b6064820152608490fd5b610a7f9150853d8711610a85575b610a77818361289a565b810190612b0f565b386104eb565b503d610a6d565b6040513d8a823e3d90fd5b82819392503d8311610ac3575b610aae818361289a565b81010312610abf57859051386104c3565b8880fd5b503d610aa4565b6040513d8b823e3d90fd5b9350505050949094610b1b57808052600982529360006040518181527f785bfd9070b1fa5b19bfa2ac4637328df950f5e0adafe5873360de4e23b6d8a0843392a361056f565b60405162461bcd60e51b8152600481018390526018818701527f496e636f7272656374204554482066656520616d6f756e7400000000000000006044820152606490fd5b50505050505061056f565b809250898092503d8311610ba1575b610b83818361289a565b81010312610b9d57518481168103610b9d5784903861047d565b8a80fd5b503d610b79565b6040513d8d823e3d90fd5b610bca9150823d8411610a8557610a77818361289a565b38610455565b610bf1919450823d8411610bf8575b610be9818361289a565b810190612c7d565b9238610435565b503d610bdf565b6040513d8e823e3d90fd5b9095508781813d8311610c32575b610c22818361289a565b81010312610b9d5751943861040d565b503d610c18565b809250888092503d8311610c70575b610c52818361289a565b81010312610c6c57518381168103610c6c578390386103dc565b8980fd5b503d610c48565b6040513d8c823e3d90fd5b610c999150823d8411610a8557610a77818361289a565b386103b4565b60405162461bcd60e51b815260048101879052602b818701527f536f6e67206e6f742072656c65617365642c20757064617465206d657461646160448201526a7461206469726563746c7960a81b6064820152608490fd5b610d0e9150873d8911610bf857610be9818361289a565b3861038e565b60405162461bcd60e51b815260048101879052602a60248201527f4f6e6c79207772617070656420736f6e67206f776e65722063616e20726571756044820152696573742075706461746560b01b6064820152608490fd5b610d839150873d8911610a8557610a77818361289a565b38610351565b610da09150853d8711610a8557610a77818361289a565b386102ff565b6040513d89823e3d90fd5b610dc89150823d8411610a8557610a77818361289a565b386102d7565b503461016757602080600319360112610f09576001600160a01b03610df161284e565b1690338203610eb75781835260068152610e0e6040842054612b2e565b15610e735760089082845260068152610e2960408520612db6565b82845260078152610e3c60408520612db6565b8284525260408220805460ff191690557f850e5df914b57ac32b9b4cfb02944f8e955f9991d54ae5ccac3936a7b205cace8280a280f35b6064906040519062461bcd60e51b82526004820152601760248201527f4d6574616461746120646f6573206e6f742065786973740000000000000000006044820152fd5b6084906040519062461bcd60e51b82526004820152602560248201527f4f6e6c79207772617070656420736f6e672063616e2072656d6f7665206d6574604482015264616461746160d81b6064820152fd5b5080fd5b503461016757602036600319011261016757610f2761284e565b610f2f612ab8565b6001600160a01b03168015610f6857600280546001600160a01b0319169190911790556005805460ff60a01b1916600160a01b17905580f35b60405162461bcd60e51b815260206004820152601f60248201527f496e76616c69642070726f746f636f6c206d6f64756c652061646472657373006044820152606490fd5b503461016757602080600319360112610f0957610fc861284e565b60025460405163670d296960e11b81529192916001600160a01b039183908290600490829086165afa9081156111585782918491879161119d575b506004604051809481936365bb98b560e01b8352165afa80156111585782849181938891611180575b501694856001600160601b0360a01b6003541617600355602460405180948193633aa690e760e01b835216978860048301525afa90811561115857829184918791611163575b50600460405180948193638da5cb5b60e01b8352165afa90811561115857859161113b575b501633036110ec57600890828452600781526110b560408520612db6565b8284525260408220805460ff191690557f44983a324fa169af1e5f7fc334fe51324c21a0f94c8407867926cb4266b0cb548280a280f35b6084906040519062461bcd60e51b82526004820152602260248201527f4f6e6c79206469737472696275746f722063616e2072656a6563742075706461604482015261746560f01b6064820152fd5b6111529150833d8511610a8557610a77818361289a565b38611097565b6040513d87823e3d90fd5b61117a9150823d8411610a8557610a77818361289a565b38611072565b6111979150833d8511610a8557610a77818361289a565b3861102c565b6111b49150823d8411610a8557610a77818361289a565b38611003565b5034610167578060031936011261016757546040516001600160a01b039091168152602090f35b506111eb3661291d565b60025460405163670d296960e11b81529293926001600160a01b0392916020919082908290600490829088165afa90811561115857849183918791611813575b506004604051809481936365bb98b560e01b8352165afa9081156111585790849186916117f6575b5016600395816001600160601b0360a01b8854161787558460405191638da5cb5b60e01b835216948382600481895afa918215610da65787926117d7575b5016331480156117ce575b15611777576040516306f8718960e31b81526004810185905260249183908290849082905afa90811561176c57869161174f575b506116f6576112e161032584612bc6565b83855260068252604085209583519081516001600160401b03928382116109e7578190611312826105a08d54612b2e565b8690601f8311600114611694578a92611689575b50508160011b9160001990841b1c19161788555b600197888101858701518051908582116108f557819061135e826105f28654612b2e565b8890601f8311600114611622578c92611617575b505060001982861b1c1916908b1b1790555b6002810160408701518051908582116108f55781906113a7826105f28654612b2e565b8890601f83116001146115b0578c926115a5575b505060001982861b1c1916908b1b1790555b6060860151805184811161087057838301916113ed826106878554612b2e565b8790601f8311600114611534576004949392918c9183611529575b505060001982871b1c1916908c1b1790555b019260808601519081519384116107e2575061143a836105f28654612b2e565b8490601f84116001146114a657889984939284927f39c45bc0caecb7b1ae8946778e0c65cc3bc8ad0f7120c736302fb61d74902def9a9b9561149b575b50501b92600019911b1c19161790555b61074e604051928284938452830190612a4c565b015193503880611477565b989291601f19831691858a52868a20928a5b81811061151457509a847f39c45bc0caecb7b1ae8946778e0c65cc3bc8ad0f7120c736302fb61d74902def9a9b9c106114fa575b50505050811b019055611487565b01519060f884600019921b161c19169055388080806114ec565b8c8301518555938601939188019188016114b8565b015190503880611408565b9392918c91838d52898d20908d601f198416905b8c82821061158257505096836004981061156a575b505050811b01905561141a565b015160001983891b60f8161c1916905538808061155d565b919295899487849397999a9b015181550195019301908f94929796959391611548565b0151905038806113bb565b848d52898d208e94509190601f1984168e5b8c8282106115f857505084116115e0575b505050811b0190556113cd565b015160001983881b60f8161c191690553880806115d3565b91929395968291958786015181550195019301908f95949392916115c2565b015190503880611372565b848d52898d208e94509190601f1984168e5b8c82821061166a5750508411611652575b505050811b019055611384565b015160001983881b60f8161c19169055388080611645565b91929395968291958786015181550195019301908f9594939291611634565b015190503880611326565b8b8b52878b209250601f1984168b5b898282106116e05750509084600195949392106116c8575b505050811b01885561133a565b015160001983861b60f8161c191690553880806116bb565b60018596829396860151815501950193016116a3565b90602d6084926040519262461bcd60e51b845260048401528201527f43616e6e6f7420757064617465206d65746164617461206469726563746c792060448201526c61667465722072656c6561736560981b6064820152fd5b6117669150833d8511610bf857610be9818361289a565b386112d0565b6040513d88823e3d90fd5b60405162461bcd60e51b815260048101839052602960248201527f4f6e6c79207772617070656420736f6e67206f7220697473206f776e65722063604482015268616e2075706461746560b81b6064820152608490fd5b5080331461129c565b6117ef919250843d8611610a8557610a77818361289a565b9038611291565b61180d9150833d8511610a8557610a77818361289a565b38611253565b61182a9150823d8411610a8557610a77818361289a565b3861122b565b5034610167578060031936011261016757611849612ab8565b80546001600160a01b03198116825581906001600160a01b03167f8be0079c531659141344cd1fd0a4f28419497f9722a3daafe3b4186f6b6457e08280a380f35b50346101675780600319360112610167576002546040516001600160a01b039091168152602090f35b5034610167576040366003190112610167576118cd61284e565b6001600160a01b036024358181169290839003611a75576118ec612ab8565b600260015414611a635760026001551680835260206009815260408420548015611a28578285526009825284604081205582156000146119a9578480808084885af1611936612ee3565b501561196e57907f5e110f8bc8a20b65dcc87f224bdf1cc039346e267118bae2739847f07321ffa8915b604051908152a36001805580f35b60405162461bcd60e51b8152600481018390526013602482015272115512081d1c985b9cd9995c8819985a5b1959606a1b6044820152606490fd5b60405163a9059cbb60e01b8382015284602482015281604482015260448152608081018181106001600160401b03821117611a14577f5e110f8bc8a20b65dcc87f224bdf1cc039346e267118bae2739847f07321ffa8939291611a0f9160405285612f13565b611960565b634e487b7160e01b87526041600452602487fd5b60405162461bcd60e51b81526004810183905260136024820152724e6f206665657320746f20776974686472617760681b6044820152606490fd5b604051633ee5aeb560e01b8152600490fd5b8380fd5b503461016757602080600319360112610f09576001600160a01b0380611a9d61284e565b16908115611bc257611b6384918383526006855260408320906004611b3560405193611ac885612869565b604051611ad9816102088185612def565b8552604051611aef816102088160018601612def565b89860152604051611b07816102088160028601612def565b6040860152604051611b20816102088160038601612def565b60608601526102086040518094819301612def565b6080830152600254169060405180958194829363be4f03cb60e01b8452604060048501526044840190612a4c565b90602483015203915afa928315611bb6578093611b91575b5050610285604051928284938452830190612a27565b611bae9293503d8091833e611ba6818361289a565b810190612e85565b903880611b7b565b604051903d90823e3d90fd5b60405162461bcd60e51b815260048101849052602360248201527f5772617070656420736f6e6720616464726573732063616e6e6f74206265207a60448201526265726f60e81b6064820152608490fd5b503461016757602036600319011261016757604061028591611c3361284e565b611c3b612ae4565b506001600160a01b031681526006602052206040519060049061026c906101f784612869565b50602080600319360112610f0957611c7761284e565b60025460405163670d296960e11b81529192916001600160a01b039183908290600490829086165afa90811561115857829184918791611f83575b506004604051809481936365bb98b560e01b8352165afa80156111585782849181938891611f66575b501694856001600160601b0360a01b6003541617600355602460405180948193633aa690e760e01b835216978860048301525afa90811561115857829184918791611f49575b50600460405180948193638da5cb5b60e01b8352165afa908115611158578591611f2c575b50163303611edc578183526008815260ff604084205416611e985760a07f39c45bc0caecb7b1ae8946778e0c65cc3bc8ad0f7120c736302fb61d74902def9183855260078152604085206006825260408620818103611e48575b505083855260078152611db560408620612db6565b8385526008815260408520600160ff198254161790556006815261074e604086206040519383859485528401526004611df160c0850183612def565b91611e38611e25611e12601f1995868982030160408a015260018501612def565b8588820301606089015260028401612def565b8487820301608088015260038301612def565b928584030160a086015201612def565b60048083611e59611e919585612c95565b611e696001820160018601612c95565b611e796002820160028601612c95565b611e896003820160038601612c95565b019101612c95565b3880611da0565b6064906040519062461bcd60e51b82526004820152601a60248201527f4e6f2070656e64696e67206d65746164617461207570646174650000000000006044820152fd5b6084906040519062461bcd60e51b82526004820152602360248201527f4f6e6c79206469737472696275746f722063616e20636f6e6669726d2075706460448201526261746560e81b6064820152fd5b611f439150833d8511610a8557610a77818361289a565b38611d46565b611f609150823d8411610a8557610a77818361289a565b38611d21565b611f7d9150833d8511610a8557610a77818361289a565b38611cdb565b611f9a9150823d8411610a8557610a77818361289a565b38611cb2565b503461016757604036600319011261016757611fba61284e565b6024359060018060a01b038091168084526006602052604084206004611fe6604051926101f784612869565b60808201526003841015612080576120238593600254169160405195869485938493632e5cc1a760e01b8552606060048601526064850190612a4c565b916024840152604483015203915afa9081156120755782610285939261205a575b5050604051918291602083526020830190612a27565b61206e92503d8091833e611ba6818361289a565b3880612044565b6040513d84823e3d90fd5b60405162461bcd60e51b8152602060048201526024808201527f496e76616c696420746f6b656e20494420666f72206d65746164617461206d6f60448201526364756c6560e01b6064820152608490fd5b5034610167576120e03661291d565b906120e9612ae4565b5060405192606084018481106001600160401b0382111761255357604052602384527f4372656174696e67206d6574616461746120666f72207772617070656420736f60208501526237339d60e91b6040850152604051938180612166602088019363319af33360e01b8552604060248a01526064890190612a27565b6001600160a01b0386811660448a0152601f19918990039182018952979061218e908261289a565b516a636f6e736f6c652e6c6f6793845afa50835160405190604082018281106001600160401b0382111761283a579161222061222e8695938695604052600d84526c2732bb9036b2ba30b230ba309d60991b602085015260405192839161220e6020840196634b5c427760e01b8852604060248601526064850190612a27565b83810360231901604485015290612a27565b03601f19810183528261289a565b51915afa506024602085600254166040519283809263058dba2f60e11b825289881660048301525afa90811561207557908591839161281b575b5016156127d657838216815260066020526122866040822054612b2e565b6127915761229383612bc6565b1561275957838216815260066020526040812083518051906001600160401b0382116125e25781906122c9826105f28654612b2e565b602090601f83116001146126f55785926126ea575b50508160011b916000199060031b1c19161781555b60208401518051906001600160401b0382116125e25781906123258261231c6001870154612b2e565b60018701612b7f565b602090601f831160011461267b578592612670575b50508160011b916000199060031b1c19161760018201555b60408401518051906001600160401b0382116125e25781906123848261237b6002870154612b2e565b60028701612b7f565b602090601f83116001146126015785926125f6575b50508160011b916000199060031b1c19161760028201555b60608401518051906001600160401b0382116125e2576123e1826123d86003860154612b2e565b60038601612b7f565b602090601f8311600114612572576004939291859183612567575b50508160011b916000199060031b1c19161760038201555b01906080840151908151916001600160401b0383116125535761243b836105f28654612b2e565b602091601f84116001146124c957927fb59b3cfa55f5ac2ad4ad0dd7161dc77392b6b65a6a58102e029d5b8b66c60c72949281926102859995926124be575b50508160011b916000199060031b1c19161790555b60405192602084521691806124a76020820186612a4c565b0390a2604051918291602083526020830190612a4c565b01519050388061247a565b9190601f19841685845260208420935b81811061253b57509260019285926102859a967fb59b3cfa55f5ac2ad4ad0dd7161dc77392b6b65a6a58102e029d5b8b66c60c72989610612522575b505050811b01905561248f565b015160001960f88460031b161c19169055388080612515565b929360206001819287860151815501950193016124d9565b634e487b7160e01b82526041600452602482fd5b0151905038806123fc565b906003840185526020852091855b601f19851681106125ca575091839160019360049695601f198116106125b1575b505050811b016003820155612414565b015160001960f88460031b161c191690553880806125a1565b91926020600181928685015181550194019201612580565b634e487b7160e01b84526041600452602484fd5b015190503880612399565b9250600284018552602085209085935b601f1984168510612655576001945083601f1981161061263c575b505050811b0160028201556123b1565b015160001960f88460031b161c1916905538808061262c565b81810151835560209485019460019093019290910190612611565b01519050388061233a565b9250600184018552602085209085935b601f19841685106126cf576001945083601f198116106126b6575b505050811b016001820155612352565b015160001960f88460031b161c191690553880806126a6565b8181015183556020948501946001909301929091019061268b565b0151905038806122de565b848652602086209250601f198416865b8181106127415750908460019594939210612728575b505050811b0181556122f3565b015160001960f88460031b161c1916905538808061271b565b92936020600181928786015181550195019301612705565b60405162461bcd60e51b815260206004820152601060248201526f496e76616c6964206d6574616461746160801b6044820152606490fd5b60405162461bcd60e51b815260206004820152601760248201527f4d6574616461746120616c7265616479206578697374730000000000000000006044820152606490fd5b60405162461bcd60e51b815260206004820152601960248201527f41646472657373206e6f7420612070726f746f636f6c205753000000000000006044820152606490fd5b612834915060203d602011610a8557610a77818361289a565b38612268565b634e487b7160e01b85526041600452602485fd5b600435906001600160a01b038216820361286457565b600080fd5b60a081019081106001600160401b0382111761288457604052565b634e487b7160e01b600052604160045260246000fd5b90601f801991011681019081106001600160401b0382111761288457604052565b6001600160401b03811161288457601f01601f191660200190565b81601f82011215612864578035906128ed826128bb565b926128fb604051948561289a565b8284526020838301011161286457816000926020809301838601378301015290565b9060031960408184011261286457600480356001600160a01b03811681036128645793602435916001600160401b03938484116128645760a0908484030112612864576040519361296d85612869565b83820135818111612864578383612986928701016128d6565b855260248401358181116128645783836129a2928701016128d6565b602086015260448401358181116128645783836129c1928701016128d6565b604086015260648401358181116128645783836129e0928701016128d6565b60608601526084840135908111612864576129fc9301016128d6565b608082015290565b60005b838110612a175750506000910152565b8181015183820152602001612a07565b90602091612a4081518092818552858086019101612a04565b601f01601f1916010190565b612ab5916080612aa4612a92612a80612a6e865160a0875260a0870190612a27565b60208701518682036020880152612a27565b60408601518582036040870152612a27565b60608501518482036060860152612a27565b920151906080818403910152612a27565b90565b6000546001600160a01b03163303612acc57565b60405163118cdaa760e01b8152336004820152602490fd5b60405190612af182612869565b81608060609182815282602082015282604082015282808201520152565b9081602091031261286457516001600160a01b03811681036128645790565b90600182811c92168015612b5e575b6020831014612b4857565b634e487b7160e01b600052602260045260246000fd5b91607f1691612b3d565b818110612b73575050565b60008155600101612b68565b9190601f8111612b8e57505050565b612bba926000526020600020906020601f840160051c83019310612bbc575b601f0160051c0190612b68565b565b9091508190612bad565b80515115159081612bfc575b81612bed575b81612be1575090565b60809150015151151590565b60608101515115159150612bd8565b60408101515115159150612bd2565b15612c1257565b60405162461bcd60e51b815260206004820152603760248201527f496e76616c6964206d657461646174613a20416c6c207265717569726564206660448201527f69656c6473206d757374206265206e6f6e2d656d7074790000000000000000006064820152608490fd5b90816020910312612864575180151581036128645790565b90808214612d6957612ca78154612b2e565b906001600160401b038211612884578190612cc6826105f28654612b2e565b600090601f8311600114612cfd57600092612cf2575b50508160011b916000199060031b1c1916179055565b015490503880612cdc565b81526020808220858352818320935090601f1985169083905b828210612d50575050908460019594939210612d37575b505050811b019055565b015460001960f88460031b161c19169055388080612d2d565b8495819295850154815560018091019601940190612d16565b5050565b612d778154612b2e565b9081612d81575050565b81601f60009311600114612d93575055565b908083918252612db2601f60208420940160051c840160018501612b68565b5555565b6004612bba91612dc581612d6d565b612dd160018201612d6d565b612ddd60028201612d6d565b612de960038201612d6d565b01612d6d565b9060009291805491612e0083612b2e565b918282526001938481169081600014612e625750600114612e22575b50505050565b90919394506000526020928360002092846000945b838610612e4e575050505001019038808080612e1c565b805485870183015294019385908201612e37565b9294505050602093945060ff191683830152151560051b01019038808080612e1c565b602081830312612864578051906001600160401b038211612864570181601f82011215612864578051612eb7816128bb565b92612ec5604051948561289a565b8184526020828401011161286457612ab59160208085019101612a04565b3d15612f0e573d90612ef4826128bb565b91612f02604051938461289a565b82523d6000602084013e565b606090565b600080612f3c9260018060a01b03169360208151910182865af1612f35612ee3565b9083612f85565b8051908115159182612f6a575b5050612f525750565b60249060405190635274afe760e01b82526004820152fd5b612f7d9250602080918301019101612c7d565b153880612f49565b90612fac5750805115612f9a57805190602001fd5b604051630a12f52160e11b8152600490fd5b81511580612fdf575b612fbd575090565b604051639996b31560e01b81526001600160a01b039091166004820152602490fd5b50803b15612fb556fea2646970667358221220e5b1b1351493ce6f487a49eb22de01034d9a9e171bdfbdf0b4337d0b8721dd1564736f6c63430008140033",
  "linkReferences": {},
  "deployedLinkReferences": {}
}