{
  "_format": "hh-sol-artifact-1",
  "contractName": "MetadataModule",
  "sourceName": "contracts/protocol/NonUpgradable/MetadataModule.sol",
  "abi": [
    {
      "inputs": [
        {
          "internalType": "address",
          "name": "_initialOwner",
          "type": "address"
        }
      ],
      "stateMutability": "nonpayable",
      "type": "constructor"
    },
    {
      "inputs": [
        {
          "internalType": "address",
          "name": "target",
          "type": "address"
        }
      ],
      "name": "AddressEmptyCode",
      "type": "error"
    },
    {
      "inputs": [
        {
          "internalType": "address",
          "name": "account",
          "type": "address"
        }
      ],
      "name": "AddressInsufficientBalance",
      "type": "error"
    },
    {
      "inputs": [],
      "name": "FailedInnerCall",
      "type": "error"
    },
    {
      "inputs": [
        {
          "internalType": "address",
          "name": "owner",
          "type": "address"
        }
      ],
      "name": "OwnableInvalidOwner",
      "type": "error"
    },
    {
      "inputs": [
        {
          "internalType": "address",
          "name": "account",
          "type": "address"
        }
      ],
      "name": "OwnableUnauthorizedAccount",
      "type": "error"
    },
    {
      "inputs": [],
      "name": "ReentrancyGuardReentrantCall",
      "type": "error"
    },
    {
      "inputs": [
        {
          "internalType": "address",
          "name": "token",
          "type": "address"
        }
      ],
      "name": "SafeERC20FailedOperation",
      "type": "error"
    },
    {
      "anonymous": false,
      "inputs": [
        {
          "indexed": true,
          "internalType": "address",
          "name": "token",
          "type": "address"
        },
        {
          "indexed": true,
          "internalType": "address",
          "name": "recipient",
          "type": "address"
        },
        {
          "indexed": false,
          "internalType": "uint256",
          "name": "amount",
          "type": "uint256"
        }
      ],
      "name": "FeesWithdrawn",
      "type": "event"
    },
    {
      "anonymous": false,
      "inputs": [
        {
          "indexed": true,
          "internalType": "address",
          "name": "wrappedSong",
          "type": "address"
        },
        {
          "components": [
            {
              "internalType": "string",
              "name": "name",
              "type": "string"
            },
            {
              "internalType": "string",
              "name": "description",
              "type": "string"
            },
            {
              "internalType": "string",
              "name": "image",
              "type": "string"
            },
            {
              "internalType": "string",
              "name": "externalUrl",
              "type": "string"
            },
            {
              "internalType": "string",
              "name": "animationUrl",
              "type": "string"
            },
            {
              "internalType": "string",
              "name": "attributesIpfsHash",
              "type": "string"
            }
          ],
          "indexed": false,
          "internalType": "struct IMetadataModule.Metadata",
          "name": "newMetadata",
          "type": "tuple"
        }
      ],
      "name": "MetadataCreated",
      "type": "event"
    },
    {
      "anonymous": false,
      "inputs": [
        {
          "indexed": true,
          "internalType": "address",
          "name": "wrappedSong",
          "type": "address"
        }
      ],
      "name": "MetadataRemoved",
      "type": "event"
    },
    {
      "anonymous": false,
      "inputs": [
        {
          "indexed": true,
          "internalType": "address",
          "name": "wrappedSong",
          "type": "address"
        }
      ],
      "name": "MetadataUpdateRejected",
      "type": "event"
    },
    {
      "anonymous": false,
      "inputs": [
        {
          "indexed": true,
          "internalType": "address",
          "name": "wrappedSong",
          "type": "address"
        },
        {
          "components": [
            {
              "internalType": "string",
              "name": "name",
              "type": "string"
            },
            {
              "internalType": "string",
              "name": "description",
              "type": "string"
            },
            {
              "internalType": "string",
              "name": "image",
              "type": "string"
            },
            {
              "internalType": "string",
              "name": "externalUrl",
              "type": "string"
            },
            {
              "internalType": "string",
              "name": "animationUrl",
              "type": "string"
            },
            {
              "internalType": "string",
              "name": "attributesIpfsHash",
              "type": "string"
            }
          ],
          "indexed": false,
          "internalType": "struct IMetadataModule.Metadata",
          "name": "newMetadata",
          "type": "tuple"
        }
      ],
      "name": "MetadataUpdateRequested",
      "type": "event"
    },
    {
      "anonymous": false,
      "inputs": [
        {
          "indexed": true,
          "internalType": "address",
          "name": "wrappedSong",
          "type": "address"
        },
        {
          "components": [
            {
              "internalType": "string",
              "name": "name",
              "type": "string"
            },
            {
              "internalType": "string",
              "name": "description",
              "type": "string"
            },
            {
              "internalType": "string",
              "name": "image",
              "type": "string"
            },
            {
              "internalType": "string",
              "name": "externalUrl",
              "type": "string"
            },
            {
              "internalType": "string",
              "name": "animationUrl",
              "type": "string"
            },
            {
              "internalType": "string",
              "name": "attributesIpfsHash",
              "type": "string"
            }
          ],
          "indexed": false,
          "internalType": "struct IMetadataModule.Metadata",
          "name": "newMetadata",
          "type": "tuple"
        }
      ],
      "name": "MetadataUpdated",
      "type": "event"
    },
    {
      "anonymous": false,
      "inputs": [
        {
          "indexed": true,
          "internalType": "address",
          "name": "previousOwner",
          "type": "address"
        },
        {
          "indexed": true,
          "internalType": "address",
          "name": "newOwner",
          "type": "address"
        }
      ],
      "name": "OwnershipTransferred",
      "type": "event"
    },
    {
      "anonymous": false,
      "inputs": [
        {
          "indexed": true,
          "internalType": "address",
          "name": "wrappedSong",
          "type": "address"
        },
        {
          "indexed": true,
          "internalType": "address",
          "name": "token",
          "type": "address"
        },
        {
          "indexed": false,
          "internalType": "uint256",
          "name": "amount",
          "type": "uint256"
        }
      ],
      "name": "UpdateFeeCollected",
      "type": "event"
    },
    {
      "inputs": [
        {
          "internalType": "address",
          "name": "wrappedSong",
          "type": "address"
        }
      ],
      "name": "confirmUpdateMetadata",
      "outputs": [],
      "stateMutability": "payable",
      "type": "function"
    },
    {
      "inputs": [
        {
          "internalType": "address",
          "name": "wrappedSong",
          "type": "address"
        },
        {
          "components": [
            {
              "internalType": "string",
              "name": "name",
              "type": "string"
            },
            {
              "internalType": "string",
              "name": "description",
              "type": "string"
            },
            {
              "internalType": "string",
              "name": "image",
              "type": "string"
            },
            {
              "internalType": "string",
              "name": "externalUrl",
              "type": "string"
            },
            {
              "internalType": "string",
              "name": "animationUrl",
              "type": "string"
            },
            {
              "internalType": "string",
              "name": "attributesIpfsHash",
              "type": "string"
            }
          ],
          "internalType": "struct IMetadataModule.Metadata",
          "name": "newMetadata",
          "type": "tuple"
        }
      ],
      "name": "createMetadata",
      "outputs": [
        {
          "components": [
            {
              "internalType": "string",
              "name": "name",
              "type": "string"
            },
            {
              "internalType": "string",
              "name": "description",
              "type": "string"
            },
            {
              "internalType": "string",
              "name": "image",
              "type": "string"
            },
            {
              "internalType": "string",
              "name": "externalUrl",
              "type": "string"
            },
            {
              "internalType": "string",
              "name": "animationUrl",
              "type": "string"
            },
            {
              "internalType": "string",
              "name": "attributesIpfsHash",
              "type": "string"
            }
          ],
          "internalType": "struct IMetadataModule.Metadata",
          "name": "",
          "type": "tuple"
        }
      ],
      "stateMutability": "nonpayable",
      "type": "function"
    },
    {
      "inputs": [
        {
          "internalType": "address",
          "name": "wrappedSong",
          "type": "address"
        }
      ],
      "name": "getPendingMetadataUpdate",
      "outputs": [
        {
          "components": [
            {
              "internalType": "string",
              "name": "name",
              "type": "string"
            },
            {
              "internalType": "string",
              "name": "description",
              "type": "string"
            },
            {
              "internalType": "string",
              "name": "image",
              "type": "string"
            },
            {
              "internalType": "string",
              "name": "externalUrl",
              "type": "string"
            },
            {
              "internalType": "string",
              "name": "animationUrl",
              "type": "string"
            },
            {
              "internalType": "string",
              "name": "attributesIpfsHash",
              "type": "string"
            }
          ],
          "internalType": "struct IMetadataModule.Metadata",
          "name": "",
          "type": "tuple"
        }
      ],
      "stateMutability": "view",
      "type": "function"
    },
    {
      "inputs": [
        {
          "internalType": "address",
          "name": "wrappedSong",
          "type": "address"
        },
        {
          "internalType": "uint256",
          "name": "tokenId",
          "type": "uint256"
        }
      ],
      "name": "getTokenURI",
      "outputs": [
        {
          "internalType": "string",
          "name": "",
          "type": "string"
        }
      ],
      "stateMutability": "view",
      "type": "function"
    },
    {
      "inputs": [
        {
          "internalType": "address",
          "name": "wrappedSong",
          "type": "address"
        }
      ],
      "name": "getWrappedSongMetadata",
      "outputs": [
        {
          "components": [
            {
              "internalType": "string",
              "name": "name",
              "type": "string"
            },
            {
              "internalType": "string",
              "name": "description",
              "type": "string"
            },
            {
              "internalType": "string",
              "name": "image",
              "type": "string"
            },
            {
              "internalType": "string",
              "name": "externalUrl",
              "type": "string"
            },
            {
              "internalType": "string",
              "name": "animationUrl",
              "type": "string"
            },
            {
              "internalType": "string",
              "name": "attributesIpfsHash",
              "type": "string"
            }
          ],
          "internalType": "struct IMetadataModule.Metadata",
          "name": "",
          "type": "tuple"
        }
      ],
      "stateMutability": "view",
      "type": "function"
    },
    {
      "inputs": [
        {
          "internalType": "address",
          "name": "wrappedSong",
          "type": "address"
        }
      ],
      "name": "isMetadataUpdateConfirmed",
      "outputs": [
        {
          "internalType": "bool",
          "name": "",
          "type": "bool"
        }
      ],
      "stateMutability": "view",
      "type": "function"
    },
    {
      "inputs": [],
      "name": "owner",
      "outputs": [
        {
          "internalType": "address",
          "name": "",
          "type": "address"
        }
      ],
      "stateMutability": "view",
      "type": "function"
    },
    {
      "inputs": [],
      "name": "protocolModule",
      "outputs": [
        {
          "internalType": "contract IProtocolModule",
          "name": "",
          "type": "address"
        }
      ],
      "stateMutability": "view",
      "type": "function"
    },
    {
      "inputs": [
        {
          "internalType": "address",
          "name": "wrappedSong",
          "type": "address"
        }
      ],
      "name": "rejectUpdateMetadata",
      "outputs": [],
      "stateMutability": "nonpayable",
      "type": "function"
    },
    {
      "inputs": [
        {
          "internalType": "address",
          "name": "wrappedSong",
          "type": "address"
        }
      ],
      "name": "removeMetadata",
      "outputs": [],
      "stateMutability": "nonpayable",
      "type": "function"
    },
    {
      "inputs": [],
      "name": "renounceOwnership",
      "outputs": [],
      "stateMutability": "nonpayable",
      "type": "function"
    },
    {
      "inputs": [
        {
          "internalType": "address",
          "name": "wrappedSong",
          "type": "address"
        },
        {
          "components": [
            {
              "internalType": "string",
              "name": "name",
              "type": "string"
            },
            {
              "internalType": "string",
              "name": "description",
              "type": "string"
            },
            {
              "internalType": "string",
              "name": "image",
              "type": "string"
            },
            {
              "internalType": "string",
              "name": "externalUrl",
              "type": "string"
            },
            {
              "internalType": "string",
              "name": "animationUrl",
              "type": "string"
            },
            {
              "internalType": "string",
              "name": "attributesIpfsHash",
              "type": "string"
            }
          ],
          "internalType": "struct IMetadataModule.Metadata",
          "name": "newMetadata",
          "type": "tuple"
        }
      ],
      "name": "requestUpdateMetadata",
      "outputs": [],
      "stateMutability": "nonpayable",
      "type": "function"
    },
    {
      "inputs": [
        {
          "internalType": "address",
          "name": "_protocolModule",
          "type": "address"
        }
      ],
      "name": "setProtocolModule",
      "outputs": [],
      "stateMutability": "nonpayable",
      "type": "function"
    },
    {
      "inputs": [
        {
          "internalType": "address",
          "name": "newOwner",
          "type": "address"
        }
      ],
      "name": "transferOwnership",
      "outputs": [],
      "stateMutability": "nonpayable",
      "type": "function"
    },
    {
      "inputs": [
        {
          "internalType": "address",
          "name": "wrappedSong",
          "type": "address"
        },
        {
          "components": [
            {
              "internalType": "string",
              "name": "name",
              "type": "string"
            },
            {
              "internalType": "string",
              "name": "description",
              "type": "string"
            },
            {
              "internalType": "string",
              "name": "image",
              "type": "string"
            },
            {
              "internalType": "string",
              "name": "externalUrl",
              "type": "string"
            },
            {
              "internalType": "string",
              "name": "animationUrl",
              "type": "string"
            },
            {
              "internalType": "string",
              "name": "attributesIpfsHash",
              "type": "string"
            }
          ],
          "internalType": "struct IMetadataModule.Metadata",
          "name": "newMetadata",
          "type": "tuple"
        }
      ],
      "name": "updateMetadata",
      "outputs": [],
      "stateMutability": "payable",
      "type": "function"
    },
    {
      "inputs": [
        {
          "internalType": "address",
          "name": "token",
          "type": "address"
        },
        {
          "internalType": "address",
          "name": "recipient",
          "type": "address"
        }
      ],
      "name": "withdrawAccumulatedFees",
      "outputs": [],
      "stateMutability": "nonpayable",
      "type": "function"
    },
    {
      "stateMutability": "payable",
      "type": "receive"
    }
  ],
  "bytecode": "0x608034620000c657601f6200322a38819003918201601f19168301916001600160401b03831184841017620000cb57808492602094604052833981010312620000c657516001600160a01b039081811690819003620000c6578015620000ad57600080546001600160a01b03198116831782556040519316907f8be0079c531659141344cd1fd0a4f28419497f9722a3daafe3b4186f6b6457e09080a3600180556131489081620000e28239f35b604051631e4fbdf760e01b815260006004820152602490fd5b600080fd5b634e487b7160e01b600052604160045260246000fdfe60e08060405260049081361015610020575b5050361561001e57600080fd5b005b600060c05260c0513560e01c9081630b63fd621461278757508063187de53b14612418578063349cdba0146123c2578063376c1f07146122065780634b7006291461166d5780635c42e667146116435780635dc447ed14610e995780636613680d14610767578063715018a6146107085780638da5cb5b146106dd5780639205fafe146104ac578063a859dcde14610408578063a9edb0f5146102b9578063da67603e146101be578063dac73c991461017d5763f2fde38b146100e35780610011565b34610177576020366003190112610177576100fc612990565b610104612c2e565b6001600160a01b0390811691821561015d575060c05154826001600160601b0360a01b82161760c05155167f8be0079c531659141344cd1fd0a4f28419497f9722a3daafe3b4186f6b6457e060c05160c051a360c05180f35b60249060405190631e4fbdf760e01b825260c05190820152fd5b60c05180fd5b34610177576020366003190112610177576001600160a01b0361019e612990565b1660c051526008602052602060ff604060c0512054166040519015158152f35b5034610177576020366003190112610177576102b5906101dc612990565b6101e4612c5a565b5060018060a01b031660c051526007602052600561029c604060c051206102256102876040519561021487612a74565b60405161022c816102258188612f77565b0382612aa5565b8752604051610242816102258160018901612f77565b602088015260405161025b816102258160028901612f77565b6040880152604051610274816102258160038901612f77565b6060880152604051928380928601612f77565b60808501526102256040518094819301612f77565b60a08201526040519182916020835260208301906129f3565b0390f35b503461017757602080600319360112610177576001600160a01b036102dc612990565b16913383036103b8578260c05152600682526102fd604060c0512054612caa565b1561037657506008908260c051526006815261031d604060c05120612f32565b8260c0515260078152610334604060c05120612f32565b8260c0515252604060c0512060ff1981541690557f850e5df914b57ac32b9b4cfb02944f8e955f9991d54ae5ccac3936a7b205cace60c05160c051a260c05180f35b6064916040519162461bcd60e51b8352820152601760248201527f4d6574616461746120646f6573206e6f742065786973740000000000000000006044820152fd5b6084916040519162461bcd60e51b8352820152602560248201527f4f6e6c79207772617070656420736f6e672063616e2072656d6f7665206d6574604482015264616461746160d81b6064820152fd5b503461017757602036600319011261017757610422612990565b61042a612c2e565b6001600160a01b03169081156104685750600280546001600160a01b0319169190911790556005805460ff60a01b1916600160a01b17905560c05180f35b60649060206040519162461bcd60e51b8352820152601f60248201527f496e76616c69642070726f746f636f6c206d6f64756c652061646472657373006044820152fd5b503461017757602080600319360112610177576104c7612990565b60025460405163670d296960e11b81529193916001600160a01b0391849082908590829086165afa908115610679578291859160c051916106c0575b5084604051809481936365bb98b560e01b8352165afa801561067957828591819360c051916106a3575b501695866001600160601b0360a01b6003541617600355602460405180948193633aa690e760e01b8352169889888301525afa908115610679578291859160c05191610686575b508460405180948193638da5cb5b60e01b8352165afa9081156106795760c0519161064c575b501633036105ff57506008908260c05152600781526105bd604060c05120612f32565b8260c0515252604060c0512060ff1981541690557f44983a324fa169af1e5f7fc334fe51324c21a0f94c8407867926cb4266b0cb5460c05160c051a260c05180f35b6084916040519162461bcd60e51b8352820152602260248201527f4f6e6c79206469737472696275746f722063616e2072656a6563742075706461604482015261746560f01b6064820152fd5b61066c9150843d8611610672575b6106648183612aa5565b810190612c8b565b3861059a565b503d61065a565b6040513d60c051823e3d90fd5b61069d9150823d8411610672576106648183612aa5565b38610574565b6106ba9150833d8511610672576106648183612aa5565b3861052d565b6106d79150823d8411610672576106648183612aa5565b38610503565b346101775760c0513660031901126101775760c051546040516001600160a01b039091168152602090f35b346101775760c05136600319011261017757610722612c2e565b60c05180546001600160a01b0319811682556001600160a01b03167f8be0079c531659141344cd1fd0a4f28419497f9722a3daafe3b4186f6b6457e08280a360c05180f35b50346101775761077636612b28565b9061077f612c5a565b5060025460405163058dba2f60e11b81526001600160a01b038381168287015294916020908290602490829089165afa801561067957859160c05191610e7a575b501615610e365783821660c0515260066020526107e2604060c0512054612caa565b610df2576107ef83612d42565b15610dbb5783821660c051526006602052604060c051209083518051906001600160401b038211610da45781906108308261082a8754612caa565b87612cfb565b6020906001601f841114610d3b5760c05192610d30575b50508160011b916000199060031b1c19161782555b6001820160208501518051906001600160401b038211610ba757819061088c826108868654612caa565b86612cfb565b6020906001601f841114610cc75760c05192610cbc575b50508160011b916000199060031b1c19161790555b6002820160408501518051906001600160401b038211610ba75781906108e2826108868654612caa565b6020906001601f841114610c535760c05192610c48575b50508160011b916000199060031b1c19161790555b60039182810160608601518051906001600160401b038211610c3157819061093a826108868654612caa565b6020906001601f841114610bc95760c05192610bbe575b50508160011b9160001990871b1c19161790555b60808501518051906001600160401b038211610ba7576109938261098b86860154612caa565b868601612cfb565b6020906001601f841114610b34579180916005949360c05192610b29575b50508160011b9160001990871b1c191617838201555b019160a08501518051926001600160401b038411610b1257506109ee836108868654612caa565b6020906001601f851114610a7d57927f6e59fb1f315f2f4b281014e9d51ca1387542c6af4109446eaaabadd34b5d5eb3949281926102b5999560c05193610a72575b50508260011b92600019911b1c19161790555b6040519260208452169180610a5b60208201866129f3565b0390a26040519182916020835260208301906129f3565b015191503880610a30565b9190601f198416928560c05152602060c051209360c0515b818110610afa57509285927f6e59fb1f315f2f4b281014e9d51ca1387542c6af4109446eaaabadd34b5d5eb39795926102b59b9760019610610ae0575b50505050811b019055610a43565b01519060f884600019921b161c1916905538808080610ad2565b92946020600181928886015181550196019301610a95565b604190634e487b7160e01b60c0515252602460c051fd5b0151905038806109b1565b9084840160c05152602060c051209160c0515b601f1985168110610b8f575091839160019360059695601f19811610610b77575b505050811b01838201556109c7565b015160001983891b60f8161c19169055388080610b68565b91926020600181928685015181550194019201610b47565b604184634e487b7160e01b60c0515252602460c051fd5b015190503880610951565b60c0805186905251602081209350601f198516905b818110610c195750908460019594939210610c01575b505050811b019055610965565b015160001983891b60f8161c19169055388080610bf4565b92936020600181928786015181550195019301610bde565b604185634e487b7160e01b60c0515252602460c051fd5b0151905038806108f9565b60c0805186905251602081209350601f198516905b818110610ca45750908460019594939210610c8b575b505050811b01905561090e565b015160001960f88460031b161c19169055388080610c7e565b92936020600181928786015181550195019301610c68565b0151905038806108a3565b60c0805186905251602081209350601f198516905b818110610d185750908460019594939210610cff575b505050811b0190556108b8565b015160001960f88460031b161c19169055388080610cf2565b92936020600181928786015181550195019301610cdc565b015190503880610847565b60c0805187905251602081209350601f198516905b818110610d8c5750908460019594939210610d73575b505050811b01825561085c565b015160001960f88460031b161c19169055388080610d66565b92936020600181928786015181550195019301610d50565b604183634e487b7160e01b60c0515252602460c051fd5b60649060206040519162461bcd60e51b8352820152601060248201526f496e76616c6964206d6574616461746160801b6044820152fd5b60649060206040519162461bcd60e51b8352820152601760248201527f4d6574616461746120616c7265616479206578697374730000000000000000006044820152fd5b60649060206040519162461bcd60e51b8352820152601960248201527f41646472657373206e6f7420612070726f746f636f6c205753000000000000006044820152fd5b610e93915060203d602011610672576106648183612aa5565b386107c0565b50610ea336612b28565b60025460405163670d296960e11b81526001600160a01b0393602092909190839082908890829089165afa908115610679578591849160c05191611626575b5087604051809481936365bb98b560e01b8352165afa801561067957859160c05191611609575b501684600392826001600160601b0360a01b855416178455169460405190638da5cb5b60e01b8252848289818a5afa9182156106795760c051926115ea575b5016331480156115e1575b1561158b576040516306f8718960e31b81528681018690526024929184908290859082905afa9081156106795760c0519161155e575b5061150557610f9f610f9a85612d42565b612d87565b8460c0515260068352604060c05120908451968751926001600160401b03938481116114ef57610fd981610fd38454612caa565b84612cfb565b601f998190889060018d8411146114885760c0519261147d575b50508160011b9160001990861b1c19161781555b600160805260805181018688015180519086821161130557819061102f826108868654612caa565b899060018e8411146114125760c05192611407575b5050816080511b9160001990871b1c19161790555b60028101604088015180519086821161130557819061107c826108868654612caa565b899060018e84111461139c5760c05192611391575b5050816080511b9160001990871b1c19161790555b82810160608801518051908682116113055781906110c8826108868654612caa565b899060018e8411146113265760c0519261131b575b5050816080511b9160001990871b1c19161790555b818101608088015180519086821161130557611118826111128554612caa565b85612cfb565b889060018d84111461129357918091600595949360c05192611288575b5050816080511b9160001990881b1c19161790555b019360a087015191825194851161127357505061116b836108868654612caa565b60c05150849783116001146111e557907f4288f171f419b66095d6e026090ed813669ea5a62cfe4416a47e75549e4788669697839260c051936111da575b5050826080511b92600019911b1c19161790555b6111d16040519282849384528301906129f3565b0390a260c05180f35b0151915038806111a9565b90601f198316978460c051528560c051209260c0515b8a811061125b5750847f4288f171f419b66095d6e026090ed813669ea5a62cfe4416a47e75549e478866999a10611241575b50505050608051906080511b0190556111bd565b01519060f884600019921b161c191690553880808061122d565b919387809186840151815560805101950192016111fb565b604190634e487b7160e01b60c051525260c051fd5b015190503880611135565b90601f198316918460c051528a60c051209260c0515b8c8282106112ee57505090846005979695949392106112d6575b505050608051906080511b01905561114a565b015160001983891b60f8161c191690553880806112c3565b8495819295850151815560805101950193016112a9565b87604186634e487b7160e01b60c051525260c051fd5b0151905038806110dd565b60c08051869052518b812093508490601f198216905b8d8282106113775750501061135f575b505050608051906080511b0190556110f2565b015160001983881b60f8161c1916905538808061134c565b84860151875560805190960195948501948793500161133c565b015190503880611091565b60c08051869052518b812093508490601f198216905b8d8282106113ed575050106113d5575b505050608051906080511b0190556110a6565b015160001983881b60f8161c191690553880806113c2565b8486015187556080519096019594850194879350016113b2565b015190503880611044565b60c08051869052518b812093508490601f198216905b8d8282106114635750501061144b575b505050608051906080511b019055611059565b015160001983881b60f8161c19169055388080611438565b848601518755608051909601959485019487935001611428565b015190503880610ff3565b60c08051869052518a81209350601f198516905b8b8282106114d95750509084600195949392106114c1575b505050811b018155611007565b015160001983881b60f8161c191690553880806114b4565b600185968293968601518155019501930161149c565b85604184634e487b7160e01b60c051525260c051fd5b60405162461bcd60e51b8152808701849052602d818401527f43616e6e6f7420757064617465206d65746164617461206469726563746c792060448201526c61667465722072656c6561736560981b6064820152608490fd5b61157e9150843d8611611584575b6115768183612aa5565b810190612df9565b38610f89565b503d61156c565b60405162461bcd60e51b8152808701849052602960248201527f4f6e6c79207772617070656420736f6e67206f7220697473206f776e65722063604482015268616e2075706461746560b81b6064820152608490fd5b50803314610f53565b611602919250853d8711610672576106648183612aa5565b9038610f48565b6116209150843d8611610672576106648183612aa5565b38610f09565b61163d9150823d8411610672576106648183612aa5565b38610ee2565b346101775760c051366003190112610177576002546040516001600160a01b039091168152602090f35b50346101775761167c36612b28565b60025460405163670d296960e11b8082526001600160a01b039283169460209392909190848189818a5afa908115610679578491869160c051916121e9575b5089604051809481936365bb98b560e01b8352165afa801561067957849160c051916121cc575b5016926001600160601b0360a01b816003948683875416178655611708610f9a8a612d42565b1697604051638da5cb5b60e01b815287818c818d5afa9081156106795760c051916121af575b508333911603612158576040516306f8718960e31b8152808b018a905260249688908290899082905afa9081156106795760c0519161213b575b50156120e45760405184815287818c81855afa908115610679578491899160c051916120c7575b508c60405180948193636d4726d960e01b8352165afa801561067957849160c0519161208d575b50169384838c5416178b55604051946374816e3760e01b865288868d81845afa9586156106795760c0519661205e575b5060405163d579e3f360e01b815289818e81855afa928315610679578a9160c0519461203f575b508d6040518096819382525afa9283156106795785938a9160c05191612022575b508d604051809681936309da4e5160e01b8352165afa91821561067957858a938e9560c05191611fe2575b5016809560055416176005558615159081600014611fd55715611f4957506040516337a0a9e960e11b815292839182905afa801561067957879160c05191611f1a575b50868b6040519485938492637c70c0a360e01b84528301525afa9081156106795760c05191611efd575b5016908115611eae576040516323b872dd60e01b8682015233858201523060448201526064808201839052815260a081016001600160401b03811182821017611e9a57604052611916908361303d565b8160c0515260098552604060c05120805490828201809211611e8657556040519081527f785bfd9070b1fa5b19bfa2ac4637328df950f5e0adafe5873360de4e23b6d8a0853392a35b8460c0515260078352604060c05120908451968751926001600160401b03938481116114ef5761199381610fd38454612caa565b601f998190889060018d841114611e1f5760c05192611e14575b50508160011b9160001990861b1c19161781555b600160a05260a0518101868801518051908682116113055781906119e9826108868654612caa565b899060018e841114611da95760c05192611d9e575b50508160a0511b9160001990871b1c19161790555b600281016040880151805190868211611305578190611a36826108868654612caa565b899060018e841114611d335760c05192611d28575b50508160a0511b9160001990871b1c19161790555b8281016060880151805190868211611305578190611a82826108868654612caa565b899060018e841114611cbd5760c05192611cb2575b50508160a0511b9160001990871b1c19161790555b818101608088015180519086821161130557611acc826111128554612caa565b889060018d841114611c4057918091600595949360c05192611c35575b50508160a0511b9160001990881b1c19161790555b019360a0870151918251948511611273575050611b1f836108868654612caa565b60c0515084978311600114611ba757907fcfa38ad22e928cede6a19793c7da9bad051ddd68eaabfc0a35500e381a60cb399697839260c05193611b9c575b50508260a0511b92600019911b1c19161790555b8360c0515260088152604060c0512060ff1981541690556111d16040519282849384528301906129f3565b015191503880611b5d565b90601f198316978460c051528560c051209260c0515b8a8110611c1d5750847fcfa38ad22e928cede6a19793c7da9bad051ddd68eaabfc0a35500e381a60cb39999a10611c03575b5050505060a0519060a0511b019055611b71565b01519060f884600019921b161c1916905538808080611bef565b919387809186840151815560a0510195019201611bbd565b015190503880611ae9565b90601f198316918460c051528a60c051209260c0515b8c828210611c9b5750509084600597969594939210611c83575b50505060a0519060a0511b019055611afe565b015160001983891b60f8161c19169055388080611c70565b8495819295850151815560a0510195019301611c56565b015190503880611a97565b60c08051869052518b812093508490601f198216905b8d828210611d0e57505010611cf6575b50505060a0519060a0511b019055611aac565b015160001983881b60f8161c19169055388080611ce3565b84860151875560a051909601959485019487935001611cd3565b015190503880611a4b565b60c08051869052518b812093508490601f198216905b8d828210611d8457505010611d6c575b50505060a0519060a0511b019055611a60565b015160001983881b60f8161c19169055388080611d59565b84860151875560a051909601959485019487935001611d49565b0151905038806119fe565b60c08051869052518b812093508490601f198216905b8d828210611dfa57505010611de2575b50505060a0519060a0511b019055611a13565b015160001983881b60f8161c19169055388080611dcf565b84860151875560a051909601959485019487935001611dbf565b0151905038806119ad565b60c08051869052518a81209350601f198516905b8b828210611e70575050908460019594939210611e58575b505050811b0181556119c1565b015160001983881b60f8161c19169055388080611e4b565b6001859682939686015181550195019301611e33565b8560118b634e487b7160e01b600052526000fd5b8560418b634e487b7160e01b600052526000fd5b60405162461bcd60e51b81528089018690526023818601527f4e6f2077686974656c697374656420737461626c65636f696e20617661696c61604482015262626c6560e81b6064820152608490fd5b611f149150863d8811610672576106648183612aa5565b386118c6565b82819392503d8311611f42575b611f318183612aa5565b81010312610177578690513861189c565b503d611f27565b95505050505050611f925760c05180526009835260405160008082529033907f785bfd9070b1fa5b19bfa2ac4637328df950f5e0adafe5873360de4e23b6d8a0908690a361195f565b60405162461bcd60e51b81528087018490526018818401527f496e636f7272656374204554482066656520616d6f756e7400000000000000006044820152606490fd5b505050505050505061195f565b9394929550505081813d831161201b575b611ffd8183612aa5565b810103126101775751908482168203610177578b92858a9338611859565b503d611ff3565b6120399150823d8411610672576106648183612aa5565b3861182e565b612057919450823d8411611584576115768183612aa5565b923861180d565b9095508881813d8311612086575b6120768183612aa5565b81010312610177575194386117e6565b503d61206c565b809250898092503d83116120c0575b6120a68183612aa5565b8101031261017757518381168103610177578390386117b6565b503d61209c565b6120de9150823d8411610672576106648183612aa5565b3861178f565b60405162461bcd60e51b8152808b01889052602b818801527f536f6e67206e6f742072656c65617365642c20757064617465206d657461646160448201526a7461206469726563746c7960a81b6064820152608490fd5b6121529150883d8a11611584576115768183612aa5565b38611768565b60405162461bcd60e51b8152808b01889052602a60248201527f4f6e6c79207772617070656420736f6e67206f776e65722063616e20726571756044820152696573742075706461746560b01b6064820152608490fd5b6121c69150883d8a11610672576106648183612aa5565b3861172e565b6121e39150863d8811610672576106648183612aa5565b386116e2565b6122009150823d8411610672576106648183612aa5565b386116bb565b503461017757604036600319011261017757612220612990565b6001600160a01b0360243581811693929084900361017757612240612c2e565b6002600154146123b157600260015516908160c0515260209060098252604060c05120549081156123775760c0805185905260098452516040812055836123095760c05180808085895af161229361300d565b50156122cf5750907f5e110f8bc8a20b65dcc87f224bdf1cc039346e267118bae2739847f07321ffa8915b604051908152a36001805560c05180f35b60405162461bcd60e51b81529081018390526013602482015272115512081d1c985b9cd9995c8819985a5b1959606a1b6044820152606490fd5b6040519063a9059cbb60e01b848301528560248301528260448301526044825260808201908282106001600160401b03831117610b1257507f5e110f8bc8a20b65dcc87f224bdf1cc039346e267118bae2739847f07321ffa8939291612372916040528561303d565b6122be565b60405162461bcd60e51b815290810183905260136024820152724e6f206665657320746f20776974686472617760681b6044820152606490fd5b604051633ee5aeb560e01b81528390fd5b5034610177576020366003190112610177576102b5906123e0612990565b6123e8612c5a565b5060018060a01b031660c051526006602052600561029c604060c051206102256102876040519561021487612a74565b506020806003193601126101775761242e612990565b60025460405163670d296960e11b81529193916001600160a01b0391849082908590829086165afa908115610679578291859160c0519161276a575b5084604051809481936365bb98b560e01b8352165afa801561067957828591819360c0519161274d575b501695866001600160601b0360a01b6003541617600355602460405180948193633aa690e760e01b8352169889888301525afa908115610679578291859160c05191612730575b508460405180948193638da5cb5b60e01b8352165afa9081156106795760c05191612713575b501633036126c5578260c051526008825260ff604060c051205416612683577f4288f171f419b66095d6e026090ed813669ea5a62cfe4416a47e75549e478866916111d160c09285845152600783526040845120600684526040855120818103612625575b5050858451526007835261257d6040855120612f32565b85845152600883526040845120600160ff1982541617905560068352600560408551206040519585879687528601526126156125bc60e0870183612f77565b936126036125f06125dd601f1997888b82030160408c015260018701612f77565b878a82030160608b015260028601612f77565b868982030160808a015260038501612f77565b90858883030160a08901528301612f77565b928584030160c086015201612f77565b6005808361263661267c9585612e11565b6126466001820160018601612e11565b6126566002820160028601612e11565b6126666003820160038601612e11565b612674868201878601612e11565b019101612e11565b3880612566565b6064916040519162461bcd60e51b8352820152601a60248201527f4e6f2070656e64696e67206d65746164617461207570646174650000000000006044820152fd5b6084916040519162461bcd60e51b8352820152602360248201527f4f6e6c79206469737472696275746f722063616e20636f6e6669726d2075706460448201526261746560e81b6064820152fd5b61272a9150843d8611610672576106648183612aa5565b38612501565b6127479150823d8411610672576106648183612aa5565b386124db565b6127649150833d8511610672576106648183612aa5565b38612494565b6127819150823d8411610672576106648183612aa5565b3861246a565b905034610177576040366003190112610177576127a2612990565b916024359060018060a01b03809416928360c05152602093600685526005612857604060c051206127d285612a74565b6040516127e3816102258185612f77565b85526040516127f9816102258160018601612f77565b88860152604051612811816102258160028601612f77565b604086015260405161282a816102258160038601612f77565b606086015260405161284281610225818a8601612f77565b60808601526102256040518094819301612f77565b60a083015260038410156129405761288d6060966002541692604051978895632fda23b760e01b875286015260648501906129f3565b9360248401526044830152818060c0519403915afa9182156106795760c051926128c7575b506102b56040519282849384528301906129ce565b9091503d8060c051833e6128db8183612aa5565b8101908281830312610177578051906001600160401b038211610177570181601f8201121561017757805161290f81612ac6565b9261291d6040519485612aa5565b81845284828401011161017757612939918480850191016129ab565b90386128b2565b60405162461bcd60e51b81528084018690526024808201527f496e76616c696420746f6b656e20494420666f72206d65746164617461206d6f60448201526364756c6560e01b6064820152608490fd5b600435906001600160a01b03821682036129a657565b600080fd5b60005b8381106129be5750506000910152565b81810151838201526020016129ae565b906020916129e7815180928185528580860191016129ab565b601f01601f1916010190565b612a719160a0612a60612a4e612a3c612a2a612a18875160c0885260c08801906129ce565b602088015187820360208901526129ce565b604087015186820360408801526129ce565b606086015185820360608701526129ce565b608085015184820360808601526129ce565b9201519060a08184039101526129ce565b90565b60c081019081106001600160401b03821117612a8f57604052565b634e487b7160e01b600052604160045260246000fd5b90601f801991011681019081106001600160401b03821117612a8f57604052565b6001600160401b038111612a8f57601f01601f191660200190565b81601f820112156129a657803590612af882612ac6565b92612b066040519485612aa5565b828452602083830101116129a657816000926020809301838601378301015290565b906003196040818401126129a657600480356001600160a01b03811681036129a65793602435916001600160401b03938484116129a65760c09084840301126129a65760405193612b7885612a74565b838201358181116129a6578383612b9192870101612ae1565b855260248401358181116129a6578383612bad92870101612ae1565b602086015260448401358181116129a6578383612bcc92870101612ae1565b604086015260648401358181116129a6578383612beb92870101612ae1565b606086015260848401358181116129a6578383612c0a92870101612ae1565b608086015260a48401359081116129a657612c26930101612ae1565b60a082015290565b6000546001600160a01b03163303612c4257565b60405163118cdaa760e01b8152336004820152602490fd5b60405190612c6782612a74565b8160a060609182815282602082015282604082015282808201528260808201520152565b908160209103126129a657516001600160a01b03811681036129a65790565b90600182811c92168015612cda575b6020831014612cc457565b634e487b7160e01b600052602260045260246000fd5b91607f1691612cb9565b818110612cef575050565b60008155600101612ce4565b9190601f8111612d0a57505050565b612d36926000526020600020906020601f840160051c83019310612d38575b601f0160051c0190612ce4565b565b9091508190612d29565b80515115159081612d78575b81612d69575b81612d5d575090565b60a09150015151151590565b60808101515115159150612d54565b60408101515115159150612d4e565b15612d8e57565b60405162461bcd60e51b815260206004820152603760248201527f496e76616c6964206d657461646174613a20416c6c207265717569726564206660448201527f69656c6473206d757374206265206e6f6e2d656d7074790000000000000000006064820152608490fd5b908160209103126129a6575180151581036129a65790565b90808214612ee557612e238154612caa565b906001600160401b038211612a8f578190612e42826108868654612caa565b600090601f8311600114612e7957600092612e6e575b50508160011b916000199060031b1c1916179055565b015490503880612e58565b81526020808220858352818320935090601f1985169083905b828210612ecc575050908460019594939210612eb3575b505050811b019055565b015460001960f88460031b161c19169055388080612ea9565b8495819295850154815560018091019601940190612e92565b5050565b612ef38154612caa565b9081612efd575050565b81601f60009311600114612f0f575055565b908083918252612f2e601f60208420940160051c840160018501612ce4565b5555565b6005612d3691612f4181612ee9565b612f4d60018201612ee9565b612f5960028201612ee9565b612f6560038201612ee9565b612f7160048201612ee9565b01612ee9565b9060009291805491612f8883612caa565b918282526001938481169081600014612fea5750600114612faa575b50505050565b90919394506000526020928360002092846000945b838610612fd6575050505001019038808080612fa4565b805485870183015294019385908201612fbf565b9294505050602093945060ff191683830152151560051b01019038808080612fa4565b3d15613038573d9061301e82612ac6565b9161302c6040519384612aa5565b82523d6000602084013e565b606090565b6000806130669260018060a01b03169360208151910182865af161305f61300d565b90836130af565b8051908115159182613094575b505061307c5750565b60249060405190635274afe760e01b82526004820152fd5b6130a79250602080918301019101612df9565b153880613073565b906130d657508051156130c457805190602001fd5b604051630a12f52160e11b8152600490fd5b81511580613109575b6130e7575090565b604051639996b31560e01b81526001600160a01b039091166004820152602490fd5b50803b156130df56fea264697066735822122002116a7889df6a409e78ca058ef86cb17ff4d9a8d5019fc2705b67d587bd7bf564736f6c63430008140033",
  "linkReferences": {},
  "deployedLinkReferences": {}
}