{
  "_format": "hh-sol-artifact-1",
  "contractName": "MetadataModule",
  "sourceName": "contracts/protocol/NonUpgradable/MetadataModule.sol",
  "abi": [
    {
      "inputs": [],
      "stateMutability": "nonpayable",
      "type": "constructor"
    },
    {
      "inputs": [
        {
          "internalType": "address",
          "name": "owner",
          "type": "address"
        }
      ],
      "name": "OwnableInvalidOwner",
      "type": "error"
    },
    {
      "inputs": [
        {
          "internalType": "address",
          "name": "account",
          "type": "address"
        }
      ],
      "name": "OwnableUnauthorizedAccount",
      "type": "error"
    },
    {
      "anonymous": false,
      "inputs": [
        {
          "indexed": true,
          "internalType": "address",
          "name": "wrappedSong",
          "type": "address"
        },
        {
          "components": [
            {
              "internalType": "string",
              "name": "name",
              "type": "string"
            },
            {
              "internalType": "string",
              "name": "description",
              "type": "string"
            },
            {
              "internalType": "string",
              "name": "image",
              "type": "string"
            },
            {
              "internalType": "string",
              "name": "externalUrl",
              "type": "string"
            },
            {
              "internalType": "string",
              "name": "animationUrl",
              "type": "string"
            },
            {
              "internalType": "string",
              "name": "attributesIpfsHash",
              "type": "string"
            }
          ],
          "indexed": false,
          "internalType": "struct IMetadataModule.Metadata",
          "name": "newMetadata",
          "type": "tuple"
        }
      ],
      "name": "MetadataCreated",
      "type": "event"
    },
    {
      "anonymous": false,
      "inputs": [
        {
          "indexed": true,
          "internalType": "address",
          "name": "wrappedSong",
          "type": "address"
        }
      ],
      "name": "MetadataRemoved",
      "type": "event"
    },
    {
      "anonymous": false,
      "inputs": [
        {
          "indexed": true,
          "internalType": "address",
          "name": "wrappedSong",
          "type": "address"
        }
      ],
      "name": "MetadataUpdateRejected",
      "type": "event"
    },
    {
      "anonymous": false,
      "inputs": [
        {
          "indexed": true,
          "internalType": "address",
          "name": "wrappedSong",
          "type": "address"
        },
        {
          "components": [
            {
              "internalType": "string",
              "name": "name",
              "type": "string"
            },
            {
              "internalType": "string",
              "name": "description",
              "type": "string"
            },
            {
              "internalType": "string",
              "name": "image",
              "type": "string"
            },
            {
              "internalType": "string",
              "name": "externalUrl",
              "type": "string"
            },
            {
              "internalType": "string",
              "name": "animationUrl",
              "type": "string"
            },
            {
              "internalType": "string",
              "name": "attributesIpfsHash",
              "type": "string"
            }
          ],
          "indexed": false,
          "internalType": "struct IMetadataModule.Metadata",
          "name": "newMetadata",
          "type": "tuple"
        }
      ],
      "name": "MetadataUpdateRequested",
      "type": "event"
    },
    {
      "anonymous": false,
      "inputs": [
        {
          "indexed": true,
          "internalType": "address",
          "name": "wrappedSong",
          "type": "address"
        },
        {
          "components": [
            {
              "internalType": "string",
              "name": "name",
              "type": "string"
            },
            {
              "internalType": "string",
              "name": "description",
              "type": "string"
            },
            {
              "internalType": "string",
              "name": "image",
              "type": "string"
            },
            {
              "internalType": "string",
              "name": "externalUrl",
              "type": "string"
            },
            {
              "internalType": "string",
              "name": "animationUrl",
              "type": "string"
            },
            {
              "internalType": "string",
              "name": "attributesIpfsHash",
              "type": "string"
            }
          ],
          "indexed": false,
          "internalType": "struct IMetadataModule.Metadata",
          "name": "newMetadata",
          "type": "tuple"
        }
      ],
      "name": "MetadataUpdated",
      "type": "event"
    },
    {
      "anonymous": false,
      "inputs": [
        {
          "indexed": true,
          "internalType": "address",
          "name": "previousOwner",
          "type": "address"
        },
        {
          "indexed": true,
          "internalType": "address",
          "name": "newOwner",
          "type": "address"
        }
      ],
      "name": "OwnershipTransferred",
      "type": "event"
    },
    {
      "inputs": [
        {
          "internalType": "address",
          "name": "wrappedSong",
          "type": "address"
        }
      ],
      "name": "confirmUpdateMetadata",
      "outputs": [],
      "stateMutability": "nonpayable",
      "type": "function"
    },
    {
      "inputs": [
        {
          "internalType": "address",
          "name": "wrappedSong",
          "type": "address"
        },
        {
          "components": [
            {
              "internalType": "string",
              "name": "name",
              "type": "string"
            },
            {
              "internalType": "string",
              "name": "description",
              "type": "string"
            },
            {
              "internalType": "string",
              "name": "image",
              "type": "string"
            },
            {
              "internalType": "string",
              "name": "externalUrl",
              "type": "string"
            },
            {
              "internalType": "string",
              "name": "animationUrl",
              "type": "string"
            },
            {
              "internalType": "string",
              "name": "attributesIpfsHash",
              "type": "string"
            }
          ],
          "internalType": "struct IMetadataModule.Metadata",
          "name": "newMetadata",
          "type": "tuple"
        }
      ],
      "name": "createMetadata",
      "outputs": [
        {
          "components": [
            {
              "internalType": "string",
              "name": "name",
              "type": "string"
            },
            {
              "internalType": "string",
              "name": "description",
              "type": "string"
            },
            {
              "internalType": "string",
              "name": "image",
              "type": "string"
            },
            {
              "internalType": "string",
              "name": "externalUrl",
              "type": "string"
            },
            {
              "internalType": "string",
              "name": "animationUrl",
              "type": "string"
            },
            {
              "internalType": "string",
              "name": "attributesIpfsHash",
              "type": "string"
            }
          ],
          "internalType": "struct IMetadataModule.Metadata",
          "name": "",
          "type": "tuple"
        }
      ],
      "stateMutability": "nonpayable",
      "type": "function"
    },
    {
      "inputs": [
        {
          "internalType": "address",
          "name": "wrappedSong",
          "type": "address"
        }
      ],
      "name": "getPendingMetadataUpdate",
      "outputs": [
        {
          "components": [
            {
              "internalType": "string",
              "name": "name",
              "type": "string"
            },
            {
              "internalType": "string",
              "name": "description",
              "type": "string"
            },
            {
              "internalType": "string",
              "name": "image",
              "type": "string"
            },
            {
              "internalType": "string",
              "name": "externalUrl",
              "type": "string"
            },
            {
              "internalType": "string",
              "name": "animationUrl",
              "type": "string"
            },
            {
              "internalType": "string",
              "name": "attributesIpfsHash",
              "type": "string"
            }
          ],
          "internalType": "struct IMetadataModule.Metadata",
          "name": "",
          "type": "tuple"
        }
      ],
      "stateMutability": "view",
      "type": "function"
    },
    {
      "inputs": [
        {
          "internalType": "address",
          "name": "wrappedSong",
          "type": "address"
        },
        {
          "internalType": "uint256",
          "name": "tokenId",
          "type": "uint256"
        }
      ],
      "name": "getTokenURI",
      "outputs": [
        {
          "internalType": "string",
          "name": "",
          "type": "string"
        }
      ],
      "stateMutability": "view",
      "type": "function"
    },
    {
      "inputs": [
        {
          "internalType": "address",
          "name": "wrappedSong",
          "type": "address"
        }
      ],
      "name": "isMetadataUpdateConfirmed",
      "outputs": [
        {
          "internalType": "bool",
          "name": "",
          "type": "bool"
        }
      ],
      "stateMutability": "view",
      "type": "function"
    },
    {
      "inputs": [],
      "name": "owner",
      "outputs": [
        {
          "internalType": "address",
          "name": "",
          "type": "address"
        }
      ],
      "stateMutability": "view",
      "type": "function"
    },
    {
      "inputs": [],
      "name": "protocolModule",
      "outputs": [
        {
          "internalType": "contract IProtocolModule",
          "name": "",
          "type": "address"
        }
      ],
      "stateMutability": "view",
      "type": "function"
    },
    {
      "inputs": [
        {
          "internalType": "address",
          "name": "wrappedSong",
          "type": "address"
        }
      ],
      "name": "rejectUpdateMetadata",
      "outputs": [],
      "stateMutability": "nonpayable",
      "type": "function"
    },
    {
      "inputs": [
        {
          "internalType": "address",
          "name": "wrappedSong",
          "type": "address"
        }
      ],
      "name": "removeMetadata",
      "outputs": [],
      "stateMutability": "nonpayable",
      "type": "function"
    },
    {
      "inputs": [],
      "name": "renounceOwnership",
      "outputs": [],
      "stateMutability": "nonpayable",
      "type": "function"
    },
    {
      "inputs": [
        {
          "internalType": "address",
          "name": "wrappedSong",
          "type": "address"
        },
        {
          "components": [
            {
              "internalType": "string",
              "name": "name",
              "type": "string"
            },
            {
              "internalType": "string",
              "name": "description",
              "type": "string"
            },
            {
              "internalType": "string",
              "name": "image",
              "type": "string"
            },
            {
              "internalType": "string",
              "name": "externalUrl",
              "type": "string"
            },
            {
              "internalType": "string",
              "name": "animationUrl",
              "type": "string"
            },
            {
              "internalType": "string",
              "name": "attributesIpfsHash",
              "type": "string"
            }
          ],
          "internalType": "struct IMetadataModule.Metadata",
          "name": "newMetadata",
          "type": "tuple"
        }
      ],
      "name": "requestUpdateMetadata",
      "outputs": [],
      "stateMutability": "nonpayable",
      "type": "function"
    },
    {
      "inputs": [
        {
          "internalType": "address",
          "name": "_protocolModule",
          "type": "address"
        }
      ],
      "name": "setProtocolModule",
      "outputs": [],
      "stateMutability": "nonpayable",
      "type": "function"
    },
    {
      "inputs": [
        {
          "internalType": "address",
          "name": "newOwner",
          "type": "address"
        }
      ],
      "name": "transferOwnership",
      "outputs": [],
      "stateMutability": "nonpayable",
      "type": "function"
    },
    {
      "inputs": [
        {
          "internalType": "address",
          "name": "wrappedSong",
          "type": "address"
        },
        {
          "components": [
            {
              "internalType": "string",
              "name": "name",
              "type": "string"
            },
            {
              "internalType": "string",
              "name": "description",
              "type": "string"
            },
            {
              "internalType": "string",
              "name": "image",
              "type": "string"
            },
            {
              "internalType": "string",
              "name": "externalUrl",
              "type": "string"
            },
            {
              "internalType": "string",
              "name": "animationUrl",
              "type": "string"
            },
            {
              "internalType": "string",
              "name": "attributesIpfsHash",
              "type": "string"
            }
          ],
          "internalType": "struct IMetadataModule.Metadata",
          "name": "newMetadata",
          "type": "tuple"
        }
      ],
      "name": "updateMetadata",
      "outputs": [],
      "stateMutability": "nonpayable",
      "type": "function"
    }
  ],
  "bytecode": "0x6080806040523461007a5733156100645760008054336001600160a01b03198216811783556040519290916001600160a01b0316907f8be0079c531659141344cd1fd0a4f28419497f9722a3daafe3b4186f6b6457e09080a361264b90816100808239f35b631e4fbdf760e01b815260006004820152602490fd5b600080fdfe6080806040526004908136101561001557600080fd5b60003560e01c9081630b63fd6214611d9557508063187de53b14611ac95780634b700629146114475780635c42e6671461141e5780635dc447ed14610d635780636613680d14610657578063715018a6146105fe5780638da5cb5b146105d55780639205fafe14610456578063a859dcde146103c4578063a9edb0f514610285578063da67603e1461018c578063dac73c991461014e5763f2fde38b146100bb57600080fd5b34610149576020366003190112610149576100d4611f9d565b6100dc612236565b6001600160a01b039081169182156101315750600054826bffffffffffffffffffffffff60a01b821617600055167f8be0079c531659141344cd1fd0a4f28419497f9722a3daafe3b4186f6b6457e0600080a3005b602490600060405191631e4fbdf760e01b8352820152fd5b600080fd5b5034610149576020366003190112610149576001600160a01b03610170611f9d565b16600052602052602060ff604060002054166040519015158152f35b503461014957602036600319011261014957610281906101aa611f9d565b6101b2612262565b5060018060a01b03166000526003602052600561026860406000206101f1610253604051956101e087611ffb565b6040516101f8816101f1818861257f565b038261202c565b875260405161020e816101f1816001890161257f565b6020880152604051610227816101f1816002890161257f565b6040880152604051610240816101f1816003890161257f565b606088015260405192838092860161257f565b60808501526101f1604051809481930161257f565b60a08201526040519182916020835260208301906121b5565b0390f35b50346101495760209081600319360112610149576001600160a01b036102a9611f9d565b16913383036103735782600052600281526102c86040600020546122b2565b156103305782600052600281526102e2604060002061253a565b82600052600381526102f7604060002061253a565b8260005252604060002060ff1981541690557f850e5df914b57ac32b9b4cfb02944f8e955f9991d54ae5ccac3936a7b205cace600080a2005b60405162461bcd60e51b815291820152601760248201527f4d6574616461746120646f6573206e6f74206578697374000000000000000000604482015260649150fd5b60405162461bcd60e51b815291820152602560248201527f4f6e6c79207772617070656420736f6e672063616e2072656d6f7665206d6574604482015264616461746160d81b606482015260849150fd5b5034610149576020366003190112610149576103de611f9d565b6103e6612236565b6001600160a01b03169081156104125750600180546001600160a81b031916909117600160a01b179055005b60649060206040519162461bcd60e51b8352820152601f60248201527f496e76616c69642070726f746f636f6c206d6f64756c652061646472657373006044820152fd5b5034610149576020908160031936011261014957610472611f9d565b600154604051633aa690e760e01b81526001600160a01b0392831684820181905294929183908290602490829086165afa9081156105ac57829184916000916105b8575b508560405180948193638da5cb5b60e01b8352165afa9081156105ac5760009161057f575b501633036105315782600052600381526104f8604060002061253a565b8260005252604060002060ff1981541690557f44983a324fa169af1e5f7fc334fe51324c21a0f94c8407867926cb4266b0cb54600080a2005b60405162461bcd60e51b815291820152602260248201527f4f6e6c79206469737472696275746f722063616e2072656a6563742075706461604482015261746560f01b606482015260849150fd5b61059f9150833d85116105a5575b610597818361202c565b810190612293565b386104db565b503d61058d565b6040513d6000823e3d90fd5b6105cf9150823d84116105a557610597818361202c565b386104b6565b34610149576000366003190112610149576000546040516001600160a01b039091168152602090f35b3461014957600036600319011261014957610617612236565b600080546001600160a01b0319811682556001600160a01b03167f8be0079c531659141344cd1fd0a4f28419497f9722a3daafe3b4186f6b6457e08280a3005b503461014957610666366120af565b9061066f612262565b5060015460405163058dba2f60e11b81526001600160a01b038381168287015294916020908290602490829089165afa80156105ac578591600091610d44575b501615610d005783821660005260026020526106cf6040600020546122b2565b610cbc576106dc8361234a565b15610c8557838216600052600260205260406000209083518051906001600160401b038211610c7057819061071b8261071587546122b2565b87612303565b602090601f8311600114610c0a57600092610bff575b50508160011b916000199060031b1c19161782555b6001820160208501518051906001600160401b038211610a835781906107768261077086546122b2565b86612303565b602090601f8311600114610b9957600092610b8e575b50508160011b916000199060031b1c19161790555b6002820160408501518051906001600160401b038211610a835781906107cb8261077086546122b2565b602090601f8311600114610b2857600092610b1d575b50508160011b916000199060031b1c19161790555b60039182810160608601518051906001600160401b038211610b085781906108228261077086546122b2565b602090601f8311600114610aa357600092610a98575b50508160011b9160001990871b1c19161790555b60808501518051906001600160401b038211610a835761087a82610872868601546122b2565b868601612303565b602090601f8311600114610a1357600593929160009183610a08575b50508160011b9160001990871b1c191617838201555b019160a08501518051926001600160401b0384116109f357506108d38361077086546122b2565b602090601f841160011461096157927f6e59fb1f315f2f4b281014e9d51ca1387542c6af4109446eaaabadd34b5d5eb3949281926102819995600093610956575b50508260011b92600019911b1c19161790555b604051926020845216918061093f60208201866121b5565b0390a26040519182916020835260208301906121b5565b015191503880610914565b9190601f198416928560005260206000209360005b8181106109db57509285927f6e59fb1f315f2f4b281014e9d51ca1387542c6af4109446eaaabadd34b5d5eb39795926102819b97600196106109c1575b50505050811b019055610927565b01519060f884600019921b161c19169055388080806109b3565b92946020600181928886015181550196019301610976565b604190634e487b7160e01b6000525260246000fd5b015190503880610896565b9084840160005260206000209160005b601f1985168110610a6b575091839160019360059695601f19811610610a53575b505050811b01838201556108ac565b015160001983891b60f8161c19169055388080610a44565b91926020600181928685015181550194019201610a23565b604184634e487b7160e01b6000525260246000fd5b015190503880610838565b6000858152602081209350601f198516905b818110610af05750908460019594939210610ad8575b505050811b01905561084c565b015160001983891b60f8161c19169055388080610acb565b92936020600181928786015181550195019301610ab5565b604185634e487b7160e01b6000525260246000fd5b0151905038806107e1565b6000858152602081209350601f198516905b818110610b765750908460019594939210610b5d575b505050811b0190556107f6565b015160001960f88460031b161c19169055388080610b50565b92936020600181928786015181550195019301610b3a565b01519050388061078c565b6000858152602081209350601f198516905b818110610be75750908460019594939210610bce575b505050811b0190556107a1565b015160001960f88460031b161c19169055388080610bc1565b92936020600181928786015181550195019301610bab565b015190503880610731565b6000868152602081209350601f198516905b818110610c585750908460019594939210610c3f575b505050811b018255610746565b015160001960f88460031b161c19169055388080610c32565b92936020600181928786015181550195019301610c1c565b604183634e487b7160e01b6000525260246000fd5b60649060206040519162461bcd60e51b8352820152601060248201526f496e76616c6964206d6574616461746160801b6044820152fd5b60649060206040519162461bcd60e51b8352820152601760248201527f4d6574616461746120616c7265616479206578697374730000000000000000006044820152fd5b60649060206040519162461bcd60e51b8352820152601960248201527f41646472657373206e6f7420612070726f746f636f6c205753000000000000006044820152fd5b610d5d915060203d6020116105a557610597818361202c565b386106af565b503461014957610d72366120af565b604051638da5cb5b60e01b81526001600160a01b03939284169260209182818381885afa9081156105ac57600091611401575b508516331480156113f4575b156113a0578190600195865416604051928380926306f8718960e31b8252888583015260249586915afa9081156105ac57600091611373575b5061131c57610e00610dfb8561234a565b61238f565b846000526002835260406000208451968751926001600160401b039384811161130857610e318161077086546122b2565b8087601f9b8c83116001146112a55760009261129a575b5050600019600383901b1c191690831b1783555b81830186880151805190868211611218578190610e7d8261077086546122b2565b89908d83116001146112375760009261122c575b5050600019600383901b1c191690841b1790555b600283016040880151805190868211611218578190610ec88261077086546122b2565b89908d83116001146111b5576000926111aa575b5050600019600383901b1c191690841b1790555b6003928381016060890151805190878211611129578c8291610f168361071587546122b2565b8b9183116001146111485760009261113d575b505060001982881b1c191690851b1790555b818101608089015180519087821161112957610f6182610f5b85546122b2565b85612303565b89908d83116001146110c057600594939291600091836110b5575b505060001982891b1c191690861b1790555b019460a08801519182519586116110a2575050610faf8461071587546122b2565b8598841160011461101e578392917f4288f171f419b66095d6e026090ed813669ea5a62cfe4416a47e75549e47886698998492600095611013575b50501b92600019911b1c19161790555b61100e6040519282849384528301906121b5565b0390a2005b015193503880610fea565b909291601f1983169885600052866000209260005b8b811061108d5750847f4288f171f419b66095d6e026090ed813669ea5a62cfe4416a47e75549e4788669a9b10611073575b50505050811b019055610ffa565b01519060f884600019921b161c1916905538808080611065565b81830151855593860193918801918801611033565b604190634e487b7160e01b600052526000fd5b015190503880610f7c565b9392918691601f19821690846000528c600020918d6000905b8282106111125750509683600598106110fa575b505050811b019055610f8e565b0151600019838b1b60f8161c191690553880806110ed565b838a015185558b969094019392830192018e6110d9565b88604186634e487b7160e01b600052526000fd5b015190503880610f29565b60008581528c8120899550929190601f198516908e5b828210611193575050841161117b575b505050811b019055610f3b565b0151600019838a1b60f8161c1916905538808061116e565b8385015186558b979095019493840193018e61115e565b015190503880610edc565b90869350601f19831691856000528b6000209260005b8d82821061120257505084116111e9575b505050811b019055610ef0565b015160001960f88460031b161c191690553880806111dc565b8385015186558a979095019493840193016111cb565b87604185634e487b7160e01b600052526000fd5b015190503880610e91565b90869350601f19831691856000528b6000209260005b8d828210611284575050841161126b575b505050811b019055610ea5565b015160001960f88460031b161c1916905538808061125e565b8385015186558a9790950194938401930161124d565b015190503880610e48565b90859350601f19831691876000528a6000209260005b8c8282106112f257505084116112d9575b505050811b018355610e5c565b015160001960f88460031b161c191690553880806112cc565b83850151865589979095019493840193016112bb565b85604183634e487b7160e01b600052526000fd5b602d608492846040519362461bcd60e51b85528401528201527f43616e6e6f7420757064617465206d65746164617461206469726563746c792060448201526c61667465722072656c6561736560981b6064820152fd5b6113939150843d8611611399575b61138b818361202c565b810190612401565b38610dea565b503d611381565b6084916040519162461bcd60e51b8352820152602960248201527f4f6e6c79207772617070656420736f6e67206f7220697473206f776e65722063604482015268616e2075706461746560b81b6064820152fd5b5084600154163314610db1565b6114189150833d85116105a557610597818361202c565b38610da5565b34610149576000366003190112610149576001546040516001600160a01b039091168152602090f35b503461014957611456366120af565b611465610dfb8294939461234a565b604051638da5cb5b60e01b81526001600160a01b039384169260209182818381885afa9081156105ac57600091611aac575b508533911603611a575781600195865416604051918280926306f8718960e31b8252888683015260249485915afa9081156105ac57600091611a3a575b50156119e5578460005260038084526040600020908551978851926001600160401b03938481116119d1576115138161150d84546122b2565b84612303565b8088601f9c8d831160011461196f57600092611964575b505060001982861b1c191690831b1781555b81810187890151805190868211611809578c829161155e8361071587546122b2565b8b918311600114611902576000926118f7575b505060001982871b1c191690841b1790555b600281016040890151805190868211611809578c82916115a78361071587546122b2565b8b9183116001146118955760009261188a575b505060001982871b1c191690841b1790555b8281016060890151805190868211611809578c82916115ef8361071587546122b2565b8b9183116001146118285760009261181d575b505060001982871b1c191690841b1790555b85810160808901518051908682116118095761163482610f5b85546122b2565b89908d83116001146117a05760059493929160009183611795575b505060001982881b1c191690851b1790555b019360a088015190815194851161178257506116818461071587546122b2565b869984116001146116fe578392917fcfa38ad22e928cede6a19793c7da9bad051ddd68eaabfc0a35500e381a60cb39999a84926000956116f3575b50501b92600019911b1c19161790555b846000528152604060002060ff19815416905561100e6040519282849384528301906121b5565b0151935038806116bc565b909291601f1983169985600052876000209260005b8c811061176d5750847fcfa38ad22e928cede6a19793c7da9bad051ddd68eaabfc0a35500e381a60cb399b9c10611753575b50505050811b0190556116cc565b01519060f884600019921b161c1916905538808080611745565b81830151855593860193918901918901611713565b634e487b7160e01b600090815260418852fd5b01519050388061164f565b9392918591601f19821690846000528c600020918d6000905b8282106117f25750509683600598106117da575b505050811b019055611661565b0151600019838a1b60f8161c191690553880806117cd565b838a015185558a969094019392830192018e6117b9565b8760418a634e487b7160e01b600052526000fd5b015190503880611602565b60008581528c8120889550929190601f198516908e5b828210611873575050841161185b575b505050811b019055611614565b015160001983891b60f8161c1916905538808061184e565b8385015186558a979095019493840193018e61183e565b0151905038806115ba565b60008581528c8120889550929190601f198516908e5b8282106118e057505084116118c8575b505050811b0190556115cc565b015160001983891b60f8161c191690553880806118bb565b8385015186558a979095019493840193018e6118ab565b015190503880611571565b60008581528c8120889550929190601f198516908e5b82821061194d5750508411611935575b505050811b019055611583565b015160001983891b60f8161c19169055388080611928565b8385015186558a979095019493840193018e611918565b01519050388061152a565b90859350601f19831691856000528b6000209260005b8d8282106119bb57505084116119a3575b505050811b01815561153c565b015160001983881b60f8161c19169055388080611996565b8385015186558997909501949384019301611985565b85604188634e487b7160e01b600052526000fd5b602b906084936040519362461bcd60e51b85528401528201527f536f6e67206e6f742072656c65617365642c20757064617465206d657461646160448201526a7461206469726563746c7960a81b6064820152fd5b611a519150843d86116113995761138b818361202c565b386114d4565b6084916040519162461bcd60e51b8352820152602a60248201527f4f6e6c79207772617070656420736f6e67206f776e65722063616e20726571756044820152696573742075706461746560b01b6064820152fd5b611ac39150833d85116105a557610597818361202c565b38611497565b50346101495760208060031936011261014957611ae4611f9d565b600154604051633aa690e760e01b81526001600160a01b0392831681860181905294929184908290602490829086165afa9081156105ac5782918591600091611d78575b508460405180948193638da5cb5b60e01b8352165afa9081156105ac57600091611d5b575b50163303611d0d578260005280825260ff60406000205416611ccb577f4288f171f419b66095d6e026090ed813669ea5a62cfe4416a47e75549e4788669161100e60c09285600052600383526040600020600284526040600020818103611c6d575b50508560005260038352611bc6604060002061253a565b856000528083526040600020600160ff198254161790556002835260056040600020604051958587968752860152611c5d611c0460e087018361257f565b93611c4b611c38611c25601f1997888b82030160408c01526001870161257f565b878a82030160608b01526002860161257f565b868982030160808a01526003850161257f565b90858883030160a0890152830161257f565b928584030160c08601520161257f565b60058083611c7e611cc49585612419565b611c8e6001820160018601612419565b611c9e6002820160028601612419565b611cae6003820160038601612419565b611cbc868201878601612419565b019101612419565b3880611baf565b6064916040519162461bcd60e51b8352820152601a60248201527f4e6f2070656e64696e67206d65746164617461207570646174650000000000006044820152fd5b6084916040519162461bcd60e51b8352820152602360248201527f4f6e6c79206469737472696275746f722063616e20636f6e6669726d2075706460448201526261746560e81b6064820152fd5b611d729150843d86116105a557610597818361202c565b38611b4d565b611d8f9150823d84116105a557610597818361202c565b38611b28565b90503461014957604036600319011261014957611db0611f9d565b9060243560018060a01b038093169081600052602093600285526005611e626040600020611ddd87611ffb565b604051611dee816101f1818561257f565b8752604051611e04816101f1816001860161257f565b88880152604051611e1c816101f1816002860161257f565b6040880152604051611e35816101f1816003860161257f565b6060880152604051611e4d816101f1818d860161257f565b60808801526101f1604051809481930161257f565b60a08501526003821015611f4d57611ea2956000949392606092600154169360405198899687958695632fda23b760e01b875286015260648501906121b5565b916024840152604483015203915afa9182156105ac57600092611ed5575b50610281604051928284938452830190611fd6565b9091503d806000833e611ee8818361202c565b8101908281830312610149578051906001600160401b038211610149570181601f82011215610149578051611f1c8161204d565b92611f2a604051948561202c565b81845284828401011161014957611f4691848085019101611fb3565b9038611ec0565b60405162461bcd60e51b81528087018690526024808201527f496e76616c696420746f6b656e20494420666f72206d65746164617461206d6f60448201526364756c6560e01b6064820152608490fd5b600435906001600160a01b038216820361014957565b60005b838110611fc65750506000910152565b8181015183820152602001611fb6565b90602091611fef81518092818552858086019101611fb3565b601f01601f1916010190565b60c081019081106001600160401b0382111761201657604052565b634e487b7160e01b600052604160045260246000fd5b90601f801991011681019081106001600160401b0382111761201657604052565b6001600160401b03811161201657601f01601f191660200190565b81601f820112156101495780359061207f8261204d565b9261208d604051948561202c565b8284526020838301011161014957816000926020809301838601378301015290565b9060031960408184011261014957600480356001600160a01b03811681036101495793602435916001600160401b03938484116101495760c090848403011261014957604051936120ff85611ffb565b8382013581811161014957838361211892870101612068565b8552602484013581811161014957838361213492870101612068565b6020860152604484013581811161014957838361215392870101612068565b6040860152606484013581811161014957838361217292870101612068565b6060860152608484013581811161014957838361219192870101612068565b608086015260a4840135908111610149576121ad930101612068565b60a082015290565b6122339160a06122226122106121fe6121ec6121da875160c0885260c0880190611fd6565b60208801518782036020890152611fd6565b60408701518682036040880152611fd6565b60608601518582036060870152611fd6565b60808501518482036080860152611fd6565b9201519060a0818403910152611fd6565b90565b6000546001600160a01b0316330361224a57565b60405163118cdaa760e01b8152336004820152602490fd5b6040519061226f82611ffb565b8160a060609182815282602082015282604082015282808201528260808201520152565b9081602091031261014957516001600160a01b03811681036101495790565b90600182811c921680156122e2575b60208310146122cc57565b634e487b7160e01b600052602260045260246000fd5b91607f16916122c1565b8181106122f7575050565b600081556001016122ec565b9190601f811161231257505050565b61233e926000526020600020906020601f840160051c83019310612340575b601f0160051c01906122ec565b565b9091508190612331565b80515115159081612380575b81612371575b81612365575090565b60a09150015151151590565b6080810151511515915061235c565b60408101515115159150612356565b1561239657565b60405162461bcd60e51b815260206004820152603760248201527f496e76616c6964206d657461646174613a20416c6c207265717569726564206660448201527f69656c6473206d757374206265206e6f6e2d656d7074790000000000000000006064820152608490fd5b90816020910312610149575180151581036101495790565b908082146124ed5761242b81546122b2565b906001600160401b03821161201657819061244a8261077086546122b2565b600090601f831160011461248157600092612476575b50508160011b916000199060031b1c1916179055565b015490503880612460565b81526020808220858352818320935090601f1985169083905b8282106124d45750509084600195949392106124bb575b505050811b019055565b015460001960f88460031b161c191690553880806124b1565b849581929585015481556001809101960194019061249a565b5050565b6124fb81546122b2565b9081612505575050565b81601f60009311600114612517575055565b908083918252612536601f60208420940160051c8401600185016122ec565b5555565b600561233e91612549816124f1565b612555600182016124f1565b612561600282016124f1565b61256d600382016124f1565b612579600482016124f1565b016124f1565b9060009291805491612590836122b2565b9182825260019384811690816000146125f257506001146125b2575b50505050565b90919394506000526020928360002092846000945b8386106125de5750505050010190388080806125ac565b8054858701830152940193859082016125c7565b9294505050602093945060ff191683830152151560051b010190388080806125ac56fea2646970667358221220dfea81d4fe87ab7d5b08752dcd536a60fc415b2e92f4e32c6a0fe26061a69ed264736f6c63430008140033",
  "linkReferences": {},
  "deployedLinkReferences": {}
}