{
  "_format": "hh-sol-artifact-1",
  "contractName": "SongSharesMarketPlace",
  "sourceName": "contracts/protocol/NonUpgradable/SongSharesMarketPlace.sol",
  "abi": [
    {
      "inputs": [
        {
          "internalType": "address",
          "name": "_protocolModule",
          "type": "address"
        }
      ],
      "stateMutability": "nonpayable",
      "type": "constructor"
    },
    {
      "inputs": [
        {
          "internalType": "address",
          "name": "target",
          "type": "address"
        }
      ],
      "name": "AddressEmptyCode",
      "type": "error"
    },
    {
      "inputs": [
        {
          "internalType": "address",
          "name": "account",
          "type": "address"
        }
      ],
      "name": "AddressInsufficientBalance",
      "type": "error"
    },
    {
      "inputs": [],
      "name": "EnforcedPause",
      "type": "error"
    },
    {
      "inputs": [],
      "name": "ExpectedPause",
      "type": "error"
    },
    {
      "inputs": [],
      "name": "FailedInnerCall",
      "type": "error"
    },
    {
      "inputs": [
        {
          "internalType": "address",
          "name": "owner",
          "type": "address"
        }
      ],
      "name": "OwnableInvalidOwner",
      "type": "error"
    },
    {
      "inputs": [
        {
          "internalType": "address",
          "name": "account",
          "type": "address"
        }
      ],
      "name": "OwnableUnauthorizedAccount",
      "type": "error"
    },
    {
      "inputs": [],
      "name": "ReentrancyGuardReentrantCall",
      "type": "error"
    },
    {
      "inputs": [
        {
          "internalType": "address",
          "name": "token",
          "type": "address"
        }
      ],
      "name": "SafeERC20FailedOperation",
      "type": "error"
    },
    {
      "anonymous": false,
      "inputs": [
        {
          "indexed": true,
          "internalType": "address",
          "name": "wrappedSong",
          "type": "address"
        },
        {
          "indexed": false,
          "internalType": "address",
          "name": "token",
          "type": "address"
        },
        {
          "indexed": false,
          "internalType": "uint256",
          "name": "amount",
          "type": "uint256"
        },
        {
          "indexed": false,
          "internalType": "address",
          "name": "sender",
          "type": "address"
        }
      ],
      "name": "ERC20Received",
      "type": "event"
    },
    {
      "anonymous": false,
      "inputs": [
        {
          "indexed": true,
          "internalType": "address",
          "name": "wrappedSong",
          "type": "address"
        },
        {
          "indexed": true,
          "internalType": "address",
          "name": "to",
          "type": "address"
        },
        {
          "indexed": false,
          "internalType": "uint256",
          "name": "amount",
          "type": "uint256"
        }
      ],
      "name": "FundsWithdrawn",
      "type": "event"
    },
    {
      "anonymous": false,
      "inputs": [
        {
          "indexed": true,
          "internalType": "address",
          "name": "previousOwner",
          "type": "address"
        },
        {
          "indexed": true,
          "internalType": "address",
          "name": "newOwner",
          "type": "address"
        }
      ],
      "name": "OwnershipTransferred",
      "type": "event"
    },
    {
      "anonymous": false,
      "inputs": [
        {
          "indexed": false,
          "internalType": "address",
          "name": "account",
          "type": "address"
        }
      ],
      "name": "Paused",
      "type": "event"
    },
    {
      "anonymous": false,
      "inputs": [
        {
          "indexed": true,
          "internalType": "address",
          "name": "wrappedSong",
          "type": "address"
        }
      ],
      "name": "SharesSaleEnded",
      "type": "event"
    },
    {
      "anonymous": false,
      "inputs": [
        {
          "indexed": true,
          "internalType": "address",
          "name": "wrappedSong",
          "type": "address"
        },
        {
          "indexed": true,
          "internalType": "address",
          "name": "owner",
          "type": "address"
        },
        {
          "indexed": false,
          "internalType": "uint256",
          "name": "amount",
          "type": "uint256"
        },
        {
          "indexed": false,
          "internalType": "uint256",
          "name": "price",
          "type": "uint256"
        },
        {
          "indexed": false,
          "internalType": "uint256",
          "name": "maxSharesPerWallet",
          "type": "uint256"
        },
        {
          "indexed": false,
          "internalType": "address",
          "name": "stableCoinAddress",
          "type": "address"
        }
      ],
      "name": "SharesSaleStarted",
      "type": "event"
    },
    {
      "anonymous": false,
      "inputs": [
        {
          "indexed": true,
          "internalType": "address",
          "name": "wrappedSong",
          "type": "address"
        },
        {
          "indexed": true,
          "internalType": "address",
          "name": "buyer",
          "type": "address"
        },
        {
          "indexed": true,
          "internalType": "address",
          "name": "recipient",
          "type": "address"
        },
        {
          "indexed": false,
          "internalType": "uint256",
          "name": "amount",
          "type": "uint256"
        },
        {
          "indexed": false,
          "internalType": "uint256",
          "name": "totalCost",
          "type": "uint256"
        },
        {
          "indexed": false,
          "internalType": "address",
          "name": "paymentToken",
          "type": "address"
        }
      ],
      "name": "SharesSold",
      "type": "event"
    },
    {
      "anonymous": false,
      "inputs": [
        {
          "indexed": false,
          "internalType": "address",
          "name": "account",
          "type": "address"
        }
      ],
      "name": "Unpaused",
      "type": "event"
    },
    {
      "inputs": [
        {
          "internalType": "address",
          "name": "",
          "type": "address"
        }
      ],
      "name": "accumulatedFunds",
      "outputs": [
        {
          "internalType": "uint256",
          "name": "",
          "type": "uint256"
        }
      ],
      "stateMutability": "view",
      "type": "function"
    },
    {
      "inputs": [
        {
          "internalType": "address",
          "name": "wrappedSong",
          "type": "address"
        },
        {
          "internalType": "uint256",
          "name": "amount",
          "type": "uint256"
        },
        {
          "internalType": "address",
          "name": "recipient",
          "type": "address"
        }
      ],
      "name": "buyShares",
      "outputs": [],
      "stateMutability": "payable",
      "type": "function"
    },
    {
      "inputs": [
        {
          "internalType": "address",
          "name": "",
          "type": "address"
        },
        {
          "internalType": "address",
          "name": "",
          "type": "address"
        }
      ],
      "name": "buyerPurchases",
      "outputs": [
        {
          "internalType": "uint256",
          "name": "",
          "type": "uint256"
        }
      ],
      "stateMutability": "view",
      "type": "function"
    },
    {
      "inputs": [
        {
          "internalType": "address",
          "name": "wrappedSong",
          "type": "address"
        }
      ],
      "name": "endSale",
      "outputs": [],
      "stateMutability": "nonpayable",
      "type": "function"
    },
    {
      "inputs": [],
      "name": "feesModule",
      "outputs": [
        {
          "internalType": "contract IFeesModule",
          "name": "",
          "type": "address"
        }
      ],
      "stateMutability": "view",
      "type": "function"
    },
    {
      "inputs": [
        {
          "internalType": "address",
          "name": "wrappedSong",
          "type": "address"
        }
      ],
      "name": "getSale",
      "outputs": [
        {
          "components": [
            {
              "internalType": "bool",
              "name": "active",
              "type": "bool"
            },
            {
              "internalType": "address",
              "name": "seller",
              "type": "address"
            },
            {
              "internalType": "uint256",
              "name": "sharesForSale",
              "type": "uint256"
            },
            {
              "internalType": "uint256",
              "name": "pricePerShare",
              "type": "uint256"
            },
            {
              "internalType": "uint256",
              "name": "maxSharesPerWallet",
              "type": "uint256"
            },
            {
              "internalType": "uint256",
              "name": "totalSold",
              "type": "uint256"
            },
            {
              "internalType": "address",
              "name": "stableCoin",
              "type": "address"
            }
          ],
          "internalType": "struct SongSharesMarketPlace.Sale",
          "name": "",
          "type": "tuple"
        }
      ],
      "stateMutability": "view",
      "type": "function"
    },
    {
      "inputs": [],
      "name": "initialize",
      "outputs": [],
      "stateMutability": "nonpayable",
      "type": "function"
    },
    {
      "inputs": [
        {
          "internalType": "address",
          "name": "wrappedSong",
          "type": "address"
        },
        {
          "internalType": "address",
          "name": "seller",
          "type": "address"
        }
      ],
      "name": "isApprovedForShares",
      "outputs": [
        {
          "internalType": "bool",
          "name": "",
          "type": "bool"
        }
      ],
      "stateMutability": "view",
      "type": "function"
    },
    {
      "inputs": [
        {
          "internalType": "address",
          "name": "wrappedSong",
          "type": "address"
        }
      ],
      "name": "isSaleExpired",
      "outputs": [
        {
          "internalType": "bool",
          "name": "",
          "type": "bool"
        }
      ],
      "stateMutability": "view",
      "type": "function"
    },
    {
      "inputs": [],
      "name": "owner",
      "outputs": [
        {
          "internalType": "address",
          "name": "",
          "type": "address"
        }
      ],
      "stateMutability": "view",
      "type": "function"
    },
    {
      "inputs": [],
      "name": "pause",
      "outputs": [],
      "stateMutability": "nonpayable",
      "type": "function"
    },
    {
      "inputs": [],
      "name": "paused",
      "outputs": [
        {
          "internalType": "bool",
          "name": "",
          "type": "bool"
        }
      ],
      "stateMutability": "view",
      "type": "function"
    },
    {
      "inputs": [],
      "name": "protocolModule",
      "outputs": [
        {
          "internalType": "contract IProtocolModule",
          "name": "",
          "type": "address"
        }
      ],
      "stateMutability": "view",
      "type": "function"
    },
    {
      "inputs": [],
      "name": "renounceOwnership",
      "outputs": [],
      "stateMutability": "nonpayable",
      "type": "function"
    },
    {
      "inputs": [
        {
          "internalType": "address",
          "name": "",
          "type": "address"
        }
      ],
      "name": "saleStartTimes",
      "outputs": [
        {
          "internalType": "uint256",
          "name": "",
          "type": "uint256"
        }
      ],
      "stateMutability": "view",
      "type": "function"
    },
    {
      "inputs": [
        {
          "internalType": "address",
          "name": "",
          "type": "address"
        }
      ],
      "name": "sales",
      "outputs": [
        {
          "internalType": "bool",
          "name": "active",
          "type": "bool"
        },
        {
          "internalType": "address",
          "name": "seller",
          "type": "address"
        },
        {
          "internalType": "uint256",
          "name": "sharesForSale",
          "type": "uint256"
        },
        {
          "internalType": "uint256",
          "name": "pricePerShare",
          "type": "uint256"
        },
        {
          "internalType": "uint256",
          "name": "maxSharesPerWallet",
          "type": "uint256"
        },
        {
          "internalType": "uint256",
          "name": "totalSold",
          "type": "uint256"
        },
        {
          "internalType": "address",
          "name": "stableCoin",
          "type": "address"
        }
      ],
      "stateMutability": "view",
      "type": "function"
    },
    {
      "inputs": [
        {
          "internalType": "address",
          "name": "wrappedSong",
          "type": "address"
        },
        {
          "internalType": "uint256",
          "name": "amount",
          "type": "uint256"
        },
        {
          "internalType": "uint256",
          "name": "price",
          "type": "uint256"
        },
        {
          "internalType": "uint256",
          "name": "maxShares",
          "type": "uint256"
        },
        {
          "internalType": "address",
          "name": "_stableCoin",
          "type": "address"
        }
      ],
      "name": "startSale",
      "outputs": [],
      "stateMutability": "payable",
      "type": "function"
    },
    {
      "inputs": [
        {
          "internalType": "address",
          "name": "newOwner",
          "type": "address"
        }
      ],
      "name": "transferOwnership",
      "outputs": [],
      "stateMutability": "nonpayable",
      "type": "function"
    },
    {
      "inputs": [],
      "name": "unpause",
      "outputs": [],
      "stateMutability": "nonpayable",
      "type": "function"
    },
    {
      "inputs": [
        {
          "internalType": "address",
          "name": "wrappedSong",
          "type": "address"
        }
      ],
      "name": "withdrawFunds",
      "outputs": [],
      "stateMutability": "nonpayable",
      "type": "function"
    },
    {
      "stateMutability": "payable",
      "type": "receive"
    }
  ],
  "bytecode": "0x60a03461010e57601f6122f838819003918201601f19168301916001600160401b038311848410176101135780849260209460405283398101031261010e57516001600160a01b03908181169081900361010e5733156100f5576000543360018060a01b0319821617600055604051923391167f8be0079c531659141344cd1fd0a4f28419497f9722a3daafe3b4186f6b6457e0600080a36001805560ff19600254166002556080526121ce908161012a8239608051818181610260015281816105040152818161060c01528181610c1d01528181610e0201528181611062015281816116e201528181611ad90152611bdf0152f35b604051631e4fbdf760e01b815260006004820152602490fd5b600080fd5b634e487b7160e01b600052604160045260246000fdfe608080604052600436101561001d575b50361561001b57600080fd5b005b600090813560e01c90816325b8b8cb14611c7b575080633ec9898414611b735780633f4ba83a14611b085780635c42e66714611ac35780635c975abb14611aa057806368742da61461164757806369ac14871461160e5780636d4726d9146115e15780636ef3cd8a14610fc4578063703c92ae14610f75578063715018a614610f1b5780637cd4c4b414610ee25780638129fc1c14610dc95780638456cb5914610d6e5780638c9f7b3914610b845780638da5cb5b14610b5d578063ba074d1c14610a76578063c6b9f06a146109f2578063f2333ec4146101945763f2fde38b0361000f57346101915760203660031901126101915761011b611db0565b610123611ddc565b6001600160a01b0390811690811561017857600054826bffffffffffffffffffffffff60a01b821617600055167f8be0079c531659141344cd1fd0a4f28419497f9722a3daafe3b4186f6b6457e0600080a380f35b604051631e4fbdf760e01b815260048101849052602490fd5b80fd5b5060a0366003190112610191576101a9611db0565b6084356001600160a01b03811681036107ac576101c4611fb0565b604051638da5cb5b60e01b81526020816004816001600160a01b0387165afa80156109e7576102059185916109c8575b506001600160a01b03163314611e7b565b604051636fad7e9560e11b80825291906020816004816001600160a01b0388165afa90811561097f5785916109a9575b50604051631b3d58e960e21b81526001600160a01b03918216600482015290602090829060249082907f0000000000000000000000000000000000000000000000000000000000000000165afa801561097f5761029991869161098a575b50611ed8565b60025460405163d9fa987960e01b8152906020908290600490829060081c6001600160a01b03165afa90811561097f57859161094d575b503410610908576001600160a01b038316156108c357602435156102f48115611f24565b6305f5e1006024351161087e57701d6329f1c35ca4bfabb9f561000000000060443511610839576064359260243584116107e6576040519081526020816004816001600160a01b0389165afa9081156107015760449160209188916107b9575b50604051627eeac760e11b81523360048201526001602482015292839182906001600160a01b03165afa908115610701578691610782575b5060243511610747576001600160a01b03841685526003602052604085205460ff1661070c576001600160a01b0382166105e3575b60443561057a575b506001600160a01b038316845260056020526040808520429055516103ed81611e08565b6001815260056020820191338352604081016024358152606082016044358152608083019087825260a08401928a845260c085019660018060a01b038916885260018060a01b038b168c52600360205260408c20955115159060ff875491610100600160a81b03905160081b169216906affffffffffffffffffffff60a81b1617178555516001850155516002840155516003830155516004820155019060018060a01b039051166bffffffffffffffffffffffff60a01b8254161790556040519160243583526044356020840152604083015260018060a01b031660608201527f7e13ce3c75f9b5edb5e31305c6f620962f35f6554a1d3b8d7189be71041902ba6080339360018060a01b031692a380808080347f00000000000000000000000000000000000000000000000000000000000000006001600160a01b03165af1610536611f70565b501561053f5780f35b60405162461bcd60e51b8152602060048201526013602482015272119959481d1c985b9cd9995c8819985a5b1959606a1b6044820152606490fd5b6105cf57602435600019046044351161059357386103c9565b60405162461bcd60e51b81526020600482015260146024820152735072696365206f766572666c6f7720636865636b60601b6044820152606490fd5b634e487b7160e01b84526012600452602484fd5b60405163b5af090f60e01b81526001600160a01b038381166004830152602090829060249082907f0000000000000000000000000000000000000000000000000000000000000000165afa9081156107015786916106d2575b501561068d57813b6103c15760405162461bcd60e51b815260206004820152601a60248201527f496e76616c696420737461626c65636f696e20616464726573730000000000006044820152606490fd5b60405162461bcd60e51b815260206004820152601d60248201527f537461626c65636f696e206973206e6f742077686974656c69737465640000006044820152606490fd5b6106f4915060203d6020116106fa575b6106ec8183611e3a565b810190611ec0565b3861063c565b503d6106e2565b6040513d88823e3d90fd5b60405162461bcd60e51b815260206004820152601360248201527253616c6520616c72656164792061637469766560681b6044820152606490fd5b60405162461bcd60e51b8152602060048201526013602482015272496e73756666696369656e742073686172657360681b6044820152606490fd5b90506020813d6020116107b1575b8161079d60209383611e3a565b810103126107ac57513861038c565b600080fd5b3d9150610790565b6107d99150823d84116107df575b6107d18183611e3a565b810190611e5c565b38610354565b503d6107c7565b60405162461bcd60e51b815260206004820152602560248201527f4d617820736861726573207065722077616c6c6574206c657373207468616e206044820152641d1bdd185b60da1b6064820152608490fd5b60405162461bcd60e51b815260206004820152601b60248201527f50726963652065786365656473206d6178696d756d206c696d697400000000006044820152606490fd5b60405162461bcd60e51b815260206004820152601c60248201527f416d6f756e742065786365656473206d6178696d756d206c696d6974000000006044820152606490fd5b60405162461bcd60e51b815260206004820152601c60248201527f496e76616c6964207772617070656420736f6e672061646472657373000000006044820152606490fd5b60405162461bcd60e51b815260206004820152601b60248201527f496e73756666696369656e742073746172742073616c652066656500000000006044820152606490fd5b90506020813d602011610977575b8161096860209383611e3a565b810103126107ac5751386102d0565b3d915061095b565b6040513d87823e3d90fd5b6109a3915060203d6020116106fa576106ec8183611e3a565b38610293565b6109c2915060203d6020116107df576107d18183611e3a565b38610235565b6109e1915060203d6020116107df576107d18183611e3a565b386101f4565b6040513d86823e3d90fd5b50346101915760203660031901126101915760e0906001600160a01b039060409082610a1c611db0565b1681526003602052209081549160018101546002820154600383015491846005600486015495015416946040519660ff81161515885260081c16602087015260408601526060850152608084015260a083015260c0820152f35b503461019157604036600319011261019157610a90611db0565b90610a99611dc6565b604051636fad7e9560e11b815260209390916001600160a01b039185908490600490829086165afa9283156109e757908592918594610b3b575b5060405163e985e9c560e01b815290821660048201523060248201529283916044918391165afa918215610b2f5791610b12575b506040519015158152f35b610b299150823d84116106fa576106ec8183611e3a565b38610b07565b604051903d90823e3d90fd5b6044919450610b5690843d86116107df576107d18183611e3a565b9390610ad3565b5034610191578060031936011261019157546040516001600160a01b039091168152602090f35b503461019157602080600319360112610d6a576001600160a01b039081610ba9611db0565b1691604051638da5cb5b60e01b81528281600481875afa801561097f57610bdb918691610d4d575b5082163314611e7b565b604051636fad7e9560e11b808252908381600481885afa908115610701578691610d30575b50604051631b3d58e960e21b8152908316600482015283816024817f000000000000000000000000000000000000000000000000000000000000000087165afa801561070157610c56918791610d195750611ed8565b6040519081528281600481875afa801561097f57610cfc575b50828452600382526040842091825491610c8b60ff8416611fce565b33908360081c1603610cc5575060ff191690557f50e9428f1419cdaec089c86c412fd52565cbe415f195d893357a3a8b2a0e646a8280a280f35b6064906040519062461bcd60e51b82526004820152601060248201526f2737ba1039b0b6329031b932b0ba37b960811b6044820152fd5b610d1290833d85116107df576107d18183611e3a565b5038610c6f565b6109a39150853d87116106fa576106ec8183611e3a565b610d479150843d86116107df576107d18183611e3a565b38610c00565b610d649150843d86116107df576107d18183611e3a565b38610bd1565b5080fd5b5034610191578060031936011261019157610d87611ddc565b610d8f611fb0565b600160ff1960025416176002557f62e78cea01bee320cd4e420270b5ea74000d11b0c9f74754ebdbfc544b05a2586020604051338152a180f35b5034610191578060031936011261019157610de2611ddc565b60405163670d296960e11b81526020906001600160a01b039082816004817f000000000000000000000000000000000000000000000000000000000000000086165afa9081156109e757829184918691610ec5575b50600460405180948193636d4726d960e01b8352165afa9283156109e7578493610e88575b505060028054610100600160a81b03191660089390931b610100600160a81b0316929092179091555080f35b9080929350813d8311610ebe575b610ea08183611e3a565b81010312610eba57519081168103610d6a57388080610e5c565b8280fd5b503d610e96565b610edc9150823d84116107df576107d18183611e3a565b38610e37565b5034610191576020366003190112610191576020906040906001600160a01b03610f0a611db0565b168152600683522054604051908152f35b5034610191578060031936011261019157610f34611ddc565b600080546001600160a01b0319811682556001600160a01b03167f8be0079c531659141344cd1fd0a4f28419497f9722a3daafe3b4186f6b6457e08280a380f35b503461019157604036600319011261019157610f8f611db0565b6040610f99611dc6565b9260018060a01b03809316815260046020522091166000526020526020604060002054604051908152f35b50606036600319011261019157610fd9611db0565b6044356001600160a01b038181169260248035939091908590036115dd578290611001611fb0565b611009612123565b1691821515806115d4575b1561159e578315906110268215611f24565b838752602092600384526040882061104160ff825416611fce565b858952600585526040808a2054905163391ff95160e11b81529086826004817f000000000000000000000000000000000000000000000000000000000000000089165afa9081156113dc578b91611569575b61109d925061200b565b4211611536576001810180548089116114f25760028301546110bf818b61202e565b9681611488575b5050878b526004875260408b208a8c5287526110e68960408d205461200b565b90888c526004885260408c208b8d52885260408c2054821061144457896003850154806113e7575b5061111891612041565b8255600483016111298a825461200b565b9055878b526004875260408b208a8c52875260408b205560405192636fad7e9560e11b845286846004818b5afa9384156113dc578b946113bd575b5060058301805490949086161561135c573461130a5785855416604051906323b872dd60e01b8a8301523384830152306044830152886064830152606482528160a081011067ffffffffffffffff60a0840111176112f757816111cf9160a08a95940160405261204e565b898d526006895260408d206111e589825461200b565b90555b16908b86855460081c16833b15610d6a5760c48d91838e966040519788958694637921219560e11b865260048601528885015260016044850152606484015260a060848401528160a48401525af180156112ec576112bc575b50505415611289575b5054169160405194855284015260408301527f16a6b05063764eec367f7f75e1d59322471f7bd0cc347509f5796d7ce8e3e86660603393a46001805580f35b805460ff19169055847f50e9428f1419cdaec089c86c412fd52565cbe415f195d893357a3a8b2a0e646a8980a23861124a565b67ffffffffffffffff829c939c116112da5750604052983880611241565b634e487b7160e01b8352604160045282fd5b6040513d8e823e3d90fd5b634e487b7160e01b8e526041600452838efd5b60405162461bcd60e51b8152600481018990526025818401527f455448206e6f7420616363657074656420666f7220737461626c6520636f696e6044820152642073616c6560d81b6064820152608490fd5b863403611382578590898d526006895260408d2061137b34825461200b565b90556111e8565b60405162461bcd60e51b81526004810189905260148184015273125b98dbdc9c9958dd0811551208185b5bdd5b9d60621b6044820152606490fd5b6113d5919450873d89116107df576107d18183611e3a565b9238611164565b6040513d8d823e3d90fd5b905082116113f657893861110e565b60405162461bcd60e51b8152600481018990526021818701527f45786365656473206d6178696d756d20736861726573207065722077616c6c656044820152601d60fa1b6064820152608490fd5b60405162461bcd60e51b8152600481018990526018818701527f507572636861736520616d6f756e74206f766572666c6f7700000000000000006044820152606490fd5b6114df578987040361149b5738806110c6565b60405162461bcd60e51b815260048101889052601a818601527f50726963652063616c63756c6174696f6e206f766572666c6f770000000000006044820152606490fd5b634e487b7160e01b8c526012600452848cfd5b60405162461bcd60e51b815260048101889052601b818601527f4e6f7420656e6f7567682073686172657320617661696c61626c6500000000006044820152606490fd5b60405162461bcd60e51b815260048101869052600c818401526b14d85b1948195e1c1a5c995960a21b6044820152606490fd5b90508682813d8311611597575b6115808183611e3a565b810103126115935761109d915190611093565b8a80fd5b503d611576565b60405162461bcd60e51b815260206004820152600f818401526e496e76616c6964206164647265737360881b6044820152606490fd5b50841515611014565b8580fd5b503461019157806003193601126101915760025460405160089190911c6001600160a01b03168152602090f35b5034610191576020366003190112610191576020906040906001600160a01b03611636611db0565b168152600583522054604051908152f35b503461019157602080600319360112610d6a57611662611db0565b61166a612123565b604051638da5cb5b60e01b81526001600160a01b0391821691908381600481865afa801561097f576116a6918691611a89575082163314611e7b565b604051636fad7e9560e11b8152928084600481865afa93841561097f578594611a6a575b50604051631b3d58e960e21b815293821660048501527f000000000000000000000000000000000000000000000000000000000000000082169360249082818381895afa8015611a5f57611724918891611a485750611ed8565b838652600682526040862054928315611a0d578487526003835260048382600560408b200154169260025460081c166040519283809263191ebe9d60e31b82525afa908115611a025788916119cf575b50611782612710918661202e565b049161178e8386612041565b86895260068552604089208990559482156118c6576040516370a0823160e01b815230600482015285818481875afa9081156118bb578a9161188a575b501061184757506117dd843383612146565b818681611836575b5050505b6040519283527fa92ff919b850e4909ab2261d907ef955f11bc1716733a6cbece38d163a69af8a928484843393a380611825575b856001805580f35b604051908152a3388080808061181d565b61183f92612146565b3881866117e5565b83601d6064926040519262461bcd60e51b845260048401528201527f496e73756666696369656e7420636f6e74726163742062616c616e63650000006044820152fd5b90508581813d83116118b4575b6118a18183611e3a565b810103126118b05751386117cb565b8980fd5b503d611897565b6040513d8c823e3d90fd5b909150471061198c578680808087335af16118df611f70565b501561194957816118f1575b506117e9565b86808080858a5af1611901611f70565b506118eb5782601f6064926040519262461bcd60e51b845260048401528201527f455448207472616e7366657220746f2070726f746f636f6c206661696c6564006044820152fd5b82601b6064926040519262461bcd60e51b845260048401528201527f455448207472616e7366657220746f2075736572206661696c656400000000006044820152fd5b8260186064926040519262461bcd60e51b845260048401528201527f496e73756666696369656e74204554482062616c616e636500000000000000006044820152fd5b90508381813d83116119fb575b6119e68183611e3a565b810103126119f75751611782611774565b8780fd5b503d6119dc565b6040513d8a823e3d90fd5b60405162461bcd60e51b815260048101849052601481840152734e6f2066756e647320746f20776974686472617760601b6044820152606490fd5b6109a39150843d86116106fa576106ec8183611e3a565b6040513d89823e3d90fd5b81611a829295503d86116107df576107d18183611e3a565b92386116ca565b610d649150853d87116107df576107d18183611e3a565b5034610191578060031936011261019157602060ff600254166040519015158152f35b50346101915780600319360112610191576040517f00000000000000000000000000000000000000000000000000000000000000006001600160a01b03168152602090f35b5034610191578060031936011261019157611b21611ddc565b60025460ff811615611b615760ff19166002557f5db9ee0a495bf2e6ff9c91a7834c1ba4fdd244a5e8aa4e537bd38aeae4b073aa6020604051338152a180f35b604051638dfc202b60e01b8152600490fd5b503461019157602080600319360112610d6a576001600160a01b0380611b97611db0565b604051636fad7e9560e11b81529291168383600481845afa92831561097f57600493611c5e575b50845260058352826040852054916040519384809263391ff95160e11b82527f0000000000000000000000000000000000000000000000000000000000000000165afa9182156109e7578492611c24575b5090611c1a9161200b565b4211604051908152f35b9091508281813d8311611c57575b611c3c8183611e3a565b81010312611c5357611c1a92935051908392611c0f565b8380fd5b503d611c32565b611c7490853d87116107df576107d18183611e3a565b5038611bbe565b905034610d6a5760209081600319360112610eba578260c0611c9b611db0565b92611ca581611e08565b82815282858201528260408201528260608201528260808201528260a0820152015260018060a01b03809116604051636fad7e9560e11b81528381600481855afa801561097f579160e09591604093611d93575b508152600384522060405190611d0e82611e08565b805460ff8116151594858452848185019260081c16825260018301546040850190815260028401549160608601928352866003860154946080880195865260c082600560048a01549960a08c019a8b520154169801978852604051998a525116908801525160408701525160608601525160808501525160a0840152511660c0820152f35b611da990863d88116107df576107d18183611e3a565b5038611cf9565b600435906001600160a01b03821682036107ac57565b602435906001600160a01b03821682036107ac57565b6000546001600160a01b03163303611df057565b60405163118cdaa760e01b8152336004820152602490fd5b60e0810190811067ffffffffffffffff821117611e2457604052565b634e487b7160e01b600052604160045260246000fd5b90601f8019910116810190811067ffffffffffffffff821117611e2457604052565b908160209103126107ac57516001600160a01b03811681036107ac5790565b15611e8257565b60405162461bcd60e51b81526020600482015260166024820152752737ba103bb930b83832b21039b7b7339037bbb732b960511b6044820152606490fd5b908160209103126107ac575180151581036107ac5790565b15611edf57565b60405162461bcd60e51b815260206004820152601f60248201527f4e6f7420612076657269666965642070726f746f636f6c205753546f6b656e006044820152606490fd5b15611f2b57565b60405162461bcd60e51b815260206004820152601d60248201527f416d6f756e74206d7573742062652067726561746572207468616e20300000006044820152606490fd5b3d15611fab573d9067ffffffffffffffff8211611e245760405191611f9f601f8201601f191660200184611e3a565b82523d6000602084013e565b606090565b60ff60025416611fbc57565b60405163d93c066560e01b8152600490fd5b15611fd557565b60405162461bcd60e51b815260206004820152600e60248201526d4e6f206163746976652073616c6560901b6044820152606490fd5b9190820180921161201857565b634e487b7160e01b600052601160045260246000fd5b8181029291811591840414171561201857565b9190820391821161201857565b6000806120779260018060a01b03169360208151910182865af1612070611f70565b90836120c0565b80519081151591826120a5575b505061208d5750565b60249060405190635274afe760e01b82526004820152fd5b6120b89250602080918301019101611ec0565b153880612084565b906120e757508051156120d557805190602001fd5b604051630a12f52160e11b8152600490fd5b8151158061211a575b6120f8575090565b604051639996b31560e01b81526001600160a01b039091166004820152602490fd5b50803b156120f0565b600260015414612134576002600155565b604051633ee5aeb560e01b8152600490fd5b60405163a9059cbb60e01b60208201526001600160a01b039092166024830152604480830193909352918152608081019167ffffffffffffffff831182841017611e24576121969260405261204e565b56fea2646970667358221220ed5838fde6a3df83f39915987b079ca3201b34143719d463275494403644aea164736f6c63430008140033",
  "linkReferences": {},
  "deployedLinkReferences": {}
}