{
  "_format": "hh-sol-artifact-1",
  "contractName": "SongSharesMarketPlace",
  "sourceName": "contracts/protocol/NonUpgradable/SongSharesMarketPlace.sol",
  "abi": [
    {
      "inputs": [
        {
          "internalType": "address",
          "name": "_protocolModule",
          "type": "address"
        }
      ],
      "stateMutability": "nonpayable",
      "type": "constructor"
    },
    {
      "inputs": [
        {
          "internalType": "address",
          "name": "target",
          "type": "address"
        }
      ],
      "name": "AddressEmptyCode",
      "type": "error"
    },
    {
      "inputs": [
        {
          "internalType": "address",
          "name": "account",
          "type": "address"
        }
      ],
      "name": "AddressInsufficientBalance",
      "type": "error"
    },
    {
      "inputs": [],
      "name": "EnforcedPause",
      "type": "error"
    },
    {
      "inputs": [],
      "name": "ExpectedPause",
      "type": "error"
    },
    {
      "inputs": [],
      "name": "FailedInnerCall",
      "type": "error"
    },
    {
      "inputs": [
        {
          "internalType": "address",
          "name": "owner",
          "type": "address"
        }
      ],
      "name": "OwnableInvalidOwner",
      "type": "error"
    },
    {
      "inputs": [
        {
          "internalType": "address",
          "name": "account",
          "type": "address"
        }
      ],
      "name": "OwnableUnauthorizedAccount",
      "type": "error"
    },
    {
      "inputs": [],
      "name": "ReentrancyGuardReentrantCall",
      "type": "error"
    },
    {
      "inputs": [
        {
          "internalType": "address",
          "name": "token",
          "type": "address"
        }
      ],
      "name": "SafeERC20FailedOperation",
      "type": "error"
    },
    {
      "anonymous": false,
      "inputs": [
        {
          "indexed": true,
          "internalType": "address",
          "name": "wrappedSong",
          "type": "address"
        },
        {
          "indexed": false,
          "internalType": "address",
          "name": "token",
          "type": "address"
        },
        {
          "indexed": false,
          "internalType": "uint256",
          "name": "amount",
          "type": "uint256"
        },
        {
          "indexed": false,
          "internalType": "address",
          "name": "sender",
          "type": "address"
        }
      ],
      "name": "ERC20Received",
      "type": "event"
    },
    {
      "anonymous": false,
      "inputs": [
        {
          "indexed": true,
          "internalType": "address",
          "name": "wrappedSong",
          "type": "address"
        },
        {
          "indexed": true,
          "internalType": "address",
          "name": "to",
          "type": "address"
        },
        {
          "indexed": false,
          "internalType": "uint256",
          "name": "amount",
          "type": "uint256"
        }
      ],
      "name": "FundsWithdrawn",
      "type": "event"
    },
    {
      "anonymous": false,
      "inputs": [
        {
          "indexed": true,
          "internalType": "address",
          "name": "previousOwner",
          "type": "address"
        },
        {
          "indexed": true,
          "internalType": "address",
          "name": "newOwner",
          "type": "address"
        }
      ],
      "name": "OwnershipTransferred",
      "type": "event"
    },
    {
      "anonymous": false,
      "inputs": [
        {
          "indexed": false,
          "internalType": "address",
          "name": "account",
          "type": "address"
        }
      ],
      "name": "Paused",
      "type": "event"
    },
    {
      "anonymous": false,
      "inputs": [
        {
          "indexed": true,
          "internalType": "address",
          "name": "wrappedSong",
          "type": "address"
        }
      ],
      "name": "SharesSaleEnded",
      "type": "event"
    },
    {
      "anonymous": false,
      "inputs": [
        {
          "indexed": true,
          "internalType": "address",
          "name": "wrappedSong",
          "type": "address"
        },
        {
          "indexed": true,
          "internalType": "address",
          "name": "owner",
          "type": "address"
        },
        {
          "indexed": false,
          "internalType": "uint256",
          "name": "amount",
          "type": "uint256"
        },
        {
          "indexed": false,
          "internalType": "uint256",
          "name": "price",
          "type": "uint256"
        },
        {
          "indexed": false,
          "internalType": "uint256",
          "name": "maxSharesPerWallet",
          "type": "uint256"
        },
        {
          "indexed": false,
          "internalType": "address",
          "name": "stableCoinAddress",
          "type": "address"
        }
      ],
      "name": "SharesSaleStarted",
      "type": "event"
    },
    {
      "anonymous": false,
      "inputs": [
        {
          "indexed": true,
          "internalType": "address",
          "name": "wrappedSong",
          "type": "address"
        },
        {
          "indexed": true,
          "internalType": "address",
          "name": "buyer",
          "type": "address"
        },
        {
          "indexed": true,
          "internalType": "address",
          "name": "recipient",
          "type": "address"
        },
        {
          "indexed": false,
          "internalType": "uint256",
          "name": "amount",
          "type": "uint256"
        },
        {
          "indexed": false,
          "internalType": "uint256",
          "name": "totalCost",
          "type": "uint256"
        },
        {
          "indexed": false,
          "internalType": "address",
          "name": "paymentToken",
          "type": "address"
        }
      ],
      "name": "SharesSold",
      "type": "event"
    },
    {
      "anonymous": false,
      "inputs": [
        {
          "indexed": false,
          "internalType": "address",
          "name": "account",
          "type": "address"
        }
      ],
      "name": "Unpaused",
      "type": "event"
    },
    {
      "inputs": [
        {
          "internalType": "address",
          "name": "",
          "type": "address"
        }
      ],
      "name": "accumulatedFunds",
      "outputs": [
        {
          "internalType": "uint256",
          "name": "",
          "type": "uint256"
        }
      ],
      "stateMutability": "view",
      "type": "function"
    },
    {
      "inputs": [
        {
          "internalType": "address",
          "name": "wrappedSong",
          "type": "address"
        },
        {
          "internalType": "uint256",
          "name": "amount",
          "type": "uint256"
        },
        {
          "internalType": "address",
          "name": "recipient",
          "type": "address"
        }
      ],
      "name": "buyShares",
      "outputs": [],
      "stateMutability": "payable",
      "type": "function"
    },
    {
      "inputs": [
        {
          "internalType": "address",
          "name": "",
          "type": "address"
        },
        {
          "internalType": "address",
          "name": "",
          "type": "address"
        }
      ],
      "name": "buyerPurchases",
      "outputs": [
        {
          "internalType": "uint256",
          "name": "",
          "type": "uint256"
        }
      ],
      "stateMutability": "view",
      "type": "function"
    },
    {
      "inputs": [
        {
          "internalType": "address",
          "name": "wrappedSong",
          "type": "address"
        }
      ],
      "name": "endSale",
      "outputs": [],
      "stateMutability": "nonpayable",
      "type": "function"
    },
    {
      "inputs": [],
      "name": "feesModule",
      "outputs": [
        {
          "internalType": "contract IFeesModule",
          "name": "",
          "type": "address"
        }
      ],
      "stateMutability": "view",
      "type": "function"
    },
    {
      "inputs": [
        {
          "internalType": "address",
          "name": "wrappedSong",
          "type": "address"
        }
      ],
      "name": "getSale",
      "outputs": [
        {
          "components": [
            {
              "internalType": "bool",
              "name": "active",
              "type": "bool"
            },
            {
              "internalType": "address",
              "name": "seller",
              "type": "address"
            },
            {
              "internalType": "uint256",
              "name": "sharesForSale",
              "type": "uint256"
            },
            {
              "internalType": "uint256",
              "name": "pricePerShare",
              "type": "uint256"
            },
            {
              "internalType": "uint256",
              "name": "maxSharesPerWallet",
              "type": "uint256"
            },
            {
              "internalType": "uint256",
              "name": "totalSold",
              "type": "uint256"
            },
            {
              "internalType": "address",
              "name": "stableCoin",
              "type": "address"
            }
          ],
          "internalType": "struct SongSharesMarketPlace.Sale",
          "name": "",
          "type": "tuple"
        }
      ],
      "stateMutability": "view",
      "type": "function"
    },
    {
      "inputs": [
        {
          "internalType": "address",
          "name": "wrappedSong",
          "type": "address"
        },
        {
          "internalType": "address",
          "name": "seller",
          "type": "address"
        }
      ],
      "name": "isApprovedForShares",
      "outputs": [
        {
          "internalType": "bool",
          "name": "",
          "type": "bool"
        }
      ],
      "stateMutability": "view",
      "type": "function"
    },
    {
      "inputs": [
        {
          "internalType": "address",
          "name": "wrappedSong",
          "type": "address"
        }
      ],
      "name": "isSaleExpired",
      "outputs": [
        {
          "internalType": "bool",
          "name": "",
          "type": "bool"
        }
      ],
      "stateMutability": "view",
      "type": "function"
    },
    {
      "inputs": [],
      "name": "owner",
      "outputs": [
        {
          "internalType": "address",
          "name": "",
          "type": "address"
        }
      ],
      "stateMutability": "view",
      "type": "function"
    },
    {
      "inputs": [],
      "name": "pause",
      "outputs": [],
      "stateMutability": "nonpayable",
      "type": "function"
    },
    {
      "inputs": [],
      "name": "paused",
      "outputs": [
        {
          "internalType": "bool",
          "name": "",
          "type": "bool"
        }
      ],
      "stateMutability": "view",
      "type": "function"
    },
    {
      "inputs": [],
      "name": "protocolModule",
      "outputs": [
        {
          "internalType": "contract IProtocolModule",
          "name": "",
          "type": "address"
        }
      ],
      "stateMutability": "view",
      "type": "function"
    },
    {
      "inputs": [],
      "name": "renounceOwnership",
      "outputs": [],
      "stateMutability": "nonpayable",
      "type": "function"
    },
    {
      "inputs": [
        {
          "internalType": "address",
          "name": "",
          "type": "address"
        }
      ],
      "name": "saleStartTimes",
      "outputs": [
        {
          "internalType": "uint256",
          "name": "",
          "type": "uint256"
        }
      ],
      "stateMutability": "view",
      "type": "function"
    },
    {
      "inputs": [
        {
          "internalType": "address",
          "name": "",
          "type": "address"
        }
      ],
      "name": "sales",
      "outputs": [
        {
          "internalType": "bool",
          "name": "active",
          "type": "bool"
        },
        {
          "internalType": "address",
          "name": "seller",
          "type": "address"
        },
        {
          "internalType": "uint256",
          "name": "sharesForSale",
          "type": "uint256"
        },
        {
          "internalType": "uint256",
          "name": "pricePerShare",
          "type": "uint256"
        },
        {
          "internalType": "uint256",
          "name": "maxSharesPerWallet",
          "type": "uint256"
        },
        {
          "internalType": "uint256",
          "name": "totalSold",
          "type": "uint256"
        },
        {
          "internalType": "address",
          "name": "stableCoin",
          "type": "address"
        }
      ],
      "stateMutability": "view",
      "type": "function"
    },
    {
      "inputs": [
        {
          "internalType": "address",
          "name": "wrappedSong",
          "type": "address"
        },
        {
          "internalType": "uint256",
          "name": "amount",
          "type": "uint256"
        },
        {
          "internalType": "uint256",
          "name": "price",
          "type": "uint256"
        },
        {
          "internalType": "uint256",
          "name": "maxShares",
          "type": "uint256"
        },
        {
          "internalType": "address",
          "name": "_stableCoin",
          "type": "address"
        }
      ],
      "name": "startSale",
      "outputs": [],
      "stateMutability": "payable",
      "type": "function"
    },
    {
      "inputs": [
        {
          "internalType": "address",
          "name": "newOwner",
          "type": "address"
        }
      ],
      "name": "transferOwnership",
      "outputs": [],
      "stateMutability": "nonpayable",
      "type": "function"
    },
    {
      "inputs": [],
      "name": "unpause",
      "outputs": [],
      "stateMutability": "nonpayable",
      "type": "function"
    },
    {
      "inputs": [
        {
          "internalType": "address",
          "name": "wrappedSong",
          "type": "address"
        }
      ],
      "name": "withdrawFunds",
      "outputs": [],
      "stateMutability": "nonpayable",
      "type": "function"
    },
    {
      "stateMutability": "payable",
      "type": "receive"
    }
  ],
  "bytecode": "0x60a03461010e57601f61237838819003918201601f19168301916001600160401b038311848410176101135780849260209460405283398101031261010e57516001600160a01b03908181169081900361010e5733156100f5576000543360018060a01b0319821617600055604051923391167f8be0079c531659141344cd1fd0a4f28419497f9722a3daafe3b4186f6b6457e0600080a36001805560ff196002541660025560805261224e908161012a8239608051818181610252015281816102a0015281816105a4015281816106ad01528181610cef0152818161102e015281816116af01528181611b590152611c5f0152f35b604051631e4fbdf760e01b815260006004820152602490fd5b600080fd5b634e487b7160e01b600052604160045260246000fdfe608080604052600436101561001d575b50361561001b57600080fd5b005b600090813560e01c90816325b8b8cb14611cf7575080633ec9898414611bf35780633f4ba83a14611b885780635c42e66714611b435780635c975abb14611b2057806368742da61461161457806369ac1487146115db5780636d4726d9146115ae5780636ef3cd8a14610f93578063703c92ae14610f44578063715018a614610eea5780637cd4c4b414610eb15780638456cb5914610e565780638c9f7b3914610c565780638da5cb5b14610c2f578063ba074d1c14610b3d578063c6b9f06a14610ab9578063f2333ec4146101895763f2fde38b0361000f573461018657602036600319011261018657610110611e30565b610118611e5c565b6001600160a01b0390811690811561016d57600054826bffffffffffffffffffffffff60a01b821617600055167f8be0079c531659141344cd1fd0a4f28419497f9722a3daafe3b4186f6b6457e0600080a380f35b604051631e4fbdf760e01b815260048101849052602490fd5b80fd5b5060a03660031901126101865761019e611e30565b6084356001600160a01b038116900361084f576101b9612030565b604051638da5cb5b60e01b81526020816004816001600160a01b0386165afa80156107a4576101fa918491610a9a575b506001600160a01b03163314611efb565b604051636fad7e9560e11b81526020816004816001600160a01b0386165afa9081156107a4578391610a7b575b50604051631b3d58e960e21b81526001600160a01b03918216600482015290602090829060249082907f0000000000000000000000000000000000000000000000000000000000000000165afa80156107a45761028b918491610a5c575b50611f58565b60405163670d296960e11b81526020816004817f00000000000000000000000000000000000000000000000000000000000000006001600160a01b03165afa9081156107a4576004916020918591610a3f575b50604051636d4726d960e01b815292839182906001600160a01b03165afa9081156107a4576004916020918591610a22575b5060028054610100600160a81b031916600892831b610100600160a81b0316179081905560405163d9fa987960e01b8152938492909183911c6001600160a01b03165afa9081156107a45783916109f0575b5034106109ab576001600160a01b03811615610966576103856024351515611fa4565b6305f5e1006024351161092157701d6329f1c35ca4bfabb9f5610000000000604435116108dc576024356064351161088957604051636fad7e9560e11b81526020816004816001600160a01b0386165afa9081156107a457604491602091859161085c575b50604051627eeac760e11b81523360048201526001602482015292839182906001600160a01b03165afa9081156107a4578391610825575b50602435116107ea576001600160a01b03811682526003602052604082205460ff166107af576084356001600160a01b0316610682575b60443561061a575b6001600160a01b0381168252600560205260408083204290555161048481611e88565b60018152600560208201913383526040810160243581526060820160443581526080830190606435825260a084019288845260c085019660018060a01b0360843516885260018060a01b0389168a52600360205260408a20955115159060ff875491610100600160a81b03905160081b169216906affffffffffffffffffffff60a81b1617178555516001850155516002840155516003830155516004820155019060018060a01b039051166bffffffffffffffffffffffff60a01b82541617905560405160243581526044356020820152606435604082015260018060a01b036084351660608201527f7e13ce3c75f9b5edb5e31305c6f620962f35f6554a1d3b8d7189be71041902ba6080339360018060a01b031692a380808080347f00000000000000000000000000000000000000000000000000000000000000006001600160a01b03165af16105d6611ff0565b50156105df5780f35b60405162461bcd60e51b8152602060048201526013602482015272119959481d1c985b9cd9995c8819985a5b1959606a1b6044820152606490fd5b6024351561066e576024356000190460443511156104615760405162461bcd60e51b81526020600482015260146024820152735072696365206f766572666c6f7720636865636b60601b6044820152606490fd5b634e487b7160e01b82526012600452602482fd5b60405163b5af090f60e01b81526001600160a01b0360843581166004830152602090829060249082907f0000000000000000000000000000000000000000000000000000000000000000165afa9081156107a4578391610775575b5015610730576084353b6104595760405162461bcd60e51b815260206004820152601a60248201527f496e76616c696420737461626c65636f696e20616464726573730000000000006044820152606490fd5b60405162461bcd60e51b815260206004820152601d60248201527f537461626c65636f696e206973206e6f742077686974656c69737465640000006044820152606490fd5b610797915060203d60201161079d575b61078f8183611eba565b810190611f40565b386106dd565b503d610785565b6040513d85823e3d90fd5b60405162461bcd60e51b815260206004820152601360248201527253616c6520616c72656164792061637469766560681b6044820152606490fd5b60405162461bcd60e51b8152602060048201526013602482015272496e73756666696369656e742073686172657360681b6044820152606490fd5b90506020813d602011610854575b8161084060209383611eba565b8101031261084f575138610422565b600080fd5b3d9150610833565b61087c9150823d8411610882575b6108748183611eba565b810190611edc565b386103ea565b503d61086a565b60405162461bcd60e51b815260206004820152602560248201527f4d617820736861726573207065722077616c6c6574206c657373207468616e206044820152641d1bdd185b60da1b6064820152608490fd5b60405162461bcd60e51b815260206004820152601b60248201527f50726963652065786365656473206d6178696d756d206c696d697400000000006044820152606490fd5b60405162461bcd60e51b815260206004820152601c60248201527f416d6f756e742065786365656473206d6178696d756d206c696d6974000000006044820152606490fd5b60405162461bcd60e51b815260206004820152601c60248201527f496e76616c6964207772617070656420736f6e672061646472657373000000006044820152606490fd5b60405162461bcd60e51b815260206004820152601b60248201527f496e73756666696369656e742073746172742073616c652066656500000000006044820152606490fd5b90506020813d602011610a1a575b81610a0b60209383611eba565b8101031261084f575138610362565b3d91506109fe565b610a399150823d8411610882576108748183611eba565b38610310565b610a569150823d8411610882576108748183611eba565b386102de565b610a75915060203d60201161079d5761078f8183611eba565b38610285565b610a94915060203d602011610882576108748183611eba565b38610227565b610ab3915060203d602011610882576108748183611eba565b386101e9565b50346101865760203660031901126101865760e0906001600160a01b039060409082610ae3611e30565b1681526003602052209081549160018101546002820154600383015491846005600486015495015416946040519660ff81161515885260081c16602087015260408601526060850152608084015260a083015260c0820152f35b503461018657604036600319011261018657610b57611e30565b90610b60611e46565b604051636fad7e9560e11b815260209390916001600160a01b039185908490600490829086165afa928315610c2457908592918594610c02575b5060405163e985e9c560e01b815290821660048201523060248201529283916044918391165afa918215610bf65791610bd9575b506040519015158152f35b610bf09150823d841161079d5761078f8183611eba565b38610bce565b604051903d90823e3d90fd5b6044919450610c1d90843d8611610882576108748183611eba565b9390610b9a565b6040513d86823e3d90fd5b5034610186578060031936011261018657546040516001600160a01b039091168152602090f35b503461018657602080600319360112610e52576001600160a01b039081610c7b611e30565b1691604051638da5cb5b60e01b81528281600481875afa8015610deb57610cad918691610e35575b5082163314611efb565b604051636fad7e9560e11b808252908381600481885afa908115610e0d578691610e18575b50604051631b3d58e960e21b8152908316600482015283816024817f000000000000000000000000000000000000000000000000000000000000000087165afa8015610e0d57610d28918791610df65750611f58565b6040519081528281600481875afa8015610deb57610dce575b50828452600382526040842091825491610d5d60ff841661204e565b33908360081c1603610d97575060ff191690557f50e9428f1419cdaec089c86c412fd52565cbe415f195d893357a3a8b2a0e646a8280a280f35b6064906040519062461bcd60e51b82526004820152601060248201526f2737ba1039b0b6329031b932b0ba37b960811b6044820152fd5b610de490833d8511610882576108748183611eba565b5038610d41565b6040513d87823e3d90fd5b610a759150853d871161079d5761078f8183611eba565b6040513d88823e3d90fd5b610e2f9150843d8611610882576108748183611eba565b38610cd2565b610e4c9150843d8611610882576108748183611eba565b38610ca3565b5080fd5b5034610186578060031936011261018657610e6f611e5c565b610e77612030565b600160ff1960025416176002557f62e78cea01bee320cd4e420270b5ea74000d11b0c9f74754ebdbfc544b05a2586020604051338152a180f35b5034610186576020366003190112610186576020906040906001600160a01b03610ed9611e30565b168152600683522054604051908152f35b5034610186578060031936011261018657610f03611e5c565b600080546001600160a01b0319811682556001600160a01b03167f8be0079c531659141344cd1fd0a4f28419497f9722a3daafe3b4186f6b6457e08280a380f35b503461018657604036600319011261018657610f5e611e30565b6040610f68611e46565b9260018060a01b03809316815260046020522091166000526020526020604060002054604051908152f35b50606036600319011261018657610fa8611e30565b6001600160a01b0360443581811692908390036115aa578190610fc9612030565b610fd16121a3565b16801515806115a1575b1561156a576024803592831590610ff28215611fa4565b838752602092600384526040882061100d60ff82541661204e565b858952600585526040808a2054905163391ff95160e11b81529086826004817f000000000000000000000000000000000000000000000000000000000000000089165afa9081156113a8578b91611535575b611069925061208b565b4211611502576001810180548089116114be57600283015461108b818b6120ae565b9681611454575b5050878b526004875260408b208a8c5287526110b28960408d205461208b565b90888c526004885260408c208b8d52885260408c2054821061141057896003850154806113b3575b506110e4916120c1565b8255600483016110f58a825461208b565b9055878b526004875260408b208a8c52875260408b205560405192636fad7e9560e11b845286846004818b5afa9384156113a8578b94611389575b5060058301805490949086161561132857346112d65785855416604051906323b872dd60e01b8a8301523384830152306044830152886064830152606482528160a081011067ffffffffffffffff60a0840111176112c3578161119b9160a08a9594016040526120ce565b898d526006895260408d206111b189825461208b565b90555b16908b86855460081c16833b15610e525760c48d91838e966040519788958694637921219560e11b865260048601528885015260016044850152606484015260a060848401528160a48401525af180156112b857611288575b50505415611255575b5054169160405194855284015260408301527f16a6b05063764eec367f7f75e1d59322471f7bd0cc347509f5796d7ce8e3e86660603393a46001805580f35b805460ff19169055847f50e9428f1419cdaec089c86c412fd52565cbe415f195d893357a3a8b2a0e646a8980a238611216565b67ffffffffffffffff829c939c116112a6575060405298388061120d565b634e487b7160e01b8352604160045282fd5b6040513d8e823e3d90fd5b634e487b7160e01b8e526041600452838efd5b60405162461bcd60e51b8152600481018990526025818401527f455448206e6f7420616363657074656420666f7220737461626c6520636f696e6044820152642073616c6560d81b6064820152608490fd5b86340361134e578590898d526006895260408d2061134734825461208b565b90556111b4565b60405162461bcd60e51b81526004810189905260148184015273125b98dbdc9c9958dd0811551208185b5bdd5b9d60621b6044820152606490fd5b6113a1919450873d8911610882576108748183611eba565b9238611130565b6040513d8d823e3d90fd5b905082116113c25789386110da565b60405162461bcd60e51b8152600481018990526021818701527f45786365656473206d6178696d756d20736861726573207065722077616c6c656044820152601d60fa1b6064820152608490fd5b60405162461bcd60e51b8152600481018990526018818701527f507572636861736520616d6f756e74206f766572666c6f7700000000000000006044820152606490fd5b6114ab5789870403611467573880611092565b60405162461bcd60e51b815260048101889052601a818601527f50726963652063616c63756c6174696f6e206f766572666c6f770000000000006044820152606490fd5b634e487b7160e01b8c526012600452848cfd5b60405162461bcd60e51b815260048101889052601b818601527f4e6f7420656e6f7567682073686172657320617661696c61626c6500000000006044820152606490fd5b60405162461bcd60e51b815260048101869052600c818401526b14d85b1948195e1c1a5c995960a21b6044820152606490fd5b90508682813d8311611563575b61154c8183611eba565b8101031261155f5761106991519061105f565b8a80fd5b503d611542565b60405162461bcd60e51b815260206004820152600f60248201526e496e76616c6964206164647265737360881b6044820152606490fd5b50821515610fdb565b8380fd5b503461018657806003193601126101865760025460405160089190911c6001600160a01b03168152602090f35b5034610186576020366003190112610186576020906040906001600160a01b03611603611e30565b168152600583522054604051908152f35b503461018657602080600319360112610e525761162f611e30565b6116376121a3565b604051638da5cb5b60e01b81526001600160a01b0391821691908381600481865afa8015610deb57611673918691611b09575082163314611efb565b604051636fad7e9560e11b8152928084600481865afa938415610deb578594611aea575b50604051631b3d58e960e21b815293821660048501527f000000000000000000000000000000000000000000000000000000000000000082169360249082818381895afa8015611adf576116f1918891611ac85750611f58565b838652600682526040862054928315611a8d5784875260038352806005604089200154169060405163670d296960e11b815284816004818b5afa908115611a6557829186918b91611a70575b50600460405180948193636d4726d960e01b8352165afa8015611a655785918a91611a48575b5060028054610100600160a81b031916600892831b610100600160a81b0316179081905560405163191ebe9d60e31b81529384926004928492911c165afa908115611a3d578891611a0a575b506117bd61271091866120ae565b04916117c983866120c1565b8689526006855260408920899055948215611901576040516370a0823160e01b815230600482015285818481875afa9081156118f6578a916118c5575b501061188257506118188433836121c6565b818681611871575b5050505b6040519283527fa92ff919b850e4909ab2261d907ef955f11bc1716733a6cbece38d163a69af8a928484843393a380611860575b856001805580f35b604051908152a33880808080611858565b61187a926121c6565b388186611820565b83601d6064926040519262461bcd60e51b845260048401528201527f496e73756666696369656e7420636f6e74726163742062616c616e63650000006044820152fd5b90508581813d83116118ef575b6118dc8183611eba565b810103126118eb575138611806565b8980fd5b503d6118d2565b6040513d8c823e3d90fd5b90915047106119c7578680808087335af161191a611ff0565b5015611984578161192c575b50611824565b86808080858a5af161193c611ff0565b506119265782601f6064926040519262461bcd60e51b845260048401528201527f455448207472616e7366657220746f2070726f746f636f6c206661696c6564006044820152fd5b82601b6064926040519262461bcd60e51b845260048401528201527f455448207472616e7366657220746f2075736572206661696c656400000000006044820152fd5b8260186064926040519262461bcd60e51b845260048401528201527f496e73756666696369656e74204554482062616c616e636500000000000000006044820152fd5b90508381813d8311611a36575b611a218183611eba565b81010312611a3257516117bd6117af565b8780fd5b503d611a17565b6040513d8a823e3d90fd5b611a5f9150823d8411610882576108748183611eba565b38611763565b6040513d8b823e3d90fd5b611a879150823d8411610882576108748183611eba565b3861173d565b60405162461bcd60e51b815260048101849052601481840152734e6f2066756e647320746f20776974686472617760601b6044820152606490fd5b610a759150843d861161079d5761078f8183611eba565b6040513d89823e3d90fd5b81611b029295503d8611610882576108748183611eba565b9238611697565b610e4c9150853d8711610882576108748183611eba565b5034610186578060031936011261018657602060ff600254166040519015158152f35b50346101865780600319360112610186576040517f00000000000000000000000000000000000000000000000000000000000000006001600160a01b03168152602090f35b5034610186578060031936011261018657611ba1611e5c565b60025460ff811615611be15760ff19166002557f5db9ee0a495bf2e6ff9c91a7834c1ba4fdd244a5e8aa4e537bd38aeae4b073aa6020604051338152a180f35b604051638dfc202b60e01b8152600490fd5b503461018657602080600319360112610e52576001600160a01b0380611c17611e30565b604051636fad7e9560e11b81529291168383600481845afa928315610deb57600493611cda575b50845260058352826040852054916040519384809263391ff95160e11b82527f0000000000000000000000000000000000000000000000000000000000000000165afa918215610c24578492611ca4575b5090611c9a9161208b565b4211604051908152f35b9091508281813d8311611cd3575b611cbc8183611eba565b810103126115aa57611c9a92935051908392611c8f565b503d611cb2565b611cf090853d8711610882576108748183611eba565b5038611c3e565b905034610e525760209081600319360112611e2c578260c0611d17611e30565b92611d2181611e88565b82815282858201528260408201528260608201528260808201528260a0820152015260018060a01b03809116604051636fad7e9560e11b81528381600481855afa8015610deb579160e09591604093611e0f575b508152600384522060405190611d8a82611e88565b805460ff8116151594858452848185019260081c16825260018301546040850190815260028401549160608601928352866003860154946080880195865260c082600560048a01549960a08c019a8b520154169801978852604051998a525116908801525160408701525160608601525160808501525160a0840152511660c0820152f35b611e2590863d8811610882576108748183611eba565b5038611d75565b8280fd5b600435906001600160a01b038216820361084f57565b602435906001600160a01b038216820361084f57565b6000546001600160a01b03163303611e7057565b60405163118cdaa760e01b8152336004820152602490fd5b60e0810190811067ffffffffffffffff821117611ea457604052565b634e487b7160e01b600052604160045260246000fd5b90601f8019910116810190811067ffffffffffffffff821117611ea457604052565b9081602091031261084f57516001600160a01b038116810361084f5790565b15611f0257565b60405162461bcd60e51b81526020600482015260166024820152752737ba103bb930b83832b21039b7b7339037bbb732b960511b6044820152606490fd5b9081602091031261084f5751801515810361084f5790565b15611f5f57565b60405162461bcd60e51b815260206004820152601f60248201527f4e6f7420612076657269666965642070726f746f636f6c205753546f6b656e006044820152606490fd5b15611fab57565b60405162461bcd60e51b815260206004820152601d60248201527f416d6f756e74206d7573742062652067726561746572207468616e20300000006044820152606490fd5b3d1561202b573d9067ffffffffffffffff8211611ea4576040519161201f601f8201601f191660200184611eba565b82523d6000602084013e565b606090565b60ff6002541661203c57565b60405163d93c066560e01b8152600490fd5b1561205557565b60405162461bcd60e51b815260206004820152600e60248201526d4e6f206163746976652073616c6560901b6044820152606490fd5b9190820180921161209857565b634e487b7160e01b600052601160045260246000fd5b8181029291811591840414171561209857565b9190820391821161209857565b6000806120f79260018060a01b03169360208151910182865af16120f0611ff0565b9083612140565b8051908115159182612125575b505061210d5750565b60249060405190635274afe760e01b82526004820152fd5b6121389250602080918301019101611f40565b153880612104565b90612167575080511561215557805190602001fd5b604051630a12f52160e11b8152600490fd5b8151158061219a575b612178575090565b604051639996b31560e01b81526001600160a01b039091166004820152602490fd5b50803b15612170565b6002600154146121b4576002600155565b604051633ee5aeb560e01b8152600490fd5b60405163a9059cbb60e01b60208201526001600160a01b039092166024830152604480830193909352918152608081019167ffffffffffffffff831182841017611ea457612216926040526120ce565b56fea26469706673582212207015a0696d8843ad13fba15c774b6d338c5a55f4257b385f63a67675ccd1af7264736f6c63430008140033",
  "linkReferences": {},
  "deployedLinkReferences": {}
}