{
  "_format": "hh-sol-artifact-1",
  "contractName": "SongSharesMarketPlace",
  "sourceName": "contracts/protocol/NonUpgradable/SongSharesMarketPlace.sol",
  "abi": [
    {
      "inputs": [
        {
          "internalType": "address",
          "name": "_protocolModule",
          "type": "address"
        }
      ],
      "stateMutability": "nonpayable",
      "type": "constructor"
    },
    {
      "inputs": [
        {
          "internalType": "address",
          "name": "target",
          "type": "address"
        }
      ],
      "name": "AddressEmptyCode",
      "type": "error"
    },
    {
      "inputs": [
        {
          "internalType": "address",
          "name": "account",
          "type": "address"
        }
      ],
      "name": "AddressInsufficientBalance",
      "type": "error"
    },
    {
      "inputs": [],
      "name": "EnforcedPause",
      "type": "error"
    },
    {
      "inputs": [],
      "name": "ExpectedPause",
      "type": "error"
    },
    {
      "inputs": [],
      "name": "FailedInnerCall",
      "type": "error"
    },
    {
      "inputs": [
        {
          "internalType": "address",
          "name": "owner",
          "type": "address"
        }
      ],
      "name": "OwnableInvalidOwner",
      "type": "error"
    },
    {
      "inputs": [
        {
          "internalType": "address",
          "name": "account",
          "type": "address"
        }
      ],
      "name": "OwnableUnauthorizedAccount",
      "type": "error"
    },
    {
      "inputs": [],
      "name": "ReentrancyGuardReentrantCall",
      "type": "error"
    },
    {
      "inputs": [
        {
          "internalType": "address",
          "name": "token",
          "type": "address"
        }
      ],
      "name": "SafeERC20FailedOperation",
      "type": "error"
    },
    {
      "anonymous": false,
      "inputs": [
        {
          "indexed": true,
          "internalType": "address",
          "name": "wrappedSong",
          "type": "address"
        },
        {
          "indexed": false,
          "internalType": "address",
          "name": "token",
          "type": "address"
        },
        {
          "indexed": false,
          "internalType": "uint256",
          "name": "amount",
          "type": "uint256"
        },
        {
          "indexed": false,
          "internalType": "address",
          "name": "sender",
          "type": "address"
        }
      ],
      "name": "ERC20Received",
      "type": "event"
    },
    {
      "anonymous": false,
      "inputs": [
        {
          "indexed": true,
          "internalType": "address",
          "name": "wrappedSong",
          "type": "address"
        },
        {
          "indexed": true,
          "internalType": "address",
          "name": "to",
          "type": "address"
        },
        {
          "indexed": false,
          "internalType": "uint256",
          "name": "amount",
          "type": "uint256"
        }
      ],
      "name": "FundsWithdrawn",
      "type": "event"
    },
    {
      "anonymous": false,
      "inputs": [
        {
          "indexed": true,
          "internalType": "address",
          "name": "previousOwner",
          "type": "address"
        },
        {
          "indexed": true,
          "internalType": "address",
          "name": "newOwner",
          "type": "address"
        }
      ],
      "name": "OwnershipTransferred",
      "type": "event"
    },
    {
      "anonymous": false,
      "inputs": [
        {
          "indexed": false,
          "internalType": "address",
          "name": "account",
          "type": "address"
        }
      ],
      "name": "Paused",
      "type": "event"
    },
    {
      "anonymous": false,
      "inputs": [
        {
          "indexed": true,
          "internalType": "address",
          "name": "wrappedSong",
          "type": "address"
        }
      ],
      "name": "SharesSaleEnded",
      "type": "event"
    },
    {
      "anonymous": false,
      "inputs": [
        {
          "indexed": true,
          "internalType": "address",
          "name": "wrappedSong",
          "type": "address"
        },
        {
          "indexed": true,
          "internalType": "address",
          "name": "owner",
          "type": "address"
        },
        {
          "indexed": false,
          "internalType": "uint256",
          "name": "amount",
          "type": "uint256"
        },
        {
          "indexed": false,
          "internalType": "uint256",
          "name": "price",
          "type": "uint256"
        },
        {
          "indexed": false,
          "internalType": "uint256",
          "name": "maxSharesPerWallet",
          "type": "uint256"
        },
        {
          "indexed": false,
          "internalType": "address",
          "name": "stableCoinAddress",
          "type": "address"
        }
      ],
      "name": "SharesSaleStarted",
      "type": "event"
    },
    {
      "anonymous": false,
      "inputs": [
        {
          "indexed": true,
          "internalType": "address",
          "name": "wrappedSong",
          "type": "address"
        },
        {
          "indexed": true,
          "internalType": "address",
          "name": "buyer",
          "type": "address"
        },
        {
          "indexed": true,
          "internalType": "address",
          "name": "recipient",
          "type": "address"
        },
        {
          "indexed": false,
          "internalType": "uint256",
          "name": "amount",
          "type": "uint256"
        },
        {
          "indexed": false,
          "internalType": "uint256",
          "name": "totalCost",
          "type": "uint256"
        },
        {
          "indexed": false,
          "internalType": "address",
          "name": "paymentToken",
          "type": "address"
        }
      ],
      "name": "SharesSold",
      "type": "event"
    },
    {
      "anonymous": false,
      "inputs": [
        {
          "indexed": false,
          "internalType": "address",
          "name": "account",
          "type": "address"
        }
      ],
      "name": "Unpaused",
      "type": "event"
    },
    {
      "inputs": [
        {
          "internalType": "address",
          "name": "",
          "type": "address"
        }
      ],
      "name": "accumulatedFunds",
      "outputs": [
        {
          "internalType": "uint256",
          "name": "",
          "type": "uint256"
        }
      ],
      "stateMutability": "view",
      "type": "function"
    },
    {
      "inputs": [
        {
          "internalType": "address",
          "name": "wrappedSong",
          "type": "address"
        },
        {
          "internalType": "uint256",
          "name": "amount",
          "type": "uint256"
        },
        {
          "internalType": "address",
          "name": "recipient",
          "type": "address"
        }
      ],
      "name": "buyShares",
      "outputs": [],
      "stateMutability": "payable",
      "type": "function"
    },
    {
      "inputs": [
        {
          "internalType": "address",
          "name": "",
          "type": "address"
        },
        {
          "internalType": "address",
          "name": "",
          "type": "address"
        }
      ],
      "name": "buyerPurchases",
      "outputs": [
        {
          "internalType": "uint256",
          "name": "",
          "type": "uint256"
        }
      ],
      "stateMutability": "view",
      "type": "function"
    },
    {
      "inputs": [
        {
          "internalType": "address",
          "name": "wrappedSong",
          "type": "address"
        }
      ],
      "name": "endSale",
      "outputs": [],
      "stateMutability": "nonpayable",
      "type": "function"
    },
    {
      "inputs": [
        {
          "internalType": "address",
          "name": "wrappedSong",
          "type": "address"
        }
      ],
      "name": "getSale",
      "outputs": [
        {
          "components": [
            {
              "internalType": "bool",
              "name": "active",
              "type": "bool"
            },
            {
              "internalType": "address",
              "name": "seller",
              "type": "address"
            },
            {
              "internalType": "uint256",
              "name": "sharesForSale",
              "type": "uint256"
            },
            {
              "internalType": "uint256",
              "name": "pricePerShare",
              "type": "uint256"
            },
            {
              "internalType": "uint256",
              "name": "maxSharesPerWallet",
              "type": "uint256"
            },
            {
              "internalType": "uint256",
              "name": "totalSold",
              "type": "uint256"
            },
            {
              "internalType": "address",
              "name": "stableCoin",
              "type": "address"
            }
          ],
          "internalType": "struct SongSharesMarketPlace.Sale",
          "name": "",
          "type": "tuple"
        }
      ],
      "stateMutability": "view",
      "type": "function"
    },
    {
      "inputs": [
        {
          "internalType": "address",
          "name": "wrappedSong",
          "type": "address"
        },
        {
          "internalType": "address",
          "name": "seller",
          "type": "address"
        }
      ],
      "name": "isApprovedForShares",
      "outputs": [
        {
          "internalType": "bool",
          "name": "",
          "type": "bool"
        }
      ],
      "stateMutability": "view",
      "type": "function"
    },
    {
      "inputs": [
        {
          "internalType": "address",
          "name": "wrappedSong",
          "type": "address"
        }
      ],
      "name": "isSaleExpired",
      "outputs": [
        {
          "internalType": "bool",
          "name": "",
          "type": "bool"
        }
      ],
      "stateMutability": "view",
      "type": "function"
    },
    {
      "inputs": [],
      "name": "owner",
      "outputs": [
        {
          "internalType": "address",
          "name": "",
          "type": "address"
        }
      ],
      "stateMutability": "view",
      "type": "function"
    },
    {
      "inputs": [],
      "name": "pause",
      "outputs": [],
      "stateMutability": "nonpayable",
      "type": "function"
    },
    {
      "inputs": [],
      "name": "paused",
      "outputs": [
        {
          "internalType": "bool",
          "name": "",
          "type": "bool"
        }
      ],
      "stateMutability": "view",
      "type": "function"
    },
    {
      "inputs": [],
      "name": "protocolModule",
      "outputs": [
        {
          "internalType": "contract IProtocolModule",
          "name": "",
          "type": "address"
        }
      ],
      "stateMutability": "view",
      "type": "function"
    },
    {
      "inputs": [],
      "name": "renounceOwnership",
      "outputs": [],
      "stateMutability": "nonpayable",
      "type": "function"
    },
    {
      "inputs": [
        {
          "internalType": "address",
          "name": "",
          "type": "address"
        }
      ],
      "name": "saleStartTimes",
      "outputs": [
        {
          "internalType": "uint256",
          "name": "",
          "type": "uint256"
        }
      ],
      "stateMutability": "view",
      "type": "function"
    },
    {
      "inputs": [
        {
          "internalType": "address",
          "name": "",
          "type": "address"
        }
      ],
      "name": "sales",
      "outputs": [
        {
          "internalType": "bool",
          "name": "active",
          "type": "bool"
        },
        {
          "internalType": "address",
          "name": "seller",
          "type": "address"
        },
        {
          "internalType": "uint256",
          "name": "sharesForSale",
          "type": "uint256"
        },
        {
          "internalType": "uint256",
          "name": "pricePerShare",
          "type": "uint256"
        },
        {
          "internalType": "uint256",
          "name": "maxSharesPerWallet",
          "type": "uint256"
        },
        {
          "internalType": "uint256",
          "name": "totalSold",
          "type": "uint256"
        },
        {
          "internalType": "address",
          "name": "stableCoin",
          "type": "address"
        }
      ],
      "stateMutability": "view",
      "type": "function"
    },
    {
      "inputs": [
        {
          "internalType": "address",
          "name": "wrappedSong",
          "type": "address"
        },
        {
          "internalType": "uint256",
          "name": "amount",
          "type": "uint256"
        },
        {
          "internalType": "uint256",
          "name": "price",
          "type": "uint256"
        },
        {
          "internalType": "uint256",
          "name": "maxShares",
          "type": "uint256"
        },
        {
          "internalType": "address",
          "name": "_stableCoin",
          "type": "address"
        }
      ],
      "name": "startSale",
      "outputs": [],
      "stateMutability": "payable",
      "type": "function"
    },
    {
      "inputs": [
        {
          "internalType": "address",
          "name": "newOwner",
          "type": "address"
        }
      ],
      "name": "transferOwnership",
      "outputs": [],
      "stateMutability": "nonpayable",
      "type": "function"
    },
    {
      "inputs": [],
      "name": "unpause",
      "outputs": [],
      "stateMutability": "nonpayable",
      "type": "function"
    },
    {
      "inputs": [
        {
          "internalType": "address",
          "name": "wrappedSong",
          "type": "address"
        }
      ],
      "name": "withdrawFunds",
      "outputs": [],
      "stateMutability": "nonpayable",
      "type": "function"
    },
    {
      "stateMutability": "payable",
      "type": "receive"
    }
  ],
  "bytecode": "0x60a03461010e57601f6121a638819003918201601f19168301916001600160401b038311848410176101135780849260209460405283398101031261010e57516001600160a01b03908181169081900361010e5733156100f5576000543360018060a01b0319821617600055604051923391167f8be0079c531659141344cd1fd0a4f28419497f9722a3daafe3b4186f6b6457e0600080a36001805560ff196002541660025560805261207c908161012a823960805181818161024a01528181610298015281816105040152818161060c01528181610c1d01528181610f460152818161159a015281816119870152611a8d0152f35b604051631e4fbdf760e01b815260006004820152602490fd5b600080fd5b634e487b7160e01b600052604160045260246000fdfe608080604052600436101561001d575b50361561001b57600080fd5b005b600090813560e01c90816325b8b8cb14611b25575080633ec9898414611a215780633f4ba83a146119b65780635c42e667146119715780635c975abb1461194e57806368742da6146114ff57806369ac1487146114c65780636ef3cd8a14610eab578063703c92ae14610e5c578063715018a614610e025780637cd4c4b414610dc95780638456cb5914610d6e5780638c9f7b3914610b845780638da5cb5b14610b5d578063ba074d1c14610a76578063c6b9f06a146109f2578063f2333ec41461017e5763f2fde38b0361000f573461017b57602036600319011261017b57610105611c5e565b61010d611c8a565b6001600160a01b0390811690811561016257600054826bffffffffffffffffffffffff60a01b821617600055167f8be0079c531659141344cd1fd0a4f28419497f9722a3daafe3b4186f6b6457e0600080a380f35b604051631e4fbdf760e01b815260048101849052602490fd5b80fd5b5060a036600319011261017b57610193611c5e565b6084356001600160a01b03811681036107ac576101ae611e5e565b604051638da5cb5b60e01b81526020816004816001600160a01b0387165afa80156109e7576101ef9185916109c8575b506001600160a01b03163314611d29565b604051636fad7e9560e11b80825291906020816004816001600160a01b0388165afa90811561097f5785916109a9575b50604051631b3d58e960e21b81526001600160a01b03918216600482015290602090829060249082907f0000000000000000000000000000000000000000000000000000000000000000165afa801561097f5761028391869161098a575b50611d86565b60405163d9fa987960e01b81526020816004817f00000000000000000000000000000000000000000000000000000000000000006001600160a01b03165afa90811561097f57859161094d575b503410610908576001600160a01b038316156108c357602435156102f48115611dd2565b6305f5e1006024351161087e57701d6329f1c35ca4bfabb9f561000000000060443511610839576064359260243584116107e6576040519081526020816004816001600160a01b0389165afa9081156107015760449160209188916107b9575b50604051627eeac760e11b81523360048201526001602482015292839182906001600160a01b03165afa908115610701578691610782575b5060243511610747576001600160a01b03841685526003602052604085205460ff1661070c576001600160a01b0382166105e3575b60443561057a575b506001600160a01b038316845260056020526040808520429055516103ed81611cb6565b6001815260056020820191338352604081016024358152606082016044358152608083019087825260a08401928a845260c085019660018060a01b038916885260018060a01b038b168c52600360205260408c20955115159060ff875491610100600160a81b03905160081b169216906affffffffffffffffffffff60a81b1617178555516001850155516002840155516003830155516004820155019060018060a01b039051166bffffffffffffffffffffffff60a01b8254161790556040519160243583526044356020840152604083015260018060a01b031660608201527f7e13ce3c75f9b5edb5e31305c6f620962f35f6554a1d3b8d7189be71041902ba6080339360018060a01b031692a380808080347f00000000000000000000000000000000000000000000000000000000000000006001600160a01b03165af1610536611e1e565b501561053f5780f35b60405162461bcd60e51b8152602060048201526013602482015272119959481d1c985b9cd9995c8819985a5b1959606a1b6044820152606490fd5b6105cf57602435600019046044351161059357386103c9565b60405162461bcd60e51b81526020600482015260146024820152735072696365206f766572666c6f7720636865636b60601b6044820152606490fd5b634e487b7160e01b84526012600452602484fd5b60405163b5af090f60e01b81526001600160a01b038381166004830152602090829060249082907f0000000000000000000000000000000000000000000000000000000000000000165afa9081156107015786916106d2575b501561068d57813b6103c15760405162461bcd60e51b815260206004820152601a60248201527f496e76616c696420737461626c65636f696e20616464726573730000000000006044820152606490fd5b60405162461bcd60e51b815260206004820152601d60248201527f537461626c65636f696e206973206e6f742077686974656c69737465640000006044820152606490fd5b6106f4915060203d6020116106fa575b6106ec8183611ce8565b810190611d6e565b3861063c565b503d6106e2565b6040513d88823e3d90fd5b60405162461bcd60e51b815260206004820152601360248201527253616c6520616c72656164792061637469766560681b6044820152606490fd5b60405162461bcd60e51b8152602060048201526013602482015272496e73756666696369656e742073686172657360681b6044820152606490fd5b90506020813d6020116107b1575b8161079d60209383611ce8565b810103126107ac57513861038c565b600080fd5b3d9150610790565b6107d99150823d84116107df575b6107d18183611ce8565b810190611d0a565b38610354565b503d6107c7565b60405162461bcd60e51b815260206004820152602560248201527f4d617820736861726573207065722077616c6c6574206c657373207468616e206044820152641d1bdd185b60da1b6064820152608490fd5b60405162461bcd60e51b815260206004820152601b60248201527f50726963652065786365656473206d6178696d756d206c696d697400000000006044820152606490fd5b60405162461bcd60e51b815260206004820152601c60248201527f416d6f756e742065786365656473206d6178696d756d206c696d6974000000006044820152606490fd5b60405162461bcd60e51b815260206004820152601c60248201527f496e76616c6964207772617070656420736f6e672061646472657373000000006044820152606490fd5b60405162461bcd60e51b815260206004820152601b60248201527f496e73756666696369656e742073746172742073616c652066656500000000006044820152606490fd5b90506020813d602011610977575b8161096860209383611ce8565b810103126107ac5751386102d0565b3d915061095b565b6040513d87823e3d90fd5b6109a3915060203d6020116106fa576106ec8183611ce8565b3861027d565b6109c2915060203d6020116107df576107d18183611ce8565b3861021f565b6109e1915060203d6020116107df576107d18183611ce8565b386101de565b6040513d86823e3d90fd5b503461017b57602036600319011261017b5760e0906001600160a01b039060409082610a1c611c5e565b1681526003602052209081549160018101546002820154600383015491846005600486015495015416946040519660ff81161515885260081c16602087015260408601526060850152608084015260a083015260c0820152f35b503461017b57604036600319011261017b57610a90611c5e565b90610a99611c74565b604051636fad7e9560e11b815260209390916001600160a01b039185908490600490829086165afa9283156109e757908592918594610b3b575b5060405163e985e9c560e01b815290821660048201523060248201529283916044918391165afa918215610b2f5791610b12575b506040519015158152f35b610b299150823d84116106fa576106ec8183611ce8565b38610b07565b604051903d90823e3d90fd5b6044919450610b5690843d86116107df576107d18183611ce8565b9390610ad3565b503461017b578060031936011261017b57546040516001600160a01b039091168152602090f35b503461017b57602080600319360112610d6a576001600160a01b039081610ba9611c5e565b1691604051638da5cb5b60e01b81528281600481875afa801561097f57610bdb918691610d4d575b5082163314611d29565b604051636fad7e9560e11b808252908381600481885afa908115610701578691610d30575b50604051631b3d58e960e21b8152908316600482015283816024817f000000000000000000000000000000000000000000000000000000000000000087165afa801561070157610c56918791610d195750611d86565b6040519081528281600481875afa801561097f57610cfc575b50828452600382526040842091825491610c8b60ff8416611e7c565b33908360081c1603610cc5575060ff191690557f50e9428f1419cdaec089c86c412fd52565cbe415f195d893357a3a8b2a0e646a8280a280f35b6064906040519062461bcd60e51b82526004820152601060248201526f2737ba1039b0b6329031b932b0ba37b960811b6044820152fd5b610d1290833d85116107df576107d18183611ce8565b5038610c6f565b6109a39150853d87116106fa576106ec8183611ce8565b610d479150843d86116107df576107d18183611ce8565b38610c00565b610d649150843d86116107df576107d18183611ce8565b38610bd1565b5080fd5b503461017b578060031936011261017b57610d87611c8a565b610d8f611e5e565b600160ff1960025416176002557f62e78cea01bee320cd4e420270b5ea74000d11b0c9f74754ebdbfc544b05a2586020604051338152a180f35b503461017b57602036600319011261017b576020906040906001600160a01b03610df1611c5e565b168152600683522054604051908152f35b503461017b578060031936011261017b57610e1b611c8a565b600080546001600160a01b0319811682556001600160a01b03167f8be0079c531659141344cd1fd0a4f28419497f9722a3daafe3b4186f6b6457e08280a380f35b503461017b57604036600319011261017b57610e76611c5e565b6040610e80611c74565b9260018060a01b03809316815260046020522091166000526020526020604060002054604051908152f35b50606036600319011261017b57610ec0611c5e565b6001600160a01b0360443581811692908390036114c2578190610ee1611e5e565b610ee9611fd1565b16801515806114b9575b15611482576024803592831590610f0a8215611dd2565b8387526020926003845260408820610f2560ff825416611e7c565b858952600585526040808a2054905163391ff95160e11b81529086826004817f000000000000000000000000000000000000000000000000000000000000000089165afa9081156112c0578b9161144d575b610f819250611eb9565b421161141a576001810180548089116113d6576002830154610fa3818b611edc565b968161136c575b5050878b526004875260408b208a8c528752610fca8960408d2054611eb9565b90888c526004885260408c208b8d52885260408c2054821061132857896003850154806112cb575b50610ffc91611eef565b82556004830161100d8a8254611eb9565b9055878b526004875260408b208a8c52875260408b205560405192636fad7e9560e11b845286846004818b5afa9384156112c0578b946112a1575b5060058301805490949086161561124057346111ee5785855416604051906323b872dd60e01b8a8301523384830152306044830152886064830152606482528160a081011067ffffffffffffffff60a0840111176111db57816110b39160a08a959401604052611efc565b898d526006895260408d206110c9898254611eb9565b90555b16908b86855460081c16833b15610d6a5760c48d91838e966040519788958694637921219560e11b865260048601528885015260016044850152606484015260a060848401528160a48401525af180156111d0576111a0575b5050541561116d575b5054169160405194855284015260408301527f16a6b05063764eec367f7f75e1d59322471f7bd0cc347509f5796d7ce8e3e86660603393a46001805580f35b805460ff19169055847f50e9428f1419cdaec089c86c412fd52565cbe415f195d893357a3a8b2a0e646a8980a23861112e565b67ffffffffffffffff829c939c116111be5750604052983880611125565b634e487b7160e01b8352604160045282fd5b6040513d8e823e3d90fd5b634e487b7160e01b8e526041600452838efd5b60405162461bcd60e51b8152600481018990526025818401527f455448206e6f7420616363657074656420666f7220737461626c6520636f696e6044820152642073616c6560d81b6064820152608490fd5b863403611266578590898d526006895260408d2061125f348254611eb9565b90556110cc565b60405162461bcd60e51b81526004810189905260148184015273125b98dbdc9c9958dd0811551208185b5bdd5b9d60621b6044820152606490fd5b6112b9919450873d89116107df576107d18183611ce8565b9238611048565b6040513d8d823e3d90fd5b905082116112da578938610ff2565b60405162461bcd60e51b8152600481018990526021818701527f45786365656473206d6178696d756d20736861726573207065722077616c6c656044820152601d60fa1b6064820152608490fd5b60405162461bcd60e51b8152600481018990526018818701527f507572636861736520616d6f756e74206f766572666c6f7700000000000000006044820152606490fd5b6113c3578987040361137f573880610faa565b60405162461bcd60e51b815260048101889052601a818601527f50726963652063616c63756c6174696f6e206f766572666c6f770000000000006044820152606490fd5b634e487b7160e01b8c526012600452848cfd5b60405162461bcd60e51b815260048101889052601b818601527f4e6f7420656e6f7567682073686172657320617661696c61626c6500000000006044820152606490fd5b60405162461bcd60e51b815260048101869052600c818401526b14d85b1948195e1c1a5c995960a21b6044820152606490fd5b90508682813d831161147b575b6114648183611ce8565b8101031261147757610f81915190610f77565b8a80fd5b503d61145a565b60405162461bcd60e51b815260206004820152600f60248201526e496e76616c6964206164647265737360881b6044820152606490fd5b50821515610ef3565b8380fd5b503461017b57602036600319011261017b576020906040906001600160a01b036114ee611c5e565b168152600583522054604051908152f35b503461017b57602080600319360112610d6a5761151a611c5e565b611522611fd1565b604051638da5cb5b60e01b81526001600160a01b0391821691908381600481865afa801561097f5761155e918691611937575082163314611d29565b604051636fad7e9560e11b8152928084600481865afa93841561097f578594611918575b50604051631b3d58e960e21b815293821660048501527f000000000000000000000000000000000000000000000000000000000000000082169360249082818381895afa801561190d576115dc9188916118f65750611d86565b8386526006825260408620549283156118bb578487526003835260056040882001541660405163191ebe9d60e31b815283816004818a5afa9081156118b057889161187d575b506116306127109186611edc565b049161163c8386611eef565b8689526006855260408920899055948215611774576040516370a0823160e01b815230600482015285818481875afa908115611769578a91611738575b50106116f5575061168b843383611ff4565b8186816116e4575b5050505b6040519283527fa92ff919b850e4909ab2261d907ef955f11bc1716733a6cbece38d163a69af8a928484843393a3806116d3575b856001805580f35b604051908152a338808080806116cb565b6116ed92611ff4565b388186611693565b83601d6064926040519262461bcd60e51b845260048401528201527f496e73756666696369656e7420636f6e74726163742062616c616e63650000006044820152fd5b90508581813d8311611762575b61174f8183611ce8565b8101031261175e575138611679565b8980fd5b503d611745565b6040513d8c823e3d90fd5b909150471061183a578680808087335af161178d611e1e565b50156117f7578161179f575b50611697565b86808080858a5af16117af611e1e565b506117995782601f6064926040519262461bcd60e51b845260048401528201527f455448207472616e7366657220746f2070726f746f636f6c206661696c6564006044820152fd5b82601b6064926040519262461bcd60e51b845260048401528201527f455448207472616e7366657220746f2075736572206661696c656400000000006044820152fd5b8260186064926040519262461bcd60e51b845260048401528201527f496e73756666696369656e74204554482062616c616e636500000000000000006044820152fd5b90508381813d83116118a9575b6118948183611ce8565b810103126118a55751611630611622565b8780fd5b503d61188a565b6040513d8a823e3d90fd5b60405162461bcd60e51b815260048101849052601481840152734e6f2066756e647320746f20776974686472617760601b6044820152606490fd5b6109a39150843d86116106fa576106ec8183611ce8565b6040513d89823e3d90fd5b816119309295503d86116107df576107d18183611ce8565b9238611582565b610d649150853d87116107df576107d18183611ce8565b503461017b578060031936011261017b57602060ff600254166040519015158152f35b503461017b578060031936011261017b576040517f00000000000000000000000000000000000000000000000000000000000000006001600160a01b03168152602090f35b503461017b578060031936011261017b576119cf611c8a565b60025460ff811615611a0f5760ff19166002557f5db9ee0a495bf2e6ff9c91a7834c1ba4fdd244a5e8aa4e537bd38aeae4b073aa6020604051338152a180f35b604051638dfc202b60e01b8152600490fd5b503461017b57602080600319360112610d6a576001600160a01b0380611a45611c5e565b604051636fad7e9560e11b81529291168383600481845afa92831561097f57600493611b08575b50845260058352826040852054916040519384809263391ff95160e11b82527f0000000000000000000000000000000000000000000000000000000000000000165afa9182156109e7578492611ad2575b5090611ac891611eb9565b4211604051908152f35b9091508281813d8311611b01575b611aea8183611ce8565b810103126114c257611ac892935051908392611abd565b503d611ae0565b611b1e90853d87116107df576107d18183611ce8565b5038611a6c565b905034610d6a5760209081600319360112611c5a578260c0611b45611c5e565b92611b4f81611cb6565b82815282858201528260408201528260608201528260808201528260a0820152015260018060a01b03809116604051636fad7e9560e11b81528381600481855afa801561097f579160e09591604093611c3d575b508152600384522060405190611bb882611cb6565b805460ff8116151594858452848185019260081c16825260018301546040850190815260028401549160608601928352866003860154946080880195865260c082600560048a01549960a08c019a8b520154169801978852604051998a525116908801525160408701525160608601525160808501525160a0840152511660c0820152f35b611c5390863d88116107df576107d18183611ce8565b5038611ba3565b8280fd5b600435906001600160a01b03821682036107ac57565b602435906001600160a01b03821682036107ac57565b6000546001600160a01b03163303611c9e57565b60405163118cdaa760e01b8152336004820152602490fd5b60e0810190811067ffffffffffffffff821117611cd257604052565b634e487b7160e01b600052604160045260246000fd5b90601f8019910116810190811067ffffffffffffffff821117611cd257604052565b908160209103126107ac57516001600160a01b03811681036107ac5790565b15611d3057565b60405162461bcd60e51b81526020600482015260166024820152752737ba103bb930b83832b21039b7b7339037bbb732b960511b6044820152606490fd5b908160209103126107ac575180151581036107ac5790565b15611d8d57565b60405162461bcd60e51b815260206004820152601f60248201527f4e6f7420612076657269666965642070726f746f636f6c205753546f6b656e006044820152606490fd5b15611dd957565b60405162461bcd60e51b815260206004820152601d60248201527f416d6f756e74206d7573742062652067726561746572207468616e20300000006044820152606490fd5b3d15611e59573d9067ffffffffffffffff8211611cd25760405191611e4d601f8201601f191660200184611ce8565b82523d6000602084013e565b606090565b60ff60025416611e6a57565b60405163d93c066560e01b8152600490fd5b15611e8357565b60405162461bcd60e51b815260206004820152600e60248201526d4e6f206163746976652073616c6560901b6044820152606490fd5b91908201809211611ec657565b634e487b7160e01b600052601160045260246000fd5b81810292918115918404141715611ec657565b91908203918211611ec657565b600080611f259260018060a01b03169360208151910182865af1611f1e611e1e565b9083611f6e565b8051908115159182611f53575b5050611f3b5750565b60249060405190635274afe760e01b82526004820152fd5b611f669250602080918301019101611d6e565b153880611f32565b90611f955750805115611f8357805190602001fd5b604051630a12f52160e11b8152600490fd5b81511580611fc8575b611fa6575090565b604051639996b31560e01b81526001600160a01b039091166004820152602490fd5b50803b15611f9e565b600260015414611fe2576002600155565b604051633ee5aeb560e01b8152600490fd5b60405163a9059cbb60e01b60208201526001600160a01b039092166024830152604480830193909352918152608081019167ffffffffffffffff831182841017611cd25761204492604052611efc565b56fea26469706673582212200fe28b1afec170c111056f45f34c6afd0ee204fe126d63db6dd116fab41dd84564736f6c63430008140033",
  "linkReferences": {},
  "deployedLinkReferences": {}
}