{
  "_format": "hh-sol-artifact-1",
  "contractName": "SongsLicense",
  "sourceName": "contracts/SongsLicense/SongsLicence.sol",
  "abi": [
    {
      "inputs": [
        {
          "internalType": "string",
          "name": "name",
          "type": "string"
        },
        {
          "internalType": "string",
          "name": "symbol",
          "type": "string"
        },
        {
          "internalType": "address",
          "name": "_tokenURIProvider",
          "type": "address"
        }
      ],
      "stateMutability": "nonpayable",
      "type": "constructor"
    },
    {
      "inputs": [],
      "name": "ERC721EnumerableForbiddenBatchMint",
      "type": "error"
    },
    {
      "inputs": [
        {
          "internalType": "address",
          "name": "sender",
          "type": "address"
        },
        {
          "internalType": "uint256",
          "name": "tokenId",
          "type": "uint256"
        },
        {
          "internalType": "address",
          "name": "owner",
          "type": "address"
        }
      ],
      "name": "ERC721IncorrectOwner",
      "type": "error"
    },
    {
      "inputs": [
        {
          "internalType": "address",
          "name": "operator",
          "type": "address"
        },
        {
          "internalType": "uint256",
          "name": "tokenId",
          "type": "uint256"
        }
      ],
      "name": "ERC721InsufficientApproval",
      "type": "error"
    },
    {
      "inputs": [
        {
          "internalType": "address",
          "name": "approver",
          "type": "address"
        }
      ],
      "name": "ERC721InvalidApprover",
      "type": "error"
    },
    {
      "inputs": [
        {
          "internalType": "address",
          "name": "operator",
          "type": "address"
        }
      ],
      "name": "ERC721InvalidOperator",
      "type": "error"
    },
    {
      "inputs": [
        {
          "internalType": "address",
          "name": "owner",
          "type": "address"
        }
      ],
      "name": "ERC721InvalidOwner",
      "type": "error"
    },
    {
      "inputs": [
        {
          "internalType": "address",
          "name": "receiver",
          "type": "address"
        }
      ],
      "name": "ERC721InvalidReceiver",
      "type": "error"
    },
    {
      "inputs": [
        {
          "internalType": "address",
          "name": "sender",
          "type": "address"
        }
      ],
      "name": "ERC721InvalidSender",
      "type": "error"
    },
    {
      "inputs": [
        {
          "internalType": "uint256",
          "name": "tokenId",
          "type": "uint256"
        }
      ],
      "name": "ERC721NonexistentToken",
      "type": "error"
    },
    {
      "inputs": [
        {
          "internalType": "address",
          "name": "owner",
          "type": "address"
        },
        {
          "internalType": "uint256",
          "name": "index",
          "type": "uint256"
        }
      ],
      "name": "ERC721OutOfBoundsIndex",
      "type": "error"
    },
    {
      "inputs": [
        {
          "internalType": "address",
          "name": "owner",
          "type": "address"
        }
      ],
      "name": "OwnableInvalidOwner",
      "type": "error"
    },
    {
      "inputs": [
        {
          "internalType": "address",
          "name": "account",
          "type": "address"
        }
      ],
      "name": "OwnableUnauthorizedAccount",
      "type": "error"
    },
    {
      "anonymous": false,
      "inputs": [
        {
          "indexed": true,
          "internalType": "address",
          "name": "owner",
          "type": "address"
        },
        {
          "indexed": true,
          "internalType": "address",
          "name": "approved",
          "type": "address"
        },
        {
          "indexed": true,
          "internalType": "uint256",
          "name": "tokenId",
          "type": "uint256"
        }
      ],
      "name": "Approval",
      "type": "event"
    },
    {
      "anonymous": false,
      "inputs": [
        {
          "indexed": true,
          "internalType": "address",
          "name": "owner",
          "type": "address"
        },
        {
          "indexed": true,
          "internalType": "address",
          "name": "operator",
          "type": "address"
        },
        {
          "indexed": false,
          "internalType": "bool",
          "name": "approved",
          "type": "bool"
        }
      ],
      "name": "ApprovalForAll",
      "type": "event"
    },
    {
      "anonymous": false,
      "inputs": [
        {
          "indexed": true,
          "internalType": "address",
          "name": "previousOwner",
          "type": "address"
        },
        {
          "indexed": true,
          "internalType": "address",
          "name": "newOwner",
          "type": "address"
        }
      ],
      "name": "OwnershipTransferred",
      "type": "event"
    },
    {
      "anonymous": false,
      "inputs": [
        {
          "indexed": true,
          "internalType": "uint256",
          "name": "tokenId",
          "type": "uint256"
        }
      ],
      "name": "TokenBurned",
      "type": "event"
    },
    {
      "anonymous": false,
      "inputs": [
        {
          "indexed": true,
          "internalType": "address",
          "name": "to",
          "type": "address"
        },
        {
          "indexed": true,
          "internalType": "uint256",
          "name": "tokenId",
          "type": "uint256"
        },
        {
          "indexed": false,
          "internalType": "string",
          "name": "name",
          "type": "string"
        },
        {
          "indexed": false,
          "internalType": "uint256",
          "name": "amount",
          "type": "uint256"
        }
      ],
      "name": "TokenMintedWithPayment",
      "type": "event"
    },
    {
      "anonymous": false,
      "inputs": [
        {
          "indexed": true,
          "internalType": "address",
          "name": "from",
          "type": "address"
        },
        {
          "indexed": true,
          "internalType": "address",
          "name": "to",
          "type": "address"
        },
        {
          "indexed": true,
          "internalType": "uint256",
          "name": "tokenId",
          "type": "uint256"
        }
      ],
      "name": "Transfer",
      "type": "event"
    },
    {
      "inputs": [
        {
          "internalType": "uint256",
          "name": "tokenId",
          "type": "uint256"
        }
      ],
      "name": "adminBurn",
      "outputs": [],
      "stateMutability": "nonpayable",
      "type": "function"
    },
    {
      "inputs": [
        {
          "internalType": "uint256",
          "name": "tokenId",
          "type": "uint256"
        },
        {
          "internalType": "string",
          "name": "newName",
          "type": "string"
        }
      ],
      "name": "adminChangeTokenName",
      "outputs": [],
      "stateMutability": "nonpayable",
      "type": "function"
    },
    {
      "inputs": [
        {
          "internalType": "address",
          "name": "to",
          "type": "address"
        },
        {
          "internalType": "string",
          "name": "name",
          "type": "string"
        }
      ],
      "name": "adminMint",
      "outputs": [],
      "stateMutability": "nonpayable",
      "type": "function"
    },
    {
      "inputs": [
        {
          "internalType": "address",
          "name": "to",
          "type": "address"
        },
        {
          "internalType": "uint256",
          "name": "tokenId",
          "type": "uint256"
        }
      ],
      "name": "approve",
      "outputs": [],
      "stateMutability": "nonpayable",
      "type": "function"
    },
    {
      "inputs": [
        {
          "internalType": "address",
          "name": "owner",
          "type": "address"
        }
      ],
      "name": "balanceOf",
      "outputs": [
        {
          "internalType": "uint256",
          "name": "",
          "type": "uint256"
        }
      ],
      "stateMutability": "view",
      "type": "function"
    },
    {
      "inputs": [
        {
          "internalType": "uint256",
          "name": "tokenId",
          "type": "uint256"
        }
      ],
      "name": "burn",
      "outputs": [],
      "stateMutability": "nonpayable",
      "type": "function"
    },
    {
      "inputs": [
        {
          "internalType": "uint256",
          "name": "tokenId",
          "type": "uint256"
        }
      ],
      "name": "getApproved",
      "outputs": [
        {
          "internalType": "address",
          "name": "",
          "type": "address"
        }
      ],
      "stateMutability": "view",
      "type": "function"
    },
    {
      "inputs": [
        {
          "internalType": "uint256",
          "name": "tokenId",
          "type": "uint256"
        }
      ],
      "name": "getName",
      "outputs": [
        {
          "internalType": "string",
          "name": "",
          "type": "string"
        }
      ],
      "stateMutability": "view",
      "type": "function"
    },
    {
      "inputs": [
        {
          "internalType": "address",
          "name": "owner",
          "type": "address"
        },
        {
          "internalType": "address",
          "name": "operator",
          "type": "address"
        }
      ],
      "name": "isApprovedForAll",
      "outputs": [
        {
          "internalType": "bool",
          "name": "",
          "type": "bool"
        }
      ],
      "stateMutability": "view",
      "type": "function"
    },
    {
      "inputs": [
        {
          "internalType": "string",
          "name": "name",
          "type": "string"
        }
      ],
      "name": "mint",
      "outputs": [],
      "stateMutability": "payable",
      "type": "function"
    },
    {
      "inputs": [
        {
          "internalType": "address",
          "name": "to",
          "type": "address"
        },
        {
          "internalType": "string",
          "name": "name",
          "type": "string"
        }
      ],
      "name": "mintFor",
      "outputs": [],
      "stateMutability": "payable",
      "type": "function"
    },
    {
      "inputs": [],
      "name": "mintingPrice",
      "outputs": [
        {
          "internalType": "uint256",
          "name": "",
          "type": "uint256"
        }
      ],
      "stateMutability": "view",
      "type": "function"
    },
    {
      "inputs": [],
      "name": "name",
      "outputs": [
        {
          "internalType": "string",
          "name": "",
          "type": "string"
        }
      ],
      "stateMutability": "view",
      "type": "function"
    },
    {
      "inputs": [],
      "name": "owner",
      "outputs": [
        {
          "internalType": "address",
          "name": "",
          "type": "address"
        }
      ],
      "stateMutability": "view",
      "type": "function"
    },
    {
      "inputs": [
        {
          "internalType": "uint256",
          "name": "tokenId",
          "type": "uint256"
        }
      ],
      "name": "ownerOf",
      "outputs": [
        {
          "internalType": "address",
          "name": "",
          "type": "address"
        }
      ],
      "stateMutability": "view",
      "type": "function"
    },
    {
      "inputs": [
        {
          "internalType": "address",
          "name": "to",
          "type": "address"
        }
      ],
      "name": "recoverETH",
      "outputs": [],
      "stateMutability": "nonpayable",
      "type": "function"
    },
    {
      "inputs": [
        {
          "internalType": "contract IERC20",
          "name": "token",
          "type": "address"
        },
        {
          "internalType": "address",
          "name": "to",
          "type": "address"
        }
      ],
      "name": "recoverTokens",
      "outputs": [],
      "stateMutability": "nonpayable",
      "type": "function"
    },
    {
      "inputs": [],
      "name": "renounceOwnership",
      "outputs": [],
      "stateMutability": "nonpayable",
      "type": "function"
    },
    {
      "inputs": [
        {
          "internalType": "address",
          "name": "from",
          "type": "address"
        },
        {
          "internalType": "address",
          "name": "to",
          "type": "address"
        },
        {
          "internalType": "uint256",
          "name": "tokenId",
          "type": "uint256"
        }
      ],
      "name": "safeTransferFrom",
      "outputs": [],
      "stateMutability": "nonpayable",
      "type": "function"
    },
    {
      "inputs": [
        {
          "internalType": "address",
          "name": "from",
          "type": "address"
        },
        {
          "internalType": "address",
          "name": "to",
          "type": "address"
        },
        {
          "internalType": "uint256",
          "name": "tokenId",
          "type": "uint256"
        },
        {
          "internalType": "bytes",
          "name": "data",
          "type": "bytes"
        }
      ],
      "name": "safeTransferFrom",
      "outputs": [],
      "stateMutability": "nonpayable",
      "type": "function"
    },
    {
      "inputs": [
        {
          "internalType": "address",
          "name": "operator",
          "type": "address"
        },
        {
          "internalType": "bool",
          "name": "approved",
          "type": "bool"
        }
      ],
      "name": "setApprovalForAll",
      "outputs": [],
      "stateMutability": "nonpayable",
      "type": "function"
    },
    {
      "inputs": [
        {
          "internalType": "string",
          "name": "newBaseURI",
          "type": "string"
        }
      ],
      "name": "setBaseURI",
      "outputs": [],
      "stateMutability": "nonpayable",
      "type": "function"
    },
    {
      "inputs": [
        {
          "internalType": "string",
          "name": "newHtmlHash",
          "type": "string"
        }
      ],
      "name": "setHtmlHash",
      "outputs": [],
      "stateMutability": "nonpayable",
      "type": "function"
    },
    {
      "inputs": [
        {
          "internalType": "string",
          "name": "newImageHash",
          "type": "string"
        }
      ],
      "name": "setImageHash",
      "outputs": [],
      "stateMutability": "nonpayable",
      "type": "function"
    },
    {
      "inputs": [
        {
          "internalType": "uint256",
          "name": "newMintingPrice",
          "type": "uint256"
        }
      ],
      "name": "setMintingPrice",
      "outputs": [],
      "stateMutability": "nonpayable",
      "type": "function"
    },
    {
      "inputs": [
        {
          "internalType": "address",
          "name": "_tokenURIProvider",
          "type": "address"
        }
      ],
      "name": "setTokenURIProvider",
      "outputs": [],
      "stateMutability": "nonpayable",
      "type": "function"
    },
    {
      "inputs": [
        {
          "internalType": "bytes4",
          "name": "interfaceId",
          "type": "bytes4"
        }
      ],
      "name": "supportsInterface",
      "outputs": [
        {
          "internalType": "bool",
          "name": "",
          "type": "bool"
        }
      ],
      "stateMutability": "view",
      "type": "function"
    },
    {
      "inputs": [],
      "name": "symbol",
      "outputs": [
        {
          "internalType": "string",
          "name": "",
          "type": "string"
        }
      ],
      "stateMutability": "view",
      "type": "function"
    },
    {
      "inputs": [
        {
          "internalType": "uint256",
          "name": "index",
          "type": "uint256"
        }
      ],
      "name": "tokenByIndex",
      "outputs": [
        {
          "internalType": "uint256",
          "name": "",
          "type": "uint256"
        }
      ],
      "stateMutability": "view",
      "type": "function"
    },
    {
      "inputs": [
        {
          "internalType": "address",
          "name": "owner",
          "type": "address"
        },
        {
          "internalType": "uint256",
          "name": "index",
          "type": "uint256"
        }
      ],
      "name": "tokenOfOwnerByIndex",
      "outputs": [
        {
          "internalType": "uint256",
          "name": "",
          "type": "uint256"
        }
      ],
      "stateMutability": "view",
      "type": "function"
    },
    {
      "inputs": [
        {
          "internalType": "uint256",
          "name": "tokenId",
          "type": "uint256"
        }
      ],
      "name": "tokenURI",
      "outputs": [
        {
          "internalType": "string",
          "name": "",
          "type": "string"
        }
      ],
      "stateMutability": "view",
      "type": "function"
    },
    {
      "inputs": [
        {
          "internalType": "address",
          "name": "owner",
          "type": "address"
        }
      ],
      "name": "tokensOfOwner",
      "outputs": [
        {
          "internalType": "uint256[]",
          "name": "",
          "type": "uint256[]"
        }
      ],
      "stateMutability": "view",
      "type": "function"
    },
    {
      "inputs": [],
      "name": "totalSupply",
      "outputs": [
        {
          "internalType": "uint256",
          "name": "",
          "type": "uint256"
        }
      ],
      "stateMutability": "view",
      "type": "function"
    },
    {
      "inputs": [
        {
          "internalType": "address",
          "name": "from",
          "type": "address"
        },
        {
          "internalType": "address",
          "name": "to",
          "type": "address"
        },
        {
          "internalType": "uint256",
          "name": "tokenId",
          "type": "uint256"
        }
      ],
      "name": "transferFrom",
      "outputs": [],
      "stateMutability": "nonpayable",
      "type": "function"
    },
    {
      "inputs": [
        {
          "internalType": "address",
          "name": "newOwner",
          "type": "address"
        }
      ],
      "name": "transferOwnership",
      "outputs": [],
      "stateMutability": "nonpayable",
      "type": "function"
    }
  ],
  "bytecode": "0x608060405234620003c15762002c41803803806200001d81620003c6565b9283398101606082820312620003c15781516001600160401b039190828111620003c157816200004f918501620003ec565b60209182850151848111620003c1576040916200006e918701620003ec565b9401516001600160a01b03948582169491859003620003c157825190828211620003ab576000948554926001958685811c95168015620003a0575b838610146200038c578190601f9586811162000339575b508390868311600114620002d5578992620002c9575b5050600019600383901b1c191690861b1786555b8151938411620002b55784548581811c91168015620002aa575b82821014620002965790818486959493116200023f575b5080928411600114620001d757508592620001cb575b5050600019600383901b1c191690821b1790555b3315620001b357600a80546001600160a01b0319808216339081179093556040519590939291167f8be0079c531659141344cd1fd0a4f28419497f9722a3daafe3b4186f6b6457e08380a3600b5566354a6ba7a1800060115560105416176010556127e290816200045f8239f35b60249060405190631e4fbdf760e01b82526004820152fd5b01519050388062000131565b9190859450601f1984168588528388209388905b8282106200022557505084116200020b575b505050811b01905562000145565b015160001960f88460031b161c19169055388080620001fd565b8484015186558897909501949384019390810190620001eb565b90919293508587528187208480870160051c8201928488106200028c575b9187968992969594930160051c01915b8281106200027d5750506200011b565b8981558796508891016200026d565b925081926200025d565b634e487b7160e01b87526022600452602487fd5b90607f169062000104565b634e487b7160e01b86526041600452602486fd5b015190503880620000d6565b898052848a208994509190601f1984168b5b8782821062000322575050841162000308575b505050811b018655620000ea565b015160001960f88460031b161c19169055388080620002fa565b8385015186558c97909501949384019301620002e7565b9091508880528389208680850160051c82019286861062000382575b918a91869594930160051c01915b82811062000373575050620000c0565b8b81558594508a910162000363565b9250819262000355565b634e487b7160e01b88526022600452602488fd5b94607f1694620000a9565b634e487b7160e01b600052604160045260246000fd5b600080fd5b6040519190601f01601f191682016001600160401b03811183821017620003ab57604052565b919080601f84011215620003c15782516001600160401b038111620003ab5760209062000422601f8201601f19168301620003c6565b92818452828287010111620003c15760005b8181106200044a57508260009394955001015290565b85810183015184820184015282016200043456fe608060409080825260048036101561001657600080fd5b600091823560e01c90816301ffc9a71461179d5750806304299b2a1461163a578063056097ac1461150857806306fdde0314611460578063081812fc14611423578063095ea7b314611347578063134dfcd8146112d157806318160ddd146112b257806323b872dd1461129a5780632f745c591461127157806335db70b51461125257806342842e0e1461120557806342966c68146111855780634ed6a5f7146111635780634f6ccce71461110d57806355f804b314610faa5780635919c74b14610de05780636352211e14610dae5780636664569814610d695780636b8ff57414610d2d57806370a0823114610d00578063715018a614610ca357806381a1128014610b295780638417b47f14610b085780638462151c14610a0c5780638da5cb5b146109e357806395d89b4114610900578063a22cb46514610863578063b88d4fde14610804578063badb97ff146107a3578063c87b56dd1461044d578063d85d3d2714610407578063e985e9c5146103b9578063f2fde38b146103245763fe19b6d9146101a557600080fd5b346103205782600319360112610320576001600160401b03813560243582811161031c576101d690369085016118b1565b946101df6119b7565b818552602091600283526101ff60018060a01b03838820541615156124e7565b61020d600f885111156122d7565b8552600c82528420928551928311610309575061022a8354611a1c565b601f81116102d0575b5080601f831160011461026e5750839482939492610263575b50508160011b916000199060031b1c191617905580f35b01519050388061024c565b90601f198316958486528286209286905b8882106102b85750508360019596971061029f575b505050811b01905580f35b015160001960f88460031b161c19169055388080610294565b8060018596829496860151815501950193019061027f565b6102f990848652828620601f850160051c8101918486106102ff575b601f0160051c0190612323565b38610233565b90915081906102ec565b634e487b7160e01b855260419052602484fd5b8480fd5b5080fd5b508290346103b55760203660031901126103b5576103406118e5565b906103496119b7565b6001600160a01b0391821692831561039f575050600a54826bffffffffffffffffffffffff60a01b821617600a55167f8be0079c531659141344cd1fd0a4f28419497f9722a3daafe3b4186f6b6457e08380a380f35b51631e4fbdf760e01b8152908101849052602490fd5b8280fd5b82843461032057806003193601126103205760ff816020936103d96118e5565b6103e16118cf565b6001600160a01b0391821683526005875283832091168252855220549151911615158152f35b5060203660031901126103205780356001600160401b0381116103b55761044a91610434913691016118b1565b610442601154341015612294565b34903361233a565b80f35b5082346103b55760209183600319918483360112610320576104a4813593848452600287526104d360018060a01b0361048c81898820541615156124e7565b868652600c89526104ab888720895195868092611a56565b0385611823565b60105416928751968795632f04307b60e21b875286015260a0602486015260a485019061191e565b818482030160448501528491600d54916104ec83611a1c565b908181526001938b8582169182600014610784575050600114610729575b505084830381016064860152600e54869361052482611a1c565b918282528b858216918260001461070a5750506001146106af575b50508483030160848501528491600f549161055983611a1c565b92838352868b838316928360001461068f57505050600114610634575b50505082809103915afa9384156106295780946105a7575b50506105a3905192828493845283019061191e565b0390f35b909193503d8082843e6105ba8184611823565b8201918381840312610320578051906001600160401b0382116103b5570182601f82011215610320578051916105ef8361185a565b936105fc87519586611823565b8385528584840101116106265750829161061e9185806105a3960191016118fb565b92908461058e565b80fd5b8251903d90823e3d90fd5b600f87528993508692907f8d1108e10bcb7c27dddfc02ed9d693a074039d026cf4ea4240b40f7d581ac8025b82851061067457505050010182808a610576565b80548486018701528c98508997508b95909401938101610660565b9196509392508594915060ff191683830152151560051b0101918a610576565b8a929450600e88527fbb7b4a454dc3493923482f07822329ed19e8244eff582cc204f8554c3620c3fd9188925b8184106106ef5750500101918a8061053f565b80548385018601528d99508a98508c949093019285016106dc565b60ff19168382015292151560051b90910190910193508b90508061053f565b8a929450600d88527fd7b6990105719101dabeb77144f2a3385c8033acd3af97e9423a695e81ad1eb59188925b8184106107695750500101918a8061050a565b80548385018601528d99508a98508c94909301928501610756565b60ff19168382015292151560051b90910190910193508b90508061050a565b508290346103b55760203660031901126103b5576107dd9035916107c56119b7565b6107ce836125a3565b828452600c602052832061255a565b7f0c526103b8f47af5516191d0c89a598755bd00faa211a3cb52e4c2cc782f7fe28280a280f35b50346103205760803660031901126103205761081e6118e5565b6108266118cf565b906064356001600160401b03811161031c573660238201121561031c5761044a9381602461085993369301359101611875565b9160443591611dc0565b5082346103b557806003193601126103b55761087d6118e5565b906024359182151580930361031c576001600160a01b03169283156108eb5750338452600560205280842083855260205280842060ff1981541660ff8416179055519081527f17307eab39ab6107e8899845ad3d59bd9653f200f220920489ca2b5937696c3160203392a380f35b836024925191630b61174360e31b8352820152fd5b82843461032057816003193601126103205780519082600180549161092483611a1c565b808652928281169081156109bb575060011461095f575b50505061094d826105a3940383611823565b5191829160208352602083019061191e565b94508085527fb10e2d527612073b26eecdfd717e6a320cf44b4afac2b0732d9fcbe2b7fa0cf65b8286106109a35750505061094d8260206105a3958201019461093b565b80546020878701810191909152909501948101610986565b6105a397508693506020925061094d94915060ff191682840152151560051b8201019461093b565b828434610320578160031936011261032057600a5490516001600160a01b039091168152602090f35b5034610320576020806003193601126103b5579291610a296118e5565b91610a33836119e3565b610a3c81612543565b91610a4986519384611823565b818352610a5582612543565b8388019590601f1901368737845b838110610aa9575050505083519485948186019282875251809352850193925b828110610a9257505050500390f35b835185528695509381019392810192600101610a83565b610ab981839a979698999a611f4d565b8751821015610af557868260051b890101526000198114610ae257600101979695939497610a63565b634e487b7160e01b855260118352602485fd5b634e487b7160e01b865260328452602486fd5b503461032057602036600319011261032057610b226119b7565b3560115580f35b50903461062657602080600319360112610320576001600160401b03908335828111610c9f57610b5c90369086016118b1565b93610b656119b7565b8451928311610c8c5750610b7a600f54611a1c565b601f8111610c3f575b5080601f8311600114610bbe57508293829392610bb3575b50508160011b916000199060031b1c191617600f5580f35b015190508380610b9b565b600f8452601f198316947f8d1108e10bcb7c27dddfc02ed9d693a074039d026cf4ea4240b40f7d581ac802929185905b878210610c27575050836001959610610c0e575b505050811b01600f5580f35b015160001960f88460031b161c19169055838080610c02565b80600185968294968601518155019501930190610bee565b610c8690600f85527f8d1108e10bcb7c27dddfc02ed9d693a074039d026cf4ea4240b40f7d581ac802601f850160051c8101918486106102ff57601f0160051c0190612323565b84610b83565b634e487b7160e01b845260419052602483fd5b8380fd5b8234610626578060031936011261062657610cbc6119b7565b600a80546001600160a01b0319811690915581906001600160a01b03167f8be0079c531659141344cd1fd0a4f28419497f9722a3daafe3b4186f6b6457e08280a380f35b82843461032057602036600319011261032057602090610d26610d216118e5565b6119e3565b9051908152f35b508290346103b55760203660031901126103b5579061094d816105a394610d6294358152600c60205220825193848092611a56565b0383611823565b823461062657602036600319011261062657610d836118e5565b610d8b6119b7565b60018060a01b03166bffffffffffffffffffffffff60a01b601054161760105580f35b509190346106265760203660031901126106265750610dcf60209235611ee2565b90516001600160a01b039091168152f35b50913461032057610df036611978565b610df86119b7565b610e06600f825111156122d7565b600b54926001600160a01b03838116938415610f935785610e2691611ffa565b16610f7d578385526020600c81528186208351976001600160401b038911610f6a5750610e538154611a1c565b601f8111610f3c575b5081601f8911600114610ecb579780889960008051602061278d83398151915297989991610ec0575b508160011b916000199060031b1c19161790555b6001600b5401600b5586610eb6835194848695865285019061191e565b918301520390a380f35b905085015138610e85565b81885282882090601f198a16895b818110610f255750918a9160008051602061278d83398151915298999a9b60019410610f0c575b5050811b019055610e99565b87015160001960f88460031b161c191690553880610f00565b91928560018192868b015181550194019201610ed9565b610f6490828952838920601f8b0160051c810191858c106102ff57601f0160051c0190612323565b38610e5c565b634e487b7160e01b885260419052602487fd5b516339e3563760e11b8152808601859052602490fd5b8251633250574960e11b8152808901889052602490fd5b50903461062657602080600319360112610320576001600160401b03908335828111610c9f57610fdd90369086016118b1565b93610fe66119b7565b8451928311610c8c5750610ffb600d54611a1c565b601f81116110c0575b5080601f831160011461103f57508293829392611034575b50508160011b916000199060031b1c191617600d5580f35b01519050838061101c565b600d8452601f198316947fd7b6990105719101dabeb77144f2a3385c8033acd3af97e9423a695e81ad1eb5929185905b8782106110a857505083600195961061108f575b505050811b01600d5580f35b015160001960f88460031b161c19169055838080611083565b8060018596829496860151815501950193019061106f565b61110790600d85527fd7b6990105719101dabeb77144f2a3385c8033acd3af97e9423a695e81ad1eb5601f850160051c8101918486106102ff57601f0160051c0190612323565b84611004565b508290346103b55760203660031901126103b5578035926008548410156111485760208361113a86611fad565b91905490519160031b1c8152f35b6044939192519263295f44f760e21b84528301526024820152fd5b8261044a61117036611978565b61117e601154341015612294565b349161233a565b5082346103b55760203660031901126103b5578135916111a483611ee2565b336001600160a01b03909116036111c357506107dd906107ce836125a3565b6020606492519162461bcd60e51b8352820152601760248201527f43616c6c6572206973206e6f7420746865206f776e65720000000000000000006044820152fd5b5091346103205761121536611943565b9183519360208501908582106001600160401b0383111761123f5761044a96975052858452611dc0565b634e487b7160e01b875260418852602487fd5b8284346103205781600319360112610320576020906011549051908152f35b828434610320578060031936011261032057602090610d266112916118e5565b60243590611f4d565b82346106265761044a6112ac36611943565b91611aec565b8284346103205781600319360112610320576020906008549051908152f35b5082346103b55760203660031901126103b557828080806112f06118e5565b6112f86119b7565b47905af1611304611f1d565b501561130e578280f35b906020606492519162461bcd60e51b83528201526013602482015272115512081d1c985b9cd9995c8819985a5b1959606a1b6044820152fd5b5082346103b557806003193601126103b5576113616118e5565b9160243561136e81611ee2565b33151580611410575b806113e7575b6113d1576001600160a01b039485169482918691167f8c5be1e5ebec7d5bd14f71427d1e84f3dd0314c0f7b2291e5b200ac8c7c3b9258880a48452602052822080546001600160a01b031916909117905580f35b835163a9fbf51f60e01b81523381850152602490fd5b506001600160a01b03811686526005602090815284872033885290528386205460ff161561137d565b506001600160a01b038116331415611377565b508290346103b55760203660031901126103b55791826020933561144681611ee2565b50825283528190205490516001600160a01b039091168152f35b82843461032057816003193601126103205780519082805461148181611a1c565b808552916001918083169081156109bb57506001146114ac5750505061094d826105a3940383611823565b80809650527f290decd9548b62a8d60345a988386fc84ba6bc95484008f6362f93160ef3e5635b8286106114f05750505061094d8260206105a3958201019461093b565b805460208787018101919091529095019481016114d3565b5081923461163657806003193601126116365781356001600160a01b03811690819003611631576115376118cf565b906115406119b7565b8251916370a0823160e01b835230858401526020948584602481865afa9384156116275787946115ee575b50845163a9059cbb60e01b81526001600160a01b039092169082019081526020810193909352948492869291839182906040015b03925af19081156115e557506115b3578280f35b81813d83116115de575b6115c78183611823565b810103126103205751801515036106265738808280f35b503d6115bd565b513d85823e3d90fd5b935091908584813d8311611620575b6116078183611823565b8101031261161c57925192909161159f61156b565b8680fd5b503d6115fd565b85513d89823e3d90fd5b505050fd5b5050fd5b50903461062657602080600319360112610320576001600160401b03908335828111610c9f5761166d90369086016118b1565b936116766119b7565b8451928311610c8c575061168b600e54611a1c565b601f8111611750575b5080601f83116001146116cf575082938293926116c4575b50508160011b916000199060031b1c191617600e5580f35b0151905083806116ac565b600e8452601f198316947fbb7b4a454dc3493923482f07822329ed19e8244eff582cc204f8554c3620c3fd929185905b87821061173857505083600195961061171f575b505050811b01600e5580f35b015160001960f88460031b161c19169055838080611713565b806001859682949686015181550195019301906116ff565b61179790600e85527fbb7b4a454dc3493923482f07822329ed19e8244eff582cc204f8554c3620c3fd601f850160051c8101918486106102ff57601f0160051c0190612323565b84611694565b919050346103b55760203660031901126103b5573563ffffffff60e01b81168091036103b5576020925063780e9d6360e01b81149081156117e0575b5015158152f35b6380ac58cd60e01b811491508115611812575b8115611801575b50836117d9565b6301ffc9a760e01b149050836117fa565b635b5e139f60e01b811491506117f3565b90601f801991011681019081106001600160401b0382111761184457604052565b634e487b7160e01b600052604160045260246000fd5b6001600160401b03811161184457601f01601f191660200190565b9291926118818261185a565b9161188f6040519384611823565b8294818452818301116118ac578281602093846000960137010152565b600080fd5b9080601f830112156118ac578160206118cc93359101611875565b90565b602435906001600160a01b03821682036118ac57565b600435906001600160a01b03821682036118ac57565b60005b83811061190e5750506000910152565b81810151838201526020016118fe565b90602091611937815180928185528580860191016118fb565b601f01601f1916010190565b60609060031901126118ac576001600160a01b039060043582811681036118ac579160243590811681036118ac579060443590565b9060406003198301126118ac576004356001600160a01b03811681036118ac5791602435906001600160401b0382116118ac576118cc916004016118b1565b600a546001600160a01b031633036119cb57565b60405163118cdaa760e01b8152336004820152602490fd5b6001600160a01b03168015611a0357600052600360205260406000205490565b6040516322718ad960e21b815260006004820152602490fd5b90600182811c92168015611a4c575b6020831014611a3657565b634e487b7160e01b600052602260045260246000fd5b91607f1691611a2b565b9060009291805491611a6783611a1c565b918282526001938481169081600014611ac95750600114611a89575b50505050565b90919394506000526020928360002092846000945b838610611ab5575050505001019038808080611a83565b805485870183015294019385908201611a9e565b9294505050602093945060ff191683830152151560051b01019038808080611a83565b6001600160a01b0382811693918415611da757600094838652602095600287526040968488832054169633151580611d19575b5087158015611ce6575b84845260038352898420805460010190558784526002835289842080546001600160a01b0319168617905587858a7fddf252ad1be2c89b69c2b068fc378daa952ba7f163c4a11628f55a4df523b3ef8780a415611c6a5760085487845260098352808a852055600160401b811015611c565787611baf826001611bc89401600855611fad565b90919082549060031b91821b91600019901b1916179055565b838803611c04575b505050501692838303611be35750505050565b6064945051926364283d7b60e01b8452600484015260248301526044820152fd5b611c0d906119e3565b600019810193908411611c425782916007918a9452600681528383208584528152878484205587835252205538808080611bd0565b634e487b7160e01b83526011600452602483fd5b634e487b7160e01b84526041600452602484fd5b878414611bc857611c7a886119e3565b8784526007835289842054818103611caf575b50878452838a8120558884526006835289842090845282528289812055611bc8565b898552600684528a852082865284528a8520548a8652600685528b86208287528552808c8720558552600784528a85205538611c8d565b600088815260046020526040902080546001600160a01b0319169055888452600383528984208054600019019055611b29565b80611d66575b15611d2a5738611b1f565b888789611d47576024915190637e27328960e01b82526004820152fd5b905163177e802f60e01b81523360048201526024810191909152604490fd5b503388148015611d8b575b80611d1f57508683526004825233868a8520541614611d1f565b5087835260058252888320338452825260ff8984205416611d71565b604051633250574960e11b815260006004820152602490fd5b9190611dcd828285611aec565b803b611dd95750505050565b611e1b60018060a01b0380921694604051938493630a85bd0160e11b96878652336004870152166024850152604484015260806064840152608483019061191e565b03906020816000938185885af190829082611e9a575b5050611e695782611e40611f1d565b8051919082611e6257604051633250574960e11b815260048101839052602490fd5b9050602001fd5b6001600160e01b03191603611e82575038808080611a83565b60249060405190633250574960e11b82526004820152fd5b909192506020813d8211611eda575b81611eb660209383611823565b810103126103205751906001600160e01b0319821682036106265750903880611e31565b3d9150611ea9565b6000818152600260205260409020546001600160a01b0316908115611f05575090565b60249060405190637e27328960e01b82526004820152fd5b3d15611f48573d90611f2e8261185a565b91611f3c6040519384611823565b82523d6000602084013e565b606090565b611f56816119e3565b821015611f825760018060a01b0316600052600660205260406000209060005260205260406000205490565b60405163295f44f760e21b81526001600160a01b039190911660048201526024810191909152604490fd5b600854811015611fe45760086000527ff3f7a9fe364faab93b216da50a3214154f22a0a2b415b23a84c8169e8b636ee30190600090565b634e487b7160e01b600052603260045260246000fd5b6000828152600260209081526040808320546001600160a01b039081169592949192918615918215612261575b811691821590811561224b575b8487526002885285872080546001600160a01b0319168517905584848a7fddf252ad1be2c89b69c2b068fc378daa952ba7f163c4a11628f55a4df523b3ef8a80a4156121cf57600854848752600988528086882055600160401b8110156121bb5784611baf8260016120a99401600855611fad565b156121525750506008546000199485820191821161213e57906009839286959486528181526120db8587205493611fad565b90549060031b1c6120ef81611baf86611fad565b86525282842055825281205560085490811561212a57500161212461211382611fad565b8154906000199060031b1b19169055565b60085590565b634e487b7160e01b81526031600452602490fd5b634e487b7160e01b85526011600452602485fd5b8187969392969594950361216a575b50505050505090565b612173906119e3565b6000198101959086116121a75783526006825283832085845282528383208190558252600790522055388080808080612161565b634e487b7160e01b84526011600452602484fd5b634e487b7160e01b87526041600452602487fd5b8783146120a9576121df886119e3565b8487526007885285872054818103612214575b50848752868681205588875260068852858720908752875285858120556120a9565b898852600689528688208289528952868820548a895260068a52878920828a528a5280888a205588526007895286882055386121f2565b8387526003885285872060018154019055612034565b600084815260046020526040902080546001600160a01b0319169055878652600387528486208054600019019055612027565b1561229b57565b60405162461bcd60e51b8152602060048201526014602482015273125b9cdd59999a58da595b9d081c185e5b595b9d60621b6044820152606490fd5b156122de57565b60405162461bcd60e51b815260206004820152601a60248201527f4e616d65206578636565647320313520636861726163746572730000000000006044820152606490fd5b81811061232e575050565b60008155600101612323565b90612349600f825111156122d7565b600b54926001600160a01b03838116938415611da7578561236991611ffa565b166124ce57600090848252602091600c835260408120908451906001600160401b0382116124ba5761239b8354611a1c565b601f811161248c575b508490601f831160011461241757918061240396949260008051602061278d8339815191529896949161240c575b508160011b916000199060031b1c19161790555b6001600b5401600b5560405193849360408552604085019061191e565b918301520390a3565b9050850151386123d2565b90601f198316848352868320925b8181106124755750926124039694926001928260008051602061278d8339815191529a98961061245c575b5050811b0190556123e6565b87015160001960f88460031b161c191690553880612450565b91928760018192868c015181550194019201612425565b6124b490848352868320601f850160051c8101918886106102ff57601f0160051c0190612323565b386123a4565b634e487b7160e01b81526041600452602490fd5b6040516339e3563760e11b815260006004820152602490fd5b156124ee57565b60405162461bcd60e51b815260206004820152602760248201527f4552433732313a2055524920717565727920666f72206e6f6e6578697374656e6044820152663a103a37b5b2b760c91b6064820152608490fd5b6001600160401b0381116118445760051b60200190565b6125648154611a1c565b908161256e575050565b81601f60009311600114612580575055565b90808391825261259f601f60208420940160051c840160018501612323565b5555565b60008181526020906002825260409160018060a01b03838320541691821592831580612759575b8683526002845285832080546001600160a01b03191690558683837fddf252ad1be2c89b69c2b068fc378daa952ba7f163c4a11628f55a4df523b3ef8280a484156126d8575050600854858252600983528085832055600160401b8110156126c45785611baf8260016126409401600855611fad565b60085460001992838201918211611c42576009908784528181526126678785205493611fad565b90549060031b1c61267b81611baf86611fad565b84525284822055848152808481205560085490811561212a5750016126a261211382611fad565b6008556126ad575050565b602492505190637e27328960e01b82526004820152fd5b634e487b7160e01b82526041600452602482fd5b6126e3575b50612640565b6126ec816119e3565b908683526007845285832054828103612722575b50868352828681205582526006835284822090825282528084812055386126dd565b8184526006855286842083855285528684205482855260068652878520828652865280888620558452600785528684205538612700565b600087815260046020526040902080546001600160a01b03191690558183526003845285832080546000190190556125ca56fe1f7739ed442d7654ce74bfd849a7b9657bdb9713296fef09ffc71bd68edfab17a26469706673582212201e42f101066d8ed4a1ef1338ac7f57d15ecf6657cfa9bc9c4eee2f2be408800f64736f6c63430008140033",
  "linkReferences": {},
  "deployedLinkReferences": {}
}