{
  "_format": "hh-sol-artifact-1",
  "contractName": "MetadataRendererV2",
  "sourceName": "contracts/protocol/NonUpgradable/MetadataRendererV2.sol",
  "abi": [
    {
      "inputs": [
        {
          "internalType": "address",
          "name": "initialOwner",
          "type": "address"
        },
        {
          "internalType": "string",
          "name": "_ipfsBaseURI",
          "type": "string"
        },
        {
          "internalType": "string",
          "name": "_arweaveBaseURI",
          "type": "string"
        }
      ],
      "stateMutability": "nonpayable",
      "type": "constructor"
    },
    {
      "inputs": [
        {
          "internalType": "address",
          "name": "owner",
          "type": "address"
        }
      ],
      "name": "OwnableInvalidOwner",
      "type": "error"
    },
    {
      "inputs": [
        {
          "internalType": "address",
          "name": "account",
          "type": "address"
        }
      ],
      "name": "OwnableUnauthorizedAccount",
      "type": "error"
    },
    {
      "anonymous": false,
      "inputs": [
        {
          "indexed": false,
          "internalType": "string",
          "name": "oldURI",
          "type": "string"
        },
        {
          "indexed": false,
          "internalType": "string",
          "name": "newURI",
          "type": "string"
        }
      ],
      "name": "ArweaveBaseURIUpdated",
      "type": "event"
    },
    {
      "anonymous": false,
      "inputs": [
        {
          "indexed": false,
          "internalType": "string",
          "name": "oldURI",
          "type": "string"
        },
        {
          "indexed": false,
          "internalType": "string",
          "name": "newURI",
          "type": "string"
        }
      ],
      "name": "IPFSBaseURIUpdated",
      "type": "event"
    },
    {
      "anonymous": false,
      "inputs": [
        {
          "indexed": true,
          "internalType": "address",
          "name": "previousOwner",
          "type": "address"
        },
        {
          "indexed": true,
          "internalType": "address",
          "name": "newOwner",
          "type": "address"
        }
      ],
      "name": "OwnershipTransferred",
      "type": "event"
    },
    {
      "inputs": [],
      "name": "arweaveBaseURI",
      "outputs": [
        {
          "internalType": "string",
          "name": "",
          "type": "string"
        }
      ],
      "stateMutability": "view",
      "type": "function"
    },
    {
      "inputs": [
        {
          "components": [
            {
              "internalType": "string",
              "name": "name",
              "type": "string"
            },
            {
              "internalType": "string",
              "name": "description",
              "type": "string"
            },
            {
              "internalType": "string",
              "name": "image",
              "type": "string"
            },
            {
              "internalType": "string",
              "name": "externalUrl",
              "type": "string"
            },
            {
              "internalType": "string",
              "name": "animationUrl",
              "type": "string"
            },
            {
              "internalType": "string",
              "name": "attributesIpfsHash",
              "type": "string"
            }
          ],
          "internalType": "struct IMetadataModule.Metadata",
          "name": "metadata",
          "type": "tuple"
        },
        {
          "internalType": "uint256",
          "name": "tokenId",
          "type": "uint256"
        },
        {
          "internalType": "address",
          "name": "wrappedSongAddress",
          "type": "address"
        },
        {
          "internalType": "string",
          "name": "baseURI",
          "type": "string"
        },
        {
          "internalType": "contract IProtocolModule",
          "name": "protocolModule",
          "type": "address"
        }
      ],
      "name": "composeTokenURI",
      "outputs": [
        {
          "internalType": "string",
          "name": "",
          "type": "string"
        }
      ],
      "stateMutability": "view",
      "type": "function"
    },
    {
      "inputs": [],
      "name": "ipfsBaseURI",
      "outputs": [
        {
          "internalType": "string",
          "name": "",
          "type": "string"
        }
      ],
      "stateMutability": "view",
      "type": "function"
    },
    {
      "inputs": [],
      "name": "owner",
      "outputs": [
        {
          "internalType": "address",
          "name": "",
          "type": "address"
        }
      ],
      "stateMutability": "view",
      "type": "function"
    },
    {
      "inputs": [],
      "name": "renounceOwnership",
      "outputs": [],
      "stateMutability": "nonpayable",
      "type": "function"
    },
    {
      "inputs": [
        {
          "internalType": "string",
          "name": "_arweaveBaseURI",
          "type": "string"
        }
      ],
      "name": "setArweaveBaseURI",
      "outputs": [],
      "stateMutability": "nonpayable",
      "type": "function"
    },
    {
      "inputs": [
        {
          "internalType": "string",
          "name": "_ipfsBaseURI",
          "type": "string"
        },
        {
          "internalType": "string",
          "name": "_arweaveBaseURI",
          "type": "string"
        }
      ],
      "name": "setBaseURIs",
      "outputs": [],
      "stateMutability": "nonpayable",
      "type": "function"
    },
    {
      "inputs": [
        {
          "internalType": "string",
          "name": "_ipfsBaseURI",
          "type": "string"
        }
      ],
      "name": "setIPFSBaseURI",
      "outputs": [],
      "stateMutability": "nonpayable",
      "type": "function"
    },
    {
      "inputs": [
        {
          "internalType": "address",
          "name": "newOwner",
          "type": "address"
        }
      ],
      "name": "transferOwnership",
      "outputs": [],
      "stateMutability": "nonpayable",
      "type": "function"
    }
  ],
  "bytecode": "0x60806040523462000382576200228f803803806200001d8162000387565b928339810190606081830312620003825780516001600160a01b03808216939091849003620003825760208381015190946001600160401b039490918581116200038257836200006f918301620003c3565b9260408201518681116200038257620000899201620003c3565b9080156200036957600080546001600160a01b03198116831782559094167f8be0079c531659141344cd1fd0a4f28419497f9722a3daafe3b4186f6b6457e08580a381519284841162000273576001938454938585811c951680156200035e575b888610146200034a578190601f95868111620002f7575b5088908683116001146200029357849262000287575b5050600019600383901b1c191690851b1784555b815194851162000273576002548481811c9116801562000268575b8782101462000254578381116200020b575b5085928511600114620001a257939450849291908362000196575b50501b916000199060031b1c1916176002555b604051611e599081620004368239f35b01519250388062000173565b6002815285812093958591601f198316915b88838310620001f05750505010620001d6575b505050811b0160025562000186565b015160001960f88460031b161c19169055388080620001c7565b858701518855909601959485019487935090810190620001b4565b600282528682208480880160051c8201928989106200024a575b0160051c019085905b8281106200023e57505062000158565b8381550185906200022e565b9250819262000225565b634e487b7160e01b82526022600452602482fd5b90607f169062000146565b634e487b7160e01b81526041600452602490fd5b01519050388062000117565b8785528985208894509190601f198416865b8c828210620002e05750508411620002c6575b505050811b0184556200012b565b015160001960f88460031b161c19169055388080620002b8565b8385015186558b97909501949384019301620002a5565b9091508684528884208680850160051c8201928b861062000340575b918991869594930160051c01915b8281106200033157505062000101565b86815585945089910162000321565b9250819262000313565b634e487b7160e01b83526022600452602483fd5b94607f1694620000ea565b604051631e4fbdf760e01b815260006004820152602490fd5b600080fd5b6040519190601f01601f191682016001600160401b03811183821017620003ad57604052565b634e487b7160e01b600052604160045260246000fd5b919080601f84011215620003825782516001600160401b038111620003ad57602090620003f9601f8201601f1916830162000387565b92818452828287010111620003825760005b8181106200042157508260009394955001015290565b85810183015184820184015282016200040b56fe6080604052600436101561001257600080fd5b60003560e01c806345df05f9146115475780636a1ed362146107ee578063715018a6146107955780638da5cb5b1461076c578063bf1696ce146105e3578063c1ce2e91146102f1578063f0fb21b0146102bd578063f2fde38b1461022d5763f3dbc5af1461007f57600080fd5b34610228576020806003193601126102285767ffffffffffffffff90600435828111610228576100b39036906004016117a7565b906100bc6117ee565b6100c4611613565b908251938411610212576100d9600254611563565b601f81116101c0575b5080601f851160011461013e57509280600080516020611dc483398151915294600091610133575b508160011b916000199060031b1c1916176002555b61012e6040519283928361181a565b0390a1005b90508301513861010a565b90601f1985166002600052600080516020611da4833981519152926000905b8282106101a8575050918591600080516020611dc4833981519152966001941061018f575b5050811b0160025561011f565b85015160001960f88460031b161c191690553880610182565b80600185968294968a0151815501950193019061015d565b6002600052600080516020611da4833981519152601f860160051c810191838710610208575b601f0160051c01905b8181106101fc57506100e2565b600081556001016101ef565b90915081906101e6565b634e487b7160e01b600052604160045260246000fd5b600080fd5b34610228576020366003190112610228576004356001600160a01b03818116918290036102285761025c6117ee565b81156102a457600054826bffffffffffffffffffffffff60a01b821617600055167f8be0079c531659141344cd1fd0a4f28419497f9722a3daafe3b4186f6b6457e0600080a3005b604051631e4fbdf760e01b815260006004820152602490fd5b34610228576000366003190112610228576102ed6102d96116bf565b604051918291602083526020830190611766565b0390f35b346102285760403660031901126102285767ffffffffffffffff600435818111610228576103239036906004016117a7565b906024358181116102285761033c9036906004016117a7565b906103456117ee565b61034d6116bf565b610355611613565b9184518181116102125760019061036c8254611563565b90601f91828111610591575b5080602083821160011461052457600091610519575b50600019600383901b1c191690831b1782555b8551928311610212576103b5600254611563565b8181116104c6575b50602090831160011461043557918080600080516020611de48339815191529593600080516020611dc4833981519152999560009361042a575b501b916000199060031b1c1916176002555b6104186040519283928361181a565b0390a161012e6040519283928361181a565b89015192508a6103f7565b601f929192198216906002600052600080516020611da48339815191529160005b8181106104b05750918391600080516020611de48339815191529694600080516020611dc48339815191529a969410610497575b5050811b01600255610409565b88015160001960f88460031b161c19169055888061048a565b8883015184559285019260209283019201610456565b6002600052600080516020611da48339815191528280860160051c82019260208710610510575b0160051c019083905b8281106105045750506103bd565b600081550183906104f6565b925081926104ed565b90508801518961038e565b849250601f1982169083600052600080516020611e048339815191529160005b8c82821061057a5750508311610561575b5050811b0182556103a1565b8a015160001960f88460031b161c191690558980610555565b830151845587959093019260209283019201610544565b83600052600080516020611e048339815191528380840160051c820192602085106105da575b0160051c019084905b8281106105ce575050610378565b600081550184906105c0565b925081926105b7565b34610228576020806003193601126102285767ffffffffffffffff600435818111610228576106169036906004016117a7565b9061061f6117ee565b6106276116bf565b9082519081116102125760019061063e8254611563565b601f8111610718575b5084601f821160011461069a575080600080516020611de48339815191529560009161068f575b50600019600383901b1c191690821b17905561012e6040519283928361181a565b90508401518661066e565b94601f19821683600052600080516020611e04833981519152966000905b8282106107015750509582918493600080516020611de483398151915298106106e8575b5050811b01905561011f565b86015160001960f88460031b161c1916905586806106dc565b8784015189559785019792830192908101906106b8565b82600052600080516020611e04833981519152601f830160051c810191878410610762575b601f0160051c019083905b828110610756575050610647565b60008155018390610748565b909150819061073d565b34610228576000366003190112610228576000546040516001600160a01b039091168152602090f35b34610228576000366003190112610228576107ae6117ee565b600080546001600160a01b0319811682556001600160a01b03167f8be0079c531659141344cd1fd0a4f28419497f9722a3daafe3b4186f6b6457e08280a3005b346102285760031960a036820112610228576004359067ffffffffffffffff908183116102285760c0908336030112610228576040519160c08301838110838211176102125760405280600401358281116102285761085390600436918401016117a7565b835260248101358281116102285761087190600436918401016117a7565b602084015260448101358281116102285761089290600436918401016117a7565b60408401526064810135828111610228576108b390600436918401016117a7565b60608401526084810135828111610228576108d490600436918401016117a7565b608084015260a4810135908282116102285760046108f592369201016117a7565b60a08301526044356001600160a01b038116900361022857606435908111610228576109259036906004016117a7565b90608435906001600160a01b03821682036102285782511561150f576060808060243561127d57505050600460405161095d8161159d565b6003815262714bc960e91b60208201529261098d604084015161097e6116bf565b87610987611613565b92611bc7565b92602080820151925b60405163670d296960e11b815294859182906001600160a01b03165afa92831561110957600093611239575b50604051633ead5d1160e01b81526020816004816001600160a01b0388165afa90811561110957602491600091829161121a575b50604051635421432b60e11b81526001600160a01b03604435811660048301529093849290918391165afa908115611109576000916111ff575b50604051633ead5d1160e01b81526020816004816001600160a01b0389165afa9081156111095760249160009182916111e0575b50604051630437e6a160e21b81526001600160a01b03604435811660048301529093849290918391165afa908115611109576000916111c5575b50604051633ead5d1160e01b8152946020866004816001600160a01b0385165afa9586156111095760249660009182916111a6575b5060405163cc7e544560e01b81526001600160a01b03604435811660048301529098899290918391165afa95861561110957600096611189575b50604051633ead5d1160e01b8152926020846004816001600160a01b0386165afa93841561110957602494600091829161116a575b5060405163164158ff60e01b81526001600160a01b03604435811660048301529096879290918391165afa91821561110957600494600093611142575b50604051633ead5d1160e01b81529460209186919082906001600160a01b03165afa93841561110957602494602091600091611115575b5060405163a449357560e01b81526001600160a01b03604435811660048301529096879290918391165afa938415611109576000946110b6575b50936102ed99610e4d9894610d43605d610fde9a9660859a968a610fe39f9b51151560001461109f57915b80511561108857985b80511561107157905b80511561105a57905b604051998a9371227265676973747279436f646573223a207b60701b6020860152681124a9a921911d101160b91b6032860152610c7d815180926020603b89019101611743565b61088b60f21b858201603b81019190915267112aa821911d101160c11b603d820152825192610cb6918491604590910190602001611743565b84010161088b60f21b6045820152681124a9aba1911d101160b91b6047820152610cea825180936020605085019101611743565b0161088b60f21b6050820152681124a9a1a1911d101160b91b6052820152610d1c825180936020605b85019101611743565b601160f91b605b8383010152607d60f81b605c83830101520103603d8101885201866115f1565b1561103657604051610d548161159d565b60048152637472756560e01b6020820152945b610dd160416040518098702261757468656e746963697479223a207b60781b60208301526e01134b9a0baba3432b73a34b1911d1608d1b6031830152610db7815180926020604086019101611743565b8101607d60f81b60408201520360218101895201876115f1565b825193610e21610df06060860151610de76116bf565b86610987611613565b9360a0610e0c6080880151610e036116bf565b84610987611613565b96015190610e186116bf565b90610987611613565b94602a6040519c8d809b693d913730b6b2911d101160b11b602083015260208151948593019101611743565b8901600160fd1b602a820152610e6d825180936020602b85019101611743565b0161088b60f21b602b8201526f113232b9b1b934b83a34b7b7111d101160811b602d820152610ea6825180936020603d85019101611743565b0161088b60f21b603d820152691134b6b0b3b2911d101160b11b603f820152610ed9825180936020604985019101611743565b0161088b60f21b6049820152701132bc3a32b93730b62fbab936111d101160791b604b820152610f13825180936020605c85019101611743565b0161088b60f21b605c820152711130b734b6b0ba34b7b72fbab936111d101160711b605e820152610f4e825180936020607085019101611743565b0161088b60f21b60708201526e1130ba3a3934b13aba32b9911d101160891b6072820152610f86825180936020608185019101611743565b0161088b60f21b6081820152610fa6825180936020608385019101611743565b01600b60fa1b6083820152610fc5825180936020608485019101611743565b01607d60f81b60848201520360658101845201826115f1565b6118c0565b6102d9603d60405180937f646174613a6170706c69636174696f6e2f6a736f6e3b6261736536342c00000060208301526110268151809260208686019101611743565b810103601d8101845201826115f1565b6040516110428161159d565b600581526466616c736560d81b602082015294610d67565b50604051611067816115b9565b6000815290610c36565b5060405161107e816115b9565b6000815290610c2d565b50604051611095816115b9565b6000815298610c24565b506040516110ac816115b9565b6000815291610c1b565b909894969295919793506020813d602011611101575b816110d9602093836115f1565b81010312610228575195861515870361022857939792969195909490929091906102ed610bf0565b3d91506110cc565b6040513d6000823e3d90fd5b6111359150823d841161113b575b61112d81836115f1565b810190611842565b8c610bb6565b503d611123565b6020919350611163903d806000833e61115b81836115f1565b810190611861565b9290610b7f565b611183915060203d60201161113b5761112d81836115f1565b8c610b42565b61119f9196503d806000833e61115b81836115f1565b9489610b0d565b6111bf915060203d60201161113b5761112d81836115f1565b8b610ad3565b6111da91503d806000833e61115b81836115f1565b88610a9e565b6111f9915060203d60201161113b5761112d81836115f1565b8a610a64565b61121491503d806000833e61115b81836115f1565b87610a30565b611233915060203d60201161113b5761112d81836115f1565b896109f6565b9092506020813d602011611275575b81611255602093836115f1565b8101031261022857516001600160a01b03811681036102285791866109c2565b3d9150611248565b6024356001036113745750505060046040516112988161159d565b6002815261c2a760f01b6020820152926112b8604084015161097e6116bf565b9260206112c6604435611a81565b61136e607d60405180937f5468657365206172652074686520536f6e675368617265732072657072657365868301527f6e74696e6720796f7572207368617265206f6e2074686520726f79616c74792060408301527f6561726e696e6773206f6620746865205772617070656420536f6e670000000060608301526113548151809288607c86019101611743565b8101601760f91b607c82015203605d8101845201826115f1565b92610996565b60243560020361142f57505050600460405161138f8161159d565b6003815262e29fb360e81b6020820152926113b0604084015161097e6116bf565b9260206113be604435611a81565b61136e604d60405180937f546869732069732061204275796f757420546f6b656e20666f72207468652057868301526b03930b83832b21029b7b733960a51b60408301526114158151809288604c86019101611743565b8101601760f91b604c82015203602d8101845201826115f1565b9091926003602435101561144a575b60206004939495610996565b92505050600460405161145c8161159d565b818152633c27e4e160e21b60208201529261147d604084015161097e6116bf565b92602061148b604435611a81565b611504605560405180937f546869732069732061204c6567616c20436f6e747261637420546f6b656e20668683015273037b9103a3432902bb930b83832b21029b7b733960651b60408301526114ea8151809288605486019101611743565b8101601760f91b60548201520360358101845201826115f1565b92959493505061143e565b60405162461bcd60e51b815260206004820152601060248201526f10985cd948155492481b9bdd081cd95d60821b6044820152606490fd5b34610228576000366003190112610228576102ed6102d9611613565b90600182811c92168015611593575b602083101461157d57565b634e487b7160e01b600052602260045260246000fd5b91607f1691611572565b6040810190811067ffffffffffffffff82111761021257604052565b6020810190811067ffffffffffffffff82111761021257604052565b6060810190811067ffffffffffffffff82111761021257604052565b90601f8019910116810190811067ffffffffffffffff82111761021257604052565b604051906000826002549161162783611563565b8083529260019081811690811561169d5750600114611650575b5061164e925003836115f1565b565b600260009081529150600080516020611da48339815191525b848310611682575061164e935050810160200138611641565b81935090816020925483858a01015201910190918592611669565b90506020925061164e94915060ff191682840152151560051b82010138611641565b604051906000826001918254926116d584611563565b8084529381811690811561169d57506001146116f8575061164e925003836115f1565b60008181529150600080516020611e048339815191525b848310611728575061164e935050810160200138611641565b81935090816020925483858a0101520191019091859261170f565b60005b8381106117565750506000910152565b8181015183820152602001611746565b9060209161177f81518092818552858086019101611743565b601f01601f1916010190565b67ffffffffffffffff811161021257601f01601f191660200190565b81601f82011215610228578035906117be8261178b565b926117cc60405194856115f1565b8284526020838301011161022857816000926020809301838601378301015290565b6000546001600160a01b0316330361180257565b60405163118cdaa760e01b8152336004820152602490fd5b909161183161183f93604084526040840190611766565b916020818403910152611766565b90565b9081602091031261022857516001600160a01b03811681036102285790565b6020818303126102285780519067ffffffffffffffff8211610228570181601f820112156102285780516118948161178b565b926118a260405194856115f1565b818452602082840101116102285761183f9160208085019101611743565b805115611a3757604051906118d4826115d5565b604082527f4142434445464748494a4b4c4d4e4f505152535455565758595a61626364656660208301527f6768696a6b6c6d6e6f707172737475767778797a303132333435363738392b2f60408301528051600291828201809211611a215760039182900480841b94906001600160fe1b03811603611a21579261197061195a8661178b565b9561196860405197886115f1565b80875261178b565b6020860190601f190136823793829183518401906020820192835194600085525b8381106119d05750505050525106806001146119bd576002146119b2575090565b603d90600019015390565b50603d9081600019820153600119015390565b87600491999293949901918251600190603f9082828260121c16880101518453828282600c1c16880101518385015382828260061c1688010151888501531685010151898201530197929190611991565b634e487b7160e01b600052601160045260246000fd5b50604051611a44816115b9565b6000815290565b908151811015611a5c570160200190565b634e487b7160e01b600052603260045260246000fd5b6000198114611a215760010190565b604051906001600160a01b0316611a978261159d565b6010825260206f181899199a1a9b1b9c1cb0b131b232b360811b8184015260405192611ac2846115d5565b602a84528184016040368237845115611a5c5760309053835192600193841015611a5c576078602186015360005b60148110611b0057505050505090565b600c8101808211611a215784811015611a5c5782901a60046001600160f81b0319600f81611b3285851c831689611a4b565b511693858a1b94600290878704821488151715611bb257868201809211611bb257611b67611b6f9493928e9260001a92611a4b565b531687611a4b565b5116906003928301809311611b9d575090611b92611b98939260001a9189611a4b565b53611a72565b611af0565b601190634e487b7160e01b6000525260246000fd5b601186634e487b7160e01b6000525260246000fd5b9290611bd284611c84565b6003811015611c6e5760018103611c2457505050602061183f916040519381611c048693518092868087019101611743565b8201611c1882518093868085019101611743565b010380845201826115f1565b91925090600203611c4e5750602061183f916040519381611c048693518092868087019101611743565b61183f91506020906040519381611c048693518092868087019101611743565b634e487b7160e01b600052602160045260246000fd5b805190602e821480611d82575b80611d5d575b611d3457603b821480611d3b575b611d3457602b82101580611d29575b611cc0575b5050600090565b60005b828110611cd05750611cb9565b6001600160f81b0319602d60f81b81611ce98486611a4b565b511614908115611d0f575b50611d0757611d0290611a72565b611cc3565b505050600290565b605f60f81b9150611d208385611a4b565b51161438611cf4565b50602c821115611cb4565b5050600190565b50805115611a5c5760208101516001600160f81b031916603160f91b14611ca5565b50805160011015611a5c5760218101516001600160f81b031916606d60f81b14611c97565b508115611a5c5760208101516001600160f81b031916605160f81b14611c9156fe405787fa12a823e0f2b7631cc41b3ba8828b3321ca811111fa75cd3aa3bb5aceafbd1cd7e76e4bf002d2d50614b23d12171c00925761c7318940f4d173dfd38dcdfe07c8bb9b3c8e2dcaf2f86e29b44559cb1f9f7222c3f8772b0c36b1e78b11b10e2d527612073b26eecdfd717e6a320cf44b4afac2b0732d9fcbe2b7fa0cf6a2646970667358221220408fb91d8cf728198a707ffa8fd9a14b8a10b3a0e616062d2de24dd55244310364736f6c63430008140033",
  "linkReferences": {},
  "deployedLinkReferences": {}
}