{
  "_format": "hh-sol-artifact-1",
  "contractName": "DistributorWalletFactory",
  "sourceName": "contracts/protocol/NonUpgradable/DistributorWalletFactory.sol",
  "abi": [
    {
      "inputs": [
        {
          "internalType": "address",
          "name": "initialOwner",
          "type": "address"
        }
      ],
      "stateMutability": "nonpayable",
      "type": "constructor"
    },
    {
      "inputs": [
        {
          "internalType": "address",
          "name": "target",
          "type": "address"
        }
      ],
      "name": "AddressEmptyCode",
      "type": "error"
    },
    {
      "inputs": [
        {
          "internalType": "address",
          "name": "account",
          "type": "address"
        }
      ],
      "name": "AddressInsufficientBalance",
      "type": "error"
    },
    {
      "inputs": [],
      "name": "FailedInnerCall",
      "type": "error"
    },
    {
      "inputs": [
        {
          "internalType": "address",
          "name": "owner",
          "type": "address"
        }
      ],
      "name": "OwnableInvalidOwner",
      "type": "error"
    },
    {
      "inputs": [
        {
          "internalType": "address",
          "name": "account",
          "type": "address"
        }
      ],
      "name": "OwnableUnauthorizedAccount",
      "type": "error"
    },
    {
      "inputs": [
        {
          "internalType": "address",
          "name": "token",
          "type": "address"
        }
      ],
      "name": "SafeERC20FailedOperation",
      "type": "error"
    },
    {
      "anonymous": false,
      "inputs": [
        {
          "indexed": true,
          "internalType": "address",
          "name": "wrappedSong",
          "type": "address"
        },
        {
          "indexed": true,
          "internalType": "address",
          "name": "token",
          "type": "address"
        },
        {
          "indexed": false,
          "internalType": "uint256",
          "name": "amount",
          "type": "uint256"
        }
      ],
      "name": "CreationFeeCollected",
      "type": "event"
    },
    {
      "anonymous": false,
      "inputs": [
        {
          "indexed": true,
          "internalType": "address",
          "name": "distributor",
          "type": "address"
        },
        {
          "indexed": false,
          "internalType": "address",
          "name": "wallet",
          "type": "address"
        },
        {
          "indexed": false,
          "internalType": "address",
          "name": "stablecoin",
          "type": "address"
        }
      ],
      "name": "DistributorWalletCreated",
      "type": "event"
    },
    {
      "anonymous": false,
      "inputs": [
        {
          "indexed": true,
          "internalType": "address",
          "name": "token",
          "type": "address"
        },
        {
          "indexed": true,
          "internalType": "address",
          "name": "recipient",
          "type": "address"
        },
        {
          "indexed": false,
          "internalType": "uint256",
          "name": "amount",
          "type": "uint256"
        }
      ],
      "name": "FeesWithdrawn",
      "type": "event"
    },
    {
      "anonymous": false,
      "inputs": [
        {
          "indexed": true,
          "internalType": "address",
          "name": "previousOwner",
          "type": "address"
        },
        {
          "indexed": true,
          "internalType": "address",
          "name": "newOwner",
          "type": "address"
        }
      ],
      "name": "OwnershipTransferred",
      "type": "event"
    },
    {
      "anonymous": false,
      "inputs": [
        {
          "indexed": true,
          "internalType": "address",
          "name": "wrappedSong",
          "type": "address"
        },
        {
          "indexed": true,
          "internalType": "address",
          "name": "distributor",
          "type": "address"
        }
      ],
      "name": "WrappedSongReleased",
      "type": "event"
    },
    {
      "stateMutability": "payable",
      "type": "fallback"
    },
    {
      "inputs": [
        {
          "internalType": "address",
          "name": "",
          "type": "address"
        }
      ],
      "name": "accumulatedFees",
      "outputs": [
        {
          "internalType": "uint256",
          "name": "",
          "type": "uint256"
        }
      ],
      "stateMutability": "view",
      "type": "function"
    },
    {
      "inputs": [
        {
          "internalType": "address",
          "name": "wallet",
          "type": "address"
        }
      ],
      "name": "checkIsDistributorWallet",
      "outputs": [
        {
          "internalType": "bool",
          "name": "",
          "type": "bool"
        }
      ],
      "stateMutability": "view",
      "type": "function"
    },
    {
      "inputs": [
        {
          "internalType": "address",
          "name": "_stablecoin",
          "type": "address"
        },
        {
          "internalType": "address",
          "name": "_protocolModule",
          "type": "address"
        },
        {
          "internalType": "address",
          "name": "_owner",
          "type": "address"
        }
      ],
      "name": "createDistributorWallet",
      "outputs": [
        {
          "internalType": "address",
          "name": "",
          "type": "address"
        }
      ],
      "stateMutability": "payable",
      "type": "function"
    },
    {
      "inputs": [
        {
          "internalType": "address",
          "name": "",
          "type": "address"
        },
        {
          "internalType": "uint256",
          "name": "",
          "type": "uint256"
        }
      ],
      "name": "distributorWallets",
      "outputs": [
        {
          "internalType": "address",
          "name": "",
          "type": "address"
        }
      ],
      "stateMutability": "view",
      "type": "function"
    },
    {
      "inputs": [
        {
          "internalType": "address",
          "name": "ownerOfWallets",
          "type": "address"
        }
      ],
      "name": "getDistributorWallets",
      "outputs": [
        {
          "internalType": "address[]",
          "name": "",
          "type": "address[]"
        }
      ],
      "stateMutability": "view",
      "type": "function"
    },
    {
      "inputs": [
        {
          "internalType": "address",
          "name": "wrappedSong",
          "type": "address"
        }
      ],
      "name": "getWrappedSongDistributor",
      "outputs": [
        {
          "internalType": "address",
          "name": "",
          "type": "address"
        }
      ],
      "stateMutability": "view",
      "type": "function"
    },
    {
      "inputs": [
        {
          "internalType": "address",
          "name": "",
          "type": "address"
        }
      ],
      "name": "isDistributorWallet",
      "outputs": [
        {
          "internalType": "bool",
          "name": "",
          "type": "bool"
        }
      ],
      "stateMutability": "view",
      "type": "function"
    },
    {
      "inputs": [],
      "name": "owner",
      "outputs": [
        {
          "internalType": "address",
          "name": "",
          "type": "address"
        }
      ],
      "stateMutability": "view",
      "type": "function"
    },
    {
      "inputs": [],
      "name": "renounceOwnership",
      "outputs": [],
      "stateMutability": "nonpayable",
      "type": "function"
    },
    {
      "inputs": [
        {
          "internalType": "address",
          "name": "newOwner",
          "type": "address"
        }
      ],
      "name": "transferOwnership",
      "outputs": [],
      "stateMutability": "nonpayable",
      "type": "function"
    },
    {
      "inputs": [
        {
          "internalType": "address",
          "name": "token",
          "type": "address"
        },
        {
          "internalType": "address",
          "name": "recipient",
          "type": "address"
        },
        {
          "internalType": "address",
          "name": "_protocolModule",
          "type": "address"
        }
      ],
      "name": "withdrawAccumulatedFees",
      "outputs": [],
      "stateMutability": "nonpayable",
      "type": "function"
    },
    {
      "inputs": [
        {
          "internalType": "address",
          "name": "",
          "type": "address"
        }
      ],
      "name": "wrappedSongToDistributor",
      "outputs": [
        {
          "internalType": "address",
          "name": "",
          "type": "address"
        }
      ],
      "stateMutability": "view",
      "type": "function"
    },
    {
      "stateMutability": "payable",
      "type": "receive"
    }
  ],
  "bytecode": "0x6080346100bb57601f6137d538819003918201601f19168301916001600160401b038311848410176100c0578084926020946040528339810103126100bb57516001600160a01b0390818116908190036100bb5780156100a257600080546001600160a01b03198116831782556040519316907f8be0079c531659141344cd1fd0a4f28419497f9722a3daafe3b4186f6b6457e09080a36136fe90816100d78239f35b604051631e4fbdf760e01b815260006004820152602490fd5b600080fd5b634e487b7160e01b600052604160045260246000fdfe6080604081815260048036101562000020575b50505036156200001e57005b005b600092833560e01c9081632cd6c9a61462000c0d575080633aa690e71462000bce578063416679861462000b6e578063715018a61462000b105780638da5cb5b1462000ae6578063a6be34961462000847578063bb8f77241462000889578063d42fe2311462000847578063d677db971462000241578063f2fde38b14620001b4578063f4ae533814620000f55763fcf6666403620000125734620000f1576020366003190112620000f15760209282916001600160a01b03620000e362000c49565b168252845220549051908152f35b8280fd5b505034620001b05760209182600319360112620001ad576001600160a01b0390816200012062000c49565b16815260019182855283822094845191828288549182815201908198865283862090865b8181106200019757505050836200015d91038462000cef565b855195828701938388525180945286019693905b8382106200017f5786880387f35b84518116885296820196938201939085019062000171565b8254851684529285019291880191880162000144565b80fd5b5080fd5b5034620000f1576020366003190112620000f157620001d262000c49565b90620001dd62000cc2565b6001600160a01b039182169283156200022b57505082546001600160a01b0319811683178455167f8be0079c531659141344cd1fd0a4f28419497f9722a3daafe3b4186f6b6457e08380a380f35b51631e4fbdf760e01b8152908101849052602490fd5b50906060366003190112620000f1576200025a62000c49565b916200026562000c65565b906200027062000c7c565b946200027b62000cc2565b835163b5af090f60e01b81526001600160a01b03958616838201819052602097602497958616959194919289818a818a5afa9081156200075e57859162000825575b5015620007e3578651635c975abb60e01b8152898184818a5afa9081156200075e578591620007c1575b506200078a57865163670d296960e11b8152898184818a5afa9081156200075e5784918b91879162000768575b50848a5180948193636d4726d960e01b8352165afa9081156200075e57908491869162000719575b508851630e902faf60e01b815291168a828581845afa918215620005915784918c918894620006dd575b508a5163d579e3f360e01b815292839182905afa90811562000591578691620006a9575b50816200049b575b505086519061281a968783019783891067ffffffffffffffff8a111762000489576060928492879262000eaf8539898b528d8b01521697888a82015203019084f080156200047f578216968584526001895286842090815492680100000000000000008410156200046e575050927fce2886f90250a27ef084706fa347b2e815c3b41623bb3ceb84b43cd3d9889f449492620004378389966001889601815562000c93565b819291549060031b918b831b921b19161790558781526003895220600160ff1982541617905581519086825287820152a251908152f35b634e487b7160e01b86526041905284fd5b86513d85823e3d90fd5b634e487b7160e01b8752604185528a87fd5b156200059b5787516331785eef60e11b81528a8185818b5afa908115620005915786916200055d575b5088516323b872dd60e01b8c820152338b82015290851660448201526064808201839052815260a0810167ffffffffffffffff81118282101762000489578b88936200053689947fdd872ca9502e175165673833ac2a0e1395edb4b5c72f2915685598490c375e99948e528662000dcb565b8484528682528b84206200054c82825462000d63565b90558b51908152a35b388062000392565b6200058291508b3d8d1162000589575b62000579818362000cef565b81019062000d42565b38620004c4565b503d6200056d565b89513d88823e3d90fd5b8034106200066757848052828a52878520620005b934825462000d63565b9055803411620005f5575b5083807fdd872ca9502e175165673833ac2a0e1395edb4b5c72f2915685598490c375e998b8a51348152a362000555565b340334811162000655578480808093335af16200061162000d87565b50156200061f5738620005c4565b865162461bcd60e51b81528083018a90526011818a015270115512081c99599d5b990819985a5b1959607a1b6044820152606490fd5b634e487b7160e01b8552601183528885fd5b875162461bcd60e51b81528084018b90526018818b01527f496e636f7272656374204554482066656520616d6f756e7400000000000000006044820152606490fd5b620006ce91508b3d8d11620006d5575b620006c5818362000cef565b81019062000d28565b386200038a565b503d620006b9565b9250925081813d831162000711575b620006f8818362000cef565b810103126200070d578a849151923862000366565b8580fd5b503d620006ec565b8092508b8092503d831162000756575b62000735818362000cef565b81010312620007525751838116810362000752578390386200033c565b8480fd5b503d62000729565b88513d87823e3d90fd5b620007839150823d8411620005895762000579818362000cef565b3862000314565b865162461bcd60e51b81528083018a90526012818a015271141c9bdd1bd8dbdb081a5cc81c185d5cd95960721b6044820152606490fd5b620007dc91508a3d8c11620006d557620006c5818362000cef565b38620002e7565b865162461bcd60e51b81528083018a9052601d818a01527f537461626c65636f696e206973206e6f742077686974656c69737465640000006044820152606490fd5b6200084091508a3d8c11620006d557620006c5818362000cef565b38620002bd565b505034620001b0576020366003190112620001b05760209160ff9082906001600160a01b036200087662000c49565b1681526003855220541690519015158152f35b50829034620001b0576060366003190112620001b057620008a962000c49565b620008b362000c65565b90620008be62000c7c565b855191638da5cb5b60e01b83526020928381878160018060a01b038097165afa90811562000adc57908391889162000aba575b5016330362000a69578116928386528483528686205494851562000a305784875280845286888120558415600014620009a95786808080898787165af16200093862000d87565b50156200097057507f5e110f8bc8a20b65dcc87f224bdf1cc039346e267118bae2739847f07321ffa8939495965b519586521693a380f35b875162461bcd60e51b81529081018490526013602482015272115512081d1c985b9cd9995c8819985a5b1959606a1b6044820152606490fd5b96805163a9059cbb60e01b858201528383166024820152866044820152604481526080810181811067ffffffffffffffff82111762000a1d577f5e110f8bc8a20b65dcc87f224bdf1cc039346e267118bae2739847f07321ffa896979899509062000a179183528762000dcb565b62000966565b634e487b7160e01b895260418a52602489fd5b875162461bcd60e51b815290810184905260136024820152724e6f206665657320746f20776974686472617760681b6044820152606490fd5b865162461bcd60e51b8152808601849052602560248201527f4f6e6c792070726f746f636f6c206f776e65722063616e207769746864726177604482015264206665657360d81b6064820152608490fd5b62000ad59150853d8711620005895762000579818362000cef565b89620008f1565b88513d89823e3d90fd5b505034620001b05781600319360112620001b057905490516001600160a01b039091168152602090f35b8334620001ad5780600319360112620001ad5762000b2d62000cc2565b80546001600160a01b03198116825581906001600160a01b03167f8be0079c531659141344cd1fd0a4f28419497f9722a3daafe3b4186f6b6457e08280a380f35b505034620001b05780600319360112620001b05762000b8c62000c49565b6001600160a01b039081168352600160205281832080546024359490851015620001ad575060209362000bbf9162000c93565b92905490519260031b1c168152f35b505034620001b0576020366003190112620001b0576020916001600160a01b039082908262000bfc62000c49565b168152600285522054169051908152f35b84908434620000f1576020366003190112620000f1576020926001600160a01b0391908262000c3b62000c49565b168152600285522054168152f35b600435906001600160a01b038216820362000c6057565b600080fd5b602435906001600160a01b038216820362000c6057565b604435906001600160a01b038216820362000c6057565b805482101562000cac5760005260206000200190600090565b634e487b7160e01b600052603260045260246000fd5b6000546001600160a01b0316330362000cd757565b60405163118cdaa760e01b8152336004820152602490fd5b90601f8019910116810190811067ffffffffffffffff82111762000d1257604052565b634e487b7160e01b600052604160045260246000fd5b9081602091031262000c605751801515810362000c605790565b9081602091031262000c6057516001600160a01b038116810362000c605790565b9190820180921162000d7157565b634e487b7160e01b600052601160045260246000fd5b3d1562000dc6573d9067ffffffffffffffff821162000d12576040519162000dba601f8201601f19166020018462000cef565b82523d6000602084013e565b606090565b60008062000df89260018060a01b03169360208151910182865af162000df062000d87565b908362000e46565b805190811515918262000e28575b505062000e105750565b60249060405190635274afe760e01b82526004820152fd5b62000e3d925060208091830101910162000d28565b15388062000e06565b9062000e6f575080511562000e5d57805190602001fd5b604051630a12f52160e11b8152600490fd5b8151158062000ea4575b62000e82575090565b604051639996b31560e01b81526001600160a01b039091166004820152602490fd5b50803b1562000e7956fe60c034620001de57601f6200281a38819003918201601f191683019291906001600160401b03841183851017620001e3578160609284926040968752833981010312620001de57816200005282620001f9565b916200006160208201620001f9565b6001600160a01b0392909183916200007a9101620001f9565b16928315620001c657600080546001600160a01b031981168617825586519585939290918416907f8be0079c531659141344cd1fd0a4f28419497f9722a3daafe3b4186f6b6457e09080a3169283156200018f5750169081156200014b5760805260a0525161260b90816200020f823960805181818161038b0152818161057801528181610c280152818161142e015281816119230152611d71015260a05181818161018c015281816104330152818161091501528181610dda01528181611b2e01528181611ba00152611fc10152f35b825162461bcd60e51b815260206004820152601760248201527f496e76616c69642070726f746f636f6c206d6f64756c650000000000000000006044820152606490fd5b62461bcd60e51b815260206004820152601260248201527124b73b30b634b21039ba30b13632b1b7b4b760711b6044820152606490fd5b8451631e4fbdf760e01b815260006004820152602490fd5b600080fd5b634e487b7160e01b600052604160045260246000fd5b51906001600160a01b0382168203620001de5756fe608080604052600436101561001357600080fd5b600090813560e01c908163028a6b9e1461204d5750806304adbc2214611f655780630a279e1514611f355780631188029f14611ef157806316114acd14611d4157806316a91b2f14611cec57806349f3329b14611caa5780634b08ec5014611b5d5780635c42e66714611b185780636d3d6e6d14611aee578063715018a614611a945780637f41b4a81461170f5780638da5cb5b146116e8578063921f4533146113385780639d6ce7ca1461107a578063b0c70e2714610d9e578063b3104d8014610d65578063b8b0a09a14610ab8578063be94e319146108cb578063c0c71ce9146104ea578063d20098a2146104cc578063d65bd2fa146103d7578063e91e13a9146103ba578063e9cbd82214610375578063eacdc5ff14610357578063f2fde38b146102c75763f52603691461014a57600080fd5b346102c45760208060031936011261025c57816101656120c2565b9161016e61216e565b60405163670d296960e11b81526001600160a01b03919081816004817f000000000000000000000000000000000000000000000000000000000000000087165afa90811561029c578391839186916102a7575b506004604051809481936365bb98b560e01b8352165afa90811561029c578392859261026f575b50501692833b1561026b57829160248392604051948593849263f526036960e01b845216978860048401525af1801561026057610248575b50807f9b8b9fd151330b7d89319c88adc1ba5b0e63288a430bac1173b0af4570586b6391a280f35b610251906121bd565b61025c578138610220565b5080fd5b6040513d84823e3d90fd5b8280fd5b61028e9250803d10610295575b61028681836121e7565b810190612352565b38806101e8565b503d61027c565b6040513d86823e3d90fd5b6102be9150823d84116102955761028681836121e7565b386101c1565b80fd5b50346102c45760203660031901126102c4576102e16120c2565b6102e961216e565b6001600160a01b0390811690811561033e57600054826bffffffffffffffffffffffff60a01b821617600055167f8be0079c531659141344cd1fd0a4f28419497f9722a3daafe3b4186f6b6457e0600080a380f35b604051631e4fbdf760e01b815260048101849052602490fd5b50346102c457806003193601126102c4576020600154604051908152f35b50346102c457806003193601126102c4576040517f00000000000000000000000000000000000000000000000000000000000000006001600160a01b03168152602090f35b50346102c457806003193601126102c45760206040516103e88152f35b50346102c45760203660031901126102c457806103f26120c2565b6103fa61216e565b60018060a01b0380911690818352600560205261041e604084205460065411612569565b604051630222e55560e21b81526020816004817f000000000000000000000000000000000000000000000000000000000000000086165afa90811561029c5784916104ae575b501690813b156104aa578291602483926040519485938492634902fd7f60e11b845260048401525af180156102605761049a5750f35b6104a3906121bd565b6102c45780f35b5050fd5b6104c6915060203d81116102955761028681836121e7565b38610464565b50346102c457806003193601126102c4576020600654604051908152f35b50346102c45760403660031901126102c45760043567ffffffffffffffff811161025c5761051c90369060040161213d565b90602490813560016105318154831115612316565b8415610887578594865b8181106106195787878781156105e2575060405163a9059cbb60e01b81523360048201526024810191909152602081604481856001600160a01b037f0000000000000000000000000000000000000000000000000000000000000000165af18015610260576105b19183916105b4575b50612221565b80f35b6105d5915060203d81116105db575b6105cd81836121e7565b810190612209565b836105ab565b503d6105c3565b60649060106040519162461bcd60e51b8352602060048401528201526f4e6f7468696e6720746f20636c61696d60801b6044820152fd5b6106278183879a999a61252d565b6001600160a01b03989035898116908190036108835785895260206004815260408a20336000528152604060002082600052815260ff6040600020541661083257899a878b526002825260408b2090604051636fad7e9560e11b81528381600481885afa9182156107cf578d8a928194610810575b5080876040925260058752205492169201549160405192630c4db40d60e31b8452336004850152898d85015260448401528383606481845afa9283156107cf578d936107da575b5090836004939260405194858092633a98ef3960e01b82525afa9283156107cf578d93610787575b5092604061074b6107448c979561073f6000805160206125b68339815191529661073a6107829d9c9a8c612292565b61225f565b612272565b809661219a565b9d8681526004835220336000528152604060002083600052815260406000208960ff198254161790556040519384523393a461251e565b61053b565b84809e5081969450919796943d83116107c8575b6107a581836121e7565b810103126107c35792518c9b9495929491939192909190604061070b565b600080fd5b503d61079b565b6040513d8f823e3d90fd5b848092939e508194503d8311610809575b6107f581836121e7565b810103126107c35790518c9b9091836106e3565b503d6107eb565b604091945061082b90873d89116102955761028681836121e7565b939061069c565b60849060258a6040519262461bcd60e51b845260048401528201527f416c726561647920636c61696d656420666f722074686973207772617070656460448201526420736f6e6760d81b6064820152fd5b8880fd5b60405162461bcd60e51b8152602060048201526019818601527f456d707479207772617070656420736f6e6773206172726179000000000000006044820152606490fd5b50346102c45760403660031901126102c4576108e56120c2565b906024358015158091036107c3576108fb61216e565b604051635c975abb60e01b81526020936001600160a01b037f00000000000000000000000000000000000000000000000000000000000000008116929091908681600481875afa908115610a3c578691610a9b575b50610a645794600481838798169485885260058252610976604089205460065411612569565b60405163670d296960e11b815292839182905afa908115610a3c57839183918891610a47575b50600460405180948193633ead5d1160e01b8352165afa918215610a3c578692610a01575b50501691823b156109fc576044849283604051958694859363be94e31960e01b8552600485015260248401525af180156102605761049a5750f35b505050fd5b90809250813d8311610a35575b610a1881836121e7565b81010312610a3157518181168103610a315738806109c1565b8480fd5b503d610a0e565b6040513d88823e3d90fd5b610a5e9150823d84116102955761028681836121e7565b3861099c565b60405162461bcd60e51b815260048101879052600f60248201526e141c9bdd1bd8dbdb0814185d5cd959608a1b6044820152606490fd5b610ab29150873d89116105db576105cd81836121e7565b38610950565b50346102c45760403660031901126102c457610ad26120c2565b60243590818352602090600482526040842033600052825260406000209060018060a01b038091169182600052835260ff60406000205416610d2e57610b1c600154851115612316565b8385526002835260408086209051636fad7e9560e11b81528481600481875afa908115610d23578791610d06575b5083875260058552600183604089205492169201549060405191630c4db40d60e31b83523360048401526001602484015260448301528582606481865afa918215610ccb5786908993610cd6575b50604051633a98ef3960e01b81529293839060049082905afa918215610ccb578892610c9a575b50610bd19261073a61073f9289612292565b84865260048085526040808820336000818152918852828220878352885290829020805460ff19166001179055905163a9059cbb60e01b8152918201526024810182905290939091819083908189816044810103927f0000000000000000000000000000000000000000000000000000000000000000165af1918215610a3c576000805160206125b683398151915292610c71918891610c7d5750612221565b6040519384523393a480f35b610c949150833d85116105db576105cd81836121e7565b386105ab565b9091508581813d8311610cc4575b610cb281836121e7565b810103126107c3575190610bd1610bbf565b503d610ca8565b6040513d8a823e3d90fd5b809350813d8311610cff575b610cec81836121e7565b810103126107c357856004925192610b98565b503d610ce2565b610d1d9150853d87116102955761028681836121e7565b38610b4a565b6040513d89823e3d90fd5b60405162461bcd60e51b815260048101849052600f60248201526e105b1c9958591e4818db185a5b5959608a1b6044820152606490fd5b50346102c45760203660031901126102c4576020906040906001600160a01b03610d8d6120c2565b168152600583522054604051908152f35b50346102c45760208060031936011261025c57610db96120c2565b90610dc261216e565b604051635c975abb60e01b81526001600160a01b03907f00000000000000000000000000000000000000000000000000000000000000008216908381600481855afa908115610a3c57869161105d575b5061102f57826004916040519283809263670d296960e11b82525afa90811561100757829184918791611012575b506004604051809481936365bb98b560e01b8352165afa80156110075782918691610fea575b501681604051946363df2f1560e11b865216938460048201528381602481855afa908115610a3c578691610fcd575b508230911603610f88578085913b1561025c5781809160246040518094819363b0c70e2760e01b83528a60048401525af1801561026057610f70575b5050600654600160401b811015610f5c57806001610ef292016006556120d8565b819291549060031b9185831b921b1916179055600654906000198201918211610f48576005908385525260408320557fe1649799fd93d14e82ccab2710a96c6b05af2496c30f0c9401e159f568813efd8280a280f35b634e487b7160e01b84526011600452602484fd5b634e487b7160e01b85526041600452602485fd5b610f79906121bd565b610f84578338610ed1565b8380fd5b60405162461bcd60e51b815260048101849052601b60248201527f4e6f74207468652070656e64696e67206469737472696275746f7200000000006044820152606490fd5b610fe49150843d86116102955761028681836121e7565b38610e95565b6110019150843d86116102955761028681836121e7565b38610e66565b6040513d87823e3d90fd5b6110299150823d84116102955761028681836121e7565b38610e40565b60405162461bcd60e51b815260048101849052600660248201526514185d5cd95960d21b6044820152606490fd5b6110749150843d86116105db576105cd81836121e7565b38610e12565b50346102c45760603660031901126102c4576110946120c2565b9061109d6120ac565b9160443567ffffffffffffffff811161026b576110be90369060040161213d565b604051636fad7e9560e11b81529094909290916001600160a01b03906020856004818587165afa948515610a3c578695611317575b508183168652600560205260408620549160405194633a98ef3960e01b8652602086600481858b165afa958615610ccb5788966112e3575b5061113a89979995939561253d565b986111486040519a8b6121e7565b878a52601f196111578961253d565b013660208c013788936001988954955b8181106111ae578c8c8c60405191602083016020845284518091526020604085019501915b8181106111995784860385f35b8251865260209586019590920191830161118c565b8a6111bd829c9e9c848c61252d565b358d8d8a831180156112ae575b61129b575060408183859352600260205220015460405192630c4db40d60e31b84528989166004850152602484015260448301526020826064818b8a165afa91821561128e57918a8f928f93948f96959361124e575b506112469561073f6112409461073a889561123a95612292565b92612555565b5261251e565b9b999b611167565b9550925050506020833d602011611286575b8161126d602093836121e7565b810103126107c35791518b928d91908b90611246611220565b3d9150611260565b8e604051903d90823e3d90fd5b8493506112409192509361124694612555565b505080826040925260046020522088881660005260205260406000208886166000526020528d8d60ff604060002054166111ca565b9095506020813d60201161130f575b816112ff602093836121e7565b810103126107c35751943861112b565b3d91506112f2565b61133191955060203d6020116102955761028681836121e7565b93386110f3565b50346102c45760403660031901126102c4576113526120c2565b60243567ffffffffffffffff811161026b5761137290369060040161213d565b919082156116ae57604051636fad7e9560e11b8152916020836004816001600160a01b0385165afa92831561100757859361168d575b5060018060a01b03811685526005602052604085205490604051633a98ef3960e01b815260208160048160018060a01b0389165afa908115610d2357879161165b575b508695875b81811061147f57888880611402575080f35b60405163a9059cbb60e01b81523360048201526024810191909152602081604481856001600160a01b037f0000000000000000000000000000000000000000000000000000000000000000165af18015610260576105b19183916114665750612221565b6105d5915060203d6020116105db576105cd81836121e7565b61148a81838861252d565b359061149a600154831115612316565b818a52600460205260408a2033600052602052604060002060018060a01b03861660005260205260ff6040600020541661161e57818a526002602052600160408b2001549160405192630c4db40d60e31b845233600485015260016024850152604484015260208360648160018060a01b038d165afa80156116135785908c906115dd575b6115aa9450828d52600460205260408d2033600052602052604060002060018060a01b0389166000526020526040600020600160ff1982541617905580156115af5761157d9161073f6115769261073a8c87612292565b809b61219a565b6040519a8b529933906001600160a01b038816906000805160206125b683398151915290602090a461251e565b6113f0565b50506040518b815233906001600160a01b038816906000805160206125b683398151915290602090a461251e565b50506020833d60201161160b575b816115f8602093836121e7565b810103126107c357846115aa935161151f565b3d91506115eb565b6040513d8d823e3d90fd5b60405162461bcd60e51b8152602060048201526015602482015274115c1bd8da08185b1c9958591e4818db185a5b5959605a1b6044820152606490fd5b90506020813d602011611685575b81611676602093836121e7565b810103126107c35751386113eb565b3d9150611669565b6116a791935060203d6020116102955761028681836121e7565b91386113a8565b60405162461bcd60e51b8152602060048201526012602482015271456d7074792065706f63687320617272617960701b6044820152606490fd5b50346102c457806003193601126102c457546040516001600160a01b039091168152602090f35b50346102c45760c03660031901126102c45760248035906004359067ffffffffffffffff90604435828111611a905761174c90369060040161213d565b919092606435916084359182151583036107c35760a4359081151582036107c35761177561216e565b6103e88611611a5a576001938454858101809111611a47578903611a10576118f5575b878a526020966003885260408b208a8c52885260408b209187116118e257600160401b87116118e25781548783558088106118bb575b50908a52868a2090848b5b8881106118a95750505050611819575b505050907fab2993bd1558cf55c0837b08905edac8717b4326267b02c8268534311452619891604051908152a380f35b818701908188116118975750918580927fab2993bd1558cf55c0837b08905edac8717b4326267b02c82685343114526198969594828b5260028752600260408c2001555560405190815242848201527fb52be436c4d2a5bc18728d4f052344d91ed904f58693186df6726a84f7b3c9a860403092a3909138806117e9565b634e487b7160e01b8952601160045288fd5b898335930192818501550185906117d9565b85888a8e8681522092830192015b8281106118d75750506117ce565b8d81550186906118c9565b634e487b7160e01b8b526041600452838bfd5b84156119d5576040516323b872dd60e01b81523360048201523084820152604481018690526020816064818e7f00000000000000000000000000000000000000000000000000000000000000006001600160a01b03165af1801561161357611963918c916119bd5750612221565b60405160608101818110838211176119a85760405285815260028b602083014281526040808501928084528d8152846020522093518455518784015551910155611798565b84634e487b7160e01b60005260416004526000fd5b610c94915060203d81116105db576105cd81836121e7565b60405162461bcd60e51b81526020600482015260148185015273125b9d985b1a59081d1bdd185b08185b5bdd5b9d60621b6044820152606490fd5b60405162461bcd60e51b8152602060048201526010818601526f125b9d985b1a5908195c1bd8da081a5960821b6044820152606490fd5b634e487b7160e01b8c526011600452848cfd5b60405162461bcd60e51b815260206004820152600f818501526e4368756e6b20746f6f206c6172676560881b6044820152606490fd5b8580fd5b50346102c457806003193601126102c457611aad61216e565b600080546001600160a01b0319811682556001600160a01b03167f8be0079c531659141344cd1fd0a4f28419497f9722a3daafe3b4186f6b6457e08280a380f35b50346102c45760403660031901126102c4576020611b10602435600435612292565b604051908152f35b50346102c457806003193601126102c4576040517f00000000000000000000000000000000000000000000000000000000000000006001600160a01b03168152602090f35b50346102c45760208060031936011261025c5781611b796120c2565b91611b8261216e565b60405163670d296960e11b81526001600160a01b03919081816004817f000000000000000000000000000000000000000000000000000000000000000087165afa90811561029c57839183918691611c8d575b506004604051809481936365bb98b560e01b8352165afa90811561029c5783928592611c70575b50501692833b1561026b5782916024839260405194859384926304b08ec560e41b845216978860048401525af1801561026057611c5c575b50807f96e9f71e351da2f355723015d74e0a4b6a13763fa188e610b27da4c5aca898c991a280f35b611c65906121bd565b61025c578138611c34565b611c869250803d106102955761028681836121e7565b3880611bfc565b611ca49150823d84116102955761028681836121e7565b38611bd5565b50346102c45760203660031901126102c45760406060916004358152600260205220805490600260018201549101549060405192835260208301526040820152f35b50346102c45760603660031901126102c4576044359060043581526003602052604081206024358252602052604081209081548310156102c4576020611d328484612125565b90549060031b1c604051908152f35b50346102c45760208060031936011261025c57611d5c6120c2565b611d6461216e565b6001600160a01b039081167f000000000000000000000000000000000000000000000000000000000000000082168114611eac576040516370a0823160e01b8152306004820152918383602481855afa928315611007578593611e7d575b508215611e4057845460405163a9059cbb60e01b815291166001600160a01b031660048201526024810192909252829082908186816044810103925af1908115611e35576105b1928492611e18575b5050612221565b611e2e9250803d106105db576105cd81836121e7565b3880611e11565b6040513d85823e3d90fd5b60405162461bcd60e51b81526004810185905260156024820152742737903130b630b731b2903a37903932b1b7bb32b960591b6044820152606490fd5b9092508381813d8311611ea5575b611e9581836121e7565b810103126107c357519138611dc2565b503d611e8b565b60405162461bcd60e51b815260048101849052601960248201527f43616e6e6f74207265636f76657220737461626c65636f696e000000000000006044820152606490fd5b50346102c45760203660031901126102c457600435906006548210156102c4576020611f1c836120d8565b905460405160039290921b1c6001600160a01b03168152f35b50346102c45760603660031901126102c4576020611b10611f546120c2565b611f5c6120ac565b60443591612371565b50346102c45760203660031901126102c45780611f806120c2565b611f8861216e565b60018060a01b03809116908183526005602052611fac604084205460065411612569565b604051630222e55560e21b81526020816004817f000000000000000000000000000000000000000000000000000000000000000086165afa90811561029c57849161202f575b5016803b156104aa5760248392604051948593849263187de53b60e01b845260048401525af1801561026057612026575080f35b6105b1906121bd565b612047915060203d81116102955761028681836121e7565b38611ff2565b90503461025c57606036600319011261025c576120686120ac565b6044356001600160a01b038181169291839003610a31579360ff92604092602096600435845260048852848420911683528652828220908252855220541615158152f35b602435906001600160a01b03821682036107c357565b600435906001600160a01b03821682036107c357565b60065481101561210f5760066000527ff652222313e28459528d920b65115c16c04f3efc82aaedc97be59f3f377c0d3f0190600090565b634e487b7160e01b600052603260045260246000fd5b805482101561210f5760005260206000200190600090565b9181601f840112156107c35782359167ffffffffffffffff83116107c3576020808501948460051b0101116107c357565b6000546001600160a01b0316330361218257565b60405163118cdaa760e01b8152336004820152602490fd5b919082018092116121a757565b634e487b7160e01b600052601160045260246000fd5b67ffffffffffffffff81116121d157604052565b634e487b7160e01b600052604160045260246000fd5b90601f8019910116810190811067ffffffffffffffff8211176121d157604052565b908160209103126107c3575180151581036107c35790565b1561222857565b60405162461bcd60e51b815260206004820152600f60248201526e151c985b9cd9995c8819985a5b1959608a1b6044820152606490fd5b818102929181159184041417156121a757565b811561227c570490565b634e487b7160e01b600052601260045260246000fd5b906103e89182820492600092828452600260205260026040852001548510156122de576122d49460409385526003602052838520908552602052069120612125565b90549060031b1c90565b60405162461bcd60e51b815260206004820152601060248201526f092dcecc2d8d2c840aea640d2dcc8caf60831b6044820152606490fd5b1561231d57565b60405162461bcd60e51b815260206004820152600d60248201526c092dcecc2d8d2c840cae0dec6d609b1b6044820152606490fd5b908160209103126107c357516001600160a01b03811681036107c35790565b600092808452602093600485526040948582209460018060a01b0380911695868452825280878420951694858452825260ff87842054168015612513575b612509578651636fad7e9560e11b8152948286600481845afa9586156124ff5784966124e0575b508352600582528683205494168383526002825260018784200154875196630c4db40d60e31b885260048801526001602488015260448701528186606481845afa9586156124d65783966124a7575b50908060049392885194858092633a98ef3960e01b82525afa96871561249c57508196612465575b5050509161073a61073f926124629594612292565b90565b909180939650813d8311612495575b61247e81836121e7565b810103126102c45750519261073a8261246261244d565b503d612474565b51913d9150823e3d90fd5b9095508181813d83116124cf575b6124bf81836121e7565b8101031261026b57519481612425565b503d6124b5565b87513d85823e3d90fd5b6124f8919650833d85116102955761028681836121e7565b94386123d6565b88513d86823e3d90fd5b5050935050505090565b5060015484116123af565b60001981146121a75760010190565b919081101561210f5760051b0190565b67ffffffffffffffff81116121d15760051b60200190565b805182101561210f5760209160051b010190565b1561257057565b60405162461bcd60e51b815260206004820152601a60248201527f4e6f742061206d616e61676564207772617070656420736f6e670000000000006044820152606490fdfe07863fd81b035ca44d1af7b7b984f297c3cf2ef391a2f2e978a98670f200a4eba2646970667358221220230f39e26ae2cbaf0460d0db807c939e64cf4d6fed25c326150d085905223a4064736f6c63430008140033a264697066735822122087555564afa46923ad0b7835e29baff926a06f08d2ef4f5204cd6a9381bff05864736f6c63430008140033",
  "linkReferences": {},
  "deployedLinkReferences": {}
}