{
  "_format": "hh-sol-artifact-1",
  "contractName": "DistributorWalletFactory",
  "sourceName": "contracts/protocol/NonUpgradable/DistributorWalletFactory.sol",
  "abi": [
    {
      "inputs": [
        {
          "internalType": "address",
          "name": "initialOwner",
          "type": "address"
        }
      ],
      "stateMutability": "nonpayable",
      "type": "constructor"
    },
    {
      "inputs": [
        {
          "internalType": "address",
          "name": "owner",
          "type": "address"
        }
      ],
      "name": "OwnableInvalidOwner",
      "type": "error"
    },
    {
      "inputs": [
        {
          "internalType": "address",
          "name": "account",
          "type": "address"
        }
      ],
      "name": "OwnableUnauthorizedAccount",
      "type": "error"
    },
    {
      "anonymous": false,
      "inputs": [
        {
          "indexed": true,
          "internalType": "address",
          "name": "distributor",
          "type": "address"
        },
        {
          "indexed": false,
          "internalType": "address",
          "name": "wallet",
          "type": "address"
        },
        {
          "indexed": false,
          "internalType": "address",
          "name": "stablecoin",
          "type": "address"
        }
      ],
      "name": "DistributorWalletCreated",
      "type": "event"
    },
    {
      "anonymous": false,
      "inputs": [
        {
          "indexed": true,
          "internalType": "address",
          "name": "previousOwner",
          "type": "address"
        },
        {
          "indexed": true,
          "internalType": "address",
          "name": "newOwner",
          "type": "address"
        }
      ],
      "name": "OwnershipTransferred",
      "type": "event"
    },
    {
      "anonymous": false,
      "inputs": [
        {
          "indexed": true,
          "internalType": "address",
          "name": "wrappedSong",
          "type": "address"
        },
        {
          "indexed": true,
          "internalType": "address",
          "name": "distributor",
          "type": "address"
        }
      ],
      "name": "WrappedSongReleased",
      "type": "event"
    },
    {
      "inputs": [
        {
          "internalType": "address",
          "name": "wallet",
          "type": "address"
        }
      ],
      "name": "checkIsDistributorWallet",
      "outputs": [
        {
          "internalType": "bool",
          "name": "",
          "type": "bool"
        }
      ],
      "stateMutability": "view",
      "type": "function"
    },
    {
      "inputs": [
        {
          "internalType": "address",
          "name": "_stablecoin",
          "type": "address"
        },
        {
          "internalType": "address",
          "name": "_protocolModule",
          "type": "address"
        },
        {
          "internalType": "address",
          "name": "_owner",
          "type": "address"
        }
      ],
      "name": "createDistributorWallet",
      "outputs": [
        {
          "internalType": "address",
          "name": "",
          "type": "address"
        }
      ],
      "stateMutability": "nonpayable",
      "type": "function"
    },
    {
      "inputs": [
        {
          "internalType": "address",
          "name": "",
          "type": "address"
        },
        {
          "internalType": "uint256",
          "name": "",
          "type": "uint256"
        }
      ],
      "name": "distributorWallets",
      "outputs": [
        {
          "internalType": "address",
          "name": "",
          "type": "address"
        }
      ],
      "stateMutability": "view",
      "type": "function"
    },
    {
      "inputs": [
        {
          "internalType": "address",
          "name": "ownerOfWallets",
          "type": "address"
        }
      ],
      "name": "getDistributorWallets",
      "outputs": [
        {
          "internalType": "address[]",
          "name": "",
          "type": "address[]"
        }
      ],
      "stateMutability": "view",
      "type": "function"
    },
    {
      "inputs": [
        {
          "internalType": "address",
          "name": "wrappedSong",
          "type": "address"
        }
      ],
      "name": "getWrappedSongDistributor",
      "outputs": [
        {
          "internalType": "address",
          "name": "",
          "type": "address"
        }
      ],
      "stateMutability": "view",
      "type": "function"
    },
    {
      "inputs": [
        {
          "internalType": "address",
          "name": "",
          "type": "address"
        }
      ],
      "name": "isDistributorWallet",
      "outputs": [
        {
          "internalType": "bool",
          "name": "",
          "type": "bool"
        }
      ],
      "stateMutability": "view",
      "type": "function"
    },
    {
      "inputs": [],
      "name": "owner",
      "outputs": [
        {
          "internalType": "address",
          "name": "",
          "type": "address"
        }
      ],
      "stateMutability": "view",
      "type": "function"
    },
    {
      "inputs": [],
      "name": "renounceOwnership",
      "outputs": [],
      "stateMutability": "nonpayable",
      "type": "function"
    },
    {
      "inputs": [
        {
          "internalType": "address",
          "name": "newOwner",
          "type": "address"
        }
      ],
      "name": "transferOwnership",
      "outputs": [],
      "stateMutability": "nonpayable",
      "type": "function"
    },
    {
      "inputs": [
        {
          "internalType": "address",
          "name": "",
          "type": "address"
        }
      ],
      "name": "wrappedSongToDistributor",
      "outputs": [
        {
          "internalType": "address",
          "name": "",
          "type": "address"
        }
      ],
      "stateMutability": "view",
      "type": "function"
    }
  ],
  "bytecode": "0x6080346100bb57601f612c5638819003918201601f19168301916001600160401b038311848410176100c0578084926020946040528339810103126100bb57516001600160a01b0390818116908190036100bb5780156100a257600080546001600160a01b03198116831782556040519316907f8be0079c531659141344cd1fd0a4f28419497f9722a3daafe3b4186f6b6457e09080a3612b7f90816100d78239f35b604051631e4fbdf760e01b815260006004820152602490fd5b600080fd5b634e487b7160e01b600052604160045260246000fdfe608060408181526004918236101561001657600080fd5b600092833560e01c9182632cd6c9a614610594575081633aa690e7146105595781634166798614610500578163715018a6146104a65781638da5cb5b1461047e578163a6be349614610440578163d42fe23114610440578163d677db97146101d1578163f2fde38b14610146575063f4ae53381461009357600080fd5b34610142576020918260031936011261013f576001600160a01b0390816100b86105cc565b16815260019182855283822094845191828288549182815201908198865283862090865b81811061012a57505050836100f2910384610641565b855195828701938388525180945286019693905b8382106101135786880387f35b845181168852968201969382019390850190610106565b825485168452928501929188019188016100dc565b80fd5b5080fd5b9050346101cd5760203660031901126101cd576101616105cc565b9061016a610615565b6001600160a01b039182169283156101b757505082546001600160a01b0319811683178455167f8be0079c531659141344cd1fd0a4f28419497f9722a3daafe3b4186f6b6457e08380a380f35b51631e4fbdf760e01b8152908101849052602490fd5b8280fd5b838334610142576060366003190112610142576101ec6105cc565b9260249283356001600160a01b03818116929183900361014257604435938185168095036101cd5761021c610615565b8186519863b5af090f60e01b8a52169384828a015260209889818a81855afa9081156103d7578591610423575b50156103e1578651635c975abb60e01b815289818481855afa9081156103d75785916103aa575b50610373578651906124b8908183019183831067ffffffffffffffff8411176103615791839160609361069284398882528c820152888a82015203019084f0801561035757821696858452600189528684209081549268010000000000000000841015610346575050927fce2886f90250a27ef084706fa347b2e815c3b41623bb3ceb84b43cd3d9889f44949261030f838996600188960181556105e7565b819291549060031b918b831b921b19161790558781526003895220600160ff1982541617905581519086825287820152a251908152f35b634e487b7160e01b86526041905284fd5b86513d85823e3d90fd5b634e487b7160e01b8752604185528a87fd5b865162461bcd60e51b81528083018a90526012818a015271141c9bdd1bd8dbdb081a5cc81c185d5cd95960721b6044820152606490fd5b6103ca91508a3d8c116103d0575b6103c28183610641565b810190610679565b8a610270565b503d6103b8565b88513d87823e3d90fd5b865162461bcd60e51b81528083018a9052601d818a01527f537461626c65636f696e206973206e6f742077686974656c69737465640000006044820152606490fd5b61043a91508a3d8c116103d0576103c28183610641565b8a610249565b5050346101425760203660031901126101425760209160ff9082906001600160a01b0361046b6105cc565b1681526003855220541690519015158152f35b505034610142578160031936011261014257905490516001600160a01b039091168152602090f35b833461013f578060031936011261013f576104bf610615565b80546001600160a01b03198116825581906001600160a01b03167f8be0079c531659141344cd1fd0a4f28419497f9722a3daafe3b4186f6b6457e08280a380f35b50503461014257806003193601126101425761051a6105cc565b6001600160a01b03908116835260016020528183208054602435949085101561013f575060209361054a916105e7565b92905490519260031b1c168152f35b505034610142576020366003190112610142576020916001600160a01b03908290826105836105cc565b168152600285522054169051908152f35b849084346101cd5760203660031901126101cd576020926001600160a01b039190826105be6105cc565b168152600285522054168152f35b600435906001600160a01b03821682036105e257565b600080fd5b80548210156105ff5760005260206000200190600090565b634e487b7160e01b600052603260045260246000fd5b6000546001600160a01b0316330361062957565b60405163118cdaa760e01b8152336004820152602490fd5b90601f8019910116810190811067ffffffffffffffff82111761066357604052565b634e487b7160e01b600052604160045260246000fd5b908160209103126105e2575180151581036105e2579056fe60c034620001de57601f620024b838819003918201601f191683019291906001600160401b03841183851017620001e3578160609284926040968752833981010312620001de57816200005282620001f9565b916200006160208201620001f9565b6001600160a01b0392909183916200007a9101620001f9565b16928315620001c657600080546001600160a01b031981168617825586519585939290918416907f8be0079c531659141344cd1fd0a4f28419497f9722a3daafe3b4186f6b6457e09080a3169283156200018f5750169081156200014b5760805260a052516122a990816200020f82396080518181816102e4015281816104f501528181610a4f0152818161114a0152818161162a01526119ec015260a0518181816101750152818161038c0152818161088201528181610c2901528181611835015281816118900152611c3c0152f35b825162461bcd60e51b815260206004820152601760248201527f496e76616c69642070726f746f636f6c206d6f64756c650000000000000000006044820152606490fd5b62461bcd60e51b815260206004820152601260248201527124b73b30b634b21039ba30b13632b1b7b4b760711b6044820152606490fd5b8451631e4fbdf760e01b815260006004820152602490fd5b600080fd5b634e487b7160e01b600052604160045260246000fd5b51906001600160a01b0382168203620001de5756fe608080604052600436101561001357600080fd5b600090813560e01c908163028a6b9e14611cc85750806304adbc2214611be05780630a279e1514611bb05780631188029f14611b6c57806316114acd146119bc57806316a91b2f1461196757806349f3329b146119255780634b08ec50146118645780635c42e6671461181f5780636d3d6e6d146117f5578063715018a61461179b5780637f41b4a8146114165780638da5cb5b146113ef578063921f4533146110745780639d6ce7ca14610db6578063b0c70e2714610be2578063b3104d8014610ba9578063b8b0a09a146108df578063be94e3191461082b578063c0c71ce91461045e578063d20098a214610440578063d65bd2fa14610330578063e91e13a914610313578063e9cbd822146102ce578063eacdc5ff146102b0578063f2fde38b146102205763f52603691461014a57600080fd5b3461021d57602036600319011261021d57610163611d41565b61016b611ded565b6001600160a01b037f0000000000000000000000000000000000000000000000000000000000000000811691839190833b1561021957829160248392604051948593849263f526036960e01b845216978860048401525af1801561020e576101f6575b50807f9b8b9fd151330b7d89319c88adc1ba5b0e63288a430bac1173b0af4570586b6391a280f35b6101ff90611e3c565b61020a5781386101ce565b5080fd5b6040513d84823e3d90fd5b8280fd5b80fd5b503461021d57602036600319011261021d5761023a611d41565b610242611ded565b6001600160a01b0390811690811561029757600054826bffffffffffffffffffffffff60a01b821617600055167f8be0079c531659141344cd1fd0a4f28419497f9722a3daafe3b4186f6b6457e0600080a380f35b604051631e4fbdf760e01b815260048101849052602490fd5b503461021d578060031936011261021d576020600154604051908152f35b503461021d578060031936011261021d576040517f00000000000000000000000000000000000000000000000000000000000000006001600160a01b03168152602090f35b503461021d578060031936011261021d5760206040516103e88152f35b503461021d57602036600319011261021d578061034b611d41565b610353611ded565b60018060a01b03809116908183526005602052610377604084205460065411612227565b604051630222e55560e21b81526020816004817f000000000000000000000000000000000000000000000000000000000000000086165afa908115610435578491610407575b501690813b15610403578291602483926040519485938492634902fd7f60e11b845260048401525af1801561020e576103f35750f35b6103fc90611e3c565b61021d5780f35b5050fd5b610428915060203d811161042e575b6104208183611e66565b810190611fd1565b386103bd565b503d610416565b6040513d86823e3d90fd5b503461021d578060031936011261021d576020600654604051908152f35b503461021d57604036600319011261021d5760043567ffffffffffffffff811161020a57610490903690600401611dbc565b9060248035906001906104a68254841115611f95565b84156107e7578594855b81811061056757866104f060208a6104c98115156121bc565b60405163a9059cbb60e01b8152336004820152602481019190915291829081906044820190565b0381857f00000000000000000000000000000000000000000000000000000000000000006001600160a01b03165af1801561020e57610536918391610539575b50611ea0565b80f35b61055a915060203d8111610560575b6105528183611e66565b810190611e88565b83610530565b503d610548565b6105728183886121ac565b6001600160a01b03989035898116908190036107e35786895260206004815260408a20336000528152604060002082600052815260ff6040600020541661079257899a888b526002825260408b2090604051636fad7e9560e11b81528381600481885afa91821561072f578d8b928194610770575b5080876040925260058752205492169201549160405192630c4db40d60e31b84523360048501528a8a85015260448401528383606481845afa92831561072f578d9361073a575b5090836004939260405194858092633a98ef3960e01b82525afa92831561072f578d936106e7575b509260406106a86106a18d979561069c7f07863fd81b035ca44d1af7b7b984f297c3cf2ef391a2f2e978a98670f200a4eb966106976106df9d9c9a8c611f11565b611ede565b611ef1565b8096611e19565b9d8681526004835220336000528152604060002083600052815260406000208a60ff198254161790556040519384523393a461219d565b9695966104b0565b84809e5081969450919796943d8311610728575b6107058183611e66565b810103126107235792518c9b94959294919391929091906040610656565b600080fd5b503d6106fb565b6040513d8f823e3d90fd5b848092939e508194503d8311610769575b6107558183611e66565b810103126107235790518c9b90918361062e565b503d61074b565b604091945061078b90873d891161042e576104208183611e66565b93906105e7565b6084906025876040519262461bcd60e51b845260048401528201527f416c726561647920636c61696d656420666f722074686973207772617070656460448201526420736f6e6760d81b6064820152fd5b8880fd5b60649060196040519162461bcd60e51b8352602060048401528201527f456d707479207772617070656420736f6e6773206172726179000000000000006044820152fd5b503461021d57604036600319011261021d57610845611d41565b60243580151580910361072357829161085c611ded565b60018060a01b03809116908184526005602052610880604085205460065411612227565b7f00000000000000000000000000000000000000000000000000000000000000001691823b156108da576044849283604051958694859363be94e31960e01b8552600485015260248401525af1801561020e576103f35750f35b505050fd5b503461021d57604036600319011261021d576108f9611d41565b60243590818352602090600482526040842033600052825260406000209060018060a01b038091169182600052835260ff60406000205416610b7257610943600154851115611f95565b8385526002835260408086209051636fad7e9560e11b81528481600481875afa908115610b67578791610b4a575b5083875260058552600183604089205492169201549060405191630c4db40d60e31b83523360048401526001602484015260448301528582606481865afa918215610b0f5786908993610b1a575b50604051633a98ef3960e01b81529293839060049082905afa918215610b0f578892610ade575b506109f89261069761069c9289611f11565b84865260048085526040808820336000818152918852828220878352885290829020805460ff19166001179055905163a9059cbb60e01b8152918201526024810182905290939091819083908189816044810103927f0000000000000000000000000000000000000000000000000000000000000000165af1918215610ad3577f07863fd81b035ca44d1af7b7b984f297c3cf2ef391a2f2e978a98670f200a4eb92610aaa918891610ab65750611ea0565b6040519384523393a480f35b610acd9150833d8511610560576105528183611e66565b38610530565b6040513d88823e3d90fd5b9091508581813d8311610b08575b610af68183611e66565b810103126107235751906109f86109e6565b503d610aec565b6040513d8a823e3d90fd5b809350813d8311610b43575b610b308183611e66565b81010312610723578560049251926109bf565b503d610b26565b610b619150853d871161042e576104208183611e66565b38610971565b6040513d89823e3d90fd5b60405162461bcd60e51b815260048101849052600f60248201526e105b1c9958591e4818db185a5b5959608a1b6044820152606490fd5b503461021d57602036600319011261021d576020906040906001600160a01b03610bd1611d41565b168152600583522054604051908152f35b503461021d5760208060031936011261020a57610bfd611d41565b90610c06611ded565b6040516363df2f1560e11b81526001600160a01b039283166004820181905292907f00000000000000000000000000000000000000000000000000000000000000008216908381602481855afa908115610ad3578691610d99575b508230911603610d54578085913b1561020a5781809160246040518094819363b0c70e2760e01b83528a60048401525af1801561020e57610d3c575b5050600654600160401b811015610d2857806001610cbe9201600655611d57565b819291549060031b9185831b921b1916179055600654906000198201918211610d14576005908385525260408320557fe1649799fd93d14e82ccab2710a96c6b05af2496c30f0c9401e159f568813efd8280a280f35b634e487b7160e01b84526011600452602484fd5b634e487b7160e01b85526041600452602485fd5b610d4590611e3c565b610d50578338610c9d565b8380fd5b60405162461bcd60e51b815260048101849052601b60248201527f4e6f74207468652070656e64696e67206469737472696275746f7200000000006044820152606490fd5b610db09150843d861161042e576104208183611e66565b38610c61565b503461021d57606036600319011261021d57610dd0611d41565b90610dd9611d2b565b9160443567ffffffffffffffff811161021957610dfa903690600401611dbc565b604051636fad7e9560e11b81529094909290916001600160a01b03906020856004818587165afa948515610ad3578695611053575b508183168652600560205260408620549160405194633a98ef3960e01b8652602086600481858b165afa958615610b0f57889661101f575b50610e768997999593956121fb565b98610e846040519a8b611e66565b878a52601f19610e93896121fb565b013660208c013788936001988954955b818110610eea578c8c8c60405191602083016020845284518091526020604085019501915b818110610ed55784860385f35b82518652602095860195909201918301610ec8565b8a610ef9829c9e9c848c6121ac565b358d8d8a83118015610fea575b610fd7575060408183859352600260205220015460405192630c4db40d60e31b84528989166004850152602484015260448301526020826064818b8a165afa918215610fca57918a8f928f93948f969593610f8a575b50610f829561069c610f7c946106978895610f7695611f11565b92612213565b5261219d565b9b999b610ea3565b9550925050506020833d602011610fc2575b81610fa960209383611e66565b810103126107235791518b928d91908b90610f82610f5c565b3d9150610f9c565b8e604051903d90823e3d90fd5b849350610f7c91925093610f8294612213565b505080826040925260046020522088881660005260205260406000208886166000526020528d8d60ff60406000205416610f06565b9095506020813d60201161104b575b8161103b60209383611e66565b8101031261072357519438610e67565b3d915061102e565b61106d91955060203d60201161042e576104208183611e66565b9338610e2f565b503461021d57604036600319011261021d5761108e611d41565b60243567ffffffffffffffff8111610219576110ae903690600401611dbc565b9182156113b557604051636fad7e9560e11b8152906020826004816001600160a01b0385165afa9182156113aa578592611389575b5060018060a01b0381168552600560205260408520549160405190633a98ef3960e01b825260208260048160018060a01b0385165afa918215610b67578792611355575b508695875b8181106111a3578861114560208a6104c98115156121bc565b0381857f00000000000000000000000000000000000000000000000000000000000000006001600160a01b03165af1801561020e5761053691839161118a5750611ea0565b61055a915060203d602011610560576105528183611e66565b6111ae8183896121ac565b35906111be600154831115611f95565b818a52600460205260408a2033600052602052604060002060018060a01b03871660005260205260ff6040600020541661131857818a526002602052600160408b2001549160405192630c4db40d60e31b845233600485015260016024850152604484015260208360648160018060a01b0389165afa801561130d5786938c916112d4575b5061125c6112cf9461069c611263936106978d87611f11565b809b611e19565b818c52600460209081526040808e203360008181529184528282206001600160a01b038d1680845290855291839020805460ff1916600117905591519d8e52929c9092917f07863fd81b035ca44d1af7b7b984f297c3cf2ef391a2f2e978a98670f200a4eb91a461219d565b61112c565b9350506020833d602011611305575b816112f060209383611e66565b8101031261072357915185929061125c611243565b3d91506112e3565b6040513d8d823e3d90fd5b60405162461bcd60e51b8152602060048201526015602482015274115c1bd8da08185b1c9958591e4818db185a5b5959605a1b6044820152606490fd5b9091506020813d602011611381575b8161137160209383611e66565b8101031261072357519038611127565b3d9150611364565b6113a391925060203d60201161042e576104208183611e66565b90386110e3565b6040513d87823e3d90fd5b60405162461bcd60e51b8152602060048201526012602482015271456d7074792065706f63687320617272617960701b6044820152606490fd5b503461021d578060031936011261021d57546040516001600160a01b039091168152602090f35b503461021d5760c036600319011261021d5760248035906004359067ffffffffffffffff9060443582811161179757611453903690600401611dbc565b919092606435916084359182151583036107235760a4359081151582036107235761147c611ded565b6103e8861161176157600193845485810180911161174e578903611717576115fc575b878a526020966003885260408b208a8c52885260408b209187116115e957600160401b87116115e95781548783558088106115c2575b50908a52868a2090848b5b8881106115b05750505050611520575b505050907fab2993bd1558cf55c0837b08905edac8717b4326267b02c8268534311452619891604051908152a380f35b8187019081881161159e5750918580927fab2993bd1558cf55c0837b08905edac8717b4326267b02c82685343114526198969594828b5260028752600260408c2001555560405190815242848201527fb52be436c4d2a5bc18728d4f052344d91ed904f58693186df6726a84f7b3c9a860403092a3909138806114f0565b634e487b7160e01b8952601160045288fd5b898335930192818501550185906114e0565b85888a8e8681522092830192015b8281106115de5750506114d5565b8d81550186906115d0565b634e487b7160e01b8b526041600452838bfd5b84156116dc576040516323b872dd60e01b81523360048201523084820152604481018690526020816064818e7f00000000000000000000000000000000000000000000000000000000000000006001600160a01b03165af1801561130d5761166a918c916116c45750611ea0565b60405160608101818110838211176116af5760405285815260028b602083014281526040808501928084528d815284602052209351845551878401555191015561149f565b84634e487b7160e01b60005260416004526000fd5b610acd915060203d8111610560576105528183611e66565b60405162461bcd60e51b81526020600482015260148185015273125b9d985b1a59081d1bdd185b08185b5bdd5b9d60621b6044820152606490fd5b60405162461bcd60e51b8152602060048201526010818601526f125b9d985b1a5908195c1bd8da081a5960821b6044820152606490fd5b634e487b7160e01b8c526011600452848cfd5b60405162461bcd60e51b815260206004820152600f818501526e4368756e6b20746f6f206c6172676560881b6044820152606490fd5b8580fd5b503461021d578060031936011261021d576117b4611ded565b600080546001600160a01b0319811682556001600160a01b03167f8be0079c531659141344cd1fd0a4f28419497f9722a3daafe3b4186f6b6457e08280a380f35b503461021d57604036600319011261021d576020611817602435600435611f11565b604051908152f35b503461021d578060031936011261021d576040517f00000000000000000000000000000000000000000000000000000000000000006001600160a01b03168152602090f35b503461021d57602036600319011261021d5761187e611d41565b611886611ded565b6001600160a01b037f0000000000000000000000000000000000000000000000000000000000000000811691839190833b156102195782916024839260405194859384926304b08ec560e41b845216978860048401525af1801561020e57611911575b50807f96e9f71e351da2f355723015d74e0a4b6a13763fa188e610b27da4c5aca898c991a280f35b61191a90611e3c565b61020a5781386118e9565b503461021d57602036600319011261021d5760406060916004358152600260205220805490600260018201549101549060405192835260208301526040820152f35b503461021d57606036600319011261021d5760443590600435815260036020526040812060243582526020526040812090815483101561021d5760206119ad8484611da4565b90549060031b1c604051908152f35b503461021d5760208060031936011261020a576119d7611d41565b6119df611ded565b6001600160a01b039081167f000000000000000000000000000000000000000000000000000000000000000082168114611b27576040516370a0823160e01b8152306004820152918383602481855afa9283156113aa578593611af8575b508215611abb57845460405163a9059cbb60e01b815291166001600160a01b031660048201526024810192909252829082908186816044810103925af1908115611ab057610536928492611a93575b5050611ea0565b611aa99250803d10610560576105528183611e66565b3880611a8c565b6040513d85823e3d90fd5b60405162461bcd60e51b81526004810185905260156024820152742737903130b630b731b2903a37903932b1b7bb32b960591b6044820152606490fd5b9092508381813d8311611b20575b611b108183611e66565b8101031261072357519138611a3d565b503d611b06565b60405162461bcd60e51b815260048101849052601960248201527f43616e6e6f74207265636f76657220737461626c65636f696e000000000000006044820152606490fd5b503461021d57602036600319011261021d576004359060065482101561021d576020611b9783611d57565b905460405160039290921b1c6001600160a01b03168152f35b503461021d57606036600319011261021d576020611817611bcf611d41565b611bd7611d2b565b60443591611ff0565b503461021d57602036600319011261021d5780611bfb611d41565b611c03611ded565b60018060a01b03809116908183526005602052611c27604084205460065411612227565b604051630222e55560e21b81526020816004817f000000000000000000000000000000000000000000000000000000000000000086165afa908115610435578491611caa575b5016803b156104035760248392604051948593849263187de53b60e01b845260048401525af1801561020e57611ca1575080f35b61053690611e3c565b611cc2915060203d811161042e576104208183611e66565b38611c6d565b90503461020a57606036600319011261020a57611ce3611d2b565b6044356001600160a01b038181169291839003611d27579360ff92604092602096600435845260048852848420911683528652828220908252855220541615158152f35b8480fd5b602435906001600160a01b038216820361072357565b600435906001600160a01b038216820361072357565b600654811015611d8e5760066000527ff652222313e28459528d920b65115c16c04f3efc82aaedc97be59f3f377c0d3f0190600090565b634e487b7160e01b600052603260045260246000fd5b8054821015611d8e5760005260206000200190600090565b9181601f840112156107235782359167ffffffffffffffff8311610723576020808501948460051b01011161072357565b6000546001600160a01b03163303611e0157565b60405163118cdaa760e01b8152336004820152602490fd5b91908201809211611e2657565b634e487b7160e01b600052601160045260246000fd5b67ffffffffffffffff8111611e5057604052565b634e487b7160e01b600052604160045260246000fd5b90601f8019910116810190811067ffffffffffffffff821117611e5057604052565b90816020910312610723575180151581036107235790565b15611ea757565b60405162461bcd60e51b815260206004820152600f60248201526e151c985b9cd9995c8819985a5b1959608a1b6044820152606490fd5b81810292918115918404141715611e2657565b8115611efb570490565b634e487b7160e01b600052601260045260246000fd5b906103e8918282049260009282845260026020526002604085200154851015611f5d57611f539460409385526003602052838520908552602052069120611da4565b90549060031b1c90565b60405162461bcd60e51b815260206004820152601060248201526f092dcecc2d8d2c840aea640d2dcc8caf60831b6044820152606490fd5b15611f9c57565b60405162461bcd60e51b815260206004820152600d60248201526c092dcecc2d8d2c840cae0dec6d609b1b6044820152606490fd5b9081602091031261072357516001600160a01b03811681036107235790565b600092808452602093600485526040948582209460018060a01b0380911695868452825280878420951694858452825260ff87842054168015612192575b612188578651636fad7e9560e11b8152948286600481845afa95861561217e57849661215f575b508352600582528683205494168383526002825260018784200154875196630c4db40d60e31b885260048801526001602488015260448701528186606481845afa958615612155578396612126575b50908060049392885194858092633a98ef3960e01b82525afa96871561211b575081966120e4575b5050509161069761069c926120e19594611f11565b90565b909180939650813d8311612114575b6120fd8183611e66565b8101031261021d57505192610697826120e16120cc565b503d6120f3565b51913d9150823e3d90fd5b9095508181813d831161214e575b61213e8183611e66565b81010312610219575194816120a4565b503d612134565b87513d85823e3d90fd5b612177919650833d851161042e576104208183611e66565b9438612055565b88513d86823e3d90fd5b5050935050505090565b50600154841161202e565b6000198114611e265760010190565b9190811015611d8e5760051b0190565b156121c357565b60405162461bcd60e51b815260206004820152601060248201526f4e6f7468696e6720746f20636c61696d60801b6044820152606490fd5b67ffffffffffffffff8111611e505760051b60200190565b8051821015611d8e5760209160051b010190565b1561222e57565b60405162461bcd60e51b815260206004820152601a60248201527f4e6f742061206d616e61676564207772617070656420736f6e670000000000006044820152606490fdfea26469706673582212203d5e169be1e3774a1938c4f3cfe2d6d238aae1899ca11b2f50b9d5edf054bfc964736f6c63430008140033a264697066735822122008eaabc538c7defa0624100809803357bbb8d74acb8edf63d2eb7007624b0bb464736f6c63430008140033",
  "linkReferences": {},
  "deployedLinkReferences": {}
}