{
  "_format": "hh-sol-artifact-1",
  "contractName": "DistributorWallet",
  "sourceName": "contracts/protocol/NonUpgradable/DistributorWallet.sol",
  "abi": [
    {
      "inputs": [
        {
          "internalType": "address",
          "name": "_stablecoin",
          "type": "address"
        },
        {
          "internalType": "address",
          "name": "_protocolModule",
          "type": "address"
        },
        {
          "internalType": "address",
          "name": "_owner",
          "type": "address"
        }
      ],
      "stateMutability": "nonpayable",
      "type": "constructor"
    },
    {
      "inputs": [
        {
          "internalType": "address",
          "name": "owner",
          "type": "address"
        }
      ],
      "name": "OwnableInvalidOwner",
      "type": "error"
    },
    {
      "inputs": [
        {
          "internalType": "address",
          "name": "account",
          "type": "address"
        }
      ],
      "name": "OwnableUnauthorizedAccount",
      "type": "error"
    },
    {
      "anonymous": false,
      "inputs": [
        {
          "indexed": true,
          "internalType": "address",
          "name": "wrappedSong",
          "type": "address"
        },
        {
          "indexed": true,
          "internalType": "address",
          "name": "holder",
          "type": "address"
        },
        {
          "indexed": true,
          "internalType": "uint256",
          "name": "epochId",
          "type": "uint256"
        },
        {
          "indexed": false,
          "internalType": "uint256",
          "name": "amount",
          "type": "uint256"
        }
      ],
      "name": "EpochRedeemed",
      "type": "event"
    },
    {
      "anonymous": false,
      "inputs": [
        {
          "indexed": true,
          "internalType": "uint256",
          "name": "epochId",
          "type": "uint256"
        },
        {
          "indexed": true,
          "internalType": "uint256",
          "name": "chunkIndex",
          "type": "uint256"
        },
        {
          "indexed": false,
          "internalType": "uint256",
          "name": "amountsCount",
          "type": "uint256"
        }
      ],
      "name": "NewDistributionChunk",
      "type": "event"
    },
    {
      "anonymous": false,
      "inputs": [
        {
          "indexed": true,
          "internalType": "address",
          "name": "distributor",
          "type": "address"
        },
        {
          "indexed": true,
          "internalType": "uint256",
          "name": "epochId",
          "type": "uint256"
        },
        {
          "indexed": false,
          "internalType": "uint256",
          "name": "totalAmount",
          "type": "uint256"
        },
        {
          "indexed": false,
          "internalType": "uint256",
          "name": "timestamp",
          "type": "uint256"
        }
      ],
      "name": "NewRevenueEpoch",
      "type": "event"
    },
    {
      "anonymous": false,
      "inputs": [
        {
          "indexed": true,
          "internalType": "address",
          "name": "previousOwner",
          "type": "address"
        },
        {
          "indexed": true,
          "internalType": "address",
          "name": "newOwner",
          "type": "address"
        }
      ],
      "name": "OwnershipTransferred",
      "type": "event"
    },
    {
      "anonymous": false,
      "inputs": [
        {
          "indexed": true,
          "internalType": "address",
          "name": "wrappedSong",
          "type": "address"
        }
      ],
      "name": "WrappedSongAcceptedForReview",
      "type": "event"
    },
    {
      "anonymous": false,
      "inputs": [
        {
          "indexed": true,
          "internalType": "address",
          "name": "wrappedSong",
          "type": "address"
        }
      ],
      "name": "WrappedSongReleaseRejected",
      "type": "event"
    },
    {
      "anonymous": false,
      "inputs": [
        {
          "indexed": true,
          "internalType": "address",
          "name": "wrappedSong",
          "type": "address"
        }
      ],
      "name": "WrappedSongReleased",
      "type": "event"
    },
    {
      "inputs": [],
      "name": "CHUNK_SIZE",
      "outputs": [
        {
          "internalType": "uint256",
          "name": "",
          "type": "uint256"
        }
      ],
      "stateMutability": "view",
      "type": "function"
    },
    {
      "inputs": [
        {
          "internalType": "address",
          "name": "wrappedSong",
          "type": "address"
        }
      ],
      "name": "acceptWrappedSongForReview",
      "outputs": [],
      "stateMutability": "nonpayable",
      "type": "function"
    },
    {
      "inputs": [
        {
          "internalType": "uint256",
          "name": "",
          "type": "uint256"
        },
        {
          "internalType": "uint256",
          "name": "",
          "type": "uint256"
        },
        {
          "internalType": "uint256",
          "name": "",
          "type": "uint256"
        }
      ],
      "name": "amountChunks",
      "outputs": [
        {
          "internalType": "uint256",
          "name": "",
          "type": "uint256"
        }
      ],
      "stateMutability": "view",
      "type": "function"
    },
    {
      "inputs": [
        {
          "internalType": "address",
          "name": "_wrappedSong",
          "type": "address"
        },
        {
          "internalType": "uint256",
          "name": "epochId",
          "type": "uint256"
        }
      ],
      "name": "claimEpochEarnings",
      "outputs": [],
      "stateMutability": "nonpayable",
      "type": "function"
    },
    {
      "inputs": [
        {
          "internalType": "address",
          "name": "_wrappedSong",
          "type": "address"
        },
        {
          "internalType": "uint256[]",
          "name": "epochIds",
          "type": "uint256[]"
        }
      ],
      "name": "claimMultipleEpochs",
      "outputs": [],
      "stateMutability": "nonpayable",
      "type": "function"
    },
    {
      "inputs": [
        {
          "internalType": "address[]",
          "name": "_wrappedSongs",
          "type": "address[]"
        },
        {
          "internalType": "uint256",
          "name": "epochId",
          "type": "uint256"
        }
      ],
      "name": "claimMultipleWrappedSongsEarnings",
      "outputs": [],
      "stateMutability": "nonpayable",
      "type": "function"
    },
    {
      "inputs": [
        {
          "internalType": "address",
          "name": "wrappedSong",
          "type": "address"
        }
      ],
      "name": "confirmMetadataUpdate",
      "outputs": [],
      "stateMutability": "nonpayable",
      "type": "function"
    },
    {
      "inputs": [
        {
          "internalType": "address",
          "name": "wrappedSong",
          "type": "address"
        }
      ],
      "name": "confirmWrappedSongRelease",
      "outputs": [],
      "stateMutability": "nonpayable",
      "type": "function"
    },
    {
      "inputs": [
        {
          "internalType": "uint256",
          "name": "epochId",
          "type": "uint256"
        },
        {
          "internalType": "uint256",
          "name": "chunkIndex",
          "type": "uint256"
        },
        {
          "internalType": "uint256[]",
          "name": "_amounts",
          "type": "uint256[]"
        },
        {
          "internalType": "uint256",
          "name": "_totalAmount",
          "type": "uint256"
        },
        {
          "internalType": "bool",
          "name": "isFirstChunk",
          "type": "bool"
        },
        {
          "internalType": "bool",
          "name": "isLastChunk",
          "type": "bool"
        }
      ],
      "name": "createDistributionEpochChunk",
      "outputs": [],
      "stateMutability": "nonpayable",
      "type": "function"
    },
    {
      "inputs": [],
      "name": "currentEpochId",
      "outputs": [
        {
          "internalType": "uint256",
          "name": "",
          "type": "uint256"
        }
      ],
      "stateMutability": "view",
      "type": "function"
    },
    {
      "inputs": [
        {
          "internalType": "uint256",
          "name": "",
          "type": "uint256"
        }
      ],
      "name": "distributionEpochs",
      "outputs": [
        {
          "internalType": "uint256",
          "name": "totalAmount",
          "type": "uint256"
        },
        {
          "internalType": "uint256",
          "name": "timestamp",
          "type": "uint256"
        },
        {
          "internalType": "uint256",
          "name": "chunksCount",
          "type": "uint256"
        }
      ],
      "stateMutability": "view",
      "type": "function"
    },
    {
      "inputs": [
        {
          "internalType": "uint256",
          "name": "",
          "type": "uint256"
        },
        {
          "internalType": "address",
          "name": "",
          "type": "address"
        },
        {
          "internalType": "address",
          "name": "",
          "type": "address"
        }
      ],
      "name": "epochClaims",
      "outputs": [
        {
          "internalType": "bool",
          "name": "",
          "type": "bool"
        }
      ],
      "stateMutability": "view",
      "type": "function"
    },
    {
      "inputs": [
        {
          "internalType": "uint256",
          "name": "epochId",
          "type": "uint256"
        },
        {
          "internalType": "uint256",
          "name": "wsIndex",
          "type": "uint256"
        }
      ],
      "name": "getAmountForWS",
      "outputs": [
        {
          "internalType": "uint256",
          "name": "",
          "type": "uint256"
        }
      ],
      "stateMutability": "view",
      "type": "function"
    },
    {
      "inputs": [
        {
          "internalType": "address",
          "name": "_wrappedSong",
          "type": "address"
        },
        {
          "internalType": "address",
          "name": "_holder",
          "type": "address"
        },
        {
          "internalType": "uint256",
          "name": "epochId",
          "type": "uint256"
        }
      ],
      "name": "getClaimableAmount",
      "outputs": [
        {
          "internalType": "uint256",
          "name": "",
          "type": "uint256"
        }
      ],
      "stateMutability": "view",
      "type": "function"
    },
    {
      "inputs": [],
      "name": "getManagedWrappedSongsCount",
      "outputs": [
        {
          "internalType": "uint256",
          "name": "",
          "type": "uint256"
        }
      ],
      "stateMutability": "view",
      "type": "function"
    },
    {
      "inputs": [
        {
          "internalType": "address",
          "name": "_wrappedSong",
          "type": "address"
        },
        {
          "internalType": "address",
          "name": "_holder",
          "type": "address"
        },
        {
          "internalType": "uint256[]",
          "name": "epochIds",
          "type": "uint256[]"
        }
      ],
      "name": "getMultipleClaimableAmounts",
      "outputs": [
        {
          "internalType": "uint256[]",
          "name": "amounts",
          "type": "uint256[]"
        }
      ],
      "stateMutability": "view",
      "type": "function"
    },
    {
      "inputs": [
        {
          "internalType": "uint256",
          "name": "",
          "type": "uint256"
        }
      ],
      "name": "managedWrappedSongs",
      "outputs": [
        {
          "internalType": "address",
          "name": "",
          "type": "address"
        }
      ],
      "stateMutability": "view",
      "type": "function"
    },
    {
      "inputs": [],
      "name": "owner",
      "outputs": [
        {
          "internalType": "address",
          "name": "",
          "type": "address"
        }
      ],
      "stateMutability": "view",
      "type": "function"
    },
    {
      "inputs": [],
      "name": "protocolModule",
      "outputs": [
        {
          "internalType": "contract IProtocolModule",
          "name": "",
          "type": "address"
        }
      ],
      "stateMutability": "view",
      "type": "function"
    },
    {
      "inputs": [
        {
          "internalType": "address",
          "name": "token",
          "type": "address"
        }
      ],
      "name": "recoverTokens",
      "outputs": [],
      "stateMutability": "nonpayable",
      "type": "function"
    },
    {
      "inputs": [
        {
          "internalType": "address",
          "name": "wrappedSong",
          "type": "address"
        }
      ],
      "name": "rejectMetadataUpdate",
      "outputs": [],
      "stateMutability": "nonpayable",
      "type": "function"
    },
    {
      "inputs": [
        {
          "internalType": "address",
          "name": "wrappedSong",
          "type": "address"
        }
      ],
      "name": "rejectWrappedSongRelease",
      "outputs": [],
      "stateMutability": "nonpayable",
      "type": "function"
    },
    {
      "inputs": [],
      "name": "renounceOwnership",
      "outputs": [],
      "stateMutability": "nonpayable",
      "type": "function"
    },
    {
      "inputs": [
        {
          "internalType": "address",
          "name": "wrappedSong",
          "type": "address"
        },
        {
          "internalType": "bool",
          "name": "isAuthentic",
          "type": "bool"
        }
      ],
      "name": "setWrappedSongAuthenticity",
      "outputs": [],
      "stateMutability": "nonpayable",
      "type": "function"
    },
    {
      "inputs": [],
      "name": "stablecoin",
      "outputs": [
        {
          "internalType": "contract IERC20",
          "name": "",
          "type": "address"
        }
      ],
      "stateMutability": "view",
      "type": "function"
    },
    {
      "inputs": [
        {
          "internalType": "address",
          "name": "newOwner",
          "type": "address"
        }
      ],
      "name": "transferOwnership",
      "outputs": [],
      "stateMutability": "nonpayable",
      "type": "function"
    },
    {
      "inputs": [
        {
          "internalType": "address",
          "name": "",
          "type": "address"
        }
      ],
      "name": "wsRedeemIndexList",
      "outputs": [
        {
          "internalType": "uint256",
          "name": "",
          "type": "uint256"
        }
      ],
      "stateMutability": "view",
      "type": "function"
    }
  ],
  "bytecode": "0x60c034620001de57601f6200271d38819003918201601f191683019291906001600160401b03841183851017620001e3578160609284926040968752833981010312620001de57816200005282620001f9565b916200006160208201620001f9565b6001600160a01b0392909183916200007a9101620001f9565b16928315620001c657600080546001600160a01b031981168617825586519585939290918416907f8be0079c531659141344cd1fd0a4f28419497f9722a3daafe3b4186f6b6457e09080a3169283156200018f5750169081156200014b5760805260a0525161250e90816200020f823960805181818161038b0152818161057801528181610ba201528181611331015281816118260152611c74015260a05181818161018c015281816104330152818161093501528181610d5901528181611a3101528181611aa30152611ec40152f35b825162461bcd60e51b815260206004820152601760248201527f496e76616c69642070726f746f636f6c206d6f64756c650000000000000000006044820152606490fd5b62461bcd60e51b815260206004820152601260248201527124b73b30b634b21039ba30b13632b1b7b4b760711b6044820152606490fd5b8451631e4fbdf760e01b815260006004820152602490fd5b600080fd5b634e487b7160e01b600052604160045260246000fd5b51906001600160a01b0382168203620001de5756fe608080604052600436101561001357600080fd5b600090813560e01c908163028a6b9e14611f505750806304adbc2214611e685780630a279e1514611e385780631188029f14611df457806316114acd14611c4457806316a91b2f14611bef57806349f3329b14611bad5780634b08ec5014611a605780635c42e66714611a1b5780636d3d6e6d146119f1578063715018a6146119975780637f41b4a8146116125780638da5cb5b146115eb578063921f45331461123b5780639d6ce7ca14610f7d578063b0c70e2714610d18578063b3104d8014610cdf578063b8b0a09a14610a32578063be94e319146108cb578063c0c71ce9146104ea578063d20098a2146104cc578063d65bd2fa146103d7578063e91e13a9146103ba578063e9cbd82214610375578063eacdc5ff14610357578063f2fde38b146102c75763f52603691461014a57600080fd5b346102c45760208060031936011261025c5781610165611fc5565b9161016e612071565b60405163670d296960e11b81526001600160a01b03919081816004817f000000000000000000000000000000000000000000000000000000000000000087165afa90811561029c578391839186916102a7575b506004604051809481936365bb98b560e01b8352165afa90811561029c578392859261026f575b50501692833b1561026b57829160248392604051948593849263f526036960e01b845216978860048401525af1801561026057610248575b50807f9b8b9fd151330b7d89319c88adc1ba5b0e63288a430bac1173b0af4570586b6391a280f35b610251906120c0565b61025c578138610220565b5080fd5b6040513d84823e3d90fd5b8280fd5b61028e9250803d10610295575b61028681836120ea565b810190612255565b38806101e8565b503d61027c565b6040513d86823e3d90fd5b6102be9150823d84116102955761028681836120ea565b386101c1565b80fd5b50346102c45760203660031901126102c4576102e1611fc5565b6102e9612071565b6001600160a01b0390811690811561033e57600054826bffffffffffffffffffffffff60a01b821617600055167f8be0079c531659141344cd1fd0a4f28419497f9722a3daafe3b4186f6b6457e0600080a380f35b604051631e4fbdf760e01b815260048101849052602490fd5b50346102c457806003193601126102c4576020600154604051908152f35b50346102c457806003193601126102c4576040517f00000000000000000000000000000000000000000000000000000000000000006001600160a01b03168152602090f35b50346102c457806003193601126102c45760206040516103e88152f35b50346102c45760203660031901126102c457806103f2611fc5565b6103fa612071565b60018060a01b0380911690818352600560205261041e60408420546006541161246c565b604051630222e55560e21b81526020816004817f000000000000000000000000000000000000000000000000000000000000000086165afa90811561029c5784916104ae575b501690813b156104aa578291602483926040519485938492634902fd7f60e11b845260048401525af180156102605761049a5750f35b6104a3906120c0565b6102c45780f35b5050fd5b6104c6915060203d81116102955761028681836120ea565b38610464565b50346102c457806003193601126102c4576020600654604051908152f35b50346102c45760403660031901126102c45760043567ffffffffffffffff811161025c5761051c903690600401612040565b90602490813560016105318154831115612219565b8415610887578594865b8181106106195787878781156105e2575060405163a9059cbb60e01b81523360048201526024810191909152602081604481856001600160a01b037f0000000000000000000000000000000000000000000000000000000000000000165af18015610260576105b19183916105b4575b50612124565b80f35b6105d5915060203d81116105db575b6105cd81836120ea565b81019061210c565b836105ab565b503d6105c3565b60649060106040519162461bcd60e51b8352602060048401528201526f4e6f7468696e6720746f20636c61696d60801b6044820152fd5b6106278183879a999a612430565b6001600160a01b03989035898116908190036108835785895260206004815260408a20336000528152604060002082600052815260ff6040600020541661083257899a878b526002825260408b2090604051636fad7e9560e11b81528381600481885afa9182156107cf578d8a928194610810575b5080876040925260058752205492169201549160405192630c4db40d60e31b8452336004850152898d85015260448401528383606481845afa9283156107cf578d936107da575b5090836004939260405194858092633a98ef3960e01b82525afa9283156107cf578d93610787575b5092604061074b6107448c979561073f6000805160206124b98339815191529661073a6107829d9c9a8c612195565b612162565b612175565b809661209d565b9d8681526004835220336000528152604060002083600052815260406000208960ff198254161790556040519384523393a4612421565b61053b565b84809e5081969450919796943d83116107c8575b6107a581836120ea565b810103126107c35792518c9b9495929491939192909190604061070b565b600080fd5b503d61079b565b6040513d8f823e3d90fd5b848092939e508194503d8311610809575b6107f581836120ea565b810103126107c35790518c9b9091836106e3565b503d6107eb565b604091945061082b90873d89116102955761028681836120ea565b939061069c565b60849060258a6040519262461bcd60e51b845260048401528201527f416c726561647920636c61696d656420666f722074686973207772617070656460448201526420736f6e6760d81b6064820152fd5b8880fd5b60405162461bcd60e51b8152602060048201526019818601527f456d707479207772617070656420736f6e6773206172726179000000000000006044820152606490fd5b50346102c45760403660031901126102c4576108e5611fc5565b6024358015158091036107c35782916108fc612071565b60018060a01b038091169081845260206005815261092160408620546006541161246c565b60405163670d296960e11b815281816004817f000000000000000000000000000000000000000000000000000000000000000087165afa908115610a0a57839183918891610a15575b50600460405180948193633ead5d1160e01b8352165afa918215610a0a5786926109cf575b50501691823b156109ca576044849283604051958694859363be94e31960e01b8552600485015260248401525af180156102605761049a5750f35b505050fd5b90809250813d8311610a03575b6109e681836120ea565b810103126109ff575181811681036109ff57388061098f565b8480fd5b503d6109dc565b6040513d88823e3d90fd5b610a2c9150823d84116102955761028681836120ea565b3861096a565b50346102c45760403660031901126102c457610a4c611fc5565b60243590818352602090600482526040842033600052825260406000209060018060a01b038091169182600052835260ff60406000205416610ca857610a96600154851115612219565b8385526002835260408086209051636fad7e9560e11b81528481600481875afa908115610c9d578791610c80575b5083875260058552600183604089205492169201549060405191630c4db40d60e31b83523360048401526001602484015260448301528582606481865afa918215610c455786908993610c50575b50604051633a98ef3960e01b81529293839060049082905afa918215610c45578892610c14575b50610b4b9261073a61073f9289612195565b84865260048085526040808820336000818152918852828220878352885290829020805460ff19166001179055905163a9059cbb60e01b8152918201526024810182905290939091819083908189816044810103927f0000000000000000000000000000000000000000000000000000000000000000165af1918215610a0a576000805160206124b983398151915292610beb918891610bf75750612124565b6040519384523393a480f35b610c0e9150833d85116105db576105cd81836120ea565b386105ab565b9091508581813d8311610c3e575b610c2c81836120ea565b810103126107c3575190610b4b610b39565b503d610c22565b6040513d8a823e3d90fd5b809350813d8311610c79575b610c6681836120ea565b810103126107c357856004925192610b12565b503d610c5c565b610c979150853d87116102955761028681836120ea565b38610ac4565b6040513d89823e3d90fd5b60405162461bcd60e51b815260048101849052600f60248201526e105b1c9958591e4818db185a5b5959608a1b6044820152606490fd5b50346102c45760203660031901126102c4576020906040906001600160a01b03610d07611fc5565b168152600583522054604051908152f35b50346102c45760208060031936011261025c57610d33611fc5565b90610d3c612071565b60405163670d296960e11b81526001600160a01b039082816004817f000000000000000000000000000000000000000000000000000000000000000086165afa908115610f5557829184918791610f60575b506004604051809481936365bb98b560e01b8352165afa8015610f555782918691610f38575b501681604051946363df2f1560e11b865216938460048201528381602481855afa908115610a0a578691610f1b575b508230911603610ed6578085913b1561025c5781809160246040518094819363b0c70e2760e01b83528a60048401525af1801561026057610ebe575b5050600654600160401b811015610eaa57806001610e409201600655611fdb565b819291549060031b9185831b921b1916179055600654906000198201918211610e96576005908385525260408320557fe1649799fd93d14e82ccab2710a96c6b05af2496c30f0c9401e159f568813efd8280a280f35b634e487b7160e01b84526011600452602484fd5b634e487b7160e01b85526041600452602485fd5b610ec7906120c0565b610ed2578338610e1f565b8380fd5b60405162461bcd60e51b815260048101849052601b60248201527f4e6f74207468652070656e64696e67206469737472696275746f7200000000006044820152606490fd5b610f329150843d86116102955761028681836120ea565b38610de3565b610f4f9150843d86116102955761028681836120ea565b38610db4565b6040513d87823e3d90fd5b610f779150823d84116102955761028681836120ea565b38610d8e565b50346102c45760603660031901126102c457610f97611fc5565b90610fa0611faf565b9160443567ffffffffffffffff811161026b57610fc1903690600401612040565b604051636fad7e9560e11b81529094909290916001600160a01b03906020856004818587165afa948515610a0a57869561121a575b508183168652600560205260408620549160405194633a98ef3960e01b8652602086600481858b165afa958615610c455788966111e6575b5061103d899799959395612440565b9861104b6040519a8b6120ea565b878a52601f1961105a89612440565b013660208c013788936001988954955b8181106110b1578c8c8c60405191602083016020845284518091526020604085019501915b81811061109c5784860385f35b8251865260209586019590920191830161108f565b8a6110c0829c9e9c848c612430565b358d8d8a831180156111b1575b61119e575060408183859352600260205220015460405192630c4db40d60e31b84528989166004850152602484015260448301526020826064818b8a165afa91821561119157918a8f928f93948f969593611151575b506111499561073f6111439461073a889561113d95612195565b92612458565b52612421565b9b999b61106a565b9550925050506020833d602011611189575b81611170602093836120ea565b810103126107c35791518b928d91908b90611149611123565b3d9150611163565b8e604051903d90823e3d90fd5b8493506111439192509361114994612458565b505080826040925260046020522088881660005260205260406000208886166000526020528d8d60ff604060002054166110cd565b9095506020813d602011611212575b81611202602093836120ea565b810103126107c35751943861102e565b3d91506111f5565b61123491955060203d6020116102955761028681836120ea565b9338610ff6565b50346102c45760403660031901126102c457611255611fc5565b60243567ffffffffffffffff811161026b57611275903690600401612040565b919082156115b157604051636fad7e9560e11b8152916020836004816001600160a01b0385165afa928315610f55578593611590575b5060018060a01b03811685526005602052604085205490604051633a98ef3960e01b815260208160048160018060a01b0389165afa908115610c9d57879161155e575b508695875b81811061138257888880611305575080f35b60405163a9059cbb60e01b81523360048201526024810191909152602081604481856001600160a01b037f0000000000000000000000000000000000000000000000000000000000000000165af18015610260576105b19183916113695750612124565b6105d5915060203d6020116105db576105cd81836120ea565b61138d818388612430565b359061139d600154831115612219565b818a52600460205260408a2033600052602052604060002060018060a01b03861660005260205260ff6040600020541661152157818a526002602052600160408b2001549160405192630c4db40d60e31b845233600485015260016024850152604484015260208360648160018060a01b038d165afa80156115165785908c906114e0575b6114ad9450828d52600460205260408d2033600052602052604060002060018060a01b0389166000526020526040600020600160ff1982541617905580156114b2576114809161073f6114799261073a8c87612195565b809b61209d565b6040519a8b529933906001600160a01b038816906000805160206124b983398151915290602090a4612421565b6112f3565b50506040518b815233906001600160a01b038816906000805160206124b983398151915290602090a4612421565b50506020833d60201161150e575b816114fb602093836120ea565b810103126107c357846114ad9351611422565b3d91506114ee565b6040513d8d823e3d90fd5b60405162461bcd60e51b8152602060048201526015602482015274115c1bd8da08185b1c9958591e4818db185a5b5959605a1b6044820152606490fd5b90506020813d602011611588575b81611579602093836120ea565b810103126107c35751386112ee565b3d915061156c565b6115aa91935060203d6020116102955761028681836120ea565b91386112ab565b60405162461bcd60e51b8152602060048201526012602482015271456d7074792065706f63687320617272617960701b6044820152606490fd5b50346102c457806003193601126102c457546040516001600160a01b039091168152602090f35b50346102c45760c03660031901126102c45760248035906004359067ffffffffffffffff906044358281116119935761164f903690600401612040565b919092606435916084359182151583036107c35760a4359081151582036107c357611678612071565b6103e8861161195d57600193845485810180911161194a578903611913576117f8575b878a526020966003885260408b208a8c52885260408b209187116117e557600160401b87116117e55781548783558088106117be575b50908a52868a2090848b5b8881106117ac575050505061171c575b505050907fab2993bd1558cf55c0837b08905edac8717b4326267b02c8268534311452619891604051908152a380f35b8187019081881161179a5750918580927fab2993bd1558cf55c0837b08905edac8717b4326267b02c82685343114526198969594828b5260028752600260408c2001555560405190815242848201527fb52be436c4d2a5bc18728d4f052344d91ed904f58693186df6726a84f7b3c9a860403092a3909138806116ec565b634e487b7160e01b8952601160045288fd5b898335930192818501550185906116dc565b85888a8e8681522092830192015b8281106117da5750506116d1565b8d81550186906117cc565b634e487b7160e01b8b526041600452838bfd5b84156118d8576040516323b872dd60e01b81523360048201523084820152604481018690526020816064818e7f00000000000000000000000000000000000000000000000000000000000000006001600160a01b03165af1801561151657611866918c916118c05750612124565b60405160608101818110838211176118ab5760405285815260028b602083014281526040808501928084528d815284602052209351845551878401555191015561169b565b84634e487b7160e01b60005260416004526000fd5b610c0e915060203d81116105db576105cd81836120ea565b60405162461bcd60e51b81526020600482015260148185015273125b9d985b1a59081d1bdd185b08185b5bdd5b9d60621b6044820152606490fd5b60405162461bcd60e51b8152602060048201526010818601526f125b9d985b1a5908195c1bd8da081a5960821b6044820152606490fd5b634e487b7160e01b8c526011600452848cfd5b60405162461bcd60e51b815260206004820152600f818501526e4368756e6b20746f6f206c6172676560881b6044820152606490fd5b8580fd5b50346102c457806003193601126102c4576119b0612071565b600080546001600160a01b0319811682556001600160a01b03167f8be0079c531659141344cd1fd0a4f28419497f9722a3daafe3b4186f6b6457e08280a380f35b50346102c45760403660031901126102c4576020611a13602435600435612195565b604051908152f35b50346102c457806003193601126102c4576040517f00000000000000000000000000000000000000000000000000000000000000006001600160a01b03168152602090f35b50346102c45760208060031936011261025c5781611a7c611fc5565b91611a85612071565b60405163670d296960e11b81526001600160a01b03919081816004817f000000000000000000000000000000000000000000000000000000000000000087165afa90811561029c57839183918691611b90575b506004604051809481936365bb98b560e01b8352165afa90811561029c5783928592611b73575b50501692833b1561026b5782916024839260405194859384926304b08ec560e41b845216978860048401525af1801561026057611b5f575b50807f96e9f71e351da2f355723015d74e0a4b6a13763fa188e610b27da4c5aca898c991a280f35b611b68906120c0565b61025c578138611b37565b611b899250803d106102955761028681836120ea565b3880611aff565b611ba79150823d84116102955761028681836120ea565b38611ad8565b50346102c45760203660031901126102c45760406060916004358152600260205220805490600260018201549101549060405192835260208301526040820152f35b50346102c45760603660031901126102c4576044359060043581526003602052604081206024358252602052604081209081548310156102c4576020611c358484612028565b90549060031b1c604051908152f35b50346102c45760208060031936011261025c57611c5f611fc5565b611c67612071565b6001600160a01b039081167f000000000000000000000000000000000000000000000000000000000000000082168114611daf576040516370a0823160e01b8152306004820152918383602481855afa928315610f55578593611d80575b508215611d4357845460405163a9059cbb60e01b815291166001600160a01b031660048201526024810192909252829082908186816044810103925af1908115611d38576105b1928492611d1b575b5050612124565b611d319250803d106105db576105cd81836120ea565b3880611d14565b6040513d85823e3d90fd5b60405162461bcd60e51b81526004810185905260156024820152742737903130b630b731b2903a37903932b1b7bb32b960591b6044820152606490fd5b9092508381813d8311611da8575b611d9881836120ea565b810103126107c357519138611cc5565b503d611d8e565b60405162461bcd60e51b815260048101849052601960248201527f43616e6e6f74207265636f76657220737461626c65636f696e000000000000006044820152606490fd5b50346102c45760203660031901126102c457600435906006548210156102c4576020611e1f83611fdb565b905460405160039290921b1c6001600160a01b03168152f35b50346102c45760603660031901126102c4576020611a13611e57611fc5565b611e5f611faf565b60443591612274565b50346102c45760203660031901126102c45780611e83611fc5565b611e8b612071565b60018060a01b03809116908183526005602052611eaf60408420546006541161246c565b604051630222e55560e21b81526020816004817f000000000000000000000000000000000000000000000000000000000000000086165afa90811561029c578491611f32575b5016803b156104aa5760248392604051948593849263187de53b60e01b845260048401525af1801561026057611f29575080f35b6105b1906120c0565b611f4a915060203d81116102955761028681836120ea565b38611ef5565b90503461025c57606036600319011261025c57611f6b611faf565b6044356001600160a01b0381811692918390036109ff579360ff92604092602096600435845260048852848420911683528652828220908252855220541615158152f35b602435906001600160a01b03821682036107c357565b600435906001600160a01b03821682036107c357565b6006548110156120125760066000527ff652222313e28459528d920b65115c16c04f3efc82aaedc97be59f3f377c0d3f0190600090565b634e487b7160e01b600052603260045260246000fd5b80548210156120125760005260206000200190600090565b9181601f840112156107c35782359167ffffffffffffffff83116107c3576020808501948460051b0101116107c357565b6000546001600160a01b0316330361208557565b60405163118cdaa760e01b8152336004820152602490fd5b919082018092116120aa57565b634e487b7160e01b600052601160045260246000fd5b67ffffffffffffffff81116120d457604052565b634e487b7160e01b600052604160045260246000fd5b90601f8019910116810190811067ffffffffffffffff8211176120d457604052565b908160209103126107c3575180151581036107c35790565b1561212b57565b60405162461bcd60e51b815260206004820152600f60248201526e151c985b9cd9995c8819985a5b1959608a1b6044820152606490fd5b818102929181159184041417156120aa57565b811561217f570490565b634e487b7160e01b600052601260045260246000fd5b906103e89182820492600092828452600260205260026040852001548510156121e1576121d79460409385526003602052838520908552602052069120612028565b90549060031b1c90565b60405162461bcd60e51b815260206004820152601060248201526f092dcecc2d8d2c840aea640d2dcc8caf60831b6044820152606490fd5b1561222057565b60405162461bcd60e51b815260206004820152600d60248201526c092dcecc2d8d2c840cae0dec6d609b1b6044820152606490fd5b908160209103126107c357516001600160a01b03811681036107c35790565b600092808452602093600485526040948582209460018060a01b0380911695868452825280878420951694858452825260ff87842054168015612416575b61240c578651636fad7e9560e11b8152948286600481845afa9586156124025784966123e3575b508352600582528683205494168383526002825260018784200154875196630c4db40d60e31b885260048801526001602488015260448701528186606481845afa9586156123d95783966123aa575b50908060049392885194858092633a98ef3960e01b82525afa96871561239f57508196612368575b5050509161073a61073f926123659594612195565b90565b909180939650813d8311612398575b61238181836120ea565b810103126102c45750519261073a82612365612350565b503d612377565b51913d9150823e3d90fd5b9095508181813d83116123d2575b6123c281836120ea565b8101031261026b57519481612328565b503d6123b8565b87513d85823e3d90fd5b6123fb919650833d85116102955761028681836120ea565b94386122d9565b88513d86823e3d90fd5b5050935050505090565b5060015484116122b2565b60001981146120aa5760010190565b91908110156120125760051b0190565b67ffffffffffffffff81116120d45760051b60200190565b80518210156120125760209160051b010190565b1561247357565b60405162461bcd60e51b815260206004820152601a60248201527f4e6f742061206d616e61676564207772617070656420736f6e670000000000006044820152606490fdfe07863fd81b035ca44d1af7b7b984f297c3cf2ef391a2f2e978a98670f200a4eba2646970667358221220d6d3d53aee1376c97999ffb888547408fb3fee177365c2ef3f39401ab96796f964736f6c63430008140033",
  "linkReferences": {},
  "deployedLinkReferences": {}
}