{
  "_format": "hh-sol-artifact-1",
  "contractName": "MusicERC721",
  "sourceName": "contracts/Alpha/MusicERC721.sol",
  "abi": [
    {
      "inputs": [
        {
          "internalType": "string",
          "name": "name",
          "type": "string"
        },
        {
          "internalType": "string",
          "name": "symbol",
          "type": "string"
        }
      ],
      "stateMutability": "nonpayable",
      "type": "constructor"
    },
    {
      "inputs": [],
      "name": "ERC721EnumerableForbiddenBatchMint",
      "type": "error"
    },
    {
      "inputs": [
        {
          "internalType": "address",
          "name": "sender",
          "type": "address"
        },
        {
          "internalType": "uint256",
          "name": "tokenId",
          "type": "uint256"
        },
        {
          "internalType": "address",
          "name": "owner",
          "type": "address"
        }
      ],
      "name": "ERC721IncorrectOwner",
      "type": "error"
    },
    {
      "inputs": [
        {
          "internalType": "address",
          "name": "operator",
          "type": "address"
        },
        {
          "internalType": "uint256",
          "name": "tokenId",
          "type": "uint256"
        }
      ],
      "name": "ERC721InsufficientApproval",
      "type": "error"
    },
    {
      "inputs": [
        {
          "internalType": "address",
          "name": "approver",
          "type": "address"
        }
      ],
      "name": "ERC721InvalidApprover",
      "type": "error"
    },
    {
      "inputs": [
        {
          "internalType": "address",
          "name": "operator",
          "type": "address"
        }
      ],
      "name": "ERC721InvalidOperator",
      "type": "error"
    },
    {
      "inputs": [
        {
          "internalType": "address",
          "name": "owner",
          "type": "address"
        }
      ],
      "name": "ERC721InvalidOwner",
      "type": "error"
    },
    {
      "inputs": [
        {
          "internalType": "address",
          "name": "receiver",
          "type": "address"
        }
      ],
      "name": "ERC721InvalidReceiver",
      "type": "error"
    },
    {
      "inputs": [
        {
          "internalType": "address",
          "name": "sender",
          "type": "address"
        }
      ],
      "name": "ERC721InvalidSender",
      "type": "error"
    },
    {
      "inputs": [
        {
          "internalType": "uint256",
          "name": "tokenId",
          "type": "uint256"
        }
      ],
      "name": "ERC721NonexistentToken",
      "type": "error"
    },
    {
      "inputs": [
        {
          "internalType": "address",
          "name": "owner",
          "type": "address"
        },
        {
          "internalType": "uint256",
          "name": "index",
          "type": "uint256"
        }
      ],
      "name": "ERC721OutOfBoundsIndex",
      "type": "error"
    },
    {
      "inputs": [
        {
          "internalType": "address",
          "name": "owner",
          "type": "address"
        }
      ],
      "name": "OwnableInvalidOwner",
      "type": "error"
    },
    {
      "inputs": [
        {
          "internalType": "address",
          "name": "account",
          "type": "address"
        }
      ],
      "name": "OwnableUnauthorizedAccount",
      "type": "error"
    },
    {
      "anonymous": false,
      "inputs": [
        {
          "indexed": true,
          "internalType": "address",
          "name": "owner",
          "type": "address"
        },
        {
          "indexed": true,
          "internalType": "address",
          "name": "approved",
          "type": "address"
        },
        {
          "indexed": true,
          "internalType": "uint256",
          "name": "tokenId",
          "type": "uint256"
        }
      ],
      "name": "Approval",
      "type": "event"
    },
    {
      "anonymous": false,
      "inputs": [
        {
          "indexed": true,
          "internalType": "address",
          "name": "owner",
          "type": "address"
        },
        {
          "indexed": true,
          "internalType": "address",
          "name": "operator",
          "type": "address"
        },
        {
          "indexed": false,
          "internalType": "bool",
          "name": "approved",
          "type": "bool"
        }
      ],
      "name": "ApprovalForAll",
      "type": "event"
    },
    {
      "anonymous": false,
      "inputs": [
        {
          "indexed": true,
          "internalType": "address",
          "name": "previousOwner",
          "type": "address"
        },
        {
          "indexed": true,
          "internalType": "address",
          "name": "newOwner",
          "type": "address"
        }
      ],
      "name": "OwnershipTransferred",
      "type": "event"
    },
    {
      "anonymous": false,
      "inputs": [
        {
          "indexed": true,
          "internalType": "address",
          "name": "from",
          "type": "address"
        },
        {
          "indexed": true,
          "internalType": "address",
          "name": "to",
          "type": "address"
        },
        {
          "indexed": true,
          "internalType": "uint256",
          "name": "tokenId",
          "type": "uint256"
        }
      ],
      "name": "Transfer",
      "type": "event"
    },
    {
      "inputs": [
        {
          "internalType": "address",
          "name": "to",
          "type": "address"
        },
        {
          "internalType": "uint256",
          "name": "tokenId",
          "type": "uint256"
        }
      ],
      "name": "approve",
      "outputs": [],
      "stateMutability": "nonpayable",
      "type": "function"
    },
    {
      "inputs": [
        {
          "internalType": "address",
          "name": "owner",
          "type": "address"
        }
      ],
      "name": "balanceOf",
      "outputs": [
        {
          "internalType": "uint256",
          "name": "",
          "type": "uint256"
        }
      ],
      "stateMutability": "view",
      "type": "function"
    },
    {
      "inputs": [
        {
          "internalType": "uint256",
          "name": "tokenId",
          "type": "uint256"
        }
      ],
      "name": "getApproved",
      "outputs": [
        {
          "internalType": "address",
          "name": "",
          "type": "address"
        }
      ],
      "stateMutability": "view",
      "type": "function"
    },
    {
      "inputs": [
        {
          "internalType": "address",
          "name": "owner",
          "type": "address"
        },
        {
          "internalType": "address",
          "name": "operator",
          "type": "address"
        }
      ],
      "name": "isApprovedForAll",
      "outputs": [
        {
          "internalType": "bool",
          "name": "",
          "type": "bool"
        }
      ],
      "stateMutability": "view",
      "type": "function"
    },
    {
      "inputs": [
        {
          "internalType": "address",
          "name": "to",
          "type": "address"
        }
      ],
      "name": "mint",
      "outputs": [],
      "stateMutability": "nonpayable",
      "type": "function"
    },
    {
      "inputs": [],
      "name": "name",
      "outputs": [
        {
          "internalType": "string",
          "name": "",
          "type": "string"
        }
      ],
      "stateMutability": "view",
      "type": "function"
    },
    {
      "inputs": [],
      "name": "owner",
      "outputs": [
        {
          "internalType": "address",
          "name": "",
          "type": "address"
        }
      ],
      "stateMutability": "view",
      "type": "function"
    },
    {
      "inputs": [
        {
          "internalType": "uint256",
          "name": "tokenId",
          "type": "uint256"
        }
      ],
      "name": "ownerOf",
      "outputs": [
        {
          "internalType": "address",
          "name": "",
          "type": "address"
        }
      ],
      "stateMutability": "view",
      "type": "function"
    },
    {
      "inputs": [],
      "name": "renounceOwnership",
      "outputs": [],
      "stateMutability": "nonpayable",
      "type": "function"
    },
    {
      "inputs": [
        {
          "internalType": "address",
          "name": "from",
          "type": "address"
        },
        {
          "internalType": "address",
          "name": "to",
          "type": "address"
        },
        {
          "internalType": "uint256",
          "name": "tokenId",
          "type": "uint256"
        }
      ],
      "name": "safeTransferFrom",
      "outputs": [],
      "stateMutability": "nonpayable",
      "type": "function"
    },
    {
      "inputs": [
        {
          "internalType": "address",
          "name": "from",
          "type": "address"
        },
        {
          "internalType": "address",
          "name": "to",
          "type": "address"
        },
        {
          "internalType": "uint256",
          "name": "tokenId",
          "type": "uint256"
        },
        {
          "internalType": "bytes",
          "name": "data",
          "type": "bytes"
        }
      ],
      "name": "safeTransferFrom",
      "outputs": [],
      "stateMutability": "nonpayable",
      "type": "function"
    },
    {
      "inputs": [
        {
          "internalType": "address",
          "name": "operator",
          "type": "address"
        },
        {
          "internalType": "bool",
          "name": "approved",
          "type": "bool"
        }
      ],
      "name": "setApprovalForAll",
      "outputs": [],
      "stateMutability": "nonpayable",
      "type": "function"
    },
    {
      "inputs": [
        {
          "internalType": "string",
          "name": "metadataURI",
          "type": "string"
        }
      ],
      "name": "setTokenUri",
      "outputs": [],
      "stateMutability": "nonpayable",
      "type": "function"
    },
    {
      "inputs": [
        {
          "internalType": "bytes4",
          "name": "interfaceId",
          "type": "bytes4"
        }
      ],
      "name": "supportsInterface",
      "outputs": [
        {
          "internalType": "bool",
          "name": "",
          "type": "bool"
        }
      ],
      "stateMutability": "view",
      "type": "function"
    },
    {
      "inputs": [],
      "name": "symbol",
      "outputs": [
        {
          "internalType": "string",
          "name": "",
          "type": "string"
        }
      ],
      "stateMutability": "view",
      "type": "function"
    },
    {
      "inputs": [
        {
          "internalType": "uint256",
          "name": "index",
          "type": "uint256"
        }
      ],
      "name": "tokenByIndex",
      "outputs": [
        {
          "internalType": "uint256",
          "name": "",
          "type": "uint256"
        }
      ],
      "stateMutability": "view",
      "type": "function"
    },
    {
      "inputs": [
        {
          "internalType": "address",
          "name": "owner",
          "type": "address"
        },
        {
          "internalType": "uint256",
          "name": "index",
          "type": "uint256"
        }
      ],
      "name": "tokenOfOwnerByIndex",
      "outputs": [
        {
          "internalType": "uint256",
          "name": "",
          "type": "uint256"
        }
      ],
      "stateMutability": "view",
      "type": "function"
    },
    {
      "inputs": [
        {
          "internalType": "uint256",
          "name": "tokenId",
          "type": "uint256"
        }
      ],
      "name": "tokenURI",
      "outputs": [
        {
          "internalType": "string",
          "name": "",
          "type": "string"
        }
      ],
      "stateMutability": "view",
      "type": "function"
    },
    {
      "inputs": [],
      "name": "totalSupply",
      "outputs": [
        {
          "internalType": "uint256",
          "name": "",
          "type": "uint256"
        }
      ],
      "stateMutability": "view",
      "type": "function"
    },
    {
      "inputs": [
        {
          "internalType": "address",
          "name": "from",
          "type": "address"
        },
        {
          "internalType": "address",
          "name": "to",
          "type": "address"
        },
        {
          "internalType": "uint256",
          "name": "tokenId",
          "type": "uint256"
        }
      ],
      "name": "transferFrom",
      "outputs": [],
      "stateMutability": "nonpayable",
      "type": "function"
    },
    {
      "inputs": [
        {
          "internalType": "address",
          "name": "newOwner",
          "type": "address"
        }
      ],
      "name": "transferOwnership",
      "outputs": [],
      "stateMutability": "nonpayable",
      "type": "function"
    }
  ],
  "bytecode": "0x60806040523462000382576200182e803803806200001d8162000387565b9283398101604082820312620003825781516001600160401b0392908381116200038257826200004f918301620003ad565b906020928382015185811162000382576200006b9201620003ad565b9281518181116200036c576000938454916001948584811c9416801562000361575b838510146200034d578190601f94858111620002fa575b508390858311600114620002965788926200028a575b5050600019600383901b1c191690851b1785555b8551928311620002765783548481811c911680156200026b575b8282101462000257578281116200020f575b5080918311600114620001a957508394829394926200019d575b5050600019600383901b1c191690821b1790555b33156200018557600a8054336001600160a01b031982168117909255604051926001600160a01b03909116907f8be0079c531659141344cd1fd0a4f28419497f9722a3daafe3b4186f6b6457e09080a361140e9081620004208239f35b60249060405190631e4fbdf760e01b82526004820152fd5b01519050388062000114565b90601f198316958486528286209286905b888210620001f75750508385969710620001dd575b505050811b01905562000128565b015160001960f88460031b161c19169055388080620001cf565b808785968294968601518155019501930190620001ba565b8486528186208380860160051c8201928487106200024d575b0160051c019085905b82811062000241575050620000fa565b87815501859062000231565b9250819262000228565b634e487b7160e01b86526022600452602486fd5b90607f1690620000e8565b634e487b7160e01b85526041600452602485fd5b015190503880620000ba565b8880528489208894509190601f1984168a5b87828210620002e35750508411620002c9575b505050811b018555620000ce565b015160001960f88460031b161c19169055388080620002bb565b8385015186558b97909501949384019301620002a8565b9091508780528388208580850160051c82019286861062000343575b918991869594930160051c01915b82811062000334575050620000a4565b8a815585945089910162000324565b9250819262000316565b634e487b7160e01b87526022600452602487fd5b93607f16936200008d565b634e487b7160e01b600052604160045260246000fd5b600080fd5b6040519190601f01601f191682016001600160401b038111838210176200036c57604052565b919080601f84011215620003825782516001600160401b0381116200036c57602090620003e3601f8201601f1916830162000387565b92818452828287010111620003825760005b8181106200040b57508260009394955001015290565b8581018301518482018401528201620003f556fe6080604081815260048036101561001557600080fd5b600092833560e01c90816301ffc9a714610bda575080630675b7c614610a3d57806306fdde0314610995578063081812fc1461095a578063095ea7b31461087e57806318160ddd1461085f57806323b872dd146108475780632f745c59146107c357806342842e0e1461079a5780634f6ccce7146107465780636352211e146107155780636a627842146104c457806370a0823114610497578063715018a61461043a5780638da5cb5b1461041157806395d89b411461032e578063a22cb46514610291578063b88d4fde14610229578063c87b56dd146101ee578063e985e9c51461019c5763f2fde38b1461010a57600080fd5b3461019857602036600319011261019857610123610d4c565b9061012c610dad565b6001600160a01b03918216928315610182575050600a54826bffffffffffffffffffffffff60a01b821617600a55167f8be0079c531659141344cd1fd0a4f28419497f9722a3daafe3b4186f6b6457e08380a380f35b51631e4fbdf760e01b8152908101849052602490fd5b8280fd5b5050346101ea57806003193601126101ea5760ff816020936101bc610d4c565b6101c4610d62565b6001600160a01b0391821683526005875283832091168252855220549151911615158152f35b5080fd5b509134610226576020366003190112610226575061020f61022292356112de565b9051918291602083526020830190610d0c565b0390f35b80fd5b8382346101ea5760803660031901126101ea57610244610d4c565b61024c610d62565b9060643567ffffffffffffffff811161028d573660238201121561028d5761028a9381602461028093369301359101610cd0565b9160443591611107565b80f35b8480fd5b5090346101985780600319360112610198576102ab610d4c565b906024359182151580930361028d576001600160a01b03169283156103195750338452600560205280842083855260205280842060ff1981541660ff8416179055519081527f17307eab39ab6107e8899845ad3d59bd9653f200f220920489ca2b5937696c3160203392a380f35b836024925191630b61174360e31b8352820152fd5b5050346101ea57816003193601126101ea5780519082600180549161035283610e12565b808652928281169081156103e9575060011461038d575b50505061037b82610222940383610c92565b51918291602083526020830190610d0c565b94508085527fb10e2d527612073b26eecdfd717e6a320cf44b4afac2b0732d9fcbe2b7fa0cf65b8286106103d15750505061037b8260206102229582010194610369565b805460208787018101919091529095019481016103b4565b61022297508693506020925061037b94915060ff191682840152151560051b82010194610369565b5050346101ea57816003193601126101ea57600a5490516001600160a01b039091168152602090f35b8334610226578060031936011261022657610453610dad565b600a80546001600160a01b0319811690915581906001600160a01b03167f8be0079c531659141344cd1fd0a4f28419497f9722a3daafe3b4186f6b6457e08280a380f35b5050346101ea5760203660031901126101ea576020906104bd6104b8610d4c565b610dd9565b9051908152f35b50903461019857602080600319360112610711576104e0610d4c565b906104e9610dad565b6008546001600160a01b03838116939084156106fa579082918895949386526002845286862054168481158482847fddf252ad1be2c89b69c2b068fc378daa952ba7f163c4a11628f55a4df523b3ef84159b8c6106c7575b83815260038b528d81208054600101905584815260028b528d812080546001600160a01b0319168517905580a4156106485750600854838a526009855280888b2055600160401b81101561063557906105be846105a58460018a9601600855611291565b90919082549060031b91821b91600019901b1916179055565b036105e5575b505050506105d0578280f35b9160249251916339e3563760e11b8352820152fd5b6105ee90610dd9565b60001981019390841161062257875260068252848720838852825284872081905586526007905282852055388080806105c4565b634e487b7160e01b885260118752602488fd5b634e487b7160e01b8a526041895260248afd5b908082146105be5761065981610dd9565b848b5260078652888b205481810361068e575b50848b528a89812055818b5260068652888b20908b52855289888120556105be565b828c5260068752898c20828d528752898c8181205491818684935260068b528181208582528b5220558c5260078752898c20553861066c565b600085815260046020526040902080546001600160a01b031916905582815260038b528d81208054600019019055610541565b8551633250574960e11b8152808801899052602490fd5b8380fd5b509134610226576020366003190112610226575061073560209235611256565b90516001600160a01b039091168152f35b50346101985760203660031901126101985780359260085484101561077f5760208361077186611291565b91905490519160031b1c8152f35b6044939192519263295f44f760e21b84528301526024820152fd5b5050346101ea5761028a906107ae36610d78565b919251926107bb84610c60565b858452611107565b5091346102265781600319360112610226576107dd610d4c565b92602435906107eb85610dd9565b82101561081b57506001600160a01b03909316815260066020908152828220938252928352819020549051908152f35b925163295f44f760e21b81526001600160a01b0390941692840192835260208301525081906040010390fd5b83346102265761028a61085936610d78565b91610e4c565b5050346101ea57816003193601126101ea576020906008549051908152f35b509034610198578060031936011261019857610898610d4c565b916024356108a581611256565b33151580610947575b8061091e575b610908576001600160a01b039485169482918691167f8c5be1e5ebec7d5bd14f71427d1e84f3dd0314c0f7b2291e5b200ac8c7c3b9258880a48452602052822080546001600160a01b031916909117905580f35b835163a9fbf51f60e01b81523381850152602490fd5b506001600160a01b03811686526005602090815284872033885290528386205460ff16156108b4565b506001600160a01b0381163314156108ae565b50346101985760203660031901126101985791826020933561097b81611256565b50825283528190205490516001600160a01b039091168152f35b5050346101ea57816003193601126101ea578051908280546109b681610e12565b808552916001918083169081156103e957506001146109e15750505061037b82610222940383610c92565b80809650527f290decd9548b62a8d60345a988386fc84ba6bc95484008f6362f93160ef3e5635b828610610a255750505061037b8260206102229582010194610369565b80546020878701810191909152909501948101610a08565b508234610226576020806003193601126101ea5767ffffffffffffffff908335828111610711573660238201121561071157610a829036906024818801359101610cd0565b93610a8b610dad565b8451928311610bc75750610aa0600b54610e12565b601f8111610b65575b5080601f8311600114610ae457508293829392610ad9575b50508160011b916000199060031b1c191617600b5580f35b015190508380610ac1565b600b8452601f198316947f0175b7a638427703f0dbe7bb9bbf987a2551717b34e79f33b5b1008d1fa01db9929185905b878210610b4d575050836001959610610b34575b505050811b01600b5580f35b015160001960f88460031b161c19169055838080610b28565b80600185968294968601518155019501930190610b14565b600b84527f0175b7a638427703f0dbe7bb9bbf987a2551717b34e79f33b5b1008d1fa01db9601f840160051c810191838510610bbd575b601f0160051c01905b818110610bb25750610aa9565b848155600101610ba5565b9091508190610b9c565b634e487b7160e01b845260419052602483fd5b92505034610198576020366003190112610198573563ffffffff60e01b8116809103610198576020925063780e9d6360e01b8114908115610c1d575b5015158152f35b6380ac58cd60e01b811491508115610c4f575b8115610c3e575b5038610c16565b6301ffc9a760e01b14905038610c37565b635b5e139f60e01b81149150610c30565b6020810190811067ffffffffffffffff821117610c7c57604052565b634e487b7160e01b600052604160045260246000fd5b90601f8019910116810190811067ffffffffffffffff821117610c7c57604052565b67ffffffffffffffff8111610c7c57601f01601f191660200190565b929192610cdc82610cb4565b91610cea6040519384610c92565b829481845281830111610d07578281602093846000960137010152565b600080fd5b919082519283825260005b848110610d38575050826000602080949584010152601f8019910116010190565b602081830181015184830182015201610d17565b600435906001600160a01b0382168203610d0757565b602435906001600160a01b0382168203610d0757565b6060906003190112610d07576001600160a01b03906004358281168103610d0757916024359081168103610d07579060443590565b600a546001600160a01b03163303610dc157565b60405163118cdaa760e01b8152336004820152602490fd5b6001600160a01b03168015610df957600052600360205260406000205490565b6040516322718ad960e21b815260006004820152602490fd5b90600182811c92168015610e42575b6020831014610e2c57565b634e487b7160e01b600052602260045260246000fd5b91607f1691610e21565b6001600160a01b03828116939184156110ee57600094838652602095600287526040968488832054169633151580611060575b508715801561102d575b84845260038352898420805460010190558784526002835289842080546001600160a01b0319168617905587858a7fddf252ad1be2c89b69c2b068fc378daa952ba7f163c4a11628f55a4df523b3ef8780a415610fb15760085487845260098352808a852055600160401b811015610f9d57876105a5826001610f0f9401600855611291565b838803610f4b575b505050501692838303610f2a5750505050565b6064945051926364283d7b60e01b8452600484015260248301526044820152fd5b610f5490610dd9565b600019810193908411610f895782916007918a9452600681528383208584528152878484205587835252205538808080610f17565b634e487b7160e01b83526011600452602483fd5b634e487b7160e01b84526041600452602484fd5b878414610f0f57610fc188610dd9565b8784526007835289842054818103610ff6575b50878452838a8120558884526006835289842090845282528289812055610f0f565b898552600684528a852082865284528a8520548a8652600685528b86208287528552808c8720558552600784528a85205538610fd4565b600088815260046020526040902080546001600160a01b0319169055888452600383528984208054600019019055610e89565b806110ad575b156110715738610e7f565b88878961108e576024915190637e27328960e01b82526004820152fd5b905163177e802f60e01b81523360048201526024810191909152604490fd5b5033881480156110d2575b8061106657508683526004825233868a8520541614611066565b5087835260058252888320338452825260ff89842054166110b8565b604051633250574960e11b815260006004820152602490fd5b611112838383610e4c565b813b61111f575b50505050565b604051630a85bd0160e11b8082523360048301526001600160a01b0392831660248301526044820194909452608060648201526020959290911693909290839061116d906084830190610d0c565b039285816000958187895af1849181611216575b506111e1575050503d6000146111d9573d61119b81610cb4565b906111a96040519283610c92565b81528091843d92013e5b805192836111d457604051633250574960e11b815260048101849052602490fd5b019050fd5b5060606111b3565b919450915063ffffffff60e01b16036111fe575038808080611119565b60249060405190633250574960e11b82526004820152fd5b9091508681813d831161124f575b61122e8183610c92565b8101031261028d57516001600160e01b03198116810361028d579038611181565b503d611224565b6000818152600260205260409020546001600160a01b0316908115611279575090565b60249060405190637e27328960e01b82526004820152fd5b6008548110156112c85760086000527ff3f7a9fe364faab93b216da50a3214154f22a0a2b415b23a84c8169e8b636ee30190600090565b634e487b7160e01b600052603260045260246000fd5b600b54906112eb82610e12565b61131c576112f99150611256565b50600060405161130881610c60565b5260405161131581610c60565b6000815290565b506040519081600061132d83610e12565b808352926001908181169081156113b65750600114611357575b5061135492500382610c92565b90565b600b600090815291507f0175b7a638427703f0dbe7bb9bbf987a2551717b34e79f33b5b1008d1fa01db95b84831061139b5750611354935050810160200138611347565b81935090816020925483858901015201910190918492611382565b90506020925061135494915060ff191682840152151560051b8201013861134756fea2646970667358221220cd7a70a891042a2f9a2524367caa535bf11882804780d31172a0f6016c2d87ae64736f6c63430008140033",
  "linkReferences": {},
  "deployedLinkReferences": {}
}