{
  "_format": "hh-sol-artifact-1",
  "contractName": "ProtocolModule",
  "sourceName": "contracts/protocol/NonUpgradable/ProtocolModule.sol",
  "abi": [
    {
      "inputs": [
        {
          "internalType": "address",
          "name": "_distributorWalletFactory",
          "type": "address"
        },
        {
          "internalType": "address",
          "name": "_whitelistingManager",
          "type": "address"
        },
        {
          "internalType": "address",
          "name": "_erc20whitelist",
          "type": "address"
        },
        {
          "internalType": "address",
          "name": "_metadataModule",
          "type": "address"
        },
        {
          "internalType": "address",
          "name": "_legalContractMetadata",
          "type": "address"
        }
      ],
      "stateMutability": "nonpayable",
      "type": "constructor"
    },
    {
      "inputs": [],
      "name": "EnforcedPause",
      "type": "error"
    },
    {
      "inputs": [],
      "name": "ExpectedPause",
      "type": "error"
    },
    {
      "inputs": [
        {
          "internalType": "address",
          "name": "owner",
          "type": "address"
        }
      ],
      "name": "OwnableInvalidOwner",
      "type": "error"
    },
    {
      "inputs": [
        {
          "internalType": "address",
          "name": "account",
          "type": "address"
        }
      ],
      "name": "OwnableUnauthorizedAccount",
      "type": "error"
    },
    {
      "inputs": [],
      "name": "ReentrancyGuardReentrantCall",
      "type": "error"
    },
    {
      "anonymous": false,
      "inputs": [
        {
          "indexed": false,
          "internalType": "uint256",
          "name": "newFee",
          "type": "uint256"
        }
      ],
      "name": "DistributorCreationFeeUpdated",
      "type": "event"
    },
    {
      "anonymous": false,
      "inputs": [
        {
          "indexed": false,
          "internalType": "address",
          "name": "newFactory",
          "type": "address"
        }
      ],
      "name": "DistributorWalletFactoryUpdated",
      "type": "event"
    },
    {
      "anonymous": false,
      "inputs": [
        {
          "indexed": false,
          "internalType": "address",
          "name": "newWhitelist",
          "type": "address"
        }
      ],
      "name": "ERC20WhitelistUpdated",
      "type": "event"
    },
    {
      "anonymous": false,
      "inputs": [
        {
          "indexed": true,
          "internalType": "address",
          "name": "wrappedSong",
          "type": "address"
        },
        {
          "indexed": false,
          "internalType": "string",
          "name": "registryType",
          "type": "string"
        },
        {
          "indexed": false,
          "internalType": "string",
          "name": "value",
          "type": "string"
        }
      ],
      "name": "IdentityRegistryUpdated",
      "type": "event"
    },
    {
      "anonymous": false,
      "inputs": [
        {
          "indexed": false,
          "internalType": "address",
          "name": "newContract",
          "type": "address"
        }
      ],
      "name": "LegalContractMetadataUpdated",
      "type": "event"
    },
    {
      "anonymous": false,
      "inputs": [
        {
          "indexed": false,
          "internalType": "uint256",
          "name": "newDuration",
          "type": "uint256"
        }
      ],
      "name": "MaxSaleDurationUpdated",
      "type": "event"
    },
    {
      "anonymous": false,
      "inputs": [
        {
          "indexed": false,
          "internalType": "address",
          "name": "newModule",
          "type": "address"
        }
      ],
      "name": "MetadataModuleUpdated",
      "type": "event"
    },
    {
      "anonymous": false,
      "inputs": [
        {
          "indexed": false,
          "internalType": "address",
          "name": "newRenderer",
          "type": "address"
        }
      ],
      "name": "MetadataRendererUpdated",
      "type": "event"
    },
    {
      "anonymous": false,
      "inputs": [
        {
          "indexed": true,
          "internalType": "address",
          "name": "wrappedSong",
          "type": "address"
        },
        {
          "indexed": true,
          "internalType": "uint256",
          "name": "tokenId",
          "type": "uint256"
        },
        {
          "indexed": false,
          "internalType": "string",
          "name": "newMetadata",
          "type": "string"
        }
      ],
      "name": "MetadataUpdateRequested",
      "type": "event"
    },
    {
      "anonymous": false,
      "inputs": [
        {
          "indexed": true,
          "internalType": "address",
          "name": "wrappedSong",
          "type": "address"
        },
        {
          "indexed": true,
          "internalType": "uint256",
          "name": "tokenId",
          "type": "uint256"
        },
        {
          "indexed": false,
          "internalType": "string",
          "name": "newMetadata",
          "type": "string"
        }
      ],
      "name": "MetadataUpdated",
      "type": "event"
    },
    {
      "anonymous": false,
      "inputs": [
        {
          "indexed": true,
          "internalType": "address",
          "name": "owner",
          "type": "address"
        },
        {
          "indexed": true,
          "internalType": "address",
          "name": "wrappedSong",
          "type": "address"
        }
      ],
      "name": "OwnerWrappedSongAdded",
      "type": "event"
    },
    {
      "anonymous": false,
      "inputs": [
        {
          "indexed": true,
          "internalType": "address",
          "name": "previousOwner",
          "type": "address"
        },
        {
          "indexed": true,
          "internalType": "address",
          "name": "newOwner",
          "type": "address"
        }
      ],
      "name": "OwnershipTransferred",
      "type": "event"
    },
    {
      "anonymous": false,
      "inputs": [
        {
          "indexed": false,
          "internalType": "address",
          "name": "account",
          "type": "address"
        }
      ],
      "name": "Paused",
      "type": "event"
    },
    {
      "anonymous": false,
      "inputs": [
        {
          "indexed": false,
          "internalType": "bool",
          "name": "isPaused",
          "type": "bool"
        }
      ],
      "name": "Paused",
      "type": "event"
    },
    {
      "anonymous": false,
      "inputs": [
        {
          "indexed": false,
          "internalType": "bool",
          "name": "newPayInStablecoin",
          "type": "bool"
        }
      ],
      "name": "PayInStablecoinUpdated",
      "type": "event"
    },
    {
      "anonymous": false,
      "inputs": [
        {
          "indexed": false,
          "internalType": "uint256",
          "name": "newFee",
          "type": "uint256"
        }
      ],
      "name": "ReleaseFeeUpdated",
      "type": "event"
    },
    {
      "anonymous": false,
      "inputs": [
        {
          "indexed": false,
          "internalType": "bool",
          "name": "enabled",
          "type": "bool"
        }
      ],
      "name": "ReleasesEnabledChanged",
      "type": "event"
    },
    {
      "anonymous": false,
      "inputs": [
        {
          "indexed": false,
          "internalType": "uint256",
          "name": "newDays",
          "type": "uint256"
        }
      ],
      "name": "ReviewPeriodDaysUpdated",
      "type": "event"
    },
    {
      "anonymous": false,
      "inputs": [
        {
          "indexed": true,
          "internalType": "address",
          "name": "smartAccount",
          "type": "address"
        },
        {
          "indexed": true,
          "internalType": "address",
          "name": "wsToken",
          "type": "address"
        }
      ],
      "name": "SmartAccountToWSTokenMapped",
      "type": "event"
    },
    {
      "anonymous": false,
      "inputs": [
        {
          "indexed": false,
          "internalType": "uint256",
          "name": "newCreationFee",
          "type": "uint256"
        },
        {
          "indexed": false,
          "internalType": "uint256",
          "name": "newReleaseFee",
          "type": "uint256"
        }
      ],
      "name": "StableFeesUpdated",
      "type": "event"
    },
    {
      "anonymous": false,
      "inputs": [
        {
          "indexed": false,
          "internalType": "address",
          "name": "account",
          "type": "address"
        }
      ],
      "name": "Unpaused",
      "type": "event"
    },
    {
      "anonymous": false,
      "inputs": [
        {
          "indexed": false,
          "internalType": "uint256",
          "name": "newFee",
          "type": "uint256"
        }
      ],
      "name": "UpdateMetadataFeeUpdated",
      "type": "event"
    },
    {
      "anonymous": false,
      "inputs": [
        {
          "indexed": false,
          "internalType": "address",
          "name": "newManager",
          "type": "address"
        }
      ],
      "name": "WhitelistingManagerUpdated",
      "type": "event"
    },
    {
      "anonymous": false,
      "inputs": [
        {
          "indexed": false,
          "internalType": "uint256",
          "name": "newPercentage",
          "type": "uint256"
        }
      ],
      "name": "WithdrawalFeePercentageUpdated",
      "type": "event"
    },
    {
      "anonymous": false,
      "inputs": [
        {
          "indexed": true,
          "internalType": "address",
          "name": "wrappedSong",
          "type": "address"
        },
        {
          "indexed": false,
          "internalType": "bool",
          "name": "isAuthentic",
          "type": "bool"
        }
      ],
      "name": "WrappedSongAuthenticitySet",
      "type": "event"
    },
    {
      "anonymous": false,
      "inputs": [
        {
          "indexed": false,
          "internalType": "uint256",
          "name": "newFee",
          "type": "uint256"
        }
      ],
      "name": "WrappedSongCreationFeeUpdated",
      "type": "event"
    },
    {
      "inputs": [
        {
          "internalType": "address",
          "name": "",
          "type": "address"
        }
      ],
      "name": "authorizedContracts",
      "outputs": [
        {
          "internalType": "bool",
          "name": "",
          "type": "bool"
        }
      ],
      "stateMutability": "view",
      "type": "function"
    },
    {
      "inputs": [],
      "name": "baseURI",
      "outputs": [
        {
          "internalType": "string",
          "name": "",
          "type": "string"
        }
      ],
      "stateMutability": "view",
      "type": "function"
    },
    {
      "inputs": [],
      "name": "distributorWalletFactory",
      "outputs": [
        {
          "internalType": "contract IDistributorWalletFactory",
          "name": "",
          "type": "address"
        }
      ],
      "stateMutability": "view",
      "type": "function"
    },
    {
      "inputs": [],
      "name": "erc20whitelist",
      "outputs": [
        {
          "internalType": "contract IERC20Whitelist",
          "name": "",
          "type": "address"
        }
      ],
      "stateMutability": "view",
      "type": "function"
    },
    {
      "inputs": [],
      "name": "getBaseURI",
      "outputs": [
        {
          "internalType": "string",
          "name": "",
          "type": "string"
        }
      ],
      "stateMutability": "view",
      "type": "function"
    },
    {
      "inputs": [],
      "name": "getLegalContractMetadata",
      "outputs": [
        {
          "internalType": "address",
          "name": "",
          "type": "address"
        }
      ],
      "stateMutability": "view",
      "type": "function"
    },
    {
      "inputs": [],
      "name": "getMetadataModule",
      "outputs": [
        {
          "internalType": "address",
          "name": "",
          "type": "address"
        }
      ],
      "stateMutability": "view",
      "type": "function"
    },
    {
      "inputs": [
        {
          "internalType": "address",
          "name": "owner",
          "type": "address"
        }
      ],
      "name": "getOwnerWrappedSongs",
      "outputs": [
        {
          "internalType": "address[]",
          "name": "",
          "type": "address[]"
        }
      ],
      "stateMutability": "view",
      "type": "function"
    },
    {
      "inputs": [],
      "name": "getRegistryModule",
      "outputs": [
        {
          "internalType": "address",
          "name": "",
          "type": "address"
        }
      ],
      "stateMutability": "view",
      "type": "function"
    },
    {
      "inputs": [],
      "name": "getStablecoinFeeReceiver",
      "outputs": [
        {
          "internalType": "address",
          "name": "",
          "type": "address"
        }
      ],
      "stateMutability": "view",
      "type": "function"
    },
    {
      "inputs": [
        {
          "internalType": "address",
          "name": "_contractAddress",
          "type": "address"
        }
      ],
      "name": "isAuthorizedContract",
      "outputs": [
        {
          "internalType": "bool",
          "name": "",
          "type": "bool"
        }
      ],
      "stateMutability": "view",
      "type": "function"
    },
    {
      "inputs": [
        {
          "internalType": "address",
          "name": "token",
          "type": "address"
        }
      ],
      "name": "isTokenWhitelisted",
      "outputs": [
        {
          "internalType": "bool",
          "name": "",
          "type": "bool"
        }
      ],
      "stateMutability": "view",
      "type": "function"
    },
    {
      "inputs": [
        {
          "internalType": "address",
          "name": "creator",
          "type": "address"
        }
      ],
      "name": "isValidToCreateWrappedSong",
      "outputs": [
        {
          "internalType": "bool",
          "name": "",
          "type": "bool"
        }
      ],
      "stateMutability": "view",
      "type": "function"
    },
    {
      "inputs": [
        {
          "internalType": "address",
          "name": "wsTokenManagement",
          "type": "address"
        }
      ],
      "name": "isWSTokenFromProtocol",
      "outputs": [
        {
          "internalType": "bool",
          "name": "",
          "type": "bool"
        }
      ],
      "stateMutability": "view",
      "type": "function"
    },
    {
      "inputs": [],
      "name": "legalContractMetadata",
      "outputs": [
        {
          "internalType": "contract ILegalContractMetadata",
          "name": "",
          "type": "address"
        }
      ],
      "stateMutability": "view",
      "type": "function"
    },
    {
      "inputs": [],
      "name": "maxSaleDuration",
      "outputs": [
        {
          "internalType": "uint256",
          "name": "",
          "type": "uint256"
        }
      ],
      "stateMutability": "view",
      "type": "function"
    },
    {
      "inputs": [],
      "name": "metadataModule",
      "outputs": [
        {
          "internalType": "contract IMetadataModule",
          "name": "",
          "type": "address"
        }
      ],
      "stateMutability": "view",
      "type": "function"
    },
    {
      "inputs": [],
      "name": "metadataRenderer",
      "outputs": [
        {
          "internalType": "contract IMetadataRenderer",
          "name": "",
          "type": "address"
        }
      ],
      "stateMutability": "view",
      "type": "function"
    },
    {
      "inputs": [],
      "name": "owner",
      "outputs": [
        {
          "internalType": "address",
          "name": "",
          "type": "address"
        }
      ],
      "stateMutability": "view",
      "type": "function"
    },
    {
      "inputs": [
        {
          "internalType": "address",
          "name": "",
          "type": "address"
        },
        {
          "internalType": "uint256",
          "name": "",
          "type": "uint256"
        }
      ],
      "name": "ownerWrappedSongs",
      "outputs": [
        {
          "internalType": "address",
          "name": "",
          "type": "address"
        }
      ],
      "stateMutability": "view",
      "type": "function"
    },
    {
      "inputs": [],
      "name": "pause",
      "outputs": [],
      "stateMutability": "nonpayable",
      "type": "function"
    },
    {
      "inputs": [],
      "name": "paused",
      "outputs": [
        {
          "internalType": "bool",
          "name": "",
          "type": "bool"
        }
      ],
      "stateMutability": "view",
      "type": "function"
    },
    {
      "inputs": [],
      "name": "registryModule",
      "outputs": [
        {
          "internalType": "contract IRegistryModule",
          "name": "",
          "type": "address"
        }
      ],
      "stateMutability": "view",
      "type": "function"
    },
    {
      "inputs": [
        {
          "internalType": "address",
          "name": "token",
          "type": "address"
        }
      ],
      "name": "removeTokenFromWhitelist",
      "outputs": [],
      "stateMutability": "nonpayable",
      "type": "function"
    },
    {
      "inputs": [
        {
          "components": [
            {
              "internalType": "string",
              "name": "name",
              "type": "string"
            },
            {
              "internalType": "string",
              "name": "description",
              "type": "string"
            },
            {
              "internalType": "string",
              "name": "image",
              "type": "string"
            },
            {
              "internalType": "string",
              "name": "externalUrl",
              "type": "string"
            },
            {
              "internalType": "string",
              "name": "animationUrl",
              "type": "string"
            },
            {
              "internalType": "string",
              "name": "attributesIpfsHash",
              "type": "string"
            }
          ],
          "internalType": "struct IMetadataModule.Metadata",
          "name": "metadata",
          "type": "tuple"
        }
      ],
      "name": "renderContractURI",
      "outputs": [
        {
          "internalType": "string",
          "name": "",
          "type": "string"
        }
      ],
      "stateMutability": "view",
      "type": "function"
    },
    {
      "inputs": [
        {
          "components": [
            {
              "internalType": "string",
              "name": "name",
              "type": "string"
            },
            {
              "internalType": "string",
              "name": "description",
              "type": "string"
            },
            {
              "internalType": "string",
              "name": "image",
              "type": "string"
            },
            {
              "internalType": "string",
              "name": "externalUrl",
              "type": "string"
            },
            {
              "internalType": "string",
              "name": "animationUrl",
              "type": "string"
            },
            {
              "internalType": "string",
              "name": "attributesIpfsHash",
              "type": "string"
            }
          ],
          "internalType": "struct IMetadataModule.Metadata",
          "name": "metadata",
          "type": "tuple"
        },
        {
          "internalType": "uint256",
          "name": "tokenId",
          "type": "uint256"
        },
        {
          "internalType": "address",
          "name": "wrappedSong",
          "type": "address"
        }
      ],
      "name": "renderTokenURI",
      "outputs": [
        {
          "internalType": "string",
          "name": "",
          "type": "string"
        }
      ],
      "stateMutability": "view",
      "type": "function"
    },
    {
      "inputs": [],
      "name": "renounceOwnership",
      "outputs": [],
      "stateMutability": "nonpayable",
      "type": "function"
    },
    {
      "inputs": [
        {
          "internalType": "address",
          "name": "_contractAddress",
          "type": "address"
        },
        {
          "internalType": "bool",
          "name": "_isAuthorized",
          "type": "bool"
        }
      ],
      "name": "setAuthorizedContract",
      "outputs": [],
      "stateMutability": "nonpayable",
      "type": "function"
    },
    {
      "inputs": [
        {
          "internalType": "string",
          "name": "_baseURI",
          "type": "string"
        }
      ],
      "name": "setBaseURI",
      "outputs": [],
      "stateMutability": "nonpayable",
      "type": "function"
    },
    {
      "inputs": [
        {
          "internalType": "address",
          "name": "_newFactory",
          "type": "address"
        }
      ],
      "name": "setDistributorWalletFactory",
      "outputs": [],
      "stateMutability": "nonpayable",
      "type": "function"
    },
    {
      "inputs": [
        {
          "internalType": "address",
          "name": "_erc20whitelist",
          "type": "address"
        }
      ],
      "name": "setERC20Whitelist",
      "outputs": [],
      "stateMutability": "nonpayable",
      "type": "function"
    },
    {
      "inputs": [
        {
          "internalType": "address",
          "name": "_legalContractMetadata",
          "type": "address"
        }
      ],
      "name": "setLegalContractMetadata",
      "outputs": [],
      "stateMutability": "nonpayable",
      "type": "function"
    },
    {
      "inputs": [
        {
          "internalType": "uint256",
          "name": "_duration",
          "type": "uint256"
        }
      ],
      "name": "setMaxSaleDuration",
      "outputs": [],
      "stateMutability": "nonpayable",
      "type": "function"
    },
    {
      "inputs": [
        {
          "internalType": "address",
          "name": "_metadataModule",
          "type": "address"
        }
      ],
      "name": "setMetadataModule",
      "outputs": [],
      "stateMutability": "nonpayable",
      "type": "function"
    },
    {
      "inputs": [
        {
          "internalType": "address",
          "name": "_renderer",
          "type": "address"
        }
      ],
      "name": "setMetadataRenderer",
      "outputs": [],
      "stateMutability": "nonpayable",
      "type": "function"
    },
    {
      "inputs": [
        {
          "internalType": "address",
          "name": "owner",
          "type": "address"
        },
        {
          "internalType": "address",
          "name": "wrappedSong",
          "type": "address"
        }
      ],
      "name": "setOwnerWrappedSong",
      "outputs": [],
      "stateMutability": "nonpayable",
      "type": "function"
    },
    {
      "inputs": [
        {
          "internalType": "address",
          "name": "_registryModule",
          "type": "address"
        }
      ],
      "name": "setRegistryModule",
      "outputs": [],
      "stateMutability": "nonpayable",
      "type": "function"
    },
    {
      "inputs": [
        {
          "internalType": "address",
          "name": "smartAccount",
          "type": "address"
        },
        {
          "internalType": "address",
          "name": "wsToken",
          "type": "address"
        }
      ],
      "name": "setSmartAccountToWSToken",
      "outputs": [],
      "stateMutability": "nonpayable",
      "type": "function"
    },
    {
      "inputs": [
        {
          "internalType": "address",
          "name": "_stablecoinFeeReceiver",
          "type": "address"
        }
      ],
      "name": "setStablecoinFeeReceiver",
      "outputs": [],
      "stateMutability": "nonpayable",
      "type": "function"
    },
    {
      "inputs": [
        {
          "internalType": "address",
          "name": "wsTokenManagement",
          "type": "address"
        }
      ],
      "name": "setWSTokenFromProtocol",
      "outputs": [],
      "stateMutability": "nonpayable",
      "type": "function"
    },
    {
      "inputs": [
        {
          "internalType": "address",
          "name": "_whitelistingManager",
          "type": "address"
        }
      ],
      "name": "setWhitelistingManager",
      "outputs": [],
      "stateMutability": "nonpayable",
      "type": "function"
    },
    {
      "inputs": [
        {
          "internalType": "address",
          "name": "_wrappedSongFactory",
          "type": "address"
        }
      ],
      "name": "setWrappedSongFactory",
      "outputs": [],
      "stateMutability": "nonpayable",
      "type": "function"
    },
    {
      "inputs": [
        {
          "internalType": "address",
          "name": "",
          "type": "address"
        }
      ],
      "name": "smartAccountToWSToken",
      "outputs": [
        {
          "internalType": "address",
          "name": "",
          "type": "address"
        }
      ],
      "stateMutability": "view",
      "type": "function"
    },
    {
      "inputs": [],
      "name": "stablecoinFeeReceiver",
      "outputs": [
        {
          "internalType": "address",
          "name": "",
          "type": "address"
        }
      ],
      "stateMutability": "view",
      "type": "function"
    },
    {
      "inputs": [
        {
          "internalType": "address",
          "name": "newOwner",
          "type": "address"
        }
      ],
      "name": "transferOwnership",
      "outputs": [],
      "stateMutability": "nonpayable",
      "type": "function"
    },
    {
      "inputs": [],
      "name": "unpause",
      "outputs": [],
      "stateMutability": "nonpayable",
      "type": "function"
    },
    {
      "inputs": [
        {
          "internalType": "address",
          "name": "token",
          "type": "address"
        }
      ],
      "name": "whitelistToken",
      "outputs": [],
      "stateMutability": "nonpayable",
      "type": "function"
    },
    {
      "inputs": [],
      "name": "whitelistingManager",
      "outputs": [
        {
          "internalType": "contract IWhitelistingManager",
          "name": "",
          "type": "address"
        }
      ],
      "stateMutability": "view",
      "type": "function"
    },
    {
      "inputs": [],
      "name": "wrappedSongFactory",
      "outputs": [
        {
          "internalType": "contract IWrappedSongFactory",
          "name": "",
          "type": "address"
        }
      ],
      "stateMutability": "view",
      "type": "function"
    },
    {
      "inputs": [],
      "name": "wrappedSongFactoryAddress",
      "outputs": [
        {
          "internalType": "address",
          "name": "",
          "type": "address"
        }
      ],
      "stateMutability": "view",
      "type": "function"
    },
    {
      "stateMutability": "payable",
      "type": "receive"
    }
  ],
  "bytecode": "0x6080346200014f57601f62001ba638819003918201601f19168301916001600160401b03831184841017620001545780849260a0946040528339810103126200014f576200004d816200016a565b6200005b602083016200016a565b62000069604084016200016a565b906200008660806200007e606087016200016a565b95016200016a565b9033156200013657600054946040519560018060a01b03948580948193338382167f8be0079c531659141344cd1fd0a4f28419497f9722a3daafe3b4186f6b6457e0600080a360ff60a01b1933169060018060a81b031916176000556001805562278d00600f558160018060a01b031999168960065416176006551687600754161760075516856008541617600855168360095416176009551690600a541617600a55611a269081620001808239f35b604051631e4fbdf760e01b815260006004820152602490fd5b600080fd5b634e487b7160e01b600052604160045260246000fd5b51906001600160a01b03821682036200014f5756fe60406080815260048036101561001f575b5050361561001d57600080fd5b005b600091823560e01c806208ac83146113f6578063088b95541461107b57806309da4e51146113cd5780630b1b745e146113925780630c5d8da1146113695780631c8370cb14610a205780632fb92c5a146112db5780632fda23b7146111a7578063306275be1461111a578063358d96ab146110a45780633684d1001461107b57806337d7d54214610fd15780633cd7bc95146107325780633f4ba83a14610f6357806346d5397c14610b6a5780634da6840a14610f0a578063533761fe14610e7357806355f804b314610ce75780635c975abb14610cc25780635fd6102014610c34578381636247f6f214610b925750806362f0bdde14610b6a57806366d0ead3146106f45780636c0360eb14610ac55780636cf563a414610b2c5780637031997014610b03578063714c539814610ac5578063715018a614610a68578063723ff2a214610a4957806377191a6e1461067e57806381b539b814610a205780638456cb59146109c15780638da5cb5b14610999578063a4198fa214610923578063a951583b146108ad578063ac581b3a14610884578063b5af090f14610825578063c7acd8fb1461075b578063ce1a52d214610732578063d5b9221b146106f4578063d9ce7b95146106a7578063dbd15d531461067e578063e482936914610608578063ec691a5914610592578063eefeb7bc14610551578063f140b55f146104b8578063f2fa73921461045e578063f2fde38b146103d2578063fd4fe8a81461031e5763ff4884f8146102535750610010565b3461031a578060031936011261031a5761026b6114ce565b916102746114e9565b9061027d611806565b6005546001600160a01b0394859161029890831633146118a2565b169283865260026020528520805491680100000000000000008310156103075750816102ca91600187940181556116ce565b949092169382549060031b9185831b921b19161790557f4cda7c30666ce0c5304ba2d323cdee5f647baac385d8e0cb2f706641c95043af8380a380f35b634e487b7160e01b875260419052602486fd5b8280fd5b503461031a57602036600319011261031a576103386114ce565b6103406117da565b6001600160a01b03169182156103905750600e80546001600160a01b03191683179055519081527f60a886c8dc324af9c6d6a1bf7369ffe7557ef345eb5717bceffb59beac879a0a90602090a180f35b6020606492519162461bcd60e51b8352820152601860248201527f496e76616c69642072656e6465726572206164647265737300000000000000006044820152fd5b50903461031a57602036600319011261031a576103ed6114ce565b906103f66117da565b6001600160a01b03918216928315610448575050600054826001600160601b0360a01b821617600055167f8be0079c531659141344cd1fd0a4f28419497f9722a3daafe3b4186f6b6457e0600080a380f35b51631e4fbdf760e01b8152908101849052602490fd5b8382346104b457806003193601126104b4576104786114ce565b90602435918215158093036104b05761048f6117da565b60018060a01b03168352600c60205282209060ff8019835416911617905580f35b8380fd5b5080fd5b503461031a57602036600319011261031a5760206104d46114ce565b600754835163f140b55f60e01b81526001600160a01b039283169581019590955284916024918391165afa9182156105475760209392610518575b50519015158152f35b610539919250833d8111610540575b6105318183611529565b8101906118f8565b903861050f565b503d610527565b81513d85823e3d90fd5b5050346104b45760203660031901126104b45761056c6114ce565b6105746117da565b81546001600160a01b0319166001600160a01b039190911617905580f35b8382346104b45760203660031901126104b45760207fa01edaa3cd8a419b7bb45b34f35e84da238af9490eca1b318cb579f3179e29e4916105d16114ce565b6105d96117da565b6001600160a01b0316906105ee821515611864565b600a80546001600160a01b0319168317905551908152a180f35b8382346104b45760203660031901126104b45760207fcede453a12a109bc98cf30c47be25a27dcd045508461cc9e9669a0185b648b89916106476114ce565b61064f6117da565b6001600160a01b031690610664821515611864565b600880546001600160a01b0319168317905551908152a180f35b8382346104b457816003193601126104b457600a5490516001600160a01b039091168152602090f35b8382346104b45760203660031901126104b4576106c26114ce565b6005546001600160a01b0391906106dc90831633146118a2565b168252600d6020528120805460ff1916600117905580f35b8382346104b45760203660031901126104b45760209160ff9082906001600160a01b0361071f6114ce565b168152600c855220541690519015158152f35b8382346104b457816003193601126104b457600b5490516001600160a01b039091168152602090f35b503461031a5782600319926020843601126104b45780359367ffffffffffffffff851161031a57836107936107c396369085016115ae565b926107d260018060a01b03600e54169383519889968795869563d413a11560e01b87528601526044850190611972565b90838203016024840152611736565b03915afa91821561054757836107fc9493610800575b5050519182916020835260208301906116a9565b0390f35b61081d9293503d8091833e6108158183611529565b810190611910565b9038806107e8565b503461031a57602036600319011261031a5760206108416114ce565b600854835163b5af090f60e01b81526001600160a01b039283169581019590955284916024918391165afa91821561054757602093926105185750519015158152f35b8382346104b457816003193601126104b45760075490516001600160a01b039091168152602090f35b8382346104b45760203660031901126104b45760207f39a2470dcb92def89f4d008f638ab6d63ac78547bf3d6ccfebf542711a0503c7916108ec6114ce565b6108f46117da565b6001600160a01b031690610909821515611864565b600780546001600160a01b0319168317905551908152a180f35b8382346104b45760203660031901126104b45760207f12e10e0acd0f94fc9b2d033a01586c1255f1d396a6a2ce1c02cc9fca05774458916109626114ce565b61096a6117da565b6001600160a01b03169061097f821515611864565b600980546001600160a01b0319168317905551908152a180f35b8382346104b457816003193601126104b457905490516001600160a01b039091168152602090f35b8382346104b457816003193601126104b45760207f62e78cea01bee320cd4e420270b5ea74000d11b0c9f74754ebdbfc544b05a258916109ff6117da565b610a07611806565b835460ff60a01b1916600160a01b17845551338152a180f35b8382346104b457816003193601126104b45760055490516001600160a01b039091168152602090f35b8382346104b457816003193601126104b457602090600f549051908152f35b8334610ac25780600319360112610ac257610a816117da565b600080546001600160a01b0319811682556001600160a01b03167f8be0079c531659141344cd1fd0a4f28419497f9722a3daafe3b4186f6b6457e08280a380f35b80fd5b8382346104b457816003193601126104b45780516107fc91610af182610aea81611736565b0383611529565b519182916020835260208301906116a9565b8382346104b457816003193601126104b457600e5490516001600160a01b039091168152602090f35b8382346104b45760203660031901126104b45760209160ff9082906001600160a01b03610b576114ce565b168152600d855220541690519015158152f35b50903461031a578260031936011261031a575490516001600160a01b03909116815260209150f35b80848434610c30576020366003190112610c3057610bae6114ce565b83546001600160a01b0390811633148015610c23575b610bcd90611827565b8060085416803b15610c1f5785928360249286519788958694633123fb7960e11b865216908401525af1908115610c165750610c065750f35b610c0f906114ff565b610ac25780f35b513d84823e3d90fd5b8580fd5b5060085481163314610bc4565b5050fd5b50903461031a57602036600319011261031a57610c4f6114ce565b610c576117da565b6001600160a01b0316918215610c7f5750506001600160601b0360a01b600b541617600b5580f35b906020606492519162461bcd60e51b8352820152601e60248201527f496e76616c69642072656769737472794d6f64756c65206164647265737300006044820152fd5b8382346104b457816003193601126104b45760ff6020925460a01c1690519015158152f35b828434610ac2576020806003193601126104b45767ffffffffffffffff9083358281116104b057610d1b9036908601611567565b93610d246117da565b8451928311610e605750610d396010546116fc565b601f8111610dfe575b5080601f8311600114610d7d57508293829392610d72575b50508160011b916000199060031b1c19161760105580f35b015190508380610d5a565b60108452601f198316947f1b6847dc741a1b0cd08d278845f9d819d87b734759afb55fe2de5cb82a9ae672929185905b878210610de6575050836001959610610dcd575b505050811b0160105580f35b015160001960f88460031b161c19169055838080610dc1565b80600185968294968601518155019501930190610dad565b601084527f1b6847dc741a1b0cd08d278845f9d819d87b734759afb55fe2de5cb82a9ae672601f840160051c810191838510610e56575b601f0160051c01905b818110610e4b5750610d42565b848155600101610e3e565b9091508190610e35565b634e487b7160e01b845260419052602483fd5b503461031a57602036600319011261031a57813591610e906117da565b8215610ec85750816020917f7be9264fd4bacf6ffdd1cbfbe4fb3751923b2540828adf64102e4f5b096a7fe593600f5551908152a180f35b6020606492519162461bcd60e51b8352820152601f60248201527f4475726174696f6e206d7573742062652067726561746572207468616e2030006044820152fd5b8382346104b457806003193601126104b457610f246114ce565b6001600160a01b039081168352600260205281832080546024359490851015610ac25750602093610f54916116ce565b92905490519260031b1c168152f35b50903461031a578260031936011261031a57610f7d6117da565b82549060ff8260a01c1615610fc3575060ff60a01b19168255513381527f5db9ee0a495bf2e6ff9c91a7834c1ba4fdd244a5e8aa4e537bd38aeae4b073aa90602090a180f35b8251638dfc202b60e01b8152fd5b8382346104b45760208060031936011261031a576001600160a01b039283610ff76114ce565b1681526002825282812091835190818185549182815201908195855282852090855b818110611065575050508261102f910383611529565b8451948186019282875251809352850193925b82811061104f5785850386f35b8351871685529381019392810192600101611042565b82548a1684529284019260019283019201611019565b8382346104b457816003193601126104b45760095490516001600160a01b039091168152602090f35b8382346104b45760203660031901126104b45760207f820c11a553e3f58735f11b502c4c13b5bdaad97e61b6fe3bafe7eaf4e09e94de916110e36114ce565b6110eb6117da565b6001600160a01b031690611100821515611864565b600680546001600160a01b0319168317905551908152a180f35b503461031a57602036600319011261031a57826111356114ce565b81546001600160a01b03919082163314801561119a575b61115590611827565b816008541690813b156104b05783602492865197889586946318313adf60e11b865216908401525af1908115610c16575061118e575080f35b611197906114ff565b80f35b506008548216331461114c565b509190346104b45760031960603682011261031a57813567ffffffffffffffff81116104b0576111da90369084016115ae565b916044356001600160a01b0381811691829003610c1f5780600954163303611298579260a0869361124c61123097948a97600e5416948851998a978896879663350f69b160e11b885287015260a4860190611972565b9160243560248601526044850152838203016064840152611736565b30608483015203915afa91821561054757836107fc949361127b575050519182916020835260208301906116a9565b6112909293503d8091833e6108158183611529565b9083806107e8565b865162461bcd60e51b8152602081850152601f60248201527f4f6e6c79206d65746164617461206d6f64756c652063616e2072656e646572006044820152606490fd5b50903461031a57602036600319011261031a576112f66114ce565b6112fe6117da565b6001600160a01b03169182156113265750506001600160601b0360a01b600554161760055580f35b906020606492519162461bcd60e51b8352820152601760248201527f496e76616c696420666163746f727920616464726573730000000000000000006044820152fd5b8382346104b457816003193601126104b45760065490516001600160a01b039091168152602090f35b8382346104b45760203660031901126104b4576020916001600160a01b03908290826113bc6114ce565b168152600385522054169051908152f35b8382346104b457816003193601126104b45760085490516001600160a01b039091168152602090f35b503461031a578060031936011261031a5761140f6114ce565b916114186114e9565b92611421611806565b6005546001600160a01b03929083163303611480575081169182855260036020528420921691826001600160601b0360a01b8254161790557f48e8ef3819015e9b1e8d36ddbbbc8cefc90dba7f69b711bdca0c9a10b63b037f8380a380f35b608490602085519162461bcd60e51b8352820152602260248201527f4f6e6c7920666163746f72792063616e2073657420746f6b656e206d617070696044820152616e6760f01b6064820152fd5b600435906001600160a01b03821682036114e457565b600080fd5b602435906001600160a01b03821682036114e457565b67ffffffffffffffff811161151357604052565b634e487b7160e01b600052604160045260246000fd5b90601f8019910116810190811067ffffffffffffffff82111761151357604052565b67ffffffffffffffff811161151357601f01601f191660200190565b81601f820112156114e45780359061157e8261154b565b9261158c6040519485611529565b828452602083830101116114e457816000926020809301838601378301015290565b91909160c0818403126114e4576040519067ffffffffffffffff9060c083018281118482101761151357604052829481358381116114e457816115f2918401611567565b845260208201358381116114e4578161160c918401611567565b602085015260408201358381116114e45781611629918401611567565b604085015260608201358381116114e45781611646918401611567565b606085015260808201358381116114e45781611663918401611567565b608085015260a08201359283116114e45760a0926116819201611567565b910152565b60005b8381106116995750506000910152565b8181015183820152602001611689565b906020916116c281518092818552858086019101611686565b601f01601f1916010190565b80548210156116e65760005260206000200190600090565b634e487b7160e01b600052603260045260246000fd5b90600182811c9216801561172c575b602083101461171657565b634e487b7160e01b600052602260045260246000fd5b91607f169161170b565b60105460009291611746826116fc565b808252916001908181169081156117bd575060011461176457505050565b9192935060106000527f1b6847dc741a1b0cd08d278845f9d819d87b734759afb55fe2de5cb82a9ae672916000925b8484106117a557505060209250010190565b80546020858501810191909152909301928101611793565b915050602093945060ff929192191683830152151560051b010190565b6000546001600160a01b031633036117ee57565b60405163118cdaa760e01b8152336004820152602490fd5b60ff60005460a01c1661181557565b60405163d93c066560e01b8152600490fd5b1561182e57565b60405162461bcd60e51b815260206004820152600e60248201526d139bdd08185d5d1a1bdc9a5e995960921b6044820152606490fd5b1561186b57565b60405162461bcd60e51b815260206004820152600f60248201526e496e76616c6964206164647265737360881b6044820152606490fd5b156118a957565b60405162461bcd60e51b815260206004820152602160248201527f4f6e6c7920666163746f72792063616e20616464207772617070656420736f6e6044820152606760f81b6064820152608490fd5b908160209103126114e4575180151581036114e45790565b6020818303126114e45780519067ffffffffffffffff82116114e4570181601f820112156114e45780516119438161154b565b926119516040519485611529565b818452602082840101116114e45761196f9160208085019101611686565b90565b61196f9160a06119df6119cd6119bb6119a9611997875160c0885260c08801906116a9565b602088015187820360208901526116a9565b604087015186820360408801526116a9565b606086015185820360608701526116a9565b608085015184820360808601526116a9565b9201519060a08184039101526116a956fea2646970667358221220dd0632f65371c913ad54c3b5b01b879e5a944334dce4b1c2eced37b41fcae52464736f6c63430008140033",
  "linkReferences": {},
  "deployedLinkReferences": {}
}