{
  "_format": "hh-sol-artifact-1",
  "contractName": "ProtocolModule",
  "sourceName": "contracts/protocol/NonUpgradable/ProtocolModule.sol",
  "abi": [
    {
      "inputs": [
        {
          "internalType": "address",
          "name": "_distributorWalletFactory",
          "type": "address"
        },
        {
          "internalType": "address",
          "name": "_whitelistingManager",
          "type": "address"
        },
        {
          "internalType": "address",
          "name": "_erc20whitelist",
          "type": "address"
        },
        {
          "internalType": "address",
          "name": "_metadataModule",
          "type": "address"
        },
        {
          "internalType": "address",
          "name": "_legalContractMetadata",
          "type": "address"
        }
      ],
      "stateMutability": "nonpayable",
      "type": "constructor"
    },
    {
      "inputs": [],
      "name": "EnforcedPause",
      "type": "error"
    },
    {
      "inputs": [],
      "name": "ExpectedPause",
      "type": "error"
    },
    {
      "inputs": [
        {
          "internalType": "address",
          "name": "owner",
          "type": "address"
        }
      ],
      "name": "OwnableInvalidOwner",
      "type": "error"
    },
    {
      "inputs": [
        {
          "internalType": "address",
          "name": "account",
          "type": "address"
        }
      ],
      "name": "OwnableUnauthorizedAccount",
      "type": "error"
    },
    {
      "inputs": [],
      "name": "ReentrancyGuardReentrantCall",
      "type": "error"
    },
    {
      "anonymous": false,
      "inputs": [
        {
          "indexed": false,
          "internalType": "uint256",
          "name": "newFee",
          "type": "uint256"
        }
      ],
      "name": "DistributorCreationFeeUpdated",
      "type": "event"
    },
    {
      "anonymous": false,
      "inputs": [
        {
          "indexed": false,
          "internalType": "address",
          "name": "newFactory",
          "type": "address"
        }
      ],
      "name": "DistributorWalletFactoryUpdated",
      "type": "event"
    },
    {
      "anonymous": false,
      "inputs": [
        {
          "indexed": false,
          "internalType": "address",
          "name": "newWhitelist",
          "type": "address"
        }
      ],
      "name": "ERC20WhitelistUpdated",
      "type": "event"
    },
    {
      "anonymous": false,
      "inputs": [
        {
          "indexed": true,
          "internalType": "address",
          "name": "wrappedSong",
          "type": "address"
        },
        {
          "indexed": false,
          "internalType": "string",
          "name": "registryType",
          "type": "string"
        },
        {
          "indexed": false,
          "internalType": "string",
          "name": "value",
          "type": "string"
        }
      ],
      "name": "IdentityRegistryUpdated",
      "type": "event"
    },
    {
      "anonymous": false,
      "inputs": [
        {
          "indexed": false,
          "internalType": "address",
          "name": "newContract",
          "type": "address"
        }
      ],
      "name": "LegalContractMetadataUpdated",
      "type": "event"
    },
    {
      "anonymous": false,
      "inputs": [
        {
          "indexed": false,
          "internalType": "uint256",
          "name": "newDuration",
          "type": "uint256"
        }
      ],
      "name": "MaxSaleDurationUpdated",
      "type": "event"
    },
    {
      "anonymous": false,
      "inputs": [
        {
          "indexed": false,
          "internalType": "address",
          "name": "newModule",
          "type": "address"
        }
      ],
      "name": "MetadataModuleUpdated",
      "type": "event"
    },
    {
      "anonymous": false,
      "inputs": [
        {
          "indexed": false,
          "internalType": "address",
          "name": "newRenderer",
          "type": "address"
        }
      ],
      "name": "MetadataRendererUpdated",
      "type": "event"
    },
    {
      "anonymous": false,
      "inputs": [
        {
          "indexed": true,
          "internalType": "address",
          "name": "wrappedSong",
          "type": "address"
        },
        {
          "indexed": true,
          "internalType": "uint256",
          "name": "tokenId",
          "type": "uint256"
        },
        {
          "indexed": false,
          "internalType": "string",
          "name": "newMetadata",
          "type": "string"
        }
      ],
      "name": "MetadataUpdateRequested",
      "type": "event"
    },
    {
      "anonymous": false,
      "inputs": [
        {
          "indexed": true,
          "internalType": "address",
          "name": "wrappedSong",
          "type": "address"
        },
        {
          "indexed": true,
          "internalType": "uint256",
          "name": "tokenId",
          "type": "uint256"
        },
        {
          "indexed": false,
          "internalType": "string",
          "name": "newMetadata",
          "type": "string"
        }
      ],
      "name": "MetadataUpdated",
      "type": "event"
    },
    {
      "anonymous": false,
      "inputs": [
        {
          "indexed": true,
          "internalType": "address",
          "name": "owner",
          "type": "address"
        },
        {
          "indexed": true,
          "internalType": "address",
          "name": "wrappedSong",
          "type": "address"
        }
      ],
      "name": "OwnerWrappedSongAdded",
      "type": "event"
    },
    {
      "anonymous": false,
      "inputs": [
        {
          "indexed": true,
          "internalType": "address",
          "name": "previousOwner",
          "type": "address"
        },
        {
          "indexed": true,
          "internalType": "address",
          "name": "newOwner",
          "type": "address"
        }
      ],
      "name": "OwnershipTransferred",
      "type": "event"
    },
    {
      "anonymous": false,
      "inputs": [
        {
          "indexed": false,
          "internalType": "address",
          "name": "account",
          "type": "address"
        }
      ],
      "name": "Paused",
      "type": "event"
    },
    {
      "anonymous": false,
      "inputs": [
        {
          "indexed": false,
          "internalType": "bool",
          "name": "isPaused",
          "type": "bool"
        }
      ],
      "name": "Paused",
      "type": "event"
    },
    {
      "anonymous": false,
      "inputs": [
        {
          "indexed": false,
          "internalType": "bool",
          "name": "newPayInStablecoin",
          "type": "bool"
        }
      ],
      "name": "PayInStablecoinUpdated",
      "type": "event"
    },
    {
      "anonymous": false,
      "inputs": [
        {
          "indexed": false,
          "internalType": "uint256",
          "name": "newFee",
          "type": "uint256"
        }
      ],
      "name": "ReleaseFeeUpdated",
      "type": "event"
    },
    {
      "anonymous": false,
      "inputs": [
        {
          "indexed": false,
          "internalType": "bool",
          "name": "enabled",
          "type": "bool"
        }
      ],
      "name": "ReleasesEnabledChanged",
      "type": "event"
    },
    {
      "anonymous": false,
      "inputs": [
        {
          "indexed": false,
          "internalType": "uint256",
          "name": "newDays",
          "type": "uint256"
        }
      ],
      "name": "ReviewPeriodDaysUpdated",
      "type": "event"
    },
    {
      "anonymous": false,
      "inputs": [
        {
          "indexed": true,
          "internalType": "address",
          "name": "smartAccount",
          "type": "address"
        },
        {
          "indexed": true,
          "internalType": "address",
          "name": "wsToken",
          "type": "address"
        }
      ],
      "name": "SmartAccountToWSTokenMapped",
      "type": "event"
    },
    {
      "anonymous": false,
      "inputs": [
        {
          "indexed": false,
          "internalType": "uint256",
          "name": "newCreationFee",
          "type": "uint256"
        },
        {
          "indexed": false,
          "internalType": "uint256",
          "name": "newReleaseFee",
          "type": "uint256"
        }
      ],
      "name": "StableFeesUpdated",
      "type": "event"
    },
    {
      "anonymous": false,
      "inputs": [
        {
          "indexed": false,
          "internalType": "address",
          "name": "account",
          "type": "address"
        }
      ],
      "name": "Unpaused",
      "type": "event"
    },
    {
      "anonymous": false,
      "inputs": [
        {
          "indexed": false,
          "internalType": "uint256",
          "name": "newFee",
          "type": "uint256"
        }
      ],
      "name": "UpdateMetadataFeeUpdated",
      "type": "event"
    },
    {
      "anonymous": false,
      "inputs": [
        {
          "indexed": false,
          "internalType": "address",
          "name": "newManager",
          "type": "address"
        }
      ],
      "name": "WhitelistingManagerUpdated",
      "type": "event"
    },
    {
      "anonymous": false,
      "inputs": [
        {
          "indexed": false,
          "internalType": "uint256",
          "name": "newPercentage",
          "type": "uint256"
        }
      ],
      "name": "WithdrawalFeePercentageUpdated",
      "type": "event"
    },
    {
      "anonymous": false,
      "inputs": [
        {
          "indexed": true,
          "internalType": "address",
          "name": "wrappedSong",
          "type": "address"
        },
        {
          "indexed": false,
          "internalType": "bool",
          "name": "isAuthentic",
          "type": "bool"
        }
      ],
      "name": "WrappedSongAuthenticitySet",
      "type": "event"
    },
    {
      "anonymous": false,
      "inputs": [
        {
          "indexed": false,
          "internalType": "uint256",
          "name": "newFee",
          "type": "uint256"
        }
      ],
      "name": "WrappedSongCreationFeeUpdated",
      "type": "event"
    },
    {
      "inputs": [
        {
          "internalType": "address",
          "name": "",
          "type": "address"
        }
      ],
      "name": "authorizedContracts",
      "outputs": [
        {
          "internalType": "bool",
          "name": "",
          "type": "bool"
        }
      ],
      "stateMutability": "view",
      "type": "function"
    },
    {
      "inputs": [],
      "name": "baseURI",
      "outputs": [
        {
          "internalType": "string",
          "name": "",
          "type": "string"
        }
      ],
      "stateMutability": "view",
      "type": "function"
    },
    {
      "inputs": [],
      "name": "distributorWalletFactory",
      "outputs": [
        {
          "internalType": "contract IDistributorWalletFactory",
          "name": "",
          "type": "address"
        }
      ],
      "stateMutability": "view",
      "type": "function"
    },
    {
      "inputs": [],
      "name": "erc20whitelist",
      "outputs": [
        {
          "internalType": "contract IERC20Whitelist",
          "name": "",
          "type": "address"
        }
      ],
      "stateMutability": "view",
      "type": "function"
    },
    {
      "inputs": [],
      "name": "getBaseURI",
      "outputs": [
        {
          "internalType": "string",
          "name": "",
          "type": "string"
        }
      ],
      "stateMutability": "view",
      "type": "function"
    },
    {
      "inputs": [],
      "name": "getLegalContractMetadata",
      "outputs": [
        {
          "internalType": "address",
          "name": "",
          "type": "address"
        }
      ],
      "stateMutability": "view",
      "type": "function"
    },
    {
      "inputs": [],
      "name": "getMetadataModule",
      "outputs": [
        {
          "internalType": "address",
          "name": "",
          "type": "address"
        }
      ],
      "stateMutability": "view",
      "type": "function"
    },
    {
      "inputs": [
        {
          "internalType": "address",
          "name": "owner",
          "type": "address"
        }
      ],
      "name": "getOwnerWrappedSongs",
      "outputs": [
        {
          "internalType": "address[]",
          "name": "",
          "type": "address[]"
        }
      ],
      "stateMutability": "view",
      "type": "function"
    },
    {
      "inputs": [],
      "name": "getRegistryModule",
      "outputs": [
        {
          "internalType": "address",
          "name": "",
          "type": "address"
        }
      ],
      "stateMutability": "view",
      "type": "function"
    },
    {
      "inputs": [],
      "name": "getStablecoinFeeReceiver",
      "outputs": [
        {
          "internalType": "address",
          "name": "",
          "type": "address"
        }
      ],
      "stateMutability": "view",
      "type": "function"
    },
    {
      "inputs": [
        {
          "internalType": "address",
          "name": "_contractAddress",
          "type": "address"
        }
      ],
      "name": "isAuthorizedContract",
      "outputs": [
        {
          "internalType": "bool",
          "name": "",
          "type": "bool"
        }
      ],
      "stateMutability": "view",
      "type": "function"
    },
    {
      "inputs": [
        {
          "internalType": "address",
          "name": "token",
          "type": "address"
        }
      ],
      "name": "isTokenWhitelisted",
      "outputs": [
        {
          "internalType": "bool",
          "name": "",
          "type": "bool"
        }
      ],
      "stateMutability": "view",
      "type": "function"
    },
    {
      "inputs": [
        {
          "internalType": "address",
          "name": "creator",
          "type": "address"
        }
      ],
      "name": "isValidToCreateWrappedSong",
      "outputs": [
        {
          "internalType": "bool",
          "name": "",
          "type": "bool"
        }
      ],
      "stateMutability": "view",
      "type": "function"
    },
    {
      "inputs": [
        {
          "internalType": "address",
          "name": "wsTokenManagement",
          "type": "address"
        }
      ],
      "name": "isWSTokenFromProtocol",
      "outputs": [
        {
          "internalType": "bool",
          "name": "",
          "type": "bool"
        }
      ],
      "stateMutability": "view",
      "type": "function"
    },
    {
      "inputs": [],
      "name": "legalContractMetadata",
      "outputs": [
        {
          "internalType": "contract ILegalContractMetadata",
          "name": "",
          "type": "address"
        }
      ],
      "stateMutability": "view",
      "type": "function"
    },
    {
      "inputs": [],
      "name": "maxSaleDuration",
      "outputs": [
        {
          "internalType": "uint256",
          "name": "",
          "type": "uint256"
        }
      ],
      "stateMutability": "view",
      "type": "function"
    },
    {
      "inputs": [],
      "name": "metadataModule",
      "outputs": [
        {
          "internalType": "contract IMetadataModule",
          "name": "",
          "type": "address"
        }
      ],
      "stateMutability": "view",
      "type": "function"
    },
    {
      "inputs": [],
      "name": "metadataRenderer",
      "outputs": [
        {
          "internalType": "contract IMetadataRenderer",
          "name": "",
          "type": "address"
        }
      ],
      "stateMutability": "view",
      "type": "function"
    },
    {
      "inputs": [],
      "name": "owner",
      "outputs": [
        {
          "internalType": "address",
          "name": "",
          "type": "address"
        }
      ],
      "stateMutability": "view",
      "type": "function"
    },
    {
      "inputs": [
        {
          "internalType": "address",
          "name": "",
          "type": "address"
        },
        {
          "internalType": "uint256",
          "name": "",
          "type": "uint256"
        }
      ],
      "name": "ownerWrappedSongs",
      "outputs": [
        {
          "internalType": "address",
          "name": "",
          "type": "address"
        }
      ],
      "stateMutability": "view",
      "type": "function"
    },
    {
      "inputs": [],
      "name": "pause",
      "outputs": [],
      "stateMutability": "nonpayable",
      "type": "function"
    },
    {
      "inputs": [],
      "name": "paused",
      "outputs": [
        {
          "internalType": "bool",
          "name": "",
          "type": "bool"
        }
      ],
      "stateMutability": "view",
      "type": "function"
    },
    {
      "inputs": [],
      "name": "registryModule",
      "outputs": [
        {
          "internalType": "contract IRegistryModule",
          "name": "",
          "type": "address"
        }
      ],
      "stateMutability": "view",
      "type": "function"
    },
    {
      "inputs": [
        {
          "internalType": "address",
          "name": "token",
          "type": "address"
        }
      ],
      "name": "removeTokenFromWhitelist",
      "outputs": [],
      "stateMutability": "nonpayable",
      "type": "function"
    },
    {
      "inputs": [
        {
          "components": [
            {
              "internalType": "string",
              "name": "name",
              "type": "string"
            },
            {
              "internalType": "string",
              "name": "description",
              "type": "string"
            },
            {
              "internalType": "string",
              "name": "image",
              "type": "string"
            },
            {
              "internalType": "string",
              "name": "externalUrl",
              "type": "string"
            },
            {
              "internalType": "string",
              "name": "animationUrl",
              "type": "string"
            },
            {
              "internalType": "string",
              "name": "attributesIpfsHash",
              "type": "string"
            }
          ],
          "internalType": "struct IMetadataModule.Metadata",
          "name": "metadata",
          "type": "tuple"
        },
        {
          "internalType": "uint256",
          "name": "tokenId",
          "type": "uint256"
        },
        {
          "internalType": "address",
          "name": "wrappedSong",
          "type": "address"
        }
      ],
      "name": "renderTokenURI",
      "outputs": [
        {
          "internalType": "string",
          "name": "",
          "type": "string"
        }
      ],
      "stateMutability": "view",
      "type": "function"
    },
    {
      "inputs": [],
      "name": "renounceOwnership",
      "outputs": [],
      "stateMutability": "nonpayable",
      "type": "function"
    },
    {
      "inputs": [
        {
          "internalType": "address",
          "name": "_contractAddress",
          "type": "address"
        },
        {
          "internalType": "bool",
          "name": "_isAuthorized",
          "type": "bool"
        }
      ],
      "name": "setAuthorizedContract",
      "outputs": [],
      "stateMutability": "nonpayable",
      "type": "function"
    },
    {
      "inputs": [
        {
          "internalType": "string",
          "name": "_baseURI",
          "type": "string"
        }
      ],
      "name": "setBaseURI",
      "outputs": [],
      "stateMutability": "nonpayable",
      "type": "function"
    },
    {
      "inputs": [
        {
          "internalType": "address",
          "name": "_newFactory",
          "type": "address"
        }
      ],
      "name": "setDistributorWalletFactory",
      "outputs": [],
      "stateMutability": "nonpayable",
      "type": "function"
    },
    {
      "inputs": [
        {
          "internalType": "address",
          "name": "_erc20whitelist",
          "type": "address"
        }
      ],
      "name": "setERC20Whitelist",
      "outputs": [],
      "stateMutability": "nonpayable",
      "type": "function"
    },
    {
      "inputs": [
        {
          "internalType": "address",
          "name": "_legalContractMetadata",
          "type": "address"
        }
      ],
      "name": "setLegalContractMetadata",
      "outputs": [],
      "stateMutability": "nonpayable",
      "type": "function"
    },
    {
      "inputs": [
        {
          "internalType": "uint256",
          "name": "_duration",
          "type": "uint256"
        }
      ],
      "name": "setMaxSaleDuration",
      "outputs": [],
      "stateMutability": "nonpayable",
      "type": "function"
    },
    {
      "inputs": [
        {
          "internalType": "address",
          "name": "_metadataModule",
          "type": "address"
        }
      ],
      "name": "setMetadataModule",
      "outputs": [],
      "stateMutability": "nonpayable",
      "type": "function"
    },
    {
      "inputs": [
        {
          "internalType": "address",
          "name": "_renderer",
          "type": "address"
        }
      ],
      "name": "setMetadataRenderer",
      "outputs": [],
      "stateMutability": "nonpayable",
      "type": "function"
    },
    {
      "inputs": [
        {
          "internalType": "address",
          "name": "owner",
          "type": "address"
        },
        {
          "internalType": "address",
          "name": "wrappedSong",
          "type": "address"
        }
      ],
      "name": "setOwnerWrappedSong",
      "outputs": [],
      "stateMutability": "nonpayable",
      "type": "function"
    },
    {
      "inputs": [
        {
          "internalType": "address",
          "name": "_registryModule",
          "type": "address"
        }
      ],
      "name": "setRegistryModule",
      "outputs": [],
      "stateMutability": "nonpayable",
      "type": "function"
    },
    {
      "inputs": [
        {
          "internalType": "address",
          "name": "smartAccount",
          "type": "address"
        },
        {
          "internalType": "address",
          "name": "wsToken",
          "type": "address"
        }
      ],
      "name": "setSmartAccountToWSToken",
      "outputs": [],
      "stateMutability": "nonpayable",
      "type": "function"
    },
    {
      "inputs": [
        {
          "internalType": "address",
          "name": "_stablecoinFeeReceiver",
          "type": "address"
        }
      ],
      "name": "setStablecoinFeeReceiver",
      "outputs": [],
      "stateMutability": "nonpayable",
      "type": "function"
    },
    {
      "inputs": [
        {
          "internalType": "address",
          "name": "wsTokenManagement",
          "type": "address"
        }
      ],
      "name": "setWSTokenFromProtocol",
      "outputs": [],
      "stateMutability": "nonpayable",
      "type": "function"
    },
    {
      "inputs": [
        {
          "internalType": "address",
          "name": "_whitelistingManager",
          "type": "address"
        }
      ],
      "name": "setWhitelistingManager",
      "outputs": [],
      "stateMutability": "nonpayable",
      "type": "function"
    },
    {
      "inputs": [
        {
          "internalType": "address",
          "name": "_wrappedSongFactory",
          "type": "address"
        }
      ],
      "name": "setWrappedSongFactory",
      "outputs": [],
      "stateMutability": "nonpayable",
      "type": "function"
    },
    {
      "inputs": [
        {
          "internalType": "address",
          "name": "",
          "type": "address"
        }
      ],
      "name": "smartAccountToWSToken",
      "outputs": [
        {
          "internalType": "address",
          "name": "",
          "type": "address"
        }
      ],
      "stateMutability": "view",
      "type": "function"
    },
    {
      "inputs": [],
      "name": "stablecoinFeeReceiver",
      "outputs": [
        {
          "internalType": "address",
          "name": "",
          "type": "address"
        }
      ],
      "stateMutability": "view",
      "type": "function"
    },
    {
      "inputs": [
        {
          "internalType": "address",
          "name": "newOwner",
          "type": "address"
        }
      ],
      "name": "transferOwnership",
      "outputs": [],
      "stateMutability": "nonpayable",
      "type": "function"
    },
    {
      "inputs": [],
      "name": "unpause",
      "outputs": [],
      "stateMutability": "nonpayable",
      "type": "function"
    },
    {
      "inputs": [
        {
          "internalType": "address",
          "name": "token",
          "type": "address"
        }
      ],
      "name": "whitelistToken",
      "outputs": [],
      "stateMutability": "nonpayable",
      "type": "function"
    },
    {
      "inputs": [],
      "name": "whitelistingManager",
      "outputs": [
        {
          "internalType": "contract IWhitelistingManager",
          "name": "",
          "type": "address"
        }
      ],
      "stateMutability": "view",
      "type": "function"
    },
    {
      "inputs": [],
      "name": "wrappedSongFactory",
      "outputs": [
        {
          "internalType": "contract IWrappedSongFactory",
          "name": "",
          "type": "address"
        }
      ],
      "stateMutability": "view",
      "type": "function"
    },
    {
      "inputs": [],
      "name": "wrappedSongFactoryAddress",
      "outputs": [
        {
          "internalType": "address",
          "name": "",
          "type": "address"
        }
      ],
      "stateMutability": "view",
      "type": "function"
    },
    {
      "stateMutability": "payable",
      "type": "receive"
    }
  ],
  "bytecode": "0x6080346200014f57601f62001b0838819003918201601f19168301916001600160401b03831184841017620001545780849260a0946040528339810103126200014f576200004d816200016a565b6200005b602083016200016a565b62000069604084016200016a565b906200008660806200007e606087016200016a565b95016200016a565b9033156200013657600054946040519560018060a01b03948580948193338382167f8be0079c531659141344cd1fd0a4f28419497f9722a3daafe3b4186f6b6457e0600080a360ff60a01b1933169060018060a81b031916176000556001805562278d00600f558160018060a01b031999168960065416176006551687600754161760075516856008541617600855168360095416176009551690600a541617600a556119889081620001808239f35b604051631e4fbdf760e01b815260006004820152602490fd5b600080fd5b634e487b7160e01b600052604160045260246000fd5b51906001600160a01b03821682036200014f5756fe60406080815260048036101561001f575b5050361561001d57600080fd5b005b600091823560e01c806208ac8314611510578063088b955414610faa57806309da4e51146114e75780630b1b745e146114ac5780630c5d8da1146114835780631c8370cb1461094b5780632fb92c5a146113f55780632fda23b7146110d6578063306275be14611049578063358d96ab14610fd35780633684d10014610faa57806337d7d54214610f005780633cd7bc95146107275780633f4ba83a14610e9257806346d5397c14610a995780634da6840a14610e39578063533761fe14610da257806355f804b314610c165780635c975abb14610bf15780635fd6102014610b63578381636247f6f214610ac15750806362f0bdde14610a9957806366d0ead3146106e95780636c0360eb146109f05780636cf563a414610a5b5780637031997014610a32578063714c5398146109f0578063715018a614610993578063723ff2a21461097457806377191a6e1461067357806381b539b81461094b5780638456cb59146108ec5780638da5cb5b146108c4578063a4198fa21461084e578063a951583b146107d8578063ac581b3a146107af578063b5af090f14610750578063ce1a52d214610727578063d5b9221b146106e9578063d9ce7b951461069c578063dbd15d5314610673578063e4829369146105fd578063ec691a5914610587578063eefeb7bc14610546578063f140b55f146104ad578063f2fa739214610453578063f2fde38b146103c7578063fd4fe8a8146103135763ff4884f8146102485750610010565b3461030f578060031936011261030f576102606115e8565b91610269611603565b90610272611848565b6005546001600160a01b0394859161028d90831633146118e4565b169283865260026020528520805491680100000000000000008310156102fc5750816102bf9160018794018155611710565b949092169382549060031b9185831b921b19161790557f4cda7c30666ce0c5304ba2d323cdee5f647baac385d8e0cb2f706641c95043af8380a380f35b634e487b7160e01b875260419052602486fd5b8280fd5b503461030f57602036600319011261030f5761032d6115e8565b61033561181c565b6001600160a01b03169182156103855750600e80546001600160a01b03191683179055519081527f60a886c8dc324af9c6d6a1bf7369ffe7557ef345eb5717bceffb59beac879a0a90602090a180f35b6020606492519162461bcd60e51b8352820152601860248201527f496e76616c69642072656e6465726572206164647265737300000000000000006044820152fd5b50903461030f57602036600319011261030f576103e26115e8565b906103eb61181c565b6001600160a01b0391821692831561043d575050600054826001600160601b0360a01b821617600055167f8be0079c531659141344cd1fd0a4f28419497f9722a3daafe3b4186f6b6457e0600080a380f35b51631e4fbdf760e01b8152908101849052602490fd5b8382346104a957806003193601126104a95761046d6115e8565b90602435918215158093036104a55761048461181c565b60018060a01b03168352600c60205282209060ff8019835416911617905580f35b8380fd5b5080fd5b503461030f57602036600319011261030f5760206104c96115e8565b600754835163f140b55f60e01b81526001600160a01b039283169581019590955284916024918391165afa91821561053c576020939261050d575b50519015158152f35b61052e919250833d8111610535575b6105268183611643565b81019061193a565b9038610504565b503d61051c565b81513d85823e3d90fd5b5050346104a95760203660031901126104a9576105616115e8565b61056961181c565b81546001600160a01b0319166001600160a01b039190911617905580f35b8382346104a95760203660031901126104a95760207fa01edaa3cd8a419b7bb45b34f35e84da238af9490eca1b318cb579f3179e29e4916105c66115e8565b6105ce61181c565b6001600160a01b0316906105e38215156118a6565b600a80546001600160a01b0319168317905551908152a180f35b8382346104a95760203660031901126104a95760207fcede453a12a109bc98cf30c47be25a27dcd045508461cc9e9669a0185b648b899161063c6115e8565b61064461181c565b6001600160a01b0316906106598215156118a6565b600880546001600160a01b0319168317905551908152a180f35b8382346104a957816003193601126104a957600a5490516001600160a01b039091168152602090f35b8382346104a95760203660031901126104a9576106b76115e8565b6005546001600160a01b0391906106d190831633146118e4565b168252600d6020528120805460ff1916600117905580f35b8382346104a95760203660031901126104a95760209160ff9082906001600160a01b036107146115e8565b168152600c855220541690519015158152f35b8382346104a957816003193601126104a957600b5490516001600160a01b039091168152602090f35b503461030f57602036600319011261030f57602061076c6115e8565b600854835163b5af090f60e01b81526001600160a01b039283169581019590955284916024918391165afa91821561053c576020939261050d5750519015158152f35b8382346104a957816003193601126104a95760075490516001600160a01b039091168152602090f35b8382346104a95760203660031901126104a95760207f39a2470dcb92def89f4d008f638ab6d63ac78547bf3d6ccfebf542711a0503c7916108176115e8565b61081f61181c565b6001600160a01b0316906108348215156118a6565b600780546001600160a01b0319168317905551908152a180f35b8382346104a95760203660031901126104a95760207f12e10e0acd0f94fc9b2d033a01586c1255f1d396a6a2ce1c02cc9fca057744589161088d6115e8565b61089561181c565b6001600160a01b0316906108aa8215156118a6565b600980546001600160a01b0319168317905551908152a180f35b8382346104a957816003193601126104a957905490516001600160a01b039091168152602090f35b8382346104a957816003193601126104a95760207f62e78cea01bee320cd4e420270b5ea74000d11b0c9f74754ebdbfc544b05a2589161092a61181c565b610932611848565b835460ff60a01b1916600160a01b17845551338152a180f35b8382346104a957816003193601126104a95760055490516001600160a01b039091168152602090f35b8382346104a957816003193601126104a957602090600f549051908152f35b83346109ed57806003193601126109ed576109ac61181c565b600080546001600160a01b0319811682556001600160a01b03167f8be0079c531659141344cd1fd0a4f28419497f9722a3daafe3b4186f6b6457e08280a380f35b80fd5b8382346104a957816003193601126104a9578051610a2e91610a1c82610a1581611778565b0383611643565b519182916020835260208301906116eb565b0390f35b8382346104a957816003193601126104a957600e5490516001600160a01b039091168152602090f35b8382346104a95760203660031901126104a95760209160ff9082906001600160a01b03610a866115e8565b168152600d855220541690519015158152f35b50903461030f578260031936011261030f575490516001600160a01b03909116815260209150f35b80848434610b5f576020366003190112610b5f57610add6115e8565b83546001600160a01b0390811633148015610b52575b610afc90611869565b8060085416803b15610b4e5785928360249286519788958694633123fb7960e11b865216908401525af1908115610b455750610b355750f35b610b3e90611619565b6109ed5780f35b513d84823e3d90fd5b8580fd5b5060085481163314610af3565b5050fd5b50903461030f57602036600319011261030f57610b7e6115e8565b610b8661181c565b6001600160a01b0316918215610bae5750506001600160601b0360a01b600b541617600b5580f35b906020606492519162461bcd60e51b8352820152601e60248201527f496e76616c69642072656769737472794d6f64756c65206164647265737300006044820152fd5b8382346104a957816003193601126104a95760ff6020925460a01c1690519015158152f35b8284346109ed576020806003193601126104a95767ffffffffffffffff9083358281116104a557610c4a9036908601611681565b93610c5361181c565b8451928311610d8f5750610c6860105461173e565b601f8111610d2d575b5080601f8311600114610cac57508293829392610ca1575b50508160011b916000199060031b1c19161760105580f35b015190508380610c89565b60108452601f198316947f1b6847dc741a1b0cd08d278845f9d819d87b734759afb55fe2de5cb82a9ae672929185905b878210610d15575050836001959610610cfc575b505050811b0160105580f35b015160001960f88460031b161c19169055838080610cf0565b80600185968294968601518155019501930190610cdc565b601084527f1b6847dc741a1b0cd08d278845f9d819d87b734759afb55fe2de5cb82a9ae672601f840160051c810191838510610d85575b601f0160051c01905b818110610d7a5750610c71565b848155600101610d6d565b9091508190610d64565b634e487b7160e01b845260419052602483fd5b503461030f57602036600319011261030f57813591610dbf61181c565b8215610df75750816020917f7be9264fd4bacf6ffdd1cbfbe4fb3751923b2540828adf64102e4f5b096a7fe593600f5551908152a180f35b6020606492519162461bcd60e51b8352820152601f60248201527f4475726174696f6e206d7573742062652067726561746572207468616e2030006044820152fd5b8382346104a957806003193601126104a957610e536115e8565b6001600160a01b0390811683526002602052818320805460243594908510156109ed5750602093610e8391611710565b92905490519260031b1c168152f35b50903461030f578260031936011261030f57610eac61181c565b82549060ff8260a01c1615610ef2575060ff60a01b19168255513381527f5db9ee0a495bf2e6ff9c91a7834c1ba4fdd244a5e8aa4e537bd38aeae4b073aa90602090a180f35b8251638dfc202b60e01b8152fd5b8382346104a95760208060031936011261030f576001600160a01b039283610f266115e8565b1681526002825282812091835190818185549182815201908195855282852090855b818110610f945750505082610f5e910383611643565b8451948186019282875251809352850193925b828110610f7e5785850386f35b8351871685529381019392810192600101610f71565b82548a1684529284019260019283019201610f48565b8382346104a957816003193601126104a95760095490516001600160a01b039091168152602090f35b8382346104a95760203660031901126104a95760207f820c11a553e3f58735f11b502c4c13b5bdaad97e61b6fe3bafe7eaf4e09e94de916110126115e8565b61101a61181c565b6001600160a01b03169061102f8215156118a6565b600680546001600160a01b0319168317905551908152a180f35b503461030f57602036600319011261030f57826110646115e8565b81546001600160a01b0391908216331480156110c9575b61108490611869565b816008541690813b156104a55783602492865197889586946318313adf60e11b865216908401525af1908115610b4557506110bd575080f35b6110c690611619565b80f35b506008548216331461107b565b509190346104a9576003199260603685011261030f57813567ffffffffffffffff938482116109ed5760c08683360301126109ed5782519360c08501858110878211176113e25784528281013586811161030f5761113990823691860101611681565b8552602483013586811161030f5761115690823691860101611681565b9260209586810194855260448201358881116113de5761117b90843691850101611681565b928682019384526064830135898111610b4e5761119d90823691860101611681565b956060830196875260848401358a81116113da576111c090833691870101611681565b936080840194855260a48101358b81116113d6576111e2913691018401611681565b60a084019081526001600160a01b039b6044358d8116939192908490036113d2578d60095416330361138f5788999a9b9c9d600e5416968c519b8c998a98899863350f69b160e11b8a52890160a090525160a4890160c090526101648901611249916116eb565b945160a31995868a82030160c48b0152611262916116eb565b905190858982030160e48a0152611278916116eb565b905190848882030161010489015261128f916116eb565b90519083878203016101248801526112a6916116eb565b905191858203016101448601526112bc916116eb565b91602435602485015260448401528282030160648301526112dc90611778565b30608483015203915afa94851561138357819561130a575b505050610a2e90519282849384528301906116eb565b90919294503d8083853e61131e8185611643565b830192848185031261030f57805191821161030f570182601f820112156104a95780519161134b83611665565b9361135887519586611643565b8385528584840101116109ed5750829161137a918580610a2e960191016116c8565b929038806112f4565b508251903d90823e3d90fd5b8a5162461bcd60e51b81528086018d9052601f60248201527f4f6e6c79206d65746164617461206d6f64756c652063616e2072656e646572006044820152606490fd5b8880fd5b8780fd5b8680fd5b8480fd5b634e487b7160e01b835260418252602483fd5b50903461030f57602036600319011261030f576114106115e8565b61141861181c565b6001600160a01b03169182156114405750506001600160601b0360a01b600554161760055580f35b906020606492519162461bcd60e51b8352820152601760248201527f496e76616c696420666163746f727920616464726573730000000000000000006044820152fd5b8382346104a957816003193601126104a95760065490516001600160a01b039091168152602090f35b8382346104a95760203660031901126104a9576020916001600160a01b03908290826114d66115e8565b168152600385522054169051908152f35b8382346104a957816003193601126104a95760085490516001600160a01b039091168152602090f35b503461030f578060031936011261030f576115296115e8565b91611532611603565b9261153b611848565b6005546001600160a01b0392908316330361159a575081169182855260036020528420921691826001600160601b0360a01b8254161790557f48e8ef3819015e9b1e8d36ddbbbc8cefc90dba7f69b711bdca0c9a10b63b037f8380a380f35b608490602085519162461bcd60e51b8352820152602260248201527f4f6e6c7920666163746f72792063616e2073657420746f6b656e206d617070696044820152616e6760f01b6064820152fd5b600435906001600160a01b03821682036115fe57565b600080fd5b602435906001600160a01b03821682036115fe57565b67ffffffffffffffff811161162d57604052565b634e487b7160e01b600052604160045260246000fd5b90601f8019910116810190811067ffffffffffffffff82111761162d57604052565b67ffffffffffffffff811161162d57601f01601f191660200190565b81601f820112156115fe5780359061169882611665565b926116a66040519485611643565b828452602083830101116115fe57816000926020809301838601378301015290565b60005b8381106116db5750506000910152565b81810151838201526020016116cb565b90602091611704815180928185528580860191016116c8565b601f01601f1916010190565b80548210156117285760005260206000200190600090565b634e487b7160e01b600052603260045260246000fd5b90600182811c9216801561176e575b602083101461175857565b634e487b7160e01b600052602260045260246000fd5b91607f169161174d565b601054600092916117888261173e565b808252916001908181169081156117ff57506001146117a657505050565b9192935060106000527f1b6847dc741a1b0cd08d278845f9d819d87b734759afb55fe2de5cb82a9ae672916000925b8484106117e757505060209250010190565b805460208585018101919091529093019281016117d5565b915050602093945060ff929192191683830152151560051b010190565b6000546001600160a01b0316330361183057565b60405163118cdaa760e01b8152336004820152602490fd5b60ff60005460a01c1661185757565b60405163d93c066560e01b8152600490fd5b1561187057565b60405162461bcd60e51b815260206004820152600e60248201526d139bdd08185d5d1a1bdc9a5e995960921b6044820152606490fd5b156118ad57565b60405162461bcd60e51b815260206004820152600f60248201526e496e76616c6964206164647265737360881b6044820152606490fd5b156118eb57565b60405162461bcd60e51b815260206004820152602160248201527f4f6e6c7920666163746f72792063616e20616464207772617070656420736f6e6044820152606760f81b6064820152608490fd5b908160209103126115fe575180151581036115fe579056fea2646970667358221220b6afcc4945274a70614c56ef83780a7bd2e1eec20767729917e3083ff3dd619764736f6c63430008140033",
  "linkReferences": {},
  "deployedLinkReferences": {}
}