{
  "_format": "hh-sol-artifact-1",
  "contractName": "ProtocolModule",
  "sourceName": "contracts/protocol/NonUpgradable/ProtocolModule.sol",
  "abi": [
    {
      "inputs": [
        {
          "internalType": "address",
          "name": "_distributorWalletFactory",
          "type": "address"
        },
        {
          "internalType": "address",
          "name": "_whitelistingManager",
          "type": "address"
        },
        {
          "internalType": "address",
          "name": "_erc20whitelist",
          "type": "address"
        },
        {
          "internalType": "address",
          "name": "_metadataModule",
          "type": "address"
        },
        {
          "internalType": "address",
          "name": "_legalContractMetadata",
          "type": "address"
        }
      ],
      "stateMutability": "nonpayable",
      "type": "constructor"
    },
    {
      "inputs": [],
      "name": "EnforcedPause",
      "type": "error"
    },
    {
      "inputs": [],
      "name": "ExpectedPause",
      "type": "error"
    },
    {
      "inputs": [
        {
          "internalType": "address",
          "name": "owner",
          "type": "address"
        }
      ],
      "name": "OwnableInvalidOwner",
      "type": "error"
    },
    {
      "inputs": [
        {
          "internalType": "address",
          "name": "account",
          "type": "address"
        }
      ],
      "name": "OwnableUnauthorizedAccount",
      "type": "error"
    },
    {
      "inputs": [],
      "name": "ReentrancyGuardReentrantCall",
      "type": "error"
    },
    {
      "anonymous": false,
      "inputs": [
        {
          "indexed": false,
          "internalType": "uint256",
          "name": "newFee",
          "type": "uint256"
        }
      ],
      "name": "DistributorCreationFeeUpdated",
      "type": "event"
    },
    {
      "anonymous": false,
      "inputs": [
        {
          "indexed": false,
          "internalType": "address",
          "name": "newFactory",
          "type": "address"
        }
      ],
      "name": "DistributorWalletFactoryUpdated",
      "type": "event"
    },
    {
      "anonymous": false,
      "inputs": [
        {
          "indexed": false,
          "internalType": "address",
          "name": "newWhitelist",
          "type": "address"
        }
      ],
      "name": "ERC20WhitelistUpdated",
      "type": "event"
    },
    {
      "anonymous": false,
      "inputs": [
        {
          "indexed": true,
          "internalType": "address",
          "name": "wrappedSong",
          "type": "address"
        },
        {
          "indexed": false,
          "internalType": "string",
          "name": "registryType",
          "type": "string"
        },
        {
          "indexed": false,
          "internalType": "string",
          "name": "value",
          "type": "string"
        }
      ],
      "name": "IdentityRegistryUpdated",
      "type": "event"
    },
    {
      "anonymous": false,
      "inputs": [
        {
          "indexed": false,
          "internalType": "address",
          "name": "newContract",
          "type": "address"
        }
      ],
      "name": "LegalContractMetadataUpdated",
      "type": "event"
    },
    {
      "anonymous": false,
      "inputs": [
        {
          "indexed": false,
          "internalType": "uint256",
          "name": "newDuration",
          "type": "uint256"
        }
      ],
      "name": "MaxSaleDurationUpdated",
      "type": "event"
    },
    {
      "anonymous": false,
      "inputs": [
        {
          "indexed": false,
          "internalType": "address",
          "name": "newModule",
          "type": "address"
        }
      ],
      "name": "MetadataModuleUpdated",
      "type": "event"
    },
    {
      "anonymous": false,
      "inputs": [
        {
          "indexed": false,
          "internalType": "address",
          "name": "newRenderer",
          "type": "address"
        }
      ],
      "name": "MetadataRendererUpdated",
      "type": "event"
    },
    {
      "anonymous": false,
      "inputs": [
        {
          "indexed": true,
          "internalType": "address",
          "name": "wrappedSong",
          "type": "address"
        },
        {
          "indexed": true,
          "internalType": "uint256",
          "name": "tokenId",
          "type": "uint256"
        },
        {
          "indexed": false,
          "internalType": "string",
          "name": "newMetadata",
          "type": "string"
        }
      ],
      "name": "MetadataUpdateRequested",
      "type": "event"
    },
    {
      "anonymous": false,
      "inputs": [
        {
          "indexed": true,
          "internalType": "address",
          "name": "wrappedSong",
          "type": "address"
        },
        {
          "indexed": true,
          "internalType": "uint256",
          "name": "tokenId",
          "type": "uint256"
        },
        {
          "indexed": false,
          "internalType": "string",
          "name": "newMetadata",
          "type": "string"
        }
      ],
      "name": "MetadataUpdated",
      "type": "event"
    },
    {
      "anonymous": false,
      "inputs": [
        {
          "indexed": true,
          "internalType": "address",
          "name": "owner",
          "type": "address"
        },
        {
          "indexed": true,
          "internalType": "address",
          "name": "wrappedSong",
          "type": "address"
        }
      ],
      "name": "OwnerWrappedSongAdded",
      "type": "event"
    },
    {
      "anonymous": false,
      "inputs": [
        {
          "indexed": true,
          "internalType": "address",
          "name": "previousOwner",
          "type": "address"
        },
        {
          "indexed": true,
          "internalType": "address",
          "name": "newOwner",
          "type": "address"
        }
      ],
      "name": "OwnershipTransferred",
      "type": "event"
    },
    {
      "anonymous": false,
      "inputs": [
        {
          "indexed": false,
          "internalType": "address",
          "name": "account",
          "type": "address"
        }
      ],
      "name": "Paused",
      "type": "event"
    },
    {
      "anonymous": false,
      "inputs": [
        {
          "indexed": false,
          "internalType": "bool",
          "name": "isPaused",
          "type": "bool"
        }
      ],
      "name": "Paused",
      "type": "event"
    },
    {
      "anonymous": false,
      "inputs": [
        {
          "indexed": false,
          "internalType": "bool",
          "name": "newPayInStablecoin",
          "type": "bool"
        }
      ],
      "name": "PayInStablecoinUpdated",
      "type": "event"
    },
    {
      "anonymous": false,
      "inputs": [
        {
          "indexed": false,
          "internalType": "uint256",
          "name": "newFee",
          "type": "uint256"
        }
      ],
      "name": "ReleaseFeeUpdated",
      "type": "event"
    },
    {
      "anonymous": false,
      "inputs": [
        {
          "indexed": false,
          "internalType": "bool",
          "name": "enabled",
          "type": "bool"
        }
      ],
      "name": "ReleasesEnabledChanged",
      "type": "event"
    },
    {
      "anonymous": false,
      "inputs": [
        {
          "indexed": false,
          "internalType": "uint256",
          "name": "newDays",
          "type": "uint256"
        }
      ],
      "name": "ReviewPeriodDaysUpdated",
      "type": "event"
    },
    {
      "anonymous": false,
      "inputs": [
        {
          "indexed": true,
          "internalType": "address",
          "name": "smartAccount",
          "type": "address"
        },
        {
          "indexed": true,
          "internalType": "address",
          "name": "wsToken",
          "type": "address"
        }
      ],
      "name": "SmartAccountToWSTokenMapped",
      "type": "event"
    },
    {
      "anonymous": false,
      "inputs": [
        {
          "indexed": false,
          "internalType": "uint256",
          "name": "newCreationFee",
          "type": "uint256"
        },
        {
          "indexed": false,
          "internalType": "uint256",
          "name": "newReleaseFee",
          "type": "uint256"
        }
      ],
      "name": "StableFeesUpdated",
      "type": "event"
    },
    {
      "anonymous": false,
      "inputs": [
        {
          "indexed": false,
          "internalType": "address",
          "name": "account",
          "type": "address"
        }
      ],
      "name": "Unpaused",
      "type": "event"
    },
    {
      "anonymous": false,
      "inputs": [
        {
          "indexed": false,
          "internalType": "uint256",
          "name": "newFee",
          "type": "uint256"
        }
      ],
      "name": "UpdateMetadataFeeUpdated",
      "type": "event"
    },
    {
      "anonymous": false,
      "inputs": [
        {
          "indexed": false,
          "internalType": "address",
          "name": "newManager",
          "type": "address"
        }
      ],
      "name": "WhitelistingManagerUpdated",
      "type": "event"
    },
    {
      "anonymous": false,
      "inputs": [
        {
          "indexed": false,
          "internalType": "uint256",
          "name": "newPercentage",
          "type": "uint256"
        }
      ],
      "name": "WithdrawalFeePercentageUpdated",
      "type": "event"
    },
    {
      "anonymous": false,
      "inputs": [
        {
          "indexed": true,
          "internalType": "address",
          "name": "wrappedSong",
          "type": "address"
        },
        {
          "indexed": false,
          "internalType": "bool",
          "name": "isAuthentic",
          "type": "bool"
        }
      ],
      "name": "WrappedSongAuthenticitySet",
      "type": "event"
    },
    {
      "anonymous": false,
      "inputs": [
        {
          "indexed": false,
          "internalType": "uint256",
          "name": "newFee",
          "type": "uint256"
        }
      ],
      "name": "WrappedSongCreationFeeUpdated",
      "type": "event"
    },
    {
      "inputs": [
        {
          "internalType": "address",
          "name": "",
          "type": "address"
        }
      ],
      "name": "authorizedContracts",
      "outputs": [
        {
          "internalType": "bool",
          "name": "",
          "type": "bool"
        }
      ],
      "stateMutability": "view",
      "type": "function"
    },
    {
      "inputs": [],
      "name": "baseURI",
      "outputs": [
        {
          "internalType": "string",
          "name": "",
          "type": "string"
        }
      ],
      "stateMutability": "view",
      "type": "function"
    },
    {
      "inputs": [],
      "name": "distributorWalletFactory",
      "outputs": [
        {
          "internalType": "contract IDistributorWalletFactory",
          "name": "",
          "type": "address"
        }
      ],
      "stateMutability": "view",
      "type": "function"
    },
    {
      "inputs": [],
      "name": "erc20whitelist",
      "outputs": [
        {
          "internalType": "contract IERC20Whitelist",
          "name": "",
          "type": "address"
        }
      ],
      "stateMutability": "view",
      "type": "function"
    },
    {
      "inputs": [],
      "name": "getBaseURI",
      "outputs": [
        {
          "internalType": "string",
          "name": "",
          "type": "string"
        }
      ],
      "stateMutability": "view",
      "type": "function"
    },
    {
      "inputs": [],
      "name": "getLegalContractMetadata",
      "outputs": [
        {
          "internalType": "address",
          "name": "",
          "type": "address"
        }
      ],
      "stateMutability": "view",
      "type": "function"
    },
    {
      "inputs": [],
      "name": "getMetadataModule",
      "outputs": [
        {
          "internalType": "address",
          "name": "",
          "type": "address"
        }
      ],
      "stateMutability": "view",
      "type": "function"
    },
    {
      "inputs": [
        {
          "internalType": "address",
          "name": "owner",
          "type": "address"
        }
      ],
      "name": "getOwnerWrappedSongs",
      "outputs": [
        {
          "internalType": "address[]",
          "name": "",
          "type": "address[]"
        }
      ],
      "stateMutability": "view",
      "type": "function"
    },
    {
      "inputs": [],
      "name": "getRegistryModule",
      "outputs": [
        {
          "internalType": "address",
          "name": "",
          "type": "address"
        }
      ],
      "stateMutability": "view",
      "type": "function"
    },
    {
      "inputs": [],
      "name": "getStablecoinFeeReceiver",
      "outputs": [
        {
          "internalType": "address",
          "name": "",
          "type": "address"
        }
      ],
      "stateMutability": "view",
      "type": "function"
    },
    {
      "inputs": [
        {
          "internalType": "address",
          "name": "_contractAddress",
          "type": "address"
        }
      ],
      "name": "isAuthorizedContract",
      "outputs": [
        {
          "internalType": "bool",
          "name": "",
          "type": "bool"
        }
      ],
      "stateMutability": "view",
      "type": "function"
    },
    {
      "inputs": [
        {
          "internalType": "address",
          "name": "token",
          "type": "address"
        }
      ],
      "name": "isTokenWhitelisted",
      "outputs": [
        {
          "internalType": "bool",
          "name": "",
          "type": "bool"
        }
      ],
      "stateMutability": "view",
      "type": "function"
    },
    {
      "inputs": [
        {
          "internalType": "address",
          "name": "creator",
          "type": "address"
        }
      ],
      "name": "isValidToCreateWrappedSong",
      "outputs": [
        {
          "internalType": "bool",
          "name": "",
          "type": "bool"
        }
      ],
      "stateMutability": "view",
      "type": "function"
    },
    {
      "inputs": [
        {
          "internalType": "address",
          "name": "wsTokenManagement",
          "type": "address"
        }
      ],
      "name": "isWSTokenFromProtocol",
      "outputs": [
        {
          "internalType": "bool",
          "name": "",
          "type": "bool"
        }
      ],
      "stateMutability": "view",
      "type": "function"
    },
    {
      "inputs": [],
      "name": "legalContractMetadata",
      "outputs": [
        {
          "internalType": "contract ILegalContractMetadata",
          "name": "",
          "type": "address"
        }
      ],
      "stateMutability": "view",
      "type": "function"
    },
    {
      "inputs": [],
      "name": "maxSaleDuration",
      "outputs": [
        {
          "internalType": "uint256",
          "name": "",
          "type": "uint256"
        }
      ],
      "stateMutability": "view",
      "type": "function"
    },
    {
      "inputs": [],
      "name": "metadataModule",
      "outputs": [
        {
          "internalType": "contract IMetadataModule",
          "name": "",
          "type": "address"
        }
      ],
      "stateMutability": "view",
      "type": "function"
    },
    {
      "inputs": [],
      "name": "metadataRenderer",
      "outputs": [
        {
          "internalType": "contract IMetadataRenderer",
          "name": "",
          "type": "address"
        }
      ],
      "stateMutability": "view",
      "type": "function"
    },
    {
      "inputs": [],
      "name": "owner",
      "outputs": [
        {
          "internalType": "address",
          "name": "",
          "type": "address"
        }
      ],
      "stateMutability": "view",
      "type": "function"
    },
    {
      "inputs": [
        {
          "internalType": "address",
          "name": "",
          "type": "address"
        },
        {
          "internalType": "uint256",
          "name": "",
          "type": "uint256"
        }
      ],
      "name": "ownerWrappedSongs",
      "outputs": [
        {
          "internalType": "address",
          "name": "",
          "type": "address"
        }
      ],
      "stateMutability": "view",
      "type": "function"
    },
    {
      "inputs": [],
      "name": "pause",
      "outputs": [],
      "stateMutability": "nonpayable",
      "type": "function"
    },
    {
      "inputs": [],
      "name": "paused",
      "outputs": [
        {
          "internalType": "bool",
          "name": "",
          "type": "bool"
        }
      ],
      "stateMutability": "view",
      "type": "function"
    },
    {
      "inputs": [],
      "name": "registryModule",
      "outputs": [
        {
          "internalType": "contract IRegistryModule",
          "name": "",
          "type": "address"
        }
      ],
      "stateMutability": "view",
      "type": "function"
    },
    {
      "inputs": [
        {
          "internalType": "address",
          "name": "token",
          "type": "address"
        }
      ],
      "name": "removeTokenFromWhitelist",
      "outputs": [],
      "stateMutability": "nonpayable",
      "type": "function"
    },
    {
      "inputs": [
        {
          "components": [
            {
              "internalType": "string",
              "name": "name",
              "type": "string"
            },
            {
              "internalType": "string",
              "name": "description",
              "type": "string"
            },
            {
              "internalType": "string",
              "name": "image",
              "type": "string"
            },
            {
              "internalType": "string",
              "name": "externalUrl",
              "type": "string"
            },
            {
              "internalType": "string",
              "name": "animationUrl",
              "type": "string"
            },
            {
              "internalType": "string",
              "name": "attributesIpfsHash",
              "type": "string"
            }
          ],
          "internalType": "struct IMetadataModule.Metadata",
          "name": "metadata",
          "type": "tuple"
        },
        {
          "internalType": "address",
          "name": "wrappedSong",
          "type": "address"
        }
      ],
      "name": "renderContractURI",
      "outputs": [
        {
          "internalType": "string",
          "name": "",
          "type": "string"
        }
      ],
      "stateMutability": "view",
      "type": "function"
    },
    {
      "inputs": [
        {
          "components": [
            {
              "internalType": "string",
              "name": "name",
              "type": "string"
            },
            {
              "internalType": "string",
              "name": "description",
              "type": "string"
            },
            {
              "internalType": "string",
              "name": "image",
              "type": "string"
            },
            {
              "internalType": "string",
              "name": "externalUrl",
              "type": "string"
            },
            {
              "internalType": "string",
              "name": "animationUrl",
              "type": "string"
            },
            {
              "internalType": "string",
              "name": "attributesIpfsHash",
              "type": "string"
            }
          ],
          "internalType": "struct IMetadataModule.Metadata",
          "name": "metadata",
          "type": "tuple"
        },
        {
          "internalType": "uint256",
          "name": "tokenId",
          "type": "uint256"
        },
        {
          "internalType": "address",
          "name": "wrappedSong",
          "type": "address"
        }
      ],
      "name": "renderTokenURI",
      "outputs": [
        {
          "internalType": "string",
          "name": "",
          "type": "string"
        }
      ],
      "stateMutability": "view",
      "type": "function"
    },
    {
      "inputs": [],
      "name": "renounceOwnership",
      "outputs": [],
      "stateMutability": "nonpayable",
      "type": "function"
    },
    {
      "inputs": [
        {
          "internalType": "address",
          "name": "_contractAddress",
          "type": "address"
        },
        {
          "internalType": "bool",
          "name": "_isAuthorized",
          "type": "bool"
        }
      ],
      "name": "setAuthorizedContract",
      "outputs": [],
      "stateMutability": "nonpayable",
      "type": "function"
    },
    {
      "inputs": [
        {
          "internalType": "string",
          "name": "_baseURI",
          "type": "string"
        }
      ],
      "name": "setBaseURI",
      "outputs": [],
      "stateMutability": "nonpayable",
      "type": "function"
    },
    {
      "inputs": [
        {
          "internalType": "address",
          "name": "_newFactory",
          "type": "address"
        }
      ],
      "name": "setDistributorWalletFactory",
      "outputs": [],
      "stateMutability": "nonpayable",
      "type": "function"
    },
    {
      "inputs": [
        {
          "internalType": "address",
          "name": "_erc20whitelist",
          "type": "address"
        }
      ],
      "name": "setERC20Whitelist",
      "outputs": [],
      "stateMutability": "nonpayable",
      "type": "function"
    },
    {
      "inputs": [
        {
          "internalType": "address",
          "name": "_legalContractMetadata",
          "type": "address"
        }
      ],
      "name": "setLegalContractMetadata",
      "outputs": [],
      "stateMutability": "nonpayable",
      "type": "function"
    },
    {
      "inputs": [
        {
          "internalType": "uint256",
          "name": "_duration",
          "type": "uint256"
        }
      ],
      "name": "setMaxSaleDuration",
      "outputs": [],
      "stateMutability": "nonpayable",
      "type": "function"
    },
    {
      "inputs": [
        {
          "internalType": "address",
          "name": "_metadataModule",
          "type": "address"
        }
      ],
      "name": "setMetadataModule",
      "outputs": [],
      "stateMutability": "nonpayable",
      "type": "function"
    },
    {
      "inputs": [
        {
          "internalType": "address",
          "name": "_renderer",
          "type": "address"
        }
      ],
      "name": "setMetadataRenderer",
      "outputs": [],
      "stateMutability": "nonpayable",
      "type": "function"
    },
    {
      "inputs": [
        {
          "internalType": "address",
          "name": "owner",
          "type": "address"
        },
        {
          "internalType": "address",
          "name": "wrappedSong",
          "type": "address"
        }
      ],
      "name": "setOwnerWrappedSong",
      "outputs": [],
      "stateMutability": "nonpayable",
      "type": "function"
    },
    {
      "inputs": [
        {
          "internalType": "address",
          "name": "_registryModule",
          "type": "address"
        }
      ],
      "name": "setRegistryModule",
      "outputs": [],
      "stateMutability": "nonpayable",
      "type": "function"
    },
    {
      "inputs": [
        {
          "internalType": "address",
          "name": "smartAccount",
          "type": "address"
        },
        {
          "internalType": "address",
          "name": "wsToken",
          "type": "address"
        }
      ],
      "name": "setSmartAccountToWSToken",
      "outputs": [],
      "stateMutability": "nonpayable",
      "type": "function"
    },
    {
      "inputs": [
        {
          "internalType": "address",
          "name": "_stablecoinFeeReceiver",
          "type": "address"
        }
      ],
      "name": "setStablecoinFeeReceiver",
      "outputs": [],
      "stateMutability": "nonpayable",
      "type": "function"
    },
    {
      "inputs": [
        {
          "internalType": "address",
          "name": "wsTokenManagement",
          "type": "address"
        }
      ],
      "name": "setWSTokenFromProtocol",
      "outputs": [],
      "stateMutability": "nonpayable",
      "type": "function"
    },
    {
      "inputs": [
        {
          "internalType": "address",
          "name": "_whitelistingManager",
          "type": "address"
        }
      ],
      "name": "setWhitelistingManager",
      "outputs": [],
      "stateMutability": "nonpayable",
      "type": "function"
    },
    {
      "inputs": [
        {
          "internalType": "address",
          "name": "_wrappedSongFactory",
          "type": "address"
        }
      ],
      "name": "setWrappedSongFactory",
      "outputs": [],
      "stateMutability": "nonpayable",
      "type": "function"
    },
    {
      "inputs": [
        {
          "internalType": "address",
          "name": "",
          "type": "address"
        }
      ],
      "name": "smartAccountToWSToken",
      "outputs": [
        {
          "internalType": "address",
          "name": "",
          "type": "address"
        }
      ],
      "stateMutability": "view",
      "type": "function"
    },
    {
      "inputs": [],
      "name": "stablecoinFeeReceiver",
      "outputs": [
        {
          "internalType": "address",
          "name": "",
          "type": "address"
        }
      ],
      "stateMutability": "view",
      "type": "function"
    },
    {
      "inputs": [
        {
          "internalType": "address",
          "name": "newOwner",
          "type": "address"
        }
      ],
      "name": "transferOwnership",
      "outputs": [],
      "stateMutability": "nonpayable",
      "type": "function"
    },
    {
      "inputs": [],
      "name": "unpause",
      "outputs": [],
      "stateMutability": "nonpayable",
      "type": "function"
    },
    {
      "inputs": [
        {
          "internalType": "address",
          "name": "token",
          "type": "address"
        }
      ],
      "name": "whitelistToken",
      "outputs": [],
      "stateMutability": "nonpayable",
      "type": "function"
    },
    {
      "inputs": [],
      "name": "whitelistingManager",
      "outputs": [
        {
          "internalType": "contract IWhitelistingManager",
          "name": "",
          "type": "address"
        }
      ],
      "stateMutability": "view",
      "type": "function"
    },
    {
      "inputs": [],
      "name": "wrappedSongFactory",
      "outputs": [
        {
          "internalType": "contract IWrappedSongFactory",
          "name": "",
          "type": "address"
        }
      ],
      "stateMutability": "view",
      "type": "function"
    },
    {
      "inputs": [],
      "name": "wrappedSongFactoryAddress",
      "outputs": [
        {
          "internalType": "address",
          "name": "",
          "type": "address"
        }
      ],
      "stateMutability": "view",
      "type": "function"
    },
    {
      "stateMutability": "payable",
      "type": "receive"
    }
  ],
  "bytecode": "0x6080346200014f57601f62001bbc38819003918201601f19168301916001600160401b03831184841017620001545780849260a0946040528339810103126200014f576200004d816200016a565b6200005b602083016200016a565b62000069604084016200016a565b906200008660806200007e606087016200016a565b95016200016a565b9033156200013657600054946040519560018060a01b03948580948193338382167f8be0079c531659141344cd1fd0a4f28419497f9722a3daafe3b4186f6b6457e0600080a360ff60a01b1933169060018060a81b031916176000556001805562278d00600f558160018060a01b031999168960065416176006551687600754161760075516856008541617600855168360095416176009551690600a541617600a55611a3c9081620001808239f35b604051631e4fbdf760e01b815260006004820152602490fd5b600080fd5b634e487b7160e01b600052604160045260246000fd5b51906001600160a01b03821682036200014f5756fe60406080815260048036101561001f575b5050361561001d57600080fd5b005b600091823560e01c806208ac831461140c578063088b95541461109157806309da4e51146113e35780630b1b745e146113a85780630c5d8da11461137f5780631c8370cb14610a365780632fb92c5a146112f15780632fda23b7146111bd578063306275be14611130578063358d96ab146110ba5780633684d1001461109157806337d7d54214610fe75780633cd7bc95146108125780633f4ba83a14610f7957806346d5397c14610b805780634da6840a14610f20578063533761fe14610e8957806355f804b314610cfd5780635c975abb14610cd85780635fd6102014610c4a578381636247f6f214610ba85750806362f0bdde14610b8057806366d0ead3146107d45780636c0360eb14610adb5780636cf563a414610b425780637031997014610b19578063714c539814610adb578063715018a614610a7e578063723ff2a214610a5f57806377191a6e1461075e57806381b539b814610a365780638456cb59146109d75780638da5cb5b146109af578063a4198fa214610939578063a951583b146108c3578063ac581b3a1461089a578063b5af090f1461083b578063ce1a52d214610812578063d5b9221b146107d4578063d9ce7b9514610787578063dbd15d531461075e578063e4829369146106e8578063ec691a5914610672578063eefeb7bc14610631578063f140b55f146105a2578063f2fa73921461054c578063f2fde38b146104c0578063f8589a0f146103d2578063fd4fe8a81461031e5763ff4884f8146102535750610010565b3461031a578060031936011261031a5761026b6114e4565b916102746114ff565b9061027d61181c565b6005546001600160a01b0394859161029890831633146118b8565b169283865260026020528520805491680100000000000000008310156103075750816102ca91600187940181556116e4565b949092169382549060031b9185831b921b19161790557f4cda7c30666ce0c5304ba2d323cdee5f647baac385d8e0cb2f706641c95043af8380a380f35b634e487b7160e01b875260419052602486fd5b8280fd5b503461031a57602036600319011261031a576103386114e4565b6103406117f0565b6001600160a01b03169182156103905750600e80546001600160a01b03191683179055519081527f60a886c8dc324af9c6d6a1bf7369ffe7557ef345eb5717bceffb59beac879a0a90602090a180f35b6020606492519162461bcd60e51b8352820152601860248201527f496e76616c69642072656e6465726572206164647265737300000000000000006044820152fd5b503461031a57826003199282843601126104bc5780359367ffffffffffffffff851161031a57608061040a61044496369085016115c4565b926104596104166114ff565b60018060a01b039485600e54169589519a8b9889978897635bf1e08360e11b89528801526084870190611988565b9216602485015283820301604484015261174c565b30606483015203915afa9182156104b25783610489949361048d575b5050519182916020835260208301906116bf565b0390f35b6104aa9293503d8091833e6104a2818361153f565b810190611926565b903880610475565b81513d85823e3d90fd5b5080fd5b50903461031a57602036600319011261031a576104db6114e4565b906104e46117f0565b6001600160a01b03918216928315610536575050600054826001600160601b0360a01b821617600055167f8be0079c531659141344cd1fd0a4f28419497f9722a3daafe3b4186f6b6457e0600080a380f35b51631e4fbdf760e01b8152908101849052602490fd5b8382346104bc57806003193601126104bc576105666114e4565b906024359182151580930361059e5761057d6117f0565b60018060a01b03168352600c60205282209060ff8019835416911617905580f35b8380fd5b503461031a57602036600319011261031a5760206105be6114e4565b600754835163f140b55f60e01b81526001600160a01b039283169581019590955284916024918391165afa9182156104b25760209392610602575b50519015158152f35b610623919250833d811161062a575b61061b818361153f565b81019061190e565b90386105f9565b503d610611565b5050346104bc5760203660031901126104bc5761064c6114e4565b6106546117f0565b81546001600160a01b0319166001600160a01b039190911617905580f35b8382346104bc5760203660031901126104bc5760207fa01edaa3cd8a419b7bb45b34f35e84da238af9490eca1b318cb579f3179e29e4916106b16114e4565b6106b96117f0565b6001600160a01b0316906106ce82151561187a565b600a80546001600160a01b0319168317905551908152a180f35b8382346104bc5760203660031901126104bc5760207fcede453a12a109bc98cf30c47be25a27dcd045508461cc9e9669a0185b648b89916107276114e4565b61072f6117f0565b6001600160a01b03169061074482151561187a565b600880546001600160a01b0319168317905551908152a180f35b8382346104bc57816003193601126104bc57600a5490516001600160a01b039091168152602090f35b8382346104bc5760203660031901126104bc576107a26114e4565b6005546001600160a01b0391906107bc90831633146118b8565b168252600d6020528120805460ff1916600117905580f35b8382346104bc5760203660031901126104bc5760209160ff9082906001600160a01b036107ff6114e4565b168152600c855220541690519015158152f35b8382346104bc57816003193601126104bc57600b5490516001600160a01b039091168152602090f35b503461031a57602036600319011261031a5760206108576114e4565b600854835163b5af090f60e01b81526001600160a01b039283169581019590955284916024918391165afa9182156104b257602093926106025750519015158152f35b8382346104bc57816003193601126104bc5760075490516001600160a01b039091168152602090f35b8382346104bc5760203660031901126104bc5760207f39a2470dcb92def89f4d008f638ab6d63ac78547bf3d6ccfebf542711a0503c7916109026114e4565b61090a6117f0565b6001600160a01b03169061091f82151561187a565b600780546001600160a01b0319168317905551908152a180f35b8382346104bc5760203660031901126104bc5760207f12e10e0acd0f94fc9b2d033a01586c1255f1d396a6a2ce1c02cc9fca05774458916109786114e4565b6109806117f0565b6001600160a01b03169061099582151561187a565b600980546001600160a01b0319168317905551908152a180f35b8382346104bc57816003193601126104bc57905490516001600160a01b039091168152602090f35b8382346104bc57816003193601126104bc5760207f62e78cea01bee320cd4e420270b5ea74000d11b0c9f74754ebdbfc544b05a25891610a156117f0565b610a1d61181c565b835460ff60a01b1916600160a01b17845551338152a180f35b8382346104bc57816003193601126104bc5760055490516001600160a01b039091168152602090f35b8382346104bc57816003193601126104bc57602090600f549051908152f35b8334610ad85780600319360112610ad857610a976117f0565b600080546001600160a01b0319811682556001600160a01b03167f8be0079c531659141344cd1fd0a4f28419497f9722a3daafe3b4186f6b6457e08280a380f35b80fd5b8382346104bc57816003193601126104bc57805161048991610b0782610b008161174c565b038361153f565b519182916020835260208301906116bf565b8382346104bc57816003193601126104bc57600e5490516001600160a01b039091168152602090f35b8382346104bc5760203660031901126104bc5760209160ff9082906001600160a01b03610b6d6114e4565b168152600d855220541690519015158152f35b50903461031a578260031936011261031a575490516001600160a01b03909116815260209150f35b80848434610c46576020366003190112610c4657610bc46114e4565b83546001600160a01b0390811633148015610c39575b610be39061183d565b8060085416803b15610c355785928360249286519788958694633123fb7960e11b865216908401525af1908115610c2c5750610c1c5750f35b610c2590611515565b610ad85780f35b513d84823e3d90fd5b8580fd5b5060085481163314610bda565b5050fd5b50903461031a57602036600319011261031a57610c656114e4565b610c6d6117f0565b6001600160a01b0316918215610c955750506001600160601b0360a01b600b541617600b5580f35b906020606492519162461bcd60e51b8352820152601e60248201527f496e76616c69642072656769737472794d6f64756c65206164647265737300006044820152fd5b8382346104bc57816003193601126104bc5760ff6020925460a01c1690519015158152f35b828434610ad8576020806003193601126104bc5767ffffffffffffffff90833582811161059e57610d31903690860161157d565b93610d3a6117f0565b8451928311610e765750610d4f601054611712565b601f8111610e14575b5080601f8311600114610d9357508293829392610d88575b50508160011b916000199060031b1c19161760105580f35b015190508380610d70565b60108452601f198316947f1b6847dc741a1b0cd08d278845f9d819d87b734759afb55fe2de5cb82a9ae672929185905b878210610dfc575050836001959610610de3575b505050811b0160105580f35b015160001960f88460031b161c19169055838080610dd7565b80600185968294968601518155019501930190610dc3565b601084527f1b6847dc741a1b0cd08d278845f9d819d87b734759afb55fe2de5cb82a9ae672601f840160051c810191838510610e6c575b601f0160051c01905b818110610e615750610d58565b848155600101610e54565b9091508190610e4b565b634e487b7160e01b845260419052602483fd5b503461031a57602036600319011261031a57813591610ea66117f0565b8215610ede5750816020917f7be9264fd4bacf6ffdd1cbfbe4fb3751923b2540828adf64102e4f5b096a7fe593600f5551908152a180f35b6020606492519162461bcd60e51b8352820152601f60248201527f4475726174696f6e206d7573742062652067726561746572207468616e2030006044820152fd5b8382346104bc57806003193601126104bc57610f3a6114e4565b6001600160a01b039081168352600260205281832080546024359490851015610ad85750602093610f6a916116e4565b92905490519260031b1c168152f35b50903461031a578260031936011261031a57610f936117f0565b82549060ff8260a01c1615610fd9575060ff60a01b19168255513381527f5db9ee0a495bf2e6ff9c91a7834c1ba4fdd244a5e8aa4e537bd38aeae4b073aa90602090a180f35b8251638dfc202b60e01b8152fd5b8382346104bc5760208060031936011261031a576001600160a01b03928361100d6114e4565b1681526002825282812091835190818185549182815201908195855282852090855b81811061107b575050508261104591038361153f565b8451948186019282875251809352850193925b8281106110655785850386f35b8351871685529381019392810192600101611058565b82548a168452928401926001928301920161102f565b8382346104bc57816003193601126104bc5760095490516001600160a01b039091168152602090f35b8382346104bc5760203660031901126104bc5760207f820c11a553e3f58735f11b502c4c13b5bdaad97e61b6fe3bafe7eaf4e09e94de916110f96114e4565b6111016117f0565b6001600160a01b03169061111682151561187a565b600680546001600160a01b0319168317905551908152a180f35b503461031a57602036600319011261031a578261114b6114e4565b81546001600160a01b0391908216331480156111b0575b61116b9061183d565b816008541690813b1561059e5783602492865197889586946318313adf60e11b865216908401525af1908115610c2c57506111a4575080f35b6111ad90611515565b80f35b5060085482163314611162565b509190346104bc5760031960603682011261031a57813567ffffffffffffffff811161059e576111f090369084016115c4565b916044356001600160a01b0381811691829003610c3557806009541633036112ae579260a0869361126261124697948a97600e5416948851998a978896879663350f69b160e11b885287015260a4860190611988565b916024356024860152604485015283820301606484015261174c565b30608483015203915afa9182156104b257836104899493611291575050519182916020835260208301906116bf565b6112a69293503d8091833e6104a2818361153f565b908380610475565b865162461bcd60e51b8152602081850152601f60248201527f4f6e6c79206d65746164617461206d6f64756c652063616e2072656e646572006044820152606490fd5b50903461031a57602036600319011261031a5761130c6114e4565b6113146117f0565b6001600160a01b031691821561133c5750506001600160601b0360a01b600554161760055580f35b906020606492519162461bcd60e51b8352820152601760248201527f496e76616c696420666163746f727920616464726573730000000000000000006044820152fd5b8382346104bc57816003193601126104bc5760065490516001600160a01b039091168152602090f35b8382346104bc5760203660031901126104bc576020916001600160a01b03908290826113d26114e4565b168152600385522054169051908152f35b8382346104bc57816003193601126104bc5760085490516001600160a01b039091168152602090f35b503461031a578060031936011261031a576114256114e4565b9161142e6114ff565b9261143761181c565b6005546001600160a01b03929083163303611496575081169182855260036020528420921691826001600160601b0360a01b8254161790557f48e8ef3819015e9b1e8d36ddbbbc8cefc90dba7f69b711bdca0c9a10b63b037f8380a380f35b608490602085519162461bcd60e51b8352820152602260248201527f4f6e6c7920666163746f72792063616e2073657420746f6b656e206d617070696044820152616e6760f01b6064820152fd5b600435906001600160a01b03821682036114fa57565b600080fd5b602435906001600160a01b03821682036114fa57565b67ffffffffffffffff811161152957604052565b634e487b7160e01b600052604160045260246000fd5b90601f8019910116810190811067ffffffffffffffff82111761152957604052565b67ffffffffffffffff811161152957601f01601f191660200190565b81601f820112156114fa5780359061159482611561565b926115a2604051948561153f565b828452602083830101116114fa57816000926020809301838601378301015290565b91909160c0818403126114fa576040519067ffffffffffffffff9060c083018281118482101761152957604052829481358381116114fa578161160891840161157d565b845260208201358381116114fa578161162291840161157d565b602085015260408201358381116114fa578161163f91840161157d565b604085015260608201358381116114fa578161165c91840161157d565b606085015260808201358381116114fa578161167991840161157d565b608085015260a08201359283116114fa5760a092611697920161157d565b910152565b60005b8381106116af5750506000910152565b818101518382015260200161169f565b906020916116d88151809281855285808601910161169c565b601f01601f1916010190565b80548210156116fc5760005260206000200190600090565b634e487b7160e01b600052603260045260246000fd5b90600182811c92168015611742575b602083101461172c57565b634e487b7160e01b600052602260045260246000fd5b91607f1691611721565b6010546000929161175c82611712565b808252916001908181169081156117d3575060011461177a57505050565b9192935060106000527f1b6847dc741a1b0cd08d278845f9d819d87b734759afb55fe2de5cb82a9ae672916000925b8484106117bb57505060209250010190565b805460208585018101919091529093019281016117a9565b915050602093945060ff929192191683830152151560051b010190565b6000546001600160a01b0316330361180457565b60405163118cdaa760e01b8152336004820152602490fd5b60ff60005460a01c1661182b57565b60405163d93c066560e01b8152600490fd5b1561184457565b60405162461bcd60e51b815260206004820152600e60248201526d139bdd08185d5d1a1bdc9a5e995960921b6044820152606490fd5b1561188157565b60405162461bcd60e51b815260206004820152600f60248201526e496e76616c6964206164647265737360881b6044820152606490fd5b156118bf57565b60405162461bcd60e51b815260206004820152602160248201527f4f6e6c7920666163746f72792063616e20616464207772617070656420736f6e6044820152606760f81b6064820152608490fd5b908160209103126114fa575180151581036114fa5790565b6020818303126114fa5780519067ffffffffffffffff82116114fa570181601f820112156114fa57805161195981611561565b92611967604051948561153f565b818452602082840101116114fa57611985916020808501910161169c565b90565b6119859160a06119f56119e36119d16119bf6119ad875160c0885260c08801906116bf565b602088015187820360208901526116bf565b604087015186820360408801526116bf565b606086015185820360608701526116bf565b608085015184820360808601526116bf565b9201519060a08184039101526116bf56fea26469706673582212201c57638c96409250ddf8aa2a3ed3aa5059ac8e5aca09239cdc4462a22d37ef4a64736f6c63430008140033",
  "linkReferences": {},
  "deployedLinkReferences": {}
}