{
  "_format": "hh-sol-artifact-1",
  "contractName": "ProtocolModule",
  "sourceName": "contracts/protocol/NonUpgradable/ProtocolModule.sol",
  "abi": [
    {
      "inputs": [
        {
          "internalType": "address",
          "name": "_distributorWalletFactory",
          "type": "address"
        },
        {
          "internalType": "address",
          "name": "_whitelistingManager",
          "type": "address"
        },
        {
          "internalType": "address",
          "name": "_erc20whitelist",
          "type": "address"
        },
        {
          "internalType": "address",
          "name": "_metadataModule",
          "type": "address"
        },
        {
          "internalType": "address",
          "name": "_legalContractMetadata",
          "type": "address"
        }
      ],
      "stateMutability": "nonpayable",
      "type": "constructor"
    },
    {
      "inputs": [
        {
          "internalType": "address",
          "name": "target",
          "type": "address"
        }
      ],
      "name": "AddressEmptyCode",
      "type": "error"
    },
    {
      "inputs": [
        {
          "internalType": "address",
          "name": "account",
          "type": "address"
        }
      ],
      "name": "AddressInsufficientBalance",
      "type": "error"
    },
    {
      "inputs": [],
      "name": "EnforcedPause",
      "type": "error"
    },
    {
      "inputs": [],
      "name": "ExpectedPause",
      "type": "error"
    },
    {
      "inputs": [],
      "name": "FailedInnerCall",
      "type": "error"
    },
    {
      "inputs": [
        {
          "internalType": "address",
          "name": "owner",
          "type": "address"
        }
      ],
      "name": "OwnableInvalidOwner",
      "type": "error"
    },
    {
      "inputs": [
        {
          "internalType": "address",
          "name": "account",
          "type": "address"
        }
      ],
      "name": "OwnableUnauthorizedAccount",
      "type": "error"
    },
    {
      "inputs": [],
      "name": "ReentrancyGuardReentrantCall",
      "type": "error"
    },
    {
      "inputs": [
        {
          "internalType": "address",
          "name": "token",
          "type": "address"
        }
      ],
      "name": "SafeERC20FailedOperation",
      "type": "error"
    },
    {
      "anonymous": false,
      "inputs": [
        {
          "indexed": true,
          "internalType": "address",
          "name": "wrappedSong",
          "type": "address"
        },
        {
          "indexed": true,
          "internalType": "address",
          "name": "distributor",
          "type": "address"
        }
      ],
      "name": "DistributorAcceptedReview",
      "type": "event"
    },
    {
      "anonymous": false,
      "inputs": [
        {
          "indexed": false,
          "internalType": "address",
          "name": "newFactory",
          "type": "address"
        }
      ],
      "name": "DistributorWalletFactoryUpdated",
      "type": "event"
    },
    {
      "anonymous": false,
      "inputs": [
        {
          "indexed": false,
          "internalType": "address",
          "name": "newWhitelist",
          "type": "address"
        }
      ],
      "name": "ERC20WhitelistUpdated",
      "type": "event"
    },
    {
      "anonymous": false,
      "inputs": [
        {
          "indexed": true,
          "internalType": "address",
          "name": "token",
          "type": "address"
        },
        {
          "indexed": true,
          "internalType": "address",
          "name": "recipient",
          "type": "address"
        },
        {
          "indexed": false,
          "internalType": "uint256",
          "name": "amount",
          "type": "uint256"
        }
      ],
      "name": "FeesWithdrawn",
      "type": "event"
    },
    {
      "anonymous": false,
      "inputs": [
        {
          "indexed": true,
          "internalType": "address",
          "name": "wrappedSong",
          "type": "address"
        },
        {
          "indexed": false,
          "internalType": "string",
          "name": "registryType",
          "type": "string"
        },
        {
          "indexed": false,
          "internalType": "string",
          "name": "value",
          "type": "string"
        }
      ],
      "name": "IdentityRegistryUpdated",
      "type": "event"
    },
    {
      "anonymous": false,
      "inputs": [
        {
          "indexed": false,
          "internalType": "address",
          "name": "newContract",
          "type": "address"
        }
      ],
      "name": "LegalContractMetadataUpdated",
      "type": "event"
    },
    {
      "anonymous": false,
      "inputs": [
        {
          "indexed": false,
          "internalType": "uint256",
          "name": "newDuration",
          "type": "uint256"
        }
      ],
      "name": "MaxSaleDurationUpdated",
      "type": "event"
    },
    {
      "anonymous": false,
      "inputs": [
        {
          "indexed": false,
          "internalType": "address",
          "name": "newModule",
          "type": "address"
        }
      ],
      "name": "MetadataModuleUpdated",
      "type": "event"
    },
    {
      "anonymous": false,
      "inputs": [
        {
          "indexed": false,
          "internalType": "address",
          "name": "newRenderer",
          "type": "address"
        }
      ],
      "name": "MetadataRendererUpdated",
      "type": "event"
    },
    {
      "anonymous": false,
      "inputs": [
        {
          "indexed": true,
          "internalType": "address",
          "name": "wrappedSong",
          "type": "address"
        },
        {
          "indexed": true,
          "internalType": "uint256",
          "name": "tokenId",
          "type": "uint256"
        },
        {
          "indexed": false,
          "internalType": "string",
          "name": "newMetadata",
          "type": "string"
        }
      ],
      "name": "MetadataUpdateRequested",
      "type": "event"
    },
    {
      "anonymous": false,
      "inputs": [
        {
          "indexed": true,
          "internalType": "address",
          "name": "wrappedSong",
          "type": "address"
        },
        {
          "indexed": true,
          "internalType": "uint256",
          "name": "tokenId",
          "type": "uint256"
        },
        {
          "indexed": false,
          "internalType": "string",
          "name": "newMetadata",
          "type": "string"
        }
      ],
      "name": "MetadataUpdated",
      "type": "event"
    },
    {
      "anonymous": false,
      "inputs": [
        {
          "indexed": true,
          "internalType": "address",
          "name": "owner",
          "type": "address"
        },
        {
          "indexed": true,
          "internalType": "address",
          "name": "wrappedSong",
          "type": "address"
        }
      ],
      "name": "OwnerWrappedSongAdded",
      "type": "event"
    },
    {
      "anonymous": false,
      "inputs": [
        {
          "indexed": true,
          "internalType": "address",
          "name": "previousOwner",
          "type": "address"
        },
        {
          "indexed": true,
          "internalType": "address",
          "name": "newOwner",
          "type": "address"
        }
      ],
      "name": "OwnershipTransferred",
      "type": "event"
    },
    {
      "anonymous": false,
      "inputs": [
        {
          "indexed": false,
          "internalType": "address",
          "name": "account",
          "type": "address"
        }
      ],
      "name": "Paused",
      "type": "event"
    },
    {
      "anonymous": false,
      "inputs": [
        {
          "indexed": false,
          "internalType": "bool",
          "name": "isPaused",
          "type": "bool"
        }
      ],
      "name": "Paused",
      "type": "event"
    },
    {
      "anonymous": false,
      "inputs": [
        {
          "indexed": false,
          "internalType": "uint256",
          "name": "newFee",
          "type": "uint256"
        }
      ],
      "name": "ReleaseFeeUpdated",
      "type": "event"
    },
    {
      "anonymous": false,
      "inputs": [
        {
          "indexed": false,
          "internalType": "bool",
          "name": "enabled",
          "type": "bool"
        }
      ],
      "name": "ReleasesEnabledChanged",
      "type": "event"
    },
    {
      "anonymous": false,
      "inputs": [
        {
          "indexed": false,
          "internalType": "uint256",
          "name": "newDays",
          "type": "uint256"
        }
      ],
      "name": "ReviewPeriodDaysUpdated",
      "type": "event"
    },
    {
      "anonymous": false,
      "inputs": [
        {
          "indexed": true,
          "internalType": "address",
          "name": "wrappedSong",
          "type": "address"
        },
        {
          "indexed": true,
          "internalType": "address",
          "name": "distributor",
          "type": "address"
        }
      ],
      "name": "ReviewPeriodExpired",
      "type": "event"
    },
    {
      "anonymous": false,
      "inputs": [
        {
          "indexed": true,
          "internalType": "address",
          "name": "smartAccount",
          "type": "address"
        },
        {
          "indexed": true,
          "internalType": "address",
          "name": "wsToken",
          "type": "address"
        }
      ],
      "name": "SmartAccountToWSTokenMapped",
      "type": "event"
    },
    {
      "anonymous": false,
      "inputs": [
        {
          "indexed": false,
          "internalType": "uint256",
          "name": "newCreationFee",
          "type": "uint256"
        },
        {
          "indexed": false,
          "internalType": "uint256",
          "name": "newReleaseFee",
          "type": "uint256"
        }
      ],
      "name": "StableFeesUpdated",
      "type": "event"
    },
    {
      "anonymous": false,
      "inputs": [
        {
          "indexed": false,
          "internalType": "uint256",
          "name": "newFee",
          "type": "uint256"
        }
      ],
      "name": "StartSaleFeeUpdated",
      "type": "event"
    },
    {
      "anonymous": false,
      "inputs": [
        {
          "indexed": false,
          "internalType": "address",
          "name": "account",
          "type": "address"
        }
      ],
      "name": "Unpaused",
      "type": "event"
    },
    {
      "anonymous": false,
      "inputs": [
        {
          "indexed": false,
          "internalType": "address",
          "name": "newManager",
          "type": "address"
        }
      ],
      "name": "WhitelistingManagerUpdated",
      "type": "event"
    },
    {
      "anonymous": false,
      "inputs": [
        {
          "indexed": false,
          "internalType": "uint256",
          "name": "newPercentage",
          "type": "uint256"
        }
      ],
      "name": "WithdrawalFeePercentageUpdated",
      "type": "event"
    },
    {
      "anonymous": false,
      "inputs": [
        {
          "indexed": true,
          "internalType": "address",
          "name": "wrappedSong",
          "type": "address"
        },
        {
          "indexed": false,
          "internalType": "bool",
          "name": "isAuthentic",
          "type": "bool"
        }
      ],
      "name": "WrappedSongAuthenticitySet",
      "type": "event"
    },
    {
      "anonymous": false,
      "inputs": [
        {
          "indexed": false,
          "internalType": "uint256",
          "name": "newFee",
          "type": "uint256"
        }
      ],
      "name": "WrappedSongCreationFeeUpdated",
      "type": "event"
    },
    {
      "anonymous": false,
      "inputs": [
        {
          "indexed": true,
          "internalType": "address",
          "name": "wrappedSong",
          "type": "address"
        },
        {
          "indexed": true,
          "internalType": "address",
          "name": "distributor",
          "type": "address"
        }
      ],
      "name": "WrappedSongReleaseRejected",
      "type": "event"
    },
    {
      "anonymous": false,
      "inputs": [
        {
          "indexed": true,
          "internalType": "address",
          "name": "wrappedSong",
          "type": "address"
        },
        {
          "indexed": true,
          "internalType": "address",
          "name": "distributor",
          "type": "address"
        },
        {
          "indexed": true,
          "internalType": "address",
          "name": "creator",
          "type": "address"
        }
      ],
      "name": "WrappedSongReleaseRequested",
      "type": "event"
    },
    {
      "anonymous": false,
      "inputs": [
        {
          "indexed": true,
          "internalType": "address",
          "name": "wrappedSong",
          "type": "address"
        },
        {
          "indexed": true,
          "internalType": "address",
          "name": "distributor",
          "type": "address"
        }
      ],
      "name": "WrappedSongReleased",
      "type": "event"
    },
    {
      "inputs": [],
      "name": "MAX_WITHDRAWAL_FEE",
      "outputs": [
        {
          "internalType": "uint256",
          "name": "",
          "type": "uint256"
        }
      ],
      "stateMutability": "view",
      "type": "function"
    },
    {
      "inputs": [
        {
          "internalType": "address",
          "name": "wrappedSong",
          "type": "address"
        }
      ],
      "name": "acceptWrappedSongForReview",
      "outputs": [],
      "stateMutability": "nonpayable",
      "type": "function"
    },
    {
      "inputs": [
        {
          "internalType": "address",
          "name": "",
          "type": "address"
        }
      ],
      "name": "accumulatedFees",
      "outputs": [
        {
          "internalType": "uint256",
          "name": "",
          "type": "uint256"
        }
      ],
      "stateMutability": "view",
      "type": "function"
    },
    {
      "inputs": [
        {
          "internalType": "address",
          "name": "wrappedSong",
          "type": "address"
        },
        {
          "internalType": "string",
          "name": "iscc",
          "type": "string"
        }
      ],
      "name": "addISCC",
      "outputs": [],
      "stateMutability": "nonpayable",
      "type": "function"
    },
    {
      "inputs": [
        {
          "internalType": "address",
          "name": "wrappedSong",
          "type": "address"
        },
        {
          "internalType": "string",
          "name": "isrc",
          "type": "string"
        }
      ],
      "name": "addISRC",
      "outputs": [],
      "stateMutability": "nonpayable",
      "type": "function"
    },
    {
      "inputs": [
        {
          "internalType": "address",
          "name": "wrappedSong",
          "type": "address"
        },
        {
          "internalType": "string",
          "name": "iswc",
          "type": "string"
        }
      ],
      "name": "addISWC",
      "outputs": [],
      "stateMutability": "nonpayable",
      "type": "function"
    },
    {
      "inputs": [
        {
          "internalType": "address",
          "name": "wrappedSong",
          "type": "address"
        },
        {
          "internalType": "string",
          "name": "upc",
          "type": "string"
        }
      ],
      "name": "addUPC",
      "outputs": [],
      "stateMutability": "nonpayable",
      "type": "function"
    },
    {
      "inputs": [
        {
          "internalType": "address",
          "name": "",
          "type": "address"
        }
      ],
      "name": "authorizedContracts",
      "outputs": [
        {
          "internalType": "bool",
          "name": "",
          "type": "bool"
        }
      ],
      "stateMutability": "view",
      "type": "function"
    },
    {
      "inputs": [],
      "name": "baseURI",
      "outputs": [
        {
          "internalType": "string",
          "name": "",
          "type": "string"
        }
      ],
      "stateMutability": "view",
      "type": "function"
    },
    {
      "inputs": [
        {
          "internalType": "address",
          "name": "wrappedSong",
          "type": "address"
        }
      ],
      "name": "confirmWrappedSongRelease",
      "outputs": [],
      "stateMutability": "nonpayable",
      "type": "function"
    },
    {
      "inputs": [],
      "name": "distributorWalletFactory",
      "outputs": [
        {
          "internalType": "contract IDistributorWalletFactory",
          "name": "",
          "type": "address"
        }
      ],
      "stateMutability": "view",
      "type": "function"
    },
    {
      "inputs": [],
      "name": "erc20whitelist",
      "outputs": [
        {
          "internalType": "contract IERC20Whitelist",
          "name": "",
          "type": "address"
        }
      ],
      "stateMutability": "view",
      "type": "function"
    },
    {
      "inputs": [],
      "name": "getBaseURI",
      "outputs": [
        {
          "internalType": "string",
          "name": "",
          "type": "string"
        }
      ],
      "stateMutability": "view",
      "type": "function"
    },
    {
      "inputs": [],
      "name": "getLegalContractMetadata",
      "outputs": [
        {
          "internalType": "address",
          "name": "",
          "type": "address"
        }
      ],
      "stateMutability": "view",
      "type": "function"
    },
    {
      "inputs": [],
      "name": "getMetadataModule",
      "outputs": [
        {
          "internalType": "address",
          "name": "",
          "type": "address"
        }
      ],
      "stateMutability": "view",
      "type": "function"
    },
    {
      "inputs": [
        {
          "internalType": "address",
          "name": "owner",
          "type": "address"
        }
      ],
      "name": "getOwnerWrappedSongs",
      "outputs": [
        {
          "internalType": "address[]",
          "name": "",
          "type": "address[]"
        }
      ],
      "stateMutability": "view",
      "type": "function"
    },
    {
      "inputs": [
        {
          "internalType": "address",
          "name": "wrappedSong",
          "type": "address"
        }
      ],
      "name": "getPendingDistributorRequests",
      "outputs": [
        {
          "internalType": "address",
          "name": "",
          "type": "address"
        }
      ],
      "stateMutability": "view",
      "type": "function"
    },
    {
      "inputs": [],
      "name": "getStartSaleFee",
      "outputs": [
        {
          "internalType": "uint256",
          "name": "",
          "type": "uint256"
        }
      ],
      "stateMutability": "view",
      "type": "function"
    },
    {
      "inputs": [],
      "name": "getWithdrawalFeePercentage",
      "outputs": [
        {
          "internalType": "uint256",
          "name": "",
          "type": "uint256"
        }
      ],
      "stateMutability": "view",
      "type": "function"
    },
    {
      "inputs": [
        {
          "internalType": "address",
          "name": "wrappedSong",
          "type": "address"
        }
      ],
      "name": "getWrappedSongDistributor",
      "outputs": [
        {
          "internalType": "address",
          "name": "",
          "type": "address"
        }
      ],
      "stateMutability": "view",
      "type": "function"
    },
    {
      "inputs": [
        {
          "internalType": "address",
          "name": "wrappedSong",
          "type": "address"
        }
      ],
      "name": "handleExpiredReviewPeriod",
      "outputs": [],
      "stateMutability": "nonpayable",
      "type": "function"
    },
    {
      "inputs": [
        {
          "internalType": "address",
          "name": "wrappedSong",
          "type": "address"
        }
      ],
      "name": "isAuthentic",
      "outputs": [
        {
          "internalType": "bool",
          "name": "",
          "type": "bool"
        }
      ],
      "stateMutability": "view",
      "type": "function"
    },
    {
      "inputs": [
        {
          "internalType": "address",
          "name": "_contractAddress",
          "type": "address"
        }
      ],
      "name": "isAuthorizedContract",
      "outputs": [
        {
          "internalType": "bool",
          "name": "",
          "type": "bool"
        }
      ],
      "stateMutability": "view",
      "type": "function"
    },
    {
      "inputs": [
        {
          "internalType": "address",
          "name": "wrappedSong",
          "type": "address"
        }
      ],
      "name": "isReleased",
      "outputs": [
        {
          "internalType": "bool",
          "name": "",
          "type": "bool"
        }
      ],
      "stateMutability": "view",
      "type": "function"
    },
    {
      "inputs": [
        {
          "internalType": "address",
          "name": "token",
          "type": "address"
        }
      ],
      "name": "isTokenWhitelisted",
      "outputs": [
        {
          "internalType": "bool",
          "name": "",
          "type": "bool"
        }
      ],
      "stateMutability": "view",
      "type": "function"
    },
    {
      "inputs": [
        {
          "internalType": "address",
          "name": "creator",
          "type": "address"
        }
      ],
      "name": "isValidToCreateWrappedSong",
      "outputs": [
        {
          "internalType": "bool",
          "name": "",
          "type": "bool"
        }
      ],
      "stateMutability": "view",
      "type": "function"
    },
    {
      "inputs": [
        {
          "internalType": "address",
          "name": "wsTokenManagement",
          "type": "address"
        }
      ],
      "name": "isWSTokenFromProtocol",
      "outputs": [
        {
          "internalType": "bool",
          "name": "",
          "type": "bool"
        }
      ],
      "stateMutability": "view",
      "type": "function"
    },
    {
      "inputs": [
        {
          "internalType": "address",
          "name": "",
          "type": "address"
        }
      ],
      "name": "isccRegistry",
      "outputs": [
        {
          "internalType": "string",
          "name": "",
          "type": "string"
        }
      ],
      "stateMutability": "view",
      "type": "function"
    },
    {
      "inputs": [
        {
          "internalType": "address",
          "name": "",
          "type": "address"
        }
      ],
      "name": "isrcRegistry",
      "outputs": [
        {
          "internalType": "string",
          "name": "",
          "type": "string"
        }
      ],
      "stateMutability": "view",
      "type": "function"
    },
    {
      "inputs": [
        {
          "internalType": "address",
          "name": "",
          "type": "address"
        }
      ],
      "name": "iswcRegistry",
      "outputs": [
        {
          "internalType": "string",
          "name": "",
          "type": "string"
        }
      ],
      "stateMutability": "view",
      "type": "function"
    },
    {
      "inputs": [],
      "name": "legalContractMetadata",
      "outputs": [
        {
          "internalType": "contract ILegalContractMetadata",
          "name": "",
          "type": "address"
        }
      ],
      "stateMutability": "view",
      "type": "function"
    },
    {
      "inputs": [],
      "name": "maxSaleDuration",
      "outputs": [
        {
          "internalType": "uint256",
          "name": "",
          "type": "uint256"
        }
      ],
      "stateMutability": "view",
      "type": "function"
    },
    {
      "inputs": [],
      "name": "metadataModule",
      "outputs": [
        {
          "internalType": "contract IMetadataModule",
          "name": "",
          "type": "address"
        }
      ],
      "stateMutability": "view",
      "type": "function"
    },
    {
      "inputs": [],
      "name": "metadataRenderer",
      "outputs": [
        {
          "internalType": "contract IMetadataRenderer",
          "name": "",
          "type": "address"
        }
      ],
      "stateMutability": "view",
      "type": "function"
    },
    {
      "inputs": [],
      "name": "owner",
      "outputs": [
        {
          "internalType": "address",
          "name": "",
          "type": "address"
        }
      ],
      "stateMutability": "view",
      "type": "function"
    },
    {
      "inputs": [
        {
          "internalType": "address",
          "name": "",
          "type": "address"
        },
        {
          "internalType": "uint256",
          "name": "",
          "type": "uint256"
        }
      ],
      "name": "ownerWrappedSongs",
      "outputs": [
        {
          "internalType": "address",
          "name": "",
          "type": "address"
        }
      ],
      "stateMutability": "view",
      "type": "function"
    },
    {
      "inputs": [],
      "name": "pause",
      "outputs": [],
      "stateMutability": "nonpayable",
      "type": "function"
    },
    {
      "inputs": [],
      "name": "paused",
      "outputs": [
        {
          "internalType": "bool",
          "name": "",
          "type": "bool"
        }
      ],
      "stateMutability": "view",
      "type": "function"
    },
    {
      "inputs": [
        {
          "internalType": "address",
          "name": "",
          "type": "address"
        }
      ],
      "name": "pendingDistributorRequests",
      "outputs": [
        {
          "internalType": "address",
          "name": "",
          "type": "address"
        }
      ],
      "stateMutability": "view",
      "type": "function"
    },
    {
      "inputs": [
        {
          "internalType": "address",
          "name": "wrappedSong",
          "type": "address"
        }
      ],
      "name": "rejectWrappedSongRelease",
      "outputs": [],
      "stateMutability": "nonpayable",
      "type": "function"
    },
    {
      "inputs": [],
      "name": "releaseFee",
      "outputs": [
        {
          "internalType": "uint256",
          "name": "",
          "type": "uint256"
        }
      ],
      "stateMutability": "view",
      "type": "function"
    },
    {
      "inputs": [],
      "name": "releaseFeeStable",
      "outputs": [
        {
          "internalType": "uint256",
          "name": "",
          "type": "uint256"
        }
      ],
      "stateMutability": "view",
      "type": "function"
    },
    {
      "inputs": [],
      "name": "releasesEnabled",
      "outputs": [
        {
          "internalType": "bool",
          "name": "",
          "type": "bool"
        }
      ],
      "stateMutability": "view",
      "type": "function"
    },
    {
      "inputs": [
        {
          "internalType": "address",
          "name": "token",
          "type": "address"
        }
      ],
      "name": "removeTokenFromWhitelist",
      "outputs": [],
      "stateMutability": "nonpayable",
      "type": "function"
    },
    {
      "inputs": [
        {
          "internalType": "address",
          "name": "wrappedSong",
          "type": "address"
        }
      ],
      "name": "removeWrappedSongReleaseRequest",
      "outputs": [],
      "stateMutability": "nonpayable",
      "type": "function"
    },
    {
      "inputs": [
        {
          "components": [
            {
              "internalType": "string",
              "name": "name",
              "type": "string"
            },
            {
              "internalType": "string",
              "name": "description",
              "type": "string"
            },
            {
              "internalType": "string",
              "name": "image",
              "type": "string"
            },
            {
              "internalType": "string",
              "name": "externalUrl",
              "type": "string"
            },
            {
              "internalType": "string",
              "name": "animationUrl",
              "type": "string"
            },
            {
              "internalType": "string",
              "name": "attributesIpfsHash",
              "type": "string"
            }
          ],
          "internalType": "struct IMetadataModule.Metadata",
          "name": "metadata",
          "type": "tuple"
        },
        {
          "internalType": "uint256",
          "name": "tokenId",
          "type": "uint256"
        },
        {
          "internalType": "address",
          "name": "wrappedSong",
          "type": "address"
        }
      ],
      "name": "renderTokenURI",
      "outputs": [
        {
          "internalType": "string",
          "name": "",
          "type": "string"
        }
      ],
      "stateMutability": "view",
      "type": "function"
    },
    {
      "inputs": [],
      "name": "renounceOwnership",
      "outputs": [],
      "stateMutability": "nonpayable",
      "type": "function"
    },
    {
      "inputs": [
        {
          "internalType": "address",
          "name": "wrappedSong",
          "type": "address"
        },
        {
          "internalType": "address",
          "name": "distributor",
          "type": "address"
        },
        {
          "internalType": "bool",
          "name": "useStableCoin",
          "type": "bool"
        },
        {
          "internalType": "address",
          "name": "stableCoinToUse",
          "type": "address"
        }
      ],
      "name": "requestWrappedSongRelease",
      "outputs": [],
      "stateMutability": "payable",
      "type": "function"
    },
    {
      "inputs": [
        {
          "internalType": "address",
          "name": "wrappedSong",
          "type": "address"
        },
        {
          "internalType": "address",
          "name": "distributor",
          "type": "address"
        },
        {
          "components": [
            {
              "internalType": "string",
              "name": "name",
              "type": "string"
            },
            {
              "internalType": "string",
              "name": "description",
              "type": "string"
            },
            {
              "internalType": "string",
              "name": "image",
              "type": "string"
            },
            {
              "internalType": "string",
              "name": "externalUrl",
              "type": "string"
            },
            {
              "internalType": "string",
              "name": "animationUrl",
              "type": "string"
            },
            {
              "internalType": "string",
              "name": "attributesIpfsHash",
              "type": "string"
            }
          ],
          "internalType": "struct IMetadataModule.Metadata",
          "name": "newMetadata",
          "type": "tuple"
        },
        {
          "internalType": "bool",
          "name": "useStableCoin",
          "type": "bool"
        },
        {
          "internalType": "address",
          "name": "stableCoinToUse",
          "type": "address"
        }
      ],
      "name": "requestWrappedSongReleaseWithMetadata",
      "outputs": [],
      "stateMutability": "payable",
      "type": "function"
    },
    {
      "inputs": [],
      "name": "reviewPeriodDays",
      "outputs": [
        {
          "internalType": "uint256",
          "name": "",
          "type": "uint256"
        }
      ],
      "stateMutability": "view",
      "type": "function"
    },
    {
      "inputs": [
        {
          "internalType": "address",
          "name": "",
          "type": "address"
        }
      ],
      "name": "reviewPeriods",
      "outputs": [
        {
          "internalType": "uint256",
          "name": "startTime",
          "type": "uint256"
        },
        {
          "internalType": "uint256",
          "name": "endTime",
          "type": "uint256"
        },
        {
          "internalType": "address",
          "name": "distributor",
          "type": "address"
        }
      ],
      "stateMutability": "view",
      "type": "function"
    },
    {
      "inputs": [
        {
          "internalType": "address",
          "name": "_contractAddress",
          "type": "address"
        },
        {
          "internalType": "bool",
          "name": "_isAuthorized",
          "type": "bool"
        }
      ],
      "name": "setAuthorizedContract",
      "outputs": [],
      "stateMutability": "nonpayable",
      "type": "function"
    },
    {
      "inputs": [
        {
          "internalType": "string",
          "name": "_baseURI",
          "type": "string"
        }
      ],
      "name": "setBaseURI",
      "outputs": [],
      "stateMutability": "nonpayable",
      "type": "function"
    },
    {
      "inputs": [
        {
          "internalType": "address",
          "name": "_newFactory",
          "type": "address"
        }
      ],
      "name": "setDistributorWalletFactory",
      "outputs": [],
      "stateMutability": "nonpayable",
      "type": "function"
    },
    {
      "inputs": [
        {
          "internalType": "address",
          "name": "_erc20whitelist",
          "type": "address"
        }
      ],
      "name": "setERC20Whitelist",
      "outputs": [],
      "stateMutability": "nonpayable",
      "type": "function"
    },
    {
      "inputs": [
        {
          "internalType": "address",
          "name": "_legalContractMetadata",
          "type": "address"
        }
      ],
      "name": "setLegalContractMetadata",
      "outputs": [],
      "stateMutability": "nonpayable",
      "type": "function"
    },
    {
      "inputs": [
        {
          "internalType": "uint256",
          "name": "_duration",
          "type": "uint256"
        }
      ],
      "name": "setMaxSaleDuration",
      "outputs": [],
      "stateMutability": "nonpayable",
      "type": "function"
    },
    {
      "inputs": [
        {
          "internalType": "address",
          "name": "_metadataModule",
          "type": "address"
        }
      ],
      "name": "setMetadataModule",
      "outputs": [],
      "stateMutability": "nonpayable",
      "type": "function"
    },
    {
      "inputs": [
        {
          "internalType": "address",
          "name": "_renderer",
          "type": "address"
        }
      ],
      "name": "setMetadataRenderer",
      "outputs": [],
      "stateMutability": "nonpayable",
      "type": "function"
    },
    {
      "inputs": [
        {
          "internalType": "address",
          "name": "owner",
          "type": "address"
        },
        {
          "internalType": "address",
          "name": "wrappedSong",
          "type": "address"
        }
      ],
      "name": "setOwnerWrappedSong",
      "outputs": [],
      "stateMutability": "nonpayable",
      "type": "function"
    },
    {
      "inputs": [
        {
          "internalType": "uint256",
          "name": "_fee",
          "type": "uint256"
        }
      ],
      "name": "setReleaseFee",
      "outputs": [],
      "stateMutability": "nonpayable",
      "type": "function"
    },
    {
      "inputs": [
        {
          "internalType": "uint256",
          "name": "_fee",
          "type": "uint256"
        }
      ],
      "name": "setReleaseFeeStable",
      "outputs": [],
      "stateMutability": "nonpayable",
      "type": "function"
    },
    {
      "inputs": [
        {
          "internalType": "bool",
          "name": "_enabled",
          "type": "bool"
        }
      ],
      "name": "setReleasesEnabled",
      "outputs": [],
      "stateMutability": "nonpayable",
      "type": "function"
    },
    {
      "inputs": [
        {
          "internalType": "uint256",
          "name": "_days",
          "type": "uint256"
        }
      ],
      "name": "setReviewPeriodDays",
      "outputs": [],
      "stateMutability": "nonpayable",
      "type": "function"
    },
    {
      "inputs": [
        {
          "internalType": "address",
          "name": "smartAccount",
          "type": "address"
        },
        {
          "internalType": "address",
          "name": "wsToken",
          "type": "address"
        }
      ],
      "name": "setSmartAccountToWSToken",
      "outputs": [],
      "stateMutability": "nonpayable",
      "type": "function"
    },
    {
      "inputs": [
        {
          "internalType": "uint256",
          "name": "newFee",
          "type": "uint256"
        }
      ],
      "name": "setStartSaleFee",
      "outputs": [],
      "stateMutability": "nonpayable",
      "type": "function"
    },
    {
      "inputs": [
        {
          "internalType": "address",
          "name": "wsTokenManagement",
          "type": "address"
        }
      ],
      "name": "setWSTokenFromProtocol",
      "outputs": [],
      "stateMutability": "nonpayable",
      "type": "function"
    },
    {
      "inputs": [
        {
          "internalType": "address",
          "name": "_whitelistingManager",
          "type": "address"
        }
      ],
      "name": "setWhitelistingManager",
      "outputs": [],
      "stateMutability": "nonpayable",
      "type": "function"
    },
    {
      "inputs": [
        {
          "internalType": "uint256",
          "name": "_feePercentage",
          "type": "uint256"
        }
      ],
      "name": "setWithdrawalFeePercentage",
      "outputs": [],
      "stateMutability": "nonpayable",
      "type": "function"
    },
    {
      "inputs": [
        {
          "internalType": "address",
          "name": "wrappedSong",
          "type": "address"
        },
        {
          "internalType": "bool",
          "name": "_isAuthentic",
          "type": "bool"
        }
      ],
      "name": "setWrappedSongAuthenticity",
      "outputs": [],
      "stateMutability": "nonpayable",
      "type": "function"
    },
    {
      "inputs": [
        {
          "internalType": "uint256",
          "name": "_fee",
          "type": "uint256"
        }
      ],
      "name": "setWrappedSongCreationFee",
      "outputs": [],
      "stateMutability": "nonpayable",
      "type": "function"
    },
    {
      "inputs": [
        {
          "internalType": "uint256",
          "name": "_fee",
          "type": "uint256"
        }
      ],
      "name": "setWrappedSongCreationFeeStable",
      "outputs": [],
      "stateMutability": "nonpayable",
      "type": "function"
    },
    {
      "inputs": [
        {
          "internalType": "address",
          "name": "_wrappedSongFactory",
          "type": "address"
        }
      ],
      "name": "setWrappedSongFactory",
      "outputs": [],
      "stateMutability": "nonpayable",
      "type": "function"
    },
    {
      "inputs": [
        {
          "internalType": "address",
          "name": "",
          "type": "address"
        }
      ],
      "name": "smartAccountToWSToken",
      "outputs": [
        {
          "internalType": "address",
          "name": "",
          "type": "address"
        }
      ],
      "stateMutability": "view",
      "type": "function"
    },
    {
      "inputs": [
        {
          "internalType": "address",
          "name": "newOwner",
          "type": "address"
        }
      ],
      "name": "transferOwnership",
      "outputs": [],
      "stateMutability": "nonpayable",
      "type": "function"
    },
    {
      "inputs": [],
      "name": "unpause",
      "outputs": [],
      "stateMutability": "nonpayable",
      "type": "function"
    },
    {
      "inputs": [
        {
          "internalType": "address",
          "name": "",
          "type": "address"
        }
      ],
      "name": "upcRegistry",
      "outputs": [
        {
          "internalType": "string",
          "name": "",
          "type": "string"
        }
      ],
      "stateMutability": "view",
      "type": "function"
    },
    {
      "inputs": [
        {
          "internalType": "address",
          "name": "token",
          "type": "address"
        }
      ],
      "name": "whitelistToken",
      "outputs": [],
      "stateMutability": "nonpayable",
      "type": "function"
    },
    {
      "inputs": [],
      "name": "whitelistingManager",
      "outputs": [
        {
          "internalType": "contract IWhitelistingManager",
          "name": "",
          "type": "address"
        }
      ],
      "stateMutability": "view",
      "type": "function"
    },
    {
      "inputs": [
        {
          "internalType": "address",
          "name": "token",
          "type": "address"
        },
        {
          "internalType": "address",
          "name": "recipient",
          "type": "address"
        }
      ],
      "name": "withdrawAccumulatedFees",
      "outputs": [],
      "stateMutability": "nonpayable",
      "type": "function"
    },
    {
      "inputs": [],
      "name": "withdrawalFeePercentage",
      "outputs": [
        {
          "internalType": "uint256",
          "name": "",
          "type": "uint256"
        }
      ],
      "stateMutability": "view",
      "type": "function"
    },
    {
      "inputs": [
        {
          "internalType": "address",
          "name": "",
          "type": "address"
        }
      ],
      "name": "wrappedSongAuthenticity",
      "outputs": [
        {
          "internalType": "bool",
          "name": "",
          "type": "bool"
        }
      ],
      "stateMutability": "view",
      "type": "function"
    },
    {
      "inputs": [],
      "name": "wrappedSongCreationFee",
      "outputs": [
        {
          "internalType": "uint256",
          "name": "",
          "type": "uint256"
        }
      ],
      "stateMutability": "view",
      "type": "function"
    },
    {
      "inputs": [],
      "name": "wrappedSongCreationFeeStable",
      "outputs": [
        {
          "internalType": "uint256",
          "name": "",
          "type": "uint256"
        }
      ],
      "stateMutability": "view",
      "type": "function"
    },
    {
      "inputs": [],
      "name": "wrappedSongFactory",
      "outputs": [
        {
          "internalType": "contract IWrappedSongFactory",
          "name": "",
          "type": "address"
        }
      ],
      "stateMutability": "view",
      "type": "function"
    },
    {
      "inputs": [],
      "name": "wrappedSongFactoryAddress",
      "outputs": [
        {
          "internalType": "address",
          "name": "",
          "type": "address"
        }
      ],
      "stateMutability": "view",
      "type": "function"
    },
    {
      "inputs": [
        {
          "internalType": "address",
          "name": "",
          "type": "address"
        }
      ],
      "name": "wrappedSongToDistributor",
      "outputs": [
        {
          "internalType": "address",
          "name": "",
          "type": "address"
        }
      ],
      "stateMutability": "view",
      "type": "function"
    },
    {
      "stateMutability": "payable",
      "type": "receive"
    }
  ],
  "bytecode": "0x6080346200016157601f62003d8038819003918201601f19168301916001600160401b03831184841017620001665780849260a09460405283398101031262000161576200004d816200017c565b6200005b602083016200017c565b62000069604084016200017c565b906200008660806200007e606087016200017c565b95016200017c565b9033156200014857600054946040519560018060a01b03948580948193338382167f8be0079c531659141344cd1fd0a4f28419497f9722a3daafe3b4186f6b6457e0600080a360ff60a01b1933169060018060a81b03191617600055600180556007601c5562278d00601d55600160ff19601f541617601f558160018060a01b031999168960095416176009551687600a541617600a551685600b541617600b551683600c541617600c551690600d541617600d55613bee9081620001928239f35b604051631e4fbdf760e01b815260006004820152602490fd5b600080fd5b634e487b7160e01b600052604160045260246000fd5b51906001600160a01b0382168203620001615756fe60406080815260048036101561001f575b5050361561001d57600080fd5b005b600091823560e01c806208ac8314612e8857806306fd88ed1461147f578063088b9554146126f657806309da4e5114612e5f5780630b1b745e14612e245780630c5d8da114612dfb578063175b818c14612dd757806317fe81f714612db85780631a3b00e214612d995780631c8370cb146118ad5780631e944d5414612d5e5780631f47106914612d3c57806321dd882b14612d015780632490a90114612ce25780632b03295f14612b325780632cd6c9a6146124115780632fb92c5a14612aa45780632fda23b71461286d578063306275be146127e35780633224d84814612795578063358d96ab1461271f5780633684d100146126f6578063376c1f071461253357806337c38c48146124f657806337d7d5421461244c5780633aa690e7146124115780633f4ba83a146123a3578063438c9d9514612384578063496d51af146121a75780634b08ec50146120025780634bb43e5c14611fc75780634da6840a14611f6e5780634fa71b0614611d91578063533761fe14611cfa57806355f804b314611b9357806356be3d2414611b405780635c975abb14611b1b5780635fb0ea9014611aba578381636247f6f214611a255750806366d0ead314610e0e5780636b09d202146111755780636c0360eb146119a05780636cf563a4146119e757806370319970146119be578063714c5398146119a0578063715018a6146119435780637159aa62146118f5578063723ff2a2146118d657806377191a6e14610bcb57806378922c8f1461115657806381b539b8146118ad5780638437de381461184a5780638456cb59146117eb5780638bfa25da1461179d5780638da5cb5b146117755780639860da0014611723578063a4144de614611533578063a4198fa2146114bd578063a44935751461147f578063a951583b14611409578063ac581b3a146113e0578063b0c70e2714611301578063b5af090f146112a2578063be94e319146111b0578063c7be5e2a14611175578063c8f5f4e814611156578063ccad87f01461106d578063cf7220a714610e4c578063d5b9221b14610e0e578063d7bf108314610c60578063d9ce7b9514610c13578063d9fa987914610bf4578063dbd15d5314610bcb578063dfef9681146109e4578063e48293691461096e578063e72cfcb81461091b578063eb6ed330146108fe578063ec691a5914610888578063f140b55f146107ff578063f2fa7392146107aa578063f2fde38b1461071e578063f3d5d37c14610700578063f5260369146105f7578063fc2a7091146105a5578063fcf6666414610569578063fd4fe8a8146104b55763ff4884f8146103ea5750610010565b346104b157806003193601126104b157610402612f60565b9161040b612f76565b906104146133a7565b6008546001600160a01b0394859161042f9083163314613b22565b1692838652600660205285208054916801000000000000000083101561049e575081610461916001879401815561333e565b949092169382549060031b9185831b921b19161790557f4cda7c30666ce0c5304ba2d323cdee5f647baac385d8e0cb2f706641c95043af8380a380f35b634e487b7160e01b875260419052602486fd5b8280fd5b50346104b15760203660031901126104b1576104cf612f60565b6104d761337b565b6001600160a01b03169182156105275750601880546001600160a01b03191683179055519081527f60a886c8dc324af9c6d6a1bf7369ffe7557ef345eb5717bceffb59beac879a0a90602090a180f35b6020606492519162461bcd60e51b8352820152601860248201527f496e76616c69642072656e6465726572206164647265737300000000000000006044820152fd5b8382346105a15760203660031901126105a15760209181906001600160a01b03610591612f60565b168152601b845220549051908152f35b5080fd5b50346104b15760203660031901126104b157817f039f4ec2d7edfd6202c7887a2bcdeec41243caa7762051ab28412c5845ba1c05923580916105e561337b565b5560055482519182526020820152a180f35b50346104b1576020806003193601126106fc576001600160a01b0392818461061d612f60565b1694858752601382526106368186892054163314613a98565b6009541691602485518094819363d42fe23160e01b835233908301525afa9081156106f2576002926106756000959360169389916106c5575b50613a4c565b8587526013815282872080546001600160a01b031916905552842082815560018101839055015533907fc507cac5427f24391d3862582c450f4840191f3fb50ae93ea8eb3e5d0a27241a8380a380f35b6106e59150833d85116106eb575b6106dd818361300a565b8101906134c0565b3861066f565b503d6106d3565b83513d87823e3d90fd5b8380fd5b5090346104b157826003193601126104b15760209250549051908152f35b5090346104b15760203660031901126104b157610739612f60565b9061074261337b565b6001600160a01b03918216928315610794575050600054826001600160601b0360a01b821617600055167f8be0079c531659141344cd1fd0a4f28419497f9722a3daafe3b4186f6b6457e0600080a380f35b51631e4fbdf760e01b8152908101849052602490fd5b8382346105a157806003193601126105a1576107fc906107c8612f60565b906107d161336c565b916107da61337b565b60018060a01b03168452601560205283209060ff801983541691151516179055565b80f35b50346104b15760203660031901126104b157602061081b612f60565b600a54835163f140b55f60e01b81526001600160a01b039283169581019590955284916024918391165afa91821561087e576020939261085f575b50519015158152f35b610877919250833d81116106eb576106dd818361300a565b9038610856565b81513d85823e3d90fd5b8382346105a15760203660031901126105a15760207fa01edaa3cd8a419b7bb45b34f35e84da238af9490eca1b318cb579f3179e29e4916108c7612f60565b6108cf61337b565b6001600160a01b0316906108e4821515613ae4565b600d80546001600160a01b0319168317905551908152a180f35b8382346105a157816003193601126105a157602090516103e88152f35b8382346105a15760203660031901126105a1576060916001600160a01b039190819083610946612f60565b1681526016602052209081549260026001840154930154169181519384526020840152820152f35b8382346105a15760203660031901126105a15760207fcede453a12a109bc98cf30c47be25a27dcd045508461cc9e9669a0185b648b89916109ad612f60565b6109b561337b565b6001600160a01b0316906109ca821515613ae4565b600b80546001600160a01b0319168317905551908152a180f35b509190346105a1576109f5366132fc565b610a009491946133a7565b60018060a01b03809516928385526020956012875283862054163303610b8857838552600f8652828520908251906001600160401b03821161049e5750610a478254612f8c565b601f8111610b45575b5086601f8211600114610acb578697610aba93836003979694608094600080516020613b798339815191529a9b91610ac0575b508160011b91600019908a1b1c19161790555b84519585879687528601526255504360e81b6060860152840152608083019061319e565b0390a280f35b905085015138610a83565b82875287872090601f198316885b818110610b2e575093600184608094600080516020613b798339815191529a9b9c9460039a9997610aba9910610b16575b5050811b019055610a96565b870151600019838c1b60f8161c191690553880610b0a565b91928a60018192868a015181550194019201610ad9565b828752878720601f830160051c810191898410610b7e575b601f0160051c01905b818110610b735750610a50565b878155600101610b66565b9091508190610b5d565b825162461bcd60e51b8152908101869052601c60248201527f4f6e6c79206469737472696275746f722063616e2073657420555043000000006044820152606490fd5b8382346105a157816003193601126105a157600d5490516001600160a01b039091168152602090f35b8382346105a157816003193601126105a1576020906019549051908152f35b8382346105a15760203660031901126105a157610c2e612f60565b6008546001600160a01b039190610c489083163314613b22565b16825260176020528120805460ff1916600117905580f35b509060803660031901126104b157610c76612f60565b610c7e612f76565b91604435908115158203610da0576001600160a01b036064358181169390849003610da057610cb160ff601f5416613405565b15610ddd57600b5416855191829163b5af090f60e01b8352848284015282602460209586935afa908115610dd357610cf58492610d1b948b91610db6575b506134d8565b8751636eb1769f60e11b8152339181019182523060208301529283918291604090910190565b0381865afa908115610dac578791610d77575b5094601b610d6592610d546107fc98610d4c60055480921015613524565b3033886135f8565b60055494895252862091825461349d565b90555b610d728282613770565b6139f5565b9590508186813d8311610da5575b610d8f818361300a565b81010312610da0579451601b610d2e565b600080fd5b503d610d85565b86513d89823e3d90fd5b610dcd9150843d86116106eb576106dd818361300a565b38610cef565b87513d8a823e3d90fd5b5050506107fc92610df2600354341015613451565b848052601b6020528420610e0734825461349d565b9055610d68565b8382346105a15760203660031901126105a15760209160ff9082906001600160a01b03610e39612f60565b1681526015855220541690519015158152f35b5060a03660031901126104b157610e61612f60565b91610e6a612f76565b916044356001600160401b038111610fe757610e899036908401613225565b90606435928315158403610da0576001600160a01b039060843582811690819003610da0578895610ebe60ff601f5416613405565b156110415782600b54168451809163b5af090f60e01b8252838583015281602460209485935afa9081156110205790610efd91899161102a57506134d8565b8451636eb1769f60e11b8152338482019081523060208201528290829081906040010381865afa908115611020578891610feb575b5090610f51601b92610f4960055480921015613524565b3033866135f8565b60055492885252610f6684872091825461349d565b90555b610f738688613770565b81600c5416803b15610fe75785928389610fae875198899687958694635dc447ed60e01b86521690840152886024840152604483019061357a565b03925af1908115610fde5750610fca575b50506107fc916139f5565b610fd390612fc6565b6104b1578238610fbf565b513d84823e3d90fd5b8580fd5b82809950819392503d8311611019575b611005818361300a565b81010312610da05751899690610f51610f32565b503d610ffb565b86513d8a823e3d90fd5b610dcd9150833d85116106eb576106dd818361300a565b50611050600354341015613451565b848052601b60205282852061106634825461349d565b9055610f69565b5090346104b15760203660031901126104b1576001600160a01b039081611092612f60565b16928385526016602052808520918151926110ac84612fef565b80548452828560026001840154938460208901520154169401938452421115611114575060026000918587526016602052862082815582600182015501555116907ffbea9ba5ee98f3c8b5c04ea0c944ead3100801a041d88f0c7e90d404ddac1c6a8380a380f35b6020606492519162461bcd60e51b8352820152601d60248201527f52657669657720706572696f6420686173206e6f7420657870697265640000006044820152fd5b8382346105a157816003193601126105a157602090601a549051908152f35b8382346105a15760203660031901126105a1576020916001600160a01b039082908261119f612f60565b168152601385522054169051908152f35b5090346104b157816003193601126104b1576111ca612f60565b916111d361336c565b916111dc6133a7565b6001600160a01b03938416808652601260205282862054909416330361124b57507fb54df1287f3d7012d0c033203342de84104f09a34d968f171bff51825d6cf5449160209184865260148352611241828288209060ff801983541691151516179055565b519015158152a280f35b6020608492519162461bcd60e51b8352820152602c60248201527f4f6e6c79206469737472696275746f722063616e207365742061757468656e7460448201526b69636974792073746174757360a01b6064820152fd5b50346104b15760203660031901126104b15760206112be612f60565b600b54835163b5af090f60e01b81526001600160a01b039283169581019590955284916024918391165afa91821561087e576020939261085f5750519015158152f35b50346104b1576020806003193601126106fc576001600160a01b03928184611327612f60565b1694858752601382526113408186892054163314613a98565b6009541691602485518094819363d42fe23160e01b835233908301525afa9081156106f25760029261137e6000959360169389916106c55750613a4c565b858752601281528287206001600160601b0360a01b90338282541617905560138252838820908154169055528420828155826001820155015533907f1ec2d15be1d4041a85003ee3860453fb0818606e3ccda6f18c41e692a25d5eea8380a380f35b8382346105a157816003193601126105a157600a5490516001600160a01b039091168152602090f35b8382346105a15760203660031901126105a15760207f39a2470dcb92def89f4d008f638ab6d63ac78547bf3d6ccfebf542711a0503c791611448612f60565b61145061337b565b6001600160a01b031690611465821515613ae4565b600a80546001600160a01b0319168317905551908152a180f35b8382346105a15760203660031901126105a15760209160ff9082906001600160a01b036114aa612f60565b1681526014855220541690519015158152f35b8382346105a15760203660031901126105a15760207f12e10e0acd0f94fc9b2d033a01586c1255f1d396a6a2ce1c02cc9fca05774458916114fc612f60565b61150461337b565b6001600160a01b031690611519821515613ae4565b600c80546001600160a01b0319168317905551908152a180f35b5090346104b157611543366132fc565b61154e9391936133a7565b6001600160a01b039384168086526012602090815283872054919590911633036116e1578486526010815282862082516001600160401b0381116116ce576115968254612f8c565b601f811161168b575b5082601f82116001146116135792600080516020613b798339815191529695949282608093610aba968c91611608575b508160011b916000199060031b1c19161790555b8451958587968752860152634953574360e01b6060860152840152608083019061319e565b9050850151386115cf565b82895283892090601f1983168a5b818110611674575083610aba9693600080516020613b798339815191529a999896936080966001941061165b575b5050811b0190556115e3565b87015160001960f88460031b161c19169055388061164f565b91928660018192868b015181550194019201611621565b828952838920601f830160051c8101918584106116c4575b601f0160051c01905b8181106116b9575061159f565b8981556001016116ac565b90915081906116a3565b634e487b7160e01b885260418652602488fd5b8360649184519162461bcd60e51b8352820152601d60248201527f4f6e6c79206469737472696275746f722063616e2073657420495357430000006044820152fd5b8382346105a15760203660031901126105a1576117719161175e9082906001600160a01b03611750612f60565b1681526011602052206130d7565b905191829160208352602083019061319e565b0390f35b8382346105a157816003193601126105a157905490516001600160a01b039091168152602090f35b5090346104b15760203660031901126104b1577fd4d82b8c259d09036a9ed2baf6867c5e54dccab39d04fd233b20827303df5f129160209135906117df61337b565b8160035551908152a180f35b8382346105a157816003193601126105a15760207f62e78cea01bee320cd4e420270b5ea74000d11b0c9f74754ebdbfc544b05a2589161182961337b565b6118316133a7565b835460ff60a01b1916600160a01b17845551338152a180f35b5090346104b15760203660031901126104b1573590811515809203610da0577fb5bb594c95eb864915724f4025ebea72bd6b2c96ee4243baceea4d04365efb689160209161189661337b565b60ff19601f541660ff831617601f5551908152a180f35b8382346105a157816003193601126105a15760085490516001600160a01b039091168152602090f35b8382346105a157816003193601126105a157602090601d549051908152f35b5090346104b15760203660031901126104b1577f1848f86a1772cf74c666a7db07dd66df4942583c365ea0f63bf434245a56f35591602091359061193761337b565b8160195551908152a180f35b833461199d578060031936011261199d5761195c61337b565b600080546001600160a01b0319811682556001600160a01b03167f8be0079c531659141344cd1fd0a4f28419497f9722a3daafe3b4186f6b6457e08280a380f35b80fd5b8382346105a157816003193601126105a1576117719061175e61302b565b8382346105a157816003193601126105a15760185490516001600160a01b039091168152602090f35b8382346105a15760203660031901126105a15760209160ff9082906001600160a01b03611a12612f60565b1681526017855220541690519015158152f35b80848434611ab6576020366003190112611ab657611a41612f60565b83546001600160a01b0390811633148015611aa9575b611a60906133c8565b80600b5416803b15610fe75785928360249286519788958694633123fb7960e11b865216908401525af1908115610fde5750611a995750f35b611aa290612fc6565b61199d5780f35b50600b5481163314611a57565b5050fd5b5090346104b15760203660031901126104b157803591611ad861337b565b6103e88311611ae9575050601a5580f35b906020606492519162461bcd60e51b8352820152600c60248201526b08ccaca40e8dede40d0d2ced60a31b6044820152fd5b8382346105a157816003193601126105a15760ff6020925460a01c1690519015158152f35b50346104b15760203660031901126104b157817f039f4ec2d7edfd6202c7887a2bcdeec41243caa7762051ab28412c5845ba1c05923590611b7f61337b565b81600555549082519182526020820152a180f35b82843461199d576020806003193601126105a1576001600160401b039083358281116106fc57611bc690369086016131de565b93611bcf61337b565b8451928311611ce75750611be4601e54612f8c565b601f8111611c97575b5080601f8311600114611c2857508293829392611c1d575b50508160011b916000199060031b1c191617601e5580f35b015190508380611c05565b601e8452601f19831694600080516020613b99833981519152929185905b878210611c7f575050836001959610611c66575b505050811b01601e5580f35b015160001960f88460031b161c19169055838080611c5a565b80600185968294968601518155019501930190611c46565b601e8452600080516020613b99833981519152601f840160051c810191838510611cdd575b601f0160051c01905b818110611cd25750611bed565b848155600101611cc5565b9091508190611cbc565b634e487b7160e01b845260419052602483fd5b50346104b15760203660031901126104b157813591611d1761337b565b8215611d4f5750816020917f7be9264fd4bacf6ffdd1cbfbe4fb3751923b2540828adf64102e4f5b096a7fe593601d5551908152a180f35b6020606492519162461bcd60e51b8352820152601f60248201527f4475726174696f6e206d7573742062652067726561746572207468616e2030006044820152fd5b5090346104b157611da1366132fc565b611dac9391936133a7565b6001600160a01b03938416808652601260209081528387205491959091163303611f2c578486526011815282862082516001600160401b0381116116ce57611df48254612f8c565b601f8111611ee9575b5082601f8211600114611e715792600080516020613b798339815191529695949282608093610aba968c91611e66575b508160011b916000199060031b1c19161790555b8451958587968752860152634953434360e01b6060860152840152608083019061319e565b905085015138611e2d565b82895283892090601f1983168a5b818110611ed2575083610aba9693600080516020613b798339815191529a9998969360809660019410611eb9575b5050811b019055611e41565b87015160001960f88460031b161c191690553880611ead565b91928660018192868b015181550194019201611e7f565b828952838920601f830160051c810191858410611f22575b601f0160051c01905b818110611f175750611dfd565b898155600101611f0a565b9091508190611f01565b8360649184519162461bcd60e51b8352820152601d60248201527f4f6e6c79206469737472696275746f722063616e2073657420495343430000006044820152fd5b8382346105a157806003193601126105a157611f88612f60565b6001600160a01b03908116835260066020528183208054602435949085101561199d5750602093611fb89161333e565b92905490519260031b1c168152f35b8382346105a15760203660031901126105a1576117719161175e9082906001600160a01b03611ff4612f60565b1681526010602052206130d7565b5090346104b157602090816003193601126106fc576001600160a01b0380612028612f60565b169384865260138452818187205416330361214e57602484836009541683519283809263d42fe23160e01b825233898301525afa908115612144579061207491889161212d5750613a4c565b84865260138452808620926001600160601b0360a01b93848154169055601c5490620151809182810292818404149015171561211a5750906120b86002924261349d565b8151916120c483612fef565b428352868301918252601681840197338952898b5252882091518255516001820155019251169082541617905533907f0410af91d3fc953f1f383fde268b1cf5278d116a88123c657df6685f443359418380a380f35b634e487b7160e01b885260119052602487fd5b6106e59150863d88116106eb576106dd818361300a565b82513d89823e3d90fd5b6084939150519162461bcd60e51b8352820152602e60248201527f4f6e6c792070656e64696e67206469737472696275746f722063616e2061636360448201526d65707420666f722072657669657760901b6064820152fd5b5090346104b1576121b7366132fc565b6121c29391936133a7565b6001600160a01b0393841680865260126020908152838720549195909116330361234257848652600e815282862082516001600160401b0381116116ce5761220a8254612f8c565b601f81116122ff575b5082601f82116001146122875792600080516020613b798339815191529695949282608093610aba968c9161227c575b508160011b916000199060031b1c19161790555b8451958587968752860152634953524360e01b6060860152840152608083019061319e565b905085015138612243565b82895283892090601f1983168a5b8181106122e8575083610aba9693600080516020613b798339815191529a99989693608096600194106122cf575b5050811b019055612257565b87015160001960f88460031b161c1916905538806122c3565b91928660018192868b015181550194019201612295565b828952838920601f830160051c810191858410612338575b601f0160051c01905b81811061232d5750612213565b898155600101612320565b9091508190612317565b8360649184519162461bcd60e51b8352820152601d60248201527f4f6e6c79206469737472696275746f722063616e2073657420495352430000006044820152fd5b8382346105a157816003193601126105a1576020906002549051908152f35b5090346104b157826003193601126104b1576123bd61337b565b82549060ff8260a01c1615612403575060ff60a01b19168255513381527f5db9ee0a495bf2e6ff9c91a7834c1ba4fdd244a5e8aa4e537bd38aeae4b073aa90602090a180f35b8251638dfc202b60e01b8152fd5b8382346105a15760203660031901126105a1576020916001600160a01b039082908261243b612f60565b168152601285522054169051908152f35b8382346105a1576020806003193601126104b1576001600160a01b039283612472612f60565b1681526006825282812091835190818185549182815201908195855282852090855b8181106124e057505050826124aa91038361300a565b8451948186019282875251809352850193925b8281106124ca5785850386f35b83518716855293810193928101926001016124bd565b82548a1684529284019260019283019201612494565b8382346105a15760203660031901126105a1576020916001600160a01b0390829082612520612f60565b1681526012855220541615159051908152f35b509190346105a157826003193601126105a15761254e612f60565b612556612f76565b61255e61337b565b6002600154146126e657600260015560018060a01b0380921691828552602091601b8352868620549485156126ad57848752601b8452868881205584156000146126285786808080898787165af16125b46136be565b50156125ef57507f5e110f8bc8a20b65dcc87f224bdf1cc039346e267118bae2739847f07321ffa8939495965b519586521693a36001805580f35b875162461bcd60e51b81529081018490526013602482015272115512081d1c985b9cd9995c8819985a5b1959606a1b6044820152606490fd5b875163a9059cbb60e01b85820152828416602482015260448082018890528152979060808901906001600160401b0382118a83101761269857507f5e110f8bc8a20b65dcc87f224bdf1cc039346e267118bae2739847f07321ffa8959697986126939183528761364c565b6125e1565b604190634e487b7160e01b6000525260246000fd5b875162461bcd60e51b815290810184905260136024820152724e6f206665657320746f20776974686472617760681b6044820152606490fd5b8451633ee5aeb560e01b81528390fd5b8382346105a157816003193601126105a157600c5490516001600160a01b039091168152602090f35b8382346105a15760203660031901126105a15760207f820c11a553e3f58735f11b502c4c13b5bdaad97e61b6fe3bafe7eaf4e09e94de9161275e612f60565b61276661337b565b6001600160a01b03169061277b821515613ae4565b600980546001600160a01b0319168317905551908152a180f35b5090346104b15760203660031901126104b1577fd2f394433244b5e41aa3a9cc6fae806b7ec98210c12b000cf879e113115c93299160209135906127d761337b565b8160025551908152a180f35b50346104b15760203660031901126104b157826127fe612f60565b81546001600160a01b039190821633148015612860575b61281e906133c8565b81600b541690813b156106fc5783602492865197889586946318313adf60e11b865216908401525af1908115610fde5750612857575080f35b6107fc90612fc6565b50600b5482163314612815565b50346104b157600319916060368401126106fc576001600160401b03928135848111610fe7576128a09036908401613225565b906044356001600160a01b038181169291839003612aa05780600c54163303612a5d57918793916128ef60a096946018541693885197889663350f69b160e11b885287015260a486019061357a565b91602435602486015260448501528382030160648401528390601e549061291582612f8c565b91828252600190868282169182600014612a3b5750506001146129ed575b50505082809130608483015203915afa9283156129e3578493612966575b8251602080825281906117719082018761319e565b909192503d8085843e612979818461300a565b8201916020818403126129df5780519182116129df570181601f820112156106fc578051936129a7856131c3565b926129b48551948561300a565b8584526020868401011161199d5750611771936129d7916020808501910161317b565b903880612951565b8480fd5b82513d86823e3d90fd5b925090601e8652600080516020613b998339815191529286935b828510612a1d5750505001602001828038612933565b805460208686018101919091528c9850899750909401938101612a07565b90955060209392508594915060ff191683830152151560051b01019138612933565b855162461bcd60e51b8152602081870152601f60248201527f4f6e6c79206d65746164617461206d6f64756c652063616e2072656e646572006044820152606490fd5b8780fd5b5090346104b15760203660031901126104b157612abf612f60565b612ac761337b565b6001600160a01b0316918215612aef5750506001600160601b0360a01b600854161760085580f35b906020606492519162461bcd60e51b8352820152601760248201527f496e76616c696420666163746f727920616464726573730000000000000000006044820152fd5b5090346104b1576020806003193601126106fc576001600160a01b039182612b58612f60565b16908451638da5cb5b60e01b815283818381865afa8015610dac5785918891612cb5575b50163303612c57578186526013835283858720541615612c145782906024856009541695848952601384528789205416918751968793849263d42fe23160e01b84528301525afa928315612c0a57601393612bdd918791612bf35750613a4c565b845252812080546001600160a01b031916905580f35b6106e59150843d86116106eb576106dd818361300a565b84513d87823e3d90fd5b845162461bcd60e51b8152908101839052601a60248201527f4e6f2070656e64696e672072656c6561736520726571756573740000000000006044820152606490fd5b845162461bcd60e51b8152908101839052603260248201527f4f6e6c79207772617070656420736f6e67206f776e65722063616e2072656d6f6044820152711d99481c995b19585cd9481c995c5d595cdd60721b6064820152608490fd5b612cd59150853d8711612cdb575b612ccd818361300a565b810190613751565b38612b7c565b503d612cc3565b8382346105a157816003193601126105a1576020906003549051908152f35b8382346105a15760203660031901126105a1576117719161175e9082906001600160a01b03612d2e612f60565b168152600e602052206130d7565b5050346105a15760203660031901126105a157612d5761337b565b35601c5580f35b8382346105a15760203660031901126105a1576117719161175e9082906001600160a01b03612d8b612f60565b168152600f602052206130d7565b8382346105a157816003193601126105a157602090601c549051908152f35b8382346105a157816003193601126105a1576020906005549051908152f35b8382346105a157816003193601126105a15760209060ff601f541690519015158152f35b8382346105a157816003193601126105a15760095490516001600160a01b039091168152602090f35b8382346105a15760203660031901126105a1576020916001600160a01b0390829082612e4e612f60565b168152600785522054169051908152f35b8382346105a157816003193601126105a157600b5490516001600160a01b039091168152602090f35b50346104b157806003193601126104b157612ea1612f60565b91612eaa612f76565b92612eb36133a7565b6008546001600160a01b03929083163303612f12575081169182855260076020528420921691826001600160601b0360a01b8254161790557f48e8ef3819015e9b1e8d36ddbbbc8cefc90dba7f69b711bdca0c9a10b63b037f8380a380f35b608490602085519162461bcd60e51b8352820152602260248201527f4f6e6c7920666163746f72792063616e2073657420746f6b656e206d617070696044820152616e6760f01b6064820152fd5b600435906001600160a01b0382168203610da057565b602435906001600160a01b0382168203610da057565b90600182811c92168015612fbc575b6020831014612fa657565b634e487b7160e01b600052602260045260246000fd5b91607f1691612f9b565b6001600160401b038111612fd957604052565b634e487b7160e01b600052604160045260246000fd5b606081019081106001600160401b03821117612fd957604052565b90601f801991011681019081106001600160401b03821117612fd957604052565b60405190600082601e549161303f83612f8c565b808352926001908181169081156130b55750600114613068575b506130669250038361300a565b565b601e60009081529150600080516020613b998339815191525b84831061309a5750613066935050810160200138613059565b81935090816020925483858a01015201910190918592613081565b90506020925061306694915060ff191682840152151560051b82010138613059565b90604051918260008254926130eb84612f8c565b9081845260019485811690816000146131585750600114613115575b50506130669250038361300a565b9093915060005260209081600020936000915b81831061314057505061306693508201013880613107565b85548884018501529485019487945091830191613128565b91505061306694506020925060ff191682840152151560051b8201013880613107565b60005b83811061318e5750506000910152565b818101518382015260200161317e565b906020916131b78151809281855285808601910161317b565b601f01601f1916010190565b6001600160401b038111612fd957601f01601f191660200190565b81601f82011215610da0578035906131f5826131c3565b92613203604051948561300a565b82845260208383010111610da057816000926020809301838601378301015290565b91909160c081840312610da057604051906001600160401b039060c0830182811184821017612fd95760405282948135838111610da057816132689184016131de565b84526020820135838111610da057816132829184016131de565b60208501526040820135838111610da0578161329f9184016131de565b60408501526060820135838111610da057816132bc9184016131de565b60608501526080820135838111610da057816132d99184016131de565b608085015260a0820135928311610da05760a0926132f792016131de565b910152565b906040600319830112610da0576004356001600160a01b0381168103610da05791602435906001600160401b038211610da05761333b916004016131de565b90565b80548210156133565760005260206000200190600090565b634e487b7160e01b600052603260045260246000fd5b602435908115158203610da057565b6000546001600160a01b0316330361338f57565b60405163118cdaa760e01b8152336004820152602490fd5b60ff60005460a01c166133b657565b60405163d93c066560e01b8152600490fd5b156133cf57565b60405162461bcd60e51b815260206004820152600e60248201526d139bdd08185d5d1a1bdc9a5e995960921b6044820152606490fd5b1561340c57565b60405162461bcd60e51b815260206004820152601f60248201527f52656c6561736573206172652063757272656e746c792064697361626c6564006044820152606490fd5b1561345857565b60405162461bcd60e51b815260206004820152601860248201527f496e73756666696369656e742072656c656173652066656500000000000000006044820152606490fd5b919082018092116134aa57565b634e487b7160e01b600052601160045260246000fd5b90816020910312610da057518015158103610da05790565b156134df57565b60405162461bcd60e51b815260206004820152601a60248201527f537461626c65636f696e206e6f742077686974656c69737465640000000000006044820152606490fd5b1561352b57565b60405162461bcd60e51b815260206004820152602160248201527f496e73756666696369656e7420737461626c65636f696e20616c6c6f77616e636044820152606560f81b6064820152608490fd5b61333b9160a06135e76135d56135c36135b161359f875160c0885260c088019061319e565b6020880151878203602089015261319e565b6040870151868203604088015261319e565b6060860151858203606087015261319e565b6080850151848203608086015261319e565b9201519060a081840391015261319e565b6040516323b872dd60e01b60208201526001600160a01b03928316602482015292909116604483015260648083019390935291815260a08101918183106001600160401b03841117612fd957613066926040525b6000806136759260018060a01b03169360208151910182865af161366e6136be565b90836136ee565b80519081151591826136a3575b505061368b5750565b60249060405190635274afe760e01b82526004820152fd5b6136b692506020809183010191016134c0565b153880613682565b3d156136e9573d906136cf826131c3565b916136dd604051938461300a565b82523d6000602084013e565b606090565b90613715575080511561370357805190602001fd5b604051630a12f52160e11b8152600490fd5b81511580613748575b613726575090565b604051639996b31560e01b81526001600160a01b039091166004820152602490fd5b50803b1561371e565b90816020910312610da057516001600160a01b0381168103610da05790565b60408051638da5cb5b60e01b81526004936020936001600160a01b0392908316919085818881865afa9081156139ea579084916000916139cd575b5016330361397657828116908115613928573b156138d75784836009541691602486518094819363d42fe23160e01b83528b8301525afa9081156138cc576000916138af575b501561384e576000526012835281600020541661380d57505050565b5162461bcd60e51b815291820152601d60248201527f5772617070656420736f6e6720616c72656164792072656c6561736564000000604482015260649150fd5b50505162461bcd60e51b815291820152603560248201527f496e76616c6964206469737472696275746f722077616c6c65743a206e6f74206044820152747265676973746572656420696e20666163746f727960581b606482015260849150fd5b6138c69150853d87116106eb576106dd818361300a565b386137f1565b84513d6000823e3d90fd5b835162461bcd60e51b8152808701869052602560248201527f4469737472696275746f722077616c6c6574206d757374206265206120636f6e6044820152641d1c9858dd60da1b6064820152608490fd5b845162461bcd60e51b8152808801879052602260248201527f496e76616c6964206469737472696275746f722077616c6c6574206164647265604482015261737360f01b6064820152608490fd5b835162461bcd60e51b8152808701869052602b60248201527f4f6e6c79207772617070656420736f6e67206f776e65722063616e207265717560448201526a6573742072656c6561736560a81b6064820152608490fd5b6139e49150873d8911612cdb57612ccd818361300a565b386137ab565b85513d6000823e3d90fd5b6001600160a01b03908116600081815260136020526040812080546001600160a01b0319169390941692831790935533927fef84744274082261c3a861cf791747fa0ff5d32d6b7dad92e9f777118fc002899080a4565b15613a5357565b60405162461bcd60e51b815260206004820152601a60248201527f4469737472696275746f7220646f6573206e6f742065786973740000000000006044820152606490fd5b15613a9f57565b60405162461bcd60e51b815260206004820152601b60248201527f4e6f74207468652070656e64696e67206469737472696275746f7200000000006044820152606490fd5b15613aeb57565b60405162461bcd60e51b815260206004820152600f60248201526e496e76616c6964206164647265737360881b6044820152606490fd5b15613b2957565b60405162461bcd60e51b815260206004820152602160248201527f4f6e6c7920666163746f72792063616e20616464207772617070656420736f6e6044820152606760f81b6064820152608490fdfea7277ea7d4dbb8f0cc254f34cf3e4ac197629ee7789dfa02f6b28a887228909b50bb669a95c7b50b7e8a6f09454034b2b14cf2b85c730dca9a539ca82cb6e350a26469706673582212207f7a6613b2869d535df18588c417c8bc300c50e7623eb6e15c1ee0639aa6016264736f6c63430008140033",
  "linkReferences": {},
  "deployedLinkReferences": {}
}