{
  "_format": "hh-sol-artifact-1",
  "contractName": "ProtocolModule",
  "sourceName": "contracts/protocol/NonUpgradable/ProtocolModule.sol",
  "abi": [
    {
      "inputs": [
        {
          "internalType": "address",
          "name": "_distributorWalletFactory",
          "type": "address"
        },
        {
          "internalType": "address",
          "name": "_whitelistingManager",
          "type": "address"
        },
        {
          "internalType": "address",
          "name": "_erc20whitelist",
          "type": "address"
        },
        {
          "internalType": "address",
          "name": "_metadataModule",
          "type": "address"
        },
        {
          "internalType": "address",
          "name": "_legalContractMetadata",
          "type": "address"
        }
      ],
      "stateMutability": "nonpayable",
      "type": "constructor"
    },
    {
      "inputs": [],
      "name": "EnforcedPause",
      "type": "error"
    },
    {
      "inputs": [],
      "name": "ExpectedPause",
      "type": "error"
    },
    {
      "inputs": [
        {
          "internalType": "address",
          "name": "owner",
          "type": "address"
        }
      ],
      "name": "OwnableInvalidOwner",
      "type": "error"
    },
    {
      "inputs": [
        {
          "internalType": "address",
          "name": "account",
          "type": "address"
        }
      ],
      "name": "OwnableUnauthorizedAccount",
      "type": "error"
    },
    {
      "inputs": [],
      "name": "ReentrancyGuardReentrantCall",
      "type": "error"
    },
    {
      "anonymous": false,
      "inputs": [
        {
          "indexed": false,
          "internalType": "uint256",
          "name": "newFee",
          "type": "uint256"
        }
      ],
      "name": "DistributorCreationFeeUpdated",
      "type": "event"
    },
    {
      "anonymous": false,
      "inputs": [
        {
          "indexed": false,
          "internalType": "address",
          "name": "newFactory",
          "type": "address"
        }
      ],
      "name": "DistributorWalletFactoryUpdated",
      "type": "event"
    },
    {
      "anonymous": false,
      "inputs": [
        {
          "indexed": false,
          "internalType": "address",
          "name": "newWhitelist",
          "type": "address"
        }
      ],
      "name": "ERC20WhitelistUpdated",
      "type": "event"
    },
    {
      "anonymous": false,
      "inputs": [
        {
          "indexed": true,
          "internalType": "address",
          "name": "wrappedSong",
          "type": "address"
        },
        {
          "indexed": false,
          "internalType": "string",
          "name": "registryType",
          "type": "string"
        },
        {
          "indexed": false,
          "internalType": "string",
          "name": "value",
          "type": "string"
        }
      ],
      "name": "IdentityRegistryUpdated",
      "type": "event"
    },
    {
      "anonymous": false,
      "inputs": [
        {
          "indexed": false,
          "internalType": "address",
          "name": "newContract",
          "type": "address"
        }
      ],
      "name": "LegalContractMetadataUpdated",
      "type": "event"
    },
    {
      "anonymous": false,
      "inputs": [
        {
          "indexed": false,
          "internalType": "uint256",
          "name": "newDuration",
          "type": "uint256"
        }
      ],
      "name": "MaxSaleDurationUpdated",
      "type": "event"
    },
    {
      "anonymous": false,
      "inputs": [
        {
          "indexed": false,
          "internalType": "address",
          "name": "newModule",
          "type": "address"
        }
      ],
      "name": "MetadataModuleUpdated",
      "type": "event"
    },
    {
      "anonymous": false,
      "inputs": [
        {
          "indexed": false,
          "internalType": "address",
          "name": "newRenderer",
          "type": "address"
        }
      ],
      "name": "MetadataRendererUpdated",
      "type": "event"
    },
    {
      "anonymous": false,
      "inputs": [
        {
          "indexed": true,
          "internalType": "address",
          "name": "wrappedSong",
          "type": "address"
        },
        {
          "indexed": true,
          "internalType": "uint256",
          "name": "tokenId",
          "type": "uint256"
        },
        {
          "indexed": false,
          "internalType": "string",
          "name": "newMetadata",
          "type": "string"
        }
      ],
      "name": "MetadataUpdateRequested",
      "type": "event"
    },
    {
      "anonymous": false,
      "inputs": [
        {
          "indexed": true,
          "internalType": "address",
          "name": "wrappedSong",
          "type": "address"
        },
        {
          "indexed": true,
          "internalType": "uint256",
          "name": "tokenId",
          "type": "uint256"
        },
        {
          "indexed": false,
          "internalType": "string",
          "name": "newMetadata",
          "type": "string"
        }
      ],
      "name": "MetadataUpdated",
      "type": "event"
    },
    {
      "anonymous": false,
      "inputs": [
        {
          "indexed": true,
          "internalType": "address",
          "name": "owner",
          "type": "address"
        },
        {
          "indexed": true,
          "internalType": "address",
          "name": "wrappedSong",
          "type": "address"
        }
      ],
      "name": "OwnerWrappedSongAdded",
      "type": "event"
    },
    {
      "anonymous": false,
      "inputs": [
        {
          "indexed": true,
          "internalType": "address",
          "name": "previousOwner",
          "type": "address"
        },
        {
          "indexed": true,
          "internalType": "address",
          "name": "newOwner",
          "type": "address"
        }
      ],
      "name": "OwnershipTransferred",
      "type": "event"
    },
    {
      "anonymous": false,
      "inputs": [
        {
          "indexed": false,
          "internalType": "address",
          "name": "account",
          "type": "address"
        }
      ],
      "name": "Paused",
      "type": "event"
    },
    {
      "anonymous": false,
      "inputs": [
        {
          "indexed": false,
          "internalType": "bool",
          "name": "isPaused",
          "type": "bool"
        }
      ],
      "name": "Paused",
      "type": "event"
    },
    {
      "anonymous": false,
      "inputs": [
        {
          "indexed": false,
          "internalType": "bool",
          "name": "newPayInStablecoin",
          "type": "bool"
        }
      ],
      "name": "PayInStablecoinUpdated",
      "type": "event"
    },
    {
      "anonymous": false,
      "inputs": [
        {
          "indexed": false,
          "internalType": "uint256",
          "name": "newFee",
          "type": "uint256"
        }
      ],
      "name": "ReleaseFeeUpdated",
      "type": "event"
    },
    {
      "anonymous": false,
      "inputs": [
        {
          "indexed": false,
          "internalType": "bool",
          "name": "enabled",
          "type": "bool"
        }
      ],
      "name": "ReleasesEnabledChanged",
      "type": "event"
    },
    {
      "anonymous": false,
      "inputs": [
        {
          "indexed": false,
          "internalType": "uint256",
          "name": "newDays",
          "type": "uint256"
        }
      ],
      "name": "ReviewPeriodDaysUpdated",
      "type": "event"
    },
    {
      "anonymous": false,
      "inputs": [
        {
          "indexed": true,
          "internalType": "address",
          "name": "smartAccount",
          "type": "address"
        },
        {
          "indexed": true,
          "internalType": "address",
          "name": "wsToken",
          "type": "address"
        }
      ],
      "name": "SmartAccountToWSTokenMapped",
      "type": "event"
    },
    {
      "anonymous": false,
      "inputs": [
        {
          "indexed": false,
          "internalType": "uint256",
          "name": "newCreationFee",
          "type": "uint256"
        },
        {
          "indexed": false,
          "internalType": "uint256",
          "name": "newReleaseFee",
          "type": "uint256"
        }
      ],
      "name": "StableFeesUpdated",
      "type": "event"
    },
    {
      "anonymous": false,
      "inputs": [
        {
          "indexed": false,
          "internalType": "address",
          "name": "account",
          "type": "address"
        }
      ],
      "name": "Unpaused",
      "type": "event"
    },
    {
      "anonymous": false,
      "inputs": [
        {
          "indexed": false,
          "internalType": "uint256",
          "name": "newFee",
          "type": "uint256"
        }
      ],
      "name": "UpdateMetadataFeeUpdated",
      "type": "event"
    },
    {
      "anonymous": false,
      "inputs": [
        {
          "indexed": false,
          "internalType": "address",
          "name": "newManager",
          "type": "address"
        }
      ],
      "name": "WhitelistingManagerUpdated",
      "type": "event"
    },
    {
      "anonymous": false,
      "inputs": [
        {
          "indexed": false,
          "internalType": "uint256",
          "name": "newPercentage",
          "type": "uint256"
        }
      ],
      "name": "WithdrawalFeePercentageUpdated",
      "type": "event"
    },
    {
      "anonymous": false,
      "inputs": [
        {
          "indexed": true,
          "internalType": "address",
          "name": "wrappedSong",
          "type": "address"
        },
        {
          "indexed": false,
          "internalType": "bool",
          "name": "isAuthentic",
          "type": "bool"
        }
      ],
      "name": "WrappedSongAuthenticitySet",
      "type": "event"
    },
    {
      "anonymous": false,
      "inputs": [
        {
          "indexed": false,
          "internalType": "uint256",
          "name": "newFee",
          "type": "uint256"
        }
      ],
      "name": "WrappedSongCreationFeeUpdated",
      "type": "event"
    },
    {
      "inputs": [
        {
          "internalType": "address",
          "name": "",
          "type": "address"
        }
      ],
      "name": "authorizedContracts",
      "outputs": [
        {
          "internalType": "bool",
          "name": "",
          "type": "bool"
        }
      ],
      "stateMutability": "view",
      "type": "function"
    },
    {
      "inputs": [],
      "name": "baseURI",
      "outputs": [
        {
          "internalType": "string",
          "name": "",
          "type": "string"
        }
      ],
      "stateMutability": "view",
      "type": "function"
    },
    {
      "inputs": [],
      "name": "distributorWalletFactory",
      "outputs": [
        {
          "internalType": "contract IDistributorWalletFactory",
          "name": "",
          "type": "address"
        }
      ],
      "stateMutability": "view",
      "type": "function"
    },
    {
      "inputs": [],
      "name": "erc20whitelist",
      "outputs": [
        {
          "internalType": "contract IERC20Whitelist",
          "name": "",
          "type": "address"
        }
      ],
      "stateMutability": "view",
      "type": "function"
    },
    {
      "inputs": [],
      "name": "getBaseURI",
      "outputs": [
        {
          "internalType": "string",
          "name": "",
          "type": "string"
        }
      ],
      "stateMutability": "view",
      "type": "function"
    },
    {
      "inputs": [],
      "name": "getLegalContractMetadata",
      "outputs": [
        {
          "internalType": "address",
          "name": "",
          "type": "address"
        }
      ],
      "stateMutability": "view",
      "type": "function"
    },
    {
      "inputs": [],
      "name": "getMetadataModule",
      "outputs": [
        {
          "internalType": "address",
          "name": "",
          "type": "address"
        }
      ],
      "stateMutability": "view",
      "type": "function"
    },
    {
      "inputs": [
        {
          "internalType": "address",
          "name": "owner",
          "type": "address"
        }
      ],
      "name": "getOwnerWrappedSongs",
      "outputs": [
        {
          "internalType": "address[]",
          "name": "",
          "type": "address[]"
        }
      ],
      "stateMutability": "view",
      "type": "function"
    },
    {
      "inputs": [],
      "name": "getRegistryModule",
      "outputs": [
        {
          "internalType": "address",
          "name": "",
          "type": "address"
        }
      ],
      "stateMutability": "view",
      "type": "function"
    },
    {
      "inputs": [
        {
          "internalType": "address",
          "name": "_contractAddress",
          "type": "address"
        }
      ],
      "name": "isAuthorizedContract",
      "outputs": [
        {
          "internalType": "bool",
          "name": "",
          "type": "bool"
        }
      ],
      "stateMutability": "view",
      "type": "function"
    },
    {
      "inputs": [
        {
          "internalType": "address",
          "name": "token",
          "type": "address"
        }
      ],
      "name": "isTokenWhitelisted",
      "outputs": [
        {
          "internalType": "bool",
          "name": "",
          "type": "bool"
        }
      ],
      "stateMutability": "view",
      "type": "function"
    },
    {
      "inputs": [
        {
          "internalType": "address",
          "name": "creator",
          "type": "address"
        }
      ],
      "name": "isValidToCreateWrappedSong",
      "outputs": [
        {
          "internalType": "bool",
          "name": "",
          "type": "bool"
        }
      ],
      "stateMutability": "view",
      "type": "function"
    },
    {
      "inputs": [
        {
          "internalType": "address",
          "name": "wsTokenManagement",
          "type": "address"
        }
      ],
      "name": "isWSTokenFromProtocol",
      "outputs": [
        {
          "internalType": "bool",
          "name": "",
          "type": "bool"
        }
      ],
      "stateMutability": "view",
      "type": "function"
    },
    {
      "inputs": [],
      "name": "legalContractMetadata",
      "outputs": [
        {
          "internalType": "contract ILegalContractMetadata",
          "name": "",
          "type": "address"
        }
      ],
      "stateMutability": "view",
      "type": "function"
    },
    {
      "inputs": [],
      "name": "maxSaleDuration",
      "outputs": [
        {
          "internalType": "uint256",
          "name": "",
          "type": "uint256"
        }
      ],
      "stateMutability": "view",
      "type": "function"
    },
    {
      "inputs": [],
      "name": "metadataModule",
      "outputs": [
        {
          "internalType": "contract IMetadataModule",
          "name": "",
          "type": "address"
        }
      ],
      "stateMutability": "view",
      "type": "function"
    },
    {
      "inputs": [],
      "name": "metadataRenderer",
      "outputs": [
        {
          "internalType": "contract IMetadataRenderer",
          "name": "",
          "type": "address"
        }
      ],
      "stateMutability": "view",
      "type": "function"
    },
    {
      "inputs": [],
      "name": "owner",
      "outputs": [
        {
          "internalType": "address",
          "name": "",
          "type": "address"
        }
      ],
      "stateMutability": "view",
      "type": "function"
    },
    {
      "inputs": [
        {
          "internalType": "address",
          "name": "",
          "type": "address"
        },
        {
          "internalType": "uint256",
          "name": "",
          "type": "uint256"
        }
      ],
      "name": "ownerWrappedSongs",
      "outputs": [
        {
          "internalType": "address",
          "name": "",
          "type": "address"
        }
      ],
      "stateMutability": "view",
      "type": "function"
    },
    {
      "inputs": [],
      "name": "pause",
      "outputs": [],
      "stateMutability": "nonpayable",
      "type": "function"
    },
    {
      "inputs": [],
      "name": "paused",
      "outputs": [
        {
          "internalType": "bool",
          "name": "",
          "type": "bool"
        }
      ],
      "stateMutability": "view",
      "type": "function"
    },
    {
      "inputs": [],
      "name": "registryModule",
      "outputs": [
        {
          "internalType": "contract IRegistryModule",
          "name": "",
          "type": "address"
        }
      ],
      "stateMutability": "view",
      "type": "function"
    },
    {
      "inputs": [
        {
          "internalType": "address",
          "name": "token",
          "type": "address"
        }
      ],
      "name": "removeTokenFromWhitelist",
      "outputs": [],
      "stateMutability": "nonpayable",
      "type": "function"
    },
    {
      "inputs": [
        {
          "components": [
            {
              "internalType": "string",
              "name": "name",
              "type": "string"
            },
            {
              "internalType": "string",
              "name": "description",
              "type": "string"
            },
            {
              "internalType": "string",
              "name": "image",
              "type": "string"
            },
            {
              "internalType": "string",
              "name": "externalUrl",
              "type": "string"
            },
            {
              "internalType": "string",
              "name": "animationUrl",
              "type": "string"
            },
            {
              "internalType": "string",
              "name": "attributesIpfsHash",
              "type": "string"
            }
          ],
          "internalType": "struct IMetadataModule.Metadata",
          "name": "metadata",
          "type": "tuple"
        },
        {
          "internalType": "uint256",
          "name": "tokenId",
          "type": "uint256"
        },
        {
          "internalType": "address",
          "name": "wrappedSong",
          "type": "address"
        }
      ],
      "name": "renderTokenURI",
      "outputs": [
        {
          "internalType": "string",
          "name": "",
          "type": "string"
        }
      ],
      "stateMutability": "view",
      "type": "function"
    },
    {
      "inputs": [],
      "name": "renounceOwnership",
      "outputs": [],
      "stateMutability": "nonpayable",
      "type": "function"
    },
    {
      "inputs": [
        {
          "internalType": "address",
          "name": "_contractAddress",
          "type": "address"
        },
        {
          "internalType": "bool",
          "name": "_isAuthorized",
          "type": "bool"
        }
      ],
      "name": "setAuthorizedContract",
      "outputs": [],
      "stateMutability": "nonpayable",
      "type": "function"
    },
    {
      "inputs": [
        {
          "internalType": "string",
          "name": "_baseURI",
          "type": "string"
        }
      ],
      "name": "setBaseURI",
      "outputs": [],
      "stateMutability": "nonpayable",
      "type": "function"
    },
    {
      "inputs": [
        {
          "internalType": "address",
          "name": "_newFactory",
          "type": "address"
        }
      ],
      "name": "setDistributorWalletFactory",
      "outputs": [],
      "stateMutability": "nonpayable",
      "type": "function"
    },
    {
      "inputs": [
        {
          "internalType": "address",
          "name": "_erc20whitelist",
          "type": "address"
        }
      ],
      "name": "setERC20Whitelist",
      "outputs": [],
      "stateMutability": "nonpayable",
      "type": "function"
    },
    {
      "inputs": [
        {
          "internalType": "address",
          "name": "_legalContractMetadata",
          "type": "address"
        }
      ],
      "name": "setLegalContractMetadata",
      "outputs": [],
      "stateMutability": "nonpayable",
      "type": "function"
    },
    {
      "inputs": [
        {
          "internalType": "uint256",
          "name": "_duration",
          "type": "uint256"
        }
      ],
      "name": "setMaxSaleDuration",
      "outputs": [],
      "stateMutability": "nonpayable",
      "type": "function"
    },
    {
      "inputs": [
        {
          "internalType": "address",
          "name": "_metadataModule",
          "type": "address"
        }
      ],
      "name": "setMetadataModule",
      "outputs": [],
      "stateMutability": "nonpayable",
      "type": "function"
    },
    {
      "inputs": [
        {
          "internalType": "address",
          "name": "_renderer",
          "type": "address"
        }
      ],
      "name": "setMetadataRenderer",
      "outputs": [],
      "stateMutability": "nonpayable",
      "type": "function"
    },
    {
      "inputs": [
        {
          "internalType": "address",
          "name": "owner",
          "type": "address"
        },
        {
          "internalType": "address",
          "name": "wrappedSong",
          "type": "address"
        }
      ],
      "name": "setOwnerWrappedSong",
      "outputs": [],
      "stateMutability": "nonpayable",
      "type": "function"
    },
    {
      "inputs": [
        {
          "internalType": "address",
          "name": "_registryModule",
          "type": "address"
        }
      ],
      "name": "setRegistryModule",
      "outputs": [],
      "stateMutability": "nonpayable",
      "type": "function"
    },
    {
      "inputs": [
        {
          "internalType": "address",
          "name": "smartAccount",
          "type": "address"
        },
        {
          "internalType": "address",
          "name": "wsToken",
          "type": "address"
        }
      ],
      "name": "setSmartAccountToWSToken",
      "outputs": [],
      "stateMutability": "nonpayable",
      "type": "function"
    },
    {
      "inputs": [
        {
          "internalType": "address",
          "name": "wsTokenManagement",
          "type": "address"
        }
      ],
      "name": "setWSTokenFromProtocol",
      "outputs": [],
      "stateMutability": "nonpayable",
      "type": "function"
    },
    {
      "inputs": [
        {
          "internalType": "address",
          "name": "_whitelistingManager",
          "type": "address"
        }
      ],
      "name": "setWhitelistingManager",
      "outputs": [],
      "stateMutability": "nonpayable",
      "type": "function"
    },
    {
      "inputs": [
        {
          "internalType": "address",
          "name": "_wrappedSongFactory",
          "type": "address"
        }
      ],
      "name": "setWrappedSongFactory",
      "outputs": [],
      "stateMutability": "nonpayable",
      "type": "function"
    },
    {
      "inputs": [
        {
          "internalType": "address",
          "name": "",
          "type": "address"
        }
      ],
      "name": "smartAccountToWSToken",
      "outputs": [
        {
          "internalType": "address",
          "name": "",
          "type": "address"
        }
      ],
      "stateMutability": "view",
      "type": "function"
    },
    {
      "inputs": [
        {
          "internalType": "address",
          "name": "newOwner",
          "type": "address"
        }
      ],
      "name": "transferOwnership",
      "outputs": [],
      "stateMutability": "nonpayable",
      "type": "function"
    },
    {
      "inputs": [],
      "name": "unpause",
      "outputs": [],
      "stateMutability": "nonpayable",
      "type": "function"
    },
    {
      "inputs": [
        {
          "internalType": "address",
          "name": "token",
          "type": "address"
        }
      ],
      "name": "whitelistToken",
      "outputs": [],
      "stateMutability": "nonpayable",
      "type": "function"
    },
    {
      "inputs": [],
      "name": "whitelistingManager",
      "outputs": [
        {
          "internalType": "contract IWhitelistingManager",
          "name": "",
          "type": "address"
        }
      ],
      "stateMutability": "view",
      "type": "function"
    },
    {
      "inputs": [],
      "name": "wrappedSongFactory",
      "outputs": [
        {
          "internalType": "contract IWrappedSongFactory",
          "name": "",
          "type": "address"
        }
      ],
      "stateMutability": "view",
      "type": "function"
    },
    {
      "inputs": [],
      "name": "wrappedSongFactoryAddress",
      "outputs": [
        {
          "internalType": "address",
          "name": "",
          "type": "address"
        }
      ],
      "stateMutability": "view",
      "type": "function"
    },
    {
      "stateMutability": "payable",
      "type": "receive"
    }
  ],
  "bytecode": "0x6080346200014f57601f62001a6f38819003918201601f19168301916001600160401b03831184841017620001545780849260a0946040528339810103126200014f576200004d816200016a565b6200005b602083016200016a565b62000069604084016200016a565b906200008660806200007e606087016200016a565b95016200016a565b9033156200013657600054946040519560018060a01b03948580948193338382167f8be0079c531659141344cd1fd0a4f28419497f9722a3daafe3b4186f6b6457e0600080a360ff60a01b1933169060018060a81b031916176000556001805562278d00600e558160018060a01b03199916896005541617600555168760065416176006551685600754161760075516836008541617600855169060095416176009556118ef9081620001808239f35b604051631e4fbdf760e01b815260006004820152602490fd5b600080fd5b634e487b7160e01b600052604160045260246000fd5b51906001600160a01b03821682036200014f5756fe60406080815260048036101561001f575b5050361561001d57600080fd5b005b600091823560e01c806208ac8314611478578063088b955414610f1957806309da4e511461144f5780630b1b745e146114145780630c5d8da1146113eb5780631c8370cb146108e35780632fb92c5a146113645780632fda23b714611045578063306275be14610fb8578063358d96ab14610f425780633684d10014610f1957806337d7d54214610e6f5780633cd7bc95146106bf5780633f4ba83a14610e015780634da6840a14610da8578063533761fe14610d1157806355f804b314610b855780635c975abb14610b605780635fd6102014610ad2578381636247f6f214610a305750806366d0ead3146106815780636c0360eb146109875780636cf563a4146109f257806370319970146109c9578063714c539814610987578063715018a61461092a578063723ff2a21461090b57806377191a6e1461061057806381b539b8146108e35780638456cb59146108845780638da5cb5b1461085c578063a4198fa2146107e6578063a951583b14610770578063ac581b3a14610747578063b5af090f146106e8578063ce1a52d2146106bf578063d5b9221b14610681578063d9ce7b9514610639578063dbd15d5314610610578063e48293691461059a578063ec691a5914610524578063f140b55f1461048b578063f2fa739214610431578063f2fde38b146103a5578063fd4fe8a8146102f15763ff4884f8146102275750610010565b346102ed57806003193601126102ed5761023f61154f565b9161024861156a565b906102516117af565b80546001600160a01b0394859161026b908316331461184b565b169283865260026020528520805491680100000000000000008310156102da57508161029d9160018794018155611677565b949092169382549060031b9185831b921b19161790557f4cda7c30666ce0c5304ba2d323cdee5f647baac385d8e0cb2f706641c95043af8380a380f35b634e487b7160e01b875260419052602486fd5b8280fd5b50346102ed5760203660031901126102ed5761030b61154f565b610313611783565b6001600160a01b03169182156103635750600d80546001600160a01b03191683179055519081527f60a886c8dc324af9c6d6a1bf7369ffe7557ef345eb5717bceffb59beac879a0a90602090a180f35b6020606492519162461bcd60e51b8352820152601860248201527f496e76616c69642072656e6465726572206164647265737300000000000000006044820152fd5b5090346102ed5760203660031901126102ed576103c061154f565b906103c9611783565b6001600160a01b0391821692831561041b575050600054826001600160601b0360a01b821617600055167f8be0079c531659141344cd1fd0a4f28419497f9722a3daafe3b4186f6b6457e0600080a380f35b51631e4fbdf760e01b8152908101849052602490fd5b83823461048757806003193601126104875761044b61154f565b906024359182151580930361048357610462611783565b60018060a01b03168352600b60205282209060ff8019835416911617905580f35b8380fd5b5080fd5b50346102ed5760203660031901126102ed5760206104a761154f565b600654835163f140b55f60e01b81526001600160a01b039283169581019590955284916024918391165afa91821561051a57602093926104eb575b50519015158152f35b61050c919250833d8111610513575b61050481836115aa565b8101906118a1565b90386104e2565b503d6104fa565b81513d85823e3d90fd5b8382346104875760203660031901126104875760207fa01edaa3cd8a419b7bb45b34f35e84da238af9490eca1b318cb579f3179e29e49161056361154f565b61056b611783565b6001600160a01b03169061058082151561180d565b600980546001600160a01b0319168317905551908152a180f35b8382346104875760203660031901126104875760207fcede453a12a109bc98cf30c47be25a27dcd045508461cc9e9669a0185b648b89916105d961154f565b6105e1611783565b6001600160a01b0316906105f682151561180d565b600780546001600160a01b0319168317905551908152a180f35b83823461048757816003193601126104875760095490516001600160a01b039091168152602090f35b5090346102ed5760203660031901126102ed5761065461154f565b61066960018060a01b0380935416331461184b565b168252600c6020528120805460ff1916600117905580f35b8382346104875760203660031901126104875760209160ff9082906001600160a01b036106ac61154f565b168152600b855220541690519015158152f35b838234610487578160031936011261048757600a5490516001600160a01b039091168152602090f35b50346102ed5760203660031901126102ed57602061070461154f565b600754835163b5af090f60e01b81526001600160a01b039283169581019590955284916024918391165afa91821561051a57602093926104eb5750519015158152f35b83823461048757816003193601126104875760065490516001600160a01b039091168152602090f35b8382346104875760203660031901126104875760207f39a2470dcb92def89f4d008f638ab6d63ac78547bf3d6ccfebf542711a0503c7916107af61154f565b6107b7611783565b6001600160a01b0316906107cc82151561180d565b600680546001600160a01b0319168317905551908152a180f35b8382346104875760203660031901126104875760207f12e10e0acd0f94fc9b2d033a01586c1255f1d396a6a2ce1c02cc9fca057744589161082561154f565b61082d611783565b6001600160a01b03169061084282151561180d565b600880546001600160a01b0319168317905551908152a180f35b838234610487578160031936011261048757905490516001600160a01b039091168152602090f35b83823461048757816003193601126104875760207f62e78cea01bee320cd4e420270b5ea74000d11b0c9f74754ebdbfc544b05a258916108c2611783565b6108ca6117af565b835460ff60a01b1916600160a01b17845551338152a180f35b5090346102ed57826003193601126102ed575490516001600160a01b03909116815260209150f35b838234610487578160031936011261048757602090600e549051908152f35b8334610984578060031936011261098457610943611783565b600080546001600160a01b0319811682556001600160a01b03167f8be0079c531659141344cd1fd0a4f28419497f9722a3daafe3b4186f6b6457e08280a380f35b80fd5b83823461048757816003193601126104875780516109c5916109b3826109ac816116df565b03836115aa565b51918291602083526020830190611652565b0390f35b838234610487578160031936011261048757600d5490516001600160a01b039091168152602090f35b8382346104875760203660031901126104875760209160ff9082906001600160a01b03610a1d61154f565b168152600c855220541690519015158152f35b80848434610ace576020366003190112610ace57610a4c61154f565b83546001600160a01b0390811633148015610ac1575b610a6b906117d0565b8060075416803b15610abd5785928360249286519788958694633123fb7960e11b865216908401525af1908115610ab45750610aa45750f35b610aad90611580565b6109845780f35b513d84823e3d90fd5b8580fd5b5060075481163314610a62565b5050fd5b5090346102ed5760203660031901126102ed57610aed61154f565b610af5611783565b6001600160a01b0316918215610b1d5750506001600160601b0360a01b600a541617600a5580f35b906020606492519162461bcd60e51b8352820152601e60248201527f496e76616c69642072656769737472794d6f64756c65206164647265737300006044820152fd5b83823461048757816003193601126104875760ff6020925460a01c1690519015158152f35b828434610984576020806003193601126104875767ffffffffffffffff90833582811161048357610bb990369086016115e8565b93610bc2611783565b8451928311610cfe5750610bd7600f546116a5565b601f8111610c9c575b5080601f8311600114610c1b57508293829392610c10575b50508160011b916000199060031b1c191617600f5580f35b015190508380610bf8565b600f8452601f198316947f8d1108e10bcb7c27dddfc02ed9d693a074039d026cf4ea4240b40f7d581ac802929185905b878210610c84575050836001959610610c6b575b505050811b01600f5580f35b015160001960f88460031b161c19169055838080610c5f565b80600185968294968601518155019501930190610c4b565b600f84527f8d1108e10bcb7c27dddfc02ed9d693a074039d026cf4ea4240b40f7d581ac802601f840160051c810191838510610cf4575b601f0160051c01905b818110610ce95750610be0565b848155600101610cdc565b9091508190610cd3565b634e487b7160e01b845260419052602483fd5b50346102ed5760203660031901126102ed57813591610d2e611783565b8215610d665750816020917f7be9264fd4bacf6ffdd1cbfbe4fb3751923b2540828adf64102e4f5b096a7fe593600e5551908152a180f35b6020606492519162461bcd60e51b8352820152601f60248201527f4475726174696f6e206d7573742062652067726561746572207468616e2030006044820152fd5b838234610487578060031936011261048757610dc261154f565b6001600160a01b0390811683526002602052818320805460243594908510156109845750602093610df291611677565b92905490519260031b1c168152f35b5090346102ed57826003193601126102ed57610e1b611783565b82549060ff8260a01c1615610e61575060ff60a01b19168255513381527f5db9ee0a495bf2e6ff9c91a7834c1ba4fdd244a5e8aa4e537bd38aeae4b073aa90602090a180f35b8251638dfc202b60e01b8152fd5b838234610487576020806003193601126102ed576001600160a01b039283610e9561154f565b1681526002825282812091835190818185549182815201908195855282852090855b818110610f035750505082610ecd9103836115aa565b8451948186019282875251809352850193925b828110610eed5785850386f35b8351871685529381019392810192600101610ee0565b82548a1684529284019260019283019201610eb7565b83823461048757816003193601126104875760085490516001600160a01b039091168152602090f35b8382346104875760203660031901126104875760207f820c11a553e3f58735f11b502c4c13b5bdaad97e61b6fe3bafe7eaf4e09e94de91610f8161154f565b610f89611783565b6001600160a01b031690610f9e82151561180d565b600580546001600160a01b0319168317905551908152a180f35b50346102ed5760203660031901126102ed5782610fd361154f565b81546001600160a01b039190821633148015611038575b610ff3906117d0565b816007541690813b156104835783602492865197889586946318313adf60e11b865216908401525af1908115610ab4575061102c575080f35b61103590611580565b80f35b5060075482163314610fea565b5091903461048757600319926060368501126102ed57813567ffffffffffffffff938482116109845760c08683360301126109845782519360c0850185811087821117611351578452828101358681116102ed576110a8908236918601016115e8565b855260248301358681116102ed576110c5908236918601016115e8565b92602095868101948552604482013588811161134d576110ea908436918501016115e8565b928682019384526064830135898111610abd5761110c908236918601016115e8565b956060830196875260848401358a81116113495761112f908336918701016115e8565b936080840194855260a48101358b8111611345576111519136910184016115e8565b60a084019081526001600160a01b039b6044358d811693919290849003611341578d6008541633036112fe5788999a9b9c9d600d5416968c519b8c998a98899863350f69b160e11b8a52890160a090525160a4890160c0905261016489016111b891611652565b945160a31995868a82030160c48b01526111d191611652565b905190858982030160e48a01526111e791611652565b90519084888203016101048901526111fe91611652565b905190838782030161012488015261121591611652565b9051918582030161014486015261122b91611652565b916024356024850152604484015282820301606483015261124b906116df565b30608483015203915afa9485156112f2578195611279575b5050506109c59051928284938452830190611652565b90919294503d8083853e61128d81856115aa565b83019284818503126102ed5780519182116102ed570182601f82011215610487578051916112ba836115cc565b936112c7875195866115aa565b838552858484010111610984575082916112e99185806109c59601910161162f565b92903880611263565b508251903d90823e3d90fd5b8a5162461bcd60e51b81528086018d9052601f60248201527f4f6e6c79206d65746164617461206d6f64756c652063616e2072656e646572006044820152606490fd5b8880fd5b8780fd5b8680fd5b8480fd5b634e487b7160e01b835260418252602483fd5b50346102ed5760203660031901126102ed5761137e61154f565b611386611783565b6001600160a01b03169081156113a9575081546001600160a01b03191617905580f35b5162461bcd60e51b8152602081840152601760248201527f496e76616c696420666163746f727920616464726573730000000000000000006044820152606490fd5b83823461048757816003193601126104875760055490516001600160a01b039091168152602090f35b838234610487576020366003190112610487576020916001600160a01b039082908261143e61154f565b168152600385522054169051908152f35b83823461048757816003193601126104875760075490516001600160a01b039091168152602090f35b50346102ed57806003193601126102ed5761149161154f565b9161149a61156a565b926114a36117af565b81546001600160a01b03929083163303611501575081169182855260036020528420921691826001600160601b0360a01b8254161790557f48e8ef3819015e9b1e8d36ddbbbc8cefc90dba7f69b711bdca0c9a10b63b037f8380a380f35b608490602085519162461bcd60e51b8352820152602260248201527f4f6e6c7920666163746f72792063616e2073657420746f6b656e206d617070696044820152616e6760f01b6064820152fd5b600435906001600160a01b038216820361156557565b600080fd5b602435906001600160a01b038216820361156557565b67ffffffffffffffff811161159457604052565b634e487b7160e01b600052604160045260246000fd5b90601f8019910116810190811067ffffffffffffffff82111761159457604052565b67ffffffffffffffff811161159457601f01601f191660200190565b81601f82011215611565578035906115ff826115cc565b9261160d60405194856115aa565b8284526020838301011161156557816000926020809301838601378301015290565b60005b8381106116425750506000910152565b8181015183820152602001611632565b9060209161166b8151809281855285808601910161162f565b601f01601f1916010190565b805482101561168f5760005260206000200190600090565b634e487b7160e01b600052603260045260246000fd5b90600182811c921680156116d5575b60208310146116bf57565b634e487b7160e01b600052602260045260246000fd5b91607f16916116b4565b600f54600092916116ef826116a5565b80825291600190818116908115611766575060011461170d57505050565b91929350600f6000527f8d1108e10bcb7c27dddfc02ed9d693a074039d026cf4ea4240b40f7d581ac802916000925b84841061174e57505060209250010190565b8054602085850181019190915290930192810161173c565b915050602093945060ff929192191683830152151560051b010190565b6000546001600160a01b0316330361179757565b60405163118cdaa760e01b8152336004820152602490fd5b60ff60005460a01c166117be57565b60405163d93c066560e01b8152600490fd5b156117d757565b60405162461bcd60e51b815260206004820152600e60248201526d139bdd08185d5d1a1bdc9a5e995960921b6044820152606490fd5b1561181457565b60405162461bcd60e51b815260206004820152600f60248201526e496e76616c6964206164647265737360881b6044820152606490fd5b1561185257565b60405162461bcd60e51b815260206004820152602160248201527f4f6e6c7920666163746f72792063616e20616464207772617070656420736f6e6044820152606760f81b6064820152608490fd5b9081602091031261156557518015158103611565579056fea26469706673582212209a2cb3e0468ed7e96e67662d6ccc641e3d485ecfe063ea856e5b69e734f02fdc64736f6c63430008140033",
  "linkReferences": {},
  "deployedLinkReferences": {}
}