{
  "_format": "hh-sol-artifact-1",
  "contractName": "ProtocolModule",
  "sourceName": "contracts/protocol/NonUpgradable/ProtocolModule.sol",
  "abi": [
    {
      "inputs": [
        {
          "internalType": "address",
          "name": "_distributorWalletFactory",
          "type": "address"
        },
        {
          "internalType": "address",
          "name": "_whitelistingManager",
          "type": "address"
        },
        {
          "internalType": "address",
          "name": "_erc20whitelist",
          "type": "address"
        },
        {
          "internalType": "address",
          "name": "_metadataModule",
          "type": "address"
        },
        {
          "internalType": "address",
          "name": "_legalContractMetadata",
          "type": "address"
        }
      ],
      "stateMutability": "nonpayable",
      "type": "constructor"
    },
    {
      "inputs": [
        {
          "internalType": "address",
          "name": "target",
          "type": "address"
        }
      ],
      "name": "AddressEmptyCode",
      "type": "error"
    },
    {
      "inputs": [
        {
          "internalType": "address",
          "name": "account",
          "type": "address"
        }
      ],
      "name": "AddressInsufficientBalance",
      "type": "error"
    },
    {
      "inputs": [],
      "name": "EnforcedPause",
      "type": "error"
    },
    {
      "inputs": [],
      "name": "ExpectedPause",
      "type": "error"
    },
    {
      "inputs": [],
      "name": "FailedInnerCall",
      "type": "error"
    },
    {
      "inputs": [
        {
          "internalType": "address",
          "name": "owner",
          "type": "address"
        }
      ],
      "name": "OwnableInvalidOwner",
      "type": "error"
    },
    {
      "inputs": [
        {
          "internalType": "address",
          "name": "account",
          "type": "address"
        }
      ],
      "name": "OwnableUnauthorizedAccount",
      "type": "error"
    },
    {
      "inputs": [
        {
          "internalType": "address",
          "name": "token",
          "type": "address"
        }
      ],
      "name": "SafeERC20FailedOperation",
      "type": "error"
    },
    {
      "anonymous": false,
      "inputs": [
        {
          "indexed": true,
          "internalType": "address",
          "name": "wrappedSong",
          "type": "address"
        },
        {
          "indexed": true,
          "internalType": "address",
          "name": "distributor",
          "type": "address"
        }
      ],
      "name": "DistributorAcceptedReview",
      "type": "event"
    },
    {
      "anonymous": false,
      "inputs": [
        {
          "indexed": true,
          "internalType": "address",
          "name": "token",
          "type": "address"
        },
        {
          "indexed": true,
          "internalType": "address",
          "name": "recipient",
          "type": "address"
        },
        {
          "indexed": false,
          "internalType": "uint256",
          "name": "amount",
          "type": "uint256"
        }
      ],
      "name": "FeesWithdrawn",
      "type": "event"
    },
    {
      "anonymous": false,
      "inputs": [
        {
          "indexed": true,
          "internalType": "address",
          "name": "wrappedSong",
          "type": "address"
        },
        {
          "indexed": true,
          "internalType": "uint256",
          "name": "tokenId",
          "type": "uint256"
        },
        {
          "indexed": false,
          "internalType": "string",
          "name": "newMetadata",
          "type": "string"
        }
      ],
      "name": "MetadataUpdateRequested",
      "type": "event"
    },
    {
      "anonymous": false,
      "inputs": [
        {
          "indexed": true,
          "internalType": "address",
          "name": "wrappedSong",
          "type": "address"
        },
        {
          "indexed": true,
          "internalType": "uint256",
          "name": "tokenId",
          "type": "uint256"
        },
        {
          "indexed": false,
          "internalType": "string",
          "name": "newMetadata",
          "type": "string"
        }
      ],
      "name": "MetadataUpdated",
      "type": "event"
    },
    {
      "anonymous": false,
      "inputs": [
        {
          "indexed": true,
          "internalType": "address",
          "name": "previousOwner",
          "type": "address"
        },
        {
          "indexed": true,
          "internalType": "address",
          "name": "newOwner",
          "type": "address"
        }
      ],
      "name": "OwnershipTransferred",
      "type": "event"
    },
    {
      "anonymous": false,
      "inputs": [
        {
          "indexed": false,
          "internalType": "address",
          "name": "account",
          "type": "address"
        }
      ],
      "name": "Paused",
      "type": "event"
    },
    {
      "anonymous": false,
      "inputs": [
        {
          "indexed": false,
          "internalType": "bool",
          "name": "isPaused",
          "type": "bool"
        }
      ],
      "name": "Paused",
      "type": "event"
    },
    {
      "anonymous": false,
      "inputs": [
        {
          "indexed": false,
          "internalType": "bool",
          "name": "enabled",
          "type": "bool"
        }
      ],
      "name": "ReleasesEnabledChanged",
      "type": "event"
    },
    {
      "anonymous": false,
      "inputs": [
        {
          "indexed": true,
          "internalType": "address",
          "name": "wrappedSong",
          "type": "address"
        },
        {
          "indexed": true,
          "internalType": "address",
          "name": "distributor",
          "type": "address"
        }
      ],
      "name": "ReviewPeriodExpired",
      "type": "event"
    },
    {
      "anonymous": false,
      "inputs": [
        {
          "indexed": false,
          "internalType": "uint256",
          "name": "newFee",
          "type": "uint256"
        }
      ],
      "name": "StartSaleFeeUpdated",
      "type": "event"
    },
    {
      "anonymous": false,
      "inputs": [
        {
          "indexed": false,
          "internalType": "address",
          "name": "account",
          "type": "address"
        }
      ],
      "name": "Unpaused",
      "type": "event"
    },
    {
      "anonymous": false,
      "inputs": [
        {
          "indexed": true,
          "internalType": "address",
          "name": "wrappedSong",
          "type": "address"
        },
        {
          "indexed": false,
          "internalType": "bool",
          "name": "isAuthentic",
          "type": "bool"
        }
      ],
      "name": "WrappedSongAuthenticitySet",
      "type": "event"
    },
    {
      "anonymous": false,
      "inputs": [
        {
          "indexed": true,
          "internalType": "address",
          "name": "wrappedSong",
          "type": "address"
        },
        {
          "indexed": true,
          "internalType": "address",
          "name": "distributor",
          "type": "address"
        }
      ],
      "name": "WrappedSongReleaseRejected",
      "type": "event"
    },
    {
      "anonymous": false,
      "inputs": [
        {
          "indexed": true,
          "internalType": "address",
          "name": "wrappedSong",
          "type": "address"
        },
        {
          "indexed": true,
          "internalType": "address",
          "name": "distributor",
          "type": "address"
        },
        {
          "indexed": true,
          "internalType": "address",
          "name": "creator",
          "type": "address"
        }
      ],
      "name": "WrappedSongReleaseRequested",
      "type": "event"
    },
    {
      "anonymous": false,
      "inputs": [
        {
          "indexed": true,
          "internalType": "address",
          "name": "wrappedSong",
          "type": "address"
        },
        {
          "indexed": true,
          "internalType": "address",
          "name": "distributor",
          "type": "address"
        }
      ],
      "name": "WrappedSongReleased",
      "type": "event"
    },
    {
      "inputs": [],
      "name": "MAX_WITHDRAWAL_FEE",
      "outputs": [
        {
          "internalType": "uint256",
          "name": "",
          "type": "uint256"
        }
      ],
      "stateMutability": "view",
      "type": "function"
    },
    {
      "inputs": [
        {
          "internalType": "address",
          "name": "wrappedSong",
          "type": "address"
        }
      ],
      "name": "acceptWrappedSongForReview",
      "outputs": [],
      "stateMutability": "nonpayable",
      "type": "function"
    },
    {
      "inputs": [
        {
          "internalType": "address",
          "name": "",
          "type": "address"
        }
      ],
      "name": "accumulatedFees",
      "outputs": [
        {
          "internalType": "uint256",
          "name": "",
          "type": "uint256"
        }
      ],
      "stateMutability": "view",
      "type": "function"
    },
    {
      "inputs": [
        {
          "internalType": "address",
          "name": "wrappedSong",
          "type": "address"
        },
        {
          "internalType": "string",
          "name": "iscc",
          "type": "string"
        }
      ],
      "name": "addISCC",
      "outputs": [],
      "stateMutability": "nonpayable",
      "type": "function"
    },
    {
      "inputs": [
        {
          "internalType": "address",
          "name": "wrappedSong",
          "type": "address"
        },
        {
          "internalType": "string",
          "name": "isrc",
          "type": "string"
        }
      ],
      "name": "addISRC",
      "outputs": [],
      "stateMutability": "nonpayable",
      "type": "function"
    },
    {
      "inputs": [
        {
          "internalType": "address",
          "name": "wrappedSong",
          "type": "address"
        },
        {
          "internalType": "string",
          "name": "iswc",
          "type": "string"
        }
      ],
      "name": "addISWC",
      "outputs": [],
      "stateMutability": "nonpayable",
      "type": "function"
    },
    {
      "inputs": [
        {
          "internalType": "address",
          "name": "wrappedSong",
          "type": "address"
        },
        {
          "internalType": "string",
          "name": "upc",
          "type": "string"
        }
      ],
      "name": "addUPC",
      "outputs": [],
      "stateMutability": "nonpayable",
      "type": "function"
    },
    {
      "inputs": [
        {
          "internalType": "address",
          "name": "",
          "type": "address"
        }
      ],
      "name": "authorizedContracts",
      "outputs": [
        {
          "internalType": "bool",
          "name": "",
          "type": "bool"
        }
      ],
      "stateMutability": "view",
      "type": "function"
    },
    {
      "inputs": [],
      "name": "baseURI",
      "outputs": [
        {
          "internalType": "string",
          "name": "",
          "type": "string"
        }
      ],
      "stateMutability": "view",
      "type": "function"
    },
    {
      "inputs": [
        {
          "internalType": "address",
          "name": "wrappedSong",
          "type": "address"
        }
      ],
      "name": "confirmWrappedSongRelease",
      "outputs": [],
      "stateMutability": "nonpayable",
      "type": "function"
    },
    {
      "inputs": [],
      "name": "distributorWalletFactory",
      "outputs": [
        {
          "internalType": "contract IDistributorWalletFactory",
          "name": "",
          "type": "address"
        }
      ],
      "stateMutability": "view",
      "type": "function"
    },
    {
      "inputs": [],
      "name": "erc20whitelist",
      "outputs": [
        {
          "internalType": "contract IERC20Whitelist",
          "name": "",
          "type": "address"
        }
      ],
      "stateMutability": "view",
      "type": "function"
    },
    {
      "inputs": [],
      "name": "getBaseURI",
      "outputs": [
        {
          "internalType": "string",
          "name": "",
          "type": "string"
        }
      ],
      "stateMutability": "view",
      "type": "function"
    },
    {
      "inputs": [],
      "name": "getLegalContractMetadata",
      "outputs": [
        {
          "internalType": "address",
          "name": "",
          "type": "address"
        }
      ],
      "stateMutability": "view",
      "type": "function"
    },
    {
      "inputs": [],
      "name": "getMetadataModule",
      "outputs": [
        {
          "internalType": "address",
          "name": "",
          "type": "address"
        }
      ],
      "stateMutability": "view",
      "type": "function"
    },
    {
      "inputs": [
        {
          "internalType": "address",
          "name": "owner",
          "type": "address"
        }
      ],
      "name": "getOwnerWrappedSongs",
      "outputs": [
        {
          "internalType": "address[]",
          "name": "",
          "type": "address[]"
        }
      ],
      "stateMutability": "view",
      "type": "function"
    },
    {
      "inputs": [
        {
          "internalType": "address",
          "name": "wrappedSong",
          "type": "address"
        }
      ],
      "name": "getPendingDistributorRequests",
      "outputs": [
        {
          "internalType": "address",
          "name": "",
          "type": "address"
        }
      ],
      "stateMutability": "view",
      "type": "function"
    },
    {
      "inputs": [],
      "name": "getStartSaleFee",
      "outputs": [
        {
          "internalType": "uint256",
          "name": "",
          "type": "uint256"
        }
      ],
      "stateMutability": "view",
      "type": "function"
    },
    {
      "inputs": [],
      "name": "getWithdrawalFeePercentage",
      "outputs": [
        {
          "internalType": "uint256",
          "name": "",
          "type": "uint256"
        }
      ],
      "stateMutability": "view",
      "type": "function"
    },
    {
      "inputs": [
        {
          "internalType": "address",
          "name": "wrappedSong",
          "type": "address"
        }
      ],
      "name": "getWrappedSongDistributor",
      "outputs": [
        {
          "internalType": "address",
          "name": "",
          "type": "address"
        }
      ],
      "stateMutability": "view",
      "type": "function"
    },
    {
      "inputs": [
        {
          "internalType": "address",
          "name": "wrappedSong",
          "type": "address"
        }
      ],
      "name": "handleExpiredReviewPeriod",
      "outputs": [],
      "stateMutability": "nonpayable",
      "type": "function"
    },
    {
      "inputs": [
        {
          "internalType": "address",
          "name": "wrappedSong",
          "type": "address"
        }
      ],
      "name": "isAuthentic",
      "outputs": [
        {
          "internalType": "bool",
          "name": "",
          "type": "bool"
        }
      ],
      "stateMutability": "view",
      "type": "function"
    },
    {
      "inputs": [
        {
          "internalType": "address",
          "name": "_contractAddress",
          "type": "address"
        }
      ],
      "name": "isAuthorizedContract",
      "outputs": [
        {
          "internalType": "bool",
          "name": "",
          "type": "bool"
        }
      ],
      "stateMutability": "view",
      "type": "function"
    },
    {
      "inputs": [
        {
          "internalType": "address",
          "name": "wrappedSong",
          "type": "address"
        }
      ],
      "name": "isReleased",
      "outputs": [
        {
          "internalType": "bool",
          "name": "",
          "type": "bool"
        }
      ],
      "stateMutability": "view",
      "type": "function"
    },
    {
      "inputs": [
        {
          "internalType": "address",
          "name": "token",
          "type": "address"
        }
      ],
      "name": "isTokenWhitelisted",
      "outputs": [
        {
          "internalType": "bool",
          "name": "",
          "type": "bool"
        }
      ],
      "stateMutability": "view",
      "type": "function"
    },
    {
      "inputs": [
        {
          "internalType": "address",
          "name": "creator",
          "type": "address"
        }
      ],
      "name": "isValidToCreateWrappedSong",
      "outputs": [
        {
          "internalType": "bool",
          "name": "",
          "type": "bool"
        }
      ],
      "stateMutability": "view",
      "type": "function"
    },
    {
      "inputs": [
        {
          "internalType": "address",
          "name": "wsTokenManagement",
          "type": "address"
        }
      ],
      "name": "isWSTokenFromProtocol",
      "outputs": [
        {
          "internalType": "bool",
          "name": "",
          "type": "bool"
        }
      ],
      "stateMutability": "view",
      "type": "function"
    },
    {
      "inputs": [
        {
          "internalType": "address",
          "name": "",
          "type": "address"
        }
      ],
      "name": "isccRegistry",
      "outputs": [
        {
          "internalType": "string",
          "name": "",
          "type": "string"
        }
      ],
      "stateMutability": "view",
      "type": "function"
    },
    {
      "inputs": [
        {
          "internalType": "address",
          "name": "",
          "type": "address"
        }
      ],
      "name": "isrcRegistry",
      "outputs": [
        {
          "internalType": "string",
          "name": "",
          "type": "string"
        }
      ],
      "stateMutability": "view",
      "type": "function"
    },
    {
      "inputs": [
        {
          "internalType": "address",
          "name": "",
          "type": "address"
        }
      ],
      "name": "iswcRegistry",
      "outputs": [
        {
          "internalType": "string",
          "name": "",
          "type": "string"
        }
      ],
      "stateMutability": "view",
      "type": "function"
    },
    {
      "inputs": [],
      "name": "legalContractMetadata",
      "outputs": [
        {
          "internalType": "contract ILegalContractMetadata",
          "name": "",
          "type": "address"
        }
      ],
      "stateMutability": "view",
      "type": "function"
    },
    {
      "inputs": [],
      "name": "maxSaleDuration",
      "outputs": [
        {
          "internalType": "uint256",
          "name": "",
          "type": "uint256"
        }
      ],
      "stateMutability": "view",
      "type": "function"
    },
    {
      "inputs": [],
      "name": "metadataModule",
      "outputs": [
        {
          "internalType": "contract IMetadataModule",
          "name": "",
          "type": "address"
        }
      ],
      "stateMutability": "view",
      "type": "function"
    },
    {
      "inputs": [],
      "name": "metadataRenderer",
      "outputs": [
        {
          "internalType": "contract IMetadataRenderer",
          "name": "",
          "type": "address"
        }
      ],
      "stateMutability": "view",
      "type": "function"
    },
    {
      "inputs": [],
      "name": "owner",
      "outputs": [
        {
          "internalType": "address",
          "name": "",
          "type": "address"
        }
      ],
      "stateMutability": "view",
      "type": "function"
    },
    {
      "inputs": [
        {
          "internalType": "address",
          "name": "",
          "type": "address"
        },
        {
          "internalType": "uint256",
          "name": "",
          "type": "uint256"
        }
      ],
      "name": "ownerWrappedSongs",
      "outputs": [
        {
          "internalType": "address",
          "name": "",
          "type": "address"
        }
      ],
      "stateMutability": "view",
      "type": "function"
    },
    {
      "inputs": [],
      "name": "pause",
      "outputs": [],
      "stateMutability": "nonpayable",
      "type": "function"
    },
    {
      "inputs": [],
      "name": "paused",
      "outputs": [
        {
          "internalType": "bool",
          "name": "",
          "type": "bool"
        }
      ],
      "stateMutability": "view",
      "type": "function"
    },
    {
      "inputs": [
        {
          "internalType": "address",
          "name": "",
          "type": "address"
        }
      ],
      "name": "pendingDistributorRequests",
      "outputs": [
        {
          "internalType": "address",
          "name": "",
          "type": "address"
        }
      ],
      "stateMutability": "view",
      "type": "function"
    },
    {
      "inputs": [
        {
          "internalType": "address",
          "name": "wrappedSong",
          "type": "address"
        }
      ],
      "name": "rejectWrappedSongRelease",
      "outputs": [],
      "stateMutability": "nonpayable",
      "type": "function"
    },
    {
      "inputs": [],
      "name": "releaseFee",
      "outputs": [
        {
          "internalType": "uint256",
          "name": "",
          "type": "uint256"
        }
      ],
      "stateMutability": "view",
      "type": "function"
    },
    {
      "inputs": [],
      "name": "releasesEnabled",
      "outputs": [
        {
          "internalType": "bool",
          "name": "",
          "type": "bool"
        }
      ],
      "stateMutability": "view",
      "type": "function"
    },
    {
      "inputs": [
        {
          "internalType": "address",
          "name": "token",
          "type": "address"
        }
      ],
      "name": "removeTokenFromWhitelist",
      "outputs": [],
      "stateMutability": "nonpayable",
      "type": "function"
    },
    {
      "inputs": [
        {
          "internalType": "address",
          "name": "wrappedSong",
          "type": "address"
        }
      ],
      "name": "removeWrappedSongReleaseRequest",
      "outputs": [],
      "stateMutability": "nonpayable",
      "type": "function"
    },
    {
      "inputs": [
        {
          "components": [
            {
              "internalType": "string",
              "name": "name",
              "type": "string"
            },
            {
              "internalType": "string",
              "name": "description",
              "type": "string"
            },
            {
              "internalType": "string",
              "name": "image",
              "type": "string"
            },
            {
              "internalType": "string",
              "name": "externalUrl",
              "type": "string"
            },
            {
              "internalType": "string",
              "name": "animationUrl",
              "type": "string"
            },
            {
              "internalType": "string",
              "name": "attributesIpfsHash",
              "type": "string"
            }
          ],
          "internalType": "struct IMetadataModule.Metadata",
          "name": "metadata",
          "type": "tuple"
        },
        {
          "internalType": "uint256",
          "name": "tokenId",
          "type": "uint256"
        },
        {
          "internalType": "address",
          "name": "wrappedSong",
          "type": "address"
        }
      ],
      "name": "renderTokenURI",
      "outputs": [
        {
          "internalType": "string",
          "name": "",
          "type": "string"
        }
      ],
      "stateMutability": "view",
      "type": "function"
    },
    {
      "inputs": [],
      "name": "renounceOwnership",
      "outputs": [],
      "stateMutability": "nonpayable",
      "type": "function"
    },
    {
      "inputs": [
        {
          "internalType": "address",
          "name": "wrappedSong",
          "type": "address"
        },
        {
          "internalType": "address",
          "name": "distributor",
          "type": "address"
        }
      ],
      "name": "requestWrappedSongRelease",
      "outputs": [],
      "stateMutability": "payable",
      "type": "function"
    },
    {
      "inputs": [
        {
          "internalType": "address",
          "name": "wrappedSong",
          "type": "address"
        },
        {
          "internalType": "address",
          "name": "distributor",
          "type": "address"
        },
        {
          "components": [
            {
              "internalType": "string",
              "name": "name",
              "type": "string"
            },
            {
              "internalType": "string",
              "name": "description",
              "type": "string"
            },
            {
              "internalType": "string",
              "name": "image",
              "type": "string"
            },
            {
              "internalType": "string",
              "name": "externalUrl",
              "type": "string"
            },
            {
              "internalType": "string",
              "name": "animationUrl",
              "type": "string"
            },
            {
              "internalType": "string",
              "name": "attributesIpfsHash",
              "type": "string"
            }
          ],
          "internalType": "struct IMetadataModule.Metadata",
          "name": "newMetadata",
          "type": "tuple"
        }
      ],
      "name": "requestWrappedSongReleaseWithMetadata",
      "outputs": [],
      "stateMutability": "payable",
      "type": "function"
    },
    {
      "inputs": [],
      "name": "reviewPeriodDays",
      "outputs": [
        {
          "internalType": "uint256",
          "name": "",
          "type": "uint256"
        }
      ],
      "stateMutability": "view",
      "type": "function"
    },
    {
      "inputs": [
        {
          "internalType": "address",
          "name": "",
          "type": "address"
        }
      ],
      "name": "reviewPeriods",
      "outputs": [
        {
          "internalType": "uint256",
          "name": "startTime",
          "type": "uint256"
        },
        {
          "internalType": "uint256",
          "name": "endTime",
          "type": "uint256"
        },
        {
          "internalType": "address",
          "name": "distributor",
          "type": "address"
        }
      ],
      "stateMutability": "view",
      "type": "function"
    },
    {
      "inputs": [
        {
          "internalType": "address",
          "name": "_contractAddress",
          "type": "address"
        },
        {
          "internalType": "bool",
          "name": "_isAuthorized",
          "type": "bool"
        }
      ],
      "name": "setAuthorizedContract",
      "outputs": [],
      "stateMutability": "nonpayable",
      "type": "function"
    },
    {
      "inputs": [
        {
          "internalType": "string",
          "name": "_baseURI",
          "type": "string"
        }
      ],
      "name": "setBaseURI",
      "outputs": [],
      "stateMutability": "nonpayable",
      "type": "function"
    },
    {
      "inputs": [
        {
          "internalType": "address",
          "name": "_newFactory",
          "type": "address"
        }
      ],
      "name": "setDistributorWalletFactory",
      "outputs": [],
      "stateMutability": "nonpayable",
      "type": "function"
    },
    {
      "inputs": [
        {
          "internalType": "address",
          "name": "_erc20whitelist",
          "type": "address"
        }
      ],
      "name": "setERC20Whitelist",
      "outputs": [],
      "stateMutability": "nonpayable",
      "type": "function"
    },
    {
      "inputs": [
        {
          "internalType": "address",
          "name": "_legalContractMetadata",
          "type": "address"
        }
      ],
      "name": "setLegalContractMetadata",
      "outputs": [],
      "stateMutability": "nonpayable",
      "type": "function"
    },
    {
      "inputs": [
        {
          "internalType": "uint256",
          "name": "_duration",
          "type": "uint256"
        }
      ],
      "name": "setMaxSaleDuration",
      "outputs": [],
      "stateMutability": "nonpayable",
      "type": "function"
    },
    {
      "inputs": [
        {
          "internalType": "address",
          "name": "_metadataModule",
          "type": "address"
        }
      ],
      "name": "setMetadataModule",
      "outputs": [],
      "stateMutability": "nonpayable",
      "type": "function"
    },
    {
      "inputs": [
        {
          "internalType": "address",
          "name": "_renderer",
          "type": "address"
        }
      ],
      "name": "setMetadataRenderer",
      "outputs": [],
      "stateMutability": "nonpayable",
      "type": "function"
    },
    {
      "inputs": [
        {
          "internalType": "address",
          "name": "owner",
          "type": "address"
        },
        {
          "internalType": "address",
          "name": "wrappedSong",
          "type": "address"
        }
      ],
      "name": "setOwnerWrappedSong",
      "outputs": [],
      "stateMutability": "nonpayable",
      "type": "function"
    },
    {
      "inputs": [
        {
          "internalType": "uint256",
          "name": "_fee",
          "type": "uint256"
        }
      ],
      "name": "setReleaseFee",
      "outputs": [],
      "stateMutability": "nonpayable",
      "type": "function"
    },
    {
      "inputs": [
        {
          "internalType": "bool",
          "name": "_enabled",
          "type": "bool"
        }
      ],
      "name": "setReleasesEnabled",
      "outputs": [],
      "stateMutability": "nonpayable",
      "type": "function"
    },
    {
      "inputs": [
        {
          "internalType": "uint256",
          "name": "_days",
          "type": "uint256"
        }
      ],
      "name": "setReviewPeriodDays",
      "outputs": [],
      "stateMutability": "nonpayable",
      "type": "function"
    },
    {
      "inputs": [
        {
          "internalType": "address",
          "name": "smartAccount",
          "type": "address"
        },
        {
          "internalType": "address",
          "name": "wsToken",
          "type": "address"
        }
      ],
      "name": "setSmartAccountToWSToken",
      "outputs": [],
      "stateMutability": "nonpayable",
      "type": "function"
    },
    {
      "inputs": [
        {
          "internalType": "uint256",
          "name": "newFee",
          "type": "uint256"
        }
      ],
      "name": "setStartSaleFee",
      "outputs": [],
      "stateMutability": "nonpayable",
      "type": "function"
    },
    {
      "inputs": [
        {
          "internalType": "address",
          "name": "wsTokenManagement",
          "type": "address"
        }
      ],
      "name": "setWSTokenFromProtocol",
      "outputs": [],
      "stateMutability": "nonpayable",
      "type": "function"
    },
    {
      "inputs": [
        {
          "internalType": "address",
          "name": "_whitelistingManager",
          "type": "address"
        }
      ],
      "name": "setWhitelistingManager",
      "outputs": [],
      "stateMutability": "nonpayable",
      "type": "function"
    },
    {
      "inputs": [
        {
          "internalType": "uint256",
          "name": "_feePercentage",
          "type": "uint256"
        }
      ],
      "name": "setWithdrawalFeePercentage",
      "outputs": [],
      "stateMutability": "nonpayable",
      "type": "function"
    },
    {
      "inputs": [
        {
          "internalType": "address",
          "name": "wrappedSong",
          "type": "address"
        },
        {
          "internalType": "bool",
          "name": "_isAuthentic",
          "type": "bool"
        }
      ],
      "name": "setWrappedSongAuthenticity",
      "outputs": [],
      "stateMutability": "nonpayable",
      "type": "function"
    },
    {
      "inputs": [
        {
          "internalType": "uint256",
          "name": "_fee",
          "type": "uint256"
        }
      ],
      "name": "setWrappedSongCreationFee",
      "outputs": [],
      "stateMutability": "nonpayable",
      "type": "function"
    },
    {
      "inputs": [
        {
          "internalType": "address",
          "name": "_wrappedSongFactory",
          "type": "address"
        }
      ],
      "name": "setWrappedSongFactory",
      "outputs": [],
      "stateMutability": "nonpayable",
      "type": "function"
    },
    {
      "inputs": [
        {
          "internalType": "address",
          "name": "",
          "type": "address"
        }
      ],
      "name": "smartAccountToWSToken",
      "outputs": [
        {
          "internalType": "address",
          "name": "",
          "type": "address"
        }
      ],
      "stateMutability": "view",
      "type": "function"
    },
    {
      "inputs": [
        {
          "internalType": "address",
          "name": "newOwner",
          "type": "address"
        }
      ],
      "name": "transferOwnership",
      "outputs": [],
      "stateMutability": "nonpayable",
      "type": "function"
    },
    {
      "inputs": [],
      "name": "unpause",
      "outputs": [],
      "stateMutability": "nonpayable",
      "type": "function"
    },
    {
      "inputs": [
        {
          "internalType": "address",
          "name": "",
          "type": "address"
        }
      ],
      "name": "upcRegistry",
      "outputs": [
        {
          "internalType": "string",
          "name": "",
          "type": "string"
        }
      ],
      "stateMutability": "view",
      "type": "function"
    },
    {
      "inputs": [
        {
          "internalType": "address",
          "name": "token",
          "type": "address"
        }
      ],
      "name": "whitelistToken",
      "outputs": [],
      "stateMutability": "nonpayable",
      "type": "function"
    },
    {
      "inputs": [],
      "name": "whitelistingManager",
      "outputs": [
        {
          "internalType": "contract IWhitelistingManager",
          "name": "",
          "type": "address"
        }
      ],
      "stateMutability": "view",
      "type": "function"
    },
    {
      "inputs": [
        {
          "internalType": "address",
          "name": "token",
          "type": "address"
        },
        {
          "internalType": "address",
          "name": "recipient",
          "type": "address"
        }
      ],
      "name": "withdrawAccumulatedFees",
      "outputs": [],
      "stateMutability": "nonpayable",
      "type": "function"
    },
    {
      "inputs": [],
      "name": "withdrawalFeePercentage",
      "outputs": [
        {
          "internalType": "uint256",
          "name": "",
          "type": "uint256"
        }
      ],
      "stateMutability": "view",
      "type": "function"
    },
    {
      "inputs": [
        {
          "internalType": "address",
          "name": "",
          "type": "address"
        }
      ],
      "name": "wrappedSongAuthenticity",
      "outputs": [
        {
          "internalType": "bool",
          "name": "",
          "type": "bool"
        }
      ],
      "stateMutability": "view",
      "type": "function"
    },
    {
      "inputs": [],
      "name": "wrappedSongCreationFee",
      "outputs": [
        {
          "internalType": "uint256",
          "name": "",
          "type": "uint256"
        }
      ],
      "stateMutability": "view",
      "type": "function"
    },
    {
      "inputs": [],
      "name": "wrappedSongFactory",
      "outputs": [
        {
          "internalType": "contract IWrappedSongFactory",
          "name": "",
          "type": "address"
        }
      ],
      "stateMutability": "view",
      "type": "function"
    },
    {
      "inputs": [],
      "name": "wrappedSongFactoryAddress",
      "outputs": [
        {
          "internalType": "address",
          "name": "",
          "type": "address"
        }
      ],
      "stateMutability": "view",
      "type": "function"
    },
    {
      "inputs": [
        {
          "internalType": "address",
          "name": "",
          "type": "address"
        }
      ],
      "name": "wrappedSongToDistributor",
      "outputs": [
        {
          "internalType": "address",
          "name": "",
          "type": "address"
        }
      ],
      "stateMutability": "view",
      "type": "function"
    },
    {
      "stateMutability": "payable",
      "type": "receive"
    }
  ],
  "bytecode": "0x6080346200015d57601f620034d838819003918201601f19168301916001600160401b03831184841017620001625780849260a0946040528339810103126200015d576200004d8162000178565b6200005b6020830162000178565b620000696040840162000178565b906200008660806200007e6060870162000178565b950162000178565b9033156200014457600054946040519560018060a01b03948580948193338382167f8be0079c531659141344cd1fd0a4f28419497f9722a3daafe3b4186f6b6457e0600080a360ff60a01b1933169060018060a81b03191617600055600760195562278d00601a55600160ff19601c541617601c558160018060a01b031999168960065416176006551687600754161760075516856008541617600855168360095416176009551690600a541617600a5561334a90816200018e8239f35b604051631e4fbdf760e01b815260006004820152602490fd5b600080fd5b634e487b7160e01b600052604160045260246000fd5b51906001600160a01b03821682036200015d5756fe60406080815260048036101561001f575b5050361561001d57600080fd5b005b600091823560e01c806208ac83146127ba57806306fd88ed1461101f578063088b9554146120a057806309da4e51146127915780630b1b745e146127575780630c5d8da11461272e578063175b818c1461270a5780631a3b00e2146126eb5780631c8370cb146113745780631e944d54146126b05780631f4710691461268e57806321dd882b146126535780632490a901146126345780632b03295f1461247a5780632cd6c9a614611d835780632fb92c5a146123ec5780632fda23b7146121b5578063306275be1461212b5780633224d84814612109578063358d96ab146120c95780633684d100146120a0578063376c1f0714611ea557806337c38c4814611e6857806337d7d54214611dbe5780633aa690e714611d835780633f4ba83a14611d15578063438c9d9514611cf6578063496d51af14611b8e5780634b08ec50146119d65780634bb43e5c1461199b5780634da6840a146119425780634fa71b06146117da578063533761fe1461176b57806355f804b3146116045780635c975abb146115df5780635fb0ea901461157e578381636247f6f2146114e95750806366d0ead314610bba5780636b09d20214610d4b5780636c0360eb146114645780636cf563a4146114ab5780637031997014611482578063714c539814611464578063715018a61461140a5780637159aa62146113bc578063723ff2a21461139d57806377191a6e14610b2557806378922c8f14610d2c57806381b539b8146113745780638437de381461130c5780638456cb59146112ad5780638bfa25da1461128b5780638da5cb5b146112635780639860da0014611211578063a4144de6146110a9578063a4198fa21461105d578063a44935751461101f578063a951583b14610fdf578063ac581b3a14610fb6578063b0c70e2714610ed7578063b5af090f14610e78578063be94e31914610d86578063c7be5e2a14610d4b578063c8f5f4e814610d2c578063ccad87f014610c43578063cd36bc9a14610bf8578063d5b9221b14610bba578063d9ce7b9514610b6d578063d9fa987914610b4e578063dbd15d5314610b25578063dfef968114610984578063e482936914610944578063e72cfcb8146108f1578063eb6ed330146108d4578063ec691a5914610885578063f140b55f146107fc578063f2fa7392146107aa578063f2fde38b1461071e578063f526036914610619578063fcf66664146105e1578063fd4fe8a814610553578063ff4884f8146104af5763ffc5a46f146103be5750610010565b606036600319011261049a57826103d3612867565b926103dc61287d565b926044356001600160401b0381116104ab576103fb9036908401612b2c565b9161040a60ff601c5416612d0c565b610418600254341015612d58565b6104228587612e59565b6009546001600160a01b0391908216803b156104a75785928389610467875198899687958694635dc447ed60e01b865216908401528860248401526044830190612da4565b03925af190811561049e5750610486575b5050610483916130de565b80f35b61048f906128cd565b61049a578238610478565b8280fd5b513d84823e3d90fd5b8580fd5b8380fd5b5082903461054f578060031936011261054f576104ca612867565b906104d361287d565b906104dc612cae565b6005546001600160a01b039384916104f7908316331461320b565b168452600360205283208054906801000000000000000082101561053c579061052591600182018155612c45565b90928084549260031b9316831b921b191617905580f35b634e487b7160e01b855260418652602485fd5b5080fd5b50903461049a57602036600319011261049a5761056e612867565b610576612c82565b6001600160a01b031691821561059e5750506001600160601b0360a01b601554161760155580f35b906020606492519162461bcd60e51b8352820152601860248201527f496e76616c69642072656e6465726572206164647265737300000000000000006044820152fd5b83823461054f57602036600319011261054f5760209181906001600160a01b03610609612867565b1681526018845220549051908152f35b503461049a576020806003193601126104ab576001600160a01b0392818461063f612867565b1694858752601082526106588186892054163314613181565b6006541691602485518094819363d42fe23160e01b835233908301525afa908115610714576002926106976000959360139389916106e7575b50613135565b8587526010815282872080546001600160a01b031916905552842082815560018101839055015533907fc507cac5427f24391d3862582c450f4840191f3fb50ae93ea8eb3e5d0a27241a8380a380f35b6107079150833d851161070d575b6106ff8183612911565b810190612e41565b38610691565b503d6106f5565b83513d87823e3d90fd5b50903461049a57602036600319011261049a57610739612867565b90610742612c82565b6001600160a01b03918216928315610794575050600054826001600160601b0360a01b821617600055167f8be0079c531659141344cd1fd0a4f28419497f9722a3daafe3b4186f6b6457e0600080a380f35b51631e4fbdf760e01b8152908101849052602490fd5b83823461054f578060031936011261054f57610483906107c8612867565b906107d1612c73565b916107da612c82565b60018060a01b03168452601260205283209060ff801983541691151516179055565b503461049a57602036600319011261049a576020610818612867565b600754835163f140b55f60e01b81526001600160a01b039283169581019590955284916024918391165afa91821561087b576020939261085c575b50519015158152f35b610874919250833d811161070d576106ff8183612911565b9038610853565b81513d85823e3d90fd5b83346108d15760203660031901126108d15761089f612867565b6108a7612c82565b6001600160a01b03166108bb8115156131cd565b6001600160601b0360a01b600a541617600a5580f35b80fd5b83823461054f578160031936011261054f57602090516103e88152f35b83823461054f57602036600319011261054f576060916001600160a01b03919081908361091c612867565b1681526013602052209081549260026001840154930154169181519384526020840152820152f35b83346108d15760203660031901126108d15761095e612867565b610966612c82565b60018060a01b03166001600160601b0360a01b600854161760085580f35b5082903461054f5761099536612c03565b9390916109a0612cae565b6001600160a01b03928316808552600f6020908152828620549094163303610ae3578452600c83528320918451916001600160401b038311610ad057506109e78354612893565b601f8111610a8d575b5080601f8311600114610a2b5750839482939492610a20575b50508160011b916000199060031b1c191617905580f35b015190508480610a09565b90601f198316958486528286209286905b888210610a7557505083600195969710610a5c575b505050811b01905580f35b015160001960f88460031b161c19169055848080610a51565b80600185968294968601518155019501930190610a3c565b838552818520601f840160051c810191838510610ac6575b601f0160051c01905b818110610abb57506109f0565b858155600101610aae565b9091508190610aa5565b634e487b7160e01b855260419052602484fd5b5091606492519162461bcd60e51b8352820152601c60248201527f4f6e6c79206469737472696275746f722063616e2073657420555043000000006044820152fd5b83823461054f578160031936011261054f57600a5490516001600160a01b039091168152602090f35b83823461054f578160031936011261054f576020906016549051908152f35b83823461054f57602036600319011261054f57610b88612867565b6005546001600160a01b039190610ba2908316331461320b565b16825260146020528120805460ff1916600117905580f35b83823461054f57602036600319011261054f5760209160ff9082906001600160a01b03610be5612867565b1681526012855220541690519015158152f35b83826003193601126108d157610483610c0f612867565b610c1761287d565b90610c2660ff601c5416612d0c565b610c34600254341015612d58565b610c3e8282612e59565b6130de565b50903461049a57602036600319011261049a576001600160a01b039081610c68612867565b1692838552601360205280852091815192610c82846128f6565b80548452828560026001840154938460208901520154169401938452421115610cea575060026000918587526013602052862082815582600182015501555116907ffbea9ba5ee98f3c8b5c04ea0c944ead3100801a041d88f0c7e90d404ddac1c6a8380a380f35b6020606492519162461bcd60e51b8352820152601d60248201527f52657669657720706572696f6420686173206e6f7420657870697265640000006044820152fd5b83823461054f578160031936011261054f576020906017549051908152f35b83823461054f57602036600319011261054f576020916001600160a01b0390829082610d75612867565b168152601085522054169051908152f35b50903461049a578160031936011261049a57610da0612867565b91610da9612c73565b91610db2612cae565b6001600160a01b03938416808652600f602052828620549094163303610e2157507fb54df1287f3d7012d0c033203342de84104f09a34d968f171bff51825d6cf5449160209184865260118352610e17828288209060ff801983541691151516179055565b519015158152a280f35b6020608492519162461bcd60e51b8352820152602c60248201527f4f6e6c79206469737472696275746f722063616e207365742061757468656e7460448201526b69636974792073746174757360a01b6064820152fd5b503461049a57602036600319011261049a576020610e94612867565b600854835163b5af090f60e01b81526001600160a01b039283169581019590955284916024918391165afa91821561087b576020939261085c5750519015158152f35b503461049a576020806003193601126104ab576001600160a01b03928184610efd612867565b169485875260108252610f168186892054163314613181565b6006541691602485518094819363d42fe23160e01b835233908301525afa90811561071457600292610f546000959360139389916106e75750613135565b858752600f81528287206001600160601b0360a01b90338282541617905560108252838820908154169055528420828155826001820155015533907f1ec2d15be1d4041a85003ee3860453fb0818606e3ccda6f18c41e692a25d5eea8380a380f35b83823461054f578160031936011261054f5760075490516001600160a01b039091168152602090f35b83346108d15760203660031901126108d157610ff9612867565b611001612c82565b60018060a01b03166001600160601b0360a01b600754161760075580f35b83823461054f57602036600319011261054f5760209160ff9082906001600160a01b0361104a612867565b1681526011855220541690519015158152f35b83346108d15760203660031901126108d157611077612867565b61107f612c82565b6001600160a01b03166110938115156131cd565b6001600160601b0360a01b600954161760095580f35b5082903461054f576110ba36612c03565b9390916110c5612cae565b6001600160a01b03928316808552600f60209081528286205490941633036111cf578452600d83528320918451916001600160401b038311610ad0575061110c8354612893565b601f811161118c575b5080601f83116001146111445750839482939492610a205750508160011b916000199060031b1c191617905580f35b90601f198316958486528286209286905b88821061117457505083600195969710610a5c57505050811b01905580f35b80600185968294968601518155019501930190611155565b838552818520601f840160051c8101918385106111c5575b601f0160051c01905b8181106111ba5750611115565b8581556001016111ad565b90915081906111a4565b5091606492519162461bcd60e51b8352820152601d60248201527f4f6e6c79206469737472696275746f722063616e2073657420495357430000006044820152fd5b83823461054f57602036600319011261054f5761125f9161124c9082906001600160a01b0361123e612867565b168152600e602052206129de565b9051918291602083526020830190612aa5565b0390f35b83823461054f578160031936011261054f57905490516001600160a01b039091168152602090f35b50503461054f57602036600319011261054f576112a6612c82565b3560025580f35b83823461054f578160031936011261054f5760207f62e78cea01bee320cd4e420270b5ea74000d11b0c9f74754ebdbfc544b05a258916112eb612c82565b6112f3612cae565b835460ff60a01b1916600160a01b17845551338152a180f35b50903461049a57602036600319011261049a57359081151580920361136f577fb5bb594c95eb864915724f4025ebea72bd6b2c96ee4243baceea4d04365efb6891602091611358612c82565b60ff19601c541660ff831617601c5551908152a180f35b600080fd5b83823461054f578160031936011261054f5760055490516001600160a01b039091168152602090f35b83823461054f578160031936011261054f57602090601a549051908152f35b50903461049a57602036600319011261049a577f1848f86a1772cf74c666a7db07dd66df4942583c365ea0f63bf434245a56f3559160209135906113fe612c82565b8160165551908152a180f35b83346108d157806003193601126108d157611423612c82565b600080546001600160a01b0319811682556001600160a01b03167f8be0079c531659141344cd1fd0a4f28419497f9722a3daafe3b4186f6b6457e08280a380f35b83823461054f578160031936011261054f5761125f9061124c612932565b83823461054f578160031936011261054f5760155490516001600160a01b039091168152602090f35b83823461054f57602036600319011261054f5760209160ff9082906001600160a01b036114d6612867565b1681526014855220541690519015158152f35b8084843461157a57602036600319011261157a57611505612867565b83546001600160a01b039081163314801561156d575b61152490612ccf565b8060085416803b156104a75785928360249286519788958694633123fb7960e11b865216908401525af190811561049e575061155d5750f35b611566906128cd565b6108d15780f35b506008548116331461151b565b5050fd5b50903461049a57602036600319011261049a5780359161159c612c82565b6103e883116115ad57505060175580f35b906020606492519162461bcd60e51b8352820152600c60248201526b08ccaca40e8dede40d0d2ced60a31b6044820152fd5b83823461054f578160031936011261054f5760ff6020925460a01c1690519015158152f35b8284346108d15760208060031936011261054f576001600160401b039083358281116104ab576116379036908601612ae5565b93611640612c82565b84519283116117585750611655601b54612893565b601f8111611708575b5080601f83116001146116995750829382939261168e575b50508160011b916000199060031b1c191617601b5580f35b015190508380611676565b601b8452601f198316946000805160206132f5833981519152929185905b8782106116f05750508360019596106116d7575b505050811b01601b5580f35b015160001960f88460031b161c191690558380806116cb565b806001859682949686015181550195019301906116b7565b601b84526000805160206132f5833981519152601f840160051c81019183851061174e575b601f0160051c01905b818110611743575061165e565b848155600101611736565b909150819061172d565b634e487b7160e01b845260419052602483fd5b50903461049a57602036600319011261049a57803591611789612c82565b8215611797575050601a5580f35b906020606492519162461bcd60e51b8352820152601f60248201527f4475726174696f6e206d7573742062652067726561746572207468616e2030006044820152fd5b5082903461054f576117eb36612c03565b9390916117f6612cae565b6001600160a01b03928316808552600f6020908152828620549094163303611900578452600e83528320918451916001600160401b038311610ad0575061183d8354612893565b601f81116118bd575b5080601f83116001146118755750839482939492610a205750508160011b916000199060031b1c191617905580f35b90601f198316958486528286209286905b8882106118a557505083600195969710610a5c57505050811b01905580f35b80600185968294968601518155019501930190611886565b838552818520601f840160051c8101918385106118f6575b601f0160051c01905b8181106118eb5750611846565b8581556001016118de565b90915081906118d5565b5091606492519162461bcd60e51b8352820152601d60248201527f4f6e6c79206469737472696275746f722063616e2073657420495343430000006044820152fd5b83823461054f578060031936011261054f5761195c612867565b6001600160a01b0390811683526003602052818320805460243594908510156108d1575060209361198c91612c45565b90549060031b1c169051908152f35b83823461054f57602036600319011261054f5761125f9161124c9082906001600160a01b036119c8612867565b168152600d602052206129de565b50903461049a57602090816003193601126104ab576001600160a01b03806119fc612867565b1693848652601084528181872054163303611b3557602484836006541683519283809263d42fe23160e01b825233898301525afa908115611b2b5790611a48918891611b145750613135565b84865260108452808620926001600160601b0360a01b938481541690556019546201518090818102918183041490151715611b0157420190814211611aee575090600291815191611a98836128f6565b428352868301918252601381840197338952898b5252882091518255516001820155019251169082541617905533907f0410af91d3fc953f1f383fde268b1cf5278d116a88123c657df6685f443359418380a380f35b634e487b7160e01b885260119052602487fd5b634e487b7160e01b885260118252602488fd5b6107079150863d881161070d576106ff8183612911565b82513d89823e3d90fd5b6084939150519162461bcd60e51b8352820152602e60248201527f4f6e6c792070656e64696e67206469737472696275746f722063616e2061636360448201526d65707420666f722072657669657760901b6064820152fd5b5082903461054f57611b9f36612c03565b939091611baa612cae565b6001600160a01b03928316808552600f6020908152828620549094163303611cb4578452600b83528320918451916001600160401b038311610ad05750611bf18354612893565b601f8111611c71575b5080601f8311600114611c295750839482939492610a205750508160011b916000199060031b1c191617905580f35b90601f198316958486528286209286905b888210611c5957505083600195969710610a5c57505050811b01905580f35b80600185968294968601518155019501930190611c3a565b838552818520601f840160051c810191838510611caa575b601f0160051c01905b818110611c9f5750611bfa565b858155600101611c92565b9091508190611c89565b5091606492519162461bcd60e51b8352820152601d60248201527f4f6e6c79206469737472696275746f722063616e2073657420495352430000006044820152fd5b83823461054f578160031936011261054f576020906001549051908152f35b50903461049a578260031936011261049a57611d2f612c82565b82549060ff8260a01c1615611d75575060ff60a01b19168255513381527f5db9ee0a495bf2e6ff9c91a7834c1ba4fdd244a5e8aa4e537bd38aeae4b073aa90602090a180f35b8251638dfc202b60e01b8152fd5b83823461054f57602036600319011261054f576020916001600160a01b0390829082611dad612867565b168152600f85522054169051908152f35b83823461054f5760208060031936011261049a576001600160a01b039283611de4612867565b1681526003825282812091835190818185549182815201908195855282852090855b818110611e525750505082611e1c910383612911565b8451948186019282875251809352850193925b828110611e3c5785850386f35b8351871685529381019392810192600101611e2f565b82548a1684529284019260019283019201611e06565b83823461054f57602036600319011261054f576020916001600160a01b0390829082611e92612867565b168152600f855220541615159051908152f35b5091903461054f578260031936011261054f57611ec0612867565b611ec861287d565b611ed0612c82565b60018060a01b03809216918285526020916018835286862054948515612067578487526018845286888120558415600014611f875786808080898787165af1611f17613261565b5015611f4e57507f5e110f8bc8a20b65dcc87f224bdf1cc039346e267118bae2739847f07321ffa8939495965b519586521693a380f35b875162461bcd60e51b81529081018490526013602482015272115512081d1c985b9cd9995c8819985a5b1959606a1b6044820152606490fd5b8791929394959697518581019063a9059cbb60e01b8252858516602482015288604482015260448152608081018181106001600160401b0382111761205257845251611fe4918a918291828b5af1611fdd613261565b9088613291565b805190868215159283612039575b5050506120245750907f5e110f8bc8a20b65dcc87f224bdf1cc039346e267118bae2739847f07321ffa8939291611f44565b856024925191635274afe760e01b8352820152fd5b6120499350820181019101612e41565b15388681611ff2565b604184634e487b7160e01b6000525260246000fd5b875162461bcd60e51b815290810184905260136024820152724e6f206665657320746f20776974686472617760681b6044820152606490fd5b83823461054f578160031936011261054f5760095490516001600160a01b039091168152602090f35b83346108d15760203660031901126108d1576120e3612867565b6120eb612c82565b60018060a01b03166001600160601b0360a01b600654161760065580f35b50503461054f57602036600319011261054f57612124612c82565b3560015580f35b503461049a57602036600319011261049a5782612146612867565b81546001600160a01b0391908216331480156121a8575b61216690612ccf565b816008541690813b156104ab5783602492865197889586946318313adf60e11b865216908401525af190811561049e575061219f575080f35b610483906128cd565b506008548216331461215d565b503461049a57600319916060368401126104ab576001600160401b039281358481116104a7576121e89036908401612b2c565b906044356001600160a01b0381811692918390036123e857806009541633036123a5579187939161223760a096946015541693885197889663350f69b160e11b885287015260a4860190612da4565b91602435602486015260448501528382030160648401528390601b549061225d82612893565b91828252600190868282169182600014612383575050600114612335575b50505082809130608483015203915afa92831561232b5784936122ae575b82516020808252819061125f90820187612aa5565b909192503d8085843e6122c18184612911565b820191602081840312612327578051918211612327570181601f820112156104ab578051936122ef85612aca565b926122fc85519485612911565b858452602086840101116108d1575061125f9361231f9160208085019101612a82565b903880612299565b8480fd5b82513d86823e3d90fd5b925090601b86526000805160206132f58339815191529286935b828510612365575050500160200182803861227b565b805460208686018101919091528c985089975090940193810161234f565b90955060209392508594915060ff191683830152151560051b0101913861227b565b855162461bcd60e51b8152602081870152601f60248201527f4f6e6c79206d65746164617461206d6f64756c652063616e2072656e646572006044820152606490fd5b8780fd5b50903461049a57602036600319011261049a57612407612867565b61240f612c82565b6001600160a01b03169182156124375750506001600160601b0360a01b600554161760055580f35b906020606492519162461bcd60e51b8352820152601760248201527f496e76616c696420666163746f727920616464726573730000000000000000006044820152fd5b50903461049a576020806003193601126104ab576001600160a01b0391826124a0612867565b16908451638da5cb5b60e01b815283818381865afa801561262a57859188916125fd575b5016330361259f57818652601083528385872054161561255c5782906024856006541695848952601084528789205416918751968793849263d42fe23160e01b84528301525afa9283156125525760109361252591879161253b5750613135565b845252812080546001600160a01b031916905580f35b6107079150843d861161070d576106ff8183612911565b84513d87823e3d90fd5b845162461bcd60e51b8152908101839052601a60248201527f4e6f2070656e64696e672072656c6561736520726571756573740000000000006044820152606490fd5b845162461bcd60e51b8152908101839052603260248201527f4f6e6c79207772617070656420736f6e67206f776e65722063616e2072656d6f6044820152711d99481c995b19585cd9481c995c5d595cdd60721b6064820152608490fd5b61261d9150853d8711612623575b6126158183612911565b810190612e22565b386124c4565b503d61260b565b86513d89823e3d90fd5b83823461054f578160031936011261054f576020906002549051908152f35b83823461054f57602036600319011261054f5761125f9161124c9082906001600160a01b03612680612867565b168152600b602052206129de565b50503461054f57602036600319011261054f576126a9612c82565b3560195580f35b83823461054f57602036600319011261054f5761125f9161124c9082906001600160a01b036126dd612867565b168152600c602052206129de565b83823461054f578160031936011261054f576020906019549051908152f35b83823461054f578160031936011261054f5760209060ff601c541690519015158152f35b83823461054f578160031936011261054f5760065490516001600160a01b039091168152602090f35b50903461049a57602036600319011261049a576020926001600160a01b039183919083612782612867565b16825285522054169051908152f35b83823461054f578160031936011261054f5760085490516001600160a01b039091168152602090f35b503461049a578060031936011261049a576127d3612867565b906127dc61287d565b926127e5612cae565b6005546001600160a01b039390841633036128195783168552602052832091166001600160601b0360a01b82541617905580f35b506020608492519162461bcd60e51b8352820152602260248201527f4f6e6c7920666163746f72792063616e2073657420746f6b656e206d617070696044820152616e6760f01b6064820152fd5b600435906001600160a01b038216820361136f57565b602435906001600160a01b038216820361136f57565b90600182811c921680156128c3575b60208310146128ad57565b634e487b7160e01b600052602260045260246000fd5b91607f16916128a2565b6001600160401b0381116128e057604052565b634e487b7160e01b600052604160045260246000fd5b606081019081106001600160401b038211176128e057604052565b90601f801991011681019081106001600160401b038211176128e057604052565b60405190600082601b549161294683612893565b808352926001908181169081156129bc575060011461296f575b5061296d92500383612911565b565b601b600090815291506000805160206132f58339815191525b8483106129a1575061296d935050810160200138612960565b81935090816020925483858a01015201910190918592612988565b90506020925061296d94915060ff191682840152151560051b82010138612960565b90604051918260008254926129f284612893565b908184526001948581169081600014612a5f5750600114612a1c575b505061296d92500383612911565b9093915060005260209081600020936000915b818310612a4757505061296d93508201013880612a0e565b85548884018501529485019487945091830191612a2f565b91505061296d94506020925060ff191682840152151560051b8201013880612a0e565b60005b838110612a955750506000910152565b8181015183820152602001612a85565b90602091612abe81518092818552858086019101612a82565b601f01601f1916010190565b6001600160401b0381116128e057601f01601f191660200190565b81601f8201121561136f57803590612afc82612aca565b92612b0a6040519485612911565b8284526020838301011161136f57816000926020809301838601378301015290565b91909160c08184031261136f57604051906001600160401b039060c08301828111848210176128e0576040528294813583811161136f5781612b6f918401612ae5565b8452602082013583811161136f5781612b89918401612ae5565b6020850152604082013583811161136f5781612ba6918401612ae5565b6040850152606082013583811161136f5781612bc3918401612ae5565b6060850152608082013583811161136f5781612be0918401612ae5565b608085015260a082013592831161136f5760a092612bfe9201612ae5565b910152565b90604060031983011261136f576004356001600160a01b038116810361136f5791602435906001600160401b03821161136f57612c4291600401612ae5565b90565b8054821015612c5d5760005260206000200190600090565b634e487b7160e01b600052603260045260246000fd5b60243590811515820361136f57565b6000546001600160a01b03163303612c9657565b60405163118cdaa760e01b8152336004820152602490fd5b60ff60005460a01c16612cbd57565b60405163d93c066560e01b8152600490fd5b15612cd657565b60405162461bcd60e51b815260206004820152600e60248201526d139bdd08185d5d1a1bdc9a5e995960921b6044820152606490fd5b15612d1357565b60405162461bcd60e51b815260206004820152601f60248201527f52656c6561736573206172652063757272656e746c792064697361626c6564006044820152606490fd5b15612d5f57565b60405162461bcd60e51b815260206004820152601860248201527f496e73756666696369656e742072656c656173652066656500000000000000006044820152606490fd5b612c429160a0612e11612dff612ded612ddb612dc9875160c0885260c0880190612aa5565b60208801518782036020890152612aa5565b60408701518682036040880152612aa5565b60608601518582036060870152612aa5565b60808501518482036080860152612aa5565b9201519060a0818403910152612aa5565b9081602091031261136f57516001600160a01b038116810361136f5790565b9081602091031261136f5751801515810361136f5790565b60408051638da5cb5b60e01b81526004936020936001600160a01b0392908316919085818881865afa9081156130d3579084916000916130b6575b5016330361305f57828116908115613011573b15612fc05784836006541691602486518094819363d42fe23160e01b83528b8301525afa908115612fb557600091612f98575b5015612f3757600052600f8352816000205416612ef657505050565b5162461bcd60e51b815291820152601d60248201527f5772617070656420736f6e6720616c72656164792072656c6561736564000000604482015260649150fd5b50505162461bcd60e51b815291820152603560248201527f496e76616c6964206469737472696275746f722077616c6c65743a206e6f74206044820152747265676973746572656420696e20666163746f727960581b606482015260849150fd5b612faf9150853d871161070d576106ff8183612911565b38612eda565b84513d6000823e3d90fd5b835162461bcd60e51b8152808701869052602560248201527f4469737472696275746f722077616c6c6574206d757374206265206120636f6e6044820152641d1c9858dd60da1b6064820152608490fd5b845162461bcd60e51b8152808801879052602260248201527f496e76616c6964206469737472696275746f722077616c6c6574206164647265604482015261737360f01b6064820152608490fd5b835162461bcd60e51b8152808701869052602b60248201527f4f6e6c79207772617070656420736f6e67206f776e65722063616e207265717560448201526a6573742072656c6561736560a81b6064820152608490fd5b6130cd9150873d8911612623576126158183612911565b38612e94565b85513d6000823e3d90fd5b6001600160a01b03908116600081815260106020526040812080546001600160a01b0319169390941692831790935533927fef84744274082261c3a861cf791747fa0ff5d32d6b7dad92e9f777118fc002899080a4565b1561313c57565b60405162461bcd60e51b815260206004820152601a60248201527f4469737472696275746f7220646f6573206e6f742065786973740000000000006044820152606490fd5b1561318857565b60405162461bcd60e51b815260206004820152601b60248201527f4e6f74207468652070656e64696e67206469737472696275746f7200000000006044820152606490fd5b156131d457565b60405162461bcd60e51b815260206004820152600f60248201526e496e76616c6964206164647265737360881b6044820152606490fd5b1561321257565b60405162461bcd60e51b815260206004820152602160248201527f4f6e6c7920666163746f72792063616e20616464207772617070656420736f6e6044820152606760f81b6064820152608490fd5b3d1561328c573d9061327282612aca565b916132806040519384612911565b82523d6000602084013e565b606090565b906132b857508051156132a657805190602001fd5b604051630a12f52160e11b8152600490fd5b815115806132eb575b6132c9575090565b604051639996b31560e01b81526001600160a01b039091166004820152602490fd5b50803b156132c156fe3ad8aa4f87544323a9d1e5dd902f40c356527a7955687113db5f9a85ad579dc1a26469706673582212206c5c5cece9a6cc2185a9c5c0f97ded58cc4e174b0d414bedb4b38866a3e007f764736f6c63430008140033",
  "linkReferences": {},
  "deployedLinkReferences": {}
}