{
  "_format": "hh-sol-artifact-1",
  "contractName": "ProtocolModule",
  "sourceName": "contracts/protocol/NonUpgradable/ProtocolModule.sol",
  "abi": [
    {
      "inputs": [
        {
          "internalType": "address",
          "name": "_distributorWalletFactory",
          "type": "address"
        },
        {
          "internalType": "address",
          "name": "_whitelistingManager",
          "type": "address"
        },
        {
          "internalType": "address",
          "name": "_erc20whitelist",
          "type": "address"
        },
        {
          "internalType": "address",
          "name": "_metadataModule",
          "type": "address"
        },
        {
          "internalType": "address",
          "name": "_legalContractMetadata",
          "type": "address"
        }
      ],
      "stateMutability": "nonpayable",
      "type": "constructor"
    },
    {
      "inputs": [
        {
          "internalType": "address",
          "name": "target",
          "type": "address"
        }
      ],
      "name": "AddressEmptyCode",
      "type": "error"
    },
    {
      "inputs": [
        {
          "internalType": "address",
          "name": "account",
          "type": "address"
        }
      ],
      "name": "AddressInsufficientBalance",
      "type": "error"
    },
    {
      "inputs": [],
      "name": "EnforcedPause",
      "type": "error"
    },
    {
      "inputs": [],
      "name": "ExpectedPause",
      "type": "error"
    },
    {
      "inputs": [],
      "name": "FailedInnerCall",
      "type": "error"
    },
    {
      "inputs": [
        {
          "internalType": "address",
          "name": "owner",
          "type": "address"
        }
      ],
      "name": "OwnableInvalidOwner",
      "type": "error"
    },
    {
      "inputs": [
        {
          "internalType": "address",
          "name": "account",
          "type": "address"
        }
      ],
      "name": "OwnableUnauthorizedAccount",
      "type": "error"
    },
    {
      "inputs": [],
      "name": "ReentrancyGuardReentrantCall",
      "type": "error"
    },
    {
      "inputs": [
        {
          "internalType": "address",
          "name": "token",
          "type": "address"
        }
      ],
      "name": "SafeERC20FailedOperation",
      "type": "error"
    },
    {
      "anonymous": false,
      "inputs": [
        {
          "indexed": true,
          "internalType": "address",
          "name": "wrappedSong",
          "type": "address"
        },
        {
          "indexed": true,
          "internalType": "address",
          "name": "distributor",
          "type": "address"
        }
      ],
      "name": "DistributorAcceptedReview",
      "type": "event"
    },
    {
      "anonymous": false,
      "inputs": [
        {
          "indexed": false,
          "internalType": "uint256",
          "name": "newFee",
          "type": "uint256"
        }
      ],
      "name": "DistributorCreationFeeUpdated",
      "type": "event"
    },
    {
      "anonymous": false,
      "inputs": [
        {
          "indexed": false,
          "internalType": "address",
          "name": "newFactory",
          "type": "address"
        }
      ],
      "name": "DistributorWalletFactoryUpdated",
      "type": "event"
    },
    {
      "anonymous": false,
      "inputs": [
        {
          "indexed": false,
          "internalType": "address",
          "name": "newWhitelist",
          "type": "address"
        }
      ],
      "name": "ERC20WhitelistUpdated",
      "type": "event"
    },
    {
      "anonymous": false,
      "inputs": [
        {
          "indexed": true,
          "internalType": "address",
          "name": "token",
          "type": "address"
        },
        {
          "indexed": true,
          "internalType": "address",
          "name": "recipient",
          "type": "address"
        },
        {
          "indexed": false,
          "internalType": "uint256",
          "name": "amount",
          "type": "uint256"
        }
      ],
      "name": "FeesWithdrawn",
      "type": "event"
    },
    {
      "anonymous": false,
      "inputs": [
        {
          "indexed": true,
          "internalType": "address",
          "name": "wrappedSong",
          "type": "address"
        },
        {
          "indexed": false,
          "internalType": "string",
          "name": "registryType",
          "type": "string"
        },
        {
          "indexed": false,
          "internalType": "string",
          "name": "value",
          "type": "string"
        }
      ],
      "name": "IdentityRegistryUpdated",
      "type": "event"
    },
    {
      "anonymous": false,
      "inputs": [
        {
          "indexed": false,
          "internalType": "address",
          "name": "newContract",
          "type": "address"
        }
      ],
      "name": "LegalContractMetadataUpdated",
      "type": "event"
    },
    {
      "anonymous": false,
      "inputs": [
        {
          "indexed": false,
          "internalType": "uint256",
          "name": "newDuration",
          "type": "uint256"
        }
      ],
      "name": "MaxSaleDurationUpdated",
      "type": "event"
    },
    {
      "anonymous": false,
      "inputs": [
        {
          "indexed": false,
          "internalType": "address",
          "name": "newModule",
          "type": "address"
        }
      ],
      "name": "MetadataModuleUpdated",
      "type": "event"
    },
    {
      "anonymous": false,
      "inputs": [
        {
          "indexed": false,
          "internalType": "address",
          "name": "newRenderer",
          "type": "address"
        }
      ],
      "name": "MetadataRendererUpdated",
      "type": "event"
    },
    {
      "anonymous": false,
      "inputs": [
        {
          "indexed": true,
          "internalType": "address",
          "name": "wrappedSong",
          "type": "address"
        },
        {
          "indexed": true,
          "internalType": "uint256",
          "name": "tokenId",
          "type": "uint256"
        },
        {
          "indexed": false,
          "internalType": "string",
          "name": "newMetadata",
          "type": "string"
        }
      ],
      "name": "MetadataUpdateRequested",
      "type": "event"
    },
    {
      "anonymous": false,
      "inputs": [
        {
          "indexed": true,
          "internalType": "address",
          "name": "wrappedSong",
          "type": "address"
        },
        {
          "indexed": true,
          "internalType": "uint256",
          "name": "tokenId",
          "type": "uint256"
        },
        {
          "indexed": false,
          "internalType": "string",
          "name": "newMetadata",
          "type": "string"
        }
      ],
      "name": "MetadataUpdated",
      "type": "event"
    },
    {
      "anonymous": false,
      "inputs": [
        {
          "indexed": true,
          "internalType": "address",
          "name": "owner",
          "type": "address"
        },
        {
          "indexed": true,
          "internalType": "address",
          "name": "wrappedSong",
          "type": "address"
        }
      ],
      "name": "OwnerWrappedSongAdded",
      "type": "event"
    },
    {
      "anonymous": false,
      "inputs": [
        {
          "indexed": true,
          "internalType": "address",
          "name": "previousOwner",
          "type": "address"
        },
        {
          "indexed": true,
          "internalType": "address",
          "name": "newOwner",
          "type": "address"
        }
      ],
      "name": "OwnershipTransferred",
      "type": "event"
    },
    {
      "anonymous": false,
      "inputs": [
        {
          "indexed": false,
          "internalType": "address",
          "name": "account",
          "type": "address"
        }
      ],
      "name": "Paused",
      "type": "event"
    },
    {
      "anonymous": false,
      "inputs": [
        {
          "indexed": false,
          "internalType": "bool",
          "name": "isPaused",
          "type": "bool"
        }
      ],
      "name": "Paused",
      "type": "event"
    },
    {
      "anonymous": false,
      "inputs": [
        {
          "indexed": false,
          "internalType": "bool",
          "name": "newPayInStablecoin",
          "type": "bool"
        }
      ],
      "name": "PayInStablecoinUpdated",
      "type": "event"
    },
    {
      "anonymous": false,
      "inputs": [
        {
          "indexed": true,
          "internalType": "address",
          "name": "wrappedSong",
          "type": "address"
        },
        {
          "indexed": true,
          "internalType": "address",
          "name": "token",
          "type": "address"
        },
        {
          "indexed": false,
          "internalType": "uint256",
          "name": "amount",
          "type": "uint256"
        }
      ],
      "name": "ReleaseFeeCollected",
      "type": "event"
    },
    {
      "anonymous": false,
      "inputs": [
        {
          "indexed": false,
          "internalType": "uint256",
          "name": "newFee",
          "type": "uint256"
        }
      ],
      "name": "ReleaseFeeUpdated",
      "type": "event"
    },
    {
      "anonymous": false,
      "inputs": [
        {
          "indexed": false,
          "internalType": "bool",
          "name": "enabled",
          "type": "bool"
        }
      ],
      "name": "ReleasesEnabledChanged",
      "type": "event"
    },
    {
      "anonymous": false,
      "inputs": [
        {
          "indexed": false,
          "internalType": "uint256",
          "name": "newDays",
          "type": "uint256"
        }
      ],
      "name": "ReviewPeriodDaysUpdated",
      "type": "event"
    },
    {
      "anonymous": false,
      "inputs": [
        {
          "indexed": true,
          "internalType": "address",
          "name": "wrappedSong",
          "type": "address"
        },
        {
          "indexed": true,
          "internalType": "address",
          "name": "distributor",
          "type": "address"
        }
      ],
      "name": "ReviewPeriodExpired",
      "type": "event"
    },
    {
      "anonymous": false,
      "inputs": [
        {
          "indexed": true,
          "internalType": "address",
          "name": "smartAccount",
          "type": "address"
        },
        {
          "indexed": true,
          "internalType": "address",
          "name": "wsToken",
          "type": "address"
        }
      ],
      "name": "SmartAccountToWSTokenMapped",
      "type": "event"
    },
    {
      "anonymous": false,
      "inputs": [
        {
          "indexed": false,
          "internalType": "uint256",
          "name": "newCreationFee",
          "type": "uint256"
        },
        {
          "indexed": false,
          "internalType": "uint256",
          "name": "newReleaseFee",
          "type": "uint256"
        }
      ],
      "name": "StableFeesUpdated",
      "type": "event"
    },
    {
      "anonymous": false,
      "inputs": [
        {
          "indexed": false,
          "internalType": "uint256",
          "name": "newFee",
          "type": "uint256"
        }
      ],
      "name": "StartSaleFeeUpdated",
      "type": "event"
    },
    {
      "anonymous": false,
      "inputs": [
        {
          "indexed": false,
          "internalType": "address",
          "name": "account",
          "type": "address"
        }
      ],
      "name": "Unpaused",
      "type": "event"
    },
    {
      "anonymous": false,
      "inputs": [
        {
          "indexed": false,
          "internalType": "uint256",
          "name": "newFee",
          "type": "uint256"
        }
      ],
      "name": "UpdateMetadataFeeUpdated",
      "type": "event"
    },
    {
      "anonymous": false,
      "inputs": [
        {
          "indexed": false,
          "internalType": "address",
          "name": "newManager",
          "type": "address"
        }
      ],
      "name": "WhitelistingManagerUpdated",
      "type": "event"
    },
    {
      "anonymous": false,
      "inputs": [
        {
          "indexed": false,
          "internalType": "uint256",
          "name": "newPercentage",
          "type": "uint256"
        }
      ],
      "name": "WithdrawalFeePercentageUpdated",
      "type": "event"
    },
    {
      "anonymous": false,
      "inputs": [
        {
          "indexed": true,
          "internalType": "address",
          "name": "wrappedSong",
          "type": "address"
        },
        {
          "indexed": false,
          "internalType": "bool",
          "name": "isAuthentic",
          "type": "bool"
        }
      ],
      "name": "WrappedSongAuthenticitySet",
      "type": "event"
    },
    {
      "anonymous": false,
      "inputs": [
        {
          "indexed": false,
          "internalType": "uint256",
          "name": "newFee",
          "type": "uint256"
        }
      ],
      "name": "WrappedSongCreationFeeUpdated",
      "type": "event"
    },
    {
      "anonymous": false,
      "inputs": [
        {
          "indexed": true,
          "internalType": "address",
          "name": "wrappedSong",
          "type": "address"
        },
        {
          "indexed": true,
          "internalType": "address",
          "name": "distributor",
          "type": "address"
        }
      ],
      "name": "WrappedSongReleaseRejected",
      "type": "event"
    },
    {
      "anonymous": false,
      "inputs": [
        {
          "indexed": true,
          "internalType": "address",
          "name": "wrappedSong",
          "type": "address"
        },
        {
          "indexed": true,
          "internalType": "address",
          "name": "distributor",
          "type": "address"
        },
        {
          "indexed": true,
          "internalType": "address",
          "name": "creator",
          "type": "address"
        }
      ],
      "name": "WrappedSongReleaseRequested",
      "type": "event"
    },
    {
      "anonymous": false,
      "inputs": [
        {
          "indexed": true,
          "internalType": "address",
          "name": "wrappedSong",
          "type": "address"
        },
        {
          "indexed": true,
          "internalType": "address",
          "name": "distributor",
          "type": "address"
        }
      ],
      "name": "WrappedSongReleased",
      "type": "event"
    },
    {
      "inputs": [],
      "name": "MAX_WITHDRAWAL_FEE",
      "outputs": [
        {
          "internalType": "uint256",
          "name": "",
          "type": "uint256"
        }
      ],
      "stateMutability": "view",
      "type": "function"
    },
    {
      "inputs": [
        {
          "internalType": "address",
          "name": "wrappedSong",
          "type": "address"
        }
      ],
      "name": "acceptWrappedSongForReview",
      "outputs": [],
      "stateMutability": "nonpayable",
      "type": "function"
    },
    {
      "inputs": [
        {
          "internalType": "address",
          "name": "",
          "type": "address"
        }
      ],
      "name": "accumulatedFees",
      "outputs": [
        {
          "internalType": "uint256",
          "name": "",
          "type": "uint256"
        }
      ],
      "stateMutability": "view",
      "type": "function"
    },
    {
      "inputs": [
        {
          "internalType": "address",
          "name": "wrappedSong",
          "type": "address"
        },
        {
          "internalType": "string",
          "name": "iscc",
          "type": "string"
        }
      ],
      "name": "addISCC",
      "outputs": [],
      "stateMutability": "nonpayable",
      "type": "function"
    },
    {
      "inputs": [
        {
          "internalType": "address",
          "name": "wrappedSong",
          "type": "address"
        },
        {
          "internalType": "string",
          "name": "isrc",
          "type": "string"
        }
      ],
      "name": "addISRC",
      "outputs": [],
      "stateMutability": "nonpayable",
      "type": "function"
    },
    {
      "inputs": [
        {
          "internalType": "address",
          "name": "wrappedSong",
          "type": "address"
        },
        {
          "internalType": "string",
          "name": "iswc",
          "type": "string"
        }
      ],
      "name": "addISWC",
      "outputs": [],
      "stateMutability": "nonpayable",
      "type": "function"
    },
    {
      "inputs": [
        {
          "internalType": "address",
          "name": "wrappedSong",
          "type": "address"
        },
        {
          "internalType": "string",
          "name": "upc",
          "type": "string"
        }
      ],
      "name": "addUPC",
      "outputs": [],
      "stateMutability": "nonpayable",
      "type": "function"
    },
    {
      "inputs": [
        {
          "internalType": "address",
          "name": "",
          "type": "address"
        }
      ],
      "name": "authorizedContracts",
      "outputs": [
        {
          "internalType": "bool",
          "name": "",
          "type": "bool"
        }
      ],
      "stateMutability": "view",
      "type": "function"
    },
    {
      "inputs": [],
      "name": "baseURI",
      "outputs": [
        {
          "internalType": "string",
          "name": "",
          "type": "string"
        }
      ],
      "stateMutability": "view",
      "type": "function"
    },
    {
      "inputs": [
        {
          "internalType": "address",
          "name": "wrappedSong",
          "type": "address"
        }
      ],
      "name": "confirmWrappedSongRelease",
      "outputs": [],
      "stateMutability": "nonpayable",
      "type": "function"
    },
    {
      "inputs": [],
      "name": "currentStablecoinIndex",
      "outputs": [
        {
          "internalType": "uint256",
          "name": "",
          "type": "uint256"
        }
      ],
      "stateMutability": "view",
      "type": "function"
    },
    {
      "inputs": [],
      "name": "distributorCreationFee",
      "outputs": [
        {
          "internalType": "uint256",
          "name": "",
          "type": "uint256"
        }
      ],
      "stateMutability": "view",
      "type": "function"
    },
    {
      "inputs": [],
      "name": "distributorWalletFactory",
      "outputs": [
        {
          "internalType": "contract IDistributorWalletFactory",
          "name": "",
          "type": "address"
        }
      ],
      "stateMutability": "view",
      "type": "function"
    },
    {
      "inputs": [],
      "name": "erc20whitelist",
      "outputs": [
        {
          "internalType": "contract IERC20Whitelist",
          "name": "",
          "type": "address"
        }
      ],
      "stateMutability": "view",
      "type": "function"
    },
    {
      "inputs": [],
      "name": "getBaseURI",
      "outputs": [
        {
          "internalType": "string",
          "name": "",
          "type": "string"
        }
      ],
      "stateMutability": "view",
      "type": "function"
    },
    {
      "inputs": [],
      "name": "getLegalContractMetadata",
      "outputs": [
        {
          "internalType": "address",
          "name": "",
          "type": "address"
        }
      ],
      "stateMutability": "view",
      "type": "function"
    },
    {
      "inputs": [],
      "name": "getMetadataModule",
      "outputs": [
        {
          "internalType": "address",
          "name": "",
          "type": "address"
        }
      ],
      "stateMutability": "view",
      "type": "function"
    },
    {
      "inputs": [
        {
          "internalType": "address",
          "name": "owner",
          "type": "address"
        }
      ],
      "name": "getOwnerWrappedSongs",
      "outputs": [
        {
          "internalType": "address[]",
          "name": "",
          "type": "address[]"
        }
      ],
      "stateMutability": "view",
      "type": "function"
    },
    {
      "inputs": [
        {
          "internalType": "address",
          "name": "wrappedSong",
          "type": "address"
        }
      ],
      "name": "getPendingDistributorRequests",
      "outputs": [
        {
          "internalType": "address",
          "name": "",
          "type": "address"
        }
      ],
      "stateMutability": "view",
      "type": "function"
    },
    {
      "inputs": [],
      "name": "getStartSaleFee",
      "outputs": [
        {
          "internalType": "uint256",
          "name": "",
          "type": "uint256"
        }
      ],
      "stateMutability": "view",
      "type": "function"
    },
    {
      "inputs": [],
      "name": "getWithdrawalFeePercentage",
      "outputs": [
        {
          "internalType": "uint256",
          "name": "",
          "type": "uint256"
        }
      ],
      "stateMutability": "view",
      "type": "function"
    },
    {
      "inputs": [
        {
          "internalType": "address",
          "name": "wrappedSong",
          "type": "address"
        }
      ],
      "name": "getWrappedSongDistributor",
      "outputs": [
        {
          "internalType": "address",
          "name": "",
          "type": "address"
        }
      ],
      "stateMutability": "view",
      "type": "function"
    },
    {
      "inputs": [
        {
          "internalType": "address",
          "name": "wrappedSong",
          "type": "address"
        }
      ],
      "name": "handleExpiredReviewPeriod",
      "outputs": [],
      "stateMutability": "nonpayable",
      "type": "function"
    },
    {
      "inputs": [
        {
          "internalType": "address",
          "name": "wrappedSong",
          "type": "address"
        }
      ],
      "name": "isAuthentic",
      "outputs": [
        {
          "internalType": "bool",
          "name": "",
          "type": "bool"
        }
      ],
      "stateMutability": "view",
      "type": "function"
    },
    {
      "inputs": [
        {
          "internalType": "address",
          "name": "_contractAddress",
          "type": "address"
        }
      ],
      "name": "isAuthorizedContract",
      "outputs": [
        {
          "internalType": "bool",
          "name": "",
          "type": "bool"
        }
      ],
      "stateMutability": "view",
      "type": "function"
    },
    {
      "inputs": [
        {
          "internalType": "address",
          "name": "wrappedSong",
          "type": "address"
        }
      ],
      "name": "isReleased",
      "outputs": [
        {
          "internalType": "bool",
          "name": "",
          "type": "bool"
        }
      ],
      "stateMutability": "view",
      "type": "function"
    },
    {
      "inputs": [
        {
          "internalType": "address",
          "name": "token",
          "type": "address"
        }
      ],
      "name": "isTokenWhitelisted",
      "outputs": [
        {
          "internalType": "bool",
          "name": "",
          "type": "bool"
        }
      ],
      "stateMutability": "view",
      "type": "function"
    },
    {
      "inputs": [
        {
          "internalType": "address",
          "name": "creator",
          "type": "address"
        }
      ],
      "name": "isValidToCreateWrappedSong",
      "outputs": [
        {
          "internalType": "bool",
          "name": "",
          "type": "bool"
        }
      ],
      "stateMutability": "view",
      "type": "function"
    },
    {
      "inputs": [
        {
          "internalType": "address",
          "name": "wsTokenManagement",
          "type": "address"
        }
      ],
      "name": "isWSTokenFromProtocol",
      "outputs": [
        {
          "internalType": "bool",
          "name": "",
          "type": "bool"
        }
      ],
      "stateMutability": "view",
      "type": "function"
    },
    {
      "inputs": [
        {
          "internalType": "address",
          "name": "",
          "type": "address"
        }
      ],
      "name": "isccRegistry",
      "outputs": [
        {
          "internalType": "string",
          "name": "",
          "type": "string"
        }
      ],
      "stateMutability": "view",
      "type": "function"
    },
    {
      "inputs": [
        {
          "internalType": "address",
          "name": "",
          "type": "address"
        }
      ],
      "name": "isrcRegistry",
      "outputs": [
        {
          "internalType": "string",
          "name": "",
          "type": "string"
        }
      ],
      "stateMutability": "view",
      "type": "function"
    },
    {
      "inputs": [
        {
          "internalType": "address",
          "name": "",
          "type": "address"
        }
      ],
      "name": "iswcRegistry",
      "outputs": [
        {
          "internalType": "string",
          "name": "",
          "type": "string"
        }
      ],
      "stateMutability": "view",
      "type": "function"
    },
    {
      "inputs": [],
      "name": "legalContractMetadata",
      "outputs": [
        {
          "internalType": "contract ILegalContractMetadata",
          "name": "",
          "type": "address"
        }
      ],
      "stateMutability": "view",
      "type": "function"
    },
    {
      "inputs": [],
      "name": "maxSaleDuration",
      "outputs": [
        {
          "internalType": "uint256",
          "name": "",
          "type": "uint256"
        }
      ],
      "stateMutability": "view",
      "type": "function"
    },
    {
      "inputs": [],
      "name": "metadataModule",
      "outputs": [
        {
          "internalType": "contract IMetadataModule",
          "name": "",
          "type": "address"
        }
      ],
      "stateMutability": "view",
      "type": "function"
    },
    {
      "inputs": [],
      "name": "metadataRenderer",
      "outputs": [
        {
          "internalType": "contract IMetadataRenderer",
          "name": "",
          "type": "address"
        }
      ],
      "stateMutability": "view",
      "type": "function"
    },
    {
      "inputs": [],
      "name": "owner",
      "outputs": [
        {
          "internalType": "address",
          "name": "",
          "type": "address"
        }
      ],
      "stateMutability": "view",
      "type": "function"
    },
    {
      "inputs": [
        {
          "internalType": "address",
          "name": "",
          "type": "address"
        },
        {
          "internalType": "uint256",
          "name": "",
          "type": "uint256"
        }
      ],
      "name": "ownerWrappedSongs",
      "outputs": [
        {
          "internalType": "address",
          "name": "",
          "type": "address"
        }
      ],
      "stateMutability": "view",
      "type": "function"
    },
    {
      "inputs": [],
      "name": "pause",
      "outputs": [],
      "stateMutability": "nonpayable",
      "type": "function"
    },
    {
      "inputs": [],
      "name": "paused",
      "outputs": [
        {
          "internalType": "bool",
          "name": "",
          "type": "bool"
        }
      ],
      "stateMutability": "view",
      "type": "function"
    },
    {
      "inputs": [],
      "name": "payInStablecoin",
      "outputs": [
        {
          "internalType": "bool",
          "name": "",
          "type": "bool"
        }
      ],
      "stateMutability": "view",
      "type": "function"
    },
    {
      "inputs": [
        {
          "internalType": "address",
          "name": "",
          "type": "address"
        }
      ],
      "name": "pendingDistributorRequests",
      "outputs": [
        {
          "internalType": "address",
          "name": "",
          "type": "address"
        }
      ],
      "stateMutability": "view",
      "type": "function"
    },
    {
      "inputs": [
        {
          "internalType": "address",
          "name": "wrappedSong",
          "type": "address"
        }
      ],
      "name": "rejectWrappedSongRelease",
      "outputs": [],
      "stateMutability": "nonpayable",
      "type": "function"
    },
    {
      "inputs": [],
      "name": "releaseFee",
      "outputs": [
        {
          "internalType": "uint256",
          "name": "",
          "type": "uint256"
        }
      ],
      "stateMutability": "view",
      "type": "function"
    },
    {
      "inputs": [],
      "name": "releasesEnabled",
      "outputs": [
        {
          "internalType": "bool",
          "name": "",
          "type": "bool"
        }
      ],
      "stateMutability": "view",
      "type": "function"
    },
    {
      "inputs": [
        {
          "internalType": "address",
          "name": "token",
          "type": "address"
        }
      ],
      "name": "removeTokenFromWhitelist",
      "outputs": [],
      "stateMutability": "nonpayable",
      "type": "function"
    },
    {
      "inputs": [
        {
          "internalType": "address",
          "name": "wrappedSong",
          "type": "address"
        }
      ],
      "name": "removeWrappedSongReleaseRequest",
      "outputs": [],
      "stateMutability": "nonpayable",
      "type": "function"
    },
    {
      "inputs": [
        {
          "components": [
            {
              "internalType": "string",
              "name": "name",
              "type": "string"
            },
            {
              "internalType": "string",
              "name": "description",
              "type": "string"
            },
            {
              "internalType": "string",
              "name": "image",
              "type": "string"
            },
            {
              "internalType": "string",
              "name": "externalUrl",
              "type": "string"
            },
            {
              "internalType": "string",
              "name": "animationUrl",
              "type": "string"
            },
            {
              "internalType": "string",
              "name": "attributesIpfsHash",
              "type": "string"
            }
          ],
          "internalType": "struct IMetadataModule.Metadata",
          "name": "metadata",
          "type": "tuple"
        },
        {
          "internalType": "uint256",
          "name": "tokenId",
          "type": "uint256"
        },
        {
          "internalType": "address",
          "name": "wrappedSong",
          "type": "address"
        }
      ],
      "name": "renderTokenURI",
      "outputs": [
        {
          "internalType": "string",
          "name": "",
          "type": "string"
        }
      ],
      "stateMutability": "view",
      "type": "function"
    },
    {
      "inputs": [],
      "name": "renounceOwnership",
      "outputs": [],
      "stateMutability": "nonpayable",
      "type": "function"
    },
    {
      "inputs": [
        {
          "internalType": "address",
          "name": "wrappedSong",
          "type": "address"
        },
        {
          "internalType": "address",
          "name": "distributor",
          "type": "address"
        }
      ],
      "name": "requestWrappedSongRelease",
      "outputs": [],
      "stateMutability": "payable",
      "type": "function"
    },
    {
      "inputs": [
        {
          "internalType": "address",
          "name": "wrappedSong",
          "type": "address"
        },
        {
          "internalType": "address",
          "name": "distributor",
          "type": "address"
        },
        {
          "components": [
            {
              "internalType": "string",
              "name": "name",
              "type": "string"
            },
            {
              "internalType": "string",
              "name": "description",
              "type": "string"
            },
            {
              "internalType": "string",
              "name": "image",
              "type": "string"
            },
            {
              "internalType": "string",
              "name": "externalUrl",
              "type": "string"
            },
            {
              "internalType": "string",
              "name": "animationUrl",
              "type": "string"
            },
            {
              "internalType": "string",
              "name": "attributesIpfsHash",
              "type": "string"
            }
          ],
          "internalType": "struct IMetadataModule.Metadata",
          "name": "newMetadata",
          "type": "tuple"
        }
      ],
      "name": "requestWrappedSongReleaseWithMetadata",
      "outputs": [],
      "stateMutability": "payable",
      "type": "function"
    },
    {
      "inputs": [],
      "name": "reviewPeriodDays",
      "outputs": [
        {
          "internalType": "uint256",
          "name": "",
          "type": "uint256"
        }
      ],
      "stateMutability": "view",
      "type": "function"
    },
    {
      "inputs": [
        {
          "internalType": "address",
          "name": "",
          "type": "address"
        }
      ],
      "name": "reviewPeriods",
      "outputs": [
        {
          "internalType": "uint256",
          "name": "startTime",
          "type": "uint256"
        },
        {
          "internalType": "uint256",
          "name": "endTime",
          "type": "uint256"
        },
        {
          "internalType": "address",
          "name": "distributor",
          "type": "address"
        }
      ],
      "stateMutability": "view",
      "type": "function"
    },
    {
      "inputs": [
        {
          "internalType": "address",
          "name": "_contractAddress",
          "type": "address"
        },
        {
          "internalType": "bool",
          "name": "_isAuthorized",
          "type": "bool"
        }
      ],
      "name": "setAuthorizedContract",
      "outputs": [],
      "stateMutability": "nonpayable",
      "type": "function"
    },
    {
      "inputs": [
        {
          "internalType": "string",
          "name": "_baseURI",
          "type": "string"
        }
      ],
      "name": "setBaseURI",
      "outputs": [],
      "stateMutability": "nonpayable",
      "type": "function"
    },
    {
      "inputs": [
        {
          "internalType": "uint256",
          "name": "_index",
          "type": "uint256"
        }
      ],
      "name": "setCurrentStablecoinIndex",
      "outputs": [],
      "stateMutability": "nonpayable",
      "type": "function"
    },
    {
      "inputs": [
        {
          "internalType": "uint256",
          "name": "_fee",
          "type": "uint256"
        }
      ],
      "name": "setDistributorCreationFee",
      "outputs": [],
      "stateMutability": "nonpayable",
      "type": "function"
    },
    {
      "inputs": [
        {
          "internalType": "address",
          "name": "_newFactory",
          "type": "address"
        }
      ],
      "name": "setDistributorWalletFactory",
      "outputs": [],
      "stateMutability": "nonpayable",
      "type": "function"
    },
    {
      "inputs": [
        {
          "internalType": "address",
          "name": "_erc20whitelist",
          "type": "address"
        }
      ],
      "name": "setERC20Whitelist",
      "outputs": [],
      "stateMutability": "nonpayable",
      "type": "function"
    },
    {
      "inputs": [
        {
          "internalType": "address",
          "name": "_legalContractMetadata",
          "type": "address"
        }
      ],
      "name": "setLegalContractMetadata",
      "outputs": [],
      "stateMutability": "nonpayable",
      "type": "function"
    },
    {
      "inputs": [
        {
          "internalType": "uint256",
          "name": "_duration",
          "type": "uint256"
        }
      ],
      "name": "setMaxSaleDuration",
      "outputs": [],
      "stateMutability": "nonpayable",
      "type": "function"
    },
    {
      "inputs": [
        {
          "internalType": "address",
          "name": "_metadataModule",
          "type": "address"
        }
      ],
      "name": "setMetadataModule",
      "outputs": [],
      "stateMutability": "nonpayable",
      "type": "function"
    },
    {
      "inputs": [
        {
          "internalType": "address",
          "name": "_renderer",
          "type": "address"
        }
      ],
      "name": "setMetadataRenderer",
      "outputs": [],
      "stateMutability": "nonpayable",
      "type": "function"
    },
    {
      "inputs": [
        {
          "internalType": "address",
          "name": "owner",
          "type": "address"
        },
        {
          "internalType": "address",
          "name": "wrappedSong",
          "type": "address"
        }
      ],
      "name": "setOwnerWrappedSong",
      "outputs": [],
      "stateMutability": "nonpayable",
      "type": "function"
    },
    {
      "inputs": [
        {
          "internalType": "bool",
          "name": "_payInStablecoin",
          "type": "bool"
        }
      ],
      "name": "setPayInStablecoin",
      "outputs": [],
      "stateMutability": "nonpayable",
      "type": "function"
    },
    {
      "inputs": [
        {
          "internalType": "bool",
          "name": "_enabled",
          "type": "bool"
        }
      ],
      "name": "setPaymentInStablecoin",
      "outputs": [],
      "stateMutability": "nonpayable",
      "type": "function"
    },
    {
      "inputs": [
        {
          "internalType": "uint256",
          "name": "_fee",
          "type": "uint256"
        }
      ],
      "name": "setReleaseFee",
      "outputs": [],
      "stateMutability": "nonpayable",
      "type": "function"
    },
    {
      "inputs": [
        {
          "internalType": "bool",
          "name": "_enabled",
          "type": "bool"
        }
      ],
      "name": "setReleasesEnabled",
      "outputs": [],
      "stateMutability": "nonpayable",
      "type": "function"
    },
    {
      "inputs": [
        {
          "internalType": "uint256",
          "name": "_days",
          "type": "uint256"
        }
      ],
      "name": "setReviewPeriodDays",
      "outputs": [],
      "stateMutability": "nonpayable",
      "type": "function"
    },
    {
      "inputs": [
        {
          "internalType": "address",
          "name": "smartAccount",
          "type": "address"
        },
        {
          "internalType": "address",
          "name": "wsToken",
          "type": "address"
        }
      ],
      "name": "setSmartAccountToWSToken",
      "outputs": [],
      "stateMutability": "nonpayable",
      "type": "function"
    },
    {
      "inputs": [
        {
          "internalType": "uint256",
          "name": "newFee",
          "type": "uint256"
        }
      ],
      "name": "setStartSaleFee",
      "outputs": [],
      "stateMutability": "nonpayable",
      "type": "function"
    },
    {
      "inputs": [
        {
          "internalType": "uint256",
          "name": "_fee",
          "type": "uint256"
        }
      ],
      "name": "setUpdateMetadataFee",
      "outputs": [],
      "stateMutability": "nonpayable",
      "type": "function"
    },
    {
      "inputs": [
        {
          "internalType": "address",
          "name": "wsTokenManagement",
          "type": "address"
        }
      ],
      "name": "setWSTokenFromProtocol",
      "outputs": [],
      "stateMutability": "nonpayable",
      "type": "function"
    },
    {
      "inputs": [
        {
          "internalType": "address",
          "name": "_whitelistingManager",
          "type": "address"
        }
      ],
      "name": "setWhitelistingManager",
      "outputs": [],
      "stateMutability": "nonpayable",
      "type": "function"
    },
    {
      "inputs": [
        {
          "internalType": "uint256",
          "name": "_feePercentage",
          "type": "uint256"
        }
      ],
      "name": "setWithdrawalFeePercentage",
      "outputs": [],
      "stateMutability": "nonpayable",
      "type": "function"
    },
    {
      "inputs": [
        {
          "internalType": "address",
          "name": "wrappedSong",
          "type": "address"
        },
        {
          "internalType": "bool",
          "name": "_isAuthentic",
          "type": "bool"
        }
      ],
      "name": "setWrappedSongAuthenticity",
      "outputs": [],
      "stateMutability": "nonpayable",
      "type": "function"
    },
    {
      "inputs": [
        {
          "internalType": "uint256",
          "name": "_fee",
          "type": "uint256"
        }
      ],
      "name": "setWrappedSongCreationFee",
      "outputs": [],
      "stateMutability": "nonpayable",
      "type": "function"
    },
    {
      "inputs": [
        {
          "internalType": "address",
          "name": "_wrappedSongFactory",
          "type": "address"
        }
      ],
      "name": "setWrappedSongFactory",
      "outputs": [],
      "stateMutability": "nonpayable",
      "type": "function"
    },
    {
      "inputs": [
        {
          "internalType": "address",
          "name": "",
          "type": "address"
        }
      ],
      "name": "smartAccountToWSToken",
      "outputs": [
        {
          "internalType": "address",
          "name": "",
          "type": "address"
        }
      ],
      "stateMutability": "view",
      "type": "function"
    },
    {
      "inputs": [
        {
          "internalType": "address",
          "name": "newOwner",
          "type": "address"
        }
      ],
      "name": "transferOwnership",
      "outputs": [],
      "stateMutability": "nonpayable",
      "type": "function"
    },
    {
      "inputs": [],
      "name": "unpause",
      "outputs": [],
      "stateMutability": "nonpayable",
      "type": "function"
    },
    {
      "inputs": [
        {
          "internalType": "address",
          "name": "",
          "type": "address"
        }
      ],
      "name": "upcRegistry",
      "outputs": [
        {
          "internalType": "string",
          "name": "",
          "type": "string"
        }
      ],
      "stateMutability": "view",
      "type": "function"
    },
    {
      "inputs": [],
      "name": "updateMetadataFee",
      "outputs": [
        {
          "internalType": "uint256",
          "name": "",
          "type": "uint256"
        }
      ],
      "stateMutability": "view",
      "type": "function"
    },
    {
      "inputs": [
        {
          "internalType": "address",
          "name": "token",
          "type": "address"
        }
      ],
      "name": "whitelistToken",
      "outputs": [],
      "stateMutability": "nonpayable",
      "type": "function"
    },
    {
      "inputs": [],
      "name": "whitelistingManager",
      "outputs": [
        {
          "internalType": "contract IWhitelistingManager",
          "name": "",
          "type": "address"
        }
      ],
      "stateMutability": "view",
      "type": "function"
    },
    {
      "inputs": [
        {
          "internalType": "address",
          "name": "token",
          "type": "address"
        },
        {
          "internalType": "address",
          "name": "recipient",
          "type": "address"
        }
      ],
      "name": "withdrawAccumulatedFees",
      "outputs": [],
      "stateMutability": "nonpayable",
      "type": "function"
    },
    {
      "inputs": [],
      "name": "withdrawalFeePercentage",
      "outputs": [
        {
          "internalType": "uint256",
          "name": "",
          "type": "uint256"
        }
      ],
      "stateMutability": "view",
      "type": "function"
    },
    {
      "inputs": [
        {
          "internalType": "address",
          "name": "",
          "type": "address"
        }
      ],
      "name": "wrappedSongAuthenticity",
      "outputs": [
        {
          "internalType": "bool",
          "name": "",
          "type": "bool"
        }
      ],
      "stateMutability": "view",
      "type": "function"
    },
    {
      "inputs": [],
      "name": "wrappedSongCreationFee",
      "outputs": [
        {
          "internalType": "uint256",
          "name": "",
          "type": "uint256"
        }
      ],
      "stateMutability": "view",
      "type": "function"
    },
    {
      "inputs": [],
      "name": "wrappedSongFactory",
      "outputs": [
        {
          "internalType": "contract IWrappedSongFactory",
          "name": "",
          "type": "address"
        }
      ],
      "stateMutability": "view",
      "type": "function"
    },
    {
      "inputs": [],
      "name": "wrappedSongFactoryAddress",
      "outputs": [
        {
          "internalType": "address",
          "name": "",
          "type": "address"
        }
      ],
      "stateMutability": "view",
      "type": "function"
    },
    {
      "inputs": [
        {
          "internalType": "address",
          "name": "",
          "type": "address"
        }
      ],
      "name": "wrappedSongToDistributor",
      "outputs": [
        {
          "internalType": "address",
          "name": "",
          "type": "address"
        }
      ],
      "stateMutability": "view",
      "type": "function"
    },
    {
      "stateMutability": "payable",
      "type": "receive"
    }
  ],
  "bytecode": "0x6080346200016157601f62003d9338819003918201601f19168301916001600160401b03831184841017620001665780849260a09460405283398101031262000161576200004d816200017c565b6200005b602083016200017c565b62000069604084016200017c565b906200008660806200007e606087016200017c565b95016200017c565b9033156200014857600054946040519560018060a01b03948580948193338382167f8be0079c531659141344cd1fd0a4f28419497f9722a3daafe3b4186f6b6457e0600080a360ff60a01b1933169060018060a81b03191617600055600180556007601e5562278d00601f55600160ff1960215416176021558160018060a01b0319991689600b541617600b551687600c541617600c551685600d541617600d551683600e541617600e551690600f541617600f55613c019081620001928239f35b604051631e4fbdf760e01b815260006004820152602490fd5b600080fd5b634e487b7160e01b600052604160045260246000fd5b51906001600160a01b0382168203620001615756fe60406080815260048036101561001f575b5050361561001d57600080fd5b005b600091823560e01c806208ac8314612d0257806306fd88ed1461120c578063088b95541461254757806309da4e5114612cd95780630b1b745e14612c9e5780630bb7503114612c7f5780630c5d8da114612c5657806316eddecb14612c32578063175b818c14612c0e5780631a3b00e214612bef5780631c8370cb146116ce5780631e944d5414612bb45780631f47106914612b9257806321dd882b14612b575780632490a90114612b385780632b03295f1461297e5780632cd6c9a6146122625780632fb92c5a146128f05780632fda23b7146126be578063306275be146126345780633224d848146125e6578063358d96ab146125705780633684d10014612547578063376c1f071461238457806337c38c481461234757806337d7d5421461229d5780633aa690e7146122625780633f4ba83a146121f4578063438c9d95146121d557806349054274146121b6578063496d51af14611fd95780634b08ec5014611e345780634bb43e5c14611df95780634da6840a14611da05780634fa71b0614611bc3578063533761fe14611b2c57806355f804b3146119ce5780635c975abb146119a95780635fb0ea9014611948578381636247f6f2146118b35750806366d0ead314610d095780636b09d20214610e985780636c0360eb1461182e5780636cf563a414611875578063703199701461184c578063714c53981461182e578063715018a6146117d45780637159aa6214611786578063723ff2a21461176757806377191a6e14610c7457806377f040041461171957806378922c8f14610e7957806379988efd146116f757806381b539b8146116ce5780638437de381461166d5780638456cb591461160e5780638bfa25da146115c05780638da5cb5b14611598578063942bd4a3146115635780639860da00146115115780639f58bfaa146114b0578063a4144de6146112c0578063a4198fa21461124a578063a44935751461120c578063a951583b14611196578063ac581b3a1461116d578063b0c70e271461108e578063b5af090f1461102f578063be94e31914610f3d578063c4bec00614610f1f578063c67ca8e714610ed3578063c7be5e2a14610e98578063c8f5f4e814610e79578063ccad87f014610d90578063cd36bc9a14610d47578063d5b9221b14610d09578063d9ce7b9514610cbc578063d9fa987914610c9d578063dbd15d5314610c74578063dfef968114610a8d578063e482936914610a17578063e72cfcb8146109c4578063eb6ed330146109a7578063ec691a5914610931578063f140b55f146108a8578063f2fa739214610856578063f2fde38b146107ca578063f5260369146106c5578063fcf6666414610689578063fd4fe8a8146105d5578063ff4884f81461050d5763ffc5a46f146104215750610010565b60603660031901126104f85782610436612dda565b9261043f612df5565b926044356001600160401b0381116105095761045e90369084016130a0565b9161046d60ff6021541661328f565b610477858761378e565b610480866133cb565b600e546001600160a01b0391908216803b1561050557859283896104c5875198899687958694635dc447ed60e01b8652169084015288602484015260448301906132db565b03925af19081156104fc57506104e4575b50506104e191613a08565b80f35b6104ed90612e45565b6104f85782386104d6565b8280fd5b513d84823e3d90fd5b8580fd5b8380fd5b50346104f857806003193601126104f857610526612dda565b9161052f612df5565b90610538613231565b600a546001600160a01b039485916105539083163314613b35565b169283865260086020528520805491680100000000000000008310156105c257508161058591600187940181556131b9565b949092169382549060031b9185831b921b19161790557f4cda7c30666ce0c5304ba2d323cdee5f647baac385d8e0cb2f706641c95043af8380a380f35b634e487b7160e01b875260419052602486fd5b50346104f85760203660031901126104f8576105ef612dda565b6105f7613205565b6001600160a01b03169182156106475750601a80546001600160a01b03191683179055519081527f60a886c8dc324af9c6d6a1bf7369ffe7557ef345eb5717bceffb59beac879a0a90602090a180f35b6020606492519162461bcd60e51b8352820152601860248201527f496e76616c69642072656e6465726572206164647265737300000000000000006044820152fd5b8382346106c15760203660031901126106c15760209181906001600160a01b036106b1612dda565b168152601d845220549051908152f35b5080fd5b50346104f857602080600319360112610509576001600160a01b039281846106eb612dda565b1694858752601582526107048186892054163314613aab565b600b541691602485518094819363d42fe23160e01b835233908301525afa9081156107c057600292610743600095936018938991610793575b50613a5f565b8587526015815282872080546001600160a01b031916905552842082815560018101839055015533907fc507cac5427f24391d3862582c450f4840191f3fb50ae93ea8eb3e5d0a27241a8380a380f35b6107b39150833d85116107b9575b6107ab8183612e89565b8101906136a1565b3861073d565b503d6107a1565b83513d87823e3d90fd5b5090346104f85760203660031901126104f8576107e5612dda565b906107ee613205565b6001600160a01b03918216928315610840575050600054826001600160601b0360a01b821617600055167f8be0079c531659141344cd1fd0a4f28419497f9722a3daafe3b4186f6b6457e0600080a380f35b51631e4fbdf760e01b8152908101849052602490fd5b8382346106c157806003193601126106c1576104e190610874612dda565b9061087d6131f6565b91610886613205565b60018060a01b03168452601760205283209060ff801983541691151516179055565b50346104f85760203660031901126104f85760206108c4612dda565b600c54835163f140b55f60e01b81526001600160a01b039283169581019590955284916024918391165afa9182156109275760209392610908575b50519015158152f35b610920919250833d81116107b9576107ab8183612e89565b90386108ff565b81513d85823e3d90fd5b8382346106c15760203660031901126106c15760207fa01edaa3cd8a419b7bb45b34f35e84da238af9490eca1b318cb579f3179e29e491610970612dda565b610978613205565b6001600160a01b03169061098d821515613af7565b600f80546001600160a01b0319168317905551908152a180f35b8382346106c157816003193601126106c157602090516103e88152f35b8382346106c15760203660031901126106c1576060916001600160a01b0391908190836109ef612dda565b1681526018602052209081549260026001840154930154169181519384526020840152820152f35b8382346106c15760203660031901126106c15760207fcede453a12a109bc98cf30c47be25a27dcd045508461cc9e9669a0185b648b8991610a56612dda565b610a5e613205565b6001600160a01b031690610a73821515613af7565b600d80546001600160a01b0319168317905551908152a180f35b509190346106c157610a9e36613177565b610aa9949194613231565b60018060a01b03809516928385526020956014875283862054163303610c315783855260118652828520908251906001600160401b0382116105c25750610af08254612e0b565b601f8111610bee575b5086601f8211600114610b74578697610b6393836003979694608094600080516020613bac8339815191529a9b91610b69575b508160011b91600019908a1b1c19161790555b84519585879687528601526255504360e81b60608601528401526080830190613019565b0390a280f35b905085015138610b2c565b82875287872090601f198316885b818110610bd7575093600184608094600080516020613bac8339815191529a9b9c9460039a9997610b639910610bbf575b5050811b019055610b3f565b870151600019838c1b60f8161c191690553880610bb3565b91928a60018192868a015181550194019201610b82565b828752878720601f830160051c810191898410610c27575b601f0160051c01905b818110610c1c5750610af9565b878155600101610c0f565b9091508190610c06565b825162461bcd60e51b8152908101869052601c60248201527f4f6e6c79206469737472696275746f722063616e2073657420555043000000006044820152606490fd5b8382346106c157816003193601126106c157600f5490516001600160a01b039091168152602090f35b8382346106c157816003193601126106c157602090601b549051908152f35b8382346106c15760203660031901126106c157610cd7612dda565b600a546001600160a01b039190610cf19083163314613b35565b16825260196020528120805460ff1916600117905580f35b8382346106c15760203660031901126106c15760209160ff9082906001600160a01b03610d34612dda565b1681526017855220541690519015158152f35b8382600319360112610d8d576104e1610d5e612dda565b610d66612df5565b90610d7560ff6021541661328f565b610d7f828261378e565b610d88816133cb565b613a08565b80fd5b5090346104f85760203660031901126104f8576001600160a01b039081610db5612dda565b1692838552601860205280852091815192610dcf84612e6e565b80548452828560026001840154938460208901520154169401938452421115610e37575060026000918587526018602052862082815582600182015501555116907ffbea9ba5ee98f3c8b5c04ea0c944ead3100801a041d88f0c7e90d404ddac1c6a8380a380f35b6020606492519162461bcd60e51b8352820152601d60248201527f52657669657720706572696f6420686173206e6f7420657870697265640000006044820152fd5b8382346106c157816003193601126106c157602090601c549051908152f35b8382346106c15760203660031901126106c1576020916001600160a01b0390829082610ec2612dda565b168152601585522054169051908152f35b50346104f85760203660031901126104f857816020917f27ee93bf85897822eaa83c84de291bb575ef9d2bea9a01ddfc8326190940700493358092610f16613205565b5551908152a180f35b5090346104f857826003193601126104f85760209250549051908152f35b5090346104f857816003193601126104f857610f57612dda565b91610f606131f6565b91610f69613231565b6001600160a01b039384168086526014602052828620549094163303610fd857507fb54df1287f3d7012d0c033203342de84104f09a34d968f171bff51825d6cf5449160209184865260168352610fce828288209060ff801983541691151516179055565b519015158152a280f35b6020608492519162461bcd60e51b8352820152602c60248201527f4f6e6c79206469737472696275746f722063616e207365742061757468656e7460448201526b69636974792073746174757360a01b6064820152fd5b50346104f85760203660031901126104f857602061104b612dda565b600d54835163b5af090f60e01b81526001600160a01b039283169581019590955284916024918391165afa91821561092757602093926109085750519015158152f35b50346104f857602080600319360112610509576001600160a01b039281846110b4612dda565b1694858752601582526110cd8186892054163314613aab565b600b541691602485518094819363d42fe23160e01b835233908301525afa9081156107c05760029261110b6000959360189389916107935750613a5f565b858752601481528287206001600160601b0360a01b90338282541617905560158252838820908154169055528420828155826001820155015533907f1ec2d15be1d4041a85003ee3860453fb0818606e3ccda6f18c41e692a25d5eea8380a380f35b8382346106c157816003193601126106c157600c5490516001600160a01b039091168152602090f35b8382346106c15760203660031901126106c15760207f39a2470dcb92def89f4d008f638ab6d63ac78547bf3d6ccfebf542711a0503c7916111d5612dda565b6111dd613205565b6001600160a01b0316906111f2821515613af7565b600c80546001600160a01b0319168317905551908152a180f35b8382346106c15760203660031901126106c15760209160ff9082906001600160a01b03611237612dda565b1681526016855220541690519015158152f35b8382346106c15760203660031901126106c15760207f12e10e0acd0f94fc9b2d033a01586c1255f1d396a6a2ce1c02cc9fca0577445891611289612dda565b611291613205565b6001600160a01b0316906112a6821515613af7565b600e80546001600160a01b0319168317905551908152a180f35b5090346104f8576112d036613177565b6112db939193613231565b6001600160a01b0393841680865260146020908152838720549195909116330361146e578486526012815282862082516001600160401b03811161145b576113238254612e0b565b601f8111611418575b5082601f82116001146113a05792600080516020613bac8339815191529695949282608093610b63968c91611395575b508160011b916000199060031b1c19161790555b8451958587968752860152634953574360e01b60608601528401526080830190613019565b90508501513861135c565b82895283892090601f1983168a5b818110611401575083610b639693600080516020613bac8339815191529a99989693608096600194106113e8575b5050811b019055611370565b87015160001960f88460031b161c1916905538806113dc565b91928660018192868b0151815501940192016113ae565b828952838920601f830160051c810191858410611451575b601f0160051c01905b818110611446575061132c565b898155600101611439565b9091508190611430565b634e487b7160e01b885260418652602488fd5b8360649184519162461bcd60e51b8352820152601d60248201527f4f6e6c79206469737472696275746f722063616e2073657420495357430000006044820152fd5b8382346106c15760203660031901126106c15760207fc42d410f496ad2dfdbe03a4e5c1c714a8091596f6191b9b64a90d67d5f008990916114ef6131e7565b6114f7613205565b15159060ff196006541660ff83161760065551908152a180f35b8382346106c15760203660031901126106c15761155f9161154c9082906001600160a01b0361153e612dda565b168152601360205220612f53565b9051918291602083526020830190613019565b0390f35b8334610d8d576020366003190112610d8d5761157d6131e7565b611585613205565b60ff801960065416911515161760065580f35b8382346106c157816003193601126106c157905490516001600160a01b039091168152602090f35b5090346104f85760203660031901126104f8577fd4d82b8c259d09036a9ed2baf6867c5e54dccab39d04fd233b20827303df5f12916020913590611602613205565b8160035551908152a180f35b8382346106c157816003193601126106c15760207f62e78cea01bee320cd4e420270b5ea74000d11b0c9f74754ebdbfc544b05a2589161164c613205565b611654613231565b835460ff60a01b1916600160a01b17845551338152a180f35b8382346106c15760203660031901126106c15760207fb5bb594c95eb864915724f4025ebea72bd6b2c96ee4243baceea4d04365efb68916116ac6131e7565b6116b4613205565b15159060ff196021541660ff83161760215551908152a180f35b8382346106c157816003193601126106c157600a5490516001600160a01b039091168152602090f35b5050346106c15760203660031901126106c157611712613205565b3560075580f35b5090346104f85760203660031901126104f8577f295f11816c8a8a66cf041fb88e0e1fa756cb9017dffa76c760980a5d52a26cf291602091359061175b613205565b8160055551908152a180f35b8382346106c157816003193601126106c157602090601f549051908152f35b5090346104f85760203660031901126104f8577f1848f86a1772cf74c666a7db07dd66df4942583c365ea0f63bf434245a56f3559160209135906117c8613205565b81601b5551908152a180f35b8334610d8d5780600319360112610d8d576117ed613205565b600080546001600160a01b0319811682556001600160a01b03167f8be0079c531659141344cd1fd0a4f28419497f9722a3daafe3b4186f6b6457e08280a380f35b8382346106c157816003193601126106c15761155f9061154c612eaa565b8382346106c157816003193601126106c157601a5490516001600160a01b039091168152602090f35b8382346106c15760203660031901126106c15760209160ff9082906001600160a01b036118a0612dda565b1681526019855220541690519015158152f35b80848434611944576020366003190112611944576118cf612dda565b83546001600160a01b0390811633148015611937575b6118ee90613252565b80600d5416803b156105055785928360249286519788958694633123fb7960e11b865216908401525af19081156104fc57506119275750f35b61193090612e45565b610d8d5780f35b50600d54811633146118e5565b5050fd5b5090346104f85760203660031901126104f857803591611966613205565b6103e88311611977575050601c5580f35b906020606492519162461bcd60e51b8352820152600c60248201526b08ccaca40e8dede40d0d2ced60a31b6044820152fd5b8382346106c157816003193601126106c15760ff6020925460a01c1690519015158152f35b828434610d8d576020806003193601126106c1576001600160401b03833581811161050957611a009036908601613059565b93611a09613205565b8451918211611b195750611a1d8254612e0b565b601f8111611aca575b5081601f8211600114611a6057839482939492611a55575b50508160011b916000199060031b1c191617905580f35b015190508480611a3e565b828452600080516020613b8c83398151915290601f198316855b818110611ab357509583600195969710611a9a575b505050811b01905580f35b015160001960f88460031b161c19169055848080611a8f565b91928560018192868b015181550194019201611a7a565b828452600080516020613b8c833981519152601f830160051c810191848410611b0f575b601f0160051c01905b818110611b045750611a26565b848155600101611af7565b9091508190611aee565b634e487b7160e01b845260419052602483fd5b50346104f85760203660031901126104f857813591611b49613205565b8215611b815750816020917f7be9264fd4bacf6ffdd1cbfbe4fb3751923b2540828adf64102e4f5b096a7fe593601f5551908152a180f35b6020606492519162461bcd60e51b8352820152601f60248201527f4475726174696f6e206d7573742062652067726561746572207468616e2030006044820152fd5b5090346104f857611bd336613177565b611bde939193613231565b6001600160a01b03938416808652601460209081528387205491959091163303611d5e578486526013815282862082516001600160401b03811161145b57611c268254612e0b565b601f8111611d1b575b5082601f8211600114611ca35792600080516020613bac8339815191529695949282608093610b63968c91611c98575b508160011b916000199060031b1c19161790555b8451958587968752860152634953434360e01b60608601528401526080830190613019565b905085015138611c5f565b82895283892090601f1983168a5b818110611d04575083610b639693600080516020613bac8339815191529a9998969360809660019410611ceb575b5050811b019055611c73565b87015160001960f88460031b161c191690553880611cdf565b91928660018192868b015181550194019201611cb1565b828952838920601f830160051c810191858410611d54575b601f0160051c01905b818110611d495750611c2f565b898155600101611d3c565b9091508190611d33565b8360649184519162461bcd60e51b8352820152601d60248201527f4f6e6c79206469737472696275746f722063616e2073657420495343430000006044820152fd5b8382346106c157806003193601126106c157611dba612dda565b6001600160a01b039081168352600860205281832080546024359490851015610d8d5750602093611dea916131b9565b92905490519260031b1c168152f35b8382346106c15760203660031901126106c15761155f9161154c9082906001600160a01b03611e26612dda565b168152601260205220612f53565b5090346104f85760209081600319360112610509576001600160a01b0380611e5a612dda565b1693848652601584528181872054163303611f805760248483600b541683519283809263d42fe23160e01b825233898301525afa908115611f765790611ea6918891611f5f5750613a5f565b84865260158452808620926001600160601b0360a01b93848154169055601e54906201518091828102928184041490151715611f4c575090611eea60029242613359565b815191611ef683612e6e565b428352868301918252601881840197338952898b5252882091518255516001820155019251169082541617905533907f0410af91d3fc953f1f383fde268b1cf5278d116a88123c657df6685f443359418380a380f35b634e487b7160e01b885260119052602487fd5b6107b39150863d88116107b9576107ab8183612e89565b82513d89823e3d90fd5b6084939150519162461bcd60e51b8352820152602e60248201527f4f6e6c792070656e64696e67206469737472696275746f722063616e2061636360448201526d65707420666f722072657669657760901b6064820152fd5b5090346104f857611fe936613177565b611ff4939193613231565b6001600160a01b03938416808652601460209081528387205491959091163303612174578486526010815282862082516001600160401b03811161145b5761203c8254612e0b565b601f8111612131575b5082601f82116001146120b95792600080516020613bac8339815191529695949282608093610b63968c916120ae575b508160011b916000199060031b1c19161790555b8451958587968752860152634953524360e01b60608601528401526080830190613019565b905085015138612075565b82895283892090601f1983168a5b81811061211a575083610b639693600080516020613bac8339815191529a9998969360809660019410612101575b5050811b019055612089565b87015160001960f88460031b161c1916905538806120f5565b91928660018192868b0151815501940192016120c7565b828952838920601f830160051c81019185841061216a575b601f0160051c01905b81811061215f5750612045565b898155600101612152565b9091508190612149565b8360649184519162461bcd60e51b8352820152601d60248201527f4f6e6c79206469737472696275746f722063616e2073657420495352430000006044820152fd5b8382346106c157816003193601126106c1576020906007549051908152f35b8382346106c157816003193601126106c1576020906002549051908152f35b5090346104f857826003193601126104f85761220e613205565b82549060ff8260a01c1615612254575060ff60a01b19168255513381527f5db9ee0a495bf2e6ff9c91a7834c1ba4fdd244a5e8aa4e537bd38aeae4b073aa90602090a180f35b8251638dfc202b60e01b8152fd5b8382346106c15760203660031901126106c1576020916001600160a01b039082908261228c612dda565b168152601485522054169051908152f35b8382346106c1576020806003193601126104f8576001600160a01b0392836122c3612dda565b1681526008825282812091835190818185549182815201908195855282852090855b81811061233157505050826122fb910383612e89565b8451948186019282875251809352850193925b82811061231b5785850386f35b835187168552938101939281019260010161230e565b82548a16845292840192600192830192016122e5565b8382346106c15760203660031901126106c1576020916001600160a01b0390829082612371612dda565b1681526014855220541615159051908152f35b509190346106c157826003193601126106c15761239f612dda565b6123a7612df5565b6123af613205565b60026001541461253757600260015560018060a01b0380921691828552602091601d8352868620549485156124fe57848752601d8452868881205584156000146124795786808080898787165af161240561337c565b501561244057507f5e110f8bc8a20b65dcc87f224bdf1cc039346e267118bae2739847f07321ffa8939495965b519586521693a36001805580f35b875162461bcd60e51b81529081018490526013602482015272115512081d1c985b9cd9995c8819985a5b1959606a1b6044820152606490fd5b875163a9059cbb60e01b85820152828416602482015260448082018890528152979060808901906001600160401b0382118a8310176124e957507f5e110f8bc8a20b65dcc87f224bdf1cc039346e267118bae2739847f07321ffa8959697986124e4918352876136b9565b612432565b604190634e487b7160e01b6000525260246000fd5b875162461bcd60e51b815290810184905260136024820152724e6f206665657320746f20776974686472617760681b6044820152606490fd5b8451633ee5aeb560e01b81528390fd5b8382346106c157816003193601126106c157600e5490516001600160a01b039091168152602090f35b8382346106c15760203660031901126106c15760207f820c11a553e3f58735f11b502c4c13b5bdaad97e61b6fe3bafe7eaf4e09e94de916125af612dda565b6125b7613205565b6001600160a01b0316906125cc821515613af7565b600b80546001600160a01b0319168317905551908152a180f35b5090346104f85760203660031901126104f8577fd2f394433244b5e41aa3a9cc6fae806b7ec98210c12b000cf879e113115c9329916020913590612628613205565b8160025551908152a180f35b50346104f85760203660031901126104f8578261264f612dda565b81546001600160a01b0391908216331480156126b1575b61266f90613252565b81600d541690813b156105095783602492865197889586946318313adf60e11b865216908401525af19081156104fc57506126a8575080f35b6104e190612e45565b50600d5482163314612666565b508290346106c15760031991606036840112610d8d576001600160401b039380358581116104f8576126f390369083016130a0565b6044356001600160a01b0381811696918790036128ec5780600e541633036128a9579184939161274160a09694601a541692885197889563350f69b160e11b875286015260a48501906132db565b97602435602485015260448401528288030160648301528260209788549061276882612e0b565b91828252600190868c838316928360001461288957505050600114612841575b50505082809130608483015203915afa9485156128355781956127bc575b50505061155f9051928284938452830190613019565b90919294503d8083853e6127d08185612e89565b83019284818503126104f85780519182116104f8570182601f820112156106c1578051916127fd8361303e565b9361280a87519586612e89565b838552858484010111610d8d5750829161282c91858061155f96019101612ff6565b929084806127a6565b508251903d90823e3d90fd5b8a87528a9350869290600080516020613b8c8339815191525b82851061286e57505050010182808b612788565b80548486018701528998508a97508c9590940193810161285a565b9196509392508594915060ff191683830152151560051b0101918b612788565b855162461bcd60e51b8152602081860152601f60248201527f4f6e6c79206d65746164617461206d6f64756c652063616e2072656e646572006044820152606490fd5b8480fd5b5090346104f85760203660031901126104f85761290b612dda565b612913613205565b6001600160a01b031691821561293b5750506001600160601b0360a01b600a541617600a5580f35b906020606492519162461bcd60e51b8352820152601760248201527f496e76616c696420666163746f727920616464726573730000000000000000006044820152fd5b5090346104f857602080600319360112610509576001600160a01b0391826129a4612dda565b16908451638da5cb5b60e01b815283818381865afa8015612b2e5785918891612b01575b50163303612aa3578186526015835283858720541615612a60578290602485600b541695848952601584528789205416918751968793849263d42fe23160e01b84528301525afa928315612a5657601593612a29918791612a3f5750613a5f565b845252812080546001600160a01b031916905580f35b6107b39150843d86116107b9576107ab8183612e89565b84513d87823e3d90fd5b845162461bcd60e51b8152908101839052601a60248201527f4e6f2070656e64696e672072656c6561736520726571756573740000000000006044820152606490fd5b845162461bcd60e51b8152908101839052603260248201527f4f6e6c79207772617070656420736f6e67206f776e65722063616e2072656d6f6044820152711d99481c995b19585cd9481c995c5d595cdd60721b6064820152608490fd5b612b219150853d8711612b27575b612b198183612e89565b8101906133ac565b386129c8565b503d612b0f565b86513d89823e3d90fd5b8382346106c157816003193601126106c1576020906003549051908152f35b8382346106c15760203660031901126106c15761155f9161154c9082906001600160a01b03612b84612dda565b168152601060205220612f53565b5050346106c15760203660031901126106c157612bad613205565b35601e5580f35b8382346106c15760203660031901126106c15761155f9161154c9082906001600160a01b03612be1612dda565b168152601160205220612f53565b8382346106c157816003193601126106c157602090601e549051908152f35b8382346106c157816003193601126106c15760209060ff6021541690519015158152f35b8382346106c157816003193601126106c15760209060ff6006541690519015158152f35b8382346106c157816003193601126106c157600b5490516001600160a01b039091168152602090f35b8382346106c157816003193601126106c1576020906005549051908152f35b8382346106c15760203660031901126106c1576020916001600160a01b0390829082612cc8612dda565b168152600985522054169051908152f35b8382346106c157816003193601126106c157600d5490516001600160a01b039091168152602090f35b50346104f857806003193601126104f857612d1b612dda565b91612d24612df5565b92612d2d613231565b600a546001600160a01b03929083163303612d8c575081169182855260096020528420921691826001600160601b0360a01b8254161790557f48e8ef3819015e9b1e8d36ddbbbc8cefc90dba7f69b711bdca0c9a10b63b037f8380a380f35b608490602085519162461bcd60e51b8352820152602260248201527f4f6e6c7920666163746f72792063616e2073657420746f6b656e206d617070696044820152616e6760f01b6064820152fd5b600435906001600160a01b0382168203612df057565b600080fd5b602435906001600160a01b0382168203612df057565b90600182811c92168015612e3b575b6020831014612e2557565b634e487b7160e01b600052602260045260246000fd5b91607f1691612e1a565b6001600160401b038111612e5857604052565b634e487b7160e01b600052604160045260246000fd5b606081019081106001600160401b03821117612e5857604052565b90601f801991011681019081106001600160401b03821117612e5857604052565b604051906000826020918254612ebf81612e0b565b80845290600190818116908115612f335750600114612ee9575b5050612ee792500383612e89565b565b6000858152600080516020613b8c83398151915295935091905b818310612f1b575050612ee793508201013880612ed9565b85548884018501529485019487945091830191612f03565b915050612ee794925060ff191682840152151560051b8201013880612ed9565b9060405191826000825492612f6784612e0b565b908184526001948581169081600014612fd35750600114612f90575050612ee792500383612e89565b9093915060005260209081600020936000915b818310612fbb575050612ee793508201013880612ed9565b85548884018501529485019487945091830191612fa3565b915050612ee794506020925060ff191682840152151560051b8201013880612ed9565b60005b8381106130095750506000910152565b8181015183820152602001612ff9565b9060209161303281518092818552858086019101612ff6565b601f01601f1916010190565b6001600160401b038111612e5857601f01601f191660200190565b81601f82011215612df0578035906130708261303e565b9261307e6040519485612e89565b82845260208383010111612df057816000926020809301838601378301015290565b91909160c081840312612df057604051906001600160401b039060c0830182811184821017612e585760405282948135838111612df057816130e3918401613059565b84526020820135838111612df057816130fd918401613059565b60208501526040820135838111612df0578161311a918401613059565b60408501526060820135838111612df05781613137918401613059565b60608501526080820135838111612df05781613154918401613059565b608085015260a0820135928311612df05760a0926131729201613059565b910152565b906040600319830112612df0576004356001600160a01b0381168103612df05791602435906001600160401b038211612df0576131b691600401613059565b90565b80548210156131d15760005260206000200190600090565b634e487b7160e01b600052603260045260246000fd5b600435908115158203612df057565b602435908115158203612df057565b6000546001600160a01b0316330361321957565b60405163118cdaa760e01b8152336004820152602490fd5b60ff60005460a01c1661324057565b60405163d93c066560e01b8152600490fd5b1561325957565b60405162461bcd60e51b815260206004820152600e60248201526d139bdd08185d5d1a1bdc9a5e995960921b6044820152606490fd5b1561329657565b60405162461bcd60e51b815260206004820152601f60248201527f52656c6561736573206172652063757272656e746c792064697361626c6564006044820152606490fd5b6131b69160a0613348613336613324613312613300875160c0885260c0880190613019565b60208801518782036020890152613019565b60408701518682036040880152613019565b60608601518582036060870152613019565b60808501518482036080860152613019565b9201519060a0818403910152613019565b9190820180921161336657565b634e487b7160e01b600052601160045260246000fd5b3d156133a7573d9061338d8261303e565b9161339b6040519384612e89565b82523d6000602084013e565b606090565b90816020910312612df057516001600160a01b0381168103612df05790565b60035480156136605760065460ff16156135415750600d5460075460408051637c70c0a360e01b815260048101929092526001600160a01b03939092909160209182908290602490829089165afa90811561353657908591600091613519575b50169384156134c957600354928451936323b872dd60e01b8486015233602486015230604486015260648501526064845260a084018481106001600160401b03821117612e58577f29aebcd0c90b02b955331c453efc06d743e10d2655ab14c0fa2aaec13706f214946134a0918752876136b9565b60035486600052601d84526134ba86600020918254613359565b905560035494519485521692a3565b835162461bcd60e51b815260048101839052602360248201527f4e6f2077686974656c697374656420737461626c65636f696e20617661696c61604482015262626c6560e81b6064820152608490fd5b6135309150833d8511612b2757612b198183612e89565b3861342b565b84513d6000823e3d90fd5b341061361b57600090818052601d60205260408220613561348254613359565b90556003548034116135a9575b506040513481526001600160a01b03909116907f29aebcd0c90b02b955331c453efc06d743e10d2655ab14c0fa2aaec13706f21490602090a3565b3403348111613607578280808093335af16135c261337c565b50156135ce573861356e565b60405162461bcd60e51b8152602060048201526011602482015270115512081c99599d5b990819985a5b1959607a1b6044820152606490fd5b634e487b7160e01b83526011600452602483fd5b60405162461bcd60e51b815260206004820152601860248201527f496e636f7272656374204554482066656520616d6f756e7400000000000000006044820152606490fd5b50503461366957565b60405162461bcd60e51b815260206004820152601060248201526f119959481b9bdd081c995c5d5a5c995960821b6044820152606490fd5b90816020910312612df057518015158103612df05790565b6000806136e29260018060a01b03169360208151910182865af16136db61337c565b908361372b565b8051908115159182613710575b50506136f85750565b60249060405190635274afe760e01b82526004820152fd5b61372392506020809183010191016136a1565b1538806136ef565b90613752575080511561374057805190602001fd5b604051630a12f52160e11b8152600490fd5b81511580613785575b613763575090565b604051639996b31560e01b81526001600160a01b039091166004820152602490fd5b50803b1561375b565b60408051638da5cb5b60e01b81526004936020936001600160a01b0392908316919085818881865afa9081156139fd579084916000916139e0575b501633036139895782811690811561393b573b156138ea578483600b541691602486518094819363d42fe23160e01b83528b8301525afa908115613536576000916138cd575b501561386c576000526014835281600020541661382b57505050565b5162461bcd60e51b815291820152601d60248201527f5772617070656420736f6e6720616c72656164792072656c6561736564000000604482015260649150fd5b50505162461bcd60e51b815291820152603560248201527f496e76616c6964206469737472696275746f722077616c6c65743a206e6f74206044820152747265676973746572656420696e20666163746f727960581b606482015260849150fd5b6138e49150853d87116107b9576107ab8183612e89565b3861380f565b835162461bcd60e51b8152808701869052602560248201527f4469737472696275746f722077616c6c6574206d757374206265206120636f6e6044820152641d1c9858dd60da1b6064820152608490fd5b845162461bcd60e51b8152808801879052602260248201527f496e76616c6964206469737472696275746f722077616c6c6574206164647265604482015261737360f01b6064820152608490fd5b835162461bcd60e51b8152808701869052602b60248201527f4f6e6c79207772617070656420736f6e67206f776e65722063616e207265717560448201526a6573742072656c6561736560a81b6064820152608490fd5b6139f79150873d8911612b2757612b198183612e89565b386137c9565b85513d6000823e3d90fd5b6001600160a01b03908116600081815260156020526040812080546001600160a01b0319169390941692831790935533927fef84744274082261c3a861cf791747fa0ff5d32d6b7dad92e9f777118fc002899080a4565b15613a6657565b60405162461bcd60e51b815260206004820152601a60248201527f4469737472696275746f7220646f6573206e6f742065786973740000000000006044820152606490fd5b15613ab257565b60405162461bcd60e51b815260206004820152601b60248201527f4e6f74207468652070656e64696e67206469737472696275746f7200000000006044820152606490fd5b15613afe57565b60405162461bcd60e51b815260206004820152600f60248201526e496e76616c6964206164647265737360881b6044820152606490fd5b15613b3c57565b60405162461bcd60e51b815260206004820152602160248201527f4f6e6c7920666163746f72792063616e20616464207772617070656420736f6e6044820152606760f81b6064820152608490fdfec97bfaf2f8ee708c303a06d134f5ecd8389ae0432af62dc132a24118292866bba7277ea7d4dbb8f0cc254f34cf3e4ac197629ee7789dfa02f6b28a887228909ba26469706673582212200385ce8716ca758a952593200aa576836d059c27ffb2241ff44f278ad041437f64736f6c63430008140033",
  "linkReferences": {},
  "deployedLinkReferences": {}
}