{
  "_format": "hh-sol-artifact-1",
  "contractName": "ProtocolModule",
  "sourceName": "contracts/protocol/NonUpgradable/ProtocolModule.sol",
  "abi": [
    {
      "inputs": [
        {
          "internalType": "address",
          "name": "_distributorWalletFactory",
          "type": "address"
        },
        {
          "internalType": "address",
          "name": "_whitelistingManager",
          "type": "address"
        },
        {
          "internalType": "address",
          "name": "_erc20whitelist",
          "type": "address"
        },
        {
          "internalType": "address",
          "name": "_metadataModule",
          "type": "address"
        },
        {
          "internalType": "address",
          "name": "_legalContractMetadata",
          "type": "address"
        }
      ],
      "stateMutability": "nonpayable",
      "type": "constructor"
    },
    {
      "inputs": [],
      "name": "EnforcedPause",
      "type": "error"
    },
    {
      "inputs": [],
      "name": "ExpectedPause",
      "type": "error"
    },
    {
      "inputs": [
        {
          "internalType": "address",
          "name": "owner",
          "type": "address"
        }
      ],
      "name": "OwnableInvalidOwner",
      "type": "error"
    },
    {
      "inputs": [
        {
          "internalType": "address",
          "name": "account",
          "type": "address"
        }
      ],
      "name": "OwnableUnauthorizedAccount",
      "type": "error"
    },
    {
      "inputs": [],
      "name": "ReentrancyGuardReentrantCall",
      "type": "error"
    },
    {
      "anonymous": false,
      "inputs": [
        {
          "indexed": false,
          "internalType": "uint256",
          "name": "newFee",
          "type": "uint256"
        }
      ],
      "name": "DistributorCreationFeeUpdated",
      "type": "event"
    },
    {
      "anonymous": false,
      "inputs": [
        {
          "indexed": false,
          "internalType": "address",
          "name": "newFactory",
          "type": "address"
        }
      ],
      "name": "DistributorWalletFactoryUpdated",
      "type": "event"
    },
    {
      "anonymous": false,
      "inputs": [
        {
          "indexed": false,
          "internalType": "address",
          "name": "newWhitelist",
          "type": "address"
        }
      ],
      "name": "ERC20WhitelistUpdated",
      "type": "event"
    },
    {
      "anonymous": false,
      "inputs": [
        {
          "indexed": false,
          "internalType": "string",
          "name": "newExternalUrlBase",
          "type": "string"
        }
      ],
      "name": "ExternalUrlBaseUpdated",
      "type": "event"
    },
    {
      "anonymous": false,
      "inputs": [
        {
          "indexed": true,
          "internalType": "address",
          "name": "wrappedSong",
          "type": "address"
        },
        {
          "indexed": false,
          "internalType": "string",
          "name": "registryType",
          "type": "string"
        },
        {
          "indexed": false,
          "internalType": "string",
          "name": "value",
          "type": "string"
        }
      ],
      "name": "IdentityRegistryUpdated",
      "type": "event"
    },
    {
      "anonymous": false,
      "inputs": [
        {
          "indexed": false,
          "internalType": "address",
          "name": "newContract",
          "type": "address"
        }
      ],
      "name": "LegalContractMetadataUpdated",
      "type": "event"
    },
    {
      "anonymous": false,
      "inputs": [
        {
          "indexed": false,
          "internalType": "uint256",
          "name": "newDuration",
          "type": "uint256"
        }
      ],
      "name": "MaxSaleDurationUpdated",
      "type": "event"
    },
    {
      "anonymous": false,
      "inputs": [
        {
          "indexed": false,
          "internalType": "address",
          "name": "newModule",
          "type": "address"
        }
      ],
      "name": "MetadataModuleUpdated",
      "type": "event"
    },
    {
      "anonymous": false,
      "inputs": [
        {
          "indexed": false,
          "internalType": "address",
          "name": "newRenderer",
          "type": "address"
        }
      ],
      "name": "MetadataRendererUpdated",
      "type": "event"
    },
    {
      "anonymous": false,
      "inputs": [
        {
          "indexed": true,
          "internalType": "address",
          "name": "wrappedSong",
          "type": "address"
        },
        {
          "indexed": true,
          "internalType": "uint256",
          "name": "tokenId",
          "type": "uint256"
        },
        {
          "indexed": false,
          "internalType": "string",
          "name": "newMetadata",
          "type": "string"
        }
      ],
      "name": "MetadataUpdateRequested",
      "type": "event"
    },
    {
      "anonymous": false,
      "inputs": [
        {
          "indexed": true,
          "internalType": "address",
          "name": "wrappedSong",
          "type": "address"
        },
        {
          "indexed": true,
          "internalType": "uint256",
          "name": "tokenId",
          "type": "uint256"
        },
        {
          "indexed": false,
          "internalType": "string",
          "name": "newMetadata",
          "type": "string"
        }
      ],
      "name": "MetadataUpdated",
      "type": "event"
    },
    {
      "anonymous": false,
      "inputs": [
        {
          "indexed": true,
          "internalType": "address",
          "name": "owner",
          "type": "address"
        },
        {
          "indexed": true,
          "internalType": "address",
          "name": "wrappedSong",
          "type": "address"
        }
      ],
      "name": "OwnerWrappedSongAdded",
      "type": "event"
    },
    {
      "anonymous": false,
      "inputs": [
        {
          "indexed": true,
          "internalType": "address",
          "name": "previousOwner",
          "type": "address"
        },
        {
          "indexed": true,
          "internalType": "address",
          "name": "newOwner",
          "type": "address"
        }
      ],
      "name": "OwnershipTransferred",
      "type": "event"
    },
    {
      "anonymous": false,
      "inputs": [
        {
          "indexed": false,
          "internalType": "address",
          "name": "account",
          "type": "address"
        }
      ],
      "name": "Paused",
      "type": "event"
    },
    {
      "anonymous": false,
      "inputs": [
        {
          "indexed": false,
          "internalType": "bool",
          "name": "isPaused",
          "type": "bool"
        }
      ],
      "name": "Paused",
      "type": "event"
    },
    {
      "anonymous": false,
      "inputs": [
        {
          "indexed": false,
          "internalType": "bool",
          "name": "newPayInStablecoin",
          "type": "bool"
        }
      ],
      "name": "PayInStablecoinUpdated",
      "type": "event"
    },
    {
      "anonymous": false,
      "inputs": [
        {
          "indexed": false,
          "internalType": "uint256",
          "name": "newFee",
          "type": "uint256"
        }
      ],
      "name": "ReleaseFeeUpdated",
      "type": "event"
    },
    {
      "anonymous": false,
      "inputs": [
        {
          "indexed": false,
          "internalType": "bool",
          "name": "enabled",
          "type": "bool"
        }
      ],
      "name": "ReleasesEnabledChanged",
      "type": "event"
    },
    {
      "anonymous": false,
      "inputs": [
        {
          "indexed": false,
          "internalType": "uint256",
          "name": "newDays",
          "type": "uint256"
        }
      ],
      "name": "ReviewPeriodDaysUpdated",
      "type": "event"
    },
    {
      "anonymous": false,
      "inputs": [
        {
          "indexed": true,
          "internalType": "address",
          "name": "smartAccount",
          "type": "address"
        },
        {
          "indexed": true,
          "internalType": "address",
          "name": "wsToken",
          "type": "address"
        }
      ],
      "name": "SmartAccountToWSTokenMapped",
      "type": "event"
    },
    {
      "anonymous": false,
      "inputs": [
        {
          "indexed": false,
          "internalType": "uint256",
          "name": "newCreationFee",
          "type": "uint256"
        },
        {
          "indexed": false,
          "internalType": "uint256",
          "name": "newReleaseFee",
          "type": "uint256"
        }
      ],
      "name": "StableFeesUpdated",
      "type": "event"
    },
    {
      "anonymous": false,
      "inputs": [
        {
          "indexed": false,
          "internalType": "address",
          "name": "account",
          "type": "address"
        }
      ],
      "name": "Unpaused",
      "type": "event"
    },
    {
      "anonymous": false,
      "inputs": [
        {
          "indexed": false,
          "internalType": "uint256",
          "name": "newFee",
          "type": "uint256"
        }
      ],
      "name": "UpdateMetadataFeeUpdated",
      "type": "event"
    },
    {
      "anonymous": false,
      "inputs": [
        {
          "indexed": false,
          "internalType": "address",
          "name": "newManager",
          "type": "address"
        }
      ],
      "name": "WhitelistingManagerUpdated",
      "type": "event"
    },
    {
      "anonymous": false,
      "inputs": [
        {
          "indexed": false,
          "internalType": "uint256",
          "name": "newPercentage",
          "type": "uint256"
        }
      ],
      "name": "WithdrawalFeePercentageUpdated",
      "type": "event"
    },
    {
      "anonymous": false,
      "inputs": [
        {
          "indexed": true,
          "internalType": "address",
          "name": "wrappedSong",
          "type": "address"
        },
        {
          "indexed": false,
          "internalType": "bool",
          "name": "isAuthentic",
          "type": "bool"
        }
      ],
      "name": "WrappedSongAuthenticitySet",
      "type": "event"
    },
    {
      "anonymous": false,
      "inputs": [
        {
          "indexed": false,
          "internalType": "uint256",
          "name": "newFee",
          "type": "uint256"
        }
      ],
      "name": "WrappedSongCreationFeeUpdated",
      "type": "event"
    },
    {
      "inputs": [
        {
          "internalType": "address",
          "name": "",
          "type": "address"
        }
      ],
      "name": "authorizedContracts",
      "outputs": [
        {
          "internalType": "bool",
          "name": "",
          "type": "bool"
        }
      ],
      "stateMutability": "view",
      "type": "function"
    },
    {
      "inputs": [],
      "name": "baseURI",
      "outputs": [
        {
          "internalType": "string",
          "name": "",
          "type": "string"
        }
      ],
      "stateMutability": "view",
      "type": "function"
    },
    {
      "inputs": [],
      "name": "distributorWalletFactory",
      "outputs": [
        {
          "internalType": "contract IDistributorWalletFactory",
          "name": "",
          "type": "address"
        }
      ],
      "stateMutability": "view",
      "type": "function"
    },
    {
      "inputs": [],
      "name": "erc20whitelist",
      "outputs": [
        {
          "internalType": "contract IERC20Whitelist",
          "name": "",
          "type": "address"
        }
      ],
      "stateMutability": "view",
      "type": "function"
    },
    {
      "inputs": [],
      "name": "externalUrlBase",
      "outputs": [
        {
          "internalType": "string",
          "name": "",
          "type": "string"
        }
      ],
      "stateMutability": "view",
      "type": "function"
    },
    {
      "inputs": [],
      "name": "getBaseURI",
      "outputs": [
        {
          "internalType": "string",
          "name": "",
          "type": "string"
        }
      ],
      "stateMutability": "view",
      "type": "function"
    },
    {
      "inputs": [],
      "name": "getExternalUrlBase",
      "outputs": [
        {
          "internalType": "string",
          "name": "",
          "type": "string"
        }
      ],
      "stateMutability": "view",
      "type": "function"
    },
    {
      "inputs": [],
      "name": "getLegalContractMetadata",
      "outputs": [
        {
          "internalType": "address",
          "name": "",
          "type": "address"
        }
      ],
      "stateMutability": "view",
      "type": "function"
    },
    {
      "inputs": [],
      "name": "getMetadataModule",
      "outputs": [
        {
          "internalType": "address",
          "name": "",
          "type": "address"
        }
      ],
      "stateMutability": "view",
      "type": "function"
    },
    {
      "inputs": [
        {
          "internalType": "address",
          "name": "owner",
          "type": "address"
        }
      ],
      "name": "getOwnerWrappedSongs",
      "outputs": [
        {
          "internalType": "address[]",
          "name": "",
          "type": "address[]"
        }
      ],
      "stateMutability": "view",
      "type": "function"
    },
    {
      "inputs": [],
      "name": "getRegistryModule",
      "outputs": [
        {
          "internalType": "address",
          "name": "",
          "type": "address"
        }
      ],
      "stateMutability": "view",
      "type": "function"
    },
    {
      "inputs": [],
      "name": "getStablecoinFeeReceiver",
      "outputs": [
        {
          "internalType": "address",
          "name": "",
          "type": "address"
        }
      ],
      "stateMutability": "view",
      "type": "function"
    },
    {
      "inputs": [
        {
          "internalType": "address",
          "name": "_contractAddress",
          "type": "address"
        }
      ],
      "name": "isAuthorizedContract",
      "outputs": [
        {
          "internalType": "bool",
          "name": "",
          "type": "bool"
        }
      ],
      "stateMutability": "view",
      "type": "function"
    },
    {
      "inputs": [
        {
          "internalType": "address",
          "name": "token",
          "type": "address"
        }
      ],
      "name": "isTokenWhitelisted",
      "outputs": [
        {
          "internalType": "bool",
          "name": "",
          "type": "bool"
        }
      ],
      "stateMutability": "view",
      "type": "function"
    },
    {
      "inputs": [
        {
          "internalType": "address",
          "name": "creator",
          "type": "address"
        }
      ],
      "name": "isValidToCreateWrappedSong",
      "outputs": [
        {
          "internalType": "bool",
          "name": "",
          "type": "bool"
        }
      ],
      "stateMutability": "view",
      "type": "function"
    },
    {
      "inputs": [
        {
          "internalType": "address",
          "name": "wsTokenManagement",
          "type": "address"
        }
      ],
      "name": "isWSTokenFromProtocol",
      "outputs": [
        {
          "internalType": "bool",
          "name": "",
          "type": "bool"
        }
      ],
      "stateMutability": "view",
      "type": "function"
    },
    {
      "inputs": [],
      "name": "legalContractMetadata",
      "outputs": [
        {
          "internalType": "contract ILegalContractMetadata",
          "name": "",
          "type": "address"
        }
      ],
      "stateMutability": "view",
      "type": "function"
    },
    {
      "inputs": [],
      "name": "maxSaleDuration",
      "outputs": [
        {
          "internalType": "uint256",
          "name": "",
          "type": "uint256"
        }
      ],
      "stateMutability": "view",
      "type": "function"
    },
    {
      "inputs": [],
      "name": "metadataModule",
      "outputs": [
        {
          "internalType": "contract IMetadataModule",
          "name": "",
          "type": "address"
        }
      ],
      "stateMutability": "view",
      "type": "function"
    },
    {
      "inputs": [],
      "name": "metadataRenderer",
      "outputs": [
        {
          "internalType": "contract IMetadataRenderer",
          "name": "",
          "type": "address"
        }
      ],
      "stateMutability": "view",
      "type": "function"
    },
    {
      "inputs": [],
      "name": "owner",
      "outputs": [
        {
          "internalType": "address",
          "name": "",
          "type": "address"
        }
      ],
      "stateMutability": "view",
      "type": "function"
    },
    {
      "inputs": [
        {
          "internalType": "address",
          "name": "",
          "type": "address"
        },
        {
          "internalType": "uint256",
          "name": "",
          "type": "uint256"
        }
      ],
      "name": "ownerWrappedSongs",
      "outputs": [
        {
          "internalType": "address",
          "name": "",
          "type": "address"
        }
      ],
      "stateMutability": "view",
      "type": "function"
    },
    {
      "inputs": [],
      "name": "pause",
      "outputs": [],
      "stateMutability": "nonpayable",
      "type": "function"
    },
    {
      "inputs": [],
      "name": "paused",
      "outputs": [
        {
          "internalType": "bool",
          "name": "",
          "type": "bool"
        }
      ],
      "stateMutability": "view",
      "type": "function"
    },
    {
      "inputs": [],
      "name": "registryModule",
      "outputs": [
        {
          "internalType": "contract IRegistryModule",
          "name": "",
          "type": "address"
        }
      ],
      "stateMutability": "view",
      "type": "function"
    },
    {
      "inputs": [
        {
          "internalType": "address",
          "name": "token",
          "type": "address"
        }
      ],
      "name": "removeTokenFromWhitelist",
      "outputs": [],
      "stateMutability": "nonpayable",
      "type": "function"
    },
    {
      "inputs": [
        {
          "components": [
            {
              "internalType": "string",
              "name": "name",
              "type": "string"
            },
            {
              "internalType": "string",
              "name": "description",
              "type": "string"
            },
            {
              "internalType": "string",
              "name": "image",
              "type": "string"
            },
            {
              "internalType": "string",
              "name": "animationUrl",
              "type": "string"
            },
            {
              "internalType": "string",
              "name": "attributesIpfsHash",
              "type": "string"
            }
          ],
          "internalType": "struct IMetadataModule.Metadata",
          "name": "metadata",
          "type": "tuple"
        },
        {
          "internalType": "address",
          "name": "wrappedSong",
          "type": "address"
        }
      ],
      "name": "renderContractURI",
      "outputs": [
        {
          "internalType": "string",
          "name": "",
          "type": "string"
        }
      ],
      "stateMutability": "view",
      "type": "function"
    },
    {
      "inputs": [
        {
          "components": [
            {
              "internalType": "string",
              "name": "name",
              "type": "string"
            },
            {
              "internalType": "string",
              "name": "description",
              "type": "string"
            },
            {
              "internalType": "string",
              "name": "image",
              "type": "string"
            },
            {
              "internalType": "string",
              "name": "animationUrl",
              "type": "string"
            },
            {
              "internalType": "string",
              "name": "attributesIpfsHash",
              "type": "string"
            }
          ],
          "internalType": "struct IMetadataModule.Metadata",
          "name": "metadata",
          "type": "tuple"
        },
        {
          "internalType": "uint256",
          "name": "tokenId",
          "type": "uint256"
        },
        {
          "internalType": "address",
          "name": "wrappedSong",
          "type": "address"
        }
      ],
      "name": "renderTokenURI",
      "outputs": [
        {
          "internalType": "string",
          "name": "",
          "type": "string"
        }
      ],
      "stateMutability": "view",
      "type": "function"
    },
    {
      "inputs": [],
      "name": "renounceOwnership",
      "outputs": [],
      "stateMutability": "nonpayable",
      "type": "function"
    },
    {
      "inputs": [
        {
          "internalType": "address",
          "name": "_contractAddress",
          "type": "address"
        },
        {
          "internalType": "bool",
          "name": "_isAuthorized",
          "type": "bool"
        }
      ],
      "name": "setAuthorizedContract",
      "outputs": [],
      "stateMutability": "nonpayable",
      "type": "function"
    },
    {
      "inputs": [
        {
          "internalType": "string",
          "name": "_baseURI",
          "type": "string"
        }
      ],
      "name": "setBaseURI",
      "outputs": [],
      "stateMutability": "nonpayable",
      "type": "function"
    },
    {
      "inputs": [
        {
          "internalType": "address",
          "name": "_newFactory",
          "type": "address"
        }
      ],
      "name": "setDistributorWalletFactory",
      "outputs": [],
      "stateMutability": "nonpayable",
      "type": "function"
    },
    {
      "inputs": [
        {
          "internalType": "address",
          "name": "_erc20whitelist",
          "type": "address"
        }
      ],
      "name": "setERC20Whitelist",
      "outputs": [],
      "stateMutability": "nonpayable",
      "type": "function"
    },
    {
      "inputs": [
        {
          "internalType": "string",
          "name": "_externalUrlBase",
          "type": "string"
        }
      ],
      "name": "setExternalUrlBase",
      "outputs": [],
      "stateMutability": "nonpayable",
      "type": "function"
    },
    {
      "inputs": [
        {
          "internalType": "address",
          "name": "_legalContractMetadata",
          "type": "address"
        }
      ],
      "name": "setLegalContractMetadata",
      "outputs": [],
      "stateMutability": "nonpayable",
      "type": "function"
    },
    {
      "inputs": [
        {
          "internalType": "uint256",
          "name": "_duration",
          "type": "uint256"
        }
      ],
      "name": "setMaxSaleDuration",
      "outputs": [],
      "stateMutability": "nonpayable",
      "type": "function"
    },
    {
      "inputs": [
        {
          "internalType": "address",
          "name": "_metadataModule",
          "type": "address"
        }
      ],
      "name": "setMetadataModule",
      "outputs": [],
      "stateMutability": "nonpayable",
      "type": "function"
    },
    {
      "inputs": [
        {
          "internalType": "address",
          "name": "_renderer",
          "type": "address"
        }
      ],
      "name": "setMetadataRenderer",
      "outputs": [],
      "stateMutability": "nonpayable",
      "type": "function"
    },
    {
      "inputs": [
        {
          "internalType": "address",
          "name": "owner",
          "type": "address"
        },
        {
          "internalType": "address",
          "name": "wrappedSong",
          "type": "address"
        }
      ],
      "name": "setOwnerWrappedSong",
      "outputs": [],
      "stateMutability": "nonpayable",
      "type": "function"
    },
    {
      "inputs": [
        {
          "internalType": "address",
          "name": "_registryModule",
          "type": "address"
        }
      ],
      "name": "setRegistryModule",
      "outputs": [],
      "stateMutability": "nonpayable",
      "type": "function"
    },
    {
      "inputs": [
        {
          "internalType": "address",
          "name": "smartAccount",
          "type": "address"
        },
        {
          "internalType": "address",
          "name": "wsToken",
          "type": "address"
        }
      ],
      "name": "setSmartAccountToWSToken",
      "outputs": [],
      "stateMutability": "nonpayable",
      "type": "function"
    },
    {
      "inputs": [
        {
          "internalType": "address",
          "name": "_stablecoinFeeReceiver",
          "type": "address"
        }
      ],
      "name": "setStablecoinFeeReceiver",
      "outputs": [],
      "stateMutability": "nonpayable",
      "type": "function"
    },
    {
      "inputs": [
        {
          "internalType": "address",
          "name": "wsTokenManagement",
          "type": "address"
        }
      ],
      "name": "setWSTokenFromProtocol",
      "outputs": [],
      "stateMutability": "nonpayable",
      "type": "function"
    },
    {
      "inputs": [
        {
          "internalType": "address",
          "name": "_whitelistingManager",
          "type": "address"
        }
      ],
      "name": "setWhitelistingManager",
      "outputs": [],
      "stateMutability": "nonpayable",
      "type": "function"
    },
    {
      "inputs": [
        {
          "internalType": "address",
          "name": "_wrappedSongFactory",
          "type": "address"
        }
      ],
      "name": "setWrappedSongFactory",
      "outputs": [],
      "stateMutability": "nonpayable",
      "type": "function"
    },
    {
      "inputs": [
        {
          "internalType": "address",
          "name": "",
          "type": "address"
        }
      ],
      "name": "smartAccountToWSToken",
      "outputs": [
        {
          "internalType": "address",
          "name": "",
          "type": "address"
        }
      ],
      "stateMutability": "view",
      "type": "function"
    },
    {
      "inputs": [],
      "name": "stablecoinFeeReceiver",
      "outputs": [
        {
          "internalType": "address",
          "name": "",
          "type": "address"
        }
      ],
      "stateMutability": "view",
      "type": "function"
    },
    {
      "inputs": [
        {
          "internalType": "address",
          "name": "newOwner",
          "type": "address"
        }
      ],
      "name": "transferOwnership",
      "outputs": [],
      "stateMutability": "nonpayable",
      "type": "function"
    },
    {
      "inputs": [],
      "name": "unpause",
      "outputs": [],
      "stateMutability": "nonpayable",
      "type": "function"
    },
    {
      "inputs": [
        {
          "internalType": "address",
          "name": "token",
          "type": "address"
        }
      ],
      "name": "whitelistToken",
      "outputs": [],
      "stateMutability": "nonpayable",
      "type": "function"
    },
    {
      "inputs": [],
      "name": "whitelistingManager",
      "outputs": [
        {
          "internalType": "contract IWhitelistingManager",
          "name": "",
          "type": "address"
        }
      ],
      "stateMutability": "view",
      "type": "function"
    },
    {
      "inputs": [],
      "name": "wrappedSongFactory",
      "outputs": [
        {
          "internalType": "contract IWrappedSongFactory",
          "name": "",
          "type": "address"
        }
      ],
      "stateMutability": "view",
      "type": "function"
    },
    {
      "inputs": [],
      "name": "wrappedSongFactoryAddress",
      "outputs": [
        {
          "internalType": "address",
          "name": "",
          "type": "address"
        }
      ],
      "stateMutability": "view",
      "type": "function"
    },
    {
      "stateMutability": "payable",
      "type": "receive"
    }
  ],
  "bytecode": "0x6080346200014f57601f62001e6538819003918201601f19168301916001600160401b03831184841017620001545780849260a0946040528339810103126200014f576200004d816200016a565b6200005b602083016200016a565b62000069604084016200016a565b906200008660806200007e606087016200016a565b95016200016a565b9033156200013657600054946040519560018060a01b03948580948193338382167f8be0079c531659141344cd1fd0a4f28419497f9722a3daafe3b4186f6b6457e0600080a360ff60a01b1933169060018060a81b031916176000556001805562278d006010558160018060a01b031999168960065416176006551687600754161760075516856008541617600855168360095416176009551690600a541617600a55611ce59081620001808239f35b604051631e4fbdf760e01b815260006004820152602490fd5b600080fd5b634e487b7160e01b600052604160045260246000fd5b51906001600160a01b03821682036200014f5756fe60406080815260048036101561001f575b5050361561001d57600080fd5b005b600091823560e01c806208ac8314611660578063088b9554146112d157806309da4e51146116375780630b1b745e146115fc5780630c5d8da1146115d35780631c8370cb14610aa15780632e5cc1a71461148b5780632fb92c5a146113fd578063306275be14611370578063358d96ab146112fa5780633684d100146112d157806337d7d542146112275780633cd7bc95146107955780633f4ba83a146111b957806346d5397c14610bd25780634da6840a14611160578063533761fe146110c957806355f804b314610f3d57806356a2399614610d4f5780635c975abb14610d2a5780635fd6102014610c9c578381636247f6f214610bfa5750806362f0bdde14610bd257806366d0ead3146107575780636c0360eb14610b465780636cf563a414610b945780637031997014610b6b578063714c539814610b46578063715018a614610ae9578063723ff2a214610aca57806377191a6e146106e157806381b539b814610aa15780638456cb5914610a425780638da5cb5b14610a1a578063a4198fa2146109a4578063a65144fd146103f3578063a951583b1461092e578063ac581b3a14610905578063b5af090f146108a6578063be4f03cb146107be578063ce1a52d214610795578063d5b9221b14610757578063d9ce7b951461070a578063dbd15d53146106e1578063e48293691461066b578063ec691a59146105f5578063eefeb7bc146105b4578063f140b55f1461051b578063f2fa7392146104c5578063f2fde38b14610439578063fd3f73ff146103f3578063fd4fe8a81461033f5763ff4884f8146102745750610010565b3461033b578060031936011261033b5761028c611738565b91610295611753565b9061029e611ada565b6005546001600160a01b039485916102b99083163314611b76565b169283865260026020528520805491680100000000000000008310156103285750816102eb916001879401815561191b565b949092169382549060031b9185831b921b19161790557f4cda7c30666ce0c5304ba2d323cdee5f647baac385d8e0cb2f706641c95043af8380a380f35b634e487b7160e01b875260419052602486fd5b8280fd5b503461033b57602036600319011261033b57610359611738565b610361611aae565b6001600160a01b03169182156103b15750600e80546001600160a01b03191683179055519081527f60a886c8dc324af9c6d6a1bf7369ffe7557ef345eb5717bceffb59beac879a0a90602090a180f35b6020606492519162461bcd60e51b8352820152601860248201527f496e76616c69642072656e6465726572206164647265737300000000000000006044820152fd5b83823461043557816003193601126104355780516104319161041f8261041881611a27565b0383611793565b519182916020835260208301906118f6565b0390f35b5080fd5b50903461033b57602036600319011261033b57610454611738565b9061045d611aae565b6001600160a01b039182169283156104af575050600054826001600160601b0360a01b821617600055167f8be0079c531659141344cd1fd0a4f28419497f9722a3daafe3b4186f6b6457e0600080a380f35b51631e4fbdf760e01b8152908101849052602490fd5b8382346104355780600319360112610435576104df611738565b9060243591821515809303610517576104f6611aae565b60018060a01b03168352600c60205282209060ff8019835416911617905580f35b8380fd5b503461033b57602036600319011261033b576020610537611738565b600754835163f140b55f60e01b81526001600160a01b039283169581019590955284916024918391165afa9182156105aa576020939261057b575b50519015158152f35b61059c919250833d81116105a3575b6105948183611793565b810190611bcc565b9038610572565b503d61058a565b81513d85823e3d90fd5b505034610435576020366003190112610435576105cf611738565b6105d7611aae565b81546001600160a01b0319166001600160a01b039190911617905580f35b8382346104355760203660031901126104355760207fa01edaa3cd8a419b7bb45b34f35e84da238af9490eca1b318cb579f3179e29e491610634611738565b61063c611aae565b6001600160a01b031690610651821515611b38565b600a80546001600160a01b0319168317905551908152a180f35b8382346104355760203660031901126104355760207fcede453a12a109bc98cf30c47be25a27dcd045508461cc9e9669a0185b648b89916106aa611738565b6106b2611aae565b6001600160a01b0316906106c7821515611b38565b600880546001600160a01b0319168317905551908152a180f35b838234610435578160031936011261043557600a5490516001600160a01b039091168152602090f35b83823461043557602036600319011261043557610725611738565b6005546001600160a01b03919061073f9083163314611b76565b168252600d6020528120805460ff1916600117905580f35b8382346104355760203660031901126104355760209160ff9082906001600160a01b03610782611738565b168152600c855220541690519015158152f35b838234610435578160031936011261043557600b5490516001600160a01b039091168152602090f35b503461033b57826003199282843601126104355780359367ffffffffffffffff851161033b5760806107f66108329636908501611818565b926107ff611753565b60018060a01b0361085081600e5416956108418a519b8c998a98899863ca7bb45d60e01b8a528901526084880190611c46565b82878203016024880152611983565b90858203016044860152611a27565b9116606483015203915afa9182156105aa57836104319493610881575b5050519182916020835260208301906118f6565b61089e9293503d8091833e6108968183611793565b810190611be4565b90388061086d565b503461033b57602036600319011261033b5760206108c2611738565b600854835163b5af090f60e01b81526001600160a01b039283169581019590955284916024918391165afa9182156105aa576020939261057b5750519015158152f35b83823461043557816003193601126104355760075490516001600160a01b039091168152602090f35b8382346104355760203660031901126104355760207f39a2470dcb92def89f4d008f638ab6d63ac78547bf3d6ccfebf542711a0503c79161096d611738565b610975611aae565b6001600160a01b03169061098a821515611b38565b600780546001600160a01b0319168317905551908152a180f35b8382346104355760203660031901126104355760207f12e10e0acd0f94fc9b2d033a01586c1255f1d396a6a2ce1c02cc9fca05774458916109e3611738565b6109eb611aae565b6001600160a01b031690610a00821515611b38565b600980546001600160a01b0319168317905551908152a180f35b838234610435578160031936011261043557905490516001600160a01b039091168152602090f35b83823461043557816003193601126104355760207f62e78cea01bee320cd4e420270b5ea74000d11b0c9f74754ebdbfc544b05a25891610a80611aae565b610a88611ada565b835460ff60a01b1916600160a01b17845551338152a180f35b83823461043557816003193601126104355760055490516001600160a01b039091168152602090f35b8382346104355781600319360112610435576020906010549051908152f35b8334610b435780600319360112610b4357610b02611aae565b600080546001600160a01b0319811682556001600160a01b03167f8be0079c531659141344cd1fd0a4f28419497f9722a3daafe3b4186f6b6457e08280a380f35b80fd5b83823461043557816003193601126104355780516104319161041f8261041881611983565b838234610435578160031936011261043557600e5490516001600160a01b039091168152602090f35b8382346104355760203660031901126104355760209160ff9082906001600160a01b03610bbf611738565b168152600d855220541690519015158152f35b50903461033b578260031936011261033b575490516001600160a01b03909116815260209150f35b80848434610c98576020366003190112610c9857610c16611738565b83546001600160a01b0390811633148015610c8b575b610c3590611afb565b8060085416803b15610c875785928360249286519788958694633123fb7960e11b865216908401525af1908115610c7e5750610c6e5750f35b610c7790611769565b610b435780f35b513d84823e3d90fd5b8580fd5b5060085481163314610c2c565b5050fd5b50903461033b57602036600319011261033b57610cb7611738565b610cbf611aae565b6001600160a01b0316918215610ce75750506001600160601b0360a01b600b541617600b5580f35b906020606492519162461bcd60e51b8352820152601e60248201527f496e76616c69642072656769737472794d6f64756c65206164647265737300006044820152fd5b83823461043557816003193601126104355760ff6020925460a01c1690519015158152f35b50919034610435576020928360031936011261033b5767ffffffffffffffff8235818111610f3957610d8490369085016117d1565b92610d8d611aae565b8351918211610f265750610da2600f54611949565b601f8111610ec4575b5084601f8211600114610e1e579181610e0d928697947f1307e8f38ec5675816e73741ee61af0a3ba3056ef92ec7873f7bf6532501b4249791610e13575b508160011b916000199060031b1c191617600f555b519282849384528301906118f6565b0390a180f35b905085015138610de9565b600f85527f8d1108e10bcb7c27dddfc02ed9d693a074039d026cf4ea4240b40f7d581ac80290601f198316865b818110610ead5750927f1307e8f38ec5675816e73741ee61af0a3ba3056ef92ec7873f7bf6532501b4249697949260019282610e0d9610610e94575b5050811b01600f55610dfe565b87015160001960f88460031b161c191690553880610e87565b91928860018192868a015181550194019201610e4b565b600f85527f8d1108e10bcb7c27dddfc02ed9d693a074039d026cf4ea4240b40f7d581ac802601f830160051c810191878410610f1c575b601f0160051c01905b818110610f115750610dab565b858155600101610f04565b9091508190610efb565b634e487b7160e01b855260419052602484fd5b8480fd5b828434610b43576020806003193601126104355767ffffffffffffffff90833582811161051757610f7190369086016117d1565b93610f7a611aae565b84519283116110b65750610f8f601154611949565b601f8111611054575b5080601f8311600114610fd357508293829392610fc8575b50508160011b916000199060031b1c19161760115580f35b015190508380610fb0565b60118452601f198316947f31ecc21a745e3968a04e9570e4425bc18fa8019c68028196b546d1669c200c68929185905b87821061103c575050836001959610611023575b505050811b0160115580f35b015160001960f88460031b161c19169055838080611017565b80600185968294968601518155019501930190611003565b601184527f31ecc21a745e3968a04e9570e4425bc18fa8019c68028196b546d1669c200c68601f840160051c8101918385106110ac575b601f0160051c01905b8181106110a15750610f98565b848155600101611094565b909150819061108b565b634e487b7160e01b845260419052602483fd5b503461033b57602036600319011261033b578135916110e6611aae565b821561111e5750816020917f7be9264fd4bacf6ffdd1cbfbe4fb3751923b2540828adf64102e4f5b096a7fe59360105551908152a180f35b6020606492519162461bcd60e51b8352820152601f60248201527f4475726174696f6e206d7573742062652067726561746572207468616e2030006044820152fd5b83823461043557806003193601126104355761117a611738565b6001600160a01b039081168352600260205281832080546024359490851015610b4357506020936111aa9161191b565b92905490519260031b1c168152f35b50903461033b578260031936011261033b576111d3611aae565b82549060ff8260a01c1615611219575060ff60a01b19168255513381527f5db9ee0a495bf2e6ff9c91a7834c1ba4fdd244a5e8aa4e537bd38aeae4b073aa90602090a180f35b8251638dfc202b60e01b8152fd5b8382346104355760208060031936011261033b576001600160a01b03928361124d611738565b1681526002825282812091835190818185549182815201908195855282852090855b8181106112bb5750505082611285910383611793565b8451948186019282875251809352850193925b8281106112a55785850386f35b8351871685529381019392810192600101611298565b82548a168452928401926001928301920161126f565b83823461043557816003193601126104355760095490516001600160a01b039091168152602090f35b8382346104355760203660031901126104355760207f820c11a553e3f58735f11b502c4c13b5bdaad97e61b6fe3bafe7eaf4e09e94de91611339611738565b611341611aae565b6001600160a01b031690611356821515611b38565b600680546001600160a01b0319168317905551908152a180f35b503461033b57602036600319011261033b578261138b611738565b81546001600160a01b0391908216331480156113f0575b6113ab90611afb565b816008541690813b156105175783602492865197889586946318313adf60e11b865216908401525af1908115610c7e57506113e4575080f35b6113ed90611769565b80f35b50600854821633146113a2565b50903461033b57602036600319011261033b57611418611738565b611420611aae565b6001600160a01b03169182156114485750506001600160601b0360a01b600554161760055580f35b906020606492519162461bcd60e51b8352820152601760248201527f496e76616c696420666163746f727920616464726573730000000000000000006044820152fd5b509190346104355760031960603682011261033b57813567ffffffffffffffff8111610517576114be9036908401611818565b916044356001600160a01b038181169391849003610c875780600954163303611590579260c0869361154461151897946115358b98600e54169589519a8b9889978897631725f8b360e11b895288015260c4870190611c46565b906024356024870152604486015282858203016064860152611983565b90838203016084840152611a27565b3060a483015203915afa9182156105aa57836104319493611573575050519182916020835260208301906118f6565b6115889293503d8091833e6108968183611793565b90838061086d565b865162461bcd60e51b8152602081850152601f60248201527f4f6e6c79206d65746164617461206d6f64756c652063616e2072656e646572006044820152606490fd5b83823461043557816003193601126104355760065490516001600160a01b039091168152602090f35b838234610435576020366003190112610435576020916001600160a01b0390829082611626611738565b168152600385522054169051908152f35b83823461043557816003193601126104355760085490516001600160a01b039091168152602090f35b503461033b578060031936011261033b57611679611738565b91611682611753565b9261168b611ada565b6005546001600160a01b039290831633036116ea575081169182855260036020528420921691826001600160601b0360a01b8254161790557f48e8ef3819015e9b1e8d36ddbbbc8cefc90dba7f69b711bdca0c9a10b63b037f8380a380f35b608490602085519162461bcd60e51b8352820152602260248201527f4f6e6c7920666163746f72792063616e2073657420746f6b656e206d617070696044820152616e6760f01b6064820152fd5b600435906001600160a01b038216820361174e57565b600080fd5b602435906001600160a01b038216820361174e57565b67ffffffffffffffff811161177d57604052565b634e487b7160e01b600052604160045260246000fd5b90601f8019910116810190811067ffffffffffffffff82111761177d57604052565b67ffffffffffffffff811161177d57601f01601f191660200190565b81601f8201121561174e578035906117e8826117b5565b926117f66040519485611793565b8284526020838301011161174e57816000926020809301838601378301015290565b91909160a08184031261174e576040519067ffffffffffffffff9060a083018281118482101761177d576040528294813583811161174e578161185c9184016117d1565b8452602082013583811161174e57816118769184016117d1565b6020850152604082013583811161174e57816118939184016117d1565b6040850152606082013583811161174e57816118b09184016117d1565b6060850152608082013592831161174e576080926118ce92016117d1565b910152565b60005b8381106118e65750506000910152565b81810151838201526020016118d6565b9060209161190f815180928185528580860191016118d3565b601f01601f1916010190565b80548210156119335760005260206000200190600090565b634e487b7160e01b600052603260045260246000fd5b90600182811c92168015611979575b602083101461196357565b634e487b7160e01b600052602260045260246000fd5b91607f1691611958565b6011546000929161199382611949565b80825291600190818116908115611a0a57506001146119b157505050565b9192935060116000527f31ecc21a745e3968a04e9570e4425bc18fa8019c68028196b546d1669c200c68916000925b8484106119f257505060209250010190565b805460208585018101919091529093019281016119e0565b915050602093945060ff929192191683830152151560051b010190565b600f5460009291611a3782611949565b80825291600190818116908115611a0a5750600114611a5557505050565b91929350600f6000527f8d1108e10bcb7c27dddfc02ed9d693a074039d026cf4ea4240b40f7d581ac802916000925b848410611a9657505060209250010190565b80546020858501810191909152909301928101611a84565b6000546001600160a01b03163303611ac257565b60405163118cdaa760e01b8152336004820152602490fd5b60ff60005460a01c16611ae957565b60405163d93c066560e01b8152600490fd5b15611b0257565b60405162461bcd60e51b815260206004820152600e60248201526d139bdd08185d5d1a1bdc9a5e995960921b6044820152606490fd5b15611b3f57565b60405162461bcd60e51b815260206004820152600f60248201526e496e76616c6964206164647265737360881b6044820152606490fd5b15611b7d57565b60405162461bcd60e51b815260206004820152602160248201527f4f6e6c7920666163746f72792063616e20616464207772617070656420736f6e6044820152606760f81b6064820152608490fd5b9081602091031261174e5751801515810361174e5790565b60208183031261174e5780519067ffffffffffffffff821161174e570181601f8201121561174e578051611c17816117b5565b92611c256040519485611793565b8184526020828401011161174e57611c4391602080850191016118d3565b90565b611c43916080611c9e611c8c611c7a611c68865160a0875260a08701906118f6565b602087015186820360208801526118f6565b604086015185820360408701526118f6565b606085015184820360608601526118f6565b9201519060808184039101526118f656fea26469706673582212209cf0f896015c551bb687d9a709b9443a72b39d7922474be50f26e50f71fee37164736f6c63430008140033",
  "linkReferences": {},
  "deployedLinkReferences": {}
}