{
  "_format": "hh-sol-artifact-1",
  "contractName": "ProtocolModule",
  "sourceName": "contracts/protocol/NonUpgradable/ProtocolModule.sol",
  "abi": [
    {
      "inputs": [
        {
          "internalType": "address",
          "name": "_distributorWalletFactory",
          "type": "address"
        },
        {
          "internalType": "address",
          "name": "_whitelistingManager",
          "type": "address"
        },
        {
          "internalType": "address",
          "name": "_erc20whitelist",
          "type": "address"
        },
        {
          "internalType": "address",
          "name": "_metadataModule",
          "type": "address"
        },
        {
          "internalType": "address",
          "name": "_legalContractMetadata",
          "type": "address"
        }
      ],
      "stateMutability": "nonpayable",
      "type": "constructor"
    },
    {
      "inputs": [
        {
          "internalType": "address",
          "name": "target",
          "type": "address"
        }
      ],
      "name": "AddressEmptyCode",
      "type": "error"
    },
    {
      "inputs": [
        {
          "internalType": "address",
          "name": "account",
          "type": "address"
        }
      ],
      "name": "AddressInsufficientBalance",
      "type": "error"
    },
    {
      "inputs": [],
      "name": "EnforcedPause",
      "type": "error"
    },
    {
      "inputs": [],
      "name": "ExpectedPause",
      "type": "error"
    },
    {
      "inputs": [],
      "name": "FailedInnerCall",
      "type": "error"
    },
    {
      "inputs": [
        {
          "internalType": "address",
          "name": "owner",
          "type": "address"
        }
      ],
      "name": "OwnableInvalidOwner",
      "type": "error"
    },
    {
      "inputs": [
        {
          "internalType": "address",
          "name": "account",
          "type": "address"
        }
      ],
      "name": "OwnableUnauthorizedAccount",
      "type": "error"
    },
    {
      "inputs": [],
      "name": "ReentrancyGuardReentrantCall",
      "type": "error"
    },
    {
      "inputs": [
        {
          "internalType": "address",
          "name": "token",
          "type": "address"
        }
      ],
      "name": "SafeERC20FailedOperation",
      "type": "error"
    },
    {
      "anonymous": false,
      "inputs": [
        {
          "indexed": true,
          "internalType": "address",
          "name": "wrappedSong",
          "type": "address"
        },
        {
          "indexed": true,
          "internalType": "address",
          "name": "distributor",
          "type": "address"
        }
      ],
      "name": "DistributorAcceptedReview",
      "type": "event"
    },
    {
      "anonymous": false,
      "inputs": [
        {
          "indexed": false,
          "internalType": "uint256",
          "name": "newFee",
          "type": "uint256"
        }
      ],
      "name": "DistributorCreationFeeUpdated",
      "type": "event"
    },
    {
      "anonymous": false,
      "inputs": [
        {
          "indexed": false,
          "internalType": "address",
          "name": "newFactory",
          "type": "address"
        }
      ],
      "name": "DistributorWalletFactoryUpdated",
      "type": "event"
    },
    {
      "anonymous": false,
      "inputs": [
        {
          "indexed": false,
          "internalType": "address",
          "name": "newWhitelist",
          "type": "address"
        }
      ],
      "name": "ERC20WhitelistUpdated",
      "type": "event"
    },
    {
      "anonymous": false,
      "inputs": [
        {
          "indexed": true,
          "internalType": "address",
          "name": "token",
          "type": "address"
        },
        {
          "indexed": true,
          "internalType": "address",
          "name": "recipient",
          "type": "address"
        },
        {
          "indexed": false,
          "internalType": "uint256",
          "name": "amount",
          "type": "uint256"
        }
      ],
      "name": "FeesWithdrawn",
      "type": "event"
    },
    {
      "anonymous": false,
      "inputs": [
        {
          "indexed": true,
          "internalType": "address",
          "name": "wrappedSong",
          "type": "address"
        },
        {
          "indexed": false,
          "internalType": "string",
          "name": "registryType",
          "type": "string"
        },
        {
          "indexed": false,
          "internalType": "string",
          "name": "value",
          "type": "string"
        }
      ],
      "name": "IdentityRegistryUpdated",
      "type": "event"
    },
    {
      "anonymous": false,
      "inputs": [
        {
          "indexed": false,
          "internalType": "address",
          "name": "newContract",
          "type": "address"
        }
      ],
      "name": "LegalContractMetadataUpdated",
      "type": "event"
    },
    {
      "anonymous": false,
      "inputs": [
        {
          "indexed": false,
          "internalType": "uint256",
          "name": "newDuration",
          "type": "uint256"
        }
      ],
      "name": "MaxSaleDurationUpdated",
      "type": "event"
    },
    {
      "anonymous": false,
      "inputs": [
        {
          "indexed": false,
          "internalType": "address",
          "name": "newModule",
          "type": "address"
        }
      ],
      "name": "MetadataModuleUpdated",
      "type": "event"
    },
    {
      "anonymous": false,
      "inputs": [
        {
          "indexed": false,
          "internalType": "address",
          "name": "newRenderer",
          "type": "address"
        }
      ],
      "name": "MetadataRendererUpdated",
      "type": "event"
    },
    {
      "anonymous": false,
      "inputs": [
        {
          "indexed": true,
          "internalType": "address",
          "name": "wrappedSong",
          "type": "address"
        },
        {
          "indexed": true,
          "internalType": "uint256",
          "name": "tokenId",
          "type": "uint256"
        },
        {
          "indexed": false,
          "internalType": "string",
          "name": "newMetadata",
          "type": "string"
        }
      ],
      "name": "MetadataUpdateRequested",
      "type": "event"
    },
    {
      "anonymous": false,
      "inputs": [
        {
          "indexed": true,
          "internalType": "address",
          "name": "wrappedSong",
          "type": "address"
        },
        {
          "indexed": true,
          "internalType": "uint256",
          "name": "tokenId",
          "type": "uint256"
        },
        {
          "indexed": false,
          "internalType": "string",
          "name": "newMetadata",
          "type": "string"
        }
      ],
      "name": "MetadataUpdated",
      "type": "event"
    },
    {
      "anonymous": false,
      "inputs": [
        {
          "indexed": true,
          "internalType": "address",
          "name": "owner",
          "type": "address"
        },
        {
          "indexed": true,
          "internalType": "address",
          "name": "wrappedSong",
          "type": "address"
        }
      ],
      "name": "OwnerWrappedSongAdded",
      "type": "event"
    },
    {
      "anonymous": false,
      "inputs": [
        {
          "indexed": true,
          "internalType": "address",
          "name": "previousOwner",
          "type": "address"
        },
        {
          "indexed": true,
          "internalType": "address",
          "name": "newOwner",
          "type": "address"
        }
      ],
      "name": "OwnershipTransferred",
      "type": "event"
    },
    {
      "anonymous": false,
      "inputs": [
        {
          "indexed": false,
          "internalType": "address",
          "name": "account",
          "type": "address"
        }
      ],
      "name": "Paused",
      "type": "event"
    },
    {
      "anonymous": false,
      "inputs": [
        {
          "indexed": false,
          "internalType": "bool",
          "name": "isPaused",
          "type": "bool"
        }
      ],
      "name": "Paused",
      "type": "event"
    },
    {
      "anonymous": false,
      "inputs": [
        {
          "indexed": false,
          "internalType": "bool",
          "name": "newPayInStablecoin",
          "type": "bool"
        }
      ],
      "name": "PayInStablecoinUpdated",
      "type": "event"
    },
    {
      "anonymous": false,
      "inputs": [
        {
          "indexed": true,
          "internalType": "address",
          "name": "wrappedSong",
          "type": "address"
        },
        {
          "indexed": true,
          "internalType": "address",
          "name": "token",
          "type": "address"
        },
        {
          "indexed": false,
          "internalType": "uint256",
          "name": "amount",
          "type": "uint256"
        }
      ],
      "name": "ReleaseFeeCollected",
      "type": "event"
    },
    {
      "anonymous": false,
      "inputs": [
        {
          "indexed": false,
          "internalType": "uint256",
          "name": "newFee",
          "type": "uint256"
        }
      ],
      "name": "ReleaseFeeUpdated",
      "type": "event"
    },
    {
      "anonymous": false,
      "inputs": [
        {
          "indexed": false,
          "internalType": "bool",
          "name": "enabled",
          "type": "bool"
        }
      ],
      "name": "ReleasesEnabledChanged",
      "type": "event"
    },
    {
      "anonymous": false,
      "inputs": [
        {
          "indexed": false,
          "internalType": "uint256",
          "name": "newDays",
          "type": "uint256"
        }
      ],
      "name": "ReviewPeriodDaysUpdated",
      "type": "event"
    },
    {
      "anonymous": false,
      "inputs": [
        {
          "indexed": true,
          "internalType": "address",
          "name": "wrappedSong",
          "type": "address"
        },
        {
          "indexed": true,
          "internalType": "address",
          "name": "distributor",
          "type": "address"
        }
      ],
      "name": "ReviewPeriodExpired",
      "type": "event"
    },
    {
      "anonymous": false,
      "inputs": [
        {
          "indexed": true,
          "internalType": "address",
          "name": "smartAccount",
          "type": "address"
        },
        {
          "indexed": true,
          "internalType": "address",
          "name": "wsToken",
          "type": "address"
        }
      ],
      "name": "SmartAccountToWSTokenMapped",
      "type": "event"
    },
    {
      "anonymous": false,
      "inputs": [
        {
          "indexed": false,
          "internalType": "uint256",
          "name": "newCreationFee",
          "type": "uint256"
        },
        {
          "indexed": false,
          "internalType": "uint256",
          "name": "newReleaseFee",
          "type": "uint256"
        }
      ],
      "name": "StableFeesUpdated",
      "type": "event"
    },
    {
      "anonymous": false,
      "inputs": [
        {
          "indexed": false,
          "internalType": "uint256",
          "name": "newFee",
          "type": "uint256"
        }
      ],
      "name": "StartSaleFeeUpdated",
      "type": "event"
    },
    {
      "anonymous": false,
      "inputs": [
        {
          "indexed": false,
          "internalType": "address",
          "name": "account",
          "type": "address"
        }
      ],
      "name": "Unpaused",
      "type": "event"
    },
    {
      "anonymous": false,
      "inputs": [
        {
          "indexed": false,
          "internalType": "uint256",
          "name": "newFee",
          "type": "uint256"
        }
      ],
      "name": "UpdateMetadataFeeUpdated",
      "type": "event"
    },
    {
      "anonymous": false,
      "inputs": [
        {
          "indexed": false,
          "internalType": "address",
          "name": "newManager",
          "type": "address"
        }
      ],
      "name": "WhitelistingManagerUpdated",
      "type": "event"
    },
    {
      "anonymous": false,
      "inputs": [
        {
          "indexed": false,
          "internalType": "uint256",
          "name": "newPercentage",
          "type": "uint256"
        }
      ],
      "name": "WithdrawalFeePercentageUpdated",
      "type": "event"
    },
    {
      "anonymous": false,
      "inputs": [
        {
          "indexed": true,
          "internalType": "address",
          "name": "wrappedSong",
          "type": "address"
        },
        {
          "indexed": false,
          "internalType": "bool",
          "name": "isAuthentic",
          "type": "bool"
        }
      ],
      "name": "WrappedSongAuthenticitySet",
      "type": "event"
    },
    {
      "anonymous": false,
      "inputs": [
        {
          "indexed": false,
          "internalType": "uint256",
          "name": "newFee",
          "type": "uint256"
        }
      ],
      "name": "WrappedSongCreationFeeUpdated",
      "type": "event"
    },
    {
      "anonymous": false,
      "inputs": [
        {
          "indexed": true,
          "internalType": "address",
          "name": "wrappedSong",
          "type": "address"
        },
        {
          "indexed": true,
          "internalType": "address",
          "name": "distributor",
          "type": "address"
        }
      ],
      "name": "WrappedSongReleaseRejected",
      "type": "event"
    },
    {
      "anonymous": false,
      "inputs": [
        {
          "indexed": true,
          "internalType": "address",
          "name": "wrappedSong",
          "type": "address"
        },
        {
          "indexed": true,
          "internalType": "address",
          "name": "distributor",
          "type": "address"
        },
        {
          "indexed": true,
          "internalType": "address",
          "name": "creator",
          "type": "address"
        }
      ],
      "name": "WrappedSongReleaseRequested",
      "type": "event"
    },
    {
      "anonymous": false,
      "inputs": [
        {
          "indexed": true,
          "internalType": "address",
          "name": "wrappedSong",
          "type": "address"
        },
        {
          "indexed": true,
          "internalType": "address",
          "name": "distributor",
          "type": "address"
        }
      ],
      "name": "WrappedSongReleased",
      "type": "event"
    },
    {
      "inputs": [],
      "name": "MAX_WITHDRAWAL_FEE",
      "outputs": [
        {
          "internalType": "uint256",
          "name": "",
          "type": "uint256"
        }
      ],
      "stateMutability": "view",
      "type": "function"
    },
    {
      "inputs": [
        {
          "internalType": "address",
          "name": "wrappedSong",
          "type": "address"
        }
      ],
      "name": "acceptWrappedSongForReview",
      "outputs": [],
      "stateMutability": "nonpayable",
      "type": "function"
    },
    {
      "inputs": [
        {
          "internalType": "address",
          "name": "",
          "type": "address"
        }
      ],
      "name": "accumulatedFees",
      "outputs": [
        {
          "internalType": "uint256",
          "name": "",
          "type": "uint256"
        }
      ],
      "stateMutability": "view",
      "type": "function"
    },
    {
      "inputs": [
        {
          "internalType": "address",
          "name": "wrappedSong",
          "type": "address"
        },
        {
          "internalType": "string",
          "name": "iscc",
          "type": "string"
        }
      ],
      "name": "addISCC",
      "outputs": [],
      "stateMutability": "nonpayable",
      "type": "function"
    },
    {
      "inputs": [
        {
          "internalType": "address",
          "name": "wrappedSong",
          "type": "address"
        },
        {
          "internalType": "string",
          "name": "isrc",
          "type": "string"
        }
      ],
      "name": "addISRC",
      "outputs": [],
      "stateMutability": "nonpayable",
      "type": "function"
    },
    {
      "inputs": [
        {
          "internalType": "address",
          "name": "wrappedSong",
          "type": "address"
        },
        {
          "internalType": "string",
          "name": "iswc",
          "type": "string"
        }
      ],
      "name": "addISWC",
      "outputs": [],
      "stateMutability": "nonpayable",
      "type": "function"
    },
    {
      "inputs": [
        {
          "internalType": "address",
          "name": "wrappedSong",
          "type": "address"
        },
        {
          "internalType": "string",
          "name": "upc",
          "type": "string"
        }
      ],
      "name": "addUPC",
      "outputs": [],
      "stateMutability": "nonpayable",
      "type": "function"
    },
    {
      "inputs": [
        {
          "internalType": "address",
          "name": "",
          "type": "address"
        }
      ],
      "name": "authorizedContracts",
      "outputs": [
        {
          "internalType": "bool",
          "name": "",
          "type": "bool"
        }
      ],
      "stateMutability": "view",
      "type": "function"
    },
    {
      "inputs": [],
      "name": "baseURI",
      "outputs": [
        {
          "internalType": "string",
          "name": "",
          "type": "string"
        }
      ],
      "stateMutability": "view",
      "type": "function"
    },
    {
      "inputs": [
        {
          "internalType": "address",
          "name": "wrappedSong",
          "type": "address"
        }
      ],
      "name": "confirmWrappedSongRelease",
      "outputs": [],
      "stateMutability": "nonpayable",
      "type": "function"
    },
    {
      "inputs": [],
      "name": "currentStablecoinIndex",
      "outputs": [
        {
          "internalType": "uint256",
          "name": "",
          "type": "uint256"
        }
      ],
      "stateMutability": "view",
      "type": "function"
    },
    {
      "inputs": [],
      "name": "distributorCreationFee",
      "outputs": [
        {
          "internalType": "uint256",
          "name": "",
          "type": "uint256"
        }
      ],
      "stateMutability": "view",
      "type": "function"
    },
    {
      "inputs": [],
      "name": "distributorWalletFactory",
      "outputs": [
        {
          "internalType": "contract IDistributorWalletFactory",
          "name": "",
          "type": "address"
        }
      ],
      "stateMutability": "view",
      "type": "function"
    },
    {
      "inputs": [],
      "name": "erc20whitelist",
      "outputs": [
        {
          "internalType": "contract IERC20Whitelist",
          "name": "",
          "type": "address"
        }
      ],
      "stateMutability": "view",
      "type": "function"
    },
    {
      "inputs": [],
      "name": "getBaseURI",
      "outputs": [
        {
          "internalType": "string",
          "name": "",
          "type": "string"
        }
      ],
      "stateMutability": "view",
      "type": "function"
    },
    {
      "inputs": [],
      "name": "getLegalContractMetadata",
      "outputs": [
        {
          "internalType": "address",
          "name": "",
          "type": "address"
        }
      ],
      "stateMutability": "view",
      "type": "function"
    },
    {
      "inputs": [],
      "name": "getMetadataModule",
      "outputs": [
        {
          "internalType": "address",
          "name": "",
          "type": "address"
        }
      ],
      "stateMutability": "view",
      "type": "function"
    },
    {
      "inputs": [
        {
          "internalType": "address",
          "name": "owner",
          "type": "address"
        }
      ],
      "name": "getOwnerWrappedSongs",
      "outputs": [
        {
          "internalType": "address[]",
          "name": "",
          "type": "address[]"
        }
      ],
      "stateMutability": "view",
      "type": "function"
    },
    {
      "inputs": [
        {
          "internalType": "address",
          "name": "wrappedSong",
          "type": "address"
        }
      ],
      "name": "getPendingDistributorRequests",
      "outputs": [
        {
          "internalType": "address",
          "name": "",
          "type": "address"
        }
      ],
      "stateMutability": "view",
      "type": "function"
    },
    {
      "inputs": [],
      "name": "getStartSaleFee",
      "outputs": [
        {
          "internalType": "uint256",
          "name": "",
          "type": "uint256"
        }
      ],
      "stateMutability": "view",
      "type": "function"
    },
    {
      "inputs": [],
      "name": "getWithdrawalFeePercentage",
      "outputs": [
        {
          "internalType": "uint256",
          "name": "",
          "type": "uint256"
        }
      ],
      "stateMutability": "view",
      "type": "function"
    },
    {
      "inputs": [
        {
          "internalType": "address",
          "name": "wrappedSong",
          "type": "address"
        }
      ],
      "name": "getWrappedSongDistributor",
      "outputs": [
        {
          "internalType": "address",
          "name": "",
          "type": "address"
        }
      ],
      "stateMutability": "view",
      "type": "function"
    },
    {
      "inputs": [
        {
          "internalType": "address",
          "name": "wrappedSong",
          "type": "address"
        }
      ],
      "name": "handleExpiredReviewPeriod",
      "outputs": [],
      "stateMutability": "nonpayable",
      "type": "function"
    },
    {
      "inputs": [
        {
          "internalType": "address",
          "name": "wrappedSong",
          "type": "address"
        }
      ],
      "name": "isAuthentic",
      "outputs": [
        {
          "internalType": "bool",
          "name": "",
          "type": "bool"
        }
      ],
      "stateMutability": "view",
      "type": "function"
    },
    {
      "inputs": [
        {
          "internalType": "address",
          "name": "_contractAddress",
          "type": "address"
        }
      ],
      "name": "isAuthorizedContract",
      "outputs": [
        {
          "internalType": "bool",
          "name": "",
          "type": "bool"
        }
      ],
      "stateMutability": "view",
      "type": "function"
    },
    {
      "inputs": [
        {
          "internalType": "address",
          "name": "wrappedSong",
          "type": "address"
        }
      ],
      "name": "isReleased",
      "outputs": [
        {
          "internalType": "bool",
          "name": "",
          "type": "bool"
        }
      ],
      "stateMutability": "view",
      "type": "function"
    },
    {
      "inputs": [
        {
          "internalType": "address",
          "name": "token",
          "type": "address"
        }
      ],
      "name": "isTokenWhitelisted",
      "outputs": [
        {
          "internalType": "bool",
          "name": "",
          "type": "bool"
        }
      ],
      "stateMutability": "view",
      "type": "function"
    },
    {
      "inputs": [
        {
          "internalType": "address",
          "name": "creator",
          "type": "address"
        }
      ],
      "name": "isValidToCreateWrappedSong",
      "outputs": [
        {
          "internalType": "bool",
          "name": "",
          "type": "bool"
        }
      ],
      "stateMutability": "view",
      "type": "function"
    },
    {
      "inputs": [
        {
          "internalType": "address",
          "name": "wsTokenManagement",
          "type": "address"
        }
      ],
      "name": "isWSTokenFromProtocol",
      "outputs": [
        {
          "internalType": "bool",
          "name": "",
          "type": "bool"
        }
      ],
      "stateMutability": "view",
      "type": "function"
    },
    {
      "inputs": [
        {
          "internalType": "address",
          "name": "",
          "type": "address"
        }
      ],
      "name": "isccRegistry",
      "outputs": [
        {
          "internalType": "string",
          "name": "",
          "type": "string"
        }
      ],
      "stateMutability": "view",
      "type": "function"
    },
    {
      "inputs": [
        {
          "internalType": "address",
          "name": "",
          "type": "address"
        }
      ],
      "name": "isrcRegistry",
      "outputs": [
        {
          "internalType": "string",
          "name": "",
          "type": "string"
        }
      ],
      "stateMutability": "view",
      "type": "function"
    },
    {
      "inputs": [
        {
          "internalType": "address",
          "name": "",
          "type": "address"
        }
      ],
      "name": "iswcRegistry",
      "outputs": [
        {
          "internalType": "string",
          "name": "",
          "type": "string"
        }
      ],
      "stateMutability": "view",
      "type": "function"
    },
    {
      "inputs": [],
      "name": "legalContractMetadata",
      "outputs": [
        {
          "internalType": "contract ILegalContractMetadata",
          "name": "",
          "type": "address"
        }
      ],
      "stateMutability": "view",
      "type": "function"
    },
    {
      "inputs": [],
      "name": "maxSaleDuration",
      "outputs": [
        {
          "internalType": "uint256",
          "name": "",
          "type": "uint256"
        }
      ],
      "stateMutability": "view",
      "type": "function"
    },
    {
      "inputs": [],
      "name": "metadataModule",
      "outputs": [
        {
          "internalType": "contract IMetadataModule",
          "name": "",
          "type": "address"
        }
      ],
      "stateMutability": "view",
      "type": "function"
    },
    {
      "inputs": [],
      "name": "metadataRenderer",
      "outputs": [
        {
          "internalType": "contract IMetadataRenderer",
          "name": "",
          "type": "address"
        }
      ],
      "stateMutability": "view",
      "type": "function"
    },
    {
      "inputs": [],
      "name": "owner",
      "outputs": [
        {
          "internalType": "address",
          "name": "",
          "type": "address"
        }
      ],
      "stateMutability": "view",
      "type": "function"
    },
    {
      "inputs": [
        {
          "internalType": "address",
          "name": "",
          "type": "address"
        },
        {
          "internalType": "uint256",
          "name": "",
          "type": "uint256"
        }
      ],
      "name": "ownerWrappedSongs",
      "outputs": [
        {
          "internalType": "address",
          "name": "",
          "type": "address"
        }
      ],
      "stateMutability": "view",
      "type": "function"
    },
    {
      "inputs": [],
      "name": "pause",
      "outputs": [],
      "stateMutability": "nonpayable",
      "type": "function"
    },
    {
      "inputs": [],
      "name": "paused",
      "outputs": [
        {
          "internalType": "bool",
          "name": "",
          "type": "bool"
        }
      ],
      "stateMutability": "view",
      "type": "function"
    },
    {
      "inputs": [],
      "name": "payInStablecoin",
      "outputs": [
        {
          "internalType": "bool",
          "name": "",
          "type": "bool"
        }
      ],
      "stateMutability": "view",
      "type": "function"
    },
    {
      "inputs": [
        {
          "internalType": "address",
          "name": "",
          "type": "address"
        }
      ],
      "name": "pendingDistributorRequests",
      "outputs": [
        {
          "internalType": "address",
          "name": "",
          "type": "address"
        }
      ],
      "stateMutability": "view",
      "type": "function"
    },
    {
      "inputs": [
        {
          "internalType": "address",
          "name": "wrappedSong",
          "type": "address"
        }
      ],
      "name": "rejectWrappedSongRelease",
      "outputs": [],
      "stateMutability": "nonpayable",
      "type": "function"
    },
    {
      "inputs": [],
      "name": "releaseFee",
      "outputs": [
        {
          "internalType": "uint256",
          "name": "",
          "type": "uint256"
        }
      ],
      "stateMutability": "view",
      "type": "function"
    },
    {
      "inputs": [],
      "name": "releasesEnabled",
      "outputs": [
        {
          "internalType": "bool",
          "name": "",
          "type": "bool"
        }
      ],
      "stateMutability": "view",
      "type": "function"
    },
    {
      "inputs": [
        {
          "internalType": "address",
          "name": "token",
          "type": "address"
        }
      ],
      "name": "removeTokenFromWhitelist",
      "outputs": [],
      "stateMutability": "nonpayable",
      "type": "function"
    },
    {
      "inputs": [
        {
          "internalType": "address",
          "name": "wrappedSong",
          "type": "address"
        }
      ],
      "name": "removeWrappedSongReleaseRequest",
      "outputs": [],
      "stateMutability": "nonpayable",
      "type": "function"
    },
    {
      "inputs": [
        {
          "components": [
            {
              "internalType": "string",
              "name": "name",
              "type": "string"
            },
            {
              "internalType": "string",
              "name": "description",
              "type": "string"
            },
            {
              "internalType": "string",
              "name": "image",
              "type": "string"
            },
            {
              "internalType": "string",
              "name": "externalUrl",
              "type": "string"
            },
            {
              "internalType": "string",
              "name": "animationUrl",
              "type": "string"
            },
            {
              "internalType": "string",
              "name": "attributesIpfsHash",
              "type": "string"
            }
          ],
          "internalType": "struct IMetadataModule.Metadata",
          "name": "metadata",
          "type": "tuple"
        },
        {
          "internalType": "uint256",
          "name": "tokenId",
          "type": "uint256"
        },
        {
          "internalType": "address",
          "name": "wrappedSong",
          "type": "address"
        }
      ],
      "name": "renderTokenURI",
      "outputs": [
        {
          "internalType": "string",
          "name": "",
          "type": "string"
        }
      ],
      "stateMutability": "view",
      "type": "function"
    },
    {
      "inputs": [],
      "name": "renounceOwnership",
      "outputs": [],
      "stateMutability": "nonpayable",
      "type": "function"
    },
    {
      "inputs": [
        {
          "internalType": "address",
          "name": "wrappedSong",
          "type": "address"
        },
        {
          "internalType": "address",
          "name": "distributor",
          "type": "address"
        }
      ],
      "name": "requestWrappedSongRelease",
      "outputs": [],
      "stateMutability": "payable",
      "type": "function"
    },
    {
      "inputs": [
        {
          "internalType": "address",
          "name": "wrappedSong",
          "type": "address"
        },
        {
          "internalType": "address",
          "name": "distributor",
          "type": "address"
        },
        {
          "components": [
            {
              "internalType": "string",
              "name": "name",
              "type": "string"
            },
            {
              "internalType": "string",
              "name": "description",
              "type": "string"
            },
            {
              "internalType": "string",
              "name": "image",
              "type": "string"
            },
            {
              "internalType": "string",
              "name": "externalUrl",
              "type": "string"
            },
            {
              "internalType": "string",
              "name": "animationUrl",
              "type": "string"
            },
            {
              "internalType": "string",
              "name": "attributesIpfsHash",
              "type": "string"
            }
          ],
          "internalType": "struct IMetadataModule.Metadata",
          "name": "newMetadata",
          "type": "tuple"
        }
      ],
      "name": "requestWrappedSongReleaseWithMetadata",
      "outputs": [],
      "stateMutability": "payable",
      "type": "function"
    },
    {
      "inputs": [],
      "name": "reviewPeriodDays",
      "outputs": [
        {
          "internalType": "uint256",
          "name": "",
          "type": "uint256"
        }
      ],
      "stateMutability": "view",
      "type": "function"
    },
    {
      "inputs": [
        {
          "internalType": "address",
          "name": "",
          "type": "address"
        }
      ],
      "name": "reviewPeriods",
      "outputs": [
        {
          "internalType": "uint256",
          "name": "startTime",
          "type": "uint256"
        },
        {
          "internalType": "uint256",
          "name": "endTime",
          "type": "uint256"
        },
        {
          "internalType": "address",
          "name": "distributor",
          "type": "address"
        }
      ],
      "stateMutability": "view",
      "type": "function"
    },
    {
      "inputs": [
        {
          "internalType": "address",
          "name": "_contractAddress",
          "type": "address"
        },
        {
          "internalType": "bool",
          "name": "_isAuthorized",
          "type": "bool"
        }
      ],
      "name": "setAuthorizedContract",
      "outputs": [],
      "stateMutability": "nonpayable",
      "type": "function"
    },
    {
      "inputs": [
        {
          "internalType": "string",
          "name": "_baseURI",
          "type": "string"
        }
      ],
      "name": "setBaseURI",
      "outputs": [],
      "stateMutability": "nonpayable",
      "type": "function"
    },
    {
      "inputs": [
        {
          "internalType": "uint256",
          "name": "_index",
          "type": "uint256"
        }
      ],
      "name": "setCurrentStablecoinIndex",
      "outputs": [],
      "stateMutability": "nonpayable",
      "type": "function"
    },
    {
      "inputs": [
        {
          "internalType": "uint256",
          "name": "_fee",
          "type": "uint256"
        }
      ],
      "name": "setDistributorCreationFee",
      "outputs": [],
      "stateMutability": "nonpayable",
      "type": "function"
    },
    {
      "inputs": [
        {
          "internalType": "address",
          "name": "_newFactory",
          "type": "address"
        }
      ],
      "name": "setDistributorWalletFactory",
      "outputs": [],
      "stateMutability": "nonpayable",
      "type": "function"
    },
    {
      "inputs": [
        {
          "internalType": "address",
          "name": "_erc20whitelist",
          "type": "address"
        }
      ],
      "name": "setERC20Whitelist",
      "outputs": [],
      "stateMutability": "nonpayable",
      "type": "function"
    },
    {
      "inputs": [
        {
          "internalType": "address",
          "name": "_legalContractMetadata",
          "type": "address"
        }
      ],
      "name": "setLegalContractMetadata",
      "outputs": [],
      "stateMutability": "nonpayable",
      "type": "function"
    },
    {
      "inputs": [
        {
          "internalType": "uint256",
          "name": "_duration",
          "type": "uint256"
        }
      ],
      "name": "setMaxSaleDuration",
      "outputs": [],
      "stateMutability": "nonpayable",
      "type": "function"
    },
    {
      "inputs": [
        {
          "internalType": "address",
          "name": "_metadataModule",
          "type": "address"
        }
      ],
      "name": "setMetadataModule",
      "outputs": [],
      "stateMutability": "nonpayable",
      "type": "function"
    },
    {
      "inputs": [
        {
          "internalType": "address",
          "name": "_renderer",
          "type": "address"
        }
      ],
      "name": "setMetadataRenderer",
      "outputs": [],
      "stateMutability": "nonpayable",
      "type": "function"
    },
    {
      "inputs": [
        {
          "internalType": "address",
          "name": "owner",
          "type": "address"
        },
        {
          "internalType": "address",
          "name": "wrappedSong",
          "type": "address"
        }
      ],
      "name": "setOwnerWrappedSong",
      "outputs": [],
      "stateMutability": "nonpayable",
      "type": "function"
    },
    {
      "inputs": [
        {
          "internalType": "bool",
          "name": "_payInStablecoin",
          "type": "bool"
        }
      ],
      "name": "setPayInStablecoin",
      "outputs": [],
      "stateMutability": "nonpayable",
      "type": "function"
    },
    {
      "inputs": [
        {
          "internalType": "uint256",
          "name": "_fee",
          "type": "uint256"
        }
      ],
      "name": "setReleaseFee",
      "outputs": [],
      "stateMutability": "nonpayable",
      "type": "function"
    },
    {
      "inputs": [
        {
          "internalType": "bool",
          "name": "_enabled",
          "type": "bool"
        }
      ],
      "name": "setReleasesEnabled",
      "outputs": [],
      "stateMutability": "nonpayable",
      "type": "function"
    },
    {
      "inputs": [
        {
          "internalType": "uint256",
          "name": "_days",
          "type": "uint256"
        }
      ],
      "name": "setReviewPeriodDays",
      "outputs": [],
      "stateMutability": "nonpayable",
      "type": "function"
    },
    {
      "inputs": [
        {
          "internalType": "address",
          "name": "smartAccount",
          "type": "address"
        },
        {
          "internalType": "address",
          "name": "wsToken",
          "type": "address"
        }
      ],
      "name": "setSmartAccountToWSToken",
      "outputs": [],
      "stateMutability": "nonpayable",
      "type": "function"
    },
    {
      "inputs": [
        {
          "internalType": "uint256",
          "name": "newFee",
          "type": "uint256"
        }
      ],
      "name": "setStartSaleFee",
      "outputs": [],
      "stateMutability": "nonpayable",
      "type": "function"
    },
    {
      "inputs": [
        {
          "internalType": "uint256",
          "name": "_fee",
          "type": "uint256"
        }
      ],
      "name": "setUpdateMetadataFee",
      "outputs": [],
      "stateMutability": "nonpayable",
      "type": "function"
    },
    {
      "inputs": [
        {
          "internalType": "address",
          "name": "wsTokenManagement",
          "type": "address"
        }
      ],
      "name": "setWSTokenFromProtocol",
      "outputs": [],
      "stateMutability": "nonpayable",
      "type": "function"
    },
    {
      "inputs": [
        {
          "internalType": "address",
          "name": "_whitelistingManager",
          "type": "address"
        }
      ],
      "name": "setWhitelistingManager",
      "outputs": [],
      "stateMutability": "nonpayable",
      "type": "function"
    },
    {
      "inputs": [
        {
          "internalType": "uint256",
          "name": "_feePercentage",
          "type": "uint256"
        }
      ],
      "name": "setWithdrawalFeePercentage",
      "outputs": [],
      "stateMutability": "nonpayable",
      "type": "function"
    },
    {
      "inputs": [
        {
          "internalType": "address",
          "name": "wrappedSong",
          "type": "address"
        },
        {
          "internalType": "bool",
          "name": "_isAuthentic",
          "type": "bool"
        }
      ],
      "name": "setWrappedSongAuthenticity",
      "outputs": [],
      "stateMutability": "nonpayable",
      "type": "function"
    },
    {
      "inputs": [
        {
          "internalType": "uint256",
          "name": "_fee",
          "type": "uint256"
        }
      ],
      "name": "setWrappedSongCreationFee",
      "outputs": [],
      "stateMutability": "nonpayable",
      "type": "function"
    },
    {
      "inputs": [
        {
          "internalType": "address",
          "name": "_wrappedSongFactory",
          "type": "address"
        }
      ],
      "name": "setWrappedSongFactory",
      "outputs": [],
      "stateMutability": "nonpayable",
      "type": "function"
    },
    {
      "inputs": [
        {
          "internalType": "address",
          "name": "",
          "type": "address"
        }
      ],
      "name": "smartAccountToWSToken",
      "outputs": [
        {
          "internalType": "address",
          "name": "",
          "type": "address"
        }
      ],
      "stateMutability": "view",
      "type": "function"
    },
    {
      "inputs": [
        {
          "internalType": "address",
          "name": "newOwner",
          "type": "address"
        }
      ],
      "name": "transferOwnership",
      "outputs": [],
      "stateMutability": "nonpayable",
      "type": "function"
    },
    {
      "inputs": [],
      "name": "unpause",
      "outputs": [],
      "stateMutability": "nonpayable",
      "type": "function"
    },
    {
      "inputs": [
        {
          "internalType": "address",
          "name": "",
          "type": "address"
        }
      ],
      "name": "upcRegistry",
      "outputs": [
        {
          "internalType": "string",
          "name": "",
          "type": "string"
        }
      ],
      "stateMutability": "view",
      "type": "function"
    },
    {
      "inputs": [],
      "name": "updateMetadataFee",
      "outputs": [
        {
          "internalType": "uint256",
          "name": "",
          "type": "uint256"
        }
      ],
      "stateMutability": "view",
      "type": "function"
    },
    {
      "inputs": [
        {
          "internalType": "address",
          "name": "token",
          "type": "address"
        }
      ],
      "name": "whitelistToken",
      "outputs": [],
      "stateMutability": "nonpayable",
      "type": "function"
    },
    {
      "inputs": [],
      "name": "whitelistingManager",
      "outputs": [
        {
          "internalType": "contract IWhitelistingManager",
          "name": "",
          "type": "address"
        }
      ],
      "stateMutability": "view",
      "type": "function"
    },
    {
      "inputs": [
        {
          "internalType": "address",
          "name": "token",
          "type": "address"
        },
        {
          "internalType": "address",
          "name": "recipient",
          "type": "address"
        }
      ],
      "name": "withdrawAccumulatedFees",
      "outputs": [],
      "stateMutability": "nonpayable",
      "type": "function"
    },
    {
      "inputs": [],
      "name": "withdrawalFeePercentage",
      "outputs": [
        {
          "internalType": "uint256",
          "name": "",
          "type": "uint256"
        }
      ],
      "stateMutability": "view",
      "type": "function"
    },
    {
      "inputs": [
        {
          "internalType": "address",
          "name": "",
          "type": "address"
        }
      ],
      "name": "wrappedSongAuthenticity",
      "outputs": [
        {
          "internalType": "bool",
          "name": "",
          "type": "bool"
        }
      ],
      "stateMutability": "view",
      "type": "function"
    },
    {
      "inputs": [],
      "name": "wrappedSongCreationFee",
      "outputs": [
        {
          "internalType": "uint256",
          "name": "",
          "type": "uint256"
        }
      ],
      "stateMutability": "view",
      "type": "function"
    },
    {
      "inputs": [],
      "name": "wrappedSongFactory",
      "outputs": [
        {
          "internalType": "contract IWrappedSongFactory",
          "name": "",
          "type": "address"
        }
      ],
      "stateMutability": "view",
      "type": "function"
    },
    {
      "inputs": [],
      "name": "wrappedSongFactoryAddress",
      "outputs": [
        {
          "internalType": "address",
          "name": "",
          "type": "address"
        }
      ],
      "stateMutability": "view",
      "type": "function"
    },
    {
      "inputs": [
        {
          "internalType": "address",
          "name": "",
          "type": "address"
        }
      ],
      "name": "wrappedSongToDistributor",
      "outputs": [
        {
          "internalType": "address",
          "name": "",
          "type": "address"
        }
      ],
      "stateMutability": "view",
      "type": "function"
    },
    {
      "stateMutability": "payable",
      "type": "receive"
    }
  ],
  "bytecode": "0x6080346200016157601f62003d5338819003918201601f19168301916001600160401b03831184841017620001665780849260a09460405283398101031262000161576200004d816200017c565b6200005b602083016200017c565b62000069604084016200017c565b906200008660806200007e606087016200017c565b95016200017c565b9033156200014857600054946040519560018060a01b03948580948193338382167f8be0079c531659141344cd1fd0a4f28419497f9722a3daafe3b4186f6b6457e0600080a360ff60a01b1933169060018060a81b03191617600055600180556007601e5562278d00601f55600160ff1960215416176021558160018060a01b0319991689600b541617600b551687600c541617600c551685600d541617600d551683600e541617600e551690600f541617600f55613bc19081620001928239f35b604051631e4fbdf760e01b815260006004820152602490fd5b600080fd5b634e487b7160e01b600052604160045260246000fd5b51906001600160a01b0382168203620001615756fe60406080815260048036101561001f575b5050361561001d57600080fd5b005b600091823560e01c806208ac8314612cc257806306fd88ed14611201578063088b95541461250757806309da4e5114612c995780630b1b745e14612c5e5780630bb7503114612c3f5780630c5d8da114612c1657806316eddecb14612bf2578063175b818c14612bce5780631a3b00e214612baf5780631c8370cb1461168e5780631e944d5414612b745780631f47106914612b5257806321dd882b14612b175780632490a90114612af85780632b03295f1461293e5780632cd6c9a6146122225780632fb92c5a146128b05780632fda23b71461267e578063306275be146125f45780633224d848146125a6578063358d96ab146125305780633684d10014612507578063376c1f071461234457806337c38c481461230757806337d7d5421461225d5780633aa690e7146122225780633f4ba83a146121b4578063438c9d95146121955780634905427414612176578063496d51af14611f995780634b08ec5014611df45780634bb43e5c14611db95780634da6840a14611d605780634fa71b0614611b83578063533761fe14611aec57806355f804b31461198e5780635c975abb146119695780635fb0ea9014611908578381636247f6f2146118735750806366d0ead314610cfe5780636b09d20214610e8d5780636c0360eb146117ee5780636cf563a414611835578063703199701461180c578063714c5398146117ee578063715018a6146117945780637159aa6214611746578063723ff2a21461172757806377191a6e14610c6957806377f04004146116d957806378922c8f14610e6e57806379988efd146116b757806381b539b81461168e5780638437de381461162d5780638456cb59146115ce5780638bfa25da146115805780638da5cb5b146115585780639860da00146115065780639f58bfaa146114a5578063a4144de6146112b5578063a4198fa21461123f578063a449357514611201578063a951583b1461118b578063ac581b3a14611162578063b0c70e2714611083578063b5af090f14611024578063be94e31914610f32578063c4bec00614610f14578063c67ca8e714610ec8578063c7be5e2a14610e8d578063c8f5f4e814610e6e578063ccad87f014610d85578063cd36bc9a14610d3c578063d5b9221b14610cfe578063d9ce7b9514610cb1578063d9fa987914610c92578063dbd15d5314610c69578063dfef968114610a82578063e482936914610a0c578063e72cfcb8146109b9578063eb6ed3301461099c578063ec691a5914610926578063f140b55f1461089d578063f2fa73921461084b578063f2fde38b146107bf578063f5260369146106ba578063fcf666641461067e578063fd4fe8a8146105ca578063ff4884f8146105025763ffc5a46f146104165750610010565b60603660031901126104ed578261042b612d9a565b92610434612db5565b926044356001600160401b0381116104fe576104539036908401613060565b9161046260ff6021541661324f565b61046c858761374e565b6104758661338b565b600e546001600160a01b0391908216803b156104fa57859283896104ba875198899687958694635dc447ed60e01b86521690840152886024840152604483019061329b565b03925af19081156104f157506104d9575b50506104d6916139c8565b80f35b6104e290612e05565b6104ed5782386104cb565b8280fd5b513d84823e3d90fd5b8580fd5b8380fd5b50346104ed57806003193601126104ed5761051b612d9a565b91610524612db5565b9061052d6131f1565b600a546001600160a01b039485916105489083163314613af5565b169283865260086020528520805491680100000000000000008310156105b757508161057a9160018794018155613179565b949092169382549060031b9185831b921b19161790557f4cda7c30666ce0c5304ba2d323cdee5f647baac385d8e0cb2f706641c95043af8380a380f35b634e487b7160e01b875260419052602486fd5b50346104ed5760203660031901126104ed576105e4612d9a565b6105ec6131c5565b6001600160a01b031691821561063c5750601a80546001600160a01b03191683179055519081527f60a886c8dc324af9c6d6a1bf7369ffe7557ef345eb5717bceffb59beac879a0a90602090a180f35b6020606492519162461bcd60e51b8352820152601860248201527f496e76616c69642072656e6465726572206164647265737300000000000000006044820152fd5b8382346106b65760203660031901126106b65760209181906001600160a01b036106a6612d9a565b168152601d845220549051908152f35b5080fd5b50346104ed576020806003193601126104fe576001600160a01b039281846106e0612d9a565b1694858752601582526106f98186892054163314613a6b565b600b541691602485518094819363d42fe23160e01b835233908301525afa9081156107b557600292610738600095936018938991610788575b50613a1f565b8587526015815282872080546001600160a01b031916905552842082815560018101839055015533907fc507cac5427f24391d3862582c450f4840191f3fb50ae93ea8eb3e5d0a27241a8380a380f35b6107a89150833d85116107ae575b6107a08183612e49565b810190613661565b38610732565b503d610796565b83513d87823e3d90fd5b5090346104ed5760203660031901126104ed576107da612d9a565b906107e36131c5565b6001600160a01b03918216928315610835575050600054826001600160601b0360a01b821617600055167f8be0079c531659141344cd1fd0a4f28419497f9722a3daafe3b4186f6b6457e0600080a380f35b51631e4fbdf760e01b8152908101849052602490fd5b8382346106b657806003193601126106b6576104d690610869612d9a565b906108726131b6565b9161087b6131c5565b60018060a01b03168452601760205283209060ff801983541691151516179055565b50346104ed5760203660031901126104ed5760206108b9612d9a565b600c54835163f140b55f60e01b81526001600160a01b039283169581019590955284916024918391165afa91821561091c57602093926108fd575b50519015158152f35b610915919250833d81116107ae576107a08183612e49565b90386108f4565b81513d85823e3d90fd5b8382346106b65760203660031901126106b65760207fa01edaa3cd8a419b7bb45b34f35e84da238af9490eca1b318cb579f3179e29e491610965612d9a565b61096d6131c5565b6001600160a01b031690610982821515613ab7565b600f80546001600160a01b0319168317905551908152a180f35b8382346106b657816003193601126106b657602090516103e88152f35b8382346106b65760203660031901126106b6576060916001600160a01b0391908190836109e4612d9a565b1681526018602052209081549260026001840154930154169181519384526020840152820152f35b8382346106b65760203660031901126106b65760207fcede453a12a109bc98cf30c47be25a27dcd045508461cc9e9669a0185b648b8991610a4b612d9a565b610a536131c5565b6001600160a01b031690610a68821515613ab7565b600d80546001600160a01b0319168317905551908152a180f35b509190346106b657610a9336613137565b610a9e9491946131f1565b60018060a01b03809516928385526020956014875283862054163303610c265783855260118652828520908251906001600160401b0382116105b75750610ae58254612dcb565b601f8111610be3575b5086601f8211600114610b69578697610b5893836003979694608094600080516020613b6c8339815191529a9b91610b5e575b508160011b91600019908a1b1c19161790555b84519585879687528601526255504360e81b60608601528401526080830190612fd9565b0390a280f35b905085015138610b21565b82875287872090601f198316885b818110610bcc575093600184608094600080516020613b6c8339815191529a9b9c9460039a9997610b589910610bb4575b5050811b019055610b34565b870151600019838c1b60f8161c191690553880610ba8565b91928a60018192868a015181550194019201610b77565b828752878720601f830160051c810191898410610c1c575b601f0160051c01905b818110610c115750610aee565b878155600101610c04565b9091508190610bfb565b825162461bcd60e51b8152908101869052601c60248201527f4f6e6c79206469737472696275746f722063616e2073657420555043000000006044820152606490fd5b8382346106b657816003193601126106b657600f5490516001600160a01b039091168152602090f35b8382346106b657816003193601126106b657602090601b549051908152f35b8382346106b65760203660031901126106b657610ccc612d9a565b600a546001600160a01b039190610ce69083163314613af5565b16825260196020528120805460ff1916600117905580f35b8382346106b65760203660031901126106b65760209160ff9082906001600160a01b03610d29612d9a565b1681526017855220541690519015158152f35b8382600319360112610d82576104d6610d53612d9a565b610d5b612db5565b90610d6a60ff6021541661324f565b610d74828261374e565b610d7d8161338b565b6139c8565b80fd5b5090346104ed5760203660031901126104ed576001600160a01b039081610daa612d9a565b1692838552601860205280852091815192610dc484612e2e565b80548452828560026001840154938460208901520154169401938452421115610e2c575060026000918587526018602052862082815582600182015501555116907ffbea9ba5ee98f3c8b5c04ea0c944ead3100801a041d88f0c7e90d404ddac1c6a8380a380f35b6020606492519162461bcd60e51b8352820152601d60248201527f52657669657720706572696f6420686173206e6f7420657870697265640000006044820152fd5b8382346106b657816003193601126106b657602090601c549051908152f35b8382346106b65760203660031901126106b6576020916001600160a01b0390829082610eb7612d9a565b168152601585522054169051908152f35b50346104ed5760203660031901126104ed57816020917f27ee93bf85897822eaa83c84de291bb575ef9d2bea9a01ddfc8326190940700493358092610f0b6131c5565b5551908152a180f35b5090346104ed57826003193601126104ed5760209250549051908152f35b5090346104ed57816003193601126104ed57610f4c612d9a565b91610f556131b6565b91610f5e6131f1565b6001600160a01b039384168086526014602052828620549094163303610fcd57507fb54df1287f3d7012d0c033203342de84104f09a34d968f171bff51825d6cf5449160209184865260168352610fc3828288209060ff801983541691151516179055565b519015158152a280f35b6020608492519162461bcd60e51b8352820152602c60248201527f4f6e6c79206469737472696275746f722063616e207365742061757468656e7460448201526b69636974792073746174757360a01b6064820152fd5b50346104ed5760203660031901126104ed576020611040612d9a565b600d54835163b5af090f60e01b81526001600160a01b039283169581019590955284916024918391165afa91821561091c57602093926108fd5750519015158152f35b50346104ed576020806003193601126104fe576001600160a01b039281846110a9612d9a565b1694858752601582526110c28186892054163314613a6b565b600b541691602485518094819363d42fe23160e01b835233908301525afa9081156107b5576002926111006000959360189389916107885750613a1f565b858752601481528287206001600160601b0360a01b90338282541617905560158252838820908154169055528420828155826001820155015533907f1ec2d15be1d4041a85003ee3860453fb0818606e3ccda6f18c41e692a25d5eea8380a380f35b8382346106b657816003193601126106b657600c5490516001600160a01b039091168152602090f35b8382346106b65760203660031901126106b65760207f39a2470dcb92def89f4d008f638ab6d63ac78547bf3d6ccfebf542711a0503c7916111ca612d9a565b6111d26131c5565b6001600160a01b0316906111e7821515613ab7565b600c80546001600160a01b0319168317905551908152a180f35b8382346106b65760203660031901126106b65760209160ff9082906001600160a01b0361122c612d9a565b1681526016855220541690519015158152f35b8382346106b65760203660031901126106b65760207f12e10e0acd0f94fc9b2d033a01586c1255f1d396a6a2ce1c02cc9fca057744589161127e612d9a565b6112866131c5565b6001600160a01b03169061129b821515613ab7565b600e80546001600160a01b0319168317905551908152a180f35b5090346104ed576112c536613137565b6112d09391936131f1565b6001600160a01b03938416808652601460209081528387205491959091163303611463578486526012815282862082516001600160401b038111611450576113188254612dcb565b601f811161140d575b5082601f82116001146113955792600080516020613b6c8339815191529695949282608093610b58968c9161138a575b508160011b916000199060031b1c19161790555b8451958587968752860152634953574360e01b60608601528401526080830190612fd9565b905085015138611351565b82895283892090601f1983168a5b8181106113f6575083610b589693600080516020613b6c8339815191529a99989693608096600194106113dd575b5050811b019055611365565b87015160001960f88460031b161c1916905538806113d1565b91928660018192868b0151815501940192016113a3565b828952838920601f830160051c810191858410611446575b601f0160051c01905b81811061143b5750611321565b89815560010161142e565b9091508190611425565b634e487b7160e01b885260418652602488fd5b8360649184519162461bcd60e51b8352820152601d60248201527f4f6e6c79206469737472696275746f722063616e2073657420495357430000006044820152fd5b8382346106b65760203660031901126106b65760207fc42d410f496ad2dfdbe03a4e5c1c714a8091596f6191b9b64a90d67d5f008990916114e46131a7565b6114ec6131c5565b15159060ff196006541660ff83161760065551908152a180f35b8382346106b65760203660031901126106b657611554916115419082906001600160a01b03611533612d9a565b168152601360205220612f13565b9051918291602083526020830190612fd9565b0390f35b8382346106b657816003193601126106b657905490516001600160a01b039091168152602090f35b5090346104ed5760203660031901126104ed577fd4d82b8c259d09036a9ed2baf6867c5e54dccab39d04fd233b20827303df5f129160209135906115c26131c5565b8160035551908152a180f35b8382346106b657816003193601126106b65760207f62e78cea01bee320cd4e420270b5ea74000d11b0c9f74754ebdbfc544b05a2589161160c6131c5565b6116146131f1565b835460ff60a01b1916600160a01b17845551338152a180f35b8382346106b65760203660031901126106b65760207fb5bb594c95eb864915724f4025ebea72bd6b2c96ee4243baceea4d04365efb689161166c6131a7565b6116746131c5565b15159060ff196021541660ff83161760215551908152a180f35b8382346106b657816003193601126106b657600a5490516001600160a01b039091168152602090f35b5050346106b65760203660031901126106b6576116d26131c5565b3560075580f35b5090346104ed5760203660031901126104ed577f295f11816c8a8a66cf041fb88e0e1fa756cb9017dffa76c760980a5d52a26cf291602091359061171b6131c5565b8160055551908152a180f35b8382346106b657816003193601126106b657602090601f549051908152f35b5090346104ed5760203660031901126104ed577f1848f86a1772cf74c666a7db07dd66df4942583c365ea0f63bf434245a56f3559160209135906117886131c5565b81601b5551908152a180f35b8334610d825780600319360112610d82576117ad6131c5565b600080546001600160a01b0319811682556001600160a01b03167f8be0079c531659141344cd1fd0a4f28419497f9722a3daafe3b4186f6b6457e08280a380f35b8382346106b657816003193601126106b65761155490611541612e6a565b8382346106b657816003193601126106b657601a5490516001600160a01b039091168152602090f35b8382346106b65760203660031901126106b65760209160ff9082906001600160a01b03611860612d9a565b1681526019855220541690519015158152f35b808484346119045760203660031901126119045761188f612d9a565b83546001600160a01b03908116331480156118f7575b6118ae90613212565b80600d5416803b156104fa5785928360249286519788958694633123fb7960e11b865216908401525af19081156104f157506118e75750f35b6118f090612e05565b610d825780f35b50600d54811633146118a5565b5050fd5b5090346104ed5760203660031901126104ed578035916119266131c5565b6103e88311611937575050601c5580f35b906020606492519162461bcd60e51b8352820152600c60248201526b08ccaca40e8dede40d0d2ced60a31b6044820152fd5b8382346106b657816003193601126106b65760ff6020925460a01c1690519015158152f35b828434610d82576020806003193601126106b6576001600160401b0383358181116104fe576119c09036908601613019565b936119c96131c5565b8451918211611ad957506119dd8254612dcb565b601f8111611a8a575b5081601f8211600114611a2057839482939492611a15575b50508160011b916000199060031b1c191617905580f35b0151905084806119fe565b828452600080516020613b4c83398151915290601f198316855b818110611a7357509583600195969710611a5a575b505050811b01905580f35b015160001960f88460031b161c19169055848080611a4f565b91928560018192868b015181550194019201611a3a565b828452600080516020613b4c833981519152601f830160051c810191848410611acf575b601f0160051c01905b818110611ac457506119e6565b848155600101611ab7565b9091508190611aae565b634e487b7160e01b845260419052602483fd5b50346104ed5760203660031901126104ed57813591611b096131c5565b8215611b415750816020917f7be9264fd4bacf6ffdd1cbfbe4fb3751923b2540828adf64102e4f5b096a7fe593601f5551908152a180f35b6020606492519162461bcd60e51b8352820152601f60248201527f4475726174696f6e206d7573742062652067726561746572207468616e2030006044820152fd5b5090346104ed57611b9336613137565b611b9e9391936131f1565b6001600160a01b03938416808652601460209081528387205491959091163303611d1e578486526013815282862082516001600160401b03811161145057611be68254612dcb565b601f8111611cdb575b5082601f8211600114611c635792600080516020613b6c8339815191529695949282608093610b58968c91611c58575b508160011b916000199060031b1c19161790555b8451958587968752860152634953434360e01b60608601528401526080830190612fd9565b905085015138611c1f565b82895283892090601f1983168a5b818110611cc4575083610b589693600080516020613b6c8339815191529a9998969360809660019410611cab575b5050811b019055611c33565b87015160001960f88460031b161c191690553880611c9f565b91928660018192868b015181550194019201611c71565b828952838920601f830160051c810191858410611d14575b601f0160051c01905b818110611d095750611bef565b898155600101611cfc565b9091508190611cf3565b8360649184519162461bcd60e51b8352820152601d60248201527f4f6e6c79206469737472696275746f722063616e2073657420495343430000006044820152fd5b8382346106b657806003193601126106b657611d7a612d9a565b6001600160a01b039081168352600860205281832080546024359490851015610d825750602093611daa91613179565b92905490519260031b1c168152f35b8382346106b65760203660031901126106b657611554916115419082906001600160a01b03611de6612d9a565b168152601260205220612f13565b5090346104ed57602090816003193601126104fe576001600160a01b0380611e1a612d9a565b1693848652601584528181872054163303611f405760248483600b541683519283809263d42fe23160e01b825233898301525afa908115611f365790611e66918891611f1f5750613a1f565b84865260158452808620926001600160601b0360a01b93848154169055601e54906201518091828102928184041490151715611f0c575090611eaa60029242613319565b815191611eb683612e2e565b428352868301918252601881840197338952898b5252882091518255516001820155019251169082541617905533907f0410af91d3fc953f1f383fde268b1cf5278d116a88123c657df6685f443359418380a380f35b634e487b7160e01b885260119052602487fd5b6107a89150863d88116107ae576107a08183612e49565b82513d89823e3d90fd5b6084939150519162461bcd60e51b8352820152602e60248201527f4f6e6c792070656e64696e67206469737472696275746f722063616e2061636360448201526d65707420666f722072657669657760901b6064820152fd5b5090346104ed57611fa936613137565b611fb49391936131f1565b6001600160a01b03938416808652601460209081528387205491959091163303612134578486526010815282862082516001600160401b03811161145057611ffc8254612dcb565b601f81116120f1575b5082601f82116001146120795792600080516020613b6c8339815191529695949282608093610b58968c9161206e575b508160011b916000199060031b1c19161790555b8451958587968752860152634953524360e01b60608601528401526080830190612fd9565b905085015138612035565b82895283892090601f1983168a5b8181106120da575083610b589693600080516020613b6c8339815191529a99989693608096600194106120c1575b5050811b019055612049565b87015160001960f88460031b161c1916905538806120b5565b91928660018192868b015181550194019201612087565b828952838920601f830160051c81019185841061212a575b601f0160051c01905b81811061211f5750612005565b898155600101612112565b9091508190612109565b8360649184519162461bcd60e51b8352820152601d60248201527f4f6e6c79206469737472696275746f722063616e2073657420495352430000006044820152fd5b8382346106b657816003193601126106b6576020906007549051908152f35b8382346106b657816003193601126106b6576020906002549051908152f35b5090346104ed57826003193601126104ed576121ce6131c5565b82549060ff8260a01c1615612214575060ff60a01b19168255513381527f5db9ee0a495bf2e6ff9c91a7834c1ba4fdd244a5e8aa4e537bd38aeae4b073aa90602090a180f35b8251638dfc202b60e01b8152fd5b8382346106b65760203660031901126106b6576020916001600160a01b039082908261224c612d9a565b168152601485522054169051908152f35b8382346106b6576020806003193601126104ed576001600160a01b039283612283612d9a565b1681526008825282812091835190818185549182815201908195855282852090855b8181106122f157505050826122bb910383612e49565b8451948186019282875251809352850193925b8281106122db5785850386f35b83518716855293810193928101926001016122ce565b82548a16845292840192600192830192016122a5565b8382346106b65760203660031901126106b6576020916001600160a01b0390829082612331612d9a565b1681526014855220541615159051908152f35b509190346106b657826003193601126106b65761235f612d9a565b612367612db5565b61236f6131c5565b6002600154146124f757600260015560018060a01b0380921691828552602091601d8352868620549485156124be57848752601d8452868881205584156000146124395786808080898787165af16123c561333c565b501561240057507f5e110f8bc8a20b65dcc87f224bdf1cc039346e267118bae2739847f07321ffa8939495965b519586521693a36001805580f35b875162461bcd60e51b81529081018490526013602482015272115512081d1c985b9cd9995c8819985a5b1959606a1b6044820152606490fd5b875163a9059cbb60e01b85820152828416602482015260448082018890528152979060808901906001600160401b0382118a8310176124a957507f5e110f8bc8a20b65dcc87f224bdf1cc039346e267118bae2739847f07321ffa8959697986124a491835287613679565b6123f2565b604190634e487b7160e01b6000525260246000fd5b875162461bcd60e51b815290810184905260136024820152724e6f206665657320746f20776974686472617760681b6044820152606490fd5b8451633ee5aeb560e01b81528390fd5b8382346106b657816003193601126106b657600e5490516001600160a01b039091168152602090f35b8382346106b65760203660031901126106b65760207f820c11a553e3f58735f11b502c4c13b5bdaad97e61b6fe3bafe7eaf4e09e94de9161256f612d9a565b6125776131c5565b6001600160a01b03169061258c821515613ab7565b600b80546001600160a01b0319168317905551908152a180f35b5090346104ed5760203660031901126104ed577fd2f394433244b5e41aa3a9cc6fae806b7ec98210c12b000cf879e113115c93299160209135906125e86131c5565b8160025551908152a180f35b50346104ed5760203660031901126104ed578261260f612d9a565b81546001600160a01b039190821633148015612671575b61262f90613212565b81600d541690813b156104fe5783602492865197889586946318313adf60e11b865216908401525af19081156104f15750612668575080f35b6104d690612e05565b50600d5482163314612626565b508290346106b65760031991606036840112610d82576001600160401b039380358581116104ed576126b39036908301613060565b6044356001600160a01b0381811696918790036128ac5780600e54163303612869579184939161270160a09694601a541692885197889563350f69b160e11b875286015260a485019061329b565b97602435602485015260448401528288030160648301528260209788549061272882612dcb565b91828252600190868c838316928360001461284957505050600114612801575b50505082809130608483015203915afa9485156127f557819561277c575b5050506115549051928284938452830190612fd9565b90919294503d8083853e6127908185612e49565b83019284818503126104ed5780519182116104ed570182601f820112156106b6578051916127bd83612ffe565b936127ca87519586612e49565b838552858484010111610d82575082916127ec91858061155496019101612fb6565b92908480612766565b508251903d90823e3d90fd5b8a87528a9350869290600080516020613b4c8339815191525b82851061282e57505050010182808b612748565b80548486018701528998508a97508c9590940193810161281a565b9196509392508594915060ff191683830152151560051b0101918b612748565b855162461bcd60e51b8152602081860152601f60248201527f4f6e6c79206d65746164617461206d6f64756c652063616e2072656e646572006044820152606490fd5b8480fd5b5090346104ed5760203660031901126104ed576128cb612d9a565b6128d36131c5565b6001600160a01b03169182156128fb5750506001600160601b0360a01b600a541617600a5580f35b906020606492519162461bcd60e51b8352820152601760248201527f496e76616c696420666163746f727920616464726573730000000000000000006044820152fd5b5090346104ed576020806003193601126104fe576001600160a01b039182612964612d9a565b16908451638da5cb5b60e01b815283818381865afa8015612aee5785918891612ac1575b50163303612a63578186526015835283858720541615612a20578290602485600b541695848952601584528789205416918751968793849263d42fe23160e01b84528301525afa928315612a16576015936129e99187916129ff5750613a1f565b845252812080546001600160a01b031916905580f35b6107a89150843d86116107ae576107a08183612e49565b84513d87823e3d90fd5b845162461bcd60e51b8152908101839052601a60248201527f4e6f2070656e64696e672072656c6561736520726571756573740000000000006044820152606490fd5b845162461bcd60e51b8152908101839052603260248201527f4f6e6c79207772617070656420736f6e67206f776e65722063616e2072656d6f6044820152711d99481c995b19585cd9481c995c5d595cdd60721b6064820152608490fd5b612ae19150853d8711612ae7575b612ad98183612e49565b81019061336c565b38612988565b503d612acf565b86513d89823e3d90fd5b8382346106b657816003193601126106b6576020906003549051908152f35b8382346106b65760203660031901126106b657611554916115419082906001600160a01b03612b44612d9a565b168152601060205220612f13565b5050346106b65760203660031901126106b657612b6d6131c5565b35601e5580f35b8382346106b65760203660031901126106b657611554916115419082906001600160a01b03612ba1612d9a565b168152601160205220612f13565b8382346106b657816003193601126106b657602090601e549051908152f35b8382346106b657816003193601126106b65760209060ff6021541690519015158152f35b8382346106b657816003193601126106b65760209060ff6006541690519015158152f35b8382346106b657816003193601126106b657600b5490516001600160a01b039091168152602090f35b8382346106b657816003193601126106b6576020906005549051908152f35b8382346106b65760203660031901126106b6576020916001600160a01b0390829082612c88612d9a565b168152600985522054169051908152f35b8382346106b657816003193601126106b657600d5490516001600160a01b039091168152602090f35b50346104ed57806003193601126104ed57612cdb612d9a565b91612ce4612db5565b92612ced6131f1565b600a546001600160a01b03929083163303612d4c575081169182855260096020528420921691826001600160601b0360a01b8254161790557f48e8ef3819015e9b1e8d36ddbbbc8cefc90dba7f69b711bdca0c9a10b63b037f8380a380f35b608490602085519162461bcd60e51b8352820152602260248201527f4f6e6c7920666163746f72792063616e2073657420746f6b656e206d617070696044820152616e6760f01b6064820152fd5b600435906001600160a01b0382168203612db057565b600080fd5b602435906001600160a01b0382168203612db057565b90600182811c92168015612dfb575b6020831014612de557565b634e487b7160e01b600052602260045260246000fd5b91607f1691612dda565b6001600160401b038111612e1857604052565b634e487b7160e01b600052604160045260246000fd5b606081019081106001600160401b03821117612e1857604052565b90601f801991011681019081106001600160401b03821117612e1857604052565b604051906000826020918254612e7f81612dcb565b80845290600190818116908115612ef35750600114612ea9575b5050612ea792500383612e49565b565b6000858152600080516020613b4c83398151915295935091905b818310612edb575050612ea793508201013880612e99565b85548884018501529485019487945091830191612ec3565b915050612ea794925060ff191682840152151560051b8201013880612e99565b9060405191826000825492612f2784612dcb565b908184526001948581169081600014612f935750600114612f50575050612ea792500383612e49565b9093915060005260209081600020936000915b818310612f7b575050612ea793508201013880612e99565b85548884018501529485019487945091830191612f63565b915050612ea794506020925060ff191682840152151560051b8201013880612e99565b60005b838110612fc95750506000910152565b8181015183820152602001612fb9565b90602091612ff281518092818552858086019101612fb6565b601f01601f1916010190565b6001600160401b038111612e1857601f01601f191660200190565b81601f82011215612db05780359061303082612ffe565b9261303e6040519485612e49565b82845260208383010111612db057816000926020809301838601378301015290565b91909160c081840312612db057604051906001600160401b039060c0830182811184821017612e185760405282948135838111612db057816130a3918401613019565b84526020820135838111612db057816130bd918401613019565b60208501526040820135838111612db057816130da918401613019565b60408501526060820135838111612db057816130f7918401613019565b60608501526080820135838111612db05781613114918401613019565b608085015260a0820135928311612db05760a0926131329201613019565b910152565b906040600319830112612db0576004356001600160a01b0381168103612db05791602435906001600160401b038211612db05761317691600401613019565b90565b80548210156131915760005260206000200190600090565b634e487b7160e01b600052603260045260246000fd5b600435908115158203612db057565b602435908115158203612db057565b6000546001600160a01b031633036131d957565b60405163118cdaa760e01b8152336004820152602490fd5b60ff60005460a01c1661320057565b60405163d93c066560e01b8152600490fd5b1561321957565b60405162461bcd60e51b815260206004820152600e60248201526d139bdd08185d5d1a1bdc9a5e995960921b6044820152606490fd5b1561325657565b60405162461bcd60e51b815260206004820152601f60248201527f52656c6561736573206172652063757272656e746c792064697361626c6564006044820152606490fd5b6131769160a06133086132f66132e46132d26132c0875160c0885260c0880190612fd9565b60208801518782036020890152612fd9565b60408701518682036040880152612fd9565b60608601518582036060870152612fd9565b60808501518482036080860152612fd9565b9201519060a0818403910152612fd9565b9190820180921161332657565b634e487b7160e01b600052601160045260246000fd5b3d15613367573d9061334d82612ffe565b9161335b6040519384612e49565b82523d6000602084013e565b606090565b90816020910312612db057516001600160a01b0381168103612db05790565b60035480156136205760065460ff16156135015750600d5460075460408051637c70c0a360e01b815260048101929092526001600160a01b03939092909160209182908290602490829089165afa9081156134f6579085916000916134d9575b501693841561348957600354928451936323b872dd60e01b8486015233602486015230604486015260648501526064845260a084018481106001600160401b03821117612e18577f29aebcd0c90b02b955331c453efc06d743e10d2655ab14c0fa2aaec13706f2149461346091875287613679565b60035486600052601d845261347a86600020918254613319565b905560035494519485521692a3565b835162461bcd60e51b815260048101839052602360248201527f4e6f2077686974656c697374656420737461626c65636f696e20617661696c61604482015262626c6560e81b6064820152608490fd5b6134f09150833d8511612ae757612ad98183612e49565b386133eb565b84513d6000823e3d90fd5b34106135db57600090818052601d60205260408220613521348254613319565b9055600354803411613569575b506040513481526001600160a01b03909116907f29aebcd0c90b02b955331c453efc06d743e10d2655ab14c0fa2aaec13706f21490602090a3565b34033481116135c7578280808093335af161358261333c565b501561358e573861352e565b60405162461bcd60e51b8152602060048201526011602482015270115512081c99599d5b990819985a5b1959607a1b6044820152606490fd5b634e487b7160e01b83526011600452602483fd5b60405162461bcd60e51b815260206004820152601860248201527f496e636f7272656374204554482066656520616d6f756e7400000000000000006044820152606490fd5b50503461362957565b60405162461bcd60e51b815260206004820152601060248201526f119959481b9bdd081c995c5d5a5c995960821b6044820152606490fd5b90816020910312612db057518015158103612db05790565b6000806136a29260018060a01b03169360208151910182865af161369b61333c565b90836136eb565b80519081151591826136d0575b50506136b85750565b60249060405190635274afe760e01b82526004820152fd5b6136e39250602080918301019101613661565b1538806136af565b90613712575080511561370057805190602001fd5b604051630a12f52160e11b8152600490fd5b81511580613745575b613723575090565b604051639996b31560e01b81526001600160a01b039091166004820152602490fd5b50803b1561371b565b60408051638da5cb5b60e01b81526004936020936001600160a01b0392908316919085818881865afa9081156139bd579084916000916139a0575b50163303613949578281169081156138fb573b156138aa578483600b541691602486518094819363d42fe23160e01b83528b8301525afa9081156134f65760009161388d575b501561382c57600052601483528160002054166137eb57505050565b5162461bcd60e51b815291820152601d60248201527f5772617070656420736f6e6720616c72656164792072656c6561736564000000604482015260649150fd5b50505162461bcd60e51b815291820152603560248201527f496e76616c6964206469737472696275746f722077616c6c65743a206e6f74206044820152747265676973746572656420696e20666163746f727960581b606482015260849150fd5b6138a49150853d87116107ae576107a08183612e49565b386137cf565b835162461bcd60e51b8152808701869052602560248201527f4469737472696275746f722077616c6c6574206d757374206265206120636f6e6044820152641d1c9858dd60da1b6064820152608490fd5b845162461bcd60e51b8152808801879052602260248201527f496e76616c6964206469737472696275746f722077616c6c6574206164647265604482015261737360f01b6064820152608490fd5b835162461bcd60e51b8152808701869052602b60248201527f4f6e6c79207772617070656420736f6e67206f776e65722063616e207265717560448201526a6573742072656c6561736560a81b6064820152608490fd5b6139b79150873d8911612ae757612ad98183612e49565b38613789565b85513d6000823e3d90fd5b6001600160a01b03908116600081815260156020526040812080546001600160a01b0319169390941692831790935533927fef84744274082261c3a861cf791747fa0ff5d32d6b7dad92e9f777118fc002899080a4565b15613a2657565b60405162461bcd60e51b815260206004820152601a60248201527f4469737472696275746f7220646f6573206e6f742065786973740000000000006044820152606490fd5b15613a7257565b60405162461bcd60e51b815260206004820152601b60248201527f4e6f74207468652070656e64696e67206469737472696275746f7200000000006044820152606490fd5b15613abe57565b60405162461bcd60e51b815260206004820152600f60248201526e496e76616c6964206164647265737360881b6044820152606490fd5b15613afc57565b60405162461bcd60e51b815260206004820152602160248201527f4f6e6c7920666163746f72792063616e20616464207772617070656420736f6e6044820152606760f81b6064820152608490fdfec97bfaf2f8ee708c303a06d134f5ecd8389ae0432af62dc132a24118292866bba7277ea7d4dbb8f0cc254f34cf3e4ac197629ee7789dfa02f6b28a887228909ba2646970667358221220a3303f36ea5a158d12cbe86697658f5e27ba0afff3951f0a37302c49f80ec24c64736f6c63430008140033",
  "linkReferences": {},
  "deployedLinkReferences": {}
}