{
  "_format": "hh-sol-artifact-1",
  "contractName": "WrappedSongSmartAccount",
  "sourceName": "contracts/protocol/NonUpgradable/WrappedSongSmartAccount.sol",
  "abi": [
    {
      "inputs": [],
      "stateMutability": "nonpayable",
      "type": "constructor"
    },
    {
      "inputs": [],
      "name": "InvalidInitialization",
      "type": "error"
    },
    {
      "inputs": [],
      "name": "NotInitializing",
      "type": "error"
    },
    {
      "inputs": [
        {
          "internalType": "address",
          "name": "owner",
          "type": "address"
        }
      ],
      "name": "OwnableInvalidOwner",
      "type": "error"
    },
    {
      "inputs": [
        {
          "internalType": "address",
          "name": "account",
          "type": "address"
        }
      ],
      "name": "OwnableUnauthorizedAccount",
      "type": "error"
    },
    {
      "inputs": [],
      "name": "ReentrancyGuardReentrantCall",
      "type": "error"
    },
    {
      "anonymous": false,
      "inputs": [
        {
          "indexed": true,
          "internalType": "address",
          "name": "newWrappedSongAddress",
          "type": "address"
        }
      ],
      "name": "ContractMigrated",
      "type": "event"
    },
    {
      "anonymous": false,
      "inputs": [
        {
          "indexed": true,
          "internalType": "uint256",
          "name": "epochId",
          "type": "uint256"
        },
        {
          "indexed": false,
          "internalType": "uint256",
          "name": "amount",
          "type": "uint256"
        },
        {
          "indexed": false,
          "internalType": "uint256",
          "name": "earningsPerShare",
          "type": "uint256"
        },
        {
          "indexed": false,
          "internalType": "bool",
          "name": "isETH",
          "type": "bool"
        }
      ],
      "name": "EarningsEpochProcessed",
      "type": "event"
    },
    {
      "anonymous": false,
      "inputs": [
        {
          "indexed": true,
          "internalType": "address",
          "name": "user",
          "type": "address"
        },
        {
          "indexed": false,
          "internalType": "uint256",
          "name": "fromEpoch",
          "type": "uint256"
        },
        {
          "indexed": false,
          "internalType": "uint256",
          "name": "toEpoch",
          "type": "uint256"
        },
        {
          "indexed": false,
          "internalType": "uint256",
          "name": "amount",
          "type": "uint256"
        },
        {
          "indexed": true,
          "internalType": "address",
          "name": "token",
          "type": "address"
        }
      ],
      "name": "EpochEarningsClaimed",
      "type": "event"
    },
    {
      "anonymous": false,
      "inputs": [
        {
          "indexed": false,
          "internalType": "uint64",
          "name": "version",
          "type": "uint64"
        }
      ],
      "name": "Initialized",
      "type": "event"
    },
    {
      "anonymous": false,
      "inputs": [
        {
          "indexed": true,
          "internalType": "address",
          "name": "previousOwner",
          "type": "address"
        },
        {
          "indexed": true,
          "internalType": "address",
          "name": "newOwner",
          "type": "address"
        }
      ],
      "name": "OwnershipTransferred",
      "type": "event"
    },
    {
      "inputs": [
        {
          "internalType": "uint256",
          "name": "maxEpochs",
          "type": "uint256"
        }
      ],
      "name": "claimETHEarnings",
      "outputs": [],
      "stateMutability": "nonpayable",
      "type": "function"
    },
    {
      "inputs": [
        {
          "internalType": "uint256",
          "name": "maxEpochs",
          "type": "uint256"
        }
      ],
      "name": "claimStablecoinEarnings",
      "outputs": [],
      "stateMutability": "nonpayable",
      "type": "function"
    },
    {
      "inputs": [
        {
          "internalType": "uint256",
          "name": "amount",
          "type": "uint256"
        },
        {
          "internalType": "address",
          "name": "recipient",
          "type": "address"
        }
      ],
      "name": "createBuyoutToken",
      "outputs": [],
      "stateMutability": "nonpayable",
      "type": "function"
    },
    {
      "inputs": [],
      "name": "createETHDistributionEpoch",
      "outputs": [],
      "stateMutability": "nonpayable",
      "type": "function"
    },
    {
      "inputs": [
        {
          "internalType": "string",
          "name": "contractURI",
          "type": "string"
        }
      ],
      "name": "createLegalContract",
      "outputs": [
        {
          "internalType": "uint256",
          "name": "",
          "type": "uint256"
        }
      ],
      "stateMutability": "nonpayable",
      "type": "function"
    },
    {
      "inputs": [
        {
          "internalType": "uint256",
          "name": "sharesAmount",
          "type": "uint256"
        }
      ],
      "name": "createSongShares",
      "outputs": [],
      "stateMutability": "nonpayable",
      "type": "function"
    },
    {
      "inputs": [],
      "name": "createStablecoinDistributionEpoch",
      "outputs": [],
      "stateMutability": "nonpayable",
      "type": "function"
    },
    {
      "inputs": [],
      "name": "ethBalance",
      "outputs": [
        {
          "internalType": "uint256",
          "name": "",
          "type": "uint256"
        }
      ],
      "stateMutability": "view",
      "type": "function"
    },
    {
      "inputs": [
        {
          "internalType": "uint256",
          "name": "index",
          "type": "uint256"
        }
      ],
      "name": "ethEarningsEpochs",
      "outputs": [
        {
          "components": [
            {
              "internalType": "uint256",
              "name": "epochId",
              "type": "uint256"
            },
            {
              "internalType": "uint256",
              "name": "amount",
              "type": "uint256"
            },
            {
              "internalType": "uint256",
              "name": "earningsPerShare",
              "type": "uint256"
            },
            {
              "internalType": "uint256",
              "name": "timestamp",
              "type": "uint256"
            },
            {
              "internalType": "address",
              "name": "sender",
              "type": "address"
            }
          ],
          "internalType": "struct IWrappedSongTypes.EarningsEpoch",
          "name": "",
          "type": "tuple"
        }
      ],
      "stateMutability": "view",
      "type": "function"
    },
    {
      "inputs": [
        {
          "internalType": "address",
          "name": "account",
          "type": "address"
        }
      ],
      "name": "getPendingETHEarnings",
      "outputs": [
        {
          "internalType": "uint256",
          "name": "",
          "type": "uint256"
        }
      ],
      "stateMutability": "view",
      "type": "function"
    },
    {
      "inputs": [],
      "name": "getPendingStablecoinDistribution",
      "outputs": [
        {
          "internalType": "uint256",
          "name": "",
          "type": "uint256"
        }
      ],
      "stateMutability": "view",
      "type": "function"
    },
    {
      "inputs": [
        {
          "internalType": "address",
          "name": "account",
          "type": "address"
        }
      ],
      "name": "getPendingStablecoinEarnings",
      "outputs": [
        {
          "internalType": "uint256",
          "name": "",
          "type": "uint256"
        }
      ],
      "stateMutability": "view",
      "type": "function"
    },
    {
      "inputs": [
        {
          "internalType": "address",
          "name": "account",
          "type": "address"
        }
      ],
      "name": "getUnclaimedETHEpochs",
      "outputs": [
        {
          "internalType": "uint256[]",
          "name": "epochIds",
          "type": "uint256[]"
        },
        {
          "internalType": "uint256[]",
          "name": "amounts",
          "type": "uint256[]"
        },
        {
          "internalType": "uint256[]",
          "name": "timestamps",
          "type": "uint256[]"
        },
        {
          "internalType": "string[]",
          "name": "sources",
          "type": "string[]"
        }
      ],
      "stateMutability": "view",
      "type": "function"
    },
    {
      "inputs": [
        {
          "internalType": "address",
          "name": "account",
          "type": "address"
        }
      ],
      "name": "getUnclaimedStablecoinEpochs",
      "outputs": [
        {
          "internalType": "uint256[]",
          "name": "epochIds",
          "type": "uint256[]"
        },
        {
          "internalType": "uint256[]",
          "name": "amounts",
          "type": "uint256[]"
        },
        {
          "internalType": "uint256[]",
          "name": "timestamps",
          "type": "uint256[]"
        },
        {
          "internalType": "string[]",
          "name": "sources",
          "type": "string[]"
        }
      ],
      "stateMutability": "view",
      "type": "function"
    },
    {
      "inputs": [],
      "name": "getWSTokenManagementAddress",
      "outputs": [
        {
          "internalType": "address",
          "name": "",
          "type": "address"
        }
      ],
      "stateMutability": "view",
      "type": "function"
    },
    {
      "inputs": [
        {
          "internalType": "address",
          "name": "account",
          "type": "address"
        },
        {
          "internalType": "address",
          "name": "token",
          "type": "address"
        }
      ],
      "name": "hasMoreEpochsToClaim",
      "outputs": [
        {
          "internalType": "bool",
          "name": "hasMore",
          "type": "bool"
        },
        {
          "internalType": "uint256",
          "name": "nextEpoch",
          "type": "uint256"
        },
        {
          "internalType": "uint256",
          "name": "totalEpochs",
          "type": "uint256"
        }
      ],
      "stateMutability": "view",
      "type": "function"
    },
    {
      "inputs": [
        {
          "internalType": "address",
          "name": "_stablecoinAddress",
          "type": "address"
        },
        {
          "internalType": "address",
          "name": "_owner",
          "type": "address"
        },
        {
          "internalType": "address",
          "name": "_protocolModuleAddress",
          "type": "address"
        }
      ],
      "name": "initialize",
      "outputs": [],
      "stateMutability": "nonpayable",
      "type": "function"
    },
    {
      "inputs": [],
      "name": "metadataModule",
      "outputs": [
        {
          "internalType": "contract IMetadataModule",
          "name": "",
          "type": "address"
        }
      ],
      "stateMutability": "view",
      "type": "function"
    },
    {
      "inputs": [
        {
          "internalType": "address",
          "name": "newMetadataAddress",
          "type": "address"
        },
        {
          "internalType": "address",
          "name": "newWrappedSongAddress",
          "type": "address"
        }
      ],
      "name": "migrateWrappedSong",
      "outputs": [],
      "stateMutability": "nonpayable",
      "type": "function"
    },
    {
      "inputs": [],
      "name": "migrated",
      "outputs": [
        {
          "internalType": "bool",
          "name": "",
          "type": "bool"
        }
      ],
      "stateMutability": "view",
      "type": "function"
    },
    {
      "inputs": [
        {
          "internalType": "address",
          "name": "operator",
          "type": "address"
        },
        {
          "internalType": "address",
          "name": "from",
          "type": "address"
        },
        {
          "internalType": "uint256[]",
          "name": "ids",
          "type": "uint256[]"
        },
        {
          "internalType": "uint256[]",
          "name": "values",
          "type": "uint256[]"
        },
        {
          "internalType": "bytes",
          "name": "data",
          "type": "bytes"
        }
      ],
      "name": "onERC1155BatchReceived",
      "outputs": [
        {
          "internalType": "bytes4",
          "name": "",
          "type": "bytes4"
        }
      ],
      "stateMutability": "pure",
      "type": "function"
    },
    {
      "inputs": [
        {
          "internalType": "address",
          "name": "operator",
          "type": "address"
        },
        {
          "internalType": "address",
          "name": "from",
          "type": "address"
        },
        {
          "internalType": "uint256",
          "name": "id",
          "type": "uint256"
        },
        {
          "internalType": "uint256",
          "name": "value",
          "type": "uint256"
        },
        {
          "internalType": "bytes",
          "name": "data",
          "type": "bytes"
        }
      ],
      "name": "onERC1155Received",
      "outputs": [
        {
          "internalType": "bytes4",
          "name": "",
          "type": "bytes4"
        }
      ],
      "stateMutability": "pure",
      "type": "function"
    },
    {
      "inputs": [],
      "name": "owner",
      "outputs": [
        {
          "internalType": "address",
          "name": "",
          "type": "address"
        }
      ],
      "stateMutability": "view",
      "type": "function"
    },
    {
      "inputs": [],
      "name": "protocolModule",
      "outputs": [
        {
          "internalType": "contract IProtocolModule",
          "name": "",
          "type": "address"
        }
      ],
      "stateMutability": "view",
      "type": "function"
    },
    {
      "inputs": [
        {
          "internalType": "address",
          "name": "token",
          "type": "address"
        },
        {
          "internalType": "uint256",
          "name": "amount",
          "type": "uint256"
        }
      ],
      "name": "receiveERC20",
      "outputs": [],
      "stateMutability": "nonpayable",
      "type": "function"
    },
    {
      "inputs": [],
      "name": "releaseModule",
      "outputs": [
        {
          "internalType": "contract IReleaseModule",
          "name": "",
          "type": "address"
        }
      ],
      "stateMutability": "view",
      "type": "function"
    },
    {
      "inputs": [],
      "name": "renounceOwnership",
      "outputs": [],
      "stateMutability": "nonpayable",
      "type": "function"
    },
    {
      "inputs": [
        {
          "internalType": "string",
          "name": "newSymbol",
          "type": "string"
        }
      ],
      "name": "setSymbol",
      "outputs": [],
      "stateMutability": "nonpayable",
      "type": "function"
    },
    {
      "inputs": [
        {
          "internalType": "address",
          "name": "_wsTokenManagement",
          "type": "address"
        }
      ],
      "name": "setWSTokenManagement",
      "outputs": [],
      "stateMutability": "nonpayable",
      "type": "function"
    },
    {
      "inputs": [],
      "name": "songSharesId",
      "outputs": [
        {
          "internalType": "uint256",
          "name": "",
          "type": "uint256"
        }
      ],
      "stateMutability": "view",
      "type": "function"
    },
    {
      "inputs": [],
      "name": "stablecoin",
      "outputs": [
        {
          "internalType": "contract IERC20",
          "name": "",
          "type": "address"
        }
      ],
      "stateMutability": "view",
      "type": "function"
    },
    {
      "inputs": [
        {
          "internalType": "uint256",
          "name": "index",
          "type": "uint256"
        }
      ],
      "name": "stablecoinEarningsEpochs",
      "outputs": [
        {
          "components": [
            {
              "internalType": "uint256",
              "name": "epochId",
              "type": "uint256"
            },
            {
              "internalType": "uint256",
              "name": "amount",
              "type": "uint256"
            },
            {
              "internalType": "uint256",
              "name": "earningsPerShare",
              "type": "uint256"
            },
            {
              "internalType": "uint256",
              "name": "timestamp",
              "type": "uint256"
            },
            {
              "internalType": "address",
              "name": "sender",
              "type": "address"
            }
          ],
          "internalType": "struct IWrappedSongTypes.EarningsEpoch",
          "name": "",
          "type": "tuple"
        }
      ],
      "stateMutability": "view",
      "type": "function"
    },
    {
      "inputs": [
        {
          "internalType": "bytes4",
          "name": "interfaceId",
          "type": "bytes4"
        }
      ],
      "name": "supportsInterface",
      "outputs": [
        {
          "internalType": "bool",
          "name": "",
          "type": "bool"
        }
      ],
      "stateMutability": "view",
      "type": "function"
    },
    {
      "inputs": [
        {
          "internalType": "address",
          "name": "newOwner",
          "type": "address"
        }
      ],
      "name": "transferOwnership",
      "outputs": [],
      "stateMutability": "nonpayable",
      "type": "function"
    },
    {
      "inputs": [
        {
          "internalType": "address",
          "name": "user",
          "type": "address"
        }
      ],
      "name": "userEpochBalances",
      "outputs": [
        {
          "components": [
            {
              "internalType": "uint256",
              "name": "lastClaimedEpoch",
              "type": "uint256"
            },
            {
              "internalType": "uint256",
              "name": "lastClaimedETHEpoch",
              "type": "uint256"
            }
          ],
          "internalType": "struct IWrappedSongTypes.EpochBalance",
          "name": "",
          "type": "tuple"
        }
      ],
      "stateMutability": "view",
      "type": "function"
    },
    {
      "inputs": [],
      "name": "wrappedSongTokenId",
      "outputs": [
        {
          "internalType": "uint256",
          "name": "",
          "type": "uint256"
        }
      ],
      "stateMutability": "view",
      "type": "function"
    },
    {
      "inputs": [],
      "name": "wsTokenManagement",
      "outputs": [
        {
          "internalType": "contract IWSTokenManagement",
          "name": "",
          "type": "address"
        }
      ],
      "stateMutability": "view",
      "type": "function"
    },
    {
      "stateMutability": "payable",
      "type": "receive"
    }
  ],
  "bytecode": "0x6080806040523462000126573315620001105760008054336001600160a01b03198216811783556040519290916001600160a01b0316907f8be0079c531659141344cd1fd0a4f28419497f9722a3daafe3b4186f6b6457e09080a3600180557ff0c57e16840df040f15088dc2f81fe391c3923bec73e23a9662efc9c229c6a009081549060ff8260401c166200010157506001600160401b036002600160401b031982821601620000bb575b60405161316e90816200012c8239f35b6001600160401b031990911681179091556040519081527fc7f505b2f371ae2175ee4913f4499e1f2633a7b5936321eed1cdaeb6115181d290602090a1808080620000ab565b63f92ee8a960e01b8152600490fd5b631e4fbdf760e01b815260006004820152602490fd5b600080fdfe6080604081815260049182361015610031575b505050361561002057600080fd5b61002c3460095461263a565b600955005b600092833560e01c91826301ffc9a7146122a3575081630a1c35a414611ee95781632514a5fb14611c725781632c678c6414611c4e5781632cc6d17b14611c0c5781633684d10014611be357816339fa62df14611ade57816343d0b50f14611abf5781634c2b957a14611a935781634e6630b014611a7457816351bcece214611a4d5781635c42e66714611a255781635d152b3614611a0657816365bb98b5146119dd5781636ab415c1146119b75781636d4645fd14611499578163715018a61461143f578163716f6e87146113ba57816382d5195c1461119b5781638da5cb5b146111735781639a5cb99d146103015781639d3bc4bd1461105b578163a2440fd514610faa578163aed4aab614610eb7578163b40b5e8214610e7e578163b84c824614610db2578163bc197c8114610d29578163bcb7130d14610b0b578163c0c53b8b1461077a578163c45f497e14610712578163d70a0abc1461032a578163df5afd2a14610301578163e9cbd822146102d8578163f23a6e611461027f578163f2fde38b1461022557508063f3baa17f146102075763fcd9b139146101d85780610012565b34610203576020366003190112610203576020906101fc6101f76122f6565b612f8d565b9051908152f35b5080fd5b50346102035781600319360112610203576020906007549051908152f35b90503461027b57602036600319011261027b576102406122f6565b916102496125a8565b6001600160a01b038316156102655783610262846125d4565b80f35b51631e4fbdf760e01b8152908101839052602490fd5b8280fd5b8284346102d55760a03660031901126102d55761029a6122f6565b506102a361230c565b50608435906001600160401b0382116102d557506020926102c69136910161257b565b50505163f23a6e6160e01b8152f35b80fd5b50503461020357816003193601126102035760035490516001600160a01b039091168152602090f35b50503461020357816003193601126102035760025490516001600160a01b039091168152602090f35b90503461027b578160031936011261027b576103446122f6565b9161034d61230c565b600e5460ff81166106cf576001600160a01b0382811695861561068c5781168015610649578160025416908115610606578287541693865180956366d0ead360e01b8252338a83015281602460209889935afa9081156105fc578b916105df575b50156105a45760ff1916600117600e55889493929190813b156105a057859160448392895194859384926335c282af60e21b84528d8401528d60248401525af1801561057e57908591610588575b505060035485516370a0823160e01b8152308882015291168282602481845afa91821561057e578592610547575b50816104c8575b5050504780610464575b82867f63a3a6504840fce1914d082b35c1578e92684e2412633097b92acce038d2b1ee8280a280f35b8280929181925af1610474612899565b50156104825783818061043b565b6104c492505191829162461bcd60e51b83528201606090602081526013602082015272115512081d1c985b9cd9995c8819985a5b1959606a1b60408201520190565b0390fd5b855163a9059cbb60e01b81526001600160a01b0385168189019081526020810193909352918391839182908890829060400103925af1801561053d5761050f575b80610431565b8161052e92903d10610536575b61052681836124a7565b8101906126a9565b503880610509565b503d61051c565b85513d86823e3d90fd5b945090508184813d8111610577575b61056081836124a7565b8101031261057257879351903861042a565b600080fd5b503d610556565b86513d87823e3d90fd5b6105919061245e565b61059c5783386103fc565b8380fd5b8580fd5b865162461bcd60e51b8152808901869052601560248201527410d85b1b195c881b9bdd08185d5d1a1bdc9a5e9959605a1b6044820152606490fd5b6105f69150863d88116105365761052681836124a7565b386103ae565b88513d8d823e3d90fd5b855162461bcd60e51b8152602081890152601960248201527f5753546f6b656e4d616e6167656d656e74206e6f7420736574000000000000006044820152606490fd5b845162461bcd60e51b8152602081880152601860248201527f496e76616c6964206d65746164617461206164647265737300000000000000006044820152606490fd5b845162461bcd60e51b8152602081880181905260248201527f496e76616c6964206e6577207772617070656420736f6e6720616464726573736044820152606490fd5b825162461bcd60e51b8152602081860152601960248201527f436f6e747261637420616c7265616479206d69677261746564000000000000006044820152606490fd5b50503461020357602036600319011261020357809161072f6122f6565b816020845161073d81612471565b828152015260018060a01b03168152600b60205220600181549101546020835161076681612471565b838152019081528251918252516020820152f35b9190503461027b57606036600319011261027b576107966122f6565b9061079f61230c565b6001600160a01b039360443585811694929190859003610572577ff0c57e16840df040f15088dc2f81fe391c3923bec73e23a9662efc9c229c6a009586549360ff85871c1615946001600160401b03811680159081610b03575b6001149081610af9575b159081610af0575b50610ae05767ffffffffffffffff198116600117895585610ac1575b508615610a7e578116928315610a3b5781811615610a005782546001600160a01b0319808216891785558751623684d160e81b8152602099919591928c918b818581885afa9081156109f6579187859285948f96916109b9575b50168960055416176005558b51958693849263670d296960e11b845216175afa9182156105fc5791899185938d9261098a575b5089516365bb98b560e01b81529586928391165afa8015610980578a90610942575b6108ea9350168360065416176006556125d4565b6003541617600355846008556001600755610903578380f35b7fc7f505b2f371ae2175ee4913f4499e1f2633a7b5936321eed1cdaeb6115181d29268ff00000000000000001981541690555160018152a13880808380f35b50918781813d8311610979575b61095981836124a7565b810103126109755751918083168303610975576108ea926108d6565b8980fd5b503d61094f565b87513d8c823e3d90fd5b6109ab919250833d85116109b2575b6109a381836124a7565b81019061261b565b90386108b4565b503d610999565b935050509281813d83116109ef575b6109d281836124a7565b8101031261020357518681168103610203578b9287859238610881565b503d6109c8565b8b513d85823e3d90fd5b855162461bcd60e51b81526020818501526015602482015274496e76616c6964206f776e6572206164647265737360581b6044820152606490fd5b855162461bcd60e51b8152602081850152601a60248201527f496e76616c696420737461626c65636f696e20616464726573730000000000006044820152606490fd5b855162461bcd60e51b8152602081850152601f60248201527f496e76616c69642070726f746f636f6c206d6f64756c652061646472657373006044820152606490fd5b68ffffffffffffffffff19166801000000000000000117885538610827565b865163f92ee8a960e01b81528490fd5b9050153861080b565b303b159150610803565b8791506107f9565b83833461020357610b1b366124e3565b82546001600160a01b0390811633148015610cc6575b15610c6b576002541682519463bd85b03960e01b86526003818701526020958681602481865afa908115610c61578691610c34575b50610be6579185918286610b949587519687958694859363bcb7130d60e01b85528401526024830190612356565b03925af1928315610bdb5792610bac575b5051908152f35b9091508281813d8311610bd4575b610bc481836124a7565b8101031261057257519083610ba5565b503d610bba565b8251903d90823e3d90fd5b835162461bcd60e51b8152908101869052602260248201527f4c6567616c20636f6e747261637420616c726561647920696e697469616c697a604482015261195960f21b6064820152608490fd5b90508681813d8311610c5a575b610c4b81836124a7565b81010312610572575187610b66565b503d610c41565b85513d88823e3d90fd5b825162461bcd60e51b8152602081870152602f60248201527f43616c6c6572206973206e6f74206f776e6572206f722077726170706564207360448201526e37b733903234b9ba3934b13aba37b960891b6064820152608490fd5b50602460208260065416855192838092633aa690e760e01b8252308b8301525afa908115610d1f579082918691610d01575b50163314610b31565b610d19915060203d81116109b2576109a381836124a7565b87610cf8565b84513d87823e3d90fd5b8284346102d55760a03660031901126102d557610d446122f6565b50610d4d61230c565b506001600160401b039060443582811161020357610d6e903690860161254b565b505060643582811161020357610d87903690860161254b565b50506084359182116102d55750602092610da39136910161257b565b50505163bc197c8160e01b8152f35b8391503461020357610dc3366124e3565b90610dcc6125a8565b815115610e425792829360018060a01b036002541692833b15610e3e57610e129360208680948651978895869485936329bfa98960e11b85528401526024830190612356565b03925af1908115610e355750610e255750f35b610e2e9061245e565b6102d55780f35b513d84823e3d90fd5b8480fd5b606490602085519162461bcd60e51b8352820152601660248201527553796d626f6c2063616e6e6f7420626520656d70747960501b6044820152fd5b50503461020357602036600319011261020357610eb390610ea5610ea06122f6565b612c3c565b919492935194859485612396565b0390f35b90503461027b578160031936011261027b57610ed16122f6565b60243591610ee460ff600e54161561265d565b6003546001600160a01b0392831692168203610f775784916064602092865194859384926323b872dd60e01b845233908401523060248401528760448401525af1928315610f6e5750610f4a92610f42918591610f50575b506126c1565b600a5461263a565b600a5580f35b610f68915060203d81116105365761052681836124a7565b38610f3c565b513d85823e3d90fd5b606490602085519162461bcd60e51b8352820152600d60248201526c24b73b30b634b2103a37b5b2b760991b6044820152fd5b9190503461027b57602036600319011261027b57610eb39250610fcb61310d565b50610fd682356127e6565b5080549260018201549160028101549060038101549260018060a01b0391015416928451956110048761242d565b8652602086015283850152606084015260808301525191829182919091608060a0820193805183526020810151602084015260408101516040840152606081015160608401528160018060a01b0391015116910152565b8391503461020357826003193601126102035761107661230c565b9261107f6125a8565b60018060a01b0391826002541694825163bd85b03960e01b815260028382015260209081816024818b5afa90811561116957879161113c575b506110fb57508585963b156105a05785928360449286519788958694639d3bc4bd60e01b86528035908601521660248401525af1908115610e355750610e255750f35b809150606493519262461bcd60e51b845283015260248201527f4275796f757420746f6b656e20616c726561647920696e697469616c697a65646044820152fd5b90508181813d8311611162575b61115381836124a7565b810103126105725751886110b8565b503d611149565b85513d89823e3d90fd5b505034610203578160031936011261020357905490516001600160a01b039091168152602090f35b9190503461027b578260031936011261027b576111bd60ff600e54161561265d565b6009549081156113815760018060a01b038060025416600754835191829163bd85b03960e01b83528783015281602460209485935afa90811561137757879161134a575b5061120d8115156130cf565b670de0b6b3a76400008502670de0b6b3a763ffff1986820401611337579061123491612879565b91600c549084516112448161242d565b82815283810187815286820186815260608301914283526080840195338752600160401b8110156113225780600161127f9201600c556127e6565b94909461130e57518455516001840155516002830155516003820155915191870180546001600160a01b03191691909216179055600c546000198101959086116112fb575082519384528301526001908201527f77841c1ae75de1a1c173cb7ffd7f1dc25d09aca1e636b17a232b67072624bab890606090a280f35b634e487b7160e01b875260119052602486fd5b60008c634e487b7160e01b82525260246000fd5b60418c634e487b7160e01b6000525260246000fd5b634e487b7160e01b885260118752602488fd5b90508181813d8311611370575b61136181836124a7565b81010312610572575138611201565b503d611357565b84513d89823e3d90fd5b5162461bcd60e51b815260208184015260146024820152734e6f2045544820746f206469737472696275746560601b6044820152606490fd5b9190503461027b57602036600319011261027b576113d66122f6565b600254926001600160a01b039283851661140657505016906bffffffffffffffffffffffff60a01b161760025580f35b906020606492519162461bcd60e51b8352820152601360248201527215d4d51bdad95b88185b1c9958591e481cd95d606a1b6044820152fd5b83346102d557806003193601126102d5576114586125a8565b600080546001600160a01b0319811682556001600160a01b03167f8be0079c531659141344cd1fd0a4f28419497f9722a3daafe3b4186f6b6457e08280a380f35b9190503461027b576020918260031936011261059c578035916114ba6128c9565b6114c960ff600e54161561265d565b6002546007548251627eeac760e11b8152338582019081526020810183905291946001600160a01b0390931692918790829081906040010381865afa90811561196d57889161198a575b50158015906118ea575b6115269061270c565b338752600b86526001958684892001908782549788600c5461154982821161274a565b82156118c45790611559916126ff565b808210156118bd57505b9490505b8996888a5b6116d4575b5050508515611692576009548611611650575061158e838761263a565b905561159c846009546126ff565b6009558680808087335af16115af612899565b501561160e5750917f33508fa3c05f271d76112f2a1c190707f316b34540511262f6d62bff50a02854916116066115e88695899761263a565b91519283923396846040919493926060820195825260208201520152565b0390a3805580f35b6104c490835191829162461bcd60e51b83528201606090602081526013602082015272115512081d1c985b9cd9995c8819985a5b1959606a1b60408201520190565b8260649186519162461bcd60e51b8352820152601d60248201527f496e73756666696369656e7420636f6e74726163742062616c616e63650000006044820152fd5b8260649186519162461bcd60e51b8352820152601860248201527f4e6f20455448206561726e696e677320746f20636c61696d00000000000000006044820152fd5b6116de878b61263a565b8110156118b8576116f76116f1826127e6565b50612821565b6060818101518a51630c4db40d60e31b815233818b019081526020810187905260408101929092528f929091889183918291010381895afa9182156118ad57908e969594939261187c575b508061175c575b505061175490612786565b90919261156c565b909a9192939450898b0161177b611774825184612866565b9283612879565b90510361183957670de0b6b3a76400008691049a01518a116117f657896117a19161263a565b9889106117b357908a92913880611749565b875162461bcd60e51b8152808701859052601860248201527f546f74616c20756e636c61696d6564206f766572666c6f7700000000000000006044820152606490fd5b885162461bcd60e51b8152808801869052601a60248201527f53686172652063616c63756c6174696f6e206f766572666c6f770000000000006044820152606490fd5b895162461bcd60e51b8152808901879052601760248201527f4d756c7469706c69636174696f6e206f766572666c6f770000000000000000006044820152606490fd5b809650878092503d83116118a6575b61189581836124a7565b81010312610572578c945138611742565b503d61188b565b8b51903d90823e3d90fd5b611571565b9050611563565b6118ce92506126ff565b806032106000146118e5575060325b949050611567565b6118dd565b506000194201428111611977578351630c4db40d60e31b815233838201908152602081018790526040810192909252908790829081906060010381865afa801561196d57889061193e575b1515905061151d565b508681813d8311611966575b61195481836124a7565b81010312610572576115269051611935565b503d61194a565b84513d8a823e3d90fd5b634e487b7160e01b885260118252602488fd5b90508681813d83116119b0575b6119a181836124a7565b81010312610572575138611513565b503d611997565b505034610203576020366003190112610203576020906101fc6119d86122f6565b612de3565b50503461020357816003193601126102035760065490516001600160a01b039091168152602090f35b505034610203578160031936011261020357602090600a549051908152f35b90503461027b578260031936011261027b575490516001600160a01b03909116815260209150f35b50503461020357602036600319011261020357610eb390610ea5611a6f6122f6565b6129f9565b5050346102035781600319360112610203576020906009549051908152f35b9190503461027b57602036600319011261027b57610eb39250611ab461310d565b50610fd68235612795565b5050346102035781600319360112610203576020906008549051908152f35b838334610203576020928360031936011261027b57600254825163bd85b03960e01b81526001838201526001600160a01b03909116908581602481855afa908115610d1f578591611bb6575b50611b7457839450803b15611b6f5760248492845195869384926339fa62df60e01b84528035908401525af1908115610e355750611b66575080f35b6102629061245e565b505050fd5b5083606492519162461bcd60e51b8352820152601a60248201527f53686172657320616c726561647920696e697469616c697a65640000000000006044820152fd5b90508581813d8311611bdc575b611bcd81836124a7565b81010312610e3e575186611b2a565b503d611bc3565b50503461020357816003193601126102035760055490516001600160a01b039091168152602090f35b505034610203578060031936011261020357606090611c3a611c2c6122f6565b611c3461230c565b906128ec565b919290815193151584526020840152820152f35b50503461020357816003193601126102035760209060ff600e541690519015158152f35b9190503461027b578260031936011261027b57611c9460ff600e54161561265d565b600a54908115611ea757600254600754825163bd85b03960e01b8152858101919091526020936001600160a01b039260249290869082908590829088165afa908115611e9d578891611e6c575b50611ced8115156130cf565b670de0b6b3a76400008202670de0b6b3a763ffff1983820401611e5a5790611d1491612879565b600d54909390918215611e55576000198301838111611e4357906001611d3c611d4493612795565b50015461263a565b855190611d508261242d565b83825287820190815286820186815260608301914283526080840195338752600160401b811015611e3157806001611d8b9201600d55612795565b949094611e2057518455516001840155516002830155516003820155915191870180546001600160a01b03191691909216179055600d54600019810195908611611e0f57505091846060927f77841c1ae75de1a1c173cb7ffd7f1dc25d09aca1e636b17a232b67072624bab894600a54938251948552840152820152a280600a5580f35b634e487b7160e01b87526011905285fd5b634e487b7160e01b8d528c8c52878dfd5b634e487b7160e01b8d5260418c52878dfd5b634e487b7160e01b8a5260118952848afd5b611d44565b634e487b7160e01b8952601188528389fd5b90508581813d8311611e96575b611e8381836124a7565b81010312611e92575138611ce1565b8780fd5b503d611e79565b85513d8a823e3d90fd5b5162461bcd60e51b8152602081840152601d60248201527f4e6f206e6577206561726e696e677320746f20646973747269627574650000006044820152606490fd5b90503461027b5760208060031936011261059c57813591611f086128c9565b611f1760ff600e54161561265d565b6002546007548551627eeac760e11b8152338185019081526020810183905291936001600160a01b0393841693929091908690829081906040010381875afa908115612259578991612276575b50158015906121d2575b611f779061270c565b338852600b8552868820805496600d5490611f9389831161274a565b80156121c757611fa4905b8961263a565b90808210156121c057505b938995885b8681106120cf575b505050841561208c57839055600354875163a9059cbb60e01b815233928101928352602083018690529291869184918290036040019082908c9086165af1948515612082577f33508fa3c05f271d76112f2a1c190707f316b34540511262f6d62bff50a028549561205b93612039928b92612065575b50506126c1565b6003541695519283923396846040919493926060820195825260208201520152565b0390a36001805580f35b61207b9250803d106105365761052681836124a7565b3880612032565b87513d8a823e3d90fd5b875162461bcd60e51b8152808301879052601f60248201527f4e6f20737461626c65636f696e206561726e696e677320746f20636c61696d006044820152606490fd5b620186a05a106121b2578b8b6120e76116f184612795565b6060818101518351630c4db40d60e31b815233818c01908152602081018990526040810192909252918e91839182910103818a5afa9384156121a75793612170575b5082612141575b50505061213c90612786565b611fb4565b6121606121679361213c959c93670de0b6b3a764000093015190612866565b049061263a565b97908b38612130565b8c809294508193503d83116121a0575b61218a81836124a7565b8101031261219c578c90519138612129565b8d80fd5b503d612180565b8351903d90823e3d90fd5b929550505092388080611fbc565b9050611faf565b50611fa46032611f9e565b506000194201428111612263578751630c4db40d60e31b815233838201908152602081018790526040810192909252908690829081906060010381875afa8015612259578990612226575b15159050611f6e565b508581813d8311612252575b61223c81836124a7565b8101031261224e57611f77905161221d565b8880fd5b503d612232565b88513d8b823e3d90fd5b634e487b7160e01b895260118252602489fd5b90508581813d831161229c575b61228d81836124a7565b8101031261224e575138611f64565b503d612283565b84913461027b57602036600319011261027b573563ffffffff60e01b811680910361027b5760209250630271189760e51b81149081156122e5575b5015158152f35b6301ffc9a760e01b149050836122de565b600435906001600160a01b038216820361057257565b602435906001600160a01b038216820361057257565b90815180825260208080930193019160005b828110612342575050505090565b835185529381019392810192600101612334565b919082519283825260005b848110612382575050826000602080949584010152601f8019910116010190565b602081830181015184830182015201612361565b926123be6123af6123cc93608087526080870190612322565b60209486820386880152612322565b908482036040860152612322565b9160608184039101528251908183528083019281808460051b8301019501936000915b8483106123ff5750505050505090565b909192939495848061241d600193601f198682030187528a51612356565b98019301930191949392906123ef565b60a081019081106001600160401b0382111761244857604052565b634e487b7160e01b600052604160045260246000fd5b6001600160401b03811161244857604052565b604081019081106001600160401b0382111761244857604052565b602081019081106001600160401b0382111761244857604052565b90601f801991011681019081106001600160401b0382111761244857604052565b6001600160401b03811161244857601f01601f191660200190565b6020600319820112610572576004356001600160401b03811161057257816023820112156105725780600401359061251a826124c8565b9261252860405194856124a7565b828452602483830101116105725781600092602460209301838601378301015290565b9181601f84011215610572578235916001600160401b038311610572576020808501948460051b01011161057257565b9181601f84011215610572578235916001600160401b038311610572576020838186019501011161057257565b6000546001600160a01b031633036125bc57565b60405163118cdaa760e01b8152336004820152602490fd5b600080546001600160a01b039283166001600160a01b03198216811783559216907f8be0079c531659141344cd1fd0a4f28419497f9722a3daafe3b4186f6b6457e09080a3565b9081602091031261057257516001600160a01b03811681036105725790565b9190820180921161264757565b634e487b7160e01b600052601160045260246000fd5b1561266457565b60405162461bcd60e51b815260206004820152601a60248201527f436f6e747261637420686173206265656e206d696772617465640000000000006044820152606490fd5b90816020910312610572575180151581036105725790565b156126c857565b60405162461bcd60e51b815260206004820152600f60248201526e151c985b9cd9995c8819985a5b1959608a1b6044820152606490fd5b9190820391821161264757565b1561271357565b60405162461bcd60e51b815260206004820152600f60248201526e139bc81cda185c995cc81bdddb9959608a1b6044820152606490fd5b1561275157565b60405162461bcd60e51b815260206004820152600d60248201526c4e6f206e65772065706f63687360981b6044820152606490fd5b60001981146126475760010190565b600d548110156127d057600590600d600052027fd7b6990105719101dabeb77144f2a3385c8033acd3af97e9423a695e81ad1eb50190600090565b634e487b7160e01b600052603260045260246000fd5b600c548110156127d057600590600c600052027fdf6966c971051c3d54ec59162606531493a51404a002842f56009d7e5cf4a8c70190600090565b9060405161282e8161242d565b825481526001830154602082015260028301546040820152600383015460608201526004909201546001600160a01b03166080830152565b8181029291811591840414171561264757565b8115612883570490565b634e487b7160e01b600052601260045260246000fd5b3d156128c4573d906128aa826124c8565b916128b860405193846124a7565b82523d6000602084013e565b606090565b6002600154146128da576002600155565b604051633ee5aeb560e01b8152600490fd5b6001600160a01b039081166000908152600b6020526040812091909216159290831561294b5760010154925b156129425782600c545b81811161293157505081929190565b61293c9293506126ff565b60019291565b82600d54612922565b5492612918565b6001600160401b0381116124485760051b60200190565b9061297382612952565b61298060405191826124a7565b8281528092612991601f1991612952565b0190602036910137565b906129a582612952565b6129b260405191826124a7565b82815280926129c3601f1991612952565b019060005b8281106129d457505050565b8060606020809385010152016129c8565b80518210156127d05760209160051b010190565b600254600754604051627eeac760e11b81526001600160a01b0384811660048301526024820183905293949284169391929190602081604481885afa908115612baf57600091612c0a575b5015612bbb578416600052600b602052600160406000200154600c54612a72612a6d83836126ff565b612969565b91612a80612a6d82846126ff565b96612a8e612a6d83856126ff565b96612aa1612a9c84866126ff565b61299b565b96835b858110612ab75750505050505093929190565b612ac36116f1826127e6565b8051612ad8612ad288856126ff565b8a6129e5565b526060810151604051630c4db40d60e31b81526001600160a01b0387166004820152602481018590526044810191909152602081606481885afa8015612baf578d91600091612b79575b5091606091612b58670de0b6b3a7640000612b46612b749796604086015190612866565b0491612b528b876126ff565b906129e5565b520151612b6e612b6888846126ff565b8d6129e5565b52612786565b612aa4565b91506020823d602011612ba7575b81612b94602093836124a7565b810103126102d55750518c906060612b22565b3d9150612b87565b6040513d6000823e3d90fd5b509250505060405190612bcd8261248c565b6000825260405191612bde8361248c565b6000835260405191612bef8361248c565b6000835260405191612c008361248c565b6000835293929190565b906020823d602011612c34575b81612c24602093836124a7565b810103126102d557505138612a44565b3d9150612c17565b600254600754604051627eeac760e11b81526001600160a01b0384811660048301526024820183905293949284169391929190602081604481885afa908115612baf57600091612db1575b5015612bbb578416600052600b602052604060002054600d54612cad612a6d83836126ff565b91612cbb612a6d82846126ff565b96612cc9612a6d83856126ff565b96612cd7612a9c84866126ff565b96835b858110612ced5750505050505093929190565b612cf96116f182612795565b8051612d08612ad288856126ff565b526060810151604051630c4db40d60e31b81526001600160a01b0387166004820152602481018590526044810191909152602081606481885afa8015612baf578d91600091612d7b575b5091606091612b58670de0b6b3a7640000612b46612d769796604086015190612866565b612cda565b91506020823d602011612da9575b81612d96602093836124a7565b810103126102d55750518c906060612d52565b3d9150612d89565b906020823d602011612ddb575b81612dcb602093836124a7565b810103126102d557505138612c87565b3d9150612dbe565b60025460075460408051627eeac760e11b81526001600160a01b0385811660048084019190915260248301859052939594811694602094909290919085816044818a5afa908115612f8257600091612f55575b5015612f495782919694939216600052600b8352600182600020015495600c5494600097965b868810612e6e57505050505050505090565b9091929394959697612ec2612e856116f18b6127e6565b6060818101518951630c4db40d60e31b81526001600160a01b038a16898201908152602081018990526040810192909252938b9285928392910190565b0381875afa918215612f3e57908891600093612f0a575b50612160612ef893612efe9593670de0b6b3a764000093015190612866565b98612786565b96959493929190612e5c565b9150918982813d8311612f37575b612f2281836124a7565b810103126102d5575051908790612160612ed9565b503d612f18565b88513d6000823e3d90fd5b50505050505050600090565b908682813d8311612f7b575b612f6b81836124a7565b810103126102d557505138612e36565b503d612f61565b85513d6000823e3d90fd5b60025460075460408051627eeac760e11b81526001600160a01b0385811660048084019190915260248301859052939594811694602094909290919085816044818a5afa908115612f82576000916130a2575b5015612f495782919694939216600052600b8352816000205495600d5494600097965b86881061301557505050505050505090565b909192939495969761302c612e856116f18b612795565b0381875afa918215612f3e5790889160009361306e575b50612160612ef8936130629593670de0b6b3a764000093015190612866565b96959493929190613003565b9150918982813d831161309b575b61308681836124a7565b810103126102d5575051908790612160613043565b503d61307c565b908682813d83116130c8575b6130b881836124a7565b810103126102d557505138612fe0565b503d6130ae565b156130d657565b60405162461bcd60e51b815260206004820152600f60248201526e139bc81cda185c995cc8195e1a5cdd608a1b6044820152606490fd5b6040519061311a8261242d565b6000608083828152826020820152826040820152826060820152015256fea2646970667358221220712f52be6a54ec06f93f0ba7b9524b309d8b714378aa8a66272b03c73304b49864736f6c63430008140033",
  "linkReferences": {},
  "deployedLinkReferences": {}
}