{
  "_format": "hh-sol-artifact-1",
  "contractName": "WrappedSongSmartAccount",
  "sourceName": "contracts/protocol/NonUpgradable/WrappedSongSmartAccount.sol",
  "abi": [
    {
      "inputs": [
        {
          "internalType": "address",
          "name": "_protocolModuleAddress",
          "type": "address"
        }
      ],
      "stateMutability": "nonpayable",
      "type": "constructor"
    },
    {
      "inputs": [],
      "name": "InvalidInitialization",
      "type": "error"
    },
    {
      "inputs": [],
      "name": "NotInitializing",
      "type": "error"
    },
    {
      "inputs": [
        {
          "internalType": "address",
          "name": "owner",
          "type": "address"
        }
      ],
      "name": "OwnableInvalidOwner",
      "type": "error"
    },
    {
      "inputs": [
        {
          "internalType": "address",
          "name": "account",
          "type": "address"
        }
      ],
      "name": "OwnableUnauthorizedAccount",
      "type": "error"
    },
    {
      "inputs": [],
      "name": "ReentrancyGuardReentrantCall",
      "type": "error"
    },
    {
      "anonymous": false,
      "inputs": [
        {
          "indexed": true,
          "internalType": "address",
          "name": "newWrappedSongAddress",
          "type": "address"
        }
      ],
      "name": "ContractMigrated",
      "type": "event"
    },
    {
      "anonymous": false,
      "inputs": [
        {
          "indexed": true,
          "internalType": "uint256",
          "name": "epochId",
          "type": "uint256"
        },
        {
          "indexed": false,
          "internalType": "uint256",
          "name": "amount",
          "type": "uint256"
        },
        {
          "indexed": false,
          "internalType": "uint256",
          "name": "earningsPerShare",
          "type": "uint256"
        },
        {
          "indexed": false,
          "internalType": "bool",
          "name": "isETH",
          "type": "bool"
        }
      ],
      "name": "EarningsEpochProcessed",
      "type": "event"
    },
    {
      "anonymous": false,
      "inputs": [
        {
          "indexed": true,
          "internalType": "address",
          "name": "user",
          "type": "address"
        },
        {
          "indexed": false,
          "internalType": "uint256",
          "name": "fromEpoch",
          "type": "uint256"
        },
        {
          "indexed": false,
          "internalType": "uint256",
          "name": "toEpoch",
          "type": "uint256"
        },
        {
          "indexed": false,
          "internalType": "uint256",
          "name": "amount",
          "type": "uint256"
        },
        {
          "indexed": true,
          "internalType": "address",
          "name": "token",
          "type": "address"
        }
      ],
      "name": "EpochEarningsClaimed",
      "type": "event"
    },
    {
      "anonymous": false,
      "inputs": [
        {
          "indexed": false,
          "internalType": "uint64",
          "name": "version",
          "type": "uint64"
        }
      ],
      "name": "Initialized",
      "type": "event"
    },
    {
      "anonymous": false,
      "inputs": [
        {
          "indexed": true,
          "internalType": "address",
          "name": "previousOwner",
          "type": "address"
        },
        {
          "indexed": true,
          "internalType": "address",
          "name": "newOwner",
          "type": "address"
        }
      ],
      "name": "OwnershipTransferred",
      "type": "event"
    },
    {
      "inputs": [
        {
          "internalType": "uint256",
          "name": "maxEpochs",
          "type": "uint256"
        }
      ],
      "name": "claimETHEarnings",
      "outputs": [],
      "stateMutability": "nonpayable",
      "type": "function"
    },
    {
      "inputs": [
        {
          "internalType": "uint256",
          "name": "maxEpochs",
          "type": "uint256"
        }
      ],
      "name": "claimStablecoinEarnings",
      "outputs": [],
      "stateMutability": "nonpayable",
      "type": "function"
    },
    {
      "inputs": [
        {
          "internalType": "uint256",
          "name": "amount",
          "type": "uint256"
        },
        {
          "internalType": "address",
          "name": "recipient",
          "type": "address"
        }
      ],
      "name": "createBuyoutToken",
      "outputs": [],
      "stateMutability": "nonpayable",
      "type": "function"
    },
    {
      "inputs": [],
      "name": "createETHDistributionEpoch",
      "outputs": [],
      "stateMutability": "nonpayable",
      "type": "function"
    },
    {
      "inputs": [
        {
          "internalType": "string",
          "name": "contractURI",
          "type": "string"
        }
      ],
      "name": "createLegalContract",
      "outputs": [
        {
          "internalType": "uint256",
          "name": "",
          "type": "uint256"
        }
      ],
      "stateMutability": "nonpayable",
      "type": "function"
    },
    {
      "inputs": [
        {
          "internalType": "uint256",
          "name": "sharesAmount",
          "type": "uint256"
        }
      ],
      "name": "createSongShares",
      "outputs": [],
      "stateMutability": "nonpayable",
      "type": "function"
    },
    {
      "inputs": [],
      "name": "createStablecoinDistributionEpoch",
      "outputs": [],
      "stateMutability": "nonpayable",
      "type": "function"
    },
    {
      "inputs": [],
      "name": "ethBalance",
      "outputs": [
        {
          "internalType": "uint256",
          "name": "",
          "type": "uint256"
        }
      ],
      "stateMutability": "view",
      "type": "function"
    },
    {
      "inputs": [
        {
          "internalType": "uint256",
          "name": "index",
          "type": "uint256"
        }
      ],
      "name": "ethEarningsEpochs",
      "outputs": [
        {
          "components": [
            {
              "internalType": "uint256",
              "name": "epochId",
              "type": "uint256"
            },
            {
              "internalType": "uint256",
              "name": "amount",
              "type": "uint256"
            },
            {
              "internalType": "uint256",
              "name": "earningsPerShare",
              "type": "uint256"
            },
            {
              "internalType": "uint256",
              "name": "timestamp",
              "type": "uint256"
            },
            {
              "internalType": "address",
              "name": "sender",
              "type": "address"
            }
          ],
          "internalType": "struct IWrappedSongTypes.EarningsEpoch",
          "name": "",
          "type": "tuple"
        }
      ],
      "stateMutability": "view",
      "type": "function"
    },
    {
      "inputs": [
        {
          "internalType": "address",
          "name": "account",
          "type": "address"
        }
      ],
      "name": "getPendingETHEarnings",
      "outputs": [
        {
          "internalType": "uint256",
          "name": "",
          "type": "uint256"
        }
      ],
      "stateMutability": "view",
      "type": "function"
    },
    {
      "inputs": [],
      "name": "getPendingStablecoinDistribution",
      "outputs": [
        {
          "internalType": "uint256",
          "name": "",
          "type": "uint256"
        }
      ],
      "stateMutability": "view",
      "type": "function"
    },
    {
      "inputs": [
        {
          "internalType": "address",
          "name": "account",
          "type": "address"
        }
      ],
      "name": "getPendingStablecoinEarnings",
      "outputs": [
        {
          "internalType": "uint256",
          "name": "",
          "type": "uint256"
        }
      ],
      "stateMutability": "view",
      "type": "function"
    },
    {
      "inputs": [
        {
          "internalType": "address",
          "name": "account",
          "type": "address"
        }
      ],
      "name": "getUnclaimedETHEpochs",
      "outputs": [
        {
          "internalType": "uint256[]",
          "name": "epochIds",
          "type": "uint256[]"
        },
        {
          "internalType": "uint256[]",
          "name": "amounts",
          "type": "uint256[]"
        },
        {
          "internalType": "uint256[]",
          "name": "timestamps",
          "type": "uint256[]"
        },
        {
          "internalType": "string[]",
          "name": "sources",
          "type": "string[]"
        }
      ],
      "stateMutability": "view",
      "type": "function"
    },
    {
      "inputs": [
        {
          "internalType": "address",
          "name": "account",
          "type": "address"
        }
      ],
      "name": "getUnclaimedStablecoinEpochs",
      "outputs": [
        {
          "internalType": "uint256[]",
          "name": "epochIds",
          "type": "uint256[]"
        },
        {
          "internalType": "uint256[]",
          "name": "amounts",
          "type": "uint256[]"
        },
        {
          "internalType": "uint256[]",
          "name": "timestamps",
          "type": "uint256[]"
        },
        {
          "internalType": "string[]",
          "name": "sources",
          "type": "string[]"
        }
      ],
      "stateMutability": "view",
      "type": "function"
    },
    {
      "inputs": [],
      "name": "getWSTokenManagementAddress",
      "outputs": [
        {
          "internalType": "address",
          "name": "",
          "type": "address"
        }
      ],
      "stateMutability": "view",
      "type": "function"
    },
    {
      "inputs": [
        {
          "internalType": "address",
          "name": "account",
          "type": "address"
        },
        {
          "internalType": "address",
          "name": "token",
          "type": "address"
        }
      ],
      "name": "hasMoreEpochsToClaim",
      "outputs": [
        {
          "internalType": "bool",
          "name": "hasMore",
          "type": "bool"
        },
        {
          "internalType": "uint256",
          "name": "nextEpoch",
          "type": "uint256"
        },
        {
          "internalType": "uint256",
          "name": "totalEpochs",
          "type": "uint256"
        }
      ],
      "stateMutability": "view",
      "type": "function"
    },
    {
      "inputs": [
        {
          "internalType": "address",
          "name": "_stablecoinAddress",
          "type": "address"
        },
        {
          "internalType": "address",
          "name": "_owner",
          "type": "address"
        },
        {
          "internalType": "address",
          "name": "",
          "type": "address"
        }
      ],
      "name": "initialize",
      "outputs": [],
      "stateMutability": "nonpayable",
      "type": "function"
    },
    {
      "inputs": [],
      "name": "metadataModule",
      "outputs": [
        {
          "internalType": "contract IMetadataModule",
          "name": "",
          "type": "address"
        }
      ],
      "stateMutability": "view",
      "type": "function"
    },
    {
      "inputs": [
        {
          "internalType": "address",
          "name": "newMetadataAddress",
          "type": "address"
        },
        {
          "internalType": "address",
          "name": "newWrappedSongAddress",
          "type": "address"
        }
      ],
      "name": "migrateWrappedSong",
      "outputs": [],
      "stateMutability": "nonpayable",
      "type": "function"
    },
    {
      "inputs": [],
      "name": "migrated",
      "outputs": [
        {
          "internalType": "bool",
          "name": "",
          "type": "bool"
        }
      ],
      "stateMutability": "view",
      "type": "function"
    },
    {
      "inputs": [
        {
          "internalType": "address",
          "name": "operator",
          "type": "address"
        },
        {
          "internalType": "address",
          "name": "from",
          "type": "address"
        },
        {
          "internalType": "uint256[]",
          "name": "ids",
          "type": "uint256[]"
        },
        {
          "internalType": "uint256[]",
          "name": "values",
          "type": "uint256[]"
        },
        {
          "internalType": "bytes",
          "name": "data",
          "type": "bytes"
        }
      ],
      "name": "onERC1155BatchReceived",
      "outputs": [
        {
          "internalType": "bytes4",
          "name": "",
          "type": "bytes4"
        }
      ],
      "stateMutability": "pure",
      "type": "function"
    },
    {
      "inputs": [
        {
          "internalType": "address",
          "name": "operator",
          "type": "address"
        },
        {
          "internalType": "address",
          "name": "from",
          "type": "address"
        },
        {
          "internalType": "uint256",
          "name": "id",
          "type": "uint256"
        },
        {
          "internalType": "uint256",
          "name": "value",
          "type": "uint256"
        },
        {
          "internalType": "bytes",
          "name": "data",
          "type": "bytes"
        }
      ],
      "name": "onERC1155Received",
      "outputs": [
        {
          "internalType": "bytes4",
          "name": "",
          "type": "bytes4"
        }
      ],
      "stateMutability": "pure",
      "type": "function"
    },
    {
      "inputs": [],
      "name": "owner",
      "outputs": [
        {
          "internalType": "address",
          "name": "",
          "type": "address"
        }
      ],
      "stateMutability": "view",
      "type": "function"
    },
    {
      "inputs": [],
      "name": "protocolModule",
      "outputs": [
        {
          "internalType": "contract IProtocolModule",
          "name": "",
          "type": "address"
        }
      ],
      "stateMutability": "view",
      "type": "function"
    },
    {
      "inputs": [
        {
          "internalType": "address",
          "name": "token",
          "type": "address"
        },
        {
          "internalType": "uint256",
          "name": "amount",
          "type": "uint256"
        }
      ],
      "name": "receiveERC20",
      "outputs": [],
      "stateMutability": "nonpayable",
      "type": "function"
    },
    {
      "inputs": [],
      "name": "renounceOwnership",
      "outputs": [],
      "stateMutability": "nonpayable",
      "type": "function"
    },
    {
      "inputs": [
        {
          "internalType": "address",
          "name": "_wsTokenManagement",
          "type": "address"
        }
      ],
      "name": "setWSTokenManagement",
      "outputs": [],
      "stateMutability": "nonpayable",
      "type": "function"
    },
    {
      "inputs": [],
      "name": "songSharesId",
      "outputs": [
        {
          "internalType": "uint256",
          "name": "",
          "type": "uint256"
        }
      ],
      "stateMutability": "view",
      "type": "function"
    },
    {
      "inputs": [],
      "name": "stablecoin",
      "outputs": [
        {
          "internalType": "contract IERC20",
          "name": "",
          "type": "address"
        }
      ],
      "stateMutability": "view",
      "type": "function"
    },
    {
      "inputs": [
        {
          "internalType": "uint256",
          "name": "index",
          "type": "uint256"
        }
      ],
      "name": "stablecoinEarningsEpochs",
      "outputs": [
        {
          "components": [
            {
              "internalType": "uint256",
              "name": "epochId",
              "type": "uint256"
            },
            {
              "internalType": "uint256",
              "name": "amount",
              "type": "uint256"
            },
            {
              "internalType": "uint256",
              "name": "earningsPerShare",
              "type": "uint256"
            },
            {
              "internalType": "uint256",
              "name": "timestamp",
              "type": "uint256"
            },
            {
              "internalType": "address",
              "name": "sender",
              "type": "address"
            }
          ],
          "internalType": "struct IWrappedSongTypes.EarningsEpoch",
          "name": "",
          "type": "tuple"
        }
      ],
      "stateMutability": "view",
      "type": "function"
    },
    {
      "inputs": [
        {
          "internalType": "bytes4",
          "name": "interfaceId",
          "type": "bytes4"
        }
      ],
      "name": "supportsInterface",
      "outputs": [
        {
          "internalType": "bool",
          "name": "",
          "type": "bool"
        }
      ],
      "stateMutability": "view",
      "type": "function"
    },
    {
      "inputs": [
        {
          "internalType": "address",
          "name": "newOwner",
          "type": "address"
        }
      ],
      "name": "transferOwnership",
      "outputs": [],
      "stateMutability": "nonpayable",
      "type": "function"
    },
    {
      "inputs": [
        {
          "internalType": "address",
          "name": "user",
          "type": "address"
        }
      ],
      "name": "userEpochBalances",
      "outputs": [
        {
          "components": [
            {
              "internalType": "uint256",
              "name": "lastClaimedEpoch",
              "type": "uint256"
            },
            {
              "internalType": "uint256",
              "name": "lastClaimedETHEpoch",
              "type": "uint256"
            }
          ],
          "internalType": "struct IWrappedSongTypes.EpochBalance",
          "name": "",
          "type": "tuple"
        }
      ],
      "stateMutability": "view",
      "type": "function"
    },
    {
      "inputs": [],
      "name": "wrappedSongTokenId",
      "outputs": [
        {
          "internalType": "uint256",
          "name": "",
          "type": "uint256"
        }
      ],
      "stateMutability": "view",
      "type": "function"
    },
    {
      "inputs": [],
      "name": "wsTokenManagement",
      "outputs": [
        {
          "internalType": "contract IWSTokenManagement",
          "name": "",
          "type": "address"
        }
      ],
      "stateMutability": "view",
      "type": "function"
    },
    {
      "stateMutability": "payable",
      "type": "receive"
    }
  ],
  "bytecode": "0x60806040908082523462000234578062003137803803809162000023828562000239565b83396020928391810103126200023457516001600160a01b0380821691829003620002345733156200021c57600080546001600160a01b0319808216339081178455875191959285167f8be0079c531659141344cd1fd0a4f28419497f9722a3daafe3b4186f6b6457e08580a3600180558115620001da5750600480548516821781558651623684d160e81b815292918691849182905afa918215620001ce57819262000186575b5050169060055416176005557ff0c57e16840df040f15088dc2f81fe391c3923bec73e23a9662efc9c229c6a009081549160ff83851c1662000175576001600160401b03906002600160401b03198483160162000132575b8451612ec39081620002748239f35b6001600160401b0319909316811790925582519182527fc7f505b2f371ae2175ee4913f4499e1f2633a7b5936321eed1cdaeb6115181d291a13880808062000123565b835163f92ee8a960e01b8152600490fd5b9091508481813d8311620001c6575b620001a1818362000239565b81010312620001c25751908282168203620001bf57503880620000cb565b80fd5b5080fd5b503d62000195565b508551903d90823e3d90fd5b62461bcd60e51b815260048101869052601760248201527f496e76616c69642070726f746f636f6c206d6f64756c650000000000000000006044820152606490fd5b8351631e4fbdf760e01b815260006004820152602490fd5b600080fd5b601f909101601f19168101906001600160401b038211908210176200025d57604052565b634e487b7160e01b600052604160045260246000fdfe6080604081815260049182361015610031575b505050361561002057600080fd5b61002c3460085461234d565b600855005b600092833560e01c91826301ffc9a71461203d575081630a1c35a414611c835781632514a5fb14611a0c5781632c678c64146119e85781632cc6d17b146119a65781633684d1001461197d57816339fa62df1461186a57816343d0b50f1461184b5781634c2b957a1461181f5781634e6630b01461180057816351bcece2146117d95781635c42e667146117b15781635d152b36146117925781636ab415c11461176c5781636d4645fd146112a6578163715018a61461124c578163716f6e87146111c757816382d5195c14610fa85781638da5cb5b14610f805781639a5cb99d146102eb5781639d3bc4bd14610e4b578163a2440fd514610d9a578163aed4aab614610ca7578163b40b5e8214610c6e578163bc197c8114610be5578163bcb7130d14610962578163c0c53b8b1461076e578163c45f497e14610706578163d70a0abc14610314578163df5afd2a146102eb578163e9cbd822146102c2578163f23a6e6114610269578163f2fde38b1461020f57508063f3baa17f146101f15763fcd9b139146101c25780610012565b346101ed5760203660031901126101ed576020906101e66101e1612090565b612ce2565b9051908152f35b5080fd5b50346101ed57816003193601126101ed576020906006549051908152f35b9050346102655760203660031901126102655761022a612090565b916102336122da565b6001600160a01b0383161561024f578361024c84612306565b80f35b51631e4fbdf760e01b8152908101839052602490fd5b8280fd5b8284346102bf5760a03660031901126102bf57610284612090565b5061028d6120a6565b50608435906001600160401b0382116102bf57506020926102b0913691016121f7565b50505163f23a6e6160e01b8152f35b80fd5b5050346101ed57816003193601126101ed5760035490516001600160a01b039091168152602090f35b5050346101ed57816003193601126101ed5760025490516001600160a01b039091168152602090f35b9190503461026557806003193601126102655761032f612090565b916103386120a6565b916103416122da565b600d549060ff82166106c4576001600160a01b03848116958615610681578116801561063e5781600254169081156105fb578286541694845180966366d0ead360e01b825233898301528160246020998a935afa9081156105f1578b916105d4575b50156105995760ff1916600117600d5588929190813b1561059557839060448a83885195869485936335c282af60e21b85528d85015260248401525af1801561057757908391610581575b50506003541682516370a0823160e01b815230868201528481602481855afa908115610577578391610541575b5080610479575b505092505050479182610459575b507f63a3a6504840fce1914d082b35c1578e92684e2412633097b92acce038d2b1ee915080a280f35b81806104719481935af161046b6125ac565b506125dc565b388281610430565b835163a9059cbb60e01b81526001600160a01b038816878201908152602081019290925292859284928390036040019183915af190811561053757879161050a575b50156104c957858180610422565b5162461bcd60e51b815291820152601a60248201527f537461626c65636f696e207472616e73666572206661696c6564000000000000604482015260649150fd5b61052a9150833d8511610530575b610522818361229e565b8101906123bc565b386104bb565b503d610518565b82513d89823e3d90fd5b809350858092503d8311610570575b61055a818361229e565b8101031261056b578791513861041b565b600080fd5b503d610550565b84513d85823e3d90fd5b61058a90612255565b6101ed5781386103ee565b8380fd5b845162461bcd60e51b8152808801879052601560248201527410d85b1b195c881b9bdd08185d5d1a1bdc9a5e9959605a1b6044820152606490fd5b6105eb9150873d891161053057610522818361229e565b386103a3565b86513d8d823e3d90fd5b835162461bcd60e51b8152602081880152601960248201527f5753546f6b656e4d616e6167656d656e74206e6f7420736574000000000000006044820152606490fd5b825162461bcd60e51b8152602081870152601860248201527f496e76616c6964206d65746164617461206164647265737300000000000000006044820152606490fd5b825162461bcd60e51b8152602081870181905260248201527f496e76616c6964206e6577207772617070656420736f6e6720616464726573736044820152606490fd5b5162461bcd60e51b8152602081840152601960248201527f436f6e747261637420616c7265616479206d69677261746564000000000000006044820152606490fd5b5050346101ed5760203660031901126101ed578091610723612090565b816020845161073181612268565b828152015260018060a01b03168152600a60205220600181549101546020835161075a81612268565b838152019081528251918252516020820152f35b90503461026557606036600319011261026557610789612090565b6107916120a6565b6001600160a01b03906044358281160361056b577ff0c57e16840df040f15088dc2f81fe391c3923bec73e23a9662efc9c229c6a009384549360ff85881c1615946001600160401b0381168015908161095a575b6001149081610950575b159081610947575b506109375767ffffffffffffffff198116600117875584919086610918575b50169283156108d55782161561089a575061083090612306565b6bffffffffffffffffffffffff60a01b6003541617600355836007556001600655610859578280f35b805468ff00000000000000001916905551600181527fc7f505b2f371ae2175ee4913f4499e1f2633a7b5936321eed1cdaeb6115181d290602090a138808280f35b606490602087519162461bcd60e51b83528201526015602482015274496e76616c6964206f776e6572206164647265737360581b6044820152fd5b865162461bcd60e51b8152602081840152601a60248201527f496e76616c696420737461626c65636f696e20616464726573730000000000006044820152606490fd5b68ffffffffffffffffff19166801000000000000000117875538610816565b875163f92ee8a960e01b81528390fd5b905015386107f7565b303b1591506107ef565b8791506107e5565b8383346101ed57602092836003193601126102655780356001600160401b03811161059557366023820112156105955780820135916109a0836122bf565b926109ad8551948561229e565b80845260249236848383010111610bda57818792858a9301838801378501015284546001600160a01b0390811633148015610b6f575b15610b16576002541690845163bd85b03960e01b815260038282015287818581865afa908115610b0c578791610adf575b50610a9257908686819493610a4088519788968795869463bcb7130d60e01b86528501528301906120f0565b03925af1928315610a875792610a58575b5051908152f35b9091508281813d8311610a80575b610a70818361229e565b8101031261056b57519083610a51565b503d610a66565b8251903d90823e3d90fd5b845162461bcd60e51b81529081018790526022818401527f4c6567616c20636f6e747261637420616c726561647920696e697469616c697a604482015261195960f21b6064820152608490fd5b90508781813d8311610b05575b610af6818361229e565b8101031261056b575188610a14565b503d610aec565b86513d89823e3d90fd5b50602f6084928786519362461bcd60e51b85528401528201527f43616c6c6572206973206e6f74206f776e6572206f722077726170706564207360448201526e37b733903234b9ba3934b13aba37b960891b6064820152fd5b50828782845416875192838092633aa690e760e01b825230888301525afa908115610b0c579082918891610ba7575b501633146109e3565b809250898092503d8311610bde575b610bc0818361229e565b81010312610bda57518181168103610bda57819089610b9e565b8680fd5b503d610bb6565b8284346102bf5760a03660031901126102bf57610c00612090565b50610c096120a6565b506001600160401b03906044358281116101ed57610c2a90369086016121c7565b50506064358281116101ed57610c4390369086016121c7565b50506084359182116102bf5750602092610c5f913691016121f7565b50505163bc197c8160e01b8152f35b5050346101ed5760203660031901126101ed57610ca390610c95610c90612090565b612991565b919492935194859485612130565b0390f35b905034610265578160031936011261026557610cc1612090565b60243591610cd460ff600d541615612370565b6003546001600160a01b0392831692168203610d675784916064602092865194859384926323b872dd60e01b845233908401523060248401528760448401525af1928315610d5e5750610d3a92610d32918591610d40575b506123d4565b60095461234d565b60095580f35b610d58915060203d811161053057610522818361229e565b38610d2c565b513d85823e3d90fd5b606490602085519162461bcd60e51b8352820152600d60248201526c24b73b30b634b2103a37b5b2b760991b6044820152fd5b9190503461026557602036600319011261026557610ca39250610dbb612e62565b50610dc682356124f9565b5080549260018201549160028101549060038101549260018060a01b039101541692845195610df487612224565b8652602086015283850152606084015260808301525191829182919091608060a0820193805183526020810151602084015260408101516040840152606081015160608401528160018060a01b0391015116910152565b839150346101ed57826003193601126101ed57610e666120a6565b92610e6f6122da565b60018060a01b0391826002541694825163bd85b03960e01b815260028382015260209081816024818b5afa908115610f76578791610f49575b50610f0857508585963b15610f045785928360449286519788958694639d3bc4bd60e01b86528035908601521660248401525af1908115610efb5750610eeb5750f35b610ef490612255565b6102bf5780f35b513d84823e3d90fd5b8580fd5b809150606493519262461bcd60e51b845283015260248201527f4275796f757420746f6b656e20616c726561647920696e697469616c697a65646044820152fd5b90508181813d8311610f6f575b610f60818361229e565b8101031261056b575188610ea8565b503d610f56565b85513d89823e3d90fd5b5050346101ed57816003193601126101ed57905490516001600160a01b039091168152602090f35b91905034610265578260031936011261026557610fca60ff600d541615612370565b60085490811561118e5760018060a01b038060025416600654835191829163bd85b03960e01b83528783015281602460209485935afa908115611184578791611157575b5061101a811515612e24565b670de0b6b3a76400008502670de0b6b3a763ffff198682040161114457906110419161258c565b91600b5490845161105181612224565b82815283810187815286820186815260608301914283526080840195338752600160401b81101561112f5780600161108c9201600b556124f9565b94909461111b57518455516001840155516002830155516003820155915191870180546001600160a01b03191691909216179055600b54600019810195908611611108575082519384528301526001908201527f77841c1ae75de1a1c173cb7ffd7f1dc25d09aca1e636b17a232b67072624bab890606090a280f35b634e487b7160e01b875260119052602486fd5b60008c634e487b7160e01b82525260246000fd5b60418c634e487b7160e01b6000525260246000fd5b634e487b7160e01b885260118752602488fd5b90508181813d831161117d575b61116e818361229e565b8101031261056b57513861100e565b503d611164565b84513d89823e3d90fd5b5162461bcd60e51b815260208184015260146024820152734e6f2045544820746f206469737472696275746560601b6044820152606490fd5b91905034610265576020366003190112610265576111e3612090565b600254926001600160a01b039283851661121357505016906bffffffffffffffffffffffff60a01b161760025580f35b906020606492519162461bcd60e51b8352820152601360248201527215d4d51bdad95b88185b1c9958591e481cd95d606a1b6044820152fd5b83346102bf57806003193601126102bf576112656122da565b600080546001600160a01b0319811682556001600160a01b03167f8be0079c531659141344cd1fd0a4f28419497f9722a3daafe3b4186f6b6457e08280a380f35b9190503461026557602080600319360112610595578235916112c661261e565b6112d560ff600d541615612370565b6002546006548251627eeac760e11b8152338782019081526020810183905291946001600160a01b0390931692918290829081906040010381865afa90811561173557889161173f575b50158015906116b2575b6113329061241f565b338752600a81526001958684892001918783549788600b5461135582821161245d565b821561168c579061136591612412565b8082101561168557505b9490505b8996888a5b61149c575b505050851561145a576008548611611418575050916114106113f2837f33508fa3c05f271d76112f2a1c190707f316b34540511262f6d62bff50a02854956113c88998968c9a61234d565b90556113d685600854612412565b6008556113ec8880808089335af161046b6125ac565b8661234d565b91519283923396846040919493926060820195825260208201520152565b0390a3805580f35b845162461bcd60e51b815291820152601d60248201527f496e73756666696369656e7420636f6e74726163742062616c616e6365000000604482015260649150fd5b845162461bcd60e51b815291820152601860248201527f4e6f20455448206561726e696e677320746f20636c61696d0000000000000000604482015260649150fd5b6114a6878b61234d565b811015611680576114bf6114b9826124f9565b50612534565b6060818101518a51630c4db40d60e31b8152338982019081526020810187905260408101929092528f929091889183918291010381895afa91821561167557908e9695949392611644575b5080611524575b505061151c90612499565b909192611378565b909a9192939450898b0161154361153c825184612579565b928361258c565b90510361160157670de0b6b3a76400008691049a01518a116115be57896115699161234d565b98891061157b57908a92913880611511565b875162461bcd60e51b8152808601859052601860248201527f546f74616c20756e636c61696d6564206f766572666c6f7700000000000000006044820152606490fd5b885162461bcd60e51b8152808701869052601a60248201527f53686172652063616c63756c6174696f6e206f766572666c6f770000000000006044820152606490fd5b895162461bcd60e51b8152808801879052601760248201527f4d756c7469706c69636174696f6e206f766572666c6f770000000000000000006044820152606490fd5b809650878092503d831161166e575b61165d818361229e565b8101031261056b578c94513861150a565b503d611653565b8b51903d90823e3d90fd5b61137d565b905061136f565b6116969250612412565b806032106000146116ad575060325b949050611373565b6116a5565b506000194201428111611144578351630c4db40d60e31b815233888201908152602081018790526040810192909252908290829081906060010381865afa8015611735578890611706575b15159050611329565b508181813d831161172e575b61171c818361229e565b8101031261056b5761133290516116fd565b503d611712565b84513d8a823e3d90fd5b90508181813d8311611765575b611756818361229e565b8101031261056b57513861131f565b503d61174c565b5050346101ed5760203660031901126101ed576020906101e661178d612090565b612b38565b5050346101ed57816003193601126101ed576020906009549051908152f35b9050346102655782600319360112610265575490516001600160a01b03909116815260209150f35b5050346101ed5760203660031901126101ed57610ca390610c956117fb612090565b61274e565b5050346101ed57816003193601126101ed576020906008549051908152f35b9190503461026557602036600319011261026557610ca39250611840612e62565b50610dc682356124a8565b5050346101ed57816003193601126101ed576020906007549051908152f35b8383346101ed576020928360031936011261026557600254825163bd85b03960e01b81526001838201526001600160a01b03909116908581602481855afa908115611973578591611942575b5061190057839450803b156118fb5760248492845195869384926339fa62df60e01b84528035908401525af1908115610efb57506118f2575080f35b61024c90612255565b505050fd5b5083606492519162461bcd60e51b8352820152601a60248201527f53686172657320616c726561647920696e697469616c697a65640000000000006044820152fd5b90508581813d831161196c575b611959818361229e565b810103126119685751866118b6565b8480fd5b503d61194f565b84513d87823e3d90fd5b5050346101ed57816003193601126101ed5760055490516001600160a01b039091168152602090f35b5050346101ed57806003193601126101ed576060906119d46119c6612090565b6119ce6120a6565b90612641565b919290815193151584526020840152820152f35b5050346101ed57816003193601126101ed5760209060ff600d541690519015158152f35b91905034610265578260031936011261026557611a2e60ff600d541615612370565b600954908115611c4157600254600654825163bd85b03960e01b8152858101919091526020936001600160a01b039260249290869082908590829088165afa908115611c37578891611c06575b50611a87811515612e24565b670de0b6b3a76400008202670de0b6b3a763ffff1983820401611bf45790611aae9161258c565b600c54909390918215611bef576000198301838111611bdd57906001611ad6611ade936124a8565b50015461234d565b855190611aea82612224565b83825287820190815286820186815260608301914283526080840195338752600160401b811015611bcb57806001611b259201600c556124a8565b949094611bba57518455516001840155516002830155516003820155915191870180546001600160a01b03191691909216179055600c54600019810195908611611ba957505091846060927f77841c1ae75de1a1c173cb7ffd7f1dc25d09aca1e636b17a232b67072624bab894600954938251948552840152820152a28060095580f35b634e487b7160e01b87526011905285fd5b634e487b7160e01b8d528c8c52878dfd5b634e487b7160e01b8d5260418c52878dfd5b634e487b7160e01b8a5260118952848afd5b611ade565b634e487b7160e01b8952601188528389fd5b90508581813d8311611c30575b611c1d818361229e565b81010312611c2c575138611a7b565b8780fd5b503d611c13565b85513d8a823e3d90fd5b5162461bcd60e51b8152602081840152601d60248201527f4e6f206e6577206561726e696e677320746f20646973747269627574650000006044820152606490fd5b9050346102655760208060031936011261059557813591611ca261261e565b611cb160ff600d541615612370565b6002546006548551627eeac760e11b8152338185019081526020810183905291936001600160a01b0393841693929091908690829081906040010381875afa908115611ff3578991612010575b5015801590611f6c575b611d119061241f565b338852600a8552868820805496600c5490611d2d89831161245d565b8015611f6157611d3e905b8961234d565b9080821015611f5a57505b938995885b868110611e69575b5050508415611e2657839055600354875163a9059cbb60e01b815233928101928352602083018690529291869184918290036040019082908c9086165af1948515611e1c577f33508fa3c05f271d76112f2a1c190707f316b34540511262f6d62bff50a0285495611df593611dd3928b92611dff575b50506123d4565b6003541695519283923396846040919493926060820195825260208201520152565b0390a36001805580f35b611e159250803d1061053057610522818361229e565b3880611dcc565b87513d8a823e3d90fd5b875162461bcd60e51b8152808301879052601f60248201527f4e6f20737461626c65636f696e206561726e696e677320746f20636c61696d006044820152606490fd5b620186a05a10611f4c578b8b611e816114b9846124a8565b6060818101518351630c4db40d60e31b815233818c01908152602081018990526040810192909252918e91839182910103818a5afa938415611f415793611f0a575b5082611edb575b505050611ed690612499565b611d4e565b611efa611f0193611ed6959c93670de0b6b3a764000093015190612579565b049061234d565b97908b38611eca565b8c809294508193503d8311611f3a575b611f24818361229e565b81010312611f36578c90519138611ec3565b8d80fd5b503d611f1a565b8351903d90823e3d90fd5b929550505092388080611d56565b9050611d49565b50611d3e6032611d38565b506000194201428111611ffd578751630c4db40d60e31b815233838201908152602081018790526040810192909252908690829081906060010381875afa8015611ff3578990611fc0575b15159050611d08565b508581813d8311611fec575b611fd6818361229e565b81010312611fe857611d119051611fb7565b8880fd5b503d611fcc565b88513d8b823e3d90fd5b634e487b7160e01b895260118252602489fd5b90508581813d8311612036575b612027818361229e565b81010312611fe8575138611cfe565b503d61201d565b849134610265576020366003190112610265573563ffffffff60e01b81168091036102655760209250630271189760e51b811490811561207f575b5015158152f35b6301ffc9a760e01b14905083612078565b600435906001600160a01b038216820361056b57565b602435906001600160a01b038216820361056b57565b90815180825260208080930193019160005b8281106120dc575050505090565b8351855293810193928101926001016120ce565b919082519283825260005b84811061211c575050826000602080949584010152601f8019910116010190565b6020818301810151848301820152016120fb565b92612158612149612166936080875260808701906120bc565b602094868203868801526120bc565b9084820360408601526120bc565b9160608184039101528251908183528083019281808460051b8301019501936000915b8483106121995750505050505090565b90919293949584806121b7600193601f198682030187528a516120f0565b9801930193019194939290612189565b9181601f8401121561056b578235916001600160401b03831161056b576020808501948460051b01011161056b57565b9181601f8401121561056b578235916001600160401b03831161056b576020838186019501011161056b57565b60a081019081106001600160401b0382111761223f57604052565b634e487b7160e01b600052604160045260246000fd5b6001600160401b03811161223f57604052565b604081019081106001600160401b0382111761223f57604052565b602081019081106001600160401b0382111761223f57604052565b90601f801991011681019081106001600160401b0382111761223f57604052565b6001600160401b03811161223f57601f01601f191660200190565b6000546001600160a01b031633036122ee57565b60405163118cdaa760e01b8152336004820152602490fd5b600080546001600160a01b039283166001600160a01b03198216811783559216907f8be0079c531659141344cd1fd0a4f28419497f9722a3daafe3b4186f6b6457e09080a3565b9190820180921161235a57565b634e487b7160e01b600052601160045260246000fd5b1561237757565b60405162461bcd60e51b815260206004820152601a60248201527f436f6e747261637420686173206265656e206d696772617465640000000000006044820152606490fd5b9081602091031261056b5751801515810361056b5790565b156123db57565b60405162461bcd60e51b815260206004820152600f60248201526e151c985b9cd9995c8819985a5b1959608a1b6044820152606490fd5b9190820391821161235a57565b1561242657565b60405162461bcd60e51b815260206004820152600f60248201526e139bc81cda185c995cc81bdddb9959608a1b6044820152606490fd5b1561246457565b60405162461bcd60e51b815260206004820152600d60248201526c4e6f206e65772065706f63687360981b6044820152606490fd5b600019811461235a5760010190565b600c548110156124e357600590600c600052027fdf6966c971051c3d54ec59162606531493a51404a002842f56009d7e5cf4a8c70190600090565b634e487b7160e01b600052603260045260246000fd5b600b548110156124e357600590600b600052027f0175b7a638427703f0dbe7bb9bbf987a2551717b34e79f33b5b1008d1fa01db90190600090565b9060405161254181612224565b825481526001830154602082015260028301546040820152600383015460608201526004909201546001600160a01b03166080830152565b8181029291811591840414171561235a57565b8115612596570490565b634e487b7160e01b600052601260045260246000fd5b3d156125d7573d906125bd826122bf565b916125cb604051938461229e565b82523d6000602084013e565b606090565b156125e357565b60405162461bcd60e51b8152602060048201526013602482015272115512081d1c985b9cd9995c8819985a5b1959606a1b6044820152606490fd5b60026001541461262f576002600155565b604051633ee5aeb560e01b8152600490fd5b6001600160a01b039081166000908152600a602052604081209190921615929083156126a05760010154925b156126975782600b545b81811161268657505081929190565b612691929350612412565b60019291565b82600c54612677565b549261266d565b6001600160401b03811161223f5760051b60200190565b906126c8826126a7565b6126d5604051918261229e565b82815280926126e6601f19916126a7565b0190602036910137565b906126fa826126a7565b612707604051918261229e565b8281528092612718601f19916126a7565b019060005b82811061272957505050565b80606060208093850101520161271d565b80518210156124e35760209160051b010190565b600254600654604051627eeac760e11b81526001600160a01b0384811660048301526024820183905293949284169391929190602081604481885afa9081156129045760009161295f575b5015612910578416600052600a602052600160406000200154600b546127c76127c28383612412565b6126be565b916127d56127c28284612412565b966127e36127c28385612412565b966127f66127f18486612412565b6126f0565b96835b85811061280c5750505050505093929190565b6128186114b9826124f9565b805161282d6128278885612412565b8a61273a565b526060810151604051630c4db40d60e31b81526001600160a01b0387166004820152602481018590526044810191909152602081606481885afa8015612904578d916000916128ce575b50916060916128ad670de0b6b3a764000061289b6128c99796604086015190612579565b04916128a78b87612412565b9061273a565b5201516128c36128bd8884612412565b8d61273a565b52612499565b6127f9565b91506020823d6020116128fc575b816128e96020938361229e565b810103126102bf5750518c906060612877565b3d91506128dc565b6040513d6000823e3d90fd5b50925050506040519061292282612283565b600082526040519161293383612283565b600083526040519161294483612283565b600083526040519161295583612283565b6000835293929190565b906020823d602011612989575b816129796020938361229e565b810103126102bf57505138612799565b3d915061296c565b600254600654604051627eeac760e11b81526001600160a01b0384811660048301526024820183905293949284169391929190602081604481885afa90811561290457600091612b06575b5015612910578416600052600a602052604060002054600c54612a026127c28383612412565b91612a106127c28284612412565b96612a1e6127c28385612412565b96612a2c6127f18486612412565b96835b858110612a425750505050505093929190565b612a4e6114b9826124a8565b8051612a5d6128278885612412565b526060810151604051630c4db40d60e31b81526001600160a01b0387166004820152602481018590526044810191909152602081606481885afa8015612904578d91600091612ad0575b50916060916128ad670de0b6b3a764000061289b612acb9796604086015190612579565b612a2f565b91506020823d602011612afe575b81612aeb6020938361229e565b810103126102bf5750518c906060612aa7565b3d9150612ade565b906020823d602011612b30575b81612b206020938361229e565b810103126102bf575051386129dc565b3d9150612b13565b60025460065460408051627eeac760e11b81526001600160a01b0385811660048084019190915260248301859052939594811694602094909290919085816044818a5afa908115612cd757600091612caa575b5015612c9e5782919694939216600052600a8352600182600020015495600b5494600097965b868810612bc357505050505050505090565b9091929394959697612c17612bda6114b98b6124f9565b6060818101518951630c4db40d60e31b81526001600160a01b038a16898201908152602081018990526040810192909252938b9285928392910190565b0381875afa918215612c9357908891600093612c5f575b50611efa612c4d93612c539593670de0b6b3a764000093015190612579565b98612499565b96959493929190612bb1565b9150918982813d8311612c8c575b612c77818361229e565b810103126102bf575051908790611efa612c2e565b503d612c6d565b88513d6000823e3d90fd5b50505050505050600090565b908682813d8311612cd0575b612cc0818361229e565b810103126102bf57505138612b8b565b503d612cb6565b85513d6000823e3d90fd5b60025460065460408051627eeac760e11b81526001600160a01b0385811660048084019190915260248301859052939594811694602094909290919085816044818a5afa908115612cd757600091612df7575b5015612c9e5782919694939216600052600a8352816000205495600c5494600097965b868810612d6a57505050505050505090565b9091929394959697612d81612bda6114b98b6124a8565b0381875afa918215612c9357908891600093612dc3575b50611efa612c4d93612db79593670de0b6b3a764000093015190612579565b96959493929190612d58565b9150918982813d8311612df0575b612ddb818361229e565b810103126102bf575051908790611efa612d98565b503d612dd1565b908682813d8311612e1d575b612e0d818361229e565b810103126102bf57505138612d35565b503d612e03565b15612e2b57565b60405162461bcd60e51b815260206004820152600f60248201526e139bc81cda185c995cc8195e1a5cdd608a1b6044820152606490fd5b60405190612e6f82612224565b6000608083828152826020820152826040820152826060820152015256fea2646970667358221220ae24ceeca4034b09ee2e86781a57a69b06d62ab29b00e30664b27d21f896d12d64736f6c63430008140033",
  "linkReferences": {},
  "deployedLinkReferences": {}
}