{
  "_format": "hh-sol-artifact-1",
  "contractName": "WrappedSongSmartAccount",
  "sourceName": "contracts/protocol/NonUpgradable/WrappedSongSmartAccount.sol",
  "abi": [
    {
      "inputs": [],
      "stateMutability": "nonpayable",
      "type": "constructor"
    },
    {
      "inputs": [],
      "name": "InvalidInitialization",
      "type": "error"
    },
    {
      "inputs": [],
      "name": "NotInitializing",
      "type": "error"
    },
    {
      "inputs": [
        {
          "internalType": "address",
          "name": "owner",
          "type": "address"
        }
      ],
      "name": "OwnableInvalidOwner",
      "type": "error"
    },
    {
      "inputs": [
        {
          "internalType": "address",
          "name": "account",
          "type": "address"
        }
      ],
      "name": "OwnableUnauthorizedAccount",
      "type": "error"
    },
    {
      "inputs": [],
      "name": "ReentrancyGuardReentrantCall",
      "type": "error"
    },
    {
      "anonymous": false,
      "inputs": [
        {
          "indexed": true,
          "internalType": "address",
          "name": "newWrappedSongAddress",
          "type": "address"
        }
      ],
      "name": "ContractMigrated",
      "type": "event"
    },
    {
      "anonymous": false,
      "inputs": [
        {
          "indexed": true,
          "internalType": "uint256",
          "name": "epochId",
          "type": "uint256"
        },
        {
          "indexed": false,
          "internalType": "uint256",
          "name": "amount",
          "type": "uint256"
        },
        {
          "indexed": false,
          "internalType": "uint256",
          "name": "earningsPerShare",
          "type": "uint256"
        },
        {
          "indexed": false,
          "internalType": "bool",
          "name": "isETH",
          "type": "bool"
        }
      ],
      "name": "EarningsEpochProcessed",
      "type": "event"
    },
    {
      "anonymous": false,
      "inputs": [
        {
          "indexed": true,
          "internalType": "address",
          "name": "user",
          "type": "address"
        },
        {
          "indexed": false,
          "internalType": "uint256",
          "name": "fromEpoch",
          "type": "uint256"
        },
        {
          "indexed": false,
          "internalType": "uint256",
          "name": "toEpoch",
          "type": "uint256"
        },
        {
          "indexed": false,
          "internalType": "uint256",
          "name": "amount",
          "type": "uint256"
        },
        {
          "indexed": true,
          "internalType": "address",
          "name": "token",
          "type": "address"
        }
      ],
      "name": "EpochEarningsClaimed",
      "type": "event"
    },
    {
      "anonymous": false,
      "inputs": [
        {
          "indexed": false,
          "internalType": "uint64",
          "name": "version",
          "type": "uint64"
        }
      ],
      "name": "Initialized",
      "type": "event"
    },
    {
      "anonymous": false,
      "inputs": [
        {
          "indexed": true,
          "internalType": "address",
          "name": "previousOwner",
          "type": "address"
        },
        {
          "indexed": true,
          "internalType": "address",
          "name": "newOwner",
          "type": "address"
        }
      ],
      "name": "OwnershipTransferred",
      "type": "event"
    },
    {
      "inputs": [
        {
          "internalType": "uint256",
          "name": "maxEpochs",
          "type": "uint256"
        }
      ],
      "name": "claimETHEarnings",
      "outputs": [],
      "stateMutability": "nonpayable",
      "type": "function"
    },
    {
      "inputs": [
        {
          "internalType": "uint256",
          "name": "maxEpochs",
          "type": "uint256"
        }
      ],
      "name": "claimStablecoinEarnings",
      "outputs": [],
      "stateMutability": "nonpayable",
      "type": "function"
    },
    {
      "inputs": [
        {
          "internalType": "uint256",
          "name": "amount",
          "type": "uint256"
        },
        {
          "internalType": "address",
          "name": "recipient",
          "type": "address"
        }
      ],
      "name": "createBuyoutToken",
      "outputs": [],
      "stateMutability": "nonpayable",
      "type": "function"
    },
    {
      "inputs": [],
      "name": "createETHDistributionEpoch",
      "outputs": [],
      "stateMutability": "nonpayable",
      "type": "function"
    },
    {
      "inputs": [
        {
          "internalType": "string",
          "name": "contractURI",
          "type": "string"
        }
      ],
      "name": "createLegalContract",
      "outputs": [
        {
          "internalType": "uint256",
          "name": "",
          "type": "uint256"
        }
      ],
      "stateMutability": "nonpayable",
      "type": "function"
    },
    {
      "inputs": [
        {
          "internalType": "uint256",
          "name": "sharesAmount",
          "type": "uint256"
        }
      ],
      "name": "createSongShares",
      "outputs": [],
      "stateMutability": "nonpayable",
      "type": "function"
    },
    {
      "inputs": [],
      "name": "createStablecoinDistributionEpoch",
      "outputs": [],
      "stateMutability": "nonpayable",
      "type": "function"
    },
    {
      "inputs": [],
      "name": "ethBalance",
      "outputs": [
        {
          "internalType": "uint256",
          "name": "",
          "type": "uint256"
        }
      ],
      "stateMutability": "view",
      "type": "function"
    },
    {
      "inputs": [
        {
          "internalType": "uint256",
          "name": "index",
          "type": "uint256"
        }
      ],
      "name": "ethEarningsEpochs",
      "outputs": [
        {
          "components": [
            {
              "internalType": "uint256",
              "name": "epochId",
              "type": "uint256"
            },
            {
              "internalType": "uint256",
              "name": "amount",
              "type": "uint256"
            },
            {
              "internalType": "uint256",
              "name": "earningsPerShare",
              "type": "uint256"
            },
            {
              "internalType": "uint256",
              "name": "timestamp",
              "type": "uint256"
            },
            {
              "internalType": "address",
              "name": "sender",
              "type": "address"
            }
          ],
          "internalType": "struct IWrappedSongTypes.EarningsEpoch",
          "name": "",
          "type": "tuple"
        }
      ],
      "stateMutability": "view",
      "type": "function"
    },
    {
      "inputs": [
        {
          "internalType": "address",
          "name": "account",
          "type": "address"
        }
      ],
      "name": "getPendingETHEarnings",
      "outputs": [
        {
          "internalType": "uint256",
          "name": "",
          "type": "uint256"
        }
      ],
      "stateMutability": "view",
      "type": "function"
    },
    {
      "inputs": [],
      "name": "getPendingStablecoinDistribution",
      "outputs": [
        {
          "internalType": "uint256",
          "name": "",
          "type": "uint256"
        }
      ],
      "stateMutability": "view",
      "type": "function"
    },
    {
      "inputs": [
        {
          "internalType": "address",
          "name": "account",
          "type": "address"
        }
      ],
      "name": "getPendingStablecoinEarnings",
      "outputs": [
        {
          "internalType": "uint256",
          "name": "",
          "type": "uint256"
        }
      ],
      "stateMutability": "view",
      "type": "function"
    },
    {
      "inputs": [
        {
          "internalType": "address",
          "name": "account",
          "type": "address"
        }
      ],
      "name": "getUnclaimedETHEpochs",
      "outputs": [
        {
          "internalType": "uint256[]",
          "name": "epochIds",
          "type": "uint256[]"
        },
        {
          "internalType": "uint256[]",
          "name": "amounts",
          "type": "uint256[]"
        },
        {
          "internalType": "uint256[]",
          "name": "timestamps",
          "type": "uint256[]"
        },
        {
          "internalType": "string[]",
          "name": "sources",
          "type": "string[]"
        }
      ],
      "stateMutability": "view",
      "type": "function"
    },
    {
      "inputs": [
        {
          "internalType": "address",
          "name": "account",
          "type": "address"
        }
      ],
      "name": "getUnclaimedStablecoinEpochs",
      "outputs": [
        {
          "internalType": "uint256[]",
          "name": "epochIds",
          "type": "uint256[]"
        },
        {
          "internalType": "uint256[]",
          "name": "amounts",
          "type": "uint256[]"
        },
        {
          "internalType": "uint256[]",
          "name": "timestamps",
          "type": "uint256[]"
        },
        {
          "internalType": "string[]",
          "name": "sources",
          "type": "string[]"
        }
      ],
      "stateMutability": "view",
      "type": "function"
    },
    {
      "inputs": [],
      "name": "getWSTokenManagementAddress",
      "outputs": [
        {
          "internalType": "address",
          "name": "",
          "type": "address"
        }
      ],
      "stateMutability": "view",
      "type": "function"
    },
    {
      "inputs": [
        {
          "internalType": "address",
          "name": "account",
          "type": "address"
        },
        {
          "internalType": "address",
          "name": "token",
          "type": "address"
        }
      ],
      "name": "hasMoreEpochsToClaim",
      "outputs": [
        {
          "internalType": "bool",
          "name": "hasMore",
          "type": "bool"
        },
        {
          "internalType": "uint256",
          "name": "nextEpoch",
          "type": "uint256"
        },
        {
          "internalType": "uint256",
          "name": "totalEpochs",
          "type": "uint256"
        }
      ],
      "stateMutability": "view",
      "type": "function"
    },
    {
      "inputs": [
        {
          "internalType": "address",
          "name": "_stablecoinAddress",
          "type": "address"
        },
        {
          "internalType": "address",
          "name": "_owner",
          "type": "address"
        },
        {
          "internalType": "address",
          "name": "_protocolModuleAddress",
          "type": "address"
        }
      ],
      "name": "initialize",
      "outputs": [],
      "stateMutability": "nonpayable",
      "type": "function"
    },
    {
      "inputs": [],
      "name": "metadataModule",
      "outputs": [
        {
          "internalType": "contract IMetadataModule",
          "name": "",
          "type": "address"
        }
      ],
      "stateMutability": "view",
      "type": "function"
    },
    {
      "inputs": [
        {
          "internalType": "address",
          "name": "newMetadataAddress",
          "type": "address"
        },
        {
          "internalType": "address",
          "name": "newWrappedSongAddress",
          "type": "address"
        }
      ],
      "name": "migrateWrappedSong",
      "outputs": [],
      "stateMutability": "nonpayable",
      "type": "function"
    },
    {
      "inputs": [],
      "name": "migrated",
      "outputs": [
        {
          "internalType": "bool",
          "name": "",
          "type": "bool"
        }
      ],
      "stateMutability": "view",
      "type": "function"
    },
    {
      "inputs": [
        {
          "internalType": "address",
          "name": "operator",
          "type": "address"
        },
        {
          "internalType": "address",
          "name": "from",
          "type": "address"
        },
        {
          "internalType": "uint256[]",
          "name": "ids",
          "type": "uint256[]"
        },
        {
          "internalType": "uint256[]",
          "name": "values",
          "type": "uint256[]"
        },
        {
          "internalType": "bytes",
          "name": "data",
          "type": "bytes"
        }
      ],
      "name": "onERC1155BatchReceived",
      "outputs": [
        {
          "internalType": "bytes4",
          "name": "",
          "type": "bytes4"
        }
      ],
      "stateMutability": "pure",
      "type": "function"
    },
    {
      "inputs": [
        {
          "internalType": "address",
          "name": "operator",
          "type": "address"
        },
        {
          "internalType": "address",
          "name": "from",
          "type": "address"
        },
        {
          "internalType": "uint256",
          "name": "id",
          "type": "uint256"
        },
        {
          "internalType": "uint256",
          "name": "value",
          "type": "uint256"
        },
        {
          "internalType": "bytes",
          "name": "data",
          "type": "bytes"
        }
      ],
      "name": "onERC1155Received",
      "outputs": [
        {
          "internalType": "bytes4",
          "name": "",
          "type": "bytes4"
        }
      ],
      "stateMutability": "pure",
      "type": "function"
    },
    {
      "inputs": [],
      "name": "owner",
      "outputs": [
        {
          "internalType": "address",
          "name": "",
          "type": "address"
        }
      ],
      "stateMutability": "view",
      "type": "function"
    },
    {
      "inputs": [],
      "name": "protocolModule",
      "outputs": [
        {
          "internalType": "contract IProtocolModule",
          "name": "",
          "type": "address"
        }
      ],
      "stateMutability": "view",
      "type": "function"
    },
    {
      "inputs": [
        {
          "internalType": "address",
          "name": "token",
          "type": "address"
        },
        {
          "internalType": "uint256",
          "name": "amount",
          "type": "uint256"
        }
      ],
      "name": "receiveERC20",
      "outputs": [],
      "stateMutability": "nonpayable",
      "type": "function"
    },
    {
      "inputs": [],
      "name": "releaseModule",
      "outputs": [
        {
          "internalType": "contract IReleaseModule",
          "name": "",
          "type": "address"
        }
      ],
      "stateMutability": "view",
      "type": "function"
    },
    {
      "inputs": [],
      "name": "renounceOwnership",
      "outputs": [],
      "stateMutability": "nonpayable",
      "type": "function"
    },
    {
      "inputs": [
        {
          "internalType": "address",
          "name": "_wsTokenManagement",
          "type": "address"
        }
      ],
      "name": "setWSTokenManagement",
      "outputs": [],
      "stateMutability": "nonpayable",
      "type": "function"
    },
    {
      "inputs": [],
      "name": "songSharesId",
      "outputs": [
        {
          "internalType": "uint256",
          "name": "",
          "type": "uint256"
        }
      ],
      "stateMutability": "view",
      "type": "function"
    },
    {
      "inputs": [],
      "name": "stablecoin",
      "outputs": [
        {
          "internalType": "contract IERC20",
          "name": "",
          "type": "address"
        }
      ],
      "stateMutability": "view",
      "type": "function"
    },
    {
      "inputs": [
        {
          "internalType": "uint256",
          "name": "index",
          "type": "uint256"
        }
      ],
      "name": "stablecoinEarningsEpochs",
      "outputs": [
        {
          "components": [
            {
              "internalType": "uint256",
              "name": "epochId",
              "type": "uint256"
            },
            {
              "internalType": "uint256",
              "name": "amount",
              "type": "uint256"
            },
            {
              "internalType": "uint256",
              "name": "earningsPerShare",
              "type": "uint256"
            },
            {
              "internalType": "uint256",
              "name": "timestamp",
              "type": "uint256"
            },
            {
              "internalType": "address",
              "name": "sender",
              "type": "address"
            }
          ],
          "internalType": "struct IWrappedSongTypes.EarningsEpoch",
          "name": "",
          "type": "tuple"
        }
      ],
      "stateMutability": "view",
      "type": "function"
    },
    {
      "inputs": [
        {
          "internalType": "bytes4",
          "name": "interfaceId",
          "type": "bytes4"
        }
      ],
      "name": "supportsInterface",
      "outputs": [
        {
          "internalType": "bool",
          "name": "",
          "type": "bool"
        }
      ],
      "stateMutability": "view",
      "type": "function"
    },
    {
      "inputs": [
        {
          "internalType": "address",
          "name": "newOwner",
          "type": "address"
        }
      ],
      "name": "transferOwnership",
      "outputs": [],
      "stateMutability": "nonpayable",
      "type": "function"
    },
    {
      "inputs": [
        {
          "internalType": "address",
          "name": "user",
          "type": "address"
        }
      ],
      "name": "userEpochBalances",
      "outputs": [
        {
          "components": [
            {
              "internalType": "uint256",
              "name": "lastClaimedEpoch",
              "type": "uint256"
            },
            {
              "internalType": "uint256",
              "name": "lastClaimedETHEpoch",
              "type": "uint256"
            }
          ],
          "internalType": "struct IWrappedSongTypes.EpochBalance",
          "name": "",
          "type": "tuple"
        }
      ],
      "stateMutability": "view",
      "type": "function"
    },
    {
      "inputs": [],
      "name": "wrappedSongTokenId",
      "outputs": [
        {
          "internalType": "uint256",
          "name": "",
          "type": "uint256"
        }
      ],
      "stateMutability": "view",
      "type": "function"
    },
    {
      "inputs": [],
      "name": "wsTokenManagement",
      "outputs": [
        {
          "internalType": "contract IWSTokenManagement",
          "name": "",
          "type": "address"
        }
      ],
      "stateMutability": "view",
      "type": "function"
    },
    {
      "stateMutability": "payable",
      "type": "receive"
    }
  ],
  "bytecode": "0x6080806040523462000126573315620001105760008054336001600160a01b03198216811783556040519290916001600160a01b0316907f8be0079c531659141344cd1fd0a4f28419497f9722a3daafe3b4186f6b6457e09080a3600180557ff0c57e16840df040f15088dc2f81fe391c3923bec73e23a9662efc9c229c6a009081549060ff8260401c166200010157506001600160401b036002600160401b031982821601620000bb575b60405161309f90816200012c8239f35b6001600160401b031990911681179091556040519081527fc7f505b2f371ae2175ee4913f4499e1f2633a7b5936321eed1cdaeb6115181d290602090a1808080620000ab565b63f92ee8a960e01b8152600490fd5b631e4fbdf760e01b815260006004820152602490fd5b600080fdfe6080604081815260049182361015610031575b505050361561002057600080fd5b61002c3460095461256b565b600955005b600092833560e01c91826301ffc9a71461223c575081630a1c35a414611e825781632514a5fb14611c0b5781632c678c6414611be75781632cc6d17b14611ba55781633684d10014611b7c57816339fa62df14611a6957816343d0b50f14611a4a5781634c2b957a14611a1e5781634e6630b0146119ff57816351bcece2146119d85781635c42e667146119b05781635d152b361461199157816365bb98b5146119685781636ab415c1146119425781636d4645fd14611424578163715018a6146113ca578163716f6e871461134557816382d5195c146111265781638da5cb5b146110fe5781639a5cb99d146102f65781639d3bc4bd14610fcd578163a2440fd514610f1c578163aed4aab614610e29578163b40b5e8214610df0578163bc197c8114610d67578163bcb7130d14610b00578163c0c53b8b1461076f578163c45f497e14610707578163d70a0abc1461031f578163df5afd2a146102f6578163e9cbd822146102cd578163f23a6e6114610274578163f2fde38b1461021a57508063f3baa17f146101fc5763fcd9b139146101cd5780610012565b346101f85760203660031901126101f8576020906101f16101ec61228f565b612ebe565b9051908152f35b5080fd5b50346101f857816003193601126101f8576020906007549051908152f35b9050346102705760203660031901126102705761023561228f565b9161023e6124d9565b6001600160a01b0383161561025a578361025784612505565b80f35b51631e4fbdf760e01b8152908101839052602490fd5b8280fd5b8284346102ca5760a03660031901126102ca5761028f61228f565b506102986122a5565b50608435906001600160401b0382116102ca57506020926102bb913691016123f6565b50505163f23a6e6160e01b8152f35b80fd5b5050346101f857816003193601126101f85760035490516001600160a01b039091168152602090f35b5050346101f857816003193601126101f85760025490516001600160a01b039091168152602090f35b90503461027057816003193601126102705761033961228f565b916103426122a5565b600e5460ff81166106c4576001600160a01b03828116958615610681578116801561063e5781600254169081156105fb578287541693865180956366d0ead360e01b8252338a83015281602460209889935afa9081156105f1578b916105d4575b50156105995760ff1916600117600e55889493929190813b1561059557859160448392895194859384926335c282af60e21b84528d8401528d60248401525af180156105735790859161057d575b505060035485516370a0823160e01b8152308882015291168282602481845afa91821561057357859261053c575b50816104bd575b5050504780610459575b82867f63a3a6504840fce1914d082b35c1578e92684e2412633097b92acce038d2b1ee8280a280f35b8280929181925af16104696127ca565b501561047757838180610430565b6104b992505191829162461bcd60e51b83528201606090602081526013602082015272115512081d1c985b9cd9995c8819985a5b1959606a1b60408201520190565b0390fd5b855163a9059cbb60e01b81526001600160a01b0385168189019081526020810193909352918391839182908890829060400103925af1801561053257610504575b80610426565b8161052392903d1061052b575b61051b818361249d565b8101906125da565b5038806104fe565b503d610511565b85513d86823e3d90fd5b945090508184813d811161056c575b610555818361249d565b8101031261056757879351903861041f565b600080fd5b503d61054b565b86513d87823e3d90fd5b61058690612454565b6105915783386103f1565b8380fd5b8580fd5b865162461bcd60e51b8152808901869052601560248201527410d85b1b195c881b9bdd08185d5d1a1bdc9a5e9959605a1b6044820152606490fd5b6105eb9150863d881161052b5761051b818361249d565b386103a3565b88513d8d823e3d90fd5b855162461bcd60e51b8152602081890152601960248201527f5753546f6b656e4d616e6167656d656e74206e6f7420736574000000000000006044820152606490fd5b845162461bcd60e51b8152602081880152601860248201527f496e76616c6964206d65746164617461206164647265737300000000000000006044820152606490fd5b845162461bcd60e51b8152602081880181905260248201527f496e76616c6964206e6577207772617070656420736f6e6720616464726573736044820152606490fd5b825162461bcd60e51b8152602081860152601960248201527f436f6e747261637420616c7265616479206d69677261746564000000000000006044820152606490fd5b5050346101f85760203660031901126101f857809161072461228f565b816020845161073281612467565b828152015260018060a01b03168152600b60205220600181549101546020835161075b81612467565b838152019081528251918252516020820152f35b919050346102705760603660031901126102705761078b61228f565b906107946122a5565b6001600160a01b039360443585811694929190859003610567577ff0c57e16840df040f15088dc2f81fe391c3923bec73e23a9662efc9c229c6a009586549360ff85871c1615946001600160401b03811680159081610af8575b6001149081610aee575b159081610ae5575b50610ad55767ffffffffffffffff198116600117895585610ab6575b508615610a73578116928315610a3057818116156109f55782546001600160a01b0319808216891785558751623684d160e81b8152602099919591928c918b818581885afa9081156109eb579187859285948f96916109ae575b50168960055416176005558b51958693849263670d296960e11b845216175afa9182156105f15791899185938d9261097f575b5089516365bb98b560e01b81529586928391165afa8015610975578a90610937575b6108df935016836006541617600655612505565b60035416176003558460085560016007556108f8578380f35b7fc7f505b2f371ae2175ee4913f4499e1f2633a7b5936321eed1cdaeb6115181d29268ff00000000000000001981541690555160018152a13880808380f35b50918781813d831161096e575b61094e818361249d565b8101031261096a575191808316830361096a576108df926108cb565b8980fd5b503d610944565b87513d8c823e3d90fd5b6109a0919250833d85116109a7575b610998818361249d565b81019061254c565b90386108a9565b503d61098e565b935050509281813d83116109e4575b6109c7818361249d565b810103126101f8575186811681036101f8578b9287859238610876565b503d6109bd565b8b513d85823e3d90fd5b855162461bcd60e51b81526020818501526015602482015274496e76616c6964206f776e6572206164647265737360581b6044820152606490fd5b855162461bcd60e51b8152602081850152601a60248201527f496e76616c696420737461626c65636f696e20616464726573730000000000006044820152606490fd5b855162461bcd60e51b8152602081850152601f60248201527f496e76616c69642070726f746f636f6c206d6f64756c652061646472657373006044820152606490fd5b68ffffffffffffffffff1916680100000000000000011788553861081c565b865163f92ee8a960e01b81528490fd5b90501538610800565b303b1591506107f8565b8791506107ee565b8383346101f857602092836003193601126102705780356001600160401b0381116105915736602382011215610591578082013591610b3e836124be565b92610b4b8551948561249d565b80845260249236848383010111610d6357818792858a9301838801378501015284546001600160a01b0390811633148015610d0d575b15610cb4576002541690845163bd85b03960e01b815260038282015287818581865afa908115610caa578791610c7d575b50610c3057908686819493610bde88519788968795869463bcb7130d60e01b86528501528301906122ef565b03925af1928315610c255792610bf6575b5051908152f35b9091508281813d8311610c1e575b610c0e818361249d565b8101031261056757519083610bef565b503d610c04565b8251903d90823e3d90fd5b845162461bcd60e51b81529081018790526022818401527f4c6567616c20636f6e747261637420616c726561647920696e697469616c697a604482015261195960f21b6064820152608490fd5b90508781813d8311610ca3575b610c94818361249d565b81010312610567575188610bb2565b503d610c8a565b86513d89823e3d90fd5b50602f6084928786519362461bcd60e51b85528401528201527f43616c6c6572206973206e6f74206f776e6572206f722077726170706564207360448201526e37b733903234b9ba3934b13aba37b960891b6064820152fd5b5082878260065416875192838092633aa690e760e01b825230888301525afa908115610caa579082918891610d46575b50163314610b81565b610d5d9150893d8b116109a757610998818361249d565b89610d3d565b8680fd5b8284346102ca5760a03660031901126102ca57610d8261228f565b50610d8b6122a5565b506001600160401b03906044358281116101f857610dac90369086016123c6565b50506064358281116101f857610dc590369086016123c6565b50506084359182116102ca5750602092610de1913691016123f6565b50505163bc197c8160e01b8152f35b5050346101f85760203660031901126101f857610e2590610e17610e1261228f565b612b6d565b91949293519485948561232f565b0390f35b905034610270578160031936011261027057610e4361228f565b60243591610e5660ff600e54161561258e565b6003546001600160a01b0392831692168203610ee95784916064602092865194859384926323b872dd60e01b845233908401523060248401528760448401525af1928315610ee05750610ebc92610eb4918591610ec2575b506125f2565b600a5461256b565b600a5580f35b610eda915060203d811161052b5761051b818361249d565b38610eae565b513d85823e3d90fd5b606490602085519162461bcd60e51b8352820152600d60248201526c24b73b30b634b2103a37b5b2b760991b6044820152fd5b9190503461027057602036600319011261027057610e259250610f3d61303e565b50610f488235612717565b5080549260018201549160028101549060038101549260018060a01b039101541692845195610f7687612423565b8652602086015283850152606084015260808301525191829182919091608060a0820193805183526020810151602084015260408101516040840152606081015160608401528160018060a01b0391015116910152565b839150346101f857826003193601126101f857610fe86122a5565b92610ff16124d9565b60018060a01b0391826002541694825163bd85b03960e01b815260028382015260209081816024818b5afa9081156110f45787916110c7575b5061108657508585963b156105955785928360449286519788958694639d3bc4bd60e01b86528035908601521660248401525af190811561107d575061106d5750f35b61107690612454565b6102ca5780f35b513d84823e3d90fd5b809150606493519262461bcd60e51b845283015260248201527f4275796f757420746f6b656e20616c726561647920696e697469616c697a65646044820152fd5b90508181813d83116110ed575b6110de818361249d565b8101031261056757518861102a565b503d6110d4565b85513d89823e3d90fd5b5050346101f857816003193601126101f857905490516001600160a01b039091168152602090f35b9190503461027057826003193601126102705761114860ff600e54161561258e565b60095490811561130c5760018060a01b038060025416600754835191829163bd85b03960e01b83528783015281602460209485935afa9081156113025787916112d5575b50611198811515613000565b670de0b6b3a76400008502670de0b6b3a763ffff19868204016112c257906111bf916127aa565b91600c549084516111cf81612423565b82815283810187815286820186815260608301914283526080840195338752600160401b8110156112ad5780600161120a9201600c55612717565b94909461129957518455516001840155516002830155516003820155915191870180546001600160a01b03191691909216179055600c54600019810195908611611286575082519384528301526001908201527f77841c1ae75de1a1c173cb7ffd7f1dc25d09aca1e636b17a232b67072624bab890606090a280f35b634e487b7160e01b875260119052602486fd5b60008c634e487b7160e01b82525260246000fd5b60418c634e487b7160e01b6000525260246000fd5b634e487b7160e01b885260118752602488fd5b90508181813d83116112fb575b6112ec818361249d565b8101031261056757513861118c565b503d6112e2565b84513d89823e3d90fd5b5162461bcd60e51b815260208184015260146024820152734e6f2045544820746f206469737472696275746560601b6044820152606490fd5b919050346102705760203660031901126102705761136161228f565b600254926001600160a01b039283851661139157505016906bffffffffffffffffffffffff60a01b161760025580f35b906020606492519162461bcd60e51b8352820152601360248201527215d4d51bdad95b88185b1c9958591e481cd95d606a1b6044820152fd5b83346102ca57806003193601126102ca576113e36124d9565b600080546001600160a01b0319811682556001600160a01b03167f8be0079c531659141344cd1fd0a4f28419497f9722a3daafe3b4186f6b6457e08280a380f35b919050346102705760209182600319360112610591578035916114456127fa565b61145460ff600e54161561258e565b6002546007548251627eeac760e11b8152338582019081526020810183905291946001600160a01b0390931692918790829081906040010381865afa9081156118f8578891611915575b5015801590611875575b6114b19061263d565b338752600b86526001958684892001908782549788600c546114d482821161267b565b821561184f57906114e491612630565b8082101561184857505b9490505b8996888a5b61165f575b505050851561161d5760095486116115db5750611519838761256b565b905561152784600954612630565b6009558680808087335af161153a6127ca565b50156115995750917f33508fa3c05f271d76112f2a1c190707f316b34540511262f6d62bff50a02854916115916115738695899761256b565b91519283923396846040919493926060820195825260208201520152565b0390a3805580f35b6104b990835191829162461bcd60e51b83528201606090602081526013602082015272115512081d1c985b9cd9995c8819985a5b1959606a1b60408201520190565b8260649186519162461bcd60e51b8352820152601d60248201527f496e73756666696369656e7420636f6e74726163742062616c616e63650000006044820152fd5b8260649186519162461bcd60e51b8352820152601860248201527f4e6f20455448206561726e696e677320746f20636c61696d00000000000000006044820152fd5b611669878b61256b565b8110156118435761168261167c82612717565b50612752565b6060818101518a51630c4db40d60e31b815233818b019081526020810187905260408101929092528f929091889183918291010381895afa91821561183857908e9695949392611807575b50806116e7575b50506116df906126b7565b9091926114f7565b909a9192939450898b016117066116ff825184612797565b92836127aa565b9051036117c457670de0b6b3a76400008691049a01518a11611781578961172c9161256b565b98891061173e57908a929138806116d4565b875162461bcd60e51b8152808701859052601860248201527f546f74616c20756e636c61696d6564206f766572666c6f7700000000000000006044820152606490fd5b885162461bcd60e51b8152808801869052601a60248201527f53686172652063616c63756c6174696f6e206f766572666c6f770000000000006044820152606490fd5b895162461bcd60e51b8152808901879052601760248201527f4d756c7469706c69636174696f6e206f766572666c6f770000000000000000006044820152606490fd5b809650878092503d8311611831575b611820818361249d565b81010312610567578c9451386116cd565b503d611816565b8b51903d90823e3d90fd5b6114fc565b90506114ee565b6118599250612630565b80603210600014611870575060325b9490506114f2565b611868565b506000194201428111611902578351630c4db40d60e31b815233838201908152602081018790526040810192909252908790829081906060010381865afa80156118f85788906118c9575b151590506114a8565b508681813d83116118f1575b6118df818361249d565b81010312610567576114b190516118c0565b503d6118d5565b84513d8a823e3d90fd5b634e487b7160e01b885260118252602488fd5b90508681813d831161193b575b61192c818361249d565b8101031261056757513861149e565b503d611922565b5050346101f85760203660031901126101f8576020906101f161196361228f565b612d14565b5050346101f857816003193601126101f85760065490516001600160a01b039091168152602090f35b5050346101f857816003193601126101f857602090600a549051908152f35b9050346102705782600319360112610270575490516001600160a01b03909116815260209150f35b5050346101f85760203660031901126101f857610e2590610e176119fa61228f565b61292a565b5050346101f857816003193601126101f8576020906009549051908152f35b9190503461027057602036600319011261027057610e259250611a3f61303e565b50610f4882356126c6565b5050346101f857816003193601126101f8576020906008549051908152f35b8383346101f8576020928360031936011261027057600254825163bd85b03960e01b81526001838201526001600160a01b03909116908581602481855afa908115611b72578591611b41575b50611aff57839450803b15611afa5760248492845195869384926339fa62df60e01b84528035908401525af190811561107d5750611af1575080f35b61025790612454565b505050fd5b5083606492519162461bcd60e51b8352820152601a60248201527f53686172657320616c726561647920696e697469616c697a65640000000000006044820152fd5b90508581813d8311611b6b575b611b58818361249d565b81010312611b67575186611ab5565b8480fd5b503d611b4e565b84513d87823e3d90fd5b5050346101f857816003193601126101f85760055490516001600160a01b039091168152602090f35b5050346101f857806003193601126101f857606090611bd3611bc561228f565b611bcd6122a5565b9061281d565b919290815193151584526020840152820152f35b5050346101f857816003193601126101f85760209060ff600e541690519015158152f35b91905034610270578260031936011261027057611c2d60ff600e54161561258e565b600a54908115611e4057600254600754825163bd85b03960e01b8152858101919091526020936001600160a01b039260249290869082908590829088165afa908115611e36578891611e05575b50611c86811515613000565b670de0b6b3a76400008202670de0b6b3a763ffff1983820401611df35790611cad916127aa565b600d54909390918215611dee576000198301838111611ddc57906001611cd5611cdd936126c6565b50015461256b565b855190611ce982612423565b83825287820190815286820186815260608301914283526080840195338752600160401b811015611dca57806001611d249201600d556126c6565b949094611db957518455516001840155516002830155516003820155915191870180546001600160a01b03191691909216179055600d54600019810195908611611da857505091846060927f77841c1ae75de1a1c173cb7ffd7f1dc25d09aca1e636b17a232b67072624bab894600a54938251948552840152820152a280600a5580f35b634e487b7160e01b87526011905285fd5b634e487b7160e01b8d528c8c52878dfd5b634e487b7160e01b8d5260418c52878dfd5b634e487b7160e01b8a5260118952848afd5b611cdd565b634e487b7160e01b8952601188528389fd5b90508581813d8311611e2f575b611e1c818361249d565b81010312611e2b575138611c7a565b8780fd5b503d611e12565b85513d8a823e3d90fd5b5162461bcd60e51b8152602081840152601d60248201527f4e6f206e6577206561726e696e677320746f20646973747269627574650000006044820152606490fd5b9050346102705760208060031936011261059157813591611ea16127fa565b611eb060ff600e54161561258e565b6002546007548551627eeac760e11b8152338185019081526020810183905291936001600160a01b0393841693929091908690829081906040010381875afa9081156121f257899161220f575b501580159061216b575b611f109061263d565b338852600b8552868820805496600d5490611f2c89831161267b565b801561216057611f3d905b8961256b565b908082101561215957505b938995885b868110612068575b505050841561202557839055600354875163a9059cbb60e01b815233928101928352602083018690529291869184918290036040019082908c9086165af194851561201b577f33508fa3c05f271d76112f2a1c190707f316b34540511262f6d62bff50a0285495611ff493611fd2928b92611ffe575b50506125f2565b6003541695519283923396846040919493926060820195825260208201520152565b0390a36001805580f35b6120149250803d1061052b5761051b818361249d565b3880611fcb565b87513d8a823e3d90fd5b875162461bcd60e51b8152808301879052601f60248201527f4e6f20737461626c65636f696e206561726e696e677320746f20636c61696d006044820152606490fd5b620186a05a1061214b578b8b61208061167c846126c6565b6060818101518351630c4db40d60e31b815233818c01908152602081018990526040810192909252918e91839182910103818a5afa9384156121405793612109575b50826120da575b5050506120d5906126b7565b611f4d565b6120f9612100936120d5959c93670de0b6b3a764000093015190612797565b049061256b565b97908b386120c9565b8c809294508193503d8311612139575b612123818361249d565b81010312612135578c905191386120c2565b8d80fd5b503d612119565b8351903d90823e3d90fd5b929550505092388080611f55565b9050611f48565b50611f3d6032611f37565b5060001942014281116121fc578751630c4db40d60e31b815233838201908152602081018790526040810192909252908690829081906060010381875afa80156121f25789906121bf575b15159050611f07565b508581813d83116121eb575b6121d5818361249d565b810103126121e757611f1090516121b6565b8880fd5b503d6121cb565b88513d8b823e3d90fd5b634e487b7160e01b895260118252602489fd5b90508581813d8311612235575b612226818361249d565b810103126121e7575138611efd565b503d61221c565b849134610270576020366003190112610270573563ffffffff60e01b81168091036102705760209250630271189760e51b811490811561227e575b5015158152f35b6301ffc9a760e01b14905083612277565b600435906001600160a01b038216820361056757565b602435906001600160a01b038216820361056757565b90815180825260208080930193019160005b8281106122db575050505090565b8351855293810193928101926001016122cd565b919082519283825260005b84811061231b575050826000602080949584010152601f8019910116010190565b6020818301810151848301820152016122fa565b92612357612348612365936080875260808701906122bb565b602094868203868801526122bb565b9084820360408601526122bb565b9160608184039101528251908183528083019281808460051b8301019501936000915b8483106123985750505050505090565b90919293949584806123b6600193601f198682030187528a516122ef565b9801930193019194939290612388565b9181601f84011215610567578235916001600160401b038311610567576020808501948460051b01011161056757565b9181601f84011215610567578235916001600160401b038311610567576020838186019501011161056757565b60a081019081106001600160401b0382111761243e57604052565b634e487b7160e01b600052604160045260246000fd5b6001600160401b03811161243e57604052565b604081019081106001600160401b0382111761243e57604052565b602081019081106001600160401b0382111761243e57604052565b90601f801991011681019081106001600160401b0382111761243e57604052565b6001600160401b03811161243e57601f01601f191660200190565b6000546001600160a01b031633036124ed57565b60405163118cdaa760e01b8152336004820152602490fd5b600080546001600160a01b039283166001600160a01b03198216811783559216907f8be0079c531659141344cd1fd0a4f28419497f9722a3daafe3b4186f6b6457e09080a3565b9081602091031261056757516001600160a01b03811681036105675790565b9190820180921161257857565b634e487b7160e01b600052601160045260246000fd5b1561259557565b60405162461bcd60e51b815260206004820152601a60248201527f436f6e747261637420686173206265656e206d696772617465640000000000006044820152606490fd5b90816020910312610567575180151581036105675790565b156125f957565b60405162461bcd60e51b815260206004820152600f60248201526e151c985b9cd9995c8819985a5b1959608a1b6044820152606490fd5b9190820391821161257857565b1561264457565b60405162461bcd60e51b815260206004820152600f60248201526e139bc81cda185c995cc81bdddb9959608a1b6044820152606490fd5b1561268257565b60405162461bcd60e51b815260206004820152600d60248201526c4e6f206e65772065706f63687360981b6044820152606490fd5b60001981146125785760010190565b600d5481101561270157600590600d600052027fd7b6990105719101dabeb77144f2a3385c8033acd3af97e9423a695e81ad1eb50190600090565b634e487b7160e01b600052603260045260246000fd5b600c5481101561270157600590600c600052027fdf6966c971051c3d54ec59162606531493a51404a002842f56009d7e5cf4a8c70190600090565b9060405161275f81612423565b825481526001830154602082015260028301546040820152600383015460608201526004909201546001600160a01b03166080830152565b8181029291811591840414171561257857565b81156127b4570490565b634e487b7160e01b600052601260045260246000fd5b3d156127f5573d906127db826124be565b916127e9604051938461249d565b82523d6000602084013e565b606090565b60026001541461280b576002600155565b604051633ee5aeb560e01b8152600490fd5b6001600160a01b039081166000908152600b6020526040812091909216159290831561287c5760010154925b156128735782600c545b81811161286257505081929190565b61286d929350612630565b60019291565b82600d54612853565b5492612849565b6001600160401b03811161243e5760051b60200190565b906128a482612883565b6128b1604051918261249d565b82815280926128c2601f1991612883565b0190602036910137565b906128d682612883565b6128e3604051918261249d565b82815280926128f4601f1991612883565b019060005b82811061290557505050565b8060606020809385010152016128f9565b80518210156127015760209160051b010190565b600254600754604051627eeac760e11b81526001600160a01b0384811660048301526024820183905293949284169391929190602081604481885afa908115612ae057600091612b3b575b5015612aec578416600052600b602052600160406000200154600c546129a361299e8383612630565b61289a565b916129b161299e8284612630565b966129bf61299e8385612630565b966129d26129cd8486612630565b6128cc565b96835b8581106129e85750505050505093929190565b6129f461167c82612717565b8051612a09612a038885612630565b8a612916565b526060810151604051630c4db40d60e31b81526001600160a01b0387166004820152602481018590526044810191909152602081606481885afa8015612ae0578d91600091612aaa575b5091606091612a89670de0b6b3a7640000612a77612aa59796604086015190612797565b0491612a838b87612630565b90612916565b520151612a9f612a998884612630565b8d612916565b526126b7565b6129d5565b91506020823d602011612ad8575b81612ac56020938361249d565b810103126102ca5750518c906060612a53565b3d9150612ab8565b6040513d6000823e3d90fd5b509250505060405190612afe82612482565b6000825260405191612b0f83612482565b6000835260405191612b2083612482565b6000835260405191612b3183612482565b6000835293929190565b906020823d602011612b65575b81612b556020938361249d565b810103126102ca57505138612975565b3d9150612b48565b600254600754604051627eeac760e11b81526001600160a01b0384811660048301526024820183905293949284169391929190602081604481885afa908115612ae057600091612ce2575b5015612aec578416600052600b602052604060002054600d54612bde61299e8383612630565b91612bec61299e8284612630565b96612bfa61299e8385612630565b96612c086129cd8486612630565b96835b858110612c1e5750505050505093929190565b612c2a61167c826126c6565b8051612c39612a038885612630565b526060810151604051630c4db40d60e31b81526001600160a01b0387166004820152602481018590526044810191909152602081606481885afa8015612ae0578d91600091612cac575b5091606091612a89670de0b6b3a7640000612a77612ca79796604086015190612797565b612c0b565b91506020823d602011612cda575b81612cc76020938361249d565b810103126102ca5750518c906060612c83565b3d9150612cba565b906020823d602011612d0c575b81612cfc6020938361249d565b810103126102ca57505138612bb8565b3d9150612cef565b60025460075460408051627eeac760e11b81526001600160a01b0385811660048084019190915260248301859052939594811694602094909290919085816044818a5afa908115612eb357600091612e86575b5015612e7a5782919694939216600052600b8352600182600020015495600c5494600097965b868810612d9f57505050505050505090565b9091929394959697612df3612db661167c8b612717565b6060818101518951630c4db40d60e31b81526001600160a01b038a16898201908152602081018990526040810192909252938b9285928392910190565b0381875afa918215612e6f57908891600093612e3b575b506120f9612e2993612e2f9593670de0b6b3a764000093015190612797565b986126b7565b96959493929190612d8d565b9150918982813d8311612e68575b612e53818361249d565b810103126102ca5750519087906120f9612e0a565b503d612e49565b88513d6000823e3d90fd5b50505050505050600090565b908682813d8311612eac575b612e9c818361249d565b810103126102ca57505138612d67565b503d612e92565b85513d6000823e3d90fd5b60025460075460408051627eeac760e11b81526001600160a01b0385811660048084019190915260248301859052939594811694602094909290919085816044818a5afa908115612eb357600091612fd3575b5015612e7a5782919694939216600052600b8352816000205495600d5494600097965b868810612f4657505050505050505090565b9091929394959697612f5d612db661167c8b6126c6565b0381875afa918215612e6f57908891600093612f9f575b506120f9612e2993612f939593670de0b6b3a764000093015190612797565b96959493929190612f34565b9150918982813d8311612fcc575b612fb7818361249d565b810103126102ca5750519087906120f9612f74565b503d612fad565b908682813d8311612ff9575b612fe9818361249d565b810103126102ca57505138612f11565b503d612fdf565b1561300757565b60405162461bcd60e51b815260206004820152600f60248201526e139bc81cda185c995cc8195e1a5cdd608a1b6044820152606490fd5b6040519061304b82612423565b6000608083828152826020820152826040820152826060820152015256fea26469706673582212205241165d5fe6b6ee8d15f8a6d79a7779fa87b213d94df698eb4bb007a87a686064736f6c63430008140033",
  "linkReferences": {},
  "deployedLinkReferences": {}
}