{
  "_format": "hh-sol-artifact-1",
  "contractName": "WrappedSongSmartAccount",
  "sourceName": "contracts/protocol/NonUpgradable/WrappedSongSmartAccount.sol",
  "abi": [
    {
      "inputs": [
        {
          "internalType": "address",
          "name": "_protocolModuleAddress",
          "type": "address"
        }
      ],
      "stateMutability": "nonpayable",
      "type": "constructor"
    },
    {
      "inputs": [],
      "name": "InvalidInitialization",
      "type": "error"
    },
    {
      "inputs": [],
      "name": "NotInitializing",
      "type": "error"
    },
    {
      "inputs": [
        {
          "internalType": "address",
          "name": "owner",
          "type": "address"
        }
      ],
      "name": "OwnableInvalidOwner",
      "type": "error"
    },
    {
      "inputs": [
        {
          "internalType": "address",
          "name": "account",
          "type": "address"
        }
      ],
      "name": "OwnableUnauthorizedAccount",
      "type": "error"
    },
    {
      "inputs": [],
      "name": "ReentrancyGuardReentrantCall",
      "type": "error"
    },
    {
      "anonymous": false,
      "inputs": [
        {
          "indexed": true,
          "internalType": "address",
          "name": "newWrappedSongAddress",
          "type": "address"
        }
      ],
      "name": "ContractMigrated",
      "type": "event"
    },
    {
      "anonymous": false,
      "inputs": [
        {
          "indexed": true,
          "internalType": "uint256",
          "name": "epochId",
          "type": "uint256"
        },
        {
          "indexed": false,
          "internalType": "uint256",
          "name": "amount",
          "type": "uint256"
        },
        {
          "indexed": false,
          "internalType": "uint256",
          "name": "earningsPerShare",
          "type": "uint256"
        },
        {
          "indexed": false,
          "internalType": "bool",
          "name": "isETH",
          "type": "bool"
        }
      ],
      "name": "EarningsEpochProcessed",
      "type": "event"
    },
    {
      "anonymous": false,
      "inputs": [
        {
          "indexed": true,
          "internalType": "address",
          "name": "user",
          "type": "address"
        },
        {
          "indexed": false,
          "internalType": "uint256",
          "name": "fromEpoch",
          "type": "uint256"
        },
        {
          "indexed": false,
          "internalType": "uint256",
          "name": "toEpoch",
          "type": "uint256"
        },
        {
          "indexed": false,
          "internalType": "uint256",
          "name": "amount",
          "type": "uint256"
        },
        {
          "indexed": true,
          "internalType": "address",
          "name": "token",
          "type": "address"
        }
      ],
      "name": "EpochEarningsClaimed",
      "type": "event"
    },
    {
      "anonymous": false,
      "inputs": [
        {
          "indexed": false,
          "internalType": "uint64",
          "name": "version",
          "type": "uint64"
        }
      ],
      "name": "Initialized",
      "type": "event"
    },
    {
      "anonymous": false,
      "inputs": [
        {
          "indexed": true,
          "internalType": "address",
          "name": "previousOwner",
          "type": "address"
        },
        {
          "indexed": true,
          "internalType": "address",
          "name": "newOwner",
          "type": "address"
        }
      ],
      "name": "OwnershipTransferred",
      "type": "event"
    },
    {
      "inputs": [
        {
          "internalType": "uint256",
          "name": "maxEpochs",
          "type": "uint256"
        }
      ],
      "name": "claimETHEarnings",
      "outputs": [],
      "stateMutability": "nonpayable",
      "type": "function"
    },
    {
      "inputs": [
        {
          "internalType": "uint256",
          "name": "maxEpochs",
          "type": "uint256"
        }
      ],
      "name": "claimStablecoinEarnings",
      "outputs": [],
      "stateMutability": "nonpayable",
      "type": "function"
    },
    {
      "inputs": [
        {
          "internalType": "uint256",
          "name": "amount",
          "type": "uint256"
        },
        {
          "internalType": "address",
          "name": "recipient",
          "type": "address"
        }
      ],
      "name": "createBuyoutToken",
      "outputs": [],
      "stateMutability": "nonpayable",
      "type": "function"
    },
    {
      "inputs": [],
      "name": "createETHDistributionEpoch",
      "outputs": [],
      "stateMutability": "nonpayable",
      "type": "function"
    },
    {
      "inputs": [
        {
          "internalType": "string",
          "name": "contractURI",
          "type": "string"
        }
      ],
      "name": "createLegalContract",
      "outputs": [
        {
          "internalType": "uint256",
          "name": "",
          "type": "uint256"
        }
      ],
      "stateMutability": "nonpayable",
      "type": "function"
    },
    {
      "inputs": [
        {
          "internalType": "uint256",
          "name": "sharesAmount",
          "type": "uint256"
        }
      ],
      "name": "createSongShares",
      "outputs": [],
      "stateMutability": "nonpayable",
      "type": "function"
    },
    {
      "inputs": [],
      "name": "createStablecoinDistributionEpoch",
      "outputs": [],
      "stateMutability": "nonpayable",
      "type": "function"
    },
    {
      "inputs": [],
      "name": "ethBalance",
      "outputs": [
        {
          "internalType": "uint256",
          "name": "",
          "type": "uint256"
        }
      ],
      "stateMutability": "view",
      "type": "function"
    },
    {
      "inputs": [
        {
          "internalType": "uint256",
          "name": "index",
          "type": "uint256"
        }
      ],
      "name": "ethEarningsEpochs",
      "outputs": [
        {
          "components": [
            {
              "internalType": "uint256",
              "name": "epochId",
              "type": "uint256"
            },
            {
              "internalType": "uint256",
              "name": "amount",
              "type": "uint256"
            },
            {
              "internalType": "uint256",
              "name": "earningsPerShare",
              "type": "uint256"
            },
            {
              "internalType": "uint256",
              "name": "timestamp",
              "type": "uint256"
            },
            {
              "internalType": "address",
              "name": "sender",
              "type": "address"
            }
          ],
          "internalType": "struct IWrappedSongTypes.EarningsEpoch",
          "name": "",
          "type": "tuple"
        }
      ],
      "stateMutability": "view",
      "type": "function"
    },
    {
      "inputs": [
        {
          "internalType": "address",
          "name": "account",
          "type": "address"
        }
      ],
      "name": "getPendingETHEarnings",
      "outputs": [
        {
          "internalType": "uint256",
          "name": "",
          "type": "uint256"
        }
      ],
      "stateMutability": "view",
      "type": "function"
    },
    {
      "inputs": [],
      "name": "getPendingStablecoinDistribution",
      "outputs": [
        {
          "internalType": "uint256",
          "name": "",
          "type": "uint256"
        }
      ],
      "stateMutability": "view",
      "type": "function"
    },
    {
      "inputs": [
        {
          "internalType": "address",
          "name": "account",
          "type": "address"
        }
      ],
      "name": "getPendingStablecoinEarnings",
      "outputs": [
        {
          "internalType": "uint256",
          "name": "",
          "type": "uint256"
        }
      ],
      "stateMutability": "view",
      "type": "function"
    },
    {
      "inputs": [
        {
          "internalType": "address",
          "name": "account",
          "type": "address"
        }
      ],
      "name": "getUnclaimedETHEpochs",
      "outputs": [
        {
          "internalType": "uint256[]",
          "name": "epochIds",
          "type": "uint256[]"
        },
        {
          "internalType": "uint256[]",
          "name": "amounts",
          "type": "uint256[]"
        },
        {
          "internalType": "uint256[]",
          "name": "timestamps",
          "type": "uint256[]"
        },
        {
          "internalType": "string[]",
          "name": "sources",
          "type": "string[]"
        }
      ],
      "stateMutability": "view",
      "type": "function"
    },
    {
      "inputs": [
        {
          "internalType": "address",
          "name": "account",
          "type": "address"
        }
      ],
      "name": "getUnclaimedStablecoinEpochs",
      "outputs": [
        {
          "internalType": "uint256[]",
          "name": "epochIds",
          "type": "uint256[]"
        },
        {
          "internalType": "uint256[]",
          "name": "amounts",
          "type": "uint256[]"
        },
        {
          "internalType": "uint256[]",
          "name": "timestamps",
          "type": "uint256[]"
        },
        {
          "internalType": "string[]",
          "name": "sources",
          "type": "string[]"
        }
      ],
      "stateMutability": "view",
      "type": "function"
    },
    {
      "inputs": [],
      "name": "getWSTokenManagementAddress",
      "outputs": [
        {
          "internalType": "address",
          "name": "",
          "type": "address"
        }
      ],
      "stateMutability": "view",
      "type": "function"
    },
    {
      "inputs": [
        {
          "internalType": "address",
          "name": "account",
          "type": "address"
        },
        {
          "internalType": "address",
          "name": "token",
          "type": "address"
        }
      ],
      "name": "hasMoreEpochsToClaim",
      "outputs": [
        {
          "internalType": "bool",
          "name": "hasMore",
          "type": "bool"
        },
        {
          "internalType": "uint256",
          "name": "nextEpoch",
          "type": "uint256"
        },
        {
          "internalType": "uint256",
          "name": "totalEpochs",
          "type": "uint256"
        }
      ],
      "stateMutability": "view",
      "type": "function"
    },
    {
      "inputs": [
        {
          "internalType": "address",
          "name": "_stablecoinAddress",
          "type": "address"
        },
        {
          "internalType": "address",
          "name": "_owner",
          "type": "address"
        },
        {
          "internalType": "address",
          "name": "_protocolModuleAddress",
          "type": "address"
        }
      ],
      "name": "initialize",
      "outputs": [],
      "stateMutability": "nonpayable",
      "type": "function"
    },
    {
      "inputs": [],
      "name": "metadataModule",
      "outputs": [
        {
          "internalType": "contract IMetadataModule",
          "name": "",
          "type": "address"
        }
      ],
      "stateMutability": "view",
      "type": "function"
    },
    {
      "inputs": [
        {
          "internalType": "address",
          "name": "newMetadataAddress",
          "type": "address"
        },
        {
          "internalType": "address",
          "name": "newWrappedSongAddress",
          "type": "address"
        }
      ],
      "name": "migrateWrappedSong",
      "outputs": [],
      "stateMutability": "nonpayable",
      "type": "function"
    },
    {
      "inputs": [],
      "name": "migrated",
      "outputs": [
        {
          "internalType": "bool",
          "name": "",
          "type": "bool"
        }
      ],
      "stateMutability": "view",
      "type": "function"
    },
    {
      "inputs": [
        {
          "internalType": "address",
          "name": "operator",
          "type": "address"
        },
        {
          "internalType": "address",
          "name": "from",
          "type": "address"
        },
        {
          "internalType": "uint256[]",
          "name": "ids",
          "type": "uint256[]"
        },
        {
          "internalType": "uint256[]",
          "name": "values",
          "type": "uint256[]"
        },
        {
          "internalType": "bytes",
          "name": "data",
          "type": "bytes"
        }
      ],
      "name": "onERC1155BatchReceived",
      "outputs": [
        {
          "internalType": "bytes4",
          "name": "",
          "type": "bytes4"
        }
      ],
      "stateMutability": "pure",
      "type": "function"
    },
    {
      "inputs": [
        {
          "internalType": "address",
          "name": "operator",
          "type": "address"
        },
        {
          "internalType": "address",
          "name": "from",
          "type": "address"
        },
        {
          "internalType": "uint256",
          "name": "id",
          "type": "uint256"
        },
        {
          "internalType": "uint256",
          "name": "value",
          "type": "uint256"
        },
        {
          "internalType": "bytes",
          "name": "data",
          "type": "bytes"
        }
      ],
      "name": "onERC1155Received",
      "outputs": [
        {
          "internalType": "bytes4",
          "name": "",
          "type": "bytes4"
        }
      ],
      "stateMutability": "pure",
      "type": "function"
    },
    {
      "inputs": [],
      "name": "owner",
      "outputs": [
        {
          "internalType": "address",
          "name": "",
          "type": "address"
        }
      ],
      "stateMutability": "view",
      "type": "function"
    },
    {
      "inputs": [],
      "name": "protocolModule",
      "outputs": [
        {
          "internalType": "contract IProtocolModule",
          "name": "",
          "type": "address"
        }
      ],
      "stateMutability": "view",
      "type": "function"
    },
    {
      "inputs": [
        {
          "internalType": "address",
          "name": "token",
          "type": "address"
        },
        {
          "internalType": "uint256",
          "name": "amount",
          "type": "uint256"
        }
      ],
      "name": "receiveERC20",
      "outputs": [],
      "stateMutability": "nonpayable",
      "type": "function"
    },
    {
      "inputs": [],
      "name": "renounceOwnership",
      "outputs": [],
      "stateMutability": "nonpayable",
      "type": "function"
    },
    {
      "inputs": [
        {
          "internalType": "address",
          "name": "_wsTokenManagement",
          "type": "address"
        }
      ],
      "name": "setWSTokenManagement",
      "outputs": [],
      "stateMutability": "nonpayable",
      "type": "function"
    },
    {
      "inputs": [],
      "name": "songSharesId",
      "outputs": [
        {
          "internalType": "uint256",
          "name": "",
          "type": "uint256"
        }
      ],
      "stateMutability": "view",
      "type": "function"
    },
    {
      "inputs": [],
      "name": "stablecoin",
      "outputs": [
        {
          "internalType": "contract IERC20",
          "name": "",
          "type": "address"
        }
      ],
      "stateMutability": "view",
      "type": "function"
    },
    {
      "inputs": [
        {
          "internalType": "uint256",
          "name": "index",
          "type": "uint256"
        }
      ],
      "name": "stablecoinEarningsEpochs",
      "outputs": [
        {
          "components": [
            {
              "internalType": "uint256",
              "name": "epochId",
              "type": "uint256"
            },
            {
              "internalType": "uint256",
              "name": "amount",
              "type": "uint256"
            },
            {
              "internalType": "uint256",
              "name": "earningsPerShare",
              "type": "uint256"
            },
            {
              "internalType": "uint256",
              "name": "timestamp",
              "type": "uint256"
            },
            {
              "internalType": "address",
              "name": "sender",
              "type": "address"
            }
          ],
          "internalType": "struct IWrappedSongTypes.EarningsEpoch",
          "name": "",
          "type": "tuple"
        }
      ],
      "stateMutability": "view",
      "type": "function"
    },
    {
      "inputs": [
        {
          "internalType": "bytes4",
          "name": "interfaceId",
          "type": "bytes4"
        }
      ],
      "name": "supportsInterface",
      "outputs": [
        {
          "internalType": "bool",
          "name": "",
          "type": "bool"
        }
      ],
      "stateMutability": "view",
      "type": "function"
    },
    {
      "inputs": [
        {
          "internalType": "address",
          "name": "newOwner",
          "type": "address"
        }
      ],
      "name": "transferOwnership",
      "outputs": [],
      "stateMutability": "nonpayable",
      "type": "function"
    },
    {
      "inputs": [
        {
          "internalType": "address",
          "name": "user",
          "type": "address"
        }
      ],
      "name": "userEpochBalances",
      "outputs": [
        {
          "components": [
            {
              "internalType": "uint256",
              "name": "lastClaimedEpoch",
              "type": "uint256"
            },
            {
              "internalType": "uint256",
              "name": "lastClaimedETHEpoch",
              "type": "uint256"
            }
          ],
          "internalType": "struct IWrappedSongTypes.EpochBalance",
          "name": "",
          "type": "tuple"
        }
      ],
      "stateMutability": "view",
      "type": "function"
    },
    {
      "inputs": [],
      "name": "wrappedSongTokenId",
      "outputs": [
        {
          "internalType": "uint256",
          "name": "",
          "type": "uint256"
        }
      ],
      "stateMutability": "view",
      "type": "function"
    },
    {
      "inputs": [],
      "name": "wsTokenManagement",
      "outputs": [
        {
          "internalType": "contract IWSTokenManagement",
          "name": "",
          "type": "address"
        }
      ],
      "stateMutability": "view",
      "type": "function"
    },
    {
      "stateMutability": "payable",
      "type": "receive"
    }
  ],
  "bytecode": "0x6080604090808252346200023457806200318c803803809162000023828562000239565b83396020928391810103126200023457516001600160a01b0380821691829003620002345733156200021c57600080546001600160a01b0319808216339081178455875191959285167f8be0079c531659141344cd1fd0a4f28419497f9722a3daafe3b4186f6b6457e08580a3600180558115620001da5750600480548516821781558651623684d160e81b815292918691849182905afa918215620001ce57819262000186575b5050169060055416176005557ff0c57e16840df040f15088dc2f81fe391c3923bec73e23a9662efc9c229c6a009081549160ff83851c1662000175576001600160401b03906002600160401b03198483160162000132575b8451612f189081620002748239f35b6001600160401b0319909316811790925582519182527fc7f505b2f371ae2175ee4913f4499e1f2633a7b5936321eed1cdaeb6115181d291a13880808062000123565b835163f92ee8a960e01b8152600490fd5b9091508481813d8311620001c6575b620001a1818362000239565b81010312620001c25751908282168203620001bf57503880620000cb565b80fd5b5080fd5b503d62000195565b508551903d90823e3d90fd5b62461bcd60e51b815260048101869052601760248201527f496e76616c69642070726f746f636f6c206d6f64756c650000000000000000006044820152606490fd5b8351631e4fbdf760e01b815260006004820152602490fd5b600080fd5b601f909101601f19168101906001600160401b038211908210176200025d57604052565b634e487b7160e01b600052604160045260246000fdfe6080604081815260049182361015610031575b505050361561002057600080fd5b61002c346008546123e4565b600855005b600092833560e01c91826301ffc9a7146120d4575081630a1c35a414611d1a5781632514a5fb14611aa35781632c678c6414611a7f5781632cc6d17b14611a3d5781633684d10014611a1457816339fa62df1461190157816343d0b50f146118e25781634c2b957a146118b65781634e6630b01461189757816351bcece2146118705781635c42e667146118485781635d152b36146118295781636ab415c1146118035781636d4645fd146112e5578163715018a61461128b578163716f6e871461120657816382d5195c14610fe75781638da5cb5b14610fbf5781639a5cb99d146102eb5781639d3bc4bd14610e8e578163a2440fd514610ddd578163aed4aab614610cea578163b40b5e8214610cb1578163bc197c8114610c28578163bcb7130d146109a5578163c0c53b8b14610764578163c45f497e146106fc578163d70a0abc14610314578163df5afd2a146102eb578163e9cbd822146102c2578163f23a6e6114610269578163f2fde38b1461020f57508063f3baa17f146101f15763fcd9b139146101c25780610012565b346101ed5760203660031901126101ed576020906101e66101e1612127565b612d37565b9051908152f35b5080fd5b50346101ed57816003193601126101ed576020906006549051908152f35b9050346102655760203660031901126102655761022a612127565b91610233612371565b6001600160a01b0383161561024f578361024c8461239d565b80f35b51631e4fbdf760e01b8152908101839052602490fd5b8280fd5b8284346102bf5760a03660031901126102bf57610284612127565b5061028d61213d565b50608435906001600160401b0382116102bf57506020926102b09136910161228e565b50505163f23a6e6160e01b8152f35b80fd5b5050346101ed57816003193601126101ed5760035490516001600160a01b039091168152602090f35b5050346101ed57816003193601126101ed5760025490516001600160a01b039091168152602090f35b90503461026557816003193601126102655761032e612127565b9161033761213d565b600d5460ff81166106b9576001600160a01b0382811695861561067657811680156106335781600254169081156105f0578287541693865180956366d0ead360e01b8252338a83015281602460209889935afa9081156105e6578b916105c9575b501561058e5760ff1916600117600d55889493929190813b1561058a57859160448392895194859384926335c282af60e21b84528d8401528d60248401525af1801561056857908591610572575b505060035485516370a0823160e01b8152308882015291168282602481845afa918215610568578592610531575b50816104b2575b505050478061044e575b82867f63a3a6504840fce1914d082b35c1578e92684e2412633097b92acce038d2b1ee8280a280f35b8280929181925af161045e612643565b501561046c57838180610425565b6104ae92505191829162461bcd60e51b83528201606090602081526013602082015272115512081d1c985b9cd9995c8819985a5b1959606a1b60408201520190565b0390fd5b855163a9059cbb60e01b81526001600160a01b0385168189019081526020810193909352918391839182908890829060400103925af18015610527576104f9575b8061041b565b8161051892903d10610520575b6105108183612335565b810190612453565b5038806104f3565b503d610506565b85513d86823e3d90fd5b945090508184813d8111610561575b61054a8183612335565b8101031261055c578793519038610414565b600080fd5b503d610540565b86513d87823e3d90fd5b61057b906122ec565b6105865783386103e6565b8380fd5b8580fd5b865162461bcd60e51b8152808901869052601560248201527410d85b1b195c881b9bdd08185d5d1a1bdc9a5e9959605a1b6044820152606490fd5b6105e09150863d8811610520576105108183612335565b38610398565b88513d8d823e3d90fd5b855162461bcd60e51b8152602081890152601960248201527f5753546f6b656e4d616e6167656d656e74206e6f7420736574000000000000006044820152606490fd5b845162461bcd60e51b8152602081880152601860248201527f496e76616c6964206d65746164617461206164647265737300000000000000006044820152606490fd5b845162461bcd60e51b8152602081880181905260248201527f496e76616c6964206e6577207772617070656420736f6e6720616464726573736044820152606490fd5b825162461bcd60e51b8152602081860152601960248201527f436f6e747261637420616c7265616479206d69677261746564000000000000006044820152606490fd5b5050346101ed5760203660031901126101ed578091610719612127565b8160208451610727816122ff565b828152015260018060a01b03168152600a602052206001815491015460208351610750816122ff565b838152019081528251918252516020820152f35b9050346102655760603660031901126102655761077f612127565b61078761213d565b6001600160a01b0390604435828116919082900361055c577ff0c57e16840df040f15088dc2f81fe391c3923bec73e23a9662efc9c229c6a009485549460ff86891c1615956001600160401b0381168015908161099d575b6001149081610993575b15908161098a575b5061097a5767ffffffffffffffff19811660011788558661095b575b5083156109185784169384156108d55782161561089a5780546001600160a01b031990811690931790556108409061239d565b6003541617600355836007556001600655610859578280f35b805468ff00000000000000001916905551600181527fc7f505b2f371ae2175ee4913f4499e1f2633a7b5936321eed1cdaeb6115181d290602090a138808280f35b606490602088519162461bcd60e51b83528201526015602482015274496e76616c6964206f776e6572206164647265737360581b6044820152fd5b875162461bcd60e51b8152602081840152601a60248201527f496e76616c696420737461626c65636f696e20616464726573730000000000006044820152606490fd5b875162461bcd60e51b8152602081840152601f60248201527f496e76616c69642070726f746f636f6c206d6f64756c652061646472657373006044820152606490fd5b68ffffffffffffffffff1916680100000000000000011787553861080d565b885163f92ee8a960e01b81528390fd5b905015386107f1565b303b1591506107e9565b8891506107df565b8383346101ed57602092836003193601126102655780356001600160401b03811161058657366023820112156105865780820135916109e383612356565b926109f085519485612335565b80845260249236848383010111610c1d57818792858a9301838801378501015284546001600160a01b0390811633148015610bb2575b15610b59576002541690845163bd85b03960e01b815260038282015287818581865afa908115610b4f578791610b22575b50610ad557908686819493610a8388519788968795869463bcb7130d60e01b8652850152830190612187565b03925af1928315610aca5792610a9b575b5051908152f35b9091508281813d8311610ac3575b610ab38183612335565b8101031261055c57519083610a94565b503d610aa9565b8251903d90823e3d90fd5b845162461bcd60e51b81529081018790526022818401527f4c6567616c20636f6e747261637420616c726561647920696e697469616c697a604482015261195960f21b6064820152608490fd5b90508781813d8311610b48575b610b398183612335565b8101031261055c575188610a57565b503d610b2f565b86513d89823e3d90fd5b50602f6084928786519362461bcd60e51b85528401528201527f43616c6c6572206973206e6f74206f776e6572206f722077726170706564207360448201526e37b733903234b9ba3934b13aba37b960891b6064820152fd5b50828782845416875192838092633aa690e760e01b825230888301525afa908115610b4f579082918891610bea575b50163314610a26565b809250898092503d8311610c21575b610c038183612335565b81010312610c1d57518181168103610c1d57819089610be1565b8680fd5b503d610bf9565b8284346102bf5760a03660031901126102bf57610c43612127565b50610c4c61213d565b506001600160401b03906044358281116101ed57610c6d903690860161225e565b50506064358281116101ed57610c86903690860161225e565b50506084359182116102bf5750602092610ca29136910161228e565b50505163bc197c8160e01b8152f35b5050346101ed5760203660031901126101ed57610ce690610cd8610cd3612127565b6129e6565b9194929351948594856121c7565b0390f35b905034610265578160031936011261026557610d04612127565b60243591610d1760ff600d541615612407565b6003546001600160a01b0392831692168203610daa5784916064602092865194859384926323b872dd60e01b845233908401523060248401528760448401525af1928315610da15750610d7d92610d75918591610d83575b5061246b565b6009546123e4565b60095580f35b610d9b915060203d8111610520576105108183612335565b38610d6f565b513d85823e3d90fd5b606490602085519162461bcd60e51b8352820152600d60248201526c24b73b30b634b2103a37b5b2b760991b6044820152fd5b9190503461026557602036600319011261026557610ce69250610dfe612eb7565b50610e098235612590565b5080549260018201549160028101549060038101549260018060a01b039101541692845195610e37876122bb565b8652602086015283850152606084015260808301525191829182919091608060a0820193805183526020810151602084015260408101516040840152606081015160608401528160018060a01b0391015116910152565b839150346101ed57826003193601126101ed57610ea961213d565b92610eb2612371565b60018060a01b0391826002541694825163bd85b03960e01b815260028382015260209081816024818b5afa908115610fb5578791610f88575b50610f4757508585963b1561058a5785928360449286519788958694639d3bc4bd60e01b86528035908601521660248401525af1908115610f3e5750610f2e5750f35b610f37906122ec565b6102bf5780f35b513d84823e3d90fd5b809150606493519262461bcd60e51b845283015260248201527f4275796f757420746f6b656e20616c726561647920696e697469616c697a65646044820152fd5b90508181813d8311610fae575b610f9f8183612335565b8101031261055c575188610eeb565b503d610f95565b85513d89823e3d90fd5b5050346101ed57816003193601126101ed57905490516001600160a01b039091168152602090f35b9190503461026557826003193601126102655761100960ff600d541615612407565b6008549081156111cd5760018060a01b038060025416600654835191829163bd85b03960e01b83528783015281602460209485935afa9081156111c3578791611196575b50611059811515612e79565b670de0b6b3a76400008502670de0b6b3a763ffff1986820401611183579061108091612623565b91600b54908451611090816122bb565b82815283810187815286820186815260608301914283526080840195338752600160401b81101561116e578060016110cb9201600b55612590565b94909461115a57518455516001840155516002830155516003820155915191870180546001600160a01b03191691909216179055600b54600019810195908611611147575082519384528301526001908201527f77841c1ae75de1a1c173cb7ffd7f1dc25d09aca1e636b17a232b67072624bab890606090a280f35b634e487b7160e01b875260119052602486fd5b60008c634e487b7160e01b82525260246000fd5b60418c634e487b7160e01b6000525260246000fd5b634e487b7160e01b885260118752602488fd5b90508181813d83116111bc575b6111ad8183612335565b8101031261055c57513861104d565b503d6111a3565b84513d89823e3d90fd5b5162461bcd60e51b815260208184015260146024820152734e6f2045544820746f206469737472696275746560601b6044820152606490fd5b9190503461026557602036600319011261026557611222612127565b600254926001600160a01b039283851661125257505016906bffffffffffffffffffffffff60a01b161760025580f35b906020606492519162461bcd60e51b8352820152601360248201527215d4d51bdad95b88185b1c9958591e481cd95d606a1b6044820152fd5b83346102bf57806003193601126102bf576112a4612371565b600080546001600160a01b0319811682556001600160a01b03167f8be0079c531659141344cd1fd0a4f28419497f9722a3daafe3b4186f6b6457e08280a380f35b91905034610265576020918260031936011261058657803591611306612673565b61131560ff600d541615612407565b6002546006548251627eeac760e11b8152338582019081526020810183905291946001600160a01b0390931692918790829081906040010381865afa9081156117b95788916117d6575b5015801590611736575b611372906124b6565b338752600a86526001958684892001908782549788600b546113958282116124f4565b821561171057906113a5916124a9565b8082101561170957505b9490505b8996888a5b611520575b50505085156114de57600854861161149c57506113da83876123e4565b90556113e8846008546124a9565b6008558680808087335af16113fb612643565b501561145a5750917f33508fa3c05f271d76112f2a1c190707f316b34540511262f6d62bff50a0285491611452611434869589976123e4565b91519283923396846040919493926060820195825260208201520152565b0390a3805580f35b6104ae90835191829162461bcd60e51b83528201606090602081526013602082015272115512081d1c985b9cd9995c8819985a5b1959606a1b60408201520190565b8260649186519162461bcd60e51b8352820152601d60248201527f496e73756666696369656e7420636f6e74726163742062616c616e63650000006044820152fd5b8260649186519162461bcd60e51b8352820152601860248201527f4e6f20455448206561726e696e677320746f20636c61696d00000000000000006044820152fd5b61152a878b6123e4565b8110156117045761154361153d82612590565b506125cb565b6060818101518a51630c4db40d60e31b815233818b019081526020810187905260408101929092528f929091889183918291010381895afa9182156116f957908e96959493926116c8575b50806115a8575b50506115a090612530565b9091926113b8565b909a9192939450898b016115c76115c0825184612610565b9283612623565b90510361168557670de0b6b3a76400008691049a01518a1161164257896115ed916123e4565b9889106115ff57908a92913880611595565b875162461bcd60e51b8152808701859052601860248201527f546f74616c20756e636c61696d6564206f766572666c6f7700000000000000006044820152606490fd5b885162461bcd60e51b8152808801869052601a60248201527f53686172652063616c63756c6174696f6e206f766572666c6f770000000000006044820152606490fd5b895162461bcd60e51b8152808901879052601760248201527f4d756c7469706c69636174696f6e206f766572666c6f770000000000000000006044820152606490fd5b809650878092503d83116116f2575b6116e18183612335565b8101031261055c578c94513861158e565b503d6116d7565b8b51903d90823e3d90fd5b6113bd565b90506113af565b61171a92506124a9565b80603210600014611731575060325b9490506113b3565b611729565b5060001942014281116117c3578351630c4db40d60e31b815233838201908152602081018790526040810192909252908790829081906060010381865afa80156117b957889061178a575b15159050611369565b508681813d83116117b2575b6117a08183612335565b8101031261055c576113729051611781565b503d611796565b84513d8a823e3d90fd5b634e487b7160e01b885260118252602488fd5b90508681813d83116117fc575b6117ed8183612335565b8101031261055c57513861135f565b503d6117e3565b5050346101ed5760203660031901126101ed576020906101e6611824612127565b612b8d565b5050346101ed57816003193601126101ed576020906009549051908152f35b9050346102655782600319360112610265575490516001600160a01b03909116815260209150f35b5050346101ed5760203660031901126101ed57610ce690610cd8611892612127565b6127a3565b5050346101ed57816003193601126101ed576020906008549051908152f35b9190503461026557602036600319011261026557610ce692506118d7612eb7565b50610e09823561253f565b5050346101ed57816003193601126101ed576020906007549051908152f35b8383346101ed576020928360031936011261026557600254825163bd85b03960e01b81526001838201526001600160a01b03909116908581602481855afa908115611a0a5785916119d9575b5061199757839450803b156119925760248492845195869384926339fa62df60e01b84528035908401525af1908115610f3e5750611989575080f35b61024c906122ec565b505050fd5b5083606492519162461bcd60e51b8352820152601a60248201527f53686172657320616c726561647920696e697469616c697a65640000000000006044820152fd5b90508581813d8311611a03575b6119f08183612335565b810103126119ff57518661194d565b8480fd5b503d6119e6565b84513d87823e3d90fd5b5050346101ed57816003193601126101ed5760055490516001600160a01b039091168152602090f35b5050346101ed57806003193601126101ed57606090611a6b611a5d612127565b611a6561213d565b90612696565b919290815193151584526020840152820152f35b5050346101ed57816003193601126101ed5760209060ff600d541690519015158152f35b91905034610265578260031936011261026557611ac560ff600d541615612407565b600954908115611cd857600254600654825163bd85b03960e01b8152858101919091526020936001600160a01b039260249290869082908590829088165afa908115611cce578891611c9d575b50611b1e811515612e79565b670de0b6b3a76400008202670de0b6b3a763ffff1983820401611c8b5790611b4591612623565b600c54909390918215611c86576000198301838111611c7457906001611b6d611b759361253f565b5001546123e4565b855190611b81826122bb565b83825287820190815286820186815260608301914283526080840195338752600160401b811015611c6257806001611bbc9201600c5561253f565b949094611c5157518455516001840155516002830155516003820155915191870180546001600160a01b03191691909216179055600c54600019810195908611611c4057505091846060927f77841c1ae75de1a1c173cb7ffd7f1dc25d09aca1e636b17a232b67072624bab894600954938251948552840152820152a28060095580f35b634e487b7160e01b87526011905285fd5b634e487b7160e01b8d528c8c52878dfd5b634e487b7160e01b8d5260418c52878dfd5b634e487b7160e01b8a5260118952848afd5b611b75565b634e487b7160e01b8952601188528389fd5b90508581813d8311611cc7575b611cb48183612335565b81010312611cc3575138611b12565b8780fd5b503d611caa565b85513d8a823e3d90fd5b5162461bcd60e51b8152602081840152601d60248201527f4e6f206e6577206561726e696e677320746f20646973747269627574650000006044820152606490fd5b9050346102655760208060031936011261058657813591611d39612673565b611d4860ff600d541615612407565b6002546006548551627eeac760e11b8152338185019081526020810183905291936001600160a01b0393841693929091908690829081906040010381875afa90811561208a5789916120a7575b5015801590612003575b611da8906124b6565b338852600a8552868820805496600c5490611dc48983116124f4565b8015611ff857611dd5905b896123e4565b9080821015611ff157505b938995885b868110611f00575b5050508415611ebd57839055600354875163a9059cbb60e01b815233928101928352602083018690529291869184918290036040019082908c9086165af1948515611eb3577f33508fa3c05f271d76112f2a1c190707f316b34540511262f6d62bff50a0285495611e8c93611e6a928b92611e96575b505061246b565b6003541695519283923396846040919493926060820195825260208201520152565b0390a36001805580f35b611eac9250803d10610520576105108183612335565b3880611e63565b87513d8a823e3d90fd5b875162461bcd60e51b8152808301879052601f60248201527f4e6f20737461626c65636f696e206561726e696e677320746f20636c61696d006044820152606490fd5b620186a05a10611fe3578b8b611f1861153d8461253f565b6060818101518351630c4db40d60e31b815233818c01908152602081018990526040810192909252918e91839182910103818a5afa938415611fd85793611fa1575b5082611f72575b505050611f6d90612530565b611de5565b611f91611f9893611f6d959c93670de0b6b3a764000093015190612610565b04906123e4565b97908b38611f61565b8c809294508193503d8311611fd1575b611fbb8183612335565b81010312611fcd578c90519138611f5a565b8d80fd5b503d611fb1565b8351903d90823e3d90fd5b929550505092388080611ded565b9050611de0565b50611dd56032611dcf565b506000194201428111612094578751630c4db40d60e31b815233838201908152602081018790526040810192909252908690829081906060010381875afa801561208a578990612057575b15159050611d9f565b508581813d8311612083575b61206d8183612335565b8101031261207f57611da8905161204e565b8880fd5b503d612063565b88513d8b823e3d90fd5b634e487b7160e01b895260118252602489fd5b90508581813d83116120cd575b6120be8183612335565b8101031261207f575138611d95565b503d6120b4565b849134610265576020366003190112610265573563ffffffff60e01b81168091036102655760209250630271189760e51b8114908115612116575b5015158152f35b6301ffc9a760e01b1490508361210f565b600435906001600160a01b038216820361055c57565b602435906001600160a01b038216820361055c57565b90815180825260208080930193019160005b828110612173575050505090565b835185529381019392810192600101612165565b919082519283825260005b8481106121b3575050826000602080949584010152601f8019910116010190565b602081830181015184830182015201612192565b926121ef6121e06121fd93608087526080870190612153565b60209486820386880152612153565b908482036040860152612153565b9160608184039101528251908183528083019281808460051b8301019501936000915b8483106122305750505050505090565b909192939495848061224e600193601f198682030187528a51612187565b9801930193019194939290612220565b9181601f8401121561055c578235916001600160401b03831161055c576020808501948460051b01011161055c57565b9181601f8401121561055c578235916001600160401b03831161055c576020838186019501011161055c57565b60a081019081106001600160401b038211176122d657604052565b634e487b7160e01b600052604160045260246000fd5b6001600160401b0381116122d657604052565b604081019081106001600160401b038211176122d657604052565b602081019081106001600160401b038211176122d657604052565b90601f801991011681019081106001600160401b038211176122d657604052565b6001600160401b0381116122d657601f01601f191660200190565b6000546001600160a01b0316330361238557565b60405163118cdaa760e01b8152336004820152602490fd5b600080546001600160a01b039283166001600160a01b03198216811783559216907f8be0079c531659141344cd1fd0a4f28419497f9722a3daafe3b4186f6b6457e09080a3565b919082018092116123f157565b634e487b7160e01b600052601160045260246000fd5b1561240e57565b60405162461bcd60e51b815260206004820152601a60248201527f436f6e747261637420686173206265656e206d696772617465640000000000006044820152606490fd5b9081602091031261055c5751801515810361055c5790565b1561247257565b60405162461bcd60e51b815260206004820152600f60248201526e151c985b9cd9995c8819985a5b1959608a1b6044820152606490fd5b919082039182116123f157565b156124bd57565b60405162461bcd60e51b815260206004820152600f60248201526e139bc81cda185c995cc81bdddb9959608a1b6044820152606490fd5b156124fb57565b60405162461bcd60e51b815260206004820152600d60248201526c4e6f206e65772065706f63687360981b6044820152606490fd5b60001981146123f15760010190565b600c5481101561257a57600590600c600052027fdf6966c971051c3d54ec59162606531493a51404a002842f56009d7e5cf4a8c70190600090565b634e487b7160e01b600052603260045260246000fd5b600b5481101561257a57600590600b600052027f0175b7a638427703f0dbe7bb9bbf987a2551717b34e79f33b5b1008d1fa01db90190600090565b906040516125d8816122bb565b825481526001830154602082015260028301546040820152600383015460608201526004909201546001600160a01b03166080830152565b818102929181159184041417156123f157565b811561262d570490565b634e487b7160e01b600052601260045260246000fd5b3d1561266e573d9061265482612356565b916126626040519384612335565b82523d6000602084013e565b606090565b600260015414612684576002600155565b604051633ee5aeb560e01b8152600490fd5b6001600160a01b039081166000908152600a602052604081209190921615929083156126f55760010154925b156126ec5782600b545b8181116126db57505081929190565b6126e69293506124a9565b60019291565b82600c546126cc565b54926126c2565b6001600160401b0381116122d65760051b60200190565b9061271d826126fc565b61272a6040519182612335565b828152809261273b601f19916126fc565b0190602036910137565b9061274f826126fc565b61275c6040519182612335565b828152809261276d601f19916126fc565b019060005b82811061277e57505050565b806060602080938501015201612772565b805182101561257a5760209160051b010190565b600254600654604051627eeac760e11b81526001600160a01b0384811660048301526024820183905293949284169391929190602081604481885afa908115612959576000916129b4575b5015612965578416600052600a602052600160406000200154600b5461281c61281783836124a9565b612713565b9161282a61281782846124a9565b9661283861281783856124a9565b9661284b61284684866124a9565b612745565b96835b8581106128615750505050505093929190565b61286d61153d82612590565b805161288261287c88856124a9565b8a61278f565b526060810151604051630c4db40d60e31b81526001600160a01b0387166004820152602481018590526044810191909152602081606481885afa8015612959578d91600091612923575b5091606091612902670de0b6b3a76400006128f061291e9796604086015190612610565b04916128fc8b876124a9565b9061278f565b52015161291861291288846124a9565b8d61278f565b52612530565b61284e565b91506020823d602011612951575b8161293e60209383612335565b810103126102bf5750518c9060606128cc565b3d9150612931565b6040513d6000823e3d90fd5b5092505050604051906129778261231a565b60008252604051916129888361231a565b60008352604051916129998361231a565b60008352604051916129aa8361231a565b6000835293929190565b906020823d6020116129de575b816129ce60209383612335565b810103126102bf575051386127ee565b3d91506129c1565b600254600654604051627eeac760e11b81526001600160a01b0384811660048301526024820183905293949284169391929190602081604481885afa90811561295957600091612b5b575b5015612965578416600052600a602052604060002054600c54612a5761281783836124a9565b91612a6561281782846124a9565b96612a7361281783856124a9565b96612a8161284684866124a9565b96835b858110612a975750505050505093929190565b612aa361153d8261253f565b8051612ab261287c88856124a9565b526060810151604051630c4db40d60e31b81526001600160a01b0387166004820152602481018590526044810191909152602081606481885afa8015612959578d91600091612b25575b5091606091612902670de0b6b3a76400006128f0612b209796604086015190612610565b612a84565b91506020823d602011612b53575b81612b4060209383612335565b810103126102bf5750518c906060612afc565b3d9150612b33565b906020823d602011612b85575b81612b7560209383612335565b810103126102bf57505138612a31565b3d9150612b68565b60025460065460408051627eeac760e11b81526001600160a01b0385811660048084019190915260248301859052939594811694602094909290919085816044818a5afa908115612d2c57600091612cff575b5015612cf35782919694939216600052600a8352600182600020015495600b5494600097965b868810612c1857505050505050505090565b9091929394959697612c6c612c2f61153d8b612590565b6060818101518951630c4db40d60e31b81526001600160a01b038a16898201908152602081018990526040810192909252938b9285928392910190565b0381875afa918215612ce857908891600093612cb4575b50611f91612ca293612ca89593670de0b6b3a764000093015190612610565b98612530565b96959493929190612c06565b9150918982813d8311612ce1575b612ccc8183612335565b810103126102bf575051908790611f91612c83565b503d612cc2565b88513d6000823e3d90fd5b50505050505050600090565b908682813d8311612d25575b612d158183612335565b810103126102bf57505138612be0565b503d612d0b565b85513d6000823e3d90fd5b60025460065460408051627eeac760e11b81526001600160a01b0385811660048084019190915260248301859052939594811694602094909290919085816044818a5afa908115612d2c57600091612e4c575b5015612cf35782919694939216600052600a8352816000205495600c5494600097965b868810612dbf57505050505050505090565b9091929394959697612dd6612c2f61153d8b61253f565b0381875afa918215612ce857908891600093612e18575b50611f91612ca293612e0c9593670de0b6b3a764000093015190612610565b96959493929190612dad565b9150918982813d8311612e45575b612e308183612335565b810103126102bf575051908790611f91612ded565b503d612e26565b908682813d8311612e72575b612e628183612335565b810103126102bf57505138612d8a565b503d612e58565b15612e8057565b60405162461bcd60e51b815260206004820152600f60248201526e139bc81cda185c995cc8195e1a5cdd608a1b6044820152606490fd5b60405190612ec4826122bb565b6000608083828152826020820152826040820152826060820152015256fea2646970667358221220a57404883a43c47f3645b7671b40fab7883757b18380115bcc02fe9445f8931164736f6c63430008140033",
  "linkReferences": {},
  "deployedLinkReferences": {}
}