{
  "_format": "hh-sol-artifact-1",
  "contractName": "ReleaseModule",
  "sourceName": "contracts/protocol/Modules/ReleaseModule.sol",
  "abi": [
    {
      "inputs": [],
      "stateMutability": "nonpayable",
      "type": "constructor"
    },
    {
      "inputs": [
        {
          "internalType": "address",
          "name": "target",
          "type": "address"
        }
      ],
      "name": "AddressEmptyCode",
      "type": "error"
    },
    {
      "inputs": [
        {
          "internalType": "address",
          "name": "account",
          "type": "address"
        }
      ],
      "name": "AddressInsufficientBalance",
      "type": "error"
    },
    {
      "inputs": [],
      "name": "FailedInnerCall",
      "type": "error"
    },
    {
      "inputs": [
        {
          "internalType": "address",
          "name": "owner",
          "type": "address"
        }
      ],
      "name": "OwnableInvalidOwner",
      "type": "error"
    },
    {
      "inputs": [
        {
          "internalType": "address",
          "name": "account",
          "type": "address"
        }
      ],
      "name": "OwnableUnauthorizedAccount",
      "type": "error"
    },
    {
      "inputs": [],
      "name": "ReentrancyGuardReentrantCall",
      "type": "error"
    },
    {
      "inputs": [
        {
          "internalType": "address",
          "name": "token",
          "type": "address"
        }
      ],
      "name": "SafeERC20FailedOperation",
      "type": "error"
    },
    {
      "anonymous": false,
      "inputs": [
        {
          "indexed": true,
          "internalType": "address",
          "name": "wrappedSong",
          "type": "address"
        },
        {
          "indexed": true,
          "internalType": "address",
          "name": "distributor",
          "type": "address"
        }
      ],
      "name": "DistributorAcceptedReview",
      "type": "event"
    },
    {
      "anonymous": false,
      "inputs": [
        {
          "indexed": true,
          "internalType": "address",
          "name": "token",
          "type": "address"
        },
        {
          "indexed": true,
          "internalType": "address",
          "name": "recipient",
          "type": "address"
        },
        {
          "indexed": false,
          "internalType": "uint256",
          "name": "amount",
          "type": "uint256"
        }
      ],
      "name": "FeesWithdrawn",
      "type": "event"
    },
    {
      "anonymous": false,
      "inputs": [
        {
          "indexed": true,
          "internalType": "address",
          "name": "previousOwner",
          "type": "address"
        },
        {
          "indexed": true,
          "internalType": "address",
          "name": "newOwner",
          "type": "address"
        }
      ],
      "name": "OwnershipTransferred",
      "type": "event"
    },
    {
      "anonymous": false,
      "inputs": [
        {
          "indexed": true,
          "internalType": "address",
          "name": "creator",
          "type": "address"
        },
        {
          "indexed": true,
          "internalType": "address",
          "name": "token",
          "type": "address"
        },
        {
          "indexed": false,
          "internalType": "uint256",
          "name": "amount",
          "type": "uint256"
        }
      ],
      "name": "ReleaseFeeCollected",
      "type": "event"
    },
    {
      "anonymous": false,
      "inputs": [
        {
          "indexed": false,
          "internalType": "bool",
          "name": "enabled",
          "type": "bool"
        }
      ],
      "name": "ReleasesEnabledChanged",
      "type": "event"
    },
    {
      "anonymous": false,
      "inputs": [
        {
          "indexed": true,
          "internalType": "address",
          "name": "wrappedSong",
          "type": "address"
        },
        {
          "indexed": true,
          "internalType": "address",
          "name": "distributor",
          "type": "address"
        }
      ],
      "name": "ReviewPeriodExpired",
      "type": "event"
    },
    {
      "anonymous": false,
      "inputs": [
        {
          "indexed": true,
          "internalType": "address",
          "name": "wrappedSong",
          "type": "address"
        },
        {
          "indexed": true,
          "internalType": "address",
          "name": "distributor",
          "type": "address"
        }
      ],
      "name": "WrappedSongReleaseRejected",
      "type": "event"
    },
    {
      "anonymous": false,
      "inputs": [
        {
          "indexed": true,
          "internalType": "address",
          "name": "wrappedSong",
          "type": "address"
        },
        {
          "indexed": true,
          "internalType": "address",
          "name": "distributor",
          "type": "address"
        },
        {
          "indexed": true,
          "internalType": "address",
          "name": "creator",
          "type": "address"
        }
      ],
      "name": "WrappedSongReleaseRequested",
      "type": "event"
    },
    {
      "anonymous": false,
      "inputs": [
        {
          "indexed": true,
          "internalType": "address",
          "name": "wrappedSong",
          "type": "address"
        },
        {
          "indexed": true,
          "internalType": "address",
          "name": "distributor",
          "type": "address"
        }
      ],
      "name": "WrappedSongReleased",
      "type": "event"
    },
    {
      "stateMutability": "payable",
      "type": "fallback"
    },
    {
      "inputs": [
        {
          "internalType": "address",
          "name": "wrappedSong",
          "type": "address"
        }
      ],
      "name": "acceptWrappedSongForReview",
      "outputs": [],
      "stateMutability": "nonpayable",
      "type": "function"
    },
    {
      "inputs": [
        {
          "internalType": "address",
          "name": "",
          "type": "address"
        }
      ],
      "name": "accumulatedFees",
      "outputs": [
        {
          "internalType": "uint256",
          "name": "",
          "type": "uint256"
        }
      ],
      "stateMutability": "view",
      "type": "function"
    },
    {
      "inputs": [
        {
          "internalType": "address",
          "name": "wrappedSong",
          "type": "address"
        }
      ],
      "name": "confirmWrappedSongRelease",
      "outputs": [],
      "stateMutability": "nonpayable",
      "type": "function"
    },
    {
      "inputs": [],
      "name": "distributorWalletFactory",
      "outputs": [
        {
          "internalType": "contract IDistributorWalletFactory",
          "name": "",
          "type": "address"
        }
      ],
      "stateMutability": "view",
      "type": "function"
    },
    {
      "inputs": [],
      "name": "erc20whitelist",
      "outputs": [
        {
          "internalType": "contract IERC20Whitelist",
          "name": "",
          "type": "address"
        }
      ],
      "stateMutability": "view",
      "type": "function"
    },
    {
      "inputs": [],
      "name": "feesModule",
      "outputs": [
        {
          "internalType": "contract IFeesModule",
          "name": "",
          "type": "address"
        }
      ],
      "stateMutability": "view",
      "type": "function"
    },
    {
      "inputs": [
        {
          "internalType": "address",
          "name": "wrappedSong",
          "type": "address"
        }
      ],
      "name": "getPendingDistributorRequests",
      "outputs": [
        {
          "internalType": "address",
          "name": "",
          "type": "address"
        }
      ],
      "stateMutability": "view",
      "type": "function"
    },
    {
      "inputs": [],
      "name": "getStablecoinFeeReceiver",
      "outputs": [
        {
          "internalType": "address",
          "name": "",
          "type": "address"
        }
      ],
      "stateMutability": "view",
      "type": "function"
    },
    {
      "inputs": [
        {
          "internalType": "address",
          "name": "wrappedSong",
          "type": "address"
        }
      ],
      "name": "getWrappedSongDistributor",
      "outputs": [
        {
          "internalType": "address",
          "name": "",
          "type": "address"
        }
      ],
      "stateMutability": "view",
      "type": "function"
    },
    {
      "inputs": [
        {
          "internalType": "address",
          "name": "wrappedSong",
          "type": "address"
        }
      ],
      "name": "handleExpiredReviewPeriod",
      "outputs": [],
      "stateMutability": "nonpayable",
      "type": "function"
    },
    {
      "inputs": [
        {
          "internalType": "address",
          "name": "_feesModule",
          "type": "address"
        },
        {
          "internalType": "address",
          "name": "_erc20whitelist",
          "type": "address"
        },
        {
          "internalType": "address",
          "name": "_distributorWalletFactory",
          "type": "address"
        },
        {
          "internalType": "address",
          "name": "_metadataModule",
          "type": "address"
        }
      ],
      "name": "initialize",
      "outputs": [],
      "stateMutability": "nonpayable",
      "type": "function"
    },
    {
      "inputs": [
        {
          "internalType": "address",
          "name": "wrappedSong",
          "type": "address"
        }
      ],
      "name": "isReleased",
      "outputs": [
        {
          "internalType": "bool",
          "name": "",
          "type": "bool"
        }
      ],
      "stateMutability": "view",
      "type": "function"
    },
    {
      "inputs": [],
      "name": "metadataModule",
      "outputs": [
        {
          "internalType": "contract IMetadataModule",
          "name": "",
          "type": "address"
        }
      ],
      "stateMutability": "view",
      "type": "function"
    },
    {
      "inputs": [],
      "name": "owner",
      "outputs": [
        {
          "internalType": "address",
          "name": "",
          "type": "address"
        }
      ],
      "stateMutability": "view",
      "type": "function"
    },
    {
      "inputs": [
        {
          "internalType": "address",
          "name": "",
          "type": "address"
        }
      ],
      "name": "pendingDistributorRequests",
      "outputs": [
        {
          "internalType": "address",
          "name": "",
          "type": "address"
        }
      ],
      "stateMutability": "view",
      "type": "function"
    },
    {
      "inputs": [
        {
          "internalType": "address",
          "name": "wrappedSong",
          "type": "address"
        }
      ],
      "name": "rejectWrappedSongRelease",
      "outputs": [],
      "stateMutability": "nonpayable",
      "type": "function"
    },
    {
      "inputs": [],
      "name": "releasesEnabled",
      "outputs": [
        {
          "internalType": "bool",
          "name": "",
          "type": "bool"
        }
      ],
      "stateMutability": "view",
      "type": "function"
    },
    {
      "inputs": [
        {
          "internalType": "address",
          "name": "wrappedSong",
          "type": "address"
        }
      ],
      "name": "removeWrappedSongReleaseRequest",
      "outputs": [],
      "stateMutability": "nonpayable",
      "type": "function"
    },
    {
      "inputs": [],
      "name": "renounceOwnership",
      "outputs": [],
      "stateMutability": "nonpayable",
      "type": "function"
    },
    {
      "inputs": [
        {
          "internalType": "address",
          "name": "wrappedSong",
          "type": "address"
        },
        {
          "internalType": "address",
          "name": "distributor",
          "type": "address"
        }
      ],
      "name": "requestWrappedSongRelease",
      "outputs": [],
      "stateMutability": "payable",
      "type": "function"
    },
    {
      "inputs": [
        {
          "internalType": "address",
          "name": "wrappedSong",
          "type": "address"
        },
        {
          "internalType": "address",
          "name": "distributor",
          "type": "address"
        },
        {
          "components": [
            {
              "internalType": "string",
              "name": "name",
              "type": "string"
            },
            {
              "internalType": "string",
              "name": "description",
              "type": "string"
            },
            {
              "internalType": "string",
              "name": "image",
              "type": "string"
            },
            {
              "internalType": "string",
              "name": "externalUrl",
              "type": "string"
            },
            {
              "internalType": "string",
              "name": "animationUrl",
              "type": "string"
            },
            {
              "internalType": "string",
              "name": "attributesIpfsHash",
              "type": "string"
            }
          ],
          "internalType": "struct IMetadataModule.Metadata",
          "name": "newMetadata",
          "type": "tuple"
        }
      ],
      "name": "requestWrappedSongReleaseWithMetadata",
      "outputs": [],
      "stateMutability": "payable",
      "type": "function"
    },
    {
      "inputs": [],
      "name": "reviewPeriodDays",
      "outputs": [
        {
          "internalType": "uint256",
          "name": "",
          "type": "uint256"
        }
      ],
      "stateMutability": "view",
      "type": "function"
    },
    {
      "inputs": [
        {
          "internalType": "address",
          "name": "",
          "type": "address"
        }
      ],
      "name": "reviewPeriods",
      "outputs": [
        {
          "internalType": "uint256",
          "name": "startTime",
          "type": "uint256"
        },
        {
          "internalType": "uint256",
          "name": "endTime",
          "type": "uint256"
        },
        {
          "internalType": "address",
          "name": "distributor",
          "type": "address"
        }
      ],
      "stateMutability": "view",
      "type": "function"
    },
    {
      "inputs": [
        {
          "internalType": "bool",
          "name": "_enabled",
          "type": "bool"
        }
      ],
      "name": "setReleasesEnabled",
      "outputs": [],
      "stateMutability": "nonpayable",
      "type": "function"
    },
    {
      "inputs": [
        {
          "internalType": "uint256",
          "name": "_days",
          "type": "uint256"
        }
      ],
      "name": "setReviewPeriodDays",
      "outputs": [],
      "stateMutability": "nonpayable",
      "type": "function"
    },
    {
      "inputs": [
        {
          "internalType": "address",
          "name": "newReceiver",
          "type": "address"
        }
      ],
      "name": "setStablecoinFeeReceiver",
      "outputs": [],
      "stateMutability": "nonpayable",
      "type": "function"
    },
    {
      "inputs": [],
      "name": "stablecoinFeeReceiver",
      "outputs": [
        {
          "internalType": "address",
          "name": "",
          "type": "address"
        }
      ],
      "stateMutability": "view",
      "type": "function"
    },
    {
      "inputs": [
        {
          "internalType": "address",
          "name": "newOwner",
          "type": "address"
        }
      ],
      "name": "transferOwnership",
      "outputs": [],
      "stateMutability": "nonpayable",
      "type": "function"
    },
    {
      "inputs": [
        {
          "internalType": "address",
          "name": "wrappedSong",
          "type": "address"
        },
        {
          "internalType": "address",
          "name": "newDistributor",
          "type": "address"
        }
      ],
      "name": "updateWrappedSongDistributor",
      "outputs": [],
      "stateMutability": "nonpayable",
      "type": "function"
    },
    {
      "inputs": [
        {
          "internalType": "address",
          "name": "token",
          "type": "address"
        },
        {
          "internalType": "address",
          "name": "recipient",
          "type": "address"
        }
      ],
      "name": "withdrawAccumulatedFees",
      "outputs": [],
      "stateMutability": "nonpayable",
      "type": "function"
    },
    {
      "inputs": [
        {
          "internalType": "address",
          "name": "",
          "type": "address"
        }
      ],
      "name": "wrappedSongToDistributor",
      "outputs": [
        {
          "internalType": "address",
          "name": "",
          "type": "address"
        }
      ],
      "stateMutability": "view",
      "type": "function"
    },
    {
      "stateMutability": "payable",
      "type": "receive"
    }
  ],
  "bytecode": "0x6080806040523461009057331561007a5760008054336001600160a01b03198216811783556040519290916001600160a01b0316907f8be0079c531659141344cd1fd0a4f28419497f9722a3daafe3b4186f6b6457e09080a360018055600160ff19600a541617600a556007600b5561218190816100968239f35b631e4fbdf760e01b815260006004820152602490fd5b600080fdfe608080604052600436101561001a575b50361561001857005b005b600090813560e01c90816309da4e5114611a7c575080630c5d8da114611a53578063175b818c14611a305780631a3b00e214611a125780631f471069146119ef5780632b03295f146118685780632cd6c9a6146115f95780633684d1001461183f578063376c1f071461167357806337c38c48146116355780633aa690e7146115f957806346d5397c146114245780634b08ec501461144d57806362f0bdde146114245780636b09d202146110455780636d4726d9146113fb578063715018a6146113a15780638437de381461133d5780638da5cb5b14611316578063b0c70e2714611233578063c05f856514611081578063c7be5e2a14611045578063ccad87f014610f5a578063cd36bc9a14610bab578063e72cfcb814610b57578063eefeb7bc14610acb578063f2fde38b14610a45578063f526036914610956578063f8c8765e14610853578063fcf66664146108175763ffc5a46f0361000f576003196060368201126108135761018d611aa1565b90610196611abc565b90604435906001600160401b03821161080f5760c090823603011261080b576040519060c082018281106001600160401b038211176107f75760405280600401356001600160401b0381116107eb576101f59060043691840101611b5a565b825260248101356001600160401b0381116107eb5761021a9060043691840101611b5a565b602083015260448101356001600160401b0381116107eb576102429060043691840101611b5a565b604083015260648101356001600160401b0381116107eb5761026a9060043691840101611b5a565b606083015260848101356001600160401b0381116107eb576102929060043691840101611b5a565b608083015260a4810135906001600160401b0382116107eb5760046102ba9236920101611b5a565b60a08201526102cd60ff600a5416611bcd565b6102d78284611c90565b600254604051638d0c0ce360e01b81526001600160a01b039091169190602081600481865afa9081156105f55786916107c1575b5060405163d579e3f360e01b815292602084600481845afa90811561078457600494889261078f575b50602090604051958680926337a0a9e960e11b82525afa93841561078457879461074c575b508115610704571561060057600354604051637c70c0a360e01b81526004810194909452602090849060249082906001600160a01b03165afa9283156105f55786936105c4575b506001600160a01b0383161561057357600c546040516323b872dd60e01b60208201523360248201526001600160a01b03909116604482015260648082018390528152869390610402906103f381611b03565b6001600160a01b038316612056565b6001600160a01b03811684526006602052604084208054610424908490611fb7565b90556040519182526001600160a01b031690339060008051602061212c83398151915290602090a35b6005546001600160a01b031690813b1561056f57829161051b91604051948580948193635dc447ed60e01b835260018060a01b038b166004840152604060248401526104a6815160c06044860152610104850190611c19565b60a06105096104f56104e16104cd60208701519560431996878b83030160648c0152611c19565b6040870151868a83030160848b0152611c19565b6060860151858983030160a48a0152611c19565b6080850151848883030160c4890152611c19565b920151908483030160e4850152611c19565b03925af1801561056457610537575b5061053491611f14565b80f35b6001600160401b0381116105505760405261053461052a565b634e487b7160e01b84526041600452602484fd5b6040513d86823e3d90fd5b8280fd5b60405162461bcd60e51b815260206004820152602360248201527f4e6f2077686974656c697374656420737461626c65636f696e20617661696c61604482015262626c6560e81b6064820152608490fd5b6105e791935060203d6020116105ee575b6105df8183611b1e565b810190611c59565b91386103a0565b503d6105d5565b6040513d88823e3d90fd5b80925034106106c4578491828052600660205260408320610622348254611fb7565b905580341161064d575b508160405134815260008051602061212c83398151915260203392a361044d565b90915034033481116106b0578480808093335af1610669612026565b50156106775783903861062c565b60405162461bcd60e51b8152602060048201526011602482015270115512081c99599d5b990819985a5b1959607a1b6044820152606490fd5b634e487b7160e01b85526011600452602485fd5b60405162461bcd60e51b8152602060048201526018602482015277125b98dbdc9c9958dd081155120819995948185b5bdd5b9d60421b6044820152606490fd5b505090503461071457839061044d565b60405162461bcd60e51b815260206004820152601060248201526f119959481b9bdd081c995c5d5a5c995960821b6044820152606490fd5b9093506020813d60201161077c575b8161076860209383611b1e565b8101031261077857519238610359565b8680fd5b3d915061075b565b6040513d89823e3d90fd5b60209192506107b390823d84116107ba575b6107ab8183611b1e565b810190611c78565b9190610334565b503d6107a1565b90506020813d6020116107ef575b816107dc60209383611b1e565b810103126107eb57513861030b565b8580fd5b3d91506107cf565b634e487b7160e01b86526041600452602486fd5b8380fd5b8480fd5b5080fd5b5034610850576020366003190112610850576020906040906001600160a01b0361083f611aa1565b168152600683522054604051908152f35b80fd5b50346108505760803660031901126108505761086d611aa1565b610875611abc565b906001600160a01b0390604435828116919082900361080f57606435938385168095036107eb576108a4611ba1565b600254848116158061094a575b8061093e575b80610932575b156108f75784926001600160601b0360a01b9586911691161760025516826003541617600355816004541617600455600554161760055580f35b60405162461bcd60e51b8152602060048201526013602482015272105b1c9958591e481a5b9a5d1a585b1a5e9959606a1b6044820152606490fd5b508460055416156108bd565b508460045416156108b7565b508460035416156108b1565b503461085057602080600319360112610813576001600160a01b0390602490808361097f611aa1565b169384865260088252610999816040882054163314611fda565b600454166040519384809263d42fe23160e01b82523360048301525afa918215610564576009926109d1918691610a28575b50611f6b565b82845260088152604084206001600160601b0360a01b81541690555281600260408220828155826001820155015533907fc507cac5427f24391d3862582c450f4840191f3fb50ae93ea8eb3e5d0a27241a8380a380f35b610a3f9150833d85116107ba576107ab8183611b1e565b386109cb565b503461085057602036600319011261085057610a5f611aa1565b610a67611ba1565b6001600160a01b03908116908115610ab25782546001600160a01b0319811683178455167f8be0079c531659141344cd1fd0a4f28419497f9722a3daafe3b4186f6b6457e08380a380f35b604051631e4fbdf760e01b815260048101849052602490fd5b503461085057602036600319011261085057610ae5611aa1565b610aed611ba1565b6001600160a01b03168015610b12576001600160601b0360a01b600c541617600c5580f35b60405162461bcd60e51b815260206004820152601860248201527f496e76616c6964207265636569766572206164647265737300000000000000006044820152606490fd5b5034610850576020366003190112610850576060906001600160a01b039060409082610b81611aa1565b16815260096020522080549160026001830154920154169060405192835260208301526040820152f35b50604036600319011261085057610bc0611aa1565b90610bc9611abc565b610bd760ff600a5416611bcd565b610be18184611c90565b600254604051638d0c0ce360e01b8152602094916001600160a01b03919082168682600481845afa9182156105f5578692610f2b575b5060405163d579e3f360e01b8152908782600481845afa918215610784576004929189918993610f0c575b506040516337a0a9e960e11b815293849182905afa918215610784578792610edd575b508215610e915715610d905786836003541691602460405180948193637c70c0a360e01b835260048301525afa9081156105f5579083918791610d73575b5016918215610d22576105349596610cfc60008051602061212c83398151915292600c5416604051906323b872dd60e01b84830152336024830152604482015284606482015260648152610cf681611b03565b85612056565b8388526006815260408820610d12848254611fb7565b90556040519283523392a3611f14565b60405162461bcd60e51b815260048101889052602360248201527f4e6f2077686974656c697374656420737461626c65636f696e20617661696c61604482015262626c6560e81b6064820152608490fd5b610d8a9150883d8a116105ee576105df8183611b1e565b38610ca3565b508091503410610e51578380526006855260408420610db0348254611fb7565b9055803411610ddf575b5082610534939460008051602061212c833981519152604051913483523392a3611f14565b3403348111610e3d578380808093335af1610df8612026565b5015610e045738610dba565b60405162461bcd60e51b8152600481018590526011602482015270115512081c99599d5b990819985a5b1959607a1b6044820152606490fd5b634e487b7160e01b84526011600452602484fd5b60405162461bcd60e51b8152600481018690526018602482015277125b98dbdc9c9958dd081155120819995948185b5bdd5b9d60421b6044820152606490fd5b5050505034610ea557610534929350611f14565b60405162461bcd60e51b815260048101859052601060248201526f119959481b9bdd081c995c5d5a5c995960821b6044820152606490fd5b9091508781813d8311610f05575b610ef58183611b1e565b8101031261077857519038610c65565b503d610eeb565b610f24919350823d84116107ba576107ab8183611b1e565b9138610c42565b9091508681813d8311610f53575b610f438183611b1e565b810103126107eb57519038610c17565b503d610f39565b5034610850576020366003190112610850576001600160a01b0380610f7d611aa1565b169081835260096020526040832060405190610f9882611ad2565b80548252604083600260018401549384602087015201541692019182524211156110005782845260096020528360026040822082815582600182015501555116907ffbea9ba5ee98f3c8b5c04ea0c944ead3100801a041d88f0c7e90d404ddac1c6a8380a380f35b60405162461bcd60e51b815260206004820152601d60248201527f52657669657720706572696f6420686173206e6f7420657870697265640000006044820152606490fd5b5034610850576020366003190112610850576020906001600160a01b03906040908261106f611aa1565b16815260088452205416604051908152f35b50346108505760403660031901126108505761109b611aa1565b6110a3611abc565b6001600160a01b0391821680845260076020908152604085205492939092811680156111ee57330361119157831692831561114c573b156110fc578352600790526040822080546001600160a01b031916909117905580f35b60405162461bcd60e51b815260048101839052602260248201527f4e6577206469737472696275746f72206d757374206265206120636f6e74726160448201526118dd60f21b6064820152608490fd5b60405162461bcd60e51b815260048101849052601f60248201527f496e76616c6964206e6577206469737472696275746f722061646472657373006044820152606490fd5b60405162461bcd60e51b815260048101849052602f60248201527f4f6e6c792063757272656e74206469737472696275746f722063616e2075706460448201526e30ba32903234b9ba3934b13aba37b960891b6064820152608490fd5b60405162461bcd60e51b815260048101859052601d60248201527f5772617070656420736f6e67206e6f742072656c6561736564207965740000006044820152606490fd5b503461085057602080600319360112610813576001600160a01b0390602490808361125c611aa1565b169384865260088252611276816040882054163314611fda565b600454166040519384809263d42fe23160e01b82523360048301525afa918215610564576009926112ad918691610a285750611f6b565b82845260078152604084206001600160601b0360a01b90338282541617905560088252604085209081541690555281600260408220828155826001820155015533907f1ec2d15be1d4041a85003ee3860453fb0818606e3ccda6f18c41e692a25d5eea8380a380f35b5034610850578060031936011261085057546040516001600160a01b039091168152602090f35b5034610850576020366003190112610850576004358015158091036108135760207fb5bb594c95eb864915724f4025ebea72bd6b2c96ee4243baceea4d04365efb6891611388611ba1565b60ff19600a541660ff821617600a55604051908152a180f35b50346108505780600319360112610850576113ba611ba1565b80546001600160a01b03198116825581906001600160a01b03167f8be0079c531659141344cd1fd0a4f28419497f9722a3daafe3b4186f6b6457e08280a380f35b50346108505780600319360112610850576002546040516001600160a01b039091168152602090f35b5034610850578060031936011261085057600c546040516001600160a01b039091168152602090f35b503461085057602080600319360112610813576001600160a01b039081611472611aa1565b16918284526008825280604085205416330361159d5760248282600454166040519283809263d42fe23160e01b82523360048301525afa8015611592576114bf91869161157b5750611f6b565b8284526008825260408420906001600160601b0360a01b91828154169055600b5462015180908181029181830414901517156115675761150160029142611fb7565b6040519061150e82611ad2565b42825285820190815260096040830196338852888a52526040882091518255516001820155019251169082541617905533907f0410af91d3fc953f1f383fde268b1cf5278d116a88123c657df6685f443359418380a380f35b634e487b7160e01b86526011600452602486fd5b610a3f9150843d86116107ba576107ab8183611b1e565b6040513d87823e3d90fd5b60405162461bcd60e51b815260048101839052602e60248201527f4f6e6c792070656e64696e67206469737472696275746f722063616e2061636360448201526d65707420666f722072657669657760901b6064820152608490fd5b5034610850576020366003190112610850576020906001600160a01b039060409082611623611aa1565b16815260078452205416604051908152f35b5034610850576020366003190112610850576020906001600160a01b03906040908261165f611aa1565b168152600784522054161515604051908152f35b50346108505760403660031901126108505761168d611aa1565b611695611abc565b9061169e611ba1565b60026001541461182d5760026001556001600160a01b03908116808452600660209081526040852054939192909184156117f2578386526006835285604081205583156000146117705785808080888686165af16116fa612026565b501561173557907f5e110f8bc8a20b65dcc87f224bdf1cc039346e267118bae2739847f07321ffa892915b6040519586521693a36001805580f35b60405162461bcd60e51b8152600481018490526013602482015272115512081d1c985b9cd9995c8819985a5b1959606a1b6044820152606490fd5b60405163a9059cbb60e01b84820152818316602482015260448082018790528152608081016001600160401b038111828210176117de577f5e110f8bc8a20b65dcc87f224bdf1cc039346e267118bae2739847f07321ffa8949392916117d99160405286612056565b611725565b634e487b7160e01b88526041600452602488fd5b60405162461bcd60e51b81526004810184905260136024820152724e6f206665657320746f20776974686472617760681b6044820152606490fd5b604051633ee5aeb560e01b8152600490fd5b50346108505780600319360112610850576005546040516001600160a01b039091168152602090f35b503461085057602080600319360112610813576001600160a01b03908161188d611aa1565b16604051638da5cb5b60e01b81528281600481855afa801561159257849186916119d2575b501633036119725780845260088252826040852054161561192d57818360045416938286526008825260408620541660246040518096819363d42fe23160e01b835260048301525afa9283156105645760089361191591869161157b5750611f6b565b8352526040812080546001600160a01b031916905580f35b60405162461bcd60e51b815260048101839052601a60248201527f4e6f2070656e64696e672072656c6561736520726571756573740000000000006044820152606490fd5b60405162461bcd60e51b815260048101839052603260248201527f4f6e6c79207772617070656420736f6e67206f776e65722063616e2072656d6f6044820152711d99481c995b19585cd9481c995c5d595cdd60721b6064820152608490fd5b6119e99150843d86116105ee576105df8183611b1e565b386118b2565b503461085057602036600319011261085057611a09611ba1565b600435600b5580f35b50346108505780600319360112610850576020600b54604051908152f35b5034610850578060031936011261085057602060ff600a54166040519015158152f35b50346108505780600319360112610850576004546040516001600160a01b039091168152602090f35b9050346108135781600319360112610813576003546001600160a01b03168152602090f35b600435906001600160a01b0382168203611ab757565b600080fd5b602435906001600160a01b0382168203611ab757565b606081019081106001600160401b03821117611aed57604052565b634e487b7160e01b600052604160045260246000fd5b60a081019081106001600160401b03821117611aed57604052565b90601f801991011681019081106001600160401b03821117611aed57604052565b6001600160401b038111611aed57601f01601f191660200190565b81601f82011215611ab757803590611b7182611b3f565b92611b7f6040519485611b1e565b82845260208383010111611ab757816000926020809301838601378301015290565b6000546001600160a01b03163303611bb557565b60405163118cdaa760e01b8152336004820152602490fd5b15611bd457565b60405162461bcd60e51b815260206004820152601f60248201527f52656c6561736573206172652063757272656e746c792064697361626c6564006044820152606490fd5b919082519283825260005b848110611c45575050826000602080949584010152601f8019910116010190565b602081830181015184830182015201611c24565b90816020910312611ab757516001600160a01b0381168103611ab75790565b90816020910312611ab757518015158103611ab75790565b60408051638da5cb5b60e01b81526004936020936001600160a01b0392908316919085818881865afa908115611f0957908491600091611eec575b50163303611e9557828116908115611e47573b15611df657848387541691602486518094819363d42fe23160e01b83528b8301525afa908115611deb57600091611dce575b5015611d6d5760005260078352816000205416611d2c57505050565b5162461bcd60e51b815291820152601d60248201527f5772617070656420736f6e6720616c72656164792072656c6561736564000000604482015260649150fd5b50505162461bcd60e51b815291820152603560248201527f496e76616c6964206469737472696275746f722077616c6c65743a206e6f74206044820152747265676973746572656420696e20666163746f727960581b606482015260849150fd5b611de59150853d87116107ba576107ab8183611b1e565b38611d10565b84513d6000823e3d90fd5b835162461bcd60e51b8152808701869052602560248201527f4469737472696275746f722077616c6c6574206d757374206265206120636f6e6044820152641d1c9858dd60da1b6064820152608490fd5b845162461bcd60e51b8152808801879052602260248201527f496e76616c6964206469737472696275746f722077616c6c6574206164647265604482015261737360f01b6064820152608490fd5b835162461bcd60e51b8152808701869052602b60248201527f4f6e6c79207772617070656420736f6e67206f776e65722063616e207265717560448201526a6573742072656c6561736560a81b6064820152608490fd5b611f039150873d89116105ee576105df8183611b1e565b38611ccb565b85513d6000823e3d90fd5b6001600160a01b03908116600081815260086020526040812080546001600160a01b0319169390941692831790935533927fef84744274082261c3a861cf791747fa0ff5d32d6b7dad92e9f777118fc002899080a4565b15611f7257565b60405162461bcd60e51b815260206004820152601a60248201527f4469737472696275746f7220646f6573206e6f742065786973740000000000006044820152606490fd5b91908201809211611fc457565b634e487b7160e01b600052601160045260246000fd5b15611fe157565b60405162461bcd60e51b815260206004820152601b60248201527f4e6f74207468652070656e64696e67206469737472696275746f7200000000006044820152606490fd5b3d15612051573d9061203782611b3f565b916120456040519384611b1e565b82523d6000602084013e565b606090565b60008061207f9260018060a01b03169360208151910182865af1612078612026565b90836120c8565b80519081151591826120ad575b50506120955750565b60249060405190635274afe760e01b82526004820152fd5b6120c09250602080918301019101611c78565b15388061208c565b906120ef57508051156120dd57805190602001fd5b604051630a12f52160e11b8152600490fd5b81511580612122575b612100575090565b604051639996b31560e01b81526001600160a01b039091166004820152602490fd5b50803b156120f856fe29aebcd0c90b02b955331c453efc06d743e10d2655ab14c0fa2aaec13706f214a26469706673582212206e33bad4f2bd1b08534524082dd429d4c916c3a12f00db4a6720ccc3a1c9b34064736f6c63430008140033",
  "linkReferences": {},
  "deployedLinkReferences": {}
}