{
  "_format": "hh-sol-artifact-1",
  "contractName": "ReleaseModule",
  "sourceName": "contracts/protocol/Modules/ReleaseModule.sol",
  "abi": [
    {
      "inputs": [],
      "stateMutability": "nonpayable",
      "type": "constructor"
    },
    {
      "inputs": [
        {
          "internalType": "address",
          "name": "target",
          "type": "address"
        }
      ],
      "name": "AddressEmptyCode",
      "type": "error"
    },
    {
      "inputs": [
        {
          "internalType": "address",
          "name": "account",
          "type": "address"
        }
      ],
      "name": "AddressInsufficientBalance",
      "type": "error"
    },
    {
      "inputs": [],
      "name": "FailedInnerCall",
      "type": "error"
    },
    {
      "inputs": [
        {
          "internalType": "address",
          "name": "owner",
          "type": "address"
        }
      ],
      "name": "OwnableInvalidOwner",
      "type": "error"
    },
    {
      "inputs": [
        {
          "internalType": "address",
          "name": "account",
          "type": "address"
        }
      ],
      "name": "OwnableUnauthorizedAccount",
      "type": "error"
    },
    {
      "inputs": [],
      "name": "ReentrancyGuardReentrantCall",
      "type": "error"
    },
    {
      "inputs": [
        {
          "internalType": "address",
          "name": "token",
          "type": "address"
        }
      ],
      "name": "SafeERC20FailedOperation",
      "type": "error"
    },
    {
      "anonymous": false,
      "inputs": [
        {
          "indexed": true,
          "internalType": "address",
          "name": "wrappedSong",
          "type": "address"
        },
        {
          "indexed": true,
          "internalType": "address",
          "name": "distributor",
          "type": "address"
        }
      ],
      "name": "DistributorAcceptedReview",
      "type": "event"
    },
    {
      "anonymous": false,
      "inputs": [
        {
          "indexed": true,
          "internalType": "address",
          "name": "token",
          "type": "address"
        },
        {
          "indexed": true,
          "internalType": "address",
          "name": "recipient",
          "type": "address"
        },
        {
          "indexed": false,
          "internalType": "uint256",
          "name": "amount",
          "type": "uint256"
        }
      ],
      "name": "FeesWithdrawn",
      "type": "event"
    },
    {
      "anonymous": false,
      "inputs": [
        {
          "indexed": true,
          "internalType": "address",
          "name": "previousOwner",
          "type": "address"
        },
        {
          "indexed": true,
          "internalType": "address",
          "name": "newOwner",
          "type": "address"
        }
      ],
      "name": "OwnershipTransferred",
      "type": "event"
    },
    {
      "anonymous": false,
      "inputs": [
        {
          "indexed": true,
          "internalType": "address",
          "name": "wrappedSong",
          "type": "address"
        },
        {
          "indexed": true,
          "internalType": "address",
          "name": "token",
          "type": "address"
        },
        {
          "indexed": false,
          "internalType": "uint256",
          "name": "amount",
          "type": "uint256"
        }
      ],
      "name": "ReleaseFeeCollected",
      "type": "event"
    },
    {
      "anonymous": false,
      "inputs": [
        {
          "indexed": false,
          "internalType": "bool",
          "name": "enabled",
          "type": "bool"
        }
      ],
      "name": "ReleasesEnabledChanged",
      "type": "event"
    },
    {
      "anonymous": false,
      "inputs": [
        {
          "indexed": true,
          "internalType": "address",
          "name": "wrappedSong",
          "type": "address"
        },
        {
          "indexed": true,
          "internalType": "address",
          "name": "distributor",
          "type": "address"
        }
      ],
      "name": "ReviewPeriodExpired",
      "type": "event"
    },
    {
      "anonymous": false,
      "inputs": [
        {
          "indexed": true,
          "internalType": "address",
          "name": "wrappedSong",
          "type": "address"
        },
        {
          "indexed": true,
          "internalType": "address",
          "name": "distributor",
          "type": "address"
        }
      ],
      "name": "WrappedSongReleaseRejected",
      "type": "event"
    },
    {
      "anonymous": false,
      "inputs": [
        {
          "indexed": true,
          "internalType": "address",
          "name": "wrappedSong",
          "type": "address"
        },
        {
          "indexed": true,
          "internalType": "address",
          "name": "distributor",
          "type": "address"
        },
        {
          "indexed": true,
          "internalType": "address",
          "name": "creator",
          "type": "address"
        }
      ],
      "name": "WrappedSongReleaseRequested",
      "type": "event"
    },
    {
      "anonymous": false,
      "inputs": [
        {
          "indexed": true,
          "internalType": "address",
          "name": "wrappedSong",
          "type": "address"
        },
        {
          "indexed": true,
          "internalType": "address",
          "name": "distributor",
          "type": "address"
        }
      ],
      "name": "WrappedSongReleased",
      "type": "event"
    },
    {
      "stateMutability": "payable",
      "type": "fallback"
    },
    {
      "inputs": [
        {
          "internalType": "address",
          "name": "wrappedSong",
          "type": "address"
        }
      ],
      "name": "acceptWrappedSongForReview",
      "outputs": [],
      "stateMutability": "nonpayable",
      "type": "function"
    },
    {
      "inputs": [
        {
          "internalType": "address",
          "name": "",
          "type": "address"
        }
      ],
      "name": "accumulatedFees",
      "outputs": [
        {
          "internalType": "uint256",
          "name": "",
          "type": "uint256"
        }
      ],
      "stateMutability": "view",
      "type": "function"
    },
    {
      "inputs": [
        {
          "internalType": "address",
          "name": "wrappedSong",
          "type": "address"
        }
      ],
      "name": "confirmWrappedSongRelease",
      "outputs": [],
      "stateMutability": "nonpayable",
      "type": "function"
    },
    {
      "inputs": [],
      "name": "distributorWalletFactory",
      "outputs": [
        {
          "internalType": "contract IDistributorWalletFactory",
          "name": "",
          "type": "address"
        }
      ],
      "stateMutability": "view",
      "type": "function"
    },
    {
      "inputs": [],
      "name": "erc20whitelist",
      "outputs": [
        {
          "internalType": "contract IERC20Whitelist",
          "name": "",
          "type": "address"
        }
      ],
      "stateMutability": "view",
      "type": "function"
    },
    {
      "inputs": [],
      "name": "feesModule",
      "outputs": [
        {
          "internalType": "contract IFeesModule",
          "name": "",
          "type": "address"
        }
      ],
      "stateMutability": "view",
      "type": "function"
    },
    {
      "inputs": [
        {
          "internalType": "address",
          "name": "wrappedSong",
          "type": "address"
        }
      ],
      "name": "getPendingDistributorRequests",
      "outputs": [
        {
          "internalType": "address",
          "name": "",
          "type": "address"
        }
      ],
      "stateMutability": "view",
      "type": "function"
    },
    {
      "inputs": [
        {
          "internalType": "address",
          "name": "wrappedSong",
          "type": "address"
        }
      ],
      "name": "getWrappedSongDistributor",
      "outputs": [
        {
          "internalType": "address",
          "name": "",
          "type": "address"
        }
      ],
      "stateMutability": "view",
      "type": "function"
    },
    {
      "inputs": [
        {
          "internalType": "address",
          "name": "wrappedSong",
          "type": "address"
        }
      ],
      "name": "handleExpiredReviewPeriod",
      "outputs": [],
      "stateMutability": "nonpayable",
      "type": "function"
    },
    {
      "inputs": [
        {
          "internalType": "address",
          "name": "_feesModule",
          "type": "address"
        },
        {
          "internalType": "address",
          "name": "_erc20whitelist",
          "type": "address"
        },
        {
          "internalType": "address",
          "name": "_distributorWalletFactory",
          "type": "address"
        },
        {
          "internalType": "address",
          "name": "_metadataModule",
          "type": "address"
        }
      ],
      "name": "initialize",
      "outputs": [],
      "stateMutability": "nonpayable",
      "type": "function"
    },
    {
      "inputs": [
        {
          "internalType": "address",
          "name": "wrappedSong",
          "type": "address"
        }
      ],
      "name": "isReleased",
      "outputs": [
        {
          "internalType": "bool",
          "name": "",
          "type": "bool"
        }
      ],
      "stateMutability": "view",
      "type": "function"
    },
    {
      "inputs": [],
      "name": "metadataModule",
      "outputs": [
        {
          "internalType": "contract IMetadataModule",
          "name": "",
          "type": "address"
        }
      ],
      "stateMutability": "view",
      "type": "function"
    },
    {
      "inputs": [],
      "name": "owner",
      "outputs": [
        {
          "internalType": "address",
          "name": "",
          "type": "address"
        }
      ],
      "stateMutability": "view",
      "type": "function"
    },
    {
      "inputs": [
        {
          "internalType": "address",
          "name": "",
          "type": "address"
        }
      ],
      "name": "pendingDistributorRequests",
      "outputs": [
        {
          "internalType": "address",
          "name": "",
          "type": "address"
        }
      ],
      "stateMutability": "view",
      "type": "function"
    },
    {
      "inputs": [
        {
          "internalType": "address",
          "name": "wrappedSong",
          "type": "address"
        }
      ],
      "name": "rejectWrappedSongRelease",
      "outputs": [],
      "stateMutability": "nonpayable",
      "type": "function"
    },
    {
      "inputs": [],
      "name": "releasesEnabled",
      "outputs": [
        {
          "internalType": "bool",
          "name": "",
          "type": "bool"
        }
      ],
      "stateMutability": "view",
      "type": "function"
    },
    {
      "inputs": [
        {
          "internalType": "address",
          "name": "wrappedSong",
          "type": "address"
        }
      ],
      "name": "removeWrappedSongReleaseRequest",
      "outputs": [],
      "stateMutability": "nonpayable",
      "type": "function"
    },
    {
      "inputs": [],
      "name": "renounceOwnership",
      "outputs": [],
      "stateMutability": "nonpayable",
      "type": "function"
    },
    {
      "inputs": [
        {
          "internalType": "address",
          "name": "wrappedSong",
          "type": "address"
        },
        {
          "internalType": "address",
          "name": "distributor",
          "type": "address"
        }
      ],
      "name": "requestWrappedSongRelease",
      "outputs": [],
      "stateMutability": "payable",
      "type": "function"
    },
    {
      "inputs": [
        {
          "internalType": "address",
          "name": "wrappedSong",
          "type": "address"
        },
        {
          "internalType": "address",
          "name": "distributor",
          "type": "address"
        },
        {
          "components": [
            {
              "internalType": "string",
              "name": "name",
              "type": "string"
            },
            {
              "internalType": "string",
              "name": "description",
              "type": "string"
            },
            {
              "internalType": "string",
              "name": "image",
              "type": "string"
            },
            {
              "internalType": "string",
              "name": "externalUrl",
              "type": "string"
            },
            {
              "internalType": "string",
              "name": "animationUrl",
              "type": "string"
            },
            {
              "internalType": "string",
              "name": "attributesIpfsHash",
              "type": "string"
            }
          ],
          "internalType": "struct IMetadataModule.Metadata",
          "name": "newMetadata",
          "type": "tuple"
        }
      ],
      "name": "requestWrappedSongReleaseWithMetadata",
      "outputs": [],
      "stateMutability": "payable",
      "type": "function"
    },
    {
      "inputs": [],
      "name": "reviewPeriodDays",
      "outputs": [
        {
          "internalType": "uint256",
          "name": "",
          "type": "uint256"
        }
      ],
      "stateMutability": "view",
      "type": "function"
    },
    {
      "inputs": [
        {
          "internalType": "address",
          "name": "",
          "type": "address"
        }
      ],
      "name": "reviewPeriods",
      "outputs": [
        {
          "internalType": "uint256",
          "name": "startTime",
          "type": "uint256"
        },
        {
          "internalType": "uint256",
          "name": "endTime",
          "type": "uint256"
        },
        {
          "internalType": "address",
          "name": "distributor",
          "type": "address"
        }
      ],
      "stateMutability": "view",
      "type": "function"
    },
    {
      "inputs": [
        {
          "internalType": "bool",
          "name": "_enabled",
          "type": "bool"
        }
      ],
      "name": "setReleasesEnabled",
      "outputs": [],
      "stateMutability": "nonpayable",
      "type": "function"
    },
    {
      "inputs": [
        {
          "internalType": "uint256",
          "name": "_days",
          "type": "uint256"
        }
      ],
      "name": "setReviewPeriodDays",
      "outputs": [],
      "stateMutability": "nonpayable",
      "type": "function"
    },
    {
      "inputs": [
        {
          "internalType": "address",
          "name": "newOwner",
          "type": "address"
        }
      ],
      "name": "transferOwnership",
      "outputs": [],
      "stateMutability": "nonpayable",
      "type": "function"
    },
    {
      "inputs": [
        {
          "internalType": "address",
          "name": "token",
          "type": "address"
        },
        {
          "internalType": "address",
          "name": "recipient",
          "type": "address"
        }
      ],
      "name": "withdrawAccumulatedFees",
      "outputs": [],
      "stateMutability": "nonpayable",
      "type": "function"
    },
    {
      "inputs": [
        {
          "internalType": "address",
          "name": "",
          "type": "address"
        }
      ],
      "name": "wrappedSongToDistributor",
      "outputs": [
        {
          "internalType": "address",
          "name": "",
          "type": "address"
        }
      ],
      "stateMutability": "view",
      "type": "function"
    },
    {
      "stateMutability": "payable",
      "type": "receive"
    }
  ],
  "bytecode": "0x6080806040523461009057331561007a5760008054336001600160a01b03198216811783556040519290916001600160a01b0316907f8be0079c531659141344cd1fd0a4f28419497f9722a3daafe3b4186f6b6457e09080a360018055600160ff19600a541617600a556007600b55611b4990816100968239f35b631e4fbdf760e01b815260006004820152602490fd5b600080fdfe608060409080825260049182361015610020575b505050361561001e57005b005b600091823560e01c90816309da4e51146110ac575080630c5d8da114611084578063175b818c146110615780631a3b00e2146110435780631f471069146110215780632b03295f14610e625780632cd6c9a614610c045780633684d10014610e3a578063376c1f0714610c7a57806337c38c4814610c3e5780633aa690e714610c045780634b08ec5014610a565780636b09d202146108315780636d4726d914610a2e578063715018a6146109d45780638437de38146109715780638da5cb5b1461094a578063b0c70e271461086b578063c7be5e2a14610831578063ccad87f014610749578063cd36bc9a14610701578063e72cfcb8146106af578063f2fde38b14610628578063f526036914610520578063f8c8765e1461041c578063fcf66664146103e15763ffc5a46f03610013576003196060368201126103dd576101676110d1565b906101706110ec565b926044359167ffffffffffffffff908184116103d95760c09084360301126103d55781519260c08401848110838211176103c2578352808801358281116103be576101c090893691840101611172565b845260248101358281116103be576101dd90893691840101611172565b906020850191825260448101358381116103ba57610200908a3691840101611172565b9184860192835260648201358481116103b657610222908b3691850101611172565b916060870192835260848101358581116103b257610245908c3691840101611172565b906080880191825260a48101358681116103ae57610267913691018d01611172565b9060a0880191825261027d60ff600a54166111e5565b6102878a8a6112a8565b6102908961166e565b6005546001600160a01b0390811695909490863b156103aa57938d95938d9795938c9389958c519d8e9a8b998a98635dc447ed60e01b8a5216908801528d6024880152516044870160c0905261010487016102ea91611231565b9451604319958688820301606489015261030391611231565b9051908587820301608488015261031991611231565b905190848682030160a487015261032f91611231565b905190838582030160c486015261034591611231565b9051918382030160e484015261035a91611231565b03925af180156103a057610377575b85610374868661152c565b80f35b829593951161038d575291925082388080610369565b634e487b7160e01b835260418652602483fd5b82513d88823e3d90fd5b8c80fd5b8b80fd5b8a80fd5b8980fd5b8880fd5b8780fd5b634e487b7160e01b885260418952602488fd5b8580fd5b8680fd5b8280fd5b50346104185760203660031901126104185760209181906001600160a01b036104086110d1565b1681526006845220549051908152f35b5080fd5b508290346103dd5760803660031901126103dd576104386110d1565b916104416110ec565b6001600160a01b03926044358481169291908390036103d957606435958587168097036103be576104706111b9565b600254918683161580610514575b80610509575b806104fd575b156104c55750908592916001600160601b0360a01b968791169116176002551683600354161760035582825416179055600554161760055580f35b5162461bcd60e51b81526020818701526013602482015272105b1c9958591e481a5b9a5d1a585b1a5e9959606a1b6044820152606490fd5b5086600554161561048a565b508686541615610484565b5086600354161561047e565b5081839134610418576020806003193601126103dd576001600160a01b039381856105496110d1565b16958686526008825261056281868820541633146115f2565b82541691602485518094819363d42fe23160e01b835233908301525afa90811561061b579161059e6009926002959487916105ee575b50611583565b8585526008815282852080546001600160a01b031916905552822082815560018101839055015533907fc507cac5427f24391d3862582c450f4840191f3fb50ae93ea8eb3e5d0a27241a8380a380f35b61060e9150833d8511610614575b6106068183611134565b810190611290565b89610598565b503d6105fc565b50505051903d90823e3d90fd5b5082346103dd5760203660031901126103dd576106436110d1565b9061064c6111b9565b6001600160a01b0391821692831561069957505082546001600160a01b0319811683178455167f8be0079c531659141344cd1fd0a4f28419497f9722a3daafe3b4186f6b6457e08380a380f35b51631e4fbdf760e01b8152908101849052602490fd5b5034610418576020366003190112610418576060916001600160a01b0391908190836106d96110d1565b1681526009602052209081549260026001840154930154169181519384526020840152820152f35b50366003190112610746576103746107176110d1565b61071f6110ec565b9061072e60ff600a54166111e5565b61073882826112a8565b6107418161166e565b61152c565b80fd5b5082346103dd5760203660031901126103dd576001600160a01b03908161076e6110d1565b169283855260096020528085209181519261078884611102565b805484528285600260018401549384602089015201541694019384524211156107ef5750600285918583526009602052822082815582600182015501555116907ffbea9ba5ee98f3c8b5c04ea0c944ead3100801a041d88f0c7e90d404ddac1c6a8380a380f35b6020606492519162461bcd60e51b8352820152601d60248201527f52657669657720706572696f6420686173206e6f7420657870697265640000006044820152fd5b5034610418576020366003190112610418576020916001600160a01b039082908261085a6110d1565b168152600885522054169051908152f35b5081839134610418576020806003193601126103dd576001600160a01b039381856108946110d1565b1695868652600882526108ad81868820541633146115f2565b82541691602485518094819363d42fe23160e01b835233908301525afa90811561061b57916108e86009926002959487916105ee5750611583565b858552600781528285206001600160601b0360a01b90338282541617905560088252838620908154169055528220828155826001820155015533907f1ec2d15be1d4041a85003ee3860453fb0818606e3ccda6f18c41e692a25d5eea8380a380f35b5034610418578160031936011261041857905490516001600160a01b039091168152602090f35b5082346103dd5760203660031901126103dd5735908115158092036103dd577fb5bb594c95eb864915724f4025ebea72bd6b2c96ee4243baceea4d04365efb68916020916109bd6111b9565b60ff19600a541660ff831617600a5551908152a180f35b82346107465780600319360112610746576109ed6111b9565b80546001600160a01b03198116825581906001600160a01b03167f8be0079c531659141344cd1fd0a4f28419497f9722a3daafe3b4186f6b6457e08280a380f35b503461041857816003193601126104185760025490516001600160a01b039091168152602090f35b5082346103dd5760209081600319360112610c00576001600160a01b0380610a7c6110d1565b1693848652600884528181872054163303610ba7576024848385541683519283809263d42fe23160e01b825233898301525afa908115610b9d5790610ac7918891610b805750611583565b84865260088452808620926001600160601b0360a01b93848154169055600b54906201518091828102928184041490151715610b6d575090610b0b600292426115cf565b815191610b1783611102565b428352868301918252600981840197338952898b5252882091518255516001820155019251169082541617905533907f0410af91d3fc953f1f383fde268b1cf5278d116a88123c657df6685f443359418380a380f35b634e487b7160e01b885260119052602487fd5b610b979150863d8811610614576106068183611134565b88610598565b82513d89823e3d90fd5b6084939150519162461bcd60e51b8352820152602e60248201527f4f6e6c792070656e64696e67206469737472696275746f722063616e2061636360448201526d65707420666f722072657669657760901b6064820152fd5b8380fd5b5034610418576020366003190112610418576020916001600160a01b0390829082610c2d6110d1565b168152600785522054169051908152f35b5034610418576020366003190112610418576020916001600160a01b0390829082610c676110d1565b1681526007855220541615159051908152f35b509134610418578260031936011261041857610c946110d1565b610c9c6110ec565b610ca46111b9565b600260015414610e2a57600260015560018060a01b03809216918285526020916006835286862054948515610df1578487526006845286888120558415600014610d6e5786808080898787165af1610cfa61163e565b5015610d3557507f5e110f8bc8a20b65dcc87f224bdf1cc039346e267118bae2739847f07321ffa8939495965b519586521693a36001805580f35b875162461bcd60e51b81529081018490526013602482015272115512081d1c985b9cd9995c8819985a5b1959606a1b6044820152606490fd5b96805163a9059cbb60e01b858201528383166024820152866044820152604481526080810181811067ffffffffffffffff821117610dde577f5e110f8bc8a20b65dcc87f224bdf1cc039346e267118bae2739847f07321ffa8969798995090610dd991835287611a3e565b610d27565b634e487b7160e01b895260418a52602489fd5b875162461bcd60e51b815290810184905260136024820152724e6f206665657320746f20776974686472617760681b6044820152606490fd5b8451633ee5aeb560e01b81528390fd5b503461041857816003193601126104185760055490516001600160a01b039091168152602090f35b5082346103dd57602080600319360112610c00576001600160a01b039182610e886110d1565b16908451638da5cb5b60e01b815283818381865afa80156110175785918891610fea575b50163303610f8c578186526008835283858720541615610f4957806024858593541695848952600884528789205416918751968793849263d42fe23160e01b84528301525afa928315610f3f57600893610f0c918791610f225750611583565b845252812080546001600160a01b031916905580f35b610f399150843d8611610614576106068183611134565b87610598565b84513d87823e3d90fd5b845162461bcd60e51b8152908101839052601a60248201527f4e6f2070656e64696e672072656c6561736520726571756573740000000000006044820152606490fd5b845162461bcd60e51b8152908101839052603260248201527f4f6e6c79207772617070656420736f6e67206f776e65722063616e2072656d6f6044820152711d99481c995b19585cd9481c995c5d595cdd60721b6064820152608490fd5b61100a9150853d8711611010575b6110028183611134565b810190611271565b88610eac565b503d610ff8565b86513d89823e3d90fd5b8284346104185760203660031901126104185761103c6111b9565b35600b5580f35b5034610418578160031936011261041857602090600b549051908152f35b503461041857816003193601126104185760209060ff600a541690519015158152f35b5082346103dd57826003193601126103dd575490516001600160a01b03909116815260209150f35b8390346104185781600319360112610418576003546001600160a01b03168152602090f35b600435906001600160a01b03821682036110e757565b600080fd5b602435906001600160a01b03821682036110e757565b6060810190811067ffffffffffffffff82111761111e57604052565b634e487b7160e01b600052604160045260246000fd5b90601f8019910116810190811067ffffffffffffffff82111761111e57604052565b67ffffffffffffffff811161111e57601f01601f191660200190565b81601f820112156110e75780359061118982611156565b926111976040519485611134565b828452602083830101116110e757816000926020809301838601378301015290565b6000546001600160a01b031633036111cd57565b60405163118cdaa760e01b8152336004820152602490fd5b156111ec57565b60405162461bcd60e51b815260206004820152601f60248201527f52656c6561736573206172652063757272656e746c792064697361626c6564006044820152606490fd5b919082519283825260005b84811061125d575050826000602080949584010152601f8019910116010190565b60208183018101518483018201520161123c565b908160209103126110e757516001600160a01b03811681036110e75790565b908160209103126110e7575180151581036110e75790565b60408051638da5cb5b60e01b81526004936020936001600160a01b0392908316919085818881865afa90811561152157908491600091611504575b501633036114ad5782811690811561145f573b1561140e57848387541691602486518094819363d42fe23160e01b83528b8301525afa908115611403576000916113e6575b5015611385576000526007835281600020541661134457505050565b5162461bcd60e51b815291820152601d60248201527f5772617070656420736f6e6720616c72656164792072656c6561736564000000604482015260649150fd5b50505162461bcd60e51b815291820152603560248201527f496e76616c6964206469737472696275746f722077616c6c65743a206e6f74206044820152747265676973746572656420696e20666163746f727960581b606482015260849150fd5b6113fd9150853d8711610614576106068183611134565b38611328565b84513d6000823e3d90fd5b835162461bcd60e51b8152808701869052602560248201527f4469737472696275746f722077616c6c6574206d757374206265206120636f6e6044820152641d1c9858dd60da1b6064820152608490fd5b845162461bcd60e51b8152808801879052602260248201527f496e76616c6964206469737472696275746f722077616c6c6574206164647265604482015261737360f01b6064820152608490fd5b835162461bcd60e51b8152808701869052602b60248201527f4f6e6c79207772617070656420736f6e67206f776e65722063616e207265717560448201526a6573742072656c6561736560a81b6064820152608490fd5b61151b9150873d8911611010576110028183611134565b386112e3565b85513d6000823e3d90fd5b6001600160a01b03908116600081815260086020526040812080546001600160a01b0319169390941692831790935533927fef84744274082261c3a861cf791747fa0ff5d32d6b7dad92e9f777118fc002899080a4565b1561158a57565b60405162461bcd60e51b815260206004820152601a60248201527f4469737472696275746f7220646f6573206e6f742065786973740000000000006044820152606490fd5b919082018092116115dc57565b634e487b7160e01b600052601160045260246000fd5b156115f957565b60405162461bcd60e51b815260206004820152601b60248201527f4e6f74207468652070656e64696e67206469737472696275746f7200000000006044820152606490fd5b3d15611669573d9061164f82611156565b9161165d6040519384611134565b82523d6000602084013e565b606090565b60025460408051638d0c0ce360e01b815260049493919290916020916001600160a01b039190821683858981845afa94851561184f57600095611a0f575b50855163d579e3f360e01b81529084828a81845afa9182156119e55789929186916000936119f0575b5088516337a0a9e960e11b815293849182905afa9182156119e5576000926119b6575b50851561196e571561185a57838360035416916024885180948193637c70c0a360e01b83528d8301525afa90811561184f57908391600091611832575b50169485156117e45780516323b872dd60e01b85820152336024820152306044820152606480820187905281529760a089019067ffffffffffffffff82118a8310176117cf57507f29aebcd0c90b02b955331c453efc06d743e10d2655ab14c0fa2aaec13706f214959697986117ad91835288611a3e565b8660005260068452806000206117c48782546115cf565b9055519485521692a3565b604190634e487b7160e01b6000525260246000fd5b5162461bcd60e51b8152808801849052602360248201527f4e6f2077686974656c697374656420737461626c65636f696e20617661696c61604482015262626c6560e81b6064820152608490fd5b6118499150853d8711611010576110028183611134565b38611735565b86513d6000823e3d90fd5b509495909280949294341061192c576000805260068552826000206118803482546115cf565b90558034116118bc575b505051348152600093909116917f29aebcd0c90b02b955331c453efc06d743e10d2655ab14c0fa2aaec13706f21491a3565b340334811161191757600080808093335af16118d661163e565b50156118e2578061188a565b83606492519162461bcd60e51b83528201526011602482015270115512081c99599d5b990819985a5b1959607a1b6044820152fd5b601182634e487b7160e01b6000525260246000fd5b5083606492519162461bcd60e51b8352820152601860248201527f496e636f7272656374204554482066656520616d6f756e7400000000000000006044820152fd5b505050509190509291923461198257505050565b5162461bcd60e51b815291820152601060248201526f119959481b9bdd081c995c5d5a5c995960821b604482015260649150fd5b90918582813d83116119de575b6119cd8183611134565b8101031261074657505190386116f8565b503d6119c3565b87513d6000823e3d90fd5b611a08919350823d8411610614576106068183611134565b91386116d5565b90948482813d8311611a37575b611a268183611134565b8101031261074657505193386116ac565b503d611a1c565b600080611a679260018060a01b03169360208151910182865af1611a6061163e565b9083611ab0565b8051908115159182611a95575b5050611a7d5750565b60249060405190635274afe760e01b82526004820152fd5b611aa89250602080918301019101611290565b153880611a74565b90611ad75750805115611ac557805190602001fd5b604051630a12f52160e11b8152600490fd5b81511580611b0a575b611ae8575090565b604051639996b31560e01b81526001600160a01b039091166004820152602490fd5b50803b15611ae056fea26469706673582212201347ee6153324862a33057db80a96090a936fc9f9ffc1b426d45af6289c02b1b64736f6c63430008140033",
  "linkReferences": {},
  "deployedLinkReferences": {}
}