{
  "_format": "hh-sol-artifact-1",
  "contractName": "ReleaseModule",
  "sourceName": "contracts/protocol/Modules/ReleaseModule.sol",
  "abi": [
    {
      "inputs": [],
      "stateMutability": "nonpayable",
      "type": "constructor"
    },
    {
      "inputs": [
        {
          "internalType": "address",
          "name": "target",
          "type": "address"
        }
      ],
      "name": "AddressEmptyCode",
      "type": "error"
    },
    {
      "inputs": [
        {
          "internalType": "address",
          "name": "account",
          "type": "address"
        }
      ],
      "name": "AddressInsufficientBalance",
      "type": "error"
    },
    {
      "inputs": [],
      "name": "FailedInnerCall",
      "type": "error"
    },
    {
      "inputs": [
        {
          "internalType": "address",
          "name": "owner",
          "type": "address"
        }
      ],
      "name": "OwnableInvalidOwner",
      "type": "error"
    },
    {
      "inputs": [
        {
          "internalType": "address",
          "name": "account",
          "type": "address"
        }
      ],
      "name": "OwnableUnauthorizedAccount",
      "type": "error"
    },
    {
      "inputs": [],
      "name": "ReentrancyGuardReentrantCall",
      "type": "error"
    },
    {
      "inputs": [
        {
          "internalType": "address",
          "name": "token",
          "type": "address"
        }
      ],
      "name": "SafeERC20FailedOperation",
      "type": "error"
    },
    {
      "anonymous": false,
      "inputs": [
        {
          "indexed": true,
          "internalType": "address",
          "name": "wrappedSong",
          "type": "address"
        },
        {
          "indexed": true,
          "internalType": "address",
          "name": "distributor",
          "type": "address"
        }
      ],
      "name": "DistributorAcceptedReview",
      "type": "event"
    },
    {
      "anonymous": false,
      "inputs": [
        {
          "indexed": true,
          "internalType": "address",
          "name": "token",
          "type": "address"
        },
        {
          "indexed": true,
          "internalType": "address",
          "name": "recipient",
          "type": "address"
        },
        {
          "indexed": false,
          "internalType": "uint256",
          "name": "amount",
          "type": "uint256"
        }
      ],
      "name": "FeesWithdrawn",
      "type": "event"
    },
    {
      "anonymous": false,
      "inputs": [
        {
          "indexed": true,
          "internalType": "address",
          "name": "previousOwner",
          "type": "address"
        },
        {
          "indexed": true,
          "internalType": "address",
          "name": "newOwner",
          "type": "address"
        }
      ],
      "name": "OwnershipTransferred",
      "type": "event"
    },
    {
      "anonymous": false,
      "inputs": [
        {
          "indexed": true,
          "internalType": "address",
          "name": "creator",
          "type": "address"
        },
        {
          "indexed": true,
          "internalType": "address",
          "name": "token",
          "type": "address"
        },
        {
          "indexed": false,
          "internalType": "uint256",
          "name": "amount",
          "type": "uint256"
        }
      ],
      "name": "ReleaseFeeCollected",
      "type": "event"
    },
    {
      "anonymous": false,
      "inputs": [
        {
          "indexed": false,
          "internalType": "bool",
          "name": "enabled",
          "type": "bool"
        }
      ],
      "name": "ReleasesEnabledChanged",
      "type": "event"
    },
    {
      "anonymous": false,
      "inputs": [
        {
          "indexed": true,
          "internalType": "address",
          "name": "wrappedSong",
          "type": "address"
        },
        {
          "indexed": true,
          "internalType": "address",
          "name": "distributor",
          "type": "address"
        }
      ],
      "name": "ReviewPeriodExpired",
      "type": "event"
    },
    {
      "anonymous": false,
      "inputs": [
        {
          "indexed": true,
          "internalType": "address",
          "name": "wrappedSong",
          "type": "address"
        },
        {
          "indexed": true,
          "internalType": "address",
          "name": "distributor",
          "type": "address"
        }
      ],
      "name": "WrappedSongReleaseRejected",
      "type": "event"
    },
    {
      "anonymous": false,
      "inputs": [
        {
          "indexed": true,
          "internalType": "address",
          "name": "wrappedSong",
          "type": "address"
        },
        {
          "indexed": true,
          "internalType": "address",
          "name": "distributor",
          "type": "address"
        },
        {
          "indexed": true,
          "internalType": "address",
          "name": "creator",
          "type": "address"
        }
      ],
      "name": "WrappedSongReleaseRequested",
      "type": "event"
    },
    {
      "anonymous": false,
      "inputs": [
        {
          "indexed": true,
          "internalType": "address",
          "name": "wrappedSong",
          "type": "address"
        },
        {
          "indexed": true,
          "internalType": "address",
          "name": "distributor",
          "type": "address"
        }
      ],
      "name": "WrappedSongReleased",
      "type": "event"
    },
    {
      "stateMutability": "payable",
      "type": "fallback"
    },
    {
      "inputs": [
        {
          "internalType": "address",
          "name": "wrappedSong",
          "type": "address"
        }
      ],
      "name": "acceptWrappedSongForReview",
      "outputs": [],
      "stateMutability": "nonpayable",
      "type": "function"
    },
    {
      "inputs": [
        {
          "internalType": "address",
          "name": "",
          "type": "address"
        }
      ],
      "name": "accumulatedFees",
      "outputs": [
        {
          "internalType": "uint256",
          "name": "",
          "type": "uint256"
        }
      ],
      "stateMutability": "view",
      "type": "function"
    },
    {
      "inputs": [
        {
          "internalType": "address",
          "name": "wrappedSong",
          "type": "address"
        }
      ],
      "name": "confirmWrappedSongRelease",
      "outputs": [],
      "stateMutability": "nonpayable",
      "type": "function"
    },
    {
      "inputs": [],
      "name": "distributorWalletFactory",
      "outputs": [
        {
          "internalType": "contract IDistributorWalletFactory",
          "name": "",
          "type": "address"
        }
      ],
      "stateMutability": "view",
      "type": "function"
    },
    {
      "inputs": [],
      "name": "erc20whitelist",
      "outputs": [
        {
          "internalType": "contract IERC20Whitelist",
          "name": "",
          "type": "address"
        }
      ],
      "stateMutability": "view",
      "type": "function"
    },
    {
      "inputs": [],
      "name": "feesModule",
      "outputs": [
        {
          "internalType": "contract IFeesModule",
          "name": "",
          "type": "address"
        }
      ],
      "stateMutability": "view",
      "type": "function"
    },
    {
      "inputs": [
        {
          "internalType": "address",
          "name": "wrappedSong",
          "type": "address"
        }
      ],
      "name": "getPendingDistributorRequests",
      "outputs": [
        {
          "internalType": "address",
          "name": "",
          "type": "address"
        }
      ],
      "stateMutability": "view",
      "type": "function"
    },
    {
      "inputs": [],
      "name": "getStablecoinFeeReceiver",
      "outputs": [
        {
          "internalType": "address",
          "name": "",
          "type": "address"
        }
      ],
      "stateMutability": "view",
      "type": "function"
    },
    {
      "inputs": [
        {
          "internalType": "address",
          "name": "wrappedSong",
          "type": "address"
        }
      ],
      "name": "getWrappedSongDistributor",
      "outputs": [
        {
          "internalType": "address",
          "name": "",
          "type": "address"
        }
      ],
      "stateMutability": "view",
      "type": "function"
    },
    {
      "inputs": [
        {
          "internalType": "address",
          "name": "wrappedSong",
          "type": "address"
        }
      ],
      "name": "handleExpiredReviewPeriod",
      "outputs": [],
      "stateMutability": "nonpayable",
      "type": "function"
    },
    {
      "inputs": [
        {
          "internalType": "address",
          "name": "_feesModule",
          "type": "address"
        },
        {
          "internalType": "address",
          "name": "_erc20whitelist",
          "type": "address"
        },
        {
          "internalType": "address",
          "name": "_distributorWalletFactory",
          "type": "address"
        },
        {
          "internalType": "address",
          "name": "_metadataModule",
          "type": "address"
        }
      ],
      "name": "initialize",
      "outputs": [],
      "stateMutability": "nonpayable",
      "type": "function"
    },
    {
      "inputs": [
        {
          "internalType": "address",
          "name": "wrappedSong",
          "type": "address"
        }
      ],
      "name": "isReleased",
      "outputs": [
        {
          "internalType": "bool",
          "name": "",
          "type": "bool"
        }
      ],
      "stateMutability": "view",
      "type": "function"
    },
    {
      "inputs": [],
      "name": "metadataModule",
      "outputs": [
        {
          "internalType": "contract IMetadataModule",
          "name": "",
          "type": "address"
        }
      ],
      "stateMutability": "view",
      "type": "function"
    },
    {
      "inputs": [],
      "name": "owner",
      "outputs": [
        {
          "internalType": "address",
          "name": "",
          "type": "address"
        }
      ],
      "stateMutability": "view",
      "type": "function"
    },
    {
      "inputs": [
        {
          "internalType": "address",
          "name": "",
          "type": "address"
        }
      ],
      "name": "pendingDistributorRequests",
      "outputs": [
        {
          "internalType": "address",
          "name": "",
          "type": "address"
        }
      ],
      "stateMutability": "view",
      "type": "function"
    },
    {
      "inputs": [
        {
          "internalType": "address",
          "name": "wrappedSong",
          "type": "address"
        }
      ],
      "name": "rejectWrappedSongRelease",
      "outputs": [],
      "stateMutability": "nonpayable",
      "type": "function"
    },
    {
      "inputs": [],
      "name": "releasesEnabled",
      "outputs": [
        {
          "internalType": "bool",
          "name": "",
          "type": "bool"
        }
      ],
      "stateMutability": "view",
      "type": "function"
    },
    {
      "inputs": [
        {
          "internalType": "address",
          "name": "wrappedSong",
          "type": "address"
        }
      ],
      "name": "removeWrappedSongReleaseRequest",
      "outputs": [],
      "stateMutability": "nonpayable",
      "type": "function"
    },
    {
      "inputs": [],
      "name": "renounceOwnership",
      "outputs": [],
      "stateMutability": "nonpayable",
      "type": "function"
    },
    {
      "inputs": [
        {
          "internalType": "address",
          "name": "wrappedSong",
          "type": "address"
        },
        {
          "internalType": "address",
          "name": "distributor",
          "type": "address"
        }
      ],
      "name": "requestWrappedSongRelease",
      "outputs": [],
      "stateMutability": "payable",
      "type": "function"
    },
    {
      "inputs": [
        {
          "internalType": "address",
          "name": "wrappedSong",
          "type": "address"
        },
        {
          "internalType": "address",
          "name": "distributor",
          "type": "address"
        },
        {
          "components": [
            {
              "internalType": "string",
              "name": "name",
              "type": "string"
            },
            {
              "internalType": "string",
              "name": "description",
              "type": "string"
            },
            {
              "internalType": "string",
              "name": "image",
              "type": "string"
            },
            {
              "internalType": "string",
              "name": "animationUrl",
              "type": "string"
            },
            {
              "internalType": "string",
              "name": "attributesIpfsHash",
              "type": "string"
            }
          ],
          "internalType": "struct IMetadataModule.Metadata",
          "name": "newMetadata",
          "type": "tuple"
        }
      ],
      "name": "requestWrappedSongReleaseWithMetadata",
      "outputs": [],
      "stateMutability": "payable",
      "type": "function"
    },
    {
      "inputs": [],
      "name": "reviewPeriodDays",
      "outputs": [
        {
          "internalType": "uint256",
          "name": "",
          "type": "uint256"
        }
      ],
      "stateMutability": "view",
      "type": "function"
    },
    {
      "inputs": [
        {
          "internalType": "address",
          "name": "",
          "type": "address"
        }
      ],
      "name": "reviewPeriods",
      "outputs": [
        {
          "internalType": "uint256",
          "name": "startTime",
          "type": "uint256"
        },
        {
          "internalType": "uint256",
          "name": "endTime",
          "type": "uint256"
        },
        {
          "internalType": "address",
          "name": "distributor",
          "type": "address"
        }
      ],
      "stateMutability": "view",
      "type": "function"
    },
    {
      "inputs": [
        {
          "internalType": "bool",
          "name": "_enabled",
          "type": "bool"
        }
      ],
      "name": "setReleasesEnabled",
      "outputs": [],
      "stateMutability": "nonpayable",
      "type": "function"
    },
    {
      "inputs": [
        {
          "internalType": "uint256",
          "name": "_days",
          "type": "uint256"
        }
      ],
      "name": "setReviewPeriodDays",
      "outputs": [],
      "stateMutability": "nonpayable",
      "type": "function"
    },
    {
      "inputs": [
        {
          "internalType": "address",
          "name": "newReceiver",
          "type": "address"
        }
      ],
      "name": "setStablecoinFeeReceiver",
      "outputs": [],
      "stateMutability": "nonpayable",
      "type": "function"
    },
    {
      "inputs": [],
      "name": "stablecoinFeeReceiver",
      "outputs": [
        {
          "internalType": "address",
          "name": "",
          "type": "address"
        }
      ],
      "stateMutability": "view",
      "type": "function"
    },
    {
      "inputs": [
        {
          "internalType": "address",
          "name": "newOwner",
          "type": "address"
        }
      ],
      "name": "transferOwnership",
      "outputs": [],
      "stateMutability": "nonpayable",
      "type": "function"
    },
    {
      "inputs": [
        {
          "internalType": "address",
          "name": "wrappedSong",
          "type": "address"
        },
        {
          "internalType": "address",
          "name": "newDistributor",
          "type": "address"
        }
      ],
      "name": "updateWrappedSongDistributor",
      "outputs": [],
      "stateMutability": "nonpayable",
      "type": "function"
    },
    {
      "inputs": [
        {
          "internalType": "address",
          "name": "token",
          "type": "address"
        },
        {
          "internalType": "address",
          "name": "recipient",
          "type": "address"
        }
      ],
      "name": "withdrawAccumulatedFees",
      "outputs": [],
      "stateMutability": "nonpayable",
      "type": "function"
    },
    {
      "inputs": [
        {
          "internalType": "address",
          "name": "",
          "type": "address"
        }
      ],
      "name": "wrappedSongToDistributor",
      "outputs": [
        {
          "internalType": "address",
          "name": "",
          "type": "address"
        }
      ],
      "stateMutability": "view",
      "type": "function"
    },
    {
      "stateMutability": "payable",
      "type": "receive"
    }
  ],
  "bytecode": "0x6080806040523461009057331561007a5760008054336001600160a01b03198216811783556040519290916001600160a01b0316907f8be0079c531659141344cd1fd0a4f28419497f9722a3daafe3b4186f6b6457e09080a360018055600160ff19600a541617600a556007600b5561213590816100968239f35b631e4fbdf760e01b815260006004820152602490fd5b600080fdfe608080604052600436101561001a575b50361561001857005b005b600090813560e01c90816309da4e5114611a4b575080630c5d8da114611a22578063173e10a61461140a578063175b818c146113e75780631a3b00e2146113c95780631f471069146113a65780632b03295f1461121f5780632cd6c9a614610fae5780633684d100146111f6578063376c1f071461102857806337c38c4814610fea5780633aa690e714610fae57806346d5397c14610dd95780634b08ec5014610e0257806362f0bdde14610dd95780636b09d202146109f95780636d4726d914610db0578063715018a614610d565780638437de3814610cf25780638da5cb5b14610ccb578063b0c70e2714610be7578063c05f856514610a35578063c7be5e2a146109f9578063ccad87f01461090d578063cd36bc9a14610535578063e72cfcb8146104e1578063eefeb7bc14610455578063f2fde38b146103ca578063f5260369146102bb578063f8c8765e146101b35763fcf666640361000f57346101b05760203660031901126101b0576020906040906001600160a01b0361019f611a70565b168152600683522054604051908152f35b80fd5b50346101b05760803660031901126101b0576101cd611a70565b6101d5611a86565b906001600160a01b039060443582811691908290036102b657606435938385168095036102b657610204611b55565b60025484811615806102aa575b8061029e575b80610292575b156102575784926001600160601b0360a01b9586911691161760025516826003541617600355816004541617600455600554161760055580f35b60405162461bcd60e51b8152602060048201526013602482015272105b1c9958591e481a5b9a5d1a585b1a5e9959606a1b6044820152606490fd5b5084600554161561021d565b50846004541615610217565b50846003541615610211565b600080fd5b50346101b0576020806003193601126103c6576001600160a01b039060249080836102e4611a70565b1693848652600882526102fe816040882054163314611f8e565b600454166040519384809263d42fe23160e01b82523360048301525afa9182156103bb5760099261033691869161038e575b50611f1f565b82845260088152604084206001600160601b0360a01b8154169055526000600260408420828155826001820155015533907fc507cac5427f24391d3862582c450f4840191f3fb50ae93ea8eb3e5d0a27241a8380a380f35b6103ae9150833d85116103b4575b6103a68183611ad2565b810190611c2c565b38610330565b503d61039c565b6040513d86823e3d90fd5b5080fd5b50346101b05760203660031901126101b0576103e4611a70565b6103ec611b55565b6001600160a01b0390811690811561043c57600054826001600160601b0360a01b821617600055167f8be0079c531659141344cd1fd0a4f28419497f9722a3daafe3b4186f6b6457e0600080a380f35b604051631e4fbdf760e01b815260048101849052602490fd5b50346101b05760203660031901126101b05761046f611a70565b610477611b55565b6001600160a01b0316801561049c576001600160601b0360a01b600c541617600c5580f35b60405162461bcd60e51b815260206004820152601860248201527f496e76616c6964207265636569766572206164647265737300000000000000006044820152606490fd5b50346101b05760203660031901126101b0576060906001600160a01b03906040908261050b611a70565b16815260096020522080549160026001830154920154169060405192835260208301526040820152f35b5060403660031901126101b05761054a611a70565b90610553611a86565b61056160ff600a5416611b81565b61056b8184611c44565b600254604051638d0c0ce360e01b8152602094916001600160a01b03919082168682600481845afa91821561072d5786926108de575b5060405163d579e3f360e01b8152908782600481845afa9182156108b45760049291899189936108bf575b506040516337a0a9e960e11b815293849182905afa9182156108b4578792610885575b50821561083957156107385786836003541691602460405180948193637c70c0a360e01b835260048301525afa90811561072d579083918791610700575b50169182156106af576106ac95966106866000805160206120e083398151915292600c5416604051906323b872dd60e01b8483015233602483015260448201528460648201526064815261068081611ab7565b8561200a565b838852600681526040882061069c848254611f6b565b90556040519283523392a3611ec8565b80f35b60405162461bcd60e51b815260048101889052602360248201527f4e6f2077686974656c697374656420737461626c65636f696e20617661696c61604482015262626c6560e81b6064820152608490fd5b6107209150883d8a11610726575b6107188183611ad2565b810190611c0d565b3861062d565b503d61070e565b6040513d88823e3d90fd5b5080915034106107f9578380526006855260408420610758348254611f6b565b9055803411610787575b50826106ac93946000805160206120e0833981519152604051913483523392a3611ec8565b34033481116107e5578380808093335af16107a0611fda565b50156107ac5738610762565b60405162461bcd60e51b8152600481018590526011602482015270115512081c99599d5b990819985a5b1959607a1b6044820152606490fd5b634e487b7160e01b84526011600452602484fd5b60405162461bcd60e51b8152600481018690526018602482015277125b98dbdc9c9958dd081155120819995948185b5bdd5b9d60421b6044820152606490fd5b505050503461084d576106ac929350611ec8565b60405162461bcd60e51b815260048101859052601060248201526f119959481b9bdd081c995c5d5a5c995960821b6044820152606490fd5b9091508781813d83116108ad575b61089d8183611ad2565b810103126102b6575190386105ef565b503d610893565b6040513d89823e3d90fd5b6108d7919350823d84116103b4576103a68183611ad2565b91386105cc565b9091508681813d8311610906575b6108f68183611ad2565b810103126102b6575190386105a1565b503d6108ec565b50346101b05760203660031901126101b0576001600160a01b0380610930611a70565b16908183526009602052604083206040519061094b82611a9c565b80548252604083600260018401549384602087015201541692019182524211156109b4578284526009602052600060026040862082815582600182015501555116907ffbea9ba5ee98f3c8b5c04ea0c944ead3100801a041d88f0c7e90d404ddac1c6a8380a380f35b60405162461bcd60e51b815260206004820152601d60248201527f52657669657720706572696f6420686173206e6f7420657870697265640000006044820152606490fd5b50346101b05760203660031901126101b0576020906001600160a01b039060409082610a23611a70565b16815260088452205416604051908152f35b50346101b05760403660031901126101b057610a4f611a70565b610a57611a86565b6001600160a01b039182168084526007602090815260408520549293909281168015610ba2573303610b45578316928315610b00573b15610ab0578352600790526040822080546001600160a01b031916909117905580f35b60405162461bcd60e51b815260048101839052602260248201527f4e6577206469737472696275746f72206d757374206265206120636f6e74726160448201526118dd60f21b6064820152608490fd5b60405162461bcd60e51b815260048101849052601f60248201527f496e76616c6964206e6577206469737472696275746f722061646472657373006044820152606490fd5b60405162461bcd60e51b815260048101849052602f60248201527f4f6e6c792063757272656e74206469737472696275746f722063616e2075706460448201526e30ba32903234b9ba3934b13aba37b960891b6064820152608490fd5b60405162461bcd60e51b815260048101859052601d60248201527f5772617070656420736f6e67206e6f742072656c6561736564207965740000006044820152606490fd5b50346101b0576020806003193601126103c6576001600160a01b03906024908083610c10611a70565b169384865260088252610c2a816040882054163314611f8e565b600454166040519384809263d42fe23160e01b82523360048301525afa9182156103bb57600992610c6191869161038e5750611f1f565b82845260078152604084206001600160601b0360a01b9033828254161790556008825260408520908154169055526000600260408420828155826001820155015533907f1ec2d15be1d4041a85003ee3860453fb0818606e3ccda6f18c41e692a25d5eea8380a380f35b50346101b057806003193601126101b057546040516001600160a01b039091168152602090f35b50346101b05760203660031901126101b0576004358015158091036103c65760207fb5bb594c95eb864915724f4025ebea72bd6b2c96ee4243baceea4d04365efb6891610d3d611b55565b60ff19600a541660ff821617600a55604051908152a180f35b50346101b057806003193601126101b057610d6f611b55565b600080546001600160a01b0319811682556001600160a01b03167f8be0079c531659141344cd1fd0a4f28419497f9722a3daafe3b4186f6b6457e08280a380f35b50346101b057806003193601126101b0576002546040516001600160a01b039091168152602090f35b50346101b057806003193601126101b057600c546040516001600160a01b039091168152602090f35b50346101b0576020806003193601126103c6576001600160a01b039081610e27611a70565b169182845260088252806040852054163303610f525760248282600454166040519283809263d42fe23160e01b82523360048301525afa8015610f4757610e74918691610f305750611f1f565b8284526008825260408420906001600160601b0360a01b91828154169055600b546201518090818102918183041490151715610f1c57610eb660029142611f6b565b60405190610ec382611a9c565b42825285820190815260096040830196338852888a52526040882091518255516001820155019251169082541617905533907f0410af91d3fc953f1f383fde268b1cf5278d116a88123c657df6685f443359418380a380f35b634e487b7160e01b86526011600452602486fd5b6103ae9150843d86116103b4576103a68183611ad2565b6040513d87823e3d90fd5b60405162461bcd60e51b815260048101839052602e60248201527f4f6e6c792070656e64696e67206469737472696275746f722063616e2061636360448201526d65707420666f722072657669657760901b6064820152608490fd5b50346101b05760203660031901126101b0576020906001600160a01b039060409082610fd8611a70565b16815260078452205416604051908152f35b50346101b05760203660031901126101b0576020906001600160a01b039060409082611014611a70565b168152600784522054161515604051908152f35b50346101b05760403660031901126101b057611042611a70565b61104a611a86565b90611053611b55565b6002600154146111e45760026001556001600160a01b03908116808452600660209081526040852054939192909184156111a9578386526006835285604081205583156000146111255785808080888686165af16110af611fda565b50156110ea57907f5e110f8bc8a20b65dcc87f224bdf1cc039346e267118bae2739847f07321ffa892915b6040519586521693a36001805580f35b60405162461bcd60e51b8152600481018490526013602482015272115512081d1c985b9cd9995c8819985a5b1959606a1b6044820152606490fd5b60405163a9059cbb60e01b81850152828216602482015260448082018790528152929190608084016001600160401b03811185821017611193577f5e110f8bc8a20b65dcc87f224bdf1cc039346e267118bae2739847f07321ffa89461118e916040528661200a565b6110da565b634e487b7160e01b600052604160045260246000fd5b60405162461bcd60e51b81526004810184905260136024820152724e6f206665657320746f20776974686472617760681b6044820152606490fd5b604051633ee5aeb560e01b8152600490fd5b50346101b057806003193601126101b0576005546040516001600160a01b039091168152602090f35b50346101b0576020806003193601126103c6576001600160a01b039081611244611a70565b16604051638da5cb5b60e01b81528281600481855afa8015610f475784918691611389575b50163303611329578084526008825282604085205416156112e457818360045416938286526008825260408620541660246040518096819363d42fe23160e01b835260048301525afa9283156103bb576008936112cc918691610f305750611f1f565b8352526040812080546001600160a01b031916905580f35b60405162461bcd60e51b815260048101839052601a60248201527f4e6f2070656e64696e672072656c6561736520726571756573740000000000006044820152606490fd5b60405162461bcd60e51b815260048101839052603260248201527f4f6e6c79207772617070656420736f6e67206f776e65722063616e2072656d6f6044820152711d99481c995b19585cd9481c995c5d595cdd60721b6064820152608490fd5b6113a09150843d8611610726576107188183611ad2565b38611269565b50346101b05760203660031901126101b0576113c0611b55565b600435600b5580f35b50346101b057806003193601126101b0576020600b54604051908152f35b50346101b057806003193601126101b057602060ff600a54166040519015158152f35b506003196060368201126103c657611420611a70565b90611429611a86565b90604435906001600160401b038211611a1e5760a0908236030112611a1a576040519060a082018281106001600160401b03821117611a065760405280600401356001600160401b0381116119fa576114889060043691840101611b0e565b825260248101356001600160401b0381116119fa576114ad9060043691840101611b0e565b602083015260448101356001600160401b0381116119fa576114d59060043691840101611b0e565b604083015260648101356001600160401b0381116119fa576114fd9060043691840101611b0e565b60608301526084810135906001600160401b0382116119fa5760046115259236920101611b0e565b608082015261153860ff600a5416611b81565b6115428284611c44565b600254604051638d0c0ce360e01b81526001600160a01b039091169190602081600481865afa90811561072d5786916119d0575b5060405163d579e3f360e01b815292602084600481845afa9081156108b45760049488926119ae575b50602090604051958680926337a0a9e960e11b82525afa9384156108b4578794611976575b50811561192e571561182a57600354604051637c70c0a360e01b81526004810194909452602090849060249082906001600160a01b03165afa92831561072d578693611809575b506001600160a01b038316156117b857600c546040516323b872dd60e01b60208201523360248201526001600160a01b0390911660448201526064808201839052815286939061166d9061165e81611ab7565b6001600160a01b03831661200a565b6001600160a01b0381168452600660205260408420805461168f908490611f6b565b90556040519182526001600160a01b03169033906000805160206120e083398151915290602090a35b6005546001600160a01b031690813b156117b457829161176e916040519485809481936308620ebd60e41b835260018060a01b038b16600484015260406024840152611710815160a0604486015260e4850190611bcd565b608061175c61174861173460208601519460431995868a83030160648b0152611bcd565b6040860151858983030160848a0152611bcd565b6060850151848883030160a4890152611bcd565b920151908483030160c4850152611bcd565b03925af180156103bb57611787575b506106ac91611ec8565b6001600160401b0381116117a0576040526106ac61177d565b634e487b7160e01b84526041600452602484fd5b8280fd5b60405162461bcd60e51b815260206004820152602360248201527f4e6f2077686974656c697374656420737461626c65636f696e20617661696c61604482015262626c6560e81b6064820152608490fd5b61182391935060203d602011610726576107188183611ad2565b913861160b565b80925034106118ee57849182805260066020526040832061184c348254611f6b565b9055803411611877575b50816040513481526000805160206120e083398151915260203392a36116b8565b90915034033481116118da578480808093335af1611893611fda565b50156118a157839038611856565b60405162461bcd60e51b8152602060048201526011602482015270115512081c99599d5b990819985a5b1959607a1b6044820152606490fd5b634e487b7160e01b85526011600452602485fd5b60405162461bcd60e51b8152602060048201526018602482015277125b98dbdc9c9958dd081155120819995948185b5bdd5b9d60421b6044820152606490fd5b505090503461193e5783906116b8565b60405162461bcd60e51b815260206004820152601060248201526f119959481b9bdd081c995c5d5a5c995960821b6044820152606490fd5b9093506020813d6020116119a6575b8161199260209383611ad2565b810103126119a2575192386115c4565b8680fd5b3d9150611985565b60209192506119c990823d84116103b4576103a68183611ad2565b919061159f565b90506020813d6020116119fe575b816119eb60209383611ad2565b810103126119fa575138611576565b8580fd5b3d91506119de565b634e487b7160e01b86526041600452602486fd5b8380fd5b8480fd5b50346101b057806003193601126101b0576004546040516001600160a01b039091168152602090f35b9050346103c657816003193601126103c6576003546001600160a01b03168152602090f35b600435906001600160a01b03821682036102b657565b602435906001600160a01b03821682036102b657565b606081019081106001600160401b0382111761119357604052565b60a081019081106001600160401b0382111761119357604052565b90601f801991011681019081106001600160401b0382111761119357604052565b6001600160401b03811161119357601f01601f191660200190565b81601f820112156102b657803590611b2582611af3565b92611b336040519485611ad2565b828452602083830101116102b657816000926020809301838601378301015290565b6000546001600160a01b03163303611b6957565b60405163118cdaa760e01b8152336004820152602490fd5b15611b8857565b60405162461bcd60e51b815260206004820152601f60248201527f52656c6561736573206172652063757272656e746c792064697361626c6564006044820152606490fd5b919082519283825260005b848110611bf9575050826000602080949584010152601f8019910116010190565b602081830181015184830182015201611bd8565b908160209103126102b657516001600160a01b03811681036102b65790565b908160209103126102b6575180151581036102b65790565b60408051638da5cb5b60e01b81526004936020936001600160a01b0392908316919085818881865afa908115611ebd57908491600091611ea0575b50163303611e4957828116908115611dfb573b15611daa57848387541691602486518094819363d42fe23160e01b83528b8301525afa908115611d9f57600091611d82575b5015611d215760005260078352816000205416611ce057505050565b5162461bcd60e51b815291820152601d60248201527f5772617070656420736f6e6720616c72656164792072656c6561736564000000604482015260649150fd5b50505162461bcd60e51b815291820152603560248201527f496e76616c6964206469737472696275746f722077616c6c65743a206e6f74206044820152747265676973746572656420696e20666163746f727960581b606482015260849150fd5b611d999150853d87116103b4576103a68183611ad2565b38611cc4565b84513d6000823e3d90fd5b835162461bcd60e51b8152808701869052602560248201527f4469737472696275746f722077616c6c6574206d757374206265206120636f6e6044820152641d1c9858dd60da1b6064820152608490fd5b845162461bcd60e51b8152808801879052602260248201527f496e76616c6964206469737472696275746f722077616c6c6574206164647265604482015261737360f01b6064820152608490fd5b835162461bcd60e51b8152808701869052602b60248201527f4f6e6c79207772617070656420736f6e67206f776e65722063616e207265717560448201526a6573742072656c6561736560a81b6064820152608490fd5b611eb79150873d8911610726576107188183611ad2565b38611c7f565b85513d6000823e3d90fd5b6001600160a01b03908116600081815260086020526040812080546001600160a01b0319169390941692831790935533927fef84744274082261c3a861cf791747fa0ff5d32d6b7dad92e9f777118fc002899080a4565b15611f2657565b60405162461bcd60e51b815260206004820152601a60248201527f4469737472696275746f7220646f6573206e6f742065786973740000000000006044820152606490fd5b91908201809211611f7857565b634e487b7160e01b600052601160045260246000fd5b15611f9557565b60405162461bcd60e51b815260206004820152601b60248201527f4e6f74207468652070656e64696e67206469737472696275746f7200000000006044820152606490fd5b3d15612005573d90611feb82611af3565b91611ff96040519384611ad2565b82523d6000602084013e565b606090565b6000806120339260018060a01b03169360208151910182865af161202c611fda565b908361207c565b8051908115159182612061575b50506120495750565b60249060405190635274afe760e01b82526004820152fd5b6120749250602080918301019101611c2c565b153880612040565b906120a3575080511561209157805190602001fd5b604051630a12f52160e11b8152600490fd5b815115806120d6575b6120b4575090565b604051639996b31560e01b81526001600160a01b039091166004820152602490fd5b50803b156120ac56fe29aebcd0c90b02b955331c453efc06d743e10d2655ab14c0fa2aaec13706f214a2646970667358221220f547112534360900817e110bb5d13ae02e96b14197352bca3dda6ae68eb07f3664736f6c63430008140033",
  "linkReferences": {},
  "deployedLinkReferences": {}
}