{
  "_format": "hh-sol-artifact-1",
  "contractName": "MockWrappedSongFactoryV2",
  "sourceName": "contracts/mocks/MockWrappedSongFactoryV2.sol",
  "abi": [
    {
      "inputs": [
        {
          "internalType": "address",
          "name": "_protocolModule",
          "type": "address"
        },
        {
          "internalType": "address",
          "name": "_wrappedSongTemplateV2",
          "type": "address"
        }
      ],
      "stateMutability": "nonpayable",
      "type": "constructor"
    },
    {
      "inputs": [],
      "name": "ERC1167FailedCreateClone",
      "type": "error"
    },
    {
      "anonymous": false,
      "inputs": [
        {
          "indexed": true,
          "internalType": "address",
          "name": "oldWrappedSong",
          "type": "address"
        },
        {
          "indexed": true,
          "internalType": "address",
          "name": "newWrappedSong",
          "type": "address"
        },
        {
          "indexed": true,
          "internalType": "address",
          "name": "owner",
          "type": "address"
        }
      ],
      "name": "WrappedSongMigrated",
      "type": "event"
    },
    {
      "inputs": [
        {
          "internalType": "address",
          "name": "oldWrappedSong",
          "type": "address"
        }
      ],
      "name": "migrateOldWrappedSong",
      "outputs": [
        {
          "internalType": "address",
          "name": "",
          "type": "address"
        }
      ],
      "stateMutability": "nonpayable",
      "type": "function"
    },
    {
      "inputs": [],
      "name": "protocolModule",
      "outputs": [
        {
          "internalType": "contract IProtocolModule",
          "name": "",
          "type": "address"
        }
      ],
      "stateMutability": "view",
      "type": "function"
    },
    {
      "inputs": [],
      "name": "wrappedSongTemplateV2",
      "outputs": [
        {
          "internalType": "address",
          "name": "",
          "type": "address"
        }
      ],
      "stateMutability": "view",
      "type": "function"
    }
  ],
  "bytecode": "0x60c03461012957601f61065e38819003918201601f19168301916001600160401b0383118484101761012e57808492604094855283398101031261012957610052602061004b83610144565b9201610144565b906001600160a01b039081169081156100e45782161561009f5760805260a0526040516105059081610159823960805181818160a00152610108015260a051818181605901526101870152f35b60405162461bcd60e51b815260206004820152601d60248201527f496e76616c6964207772617070656420736f6e672074656d706c6174650000006044820152606490fd5b60405162461bcd60e51b815260206004820152601760248201527f496e76616c69642070726f746f636f6c206d6f64756c650000000000000000006044820152606490fd5b600080fd5b634e487b7160e01b600052604160045260246000fd5b51906001600160a01b03821682036101295756fe608060408181526004918236101561001657600080fd5b600092833560e01c9182633ccdaeee146100cf57505080635c42e6671461008c5763bf5c0cd01461004657600080fd5b34610088578160031936011261008857517f00000000000000000000000000000000000000000000000000000000000000006001600160a01b03168152602090f35b5080fd5b5034610088578160031936011261008857517f00000000000000000000000000000000000000000000000000000000000000006001600160a01b03168152602090f35b915091923461048057602093846003193601126100885783356001600160a01b03818116959186900361047c57635c975abb60e01b85527f000000000000000000000000000000000000000000000000000000000000000081169487818481895afa9081156103c4578591610446575b5061040f5785156103ce578251638da5cb5b60e01b8152878184818a5afa9081156103c457859161038a575b50813391160361033e576e5af43d82803e903d91602b57fd5bf37f0000000000000000000000000000000000000000000000000000000000000000763d602d80600a3d3981f3363d3d373d3d3d363d7300000062ffffff8260881c1617865260781b178752806037600986f01694851561032e5783516374e5ec1160e11b815291888385818b5afa9283156103245786936102ec575b50863b156102e857845163c0c53b8b60e01b81529216838301523360248301526044820152838160648183895af180156102db576102c8575b50843b156102c457828251916335c282af60e21b8352820152836024820152828160448183895af180156102b857849291849161029f575b505051937fe4270c29d68328ddfc65be3dec1f8d2fb47396127b36887a42fd1c7ffa0827e7339380a48152f35b6102ab91929350610483565b6100885782908238610272565b505051903d90823e3d90fd5b8280fd5b6102d490939193610483565b913861023a565b50505051903d90823e3d90fd5b8580fd5b9092508881813d831161031d575b61030481836104ad565b810103126102e8575182811681036102e8579138610201565b503d6102fa565b85513d88823e3d90fd5b83516330be1a3d60e21b81528390fd5b5085608492519162461bcd60e51b8352820152602160248201527f4f6e6c79206f776e65722063616e20696e697469617465206d6967726174696f6044820152603760f91b6064820152fd5b90508781813d83116103bd575b6103a181836104ad565b810103126103b9575181811681036103b9573861016b565b8480fd5b503d610397565b84513d87823e3d90fd5b508580606493519262461bcd60e51b845283015260248201527f496e76616c6964206f6c64207772617070656420736f6e6720616464726573736044820152fd5b5085606492519162461bcd60e51b83528201526012602482015271141c9bdd1bd8dbdb081a5cc81c185d5cd95960721b6044820152fd5b90508781813d8311610475575b61045d81836104ad565b810103126103b9575180151581036103b9573861013f565b503d610453565b8380fd5b80fd5b67ffffffffffffffff811161049757604052565b634e487b7160e01b600052604160045260246000fd5b90601f8019910116810190811067ffffffffffffffff8211176104975760405256fea264697066735822122040ada6e78fa2846d244f777a4fef92357d5e2edb5e3d49db9bd831cca07ea78864736f6c63430008140033",
  "linkReferences": {},
  "deployedLinkReferences": {}
}