{
  "_format": "hh-sol-artifact-1",
  "contractName": "WrappedSongFactory",
  "sourceName": "contracts/protocol/NonUpgradable/WrappedSongFactory.sol",
  "abi": [
    {
      "inputs": [
        {
          "internalType": "address",
          "name": "_protocolModule",
          "type": "address"
        },
        {
          "internalType": "address",
          "name": "_wrappedSongTemplate",
          "type": "address"
        },
        {
          "internalType": "address",
          "name": "_wsTokenTemplate",
          "type": "address"
        }
      ],
      "stateMutability": "nonpayable",
      "type": "constructor"
    },
    {
      "inputs": [],
      "name": "ERC1167FailedCreateClone",
      "type": "error"
    },
    {
      "anonymous": false,
      "inputs": [
        {
          "indexed": true,
          "internalType": "address",
          "name": "owner",
          "type": "address"
        },
        {
          "indexed": true,
          "internalType": "address",
          "name": "wrappedSongSmartAccount",
          "type": "address"
        },
        {
          "indexed": false,
          "internalType": "address",
          "name": "stablecoin",
          "type": "address"
        },
        {
          "indexed": false,
          "internalType": "address",
          "name": "wsTokenManagement",
          "type": "address"
        },
        {
          "indexed": false,
          "internalType": "uint256",
          "name": "sharesAmount",
          "type": "uint256"
        },
        {
          "components": [
            {
              "internalType": "string",
              "name": "name",
              "type": "string"
            },
            {
              "internalType": "string",
              "name": "description",
              "type": "string"
            },
            {
              "internalType": "string",
              "name": "image",
              "type": "string"
            },
            {
              "internalType": "string",
              "name": "externalUrl",
              "type": "string"
            },
            {
              "internalType": "string",
              "name": "animationUrl",
              "type": "string"
            },
            {
              "internalType": "string",
              "name": "attributesIpfsHash",
              "type": "string"
            }
          ],
          "indexed": false,
          "internalType": "struct IMetadataModule.Metadata",
          "name": "metadata",
          "type": "tuple"
        }
      ],
      "name": "WrappedSongCreated",
      "type": "event"
    },
    {
      "inputs": [
        {
          "internalType": "address",
          "name": "_stablecoin",
          "type": "address"
        },
        {
          "components": [
            {
              "internalType": "string",
              "name": "name",
              "type": "string"
            },
            {
              "internalType": "string",
              "name": "description",
              "type": "string"
            },
            {
              "internalType": "string",
              "name": "image",
              "type": "string"
            },
            {
              "internalType": "string",
              "name": "externalUrl",
              "type": "string"
            },
            {
              "internalType": "string",
              "name": "animationUrl",
              "type": "string"
            },
            {
              "internalType": "string",
              "name": "attributesIpfsHash",
              "type": "string"
            }
          ],
          "internalType": "struct IMetadataModule.Metadata",
          "name": "songMetadata",
          "type": "tuple"
        },
        {
          "internalType": "uint256",
          "name": "sharesAmount",
          "type": "uint256"
        }
      ],
      "name": "createWrappedSong",
      "outputs": [
        {
          "internalType": "address",
          "name": "",
          "type": "address"
        }
      ],
      "stateMutability": "payable",
      "type": "function"
    },
    {
      "inputs": [],
      "name": "metadataModule",
      "outputs": [
        {
          "internalType": "contract IMetadataModule",
          "name": "",
          "type": "address"
        }
      ],
      "stateMutability": "view",
      "type": "function"
    },
    {
      "inputs": [],
      "name": "protocolModule",
      "outputs": [
        {
          "internalType": "contract IProtocolModule",
          "name": "",
          "type": "address"
        }
      ],
      "stateMutability": "view",
      "type": "function"
    },
    {
      "inputs": [],
      "name": "wrappedSongTemplate",
      "outputs": [
        {
          "internalType": "address",
          "name": "",
          "type": "address"
        }
      ],
      "stateMutability": "view",
      "type": "function"
    },
    {
      "inputs": [],
      "name": "wsTokenTemplate",
      "outputs": [
        {
          "internalType": "address",
          "name": "",
          "type": "address"
        }
      ],
      "stateMutability": "view",
      "type": "function"
    }
  ],
  "bytecode": "0x6101006040908082523462000269576060816200123e80380380916200002682856200026e565b83398101031262000269576200003c81620002a8565b906020916200005a8462000052858501620002a8565b9301620002a8565b926001600160a01b039182168015620002255782841615620001e157828516156200019d57908082600493608052875193848092630222e55560e21b82525afa908115620001925760009162000153575b5090501660a05260c05260e05251610f809081620002be82396080518181816101a50152818161021b01528181610275015281816102de015281816103750152818161041f0152818161045f015281816104a9015281816104e5015281816105430152818161057c015281816105dd0152610c3c015260a0518181816106dc0152610cc4015260c0518181816103190152610c81015260e0518181816103c10152610bf70152f35b82813d83116200018a575b6200016a81836200026e565b810103126200018757506200017f90620002a8565b8038620000ab565b80fd5b503d6200015e565b86513d6000823e3d90fd5b855162461bcd60e51b815260048101839052601860248201527f496e76616c6964205753546f6b656e2074656d706c61746500000000000000006044820152606490fd5b855162461bcd60e51b815260048101839052601d60248201527f496e76616c6964207772617070656420736f6e672074656d706c6174650000006044820152606490fd5b855162461bcd60e51b815260048101839052601760248201527f496e76616c69642070726f746f636f6c206d6f64756c650000000000000000006044820152606490fd5b600080fd5b601f909101601f19168101906001600160401b038211908210176200029257604052565b634e487b7160e01b600052604160045260246000fd5b51906001600160a01b0382168203620002695756fe608080604052600436101561001357600080fd5b600090813560e01c9081633684d10014610cb0575080633e22876b14610c6b5780635c42e66714610c265780635e63149f14610be15763b9408f5c1461005857600080fd5b6003196060368201126108b8576004356001600160a01b03811690036108b857602435906001600160401b0382116108b45760c09082360301126108b857604051906100a382610cf3565b80600401356001600160401b0381116108dc576100c69060043691840101610d73565b825260248101356001600160401b0381116108dc576100eb9060043691840101610d73565b602083015260448101356001600160401b0381116108dc576101139060043691840101610d73565b604083015260648101356001600160401b0381116108dc5761013b9060043691840101610d73565b606083015260848101356001600160401b0381116108dc576101639060043691840101610d73565b608083015260a4810135906001600160401b0382116108dc57600461018b9236920101610d73565b60a0820152604051635c975abb60e01b81526020816004817f00000000000000000000000000000000000000000000000000000000000000006001600160a01b03165afa908115610946578391610bc2575b50610b8857805151151580610b7a575b80610b6c575b80610b5e575b15610b265760443515610ad15760405163438c9d9560e01b81526020816004817f00000000000000000000000000000000000000000000000000000000000000006001600160a01b03165afa908115610946578391610a9f575b503410610a5a5760405163f140b55f60e01b81523360048201526020816024817f00000000000000000000000000000000000000000000000000000000000000006001600160a01b03165afa908115610946578391610a3b575b50156109f75760405163b5af090f60e01b81526001600160a01b0360048035821690830152602090829060249082907f0000000000000000000000000000000000000000000000000000000000000000165afa9081156109465783916109c8575b50156109835761033d7f0000000000000000000000000000000000000000000000000000000000000000610ee2565b906001600160a01b0382163b156108b45760405163c0c53b8b60e01b81526001600160a01b03600480358216908301523260248301527f0000000000000000000000000000000000000000000000000000000000000000166044820152838180606481010381836001600160a01b0388165af1801561097857610965575b506103e57f0000000000000000000000000000000000000000000000000000000000000000610ee2565b6001600160a01b03811691908490833b156108b85760405163c0c53b8b60e01b81526001600160a01b0386811660048301523360248301527f0000000000000000000000000000000000000000000000000000000000000000166044820152828160648183895af1908115610946578391610951575b50507f00000000000000000000000000000000000000000000000000000000000000006001600160a01b03163b156108b85760405163d9ce7b9560e01b8152600481018590528281602481837f00000000000000000000000000000000000000000000000000000000000000006001600160a01b03165af1908115610946578391610932575b50507f00000000000000000000000000000000000000000000000000000000000000006001600160a01b03163b156108b8576040516208ac8360e01b81526001600160a01b0380871660048301529091166024820152818180604481010381837f00000000000000000000000000000000000000000000000000000000000000006001600160a01b03165af180156108ff5761091e575b50507f00000000000000000000000000000000000000000000000000000000000000006001600160a01b03163b156108dc5760405160016216ef6160e31b031981523360048201526001600160a01b03841660248201528490818180604481010381837f00000000000000000000000000000000000000000000000000000000000000006001600160a01b03165af180156108ff5761090a575b50506001600160a01b0383163b156108dc5760405163716f6e8760e01b81526004810183905284908181602481836001600160a01b038a165af180156108ff576108eb575b50506001600160a01b0383163b156108dc576040516339fa62df60e01b815260443560048201528481602481836001600160a01b0389165af180156108e0576108c8575b5060408051636613680d60e01b81526001600160a01b0385166004820152602481019190915293908190859081906106d7906044830190610e64565b0381837f00000000000000000000000000000000000000000000000000000000000000006001600160a01b03165af19081156108bc57809161078d575b50602093506040519160018060a01b03600435168352848301526044356040830152608060608301527f938ece1ab5d508d56896411e3f1b2c96359f780ecbfe90c9a4031cd170aa4a4a60018060a01b038416928061077833946080830190610e64565b0390a36040516001600160a01b039091168152f35b90503d8082863e61079e8186610d37565b8401936020818603126108b8578051906001600160401b0382116108b457019060c0828603126108b157604051916107d583610cf3565b80516001600160401b0381116108b457866107f1918301610dfa565b835260208101516001600160401b0381116108b45786610812918301610dfa565b602084015260408101516001600160401b0381116108b45786610836918301610dfa565b604084015260608101516001600160401b0381116108b4578661085a918301610dfa565b606084015260808101516001600160401b0381116108b4578661087e918301610dfa565b608084015260a0810151916001600160401b0383116108b15750946108a69160209601610dfa565b60a082015238610714565b80fd5b8280fd5b5080fd5b604051903d90823e3d90fd5b6108d28591610d24565b6108dc573861069b565b8380fd5b6040513d87823e3d90fd5b6108f490610d24565b6108dc578338610657565b6040513d84823e3d90fd5b61091390610d24565b6108dc578338610612565b61092790610d24565b6108dc578338610578565b61093b90610d24565b6108b85781386104e1565b6040513d85823e3d90fd5b61095a90610d24565b6108b857813861045b565b61097190939193610d24565b91386103bb565b6040513d86823e3d90fd5b60405162461bcd60e51b815260206004820152601d60248201527f537461626c65636f696e206973206e6f742077686974656c69737465640000006044820152606490fd5b6109ea915060203d6020116109f0575b6109e28183610d37565b810190610dbf565b3861030e565b503d6109d8565b606460405162461bcd60e51b815260206004820152602060248201527f4e6f742076616c696420746f20637265617465205772617070656420536f6e676044820152fd5b610a54915060203d6020116109f0576109e28183610d37565b386102ad565b60405162461bcd60e51b815260206004820152601960248201527f496e73756666696369656e74206372656174696f6e20666565000000000000006044820152606490fd5b90506020813d602011610ac9575b81610aba60209383610d37565b810103126108b4575138610253565b3d9150610aad565b60405162461bcd60e51b815260206004820152602760248201527f53686172657320616d6f756e74206d7573742062652067726561746572207468604482015266616e207a65726f60c81b6064820152608490fd5b60405162461bcd60e51b815260206004820152601060248201526f496e76616c6964206d6574616461746160801b6044820152606490fd5b5060a08101515115156101f9565b5060808101515115156101f3565b5060408101515115156101ed565b60405162461bcd60e51b8152602060048201526012602482015271141c9bdd1bd8dbdb081a5cc81c185d5cd95960721b6044820152606490fd5b610bdb915060203d6020116109f0576109e28183610d37565b386101dd565b50346108b157806003193601126108b1576040517f00000000000000000000000000000000000000000000000000000000000000006001600160a01b03168152602090f35b50346108b157806003193601126108b1576040517f00000000000000000000000000000000000000000000000000000000000000006001600160a01b03168152602090f35b50346108b157806003193601126108b1576040517f00000000000000000000000000000000000000000000000000000000000000006001600160a01b03168152602090f35b9050346108b857816003193601126108b8577f00000000000000000000000000000000000000000000000000000000000000006001600160a01b03168152602090f35b60c081019081106001600160401b03821117610d0e57604052565b634e487b7160e01b600052604160045260246000fd5b6001600160401b038111610d0e57604052565b90601f801991011681019081106001600160401b03821117610d0e57604052565b6001600160401b038111610d0e57601f01601f191660200190565b81601f82011215610dba57803590610d8a82610d58565b92610d986040519485610d37565b82845260208383010111610dba57816000926020809301838601378301015290565b600080fd5b90816020910312610dba57518015158103610dba5790565b60005b838110610dea5750506000910152565b8181015183820152602001610dda565b81601f82011215610dba578051610e1081610d58565b92610e1e6040519485610d37565b81845260208284010111610dba57610e3c9160208085019101610dd7565b90565b90602091610e5881518092818552858086019101610dd7565b601f01601f1916010190565b610e3c9160a0610ed1610ebf610ead610e9b610e89875160c0885260c0880190610e3f565b60208801518782036020890152610e3f565b60408701518682036040880152610e3f565b60608601518582036060870152610e3f565b60808501518482036080860152610e3f565b9201519060a0818403910152610e3f565b6e5af43d82803e903d91602b57fd5bf390763d602d80600a3d3981f3363d3d373d3d3d363d7300000062ffffff8260881c161760005260781b17602052603760096000f0906001600160a01b03821615610f3857565b6040516330be1a3d60e21b8152600490fdfea2646970667358221220464d582e5943e8f0ddec82d5e5020bd56a7547fb4415f4844cc1d575afa4cd9064736f6c63430008140033",
  "linkReferences": {},
  "deployedLinkReferences": {}
}