{
  "_format": "hh-sol-artifact-1",
  "contractName": "WrappedSongFactory",
  "sourceName": "contracts/protocol/NonUpgradable/WrappedSongFactory.sol",
  "abi": [
    {
      "inputs": [
        {
          "internalType": "address",
          "name": "_wrappedSongTemplate",
          "type": "address"
        },
        {
          "internalType": "address",
          "name": "_wsTokenTemplate",
          "type": "address"
        },
        {
          "internalType": "address",
          "name": "_protocolModule",
          "type": "address"
        }
      ],
      "stateMutability": "nonpayable",
      "type": "constructor"
    },
    {
      "inputs": [
        {
          "internalType": "address",
          "name": "target",
          "type": "address"
        }
      ],
      "name": "AddressEmptyCode",
      "type": "error"
    },
    {
      "inputs": [
        {
          "internalType": "address",
          "name": "account",
          "type": "address"
        }
      ],
      "name": "AddressInsufficientBalance",
      "type": "error"
    },
    {
      "inputs": [],
      "name": "ERC1167FailedCreateClone",
      "type": "error"
    },
    {
      "inputs": [],
      "name": "FailedInnerCall",
      "type": "error"
    },
    {
      "inputs": [
        {
          "internalType": "address",
          "name": "owner",
          "type": "address"
        }
      ],
      "name": "OwnableInvalidOwner",
      "type": "error"
    },
    {
      "inputs": [
        {
          "internalType": "address",
          "name": "account",
          "type": "address"
        }
      ],
      "name": "OwnableUnauthorizedAccount",
      "type": "error"
    },
    {
      "inputs": [
        {
          "internalType": "address",
          "name": "token",
          "type": "address"
        }
      ],
      "name": "SafeERC20FailedOperation",
      "type": "error"
    },
    {
      "anonymous": false,
      "inputs": [
        {
          "indexed": true,
          "internalType": "address",
          "name": "wrappedSong",
          "type": "address"
        },
        {
          "indexed": true,
          "internalType": "address",
          "name": "token",
          "type": "address"
        },
        {
          "indexed": false,
          "internalType": "uint256",
          "name": "amount",
          "type": "uint256"
        }
      ],
      "name": "CreationFeeCollected",
      "type": "event"
    },
    {
      "anonymous": false,
      "inputs": [
        {
          "indexed": true,
          "internalType": "address",
          "name": "token",
          "type": "address"
        },
        {
          "indexed": true,
          "internalType": "address",
          "name": "recipient",
          "type": "address"
        },
        {
          "indexed": false,
          "internalType": "uint256",
          "name": "amount",
          "type": "uint256"
        }
      ],
      "name": "FeesWithdrawn",
      "type": "event"
    },
    {
      "anonymous": false,
      "inputs": [
        {
          "indexed": true,
          "internalType": "address",
          "name": "previousOwner",
          "type": "address"
        },
        {
          "indexed": true,
          "internalType": "address",
          "name": "newOwner",
          "type": "address"
        }
      ],
      "name": "OwnershipTransferred",
      "type": "event"
    },
    {
      "anonymous": false,
      "inputs": [
        {
          "indexed": true,
          "internalType": "address",
          "name": "owner",
          "type": "address"
        },
        {
          "indexed": true,
          "internalType": "address",
          "name": "wrappedSongSmartAccount",
          "type": "address"
        },
        {
          "indexed": false,
          "internalType": "address",
          "name": "stablecoin",
          "type": "address"
        },
        {
          "indexed": false,
          "internalType": "address",
          "name": "wsTokenManagement",
          "type": "address"
        },
        {
          "indexed": false,
          "internalType": "uint256",
          "name": "sharesAmount",
          "type": "uint256"
        },
        {
          "components": [
            {
              "internalType": "string",
              "name": "name",
              "type": "string"
            },
            {
              "internalType": "string",
              "name": "description",
              "type": "string"
            },
            {
              "internalType": "string",
              "name": "image",
              "type": "string"
            },
            {
              "internalType": "string",
              "name": "externalUrl",
              "type": "string"
            },
            {
              "internalType": "string",
              "name": "animationUrl",
              "type": "string"
            },
            {
              "internalType": "string",
              "name": "attributesIpfsHash",
              "type": "string"
            }
          ],
          "indexed": false,
          "internalType": "struct IMetadataModule.Metadata",
          "name": "metadata",
          "type": "tuple"
        }
      ],
      "name": "WrappedSongCreated",
      "type": "event"
    },
    {
      "inputs": [
        {
          "internalType": "address",
          "name": "",
          "type": "address"
        }
      ],
      "name": "accumulatedFees",
      "outputs": [
        {
          "internalType": "uint256",
          "name": "",
          "type": "uint256"
        }
      ],
      "stateMutability": "view",
      "type": "function"
    },
    {
      "inputs": [
        {
          "internalType": "address",
          "name": "_stablecoin",
          "type": "address"
        },
        {
          "components": [
            {
              "internalType": "string",
              "name": "name",
              "type": "string"
            },
            {
              "internalType": "string",
              "name": "description",
              "type": "string"
            },
            {
              "internalType": "string",
              "name": "image",
              "type": "string"
            },
            {
              "internalType": "string",
              "name": "externalUrl",
              "type": "string"
            },
            {
              "internalType": "string",
              "name": "animationUrl",
              "type": "string"
            },
            {
              "internalType": "string",
              "name": "attributesIpfsHash",
              "type": "string"
            }
          ],
          "internalType": "struct IMetadataModule.Metadata",
          "name": "songMetadata",
          "type": "tuple"
        },
        {
          "internalType": "uint256",
          "name": "sharesAmount",
          "type": "uint256"
        },
        {
          "internalType": "address",
          "name": "wsOwner",
          "type": "address"
        }
      ],
      "name": "createWrappedSong",
      "outputs": [
        {
          "internalType": "address",
          "name": "",
          "type": "address"
        }
      ],
      "stateMutability": "payable",
      "type": "function"
    },
    {
      "inputs": [],
      "name": "owner",
      "outputs": [
        {
          "internalType": "address",
          "name": "",
          "type": "address"
        }
      ],
      "stateMutability": "view",
      "type": "function"
    },
    {
      "inputs": [],
      "name": "protocolModule",
      "outputs": [
        {
          "internalType": "contract IProtocolModule",
          "name": "",
          "type": "address"
        }
      ],
      "stateMutability": "view",
      "type": "function"
    },
    {
      "inputs": [],
      "name": "registryModule",
      "outputs": [
        {
          "internalType": "contract IRegistryModule",
          "name": "",
          "type": "address"
        }
      ],
      "stateMutability": "view",
      "type": "function"
    },
    {
      "inputs": [],
      "name": "renounceOwnership",
      "outputs": [],
      "stateMutability": "nonpayable",
      "type": "function"
    },
    {
      "inputs": [
        {
          "internalType": "address",
          "name": "newOwner",
          "type": "address"
        }
      ],
      "name": "transferOwnership",
      "outputs": [],
      "stateMutability": "nonpayable",
      "type": "function"
    },
    {
      "inputs": [
        {
          "internalType": "address",
          "name": "token",
          "type": "address"
        },
        {
          "internalType": "address",
          "name": "recipient",
          "type": "address"
        }
      ],
      "name": "withdrawAccumulatedFees",
      "outputs": [],
      "stateMutability": "nonpayable",
      "type": "function"
    },
    {
      "inputs": [],
      "name": "wrappedSongTemplate",
      "outputs": [
        {
          "internalType": "address",
          "name": "",
          "type": "address"
        }
      ],
      "stateMutability": "view",
      "type": "function"
    },
    {
      "inputs": [],
      "name": "wsTokenTemplate",
      "outputs": [
        {
          "internalType": "address",
          "name": "",
          "type": "address"
        }
      ],
      "stateMutability": "view",
      "type": "function"
    },
    {
      "stateMutability": "payable",
      "type": "receive"
    }
  ],
  "bytecode": "0x60e0346200018557601f62001ca838819003918201601f19168301916001600160401b038311848410176200018a5780849260609460405283398101031262000185576200004d81620001a0565b906200006a60406200006260208401620001a0565b9201620001a0565b33156200016c5760008054336001600160a01b0319821681178355604051956001600160a01b03959390928616907f8be0079c531659141344cd1fd0a4f28419497f9722a3daafe3b4186f6b6457e09080a360a05260c05216608052611af29081620001b682396080518181816101e901528181610265015281816102cc015281816103170152818161044c015281816104f1015281816105360152818161058e015281816105c20152818161061f0152818161065b015281816106be015281816107a001528181610b8801528181610c51015281816113e001526114c7015260a0518181816103ed0152611425015260c051818181610492015261139b0152f35b604051631e4fbdf760e01b815260006004820152602490fd5b600080fd5b634e487b7160e01b600052604160045260246000fd5b51906001600160a01b0382168203620001855756fe608080604052600436101561001d575b50361561001b57600080fd5b005b600090813560e01c908163376c1f071461147d575080633cd7bc95146114545780633e22876b1461140f5780635c42e667146113ca5780635e63149f14611385578063715018a61461132b5780638da5cb5b14611304578063f2fde38b1461127e578063fcf66664146112455763ff42536b0361000f57600319608036820112610a12576100a96116dc565b602435916001600160401b038311610a615760c0908336030112610a0e57604051916100d4836116f7565b80600401356001600160401b038111610e8e576100f79060043691840101611777565b835260248101356001600160401b038111610e8e5761011c9060043691840101611777565b602084015260448101356001600160401b038111610e8e576101449060043691840101611777565b604084015260648101356001600160401b038111610e8e5761016c9060043691840101611777565b606084015260848101356001600160401b038111610e8e576101949060043691840101611777565b608084015260a4810135906001600160401b038211610e8e5760046101bc9236920101611777565b60a08301526064356001600160a01b0381169003610a0e57604051635c975abb60e01b81526020816004817f00000000000000000000000000000000000000000000000000000000000000006001600160a01b03165afa908115610a6d578491611226575b506111ec578151511515806111de575b806111d0575b806111c2575b1561118a57604435156111355760405163f140b55f60e01b81523360048201526020816024817f00000000000000000000000000000000000000000000000000000000000000006001600160a01b03165afa908115610a6d578491611116575b50156110d25760405163b5af090f60e01b81526001600160a01b038281166004830152602090829060249082907f0000000000000000000000000000000000000000000000000000000000000000165afa908115610a6d5784916110b3575b501561106e5760405163670d296960e11b81526020816004817f00000000000000000000000000000000000000000000000000000000000000006001600160a01b03165afa908115610a6d576004916020918691611051575b50604051636d4726d960e01b815292839182906001600160a01b03165afa908115610a6d57849161100f575b5060405163a454912960e01b8152906020826004816001600160a01b0385165afa918215610b30578592610fdb575b5060405163d579e3f360e01b81526020816004816001600160a01b0386165afa908115610d83578691610fac575b5082610b3b575b5050506104117f000000000000000000000000000000000000000000000000000000000000000061192c565b916001600160a01b0383163b15610a615760405163c0c53b8b60e01b81526001600160a01b03838116600483015260648035821660248401527f00000000000000000000000000000000000000000000000000000000000000008216604484015286918391908290849089165af18015610b3057610b1d575b5083906104b67f000000000000000000000000000000000000000000000000000000000000000061192c565b906001600160a01b0382163b15610a0e5760405163c0c53b8b60e01b81526001600160a01b03868116600483015260648035821660248401527f00000000000000000000000000000000000000000000000000000000000000008216604484015285918391908290849088165af1908115610a6d578491610b09575b50507f00000000000000000000000000000000000000000000000000000000000000006001600160a01b03163b15610a0e5760405163d9ce7b9560e01b81526001600160a01b03838116600483015284908290602490829084907f0000000000000000000000000000000000000000000000000000000000000000165af1908115610a6d578491610af5575b50507f00000000000000000000000000000000000000000000000000000000000000006001600160a01b03163b15610a0e576040516208ac8360e01b81526001600160a01b03808716600483015283166024820152838180604481010381837f00000000000000000000000000000000000000000000000000000000000000006001600160a01b03165af1908115610a6d578491610ae1575b50507f00000000000000000000000000000000000000000000000000000000000000006001600160a01b03163b15610a0e5760405160016216ef6160e31b031981526001600160a01b036064358116600483015286166024820152838180604481010381837f00000000000000000000000000000000000000000000000000000000000000006001600160a01b03165af1908115610a6d578491610acd575b50506001600160a01b0385163b15610a0e5760405163716f6e8760e01b81526001600160a01b03838116600483015284908290602490829084908b165af1908115610a6d578491610ab9575b50506001600160a01b0385163b15610a0e576040516339fa62df60e01b815260443560048201528381602481836001600160a01b038b165af1908115610a6d578491610aa5575b505060405163670d296960e11b81526020816004817f00000000000000000000000000000000000000000000000000000000000000006001600160a01b03165afa908115610a6d576004916020918691610a78575b50604051623684d160e81b815292839182906001600160a01b03165afa8015610a6d5784918291610a22575b5060408051636613680d60e01b81526001600160a01b038916600482015260248101919091529791928892839182906108479060448301906118ae565b03926001600160a01b03165af1918215610a165780926108e5575b50604080516001600160a01b039485168152918416602083810191909152604435918301919091526080606083018190529095508484169360643516927f938ece1ab5d508d56896411e3f1b2c96359f780ecbfe90c9a4031cd170aa4a4a929182916108d0918301906118ae565b0390a36040516001600160a01b039091168152f35b9091503d8082873e6108f7818761173b565b850194602081870312610a12578051906001600160401b038211610a0e57019060c082870312610a0b576040519161092e836116f7565b80516001600160401b038111610a0e578761094a918301611844565b835260208101516001600160401b038111610a0e578761096b918301611844565b602084015260408101516001600160401b038111610a0e578761098f918301611844565b604084015260608101516001600160401b038111610a0e57876109b3918301611844565b606084015260808101516001600160401b038111610a0e57876109d7918301611844565b608084015260a0810151916001600160401b038311610a0b5750956109ff9160209701611844565b60a08201529038610862565b80fd5b8280fd5b5080fd5b604051903d90823e3d90fd5b9150506020813d602011610a65575b81610a3e6020938361173b565b81010312610a6157516001600160a01b0381168103610a6157839061084761080a565b8380fd5b3d9150610a31565b6040513d86823e3d90fd5b610a989150823d8411610a9e575b610a90818361173b565b810190611802565b386107de565b503d610a86565b610aae90611728565b610a0e578238610789565b610ac290611728565b610a0e578238610742565b610ad690611728565b610a0e5782386106f6565b610aea90611728565b610a0e578238610657565b610afe90611728565b610a0e5782386105be565b610b1290611728565b610a0e578238610532565b610b2990949194611728565b923861048a565b6040513d87823e3d90fd5b15610e9a576040516337a0a9e960e11b815290602090829060049082906001600160a01b03165afa908115610b30578591610e64575b5060405163670d296960e11b8152906020826004817f00000000000000000000000000000000000000000000000000000000000000006001600160a01b03165afa918215610d83576004926020918891610e47575b506040516309da4e5160e01b815293849182906001600160a01b03165afa918215610d83578692610dfe575b50604051637c70c0a360e01b8152600481019190915290602090829060249082906001600160a01b03165afa908115610b30578591610ddf575b506001600160a01b03811615610d8e576040516331785eef60e11b81526020816004817f00000000000000000000000000000000000000000000000000000000000000006001600160a01b03165afa908115610d83578691610d64575b506040516323b872dd60e01b60208201523360248201526001600160a01b039091166044820152606480820184905281526001600160401b0360a0820190811190821117610d505760a0810160405285917fdd872ca9502e175165673833ac2a0e1395edb4b5c72f2915685598490c375e999160209190610d13906001600160a01b0383166119e7565b6001600160a01b038116845260018252604084208054610d34908790611994565b90556040519485526001600160a01b031693a35b3880806103e5565b634e487b7160e01b86526041600452602486fd5b610d7d915060203d602011610a9e57610a90818361173b565b38610c89565b6040513d88823e3d90fd5b60405162461bcd60e51b815260206004820152602360248201527f4e6f2077686974656c697374656420737461626c65636f696e20617661696c61604482015262626c6560e81b6064820152608490fd5b610df8915060203d602011610a9e57610a90818361173b565b38610c2c565b9091506020813d602011610e3f575b81610e1a6020938361173b565b81010312610e3b57516001600160a01b0381168103610e3b57906020610bf2565b8580fd5b3d9150610e0d565b610e5e9150823d8411610a9e57610a90818361173b565b38610bc6565b90506020813d602011610e92575b81610e7f6020938361173b565b81010312610e8e575138610b71565b8480fd5b3d9150610e72565b50803410610f6757838052600160205260408420610eb9348254611994565b9055803411610ef5575b5082807fdd872ca9502e175165673833ac2a0e1395edb4b5c72f2915685598490c375e996020604051348152a3610d48565b3403348111610f53578380808093335af1610f0e6119b7565b5015610f1a5738610ec3565b60405162461bcd60e51b8152602060048201526011602482015270115512081c99599d5b990819985a5b1959607a1b6044820152606490fd5b634e487b7160e01b84526011600452602484fd5b60405162461bcd60e51b815260206004820152601860248201527f496e636f7272656374204554482066656520616d6f756e7400000000000000006044820152606490fd5b610fce915060203d602011610fd4575b610fc6818361173b565b8101906117ea565b386103de565b503d610fbc565b9091506020813d602011611007575b81610ff76020938361173b565b81010312610e8e575190386103b0565b3d9150610fea565b90506020813d602011611049575b8161102a6020938361173b565b81010312610a6157516001600160a01b0381168103610a615738610381565b3d915061101d565b6110689150823d8411610a9e57610a90818361173b565b38610355565b60405162461bcd60e51b815260206004820152601d60248201527f537461626c65636f696e206973206e6f742077686974656c69737465640000006044820152606490fd5b6110cc915060203d602011610fd457610fc6818361173b565b386102fc565b606460405162461bcd60e51b815260206004820152602060248201527f4e6f742076616c696420746f20637265617465205772617070656420536f6e676044820152fd5b61112f915060203d602011610fd457610fc6818361173b565b3861029d565b60405162461bcd60e51b815260206004820152602760248201527f53686172657320616d6f756e74206d7573742062652067726561746572207468604482015266616e207a65726f60c81b6064820152608490fd5b60405162461bcd60e51b815260206004820152601060248201526f496e76616c6964206d6574616461746160801b6044820152606490fd5b5060a082015151151561023d565b506080820151511515610237565b506040820151511515610231565b60405162461bcd60e51b8152602060048201526012602482015271141c9bdd1bd8dbdb081a5cc81c185d5cd95960721b6044820152606490fd5b61123f915060203d602011610fd457610fc6818361173b565b38610221565b5034610a0b576020366003190112610a0b576020906040906001600160a01b0361126d6116dc565b168152600183522054604051908152f35b5034610a0b576020366003190112610a0b576112986116dc565b6112a06117be565b6001600160a01b039081169081156112eb5782546001600160a01b0319811683178455167f8be0079c531659141344cd1fd0a4f28419497f9722a3daafe3b4186f6b6457e08380a380f35b604051631e4fbdf760e01b815260048101849052602490fd5b5034610a0b5780600319360112610a0b57546040516001600160a01b039091168152602090f35b5034610a0b5780600319360112610a0b576113446117be565b80546001600160a01b03198116825581906001600160a01b03167f8be0079c531659141344cd1fd0a4f28419497f9722a3daafe3b4186f6b6457e08280a380f35b5034610a0b5780600319360112610a0b576040517f00000000000000000000000000000000000000000000000000000000000000006001600160a01b03168152602090f35b5034610a0b5780600319360112610a0b576040517f00000000000000000000000000000000000000000000000000000000000000006001600160a01b03168152602090f35b5034610a0b5780600319360112610a0b576040517f00000000000000000000000000000000000000000000000000000000000000006001600160a01b03168152602090f35b5034610a0b5780600319360112610a0b576002546040516001600160a01b039091168152602090f35b905034610a12576040366003190112610a12576114986116dc565b602480356001600160a01b038181169492939091859003610e3b57638da5cb5b60e01b835260209283816004817f000000000000000000000000000000000000000000000000000000000000000087165afa80156116d157839188916116b4575b50163303611662571691828552600182526040852054908115611629578386526001835285604081205583156000146115aa578580808085895af161153c6119b7565b50156115715750907f5e110f8bc8a20b65dcc87f224bdf1cc039346e267118bae2739847f07321ffa8915b604051908152a380f35b8260136064926040519262461bcd60e51b8452600484015282015272115512081d1c985b9cd9995c8819985a5b1959606a1b6044820152fd5b6040519063a9059cbb60e01b8483015285818301528260448301526044825260808201908282106001600160401b0383111761161757507f5e110f8bc8a20b65dcc87f224bdf1cc039346e267118bae2739847f07321ffa893929161161291604052856119e7565b611567565b634e487b7160e01b8852604160045287fd5b8260136064926040519262461bcd60e51b84526004840152820152724e6f206665657320746f20776974686472617760681b6044820152fd5b60405162461bcd60e51b8152600481018490526025818601527f4f6e6c792070726f746f636f6c206f776e65722063616e207769746864726177604482015264206665657360d81b6064820152608490fd5b6116cb9150853d8711610a9e57610a90818361173b565b386114f9565b6040513d89823e3d90fd5b600435906001600160a01b03821682036116f257565b600080fd5b60c081019081106001600160401b0382111761171257604052565b634e487b7160e01b600052604160045260246000fd5b6001600160401b03811161171257604052565b90601f801991011681019081106001600160401b0382111761171257604052565b6001600160401b03811161171257601f01601f191660200190565b81601f820112156116f25780359061178e8261175c565b9261179c604051948561173b565b828452602083830101116116f257816000926020809301838601378301015290565b6000546001600160a01b031633036117d257565b60405163118cdaa760e01b8152336004820152602490fd5b908160209103126116f2575180151581036116f25790565b908160209103126116f257516001600160a01b03811681036116f25790565b60005b8381106118345750506000910152565b8181015183820152602001611824565b81601f820112156116f257805161185a8161175c565b92611868604051948561173b565b818452602082840101116116f2576118869160208085019101611821565b90565b906020916118a281518092818552858086019101611821565b601f01601f1916010190565b6118869160a061191b6119096118f76118e56118d3875160c0885260c0880190611889565b60208801518782036020890152611889565b60408701518682036040880152611889565b60608601518582036060870152611889565b60808501518482036080860152611889565b9201519060a0818403910152611889565b6e5af43d82803e903d91602b57fd5bf390763d602d80600a3d3981f3363d3d373d3d3d363d7300000062ffffff8260881c161760005260781b17602052603760096000f0906001600160a01b0382161561198257565b6040516330be1a3d60e21b8152600490fd5b919082018092116119a157565b634e487b7160e01b600052601160045260246000fd5b3d156119e2573d906119c88261175c565b916119d6604051938461173b565b82523d6000602084013e565b606090565b600080611a109260018060a01b03169360208151910182865af1611a096119b7565b9083611a59565b8051908115159182611a3e575b5050611a265750565b60249060405190635274afe760e01b82526004820152fd5b611a5192506020809183010191016117ea565b153880611a1d565b90611a805750805115611a6e57805190602001fd5b604051630a12f52160e11b8152600490fd5b81511580611ab3575b611a91575090565b604051639996b31560e01b81526001600160a01b039091166004820152602490fd5b50803b15611a8956fea2646970667358221220fa34be0160422919938d097a6103442b9fb04deff3969269eb2c78f1dc1ddd0a64736f6c63430008140033",
  "linkReferences": {},
  "deployedLinkReferences": {}
}