{
  "_format": "hh-sol-artifact-1",
  "contractName": "WrappedSongFactory",
  "sourceName": "contracts/protocol/NonUpgradable/WrappedSongFactory.sol",
  "abi": [
    {
      "inputs": [
        {
          "internalType": "address",
          "name": "_protocolModule",
          "type": "address"
        },
        {
          "internalType": "address",
          "name": "_wrappedSongTemplate",
          "type": "address"
        },
        {
          "internalType": "address",
          "name": "_wsTokenTemplate",
          "type": "address"
        }
      ],
      "stateMutability": "nonpayable",
      "type": "constructor"
    },
    {
      "inputs": [
        {
          "internalType": "address",
          "name": "target",
          "type": "address"
        }
      ],
      "name": "AddressEmptyCode",
      "type": "error"
    },
    {
      "inputs": [
        {
          "internalType": "address",
          "name": "account",
          "type": "address"
        }
      ],
      "name": "AddressInsufficientBalance",
      "type": "error"
    },
    {
      "inputs": [],
      "name": "ERC1167FailedCreateClone",
      "type": "error"
    },
    {
      "inputs": [],
      "name": "FailedInnerCall",
      "type": "error"
    },
    {
      "inputs": [
        {
          "internalType": "address",
          "name": "token",
          "type": "address"
        }
      ],
      "name": "SafeERC20FailedOperation",
      "type": "error"
    },
    {
      "anonymous": false,
      "inputs": [
        {
          "indexed": true,
          "internalType": "address",
          "name": "wrappedSong",
          "type": "address"
        },
        {
          "indexed": true,
          "internalType": "address",
          "name": "token",
          "type": "address"
        },
        {
          "indexed": false,
          "internalType": "uint256",
          "name": "amount",
          "type": "uint256"
        }
      ],
      "name": "CreationFeeCollected",
      "type": "event"
    },
    {
      "anonymous": false,
      "inputs": [
        {
          "indexed": true,
          "internalType": "address",
          "name": "token",
          "type": "address"
        },
        {
          "indexed": true,
          "internalType": "address",
          "name": "recipient",
          "type": "address"
        },
        {
          "indexed": false,
          "internalType": "uint256",
          "name": "amount",
          "type": "uint256"
        }
      ],
      "name": "FeesWithdrawn",
      "type": "event"
    },
    {
      "anonymous": false,
      "inputs": [
        {
          "indexed": true,
          "internalType": "address",
          "name": "owner",
          "type": "address"
        },
        {
          "indexed": true,
          "internalType": "address",
          "name": "wrappedSongSmartAccount",
          "type": "address"
        },
        {
          "indexed": false,
          "internalType": "address",
          "name": "stablecoin",
          "type": "address"
        },
        {
          "indexed": false,
          "internalType": "address",
          "name": "wsTokenManagement",
          "type": "address"
        },
        {
          "indexed": false,
          "internalType": "uint256",
          "name": "sharesAmount",
          "type": "uint256"
        },
        {
          "components": [
            {
              "internalType": "string",
              "name": "name",
              "type": "string"
            },
            {
              "internalType": "string",
              "name": "description",
              "type": "string"
            },
            {
              "internalType": "string",
              "name": "image",
              "type": "string"
            },
            {
              "internalType": "string",
              "name": "externalUrl",
              "type": "string"
            },
            {
              "internalType": "string",
              "name": "animationUrl",
              "type": "string"
            },
            {
              "internalType": "string",
              "name": "attributesIpfsHash",
              "type": "string"
            }
          ],
          "indexed": false,
          "internalType": "struct IMetadataModule.Metadata",
          "name": "metadata",
          "type": "tuple"
        }
      ],
      "name": "WrappedSongCreated",
      "type": "event"
    },
    {
      "inputs": [
        {
          "internalType": "address",
          "name": "",
          "type": "address"
        }
      ],
      "name": "accumulatedFees",
      "outputs": [
        {
          "internalType": "uint256",
          "name": "",
          "type": "uint256"
        }
      ],
      "stateMutability": "view",
      "type": "function"
    },
    {
      "inputs": [
        {
          "internalType": "address",
          "name": "_stablecoin",
          "type": "address"
        },
        {
          "components": [
            {
              "internalType": "string",
              "name": "name",
              "type": "string"
            },
            {
              "internalType": "string",
              "name": "description",
              "type": "string"
            },
            {
              "internalType": "string",
              "name": "image",
              "type": "string"
            },
            {
              "internalType": "string",
              "name": "externalUrl",
              "type": "string"
            },
            {
              "internalType": "string",
              "name": "animationUrl",
              "type": "string"
            },
            {
              "internalType": "string",
              "name": "attributesIpfsHash",
              "type": "string"
            }
          ],
          "internalType": "struct IMetadataModule.Metadata",
          "name": "songMetadata",
          "type": "tuple"
        },
        {
          "internalType": "uint256",
          "name": "sharesAmount",
          "type": "uint256"
        }
      ],
      "name": "createWrappedSong",
      "outputs": [
        {
          "internalType": "address",
          "name": "",
          "type": "address"
        }
      ],
      "stateMutability": "payable",
      "type": "function"
    },
    {
      "inputs": [],
      "name": "metadataModule",
      "outputs": [
        {
          "internalType": "contract IMetadataModule",
          "name": "",
          "type": "address"
        }
      ],
      "stateMutability": "view",
      "type": "function"
    },
    {
      "inputs": [],
      "name": "protocolModule",
      "outputs": [
        {
          "internalType": "contract IProtocolModule",
          "name": "",
          "type": "address"
        }
      ],
      "stateMutability": "view",
      "type": "function"
    },
    {
      "inputs": [
        {
          "internalType": "address",
          "name": "token",
          "type": "address"
        },
        {
          "internalType": "address",
          "name": "recipient",
          "type": "address"
        }
      ],
      "name": "withdrawAccumulatedFees",
      "outputs": [],
      "stateMutability": "nonpayable",
      "type": "function"
    },
    {
      "inputs": [],
      "name": "wrappedSongTemplate",
      "outputs": [
        {
          "internalType": "address",
          "name": "",
          "type": "address"
        }
      ],
      "stateMutability": "view",
      "type": "function"
    },
    {
      "inputs": [],
      "name": "wsTokenTemplate",
      "outputs": [
        {
          "internalType": "address",
          "name": "",
          "type": "address"
        }
      ],
      "stateMutability": "view",
      "type": "function"
    },
    {
      "stateMutability": "payable",
      "type": "receive"
    }
  ],
  "bytecode": "0x61010060409080825234620002855760608162001a4380380380916200002682856200028a565b83398101031262000285576200003c81620002c4565b906020916200005a8462000052858501620002c4565b9301620002c4565b926001600160a01b039182168015620002415782841615620001fd5782851615620001b957908082600493608052875193848092630222e55560e21b82525afa908115620001ae576000916200016f575b5090501660a05260c05260e052516117699081620002da82396080518181816101f00152818161026c015281816102d30152818161031e0152818161036c0152818161040c015281816104b3015281816104f30152818161053d01528181610579015281816105d7015281816106130152818161067201528181610a1e01528181610a6d0152818161106b0152611129015260a0518181816107740152611350015260c0518181816103b201526110b0015260e05181818161045801526110260152f35b82813d8311620001a6575b6200018681836200028a565b81010312620001a357506200019b90620002c4565b8038620000ab565b80fd5b503d6200017a565b86513d6000823e3d90fd5b855162461bcd60e51b815260048101839052601860248201527f496e76616c6964205753546f6b656e2074656d706c61746500000000000000006044820152606490fd5b855162461bcd60e51b815260048101839052601d60248201527f496e76616c6964207772617070656420736f6e672074656d706c6174650000006044820152606490fd5b855162461bcd60e51b815260048101839052601760248201527f496e76616c69642070726f746f636f6c206d6f64756c650000000000000000006044820152606490fd5b600080fd5b601f909101601f19168101906001600160401b03821190821017620002ae57604052565b634e487b7160e01b600052604160045260246000fd5b51906001600160a01b0382168203620002855756fe608080604052600436101561001d575b50361561001b57600080fd5b005b600090813560e01c9081633684d1001461133c57508063376c1f07146110df5780633e22876b1461109a5780635c42e667146110555780635e63149f14611010578063b9408f5c146100ad5763fcf666640361000f57346100aa5760203660031901126100aa576020906040906001600160a01b0361009a61137f565b1681528083522054604051908152f35b80fd5b50600319906060368301126100aa576100c461137f565b602435926001600160401b0384116109485760c090843603011261094c57604051926100ef8461139a565b80600401356001600160401b038111610cbc57610112906004369184010161141a565b845260248101356001600160401b038111610cbc57610137906004369184010161141a565b602085015260448101356001600160401b038111610cbc5761015f906004369184010161141a565b604085015260648101356001600160401b038111610cbc57610187906004369184010161141a565b606085015260848101356001600160401b038111610cbc576101af906004369184010161141a565b608085015260a48101356001600160401b038111610cbc576101d69136910160040161141a565b60a0840152604051635c975abb60e01b81526020816004817f00000000000000000000000000000000000000000000000000000000000000006001600160a01b03165afa908115610970578391610ff1575b50610fb757825151151580610fa9575b80610f9b575b80610f8d575b15610f555760443515610f005760405163f140b55f60e01b81523360048201526020816024817f00000000000000000000000000000000000000000000000000000000000000006001600160a01b03165afa908115610970578391610ee1575b5015610e9d5760405163b5af090f60e01b81526001600160a01b038281166004830152602090829060249082907f0000000000000000000000000000000000000000000000000000000000000000165afa908115610970578391610e7e575b5015610e395760405163438c9d9560e01b81526020816004817f00000000000000000000000000000000000000000000000000000000000000006001600160a01b03165afa908115610970578391610e07575b506040516316eddecb60e01b81526020816004817f00000000000000000000000000000000000000000000000000000000000000006001600160a01b03165afa9081156109cb578491610dd8575b5081610a04575b50506103d67f0000000000000000000000000000000000000000000000000000000000000000611584565b916001600160a01b0383163b156100aa5760405163c0c53b8b60e01b81526001600160a01b0383811660048301523260248301527f0000000000000000000000000000000000000000000000000000000000000000166044820152818180606481010381836001600160a01b0389165af180156109f9576109ea575b5061047c7f0000000000000000000000000000000000000000000000000000000000000000611584565b6001600160a01b03811690813b156109485760405163c0c53b8b60e01b81526001600160a01b0386811660048301523360248301527f0000000000000000000000000000000000000000000000000000000000000000166044820152838160648183875af180156109cb579084916109d6575b50507f00000000000000000000000000000000000000000000000000000000000000006001600160a01b03163b156109485760405163d9ce7b9560e01b8152600481018390528381602481837f00000000000000000000000000000000000000000000000000000000000000006001600160a01b03165af180156109cb579084916109b7575b50507f00000000000000000000000000000000000000000000000000000000000000006001600160a01b03163b15610948576040516208ac8360e01b81526001600160a01b0380871660048301529091166024820152828180604481010381837f00000000000000000000000000000000000000000000000000000000000000006001600160a01b03165af18015610970579083916109a3575b50507f00000000000000000000000000000000000000000000000000000000000000006001600160a01b03163b1561094c5760405160016216ef6160e31b031981523360048201526001600160a01b0385166024820152828180604481010381837f00000000000000000000000000000000000000000000000000000000000000006001600160a01b03165af180156109705790839161098f575b50506001600160a01b0384163b1561094c5760405163716f6e8760e01b8152600481018290528281602481836001600160a01b038a165af180156109705790839161097b575b50506001600160a01b0384163b1561094c576040516339fa62df60e01b815260443560048201528281602481836001600160a01b038a165af180156109705761095c575b5060408051636613680d60e01b81526001600160a01b038616600482015260248101919091529482908690819061076f906044830190611506565b0381837f00000000000000000000000000000000000000000000000000000000000000006001600160a01b03165af1918215610950578092610822575b50602094506040519260018060a01b03168352848301526044356040830152608060608301527f938ece1ab5d508d56896411e3f1b2c96359f780ecbfe90c9a4031cd170aa4a4a60018060a01b038416928061080d33946080830190611506565b0390a36040516001600160a01b039091168152f35b9091503d8082873e61083481876113de565b85019460208187031261094c578051906001600160401b03821161094857019060c0828703126100aa576040519161086b8361139a565b80516001600160401b038111610948578761088791830161149c565b835260208101516001600160401b03811161094857876108a891830161149c565b602084015260408101516001600160401b03811161094857876108cc91830161149c565b604084015260608101516001600160401b03811161094857876108f091830161149c565b606084015260808101516001600160401b038111610948578761091491830161149c565b608084015260a0810151916001600160401b0383116100aa57509561093c916020970161149c565b60a082015290386107ac565b8280fd5b5080fd5b604051903d90823e3d90fd5b61096683916113cb565b61094c5738610734565b6040513d85823e3d90fd5b610984906113cb565b61094c5781386106f0565b610998906113cb565b61094c5781386106aa565b6109ac906113cb565b61094c57813861060f565b6109c0906113cb565b610948578238610575565b6040513d86823e3d90fd5b6109df906113cb565b6109485782386104ef565b6109f3906113cb565b38610452565b6040513d84823e3d90fd5b15610cc857604051631241509d60e21b81526020816004817f00000000000000000000000000000000000000000000000000000000000000006001600160a01b03165afa9081156109cb578491610c92575b506040516309da4e5160e01b8152906020826004817f00000000000000000000000000000000000000000000000000000000000000006001600160a01b03165afa918215610c87578592610c3e575b50604051637c70c0a360e01b8152600481019190915290602090829060249082906001600160a01b03165afa9081156109cb578491610c0f575b506001600160a01b03811615610bbe576040516323b872dd60e01b6020820152336024820152306044820152826064820152606481528060a08101106001600160401b0360a083011117610baa5760a0810160405284917fdd872ca9502e175165673833ac2a0e1395edb4b5c72f2915685598490c375e999160209190610b6f906001600160a01b03831661165e565b6001600160a01b0381168452838252604084208054610b8f9087906115ec565b90556040519485526001600160a01b031693a35b38806103ab565b634e487b7160e01b85526041600452602485fd5b60405162461bcd60e51b815260206004820152602360248201527f4e6f2077686974656c697374656420737461626c65636f696e20617661696c61604482015262626c6560e81b6064820152608490fd5b610c31915060203d602011610c37575b610c2981836113de565b81019061163f565b38610adf565b503d610c1f565b9091506020813d602011610c7f575b81610c5a602093836113de565b81010312610c7b57516001600160a01b0381168103610c7b57906020610aa5565b8480fd5b3d9150610c4d565b6040513d87823e3d90fd5b90506020813d602011610cc0575b81610cad602093836113de565b81010312610cbc575138610a56565b8380fd5b3d9150610ca0565b803410610d93578280528260205260408320610ce53482546115ec565b9055803411610d21575b5081807fdd872ca9502e175165673833ac2a0e1395edb4b5c72f2915685598490c375e996020604051348152a3610ba3565b3403348111610d7f578280808093335af1610d3a61160f565b5015610d465738610cef565b60405162461bcd60e51b8152602060048201526011602482015270115512081c99599d5b990819985a5b1959607a1b6044820152606490fd5b634e487b7160e01b83526011600452602483fd5b60405162461bcd60e51b815260206004820152601860248201527f496e636f7272656374204554482066656520616d6f756e7400000000000000006044820152606490fd5b610dfa915060203d602011610e00575b610df281836113de565b810190611461565b386103a4565b503d610de8565b90506020813d602011610e31575b81610e22602093836113de565b81010312610948575138610356565b3d9150610e15565b60405162461bcd60e51b815260206004820152601d60248201527f537461626c65636f696e206973206e6f742077686974656c69737465640000006044820152606490fd5b610e97915060203d602011610e0057610df281836113de565b38610303565b606460405162461bcd60e51b815260206004820152602060248201527f4e6f742076616c696420746f20637265617465205772617070656420536f6e676044820152fd5b610efa915060203d602011610e0057610df281836113de565b386102a4565b60405162461bcd60e51b815260206004820152602760248201527f53686172657320616d6f756e74206d7573742062652067726561746572207468604482015266616e207a65726f60c81b6064820152608490fd5b60405162461bcd60e51b815260206004820152601060248201526f496e76616c6964206d6574616461746160801b6044820152606490fd5b5060a0830151511515610244565b50608083015151151561023e565b506040830151511515610238565b60405162461bcd60e51b8152602060048201526012602482015271141c9bdd1bd8dbdb081a5cc81c185d5cd95960721b6044820152606490fd5b61100a915060203d602011610e0057610df281836113de565b38610228565b50346100aa57806003193601126100aa576040517f00000000000000000000000000000000000000000000000000000000000000006001600160a01b03168152602090f35b50346100aa57806003193601126100aa576040517f00000000000000000000000000000000000000000000000000000000000000006001600160a01b03168152602090f35b50346100aa57806003193601126100aa576040517f00000000000000000000000000000000000000000000000000000000000000006001600160a01b03168152602090f35b50346100aa5760403660031901126100aa576110f961137f565b602480356001600160a01b038181169391849003610c7b57604051638da5cb5b60e01b81526020929083816004817f000000000000000000000000000000000000000000000000000000000000000087165afa80156113315783918891611314575b501633036112c2571691828552848252604085205490811561128957838652858352856040812055831560001461120a578580808085895af161119c61160f565b50156111d15750907f5e110f8bc8a20b65dcc87f224bdf1cc039346e267118bae2739847f07321ffa8915b604051908152a380f35b8260136064926040519262461bcd60e51b8452600484015282015272115512081d1c985b9cd9995c8819985a5b1959606a1b6044820152fd5b6040519063a9059cbb60e01b8483015285818301528260448301526044825260808201908282106001600160401b0383111761127757507f5e110f8bc8a20b65dcc87f224bdf1cc039346e267118bae2739847f07321ffa8939291611272916040528561165e565b6111c7565b634e487b7160e01b8852604160045287fd5b8260136064926040519262461bcd60e51b84526004840152820152724e6f206665657320746f20776974686472617760681b6044820152fd5b60405162461bcd60e51b8152600481018490526025818601527f4f6e6c792070726f746f636f6c206f776e65722063616e207769746864726177604482015264206665657360d81b6064820152608490fd5b61132b9150853d8711610c3757610c2981836113de565b3861115b565b6040513d89823e3d90fd5b90503461094c578160031936011261094c577f00000000000000000000000000000000000000000000000000000000000000006001600160a01b03168152602090f35b600435906001600160a01b038216820361139557565b600080fd5b60c081019081106001600160401b038211176113b557604052565b634e487b7160e01b600052604160045260246000fd5b6001600160401b0381116113b557604052565b90601f801991011681019081106001600160401b038211176113b557604052565b6001600160401b0381116113b557601f01601f191660200190565b81601f8201121561139557803590611431826113ff565b9261143f60405194856113de565b8284526020838301011161139557816000926020809301838601378301015290565b90816020910312611395575180151581036113955790565b60005b83811061148c5750506000910152565b818101518382015260200161147c565b81601f820112156113955780516114b2816113ff565b926114c060405194856113de565b81845260208284010111611395576114de9160208085019101611479565b90565b906020916114fa81518092818552858086019101611479565b601f01601f1916010190565b6114de9160a061157361156161154f61153d61152b875160c0885260c08801906114e1565b602088015187820360208901526114e1565b604087015186820360408801526114e1565b606086015185820360608701526114e1565b608085015184820360808601526114e1565b9201519060a08184039101526114e1565b6e5af43d82803e903d91602b57fd5bf390763d602d80600a3d3981f3363d3d373d3d3d363d7300000062ffffff8260881c161760005260781b17602052603760096000f0906001600160a01b038216156115da57565b6040516330be1a3d60e21b8152600490fd5b919082018092116115f957565b634e487b7160e01b600052601160045260246000fd5b3d1561163a573d90611620826113ff565b9161162e60405193846113de565b82523d6000602084013e565b606090565b9081602091031261139557516001600160a01b03811681036113955790565b6000806116879260018060a01b03169360208151910182865af161168061160f565b90836116d0565b80519081151591826116b5575b505061169d5750565b60249060405190635274afe760e01b82526004820152fd5b6116c89250602080918301019101611461565b153880611694565b906116f757508051156116e557805190602001fd5b604051630a12f52160e11b8152600490fd5b8151158061172a575b611708575090565b604051639996b31560e01b81526001600160a01b039091166004820152602490fd5b50803b1561170056fea2646970667358221220d07ea12b903c461b0ae9f4451ed566d546b2e19776acb72b285b15f1d5d322c464736f6c63430008140033",
  "linkReferences": {},
  "deployedLinkReferences": {}
}