{
  "_format": "hh-sol-artifact-1",
  "contractName": "WrappedSongFactory",
  "sourceName": "contracts/protocol/NonUpgradable/WrappedSongFactory.sol",
  "abi": [
    {
      "inputs": [],
      "stateMutability": "nonpayable",
      "type": "constructor"
    },
    {
      "inputs": [
        {
          "internalType": "address",
          "name": "target",
          "type": "address"
        }
      ],
      "name": "AddressEmptyCode",
      "type": "error"
    },
    {
      "inputs": [
        {
          "internalType": "address",
          "name": "account",
          "type": "address"
        }
      ],
      "name": "AddressInsufficientBalance",
      "type": "error"
    },
    {
      "inputs": [],
      "name": "ERC1167FailedCreateClone",
      "type": "error"
    },
    {
      "inputs": [],
      "name": "FailedInnerCall",
      "type": "error"
    },
    {
      "inputs": [
        {
          "internalType": "address",
          "name": "owner",
          "type": "address"
        }
      ],
      "name": "OwnableInvalidOwner",
      "type": "error"
    },
    {
      "inputs": [
        {
          "internalType": "address",
          "name": "account",
          "type": "address"
        }
      ],
      "name": "OwnableUnauthorizedAccount",
      "type": "error"
    },
    {
      "inputs": [
        {
          "internalType": "address",
          "name": "token",
          "type": "address"
        }
      ],
      "name": "SafeERC20FailedOperation",
      "type": "error"
    },
    {
      "inputs": [
        {
          "internalType": "uint256",
          "name": "value",
          "type": "uint256"
        },
        {
          "internalType": "uint256",
          "name": "length",
          "type": "uint256"
        }
      ],
      "name": "StringsInsufficientHexLength",
      "type": "error"
    },
    {
      "anonymous": false,
      "inputs": [
        {
          "indexed": true,
          "internalType": "address",
          "name": "wrappedSong",
          "type": "address"
        },
        {
          "indexed": true,
          "internalType": "address",
          "name": "token",
          "type": "address"
        },
        {
          "indexed": false,
          "internalType": "uint256",
          "name": "amount",
          "type": "uint256"
        }
      ],
      "name": "CreationFeeCollected",
      "type": "event"
    },
    {
      "anonymous": false,
      "inputs": [
        {
          "indexed": true,
          "internalType": "address",
          "name": "token",
          "type": "address"
        },
        {
          "indexed": true,
          "internalType": "address",
          "name": "recipient",
          "type": "address"
        },
        {
          "indexed": false,
          "internalType": "uint256",
          "name": "amount",
          "type": "uint256"
        }
      ],
      "name": "FeesWithdrawn",
      "type": "event"
    },
    {
      "anonymous": false,
      "inputs": [
        {
          "indexed": true,
          "internalType": "address",
          "name": "previousOwner",
          "type": "address"
        },
        {
          "indexed": true,
          "internalType": "address",
          "name": "newOwner",
          "type": "address"
        }
      ],
      "name": "OwnershipTransferred",
      "type": "event"
    },
    {
      "anonymous": false,
      "inputs": [
        {
          "indexed": true,
          "internalType": "address",
          "name": "oldModule",
          "type": "address"
        },
        {
          "indexed": true,
          "internalType": "address",
          "name": "newModule",
          "type": "address"
        }
      ],
      "name": "ProtocolModuleUpdated",
      "type": "event"
    },
    {
      "anonymous": false,
      "inputs": [
        {
          "indexed": true,
          "internalType": "address",
          "name": "oldTemplate",
          "type": "address"
        },
        {
          "indexed": true,
          "internalType": "address",
          "name": "newTemplate",
          "type": "address"
        }
      ],
      "name": "WSTokenTemplateUpdated",
      "type": "event"
    },
    {
      "anonymous": false,
      "inputs": [
        {
          "indexed": true,
          "internalType": "address",
          "name": "owner",
          "type": "address"
        },
        {
          "indexed": true,
          "internalType": "address",
          "name": "wrappedSongSmartAccount",
          "type": "address"
        },
        {
          "indexed": false,
          "internalType": "address",
          "name": "stablecoin",
          "type": "address"
        },
        {
          "indexed": false,
          "internalType": "address",
          "name": "wsTokenManagement",
          "type": "address"
        },
        {
          "indexed": false,
          "internalType": "uint256",
          "name": "sharesAmount",
          "type": "uint256"
        },
        {
          "components": [
            {
              "internalType": "string",
              "name": "name",
              "type": "string"
            },
            {
              "internalType": "string",
              "name": "description",
              "type": "string"
            },
            {
              "internalType": "string",
              "name": "image",
              "type": "string"
            },
            {
              "internalType": "string",
              "name": "animationUrl",
              "type": "string"
            },
            {
              "internalType": "string",
              "name": "attributesIpfsHash",
              "type": "string"
            }
          ],
          "indexed": false,
          "internalType": "struct IMetadataModule.Metadata",
          "name": "metadata",
          "type": "tuple"
        }
      ],
      "name": "WrappedSongCreated",
      "type": "event"
    },
    {
      "anonymous": false,
      "inputs": [
        {
          "indexed": true,
          "internalType": "address",
          "name": "oldWrappedSong",
          "type": "address"
        },
        {
          "indexed": true,
          "internalType": "address",
          "name": "newWrappedSong",
          "type": "address"
        },
        {
          "indexed": true,
          "internalType": "address",
          "name": "owner",
          "type": "address"
        },
        {
          "indexed": false,
          "internalType": "address",
          "name": "stablecoin",
          "type": "address"
        },
        {
          "indexed": false,
          "internalType": "address",
          "name": "wsTokenManagement",
          "type": "address"
        }
      ],
      "name": "WrappedSongMigrated",
      "type": "event"
    },
    {
      "anonymous": false,
      "inputs": [
        {
          "indexed": true,
          "internalType": "address",
          "name": "oldTemplate",
          "type": "address"
        },
        {
          "indexed": true,
          "internalType": "address",
          "name": "newTemplate",
          "type": "address"
        }
      ],
      "name": "WrappedSongTemplateUpdated",
      "type": "event"
    },
    {
      "inputs": [
        {
          "internalType": "address",
          "name": "",
          "type": "address"
        }
      ],
      "name": "accumulatedFees",
      "outputs": [
        {
          "internalType": "uint256",
          "name": "",
          "type": "uint256"
        }
      ],
      "stateMutability": "view",
      "type": "function"
    },
    {
      "inputs": [
        {
          "internalType": "address",
          "name": "_stablecoin",
          "type": "address"
        },
        {
          "components": [
            {
              "internalType": "string",
              "name": "name",
              "type": "string"
            },
            {
              "internalType": "string",
              "name": "description",
              "type": "string"
            },
            {
              "internalType": "string",
              "name": "image",
              "type": "string"
            },
            {
              "internalType": "string",
              "name": "animationUrl",
              "type": "string"
            },
            {
              "internalType": "string",
              "name": "attributesIpfsHash",
              "type": "string"
            }
          ],
          "internalType": "struct IMetadataModule.Metadata",
          "name": "songMetadata",
          "type": "tuple"
        },
        {
          "internalType": "uint256",
          "name": "sharesAmount",
          "type": "uint256"
        },
        {
          "internalType": "address",
          "name": "wsOwner",
          "type": "address"
        }
      ],
      "name": "createWrappedSong",
      "outputs": [
        {
          "internalType": "address",
          "name": "",
          "type": "address"
        }
      ],
      "stateMutability": "payable",
      "type": "function"
    },
    {
      "inputs": [
        {
          "internalType": "address",
          "name": "oldWrappedSong_",
          "type": "address"
        },
        {
          "internalType": "address",
          "name": "oldMetadataModule_",
          "type": "address"
        }
      ],
      "name": "migrateWrappedSong",
      "outputs": [
        {
          "internalType": "address",
          "name": "",
          "type": "address"
        }
      ],
      "stateMutability": "payable",
      "type": "function"
    },
    {
      "inputs": [],
      "name": "owner",
      "outputs": [
        {
          "internalType": "address",
          "name": "",
          "type": "address"
        }
      ],
      "stateMutability": "view",
      "type": "function"
    },
    {
      "inputs": [],
      "name": "protocolModule",
      "outputs": [
        {
          "internalType": "contract IProtocolModule",
          "name": "",
          "type": "address"
        }
      ],
      "stateMutability": "view",
      "type": "function"
    },
    {
      "inputs": [],
      "name": "registryModule",
      "outputs": [
        {
          "internalType": "contract IRegistryModule",
          "name": "",
          "type": "address"
        }
      ],
      "stateMutability": "view",
      "type": "function"
    },
    {
      "inputs": [],
      "name": "renounceOwnership",
      "outputs": [],
      "stateMutability": "nonpayable",
      "type": "function"
    },
    {
      "inputs": [
        {
          "internalType": "address",
          "name": "_newModule",
          "type": "address"
        }
      ],
      "name": "setProtocolModule",
      "outputs": [],
      "stateMutability": "nonpayable",
      "type": "function"
    },
    {
      "inputs": [
        {
          "internalType": "address",
          "name": "_newTemplate",
          "type": "address"
        }
      ],
      "name": "setWSTokenTemplate",
      "outputs": [],
      "stateMutability": "nonpayable",
      "type": "function"
    },
    {
      "inputs": [
        {
          "internalType": "address",
          "name": "_newTemplate",
          "type": "address"
        }
      ],
      "name": "setWrappedSongTemplate",
      "outputs": [],
      "stateMutability": "nonpayable",
      "type": "function"
    },
    {
      "inputs": [
        {
          "internalType": "address",
          "name": "newOwner",
          "type": "address"
        }
      ],
      "name": "transferOwnership",
      "outputs": [],
      "stateMutability": "nonpayable",
      "type": "function"
    },
    {
      "inputs": [
        {
          "internalType": "address",
          "name": "token",
          "type": "address"
        },
        {
          "internalType": "address",
          "name": "recipient",
          "type": "address"
        }
      ],
      "name": "withdrawAccumulatedFees",
      "outputs": [],
      "stateMutability": "nonpayable",
      "type": "function"
    },
    {
      "inputs": [],
      "name": "wrappedSongTemplate",
      "outputs": [
        {
          "internalType": "address",
          "name": "",
          "type": "address"
        }
      ],
      "stateMutability": "view",
      "type": "function"
    },
    {
      "inputs": [],
      "name": "wsTokenTemplate",
      "outputs": [
        {
          "internalType": "address",
          "name": "",
          "type": "address"
        }
      ],
      "stateMutability": "view",
      "type": "function"
    },
    {
      "stateMutability": "payable",
      "type": "receive"
    }
  ],
  "bytecode": "0x6080806040523461007a5733156100645760008054336001600160a01b03198216811783556040519290916001600160a01b0316907f8be0079c531659141344cd1fd0a4f28419497f9722a3daafe3b4186f6b6457e09080a361244190816100808239f35b631e4fbdf760e01b815260006004820152602490fd5b600080fdfe6080604052600436101561001b575b361561001957600080fd5b005b6000803560e01c80632d132d03146110e05780632d7bb2d91461102a578063376c1f0714610de65780633cd7bc9514610dbd5780633e22876b14610d945780635c42e66714610d6b5780635e63149f14610d42578063715018a614610ce85780638da5cb5b14610cc1578063a859dcde14610c0b578063d70a0abc1461023d578063dbe80e4b14610187578063f2fde38b146100fc5763fcf66664146100c1575061000e565b346100f95760203660031901126100f9576020906040906001600160a01b036100e8611e01565b168152600483522054604051908152f35b80fd5b50346100f95760203660031901126100f957610116611e01565b61011e611ee7565b6001600160a01b0390811690811561016e57600054826001600160601b0360a01b821617600055167f8be0079c531659141344cd1fd0a4f28419497f9722a3daafe3b4186f6b6457e0600080a380f35b604051631e4fbdf760e01b815260048101849052602490fd5b50346100f95760203660031901126100f9576101a1611e01565b6101a9611ee7565b6001600160a01b039081169081156101f857600354826001600160601b0360a01b821617600355167f4388d587c20200b8f796e02c528de3252df8a630e8c0c69d15420117e7264fa08380a380f35b60405162461bcd60e51b815260206004820152601960248201527f496e76616c696420575320746f6b656e2074656d706c617465000000000000006044820152606490fd5b5060403660031901126100f957610252611e01565b61025a611e1c565b906001600160a01b03811615610bc6576001600160a01b03821615610b815760015460405163670d296960e11b815291906001600160a01b0316602083600481845afa9283156109ec576004936020918791610b64575b50604051623684d160e81b815294859182906001600160a01b03165afa9283156109ec578593610b43575b506040516301a4e6dd60e51b81526001600160a01b03838116600483015286908290602490829089165afa908115610822578691610b29575b50515115610ac957602060049160405192838092635c975abb60e01b82525afa80156109ec5761034d918691610aaa575b5015611f2b565b604051638da5cb5b60e01b81526020816004816001600160a01b0386165afa9081156109ec578591610a8b575b50610384336122f6565b90610407603f610393836122f6565b936040519485917f496e76616c6964206f776e65722e2045787065637465643a200000000000000060208401526103d4815180926020603987019101611f8b565b82016501023b7ba1d160d51b60398201526103f88251809360208785019101611f8b565b0103601f810185520183611e62565b336001600160a01b0390911603610a635750604051630b19e31960e21b81526020816004816001600160a01b0386165afa9081156109ec578591610a34575b506109f7576040516374e5ec1160e11b81526020816004816001600160a01b0386165afa9081156109ec5785916109aa575b50604051636fad7e9560e11b8152926020846004816001600160a01b0387165afa938415610822578694610989575b506001600160a01b038416156109445760025486906104ce906001600160a01b0316612166565b6001549096906001600160a01b039081169088163b156109045760405163c0c53b8b60e01b81526001600160a01b0386811660048301523360248301529091166044820152828180606481010381836001600160a01b038d165af190811561088b578391610930575b50506001546001600160a01b0316803b156109045760405163d9ce7b9560e01b81526001600160a01b03881660048201529083908290602490829084905af190811561088b57839161091c575b50506001546001600160a01b0316803b15610904576040516208ac8360e01b81526001600160a01b038981166004830152881660248201529083908290604490829084905af190811561088b578391610908575b50506001546001600160a01b0316803b156109045760405160016216ef6160e31b031981523360048201526001600160a01b03891660248201529083908290604490829084905af190811561088b5783916108f0575b50506001600160a01b0387163b156108ec5760405163716f6e8760e01b81526001600160a01b03878116600483015283908290602490829084908d165af190811561088b5783916108d8575b506040516301a4e6dd60e51b81526001600160a01b038781166004830152909283916024918391165afa9081156108cd5782916108b3575b5060015460405163670d296960e11b815290602090829060049082906001600160a01b03165afa90811561088b576004916020918591610896575b50604051623684d160e81b815292839182906001600160a01b03165afa801561088b57839261073b92849261085a575b50604051948580948193630123193960e31b83528d60048401612144565b03926001600160a01b03165af1801561084f5761082d575b50856001600160a01b0384163b156100f9576040516335c282af60e21b81526001600160a01b03928316600482015291861660248301528180604481010381836001600160a01b0388165af180156108225761080a575b50604080516001600160a01b0392831681529382166020808601919091529550339385831693909216917fc42cdc1cea8afc407ec500712a997b1d17d698ae57762e29810084b83a295a549190a46040516001600160a01b039091168152f35b6108148691611e4e565b61081e57846107aa565b8480fd5b6040513d88823e3d90fd5b610848903d8089833e6108408183611e62565b810190611ff3565b5038610753565b6040513d89823e3d90fd5b61087d91925060203d602011610884575b6108758183611e62565b810190611f6c565b903861071d565b503d61086b565b6040513d85823e3d90fd5b6108ad9150823d8411610884576108758183611e62565b386106ed565b6108c791503d8084833e6108408183611e62565b386106b2565b6040513d84823e3d90fd5b6108e190611e4e565b6108ec57813861067a565b5080fd5b6108f990611e4e565b6108ec57813861062e565b8280fd5b61091190611e4e565b6108ec5781386105d8565b61092590611e4e565b6108ec578138610584565b61093990611e4e565b6108ec578138610537565b60405162461bcd60e51b815260206004820152601760248201527f496e76616c6964205753546f6b656e20616464726573730000000000000000006044820152606490fd5b6109a391945060203d602011610884576108758183611e62565b92386104a7565b90506020813d6020116109e4575b816109c560209383611e62565b8101031261081e57516001600160a01b038116810361081e5738610478565b3d91506109b8565b6040513d87823e3d90fd5b60405162461bcd60e51b815260206004820152601560248201527414dbdb99c8185b1c9958591e481b5a59dc985d1959605a1b6044820152606490fd5b610a56915060203d602011610a5c575b610a4e8183611e62565b810190611f13565b38610446565b503d610a44565b60405162461bcd60e51b815260206004820152908190610a879060248301906120b6565b0390fd5b610aa4915060203d602011610884576108758183611e62565b3861037a565b610ac3915060203d602011610a5c57610a4e8183611e62565b38610346565b60405162461bcd60e51b815260206004820152603260248201527f5772617070656420736f6e6720646f6573206e6f7420657869737420696e206f6044820152716c64206d65746164617461206d6f64756c6560701b6064820152608490fd5b610b3d91503d8088833e6108408183611e62565b38610315565b610b5d91935060203d602011610884576108758183611e62565b91386102dc565b610b7b9150823d8411610884576108758183611e62565b386102b1565b60405162461bcd60e51b815260206004820152601f60248201527f496e76616c6964206d65746164617461206d6f64756c652061646472657373006044820152606490fd5b60405162461bcd60e51b815260206004820152601c60248201527f496e76616c6964207772617070656420736f6e672061646472657373000000006044820152606490fd5b50346100f95760203660031901126100f957610c25611e01565b610c2d611ee7565b6001600160a01b03908116908115610c7c57600154826001600160601b0360a01b821617600155167ffaee52155b4cd55f9c492ff3526c7bf5776d03bbde330f67dedcab16544242f68380a380f35b60405162461bcd60e51b815260206004820152601760248201527f496e76616c69642070726f746f636f6c206d6f64756c650000000000000000006044820152606490fd5b50346100f957806003193601126100f957546040516001600160a01b039091168152602090f35b50346100f957806003193601126100f957610d01611ee7565b600080546001600160a01b0319811682556001600160a01b03167f8be0079c531659141344cd1fd0a4f28419497f9722a3daafe3b4186f6b6457e08280a380f35b50346100f957806003193601126100f9576003546040516001600160a01b039091168152602090f35b50346100f957806003193601126100f9576001546040516001600160a01b039091168152602090f35b50346100f957806003193601126100f9576002546040516001600160a01b039091168152602090f35b50346100f957806003193601126100f9576005546040516001600160a01b039091168152602090f35b50346100f95760403660031901126100f957610e00611e01565b610e08611e1c565b600154604051638da5cb5b60e01b815291926001600160a01b039260209283908290600490829088165afa8015610822578491879161100d575b50163303610fba57821691828552600482526040852054938415610f7f57838652600483528560408120558315600014610efa5785808080888686165af1610e886121f1565b5015610ebf57907f5e110f8bc8a20b65dcc87f224bdf1cc039346e267118bae2739847f07321ffa892915b6040519586521693a380f35b60405162461bcd60e51b8152600481018490526013602482015272115512081d1c985b9cd9995c8819985a5b1959606a1b6044820152606490fd5b60405163a9059cbb60e01b818501528282166024820152604480820187905281529291906080840167ffffffffffffffff811185821017610f69577f5e110f8bc8a20b65dcc87f224bdf1cc039346e267118bae2739847f07321ffa894610f649160405286612221565b610eb3565b634e487b7160e01b600052604160045260246000fd5b60405162461bcd60e51b81526004810184905260136024820152724e6f206665657320746f20776974686472617760681b6044820152606490fd5b60405162461bcd60e51b815260048101839052602560248201527f4f6e6c792070726f746f636f6c206f776e65722063616e207769746864726177604482015264206665657360d81b6064820152608490fd5b6110249150843d8611610884576108758183611e62565b38610e42565b50346100f95760203660031901126100f957611044611e01565b61104c611ee7565b6001600160a01b0390811690811561109b57600254826001600160601b0360a01b821617600255167fc1772ace785c306bda2a481fbcb0fd2ad755a998ef1c516d5cb999dced038fc78380a380f35b60405162461bcd60e51b815260206004820152601d60248201527f496e76616c6964207772617070656420736f6e672074656d706c6174650000006044820152606490fd5b506003196080368201126108ec576110f6611e01565b9060243567ffffffffffffffff9182821161081e5760a090823603011261175b576111216080611e32565b806004013582811161081e5761113d9060043691840101611ea0565b608052602481013582811161081e5761115c9060043691840101611ea0565b60a052604481013582811161081e5761117b9060043691840101611ea0565b60c052606481013582811161081e5761119a9060043691840101611ea0565b60e052608481013591821161175b5760046111b89236920101611ea0565b610100526064356001600160a01b03811690036108ec57600154604051635c975abb60e01b81526001600160a01b0390911690602081600481855afa80156117d65761120b918591610aaa575015611f2b565b60805151151580611df5575b80611de9575b80611ddc575b15611da45760443515611d4f5760405163f140b55f60e01b8152336004820152602081602481855afa9081156117d6578491611d30575b5015611cec5760405163b5af090f60e01b81526001600160a01b0383166004820152602081602481855afa9081156117d6578491611ccd575b5015611c885760206004916040519283809263670d296960e11b82525afa90811561088b576004916020918591611c6b575b50604051636d4726d960e01b815292839182906001600160a01b03165afa90811561088b578391611c29575b5060405163a454912960e01b8152906020826004816001600160a01b0385165afa9182156117d6578492611bf5575b5060405163d579e3f360e01b81526020816004816001600160a01b0386165afa9081156109ec578591611bd6575b50826117e1575b505060025461136d91506001600160a01b0316612166565b6001549091906001600160a01b0390811690849084163b156100f95760405163c0c53b8b60e01b81526001600160a01b03848116600483015260648035821660248401529381166044830152909283918290849088165af180156117d6576117c3575b506003546113e6906001600160a01b0316612166565b60015484906001600160a01b039081169083163b156108ec5760405163c0c53b8b60e01b81526001600160a01b03868116600483015260648035821660248401529281166044830152909183918391908290849088165af180156108cd576117af575b506001546001600160a01b0316803b156108ec5760405163d9ce7b9560e01b81526001600160a01b03841660048201529082908290602490829084905af180156108cd5761179b575b506001546001600160a01b0316803b156108ec576040516208ac8360e01b81526001600160a01b038681166004830152841660248201529082908290604490829084905af180156108cd57611787575b506001546001600160a01b0316803b156108ec5760405160016216ef6160e31b031981526001600160a01b0360643581166004830152861660248201529082908290604490829084905af180156108cd57611773575b50506001600160a01b0383163b1561175b5760405163716f6e8760e01b81526001600160a01b03828116600483015285919082908290602490829084908a165af180156108cd5761175f575b50506001600160a01b0383163b1561175b576040516339fa62df60e01b8152604435600482015284908181602481836001600160a01b038a165af180156108cd57611747575b505060015460405163670d296960e11b81529190602090839060049082906001600160a01b03165afa9182156109ec57600492602091879161172a575b50604051623684d160e81b815293849182906001600160a01b03165afa9182156109ec578592611709575b50846040518093630123193960e31b825281838161165560808b60048401612144565b03926001600160a01b03165af19182156109ec5785602096936116ec575b5050604080516001600160a01b03948516815291841686830152604435908201526080606082018190528484169360643516927fd6acd504e82e7940dbddae07435dfb9421a0d5768c9fdff83737b1cc11839986929182916116d7918301906120db565b0390a36040516001600160a01b039091168152f35b6117019293503d8091833e6108408183611e62565b903880611673565b61172391925060203d602011610884576108758183611e62565b9038611632565b6117419150823d8411610884576108758183611e62565b38611607565b61175090611e4e565b61175b5783386115ca565b8380fd5b61176890611e4e565b61175b578338611584565b61177c90611e4e565b61175b578338611538565b61179090611e4e565b61175b5783386114e2565b6117a490611e4e565b61175b578338611492565b6117b890611e4e565b61175b578338611449565b6117cf90939193611e4e565b91386113d0565b6040513d86823e3d90fd5b15611ac4576040516337a0a9e960e11b815290602090829060049082906001600160a01b03165afa9081156117d6578491611a92575b5060015460405163670d296960e11b8152916001600160a01b0390911690602083600481855afa928315610822576004936020918891611a75575b506040516309da4e5160e01b815294859182906001600160a01b03165afa928315610822578693611a2c575b50604051637c70c0a360e01b8152600481019190915291602090839060249082906001600160a01b03165afa9182156109ec578592611a0b575b506001600160a01b038216156119ba5784916020600492604051938480926331785eef60e11b82525afa90811561088b576119606020927fdd872ca9502e175165673833ac2a0e1395edb4b5c72f2915685598490c375e9994869161199d575b506040516323b872dd60e01b858201523360248201526001600160a01b0390911660448201526064808201889052815261195181611e32565b6001600160a01b038316612221565b6001600160a01b0381168452600482526040842080546119819087906121ce565b90556040519485526001600160a01b031693a35b388080611355565b6119b49150843d8611610884576108758183611e62565b38611918565b60405162461bcd60e51b815260206004820152602360248201527f4e6f2077686974656c697374656420737461626c65636f696e20617661696c61604482015262626c6560e81b6064820152608490fd5b611a2591925060203d602011610884576108758183611e62565b90386118b8565b9092506020813d602011611a6d575b81611a4860209383611e62565b81010312611a6957516001600160a01b0381168103611a695791602061187e565b8580fd5b3d9150611a3b565b611a8c9150823d8411610884576108758183611e62565b38611852565b90506020813d602011611abc575b81611aad60209383611e62565b8101031261175b575138611817565b3d9150611aa0565b50803410611b9157828052600460205260408320611ae33482546121ce565b9055803411611b1f575b5081807fdd872ca9502e175165673833ac2a0e1395edb4b5c72f2915685598490c375e996020604051348152a3611995565b3403348111611b7d578280808093335af1611b386121f1565b5015611b445738611aed565b60405162461bcd60e51b8152602060048201526011602482015270115512081c99599d5b990819985a5b1959607a1b6044820152606490fd5b634e487b7160e01b83526011600452602483fd5b60405162461bcd60e51b815260206004820152601860248201527f496e636f7272656374204554482066656520616d6f756e7400000000000000006044820152606490fd5b611bef915060203d602011610a5c57610a4e8183611e62565b3861134e565b9091506020813d602011611c21575b81611c1160209383611e62565b8101031261175b57519038611320565b3d9150611c04565b90506020813d602011611c63575b81611c4460209383611e62565b8101031261090457516001600160a01b038116810361090457386112f1565b3d9150611c37565b611c829150823d8411610884576108758183611e62565b386112c5565b60405162461bcd60e51b815260206004820152601d60248201527f537461626c65636f696e206973206e6f742077686974656c69737465640000006044820152606490fd5b611ce6915060203d602011610a5c57610a4e8183611e62565b38611293565b606460405162461bcd60e51b815260206004820152602060248201527f4e6f742076616c696420746f20637265617465205772617070656420536f6e676044820152fd5b611d49915060203d602011610a5c57610a4e8183611e62565b3861125a565b60405162461bcd60e51b815260206004820152602760248201527f53686172657320616d6f756e74206d7573742062652067726561746572207468604482015266616e207a65726f60c81b6064820152608490fd5b60405162461bcd60e51b815260206004820152601060248201526f496e76616c6964206d6574616461746160801b6044820152606490fd5b5061010051511515611223565b5060e05151151561121d565b5060c051511515611217565b600435906001600160a01b0382168203611e1757565b600080fd5b602435906001600160a01b0382168203611e1757565b60a0810190811067ffffffffffffffff821117610f6957604052565b67ffffffffffffffff8111610f6957604052565b90601f8019910116810190811067ffffffffffffffff821117610f6957604052565b67ffffffffffffffff8111610f6957601f01601f191660200190565b81601f82011215611e1757803590611eb782611e84565b92611ec56040519485611e62565b82845260208383010111611e1757816000926020809301838601378301015290565b6000546001600160a01b03163303611efb57565b60405163118cdaa760e01b8152336004820152602490fd5b90816020910312611e1757518015158103611e175790565b15611f3257565b60405162461bcd60e51b8152602060048201526012602482015271141c9bdd1bd8dbdb081a5cc81c185d5cd95960721b6044820152606490fd5b90816020910312611e1757516001600160a01b0381168103611e175790565b60005b838110611f9e5750506000910152565b8181015183820152602001611f8e565b81601f82011215611e17578051611fc481611e84565b92611fd26040519485611e62565b81845260208284010111611e1757611ff09160208085019101611f8b565b90565b90602082820312611e1757815167ffffffffffffffff92838211611e1757019060a082820312611e17576040519261202a84611e32565b8251818111611e17578261203f918501611fae565b84526020830151818111611e175782612059918501611fae565b60208501526040830151818111611e175782612076918501611fae565b60408501526060830151818111611e175782612093918501611fae565b60608501526080830151908111611e17576120ae9201611fae565b608082015290565b906020916120cf81518092818552858086019101611f8b565b601f01601f1916010190565b611ff091608061213361212161210f6120fd865160a0875260a08701906120b6565b602087015186820360208801526120b6565b604086015185820360408701526120b6565b606085015184820360608601526120b6565b9201519060808184039101526120b6565b6001600160a01b039091168152604060208201819052611ff0929101906120db565b6e5af43d82803e903d91602b57fd5bf390763d602d80600a3d3981f3363d3d373d3d3d363d7300000062ffffff8260881c161760005260781b17602052603760096000f0906001600160a01b038216156121bc57565b6040516330be1a3d60e21b8152600490fd5b919082018092116121db57565b634e487b7160e01b600052601160045260246000fd5b3d1561221c573d9061220282611e84565b916122106040519384611e62565b82523d6000602084013e565b606090565b60008061224a9260018060a01b03169360208151910182865af16122436121f1565b9083612293565b8051908115159182612278575b50506122605750565b60249060405190635274afe760e01b82526004820152fd5b61228b9250602080918301019101611f13565b153880612257565b906122ba57508051156122a857805190602001fd5b604051630a12f52160e11b8152600490fd5b815115806122ed575b6122cb575090565b604051639996b31560e01b81526001600160a01b039091166004820152602490fd5b50803b156122c3565b604051906001600160a01b0316806060830167ffffffffffffffff811184821017610f6957604052602a8352602080840160403682378451156123f557603090538351906001918210156123f55790607860218601536029915b81831161238157505050612362575090565b6044906040519063e22e27eb60e01b8252600482015260146024820152fd5b909192600f811660108110156123e05786518510156123e0576f181899199a1a9b1b9c1cb0b131b232b360811b901a86850183015360041c9280156123cb57600019019190612350565b60246000634e487b7160e01b81526011600452fd5b60246000634e487b7160e01b81526032600452fd5b634e487b7160e01b600052603260045260246000fdfea2646970667358221220ddd51e1d419fc01b72b4b1760306a53265093aa115fe081ffde8036835ba4ae964736f6c63430008140033",
  "linkReferences": {},
  "deployedLinkReferences": {}
}