{
  "_format": "hh-sol-artifact-1",
  "contractName": "WrappedSongFactory",
  "sourceName": "contracts/protocol/NonUpgradable/WrappedSongFactory.sol",
  "abi": [
    {
      "inputs": [],
      "stateMutability": "nonpayable",
      "type": "constructor"
    },
    {
      "inputs": [
        {
          "internalType": "address",
          "name": "target",
          "type": "address"
        }
      ],
      "name": "AddressEmptyCode",
      "type": "error"
    },
    {
      "inputs": [
        {
          "internalType": "address",
          "name": "account",
          "type": "address"
        }
      ],
      "name": "AddressInsufficientBalance",
      "type": "error"
    },
    {
      "inputs": [],
      "name": "ERC1167FailedCreateClone",
      "type": "error"
    },
    {
      "inputs": [],
      "name": "FailedInnerCall",
      "type": "error"
    },
    {
      "inputs": [
        {
          "internalType": "address",
          "name": "owner",
          "type": "address"
        }
      ],
      "name": "OwnableInvalidOwner",
      "type": "error"
    },
    {
      "inputs": [
        {
          "internalType": "address",
          "name": "account",
          "type": "address"
        }
      ],
      "name": "OwnableUnauthorizedAccount",
      "type": "error"
    },
    {
      "inputs": [
        {
          "internalType": "address",
          "name": "token",
          "type": "address"
        }
      ],
      "name": "SafeERC20FailedOperation",
      "type": "error"
    },
    {
      "anonymous": false,
      "inputs": [
        {
          "indexed": true,
          "internalType": "address",
          "name": "wrappedSong",
          "type": "address"
        },
        {
          "indexed": true,
          "internalType": "address",
          "name": "token",
          "type": "address"
        },
        {
          "indexed": false,
          "internalType": "uint256",
          "name": "amount",
          "type": "uint256"
        }
      ],
      "name": "CreationFeeCollected",
      "type": "event"
    },
    {
      "anonymous": false,
      "inputs": [
        {
          "indexed": true,
          "internalType": "address",
          "name": "token",
          "type": "address"
        },
        {
          "indexed": true,
          "internalType": "address",
          "name": "recipient",
          "type": "address"
        },
        {
          "indexed": false,
          "internalType": "uint256",
          "name": "amount",
          "type": "uint256"
        }
      ],
      "name": "FeesWithdrawn",
      "type": "event"
    },
    {
      "anonymous": false,
      "inputs": [
        {
          "indexed": true,
          "internalType": "address",
          "name": "previousOwner",
          "type": "address"
        },
        {
          "indexed": true,
          "internalType": "address",
          "name": "newOwner",
          "type": "address"
        }
      ],
      "name": "OwnershipTransferred",
      "type": "event"
    },
    {
      "anonymous": false,
      "inputs": [
        {
          "indexed": true,
          "internalType": "address",
          "name": "oldModule",
          "type": "address"
        },
        {
          "indexed": true,
          "internalType": "address",
          "name": "newModule",
          "type": "address"
        }
      ],
      "name": "ProtocolModuleUpdated",
      "type": "event"
    },
    {
      "anonymous": false,
      "inputs": [
        {
          "indexed": true,
          "internalType": "address",
          "name": "oldTemplate",
          "type": "address"
        },
        {
          "indexed": true,
          "internalType": "address",
          "name": "newTemplate",
          "type": "address"
        }
      ],
      "name": "WSTokenTemplateUpdated",
      "type": "event"
    },
    {
      "anonymous": false,
      "inputs": [
        {
          "indexed": true,
          "internalType": "address",
          "name": "owner",
          "type": "address"
        },
        {
          "indexed": true,
          "internalType": "address",
          "name": "wrappedSongSmartAccount",
          "type": "address"
        },
        {
          "indexed": false,
          "internalType": "address",
          "name": "stablecoin",
          "type": "address"
        },
        {
          "indexed": false,
          "internalType": "address",
          "name": "wsTokenManagement",
          "type": "address"
        },
        {
          "indexed": false,
          "internalType": "uint256",
          "name": "sharesAmount",
          "type": "uint256"
        },
        {
          "components": [
            {
              "internalType": "string",
              "name": "name",
              "type": "string"
            },
            {
              "internalType": "string",
              "name": "description",
              "type": "string"
            },
            {
              "internalType": "string",
              "name": "image",
              "type": "string"
            },
            {
              "internalType": "string",
              "name": "externalUrl",
              "type": "string"
            },
            {
              "internalType": "string",
              "name": "animationUrl",
              "type": "string"
            },
            {
              "internalType": "string",
              "name": "attributesIpfsHash",
              "type": "string"
            }
          ],
          "indexed": false,
          "internalType": "struct IMetadataModule.Metadata",
          "name": "metadata",
          "type": "tuple"
        }
      ],
      "name": "WrappedSongCreated",
      "type": "event"
    },
    {
      "anonymous": false,
      "inputs": [
        {
          "indexed": true,
          "internalType": "address",
          "name": "oldTemplate",
          "type": "address"
        },
        {
          "indexed": true,
          "internalType": "address",
          "name": "newTemplate",
          "type": "address"
        }
      ],
      "name": "WrappedSongTemplateUpdated",
      "type": "event"
    },
    {
      "inputs": [
        {
          "internalType": "address",
          "name": "",
          "type": "address"
        }
      ],
      "name": "accumulatedFees",
      "outputs": [
        {
          "internalType": "uint256",
          "name": "",
          "type": "uint256"
        }
      ],
      "stateMutability": "view",
      "type": "function"
    },
    {
      "inputs": [
        {
          "internalType": "address",
          "name": "_stablecoin",
          "type": "address"
        },
        {
          "components": [
            {
              "internalType": "string",
              "name": "name",
              "type": "string"
            },
            {
              "internalType": "string",
              "name": "description",
              "type": "string"
            },
            {
              "internalType": "string",
              "name": "image",
              "type": "string"
            },
            {
              "internalType": "string",
              "name": "externalUrl",
              "type": "string"
            },
            {
              "internalType": "string",
              "name": "animationUrl",
              "type": "string"
            },
            {
              "internalType": "string",
              "name": "attributesIpfsHash",
              "type": "string"
            }
          ],
          "internalType": "struct IMetadataModule.Metadata",
          "name": "songMetadata",
          "type": "tuple"
        },
        {
          "internalType": "uint256",
          "name": "sharesAmount",
          "type": "uint256"
        },
        {
          "internalType": "address",
          "name": "wsOwner",
          "type": "address"
        }
      ],
      "name": "createWrappedSong",
      "outputs": [
        {
          "internalType": "address",
          "name": "",
          "type": "address"
        }
      ],
      "stateMutability": "payable",
      "type": "function"
    },
    {
      "inputs": [],
      "name": "owner",
      "outputs": [
        {
          "internalType": "address",
          "name": "",
          "type": "address"
        }
      ],
      "stateMutability": "view",
      "type": "function"
    },
    {
      "inputs": [],
      "name": "protocolModule",
      "outputs": [
        {
          "internalType": "contract IProtocolModule",
          "name": "",
          "type": "address"
        }
      ],
      "stateMutability": "view",
      "type": "function"
    },
    {
      "inputs": [],
      "name": "registryModule",
      "outputs": [
        {
          "internalType": "contract IRegistryModule",
          "name": "",
          "type": "address"
        }
      ],
      "stateMutability": "view",
      "type": "function"
    },
    {
      "inputs": [],
      "name": "renounceOwnership",
      "outputs": [],
      "stateMutability": "nonpayable",
      "type": "function"
    },
    {
      "inputs": [
        {
          "internalType": "address",
          "name": "_newModule",
          "type": "address"
        }
      ],
      "name": "setProtocolModule",
      "outputs": [],
      "stateMutability": "nonpayable",
      "type": "function"
    },
    {
      "inputs": [
        {
          "internalType": "address",
          "name": "_newTemplate",
          "type": "address"
        }
      ],
      "name": "setWSTokenTemplate",
      "outputs": [],
      "stateMutability": "nonpayable",
      "type": "function"
    },
    {
      "inputs": [
        {
          "internalType": "address",
          "name": "_newTemplate",
          "type": "address"
        }
      ],
      "name": "setWrappedSongTemplate",
      "outputs": [],
      "stateMutability": "nonpayable",
      "type": "function"
    },
    {
      "inputs": [
        {
          "internalType": "address",
          "name": "newOwner",
          "type": "address"
        }
      ],
      "name": "transferOwnership",
      "outputs": [],
      "stateMutability": "nonpayable",
      "type": "function"
    },
    {
      "inputs": [
        {
          "internalType": "address",
          "name": "token",
          "type": "address"
        },
        {
          "internalType": "address",
          "name": "recipient",
          "type": "address"
        }
      ],
      "name": "withdrawAccumulatedFees",
      "outputs": [],
      "stateMutability": "nonpayable",
      "type": "function"
    },
    {
      "inputs": [],
      "name": "wrappedSongTemplate",
      "outputs": [
        {
          "internalType": "address",
          "name": "",
          "type": "address"
        }
      ],
      "stateMutability": "view",
      "type": "function"
    },
    {
      "inputs": [],
      "name": "wsTokenTemplate",
      "outputs": [
        {
          "internalType": "address",
          "name": "",
          "type": "address"
        }
      ],
      "stateMutability": "view",
      "type": "function"
    },
    {
      "stateMutability": "payable",
      "type": "receive"
    }
  ],
  "bytecode": "0x6080806040523461007a5733156100645760008054336001600160a01b03198216811783556040519290916001600160a01b0316907f8be0079c531659141344cd1fd0a4f28419497f9722a3daafe3b4186f6b6457e09080a3611ac390816100808239f35b631e4fbdf760e01b815260006004820152602490fd5b600080fdfe6080604052600436101561001b575b361561001957600080fd5b005b6000803560e01c80632d7bb2d9146115f7578063376c1f07146113bf5780633cd7bc95146113965780633e22876b1461136d5780635c42e667146113445780635e63149f1461131b578063715018a6146112c15780638da5cb5b1461129a578063a859dcde146111e4578063dbe80e4b1461112e578063f2fde38b146110a8578063fcf666641461106f5763ff42536b146100b6575061000e565b600319608036820112610870576100cb6116ad565b602435916001600160401b0383116108bf5760c090833603011261086c57604051916100f6836116c8565b80600401356001600160401b038111610cb8576101199060043691840101611748565b835260248101356001600160401b038111610cb85761013e9060043691840101611748565b602084015260448101356001600160401b038111610cb8576101669060043691840101611748565b604084015260648101356001600160401b038111610cb85761018e9060043691840101611748565b606084015260848101356001600160401b038111610cb8576101b69060043691840101611748565b608084015260a4810135906001600160401b038211610cb85760046101de9236920101611748565b60a08301526064356001600160a01b038116900361086c57600154604051635c975abb60e01b81526001600160a01b0390911690602081600481855afa90811561098e578591611050575b5061101657825151151580611008575b80610ffa575b80610fec575b15610fb45760443515610f5f5760405163f140b55f60e01b8152336004820152602081602481855afa90811561098e578591610f40575b5015610efc5760405163b5af090f60e01b81526001600160a01b0383166004820152602081602481855afa90811561098e578591610edd575b5015610e985760206004916040519283809263670d296960e11b82525afa9081156108cb576004916020918691610e7b575b50604051636d4726d960e01b815292839182906001600160a01b03165afa9081156108cb578491610e39575b5060405163a454912960e01b8152906020826004816001600160a01b0385165afa91821561098e578592610e05575b5060405163d579e3f360e01b81526020816004816001600160a01b0386165afa908115610ba0578691610dd6575b5082610999575b505060025461038f91506001600160a01b03166118fd565b6001549092906001600160a01b0390811690859085163b156108695760405163c0c53b8b60e01b81526001600160a01b03858116600483015260648035821660248401529381166044830152909283918290849089165af1801561098e5761097b575b5060035484919061040b906001600160a01b03166118fd565b6001549091906001600160a01b039081169083163b156108bf5760405163c0c53b8b60e01b81526001600160a01b03878116600483015260648035821660248401529281166044830152909185918391908290849088165af19081156108cb578491610967575b50506001546001600160a01b0316803b156108bf5760405163d9ce7b9560e01b81526001600160a01b03841660048201529084908290602490829084905af19081156108cb578491610953575b50506001546001600160a01b0316803b156108bf576040516208ac8360e01b81526001600160a01b038781166004830152841660248201529084908290604490829084905af19081156108cb57849161093f575b50506001546001600160a01b0316803b156108bf5760405160016216ef6160e31b031981526001600160a01b0360643581166004830152871660248201529084908290604490829084905af19081156108cb57849161092b575b50506001600160a01b0385163b1561086c5760405163716f6e8760e01b81526001600160a01b03838116600483015284908290602490829084908b165af19081156108cb578491610917575b50506001600160a01b0385163b1561086c576040516339fa62df60e01b815260443560048201528381602481836001600160a01b038b165af19081156108cb578491610903575b505060015460405163670d296960e11b815290602090829060049082906001600160a01b03165afa9081156108cb5760049160209186916108d6575b50604051623684d160e81b815292839182906001600160a01b03165afa80156108cb5784918291610880575b5060408051636613680d60e01b81526001600160a01b038916600482015260248101919091529791928892839182906106a590604483019061187f565b03926001600160a01b03165af1918215610874578092610743575b50604080516001600160a01b039485168152918416602083810191909152604435918301919091526080606083018190529095508484169360643516927f938ece1ab5d508d56896411e3f1b2c96359f780ecbfe90c9a4031cd170aa4a4a9291829161072e9183019061187f565b0390a36040516001600160a01b039091168152f35b9091503d8082873e610755818761170c565b850194602081870312610870578051906001600160401b03821161086c57019060c082870312610869576040519161078c836116c8565b80516001600160401b03811161086c57876107a8918301611815565b835260208101516001600160401b03811161086c57876107c9918301611815565b602084015260408101516001600160401b03811161086c57876107ed918301611815565b604084015260608101516001600160401b03811161086c5787610811918301611815565b606084015260808101516001600160401b03811161086c5787610835918301611815565b608084015260a0810151916001600160401b03831161086957509561085d9160209701611815565b60a082015290386106c0565b80fd5b8280fd5b5080fd5b604051903d90823e3d90fd5b9150506020813d6020116108c3575b8161089c6020938361170c565b810103126108bf57516001600160a01b03811681036108bf5783906106a5610668565b8380fd5b3d915061088f565b6040513d86823e3d90fd5b6108f69150823d84116108fc575b6108ee818361170c565b8101906117d3565b3861063c565b503d6108e4565b61090c906116f9565b61086c578238610600565b610920906116f9565b61086c5782386105b9565b610934906116f9565b61086c57823861056d565b610948906116f9565b61086c578238610513565b61095c906116f9565b61086c5782386104bf565b610970906116f9565b61086c578238610472565b610987909491946116f9565b92386103f2565b6040513d87823e3d90fd5b15610cc4576040516337a0a9e960e11b815290602090829060049082906001600160a01b03165afa90811561098e578591610c8e575b5060015460405163670d296960e11b8152916001600160a01b0390911690602083600481855afa928315610c66576004936020918991610c71575b506040516309da4e5160e01b815294859182906001600160a01b03165afa928315610c66578793610c1d575b50604051637c70c0a360e01b8152600481019190915291602090839060249082906001600160a01b03165afa918215610ba0578692610bfc575b506001600160a01b03821615610bab576020600491604051928380926331785eef60e11b82525afa908115610ba0578691610b81575b506040516323b872dd60e01b60208201523360248201526001600160a01b039091166044820152606480820184905281526001600160401b0360a0820190811190821117610b6d5760a0810160405285917fdd872ca9502e175165673833ac2a0e1395edb4b5c72f2915685598490c375e999160209190610b30906001600160a01b0383166119b8565b6001600160a01b038116845260048252604084208054610b51908790611965565b90556040519485526001600160a01b031693a35b388080610377565b634e487b7160e01b86526041600452602486fd5b610b9a915060203d6020116108fc576108ee818361170c565b38610aa6565b6040513d88823e3d90fd5b60405162461bcd60e51b815260206004820152602360248201527f4e6f2077686974656c697374656420737461626c65636f696e20617661696c61604482015262626c6560e81b6064820152608490fd5b610c1691925060203d6020116108fc576108ee818361170c565b9038610a70565b9092506020813d602011610c5e575b81610c396020938361170c565b81010312610c5a57516001600160a01b0381168103610c5a57916020610a36565b8680fd5b3d9150610c2c565b6040513d89823e3d90fd5b610c889150823d84116108fc576108ee818361170c565b38610a0a565b90506020813d602011610cbc575b81610ca96020938361170c565b81010312610cb85751386109cf565b8480fd5b3d9150610c9c565b50803410610d9157838052600460205260408420610ce3348254611965565b9055803411610d1f575b5082807fdd872ca9502e175165673833ac2a0e1395edb4b5c72f2915685598490c375e996020604051348152a3610b65565b3403348111610d7d578380808093335af1610d38611988565b5015610d445738610ced565b60405162461bcd60e51b8152602060048201526011602482015270115512081c99599d5b990819985a5b1959607a1b6044820152606490fd5b634e487b7160e01b84526011600452602484fd5b60405162461bcd60e51b815260206004820152601860248201527f496e636f7272656374204554482066656520616d6f756e7400000000000000006044820152606490fd5b610df8915060203d602011610dfe575b610df0818361170c565b8101906117bb565b38610370565b503d610de6565b9091506020813d602011610e31575b81610e216020938361170c565b81010312610cb857519038610342565b3d9150610e14565b90506020813d602011610e73575b81610e546020938361170c565b810103126108bf57516001600160a01b03811681036108bf5738610313565b3d9150610e47565b610e929150823d84116108fc576108ee818361170c565b386102e7565b60405162461bcd60e51b815260206004820152601d60248201527f537461626c65636f696e206973206e6f742077686974656c69737465640000006044820152606490fd5b610ef6915060203d602011610dfe57610df0818361170c565b386102b5565b606460405162461bcd60e51b815260206004820152602060248201527f4e6f742076616c696420746f20637265617465205772617070656420536f6e676044820152fd5b610f59915060203d602011610dfe57610df0818361170c565b3861027c565b60405162461bcd60e51b815260206004820152602760248201527f53686172657320616d6f756e74206d7573742062652067726561746572207468604482015266616e207a65726f60c81b6064820152608490fd5b60405162461bcd60e51b815260206004820152601060248201526f496e76616c6964206d6574616461746160801b6044820152606490fd5b5060a0830151511515610245565b50608083015151151561023f565b506040830151511515610239565b60405162461bcd60e51b8152602060048201526012602482015271141c9bdd1bd8dbdb081a5cc81c185d5cd95960721b6044820152606490fd5b611069915060203d602011610dfe57610df0818361170c565b38610229565b5034610869576020366003190112610869576020906040906001600160a01b036110976116ad565b168152600483522054604051908152f35b5034610869576020366003190112610869576110c26116ad565b6110ca61178f565b6001600160a01b039081169081156111155782546001600160a01b0319811683178455167f8be0079c531659141344cd1fd0a4f28419497f9722a3daafe3b4186f6b6457e08380a380f35b604051631e4fbdf760e01b815260048101849052602490fd5b5034610869576020366003190112610869576111486116ad565b61115061178f565b6001600160a01b0390811690811561119f57600354826001600160601b0360a01b821617600355167f4388d587c20200b8f796e02c528de3252df8a630e8c0c69d15420117e7264fa08380a380f35b60405162461bcd60e51b815260206004820152601960248201527f496e76616c696420575320746f6b656e2074656d706c617465000000000000006044820152606490fd5b5034610869576020366003190112610869576111fe6116ad565b61120661178f565b6001600160a01b0390811690811561125557600154826001600160601b0360a01b821617600155167ffaee52155b4cd55f9c492ff3526c7bf5776d03bbde330f67dedcab16544242f68380a380f35b60405162461bcd60e51b815260206004820152601760248201527f496e76616c69642070726f746f636f6c206d6f64756c650000000000000000006044820152606490fd5b5034610869578060031936011261086957546040516001600160a01b039091168152602090f35b50346108695780600319360112610869576112da61178f565b80546001600160a01b03198116825581906001600160a01b03167f8be0079c531659141344cd1fd0a4f28419497f9722a3daafe3b4186f6b6457e08280a380f35b50346108695780600319360112610869576003546040516001600160a01b039091168152602090f35b50346108695780600319360112610869576001546040516001600160a01b039091168152602090f35b50346108695780600319360112610869576002546040516001600160a01b039091168152602090f35b50346108695780600319360112610869576005546040516001600160a01b039091168152602090f35b5034610869576040366003190112610869576113d96116ad565b602480356001600160a01b038181169391849003610cb8578060015416916040518093638da5cb5b60e01b825281600460209687935afa8015610c6657839188916115da575b5016330361158857169182855260048252604085205490811561154f578386526004835285604081205583156000146114d0578580808085895af1611462611988565b50156114975750907f5e110f8bc8a20b65dcc87f224bdf1cc039346e267118bae2739847f07321ffa8915b604051908152a380f35b8260136064926040519262461bcd60e51b8452600484015282015272115512081d1c985b9cd9995c8819985a5b1959606a1b6044820152fd5b6040519063a9059cbb60e01b8483015285818301528260448301526044825260808201908282106001600160401b0383111761153d57507f5e110f8bc8a20b65dcc87f224bdf1cc039346e267118bae2739847f07321ffa893929161153891604052856119b8565b61148d565b634e487b7160e01b8852604160045287fd5b8260136064926040519262461bcd60e51b84526004840152820152724e6f206665657320746f20776974686472617760681b6044820152fd5b60405162461bcd60e51b8152600481018490526025818601527f4f6e6c792070726f746f636f6c206f776e65722063616e207769746864726177604482015264206665657360d81b6064820152608490fd5b6115f19150853d87116108fc576108ee818361170c565b3861141f565b5034610869576020366003190112610869576116116116ad565b61161961178f565b6001600160a01b0390811690811561166857600254826001600160601b0360a01b821617600255167fc1772ace785c306bda2a481fbcb0fd2ad755a998ef1c516d5cb999dced038fc78380a380f35b60405162461bcd60e51b815260206004820152601d60248201527f496e76616c6964207772617070656420736f6e672074656d706c6174650000006044820152606490fd5b600435906001600160a01b03821682036116c357565b600080fd5b60c081019081106001600160401b038211176116e357604052565b634e487b7160e01b600052604160045260246000fd5b6001600160401b0381116116e357604052565b90601f801991011681019081106001600160401b038211176116e357604052565b6001600160401b0381116116e357601f01601f191660200190565b81601f820112156116c35780359061175f8261172d565b9261176d604051948561170c565b828452602083830101116116c357816000926020809301838601378301015290565b6000546001600160a01b031633036117a357565b60405163118cdaa760e01b8152336004820152602490fd5b908160209103126116c3575180151581036116c35790565b908160209103126116c357516001600160a01b03811681036116c35790565b60005b8381106118055750506000910152565b81810151838201526020016117f5565b81601f820112156116c357805161182b8161172d565b92611839604051948561170c565b818452602082840101116116c35761185791602080850191016117f2565b90565b90602091611873815180928185528580860191016117f2565b601f01601f1916010190565b6118579160a06118ec6118da6118c86118b66118a4875160c0885260c088019061185a565b6020880151878203602089015261185a565b6040870151868203604088015261185a565b6060860151858203606087015261185a565b6080850151848203608086015261185a565b9201519060a081840391015261185a565b6e5af43d82803e903d91602b57fd5bf390763d602d80600a3d3981f3363d3d373d3d3d363d7300000062ffffff8260881c161760005260781b17602052603760096000f0906001600160a01b0382161561195357565b6040516330be1a3d60e21b8152600490fd5b9190820180921161197257565b634e487b7160e01b600052601160045260246000fd5b3d156119b3573d906119998261172d565b916119a7604051938461170c565b82523d6000602084013e565b606090565b6000806119e19260018060a01b03169360208151910182865af16119da611988565b9083611a2a565b8051908115159182611a0f575b50506119f75750565b60249060405190635274afe760e01b82526004820152fd5b611a2292506020809183010191016117bb565b1538806119ee565b90611a515750805115611a3f57805190602001fd5b604051630a12f52160e11b8152600490fd5b81511580611a84575b611a62575090565b604051639996b31560e01b81526001600160a01b039091166004820152602490fd5b50803b15611a5a56fea2646970667358221220716bcb651754f200027b0148520e3ec3ece58b767ae3a2924f5ee68303c518b164736f6c63430008140033",
  "linkReferences": {},
  "deployedLinkReferences": {}
}