{
  "_format": "hh-sol-artifact-1",
  "contractName": "WrappedSongFactory",
  "sourceName": "contracts/protocol/NonUpgradable/WrappedSongFactory.sol",
  "abi": [
    {
      "inputs": [
        {
          "internalType": "address",
          "name": "_protocolModule",
          "type": "address"
        },
        {
          "internalType": "address",
          "name": "_wrappedSongTemplate",
          "type": "address"
        },
        {
          "internalType": "address",
          "name": "_wsTokenTemplate",
          "type": "address"
        }
      ],
      "stateMutability": "nonpayable",
      "type": "constructor"
    },
    {
      "inputs": [],
      "name": "ERC1167FailedCreateClone",
      "type": "error"
    },
    {
      "anonymous": false,
      "inputs": [
        {
          "indexed": true,
          "internalType": "address",
          "name": "owner",
          "type": "address"
        },
        {
          "indexed": true,
          "internalType": "address",
          "name": "wrappedSongSmartAccount",
          "type": "address"
        },
        {
          "indexed": false,
          "internalType": "address",
          "name": "stablecoin",
          "type": "address"
        },
        {
          "indexed": false,
          "internalType": "address",
          "name": "wsTokenManagement",
          "type": "address"
        },
        {
          "indexed": false,
          "internalType": "uint256",
          "name": "sharesAmount",
          "type": "uint256"
        },
        {
          "components": [
            {
              "internalType": "string",
              "name": "name",
              "type": "string"
            },
            {
              "internalType": "string",
              "name": "description",
              "type": "string"
            },
            {
              "internalType": "string",
              "name": "image",
              "type": "string"
            },
            {
              "internalType": "string",
              "name": "externalUrl",
              "type": "string"
            },
            {
              "internalType": "string",
              "name": "animationUrl",
              "type": "string"
            },
            {
              "internalType": "string",
              "name": "attributesIpfsHash",
              "type": "string"
            }
          ],
          "indexed": false,
          "internalType": "struct IMetadataModule.Metadata",
          "name": "metadata",
          "type": "tuple"
        }
      ],
      "name": "WrappedSongCreated",
      "type": "event"
    },
    {
      "inputs": [
        {
          "internalType": "address",
          "name": "_stablecoin",
          "type": "address"
        },
        {
          "components": [
            {
              "internalType": "string",
              "name": "name",
              "type": "string"
            },
            {
              "internalType": "string",
              "name": "description",
              "type": "string"
            },
            {
              "internalType": "string",
              "name": "image",
              "type": "string"
            },
            {
              "internalType": "string",
              "name": "externalUrl",
              "type": "string"
            },
            {
              "internalType": "string",
              "name": "animationUrl",
              "type": "string"
            },
            {
              "internalType": "string",
              "name": "attributesIpfsHash",
              "type": "string"
            }
          ],
          "internalType": "struct IMetadataModule.Metadata",
          "name": "songMetadata",
          "type": "tuple"
        },
        {
          "internalType": "uint256",
          "name": "sharesAmount",
          "type": "uint256"
        }
      ],
      "name": "createWrappedSong",
      "outputs": [
        {
          "internalType": "address",
          "name": "",
          "type": "address"
        }
      ],
      "stateMutability": "payable",
      "type": "function"
    },
    {
      "inputs": [],
      "name": "metadataModule",
      "outputs": [
        {
          "internalType": "contract IMetadataModule",
          "name": "",
          "type": "address"
        }
      ],
      "stateMutability": "view",
      "type": "function"
    },
    {
      "inputs": [],
      "name": "protocolModule",
      "outputs": [
        {
          "internalType": "contract IProtocolModule",
          "name": "",
          "type": "address"
        }
      ],
      "stateMutability": "view",
      "type": "function"
    },
    {
      "inputs": [],
      "name": "wrappedSongTemplate",
      "outputs": [
        {
          "internalType": "address",
          "name": "",
          "type": "address"
        }
      ],
      "stateMutability": "view",
      "type": "function"
    },
    {
      "inputs": [],
      "name": "wsTokenTemplate",
      "outputs": [
        {
          "internalType": "address",
          "name": "",
          "type": "address"
        }
      ],
      "stateMutability": "view",
      "type": "function"
    }
  ],
  "bytecode": "0x6101006040908082523462000270576060816200143d803803809162000026828562000275565b83398101031262000270576200003c81620002af565b906020916200005a8462000052858501620002af565b9301620002af565b926001600160a01b0391821680156200022c5782841615620001e85782851615620001a457908082600493608052875193848092630222e55560e21b82525afa90811562000199576000916200015a575b5090501660a05260c05260e052516111789081620002c582396080518181816101bd01528181610239015281816102a2015281816102f2015281816103d40152818161047e015281816104be0152818161050801528181610544015281816105a2015281816105db0152818161063c01528181610a9d0152610e34015260a05181818161073b0152610ebc015260c0518181816103780152610e79015260e0518181816104200152610def0152f35b82813d831162000191575b62000171818362000275565b810103126200018e57506200018690620002af565b8038620000ab565b80fd5b503d62000165565b86513d6000823e3d90fd5b855162461bcd60e51b815260048101839052601860248201527f496e76616c6964205753546f6b656e2074656d706c61746500000000000000006044820152606490fd5b855162461bcd60e51b815260048101839052601d60248201527f496e76616c6964207772617070656420736f6e672074656d706c6174650000006044820152606490fd5b855162461bcd60e51b815260048101839052601760248201527f496e76616c69642070726f746f636f6c206d6f64756c650000000000000000006044820152606490fd5b600080fd5b601f909101601f19168101906001600160401b038211908210176200029957604052565b634e487b7160e01b600052604160045260246000fd5b51906001600160a01b0382168203620002705756fe608080604052600436101561001357600080fd5b600090813560e01c9081633684d10014610ea8575080633e22876b14610e635780635c42e66714610e1e5780635e63149f14610dd95763b9408f5c1461005857600080fd5b600319606036820112610917576004356001600160a01b0381169003610917576001600160401b03602435116109175760c09060243536030112610910576040516100a281610eeb565b602435600401356001600160401b038111610913576100c990600436916024350101610f6b565b81526024803501356001600160401b038111610913576100f190600436916024350101610f6b565b6020820152604460243501356001600160401b0381116109135761011d90600436916024350101610f6b565b6040820152606460243501356001600160401b0381116109135761014990600436916024350101610f6b565b6060820152608460243501356001600160401b0381116109135761017590600436916024350101610f6b565b60808201526001600160401b0360a4602435013511610917576101a33660243560a481013501600401610f6b565b60a0820152604051635c975abb60e01b81526020816004817f00000000000000000000000000000000000000000000000000000000000000006001600160a01b03165afa9081156109a5578391610dba575b50610d8057805151151580610d72575b80610d64575b80610d56575b15610d1e5760443515610cc95760405163f140b55f60e01b81523360048201526020816024817f00000000000000000000000000000000000000000000000000000000000000006001600160a01b03165afa9081156109a5578391610caa575b5015610c665760405163b5af090f60e01b81526001600160a01b0360048035821690830152602090829060249082907f0000000000000000000000000000000000000000000000000000000000000000165afa9081156109a5578391610c47575b5015610c025734610a8857604051633cf574df60e21b81526020816004817f00000000000000000000000000000000000000000000000000000000000000006001600160a01b03165afa9081156109a5578391610a56575b50604051906323b872dd60e01b825233600483015230602483015260448201526020816064818660018060a01b03600435165af19081156109a5578391610a27575b50156109e2575b61039c7f00000000000000000000000000000000000000000000000000000000000000006110da565b906001600160a01b0382163b156109135760405163c0c53b8b60e01b81526001600160a01b03600480358216908301523260248301527f0000000000000000000000000000000000000000000000000000000000000000166044820152838180606481010381836001600160a01b0388165af180156109d7576109c4575b506104447f00000000000000000000000000000000000000000000000000000000000000006110da565b6001600160a01b03811691908490833b156109175760405163c0c53b8b60e01b81526001600160a01b0386811660048301523360248301527f0000000000000000000000000000000000000000000000000000000000000000166044820152828160648183895af19081156109a55783916109b0575b50507f00000000000000000000000000000000000000000000000000000000000000006001600160a01b03163b156109175760405163d9ce7b9560e01b8152600481018590528281602481837f00000000000000000000000000000000000000000000000000000000000000006001600160a01b03165af19081156109a5578391610991575b50507f00000000000000000000000000000000000000000000000000000000000000006001600160a01b03163b15610917576040516208ac8360e01b81526001600160a01b0380871660048301529091166024820152818180604481010381837f00000000000000000000000000000000000000000000000000000000000000006001600160a01b03165af1801561095e5761097d575b50507f00000000000000000000000000000000000000000000000000000000000000006001600160a01b03163b1561093b5760405160016216ef6160e31b031981523360048201526001600160a01b03841660248201528490818180604481010381837f00000000000000000000000000000000000000000000000000000000000000006001600160a01b03165af1801561095e57610969575b50506001600160a01b0383163b1561093b5760405163716f6e8760e01b81526004810183905284908181602481836001600160a01b038a165af1801561095e5761094a575b50506001600160a01b0383163b1561093b576040516339fa62df60e01b815260443560048201528481602481836001600160a01b0389165af1801561093f57610927575b5060408051636613680d60e01b81526001600160a01b03851660048201526024810191909152939081908590819061073690604483019061105c565b0381837f00000000000000000000000000000000000000000000000000000000000000006001600160a01b03165af190811561091b5780916107ec575b50602093506040519160018060a01b03600435168352848301526044356040830152608060608301527f938ece1ab5d508d56896411e3f1b2c96359f780ecbfe90c9a4031cd170aa4a4a60018060a01b03841692806107d73394608083019061105c565b0390a36040516001600160a01b039091168152f35b90503d8082863e6107fd8186610f2f565b840193602081860312610917578051906001600160401b03821161091357019060c082860312610910576040519161083483610eeb565b80516001600160401b0381116109135786610850918301610ff2565b835260208101516001600160401b0381116109135786610871918301610ff2565b602084015260408101516001600160401b0381116109135786610895918301610ff2565b604084015260608101516001600160401b03811161091357866108b9918301610ff2565b606084015260808101516001600160401b03811161091357866108dd918301610ff2565b608084015260a0810151916001600160401b0383116109105750946109059160209601610ff2565b60a082015238610773565b80fd5b8280fd5b5080fd5b604051903d90823e3d90fd5b6109318591610f1c565b61093b57386106fa565b8380fd5b6040513d87823e3d90fd5b61095390610f1c565b61093b5783386106b6565b6040513d84823e3d90fd5b61097290610f1c565b61093b578338610671565b61098690610f1c565b61093b5783386105d7565b61099a90610f1c565b610917578138610540565b6040513d85823e3d90fd5b6109b990610f1c565b6109175781386104ba565b6109d090939193610f1c565b913861041a565b6040513d86823e3d90fd5b60405162461bcd60e51b815260206004820152601e60248201527f537461626c65636f696e20666565207472616e73666572206661696c656400006044820152606490fd5b610a49915060203d602011610a4f575b610a418183610f2f565b810190610fb7565b3861036c565b503d610a37565b90506020813d602011610a80575b81610a7160209383610f2f565b8101031261091357513861032a565b3d9150610a64565b60405163438c9d9560e01b81526020816004817f00000000000000000000000000000000000000000000000000000000000000006001600160a01b03165afa9081156109a5578391610bd0575b50803410610b8157803411610aeb575b50610373565b3403348111610b6d578280808093335af13d15610b68573d610b0c81610f50565b90610b1a6040519283610f2f565b81528360203d92013e5b15610b2f5738610ae5565b60405162461bcd60e51b8152602060048201526011602482015270115512081c99599d5b990819985a5b1959607a1b6044820152606490fd5b610b24565b634e487b7160e01b83526011600452602483fd5b60405162461bcd60e51b815260206004820152602160248201527f496e73756666696369656e742045544820666f72206372656174696f6e2066656044820152606560f81b6064820152608490fd5b90506020813d602011610bfa575b81610beb60209383610f2f565b81010312610913575138610ad5565b3d9150610bde565b60405162461bcd60e51b815260206004820152601d60248201527f537461626c65636f696e206973206e6f742077686974656c69737465640000006044820152606490fd5b610c60915060203d602011610a4f57610a418183610f2f565b386102d2565b606460405162461bcd60e51b815260206004820152602060248201527f4e6f742076616c696420746f20637265617465205772617070656420536f6e676044820152fd5b610cc3915060203d602011610a4f57610a418183610f2f565b38610271565b60405162461bcd60e51b815260206004820152602760248201527f53686172657320616d6f756e74206d7573742062652067726561746572207468604482015266616e207a65726f60c81b6064820152608490fd5b60405162461bcd60e51b815260206004820152601060248201526f496e76616c6964206d6574616461746160801b6044820152606490fd5b5060a0810151511515610211565b50608081015151151561020b565b506040810151511515610205565b60405162461bcd60e51b8152602060048201526012602482015271141c9bdd1bd8dbdb081a5cc81c185d5cd95960721b6044820152606490fd5b610dd3915060203d602011610a4f57610a418183610f2f565b386101f5565b50346109105780600319360112610910576040517f00000000000000000000000000000000000000000000000000000000000000006001600160a01b03168152602090f35b50346109105780600319360112610910576040517f00000000000000000000000000000000000000000000000000000000000000006001600160a01b03168152602090f35b50346109105780600319360112610910576040517f00000000000000000000000000000000000000000000000000000000000000006001600160a01b03168152602090f35b9050346109175781600319360112610917577f00000000000000000000000000000000000000000000000000000000000000006001600160a01b03168152602090f35b60c081019081106001600160401b03821117610f0657604052565b634e487b7160e01b600052604160045260246000fd5b6001600160401b038111610f0657604052565b90601f801991011681019081106001600160401b03821117610f0657604052565b6001600160401b038111610f0657601f01601f191660200190565b81601f82011215610fb257803590610f8282610f50565b92610f906040519485610f2f565b82845260208383010111610fb257816000926020809301838601378301015290565b600080fd5b90816020910312610fb257518015158103610fb25790565b60005b838110610fe25750506000910152565b8181015183820152602001610fd2565b81601f82011215610fb257805161100881610f50565b926110166040519485610f2f565b81845260208284010111610fb2576110349160208085019101610fcf565b90565b9060209161105081518092818552858086019101610fcf565b601f01601f1916010190565b6110349160a06110c96110b76110a5611093611081875160c0885260c0880190611037565b60208801518782036020890152611037565b60408701518682036040880152611037565b60608601518582036060870152611037565b60808501518482036080860152611037565b9201519060a0818403910152611037565b6e5af43d82803e903d91602b57fd5bf390763d602d80600a3d3981f3363d3d373d3d3d363d7300000062ffffff8260881c161760005260781b17602052603760096000f0906001600160a01b0382161561113057565b6040516330be1a3d60e21b8152600490fdfea26469706673582212202c8009bccc50b8d6e051270348128e61f01c996aa2b844d3dc3226c5d883dce464736f6c63430008140033",
  "linkReferences": {},
  "deployedLinkReferences": {}
}