{
  "_format": "hh-sol-artifact-1",
  "contractName": "WrappedSongFactory",
  "sourceName": "contracts/protocol/NonUpgradable/WrappedSongFactory.sol",
  "abi": [
    {
      "inputs": [
        {
          "internalType": "address",
          "name": "_wrappedSongTemplate",
          "type": "address"
        },
        {
          "internalType": "address",
          "name": "_wsTokenTemplate",
          "type": "address"
        },
        {
          "internalType": "address",
          "name": "_protocolModule",
          "type": "address"
        }
      ],
      "stateMutability": "nonpayable",
      "type": "constructor"
    },
    {
      "inputs": [
        {
          "internalType": "address",
          "name": "target",
          "type": "address"
        }
      ],
      "name": "AddressEmptyCode",
      "type": "error"
    },
    {
      "inputs": [
        {
          "internalType": "address",
          "name": "account",
          "type": "address"
        }
      ],
      "name": "AddressInsufficientBalance",
      "type": "error"
    },
    {
      "inputs": [],
      "name": "ERC1167FailedCreateClone",
      "type": "error"
    },
    {
      "inputs": [],
      "name": "FailedInnerCall",
      "type": "error"
    },
    {
      "inputs": [
        {
          "internalType": "address",
          "name": "owner",
          "type": "address"
        }
      ],
      "name": "OwnableInvalidOwner",
      "type": "error"
    },
    {
      "inputs": [
        {
          "internalType": "address",
          "name": "account",
          "type": "address"
        }
      ],
      "name": "OwnableUnauthorizedAccount",
      "type": "error"
    },
    {
      "inputs": [
        {
          "internalType": "address",
          "name": "token",
          "type": "address"
        }
      ],
      "name": "SafeERC20FailedOperation",
      "type": "error"
    },
    {
      "anonymous": false,
      "inputs": [
        {
          "indexed": true,
          "internalType": "address",
          "name": "wrappedSong",
          "type": "address"
        },
        {
          "indexed": true,
          "internalType": "address",
          "name": "token",
          "type": "address"
        },
        {
          "indexed": false,
          "internalType": "uint256",
          "name": "amount",
          "type": "uint256"
        }
      ],
      "name": "CreationFeeCollected",
      "type": "event"
    },
    {
      "anonymous": false,
      "inputs": [
        {
          "indexed": true,
          "internalType": "address",
          "name": "token",
          "type": "address"
        },
        {
          "indexed": true,
          "internalType": "address",
          "name": "recipient",
          "type": "address"
        },
        {
          "indexed": false,
          "internalType": "uint256",
          "name": "amount",
          "type": "uint256"
        }
      ],
      "name": "FeesWithdrawn",
      "type": "event"
    },
    {
      "anonymous": false,
      "inputs": [
        {
          "indexed": true,
          "internalType": "address",
          "name": "previousOwner",
          "type": "address"
        },
        {
          "indexed": true,
          "internalType": "address",
          "name": "newOwner",
          "type": "address"
        }
      ],
      "name": "OwnershipTransferred",
      "type": "event"
    },
    {
      "anonymous": false,
      "inputs": [
        {
          "indexed": true,
          "internalType": "address",
          "name": "owner",
          "type": "address"
        },
        {
          "indexed": true,
          "internalType": "address",
          "name": "wrappedSongSmartAccount",
          "type": "address"
        },
        {
          "indexed": false,
          "internalType": "address",
          "name": "stablecoin",
          "type": "address"
        },
        {
          "indexed": false,
          "internalType": "address",
          "name": "wsTokenManagement",
          "type": "address"
        },
        {
          "indexed": false,
          "internalType": "uint256",
          "name": "sharesAmount",
          "type": "uint256"
        },
        {
          "components": [
            {
              "internalType": "string",
              "name": "name",
              "type": "string"
            },
            {
              "internalType": "string",
              "name": "description",
              "type": "string"
            },
            {
              "internalType": "string",
              "name": "image",
              "type": "string"
            },
            {
              "internalType": "string",
              "name": "externalUrl",
              "type": "string"
            },
            {
              "internalType": "string",
              "name": "animationUrl",
              "type": "string"
            },
            {
              "internalType": "string",
              "name": "attributesIpfsHash",
              "type": "string"
            }
          ],
          "indexed": false,
          "internalType": "struct IMetadataModule.Metadata",
          "name": "metadata",
          "type": "tuple"
        }
      ],
      "name": "WrappedSongCreated",
      "type": "event"
    },
    {
      "inputs": [
        {
          "internalType": "address",
          "name": "",
          "type": "address"
        }
      ],
      "name": "accumulatedFees",
      "outputs": [
        {
          "internalType": "uint256",
          "name": "",
          "type": "uint256"
        }
      ],
      "stateMutability": "view",
      "type": "function"
    },
    {
      "inputs": [
        {
          "internalType": "address",
          "name": "_stablecoin",
          "type": "address"
        },
        {
          "components": [
            {
              "internalType": "string",
              "name": "name",
              "type": "string"
            },
            {
              "internalType": "string",
              "name": "description",
              "type": "string"
            },
            {
              "internalType": "string",
              "name": "image",
              "type": "string"
            },
            {
              "internalType": "string",
              "name": "externalUrl",
              "type": "string"
            },
            {
              "internalType": "string",
              "name": "animationUrl",
              "type": "string"
            },
            {
              "internalType": "string",
              "name": "attributesIpfsHash",
              "type": "string"
            }
          ],
          "internalType": "struct IMetadataModule.Metadata",
          "name": "songMetadata",
          "type": "tuple"
        },
        {
          "internalType": "uint256",
          "name": "sharesAmount",
          "type": "uint256"
        },
        {
          "internalType": "address",
          "name": "wsOwner",
          "type": "address"
        }
      ],
      "name": "createWrappedSong",
      "outputs": [
        {
          "internalType": "address",
          "name": "",
          "type": "address"
        }
      ],
      "stateMutability": "payable",
      "type": "function"
    },
    {
      "inputs": [],
      "name": "owner",
      "outputs": [
        {
          "internalType": "address",
          "name": "",
          "type": "address"
        }
      ],
      "stateMutability": "view",
      "type": "function"
    },
    {
      "inputs": [],
      "name": "protocolModule",
      "outputs": [
        {
          "internalType": "contract IProtocolModule",
          "name": "",
          "type": "address"
        }
      ],
      "stateMutability": "view",
      "type": "function"
    },
    {
      "inputs": [],
      "name": "registryModule",
      "outputs": [
        {
          "internalType": "contract IRegistryModule",
          "name": "",
          "type": "address"
        }
      ],
      "stateMutability": "view",
      "type": "function"
    },
    {
      "inputs": [],
      "name": "renounceOwnership",
      "outputs": [],
      "stateMutability": "nonpayable",
      "type": "function"
    },
    {
      "inputs": [
        {
          "internalType": "address",
          "name": "newOwner",
          "type": "address"
        }
      ],
      "name": "transferOwnership",
      "outputs": [],
      "stateMutability": "nonpayable",
      "type": "function"
    },
    {
      "inputs": [
        {
          "internalType": "address",
          "name": "token",
          "type": "address"
        },
        {
          "internalType": "address",
          "name": "recipient",
          "type": "address"
        }
      ],
      "name": "withdrawAccumulatedFees",
      "outputs": [],
      "stateMutability": "nonpayable",
      "type": "function"
    },
    {
      "inputs": [],
      "name": "wrappedSongTemplate",
      "outputs": [
        {
          "internalType": "address",
          "name": "",
          "type": "address"
        }
      ],
      "stateMutability": "view",
      "type": "function"
    },
    {
      "inputs": [],
      "name": "wsTokenTemplate",
      "outputs": [
        {
          "internalType": "address",
          "name": "",
          "type": "address"
        }
      ],
      "stateMutability": "view",
      "type": "function"
    },
    {
      "stateMutability": "payable",
      "type": "receive"
    }
  ],
  "bytecode": "0x60e0346200017e57601f62001c2d38819003918201601f19168301916001600160401b0383118484101762000183578084926060946040528339810103126200017e576200004d8162000199565b906200006a6040620000626020840162000199565b920162000199565b3315620001655760008054336001600160a01b0319821681178355604051956001600160a01b03959390928616907f8be0079c531659141344cd1fd0a4f28419497f9722a3daafe3b4186f6b6457e09080a360a05260c05216608052611a7e9081620001af82396080518181816101f201528181610272015281816102d90152818161032401528181610459015281816104fe015281816105430152818161059b015281816105cf0152818161062c01528181610668015281816106c7015281816107a901528181610b8c01528181611377015261145e015260a0518181816103fa01526113bc015260c05181818161049f01526113320152f35b604051631e4fbdf760e01b815260006004820152602490fd5b600080fd5b634e487b7160e01b600052604160045260246000fd5b51906001600160a01b03821682036200017e5756fe608080604052600436101561001d575b50361561001b57600080fd5b005b600090813560e01c908163376c1f0714611414575080633cd7bc95146113eb5780633e22876b146113a65780635c42e667146113615780635e63149f1461131c578063715018a6146112c25780638da5cb5b1461129b578063f2fde38b14611215578063fcf66664146111dc5763ff42536b0361000f57600319608036820112610a16576100a9611668565b602435916001600160401b038311610a655760c0908336030112610a1257604051916100d483611683565b80600401356001600160401b038111610e1c576100f79060043691840101611703565b835260248101356001600160401b038111610e1c5761011c9060043691840101611703565b602084015260448101356001600160401b038111610e1c576101449060043691840101611703565b906040840191825260648101356001600160401b038111610dbe5761016f9060043691840101611703565b606085015260848101356001600160401b038111610dbe576101979060043691840101611703565b906080850191825260a4810135906001600160401b0382116111d85760046101c29236920101611703565b60a08501908152906064356001600160a01b0381169003610dbe57604051635c975abb60e01b81526020816004817f00000000000000000000000000000000000000000000000000000000000000006001600160a01b03165afa9081156111cd5787916111ae575b506111745784515115159283611168575b508261115c575b5081611150575b501561111857604435156110c35760405163f140b55f60e01b81523360048201526020816024817f00000000000000000000000000000000000000000000000000000000000000006001600160a01b03165afa908115610a715784916110a4575b50156110605760405163b5af090f60e01b81526001600160a01b038281166004830152602090829060249082907f0000000000000000000000000000000000000000000000000000000000000000165afa908115610a71578491611041575b5015610ffc5760405163670d296960e11b81526020816004817f00000000000000000000000000000000000000000000000000000000000000006001600160a01b03165afa908115610a71576004916020918691610fdf575b50604051636d4726d960e01b815292839182906001600160a01b03165afa908115610a71578491610f9d575b5060405163a454912960e01b8152906020826004816001600160a01b0385165afa918215610b34578592610f69575b5060405163d579e3f360e01b81526020816004816001600160a01b0386165afa908115610dca578691610f3a575b5082610b3f575b50505061041e7f00000000000000000000000000000000000000000000000000000000000000006118b8565b916001600160a01b0383163b15610a655760405163c0c53b8b60e01b81526001600160a01b03838116600483015260648035821660248401527f00000000000000000000000000000000000000000000000000000000000000008216604484015286918391908290849089165af18015610b3457610b21575b5083906104c37f00000000000000000000000000000000000000000000000000000000000000006118b8565b906001600160a01b0382163b15610a125760405163c0c53b8b60e01b81526001600160a01b03868116600483015260648035821660248401527f00000000000000000000000000000000000000000000000000000000000000008216604484015285918391908290849088165af1908115610a71578491610b0d575b50507f00000000000000000000000000000000000000000000000000000000000000006001600160a01b03163b15610a125760405163d9ce7b9560e01b81526001600160a01b03838116600483015284908290602490829084907f0000000000000000000000000000000000000000000000000000000000000000165af1908115610a71578491610af9575b50507f00000000000000000000000000000000000000000000000000000000000000006001600160a01b03163b15610a12576040516208ac8360e01b81526001600160a01b03808716600483015283166024820152838180604481010381837f00000000000000000000000000000000000000000000000000000000000000006001600160a01b03165af1908115610a71578491610ae5575b50507f00000000000000000000000000000000000000000000000000000000000000006001600160a01b03163b15610a125760405160016216ef6160e31b031981523360048201526001600160a01b0386166024820152838180604481010381837f00000000000000000000000000000000000000000000000000000000000000006001600160a01b03165af1908115610a71578491610ad1575b50506001600160a01b0385163b15610a125760405163716f6e8760e01b81526001600160a01b03838116600483015284908290602490829084908b165af1908115610a71578491610abd575b50506001600160a01b0385163b15610a12576040516339fa62df60e01b815260443560048201528381602481836001600160a01b038b165af1908115610a71578491610aa9575b505060405163670d296960e11b81526020816004817f00000000000000000000000000000000000000000000000000000000000000006001600160a01b03165afa908115610a71576004916020918691610a7c575b50604051623684d160e81b815292839182906001600160a01b03165afa8015610a715784918291610a26575b5060408051636613680d60e01b81526001600160a01b0389166004820152602481019190915297919288928391829061085090604483019061183a565b03926001600160a01b03165af1918215610a1a5780926108e9575b50602094506040519260018060a01b0316835260018060a01b0316848301526044356040830152608060608301527f938ece1ab5d508d56896411e3f1b2c96359f780ecbfe90c9a4031cd170aa4a4a60018060a01b03841692806108d43394608083019061183a565b0390a36040516001600160a01b039091168152f35b9091503d8082873e6108fb81876116c7565b850194602081870312610a16578051906001600160401b038211610a1257019060c082870312610a0f576040519161093283611683565b80516001600160401b038111610a12578761094e9183016117d0565b835260208101516001600160401b038111610a12578761096f9183016117d0565b602084015260408101516001600160401b038111610a1257876109939183016117d0565b604084015260608101516001600160401b038111610a1257876109b79183016117d0565b606084015260808101516001600160401b038111610a1257876109db9183016117d0565b608084015260a0810151916001600160401b038311610a0f575095610a0391602097016117d0565b60a0820152903861086b565b80fd5b8280fd5b5080fd5b604051903d90823e3d90fd5b9150506020813d602011610a69575b81610a42602093836116c7565b81010312610a6557516001600160a01b0381168103610a65578390610850610813565b8380fd5b3d9150610a35565b6040513d86823e3d90fd5b610a9c9150823d8411610aa2575b610a9481836116c7565b81019061178e565b386107e7565b503d610a8a565b610ab2906116b4565b610a12578238610792565b610ac6906116b4565b610a1257823861074b565b610ada906116b4565b610a125782386106ff565b610aee906116b4565b610a12578238610664565b610b02906116b4565b610a125782386105cb565b610b16906116b4565b610a1257823861053f565b610b2d909491946116b4565b9238610497565b6040513d87823e3d90fd5b15610e28576040516337a0a9e960e11b815290602090829060049082906001600160a01b03165afa908115610b34578591610df2575b5060405163670d296960e11b8152906020826004817f00000000000000000000000000000000000000000000000000000000000000006001600160a01b03165afa918215610dca576004926020918891610dd5575b506040516309da4e5160e01b815293849182906001600160a01b03165afa918215610dca578692610d81575b50604051637c70c0a360e01b8152600481019190915290602090829060249082906001600160a01b03165afa908115610b34578591610d62575b506001600160a01b03811615610d11576040516323b872dd60e01b6020820152336024820152306044820152826064820152606481528060a08101106001600160401b0360a083011117610cfd5760a0810160405285917fdd872ca9502e175165673833ac2a0e1395edb4b5c72f2915685598490c375e999160209190610cc0906001600160a01b038316611973565b6001600160a01b038116845260018252604084208054610ce1908790611920565b90556040519485526001600160a01b031693a35b3880806103f2565b634e487b7160e01b86526041600452602486fd5b60405162461bcd60e51b815260206004820152602360248201527f4e6f2077686974656c697374656420737461626c65636f696e20617661696c61604482015262626c6560e81b6064820152608490fd5b610d7b915060203d602011610aa257610a9481836116c7565b38610c30565b9091506020813d602011610dc2575b81610d9d602093836116c7565b81010312610dbe57516001600160a01b0381168103610dbe57906020610bf6565b8580fd5b3d9150610d90565b6040513d88823e3d90fd5b610dec9150823d8411610aa257610a9481836116c7565b38610bca565b90506020813d602011610e20575b81610e0d602093836116c7565b81010312610e1c575138610b75565b8480fd5b3d9150610e00565b50803410610ef557838052600160205260408420610e47348254611920565b9055803411610e83575b5082807fdd872ca9502e175165673833ac2a0e1395edb4b5c72f2915685598490c375e996020604051348152a3610cf5565b3403348111610ee1578380808093335af1610e9c611943565b5015610ea85738610e51565b60405162461bcd60e51b8152602060048201526011602482015270115512081c99599d5b990819985a5b1959607a1b6044820152606490fd5b634e487b7160e01b84526011600452602484fd5b60405162461bcd60e51b815260206004820152601860248201527f496e636f7272656374204554482066656520616d6f756e7400000000000000006044820152606490fd5b610f5c915060203d602011610f62575b610f5481836116c7565b810190611776565b386103eb565b503d610f4a565b9091506020813d602011610f95575b81610f85602093836116c7565b81010312610e1c575190386103bd565b3d9150610f78565b90506020813d602011610fd7575b81610fb8602093836116c7565b81010312610a6557516001600160a01b0381168103610a65573861038e565b3d9150610fab565b610ff69150823d8411610aa257610a9481836116c7565b38610362565b60405162461bcd60e51b815260206004820152601d60248201527f537461626c65636f696e206973206e6f742077686974656c69737465640000006044820152606490fd5b61105a915060203d602011610f6257610f5481836116c7565b38610309565b606460405162461bcd60e51b815260206004820152602060248201527f4e6f742076616c696420746f20637265617465205772617070656420536f6e676044820152fd5b6110bd915060203d602011610f6257610f5481836116c7565b386102aa565b60405162461bcd60e51b815260206004820152602760248201527f53686172657320616d6f756e74206d7573742062652067726561746572207468604482015266616e207a65726f60c81b6064820152608490fd5b60405162461bcd60e51b815260206004820152601060248201526f496e76616c6964206d6574616461746160801b6044820152606490fd5b90505151151538610249565b51511515915038610242565b5151151592503861023b565b60405162461bcd60e51b8152602060048201526012602482015271141c9bdd1bd8dbdb081a5cc81c185d5cd95960721b6044820152606490fd5b6111c7915060203d602011610f6257610f5481836116c7565b3861022a565b6040513d89823e3d90fd5b8680fd5b5034610a0f576020366003190112610a0f576020906040906001600160a01b03611204611668565b168152600183522054604051908152f35b5034610a0f576020366003190112610a0f5761122f611668565b61123761174a565b6001600160a01b039081169081156112825782546001600160a01b0319811683178455167f8be0079c531659141344cd1fd0a4f28419497f9722a3daafe3b4186f6b6457e08380a380f35b604051631e4fbdf760e01b815260048101849052602490fd5b5034610a0f5780600319360112610a0f57546040516001600160a01b039091168152602090f35b5034610a0f5780600319360112610a0f576112db61174a565b80546001600160a01b03198116825581906001600160a01b03167f8be0079c531659141344cd1fd0a4f28419497f9722a3daafe3b4186f6b6457e08280a380f35b5034610a0f5780600319360112610a0f576040517f00000000000000000000000000000000000000000000000000000000000000006001600160a01b03168152602090f35b5034610a0f5780600319360112610a0f576040517f00000000000000000000000000000000000000000000000000000000000000006001600160a01b03168152602090f35b5034610a0f5780600319360112610a0f576040517f00000000000000000000000000000000000000000000000000000000000000006001600160a01b03168152602090f35b5034610a0f5780600319360112610a0f576002546040516001600160a01b039091168152602090f35b905034610a16576040366003190112610a165761142f611668565b602480356001600160a01b038181169492939091859003610dbe57638da5cb5b60e01b835260209283816004817f000000000000000000000000000000000000000000000000000000000000000087165afa80156111cd578391889161164b575b501633036115f95716918285526001825260408520549081156115c057838652600183528560408120558315600014611541578580808085895af16114d3611943565b50156115085750907f5e110f8bc8a20b65dcc87f224bdf1cc039346e267118bae2739847f07321ffa8915b604051908152a380f35b8260136064926040519262461bcd60e51b8452600484015282015272115512081d1c985b9cd9995c8819985a5b1959606a1b6044820152fd5b6040519063a9059cbb60e01b8483015285818301528260448301526044825260808201908282106001600160401b038311176115ae57507f5e110f8bc8a20b65dcc87f224bdf1cc039346e267118bae2739847f07321ffa89392916115a99160405285611973565b6114fe565b634e487b7160e01b8852604160045287fd5b8260136064926040519262461bcd60e51b84526004840152820152724e6f206665657320746f20776974686472617760681b6044820152fd5b60405162461bcd60e51b8152600481018490526025818601527f4f6e6c792070726f746f636f6c206f776e65722063616e207769746864726177604482015264206665657360d81b6064820152608490fd5b6116629150853d8711610aa257610a9481836116c7565b38611490565b600435906001600160a01b038216820361167e57565b600080fd5b60c081019081106001600160401b0382111761169e57604052565b634e487b7160e01b600052604160045260246000fd5b6001600160401b03811161169e57604052565b90601f801991011681019081106001600160401b0382111761169e57604052565b6001600160401b03811161169e57601f01601f191660200190565b81601f8201121561167e5780359061171a826116e8565b9261172860405194856116c7565b8284526020838301011161167e57816000926020809301838601378301015290565b6000546001600160a01b0316330361175e57565b60405163118cdaa760e01b8152336004820152602490fd5b9081602091031261167e5751801515810361167e5790565b9081602091031261167e57516001600160a01b038116810361167e5790565b60005b8381106117c05750506000910152565b81810151838201526020016117b0565b81601f8201121561167e5780516117e6816116e8565b926117f460405194856116c7565b8184526020828401011161167e5761181291602080850191016117ad565b90565b9060209161182e815180928185528580860191016117ad565b601f01601f1916010190565b6118129160a06118a761189561188361187161185f875160c0885260c0880190611815565b60208801518782036020890152611815565b60408701518682036040880152611815565b60608601518582036060870152611815565b60808501518482036080860152611815565b9201519060a0818403910152611815565b6e5af43d82803e903d91602b57fd5bf390763d602d80600a3d3981f3363d3d373d3d3d363d7300000062ffffff8260881c161760005260781b17602052603760096000f0906001600160a01b0382161561190e57565b6040516330be1a3d60e21b8152600490fd5b9190820180921161192d57565b634e487b7160e01b600052601160045260246000fd5b3d1561196e573d90611954826116e8565b9161196260405193846116c7565b82523d6000602084013e565b606090565b60008061199c9260018060a01b03169360208151910182865af1611995611943565b90836119e5565b80519081151591826119ca575b50506119b25750565b60249060405190635274afe760e01b82526004820152fd5b6119dd9250602080918301019101611776565b1538806119a9565b90611a0c57508051156119fa57805190602001fd5b604051630a12f52160e11b8152600490fd5b81511580611a3f575b611a1d575090565b604051639996b31560e01b81526001600160a01b039091166004820152602490fd5b50803b15611a1556fea2646970667358221220fe7bebb1b4fc42efce8fe1407d46ad90f388745f17c94673b13600a2d7927b0964736f6c63430008140033",
  "linkReferences": {},
  "deployedLinkReferences": {}
}