{
  "_format": "hh-sol-artifact-1",
  "contractName": "WrappedSongFactory",
  "sourceName": "contracts/protocol/NonUpgradable/WrappedSongFactory.sol",
  "abi": [
    {
      "inputs": [],
      "stateMutability": "nonpayable",
      "type": "constructor"
    },
    {
      "inputs": [
        {
          "internalType": "address",
          "name": "target",
          "type": "address"
        }
      ],
      "name": "AddressEmptyCode",
      "type": "error"
    },
    {
      "inputs": [
        {
          "internalType": "address",
          "name": "account",
          "type": "address"
        }
      ],
      "name": "AddressInsufficientBalance",
      "type": "error"
    },
    {
      "inputs": [],
      "name": "ERC1167FailedCreateClone",
      "type": "error"
    },
    {
      "inputs": [],
      "name": "FailedInnerCall",
      "type": "error"
    },
    {
      "inputs": [
        {
          "internalType": "address",
          "name": "owner",
          "type": "address"
        }
      ],
      "name": "OwnableInvalidOwner",
      "type": "error"
    },
    {
      "inputs": [
        {
          "internalType": "address",
          "name": "account",
          "type": "address"
        }
      ],
      "name": "OwnableUnauthorizedAccount",
      "type": "error"
    },
    {
      "inputs": [
        {
          "internalType": "address",
          "name": "token",
          "type": "address"
        }
      ],
      "name": "SafeERC20FailedOperation",
      "type": "error"
    },
    {
      "inputs": [
        {
          "internalType": "uint256",
          "name": "value",
          "type": "uint256"
        },
        {
          "internalType": "uint256",
          "name": "length",
          "type": "uint256"
        }
      ],
      "name": "StringsInsufficientHexLength",
      "type": "error"
    },
    {
      "anonymous": false,
      "inputs": [
        {
          "indexed": true,
          "internalType": "address",
          "name": "wrappedSong",
          "type": "address"
        },
        {
          "indexed": true,
          "internalType": "address",
          "name": "token",
          "type": "address"
        },
        {
          "indexed": false,
          "internalType": "uint256",
          "name": "amount",
          "type": "uint256"
        }
      ],
      "name": "CreationFeeCollected",
      "type": "event"
    },
    {
      "anonymous": false,
      "inputs": [
        {
          "indexed": true,
          "internalType": "address",
          "name": "token",
          "type": "address"
        },
        {
          "indexed": true,
          "internalType": "address",
          "name": "recipient",
          "type": "address"
        },
        {
          "indexed": false,
          "internalType": "uint256",
          "name": "amount",
          "type": "uint256"
        }
      ],
      "name": "FeesWithdrawn",
      "type": "event"
    },
    {
      "anonymous": false,
      "inputs": [
        {
          "indexed": true,
          "internalType": "address",
          "name": "previousOwner",
          "type": "address"
        },
        {
          "indexed": true,
          "internalType": "address",
          "name": "newOwner",
          "type": "address"
        }
      ],
      "name": "OwnershipTransferred",
      "type": "event"
    },
    {
      "anonymous": false,
      "inputs": [
        {
          "indexed": true,
          "internalType": "address",
          "name": "oldModule",
          "type": "address"
        },
        {
          "indexed": true,
          "internalType": "address",
          "name": "newModule",
          "type": "address"
        }
      ],
      "name": "ProtocolModuleUpdated",
      "type": "event"
    },
    {
      "anonymous": false,
      "inputs": [
        {
          "indexed": true,
          "internalType": "address",
          "name": "oldTemplate",
          "type": "address"
        },
        {
          "indexed": true,
          "internalType": "address",
          "name": "newTemplate",
          "type": "address"
        }
      ],
      "name": "WSTokenTemplateUpdated",
      "type": "event"
    },
    {
      "anonymous": false,
      "inputs": [
        {
          "indexed": true,
          "internalType": "address",
          "name": "owner",
          "type": "address"
        },
        {
          "indexed": true,
          "internalType": "address",
          "name": "wrappedSongSmartAccount",
          "type": "address"
        },
        {
          "indexed": false,
          "internalType": "address",
          "name": "stablecoin",
          "type": "address"
        },
        {
          "indexed": false,
          "internalType": "address",
          "name": "wsTokenManagement",
          "type": "address"
        },
        {
          "indexed": false,
          "internalType": "uint256",
          "name": "sharesAmount",
          "type": "uint256"
        },
        {
          "components": [
            {
              "internalType": "string",
              "name": "name",
              "type": "string"
            },
            {
              "internalType": "string",
              "name": "description",
              "type": "string"
            },
            {
              "internalType": "string",
              "name": "image",
              "type": "string"
            },
            {
              "internalType": "string",
              "name": "externalUrl",
              "type": "string"
            },
            {
              "internalType": "string",
              "name": "animationUrl",
              "type": "string"
            },
            {
              "internalType": "string",
              "name": "attributesIpfsHash",
              "type": "string"
            }
          ],
          "indexed": false,
          "internalType": "struct IMetadataModule.Metadata",
          "name": "metadata",
          "type": "tuple"
        }
      ],
      "name": "WrappedSongCreated",
      "type": "event"
    },
    {
      "anonymous": false,
      "inputs": [
        {
          "indexed": true,
          "internalType": "address",
          "name": "oldWrappedSong",
          "type": "address"
        },
        {
          "indexed": true,
          "internalType": "address",
          "name": "newWrappedSong",
          "type": "address"
        },
        {
          "indexed": true,
          "internalType": "address",
          "name": "owner",
          "type": "address"
        },
        {
          "indexed": false,
          "internalType": "address",
          "name": "stablecoin",
          "type": "address"
        },
        {
          "indexed": false,
          "internalType": "address",
          "name": "wsTokenManagement",
          "type": "address"
        }
      ],
      "name": "WrappedSongMigrated",
      "type": "event"
    },
    {
      "anonymous": false,
      "inputs": [
        {
          "indexed": true,
          "internalType": "address",
          "name": "oldTemplate",
          "type": "address"
        },
        {
          "indexed": true,
          "internalType": "address",
          "name": "newTemplate",
          "type": "address"
        }
      ],
      "name": "WrappedSongTemplateUpdated",
      "type": "event"
    },
    {
      "inputs": [
        {
          "internalType": "address",
          "name": "",
          "type": "address"
        }
      ],
      "name": "accumulatedFees",
      "outputs": [
        {
          "internalType": "uint256",
          "name": "",
          "type": "uint256"
        }
      ],
      "stateMutability": "view",
      "type": "function"
    },
    {
      "inputs": [
        {
          "internalType": "address",
          "name": "_stablecoin",
          "type": "address"
        },
        {
          "components": [
            {
              "internalType": "string",
              "name": "name",
              "type": "string"
            },
            {
              "internalType": "string",
              "name": "description",
              "type": "string"
            },
            {
              "internalType": "string",
              "name": "image",
              "type": "string"
            },
            {
              "internalType": "string",
              "name": "externalUrl",
              "type": "string"
            },
            {
              "internalType": "string",
              "name": "animationUrl",
              "type": "string"
            },
            {
              "internalType": "string",
              "name": "attributesIpfsHash",
              "type": "string"
            }
          ],
          "internalType": "struct IMetadataModule.Metadata",
          "name": "songMetadata",
          "type": "tuple"
        },
        {
          "internalType": "uint256",
          "name": "sharesAmount",
          "type": "uint256"
        },
        {
          "internalType": "address",
          "name": "wsOwner",
          "type": "address"
        }
      ],
      "name": "createWrappedSong",
      "outputs": [
        {
          "internalType": "address",
          "name": "",
          "type": "address"
        }
      ],
      "stateMutability": "payable",
      "type": "function"
    },
    {
      "inputs": [
        {
          "internalType": "address",
          "name": "oldWrappedSong_",
          "type": "address"
        },
        {
          "internalType": "address",
          "name": "oldMetadataModule_",
          "type": "address"
        }
      ],
      "name": "migrateWrappedSong",
      "outputs": [
        {
          "internalType": "address",
          "name": "",
          "type": "address"
        }
      ],
      "stateMutability": "payable",
      "type": "function"
    },
    {
      "inputs": [],
      "name": "owner",
      "outputs": [
        {
          "internalType": "address",
          "name": "",
          "type": "address"
        }
      ],
      "stateMutability": "view",
      "type": "function"
    },
    {
      "inputs": [],
      "name": "protocolModule",
      "outputs": [
        {
          "internalType": "contract IProtocolModule",
          "name": "",
          "type": "address"
        }
      ],
      "stateMutability": "view",
      "type": "function"
    },
    {
      "inputs": [],
      "name": "registryModule",
      "outputs": [
        {
          "internalType": "contract IRegistryModule",
          "name": "",
          "type": "address"
        }
      ],
      "stateMutability": "view",
      "type": "function"
    },
    {
      "inputs": [],
      "name": "renounceOwnership",
      "outputs": [],
      "stateMutability": "nonpayable",
      "type": "function"
    },
    {
      "inputs": [
        {
          "internalType": "address",
          "name": "_newModule",
          "type": "address"
        }
      ],
      "name": "setProtocolModule",
      "outputs": [],
      "stateMutability": "nonpayable",
      "type": "function"
    },
    {
      "inputs": [
        {
          "internalType": "address",
          "name": "_newTemplate",
          "type": "address"
        }
      ],
      "name": "setWSTokenTemplate",
      "outputs": [],
      "stateMutability": "nonpayable",
      "type": "function"
    },
    {
      "inputs": [
        {
          "internalType": "address",
          "name": "_newTemplate",
          "type": "address"
        }
      ],
      "name": "setWrappedSongTemplate",
      "outputs": [],
      "stateMutability": "nonpayable",
      "type": "function"
    },
    {
      "inputs": [
        {
          "internalType": "address",
          "name": "newOwner",
          "type": "address"
        }
      ],
      "name": "transferOwnership",
      "outputs": [],
      "stateMutability": "nonpayable",
      "type": "function"
    },
    {
      "inputs": [
        {
          "internalType": "address",
          "name": "token",
          "type": "address"
        },
        {
          "internalType": "address",
          "name": "recipient",
          "type": "address"
        }
      ],
      "name": "withdrawAccumulatedFees",
      "outputs": [],
      "stateMutability": "nonpayable",
      "type": "function"
    },
    {
      "inputs": [],
      "name": "wrappedSongTemplate",
      "outputs": [
        {
          "internalType": "address",
          "name": "",
          "type": "address"
        }
      ],
      "stateMutability": "view",
      "type": "function"
    },
    {
      "inputs": [],
      "name": "wsTokenTemplate",
      "outputs": [
        {
          "internalType": "address",
          "name": "",
          "type": "address"
        }
      ],
      "stateMutability": "view",
      "type": "function"
    },
    {
      "stateMutability": "payable",
      "type": "receive"
    }
  ],
  "bytecode": "0x6080806040523461007a5733156100645760008054336001600160a01b03198216811783556040519290916001600160a01b0316907f8be0079c531659141344cd1fd0a4f28419497f9722a3daafe3b4186f6b6457e09080a361250e90816100808239f35b631e4fbdf760e01b815260006004820152602490fd5b600080fdfe6080604052600436101561001b575b361561001957600080fd5b005b6000803560e01c80632d7bb2d914611df1578063376c1f0714611bb05780633cd7bc9514611b875780633e22876b14611b5e5780635c42e66714611b355780635e63149f14611b0c578063715018a614611ab25780638da5cb5b14611a8b578063a859dcde146119d5578063d70a0abc1461107f578063dbe80e4b14610fc9578063f2fde38b14610f3e578063fcf6666414610f025763ff42536b146100c1575061000e565b600319608036820112610852576100d6611ea7565b602435916001600160401b0383116107fe5760c09083360301126107d2576040519161010183611ee6565b80600401356001600160401b038111610efe576101249060043691840101611f3d565b835260248101356001600160401b038111610efe576101499060043691840101611f3d565b602084015260448101356001600160401b038111610efe576101719060043691840101611f3d565b604084015260648101356001600160401b038111610efe576101999060043691840101611f3d565b606084015260848101356001600160401b038111610efe576101c19060043691840101611f3d565b608084015260a4810135906001600160401b038211610efe5760046101e99236920101611f3d565b60a08301526064356001600160a01b0381169003610b8057600154604051635c975abb60e01b81526001600160a01b0390911690602081600481855afa801561075a5761023e918691610edf575b5015611fc8565b825151151580610ed1575b80610ec3575b80610eb5575b15610e7d5760443515610e285760405163f140b55f60e01b8152336004820152602081602481855afa90811561075a578591610e09575b5015610dc55760405163b5af090f60e01b81526001600160a01b0383166004820152602081602481855afa90811561075a578591610da6575b5015610d615760206004916040519283809263670d296960e11b82525afa908115610796576004916020918691610d44575b50604051636d4726d960e01b815292839182906001600160a01b03165afa908115610796578491610d02575b5060405163a454912960e01b8152906020826004816001600160a01b0385165afa91821561075a578592610cce575b5060405163d579e3f360e01b81526020816004816001600160a01b0386165afa908115610a6a578691610c9f575b5082610861575b50506002548491506103a1906001600160a01b0316612234565b6001549093906001600160a01b039081169085163b156107d25760405163c0c53b8b60e01b81526001600160a01b0385811660048301526064803582166024840152928116604483015290918491839190829084908a165af190811561085657839161083e575b505060035461041f906001600160a01b0316612234565b6001549091906001600160a01b039081169083163b156107fe5760405163c0c53b8b60e01b81526001600160a01b03878116600483015260648035821660248401529281166044830152909185918391908290849088165af190811561079657849161082a575b50506001546001600160a01b0316803b156107fe5760405163d9ce7b9560e01b81526001600160a01b03841660048201529084908290602490829084905af1908115610796578491610816575b50506001546001600160a01b0316803b156107fe576040516208ac8360e01b81526001600160a01b038781166004830152841660248201529084908290604490829084905af1908115610796578491610802575b50506001546001600160a01b0316803b156107fe5760405160016216ef6160e31b031981526001600160a01b0360643581166004830152871660248201529084908290604490829084905af19081156107965784916107ea575b50506001600160a01b0385163b156107d25760405163716f6e8760e01b81526001600160a01b03838116600483015284908290602490829084908b165af19081156107965784916107d6575b50506001600160a01b0385163b156107d2576040516339fa62df60e01b815260443560048201528381602481836001600160a01b038b165af19081156107965784916107be575b505060015460405163670d296960e11b815290602090829060049082906001600160a01b03165afa9081156107965760049160209186916107a1575b50604051623684d160e81b815292839182906001600160a01b03165afa801561079657849261069e928492610765575b50604051958680948193636613680d60e01b83528b60048401612212565b03926001600160a01b03165af191821561075a578560209693610735575b5050604080516001600160a01b03948516815291841686830152604435908201526080606082018190528484169360643516927f938ece1ab5d508d56896411e3f1b2c96359f780ecbfe90c9a4031cd170aa4a4a9291829161072091830190612194565b0390a36040516001600160a01b039091168152f35b6107529293503d8091833e61074a8183611f01565b810190612090565b9038806106bc565b6040513d87823e3d90fd5b61078891925060203d60201161078f575b6107808183611f01565b810190612009565b9038610680565b503d610776565b6040513d86823e3d90fd5b6107b89150823d841161078f576107808183611f01565b38610650565b6107c790611ed3565b6107d2578238610614565b8280fd5b6107df90611ed3565b6107d25782386105cd565b6107f390611ed3565b6107d2578238610581565b8380fd5b61080b90611ed3565b6107d2578238610527565b61081f90611ed3565b6107d25782386104d3565b61083390611ed3565b6107d2578238610486565b61084790611ed3565b610852578138610408565b5080fd5b6040513d85823e3d90fd5b15610b8d576040516337a0a9e960e11b815290602090829060049082906001600160a01b03165afa90811561075a578591610b56575b5060015460405163670d296960e11b81526001600160a01b0390911691602082600481865afa918215610b2e576004926020918991610b39575b506040516309da4e5160e01b815293849182906001600160a01b03165afa918215610b2e578792610ae5575b50604051637c70c0a360e01b8152600481019190915290602090829060249082906001600160a01b03165afa908115610a6a578691610ac6575b506001600160a01b03811615610a75576020600492604051938480926331785eef60e11b82525afa918215610a6a578692610a49575b506040516323b872dd60e01b60208201523360248201526001600160a01b039092166044830152606480830184905282526001600160401b0360a0830190811190831117610a335760a0820160405285917fdd872ca9502e175165673833ac2a0e1395edb4b5c72f2915685598490c375e99916020916109f6906001600160a01b0383166122ef565b6001600160a01b038116845260048252604084208054610a1790879061229c565b90556040519485526001600160a01b031693a35b388080610387565b634e487b7160e01b600052604160045260246000fd5b610a6391925060203d60201161078f576107808183611f01565b903861096d565b6040513d88823e3d90fd5b60405162461bcd60e51b815260206004820152602360248201527f4e6f2077686974656c697374656420737461626c65636f696e20617661696c61604482015262626c6560e81b6064820152608490fd5b610adf915060203d60201161078f576107808183611f01565b38610937565b9091506020813d602011610b26575b81610b0160209383611f01565b81010312610b2257516001600160a01b0381168103610b22579060206108fd565b8680fd5b3d9150610af4565b6040513d89823e3d90fd5b610b509150823d841161078f576107808183611f01565b386108d1565b90506020813d602011610b85575b81610b7160209383611f01565b81010312610b80575138610897565b600080fd5b3d9150610b64565b50803410610c5a57838052600460205260408420610bac34825461229c565b9055803411610be8575b5082807fdd872ca9502e175165673833ac2a0e1395edb4b5c72f2915685598490c375e996020604051348152a3610a2b565b3403348111610c46578380808093335af1610c016122bf565b5015610c0d5738610bb6565b60405162461bcd60e51b8152602060048201526011602482015270115512081c99599d5b990819985a5b1959607a1b6044820152606490fd5b634e487b7160e01b84526011600452602484fd5b60405162461bcd60e51b815260206004820152601860248201527f496e636f7272656374204554482066656520616d6f756e7400000000000000006044820152606490fd5b610cc1915060203d602011610cc7575b610cb98183611f01565b810190611fb0565b38610380565b503d610caf565b9091506020813d602011610cfa575b81610cea60209383611f01565b81010312610b8057519038610352565b3d9150610cdd565b90506020813d602011610d3c575b81610d1d60209383611f01565b810103126107fe57516001600160a01b03811681036107fe5738610323565b3d9150610d10565b610d5b9150823d841161078f576107808183611f01565b386102f7565b60405162461bcd60e51b815260206004820152601d60248201527f537461626c65636f696e206973206e6f742077686974656c69737465640000006044820152606490fd5b610dbf915060203d602011610cc757610cb98183611f01565b386102c5565b606460405162461bcd60e51b815260206004820152602060248201527f4e6f742076616c696420746f20637265617465205772617070656420536f6e676044820152fd5b610e22915060203d602011610cc757610cb98183611f01565b3861028c565b60405162461bcd60e51b815260206004820152602760248201527f53686172657320616d6f756e74206d7573742062652067726561746572207468604482015266616e207a65726f60c81b6064820152608490fd5b60405162461bcd60e51b815260206004820152601060248201526f496e76616c6964206d6574616461746160801b6044820152606490fd5b5060a0830151511515610255565b50608083015151151561024f565b506040830151511515610249565b610ef8915060203d602011610cc757610cb98183611f01565b38610237565b8480fd5b5034610f3b576020366003190112610f3b576020906040906001600160a01b03610f2a611ea7565b168152600483522054604051908152f35b80fd5b5034610f3b576020366003190112610f3b57610f58611ea7565b610f60611f84565b6001600160a01b03908116908115610fb057600054826001600160601b0360a01b821617600055167f8be0079c531659141344cd1fd0a4f28419497f9722a3daafe3b4186f6b6457e0600080a380f35b604051631e4fbdf760e01b815260048101849052602490fd5b5034610f3b576020366003190112610f3b57610fe3611ea7565b610feb611f84565b6001600160a01b0390811690811561103a57600354826001600160601b0360a01b821617600355167f4388d587c20200b8f796e02c528de3252df8a630e8c0c69d15420117e7264fa08380a380f35b60405162461bcd60e51b815260206004820152601960248201527f496e76616c696420575320746f6b656e2074656d706c617465000000000000006044820152606490fd5b506040366003190112610f3b57611094611ea7565b61109c611ebd565b906001600160a01b03811615611990576001600160a01b0382161561194b5760015460405163670d296960e11b815291906001600160a01b0316602083600481845afa92831561075a57600493602091879161192e575b50604051623684d160e81b815294859182906001600160a01b03165afa92831561075a57859361190d575b506040516301a4e6dd60e51b81526001600160a01b03838116600483015286908290602490829089165afa908115610a6a5786916118f3575b5051511561189357602060049160405192838092635c975abb60e01b82525afa801561075a5761118e918691610edf575015611fc8565b604051638da5cb5b60e01b81526020816004816001600160a01b0386165afa90811561075a578591611874575b506111c5336123c4565b90611248603f6111d4836123c4565b936040519485917f496e76616c6964206f776e65722e2045787065637465643a20000000000000006020840152611215815180926020603987019101612028565b82016501023b7ba1d160d51b60398201526112398251809360208785019101612028565b0103601f810185520183611f01565b336001600160a01b039091160361184c5750604051630b19e31960e21b81526020816004816001600160a01b0386165afa90811561075a57859161182d575b506117f0576040516374e5ec1160e11b81526020816004816001600160a01b0386165afa90811561075a5785916117ae575b50604051636fad7e9560e11b8152926020846004816001600160a01b0387165afa938415610a6a57869461178d575b506001600160a01b038416156117485760025461130d906001600160a01b0316612234565b6001549095906001600160a01b0390811690889088163b15610f3b5760405163c0c53b8b60e01b81526001600160a01b03868116600483015233602483015290921660448301528180606481010381836001600160a01b038c165af1801561173d5761172a575b506001548791906001600160a01b0316803b156107d25760405163d9ce7b9560e01b81526001600160a01b03881660048201529083908290602490829084905af1908115610856578391611716575b50506001546001600160a01b0316803b156107d2576040516208ac8360e01b81526001600160a01b038981166004830152881660248201529083908290604490829084905af1908115610856578391611702575b50506001546001600160a01b0316803b156107d25760405160016216ef6160e31b031981523360048201526001600160a01b03891660248201529083908290604490829084905af19081156108565783916116ee575b50506001600160a01b0387163b156108525760405163716f6e8760e01b81526001600160a01b03878116600483015283908290602490829084908d165af19081156108565783916116da575b506040516301a4e6dd60e51b81526001600160a01b038781166004830152909283916024918391165afa9081156116cf5782916116b5575b5060015460405163670d296960e11b815290602090829060049082906001600160a01b03165afa908115610856576004916020918591611698575b50604051623684d160e81b815292839182906001600160a01b03165afa801561085657839261157a928492611677575b50604051948580948193636613680d60e01b83528d60048401612212565b03926001600160a01b03165af18015610b2e5761165d575b50856001600160a01b0384163b15610f3b576040516335c282af60e21b81526001600160a01b03928316600482015291861660248301528180604481010381836001600160a01b0388165af18015610a6a57611649575b50604080516001600160a01b0392831681529382166020808601919091529550339385831693909216917fc42cdc1cea8afc407ec500712a997b1d17d698ae57762e29810084b83a295a549190a46040516001600160a01b039091168152f35b6116538691611ed3565b610efe57846115e9565b611670903d8089833e61074a8183611f01565b5038611592565b61169191925060203d60201161078f576107808183611f01565b903861155c565b6116af9150823d841161078f576107808183611f01565b3861152c565b6116c991503d8084833e61074a8183611f01565b386114f1565b6040513d84823e3d90fd5b6116e390611ed3565b6108525781386114b9565b6116f790611ed3565b61085257813861146d565b61170b90611ed3565b610852578138611417565b61171f90611ed3565b6108525781386113c3565b61173690979197611ed3565b9538611374565b6040513d8a823e3d90fd5b60405162461bcd60e51b815260206004820152601760248201527f496e76616c6964205753546f6b656e20616464726573730000000000000000006044820152606490fd5b6117a791945060203d60201161078f576107808183611f01565b92386112e8565b90506020813d6020116117e8575b816117c960209383611f01565b81010312610efe57516001600160a01b0381168103610efe57386112b9565b3d91506117bc565b60405162461bcd60e51b815260206004820152601560248201527414dbdb99c8185b1c9958591e481b5a59dc985d1959605a1b6044820152606490fd5b611846915060203d602011610cc757610cb98183611f01565b38611287565b60405162461bcd60e51b81526020600482015290819061187090602483019061216f565b0390fd5b61188d915060203d60201161078f576107808183611f01565b386111bb565b60405162461bcd60e51b815260206004820152603260248201527f5772617070656420736f6e6720646f6573206e6f7420657869737420696e206f6044820152716c64206d65746164617461206d6f64756c6560701b6064820152608490fd5b61190791503d8088833e61074a8183611f01565b38611157565b61192791935060203d60201161078f576107808183611f01565b913861111e565b6119459150823d841161078f576107808183611f01565b386110f3565b60405162461bcd60e51b815260206004820152601f60248201527f496e76616c6964206d65746164617461206d6f64756c652061646472657373006044820152606490fd5b60405162461bcd60e51b815260206004820152601c60248201527f496e76616c6964207772617070656420736f6e672061646472657373000000006044820152606490fd5b5034610f3b576020366003190112610f3b576119ef611ea7565b6119f7611f84565b6001600160a01b03908116908115611a4657600154826001600160601b0360a01b821617600155167ffaee52155b4cd55f9c492ff3526c7bf5776d03bbde330f67dedcab16544242f68380a380f35b60405162461bcd60e51b815260206004820152601760248201527f496e76616c69642070726f746f636f6c206d6f64756c650000000000000000006044820152606490fd5b5034610f3b5780600319360112610f3b57546040516001600160a01b039091168152602090f35b5034610f3b5780600319360112610f3b57611acb611f84565b80546001600160a01b03198116825581906001600160a01b03167f8be0079c531659141344cd1fd0a4f28419497f9722a3daafe3b4186f6b6457e08280a380f35b5034610f3b5780600319360112610f3b576003546040516001600160a01b039091168152602090f35b5034610f3b5780600319360112610f3b576001546040516001600160a01b039091168152602090f35b5034610f3b5780600319360112610f3b576002546040516001600160a01b039091168152602090f35b5034610f3b5780600319360112610f3b576005546040516001600160a01b039091168152602090f35b5034610f3b576040366003190112610f3b57611bca611ea7565b611bd2611ebd565b600154604051638da5cb5b60e01b815291926001600160a01b039260209283908290600490829088165afa8015610a6a5784918791611dd4575b50163303611d8157821691828552600482526040852054938415611d4657838652600483528560408120558315600014611cc45785808080888686165af1611c526122bf565b5015611c8957907f5e110f8bc8a20b65dcc87f224bdf1cc039346e267118bae2739847f07321ffa892915b6040519586521693a380f35b60405162461bcd60e51b8152600481018490526013602482015272115512081d1c985b9cd9995c8819985a5b1959606a1b6044820152606490fd5b60405163a9059cbb60e01b84820152818316602482015260448082018790528152608081016001600160401b03811182821017611d32577f5e110f8bc8a20b65dcc87f224bdf1cc039346e267118bae2739847f07321ffa894939291611d2d91604052866122ef565b611c7d565b634e487b7160e01b88526041600452602488fd5b60405162461bcd60e51b81526004810184905260136024820152724e6f206665657320746f20776974686472617760681b6044820152606490fd5b60405162461bcd60e51b815260048101839052602560248201527f4f6e6c792070726f746f636f6c206f776e65722063616e207769746864726177604482015264206665657360d81b6064820152608490fd5b611deb9150843d861161078f576107808183611f01565b38611c0c565b5034610f3b576020366003190112610f3b57611e0b611ea7565b611e13611f84565b6001600160a01b03908116908115611e6257600254826001600160601b0360a01b821617600255167fc1772ace785c306bda2a481fbcb0fd2ad755a998ef1c516d5cb999dced038fc78380a380f35b60405162461bcd60e51b815260206004820152601d60248201527f496e76616c6964207772617070656420736f6e672074656d706c6174650000006044820152606490fd5b600435906001600160a01b0382168203610b8057565b602435906001600160a01b0382168203610b8057565b6001600160401b038111610a3357604052565b60c081019081106001600160401b03821117610a3357604052565b90601f801991011681019081106001600160401b03821117610a3357604052565b6001600160401b038111610a3357601f01601f191660200190565b81601f82011215610b8057803590611f5482611f22565b92611f626040519485611f01565b82845260208383010111610b8057816000926020809301838601378301015290565b6000546001600160a01b03163303611f9857565b60405163118cdaa760e01b8152336004820152602490fd5b90816020910312610b8057518015158103610b805790565b15611fcf57565b60405162461bcd60e51b8152602060048201526012602482015271141c9bdd1bd8dbdb081a5cc81c185d5cd95960721b6044820152606490fd5b90816020910312610b8057516001600160a01b0381168103610b805790565b60005b83811061203b5750506000910152565b818101518382015260200161202b565b81601f82011215610b8057805161206181611f22565b9261206f6040519485611f01565b81845260208284010111610b805761208d9160208085019101612028565b90565b90602082820312610b805781516001600160401b0392838211610b8057019060c082820312610b8057604051926120c684611ee6565b8251818111610b8057826120db91850161204b565b84526020830151818111610b8057826120f591850161204b565b60208501526040830151818111610b80578261211291850161204b565b60408501526060830151818111610b80578261212f91850161204b565b60608501526080830151818111610b80578261214c91850161204b565b608085015260a0830151908111610b8057612167920161204b565b60a082015290565b9060209161218881518092818552858086019101612028565b601f01601f1916010190565b61208d9160a06122016121ef6121dd6121cb6121b9875160c0885260c088019061216f565b6020880151878203602089015261216f565b6040870151868203604088015261216f565b6060860151858203606087015261216f565b6080850151848203608086015261216f565b9201519060a081840391015261216f565b6001600160a01b03909116815260406020820181905261208d92910190612194565b6e5af43d82803e903d91602b57fd5bf390763d602d80600a3d3981f3363d3d373d3d3d363d7300000062ffffff8260881c161760005260781b17602052603760096000f0906001600160a01b0382161561228a57565b6040516330be1a3d60e21b8152600490fd5b919082018092116122a957565b634e487b7160e01b600052601160045260246000fd5b3d156122ea573d906122d082611f22565b916122de6040519384611f01565b82523d6000602084013e565b606090565b6000806123189260018060a01b03169360208151910182865af16123116122bf565b9083612361565b8051908115159182612346575b505061232e5750565b60249060405190635274afe760e01b82526004820152fd5b6123599250602080918301019101611fb0565b153880612325565b90612388575080511561237657805190602001fd5b604051630a12f52160e11b8152600490fd5b815115806123bb575b612399575090565b604051639996b31560e01b81526001600160a01b039091166004820152602490fd5b50803b15612391565b604051906001600160a01b031680606083016001600160401b03811184821017610a3357604052602a8352602080840160403682378451156124c257603090538351906001918210156124c25790607860218601536029915b81831161244e5750505061242f575090565b6044906040519063e22e27eb60e01b8252600482015260146024820152fd5b909192600f811660108110156124ad5786518510156124ad576f181899199a1a9b1b9c1cb0b131b232b360811b901a86850183015360041c9280156124985760001901919061241d565b60246000634e487b7160e01b81526011600452fd5b60246000634e487b7160e01b81526032600452fd5b634e487b7160e01b600052603260045260246000fdfea2646970667358221220fdc1666929ad07c068f6568d08688ef3a852ce38dd1f28149642828476c8974a64736f6c63430008140033",
  "linkReferences": {},
  "deployedLinkReferences": {}
}