{
  "_format": "hh-sol-artifact-1",
  "contractName": "LegalContractMetadata",
  "sourceName": "contracts/protocol/NonUpgradable/LegalContractMetadata.sol",
  "abi": [
    {
      "inputs": [],
      "stateMutability": "nonpayable",
      "type": "constructor"
    },
    {
      "inputs": [
        {
          "internalType": "address",
          "name": "owner",
          "type": "address"
        }
      ],
      "name": "OwnableInvalidOwner",
      "type": "error"
    },
    {
      "inputs": [
        {
          "internalType": "address",
          "name": "account",
          "type": "address"
        }
      ],
      "name": "OwnableUnauthorizedAccount",
      "type": "error"
    },
    {
      "anonymous": false,
      "inputs": [
        {
          "indexed": true,
          "internalType": "address",
          "name": "wsToken",
          "type": "address"
        },
        {
          "indexed": true,
          "internalType": "uint256",
          "name": "tokenId",
          "type": "uint256"
        }
      ],
      "name": "LegalContractURIRemoved",
      "type": "event"
    },
    {
      "anonymous": false,
      "inputs": [
        {
          "indexed": true,
          "internalType": "address",
          "name": "wsToken",
          "type": "address"
        },
        {
          "indexed": true,
          "internalType": "uint256",
          "name": "tokenId",
          "type": "uint256"
        },
        {
          "indexed": false,
          "internalType": "string",
          "name": "newURI",
          "type": "string"
        }
      ],
      "name": "LegalContractURIUpdated",
      "type": "event"
    },
    {
      "anonymous": false,
      "inputs": [
        {
          "indexed": true,
          "internalType": "address",
          "name": "previousOwner",
          "type": "address"
        },
        {
          "indexed": true,
          "internalType": "address",
          "name": "newOwner",
          "type": "address"
        }
      ],
      "name": "OwnershipTransferred",
      "type": "event"
    },
    {
      "inputs": [
        {
          "internalType": "address",
          "name": "wsToken",
          "type": "address"
        },
        {
          "internalType": "uint256",
          "name": "tokenId",
          "type": "uint256"
        }
      ],
      "name": "getLegalContractURI",
      "outputs": [
        {
          "internalType": "string",
          "name": "",
          "type": "string"
        }
      ],
      "stateMutability": "view",
      "type": "function"
    },
    {
      "inputs": [],
      "name": "owner",
      "outputs": [
        {
          "internalType": "address",
          "name": "",
          "type": "address"
        }
      ],
      "stateMutability": "view",
      "type": "function"
    },
    {
      "inputs": [
        {
          "internalType": "address",
          "name": "wsToken",
          "type": "address"
        },
        {
          "internalType": "uint256",
          "name": "tokenId",
          "type": "uint256"
        }
      ],
      "name": "removeLegalContractURI",
      "outputs": [],
      "stateMutability": "nonpayable",
      "type": "function"
    },
    {
      "inputs": [],
      "name": "renounceOwnership",
      "outputs": [],
      "stateMutability": "nonpayable",
      "type": "function"
    },
    {
      "inputs": [
        {
          "internalType": "address",
          "name": "wsToken",
          "type": "address"
        },
        {
          "internalType": "uint256",
          "name": "tokenId",
          "type": "uint256"
        },
        {
          "internalType": "string",
          "name": "uri",
          "type": "string"
        }
      ],
      "name": "setLegalContractURI",
      "outputs": [],
      "stateMutability": "nonpayable",
      "type": "function"
    },
    {
      "inputs": [
        {
          "internalType": "address",
          "name": "newOwner",
          "type": "address"
        }
      ],
      "name": "transferOwnership",
      "outputs": [],
      "stateMutability": "nonpayable",
      "type": "function"
    }
  ],
  "bytecode": "0x6080806040523461007a5733156100645760008054336001600160a01b03198216811783556040519290916001600160a01b0316907f8be0079c531659141344cd1fd0a4f28419497f9722a3daafe3b4186f6b6457e09080a36107b190816100808239f35b631e4fbdf760e01b815260006004820152602490fd5b600080fdfe6040608081526004908136101561001557600080fd5b600091823560e01c8063715018a6146106055780637ab269dd146105305780638da5cb5b14610504578063ac4a627b14610397578063cc41947a146100ec5763f2fde38b1461006357600080fd5b346100e85760203660031901126100e85761007c610662565b906100856106fe565b6001600160a01b039182169283156100d257505082546001600160a01b0319811683178455167f8be0079c531659141344cd1fd0a4f28419497f9722a3daafe3b4186f6b6457e08380a380f35b51631e4fbdf760e01b8152908101849052602490fd5b8280fd5b5090346100e85760603660031901126100e857610107610662565b6024918235936044359367ffffffffffffffff90818611610393573660238701121561039357858301358281116103815784519589602098601f19936101548b86601f840116018b6106c6565b808a52368682840101116100e85780868c9301838c0137890101526001600160a01b03169633889003610334578651156102fd57878a52600192838252868b208a8c528252868b209588519586116102ec5750506101b2855461072a565b601f81116102b3575b508091601f851160011461022a5750509180807f28a3c634cc84178bfe2d7c1a045f8f98d5ab857bf10c6b09494130e5f401615a97959361021997958c9361021f575b501b916000199060031b1c19161790555b519182918261067d565b0390a380f35b8701519250386101fe565b84939492919216858b52828b20928b905b82821061029c5750509183917f28a3c634cc84178bfe2d7c1a045f8f98d5ab857bf10c6b09494130e5f401615a98969461021998969410610283575b5050811b01905561020f565b86015160001960f88460031b161c191690553880610277565b808785968294968d0151815501950193019061023b565b6102dc90868c52828c20601f870160051c8101918488106102e2575b601f0160051c0190610764565b386101bb565b90915081906102cf565b634e487b7160e01b8c52604190528afd5b8460138460649389519362461bcd60e51b8552840152820152725552492063616e6e6f7420626520656d70747960681b6044820152fd5b8460238460849389519362461bcd60e51b85528401528201527f4f6e6c79205753546f6b656e4d616e6167656d656e742063616e20736574205560448201526252497360e81b6064820152fd5b50634e487b7160e01b88526041835287fd5b8780fd5b5090346100e857806003193601126100e8576103b1610662565b602435926001600160a01b0390911691338390036104b2578285526020916001835281862085875283526103e78287205461072a565b1561047c575090849183835260018252808320858452825282209061040c825461072a565b908161043d575b505050807fe9699a91c2f62c1a4649f7ca6210666b26be172602126e7b607eee65186e606291a380f35b8390601f831160011461045857505050555b82388080610413565b838252812092909161047590601f0160051c840160018501610764565b555561044f565b82606492519162461bcd60e51b8352820152601260248201527115549248191bd95cc81b9bdd08195e1a5cdd60721b6044820152fd5b906020608492519162461bcd60e51b8352820152602660248201527f4f6e6c79205753546f6b656e4d616e6167656d656e742063616e2072656d6f7660448201526565205552497360d01b6064820152fd5b50503461052c578160031936011261052c57905490516001600160a01b039091168152602090f35b5080fd5b50503461052c578060031936011261052c576001600160a01b03610552610662565b1682526001906020828152818420602435855281528184208251938582549261057a8461072a565b808852938381169081156105e157506001146105a6575b6105a2878761020f828c03836106c6565b0390f35b9080949750528583205b8284106105ce57505050826105a29461020f92820101943880610591565b80548685018801529286019281016105b0565b60ff19168887015250505050151560051b830101925061020f826105a23880610591565b833461065f578060031936011261065f5761061e6106fe565b80546001600160a01b03198116825581906001600160a01b03167f8be0079c531659141344cd1fd0a4f28419497f9722a3daafe3b4186f6b6457e08280a380f35b80fd5b600435906001600160a01b038216820361067857565b600080fd5b6020808252825181830181905290939260005b8281106106b257505060409293506000838284010152601f8019910116010190565b818101860151848201604001528501610690565b90601f8019910116810190811067ffffffffffffffff8211176106e857604052565b634e487b7160e01b600052604160045260246000fd5b6000546001600160a01b0316330361071257565b60405163118cdaa760e01b8152336004820152602490fd5b90600182811c9216801561075a575b602083101461074457565b634e487b7160e01b600052602260045260246000fd5b91607f1691610739565b81811061076f575050565b6000815560010161076456fea26469706673582212200b1b8e30a5fa5ce60b01056d02f463189f1a783d1f2dacc7e65f68730c167ff564736f6c63430008140033",
  "linkReferences": {},
  "deployedLinkReferences": {}
}