{
  "_format": "hh-sol-artifact-1",
  "contractName": "WSTokenManagement",
  "sourceName": "contracts/protocol/NonUpgradable/WSTokenManagement.sol",
  "abi": [
    {
      "inputs": [],
      "stateMutability": "nonpayable",
      "type": "constructor"
    },
    {
      "inputs": [
        {
          "internalType": "address",
          "name": "sender",
          "type": "address"
        },
        {
          "internalType": "uint256",
          "name": "balance",
          "type": "uint256"
        },
        {
          "internalType": "uint256",
          "name": "needed",
          "type": "uint256"
        },
        {
          "internalType": "uint256",
          "name": "tokenId",
          "type": "uint256"
        }
      ],
      "name": "ERC1155InsufficientBalance",
      "type": "error"
    },
    {
      "inputs": [
        {
          "internalType": "address",
          "name": "approver",
          "type": "address"
        }
      ],
      "name": "ERC1155InvalidApprover",
      "type": "error"
    },
    {
      "inputs": [
        {
          "internalType": "uint256",
          "name": "idsLength",
          "type": "uint256"
        },
        {
          "internalType": "uint256",
          "name": "valuesLength",
          "type": "uint256"
        }
      ],
      "name": "ERC1155InvalidArrayLength",
      "type": "error"
    },
    {
      "inputs": [
        {
          "internalType": "address",
          "name": "operator",
          "type": "address"
        }
      ],
      "name": "ERC1155InvalidOperator",
      "type": "error"
    },
    {
      "inputs": [
        {
          "internalType": "address",
          "name": "receiver",
          "type": "address"
        }
      ],
      "name": "ERC1155InvalidReceiver",
      "type": "error"
    },
    {
      "inputs": [
        {
          "internalType": "address",
          "name": "sender",
          "type": "address"
        }
      ],
      "name": "ERC1155InvalidSender",
      "type": "error"
    },
    {
      "inputs": [
        {
          "internalType": "address",
          "name": "operator",
          "type": "address"
        },
        {
          "internalType": "address",
          "name": "owner",
          "type": "address"
        }
      ],
      "name": "ERC1155MissingApprovalForAll",
      "type": "error"
    },
    {
      "inputs": [],
      "name": "InvalidInitialization",
      "type": "error"
    },
    {
      "inputs": [],
      "name": "NotInitializing",
      "type": "error"
    },
    {
      "inputs": [
        {
          "internalType": "address",
          "name": "owner",
          "type": "address"
        }
      ],
      "name": "OwnableInvalidOwner",
      "type": "error"
    },
    {
      "inputs": [
        {
          "internalType": "address",
          "name": "account",
          "type": "address"
        }
      ],
      "name": "OwnableUnauthorizedAccount",
      "type": "error"
    },
    {
      "inputs": [],
      "name": "ReentrancyGuardReentrantCall",
      "type": "error"
    },
    {
      "anonymous": false,
      "inputs": [
        {
          "indexed": true,
          "internalType": "address",
          "name": "account",
          "type": "address"
        },
        {
          "indexed": true,
          "internalType": "address",
          "name": "operator",
          "type": "address"
        },
        {
          "indexed": false,
          "internalType": "bool",
          "name": "approved",
          "type": "bool"
        }
      ],
      "name": "ApprovalForAll",
      "type": "event"
    },
    {
      "anonymous": false,
      "inputs": [
        {
          "indexed": true,
          "internalType": "uint256",
          "name": "amount",
          "type": "uint256"
        },
        {
          "indexed": true,
          "internalType": "address",
          "name": "recipient",
          "type": "address"
        }
      ],
      "name": "BuyoutTokenCreated",
      "type": "event"
    },
    {
      "anonymous": false,
      "inputs": [
        {
          "indexed": false,
          "internalType": "uint64",
          "name": "version",
          "type": "uint64"
        }
      ],
      "name": "Initialized",
      "type": "event"
    },
    {
      "anonymous": false,
      "inputs": [
        {
          "indexed": true,
          "internalType": "uint256",
          "name": "tokenId",
          "type": "uint256"
        },
        {
          "indexed": true,
          "internalType": "address",
          "name": "recipient",
          "type": "address"
        },
        {
          "indexed": false,
          "internalType": "string",
          "name": "contractURI",
          "type": "string"
        }
      ],
      "name": "LegalContractCreated",
      "type": "event"
    },
    {
      "anonymous": false,
      "inputs": [
        {
          "indexed": true,
          "internalType": "address",
          "name": "previousOwner",
          "type": "address"
        },
        {
          "indexed": true,
          "internalType": "address",
          "name": "newOwner",
          "type": "address"
        }
      ],
      "name": "OwnershipTransferred",
      "type": "event"
    },
    {
      "anonymous": false,
      "inputs": [
        {
          "indexed": true,
          "internalType": "uint256",
          "name": "sharesAmount",
          "type": "uint256"
        },
        {
          "indexed": true,
          "internalType": "address",
          "name": "minter",
          "type": "address"
        }
      ],
      "name": "SongSharesCreated",
      "type": "event"
    },
    {
      "anonymous": false,
      "inputs": [
        {
          "indexed": true,
          "internalType": "address",
          "name": "operator",
          "type": "address"
        },
        {
          "indexed": true,
          "internalType": "address",
          "name": "from",
          "type": "address"
        },
        {
          "indexed": true,
          "internalType": "address",
          "name": "to",
          "type": "address"
        },
        {
          "indexed": false,
          "internalType": "uint256[]",
          "name": "ids",
          "type": "uint256[]"
        },
        {
          "indexed": false,
          "internalType": "uint256[]",
          "name": "values",
          "type": "uint256[]"
        }
      ],
      "name": "TransferBatch",
      "type": "event"
    },
    {
      "anonymous": false,
      "inputs": [
        {
          "indexed": true,
          "internalType": "address",
          "name": "operator",
          "type": "address"
        },
        {
          "indexed": true,
          "internalType": "address",
          "name": "from",
          "type": "address"
        },
        {
          "indexed": true,
          "internalType": "address",
          "name": "to",
          "type": "address"
        },
        {
          "indexed": false,
          "internalType": "uint256",
          "name": "id",
          "type": "uint256"
        },
        {
          "indexed": false,
          "internalType": "uint256",
          "name": "value",
          "type": "uint256"
        }
      ],
      "name": "TransferSingle",
      "type": "event"
    },
    {
      "anonymous": false,
      "inputs": [
        {
          "indexed": false,
          "internalType": "string",
          "name": "value",
          "type": "string"
        },
        {
          "indexed": true,
          "internalType": "uint256",
          "name": "id",
          "type": "uint256"
        }
      ],
      "name": "URI",
      "type": "event"
    },
    {
      "anonymous": false,
      "inputs": [
        {
          "indexed": true,
          "internalType": "address",
          "name": "smartAccount",
          "type": "address"
        },
        {
          "indexed": true,
          "internalType": "address",
          "name": "minter",
          "type": "address"
        }
      ],
      "name": "WSTokensCreated",
      "type": "event"
    },
    {
      "inputs": [],
      "name": "BUYOUT_TOKEN_ID",
      "outputs": [
        {
          "internalType": "uint256",
          "name": "",
          "type": "uint256"
        }
      ],
      "stateMutability": "pure",
      "type": "function"
    },
    {
      "inputs": [],
      "name": "LEGAL_CONTRACT_START_ID",
      "outputs": [
        {
          "internalType": "uint256",
          "name": "",
          "type": "uint256"
        }
      ],
      "stateMutability": "pure",
      "type": "function"
    },
    {
      "inputs": [],
      "name": "SONG_CONCEPT_ID",
      "outputs": [
        {
          "internalType": "uint256",
          "name": "",
          "type": "uint256"
        }
      ],
      "stateMutability": "pure",
      "type": "function"
    },
    {
      "inputs": [],
      "name": "SONG_SHARES_ID",
      "outputs": [
        {
          "internalType": "uint256",
          "name": "",
          "type": "uint256"
        }
      ],
      "stateMutability": "pure",
      "type": "function"
    },
    {
      "inputs": [
        {
          "internalType": "address",
          "name": "account",
          "type": "address"
        },
        {
          "internalType": "uint256",
          "name": "id",
          "type": "uint256"
        }
      ],
      "name": "balanceOf",
      "outputs": [
        {
          "internalType": "uint256",
          "name": "",
          "type": "uint256"
        }
      ],
      "stateMutability": "view",
      "type": "function"
    },
    {
      "inputs": [
        {
          "internalType": "address",
          "name": "account",
          "type": "address"
        },
        {
          "internalType": "uint256",
          "name": "id",
          "type": "uint256"
        },
        {
          "internalType": "uint256",
          "name": "timestamp",
          "type": "uint256"
        }
      ],
      "name": "balanceOfAt",
      "outputs": [
        {
          "internalType": "uint256",
          "name": "",
          "type": "uint256"
        }
      ],
      "stateMutability": "view",
      "type": "function"
    },
    {
      "inputs": [
        {
          "internalType": "address[]",
          "name": "accounts",
          "type": "address[]"
        },
        {
          "internalType": "uint256[]",
          "name": "ids",
          "type": "uint256[]"
        }
      ],
      "name": "balanceOfBatch",
      "outputs": [
        {
          "internalType": "uint256[]",
          "name": "",
          "type": "uint256[]"
        }
      ],
      "stateMutability": "view",
      "type": "function"
    },
    {
      "inputs": [
        {
          "internalType": "uint256",
          "name": "amount",
          "type": "uint256"
        },
        {
          "internalType": "address",
          "name": "recipient",
          "type": "address"
        }
      ],
      "name": "createBuyoutToken",
      "outputs": [],
      "stateMutability": "nonpayable",
      "type": "function"
    },
    {
      "inputs": [
        {
          "internalType": "string",
          "name": "contractURI",
          "type": "string"
        }
      ],
      "name": "createLegalContract",
      "outputs": [
        {
          "internalType": "uint256",
          "name": "tokenId",
          "type": "uint256"
        }
      ],
      "stateMutability": "nonpayable",
      "type": "function"
    },
    {
      "inputs": [
        {
          "internalType": "uint256",
          "name": "sharesAmount",
          "type": "uint256"
        }
      ],
      "name": "createSongShares",
      "outputs": [],
      "stateMutability": "nonpayable",
      "type": "function"
    },
    {
      "inputs": [],
      "name": "currentLegalContractId",
      "outputs": [
        {
          "internalType": "uint256",
          "name": "",
          "type": "uint256"
        }
      ],
      "stateMutability": "view",
      "type": "function"
    },
    {
      "inputs": [
        {
          "internalType": "uint256",
          "name": "id",
          "type": "uint256"
        }
      ],
      "name": "exists",
      "outputs": [
        {
          "internalType": "bool",
          "name": "",
          "type": "bool"
        }
      ],
      "stateMutability": "view",
      "type": "function"
    },
    {
      "inputs": [
        {
          "internalType": "address",
          "name": "_smartAccount",
          "type": "address"
        },
        {
          "internalType": "address",
          "name": "_minterAddress",
          "type": "address"
        },
        {
          "internalType": "address",
          "name": "_protocolModuleAddress",
          "type": "address"
        }
      ],
      "name": "initialize",
      "outputs": [],
      "stateMutability": "nonpayable",
      "type": "function"
    },
    {
      "inputs": [
        {
          "internalType": "address",
          "name": "account",
          "type": "address"
        },
        {
          "internalType": "address",
          "name": "operator",
          "type": "address"
        }
      ],
      "name": "isApprovedForAll",
      "outputs": [
        {
          "internalType": "bool",
          "name": "",
          "type": "bool"
        }
      ],
      "stateMutability": "view",
      "type": "function"
    },
    {
      "inputs": [],
      "name": "legalContractMetadata",
      "outputs": [
        {
          "internalType": "address",
          "name": "",
          "type": "address"
        }
      ],
      "stateMutability": "view",
      "type": "function"
    },
    {
      "inputs": [],
      "name": "metadataModule",
      "outputs": [
        {
          "internalType": "address",
          "name": "",
          "type": "address"
        }
      ],
      "stateMutability": "view",
      "type": "function"
    },
    {
      "inputs": [
        {
          "internalType": "address",
          "name": "newMetadataAddress",
          "type": "address"
        },
        {
          "internalType": "address",
          "name": "newWrappedSongAddress",
          "type": "address"
        }
      ],
      "name": "migrateWrappedSong",
      "outputs": [],
      "stateMutability": "nonpayable",
      "type": "function"
    },
    {
      "inputs": [],
      "name": "owner",
      "outputs": [
        {
          "internalType": "address",
          "name": "",
          "type": "address"
        }
      ],
      "stateMutability": "view",
      "type": "function"
    },
    {
      "inputs": [],
      "name": "protocolModule",
      "outputs": [
        {
          "internalType": "address",
          "name": "",
          "type": "address"
        }
      ],
      "stateMutability": "view",
      "type": "function"
    },
    {
      "inputs": [],
      "name": "renounceOwnership",
      "outputs": [],
      "stateMutability": "nonpayable",
      "type": "function"
    },
    {
      "inputs": [
        {
          "internalType": "address",
          "name": "from",
          "type": "address"
        },
        {
          "internalType": "address",
          "name": "to",
          "type": "address"
        },
        {
          "internalType": "uint256[]",
          "name": "ids",
          "type": "uint256[]"
        },
        {
          "internalType": "uint256[]",
          "name": "values",
          "type": "uint256[]"
        },
        {
          "internalType": "bytes",
          "name": "data",
          "type": "bytes"
        }
      ],
      "name": "safeBatchTransferFrom",
      "outputs": [],
      "stateMutability": "nonpayable",
      "type": "function"
    },
    {
      "inputs": [
        {
          "internalType": "address",
          "name": "from",
          "type": "address"
        },
        {
          "internalType": "address",
          "name": "to",
          "type": "address"
        },
        {
          "internalType": "uint256",
          "name": "id",
          "type": "uint256"
        },
        {
          "internalType": "uint256",
          "name": "value",
          "type": "uint256"
        },
        {
          "internalType": "bytes",
          "name": "data",
          "type": "bytes"
        }
      ],
      "name": "safeTransferFrom",
      "outputs": [],
      "stateMutability": "nonpayable",
      "type": "function"
    },
    {
      "inputs": [
        {
          "internalType": "address",
          "name": "operator",
          "type": "address"
        },
        {
          "internalType": "bool",
          "name": "approved",
          "type": "bool"
        }
      ],
      "name": "setApprovalForAll",
      "outputs": [],
      "stateMutability": "nonpayable",
      "type": "function"
    },
    {
      "inputs": [
        {
          "internalType": "bytes4",
          "name": "interfaceId",
          "type": "bytes4"
        }
      ],
      "name": "supportsInterface",
      "outputs": [
        {
          "internalType": "bool",
          "name": "",
          "type": "bool"
        }
      ],
      "stateMutability": "view",
      "type": "function"
    },
    {
      "inputs": [],
      "name": "totalShares",
      "outputs": [
        {
          "internalType": "uint256",
          "name": "",
          "type": "uint256"
        }
      ],
      "stateMutability": "view",
      "type": "function"
    },
    {
      "inputs": [],
      "name": "totalSupply",
      "outputs": [
        {
          "internalType": "uint256",
          "name": "",
          "type": "uint256"
        }
      ],
      "stateMutability": "view",
      "type": "function"
    },
    {
      "inputs": [
        {
          "internalType": "uint256",
          "name": "id",
          "type": "uint256"
        }
      ],
      "name": "totalSupply",
      "outputs": [
        {
          "internalType": "uint256",
          "name": "",
          "type": "uint256"
        }
      ],
      "stateMutability": "view",
      "type": "function"
    },
    {
      "inputs": [
        {
          "internalType": "address",
          "name": "newOwner",
          "type": "address"
        }
      ],
      "name": "transferOwnership",
      "outputs": [],
      "stateMutability": "nonpayable",
      "type": "function"
    },
    {
      "inputs": [
        {
          "internalType": "uint256",
          "name": "tokenId",
          "type": "uint256"
        }
      ],
      "name": "uri",
      "outputs": [
        {
          "internalType": "string",
          "name": "",
          "type": "string"
        }
      ],
      "stateMutability": "view",
      "type": "function"
    }
  ],
  "bytecode": "0x608034620001e95760208101906001600160401b039081831181841017620001d357604092835260008091526002546001908181811c91168015620001c8575b6020821014620001b457601f811162000166575b508160025533156200014e5760058054336001600160a01b0319821681179092558551936001600160a01b03909116907f8be0079c531659141344cd1fd0a4f28419497f9722a3daafe3b4186f6b6457e09080a36006556003600b557ff0c57e16840df040f15088dc2f81fe391c3923bec73e23a9662efc9c229c6a009182549160ff83861c166200013f57508080831603620000fa575b83516126129081620001ef8239f35b6001600160401b0319909116811790915581519081527fc7f505b2f371ae2175ee4913f4499e1f2633a7b5936321eed1cdaeb6115181d290602090a1388080620000eb565b63f92ee8a960e01b8152600490fd5b8351631e4fbdf760e01b815260048101839052602490fd5b60028352601f0160051c7f405787fa12a823e0f2b7631cc41b3ba8828b3321ca811111fa75cd3aa3bb5ace9081019082905b828110620001a857505062000053565b84815501829062000198565b634e487b7160e01b83526022600452602483fd5b90607f16906200003f565b634e487b7160e01b600052604160045260246000fd5b600080fdfe6080604052600436101561001257600080fd5b60003560e01c8062fdd58e146101e657806301ffc9a7146101e15780630c8a2f3a146101dc5780630e89341c146101d757806312cf3bc1146101d257806318160ddd146101cd5780632eb2c2d6146101c85780633684d100146101c35780633704934e146101be57806339fa62df146101b95780633a98ef39146101b457806344e5b243146101af5780634e1273f4146101aa5780634f558e79146101a55780635c42e667146101a0578063626da0681461019b578063715018a6146101965780638da5cb5b146101915780639d3bc4bd1461018c578063a22cb46514610187578063bcb7130d14610182578063bd85b0391461017d578063c0c53b8b14610178578063d44e135514610173578063d70a0abc1461016e578063dbd15d5314610169578063e985e9c514610164578063f242432a1461015f5763f2fde38b1461015a57600080fd5b611109565b610fe3565b610f99565b610f70565b610f2d565b610eea565b610da0565b610d76565b610bd3565b610b13565b6109da565b6109b1565b610950565b610919565b6108f0565b6108bc565b610800565b61079f565b610781565b61068e565b610672565b610649565b61051b565b6103a8565b61038c565b610355565b6102dd565b610264565b610201565b6001600160a01b038116036101fc57565b600080fd5b346101fc5760403660031901126101fc576020610249600435610223816101eb565b6024356000526000835260406000209060018060a01b0316600052602052604060002090565b54604051908152f35b6001600160e01b03198116036101fc57565b346101fc5760203660031901126101fc57602060043561028381610252565b63ffffffff60e01b16636cdb3d1360e11b81149081156102c1575b81156102b0575b506040519015158152f35b6301ffc9a760e01b149050386102a5565b6303a24d0760e21b8114915061029e565b60009103126101fc57565b346101fc5760003660031901126101fc57602060405160018152f35b60005b83811061030c5750506000910152565b81810151838201526020016102fc565b90602091610335815180928185528580860191016102f9565b601f01601f1916010190565b90602061035292818152019061031c565b90565b346101fc5760203660031901126101fc57610388610374600435611cb5565b60405191829160208352602083019061031c565b0390f35b346101fc5760003660031901126101fc57602060405160028152f35b346101fc5760003660031901126101fc576020600454604051908152f35b634e487b7160e01b600052604160045260246000fd5b67ffffffffffffffff81116103f057604052565b6103c6565b90601f8019910116810190811067ffffffffffffffff8211176103f057604052565b604051906040820182811067ffffffffffffffff8211176103f057604052565b67ffffffffffffffff81116103f05760051b60200190565b81601f820112156101fc5780359161046683610437565b9261047460405194856103f5565b808452602092838086019260051b8201019283116101fc578301905b82821061049e575050505090565b81358152908301908301610490565b67ffffffffffffffff81116103f057601f01601f191660200190565b9291926104d5826104ad565b916104e360405193846103f5565b8294818452818301116101fc578281602093846000960137010152565b9080601f830112156101fc57816020610352933591016104c9565b346101fc5760a03660031901126101fc5760048035610539816101eb565b602435610545816101eb565b67ffffffffffffffff906044358281116101fc57610566903690860161044f565b906064358381116101fc5761057e903690870161044f565b926084359081116101fc576105969036908701610500565b936001600160a01b03808216903382141580610625575b6105f8578316156105e057156105c9576105c7955061145b565b005b604051626a0d4560e21b8152600081880152602490fd5b604051632bfa23e760e11b8152600081890152602490fd5b6040805163711bec9160e11b815233818b019081526001600160a01b038616602082015290918291010390fd5b50600082815260016020908152604080832033845290915290205460ff16156105ad565b346101fc5760003660031901126101fc57600c546040516001600160a01b039091168152602090f35b346101fc5760003660031901126101fc57602060405160038152f35b346101fc5760203660031901126101fc576004356106aa61115f565b6000906001825260096020526106c760ff60408420541615611dba565b6001825260036020526106de604083205415611e06565b6106e9811515611e4b565b600854610708906001600160a01b031682610702611684565b91611b18565b61071181600a55565b6001600052600960205261074d7f92e85d02570a8092d09a6e3a57665bc3815a2699a4074001bf1ccabf660f5a365b805460ff19166001179055565b6008546001600160a01b0316907fc53a9715662d7ec2ce49f727e6848218feaa7e34a038a690b7ba30eddd57f8678380a380f35b346101fc5760003660031901126101fc576020600a54604051908152f35b346101fc5760003660031901126101fc57602060405160008152f35b90815180825260208080930193019160005b8281106107db575050505090565b8351855293810193928101926001016107cd565b9060206103529281815201906107bb565b346101fc5760403660031901126101fc5760043567ffffffffffffffff8082116101fc57366023830112156101fc57816004013561083d81610437565b9261084b60405194856103f5565b81845260209160248386019160051b830101913683116101fc57602401905b8282106108a357856024358681116101fc576103889161089161089792369060040161044f565b90611256565b604051918291826107ef565b83809183356108b1816101eb565b81520191019061086a565b346101fc5760203660031901126101fc5760206108e6600435600052600360205260406000205490565b1515604051908152f35b346101fc5760003660031901126101fc57600d546040516001600160a01b039091168152602090f35b346101fc5760603660031901126101fc57602061094860043561093b816101eb565b6044359060243590611fd4565b604051908152f35b346101fc576000806003193601126109ae5761096a61115f565b600580546001600160a01b0319811690915581906001600160a01b03167f8be0079c531659141344cd1fd0a4f28419497f9722a3daafe3b4186f6b6457e08280a380f35b80fd5b346101fc5760003660031901126101fc576005546040516001600160a01b039091168152602090f35b346101fc5760403660031901126101fc576004356024356109fa816101eb565b610a0261115f565b600091600283526009602052610a1f60ff60408520541615611dba565b8015610add576001600160a01b03821691610a8390610a3f841515611e8f565b60026000526003602052610a747fc3a24b0501bd2c13a7e57f2db4369ec4c223447539fc0724a9d55ac4a06ebd4d5415611ecf565b82610a7d611684565b91611b58565b60026000526009602052610ab67f6cde3cea4b3a3fb2488b2808bae7556f4a405e50f65e1794383bc026131b13c3610740565b7f96d71a0c03c06cdc81229ab0993b00dca24c87dc95e0dc13ded5a1ec0c4252618380a380f35b60405162461bcd60e51b815260206004820152600e60248201526d125b9d985b1a5908185b5bdd5b9d60921b6044820152606490fd5b346101fc5760403660031901126101fc57600435610b30816101eb565b60243590811515908183036101fc576001600160a01b038116928315610bbb57610b7c610b8d9233600052600160205260406000209060018060a01b0316600052602052604060002090565b9060ff801983541691151516179055565b6040519081527f17307eab39ab6107e8899845ad3d59bd9653f200f220920489ca2b5937696c3160203392a3005b60405162ced3e160e81b815260006004820152602490fd5b346101fc5760203660031901126101fc5760043567ffffffffffffffff81116101fc57366023820112156101fc57610c159036906024816004013591016104c9565b610c1d61115f565b610c2981511515611f1b565b600b54610c3d610c3882611213565b600b55565b610c6a610c65610c61610c5a846000526009602052604060002090565b5460ff1690565b1590565b611dba565b600554610c89906001600160a01b031682610c83611684565b91611b96565b600e54610cac90610ca0906001600160a01b031681565b6001600160a01b031690565b91823b156101fc5760006040518094636620ca3d60e11b8252818381610cd787893060048501611f55565b03925af1928315610d715761038893610d58575b50610d03610740836000526009602052604060002090565b6005546040516001600160a01b039091169183917fc8106359c4b5a0021ebb0e829775b183e6642e6efa542778545141f4cf91ddf8918190610d459082610341565b0390a36040519081529081906020820190565b80610d65610d6b926103dc565b806102d2565b38610ceb565b611678565b346101fc5760203660031901126101fc576020610948600435600052600360205260406000205490565b346101fc5760603660031901126101fc57600435610dbd816101eb565b60243590610dca826101eb565b604435610dd6816101eb565b6000805160206125bd833981519152549267ffffffffffffffff60ff8560401c1615941680159081610ee2575b6001149081610ed8575b159081610ecf575b50610ebd576000805160206125bd833981519152805467ffffffffffffffff19166001179055610e499284610e985761196a565b610e4f57005b6000805160206125bd833981519152805460ff60401b19169055604051600181527fc7f505b2f371ae2175ee4913f4499e1f2633a7b5936321eed1cdaeb6115181d290602090a1005b6000805160206125bd833981519152805460ff60401b1916600160401b17905561196a565b60405163f92ee8a960e01b8152600490fd5b90501538610e15565b303b159150610e0d565b859150610e03565b346101fc5760003660031901126101fc576020600b54604051908152f35b60409060031901126101fc57600435610f20816101eb565b90602435610352816101eb565b346101fc57610f4e610f3e36610f08565b610f4992919261115f565b61118b565b600c80546001600160a01b0319166001600160a01b0392909216919091179055005b346101fc5760003660031901126101fc57600e546040516001600160a01b039091168152602090f35b346101fc57602060ff610fd7610fae36610f08565b6001600160a01b0391821660009081526001865260408082209290931681526020919091522090565b54166040519015158152f35b346101fc5760a03660031901126101fc57600435611000816101eb565b60243561100c816101eb565b60843567ffffffffffffffff81116101fc5761102c903690600401610500565b906001600160a01b038381169033821415806110e5575b6110be578216156110a5571561108d576105c7926110856064356044359160405192600184526020840152604083019160018352606084015260808301604052565b92909161145b565b604051626a0d4560e21b815260006004820152602490fd5b604051632bfa23e760e11b815260006004820152602490fd5b60405163711bec9160e11b81523360048201526001600160a01b0386166024820152604490fd5b50600082815260016020908152604080832033845290915290205460ff1615611043565b346101fc5760203660031901126101fc57600435611126816101eb565b61112e61115f565b6001600160a01b03811615611146576105c79061118b565b604051631e4fbdf760e01b815260006004820152602490fd5b6005546001600160a01b0316330361117357565b60405163118cdaa760e01b8152336004820152602490fd5b600580546001600160a01b039283166001600160a01b0319821681179092559091167f8be0079c531659141344cd1fd0a4f28419497f9722a3daafe3b4186f6b6457e0600080a3565b6000918252602082815260408084206001600160a01b03909316845291905290205490565b5490565b634e487b7160e01b600052601160045260246000fd5b60001981146112225760010190565b6111fd565b634e487b7160e01b600052603260045260246000fd5b80518210156112515760209160051b010190565b611227565b919091805183518082036112df57505080519061127282610437565b9161128060405193846103f5565b80835261128f601f1991610437565b0190602091368385013760005b81518110156112d757806112c26112d29260051b85808287010151918a010151906111d4565b6112cc828761123d565b52611213565b61129c565b509193505050565b604051635b05999160e01b815260048101919091526024810191909152604490fd5b90919261130f848484612145565b60005b835181101561140b576113399060018061132c838861123d565b511461133e575b50611213565b611312565b6001600160a01b038516158015906000906114055750611368611361848961123d565b51876111d4565b905b611375575b50611333565b6001600160a01b0386166000908152600f602052604090206113aa9061139b858a61123d565b51600052602052604060002090565b918183549182159283156113e2575b5050501561136f576113db916113cd610417565b9142835260208301526120fb565b388061136f565b6113f8919293506113f290611f79565b85611f9d565b50015414158138806113b9565b9061136a565b50909290916001600160a01b038416611425575b50505050565b805160010361144c57906020806114439593015191015191336116d8565b3880808061141f565b61145693336118e9565b611443565b919490929361146c85878686612229565b60005b86518110156115ac5761149590600180611489838b61123d565b511461149a5750611213565b61146f565b6001600160a01b0386811615801591906000906115a657506114c66114bf858d61123d565b51896111d4565b905b8916151590848c60008460001461159d57506114ee916114e79161123d565b518b6111d4565b925b611526575b506115005750611333565b6001600160a01b0388166000908152600f602052604090206113aa9061139b858d61123d565b6115508c61139b8761154a8d60018060a01b0316600052600f602052604060002090565b9261123d565b90815481868215928315611580575b50505061156d575b506114f5565b611579916113cd610417565b3880611567565b611590919293506113f290611f79565b500154141581863861155f565b915050926114f0565b906114c8565b5090949390926001600160a01b0381166115c8575b5050505050565b84516001036115ee576020806115e496015192015192336117d2565b38808080806115c1565b6115fa9491923361191e565b6115e4565b908160209103126101fc575161035281610252565b909260a0926103529594600180861b031683526000602084015260408301526060820152816080820152019061031c565b919261035295949160a094600180871b03809216855216602084015260408301526060820152816080820152019061031c565b6040513d6000823e3d90fd5b604051906020820182811067ffffffffffffffff8211176103f05760405260008252565b3d156116d3573d906116b9826104ad565b916116c760405193846103f5565b82523d6000602084013e565b606090565b9293919093843b6116ea575050505050565b60209161170d604051948593849363f23a6e6160e01b9889865260048601611614565b038160006001600160a01b0388165af1600091816117a2575b5061176557826117346116a8565b805191908261175e57604051632bfa23e760e11b81526001600160a01b0383166004820152602490fd5b9050602001fd5b6001600160e01b0319160361177f575038808080806115c1565b604051632bfa23e760e11b81526001600160a01b03919091166004820152602490fd5b6117c491925060203d81116117cb575b6117bc81836103f5565b8101906115ff565b9038611726565b503d6117b2565b939290949194853b6117e7575b505050505050565b61180a602093604051958694859463f23a6e6160e01b998a875260048701611645565b038160006001600160a01b0388165af16000918161184c575b5061183157826117346116a8565b6001600160e01b0319160361177f57503880808080806117df565b61186591925060203d81116117cb576117bc81836103f5565b9038611823565b9261189b61035295936118a99360018060a01b031686526000602087015260a0604087015260a08601906107bb565b9084820360608601526107bb565b91608081840391015261031c565b9390610352959361189b916118a99460018060a01b03809216885216602087015260a0604087015260a08601906107bb565b9293919093843b6118fb575050505050565b60209161170d604051948593849363bc197c8160e01b988986526004860161186c565b939290949194853b61193257505050505050565b61180a602093604051958694859463bc197c8160e01b998a8752600487016118b7565b908160209103126101fc5751610352816101eb565b91906119758361118b565b600880546001600160a01b0319166001600160a01b03831617905561199a6000600755565b600d80546001600160a01b0319166001600160a01b038416179055604051630222e55560e21b81526001600160a01b039290919060209084168184600481845afa908115610d7157611a158392600496600091611afb575b5060018060a01b03166bffffffffffffffffffffffff60a01b600c541617600c55565b604051633b8c8d3760e11b815294859182905afa8015610d71578493611a6192600092611ace575b505060018060a01b03166bffffffffffffffffffffffff60a01b600e541617600e55565b611a72611a6c611684565b85611bd5565b600080526009602052611aa47fec8156718a8372b1db44bb411437d0870f3e3790d4a08526d024ce1b0b668f6b610740565b1691167f341d6e731c47328fba4d0999e91ed7c4a5706e8791a0fd054e201a971df02dfe600080a3565b611aed9250803d10611af4575b611ae581836103f5565b810190611955565b3880611a3d565b503d611adb565b611b129150843d8611611af457611ae581836103f5565b386119f2565b91906001600160a01b038316156110a557611b5692604051906001825260016020830152604082019260018452606083015260808201604052611301565b565b91906001600160a01b038316156110a557611b5692604051906001825260026020830152604082019260018452606083015260808201604052611301565b9091906001600160a01b038116156110a557611b5692604051906001825260208201526040810191600183526001606083015260808201604052611301565b906001600160a01b038216156110a557611b569160405160018152600060208201526040810191600183526001606083015260808201604052611301565b15611c1a57565b60405162461bcd60e51b8152602060048201526014602482015273151bdad95b88191bd95cc81b9bdd08195e1a5cdd60621b6044820152606490fd5b6020818303126101fc5780519067ffffffffffffffff82116101fc570181601f820112156101fc578051611c89816104ad565b92611c9760405194856103f5565b818452602082840101116101fc5761035291602080850191016102f9565b611cd4611ccf610c5a836000526009602052604060002090565b611c13565b6003811015611d6457600c54611d3391600091611cfb90610ca0906001600160a01b031681565b6005546040516305b1feb160e11b81526001600160a01b03909116600482015260248101929092529092839190829081906044820190565b03915afa908115610d7157600091611d49575090565b610352913d8091833e611d5c81836103f5565b810190611c56565b600e54611d3391600091611d8290610ca0906001600160a01b031681565b600554604051637ab269dd60e01b81526001600160a01b03909116600482015260248101929092529092839190829081906044820190565b15611dc157565b60405162461bcd60e51b815260206004820152601860248201527f546f6b656e20494420616c7265616479206372656174656400000000000000006044820152606490fd5b15611e0d57565b60405162461bcd60e51b815260206004820152601660248201527514da185c995cc8185b1c9958591e4818dc99585d195960521b6044820152606490fd5b15611e5257565b60405162461bcd60e51b8152602060048201526015602482015274125b9d985b1a59081cda185c995cc8185b5bdd5b9d605a1b6044820152606490fd5b15611e9657565b60405162461bcd60e51b8152602060048201526011602482015270125b9d985b1a59081c9958da5c1a595b9d607a1b6044820152606490fd5b15611ed657565b60405162461bcd60e51b815260206004820152601c60248201527f4275796f757420746f6b656e20616c72656164792063726561746564000000006044820152606490fd5b15611f2257565b60405162461bcd60e51b815260206004820152600b60248201526a496e76616c69642055524960a81b6044820152606490fd5b610352939260609260018060a01b031682526020820152816040820152019061031c565b60001981019190821161122257565b80541561125157600052602060002090600090565b80548210156112515760005260206000209060011b0190600090565b906001820180921161122257565b9190820180921161122257565b6001600160a01b0381166000908152600f60205260409020611fff9083600052602052604060002090565b9182549182156120b757505061201490611f79565b9161201f8383611f9d565b50548110156120aa5761203182611f88565b505481106120a257600092905b83821161205957505060019161205391611f9d565b50015490565b909261207661207061206b8387611fc7565b611fb9565b60011c90565b90826120828386611f9d565b5054116120925750925b9061203e565b935061209d90611f79565b61208c565b505050600090565b5060019161205391611f9d565b90939092506000915042116120f557506120de6111f9926000526000602052604060002090565b9060018060a01b0316600052602052604060002090565b91505090565b8054600160401b8110156103f05761211891600182018155611f9d565b91909161212f576020816001925184550151910155565b634e487b7160e01b600052600060045260246000fd5b91926121528483856122f0565b600090815b83518310156121af576121a36121a991612171858961123d565b5190612191612180878961123d565b516000526003602052604060002090565b61219c838254611fc7565b9055611fc7565b92611213565b91612157565b6121c7919492506121c290600454611fc7565b600455565b6001600160a01b0316156121da57509050565b6000805b825182101561221757612211906121f5838761123d565b5190612204612180858761123d565b8281540390550191611213565b906121de565b915050611b5691925060045403600455565b9093929361223985848385612410565b6001600160a01b0391821615612276575b161561225557509050565b6000805b825182101561221757612270906121f5838761123d565b90612259565b92600091825b84518410156122b1576122a56122ab91612296868a61123d565b5190612191612180888a61123d565b93611213565b9261227c565b6122c69193506121c290959295600454611fc7565b61224a565b90916122e2610352936040845260408401906107bb565b9160208184039101526107bb565b91909182518251908181036112df57505060005b835181101561237057600581901b848101602090810151918501015161233e929184906001600160a01b038216612343575b505050611213565b612304565b612366916120de61235e926000526000602052604060002090565b918254611fc7565b9055388381612336565b509160018151146000146123d1576020908101519181015160408051938452918301526001600160a01b039092169160009133917fc3d58168c5ae7397731d063d5bbf3d657854427343f4c083240f7aacaa2d0f629190819081015b0390a4565b7f4a39dc06d4c0dbc64b70af90fd698a233a518aa5d07e595d983b8c0526c8f7fb6123cc6000939460405191829160018060a01b0316963395836122cb565b93929180518351908181036112df57505060005b815181101561251757600581901b82810160209081015191860101516001600160a01b0392918590898516612490575b61246694821661246b57505050611213565b612424565b612486916120de61235e926000526000602052604060002090565b9055388481612336565b91929390506124ad896120de846000526000602052604060002090565b548381106124e05791869184612466969594036124d88c6120de856000526000602052604060002090565b559450612454565b6040516303dee4c560e01b81526001600160a01b038b16600482015260248101919091526044810184905260648101839052608490fd5b508051939493919291600103612579576020908101519181015160408051938452918301526001600160a01b03928316939092169133917fc3d58168c5ae7397731d063d5bbf3d657854427343f4c083240f7aacaa2d0f6291819081016123cc565b6040516001600160a01b03938416949093169233927f4a39dc06d4c0dbc64b70af90fd698a233a518aa5d07e595d983b8c0526c8f7fb9282916123cc91836122cb56fef0c57e16840df040f15088dc2f81fe391c3923bec73e23a9662efc9c229c6a00a2646970667358221220d4690018c61dd85b61c55df0f03ac5e253519248572c9e54bcca9581c164636464736f6c63430008140033",
  "linkReferences": {},
  "deployedLinkReferences": {}
}