{
  "_format": "hh-sol-artifact-1",
  "contractName": "WSTokenManagement",
  "sourceName": "contracts/protocol/NonUpgradable/WSTokenManagement.sol",
  "abi": [
    {
      "inputs": [],
      "stateMutability": "nonpayable",
      "type": "constructor"
    },
    {
      "inputs": [
        {
          "internalType": "address",
          "name": "sender",
          "type": "address"
        },
        {
          "internalType": "uint256",
          "name": "balance",
          "type": "uint256"
        },
        {
          "internalType": "uint256",
          "name": "needed",
          "type": "uint256"
        },
        {
          "internalType": "uint256",
          "name": "tokenId",
          "type": "uint256"
        }
      ],
      "name": "ERC1155InsufficientBalance",
      "type": "error"
    },
    {
      "inputs": [
        {
          "internalType": "address",
          "name": "approver",
          "type": "address"
        }
      ],
      "name": "ERC1155InvalidApprover",
      "type": "error"
    },
    {
      "inputs": [
        {
          "internalType": "uint256",
          "name": "idsLength",
          "type": "uint256"
        },
        {
          "internalType": "uint256",
          "name": "valuesLength",
          "type": "uint256"
        }
      ],
      "name": "ERC1155InvalidArrayLength",
      "type": "error"
    },
    {
      "inputs": [
        {
          "internalType": "address",
          "name": "operator",
          "type": "address"
        }
      ],
      "name": "ERC1155InvalidOperator",
      "type": "error"
    },
    {
      "inputs": [
        {
          "internalType": "address",
          "name": "receiver",
          "type": "address"
        }
      ],
      "name": "ERC1155InvalidReceiver",
      "type": "error"
    },
    {
      "inputs": [
        {
          "internalType": "address",
          "name": "sender",
          "type": "address"
        }
      ],
      "name": "ERC1155InvalidSender",
      "type": "error"
    },
    {
      "inputs": [
        {
          "internalType": "address",
          "name": "operator",
          "type": "address"
        },
        {
          "internalType": "address",
          "name": "owner",
          "type": "address"
        }
      ],
      "name": "ERC1155MissingApprovalForAll",
      "type": "error"
    },
    {
      "inputs": [],
      "name": "InvalidInitialization",
      "type": "error"
    },
    {
      "inputs": [],
      "name": "NotInitializing",
      "type": "error"
    },
    {
      "inputs": [
        {
          "internalType": "address",
          "name": "owner",
          "type": "address"
        }
      ],
      "name": "OwnableInvalidOwner",
      "type": "error"
    },
    {
      "inputs": [
        {
          "internalType": "address",
          "name": "account",
          "type": "address"
        }
      ],
      "name": "OwnableUnauthorizedAccount",
      "type": "error"
    },
    {
      "inputs": [],
      "name": "ReentrancyGuardReentrantCall",
      "type": "error"
    },
    {
      "anonymous": false,
      "inputs": [
        {
          "indexed": true,
          "internalType": "address",
          "name": "account",
          "type": "address"
        },
        {
          "indexed": true,
          "internalType": "address",
          "name": "operator",
          "type": "address"
        },
        {
          "indexed": false,
          "internalType": "bool",
          "name": "approved",
          "type": "bool"
        }
      ],
      "name": "ApprovalForAll",
      "type": "event"
    },
    {
      "anonymous": false,
      "inputs": [
        {
          "indexed": true,
          "internalType": "uint256",
          "name": "amount",
          "type": "uint256"
        },
        {
          "indexed": true,
          "internalType": "address",
          "name": "recipient",
          "type": "address"
        }
      ],
      "name": "BuyoutTokenCreated",
      "type": "event"
    },
    {
      "anonymous": false,
      "inputs": [
        {
          "indexed": false,
          "internalType": "uint64",
          "name": "version",
          "type": "uint64"
        }
      ],
      "name": "Initialized",
      "type": "event"
    },
    {
      "anonymous": false,
      "inputs": [
        {
          "indexed": true,
          "internalType": "uint256",
          "name": "tokenId",
          "type": "uint256"
        },
        {
          "indexed": true,
          "internalType": "address",
          "name": "recipient",
          "type": "address"
        },
        {
          "indexed": false,
          "internalType": "string",
          "name": "contractURI",
          "type": "string"
        }
      ],
      "name": "LegalContractCreated",
      "type": "event"
    },
    {
      "anonymous": false,
      "inputs": [
        {
          "indexed": true,
          "internalType": "address",
          "name": "previousOwner",
          "type": "address"
        },
        {
          "indexed": true,
          "internalType": "address",
          "name": "newOwner",
          "type": "address"
        }
      ],
      "name": "OwnershipTransferred",
      "type": "event"
    },
    {
      "anonymous": false,
      "inputs": [
        {
          "indexed": true,
          "internalType": "uint256",
          "name": "sharesAmount",
          "type": "uint256"
        },
        {
          "indexed": true,
          "internalType": "address",
          "name": "minter",
          "type": "address"
        }
      ],
      "name": "SongSharesCreated",
      "type": "event"
    },
    {
      "anonymous": false,
      "inputs": [
        {
          "indexed": true,
          "internalType": "address",
          "name": "operator",
          "type": "address"
        },
        {
          "indexed": true,
          "internalType": "address",
          "name": "from",
          "type": "address"
        },
        {
          "indexed": true,
          "internalType": "address",
          "name": "to",
          "type": "address"
        },
        {
          "indexed": false,
          "internalType": "uint256[]",
          "name": "ids",
          "type": "uint256[]"
        },
        {
          "indexed": false,
          "internalType": "uint256[]",
          "name": "values",
          "type": "uint256[]"
        }
      ],
      "name": "TransferBatch",
      "type": "event"
    },
    {
      "anonymous": false,
      "inputs": [
        {
          "indexed": true,
          "internalType": "address",
          "name": "operator",
          "type": "address"
        },
        {
          "indexed": true,
          "internalType": "address",
          "name": "from",
          "type": "address"
        },
        {
          "indexed": true,
          "internalType": "address",
          "name": "to",
          "type": "address"
        },
        {
          "indexed": false,
          "internalType": "uint256",
          "name": "id",
          "type": "uint256"
        },
        {
          "indexed": false,
          "internalType": "uint256",
          "name": "value",
          "type": "uint256"
        }
      ],
      "name": "TransferSingle",
      "type": "event"
    },
    {
      "anonymous": false,
      "inputs": [
        {
          "indexed": false,
          "internalType": "string",
          "name": "value",
          "type": "string"
        },
        {
          "indexed": true,
          "internalType": "uint256",
          "name": "id",
          "type": "uint256"
        }
      ],
      "name": "URI",
      "type": "event"
    },
    {
      "anonymous": false,
      "inputs": [
        {
          "indexed": true,
          "internalType": "address",
          "name": "smartAccount",
          "type": "address"
        },
        {
          "indexed": true,
          "internalType": "address",
          "name": "minter",
          "type": "address"
        }
      ],
      "name": "WSTokensCreated",
      "type": "event"
    },
    {
      "inputs": [],
      "name": "BUYOUT_TOKEN_ID",
      "outputs": [
        {
          "internalType": "uint256",
          "name": "",
          "type": "uint256"
        }
      ],
      "stateMutability": "pure",
      "type": "function"
    },
    {
      "inputs": [],
      "name": "LEGAL_CONTRACT_START_ID",
      "outputs": [
        {
          "internalType": "uint256",
          "name": "",
          "type": "uint256"
        }
      ],
      "stateMutability": "pure",
      "type": "function"
    },
    {
      "inputs": [],
      "name": "SONG_CONCEPT_ID",
      "outputs": [
        {
          "internalType": "uint256",
          "name": "",
          "type": "uint256"
        }
      ],
      "stateMutability": "pure",
      "type": "function"
    },
    {
      "inputs": [],
      "name": "SONG_SHARES_ID",
      "outputs": [
        {
          "internalType": "uint256",
          "name": "",
          "type": "uint256"
        }
      ],
      "stateMutability": "pure",
      "type": "function"
    },
    {
      "inputs": [
        {
          "internalType": "address",
          "name": "account",
          "type": "address"
        },
        {
          "internalType": "uint256",
          "name": "id",
          "type": "uint256"
        }
      ],
      "name": "balanceOf",
      "outputs": [
        {
          "internalType": "uint256",
          "name": "",
          "type": "uint256"
        }
      ],
      "stateMutability": "view",
      "type": "function"
    },
    {
      "inputs": [
        {
          "internalType": "address",
          "name": "account",
          "type": "address"
        },
        {
          "internalType": "uint256",
          "name": "id",
          "type": "uint256"
        },
        {
          "internalType": "uint256",
          "name": "timestamp",
          "type": "uint256"
        }
      ],
      "name": "balanceOfAt",
      "outputs": [
        {
          "internalType": "uint256",
          "name": "",
          "type": "uint256"
        }
      ],
      "stateMutability": "view",
      "type": "function"
    },
    {
      "inputs": [
        {
          "internalType": "address[]",
          "name": "accounts",
          "type": "address[]"
        },
        {
          "internalType": "uint256[]",
          "name": "ids",
          "type": "uint256[]"
        }
      ],
      "name": "balanceOfBatch",
      "outputs": [
        {
          "internalType": "uint256[]",
          "name": "",
          "type": "uint256[]"
        }
      ],
      "stateMutability": "view",
      "type": "function"
    },
    {
      "inputs": [],
      "name": "contractURI",
      "outputs": [
        {
          "internalType": "string",
          "name": "",
          "type": "string"
        }
      ],
      "stateMutability": "view",
      "type": "function"
    },
    {
      "inputs": [
        {
          "internalType": "uint256",
          "name": "amount",
          "type": "uint256"
        },
        {
          "internalType": "address",
          "name": "recipient",
          "type": "address"
        }
      ],
      "name": "createBuyoutToken",
      "outputs": [],
      "stateMutability": "nonpayable",
      "type": "function"
    },
    {
      "inputs": [
        {
          "internalType": "string",
          "name": "legalContractURI",
          "type": "string"
        }
      ],
      "name": "createLegalContract",
      "outputs": [
        {
          "internalType": "uint256",
          "name": "tokenId",
          "type": "uint256"
        }
      ],
      "stateMutability": "nonpayable",
      "type": "function"
    },
    {
      "inputs": [
        {
          "internalType": "uint256",
          "name": "sharesAmount",
          "type": "uint256"
        }
      ],
      "name": "createSongShares",
      "outputs": [],
      "stateMutability": "nonpayable",
      "type": "function"
    },
    {
      "inputs": [],
      "name": "currentLegalContractId",
      "outputs": [
        {
          "internalType": "uint256",
          "name": "",
          "type": "uint256"
        }
      ],
      "stateMutability": "view",
      "type": "function"
    },
    {
      "inputs": [
        {
          "internalType": "uint256",
          "name": "id",
          "type": "uint256"
        }
      ],
      "name": "exists",
      "outputs": [
        {
          "internalType": "bool",
          "name": "",
          "type": "bool"
        }
      ],
      "stateMutability": "view",
      "type": "function"
    },
    {
      "inputs": [
        {
          "internalType": "address",
          "name": "_smartAccount",
          "type": "address"
        },
        {
          "internalType": "address",
          "name": "_minterAddress",
          "type": "address"
        },
        {
          "internalType": "address",
          "name": "_protocolModuleAddress",
          "type": "address"
        }
      ],
      "name": "initialize",
      "outputs": [],
      "stateMutability": "nonpayable",
      "type": "function"
    },
    {
      "inputs": [
        {
          "internalType": "address",
          "name": "account",
          "type": "address"
        },
        {
          "internalType": "address",
          "name": "operator",
          "type": "address"
        }
      ],
      "name": "isApprovedForAll",
      "outputs": [
        {
          "internalType": "bool",
          "name": "",
          "type": "bool"
        }
      ],
      "stateMutability": "view",
      "type": "function"
    },
    {
      "inputs": [],
      "name": "legalContractMetadata",
      "outputs": [
        {
          "internalType": "address",
          "name": "",
          "type": "address"
        }
      ],
      "stateMutability": "view",
      "type": "function"
    },
    {
      "inputs": [],
      "name": "metadataModule",
      "outputs": [
        {
          "internalType": "address",
          "name": "",
          "type": "address"
        }
      ],
      "stateMutability": "view",
      "type": "function"
    },
    {
      "inputs": [
        {
          "internalType": "address",
          "name": "newMetadataAddress",
          "type": "address"
        },
        {
          "internalType": "address",
          "name": "newWrappedSongAddress",
          "type": "address"
        }
      ],
      "name": "migrateWrappedSong",
      "outputs": [],
      "stateMutability": "nonpayable",
      "type": "function"
    },
    {
      "inputs": [],
      "name": "name",
      "outputs": [
        {
          "internalType": "string",
          "name": "",
          "type": "string"
        }
      ],
      "stateMutability": "view",
      "type": "function"
    },
    {
      "inputs": [],
      "name": "owner",
      "outputs": [
        {
          "internalType": "address",
          "name": "",
          "type": "address"
        }
      ],
      "stateMutability": "view",
      "type": "function"
    },
    {
      "inputs": [],
      "name": "protocolModule",
      "outputs": [
        {
          "internalType": "address",
          "name": "",
          "type": "address"
        }
      ],
      "stateMutability": "view",
      "type": "function"
    },
    {
      "inputs": [],
      "name": "renounceOwnership",
      "outputs": [],
      "stateMutability": "nonpayable",
      "type": "function"
    },
    {
      "inputs": [
        {
          "internalType": "address",
          "name": "from",
          "type": "address"
        },
        {
          "internalType": "address",
          "name": "to",
          "type": "address"
        },
        {
          "internalType": "uint256[]",
          "name": "ids",
          "type": "uint256[]"
        },
        {
          "internalType": "uint256[]",
          "name": "values",
          "type": "uint256[]"
        },
        {
          "internalType": "bytes",
          "name": "data",
          "type": "bytes"
        }
      ],
      "name": "safeBatchTransferFrom",
      "outputs": [],
      "stateMutability": "nonpayable",
      "type": "function"
    },
    {
      "inputs": [
        {
          "internalType": "address",
          "name": "from",
          "type": "address"
        },
        {
          "internalType": "address",
          "name": "to",
          "type": "address"
        },
        {
          "internalType": "uint256",
          "name": "id",
          "type": "uint256"
        },
        {
          "internalType": "uint256",
          "name": "value",
          "type": "uint256"
        },
        {
          "internalType": "bytes",
          "name": "data",
          "type": "bytes"
        }
      ],
      "name": "safeTransferFrom",
      "outputs": [],
      "stateMutability": "nonpayable",
      "type": "function"
    },
    {
      "inputs": [
        {
          "internalType": "address",
          "name": "operator",
          "type": "address"
        },
        {
          "internalType": "bool",
          "name": "approved",
          "type": "bool"
        }
      ],
      "name": "setApprovalForAll",
      "outputs": [],
      "stateMutability": "nonpayable",
      "type": "function"
    },
    {
      "inputs": [
        {
          "internalType": "bytes4",
          "name": "interfaceId",
          "type": "bytes4"
        }
      ],
      "name": "supportsInterface",
      "outputs": [
        {
          "internalType": "bool",
          "name": "",
          "type": "bool"
        }
      ],
      "stateMutability": "view",
      "type": "function"
    },
    {
      "inputs": [],
      "name": "symbol",
      "outputs": [
        {
          "internalType": "string",
          "name": "",
          "type": "string"
        }
      ],
      "stateMutability": "view",
      "type": "function"
    },
    {
      "inputs": [],
      "name": "totalShares",
      "outputs": [
        {
          "internalType": "uint256",
          "name": "",
          "type": "uint256"
        }
      ],
      "stateMutability": "view",
      "type": "function"
    },
    {
      "inputs": [],
      "name": "totalSupply",
      "outputs": [
        {
          "internalType": "uint256",
          "name": "",
          "type": "uint256"
        }
      ],
      "stateMutability": "view",
      "type": "function"
    },
    {
      "inputs": [
        {
          "internalType": "uint256",
          "name": "id",
          "type": "uint256"
        }
      ],
      "name": "totalSupply",
      "outputs": [
        {
          "internalType": "uint256",
          "name": "",
          "type": "uint256"
        }
      ],
      "stateMutability": "view",
      "type": "function"
    },
    {
      "inputs": [
        {
          "internalType": "address",
          "name": "newOwner",
          "type": "address"
        }
      ],
      "name": "transferOwnership",
      "outputs": [],
      "stateMutability": "nonpayable",
      "type": "function"
    },
    {
      "inputs": [
        {
          "internalType": "string",
          "name": "newSymbol",
          "type": "string"
        }
      ],
      "name": "updateSymbol",
      "outputs": [],
      "stateMutability": "nonpayable",
      "type": "function"
    },
    {
      "inputs": [
        {
          "internalType": "uint256",
          "name": "tokenId",
          "type": "uint256"
        }
      ],
      "name": "uri",
      "outputs": [
        {
          "internalType": "string",
          "name": "",
          "type": "string"
        }
      ],
      "stateMutability": "view",
      "type": "function"
    }
  ],
  "bytecode": "0x608034620001e95760208101906001600160401b039081831181841017620001d357604092835260008091526002546001908181811c91168015620001c8575b6020821014620001b457601f811162000166575b508160025533156200014e5760058054336001600160a01b0319821681179092558551936001600160a01b03909116907f8be0079c531659141344cd1fd0a4f28419497f9722a3daafe3b4186f6b6457e09080a36006556003600b557ff0c57e16840df040f15088dc2f81fe391c3923bec73e23a9662efc9c229c6a009182549160ff83861c166200013f57508080831603620000fa575b8351612df59081620001ef8239f35b6001600160401b0319909116811790915581519081527fc7f505b2f371ae2175ee4913f4499e1f2633a7b5936321eed1cdaeb6115181d290602090a1388080620000eb565b63f92ee8a960e01b8152600490fd5b8351631e4fbdf760e01b815260048101839052602490fd5b60028352601f0160051c7f405787fa12a823e0f2b7631cc41b3ba8828b3321ca811111fa75cd3aa3bb5ace9081019082905b828110620001a857505062000053565b84815501829062000198565b634e487b7160e01b83526022600452602483fd5b90607f16906200003f565b634e487b7160e01b600052604160045260246000fd5b600080fdfe6080604052600436101561001257600080fd5b60003560e01c8062fdd58e1461022657806301ffc9a71461022157806306fdde031461021c5780630c8a2f3a146102175780630e89341c1461021257806312cf3bc11461020d57806318160ddd146102085780632eb2c2d6146102035780633684d100146101fe5780633704934e146101f957806339fa62df146101f45780633a98ef39146101ef57806344e5b243146101ea5780634e1273f4146101e55780634f558e79146101e0578063537f5312146101db5780635c42e667146101d6578063626da068146101d1578063715018a6146101cc5780638da5cb5b146101c757806395d89b41146101c25780639d3bc4bd146101bd578063a22cb465146101b8578063bcb7130d146101b3578063bd85b039146101ae578063c0c53b8b146101a9578063d44e1355146101a4578063d70a0abc1461019f578063dbd15d531461019a578063e8a3d48514610195578063e985e9c514610190578063f242432a1461018b5763f2fde38b1461018657600080fd5b6114e2565b6113bd565b611373565b6112e6565b6112bd565b61127a565b611237565b6110ee565b6110c4565b610f44565b610e84565b610d4b565b610cb6565b610c8d565b610c2f565b610bf8565b610bcf565b610a9e565b610a2f565b610974565b610913565b6108f5565b610802565b6107e6565b6107bd565b610690565b610552565b610536565b610503565b6104e7565b610402565b6102a4565b610241565b6001600160a01b0381160361023c57565b600080fd5b3461023c57604036600319011261023c5760206102896004356102638161022b565b6024356000526000835260406000209060018060a01b0316600052602052604060002090565b54604051908152f35b6001600160e01b031981160361023c57565b3461023c57602036600319011261023c5760206004356102c381610292565b63ffffffff60e01b16636cdb3d1360e11b8114908115610301575b81156102f0575b506040519015158152f35b6301ffc9a760e01b149050386102e5565b6303a24d0760e21b811491506102de565b600091031261023c57565b90600182811c9216801561034d575b602083101461033757565b634e487b7160e01b600052602260045260246000fd5b91607f169161032c565b634e487b7160e01b600052604160045260246000fd5b6001600160401b03811161038057604052565b610357565b90601f801991011681019081106001600160401b0382111761038057604052565b60005b8381106103b95750506000910152565b81810151838201526020016103a9565b906020916103e2815180928185528580860191016103a6565b601f01601f1916010190565b9060206103ff9281815201906103c9565b90565b3461023c576000806003193601126104e4576040519080600f546104258161031d565b808552916001918083169081156104ba575060011461045f575b61045b8561044f81870382610385565b604051918291826103ee565b0390f35b9250600f83527f8d1108e10bcb7c27dddfc02ed9d693a074039d026cf4ea4240b40f7d581ac8025b8284106104a257505050810160200161044f8261045b61043f565b80546020858701810191909152909301928101610487565b86955061045b9693506020925061044f94915060ff191682840152151560051b820101929361043f565b80fd5b3461023c57600036600319011261023c57602060405160018152f35b3461023c57602036600319011261023c5761045b610522600435612480565b6040519182916020835260208301906103c9565b3461023c57600036600319011261023c57602060405160028152f35b3461023c57600036600319011261023c576020600454604051908152f35b60405190604082018281106001600160401b0382111761038057604052565b6040519060c082018281106001600160401b0382111761038057604052565b6001600160401b0381116103805760051b60200190565b81601f8201121561023c578035916105dc836105ae565b926105ea6040519485610385565b808452602092838086019260051b82010192831161023c578301905b828210610614575050505090565b81358152908301908301610606565b6001600160401b03811161038057601f01601f191660200190565b92919261064a82610623565b916106586040519384610385565b82948184528183011161023c578281602093846000960137010152565b9080601f8301121561023c578160206103ff9335910161063e565b3461023c5760a036600319011261023c57600480356106ae8161022b565b6024356106ba8161022b565b6001600160401b039060443582811161023c576106da90369086016105c5565b9060643583811161023c576106f290369087016105c5565b9260843590811161023c5761070a9036908701610675565b936001600160a01b03808216903382141580610799575b61076c57831615610754571561073d5761073b9550611834565b005b604051626a0d4560e21b8152600081880152602490fd5b604051632bfa23e760e11b8152600081890152602490fd5b6040805163711bec9160e11b815233818b019081526001600160a01b038616602082015290918291010390fd5b50600082815260016020908152604080832033845290915290205460ff1615610721565b3461023c57600036600319011261023c57600c546040516001600160a01b039091168152602090f35b3461023c57600036600319011261023c57602060405160038152f35b3461023c57602036600319011261023c5760043561081e611538565b60009060018252600960205261083b60ff6040842054161561257d565b6001825260036020526108526040832054156125c9565b61085d81151561260e565b60085461087c906001600160a01b031682610876611a5d565b9161231d565b61088581600a55565b600160005260096020526108c17f92e85d02570a8092d09a6e3a57665bc3815a2699a4074001bf1ccabf660f5a365b805460ff19166001179055565b6008546001600160a01b0316907fc53a9715662d7ec2ce49f727e6848218feaa7e34a038a690b7ba30eddd57f8678380a380f35b3461023c57600036600319011261023c576020600a54604051908152f35b3461023c57600036600319011261023c57602060405160008152f35b90815180825260208080930193019160005b82811061094f575050505090565b835185529381019392810192600101610941565b9060206103ff92818152019061092f565b3461023c57604036600319011261023c576004356001600160401b0380821161023c573660238301121561023c5781600401356109b0816105ae565b926109be6040519485610385565b81845260209160248386019160051b8301019136831161023c57602401905b828210610a16578560243586811161023c5761045b91610a04610a0a9236906004016105c5565b9061162f565b60405191829182610963565b8380918335610a248161022b565b8152019101906109dd565b3461023c57602036600319011261023c576020610a59600435600052600360205260406000205490565b1515604051908152f35b602060031982011261023c57600435906001600160401b03821161023c578060238301121561023c578160246103ff9360040135910161063e565b3461023c57610aac36610a63565b610ab4611538565b805115610b915780516001600160401b03811161038057610adf81610ada60105461031d565b611e5f565b602080601f8311600114610b1c57508192600092610b11575b5050600019600383901b1c191660019190911b17601055005b015190503880610af8565b90601f19831693610b3d6010600052600080516020612d8083398151915290565b926000905b868210610b795750508360019510610b60575b505050811b01601055005b015160001960f88460031b161c19169055388080610b55565b80600185968294968601518155019501930190610b42565b60405162461bcd60e51b815260206004820152601660248201527553796d626f6c2063616e6e6f7420626520656d70747960501b6044820152606490fd5b3461023c57600036600319011261023c57600d546040516001600160a01b039091168152602090f35b3461023c57606036600319011261023c576020610c27600435610c1a8161022b565b6044359060243590612797565b604051908152f35b3461023c576000806003193601126104e457610c49611538565b600580546001600160a01b0319811690915581906001600160a01b03167f8be0079c531659141344cd1fd0a4f28419497f9722a3daafe3b4186f6b6457e08280a380f35b3461023c57600036600319011261023c576005546040516001600160a01b039091168152602090f35b3461023c576000806003193601126104e4576040519080601054610cd98161031d565b808552916001918083169081156104ba5750600114610d025761045b8561044f81870382610385565b925060108352600080516020612d808339815191525b828410610d3357505050810160200161044f8261045b61043f565b80546020858701810191909152909301928101610d18565b3461023c57604036600319011261023c57600435602435610d6b8161022b565b610d73611538565b600091600283526009602052610d9060ff6040852054161561257d565b8015610e4e576001600160a01b03821691610df490610db0841515612652565b60026000526003602052610de57fc3a24b0501bd2c13a7e57f2db4369ec4c223447539fc0724a9d55ac4a06ebd4d5415612692565b82610dee611a5d565b9161235d565b60026000526009602052610e277f6cde3cea4b3a3fb2488b2808bae7556f4a405e50f65e1794383bc026131b13c36108b4565b7f96d71a0c03c06cdc81229ab0993b00dca24c87dc95e0dc13ded5a1ec0c4252618380a380f35b60405162461bcd60e51b815260206004820152600e60248201526d125b9d985b1a5908185b5bdd5b9d60921b6044820152606490fd5b3461023c57604036600319011261023c57600435610ea18161022b565b602435908115159081830361023c576001600160a01b038116928315610f2c57610eed610efe9233600052600160205260406000209060018060a01b0316600052602052604060002090565b9060ff801983541691151516179055565b6040519081527f17307eab39ab6107e8899845ad3d59bd9653f200f220920489ca2b5937696c3160203392a3005b60405162ced3e160e81b815260006004820152602490fd5b3461023c57610f5236610a63565b610f5a611538565b610f66815115156126de565b600b54610f7a610f75826115ec565b600b55565b610fa7610fa2610f9e610f97846000526009602052604060002090565b5460ff1690565b1590565b61257d565b600554610fc6906001600160a01b031682610fc0611a5d565b9161239b565b600e54610fe990610fdd906001600160a01b031681565b6001600160a01b031690565b6005546001600160a01b03169290803b1561023c578160009184836110259760405198899586948593636620ca3d60e11b855260048501612718565b03925af19283156110bf5761045b936110a6575b506110516108b4836000526009602052604060002090565b6005546040516001600160a01b039091169183917fc8106359c4b5a0021ebb0e829775b183e6642e6efa542778545141f4cf91ddf891819061109390826103ee565b0390a36040519081529081906020820190565b806110b36110b99261036d565b80610312565b38611039565b611a51565b3461023c57602036600319011261023c576020610c27600435600052600360205260406000205490565b3461023c57606036600319011261023c5760043561110b8161022b565b602435906111188261022b565b6044356111248161022b565b600080516020612da083398151915254926001600160401b0360ff8560401c161594168015908161122f575b6001149081611225575b15908161121c575b5061120a57600080516020612da0833981519152805467ffffffffffffffff1916600117905561119692846111e5576120ea565b61119c57005b600080516020612da0833981519152805460ff60401b19169055604051600181527fc7f505b2f371ae2175ee4913f4499e1f2633a7b5936321eed1cdaeb6115181d290602090a1005b600080516020612da0833981519152805460ff60401b1916600160401b1790556120ea565b60405163f92ee8a960e01b8152600490fd5b90501538611162565b303b15915061115a565b859150611150565b3461023c57600036600319011261023c576020600b54604051908152f35b604090600319011261023c5760043561126d8161022b565b906024356103ff8161022b565b3461023c5761129b61128b36611255565b611296929192611538565b611564565b600c80546001600160a01b0319166001600160a01b0392909216919091179055005b3461023c57600036600319011261023c57600e546040516001600160a01b039091168152602090f35b3461023c576000806003193601126104e457600c546005546040516306e9c4c960e31b81526001600160a01b03918216600482015291839183916024918391165afa9081156110bf578261045b9392611350575b50506040519182916020835260208301906103c9565b61136c92503d8091833e6113648183610385565b81019061245b565b388061133a565b3461023c57602060ff6113b161138836611255565b6001600160a01b0391821660009081526001865260408082209290931681526020919091522090565b54166040519015158152f35b3461023c5760a036600319011261023c576004356113da8161022b565b6024356113e68161022b565b6084356001600160401b03811161023c57611405903690600401610675565b906001600160a01b038381169033821415806114be575b6114975782161561147e57156114665761073b9261145e6064356044359160405192600184526020840152604083019160018352606084015260808301604052565b929091611834565b604051626a0d4560e21b815260006004820152602490fd5b604051632bfa23e760e11b815260006004820152602490fd5b60405163711bec9160e11b81523360048201526001600160a01b0386166024820152604490fd5b50600082815260016020908152604080832033845290915290205460ff161561141c565b3461023c57602036600319011261023c576004356114ff8161022b565b611507611538565b6001600160a01b0381161561151f5761073b90611564565b604051631e4fbdf760e01b815260006004820152602490fd5b6005546001600160a01b0316330361154c57565b60405163118cdaa760e01b8152336004820152602490fd5b600580546001600160a01b039283166001600160a01b0319821681179092559091167f8be0079c531659141344cd1fd0a4f28419497f9722a3daafe3b4186f6b6457e0600080a3565b6000918252602082815260408084206001600160a01b03909316845291905290205490565b5490565b634e487b7160e01b600052601160045260246000fd5b60001981146115fb5760010190565b6115d6565b634e487b7160e01b600052603260045260246000fd5b805182101561162a5760209160051b010190565b611600565b919091805183518082036116b857505080519061164b826105ae565b916116596040519384610385565b808352611668601f19916105ae565b0190602091368385013760005b81518110156116b0578061169b6116ab9260051b85808287010151918a010151906115ad565b6116a58287611616565b526115ec565b611675565b509193505050565b604051635b05999160e01b815260048101919091526024810191909152604490fd5b9091926116e8848484612908565b60005b83518110156117e457611712906001806117058388611616565b5114611717575b506115ec565b6116eb565b6001600160a01b038516158015906000906117de575061174161173a8489611616565b51876115ad565b905b61174e575b5061170c565b6001600160a01b038616600090815260116020526040902061178390611774858a611616565b51600052602052604060002090565b918183549182159283156117bb575b50505015611748576117b4916117a6610570565b9142835260208301526128be565b3880611748565b6117d1919293506117cb9061273c565b85612760565b5001541415813880611792565b90611743565b50909290916001600160a01b0384166117fe575b50505050565b8051600103611825579060208061181c959301519101519133611ab0565b388080806117f8565b61182f9333611cc1565b61181c565b9194909293611845858786866129ec565b60005b86518110156119855761186e90600180611862838b611616565b511461187357506115ec565b611848565b6001600160a01b03868116158015919060009061197f575061189f611898858d611616565b51896115ad565b905b8916151590848c60008460001461197657506118c7916118c091611616565b518b6115ad565b925b6118ff575b506118d9575061170c565b6001600160a01b038816600090815260116020526040902061178390611774858d611616565b6119298c611774876119238d60018060a01b03166000526011602052604060002090565b92611616565b90815481868215928315611959575b505050611946575b506118ce565b611952916117a6610570565b3880611940565b611969919293506117cb9061273c565b5001541415818638611938565b915050926118c9565b906118a1565b5090949390926001600160a01b0381166119a1575b5050505050565b84516001036119c7576020806119bd9601519201519233611baa565b388080808061199a565b6119d394919233611cf6565b6119bd565b9081602091031261023c57516103ff81610292565b909260a0926103ff9594600180861b03168352600060208401526040830152606082015281608082015201906103c9565b91926103ff95949160a094600180871b0380921685521660208401526040830152606082015281608082015201906103c9565b6040513d6000823e3d90fd5b60405190602082018281106001600160401b038211176103805760405260008252565b3d15611aab573d90611a9182610623565b91611a9f6040519384610385565b82523d6000602084013e565b606090565b9293919093843b611ac2575050505050565b602091611ae5604051948593849363f23a6e6160e01b98898652600486016119ed565b038160006001600160a01b0388165af160009181611b7a575b50611b3d5782611b0c611a80565b8051919082611b3657604051632bfa23e760e11b81526001600160a01b0383166004820152602490fd5b9050602001fd5b6001600160e01b03191603611b575750388080808061199a565b604051632bfa23e760e11b81526001600160a01b03919091166004820152602490fd5b611b9c91925060203d8111611ba3575b611b948183610385565b8101906119d8565b9038611afe565b503d611b8a565b939290949194853b611bbf575b505050505050565b611be2602093604051958694859463f23a6e6160e01b998a875260048701611a1e565b038160006001600160a01b0388165af160009181611c24575b50611c095782611b0c611a80565b6001600160e01b03191603611b575750388080808080611bb7565b611c3d91925060203d8111611ba357611b948183610385565b9038611bfb565b92611c736103ff9593611c819360018060a01b031686526000602087015260a0604087015260a086019061092f565b90848203606086015261092f565b9160808184039101526103c9565b93906103ff9593611c7391611c819460018060a01b03809216885216602087015260a0604087015260a086019061092f565b9293919093843b611cd3575050505050565b602091611ae5604051948593849363bc197c8160e01b9889865260048601611c44565b939290949194853b611d0a57505050505050565b611be2602093604051958694859463bc197c8160e01b998a875260048701611c8f565b9081602091031261023c57516103ff8161022b565b81601f8201121561023c578051611d5881610623565b92611d666040519485610385565b8184526020828401011161023c576103ff91602080850191016103a6565b9060208282031261023c5781516001600160401b039283821161023c57019060c08282031261023c57611db561058f565b92825181811161023c5782611dcb918501611d42565b8452602083015181811161023c5782611de5918501611d42565b6020850152604083015181811161023c5782611e02918501611d42565b6040850152606083015181811161023c5782611e1f918501611d42565b6060850152608083015181811161023c5782611e3c918501611d42565b608085015260a083015190811161023c57611e579201611d42565b60a082015290565b601f8111611e6b575050565b60009060108252600080516020612d80833981519152906020601f850160051c83019410611eb4575b601f0160051c01915b828110611ea957505050565b818155600101611e9d565b9092508290611e94565b601f8111611eca575050565b600090600f82527f8d1108e10bcb7c27dddfc02ed9d693a074039d026cf4ea4240b40f7d581ac802906020601f850160051c83019410611f25575b601f0160051c01915b828110611f1a57505050565b818155600101611f0e565b9092508290611f05565b9081516001600160401b03811161038057611f5481611f4f600f5461031d565b611ebe565b602080601f8311600114611f905750819293600092611f85575b50508160011b916000199060031b1c191617600f55565b015190503880611f6e565b90601f19831694611fc3600f6000527f8d1108e10bcb7c27dddfc02ed9d693a074039d026cf4ea4240b40f7d581ac80290565b926000905b878210612000575050836001959610611fe7575b505050811b01600f55565b015160001960f88460031b161c19169055388080611fdc565b80600185968294968601518155019501930190611fc8565b9081516001600160401b0381116103805761203881610ada60105461031d565b602080601f83116001146120745750819293600092612069575b50508160011b916000199060031b1c191617601055565b015190503880612052565b90601f198316946120956010600052600080516020612d8083398151915290565b926000905b8782106120d25750508360019596106120b9575b505050811b01601055565b015160001960f88460031b161c191690553880806120ae565b8060018596829496860151815501950193019061209a565b91906120f583611564565b600880546001600160a01b0319166001600160a01b03831617905561211a6000600755565b600d80546001600160a01b0319166001600160a01b038416179055604051630222e55560e21b81526001600160a01b03926020919084168282600481845afa9081156110bf576121938492600494600091612300575b5060018060a01b03166bffffffffffffffffffffffff60a01b600c541617600c55565b604051633b8c8d3760e11b815292839182905afa9081156110bf576121de926000926122d3575b505060018060a01b03166bffffffffffffffffffffffff60a01b600e541617600e55565b600c546121f590610fdd906001600160a01b031681565b6040516301a4e6dd60e51b81526001600160a01b03851660048201529190600090839060249082905afa9182156110bf578392612245916000916122b2575b5061223f8151611f2f565b51612018565b612256612250611a5d565b856123da565b6000805260096020526122887fec8156718a8372b1db44bb411437d0870f3e3790d4a08526d024ce1b0b668f6b6108b4565b1691167f341d6e731c47328fba4d0999e91ed7c4a5706e8791a0fd054e201a971df02dfe600080a3565b6122cd913d8091833e6122c58183610385565b810190611d84565b38612234565b6122f29250803d106122f9575b6122ea8183610385565b810190611d2d565b38806121ba565b503d6122e0565b6123179150843d86116122f9576122ea8183610385565b38612170565b91906001600160a01b0383161561147e5761235b926040519060018252600160208301526040820192600184526060830152608082016040526116da565b565b91906001600160a01b0383161561147e5761235b926040519060018252600260208301526040820192600184526060830152608082016040526116da565b9091906001600160a01b0381161561147e5761235b926040519060018252602082015260408101916001835260016060830152608082016040526116da565b906001600160a01b0382161561147e5761235b91604051600181526000602082015260408101916001835260016060830152608082016040526116da565b1561241f57565b60405162461bcd60e51b8152602060048201526014602482015273151bdad95b88191bd95cc81b9bdd08195e1a5cdd60621b6044820152606490fd5b9060208282031261023c5781516001600160401b03811161023c576103ff9201611d42565b61249f61249a610f97836000526009602052604060002090565b612418565b600381101561252757600c546124fe916000916124c690610fdd906001600160a01b031681565b6005546040516305b1feb160e11b81526001600160a01b03909116600482015260248101929092529092839190829081906044820190565b03915afa9081156110bf57600091612514575090565b6103ff913d8091833e6113648183610385565b600e546124fe9160009161254590610fdd906001600160a01b031681565b600554604051637ab269dd60e01b81526001600160a01b03909116600482015260248101929092529092839190829081906044820190565b1561258457565b60405162461bcd60e51b815260206004820152601860248201527f546f6b656e20494420616c7265616479206372656174656400000000000000006044820152606490fd5b156125d057565b60405162461bcd60e51b815260206004820152601660248201527514da185c995cc8185b1c9958591e4818dc99585d195960521b6044820152606490fd5b1561261557565b60405162461bcd60e51b8152602060048201526015602482015274125b9d985b1a59081cda185c995cc8185b5bdd5b9d605a1b6044820152606490fd5b1561265957565b60405162461bcd60e51b8152602060048201526011602482015270125b9d985b1a59081c9958da5c1a595b9d607a1b6044820152606490fd5b1561269957565b60405162461bcd60e51b815260206004820152601c60248201527f4275796f757420746f6b656e20616c72656164792063726561746564000000006044820152606490fd5b156126e557565b60405162461bcd60e51b815260206004820152600b60248201526a496e76616c69642055524960a81b6044820152606490fd5b6103ff939260609260018060a01b03168252602082015281604082015201906103c9565b6000198101919082116115fb57565b80541561162a57600052602060002090600090565b805482101561162a5760005260206000209060011b0190600090565b90600182018092116115fb57565b919082018092116115fb57565b6001600160a01b03811660009081526011602052604090206127c29083600052602052604060002090565b91825491821561287a5750506127d79061273c565b916127e28383612760565b505481101561286d576127f48261274b565b5054811061286557600092905b83821161281c57505060019161281691612760565b50015490565b909261283961283361282e838761278a565b61277c565b60011c90565b90826128458386612760565b5054116128555750925b90612801565b93506128609061273c565b61284f565b505050600090565b5060019161281691612760565b90939092506000915042116128b857506128a16115d2926000526000602052604060002090565b9060018060a01b0316600052602052604060002090565b91505090565b8054600160401b811015610380576128db91600182018155612760565b9190916128f2576020816001925184550151910155565b634e487b7160e01b600052600060045260246000fd5b9192612915848385612ab3565b600090815b83518310156129725761296661296c916129348589611616565b51906129546129438789611616565b516000526003602052604060002090565b61295f83825461278a565b905561278a565b926115ec565b9161291a565b61298a919492506129859060045461278a565b600455565b6001600160a01b03161561299d57509050565b6000805b82518210156129da576129d4906129b88387611616565b51906129c76129438587611616565b82815403905501916115ec565b906129a1565b91505061235b91925060045403600455565b909392936129fc85848385612bd3565b6001600160a01b0391821615612a39575b1615612a1857509050565b6000805b82518210156129da57612a33906129b88387611616565b90612a1c565b92600091825b8451841015612a7457612a68612a6e91612a59868a611616565b5190612954612943888a611616565b936115ec565b92612a3f565b612a899193506129859095929560045461278a565b612a0d565b9091612aa56103ff9360408452604084019061092f565b91602081840391015261092f565b91909182518251908181036116b857505060005b8351811015612b3357600581901b8481016020908101519185010151612b01929184906001600160a01b038216612b06575b5050506115ec565b612ac7565b612b29916128a1612b21926000526000602052604060002090565b91825461278a565b9055388381612af9565b50916001815114600014612b94576020908101519181015160408051938452918301526001600160a01b039092169160009133917fc3d58168c5ae7397731d063d5bbf3d657854427343f4c083240f7aacaa2d0f629190819081015b0390a4565b7f4a39dc06d4c0dbc64b70af90fd698a233a518aa5d07e595d983b8c0526c8f7fb612b8f6000939460405191829160018060a01b031696339583612a8e565b93929180518351908181036116b857505060005b8151811015612cda57600581901b82810160209081015191860101516001600160a01b0392918590898516612c53575b612c29948216612c2e575050506115ec565b612be7565b612c49916128a1612b21926000526000602052604060002090565b9055388481612af9565b9192939050612c70896128a1846000526000602052604060002090565b54838110612ca35791869184612c2996959403612c9b8c6128a1856000526000602052604060002090565b559450612c17565b6040516303dee4c560e01b81526001600160a01b038b16600482015260248101919091526044810184905260648101839052608490fd5b508051939493919291600103612d3c576020908101519181015160408051938452918301526001600160a01b03928316939092169133917fc3d58168c5ae7397731d063d5bbf3d657854427343f4c083240f7aacaa2d0f629181908101612b8f565b6040516001600160a01b03938416949093169233927f4a39dc06d4c0dbc64b70af90fd698a233a518aa5d07e595d983b8c0526c8f7fb928291612b8f9183612a8e56fe1b6847dc741a1b0cd08d278845f9d819d87b734759afb55fe2de5cb82a9ae672f0c57e16840df040f15088dc2f81fe391c3923bec73e23a9662efc9c229c6a00a26469706673582212205f4844e003bd491514ac1181752220d7bb3b0c97aa8579c39a63b4929c9e3a6764736f6c63430008140033",
  "linkReferences": {},
  "deployedLinkReferences": {}
}