{
  "_format": "hh-sol-artifact-1",
  "contractName": "MetadataRenderer",
  "sourceName": "contracts/protocol/NonUpgradable/MetadataRenderer.sol",
  "abi": [
    {
      "inputs": [
        {
          "components": [
            {
              "internalType": "string",
              "name": "name",
              "type": "string"
            },
            {
              "internalType": "string",
              "name": "description",
              "type": "string"
            },
            {
              "internalType": "string",
              "name": "image",
              "type": "string"
            },
            {
              "internalType": "string",
              "name": "externalUrl",
              "type": "string"
            },
            {
              "internalType": "string",
              "name": "animationUrl",
              "type": "string"
            },
            {
              "internalType": "string",
              "name": "attributesIpfsHash",
              "type": "string"
            }
          ],
          "internalType": "struct IMetadataModule.Metadata",
          "name": "metadata",
          "type": "tuple"
        },
        {
          "internalType": "string",
          "name": "baseURI",
          "type": "string"
        }
      ],
      "name": "composeContractURI",
      "outputs": [
        {
          "internalType": "string",
          "name": "",
          "type": "string"
        }
      ],
      "stateMutability": "pure",
      "type": "function"
    },
    {
      "inputs": [
        {
          "components": [
            {
              "internalType": "string",
              "name": "name",
              "type": "string"
            },
            {
              "internalType": "string",
              "name": "description",
              "type": "string"
            },
            {
              "internalType": "string",
              "name": "image",
              "type": "string"
            },
            {
              "internalType": "string",
              "name": "externalUrl",
              "type": "string"
            },
            {
              "internalType": "string",
              "name": "animationUrl",
              "type": "string"
            },
            {
              "internalType": "string",
              "name": "attributesIpfsHash",
              "type": "string"
            }
          ],
          "internalType": "struct IMetadataModule.Metadata",
          "name": "metadata",
          "type": "tuple"
        },
        {
          "internalType": "uint256",
          "name": "tokenId",
          "type": "uint256"
        },
        {
          "internalType": "address",
          "name": "wrappedSongAddress",
          "type": "address"
        },
        {
          "internalType": "string",
          "name": "baseURI",
          "type": "string"
        },
        {
          "internalType": "contract IProtocolModule",
          "name": "protocolModule",
          "type": "address"
        }
      ],
      "name": "composeTokenURI",
      "outputs": [
        {
          "internalType": "string",
          "name": "",
          "type": "string"
        }
      ],
      "stateMutability": "view",
      "type": "function"
    }
  ],
  "bytecode": "0x60808060405234610016576114c1908161001c8239f35b600080fdfe6080604052600436101561001257600080fd5b60003560e01c80636a1ed362146102525763d413a1151461003257600080fd5b3461024d57604036600319011261024d5767ffffffffffffffff60043581811161024d57610064903690600401611108565b60243591821161024d5761023d603d6100e86101f36101966101ee606561022d976100966102499a36906004016110c1565b906100a38251151561122f565b6040810151906040519788926020998a91826100c881840198898151938492016111e0565b82016100dc825180938680850191016111e0565b01038085520183611083565b80519260608983015192015192604051978895607b60f81b8c8801526f0113730b6b2911d101129a7a723a99d160851b60218801526101318c825192839160318b0191016111e0565b86019361088b60f21b948560318201526f113232b9b1b934b83a34b7b7111d101160811b603382015261016e8d83519384916043850191016111e0565b0191846043840152691134b6b0b3b2911d101160b11b6045840152518093604f8401906111e0565b0190604f820152711132bc3a32b93730b62fb634b735911d101160711b60518201526101cb825180938a6063850191016111e0565b01601160f91b6063820152607d60f81b6064820152036045810184520182611083565b6112ef565b60405194827f646174613a6170706c69636174696f6e2f6a736f6e3b6261736536342c0000008794850152825192839186860191016111e0565b810103601d810184520182611083565b60405191829182611203565b0390f35b600080fd5b3461024d5760a036600319011261024d5767ffffffffffffffff60043581811161024d57610284903690600401611108565b60443591602435906001600160a01b038416840361024d5760643590811161024d576102b49036906004016110c1565b90608435906001600160a01b038216820361024d576102d58351151561122f565b60608081928015600014610d775750505050604051916102f483611035565b6003835260209262714bc960e91b84820152936040810151610346856040518093865161032681858501868b016111e0565b820161033a825180938680850191016111e0565b01038084520182611083565b93810151955b60405163670d296960e11b8152936020856004816001600160a01b0385165afa948515610bad57600495602091600091610d5a575b50604051633ead5d1160e01b815296879182906001600160a01b03165afa948515610bad576024956000918291610d3b575b50604051635421432b60e11b81526001600160a01b0385811660048301529097889290918391165afa948515610bad57600095610d1e575b5060405163670d296960e11b8152906020826004816001600160a01b0385165afa918215610bad57600492602091600091610d01575b50604051633ead5d1160e01b815293849182906001600160a01b03165afa918215610bad576024926000918291610ce2575b50604051630437e6a160e21b81526001600160a01b0386811660048301529094859290918391165afa918215610bad57600092610cc5575b5060405163670d296960e11b8152956020876004816001600160a01b0386165afa968715610bad57600497602091600091610ca8575b50604051633ead5d1160e01b815298899182906001600160a01b03165afa968715610bad576024976000918291610c89575b5060405163cc7e544560e01b81526001600160a01b03878116600483015290998a9290918391165afa968715610bad57600097610c6c575b5060405163670d296960e11b8152936020856004816001600160a01b0387165afa948515610bad57600495602091600091610c4f575b50604051633ead5d1160e01b815296879182906001600160a01b03165afa948515610bad576024956000918291610c30575b5060405163164158ff60e01b81526001600160a01b0384811660048301529097889290918391165afa928315610bad57600495600094610c08575b5060405163670d296960e11b81529560209187919082906001600160a01b03165afa948515610bad57600495602091600091610beb575b50604051633ead5d1160e01b815296879182906001600160a01b03165afa948515610bad57600095610bb9575b5060405163a449357560e01b81526001600160a01b0391821660048201529460209186916024918391165afa938415610bad57600094610b5a575b50936102499961090698946107c0605d6101ee9a9660859a968a610a979f9b511515600014610b4357915b805115610b2c57985b805115610b1557905b805115610afe57905b604051998a9371227265676973747279436f646573223a207b60701b6020860152681124a9a921911d101160b91b60328601526106fa815180926020603b890191016111e0565b61088b60f21b858201603b81019190915267112aa821911d101160c11b603d8201528251926107339184916045909101906020016111e0565b84010161088b60f21b6045820152681124a9aba1911d101160b91b60478201526107678251809360206050850191016111e0565b0161088b60f21b6050820152681124a9a1a1911d101160b91b6052820152610799825180936020605b850191016111e0565b601160f91b605b8383010152607d60f81b605c83830101520103603d810188520186611083565b15610ada576040516107d181611035565b60048152637472756560e01b6020820152945b61084e60416040518098702261757468656e746963697479223a207b60781b60208301526e01134b9a0baba3432b73a34b1911d1608d1b60318301526108348151809260206040860191016111e0565b8101607d60f81b6040820152036021810189520187611083565b8251916060840151926108db602060a06080880151976108a083604051809b8d610880815180928680870191016111e0565b8201610894825180938680850191016111e0565b0103808c52018a611083565b01519760405198816108bb8b935180928680870191016111e0565b82016108cf825180938680850191016111e0565b01038089520187611083565b602a6040519c8d809b693d913730b6b2911d101160b11b6020830152602081519485930191016111e0565b8901600160fd1b602a820152610926825180936020602b850191016111e0565b0161088b60f21b602b8201526f113232b9b1b934b83a34b7b7111d101160811b602d82015261095f825180936020603d850191016111e0565b0161088b60f21b603d820152691134b6b0b3b2911d101160b11b603f8201526109928251809360206049850191016111e0565b0161088b60f21b6049820152701132bc3a32b93730b62fbab936111d101160791b604b8201526109cc825180936020605c850191016111e0565b0161088b60f21b605c820152711130b734b6b0ba34b7b72fbab936111d101160711b605e820152610a078251809360206070850191016111e0565b0161088b60f21b60708201526e1130ba3a3934b13aba32b9911d101160891b6072820152610a3f8251809360206081850191016111e0565b0161088b60f21b6081820152610a5f8251809360206083850191016111e0565b01600b60fa1b6083820152610a7e8251809360206084850191016111e0565b01607d60f81b6084820152036065810184520182611083565b61023d603d60405180937f646174613a6170706c69636174696f6e2f6a736f6e3b6261736536342c000000602083015261022d81518092602086860191016111e0565b604051610ae681611035565b600581526466616c736560d81b6020820152946107e4565b50604051610b0b81611067565b60008152906106b3565b50604051610b2281611067565b60008152906106aa565b50604051610b3981611067565b60008152986106a1565b50604051610b5081611067565b6000815291610698565b909894969295919793506020813d602011610ba5575b81610b7d60209383611083565b8101031261024d575195861515870361024d579397929691959094909290919061024961066d565b3d9150610b70565b6040513d6000823e3d90fd5b6020919550610bdd90823d8411610be4575b610bd58183611083565b81019061126e565b9490610632565b503d610bcb565b610c029150823d8411610be457610bd58183611083565b8d610605565b6020919450610c29903d806000833e610c218183611083565b81019061128d565b93906105ce565b610c49915060203d602011610be457610bd58183611083565b8d610593565b610c669150823d8411610be457610bd58183611083565b8d610561565b610c829197503d806000833e610c218183611083565b958a61052b565b610ca2915060203d602011610be457610bd58183611083565b8c6104f3565b610cbf9150823d8411610be457610bd58183611083565b8c6104c1565b610cdb9192503d806000833e610c218183611083565b908961048b565b610cfb915060203d602011610be457610bd58183611083565b8b610453565b610d189150823d8411610be457610bd58183611083565b8b610421565b610d349195503d806000833e610c218183611083565b93886103eb565b610d54915060203d602011610be457610bd58183611083565b8a6103b3565b610d719150823d8411610be457610bd58183611083565b8a610381565b60018103610e7f575050505060405191610d9083611035565b6002835260209261c2a760f01b8482015293610e5e610e7860826040840151610dca8860405180938951610326818c8680870191016111e0565b96845160405194827f5468657365206172652074686520536f6e67536861726573207468617420726587948501527f70726573656e7420796f7572206f776e657273686970207374616b6520696e2060408501527f74686520726f79616c7479206561726e696e6773206f662074686520536f6e676060850152600160fd1b608085015282519283916081860191016111e0565b8101601760f91b6081820152036062810184520182611083565b955b61034c565b60028103610f66575050505060405191610e9883611035565b6003835260209262e29fb360e81b8482015293610f4c610e78606d6040840151610ed38860405180938951610326818c8680870191016111e0565b96845160405194827f5468697320746f6b656e206772616e747320796f752061636365737320746f2087948501527f646f776e6c6f6164206120686967682d7175616c6974792076657273696f6e2060408501526b037b3103a34329039b7b733960a51b60608501528251928391606c860191016111e0565b8101601760f91b606c82015203604d810184520182611083565b600390979195939796929610610e7a5795509350915060405191610f8983611035565b60048352602092633c27e4e160e21b848201529361101b610e7860506040840151610fc58860405180938951610326818c8680870191016111e0565b96845160405194827f546869732069732061204c6567616c20436f6e747261637420446f63756d656e87948501526e03a103337b9103a34329039b7b7339608d1b60408501528251928391604f860191016111e0565b8101601760f91b604f820152036030810184520182611083565b6040810190811067ffffffffffffffff82111761105157604052565b634e487b7160e01b600052604160045260246000fd5b6020810190811067ffffffffffffffff82111761105157604052565b90601f8019910116810190811067ffffffffffffffff82111761105157604052565b67ffffffffffffffff811161105157601f01601f191660200190565b81601f8201121561024d578035906110d8826110a5565b926110e66040519485611083565b8284526020838301011161024d57816000926020809301838601378301015290565b91909160c08184031261024d576040519067ffffffffffffffff9060c0830182811184821017611051576040528294813583811161024d578161114c9184016110c1565b8452602082013583811161024d57816111669184016110c1565b6020850152604082013583811161024d57816111839184016110c1565b6040850152606082013583811161024d57816111a09184016110c1565b6060850152608082013583811161024d57816111bd9184016110c1565b608085015260a082013592831161024d5760a0926111db92016110c1565b910152565b60005b8381106111f35750506000910152565b81810151838201526020016111e3565b6040916020825261122381518092816020860152602086860191016111e0565b601f01601f1916010190565b1561123657565b60405162461bcd60e51b815260206004820152601060248201526f10985cd948155492481b9bdd081cd95d60821b6044820152606490fd5b9081602091031261024d57516001600160a01b038116810361024d5790565b60208183031261024d5780519067ffffffffffffffff821161024d570181601f8201121561024d5780516112c0816110a5565b926112ce6040519485611083565b8184526020828401011161024d576112ec91602080850191016111e0565b90565b80511561147757604051906060820182811067ffffffffffffffff82111761105157604052604082527f4142434445464748494a4b4c4d4e4f505152535455565758595a61626364656660208301527f6768696a6b6c6d6e6f707172737475767778797a303132333435363738392b2f604083015280516002918282018092116114615760039182900480841b94906001600160fe1b0381160361146157926113b061139a866110a5565b956113a86040519788611083565b8087526110a5565b6020860190601f190136823793829183518401906020820192835194600085525b8381106114105750505050525106806001146113fd576002146113f2575090565b603d90600019015390565b50603d9081600019820153600119015390565b87600491999293949901918251600190603f9082828260121c16880101518453828282600c1c16880101518385015382828260061c16880101518885015316850101518982015301979291906113d1565b634e487b7160e01b600052601160045260246000fd5b5060405161148481611067565b600081529056fea264697066735822122002506e8df8622aab80fba0deabaf73eb4b63e6fbe1f62ce2a64cf179cf2428a264736f6c63430008140033",
  "linkReferences": {},
  "deployedLinkReferences": {}
}