{
  "_format": "hh-sol-artifact-1",
  "contractName": "MetadataRenderer",
  "sourceName": "contracts/protocol/NonUpgradable/MetadataRenderer.sol",
  "abi": [
    {
      "inputs": [
        {
          "components": [
            {
              "internalType": "string",
              "name": "name",
              "type": "string"
            },
            {
              "internalType": "string",
              "name": "description",
              "type": "string"
            },
            {
              "internalType": "string",
              "name": "image",
              "type": "string"
            },
            {
              "internalType": "string",
              "name": "animationUrl",
              "type": "string"
            },
            {
              "internalType": "string",
              "name": "attributesIpfsHash",
              "type": "string"
            }
          ],
          "internalType": "struct IMetadataModule.Metadata",
          "name": "metadata",
          "type": "tuple"
        },
        {
          "internalType": "string",
          "name": "baseURI",
          "type": "string"
        },
        {
          "internalType": "string",
          "name": "externalUrlBase",
          "type": "string"
        },
        {
          "internalType": "address",
          "name": "wrappedSongAddress",
          "type": "address"
        }
      ],
      "name": "composeContractURI",
      "outputs": [
        {
          "internalType": "string",
          "name": "",
          "type": "string"
        }
      ],
      "stateMutability": "pure",
      "type": "function"
    },
    {
      "inputs": [
        {
          "components": [
            {
              "internalType": "string",
              "name": "name",
              "type": "string"
            },
            {
              "internalType": "string",
              "name": "description",
              "type": "string"
            },
            {
              "internalType": "string",
              "name": "image",
              "type": "string"
            },
            {
              "internalType": "string",
              "name": "animationUrl",
              "type": "string"
            },
            {
              "internalType": "string",
              "name": "attributesIpfsHash",
              "type": "string"
            }
          ],
          "internalType": "struct IMetadataModule.Metadata",
          "name": "metadata",
          "type": "tuple"
        },
        {
          "internalType": "uint256",
          "name": "tokenId",
          "type": "uint256"
        },
        {
          "internalType": "address",
          "name": "wrappedSongAddress",
          "type": "address"
        },
        {
          "internalType": "string",
          "name": "baseURI",
          "type": "string"
        },
        {
          "internalType": "string",
          "name": "externalUrlBase",
          "type": "string"
        },
        {
          "internalType": "contract IProtocolModule",
          "name": "protocolModule",
          "type": "address"
        }
      ],
      "name": "composeTokenURI",
      "outputs": [
        {
          "internalType": "string",
          "name": "",
          "type": "string"
        }
      ],
      "stateMutability": "view",
      "type": "function"
    }
  ],
  "bytecode": "0x6080806040523461001657611703908161001c8239f35b600080fdfe6080604052600436101561001257600080fd5b60003560e01c80632e4bf166146102d95763ca7bb45d1461003257600080fd5b346102d45760803660031901126102d45767ffffffffffffffff6004358181116102d45761006490369060040161120a565b6024358281116102d45761007c9036906004016111c3565b916044359081116102d4576100959036906004016111c3565b60643591906001600160a01b03831683036102d4578361027a6101c061027560656102c496603d966102b4996100d06102d09c511515611314565b610252604084015191604051998a61011c602082819e97826100fc81809b0197888151938492016112c5565b8201610110825180938680850191016112c5565b01038084520182611185565b61022361012e86895199015194611586565b93610187602e60405180978a61014d8184019d8e8151938492016112c5565b82016d777261707065642d736f6e67732f60901b8c8201526101788c835193849187850191016112c5565b0103600e810188520186611185565b604051607b60f81b888201526f0113730b6b2911d101129a7a723a99d160851b60218201528951909c8d9a829060318d01908b016112c5565b89016101fb61088b60f21b988960318401526f113232b9b1b934b83a34b7b7111d101160811b603384015283519384916043850191016112c5565b0191866043840152691134b6b0b3b2911d101160b11b6045840152518093604f8401906112c5565b0192604f840152711132bc3a32b93730b62fb634b735911d101160711b605184015251809360638401906112c5565b01601160f91b6063820152607d60f81b6064820152036045810184520182611185565b6113d4565b60405194827f646174613a6170706c69636174696f6e2f6a736f6e3b6261736536342c0000008794850152825192839186860191016112c5565b810103601d810184520182611185565b604051918291826112e8565b0390f35b600080fd5b346102d45760c03660031901126102d45767ffffffffffffffff6004358181116102d45761030b90369060040161120a565b60243591906044356001600160a01b03811690036102d4576064358281116102d45761033b9036906004016111c3565b916084359081116102d4576103549036906004016111c3565b60a435939092906001600160a01b03851685036102d45761037782511515611314565b6060908182918015600014610e615750505050604051916103978361111b565b6003835260209262714bc960e91b848201529360408201516103c985604051809387516100fc81858501868c016112c5565b93820151935b60405163670d296960e11b81526020816004816001600160a01b038c165afa908115610ca057600491602091600091610e44575b50604051633ead5d1160e01b815292839182906001600160a01b03165afa908115610ca0576024916000918291610e25575b50604051635421432b60e11b81526001600160a01b03604435811660048301529093849290918391165afa908115610ca057600091610e0a575b5060405163670d296960e11b81526020816004816001600160a01b038d165afa908115610ca057600491602091600091610ded575b50604051633ead5d1160e01b815292839182906001600160a01b03165afa908115610ca0576024916000918291610dce575b50604051630437e6a160e21b81526001600160a01b03604435811660048301529093849290918391165afa908115610ca057600091610db3575b5060405163670d296960e11b81529860208a6004816001600160a01b0385165afa998a15610ca05760049a602091600091610d96575b50604051633ead5d1160e01b81529b8c9182906001600160a01b03165afa998a15610ca05760249a6000918291610d77575b5060405163cc7e544560e01b81526001600160a01b0360443581166004830152909c8d9290918391165afa998a15610ca05760009a610d5a575b5060405163670d296960e11b8152926020846004816001600160a01b0386165afa938415610ca057600494602091600091610d3d575b50604051633ead5d1160e01b815295869182906001600160a01b03165afa938415610ca0576024946000918291610d1e575b5060405163164158ff60e01b81526001600160a01b03604435811660048301529096879290918391165afa918215610ca057600494600093610cf6575b5060405163670d296960e11b81529460209186919082906001600160a01b03165afa938415610ca057600494602091600091610cd9575b50604051633ead5d1160e01b815295869182906001600160a01b03165afa938415610ca057602494602091600091610cac575b5060405163a449357560e01b81526001600160a01b03604435811660048301529096879290918391165afa938415610ca057600094610c47575b50946109f398946102d09b9461084f605d6102759b9660859b96610b849f9b80511515600014610c3057915b805115610c1957995b805115610c0257905b805115610beb57905b6040519a8b9371227265676973747279436f646573223a207b60701b6020860152681124a9a921911d101160b91b6032860152610789815180926020603b890191016112c5565b61088b60f21b858201603b81019190915267112aa821911d101160c11b603d8201528251926107c29184916045909101906020016112c5565b84010161088b60f21b6045820152681124a9aba1911d101160b91b60478201526107f68251809360206050850191016112c5565b0161088b60f21b6050820152681124a9a1a1911d101160b91b6052820152610828825180936020605b850191016112c5565b601160f91b605b8383010152607d60f81b605c83830101520103603d810189520187611185565b15610bc7576040516108608161111b565b60048152637472756560e01b6020820152955b6108dd60416040518099702261757468656e746963697479223a207b60781b60208301526e01134b9a0baba3432b73a34b1911d1608d1b60318301526108c38151809260206040860191016112c5565b8101607d60f81b604082015203602181018a520188611185565b8351610944602e6108ef604435611586565b9560405196816109098993518092602080870191016112c5565b82016d777261707065642d736f6e67732f60901b602082015261093582518093602087850191016112c5565b0103600e810187520185611185565b6109c86020608060608801519761098d83604051809b8d61096d815180928680870191016112c5565b8201610981825180938680850191016112c5565b0103808c52018a611185565b01519760405198816109a88b935180928680870191016112c5565b82016109bc825180938680850191016112c5565b01038089520187611185565b602a6040519c8d809b693d913730b6b2911d101160b11b6020830152602081519485930191016112c5565b8901600160fd1b602a820152610a13825180936020602b850191016112c5565b0161088b60f21b602b8201526f113232b9b1b934b83a34b7b7111d101160811b602d820152610a4c825180936020603d850191016112c5565b0161088b60f21b603d820152691134b6b0b3b2911d101160b11b603f820152610a7f8251809360206049850191016112c5565b0161088b60f21b6049820152701132bc3a32b93730b62fbab936111d101160791b604b820152610ab9825180936020605c850191016112c5565b0161088b60f21b605c820152711130b734b6b0ba34b7b72fbab936111d101160711b605e820152610af48251809360206070850191016112c5565b0161088b60f21b60708201526e1130ba3a3934b13aba32b9911d101160891b6072820152610b2c8251809360206081850191016112c5565b0161088b60f21b6081820152610b4c8251809360206083850191016112c5565b01600b60fa1b6083820152610b6b8251809360206084850191016112c5565b01607d60f81b6084820152036065810184520182611185565b6102c4603d60405180937f646174613a6170706c69636174696f6e2f6a736f6e3b6261736536342c00000060208301526102b481518092602086860191016112c5565b604051610bd38161111b565b600581526466616c736560d81b602082015295610873565b50604051610bf88161114d565b6000815290610742565b50604051610c0f8161114d565b6000815290610739565b50604051610c268161114d565b6000815299610730565b50604051610c3d8161114d565b6000815291610727565b9099959792969198949a93506020813d602011610c98575b81610c6c60209383611185565b810103126102d457519687151588036102d45792999498939791969095929493909291906109f36106fb565b3d9150610c5f565b6040513d6000823e3d90fd5b610ccc9150823d8411610cd2575b610cc48183611185565b810190611353565b8d6106c1565b503d610cba565b610cf09150823d8411610cd257610cc48183611185565b8d61068e565b6020919350610d17903d806000833e610d0f8183611185565b810190611372565b9290610657565b610d37915060203d602011610cd257610cc48183611185565b8d61061a565b610d549150823d8411610cd257610cc48183611185565b8d6105e8565b610d70919a503d806000833e610d0f8183611185565b988a6105b2565b610d90915060203d602011610cd257610cc48183611185565b8c610578565b610dad9150823d8411610cd257610cc48183611185565b8c610546565b610dc891503d806000833e610d0f8183611185565b89610510565b610de7915060203d602011610cd257610cc48183611185565b8b6104d6565b610e049150823d8411610cd257610cc48183611185565b8b6104a4565b610e1f91503d806000833e610d0f8183611185565b8861046f565b610e3e915060203d602011610cd257610cc48183611185565b8a610435565b610e5b9150823d8411610cd257610cc48183611185565b8a610403565b60018103610f69575050505060405191610e7a8361111b565b6002835260209261c2a760f01b8482015293610f48610f6260826040850151610eb48860405180938a516100fc818d8680870191016112c5565b96855160405194827f5468657365206172652074686520536f6e67536861726573207468617420726587948501527f70726573656e7420796f7572206f776e657273686970207374616b6520696e2060408501527f74686520726f79616c7479206561726e696e6773206f662074686520536f6e676060850152600160fd1b608085015282519283916081860191016112c5565b8101601760f91b6081820152036062810184520182611185565b935b6103cf565b60028103611050575050505060405191610f828361111b565b6003835260209262e29fb360e81b8482015293611036610f62606d6040850151610fbd8860405180938a516100fc818d8680870191016112c5565b96855160405194827f5468697320746f6b656e206772616e747320796f752061636365737320746f2087948501527f646f776e6c6f6164206120686967682d7175616c6974792076657273696f6e2060408501526b037b3103a34329039b7b733960a51b60608501528251928391606c860191016112c5565b8101601760f91b606c82015203604d810184520182611185565b600390969295939610610f645750935091506040519161106f8361111b565b60048352602092633c27e4e160e21b8482015293611101610f62605060408501516110ab8860405180938a516100fc818d8680870191016112c5565b96855160405194827f546869732069732061204c6567616c20436f6e747261637420446f63756d656e87948501526e03a103337b9103a34329039b7b7339608d1b60408501528251928391604f860191016112c5565b8101601760f91b604f820152036030810184520182611185565b6040810190811067ffffffffffffffff82111761113757604052565b634e487b7160e01b600052604160045260246000fd5b6020810190811067ffffffffffffffff82111761113757604052565b6060810190811067ffffffffffffffff82111761113757604052565b90601f8019910116810190811067ffffffffffffffff82111761113757604052565b67ffffffffffffffff811161113757601f01601f191660200190565b81601f820112156102d4578035906111da826111a7565b926111e86040519485611185565b828452602083830101116102d457816000926020809301838601378301015290565b91909160a0818403126102d4576040519067ffffffffffffffff9060a083018281118482101761113757604052829481358381116102d4578161124e9184016111c3565b845260208201358381116102d457816112689184016111c3565b602085015260408201358381116102d457816112859184016111c3565b604085015260608201358381116102d457816112a29184016111c3565b606085015260808201359283116102d4576080926112c092016111c3565b910152565b60005b8381106112d85750506000910152565b81810151838201526020016112c8565b6040916020825261130881518092816020860152602086860191016112c5565b601f01601f1916010190565b1561131b57565b60405162461bcd60e51b815260206004820152601060248201526f10985cd948155492481b9bdd081cd95d60821b6044820152606490fd5b908160209103126102d457516001600160a01b03811681036102d45790565b6020818303126102d45780519067ffffffffffffffff82116102d4570181601f820112156102d45780516113a5816111a7565b926113b36040519485611185565b818452602082840101116102d4576113d191602080850191016112c5565b90565b80511561154b57604051906113e882611169565b604082527f4142434445464748494a4b4c4d4e4f505152535455565758595a61626364656660208301527f6768696a6b6c6d6e6f707172737475767778797a303132333435363738392b2f604083015280516002918282018092116115355760039182900480841b94906001600160fe1b03811603611535579261148461146e866111a7565b9561147c6040519788611185565b8087526111a7565b6020860190601f190136823793829183518401906020820192835194600085525b8381106114e45750505050525106806001146114d1576002146114c6575090565b603d90600019015390565b50603d9081600019820153600119015390565b87600491999293949901918251600190603f9082828260121c16880101518453828282600c1c16880101518385015382828260061c16880101518885015316850101518982015301979291906114a5565b634e487b7160e01b600052601160045260246000fd5b506040516115588161114d565b6000815290565b908151811015611570570160200190565b634e487b7160e01b600052603260045260246000fd5b604051906001600160a01b031661159c8261111b565b6010825260206f181899199a1a9b1b9c1cb0b131b232b360811b81840152604051926115c784611169565b602a845281840160403682378451156115705760309053835192600193841015611570576078602186015360005b6014811061160557505050505090565b600c810180821161153557848110156115705782901a60046001600160f81b0319600f8161163785851c83168961155f565b511693858a1b946002908787048214881517156116b8578682018092116116b85761166c6116749493928e9260001a9261155f565b53168761155f565b51169060039283018093116116a357506116929060001a918861155f565b5360001981146115355784016115f5565b601190634e487b7160e01b6000525260246000fd5b601186634e487b7160e01b6000525260246000fdfea264697066735822122079b9dd793e9ef2e5b8f9ad4010e4960212a27132edfcffcd8fac1706a53485e064736f6c63430008140033",
  "linkReferences": {},
  "deployedLinkReferences": {}
}