{
  "_format": "hh-sol-artifact-1",
  "contractName": "MetadataRenderer",
  "sourceName": "contracts/protocol/NonUpgradable/MetadataRenderer.sol",
  "abi": [
    {
      "inputs": [
        {
          "components": [
            {
              "internalType": "string",
              "name": "name",
              "type": "string"
            },
            {
              "internalType": "string",
              "name": "description",
              "type": "string"
            },
            {
              "internalType": "string",
              "name": "image",
              "type": "string"
            },
            {
              "internalType": "string",
              "name": "externalUrl",
              "type": "string"
            },
            {
              "internalType": "string",
              "name": "animationUrl",
              "type": "string"
            },
            {
              "internalType": "string",
              "name": "attributesIpfsHash",
              "type": "string"
            }
          ],
          "internalType": "struct IMetadataModule.Metadata",
          "name": "metadata",
          "type": "tuple"
        },
        {
          "internalType": "uint256",
          "name": "tokenId",
          "type": "uint256"
        },
        {
          "internalType": "address",
          "name": "wrappedSongAddress",
          "type": "address"
        },
        {
          "internalType": "string",
          "name": "baseURI",
          "type": "string"
        },
        {
          "internalType": "contract IProtocolModule",
          "name": "protocolModule",
          "type": "address"
        }
      ],
      "name": "composeTokenURI",
      "outputs": [
        {
          "internalType": "string",
          "name": "",
          "type": "string"
        }
      ],
      "stateMutability": "view",
      "type": "function"
    }
  ],
  "bytecode": "0x6080806040523461001657611069908161001c8239f35b600080fdfe600436101561000d57600080fd5b60003560e01c636a1ed3621461002257600080fd5b346108475760031960a0368201126108475760043567ffffffffffffffff918282116108475760c090823603011261084757610140828111610bc65760405280600401358281116108475761007d9060043691840101610c6e565b60805260248101358281116108475761009c9060043691840101610c6e565b60a0908152906044810135838111610847576100be9060043691840101610c6e565b60c0526064810135838111610847576100dd9060043691840101610c6e565b60e0526084810135838111610847576100fc9060043691840101610c6e565b6101005260a48101359083821161084757600461011c9236920101610c6e565b61012052602435916001600160a01b039060443580831690036108475760643590811161084757610151903690600401610c6e565b9260843590828216820361084757845115610b8e5760609081829180156000146108df575050505060405161018581610bdc565b6003815262714bc960e91b6020820152926040608001516101d86020604051809389516101b8818c868087019101610cb5565b82016101cc82518093868085019101610cb5565b01038084520182610c30565b9051925b6040516321dd882b60e01b815260443582166004820152926000846024818585165afa938415610854576000946108c2575b506040516307a5135560e21b815260443583166004820152906000826024818685165afa918215610854576000926108a5575b506040516312ed0f9760e21b815260443584166004820152946000866024818588165afa95861561085457600096610888575b50604051624c306d60e91b815260443585166004820152916000836024818885165afa92831561085457600093610860575b5060209060246040518097819363a449357560e01b835281604435166004840152165afa93841561085457600094610800575b5094610777986107039560859561042c605d60409c976107089c978c6105729d5115156000146107ea57915b8051156107d457975b8051156107be57905b8051156107a857905b8f5198899371227265676973747279436f646573223a207b60701b6020860152681124a9a921911d101160b91b6032860152610366815180926020603b89019101610cb5565b61088b60f21b858201603b81019190915267112aa821911d101160c11b603d82015282519261039f918491604590910190602001610cb5565b84010161088b60f21b6045820152681124a9aba1911d101160b91b60478201526103d3825180936020605085019101610cb5565b0161088b60f21b6050820152681124a9a1a1911d101160b91b6052820152610405825180936020605b85019101610cb5565b601160f91b605b8383010152607d60f81b605c83830101520103603d810187520185610c30565b1561078557895161043c81610bdc565b60048152637472756560e01b6020820152935b6104b860418c518097702261757468656e746963697479223a207b60781b60208301526e01134b9a0baba3432b73a34b1911d1608d1b603183015261049f81516040926020829486019101610cb5565b8101607d60f81b8f820152036021810188520186610c30565b608051916060608001519160808001519361050460208f51809789516104e4818c868087019101610cb5565b82016104f882518093868085019101610cb5565b01038088520186610c30565b610548602060a0608001519760405198816105288b93518092868087019101610cb5565b820161053c82518093868085019101610cb5565b01038089520187610c30565b602a8e519c8d809b693d913730b6b2911d101160b11b602083015260208151948593019101610cb5565b8901600160fd1b602a820152610592825180936020602b85019101610cb5565b0161088b60f21b602b8201526f113232b9b1b934b83a34b7b7111d101160811b602d8201526105cb825180936020603d85019101610cb5565b0161088b60f21b603d820152691134b6b0b3b2911d101160b11b603f8201526105fe825180936020604985019101610cb5565b0161088b60f21b6049820152701132bc3a32b93730b62fbab936111d101160791b604b820152610638825180936020605c85019101610cb5565b0161088b60f21b605c820152711130b734b6b0ba34b7b72fbab936111d101160711b605e820152610673825180936020607085019101610cb5565b0161088b60f21b60708201526e1130ba3a3934b13aba32b9911d101160891b60728201526106ab825180936020608185019101610cb5565b0161088b60f21b60818201526106cb825180936020608385019101610cb5565b01600b60fa1b60838201526106ea825180936020608485019101610cb5565b01607d60f81b6084820152036065810184520182610c30565b610d3a565b81519061075c603d8360208101937f646174613a6170706c69636174696f6e2f6a736f6e3b6261736536342c000000855261074c8151809260208686019101610cb5565b810103601d810185520183610c30565b82519384926020845251809281602086015285850190610cb5565b601f01601f19168101030190f35b895161079081610bdc565b600581526466616c736560d81b60208201529361044f565b508e516107b481610bf8565b6000815290610320565b508e516107ca81610bf8565b6000815290610317565b508e516107e081610bf8565b600081529761030e565b508e516107f681610bf8565b6000815291610305565b9096919594979293506020813d60201161084c575b8161082260209383610c30565b81010312610847575193841515850361084757919690959194909392916107776102d9565b600080fd5b3d9150610815565b6040513d6000823e3d90fd5b6020919350610881903d806000833e6108798183610c30565b810190610cd8565b92906102a6565b61089e9196503d806000833e6108798183610c30565b9438610274565b6108bb9192503d806000833e6108798183610c30565b9038610241565b6108d89194503d806000833e6108798183610c30565b923861020e565b909192939550600181146000146109ed575050505060405161090081610bdc565b6002815261c2a760f01b6020820152916040608001516109316020604051809388516101b881858501868d01610cb5565b61093c604435610eec565b6109e6607d60405180937f5468657365206172652074686520536f6e67536861726573207265707265736560208301527f6e74696e6720796f7572207368617265206f6e2074686520726f79616c74792060408301527f6561726e696e6773206f6620746865205772617070656420536f6e670000000060608301526109cc815180926020607c86019101610cb5565b8101601760f91b607c82015203605d810184520182610c30565b925b6101dc565b60028103610ab55750505050604051610a0581610bdc565b6003815262e29fb360e81b602082015291604060800151610a376020604051809388516101b881858501868d01610cb5565b610a42604435610eec565b6109e6604d60405180937f546869732069732061204275796f757420546f6b656e20666f7220746865205760208301526b03930b83832b21029b7b733960a51b6040830152610a9b815180926020604c86019101610cb5565b8101601760f91b604c82015203602d810184520182610c30565b60039095939594919294106109e8579250509150604051610ad581610bdc565b60048152633c27e4e160e21b602082015291604060800151610b086020604051809388516101b881858501868d01610cb5565b610b13604435610eec565b6109e6605560405180937f546869732069732061204c6567616c20436f6e747261637420546f6b656e2066602083015273037b9103a3432902bb930b83832b21029b7b733960651b6040830152610b74815180926020605486019101610cb5565b8101601760f91b6054820152036035810184520182610c30565b60405162461bcd60e51b815260206004820152601060248201526f10985cd948155492481b9bdd081cd95d60821b6044820152606490fd5b634e487b7160e01b600052604160045260246000fd5b6040810190811067ffffffffffffffff821117610bc657604052565b6020810190811067ffffffffffffffff821117610bc657604052565b6060810190811067ffffffffffffffff821117610bc657604052565b90601f8019910116810190811067ffffffffffffffff821117610bc657604052565b67ffffffffffffffff8111610bc657601f01601f191660200190565b81601f8201121561084757803590610c8582610c52565b92610c936040519485610c30565b8284526020838301011161084757816000926020809301838601378301015290565b60005b838110610cc85750506000910152565b8181015183820152602001610cb8565b6020818303126108475780519067ffffffffffffffff8211610847570181601f82011215610847578051610d0b81610c52565b92610d196040519485610c30565b8184526020828401011161084757610d379160208085019101610cb5565b90565b805115610eb15760405190610d4e82610c14565b604082527f4142434445464748494a4b4c4d4e4f505152535455565758595a61626364656660208301527f6768696a6b6c6d6e6f707172737475767778797a303132333435363738392b2f60408301528051600291828201809211610e9b5760039182900480841b94906001600160fe1b03811603610e9b5792610dea610dd486610c52565b95610de26040519788610c30565b808752610c52565b6020860190601f190136823793829183518401906020820192835194600085525b838110610e4a575050505052510680600114610e3757600214610e2c575090565b603d90600019015390565b50603d9081600019820153600119015390565b87600491999293949901918251600190603f9082828260121c16880101518453828282600c1c16880101518385015382828260061c1688010151888501531685010151898201530197929190610e0b565b634e487b7160e01b600052601160045260246000fd5b50604051610ebe81610bf8565b6000815290565b908151811015610ed6570160200190565b634e487b7160e01b600052603260045260246000fd5b604051906001600160a01b0316610f0282610bdc565b6010825260206f181899199a1a9b1b9c1cb0b131b232b360811b8184015260405192610f2d84610c14565b602a84528184016040368237845115610ed65760309053835192600193841015610ed6576078602186015360005b60148110610f6b57505050505090565b600c8101808211610e9b5784811015610ed65782901a60046001600160f81b0319600f81610f9d85851c831689610ec5565b511693858a1b9460029087870482148815171561101e5786820180921161101e57610fd2610fda9493928e9260001a92610ec5565b531687610ec5565b51169060039283018093116110095750610ff89060001a9188610ec5565b536000198114610e9b578401610f5b565b601190634e487b7160e01b6000525260246000fd5b601186634e487b7160e01b6000525260246000fdfea26469706673582212203f89a52f2f4c4e291fc30de0395859ff13d3bf599c210708eb561d972ee762c964736f6c63430008140033",
  "linkReferences": {},
  "deployedLinkReferences": {}
}