{
  "_format": "hh-sol-artifact-1",
  "contractName": "MetadataRenderer",
  "sourceName": "contracts/protocol/NonUpgradable/MetadataRenderer.sol",
  "abi": [
    {
      "inputs": [
        {
          "components": [
            {
              "internalType": "string",
              "name": "name",
              "type": "string"
            },
            {
              "internalType": "string",
              "name": "description",
              "type": "string"
            },
            {
              "internalType": "string",
              "name": "image",
              "type": "string"
            },
            {
              "internalType": "string",
              "name": "externalUrl",
              "type": "string"
            },
            {
              "internalType": "string",
              "name": "animationUrl",
              "type": "string"
            },
            {
              "internalType": "string",
              "name": "attributesIpfsHash",
              "type": "string"
            }
          ],
          "internalType": "struct IMetadataModule.Metadata",
          "name": "metadata",
          "type": "tuple"
        },
        {
          "internalType": "address",
          "name": "wrappedSongAddress",
          "type": "address"
        },
        {
          "internalType": "string",
          "name": "baseURI",
          "type": "string"
        },
        {
          "internalType": "contract IProtocolModule",
          "name": "protocolModule",
          "type": "address"
        }
      ],
      "name": "composeContractURI",
      "outputs": [
        {
          "internalType": "string",
          "name": "",
          "type": "string"
        }
      ],
      "stateMutability": "view",
      "type": "function"
    },
    {
      "inputs": [
        {
          "components": [
            {
              "internalType": "string",
              "name": "name",
              "type": "string"
            },
            {
              "internalType": "string",
              "name": "description",
              "type": "string"
            },
            {
              "internalType": "string",
              "name": "image",
              "type": "string"
            },
            {
              "internalType": "string",
              "name": "externalUrl",
              "type": "string"
            },
            {
              "internalType": "string",
              "name": "animationUrl",
              "type": "string"
            },
            {
              "internalType": "string",
              "name": "attributesIpfsHash",
              "type": "string"
            }
          ],
          "internalType": "struct IMetadataModule.Metadata",
          "name": "metadata",
          "type": "tuple"
        },
        {
          "internalType": "uint256",
          "name": "tokenId",
          "type": "uint256"
        },
        {
          "internalType": "address",
          "name": "wrappedSongAddress",
          "type": "address"
        },
        {
          "internalType": "string",
          "name": "baseURI",
          "type": "string"
        },
        {
          "internalType": "contract IProtocolModule",
          "name": "protocolModule",
          "type": "address"
        }
      ],
      "name": "composeTokenURI",
      "outputs": [
        {
          "internalType": "string",
          "name": "",
          "type": "string"
        }
      ],
      "stateMutability": "view",
      "type": "function"
    }
  ],
  "bytecode": "0x608080604052346100165761165b908161001c8239f35b600080fdfe6080604052600436101561001257600080fd5b60003560e01c80636a1ed3621461026c5763b7e3c1061461003257600080fd5b346102675760803660031901126102675767ffffffffffffffff60043581811161026757610064903690600401611145565b906001600160a01b03906024358281160361026757604435908111610267576100919036906004016110fe565b906064359081160361026757610257603d61010961020d6101b0610208605e87610263996100c46102479a51151561126c565b6040810151906040519788926020998a91826100e9818401988981519384920161121d565b82016100fd8251809386808501910161121d565b010380855201836110c0565b80519260608983015192015192604051978895607b60f81b8c88015268113730b6b2911d101160b91b602188015261014b8c8251928391602a8b01910161121d565b86019361088b60f21b9485602a8201526f113232b9b1b934b83a34b7b7111d101160811b602c8201526101888d8351938491603c8501910161121d565b019184603c840152691134b6b0b3b2911d101160b11b603e840152518093604884019061121d565b01906048820152711132bc3a32b93730b62fb634b735911d101160711b604a8201526101e5825180938a605c8501910161121d565b01601160f91b605c820152607d60f81b605d82015203603e8101845201826110c0565b61132c565b60405194827f646174613a6170706c69636174696f6e2f6a736f6e3b6261736536342c00000087948501528251928391868601910161121d565b810103601d8101845201826110c0565b60405191829182611240565b0390f35b600080fd5b346102675760a03660031901126102675767ffffffffffffffff6004358181116102675761029e903690600401611145565b60443591602435906001600160a01b038416840361026757606435908111610267576102ce9036906004016110fe565b90608435906001600160a01b0382168203610267576102ef8351151561126c565b60608081928015600014610d9157505050506040519161030e83611056565b6003835260209262714bc960e91b84820152936040810151610360856040518093865161034081858501868b0161121d565b82016103548251809386808501910161121d565b010380845201826110c0565b93810151955b60405163670d296960e11b8152936020856004816001600160a01b0385165afa948515610bc757600495602091600091610d74575b50604051633ead5d1160e01b815296879182906001600160a01b03165afa948515610bc7576024956000918291610d55575b50604051635421432b60e11b81526001600160a01b0385811660048301529097889290918391165afa948515610bc757600095610d38575b5060405163670d296960e11b8152906020826004816001600160a01b0385165afa918215610bc757600492602091600091610d1b575b50604051633ead5d1160e01b815293849182906001600160a01b03165afa918215610bc7576024926000918291610cfc575b50604051630437e6a160e21b81526001600160a01b0386811660048301529094859290918391165afa918215610bc757600092610cdf575b5060405163670d296960e11b8152956020876004816001600160a01b0386165afa968715610bc757600497602091600091610cc2575b50604051633ead5d1160e01b815298899182906001600160a01b03165afa968715610bc7576024976000918291610ca3575b5060405163cc7e544560e01b81526001600160a01b03878116600483015290998a9290918391165afa968715610bc757600097610c86575b5060405163670d296960e11b8152936020856004816001600160a01b0387165afa948515610bc757600495602091600091610c69575b50604051633ead5d1160e01b815296879182906001600160a01b03165afa948515610bc7576024956000918291610c4a575b5060405163164158ff60e01b81526001600160a01b0384811660048301529097889290918391165afa928315610bc757600495600094610c22575b5060405163670d296960e11b81529560209187919082906001600160a01b03165afa948515610bc757600495602091600091610c05575b50604051633ead5d1160e01b815296879182906001600160a01b03165afa948515610bc757600095610bd3575b5060405163a449357560e01b81526001600160a01b0391821660048201529460209186916024918391165afa938415610bc757600094610b74575b50936102639961092098946107da605d6102089a9660859a968a610ab19f9b511515600014610b5d57915b805115610b4657985b805115610b2f57905b805115610b1857905b604051998a9371227265676973747279436f646573223a207b60701b6020860152681124a9a921911d101160b91b6032860152610714815180926020603b8901910161121d565b61088b60f21b858201603b81019190915267112aa821911d101160c11b603d82015282519261074d91849160459091019060200161121d565b84010161088b60f21b6045820152681124a9aba1911d101160b91b604782015261078182518093602060508501910161121d565b0161088b60f21b6050820152681124a9a1a1911d101160b91b60528201526107b3825180936020605b8501910161121d565b601160f91b605b8383010152607d60f81b605c83830101520103603d8101885201866110c0565b15610af4576040516107eb81611056565b60048152637472756560e01b6020820152945b61086860416040518098702261757468656e746963697479223a207b60781b60208301526e01134b9a0baba3432b73a34b1911d1608d1b603183015261084e81518092602060408601910161121d565b8101607d60f81b60408201520360218101895201876110c0565b8251916060840151926108f5602060a06080880151976108ba83604051809b8d61089a8151809286808701910161121d565b82016108ae8251809386808501910161121d565b0103808c52018a6110c0565b01519760405198816108d58b9351809286808701910161121d565b82016108e98251809386808501910161121d565b010380895201876110c0565b602a6040519c8d809b693d913730b6b2911d101160b11b60208301526020815194859301910161121d565b8901600160fd1b602a820152610940825180936020602b8501910161121d565b0161088b60f21b602b8201526f113232b9b1b934b83a34b7b7111d101160811b602d820152610979825180936020603d8501910161121d565b0161088b60f21b603d820152691134b6b0b3b2911d101160b11b603f8201526109ac82518093602060498501910161121d565b0161088b60f21b6049820152701132bc3a32b93730b62fbab936111d101160791b604b8201526109e6825180936020605c8501910161121d565b0161088b60f21b605c820152711130b734b6b0ba34b7b72fbab936111d101160711b605e820152610a2182518093602060708501910161121d565b0161088b60f21b60708201526e1130ba3a3934b13aba32b9911d101160891b6072820152610a5982518093602060818501910161121d565b0161088b60f21b6081820152610a7982518093602060838501910161121d565b01600b60fa1b6083820152610a9882518093602060848501910161121d565b01607d60f81b60848201520360658101845201826110c0565b610257603d60405180937f646174613a6170706c69636174696f6e2f6a736f6e3b6261736536342c0000006020830152610247815180926020868601910161121d565b604051610b0081611056565b600581526466616c736560d81b6020820152946107fe565b50604051610b2581611088565b60008152906106cd565b50604051610b3c81611088565b60008152906106c4565b50604051610b5381611088565b60008152986106bb565b50604051610b6a81611088565b60008152916106b2565b909894969295919793506020813d602011610bbf575b81610b97602093836110c0565b8101031261026757519586151587036102675793979296919590949092909190610263610687565b3d9150610b8a565b6040513d6000823e3d90fd5b6020919550610bf790823d8411610bfe575b610bef81836110c0565b8101906112ab565b949061064c565b503d610be5565b610c1c9150823d8411610bfe57610bef81836110c0565b8d61061f565b6020919450610c43903d806000833e610c3b81836110c0565b8101906112ca565b93906105e8565b610c63915060203d602011610bfe57610bef81836110c0565b8d6105ad565b610c809150823d8411610bfe57610bef81836110c0565b8d61057b565b610c9c9197503d806000833e610c3b81836110c0565b958a610545565b610cbc915060203d602011610bfe57610bef81836110c0565b8c61050d565b610cd99150823d8411610bfe57610bef81836110c0565b8c6104db565b610cf59192503d806000833e610c3b81836110c0565b90896104a5565b610d15915060203d602011610bfe57610bef81836110c0565b8b61046d565b610d329150823d8411610bfe57610bef81836110c0565b8b61043b565b610d4e9195503d806000833e610c3b81836110c0565b9388610405565b610d6e915060203d602011610bfe57610bef81836110c0565b8a6103cd565b610d8b9150823d8411610bfe57610bef81836110c0565b8a61039b565b60018103610e8d575050505060405191610daa83611056565b6002835260209261c2a760f01b8482015293610e6c610e8660756040840151610de48860405180938951610340818c86808701910161121d565b96610dee8a6114de565b60405194827f546865736520536f6e6753686172657320726570726573656e7420796f75722087948501527f6f776e657273686970207374616b6520696e2074686520726f79616c74792065604085015273030b93734b733b99037b3103a34329029b7b733960651b6060850152825192839160748601910161121d565b8101601760f91b60748201520360558101845201826110c0565b955b610366565b60028103610f7b575050505060405191610ea683611056565b6003835260209262e29fb360e81b8482015293610f61610e86606d6040840151610ee18860405180938951610340818c86808701910161121d565b96610eeb8a6114de565b60405194827f5468697320746f6b656e206772616e747320796f752061636365737320746f2087948501527f646f776e6c6f6164206120686967682d7175616c6974792076657273696f6e2060408501526b037b3103a34329039b7b733960a51b60608501528251928391606c8601910161121d565b8101601760f91b606c82015203604d8101845201826110c0565b600390979195939796929610610e885795509350915060405191610f9e83611056565b60048352602092633c27e4e160e21b848201529361103c610e8660556040840151610fda8860405180938951610340818c86808701910161121d565b96610fe48a6114de565b60405194827f546869732069732061204c6567616c20436f6e747261637420546f6b656e2066879485015273037b9103a3432902bb930b83832b21029b7b733960651b6040850152825192839160548601910161121d565b8101601760f91b60548201520360358101845201826110c0565b6040810190811067ffffffffffffffff82111761107257604052565b634e487b7160e01b600052604160045260246000fd5b6020810190811067ffffffffffffffff82111761107257604052565b6060810190811067ffffffffffffffff82111761107257604052565b90601f8019910116810190811067ffffffffffffffff82111761107257604052565b67ffffffffffffffff811161107257601f01601f191660200190565b81601f8201121561026757803590611115826110e2565b9261112360405194856110c0565b8284526020838301011161026757816000926020809301838601378301015290565b91909160c081840312610267576040519067ffffffffffffffff9060c0830182811184821017611072576040528294813583811161026757816111899184016110fe565b8452602082013583811161026757816111a39184016110fe565b6020850152604082013583811161026757816111c09184016110fe565b6040850152606082013583811161026757816111dd9184016110fe565b6060850152608082013583811161026757816111fa9184016110fe565b608085015260a08201359283116102675760a09261121892016110fe565b910152565b60005b8381106112305750506000910152565b8181015183820152602001611220565b60409160208252611260815180928160208601526020868601910161121d565b601f01601f1916010190565b1561127357565b60405162461bcd60e51b815260206004820152601060248201526f10985cd948155492481b9bdd081cd95d60821b6044820152606490fd5b9081602091031261026757516001600160a01b03811681036102675790565b6020818303126102675780519067ffffffffffffffff8211610267570181601f820112156102675780516112fd816110e2565b9261130b60405194856110c0565b8184526020828401011161026757611329916020808501910161121d565b90565b8051156114a35760405190611340826110a4565b604082527f4142434445464748494a4b4c4d4e4f505152535455565758595a61626364656660208301527f6768696a6b6c6d6e6f707172737475767778797a303132333435363738392b2f6040830152805160029182820180921161148d5760039182900480841b94906001600160fe1b0381160361148d57926113dc6113c6866110e2565b956113d460405197886110c0565b8087526110e2565b6020860190601f190136823793829183518401906020820192835194600085525b83811061143c5750505050525106806001146114295760021461141e575090565b603d90600019015390565b50603d9081600019820153600119015390565b87600491999293949901918251600190603f9082828260121c16880101518453828282600c1c16880101518385015382828260061c16880101518885015316850101518982015301979291906113fd565b634e487b7160e01b600052601160045260246000fd5b506040516114b081611088565b6000815290565b9081518110156114c8570160200190565b634e487b7160e01b600052603260045260246000fd5b604051906001600160a01b03166114f482611056565b6010825260206f181899199a1a9b1b9c1cb0b131b232b360811b818401526040519261151f846110a4565b602a845281840160403682378451156114c857603090538351926001938410156114c8576078602186015360005b6014811061155d57505050505090565b600c810180821161148d57848110156114c85782901a60046001600160f81b0319600f8161158f85851c8316896114b7565b511693858a1b9460029087870482148815171561161057868201809211611610576115c46115cc9493928e9260001a926114b7565b5316876114b7565b51169060039283018093116115fb57506115ea9060001a91886114b7565b53600019811461148d57840161154d565b601190634e487b7160e01b6000525260246000fd5b601186634e487b7160e01b6000525260246000fdfea264697066735822122050002b2dd4c72dba2a76b65b1f3c34feda7da130be792dc1903d3ddc6b81ccfd64736f6c63430008140033",
  "linkReferences": {},
  "deployedLinkReferences": {}
}