{
  "_format": "hh-sol-artifact-1",
  "contractName": "MetadataRenderer",
  "sourceName": "contracts/protocol/NonUpgradable/MetadataRenderer.sol",
  "abi": [
    {
      "inputs": [
        {
          "components": [
            {
              "internalType": "string",
              "name": "name",
              "type": "string"
            },
            {
              "internalType": "string",
              "name": "description",
              "type": "string"
            },
            {
              "internalType": "string",
              "name": "image",
              "type": "string"
            },
            {
              "internalType": "string",
              "name": "externalUrl",
              "type": "string"
            },
            {
              "internalType": "string",
              "name": "animationUrl",
              "type": "string"
            },
            {
              "internalType": "string",
              "name": "attributesIpfsHash",
              "type": "string"
            }
          ],
          "internalType": "struct IMetadataModule.Metadata",
          "name": "metadata",
          "type": "tuple"
        },
        {
          "internalType": "uint256",
          "name": "tokenId",
          "type": "uint256"
        },
        {
          "internalType": "address",
          "name": "wrappedSongAddress",
          "type": "address"
        },
        {
          "internalType": "string",
          "name": "baseURI",
          "type": "string"
        },
        {
          "internalType": "contract IProtocolModule",
          "name": "protocolModule",
          "type": "address"
        }
      ],
      "name": "composeTokenURI",
      "outputs": [
        {
          "internalType": "string",
          "name": "",
          "type": "string"
        }
      ],
      "stateMutability": "view",
      "type": "function"
    }
  ],
  "bytecode": "0x60808060405234610016576113dd908161001c8239f35b600080fdfe600436101561000d57600080fd5b60003560e01c636a1ed3621461002257600080fd5b34610a685760031960a036820112610a685760043567ffffffffffffffff91828211610a685760c0908236030112610a6857610140828111610f1b576040528060040135828111610a685761007d9060043691840101610fc3565b6080526024810135828111610a685761009c9060043691840101610fc3565b60a0908152916044820135818111610a68576100be9060043691850101610fc3565b60c0908152916064810135828111610a68576100e09060043691840101610fc3565b60e0526084810135828111610a68576100ff9060043691840101610fc3565b6101005260a481013590828211610a6857600461011f9236920101610fc3565b61012052604435906001600160a01b0382168203610a6857606435908111610a685761014f903690600401610fc3565b92608435906001600160a01b0382168203610a6857845115610ee3576060808060243580610c3f575050505060405161018781610f31565b6003815262714bc960e91b602082015293516101d56020604051809389516101b5818c86808701910161100a565b82016101c98251809386808501910161100a565b01038084520182610f85565b9051925b60405163670d296960e11b8152926020846004816001600160a01b0385165afa938415610a7557600494602091600091610c22575b50604051633ead5d1160e01b815295869182906001600160a01b03165afa938415610a75576024946000918291610c03575b50604051635421432b60e11b81526001600160a01b0385811660048301529096879290918391165afa938415610a7557600094610be6575b5060405163670d296960e11b8152906020826004816001600160a01b0385165afa918215610a7557600492602091600091610bc9575b50604051633ead5d1160e01b815293849182906001600160a01b03165afa918215610a75576024926000918291610baa575b50604051630437e6a160e21b81526001600160a01b0386811660048301529094859290918391165afa918215610a7557600092610b8d575b5060405163670d296960e11b8152946020866004816001600160a01b0386165afa958615610a7557600496602091600091610b70575b50604051633ead5d1160e01b815297889182906001600160a01b03165afa958615610a75576024966000918291610b51575b5060405163cc7e544560e01b81526001600160a01b0387811660048301529098899290918391165afa958615610a7557600096610b34575b5060405163670d296960e11b8152936020856004816001600160a01b0387165afa948515610a7557600495602091600091610b17575b50604051633ead5d1160e01b815296879182906001600160a01b03165afa948515610a75576024956000918291610af8575b5060405163164158ff60e01b81526001600160a01b0384811660048301529097889290918391165afa928315610a7557600495600094610ad0575b5060405163670d296960e11b81529560209187919082906001600160a01b03165afa948515610a7557600495602091600091610ab3575b50604051633ead5d1160e01b815296879182906001600160a01b03165afa948515610a7557600095610a81575b5060405163a449357560e01b81526001600160a01b0391821660048201529460209186916024918391165afa938415610a7557600094610a21575b5094610998986109249560859561064d605d60409c976109299c978c6107939d511515600014610a0b57915b8051156109f557975b8051156109df57905b8051156109c957905b8f5198899371227265676973747279436f646573223a207b60701b6020860152681124a9a921911d101160b91b6032860152610587815180926020603b8901910161100a565b61088b60f21b858201603b81019190915267112aa821911d101160c11b603d8201528251926105c091849160459091019060200161100a565b84010161088b60f21b6045820152681124a9aba1911d101160b91b60478201526105f482518093602060508501910161100a565b0161088b60f21b6050820152681124a9a1a1911d101160b91b6052820152610626825180936020605b8501910161100a565b601160f91b605b8383010152607d60f81b605c83830101520103603d810187520185610f85565b156109a657895161065d81610f31565b60048152637472756560e01b6020820152935b6106d960418c518097702261757468656e746963697479223a207b60781b60208301526e01134b9a0baba3432b73a34b1911d1608d1b60318301526106c08151604092602082948601910161100a565b8101607d60f81b8f820152036021810188520186610f85565b608051916060608001519160808001519361072560208f5180978951610705818c86808701910161100a565b82016107198251809386808501910161100a565b01038088520186610f85565b610769602060a0608001519760405198816107498b9351809286808701910161100a565b820161075d8251809386808501910161100a565b01038089520187610f85565b602a8e519c8d809b693d913730b6b2911d101160b11b60208301526020815194859301910161100a565b8901600160fd1b602a8201526107b3825180936020602b8501910161100a565b0161088b60f21b602b8201526f113232b9b1b934b83a34b7b7111d101160811b602d8201526107ec825180936020603d8501910161100a565b0161088b60f21b603d820152691134b6b0b3b2911d101160b11b603f82015261081f82518093602060498501910161100a565b0161088b60f21b6049820152701132bc3a32b93730b62fbab936111d101160791b604b820152610859825180936020605c8501910161100a565b0161088b60f21b605c820152711130b734b6b0ba34b7b72fbab936111d101160711b605e82015261089482518093602060708501910161100a565b0161088b60f21b60708201526e1130ba3a3934b13aba32b9911d101160891b60728201526108cc82518093602060818501910161100a565b0161088b60f21b60818201526108ec82518093602060838501910161100a565b01600b60fa1b608382015261090b82518093602060848501910161100a565b01607d60f81b6084820152036065810184520182610f85565b6110ae565b81519061097d603d8360208101937f646174613a6170706c69636174696f6e2f6a736f6e3b6261736536342c000000855261096d815180926020868601910161100a565b810103601d810185520183610f85565b8251938492602084525180928160208601528585019061100a565b601f01601f19168101030190f35b89516109b181610f31565b600581526466616c736560d81b602082015293610670565b508e516109d581610f4d565b6000815290610541565b508e516109eb81610f4d565b6000815290610538565b508e51610a0181610f4d565b600081529761052f565b508e51610a1781610f4d565b6000815291610526565b9096919594979293506020813d602011610a6d575b81610a4360209383610f85565b81010312610a685751938415158503610a6857919690959194909392916109986104fa565b600080fd5b3d9150610a36565b6040513d6000823e3d90fd5b6020919550610aa590823d8411610aac575b610a9d8183610f85565b81019061102d565b94906104bf565b503d610a93565b610aca9150823d8411610aac57610a9d8183610f85565b38610492565b6020919450610af1903d806000833e610ae98183610f85565b81019061104c565b939061045b565b610b11915060203d602011610aac57610a9d8183610f85565b38610420565b610b2e9150823d8411610aac57610a9d8183610f85565b386103ee565b610b4a9196503d806000833e610ae98183610f85565b94386103b8565b610b6a915060203d602011610aac57610a9d8183610f85565b38610380565b610b879150823d8411610aac57610a9d8183610f85565b3861034e565b610ba39192503d806000833e610ae98183610f85565b9038610318565b610bc3915060203d602011610aac57610a9d8183610f85565b386102e0565b610be09150823d8411610aac57610a9d8183610f85565b386102ae565b610bfc9194503d806000833e610ae98183610f85565b9238610278565b610c1c915060203d602011610aac57610a9d8183610f85565b38610240565b610c399150823d8411610aac57610a9d8183610f85565b3861020e565b929350909160018103610d415750505050604051610c5c81610f31565b6002815261c2a760f01b60208201529251610c886020604051809388516101b581858501868d0161100a565b610c9183611260565b610d3b607d60405180937f5468657365206172652074686520536f6e67536861726573207265707265736560208301527f6e74696e6720796f7572207368617265206f6e2074686520726f79616c74792060408301527f6561726e696e6773206f6620746865205772617070656420536f6e67000000006060830152610d21815180926020607c8601910161100a565b8101601760f91b607c82015203605d810184520182610f85565b926101d9565b60028103610e025750505050604051610d5981610f31565b6003815262e29fb360e81b60208201529251610d866020604051809388516101b581858501868d0161100a565b610d8f83611260565b610d3b604d60405180937f546869732069732061204275796f757420546f6b656e20666f7220746865205760208301526b03930b83832b21029b7b733960a51b6040830152610de8815180926020604c8601910161100a565b8101601760f91b604c82015203602d810184520182610f85565b600390969193969592951015610e19575b506101d9565b9450925050604051610e2a81610f31565b60048152633c27e4e160e21b60208201529251610e586020604051809388516101b581858501868d0161100a565b610e6183611260565b610edc605560405180937f546869732069732061204c6567616c20436f6e747261637420546f6b656e2066602083015273037b9103a3432902bb930b83832b21029b7b733960651b6040830152610ec281518092602060548601910161100a565b8101601760f91b6054820152036035810184520182610f85565b9238610e13565b60405162461bcd60e51b815260206004820152601060248201526f10985cd948155492481b9bdd081cd95d60821b6044820152606490fd5b634e487b7160e01b600052604160045260246000fd5b6040810190811067ffffffffffffffff821117610f1b57604052565b6020810190811067ffffffffffffffff821117610f1b57604052565b6060810190811067ffffffffffffffff821117610f1b57604052565b90601f8019910116810190811067ffffffffffffffff821117610f1b57604052565b67ffffffffffffffff8111610f1b57601f01601f191660200190565b81601f82011215610a6857803590610fda82610fa7565b92610fe86040519485610f85565b82845260208383010111610a6857816000926020809301838601378301015290565b60005b83811061101d5750506000910152565b818101518382015260200161100d565b90816020910312610a6857516001600160a01b0381168103610a685790565b602081830312610a685780519067ffffffffffffffff8211610a68570181601f82011215610a6857805161107f81610fa7565b9261108d6040519485610f85565b81845260208284010111610a68576110ab916020808501910161100a565b90565b80511561122557604051906110c282610f69565b604082527f4142434445464748494a4b4c4d4e4f505152535455565758595a61626364656660208301527f6768696a6b6c6d6e6f707172737475767778797a303132333435363738392b2f6040830152805160029182820180921161120f5760039182900480841b94906001600160fe1b0381160361120f579261115e61114886610fa7565b956111566040519788610f85565b808752610fa7565b6020860190601f190136823793829183518401906020820192835194600085525b8381106111be5750505050525106806001146111ab576002146111a0575090565b603d90600019015390565b50603d9081600019820153600119015390565b87600491999293949901918251600190603f9082828260121c16880101518453828282600c1c16880101518385015382828260061c168801015188850153168501015189820153019792919061117f565b634e487b7160e01b600052601160045260246000fd5b5060405161123281610f4d565b6000815290565b90815181101561124a570160200190565b634e487b7160e01b600052603260045260246000fd5b604051906001600160a01b031661127682610f31565b6010825260206f181899199a1a9b1b9c1cb0b131b232b360811b81840152604051926112a184610f69565b602a8452818401604036823784511561124a576030905383519260019384101561124a576078602186015360005b601481106112df57505050505090565b600c810180821161120f578481101561124a5782901a60046001600160f81b0319600f8161131185851c831689611239565b511693858a1b94600290878704821488151715611392578682018092116113925761134661134e9493928e9260001a92611239565b531687611239565b511690600392830180931161137d575061136c9060001a9188611239565b53600019811461120f5784016112cf565b601190634e487b7160e01b6000525260246000fd5b601186634e487b7160e01b6000525260246000fdfea2646970667358221220b76540bf54b003ecfe690d4f99f02f15c8380fb195d0e8fc1701ed2675a42f6464736f6c63430008140033",
  "linkReferences": {},
  "deployedLinkReferences": {}
}