{
  "_format": "hh-sol-artifact-1",
  "contractName": "BuyoutTokenMarketPlace",
  "sourceName": "contracts/protocol/NonUpgradable/BuyoutTokenMarketPlace.sol",
  "abi": [
    {
      "inputs": [
        {
          "internalType": "address",
          "name": "_protocolModule",
          "type": "address"
        }
      ],
      "stateMutability": "nonpayable",
      "type": "constructor"
    },
    {
      "inputs": [
        {
          "internalType": "address",
          "name": "target",
          "type": "address"
        }
      ],
      "name": "AddressEmptyCode",
      "type": "error"
    },
    {
      "inputs": [
        {
          "internalType": "address",
          "name": "account",
          "type": "address"
        }
      ],
      "name": "AddressInsufficientBalance",
      "type": "error"
    },
    {
      "inputs": [],
      "name": "EnforcedPause",
      "type": "error"
    },
    {
      "inputs": [],
      "name": "ExpectedPause",
      "type": "error"
    },
    {
      "inputs": [],
      "name": "FailedInnerCall",
      "type": "error"
    },
    {
      "inputs": [
        {
          "internalType": "address",
          "name": "owner",
          "type": "address"
        }
      ],
      "name": "OwnableInvalidOwner",
      "type": "error"
    },
    {
      "inputs": [
        {
          "internalType": "address",
          "name": "account",
          "type": "address"
        }
      ],
      "name": "OwnableUnauthorizedAccount",
      "type": "error"
    },
    {
      "inputs": [],
      "name": "ReentrancyGuardReentrantCall",
      "type": "error"
    },
    {
      "inputs": [
        {
          "internalType": "address",
          "name": "token",
          "type": "address"
        }
      ],
      "name": "SafeERC20FailedOperation",
      "type": "error"
    },
    {
      "anonymous": false,
      "inputs": [
        {
          "indexed": true,
          "internalType": "address",
          "name": "wrappedSong",
          "type": "address"
        }
      ],
      "name": "BuyoutSaleEnded",
      "type": "event"
    },
    {
      "anonymous": false,
      "inputs": [
        {
          "indexed": true,
          "internalType": "address",
          "name": "wrappedSong",
          "type": "address"
        },
        {
          "indexed": true,
          "internalType": "address",
          "name": "owner",
          "type": "address"
        },
        {
          "indexed": false,
          "internalType": "uint256",
          "name": "amount",
          "type": "uint256"
        },
        {
          "indexed": false,
          "internalType": "uint256",
          "name": "price",
          "type": "uint256"
        },
        {
          "indexed": false,
          "internalType": "address",
          "name": "stableCoinAddress",
          "type": "address"
        }
      ],
      "name": "BuyoutSaleStarted",
      "type": "event"
    },
    {
      "anonymous": false,
      "inputs": [
        {
          "indexed": true,
          "internalType": "address",
          "name": "wrappedSong",
          "type": "address"
        },
        {
          "indexed": true,
          "internalType": "address",
          "name": "buyer",
          "type": "address"
        },
        {
          "indexed": true,
          "internalType": "address",
          "name": "recipient",
          "type": "address"
        },
        {
          "indexed": false,
          "internalType": "uint256",
          "name": "amount",
          "type": "uint256"
        },
        {
          "indexed": false,
          "internalType": "uint256",
          "name": "totalCost",
          "type": "uint256"
        },
        {
          "indexed": false,
          "internalType": "address",
          "name": "paymentToken",
          "type": "address"
        }
      ],
      "name": "BuyoutTokenSold",
      "type": "event"
    },
    {
      "anonymous": false,
      "inputs": [
        {
          "indexed": true,
          "internalType": "address",
          "name": "wrappedSong",
          "type": "address"
        },
        {
          "indexed": false,
          "internalType": "address",
          "name": "token",
          "type": "address"
        },
        {
          "indexed": false,
          "internalType": "uint256",
          "name": "amount",
          "type": "uint256"
        },
        {
          "indexed": false,
          "internalType": "address",
          "name": "sender",
          "type": "address"
        }
      ],
      "name": "ERC20Received",
      "type": "event"
    },
    {
      "anonymous": false,
      "inputs": [
        {
          "indexed": true,
          "internalType": "address",
          "name": "wrappedSong",
          "type": "address"
        },
        {
          "indexed": true,
          "internalType": "address",
          "name": "to",
          "type": "address"
        },
        {
          "indexed": false,
          "internalType": "uint256",
          "name": "amount",
          "type": "uint256"
        }
      ],
      "name": "FundsWithdrawn",
      "type": "event"
    },
    {
      "anonymous": false,
      "inputs": [
        {
          "indexed": true,
          "internalType": "address",
          "name": "previousOwner",
          "type": "address"
        },
        {
          "indexed": true,
          "internalType": "address",
          "name": "newOwner",
          "type": "address"
        }
      ],
      "name": "OwnershipTransferred",
      "type": "event"
    },
    {
      "anonymous": false,
      "inputs": [
        {
          "indexed": false,
          "internalType": "address",
          "name": "account",
          "type": "address"
        }
      ],
      "name": "Paused",
      "type": "event"
    },
    {
      "anonymous": false,
      "inputs": [
        {
          "indexed": false,
          "internalType": "address",
          "name": "account",
          "type": "address"
        }
      ],
      "name": "Unpaused",
      "type": "event"
    },
    {
      "inputs": [
        {
          "internalType": "address",
          "name": "",
          "type": "address"
        }
      ],
      "name": "accumulatedFunds",
      "outputs": [
        {
          "internalType": "uint256",
          "name": "",
          "type": "uint256"
        }
      ],
      "stateMutability": "view",
      "type": "function"
    },
    {
      "inputs": [
        {
          "internalType": "address",
          "name": "wrappedSong",
          "type": "address"
        },
        {
          "internalType": "uint256",
          "name": "amount",
          "type": "uint256"
        },
        {
          "internalType": "address",
          "name": "recipient",
          "type": "address"
        }
      ],
      "name": "buyToken",
      "outputs": [],
      "stateMutability": "payable",
      "type": "function"
    },
    {
      "inputs": [
        {
          "internalType": "address",
          "name": "wrappedSong",
          "type": "address"
        }
      ],
      "name": "endSale",
      "outputs": [],
      "stateMutability": "nonpayable",
      "type": "function"
    },
    {
      "inputs": [
        {
          "internalType": "address",
          "name": "wrappedSong",
          "type": "address"
        }
      ],
      "name": "getSale",
      "outputs": [
        {
          "components": [
            {
              "internalType": "bool",
              "name": "active",
              "type": "bool"
            },
            {
              "internalType": "address",
              "name": "seller",
              "type": "address"
            },
            {
              "internalType": "uint256",
              "name": "tokensForSale",
              "type": "uint256"
            },
            {
              "internalType": "uint256",
              "name": "pricePerToken",
              "type": "uint256"
            },
            {
              "internalType": "uint256",
              "name": "totalSold",
              "type": "uint256"
            },
            {
              "internalType": "address",
              "name": "stableCoin",
              "type": "address"
            }
          ],
          "internalType": "struct BuyoutTokenMarketPlace.Sale",
          "name": "",
          "type": "tuple"
        }
      ],
      "stateMutability": "view",
      "type": "function"
    },
    {
      "inputs": [
        {
          "internalType": "address",
          "name": "wrappedSong",
          "type": "address"
        },
        {
          "internalType": "address",
          "name": "seller",
          "type": "address"
        }
      ],
      "name": "isApprovedForTokens",
      "outputs": [
        {
          "internalType": "bool",
          "name": "",
          "type": "bool"
        }
      ],
      "stateMutability": "view",
      "type": "function"
    },
    {
      "inputs": [
        {
          "internalType": "address",
          "name": "wrappedSong",
          "type": "address"
        }
      ],
      "name": "isSaleExpired",
      "outputs": [
        {
          "internalType": "bool",
          "name": "",
          "type": "bool"
        }
      ],
      "stateMutability": "view",
      "type": "function"
    },
    {
      "inputs": [],
      "name": "owner",
      "outputs": [
        {
          "internalType": "address",
          "name": "",
          "type": "address"
        }
      ],
      "stateMutability": "view",
      "type": "function"
    },
    {
      "inputs": [],
      "name": "pause",
      "outputs": [],
      "stateMutability": "nonpayable",
      "type": "function"
    },
    {
      "inputs": [],
      "name": "paused",
      "outputs": [
        {
          "internalType": "bool",
          "name": "",
          "type": "bool"
        }
      ],
      "stateMutability": "view",
      "type": "function"
    },
    {
      "inputs": [],
      "name": "protocolModule",
      "outputs": [
        {
          "internalType": "contract IProtocolModule",
          "name": "",
          "type": "address"
        }
      ],
      "stateMutability": "view",
      "type": "function"
    },
    {
      "inputs": [],
      "name": "renounceOwnership",
      "outputs": [],
      "stateMutability": "nonpayable",
      "type": "function"
    },
    {
      "inputs": [
        {
          "internalType": "address",
          "name": "",
          "type": "address"
        }
      ],
      "name": "saleStartTimes",
      "outputs": [
        {
          "internalType": "uint256",
          "name": "",
          "type": "uint256"
        }
      ],
      "stateMutability": "view",
      "type": "function"
    },
    {
      "inputs": [
        {
          "internalType": "address",
          "name": "",
          "type": "address"
        }
      ],
      "name": "sales",
      "outputs": [
        {
          "internalType": "bool",
          "name": "active",
          "type": "bool"
        },
        {
          "internalType": "address",
          "name": "seller",
          "type": "address"
        },
        {
          "internalType": "uint256",
          "name": "tokensForSale",
          "type": "uint256"
        },
        {
          "internalType": "uint256",
          "name": "pricePerToken",
          "type": "uint256"
        },
        {
          "internalType": "uint256",
          "name": "totalSold",
          "type": "uint256"
        },
        {
          "internalType": "address",
          "name": "stableCoin",
          "type": "address"
        }
      ],
      "stateMutability": "view",
      "type": "function"
    },
    {
      "inputs": [
        {
          "internalType": "address",
          "name": "wrappedSong",
          "type": "address"
        },
        {
          "internalType": "uint256",
          "name": "amount",
          "type": "uint256"
        },
        {
          "internalType": "uint256",
          "name": "price",
          "type": "uint256"
        },
        {
          "internalType": "address",
          "name": "_stableCoin",
          "type": "address"
        }
      ],
      "name": "startSale",
      "outputs": [],
      "stateMutability": "nonpayable",
      "type": "function"
    },
    {
      "inputs": [
        {
          "internalType": "address",
          "name": "newOwner",
          "type": "address"
        }
      ],
      "name": "transferOwnership",
      "outputs": [],
      "stateMutability": "nonpayable",
      "type": "function"
    },
    {
      "inputs": [],
      "name": "unpause",
      "outputs": [],
      "stateMutability": "nonpayable",
      "type": "function"
    },
    {
      "inputs": [
        {
          "internalType": "address",
          "name": "wrappedSong",
          "type": "address"
        }
      ],
      "name": "withdrawFunds",
      "outputs": [],
      "stateMutability": "nonpayable",
      "type": "function"
    },
    {
      "stateMutability": "payable",
      "type": "receive"
    }
  ],
  "bytecode": "0x60a0346100f957601f611c5238819003918201601f19168301916001600160401b038311848410176100fe578084926020946040528339810103126100f957516001600160a01b0390818116908190036100f95733156100e0576000543360018060a01b0319821617600055604051923391167f8be0079c531659141344cd1fd0a4f28419497f9722a3daafe3b4186f6b6457e0600080a36001805560ff1960025416600255608052611b3d908161011582396080518181816102af015281816105a201528181610bf401528181610f170152818161100201526115a20152f35b604051631e4fbdf760e01b815260006004820152602490fd5b600080fd5b634e487b7160e01b600052604160045260246000fdfe60806040818152600480361015610021575b505050361561001f57600080fd5b005b600092833560e01c90816325b8b8cb14611716575080632df6e396146116235780633ec989841461155e5780633f4ba83a146114f557806349cc895414610f465780635c42e66714610f025780635c975abb14610ede57806368742da614610b54578063692bf4a81461051f57806369ac1487146104ea578063715018a61461048d5780637cd4c4b4146104555780638456cb59146103fa5780638c9f7b391461021a5780638da5cb5b146101ee578063c6b9f06a146101785763f2fde38b036100115734610174576020366003190112610174576100fe6117ee565b90610107611809565b6001600160a01b0391821692831561015e575050600054826bffffffffffffffffffffffff60a01b821617600055167f8be0079c531659141344cd1fd0a4f28419497f9722a3daafe3b4186f6b6457e0600080a380f35b51631e4fbdf760e01b8152908101849052602490fd5b8280fd5b50346101745760203660031901126101745760c0926001600160a01b0391908390836101a26117ee565b16815260036020522090815493600183015490846002850154936003860154950154169481519660ff81161515885260081c1660208701528501526060840152608083015260a0820152f35b505034610216578160031936011261021657905490516001600160a01b039091168152602090f35b5080fd5b50903461017457602091826003193601126103f6576001600160a01b0390816102416117ee565b16938351638da5cb5b60e01b815281818481895afa9081156103a257906102739188916103d9575b50841633146118a8565b8351636fad7e9560e11b815281818481895afa9081156103a25787916103ac575b508451631b3d58e960e21b81529084168382015281816024817f000000000000000000000000000000000000000000000000000000000000000088165afa9081156103a257906102eb918891610375575b50611905565b848652600381528386209384549361030560ff861661196f565b33908560081c16036103415750505060ff191690557f61a2297540c8828d00dc5c726f5f7bf5d10714ce0257243b8dac34997f3950df8280a280f35b5162461bcd60e51b815291820152601060248201526f2737ba1039b0b6329031b932b0ba37b960811b604482015260649150fd5b6103959150833d851161039b575b61038d8183611867565b8101906118ed565b386102e5565b503d610383565b85513d89823e3d90fd5b6103cc9150823d84116103d2575b6103c48183611867565b810190611889565b38610294565b503d6103ba565b6103f09150833d85116103d2576103c48183611867565b38610269565b8380fd5b50503461021657816003193601126102165760207f62e78cea01bee320cd4e420270b5ea74000d11b0c9f74754ebdbfc544b05a25891610438611809565b610440611951565b600160ff19600254161760025551338152a180f35b5050346102165760203660031901126102165760209181906001600160a01b0361047d6117ee565b1681526005845220549051908152f35b83346104e757806003193601126104e7576104a6611809565b600080546001600160a01b0319811682556001600160a01b03167f8be0079c531659141344cd1fd0a4f28419497f9722a3daafe3b4186f6b6457e08280a380f35b80fd5b50346101745760203660031901126101745760209282916001600160a01b036105116117ee565b168252845220549051908152f35b506060366003190112610174576105346117ee565b916024908135926044359460018060a01b0390818716809703610b5057819061055b611951565b610563611ae4565b1693835190636fad7e9560e11b93848352602092838183818b5afa908115610b46578b91610b29575b508651631b3d58e960e21b8152908516828201527f000000000000000000000000000000000000000000000000000000000000000085169084818581855afa908115610b1f57906105e3918d91610b085750611905565b8915610ac75790808b93928985526003865285898087209661060860ff89541661196f565b8c81528483522054918a519384809263391ff95160e11b82525afa9081156108a6578d91610a92575b61063b92506119ac565b4211610a63578815610a23576001830191898354106109e157600284015496878b02978b89048082036109cf570361099c578851908152858184818d5afa9081156108a6578d9161097f575b50848301805490969088161561092457346108d557878754168a51906323b872dd60e01b8383015233858301523060448301528a6064830152606482528160a081011067ffffffffffffffff60a0840111176108c2578f8b8e948e80936107178760609760a07fbd7707a1de40529ff5b4f68e17fecf7422a7905f17278da98345df7e495d2cd09a0185526119cf565b878152600583522061072a8382546119ac565b90558c8c54169251928352820152338d820152a25b83548b81039081116108b05790879185556003860161075f8d82546119ac565b905516918c87865460081c16843b156102165760c48e91838f978e519889958694637921219560e11b8652898601528985015260026044850152606484015260a060848401528160a48401525af180156108a657610854575b505050917fe1238c54cf41c1e044a2264a7883428197679234243fd743d4b0c646344692d395949391610817935415610821575b50549351968752602087019290925291166001600160a01b0316604085015233939081906060820190565b0390a46001805580f35b805460ff19169055867f61a2297540c8828d00dc5c726f5f7bf5d10714ce0257243b8dac34997f3950df8b80a2386107ec565b67ffffffffffffffff839d949d11610895575050865298816108177fe1238c54cf41c1e044a2264a7883428197679234243fd743d4b0c646344692d36107b8565b634e487b7160e01b84526041905282fd5b89513d8f823e3d90fd5b634e487b7160e01b8e5260118452828efd5b50634e487b7160e01b8f5260418552838ffd5b836025846084938d519362461bcd60e51b85528401528201527f455448206e6f7420616363657074656420666f7220737461626c6520636f696e6044820152642073616c6560d81b6064820152fd5b883403610947576005908b8f5252888d206109403482546119ac565b905561073f565b836014846064938d519362461bcd60e51b855284015282015273125b98dbdc9c9958dd0811551208185b5bdd5b9d60621b6044820152fd5b6109969150863d88116103d2576103c48183611867565b38610687565b885162461bcd60e51b8152808401879052600e818401526d4f766572666c6f7720636865636b60901b6044820152606490fd5b634e487b7160e01b8f5260118552838ffd5b875162461bcd60e51b8152918201859052601b908201527f4e6f7420656e6f75676820746f6b656e7320617661696c61626c6500000000006044820152606490fd5b601d6064928589519362461bcd60e51b85528401528201527f416d6f756e74206d7573742062652067726561746572207468616e20300000006044820152fd5b600c6064928589519362461bcd60e51b85528401528201526b14d85b1948195e1c1a5c995960a21b6044820152fd5b90508582813d8311610ac0575b610aa98183611867565b81010312610abc5761063b915190610631565b8c80fd5b503d610a9f565b5060196064928488519362461bcd60e51b85528401528201527f496e76616c696420726563697069656e742061646472657373000000000000006044820152fd5b6103959150863d881161039b5761038d8183611867565b88513d8e823e3d90fd5b610b409150843d86116103d2576103c48183611867565b3861058c565b87513d8d823e3d90fd5b8780fd5b5034610174576020806003193601126103f657610b6f6117ee565b92610b78611ae4565b8051638da5cb5b60e01b81526001600160a01b03948516939083818381885afa908115610eb75790610bb5918891610ec1575b50861633146118a8565b8151636fad7e9560e11b81529083828281885afa918215610eb7578792610e98575b508251631b3d58e960e21b815291861681830152602491848184817f00000000000000000000000000000000000000000000000000000000000000008b165afa908115610e8e5790610c2f918991610b085750611905565b8487526005845282872054958615610e5657858852600385528388208201546005865284892089905516908115610d965783516370a0823160e01b8152308282015285818581865afa908115610d8c579088918a91610d57575b5010610d1557835163a9059cbb60e01b8682015233848201526044808201899052815292608084019167ffffffffffffffff831185841017610d0457505083527fa92ff919b850e4909ab2261d907ef955f11bc1716733a6cbece38d163a69af8a939291610cf6916119cf565b519384523393a36001805580f35b634e487b7160e01b8a526041905288fd5b835162461bcd60e51b8152908101859052601d818401527f496e73756666696369656e7420636f6e74726163742062616c616e63650000006044820152606490fd5b809250878092503d8311610d85575b610d708183611867565b81010312610d815787905138610c89565b8880fd5b503d610d66565b85513d8b823e3d90fd5b919050854710610e16578680808089335af1610db0611a41565b5015610de0575050907fa92ff919b850e4909ab2261d907ef955f11bc1716733a6cbece38d163a69af8a91610cf6565b60649360139293519362461bcd60e51b855284015282015272115512081d1c985b9cd9995c8819985a5b1959606a1b6044820152fd5b60649360189293519362461bcd60e51b85528401528201527f496e73756666696369656e74204554482062616c616e636500000000000000006044820152fd5b5060146064928585519362461bcd60e51b8552840152820152734e6f2066756e647320746f20776974686472617760601b6044820152fd5b84513d8a823e3d90fd5b610eb0919250843d86116103d2576103c48183611867565b9038610bd7565b83513d89823e3d90fd5b610ed89150853d87116103d2576103c48183611867565b38610bab565b50503461021657816003193601126102165760209060ff6002541690519015158152f35b505034610216578160031936011261021657517f00000000000000000000000000000000000000000000000000000000000000006001600160a01b03168152602090f35b503461017457608036600319011261017457610f606117ee565b602480359360449360648035948635946001600160a01b0380881694909390928589036114f1578490610f91611951565b1698865192638da5cb5b60e01b84528c848c818860209889935afa9182156112b95790610fc7926114d4575b50871633146118a8565b8c8b89519186838981636fad7e9560e11b958682525afa9283156114c85781936114a9575b508a51631b3d58e960e21b8152928916888401527f000000000000000000000000000000000000000000000000000000000000000089169287818681875afa91821561149e5790611041926114875750611905565b8d1580158061147e575b1561143d5761142b578d600019048b116113fa578c8f918790898d518094819382525afa9081156113f0578991889184916113d3575b508c51627eeac760e11b8152338b82015260028782015292839188918391165afa9182156113c857908f92611393575b50106113545760ff898f8e81526003885220541661131f57928c928e95928d958a6111d8575b50505050918884926111d2989694837fce57dbe4c08c1ce2ed797f90d108e2c368d2cfca24f91f3e04b406681eee5d479d9c9b99975285815242898620558880519561112287611835565b6001875260038388019333855283890195865260608901968752608089019783895260a08a019c8d5283525220945115159060ff865491610100600160a81b03905160081b169216906affffffffffffffffffffff60a81b1617178455516001840155516002830155516003820155019151166bffffffffffffffffffffffff60a01b825416179055519283923397849192604091949360608401958452602084015260018060a01b0316910152565b0390a380f35b84979396508194919295508b519283809263b5af090f60e01b82528d8c8301525afa9182156112b95791611302575b50156112c457893b15158061125d575b156112295792818d948c948e946110d7565b6013907224b73b30b634b21022a9219918103a37b5b2b760691b93959489519562461bcd60e51b8752860152840152820152fd5b5087516318160ddd60e01b81528d90858188818c5afa9182156112b95791611288575b501515611217565b90508481813d83116112b2575b61129f8183611867565b810103126112ae575138611280565b8d80fd5b503d611295565b8a51903d90823e3d90fd5b601d907f537461626c65636f696e206973206e6f742077686974656c697374656400000093959489519562461bcd60e51b8752860152840152820152fd5b6113199150853d871161039b5761038d8183611867565b38611207565b506013907253616c6520616c72656164792061637469766560681b93959489519562461bcd60e51b8752860152840152820152fd5b50601a907f496e73756666696369656e74206275796f757420746f6b656e7300000000000093959489519562461bcd60e51b8752860152840152820152fd5b809250878092503d83116113c1575b6113ac8183611867565b810103126113bd578d9051386110b1565b8e80fd5b503d6113a2565b8b51903d90823e3d90fd5b6113ea9150823d84116103d2576103c48183611867565b38611081565b8b513d84823e3d90fd5b5050600e906d0a0e4d2c6ca40e8dede40d0d2ced60931b93959489519562461bcd60e51b8752860152840152820152fd5b634e487b7160e01b8f5260128752828ffd5b5050506017907f496e76616c69642073616c6520706172616d657465727300000000000000000093959489519562461bcd60e51b8752860152840152820152fd5b508b151561104b565b6103959150883d8a1161039b5761038d8183611867565b8c51903d90823e3d90fd5b6114c1919350873d89116103d2576103c48183611867565b9138610fec565b508a51903d90823e3d90fd5b6114eb9150863d88116103d2576103c48183611867565b38610fbd565b8b80fd5b503461017457826003193601126101745761150e611809565b6002549060ff821615611550575060ff1916600255513381527f5db9ee0a495bf2e6ff9c91a7834c1ba4fdd244a5e8aa4e537bd38aeae4b073aa90602090a180f35b8251638dfc202b60e01b8152fd5b503461017457602092836003193601126104e7576001600160a01b0391826115846117ee565b16825280855284848320549385519283809263391ff95160e11b82527f0000000000000000000000000000000000000000000000000000000000000000165afa9182156116185780926115e6575b50506115dd916119ac565b42119051908152f35b9091508482813d8311611611575b6115fe8183611867565b810103126104e75750516115dd386115d2565b503d6115f4565b8451903d90823e3d90fd5b5091903461021657806003193601126102165761163e6117ee565b6001600160a01b039360243585811691908290036117125785845193636fad7e9560e11b855284838160209a8b94165afa93841561170857908793929187956116e4575b50906044918651958694859363e985e9c560e01b8552840152306024840152165afa9283156116d957926116ba575b50519015158152f35b6116d2919250833d851161039b5761038d8183611867565b90386116b1565b8251903d90823e3d90fd5b60449291955061170090853d87116103d2576103c48183611867565b949091611682565b85513d88823e3d90fd5b8480fd5b919050346103f65760203660031901126103f657828460c09560a06117396117ee565b9561174381611835565b8281528260208201528285820152826060820152826080820152015260018060a01b03809416815260036020522083519161177d83611835565b81549460ff861615159586855285602086019160081c1681528560018501549183870192835260a08260028801549660608a0197885260038901549860808b01998a5201541697019687528351988952511660208801525190860152516060850152516080840152511660a0820152f35b600435906001600160a01b038216820361180457565b600080fd5b6000546001600160a01b0316330361181d57565b60405163118cdaa760e01b8152336004820152602490fd5b60c0810190811067ffffffffffffffff82111761185157604052565b634e487b7160e01b600052604160045260246000fd5b90601f8019910116810190811067ffffffffffffffff82111761185157604052565b9081602091031261180457516001600160a01b03811681036118045790565b156118af57565b60405162461bcd60e51b81526020600482015260166024820152752737ba103bb930b83832b21039b7b7339037bbb732b960511b6044820152606490fd5b90816020910312611804575180151581036118045790565b1561190c57565b60405162461bcd60e51b815260206004820152601f60248201527f4e6f7420612076657269666965642070726f746f636f6c205753546f6b656e006044820152606490fd5b60ff6002541661195d57565b60405163d93c066560e01b8152600490fd5b1561197657565b60405162461bcd60e51b815260206004820152600e60248201526d4e6f206163746976652073616c6560901b6044820152606490fd5b919082018092116119b957565b634e487b7160e01b600052601160045260246000fd5b6000806119f89260018060a01b03169360208151910182865af16119f1611a41565b9083611a81565b8051908115159182611a26575b5050611a0e5750565b60249060405190635274afe760e01b82526004820152fd5b611a3992506020809183010191016118ed565b153880611a05565b3d15611a7c573d9067ffffffffffffffff82116118515760405191611a70601f8201601f191660200184611867565b82523d6000602084013e565b606090565b90611aa85750805115611a9657805190602001fd5b604051630a12f52160e11b8152600490fd5b81511580611adb575b611ab9575090565b604051639996b31560e01b81526001600160a01b039091166004820152602490fd5b50803b15611ab1565b600260015414611af5576002600155565b604051633ee5aeb560e01b8152600490fdfea26469706673582212203dd19a09cc61d58aaf64d082d5417bd7933e8bfa44a6b28b8a62aa089a276cc964736f6c63430008140033",
  "linkReferences": {},
  "deployedLinkReferences": {}
}